{
	"Day28_ParentFunction.sol": {
		"E": {
			"abi": [
				{
					"anonymous": false,
					"inputs": [
						{
							"indexed": false,
							"internalType": "string",
							"name": "message",
							"type": "string"
						}
					],
					"name": "Log",
					"type": "event"
				},
				{
					"inputs": [],
					"name": "foo",
					"outputs": [],
					"stateMutability": "nonpayable",
					"type": "function"
				}
			],
			"devdoc": {
				"kind": "dev",
				"methods": {},
				"version": 1
			},
			"evm": {
				"assembly": "    /* \"Day28_ParentFunction.sol\":105:189  contract E {... */\n  mstore(0x40, 0x80)\n  callvalue\n  dup1\n  iszero\n  tag_1\n  jumpi\n  0x00\n  dup1\n  revert\ntag_1:\n  pop\n  dataSize(sub_0)\n  dup1\n  dataOffset(sub_0)\n  0x00\n  codecopy\n  0x00\n  return\nstop\n\nsub_0: assembly {\n        /* \"Day28_ParentFunction.sol\":105:189  contract E {... */\n      mstore(0x40, 0x80)\n      callvalue\n      dup1\n      iszero\n      tag_1\n      jumpi\n      0x00\n      dup1\n      revert\n    tag_1:\n      pop\n      jumpi(tag_2, lt(calldatasize, 0x04))\n      shr(0xe0, calldataload(0x00))\n      dup1\n      0xc2985578\n      eq\n      tag_3\n      jumpi\n    tag_2:\n      0x00\n      dup1\n      revert\n        /* \"Day28_ParentFunction.sol\":155:187  function foo() public virtual {} */\n    tag_3:\n      tag_4\n      tag_5\n      jump\t// in\n    tag_4:\n      stop\n    tag_5:\n      jump\t// out\n\n    auxdata: 0xa2646970667358221220a899576a5bbed74a02dbb139fb366fe9ce3d6981ef359b0da4d0f4a2699ae12764736f6c63430008070033\n}\n",
				"bytecode": {
					"linkReferences": {},
					"object": "6080604052348015600f57600080fd5b50606d80601d6000396000f3fe6080604052348015600f57600080fd5b506004361060285760003560e01c8063c298557814602d575b600080fd5b60336035565b005b56fea2646970667358221220a899576a5bbed74a02dbb139fb366fe9ce3d6981ef359b0da4d0f4a2699ae12764736f6c63430008070033",
					"opcodes": "PUSH1 0x80 PUSH1 0x40 MSTORE CALLVALUE DUP1 ISZERO PUSH1 0xF JUMPI PUSH1 0x0 DUP1 REVERT JUMPDEST POP PUSH1 0x6D DUP1 PUSH1 0x1D PUSH1 0x0 CODECOPY PUSH1 0x0 RETURN INVALID PUSH1 0x80 PUSH1 0x40 MSTORE CALLVALUE DUP1 ISZERO PUSH1 0xF JUMPI PUSH1 0x0 DUP1 REVERT JUMPDEST POP PUSH1 0x4 CALLDATASIZE LT PUSH1 0x28 JUMPI PUSH1 0x0 CALLDATALOAD PUSH1 0xE0 SHR DUP1 PUSH4 0xC2985578 EQ PUSH1 0x2D JUMPI JUMPDEST PUSH1 0x0 DUP1 REVERT JUMPDEST PUSH1 0x33 PUSH1 0x35 JUMP JUMPDEST STOP JUMPDEST JUMP INVALID LOG2 PUSH5 0x6970667358 0x22 SLT KECCAK256 0xA8 SWAP10 JUMPI PUSH11 0x5BBED74A02DBB139FB366F 0xE9 0xCE RETURNDATASIZE PUSH10 0x81EF359B0DA4D0F4A269 SWAP11 0xE1 0x27 PUSH5 0x736F6C6343 STOP ADDMOD SMOD STOP CALLER "
				},
				"gasEstimates": {
					"creation": {
						"codeDepositCost": "21800",
						"executionCost": "75",
						"totalCost": "21875"
					},
					"external": {
						"foo()": "122"
					}
				},
				"methodIdentifiers": {
					"foo()": "c2985578"
				}
			},
			"storageLayout": {
				"storage": [],
				"types": null
			},
			"userdoc": {
				"kind": "user",
				"methods": {},
				"version": 1
			}
		}
	}
}