{
	"Day33_SendETH.sol": {
		"SendEther": {
			"abi": [
				{
					"inputs": [],
					"stateMutability": "payable",
					"type": "constructor"
				},
				{
					"inputs": [
						{
							"internalType": "address payable",
							"name": "_to",
							"type": "address"
						}
					],
					"name": "sendViaTransfer",
					"outputs": [],
					"stateMutability": "payable",
					"type": "function"
				},
				{
					"stateMutability": "payable",
					"type": "receive"
				}
			],
			"devdoc": {
				"kind": "dev",
				"methods": {},
				"version": 1
			},
			"evm": {
				"assembly": "    /* \"Day33_SendETH.sol\":89:278  contract SendEther {... */\n  mstore(0x40, 0x80)\n  dataSize(sub_0)\n  dup1\n  dataOffset(sub_0)\n  0x00\n  codecopy\n  0x00\n  return\nstop\n\nsub_0: assembly {\n        /* \"Day33_SendETH.sol\":89:278  contract SendEther {... */\n      mstore(0x40, 0x80)\n      jumpi(tag_1, lt(calldatasize, 0x04))\n      shr(0xe0, calldataload(0x00))\n      dup1\n      0x636e082b\n      eq\n      tag_3\n      jumpi\n      jump(tag_2)\n    tag_1:\n      jumpi(tag_2, calldatasize)\n      stop\n    tag_2:\n      0x00\n      dup1\n      revert\n        /* \"Day33_SendETH.sol\":179:276  function sendViaTransfer(address payable _to) external payable {... */\n    tag_3:\n      tag_6\n      0x04\n      dup1\n      calldatasize\n      sub\n      dup2\n      add\n      swap1\n      tag_7\n      swap2\n      swap1\n      tag_8\n      jump\t// in\n    tag_7:\n      tag_9\n      jump\t// in\n    tag_6:\n      stop\n    tag_9:\n        /* \"Day33_SendETH.sol\":252:255  _to */\n      dup1\n        /* \"Day33_SendETH.sol\":252:264  _to.transfer */\n      0xffffffffffffffffffffffffffffffffffffffff\n      and\n        /* \"Day33_SendETH.sol\":252:269  _to.transfer(123) */\n      0x08fc\n        /* \"Day33_SendETH.sol\":265:268  123 */\n      0x7b\n        /* \"Day33_SendETH.sol\":252:269  _to.transfer(123) */\n      swap1\n      dup2\n      iszero\n      mul\n      swap1\n      mload(0x40)\n      0x00\n      mload(0x40)\n      dup1\n      dup4\n      sub\n      dup2\n      dup6\n      dup9\n      dup9\n      call\n      swap4\n      pop\n      pop\n      pop\n      pop\n      iszero\n      dup1\n      iszero\n      tag_12\n      jumpi\n      returndatasize\n      0x00\n      dup1\n      returndatacopy\n      revert(0x00, returndatasize)\n    tag_12:\n      pop\n        /* \"Day33_SendETH.sol\":179:276  function sendViaTransfer(address payable _to) external payable {... */\n      pop\n      jump\t// out\n        /* \"#utility.yul\":7:162   */\n    tag_14:\n        /* \"#utility.yul\":61:66   */\n      0x00\n        /* \"#utility.yul\":99:105   */\n      dup2\n        /* \"#utility.yul\":86:106   */\n      calldataload\n        /* \"#utility.yul\":77:106   */\n      swap1\n      pop\n        /* \"#utility.yul\":115:156   */\n      tag_16\n        /* \"#utility.yul\":150:155   */\n      dup2\n        /* \"#utility.yul\":115:156   */\n      tag_17\n      jump\t// in\n    tag_16:\n        /* \"#utility.yul\":7:162   */\n      swap3\n      swap2\n      pop\n      pop\n      jump\t// out\n        /* \"#utility.yul\":168:513   */\n    tag_8:\n        /* \"#utility.yul\":235:241   */\n      0x00\n        /* \"#utility.yul\":284:286   */\n      0x20\n        /* \"#utility.yul\":272:281   */\n      dup3\n        /* \"#utility.yul\":263:270   */\n      dup5\n        /* \"#utility.yul\":259:282   */\n      sub\n        /* \"#utility.yul\":255:287   */\n      slt\n        /* \"#utility.yul\":252:371   */\n      iszero\n      tag_19\n      jumpi\n        /* \"#utility.yul\":290:369   */\n      tag_20\n      tag_21\n      jump\t// in\n    tag_20:\n        /* \"#utility.yul\":252:371   */\n    tag_19:\n        /* \"#utility.yul\":410:411   */\n      0x00\n        /* \"#utility.yul\":435:496   */\n      tag_22\n        /* \"#utility.yul\":488:495   */\n      dup5\n        /* \"#utility.yul\":479:485   */\n      dup3\n        /* \"#utility.yul\":468:477   */\n      dup6\n        /* \"#utility.yul\":464:486   */\n      add\n        /* \"#utility.yul\":435:496   */\n      tag_14\n      jump\t// in\n    tag_22:\n        /* \"#utility.yul\":425:496   */\n      swap2\n      pop\n        /* \"#utility.yul\":381:506   */\n      pop\n        /* \"#utility.yul\":168:513   */\n      swap3\n      swap2\n      pop\n      pop\n      jump\t// out\n        /* \"#utility.yul\":600:704   */\n    tag_25:\n        /* \"#utility.yul\":645:652   */\n      0x00\n        /* \"#utility.yul\":674:698   */\n      tag_27\n        /* \"#utility.yul\":692:697   */\n      dup3\n        /* \"#utility.yul\":674:698   */\n      tag_28\n      jump\t// in\n    tag_27:\n        /* \"#utility.yul\":663:698   */\n      swap1\n      pop\n        /* \"#utility.yul\":600:704   */\n      swap2\n      swap1\n      pop\n      jump\t// out\n        /* \"#utility.yul\":710:836   */\n    tag_28:\n        /* \"#utility.yul\":747:754   */\n      0x00\n        /* \"#utility.yul\":787:829   */\n      0xffffffffffffffffffffffffffffffffffffffff\n        /* \"#utility.yul\":780:785   */\n      dup3\n        /* \"#utility.yul\":776:830   */\n      and\n        /* \"#utility.yul\":765:830   */\n      swap1\n      pop\n        /* \"#utility.yul\":710:836   */\n      swap2\n      swap1\n      pop\n      jump\t// out\n        /* \"#utility.yul\":965:1082   */\n    tag_21:\n        /* \"#utility.yul\":1074:1075   */\n      0x00\n        /* \"#utility.yul\":1071:1072   */\n      dup1\n        /* \"#utility.yul\":1064:1076   */\n      revert\n        /* \"#utility.yul\":1088:1226   */\n    tag_17:\n        /* \"#utility.yul\":1169:1201   */\n      tag_34\n        /* \"#utility.yul\":1195:1200   */\n      dup2\n        /* \"#utility.yul\":1169:1201   */\n      tag_25\n      jump\t// in\n    tag_34:\n        /* \"#utility.yul\":1162:1167   */\n      dup2\n        /* \"#utility.yul\":1159:1202   */\n      eq\n        /* \"#utility.yul\":1149:1220   */\n      tag_35\n      jumpi\n        /* \"#utility.yul\":1216:1217   */\n      0x00\n        /* \"#utility.yul\":1213:1214   */\n      dup1\n        /* \"#utility.yul\":1206:1218   */\n      revert\n        /* \"#utility.yul\":1149:1220   */\n    tag_35:\n        /* \"#utility.yul\":1088:1226   */\n      pop\n      jump\t// out\n\n    auxdata: 0xa2646970667358221220534cb1ced77b1bd042dde0c6cfa5de6277358bc7909fa22a35b8d63f331e422664736f6c63430008070033\n}\n",
				"bytecode": {
					"linkReferences": {},
					"object": "608060405261015b806100136000396000f3fe6080604052600436106100225760003560e01c8063636e082b1461002e57610029565b3661002957005b600080fd5b610048600480360381019061004391906100aa565b61004a565b005b8073ffffffffffffffffffffffffffffffffffffffff166108fc607b9081150290604051600060405180830381858888f19350505050158015610091573d6000803e3d6000fd5b5050565b6000813590506100a48161010e565b92915050565b6000602082840312156100c0576100bf610109565b5b60006100ce84828501610095565b91505092915050565b60006100e2826100e9565b9050919050565b600073ffffffffffffffffffffffffffffffffffffffff82169050919050565b600080fd5b610117816100d7565b811461012257600080fd5b5056fea2646970667358221220534cb1ced77b1bd042dde0c6cfa5de6277358bc7909fa22a35b8d63f331e422664736f6c63430008070033",
					"opcodes": "PUSH1 0x80 PUSH1 0x40 MSTORE PUSH2 0x15B DUP1 PUSH2 0x13 PUSH1 0x0 CODECOPY PUSH1 0x0 RETURN INVALID PUSH1 0x80 PUSH1 0x40 MSTORE PUSH1 0x4 CALLDATASIZE LT PUSH2 0x22 JUMPI PUSH1 0x0 CALLDATALOAD PUSH1 0xE0 SHR DUP1 PUSH4 0x636E082B EQ PUSH2 0x2E JUMPI PUSH2 0x29 JUMP JUMPDEST CALLDATASIZE PUSH2 0x29 JUMPI STOP JUMPDEST PUSH1 0x0 DUP1 REVERT JUMPDEST PUSH2 0x48 PUSH1 0x4 DUP1 CALLDATASIZE SUB DUP2 ADD SWAP1 PUSH2 0x43 SWAP2 SWAP1 PUSH2 0xAA JUMP JUMPDEST PUSH2 0x4A JUMP JUMPDEST STOP JUMPDEST DUP1 PUSH20 0xFFFFFFFFFFFFFFFFFFFFFFFFFFFFFFFFFFFFFFFF AND PUSH2 0x8FC PUSH1 0x7B SWAP1 DUP2 ISZERO MUL SWAP1 PUSH1 0x40 MLOAD PUSH1 0x0 PUSH1 0x40 MLOAD DUP1 DUP4 SUB DUP2 DUP6 DUP9 DUP9 CALL SWAP4 POP POP POP POP ISZERO DUP1 ISZERO PUSH2 0x91 JUMPI RETURNDATASIZE PUSH1 0x0 DUP1 RETURNDATACOPY RETURNDATASIZE PUSH1 0x0 REVERT JUMPDEST POP POP JUMP JUMPDEST PUSH1 0x0 DUP2 CALLDATALOAD SWAP1 POP PUSH2 0xA4 DUP2 PUSH2 0x10E JUMP JUMPDEST SWAP3 SWAP2 POP POP JUMP JUMPDEST PUSH1 0x0 PUSH1 0x20 DUP3 DUP5 SUB SLT ISZERO PUSH2 0xC0 JUMPI PUSH2 0xBF PUSH2 0x109 JUMP JUMPDEST JUMPDEST PUSH1 0x0 PUSH2 0xCE DUP5 DUP3 DUP6 ADD PUSH2 0x95 JUMP JUMPDEST SWAP2 POP POP SWAP3 SWAP2 POP POP JUMP JUMPDEST PUSH1 0x0 PUSH2 0xE2 DUP3 PUSH2 0xE9 JUMP JUMPDEST SWAP1 POP SWAP2 SWAP1 POP JUMP JUMPDEST PUSH1 0x0 PUSH20 0xFFFFFFFFFFFFFFFFFFFFFFFFFFFFFFFFFFFFFFFF DUP3 AND SWAP1 POP SWAP2 SWAP1 POP JUMP JUMPDEST PUSH1 0x0 DUP1 REVERT JUMPDEST PUSH2 0x117 DUP2 PUSH2 0xD7 JUMP JUMPDEST DUP2 EQ PUSH2 0x122 JUMPI PUSH1 0x0 DUP1 REVERT JUMPDEST POP JUMP INVALID LOG2 PUSH5 0x6970667358 0x22 SLT KECCAK256 MSTORE8 0x4C 0xB1 0xCE 0xD7 PUSH28 0x1BD042DDE0C6CFA5DE6277358BC7909FA22A35B8D63F331E42266473 PUSH16 0x6C634300080700330000000000000000 "
				},
				"gasEstimates": {
					"creation": {
						"codeDepositCost": "69400",
						"executionCost": "93",
						"totalCost": "69493"
					},
					"external": {
						"sendViaTransfer(address)": "infinite"
					}
				},
				"methodIdentifiers": {
					"sendViaTransfer(address)": "636e082b"
				}
			},
			"storageLayout": {
				"storage": [],
				"types": null
			},
			"userdoc": {
				"kind": "user",
				"methods": {},
				"version": 1
			}
		}
	}
}