{
	"Day11_Modifier.sol": {
		"FunctionModifier": {
			"abi": [
				{
					"inputs": [],
					"name": "addCount",
					"outputs": [],
					"stateMutability": "nonpayable",
					"type": "function"
				},
				{
					"inputs": [],
					"name": "count",
					"outputs": [
						{
							"internalType": "uint256",
							"name": "",
							"type": "uint256"
						}
					],
					"stateMutability": "view",
					"type": "function"
				},
				{
					"inputs": [],
					"name": "pause",
					"outputs": [
						{
							"internalType": "bool",
							"name": "",
							"type": "bool"
						}
					],
					"stateMutability": "view",
					"type": "function"
				},
				{
					"inputs": [
						{
							"internalType": "bool",
							"name": "_pause",
							"type": "bool"
						}
					],
					"name": "togglePause",
					"outputs": [],
					"stateMutability": "nonpayable",
					"type": "function"
				}
			],
			"devdoc": {
				"kind": "dev",
				"methods": {},
				"version": 1
			},
			"evm": {
				"assembly": "    /* \"Day11_Modifier.sol\":145:353  contract FunctionModifier {... */\n  mstore(0x40, 0x80)\n  callvalue\n  dup1\n  iszero\n  tag_1\n  jumpi\n  0x00\n  dup1\n  revert\ntag_1:\n  pop\n  dataSize(sub_0)\n  dup1\n  dataOffset(sub_0)\n  0x00\n  codecopy\n  0x00\n  return\nstop\n\nsub_0: assembly {\n        /* \"Day11_Modifier.sol\":145:353  contract FunctionModifier {... */\n      mstore(0x40, 0x80)\n      callvalue\n      dup1\n      iszero\n      tag_1\n      jumpi\n      0x00\n      dup1\n      revert\n    tag_1:\n      pop\n      jumpi(tag_2, lt(calldatasize, 0x04))\n      shr(0xe0, calldataload(0x00))\n      dup1\n      0x06661abd\n      eq\n      tag_3\n      jumpi\n      dup1\n      0x57d159c6\n      eq\n      tag_4\n      jumpi\n      dup1\n      0x6cefce6e\n      eq\n      tag_5\n      jumpi\n      dup1\n      0x8456cb59\n      eq\n      tag_6\n      jumpi\n    tag_2:\n      0x00\n      dup1\n      revert\n        /* \"Day11_Modifier.sol\":200:217  uint public count */\n    tag_3:\n      tag_7\n      tag_8\n      jump\t// in\n    tag_7:\n      mload(0x40)\n      tag_9\n      swap2\n      swap1\n      tag_10\n      jump\t// in\n    tag_9:\n      mload(0x40)\n      dup1\n      swap2\n      sub\n      swap1\n      return\n        /* \"Day11_Modifier.sol\":224:299  function togglePause (bool _pause) external {... */\n    tag_4:\n      tag_11\n      0x04\n      dup1\n      calldatasize\n      sub\n      dup2\n      add\n      swap1\n      tag_12\n      swap2\n      swap1\n      tag_13\n      jump\t// in\n    tag_12:\n      tag_14\n      jump\t// in\n    tag_11:\n      stop\n        /* \"Day11_Modifier.sol\":305:351  function addCount () external {... */\n    tag_5:\n      tag_15\n      tag_16\n      jump\t// in\n    tag_15:\n      stop\n        /* \"Day11_Modifier.sol\":177:194  bool public pause */\n    tag_6:\n      tag_17\n      tag_18\n      jump\t// in\n    tag_17:\n      mload(0x40)\n      tag_19\n      swap2\n      swap1\n      tag_20\n      jump\t// in\n    tag_19:\n      mload(0x40)\n      dup1\n      swap2\n      sub\n      swap1\n      return\n        /* \"Day11_Modifier.sol\":200:217  uint public count */\n    tag_8:\n      sload(0x01)\n      dup2\n      jump\t// out\n        /* \"Day11_Modifier.sol\":224:299  function togglePause (bool _pause) external {... */\n    tag_14:\n        /* \"Day11_Modifier.sol\":286:292  _pause */\n      dup1\n        /* \"Day11_Modifier.sol\":278:283  pause */\n      0x00\n      dup1\n        /* \"Day11_Modifier.sol\":278:292  pause = _pause */\n      0x0100\n      exp\n      dup2\n      sload\n      dup2\n      0xff\n      mul\n      not\n      and\n      swap1\n      dup4\n      iszero\n      iszero\n      mul\n      or\n      swap1\n      sstore\n      pop\n        /* \"Day11_Modifier.sol\":224:299  function togglePause (bool _pause) external {... */\n      pop\n      jump\t// out\n        /* \"Day11_Modifier.sol\":305:351  function addCount () external {... */\n    tag_16:\n      jump\t// out\n        /* \"Day11_Modifier.sol\":177:194  bool public pause */\n    tag_18:\n      0x00\n      dup1\n      sload\n      swap1\n      0x0100\n      exp\n      swap1\n      div\n      0xff\n      and\n      dup2\n      jump\t// out\n        /* \"#utility.yul\":7:140   */\n    tag_24:\n        /* \"#utility.yul\":50:55   */\n      0x00\n        /* \"#utility.yul\":88:94   */\n      dup2\n        /* \"#utility.yul\":75:95   */\n      calldataload\n        /* \"#utility.yul\":66:95   */\n      swap1\n      pop\n        /* \"#utility.yul\":104:134   */\n      tag_26\n        /* \"#utility.yul\":128:133   */\n      dup2\n        /* \"#utility.yul\":104:134   */\n      tag_27\n      jump\t// in\n    tag_26:\n        /* \"#utility.yul\":7:140   */\n      swap3\n      swap2\n      pop\n      pop\n      jump\t// out\n        /* \"#utility.yul\":146:469   */\n    tag_13:\n        /* \"#utility.yul\":202:208   */\n      0x00\n        /* \"#utility.yul\":251:253   */\n      0x20\n        /* \"#utility.yul\":239:248   */\n      dup3\n        /* \"#utility.yul\":230:237   */\n      dup5\n        /* \"#utility.yul\":226:249   */\n      sub\n        /* \"#utility.yul\":222:254   */\n      slt\n        /* \"#utility.yul\":219:338   */\n      iszero\n      tag_29\n      jumpi\n        /* \"#utility.yul\":257:336   */\n      tag_30\n      tag_31\n      jump\t// in\n    tag_30:\n        /* \"#utility.yul\":219:338   */\n    tag_29:\n        /* \"#utility.yul\":377:378   */\n      0x00\n        /* \"#utility.yul\":402:452   */\n      tag_32\n        /* \"#utility.yul\":444:451   */\n      dup5\n        /* \"#utility.yul\":435:441   */\n      dup3\n        /* \"#utility.yul\":424:433   */\n      dup6\n        /* \"#utility.yul\":420:442   */\n      add\n        /* \"#utility.yul\":402:452   */\n      tag_24\n      jump\t// in\n    tag_32:\n        /* \"#utility.yul\":392:452   */\n      swap2\n      pop\n        /* \"#utility.yul\":348:462   */\n      pop\n        /* \"#utility.yul\":146:469   */\n      swap3\n      swap2\n      pop\n      pop\n      jump\t// out\n        /* \"#utility.yul\":475:584   */\n    tag_33:\n        /* \"#utility.yul\":556:577   */\n      tag_35\n        /* \"#utility.yul\":571:576   */\n      dup2\n        /* \"#utility.yul\":556:577   */\n      tag_36\n      jump\t// in\n    tag_35:\n        /* \"#utility.yul\":551:554   */\n      dup3\n        /* \"#utility.yul\":544:578   */\n      mstore\n        /* \"#utility.yul\":475:584   */\n      pop\n      pop\n      jump\t// out\n        /* \"#utility.yul\":590:708   */\n    tag_37:\n        /* \"#utility.yul\":677:701   */\n      tag_39\n        /* \"#utility.yul\":695:700   */\n      dup2\n        /* \"#utility.yul\":677:701   */\n      tag_40\n      jump\t// in\n    tag_39:\n        /* \"#utility.yul\":672:675   */\n      dup3\n        /* \"#utility.yul\":665:702   */\n      mstore\n        /* \"#utility.yul\":590:708   */\n      pop\n      pop\n      jump\t// out\n        /* \"#utility.yul\":714:924   */\n    tag_20:\n        /* \"#utility.yul\":801:805   */\n      0x00\n        /* \"#utility.yul\":839:841   */\n      0x20\n        /* \"#utility.yul\":828:837   */\n      dup3\n        /* \"#utility.yul\":824:842   */\n      add\n        /* \"#utility.yul\":816:842   */\n      swap1\n      pop\n        /* \"#utility.yul\":852:917   */\n      tag_42\n        /* \"#utility.yul\":914:915   */\n      0x00\n        /* \"#utility.yul\":903:912   */\n      dup4\n        /* \"#utility.yul\":899:916   */\n      add\n        /* \"#utility.yul\":890:896   */\n      dup5\n        /* \"#utility.yul\":852:917   */\n      tag_33\n      jump\t// in\n    tag_42:\n        /* \"#utility.yul\":714:924   */\n      swap3\n      swap2\n      pop\n      pop\n      jump\t// out\n        /* \"#utility.yul\":930:1152   */\n    tag_10:\n        /* \"#utility.yul\":1023:1027   */\n      0x00\n        /* \"#utility.yul\":1061:1063   */\n      0x20\n        /* \"#utility.yul\":1050:1059   */\n      dup3\n        /* \"#utility.yul\":1046:1064   */\n      add\n        /* \"#utility.yul\":1038:1064   */\n      swap1\n      pop\n        /* \"#utility.yul\":1074:1145   */\n      tag_44\n        /* \"#utility.yul\":1142:1143   */\n      0x00\n        /* \"#utility.yul\":1131:1140   */\n      dup4\n        /* \"#utility.yul\":1127:1144   */\n      add\n        /* \"#utility.yul\":1118:1124   */\n      dup5\n        /* \"#utility.yul\":1074:1145   */\n      tag_37\n      jump\t// in\n    tag_44:\n        /* \"#utility.yul\":930:1152   */\n      swap3\n      swap2\n      pop\n      pop\n      jump\t// out\n        /* \"#utility.yul\":1239:1329   */\n    tag_36:\n        /* \"#utility.yul\":1273:1280   */\n      0x00\n        /* \"#utility.yul\":1316:1321   */\n      dup2\n        /* \"#utility.yul\":1309:1322   */\n      iszero\n        /* \"#utility.yul\":1302:1323   */\n      iszero\n        /* \"#utility.yul\":1291:1323   */\n      swap1\n      pop\n        /* \"#utility.yul\":1239:1329   */\n      swap2\n      swap1\n      pop\n      jump\t// out\n        /* \"#utility.yul\":1335:1412   */\n    tag_40:\n        /* \"#utility.yul\":1372:1379   */\n      0x00\n        /* \"#utility.yul\":1401:1406   */\n      dup2\n        /* \"#utility.yul\":1390:1406   */\n      swap1\n      pop\n        /* \"#utility.yul\":1335:1412   */\n      swap2\n      swap1\n      pop\n      jump\t// out\n        /* \"#utility.yul\":1541:1658   */\n    tag_31:\n        /* \"#utility.yul\":1650:1651   */\n      0x00\n        /* \"#utility.yul\":1647:1648   */\n      dup1\n        /* \"#utility.yul\":1640:1652   */\n      revert\n        /* \"#utility.yul\":1664:1780   */\n    tag_27:\n        /* \"#utility.yul\":1734:1755   */\n      tag_53\n        /* \"#utility.yul\":1749:1754   */\n      dup2\n        /* \"#utility.yul\":1734:1755   */\n      tag_36\n      jump\t// in\n    tag_53:\n        /* \"#utility.yul\":1727:1732   */\n      dup2\n        /* \"#utility.yul\":1724:1756   */\n      eq\n        /* \"#utility.yul\":1714:1774   */\n      tag_54\n      jumpi\n        /* \"#utility.yul\":1770:1771   */\n      0x00\n        /* \"#utility.yul\":1767:1768   */\n      dup1\n        /* \"#utility.yul\":1760:1772   */\n      revert\n        /* \"#utility.yul\":1714:1774   */\n    tag_54:\n        /* \"#utility.yul\":1664:1780   */\n      pop\n      jump\t// out\n\n    auxdata: 0xa2646970667358221220723813743296d220631b9345495edaad2cd584bf6c5b242cbcb25aea923dee5a64736f6c63430008070033\n}\n",
				"bytecode": {
					"linkReferences": {},
					"object": "608060405234801561001057600080fd5b506101e6806100206000396000f3fe608060405234801561001057600080fd5b506004361061004c5760003560e01c806306661abd1461005157806357d159c61461006f5780636cefce6e1461008b5780638456cb5914610095575b600080fd5b6100596100b3565b6040516100669190610163565b60405180910390f35b610089600480360381019061008491906100fd565b6100b9565b005b6100936100d5565b005b61009d6100d7565b6040516100aa9190610148565b60405180910390f35b60015481565b806000806101000a81548160ff02191690831515021790555050565b565b60008054906101000a900460ff1681565b6000813590506100f781610199565b92915050565b60006020828403121561011357610112610194565b5b6000610121848285016100e8565b91505092915050565b6101338161017e565b82525050565b6101428161018a565b82525050565b600060208201905061015d600083018461012a565b92915050565b60006020820190506101786000830184610139565b92915050565b60008115159050919050565b6000819050919050565b600080fd5b6101a28161017e565b81146101ad57600080fd5b5056fea2646970667358221220723813743296d220631b9345495edaad2cd584bf6c5b242cbcb25aea923dee5a64736f6c63430008070033",
					"opcodes": "PUSH1 0x80 PUSH1 0x40 MSTORE CALLVALUE DUP1 ISZERO PUSH2 0x10 JUMPI PUSH1 0x0 DUP1 REVERT JUMPDEST POP PUSH2 0x1E6 DUP1 PUSH2 0x20 PUSH1 0x0 CODECOPY PUSH1 0x0 RETURN INVALID PUSH1 0x80 PUSH1 0x40 MSTORE CALLVALUE DUP1 ISZERO PUSH2 0x10 JUMPI PUSH1 0x0 DUP1 REVERT JUMPDEST POP PUSH1 0x4 CALLDATASIZE LT PUSH2 0x4C JUMPI PUSH1 0x0 CALLDATALOAD PUSH1 0xE0 SHR DUP1 PUSH4 0x6661ABD EQ PUSH2 0x51 JUMPI DUP1 PUSH4 0x57D159C6 EQ PUSH2 0x6F JUMPI DUP1 PUSH4 0x6CEFCE6E EQ PUSH2 0x8B JUMPI DUP1 PUSH4 0x8456CB59 EQ PUSH2 0x95 JUMPI JUMPDEST PUSH1 0x0 DUP1 REVERT JUMPDEST PUSH2 0x59 PUSH2 0xB3 JUMP JUMPDEST PUSH1 0x40 MLOAD PUSH2 0x66 SWAP2 SWAP1 PUSH2 0x163 JUMP JUMPDEST PUSH1 0x40 MLOAD DUP1 SWAP2 SUB SWAP1 RETURN JUMPDEST PUSH2 0x89 PUSH1 0x4 DUP1 CALLDATASIZE SUB DUP2 ADD SWAP1 PUSH2 0x84 SWAP2 SWAP1 PUSH2 0xFD JUMP JUMPDEST PUSH2 0xB9 JUMP JUMPDEST STOP JUMPDEST PUSH2 0x93 PUSH2 0xD5 JUMP JUMPDEST STOP JUMPDEST PUSH2 0x9D PUSH2 0xD7 JUMP JUMPDEST PUSH1 0x40 MLOAD PUSH2 0xAA SWAP2 SWAP1 PUSH2 0x148 JUMP JUMPDEST PUSH1 0x40 MLOAD DUP1 SWAP2 SUB SWAP1 RETURN JUMPDEST PUSH1 0x1 SLOAD DUP2 JUMP JUMPDEST DUP1 PUSH1 0x0 DUP1 PUSH2 0x100 EXP DUP2 SLOAD DUP2 PUSH1 0xFF MUL NOT AND SWAP1 DUP4 ISZERO ISZERO MUL OR SWAP1 SSTORE POP POP JUMP JUMPDEST JUMP JUMPDEST PUSH1 0x0 DUP1 SLOAD SWAP1 PUSH2 0x100 EXP SWAP1 DIV PUSH1 0xFF AND DUP2 JUMP JUMPDEST PUSH1 0x0 DUP2 CALLDATALOAD SWAP1 POP PUSH2 0xF7 DUP2 PUSH2 0x199 JUMP JUMPDEST SWAP3 SWAP2 POP POP JUMP JUMPDEST PUSH1 0x0 PUSH1 0x20 DUP3 DUP5 SUB SLT ISZERO PUSH2 0x113 JUMPI PUSH2 0x112 PUSH2 0x194 JUMP JUMPDEST JUMPDEST PUSH1 0x0 PUSH2 0x121 DUP5 DUP3 DUP6 ADD PUSH2 0xE8 JUMP JUMPDEST SWAP2 POP POP SWAP3 SWAP2 POP POP JUMP JUMPDEST PUSH2 0x133 DUP2 PUSH2 0x17E JUMP JUMPDEST DUP3 MSTORE POP POP JUMP JUMPDEST PUSH2 0x142 DUP2 PUSH2 0x18A JUMP JUMPDEST DUP3 MSTORE POP POP JUMP JUMPDEST PUSH1 0x0 PUSH1 0x20 DUP3 ADD SWAP1 POP PUSH2 0x15D PUSH1 0x0 DUP4 ADD DUP5 PUSH2 0x12A JUMP JUMPDEST SWAP3 SWAP2 POP POP JUMP JUMPDEST PUSH1 0x0 PUSH1 0x20 DUP3 ADD SWAP1 POP PUSH2 0x178 PUSH1 0x0 DUP4 ADD DUP5 PUSH2 0x139 JUMP JUMPDEST SWAP3 SWAP2 POP POP JUMP JUMPDEST PUSH1 0x0 DUP2 ISZERO ISZERO SWAP1 POP SWAP2 SWAP1 POP JUMP JUMPDEST PUSH1 0x0 DUP2 SWAP1 POP SWAP2 SWAP1 POP JUMP JUMPDEST PUSH1 0x0 DUP1 REVERT JUMPDEST PUSH2 0x1A2 DUP2 PUSH2 0x17E JUMP JUMPDEST DUP2 EQ PUSH2 0x1AD JUMPI PUSH1 0x0 DUP1 REVERT JUMPDEST POP JUMP INVALID LOG2 PUSH5 0x6970667358 0x22 SLT KECCAK256 PUSH19 0x3813743296D220631B9345495EDAAD2CD584BF PUSH13 0x5B242CBCB25AEA923DEE5A6473 PUSH16 0x6C634300080700330000000000000000 "
				},
				"gasEstimates": {
					"creation": {
						"codeDepositCost": "97200",
						"executionCost": "147",
						"totalCost": "97347"
					},
					"external": {
						"addCount()": "166",
						"count()": "2407",
						"pause()": "2512",
						"togglePause(bool)": "24679"
					}
				},
				"methodIdentifiers": {
					"addCount()": "6cefce6e",
					"count()": "06661abd",
					"pause()": "8456cb59",
					"togglePause(bool)": "57d159c6"
				}
			},
			"storageLayout": {
				"storage": [
					{
						"astId": 3,
						"contract": "Day11_Modifier.sol:FunctionModifier",
						"label": "pause",
						"offset": 0,
						"slot": "0",
						"type": "t_bool"
					},
					{
						"astId": 5,
						"contract": "Day11_Modifier.sol:FunctionModifier",
						"label": "count",
						"offset": 0,
						"slot": "1",
						"type": "t_uint256"
					}
				],
				"types": {
					"t_bool": {
						"encoding": "inplace",
						"label": "bool",
						"numberOfBytes": "1"
					},
					"t_uint256": {
						"encoding": "inplace",
						"label": "uint256",
						"numberOfBytes": "32"
					}
				}
			},
			"userdoc": {
				"kind": "user",
				"methods": {},
				"version": 1
			}
		}
	}
}