{
	"Day22_Hard_DeployAnyContract.sol": {
		"Helper": {
			"abi": [
				{
					"inputs": [
						{
							"internalType": "uint256",
							"name": "_x",
							"type": "uint256"
						},
						{
							"internalType": "uint256",
							"name": "_y",
							"type": "uint256"
						}
					],
					"name": "getBytecode",
					"outputs": [
						{
							"internalType": "bytes",
							"name": "",
							"type": "bytes"
						}
					],
					"stateMutability": "pure",
					"type": "function"
				},
				{
					"inputs": [],
					"name": "getBytecode1",
					"outputs": [
						{
							"internalType": "bytes",
							"name": "",
							"type": "bytes"
						}
					],
					"stateMutability": "pure",
					"type": "function"
				},
				{
					"inputs": [
						{
							"internalType": "address",
							"name": "_owner",
							"type": "address"
						}
					],
					"name": "getCalldata",
					"outputs": [
						{
							"internalType": "bytes",
							"name": "",
							"type": "bytes"
						}
					],
					"stateMutability": "pure",
					"type": "function"
				}
			],
			"devdoc": {
				"kind": "dev",
				"methods": {},
				"version": 1
			},
			"evm": {
				"assembly": "    /* \"Day22_Hard_DeployAnyContract.sol\":1033:1590  contract Helper {... */\n  mstore(0x40, 0x80)\n  callvalue\n  dup1\n  iszero\n  tag_1\n  jumpi\n  0x00\n  dup1\n  revert\ntag_1:\n  pop\n  dataSize(sub_0)\n  dup1\n  dataOffset(sub_0)\n  0x00\n  codecopy\n  0x00\n  return\nstop\n\nsub_0: assembly {\n        /* \"Day22_Hard_DeployAnyContract.sol\":1033:1590  contract Helper {... */\n      mstore(0x40, 0x80)\n      callvalue\n      dup1\n      iszero\n      tag_1\n      jumpi\n      0x00\n      dup1\n      revert\n    tag_1:\n      pop\n      jumpi(tag_2, lt(calldatasize, 0x04))\n      shr(0xe0, calldataload(0x00))\n      dup1\n      0x2064cad5\n      eq\n      tag_3\n      jumpi\n      dup1\n      0x92d483db\n      eq\n      tag_4\n      jumpi\n      dup1\n      0xe68f92f1\n      eq\n      tag_5\n      jumpi\n    tag_2:\n      0x00\n      dup1\n      revert\n        /* \"Day22_Hard_DeployAnyContract.sol\":1437:1588  function getCalldata (address _owner) external pure returns (bytes memory) {... */\n    tag_3:\n      tag_6\n      0x04\n      dup1\n      calldatasize\n      sub\n      dup2\n      add\n      swap1\n      tag_7\n      swap2\n      swap1\n      tag_8\n      jump\t// in\n    tag_7:\n      tag_9\n      jump\t// in\n    tag_6:\n      mload(0x40)\n      tag_10\n      swap2\n      swap1\n      tag_11\n      jump\t// in\n    tag_10:\n      mload(0x40)\n      dup1\n      swap2\n      sub\n      swap1\n      return\n        /* \"Day22_Hard_DeployAnyContract.sol\":1220:1431  function getBytecode (uint _x, uint _y) external pure returns (bytes memory) {... */\n    tag_4:\n      tag_12\n      0x04\n      dup1\n      calldatasize\n      sub\n      dup2\n      add\n      swap1\n      tag_13\n      swap2\n      swap1\n      tag_14\n      jump\t// in\n    tag_13:\n      tag_15\n      jump\t// in\n    tag_12:\n      mload(0x40)\n      tag_16\n      swap2\n      swap1\n      tag_11\n      jump\t// in\n    tag_16:\n      mload(0x40)\n      dup1\n      swap2\n      sub\n      swap1\n      return\n        /* \"Day22_Hard_DeployAnyContract.sol\":1055:1214  function getBytecode1() external pure returns (bytes memory) {... */\n    tag_5:\n      tag_17\n      tag_18\n      jump\t// in\n    tag_17:\n      mload(0x40)\n      tag_19\n      swap2\n      swap1\n      tag_11\n      jump\t// in\n    tag_19:\n      mload(0x40)\n      dup1\n      swap2\n      sub\n      swap1\n      return\n        /* \"Day22_Hard_DeployAnyContract.sol\":1437:1588  function getCalldata (address _owner) external pure returns (bytes memory) {... */\n    tag_9:\n        /* \"Day22_Hard_DeployAnyContract.sol\":1498:1510  bytes memory */\n      0x60\n        /* \"Day22_Hard_DeployAnyContract.sol\":1574:1580  _owner */\n      dup2\n        /* \"Day22_Hard_DeployAnyContract.sol\":1529:1581  abi.encodeWithSignature(\"setOwner(address)\", _owner) */\n      add(0x24, mload(0x40))\n      tag_21\n      swap2\n      swap1\n      tag_22\n      jump\t// in\n    tag_21:\n      mload(0x40)\n      0x20\n      dup2\n      dup4\n      sub\n      sub\n      dup2\n      mstore\n      swap1\n      0x40\n      mstore\n      and(not(0xffffffffffffffffffffffffffffffffffffffffffffffffffffffff), 0x13af403500000000000000000000000000000000000000000000000000000000)\n      0x20\n      dup3\n      add\n      dup1\n      mload\n      0xffffffffffffffffffffffffffffffffffffffffffffffffffffffff\n      dup4\n      dup2\n      dup4\n      and\n      or\n      dup4\n      mstore\n      pop\n      pop\n      pop\n      pop\n        /* \"Day22_Hard_DeployAnyContract.sol\":1522:1581  return abi.encodeWithSignature(\"setOwner(address)\", _owner) */\n      swap1\n      pop\n        /* \"Day22_Hard_DeployAnyContract.sol\":1437:1588  function getCalldata (address _owner) external pure returns (bytes memory) {... */\n      swap2\n      swap1\n      pop\n      jump\t// out\n        /* \"Day22_Hard_DeployAnyContract.sol\":1220:1431  function getBytecode (uint _x, uint _y) external pure returns (bytes memory) {... */\n    tag_15:\n        /* \"Day22_Hard_DeployAnyContract.sol\":1283:1295  bytes memory */\n      0x60\n        /* \"Day22_Hard_DeployAnyContract.sol\":1307:1328  bytes memory bytecode */\n      0x00\n        /* \"Day22_Hard_DeployAnyContract.sol\":1331:1363  type(TestContract2).creationCode */\n      mload(0x40)\n      dup1\n      0x20\n      add\n      tag_24\n      swap1\n      tag_25\n      jump\t// in\n    tag_24:\n      0x20\n      dup3\n      add\n      dup2\n      sub\n      dup3\n      mstore\n      not(0x1f)\n      0x1f\n      dup3\n      add\n      and\n      0x40\n      mstore\n      pop\n        /* \"Day22_Hard_DeployAnyContract.sol\":1307:1363  bytes memory bytecode = type(TestContract2).creationCode */\n      swap1\n      pop\n        /* \"Day22_Hard_DeployAnyContract.sol\":1397:1405  bytecode */\n      dup1\n        /* \"Day22_Hard_DeployAnyContract.sol\":1417:1419  _x */\n      dup5\n        /* \"Day22_Hard_DeployAnyContract.sol\":1420:1422  _y */\n      dup5\n        /* \"Day22_Hard_DeployAnyContract.sol\":1406:1423  abi.encode(_x,_y) */\n      add(0x20, mload(0x40))\n      tag_26\n      swap3\n      swap2\n      swap1\n      tag_27\n      jump\t// in\n    tag_26:\n      mload(0x40)\n      0x20\n      dup2\n      dup4\n      sub\n      sub\n      dup2\n      mstore\n      swap1\n      0x40\n      mstore\n        /* \"Day22_Hard_DeployAnyContract.sol\":1380:1424  abi.encodePacked(bytecode,abi.encode(_x,_y)) */\n      add(0x20, mload(0x40))\n      tag_28\n      swap3\n      swap2\n      swap1\n      tag_29\n      jump\t// in\n    tag_28:\n      mload(0x40)\n      0x20\n      dup2\n      dup4\n      sub\n      sub\n      dup2\n      mstore\n      swap1\n      0x40\n      mstore\n        /* \"Day22_Hard_DeployAnyContract.sol\":1373:1424  return abi.encodePacked(bytecode,abi.encode(_x,_y)) */\n      swap2\n      pop\n      pop\n        /* \"Day22_Hard_DeployAnyContract.sol\":1220:1431  function getBytecode (uint _x, uint _y) external pure returns (bytes memory) {... */\n      swap3\n      swap2\n      pop\n      pop\n      jump\t// out\n        /* \"Day22_Hard_DeployAnyContract.sol\":1055:1214  function getBytecode1() external pure returns (bytes memory) {... */\n    tag_18:\n        /* \"Day22_Hard_DeployAnyContract.sol\":1102:1114  bytes memory */\n      0x60\n        /* \"Day22_Hard_DeployAnyContract.sol\":1126:1147  bytes memory bytecode */\n      0x00\n        /* \"Day22_Hard_DeployAnyContract.sol\":1150:1182  type(TestContratc1).creationCode */\n      mload(0x40)\n      dup1\n      0x20\n      add\n      tag_31\n      swap1\n      tag_32\n      jump\t// in\n    tag_31:\n      0x20\n      dup3\n      add\n      dup2\n      sub\n      dup3\n      mstore\n      not(0x1f)\n      0x1f\n      dup3\n      add\n      and\n      0x40\n      mstore\n      pop\n        /* \"Day22_Hard_DeployAnyContract.sol\":1126:1182  bytes memory bytecode = type(TestContratc1).creationCode */\n      swap1\n      pop\n        /* \"Day22_Hard_DeployAnyContract.sol\":1199:1207  bytecode */\n      dup1\n        /* \"Day22_Hard_DeployAnyContract.sol\":1192:1207  return bytecode */\n      swap2\n      pop\n      pop\n        /* \"Day22_Hard_DeployAnyContract.sol\":1055:1214  function getBytecode1() external pure returns (bytes memory) {... */\n      swap1\n      jump\t// out\n    tag_25:\n      dataSize(sub_0)\n      dup1\n      dataOffset(sub_0)\n      dup4\n      codecopy\n      add\n      swap1\n      jump\t// out\n    tag_32:\n      dataSize(sub_1)\n      dup1\n      dataOffset(sub_1)\n      dup4\n      codecopy\n      add\n      swap1\n      jump\t// out\n        /* \"#utility.yul\":7:146   */\n    tag_34:\n        /* \"#utility.yul\":53:58   */\n      0x00\n        /* \"#utility.yul\":91:97   */\n      dup2\n        /* \"#utility.yul\":78:98   */\n      calldataload\n        /* \"#utility.yul\":69:98   */\n      swap1\n      pop\n        /* \"#utility.yul\":107:140   */\n      tag_36\n        /* \"#utility.yul\":134:139   */\n      dup2\n        /* \"#utility.yul\":107:140   */\n      tag_37\n      jump\t// in\n    tag_36:\n        /* \"#utility.yul\":7:146   */\n      swap3\n      swap2\n      pop\n      pop\n      jump\t// out\n        /* \"#utility.yul\":152:291   */\n    tag_38:\n        /* \"#utility.yul\":198:203   */\n      0x00\n        /* \"#utility.yul\":236:242   */\n      dup2\n        /* \"#utility.yul\":223:243   */\n      calldataload\n        /* \"#utility.yul\":214:243   */\n      swap1\n      pop\n        /* \"#utility.yul\":252:285   */\n      tag_40\n        /* \"#utility.yul\":279:284   */\n      dup2\n        /* \"#utility.yul\":252:285   */\n      tag_41\n      jump\t// in\n    tag_40:\n        /* \"#utility.yul\":152:291   */\n      swap3\n      swap2\n      pop\n      pop\n      jump\t// out\n        /* \"#utility.yul\":297:626   */\n    tag_8:\n        /* \"#utility.yul\":356:362   */\n      0x00\n        /* \"#utility.yul\":405:407   */\n      0x20\n        /* \"#utility.yul\":393:402   */\n      dup3\n        /* \"#utility.yul\":384:391   */\n      dup5\n        /* \"#utility.yul\":380:403   */\n      sub\n        /* \"#utility.yul\":376:408   */\n      slt\n        /* \"#utility.yul\":373:492   */\n      iszero\n      tag_43\n      jumpi\n        /* \"#utility.yul\":411:490   */\n      tag_44\n      tag_45\n      jump\t// in\n    tag_44:\n        /* \"#utility.yul\":373:492   */\n    tag_43:\n        /* \"#utility.yul\":531:532   */\n      0x00\n        /* \"#utility.yul\":556:609   */\n      tag_46\n        /* \"#utility.yul\":601:608   */\n      dup5\n        /* \"#utility.yul\":592:598   */\n      dup3\n        /* \"#utility.yul\":581:590   */\n      dup6\n        /* \"#utility.yul\":577:599   */\n      add\n        /* \"#utility.yul\":556:609   */\n      tag_34\n      jump\t// in\n    tag_46:\n        /* \"#utility.yul\":546:609   */\n      swap2\n      pop\n        /* \"#utility.yul\":502:619   */\n      pop\n        /* \"#utility.yul\":297:626   */\n      swap3\n      swap2\n      pop\n      pop\n      jump\t// out\n        /* \"#utility.yul\":632:1106   */\n    tag_14:\n        /* \"#utility.yul\":700:706   */\n      0x00\n        /* \"#utility.yul\":708:714   */\n      dup1\n        /* \"#utility.yul\":757:759   */\n      0x40\n        /* \"#utility.yul\":745:754   */\n      dup4\n        /* \"#utility.yul\":736:743   */\n      dup6\n        /* \"#utility.yul\":732:755   */\n      sub\n        /* \"#utility.yul\":728:760   */\n      slt\n        /* \"#utility.yul\":725:844   */\n      iszero\n      tag_48\n      jumpi\n        /* \"#utility.yul\":763:842   */\n      tag_49\n      tag_45\n      jump\t// in\n    tag_49:\n        /* \"#utility.yul\":725:844   */\n    tag_48:\n        /* \"#utility.yul\":883:884   */\n      0x00\n        /* \"#utility.yul\":908:961   */\n      tag_50\n        /* \"#utility.yul\":953:960   */\n      dup6\n        /* \"#utility.yul\":944:950   */\n      dup3\n        /* \"#utility.yul\":933:942   */\n      dup7\n        /* \"#utility.yul\":929:951   */\n      add\n        /* \"#utility.yul\":908:961   */\n      tag_38\n      jump\t// in\n    tag_50:\n        /* \"#utility.yul\":898:961   */\n      swap3\n      pop\n        /* \"#utility.yul\":854:971   */\n      pop\n        /* \"#utility.yul\":1010:1012   */\n      0x20\n        /* \"#utility.yul\":1036:1089   */\n      tag_51\n        /* \"#utility.yul\":1081:1088   */\n      dup6\n        /* \"#utility.yul\":1072:1078   */\n      dup3\n        /* \"#utility.yul\":1061:1070   */\n      dup7\n        /* \"#utility.yul\":1057:1079   */\n      add\n        /* \"#utility.yul\":1036:1089   */\n      tag_38\n      jump\t// in\n    tag_51:\n        /* \"#utility.yul\":1026:1089   */\n      swap2\n      pop\n        /* \"#utility.yul\":981:1099   */\n      pop\n        /* \"#utility.yul\":632:1106   */\n      swap3\n      pop\n      swap3\n      swap1\n      pop\n      jump\t// out\n        /* \"#utility.yul\":1112:1230   */\n    tag_52:\n        /* \"#utility.yul\":1199:1223   */\n      tag_54\n        /* \"#utility.yul\":1217:1222   */\n      dup2\n        /* \"#utility.yul\":1199:1223   */\n      tag_55\n      jump\t// in\n    tag_54:\n        /* \"#utility.yul\":1194:1197   */\n      dup3\n        /* \"#utility.yul\":1187:1224   */\n      mstore\n        /* \"#utility.yul\":1112:1230   */\n      pop\n      pop\n      jump\t// out\n        /* \"#utility.yul\":1236:1596   */\n    tag_56:\n        /* \"#utility.yul\":1322:1325   */\n      0x00\n        /* \"#utility.yul\":1350:1388   */\n      tag_58\n        /* \"#utility.yul\":1382:1387   */\n      dup3\n        /* \"#utility.yul\":1350:1388   */\n      tag_59\n      jump\t// in\n    tag_58:\n        /* \"#utility.yul\":1404:1474   */\n      tag_60\n        /* \"#utility.yul\":1467:1473   */\n      dup2\n        /* \"#utility.yul\":1462:1465   */\n      dup6\n        /* \"#utility.yul\":1404:1474   */\n      tag_61\n      jump\t// in\n    tag_60:\n        /* \"#utility.yul\":1397:1474   */\n      swap4\n      pop\n        /* \"#utility.yul\":1483:1535   */\n      tag_62\n        /* \"#utility.yul\":1528:1534   */\n      dup2\n        /* \"#utility.yul\":1523:1526   */\n      dup6\n        /* \"#utility.yul\":1516:1520   */\n      0x20\n        /* \"#utility.yul\":1509:1514   */\n      dup7\n        /* \"#utility.yul\":1505:1521   */\n      add\n        /* \"#utility.yul\":1483:1535   */\n      tag_63\n      jump\t// in\n    tag_62:\n        /* \"#utility.yul\":1560:1589   */\n      tag_64\n        /* \"#utility.yul\":1582:1588   */\n      dup2\n        /* \"#utility.yul\":1560:1589   */\n      tag_65\n      jump\t// in\n    tag_64:\n        /* \"#utility.yul\":1555:1558   */\n      dup5\n        /* \"#utility.yul\":1551:1590   */\n      add\n        /* \"#utility.yul\":1544:1590   */\n      swap2\n      pop\n        /* \"#utility.yul\":1326:1596   */\n      pop\n        /* \"#utility.yul\":1236:1596   */\n      swap3\n      swap2\n      pop\n      pop\n      jump\t// out\n        /* \"#utility.yul\":1602:1975   */\n    tag_66:\n        /* \"#utility.yul\":1706:1709   */\n      0x00\n        /* \"#utility.yul\":1734:1772   */\n      tag_68\n        /* \"#utility.yul\":1766:1771   */\n      dup3\n        /* \"#utility.yul\":1734:1772   */\n      tag_59\n      jump\t// in\n    tag_68:\n        /* \"#utility.yul\":1788:1876   */\n      tag_69\n        /* \"#utility.yul\":1869:1875   */\n      dup2\n        /* \"#utility.yul\":1864:1867   */\n      dup6\n        /* \"#utility.yul\":1788:1876   */\n      tag_70\n      jump\t// in\n    tag_69:\n        /* \"#utility.yul\":1781:1876   */\n      swap4\n      pop\n        /* \"#utility.yul\":1885:1937   */\n      tag_71\n        /* \"#utility.yul\":1930:1936   */\n      dup2\n        /* \"#utility.yul\":1925:1928   */\n      dup6\n        /* \"#utility.yul\":1918:1922   */\n      0x20\n        /* \"#utility.yul\":1911:1916   */\n      dup7\n        /* \"#utility.yul\":1907:1923   */\n      add\n        /* \"#utility.yul\":1885:1937   */\n      tag_63\n      jump\t// in\n    tag_71:\n        /* \"#utility.yul\":1962:1968   */\n      dup1\n        /* \"#utility.yul\":1957:1960   */\n      dup5\n        /* \"#utility.yul\":1953:1969   */\n      add\n        /* \"#utility.yul\":1946:1969   */\n      swap2\n      pop\n        /* \"#utility.yul\":1710:1975   */\n      pop\n        /* \"#utility.yul\":1602:1975   */\n      swap3\n      swap2\n      pop\n      pop\n      jump\t// out\n        /* \"#utility.yul\":1981:2099   */\n    tag_72:\n        /* \"#utility.yul\":2068:2092   */\n      tag_74\n        /* \"#utility.yul\":2086:2091   */\n      dup2\n        /* \"#utility.yul\":2068:2092   */\n      tag_75\n      jump\t// in\n    tag_74:\n        /* \"#utility.yul\":2063:2066   */\n      dup3\n        /* \"#utility.yul\":2056:2093   */\n      mstore\n        /* \"#utility.yul\":1981:2099   */\n      pop\n      pop\n      jump\t// out\n        /* \"#utility.yul\":2105:2532   */\n    tag_29:\n        /* \"#utility.yul\":2281:2284   */\n      0x00\n        /* \"#utility.yul\":2303:2396   */\n      tag_77\n        /* \"#utility.yul\":2392:2395   */\n      dup3\n        /* \"#utility.yul\":2383:2389   */\n      dup6\n        /* \"#utility.yul\":2303:2396   */\n      tag_66\n      jump\t// in\n    tag_77:\n        /* \"#utility.yul\":2296:2396   */\n      swap2\n      pop\n        /* \"#utility.yul\":2413:2506   */\n      tag_78\n        /* \"#utility.yul\":2502:2505   */\n      dup3\n        /* \"#utility.yul\":2493:2499   */\n      dup5\n        /* \"#utility.yul\":2413:2506   */\n      tag_66\n      jump\t// in\n    tag_78:\n        /* \"#utility.yul\":2406:2506   */\n      swap2\n      pop\n        /* \"#utility.yul\":2523:2526   */\n      dup2\n        /* \"#utility.yul\":2516:2526   */\n      swap1\n      pop\n        /* \"#utility.yul\":2105:2532   */\n      swap4\n      swap3\n      pop\n      pop\n      pop\n      jump\t// out\n        /* \"#utility.yul\":2538:2760   */\n    tag_22:\n        /* \"#utility.yul\":2631:2635   */\n      0x00\n        /* \"#utility.yul\":2669:2671   */\n      0x20\n        /* \"#utility.yul\":2658:2667   */\n      dup3\n        /* \"#utility.yul\":2654:2672   */\n      add\n        /* \"#utility.yul\":2646:2672   */\n      swap1\n      pop\n        /* \"#utility.yul\":2682:2753   */\n      tag_80\n        /* \"#utility.yul\":2750:2751   */\n      0x00\n        /* \"#utility.yul\":2739:2748   */\n      dup4\n        /* \"#utility.yul\":2735:2752   */\n      add\n        /* \"#utility.yul\":2726:2732   */\n      dup5\n        /* \"#utility.yul\":2682:2753   */\n      tag_52\n      jump\t// in\n    tag_80:\n        /* \"#utility.yul\":2538:2760   */\n      swap3\n      swap2\n      pop\n      pop\n      jump\t// out\n        /* \"#utility.yul\":2766:3075   */\n    tag_11:\n        /* \"#utility.yul\":2877:2881   */\n      0x00\n        /* \"#utility.yul\":2915:2917   */\n      0x20\n        /* \"#utility.yul\":2904:2913   */\n      dup3\n        /* \"#utility.yul\":2900:2918   */\n      add\n        /* \"#utility.yul\":2892:2918   */\n      swap1\n      pop\n        /* \"#utility.yul\":2964:2973   */\n      dup2\n        /* \"#utility.yul\":2958:2962   */\n      dup2\n        /* \"#utility.yul\":2954:2974   */\n      sub\n        /* \"#utility.yul\":2950:2951   */\n      0x00\n        /* \"#utility.yul\":2939:2948   */\n      dup4\n        /* \"#utility.yul\":2935:2952   */\n      add\n        /* \"#utility.yul\":2928:2975   */\n      mstore\n        /* \"#utility.yul\":2992:3068   */\n      tag_82\n        /* \"#utility.yul\":3063:3067   */\n      dup2\n        /* \"#utility.yul\":3054:3060   */\n      dup5\n        /* \"#utility.yul\":2992:3068   */\n      tag_56\n      jump\t// in\n    tag_82:\n        /* \"#utility.yul\":2984:3068   */\n      swap1\n      pop\n        /* \"#utility.yul\":2766:3075   */\n      swap3\n      swap2\n      pop\n      pop\n      jump\t// out\n        /* \"#utility.yul\":3081:3413   */\n    tag_27:\n        /* \"#utility.yul\":3202:3206   */\n      0x00\n        /* \"#utility.yul\":3240:3242   */\n      0x40\n        /* \"#utility.yul\":3229:3238   */\n      dup3\n        /* \"#utility.yul\":3225:3243   */\n      add\n        /* \"#utility.yul\":3217:3243   */\n      swap1\n      pop\n        /* \"#utility.yul\":3253:3324   */\n      tag_84\n        /* \"#utility.yul\":3321:3322   */\n      0x00\n        /* \"#utility.yul\":3310:3319   */\n      dup4\n        /* \"#utility.yul\":3306:3323   */\n      add\n        /* \"#utility.yul\":3297:3303   */\n      dup6\n        /* \"#utility.yul\":3253:3324   */\n      tag_72\n      jump\t// in\n    tag_84:\n        /* \"#utility.yul\":3334:3406   */\n      tag_85\n        /* \"#utility.yul\":3402:3404   */\n      0x20\n        /* \"#utility.yul\":3391:3400   */\n      dup4\n        /* \"#utility.yul\":3387:3405   */\n      add\n        /* \"#utility.yul\":3378:3384   */\n      dup5\n        /* \"#utility.yul\":3334:3406   */\n      tag_72\n      jump\t// in\n    tag_85:\n        /* \"#utility.yul\":3081:3413   */\n      swap4\n      swap3\n      pop\n      pop\n      pop\n      jump\t// out\n        /* \"#utility.yul\":3500:3598   */\n    tag_59:\n        /* \"#utility.yul\":3551:3557   */\n      0x00\n        /* \"#utility.yul\":3585:3590   */\n      dup2\n        /* \"#utility.yul\":3579:3591   */\n      mload\n        /* \"#utility.yul\":3569:3591   */\n      swap1\n      pop\n        /* \"#utility.yul\":3500:3598   */\n      swap2\n      swap1\n      pop\n      jump\t// out\n        /* \"#utility.yul\":3604:3772   */\n    tag_61:\n        /* \"#utility.yul\":3687:3698   */\n      0x00\n        /* \"#utility.yul\":3721:3727   */\n      dup3\n        /* \"#utility.yul\":3716:3719   */\n      dup3\n        /* \"#utility.yul\":3709:3728   */\n      mstore\n        /* \"#utility.yul\":3761:3765   */\n      0x20\n        /* \"#utility.yul\":3756:3759   */\n      dup3\n        /* \"#utility.yul\":3752:3766   */\n      add\n        /* \"#utility.yul\":3737:3766   */\n      swap1\n      pop\n        /* \"#utility.yul\":3604:3772   */\n      swap3\n      swap2\n      pop\n      pop\n      jump\t// out\n        /* \"#utility.yul\":3778:3925   */\n    tag_70:\n        /* \"#utility.yul\":3879:3890   */\n      0x00\n        /* \"#utility.yul\":3916:3919   */\n      dup2\n        /* \"#utility.yul\":3901:3919   */\n      swap1\n      pop\n        /* \"#utility.yul\":3778:3925   */\n      swap3\n      swap2\n      pop\n      pop\n      jump\t// out\n        /* \"#utility.yul\":3931:4027   */\n    tag_55:\n        /* \"#utility.yul\":3968:3975   */\n      0x00\n        /* \"#utility.yul\":3997:4021   */\n      tag_92\n        /* \"#utility.yul\":4015:4020   */\n      dup3\n        /* \"#utility.yul\":3997:4021   */\n      tag_93\n      jump\t// in\n    tag_92:\n        /* \"#utility.yul\":3986:4021   */\n      swap1\n      pop\n        /* \"#utility.yul\":3931:4027   */\n      swap2\n      swap1\n      pop\n      jump\t// out\n        /* \"#utility.yul\":4033:4159   */\n    tag_93:\n        /* \"#utility.yul\":4070:4077   */\n      0x00\n        /* \"#utility.yul\":4110:4152   */\n      0xffffffffffffffffffffffffffffffffffffffff\n        /* \"#utility.yul\":4103:4108   */\n      dup3\n        /* \"#utility.yul\":4099:4153   */\n      and\n        /* \"#utility.yul\":4088:4153   */\n      swap1\n      pop\n        /* \"#utility.yul\":4033:4159   */\n      swap2\n      swap1\n      pop\n      jump\t// out\n        /* \"#utility.yul\":4165:4242   */\n    tag_75:\n        /* \"#utility.yul\":4202:4209   */\n      0x00\n        /* \"#utility.yul\":4231:4236   */\n      dup2\n        /* \"#utility.yul\":4220:4236   */\n      swap1\n      pop\n        /* \"#utility.yul\":4165:4242   */\n      swap2\n      swap1\n      pop\n      jump\t// out\n        /* \"#utility.yul\":4248:4555   */\n    tag_63:\n        /* \"#utility.yul\":4316:4317   */\n      0x00\n        /* \"#utility.yul\":4326:4439   */\n    tag_97:\n        /* \"#utility.yul\":4340:4346   */\n      dup4\n        /* \"#utility.yul\":4337:4338   */\n      dup2\n        /* \"#utility.yul\":4334:4347   */\n      lt\n        /* \"#utility.yul\":4326:4439   */\n      iszero\n      tag_99\n      jumpi\n        /* \"#utility.yul\":4425:4426   */\n      dup1\n        /* \"#utility.yul\":4420:4423   */\n      dup3\n        /* \"#utility.yul\":4416:4427   */\n      add\n        /* \"#utility.yul\":4410:4428   */\n      mload\n        /* \"#utility.yul\":4406:4407   */\n      dup2\n        /* \"#utility.yul\":4401:4404   */\n      dup5\n        /* \"#utility.yul\":4397:4408   */\n      add\n        /* \"#utility.yul\":4390:4429   */\n      mstore\n        /* \"#utility.yul\":4362:4364   */\n      0x20\n        /* \"#utility.yul\":4359:4360   */\n      dup2\n        /* \"#utility.yul\":4355:4365   */\n      add\n        /* \"#utility.yul\":4350:4365   */\n      swap1\n      pop\n        /* \"#utility.yul\":4326:4439   */\n      jump(tag_97)\n    tag_99:\n        /* \"#utility.yul\":4457:4463   */\n      dup4\n        /* \"#utility.yul\":4454:4455   */\n      dup2\n        /* \"#utility.yul\":4451:4464   */\n      gt\n        /* \"#utility.yul\":4448:4549   */\n      iszero\n      tag_100\n      jumpi\n        /* \"#utility.yul\":4537:4538   */\n      0x00\n        /* \"#utility.yul\":4528:4534   */\n      dup5\n        /* \"#utility.yul\":4523:4526   */\n      dup5\n        /* \"#utility.yul\":4519:4535   */\n      add\n        /* \"#utility.yul\":4512:4539   */\n      mstore\n        /* \"#utility.yul\":4448:4549   */\n    tag_100:\n        /* \"#utility.yul\":4297:4555   */\n      pop\n        /* \"#utility.yul\":4248:4555   */\n      pop\n      pop\n      pop\n      jump\t// out\n        /* \"#utility.yul\":4684:4801   */\n    tag_45:\n        /* \"#utility.yul\":4793:4794   */\n      0x00\n        /* \"#utility.yul\":4790:4791   */\n      dup1\n        /* \"#utility.yul\":4783:4795   */\n      revert\n        /* \"#utility.yul\":4807:4909   */\n    tag_65:\n        /* \"#utility.yul\":4848:4854   */\n      0x00\n        /* \"#utility.yul\":4899:4901   */\n      0x1f\n        /* \"#utility.yul\":4895:4902   */\n      not\n        /* \"#utility.yul\":4890:4892   */\n      0x1f\n        /* \"#utility.yul\":4883:4888   */\n      dup4\n        /* \"#utility.yul\":4879:4893   */\n      add\n        /* \"#utility.yul\":4875:4903   */\n      and\n        /* \"#utility.yul\":4865:4903   */\n      swap1\n      pop\n        /* \"#utility.yul\":4807:4909   */\n      swap2\n      swap1\n      pop\n      jump\t// out\n        /* \"#utility.yul\":4915:5037   */\n    tag_37:\n        /* \"#utility.yul\":4988:5012   */\n      tag_106\n        /* \"#utility.yul\":5006:5011   */\n      dup2\n        /* \"#utility.yul\":4988:5012   */\n      tag_55\n      jump\t// in\n    tag_106:\n        /* \"#utility.yul\":4981:4986   */\n      dup2\n        /* \"#utility.yul\":4978:5013   */\n      eq\n        /* \"#utility.yul\":4968:5031   */\n      tag_107\n      jumpi\n        /* \"#utility.yul\":5027:5028   */\n      0x00\n        /* \"#utility.yul\":5024:5025   */\n      dup1\n        /* \"#utility.yul\":5017:5029   */\n      revert\n        /* \"#utility.yul\":4968:5031   */\n    tag_107:\n        /* \"#utility.yul\":4915:5037   */\n      pop\n      jump\t// out\n        /* \"#utility.yul\":5043:5165   */\n    tag_41:\n        /* \"#utility.yul\":5116:5140   */\n      tag_109\n        /* \"#utility.yul\":5134:5139   */\n      dup2\n        /* \"#utility.yul\":5116:5140   */\n      tag_75\n      jump\t// in\n    tag_109:\n        /* \"#utility.yul\":5109:5114   */\n      dup2\n        /* \"#utility.yul\":5106:5141   */\n      eq\n        /* \"#utility.yul\":5096:5159   */\n      tag_110\n      jumpi\n        /* \"#utility.yul\":5155:5156   */\n      0x00\n        /* \"#utility.yul\":5152:5153   */\n      dup1\n        /* \"#utility.yul\":5145:5157   */\n      revert\n        /* \"#utility.yul\":5096:5159   */\n    tag_110:\n        /* \"#utility.yul\":5043:5165   */\n      pop\n      jump\t// out\n    stop\n\n    sub_0: assembly {\n            /* \"Day22_Hard_DeployAnyContract.sol\":264:486  contract TestContract2 {... */\n          mstore(0x40, 0x80)\n            /* \"Day22_Hard_DeployAnyContract.sol\":316:326  msg.sender */\n          caller\n            /* \"Day22_Hard_DeployAnyContract.sol\":293:326  address public owner = msg.sender */\n          0x00\n          dup1\n          0x0100\n          exp\n          dup2\n          sload\n          dup2\n          0xffffffffffffffffffffffffffffffffffffffff\n          mul\n          not\n          and\n          swap1\n          dup4\n          0xffffffffffffffffffffffffffffffffffffffff\n          and\n          mul\n          or\n          swap1\n          sstore\n          pop\n            /* \"Day22_Hard_DeployAnyContract.sol\":352:361  msg.value */\n          callvalue\n            /* \"Day22_Hard_DeployAnyContract.sol\":332:361  uint public value = msg.value */\n          0x01\n          sstore\n            /* \"Day22_Hard_DeployAnyContract.sol\":406:484  constructor (uint _x, uint _y) payable {... */\n          mload(0x40)\n          sub(codesize, bytecodeSize)\n          dup1\n          bytecodeSize\n          dup4\n          codecopy\n          dup2\n          dup2\n          add\n          0x40\n          mstore\n          dup2\n          add\n          swap1\n          tag_1\n          swap2\n          swap1\n          tag_2\n          jump\t// in\n        tag_1:\n            /* \"Day22_Hard_DeployAnyContract.sol\":459:461  _x */\n          dup2\n            /* \"Day22_Hard_DeployAnyContract.sol\":455:456  x */\n          0x02\n            /* \"Day22_Hard_DeployAnyContract.sol\":455:461  x = _x */\n          dup2\n          swap1\n          sstore\n          pop\n            /* \"Day22_Hard_DeployAnyContract.sol\":475:477  _y */\n          dup1\n            /* \"Day22_Hard_DeployAnyContract.sol\":471:472  y */\n          0x03\n            /* \"Day22_Hard_DeployAnyContract.sol\":471:477  y = _y */\n          dup2\n          swap1\n          sstore\n          pop\n            /* \"Day22_Hard_DeployAnyContract.sol\":406:484  constructor (uint _x, uint _y) payable {... */\n          pop\n          pop\n            /* \"Day22_Hard_DeployAnyContract.sol\":264:486  contract TestContract2 {... */\n          jump(tag_5)\n            /* \"#utility.yul\":7:150   */\n        tag_7:\n            /* \"#utility.yul\":64:69   */\n          0x00\n            /* \"#utility.yul\":95:101   */\n          dup2\n            /* \"#utility.yul\":89:102   */\n          mload\n            /* \"#utility.yul\":80:102   */\n          swap1\n          pop\n            /* \"#utility.yul\":111:144   */\n          tag_9\n            /* \"#utility.yul\":138:143   */\n          dup2\n            /* \"#utility.yul\":111:144   */\n          tag_10\n          jump\t// in\n        tag_9:\n            /* \"#utility.yul\":7:150   */\n          swap3\n          swap2\n          pop\n          pop\n          jump\t// out\n            /* \"#utility.yul\":156:663   */\n        tag_2:\n            /* \"#utility.yul\":235:241   */\n          0x00\n            /* \"#utility.yul\":243:249   */\n          dup1\n            /* \"#utility.yul\":292:294   */\n          0x40\n            /* \"#utility.yul\":280:289   */\n          dup4\n            /* \"#utility.yul\":271:278   */\n          dup6\n            /* \"#utility.yul\":267:290   */\n          sub\n            /* \"#utility.yul\":263:295   */\n          slt\n            /* \"#utility.yul\":260:379   */\n          iszero\n          tag_12\n          jumpi\n            /* \"#utility.yul\":298:377   */\n          tag_13\n          tag_14\n          jump\t// in\n        tag_13:\n            /* \"#utility.yul\":260:379   */\n        tag_12:\n            /* \"#utility.yul\":418:419   */\n          0x00\n            /* \"#utility.yul\":443:507   */\n          tag_15\n            /* \"#utility.yul\":499:506   */\n          dup6\n            /* \"#utility.yul\":490:496   */\n          dup3\n            /* \"#utility.yul\":479:488   */\n          dup7\n            /* \"#utility.yul\":475:497   */\n          add\n            /* \"#utility.yul\":443:507   */\n          tag_7\n          jump\t// in\n        tag_15:\n            /* \"#utility.yul\":433:507   */\n          swap3\n          pop\n            /* \"#utility.yul\":389:517   */\n          pop\n            /* \"#utility.yul\":556:558   */\n          0x20\n            /* \"#utility.yul\":582:646   */\n          tag_16\n            /* \"#utility.yul\":638:645   */\n          dup6\n            /* \"#utility.yul\":629:635   */\n          dup3\n            /* \"#utility.yul\":618:627   */\n          dup7\n            /* \"#utility.yul\":614:636   */\n          add\n            /* \"#utility.yul\":582:646   */\n          tag_7\n          jump\t// in\n        tag_16:\n            /* \"#utility.yul\":572:646   */\n          swap2\n          pop\n            /* \"#utility.yul\":527:656   */\n          pop\n            /* \"#utility.yul\":156:663   */\n          swap3\n          pop\n          swap3\n          swap1\n          pop\n          jump\t// out\n            /* \"#utility.yul\":750:827   */\n        tag_19:\n            /* \"#utility.yul\":787:794   */\n          0x00\n            /* \"#utility.yul\":816:821   */\n          dup2\n            /* \"#utility.yul\":805:821   */\n          swap1\n          pop\n            /* \"#utility.yul\":750:827   */\n          swap2\n          swap1\n          pop\n          jump\t// out\n            /* \"#utility.yul\":956:1073   */\n        tag_14:\n            /* \"#utility.yul\":1065:1066   */\n          0x00\n            /* \"#utility.yul\":1062:1063   */\n          dup1\n            /* \"#utility.yul\":1055:1067   */\n          revert\n            /* \"#utility.yul\":1079:1201   */\n        tag_10:\n            /* \"#utility.yul\":1152:1176   */\n          tag_25\n            /* \"#utility.yul\":1170:1175   */\n          dup2\n            /* \"#utility.yul\":1152:1176   */\n          tag_19\n          jump\t// in\n        tag_25:\n            /* \"#utility.yul\":1145:1150   */\n          dup2\n            /* \"#utility.yul\":1142:1177   */\n          eq\n            /* \"#utility.yul\":1132:1195   */\n          tag_26\n          jumpi\n            /* \"#utility.yul\":1191:1192   */\n          0x00\n            /* \"#utility.yul\":1188:1189   */\n          dup1\n            /* \"#utility.yul\":1181:1193   */\n          revert\n            /* \"#utility.yul\":1132:1195   */\n        tag_26:\n            /* \"#utility.yul\":1079:1201   */\n          pop\n          jump\t// out\n            /* \"Day22_Hard_DeployAnyContract.sol\":264:486  contract TestContract2 {... */\n        tag_5:\n          dataSize(sub_0)\n          dup1\n          dataOffset(sub_0)\n          0x00\n          codecopy\n          0x00\n          return\n        stop\n\n        sub_0: assembly {\n                /* \"Day22_Hard_DeployAnyContract.sol\":264:486  contract TestContract2 {... */\n              mstore(0x40, 0x80)\n              callvalue\n              dup1\n              iszero\n              tag_1\n              jumpi\n              0x00\n              dup1\n              revert\n            tag_1:\n              pop\n              jumpi(tag_2, lt(calldatasize, 0x04))\n              shr(0xe0, calldataload(0x00))\n              dup1\n              0x0c55699c\n              eq\n              tag_3\n              jumpi\n              dup1\n              0x3fa4f245\n              eq\n              tag_4\n              jumpi\n              dup1\n              0x8da5cb5b\n              eq\n              tag_5\n              jumpi\n              dup1\n              0xa56dfe4a\n              eq\n              tag_6\n              jumpi\n            tag_2:\n              0x00\n              dup1\n              revert\n                /* \"Day22_Hard_DeployAnyContract.sol\":367:380  uint public x */\n            tag_3:\n              tag_7\n              tag_8\n              jump\t// in\n            tag_7:\n              mload(0x40)\n              tag_9\n              swap2\n              swap1\n              tag_10\n              jump\t// in\n            tag_9:\n              mload(0x40)\n              dup1\n              swap2\n              sub\n              swap1\n              return\n                /* \"Day22_Hard_DeployAnyContract.sol\":332:361  uint public value = msg.value */\n            tag_4:\n              tag_11\n              tag_12\n              jump\t// in\n            tag_11:\n              mload(0x40)\n              tag_13\n              swap2\n              swap1\n              tag_10\n              jump\t// in\n            tag_13:\n              mload(0x40)\n              dup1\n              swap2\n              sub\n              swap1\n              return\n                /* \"Day22_Hard_DeployAnyContract.sol\":293:326  address public owner = msg.sender */\n            tag_5:\n              tag_14\n              tag_15\n              jump\t// in\n            tag_14:\n              mload(0x40)\n              tag_16\n              swap2\n              swap1\n              tag_17\n              jump\t// in\n            tag_16:\n              mload(0x40)\n              dup1\n              swap2\n              sub\n              swap1\n              return\n                /* \"Day22_Hard_DeployAnyContract.sol\":386:399  uint public y */\n            tag_6:\n              tag_18\n              tag_19\n              jump\t// in\n            tag_18:\n              mload(0x40)\n              tag_20\n              swap2\n              swap1\n              tag_10\n              jump\t// in\n            tag_20:\n              mload(0x40)\n              dup1\n              swap2\n              sub\n              swap1\n              return\n                /* \"Day22_Hard_DeployAnyContract.sol\":367:380  uint public x */\n            tag_8:\n              sload(0x02)\n              dup2\n              jump\t// out\n                /* \"Day22_Hard_DeployAnyContract.sol\":332:361  uint public value = msg.value */\n            tag_12:\n              sload(0x01)\n              dup2\n              jump\t// out\n                /* \"Day22_Hard_DeployAnyContract.sol\":293:326  address public owner = msg.sender */\n            tag_15:\n              0x00\n              dup1\n              sload\n              swap1\n              0x0100\n              exp\n              swap1\n              div\n              0xffffffffffffffffffffffffffffffffffffffff\n              and\n              dup2\n              jump\t// out\n                /* \"Day22_Hard_DeployAnyContract.sol\":386:399  uint public y */\n            tag_19:\n              sload(0x03)\n              dup2\n              jump\t// out\n                /* \"#utility.yul\":7:125   */\n            tag_22:\n                /* \"#utility.yul\":94:118   */\n              tag_24\n                /* \"#utility.yul\":112:117   */\n              dup2\n                /* \"#utility.yul\":94:118   */\n              tag_25\n              jump\t// in\n            tag_24:\n                /* \"#utility.yul\":89:92   */\n              dup3\n                /* \"#utility.yul\":82:119   */\n              mstore\n                /* \"#utility.yul\":7:125   */\n              pop\n              pop\n              jump\t// out\n                /* \"#utility.yul\":131:249   */\n            tag_26:\n                /* \"#utility.yul\":218:242   */\n              tag_28\n                /* \"#utility.yul\":236:241   */\n              dup2\n                /* \"#utility.yul\":218:242   */\n              tag_29\n              jump\t// in\n            tag_28:\n                /* \"#utility.yul\":213:216   */\n              dup3\n                /* \"#utility.yul\":206:243   */\n              mstore\n                /* \"#utility.yul\":131:249   */\n              pop\n              pop\n              jump\t// out\n                /* \"#utility.yul\":255:477   */\n            tag_17:\n                /* \"#utility.yul\":348:352   */\n              0x00\n                /* \"#utility.yul\":386:388   */\n              0x20\n                /* \"#utility.yul\":375:384   */\n              dup3\n                /* \"#utility.yul\":371:389   */\n              add\n                /* \"#utility.yul\":363:389   */\n              swap1\n              pop\n                /* \"#utility.yul\":399:470   */\n              tag_31\n                /* \"#utility.yul\":467:468   */\n              0x00\n                /* \"#utility.yul\":456:465   */\n              dup4\n                /* \"#utility.yul\":452:469   */\n              add\n                /* \"#utility.yul\":443:449   */\n              dup5\n                /* \"#utility.yul\":399:470   */\n              tag_22\n              jump\t// in\n            tag_31:\n                /* \"#utility.yul\":255:477   */\n              swap3\n              swap2\n              pop\n              pop\n              jump\t// out\n                /* \"#utility.yul\":483:705   */\n            tag_10:\n                /* \"#utility.yul\":576:580   */\n              0x00\n                /* \"#utility.yul\":614:616   */\n              0x20\n                /* \"#utility.yul\":603:612   */\n              dup3\n                /* \"#utility.yul\":599:617   */\n              add\n                /* \"#utility.yul\":591:617   */\n              swap1\n              pop\n                /* \"#utility.yul\":627:698   */\n              tag_33\n                /* \"#utility.yul\":695:696   */\n              0x00\n                /* \"#utility.yul\":684:693   */\n              dup4\n                /* \"#utility.yul\":680:697   */\n              add\n                /* \"#utility.yul\":671:677   */\n              dup5\n                /* \"#utility.yul\":627:698   */\n              tag_26\n              jump\t// in\n            tag_33:\n                /* \"#utility.yul\":483:705   */\n              swap3\n              swap2\n              pop\n              pop\n              jump\t// out\n                /* \"#utility.yul\":711:807   */\n            tag_25:\n                /* \"#utility.yul\":748:755   */\n              0x00\n                /* \"#utility.yul\":777:801   */\n              tag_35\n                /* \"#utility.yul\":795:800   */\n              dup3\n                /* \"#utility.yul\":777:801   */\n              tag_36\n              jump\t// in\n            tag_35:\n                /* \"#utility.yul\":766:801   */\n              swap1\n              pop\n                /* \"#utility.yul\":711:807   */\n              swap2\n              swap1\n              pop\n              jump\t// out\n                /* \"#utility.yul\":813:939   */\n            tag_36:\n                /* \"#utility.yul\":850:857   */\n              0x00\n                /* \"#utility.yul\":890:932   */\n              0xffffffffffffffffffffffffffffffffffffffff\n                /* \"#utility.yul\":883:888   */\n              dup3\n                /* \"#utility.yul\":879:933   */\n              and\n                /* \"#utility.yul\":868:933   */\n              swap1\n              pop\n                /* \"#utility.yul\":813:939   */\n              swap2\n              swap1\n              pop\n              jump\t// out\n                /* \"#utility.yul\":945:1022   */\n            tag_29:\n                /* \"#utility.yul\":982:989   */\n              0x00\n                /* \"#utility.yul\":1011:1016   */\n              dup2\n                /* \"#utility.yul\":1000:1016   */\n              swap1\n              pop\n                /* \"#utility.yul\":945:1022   */\n              swap2\n              swap1\n              pop\n              jump\t// out\n\n            auxdata: 0xa264697066735822122024bf45da7f63481331c25419b9f4c471f5174b4f14db1352e1338003f611848e64736f6c63430008070033\n        }\n    }\n\n    sub_1: assembly {\n            /* \"Day22_Hard_DeployAnyContract.sol\":66:262  contract TestContratc1 {... */\n          mstore(0x40, 0x80)\n            /* \"Day22_Hard_DeployAnyContract.sol\":118:128  msg.sender */\n          caller\n            /* \"Day22_Hard_DeployAnyContract.sol\":95:128  address public owner = msg.sender */\n          0x00\n          dup1\n          0x0100\n          exp\n          dup2\n          sload\n          dup2\n          0xffffffffffffffffffffffffffffffffffffffff\n          mul\n          not\n          and\n          swap1\n          dup4\n          0xffffffffffffffffffffffffffffffffffffffff\n          and\n          mul\n          or\n          swap1\n          sstore\n          pop\n            /* \"Day22_Hard_DeployAnyContract.sol\":66:262  contract TestContratc1 {... */\n          callvalue\n          dup1\n          iszero\n          tag_1\n          jumpi\n          0x00\n          dup1\n          revert\n        tag_1:\n          pop\n          dataSize(sub_0)\n          dup1\n          dataOffset(sub_0)\n          0x00\n          codecopy\n          0x00\n          return\n        stop\n\n        sub_0: assembly {\n                /* \"Day22_Hard_DeployAnyContract.sol\":66:262  contract TestContratc1 {... */\n              mstore(0x40, 0x80)\n              callvalue\n              dup1\n              iszero\n              tag_1\n              jumpi\n              0x00\n              dup1\n              revert\n            tag_1:\n              pop\n              jumpi(tag_2, lt(calldatasize, 0x04))\n              shr(0xe0, calldataload(0x00))\n              dup1\n              0x13af4035\n              eq\n              tag_3\n              jumpi\n              dup1\n              0x8da5cb5b\n              eq\n              tag_4\n              jumpi\n            tag_2:\n              0x00\n              dup1\n              revert\n                /* \"Day22_Hard_DeployAnyContract.sol\":135:260  function setOwner (address _owner) public {... */\n            tag_3:\n              tag_5\n              0x04\n              dup1\n              calldatasize\n              sub\n              dup2\n              add\n              swap1\n              tag_6\n              swap2\n              swap1\n              tag_7\n              jump\t// in\n            tag_6:\n              tag_8\n              jump\t// in\n            tag_5:\n              stop\n                /* \"Day22_Hard_DeployAnyContract.sol\":95:128  address public owner = msg.sender */\n            tag_4:\n              tag_9\n              tag_10\n              jump\t// in\n            tag_9:\n              mload(0x40)\n              tag_11\n              swap2\n              swap1\n              tag_12\n              jump\t// in\n            tag_11:\n              mload(0x40)\n              dup1\n              swap2\n              sub\n              swap1\n              return\n                /* \"Day22_Hard_DeployAnyContract.sol\":135:260  function setOwner (address _owner) public {... */\n            tag_8:\n                /* \"Day22_Hard_DeployAnyContract.sol\":210:215  owner */\n              0x00\n              dup1\n              sload\n              swap1\n              0x0100\n              exp\n              swap1\n              div\n              0xffffffffffffffffffffffffffffffffffffffff\n              and\n                /* \"Day22_Hard_DeployAnyContract.sol\":196:215  msg.sender == owner */\n              0xffffffffffffffffffffffffffffffffffffffff\n              and\n                /* \"Day22_Hard_DeployAnyContract.sol\":196:206  msg.sender */\n              caller\n                /* \"Day22_Hard_DeployAnyContract.sol\":196:215  msg.sender == owner */\n              0xffffffffffffffffffffffffffffffffffffffff\n              and\n              eq\n                /* \"Day22_Hard_DeployAnyContract.sol\":187:229  require (msg.sender == owner, \"not owner\") */\n              tag_14\n              jumpi\n              mload(0x40)\n              0x08c379a000000000000000000000000000000000000000000000000000000000\n              dup2\n              mstore\n              0x04\n              add\n              tag_15\n              swap1\n              tag_16\n              jump\t// in\n            tag_15:\n              mload(0x40)\n              dup1\n              swap2\n              sub\n              swap1\n              revert\n            tag_14:\n                /* \"Day22_Hard_DeployAnyContract.sol\":247:253  _owner */\n              dup1\n                /* \"Day22_Hard_DeployAnyContract.sol\":239:244  owner */\n              0x00\n              dup1\n                /* \"Day22_Hard_DeployAnyContract.sol\":239:253  owner = _owner */\n              0x0100\n              exp\n              dup2\n              sload\n              dup2\n              0xffffffffffffffffffffffffffffffffffffffff\n              mul\n              not\n              and\n              swap1\n              dup4\n              0xffffffffffffffffffffffffffffffffffffffff\n              and\n              mul\n              or\n              swap1\n              sstore\n              pop\n                /* \"Day22_Hard_DeployAnyContract.sol\":135:260  function setOwner (address _owner) public {... */\n              pop\n              jump\t// out\n                /* \"Day22_Hard_DeployAnyContract.sol\":95:128  address public owner = msg.sender */\n            tag_10:\n              0x00\n              dup1\n              sload\n              swap1\n              0x0100\n              exp\n              swap1\n              div\n              0xffffffffffffffffffffffffffffffffffffffff\n              and\n              dup2\n              jump\t// out\n                /* \"#utility.yul\":7:146   */\n            tag_18:\n                /* \"#utility.yul\":53:58   */\n              0x00\n                /* \"#utility.yul\":91:97   */\n              dup2\n                /* \"#utility.yul\":78:98   */\n              calldataload\n                /* \"#utility.yul\":69:98   */\n              swap1\n              pop\n                /* \"#utility.yul\":107:140   */\n              tag_20\n                /* \"#utility.yul\":134:139   */\n              dup2\n                /* \"#utility.yul\":107:140   */\n              tag_21\n              jump\t// in\n            tag_20:\n                /* \"#utility.yul\":7:146   */\n              swap3\n              swap2\n              pop\n              pop\n              jump\t// out\n                /* \"#utility.yul\":152:481   */\n            tag_7:\n                /* \"#utility.yul\":211:217   */\n              0x00\n                /* \"#utility.yul\":260:262   */\n              0x20\n                /* \"#utility.yul\":248:257   */\n              dup3\n                /* \"#utility.yul\":239:246   */\n              dup5\n                /* \"#utility.yul\":235:258   */\n              sub\n                /* \"#utility.yul\":231:263   */\n              slt\n                /* \"#utility.yul\":228:347   */\n              iszero\n              tag_23\n              jumpi\n                /* \"#utility.yul\":266:345   */\n              tag_24\n              tag_25\n              jump\t// in\n            tag_24:\n                /* \"#utility.yul\":228:347   */\n            tag_23:\n                /* \"#utility.yul\":386:387   */\n              0x00\n                /* \"#utility.yul\":411:464   */\n              tag_26\n                /* \"#utility.yul\":456:463   */\n              dup5\n                /* \"#utility.yul\":447:453   */\n              dup3\n                /* \"#utility.yul\":436:445   */\n              dup6\n                /* \"#utility.yul\":432:454   */\n              add\n                /* \"#utility.yul\":411:464   */\n              tag_18\n              jump\t// in\n            tag_26:\n                /* \"#utility.yul\":401:464   */\n              swap2\n              pop\n                /* \"#utility.yul\":357:474   */\n              pop\n                /* \"#utility.yul\":152:481   */\n              swap3\n              swap2\n              pop\n              pop\n              jump\t// out\n                /* \"#utility.yul\":487:605   */\n            tag_27:\n                /* \"#utility.yul\":574:598   */\n              tag_29\n                /* \"#utility.yul\":592:597   */\n              dup2\n                /* \"#utility.yul\":574:598   */\n              tag_30\n              jump\t// in\n            tag_29:\n                /* \"#utility.yul\":569:572   */\n              dup3\n                /* \"#utility.yul\":562:599   */\n              mstore\n                /* \"#utility.yul\":487:605   */\n              pop\n              pop\n              jump\t// out\n                /* \"#utility.yul\":611:976   */\n            tag_31:\n                /* \"#utility.yul\":753:756   */\n              0x00\n                /* \"#utility.yul\":774:840   */\n              tag_33\n                /* \"#utility.yul\":838:839   */\n              0x09\n                /* \"#utility.yul\":833:836   */\n              dup4\n                /* \"#utility.yul\":774:840   */\n              tag_34\n              jump\t// in\n            tag_33:\n                /* \"#utility.yul\":767:840   */\n              swap2\n              pop\n                /* \"#utility.yul\":849:942   */\n              tag_35\n                /* \"#utility.yul\":938:941   */\n              dup3\n                /* \"#utility.yul\":849:942   */\n              tag_36\n              jump\t// in\n            tag_35:\n                /* \"#utility.yul\":967:969   */\n              0x20\n                /* \"#utility.yul\":962:965   */\n              dup3\n                /* \"#utility.yul\":958:970   */\n              add\n                /* \"#utility.yul\":951:970   */\n              swap1\n              pop\n                /* \"#utility.yul\":611:976   */\n              swap2\n              swap1\n              pop\n              jump\t// out\n                /* \"#utility.yul\":982:1204   */\n            tag_12:\n                /* \"#utility.yul\":1075:1079   */\n              0x00\n                /* \"#utility.yul\":1113:1115   */\n              0x20\n                /* \"#utility.yul\":1102:1111   */\n              dup3\n                /* \"#utility.yul\":1098:1116   */\n              add\n                /* \"#utility.yul\":1090:1116   */\n              swap1\n              pop\n                /* \"#utility.yul\":1126:1197   */\n              tag_38\n                /* \"#utility.yul\":1194:1195   */\n              0x00\n                /* \"#utility.yul\":1183:1192   */\n              dup4\n                /* \"#utility.yul\":1179:1196   */\n              add\n                /* \"#utility.yul\":1170:1176   */\n              dup5\n                /* \"#utility.yul\":1126:1197   */\n              tag_27\n              jump\t// in\n            tag_38:\n                /* \"#utility.yul\":982:1204   */\n              swap3\n              swap2\n              pop\n              pop\n              jump\t// out\n                /* \"#utility.yul\":1210:1629   */\n            tag_16:\n                /* \"#utility.yul\":1376:1380   */\n              0x00\n                /* \"#utility.yul\":1414:1416   */\n              0x20\n                /* \"#utility.yul\":1403:1412   */\n              dup3\n                /* \"#utility.yul\":1399:1417   */\n              add\n                /* \"#utility.yul\":1391:1417   */\n              swap1\n              pop\n                /* \"#utility.yul\":1463:1472   */\n              dup2\n                /* \"#utility.yul\":1457:1461   */\n              dup2\n                /* \"#utility.yul\":1453:1473   */\n              sub\n                /* \"#utility.yul\":1449:1450   */\n              0x00\n                /* \"#utility.yul\":1438:1447   */\n              dup4\n                /* \"#utility.yul\":1434:1451   */\n              add\n                /* \"#utility.yul\":1427:1474   */\n              mstore\n                /* \"#utility.yul\":1491:1622   */\n              tag_40\n                /* \"#utility.yul\":1617:1621   */\n              dup2\n                /* \"#utility.yul\":1491:1622   */\n              tag_31\n              jump\t// in\n            tag_40:\n                /* \"#utility.yul\":1483:1622   */\n              swap1\n              pop\n                /* \"#utility.yul\":1210:1629   */\n              swap2\n              swap1\n              pop\n              jump\t// out\n                /* \"#utility.yul\":1716:1885   */\n            tag_34:\n                /* \"#utility.yul\":1800:1811   */\n              0x00\n                /* \"#utility.yul\":1834:1840   */\n              dup3\n                /* \"#utility.yul\":1829:1832   */\n              dup3\n                /* \"#utility.yul\":1822:1841   */\n              mstore\n                /* \"#utility.yul\":1874:1878   */\n              0x20\n                /* \"#utility.yul\":1869:1872   */\n              dup3\n                /* \"#utility.yul\":1865:1879   */\n              add\n                /* \"#utility.yul\":1850:1879   */\n              swap1\n              pop\n                /* \"#utility.yul\":1716:1885   */\n              swap3\n              swap2\n              pop\n              pop\n              jump\t// out\n                /* \"#utility.yul\":1891:1987   */\n            tag_30:\n                /* \"#utility.yul\":1928:1935   */\n              0x00\n                /* \"#utility.yul\":1957:1981   */\n              tag_45\n                /* \"#utility.yul\":1975:1980   */\n              dup3\n                /* \"#utility.yul\":1957:1981   */\n              tag_46\n              jump\t// in\n            tag_45:\n                /* \"#utility.yul\":1946:1981   */\n              swap1\n              pop\n                /* \"#utility.yul\":1891:1987   */\n              swap2\n              swap1\n              pop\n              jump\t// out\n                /* \"#utility.yul\":1993:2119   */\n            tag_46:\n                /* \"#utility.yul\":2030:2037   */\n              0x00\n                /* \"#utility.yul\":2070:2112   */\n              0xffffffffffffffffffffffffffffffffffffffff\n                /* \"#utility.yul\":2063:2068   */\n              dup3\n                /* \"#utility.yul\":2059:2113   */\n              and\n                /* \"#utility.yul\":2048:2113   */\n              swap1\n              pop\n                /* \"#utility.yul\":1993:2119   */\n              swap2\n              swap1\n              pop\n              jump\t// out\n                /* \"#utility.yul\":2248:2365   */\n            tag_25:\n                /* \"#utility.yul\":2357:2358   */\n              0x00\n                /* \"#utility.yul\":2354:2355   */\n              dup1\n                /* \"#utility.yul\":2347:2359   */\n              revert\n                /* \"#utility.yul\":2371:2530   */\n            tag_36:\n                /* \"#utility.yul\":2511:2522   */\n              0x6e6f74206f776e65720000000000000000000000000000000000000000000000\n                /* \"#utility.yul\":2507:2508   */\n              0x00\n                /* \"#utility.yul\":2499:2505   */\n              dup3\n                /* \"#utility.yul\":2495:2509   */\n              add\n                /* \"#utility.yul\":2488:2523   */\n              mstore\n                /* \"#utility.yul\":2371:2530   */\n              pop\n              jump\t// out\n                /* \"#utility.yul\":2536:2658   */\n            tag_21:\n                /* \"#utility.yul\":2609:2633   */\n              tag_53\n                /* \"#utility.yul\":2627:2632   */\n              dup2\n                /* \"#utility.yul\":2609:2633   */\n              tag_30\n              jump\t// in\n            tag_53:\n                /* \"#utility.yul\":2602:2607   */\n              dup2\n                /* \"#utility.yul\":2599:2634   */\n              eq\n                /* \"#utility.yul\":2589:2652   */\n              tag_54\n              jumpi\n                /* \"#utility.yul\":2648:2649   */\n              0x00\n                /* \"#utility.yul\":2645:2646   */\n              dup1\n                /* \"#utility.yul\":2638:2650   */\n              revert\n                /* \"#utility.yul\":2589:2652   */\n            tag_54:\n                /* \"#utility.yul\":2536:2658   */\n              pop\n              jump\t// out\n\n            auxdata: 0xa2646970667358221220bc9e991c068e2118ef6add5b4320b5c879f64a8c6028e7e24c1050bd873300a264736f6c63430008070033\n        }\n    }\n\n    auxdata: 0xa26469706673582212208d62f1058d5cbfcd33a6d53a5b8e29805659e0dcda993195515fd64529f4d07c64736f6c63430008070033\n}\n",
				"bytecode": {
					"linkReferences": {},
					"object": "608060405234801561001057600080fd5b50610ad9806100206000396000f3fe608060405234801561001057600080fd5b50600436106100415760003560e01c80632064cad51461004657806392d483db14610076578063e68f92f1146100a6575b600080fd5b610060600480360381019061005b9190610246565b6100c4565b60405161006d919061037a565b60405180910390f35b610090600480360381019061008b9190610273565b61015b565b60405161009d919061037a565b60405180910390f35b6100ae6101d1565b6040516100bb919061037a565b60405180910390f35b6060816040516024016100d7919061035f565b6040516020818303038152906040527f13af4035000000000000000000000000000000000000000000000000000000007bffffffffffffffffffffffffffffffffffffffffffffffffffffffff19166020820180517bffffffffffffffffffffffffffffffffffffffffffffffffffffffff83818316178352505050509050919050565b606060006040518060200161016f90610202565b6020820181038252601f19601f82011660405250905080848460405160200161019992919061039c565b6040516020818303038152906040526040516020016101b992919061033b565b60405160208183030381529060405291505092915050565b60606000604051806020016101e59061020f565b6020820181038252601f19601f8201166040525090508091505090565b6102cd806104a083390190565b6103378061076d83390190565b60008135905061022b81610471565b92915050565b60008135905061024081610488565b92915050565b60006020828403121561025c5761025b61045b565b5b600061026a8482850161021c565b91505092915050565b6000806040838503121561028a5761028961045b565b5b600061029885828601610231565b92505060206102a985828601610231565b9150509250929050565b6102bc816103ec565b82525050565b60006102cd826103c5565b6102d781856103d0565b93506102e7818560208601610428565b6102f081610460565b840191505092915050565b6000610306826103c5565b61031081856103e1565b9350610320818560208601610428565b80840191505092915050565b6103358161041e565b82525050565b600061034782856102fb565b915061035382846102fb565b91508190509392505050565b600060208201905061037460008301846102b3565b92915050565b6000602082019050818103600083015261039481846102c2565b905092915050565b60006040820190506103b1600083018561032c565b6103be602083018461032c565b9392505050565b600081519050919050565b600082825260208201905092915050565b600081905092915050565b60006103f7826103fe565b9050919050565b600073ffffffffffffffffffffffffffffffffffffffff82169050919050565b6000819050919050565b60005b8381101561044657808201518184015260208101905061042b565b83811115610455576000848401525b50505050565b600080fd5b6000601f19601f8301169050919050565b61047a816103ec565b811461048557600080fd5b50565b6104918161041e565b811461049c57600080fd5b5056fe6080604052336000806101000a81548173ffffffffffffffffffffffffffffffffffffffff021916908373ffffffffffffffffffffffffffffffffffffffff160217905550346001556040516102cd3803806102cd83398181016040528101906100699190610093565b816002819055508060038190555050506100f9565b60008151905061008d816100e2565b92915050565b600080604083850312156100aa576100a96100dd565b5b60006100b88582860161007e565b92505060206100c98582860161007e565b9150509250929050565b6000819050919050565b600080fd5b6100eb816100d3565b81146100f657600080fd5b50565b6101c5806101086000396000f3fe608060405234801561001057600080fd5b506004361061004c5760003560e01c80630c55699c146100515780633fa4f2451461006f5780638da5cb5b1461008d578063a56dfe4a146100ab575b600080fd5b6100596100c9565b6040516100669190610138565b60405180910390f35b6100776100cf565b6040516100849190610138565b60405180910390f35b6100956100d5565b6040516100a2919061011d565b60405180910390f35b6100b36100f9565b6040516100c09190610138565b60405180910390f35b60025481565b60015481565b60008054906101000a900473ffffffffffffffffffffffffffffffffffffffff1681565b60035481565b61010881610153565b82525050565b61011781610185565b82525050565b600060208201905061013260008301846100ff565b92915050565b600060208201905061014d600083018461010e565b92915050565b600061015e82610165565b9050919050565b600073ffffffffffffffffffffffffffffffffffffffff82169050919050565b600081905091905056fea264697066735822122024bf45da7f63481331c25419b9f4c471f5174b4f14db1352e1338003f611848e64736f6c634300080700336080604052336000806101000a81548173ffffffffffffffffffffffffffffffffffffffff021916908373ffffffffffffffffffffffffffffffffffffffff16021790555034801561005057600080fd5b506102d7806100606000396000f3fe608060405234801561001057600080fd5b50600436106100365760003560e01c806313af40351461003b5780638da5cb5b14610057575b600080fd5b6100556004803603810190610050919061017f565b610075565b005b61005f610146565b60405161006c91906101de565b60405180910390f35b60008054906101000a900473ffffffffffffffffffffffffffffffffffffffff1673ffffffffffffffffffffffffffffffffffffffff163373ffffffffffffffffffffffffffffffffffffffff1614610103576040517f08c379a00000000000000000000000000000000000000000000000000000000081526004016100fa906101f9565b60405180910390fd5b806000806101000a81548173ffffffffffffffffffffffffffffffffffffffff021916908373ffffffffffffffffffffffffffffffffffffffff16021790555050565b60008054906101000a900473ffffffffffffffffffffffffffffffffffffffff1681565b6000813590506101798161028a565b92915050565b6000602082840312156101955761019461025c565b5b60006101a38482850161016a565b91505092915050565b6101b58161022a565b82525050565b60006101c8600983610219565b91506101d382610261565b602082019050919050565b60006020820190506101f360008301846101ac565b92915050565b60006020820190508181036000830152610212816101bb565b9050919050565b600082825260208201905092915050565b60006102358261023c565b9050919050565b600073ffffffffffffffffffffffffffffffffffffffff82169050919050565b600080fd5b7f6e6f74206f776e65720000000000000000000000000000000000000000000000600082015250565b6102938161022a565b811461029e57600080fd5b5056fea2646970667358221220bc9e991c068e2118ef6add5b4320b5c879f64a8c6028e7e24c1050bd873300a264736f6c63430008070033a26469706673582212208d62f1058d5cbfcd33a6d53a5b8e29805659e0dcda993195515fd64529f4d07c64736f6c63430008070033",
					"opcodes": "PUSH1 0x80 PUSH1 0x40 MSTORE CALLVALUE DUP1 ISZERO PUSH2 0x10 JUMPI PUSH1 0x0 DUP1 REVERT JUMPDEST POP PUSH2 0xAD9 DUP1 PUSH2 0x20 PUSH1 0x0 CODECOPY PUSH1 0x0 RETURN INVALID PUSH1 0x80 PUSH1 0x40 MSTORE CALLVALUE DUP1 ISZERO PUSH2 0x10 JUMPI PUSH1 0x0 DUP1 REVERT JUMPDEST POP PUSH1 0x4 CALLDATASIZE LT PUSH2 0x41 JUMPI PUSH1 0x0 CALLDATALOAD PUSH1 0xE0 SHR DUP1 PUSH4 0x2064CAD5 EQ PUSH2 0x46 JUMPI DUP1 PUSH4 0x92D483DB EQ PUSH2 0x76 JUMPI DUP1 PUSH4 0xE68F92F1 EQ PUSH2 0xA6 JUMPI JUMPDEST PUSH1 0x0 DUP1 REVERT JUMPDEST PUSH2 0x60 PUSH1 0x4 DUP1 CALLDATASIZE SUB DUP2 ADD SWAP1 PUSH2 0x5B SWAP2 SWAP1 PUSH2 0x246 JUMP JUMPDEST PUSH2 0xC4 JUMP JUMPDEST PUSH1 0x40 MLOAD PUSH2 0x6D SWAP2 SWAP1 PUSH2 0x37A JUMP JUMPDEST PUSH1 0x40 MLOAD DUP1 SWAP2 SUB SWAP1 RETURN JUMPDEST PUSH2 0x90 PUSH1 0x4 DUP1 CALLDATASIZE SUB DUP2 ADD SWAP1 PUSH2 0x8B SWAP2 SWAP1 PUSH2 0x273 JUMP JUMPDEST PUSH2 0x15B JUMP JUMPDEST PUSH1 0x40 MLOAD PUSH2 0x9D SWAP2 SWAP1 PUSH2 0x37A JUMP JUMPDEST PUSH1 0x40 MLOAD DUP1 SWAP2 SUB SWAP1 RETURN JUMPDEST PUSH2 0xAE PUSH2 0x1D1 JUMP JUMPDEST PUSH1 0x40 MLOAD PUSH2 0xBB SWAP2 SWAP1 PUSH2 0x37A JUMP JUMPDEST PUSH1 0x40 MLOAD DUP1 SWAP2 SUB SWAP1 RETURN JUMPDEST PUSH1 0x60 DUP2 PUSH1 0x40 MLOAD PUSH1 0x24 ADD PUSH2 0xD7 SWAP2 SWAP1 PUSH2 0x35F JUMP JUMPDEST PUSH1 0x40 MLOAD PUSH1 0x20 DUP2 DUP4 SUB SUB DUP2 MSTORE SWAP1 PUSH1 0x40 MSTORE PUSH32 0x13AF403500000000000000000000000000000000000000000000000000000000 PUSH28 0xFFFFFFFFFFFFFFFFFFFFFFFFFFFFFFFFFFFFFFFFFFFFFFFFFFFFFFFF NOT AND PUSH1 0x20 DUP3 ADD DUP1 MLOAD PUSH28 0xFFFFFFFFFFFFFFFFFFFFFFFFFFFFFFFFFFFFFFFFFFFFFFFFFFFFFFFF DUP4 DUP2 DUP4 AND OR DUP4 MSTORE POP POP POP POP SWAP1 POP SWAP2 SWAP1 POP JUMP JUMPDEST PUSH1 0x60 PUSH1 0x0 PUSH1 0x40 MLOAD DUP1 PUSH1 0x20 ADD PUSH2 0x16F SWAP1 PUSH2 0x202 JUMP JUMPDEST PUSH1 0x20 DUP3 ADD DUP2 SUB DUP3 MSTORE PUSH1 0x1F NOT PUSH1 0x1F DUP3 ADD AND PUSH1 0x40 MSTORE POP SWAP1 POP DUP1 DUP5 DUP5 PUSH1 0x40 MLOAD PUSH1 0x20 ADD PUSH2 0x199 SWAP3 SWAP2 SWAP1 PUSH2 0x39C JUMP JUMPDEST PUSH1 0x40 MLOAD PUSH1 0x20 DUP2 DUP4 SUB SUB DUP2 MSTORE SWAP1 PUSH1 0x40 MSTORE PUSH1 0x40 MLOAD PUSH1 0x20 ADD PUSH2 0x1B9 SWAP3 SWAP2 SWAP1 PUSH2 0x33B JUMP JUMPDEST PUSH1 0x40 MLOAD PUSH1 0x20 DUP2 DUP4 SUB SUB DUP2 MSTORE SWAP1 PUSH1 0x40 MSTORE SWAP2 POP POP SWAP3 SWAP2 POP POP JUMP JUMPDEST PUSH1 0x60 PUSH1 0x0 PUSH1 0x40 MLOAD DUP1 PUSH1 0x20 ADD PUSH2 0x1E5 SWAP1 PUSH2 0x20F JUMP JUMPDEST PUSH1 0x20 DUP3 ADD DUP2 SUB DUP3 MSTORE PUSH1 0x1F NOT PUSH1 0x1F DUP3 ADD AND PUSH1 0x40 MSTORE POP SWAP1 POP DUP1 SWAP2 POP POP SWAP1 JUMP JUMPDEST PUSH2 0x2CD DUP1 PUSH2 0x4A0 DUP4 CODECOPY ADD SWAP1 JUMP JUMPDEST PUSH2 0x337 DUP1 PUSH2 0x76D DUP4 CODECOPY ADD SWAP1 JUMP JUMPDEST PUSH1 0x0 DUP2 CALLDATALOAD SWAP1 POP PUSH2 0x22B DUP2 PUSH2 0x471 JUMP JUMPDEST SWAP3 SWAP2 POP POP JUMP JUMPDEST PUSH1 0x0 DUP2 CALLDATALOAD SWAP1 POP PUSH2 0x240 DUP2 PUSH2 0x488 JUMP JUMPDEST SWAP3 SWAP2 POP POP JUMP JUMPDEST PUSH1 0x0 PUSH1 0x20 DUP3 DUP5 SUB SLT ISZERO PUSH2 0x25C JUMPI PUSH2 0x25B PUSH2 0x45B JUMP JUMPDEST JUMPDEST PUSH1 0x0 PUSH2 0x26A DUP5 DUP3 DUP6 ADD PUSH2 0x21C JUMP JUMPDEST SWAP2 POP POP SWAP3 SWAP2 POP POP JUMP JUMPDEST PUSH1 0x0 DUP1 PUSH1 0x40 DUP4 DUP6 SUB SLT ISZERO PUSH2 0x28A JUMPI PUSH2 0x289 PUSH2 0x45B JUMP JUMPDEST JUMPDEST PUSH1 0x0 PUSH2 0x298 DUP6 DUP3 DUP7 ADD PUSH2 0x231 JUMP JUMPDEST SWAP3 POP POP PUSH1 0x20 PUSH2 0x2A9 DUP6 DUP3 DUP7 ADD PUSH2 0x231 JUMP JUMPDEST SWAP2 POP POP SWAP3 POP SWAP3 SWAP1 POP JUMP JUMPDEST PUSH2 0x2BC DUP2 PUSH2 0x3EC JUMP JUMPDEST DUP3 MSTORE POP POP JUMP JUMPDEST PUSH1 0x0 PUSH2 0x2CD DUP3 PUSH2 0x3C5 JUMP JUMPDEST PUSH2 0x2D7 DUP2 DUP6 PUSH2 0x3D0 JUMP JUMPDEST SWAP4 POP PUSH2 0x2E7 DUP2 DUP6 PUSH1 0x20 DUP7 ADD PUSH2 0x428 JUMP JUMPDEST PUSH2 0x2F0 DUP2 PUSH2 0x460 JUMP JUMPDEST DUP5 ADD SWAP2 POP POP SWAP3 SWAP2 POP POP JUMP JUMPDEST PUSH1 0x0 PUSH2 0x306 DUP3 PUSH2 0x3C5 JUMP JUMPDEST PUSH2 0x310 DUP2 DUP6 PUSH2 0x3E1 JUMP JUMPDEST SWAP4 POP PUSH2 0x320 DUP2 DUP6 PUSH1 0x20 DUP7 ADD PUSH2 0x428 JUMP JUMPDEST DUP1 DUP5 ADD SWAP2 POP POP SWAP3 SWAP2 POP POP JUMP JUMPDEST PUSH2 0x335 DUP2 PUSH2 0x41E JUMP JUMPDEST DUP3 MSTORE POP POP JUMP JUMPDEST PUSH1 0x0 PUSH2 0x347 DUP3 DUP6 PUSH2 0x2FB JUMP JUMPDEST SWAP2 POP PUSH2 0x353 DUP3 DUP5 PUSH2 0x2FB JUMP JUMPDEST SWAP2 POP DUP2 SWAP1 POP SWAP4 SWAP3 POP POP POP JUMP JUMPDEST PUSH1 0x0 PUSH1 0x20 DUP3 ADD SWAP1 POP PUSH2 0x374 PUSH1 0x0 DUP4 ADD DUP5 PUSH2 0x2B3 JUMP JUMPDEST SWAP3 SWAP2 POP POP JUMP JUMPDEST PUSH1 0x0 PUSH1 0x20 DUP3 ADD SWAP1 POP DUP2 DUP2 SUB PUSH1 0x0 DUP4 ADD MSTORE PUSH2 0x394 DUP2 DUP5 PUSH2 0x2C2 JUMP JUMPDEST SWAP1 POP SWAP3 SWAP2 POP POP JUMP JUMPDEST PUSH1 0x0 PUSH1 0x40 DUP3 ADD SWAP1 POP PUSH2 0x3B1 PUSH1 0x0 DUP4 ADD DUP6 PUSH2 0x32C JUMP JUMPDEST PUSH2 0x3BE PUSH1 0x20 DUP4 ADD DUP5 PUSH2 0x32C JUMP JUMPDEST SWAP4 SWAP3 POP POP POP JUMP JUMPDEST PUSH1 0x0 DUP2 MLOAD SWAP1 POP SWAP2 SWAP1 POP JUMP JUMPDEST PUSH1 0x0 DUP3 DUP3 MSTORE PUSH1 0x20 DUP3 ADD SWAP1 POP SWAP3 SWAP2 POP POP JUMP JUMPDEST PUSH1 0x0 DUP2 SWAP1 POP SWAP3 SWAP2 POP POP JUMP JUMPDEST PUSH1 0x0 PUSH2 0x3F7 DUP3 PUSH2 0x3FE JUMP JUMPDEST SWAP1 POP SWAP2 SWAP1 POP JUMP JUMPDEST PUSH1 0x0 PUSH20 0xFFFFFFFFFFFFFFFFFFFFFFFFFFFFFFFFFFFFFFFF DUP3 AND SWAP1 POP SWAP2 SWAP1 POP JUMP JUMPDEST PUSH1 0x0 DUP2 SWAP1 POP SWAP2 SWAP1 POP JUMP JUMPDEST PUSH1 0x0 JUMPDEST DUP4 DUP2 LT ISZERO PUSH2 0x446 JUMPI DUP1 DUP3 ADD MLOAD DUP2 DUP5 ADD MSTORE PUSH1 0x20 DUP2 ADD SWAP1 POP PUSH2 0x42B JUMP JUMPDEST DUP4 DUP2 GT ISZERO PUSH2 0x455 JUMPI PUSH1 0x0 DUP5 DUP5 ADD MSTORE JUMPDEST POP POP POP POP JUMP JUMPDEST PUSH1 0x0 DUP1 REVERT JUMPDEST PUSH1 0x0 PUSH1 0x1F NOT PUSH1 0x1F DUP4 ADD AND SWAP1 POP SWAP2 SWAP1 POP JUMP JUMPDEST PUSH2 0x47A DUP2 PUSH2 0x3EC JUMP JUMPDEST DUP2 EQ PUSH2 0x485 JUMPI PUSH1 0x0 DUP1 REVERT JUMPDEST POP JUMP JUMPDEST PUSH2 0x491 DUP2 PUSH2 0x41E JUMP JUMPDEST DUP2 EQ PUSH2 0x49C JUMPI PUSH1 0x0 DUP1 REVERT JUMPDEST POP JUMP INVALID PUSH1 0x80 PUSH1 0x40 MSTORE CALLER PUSH1 0x0 DUP1 PUSH2 0x100 EXP DUP2 SLOAD DUP2 PUSH20 0xFFFFFFFFFFFFFFFFFFFFFFFFFFFFFFFFFFFFFFFF MUL NOT AND SWAP1 DUP4 PUSH20 0xFFFFFFFFFFFFFFFFFFFFFFFFFFFFFFFFFFFFFFFF AND MUL OR SWAP1 SSTORE POP CALLVALUE PUSH1 0x1 SSTORE PUSH1 0x40 MLOAD PUSH2 0x2CD CODESIZE SUB DUP1 PUSH2 0x2CD DUP4 CODECOPY DUP2 DUP2 ADD PUSH1 0x40 MSTORE DUP2 ADD SWAP1 PUSH2 0x69 SWAP2 SWAP1 PUSH2 0x93 JUMP JUMPDEST DUP2 PUSH1 0x2 DUP2 SWAP1 SSTORE POP DUP1 PUSH1 0x3 DUP2 SWAP1 SSTORE POP POP POP PUSH2 0xF9 JUMP JUMPDEST PUSH1 0x0 DUP2 MLOAD SWAP1 POP PUSH2 0x8D DUP2 PUSH2 0xE2 JUMP JUMPDEST SWAP3 SWAP2 POP POP JUMP JUMPDEST PUSH1 0x0 DUP1 PUSH1 0x40 DUP4 DUP6 SUB SLT ISZERO PUSH2 0xAA JUMPI PUSH2 0xA9 PUSH2 0xDD JUMP JUMPDEST JUMPDEST PUSH1 0x0 PUSH2 0xB8 DUP6 DUP3 DUP7 ADD PUSH2 0x7E JUMP JUMPDEST SWAP3 POP POP PUSH1 0x20 PUSH2 0xC9 DUP6 DUP3 DUP7 ADD PUSH2 0x7E JUMP JUMPDEST SWAP2 POP POP SWAP3 POP SWAP3 SWAP1 POP JUMP JUMPDEST PUSH1 0x0 DUP2 SWAP1 POP SWAP2 SWAP1 POP JUMP JUMPDEST PUSH1 0x0 DUP1 REVERT JUMPDEST PUSH2 0xEB DUP2 PUSH2 0xD3 JUMP JUMPDEST DUP2 EQ PUSH2 0xF6 JUMPI PUSH1 0x0 DUP1 REVERT JUMPDEST POP JUMP JUMPDEST PUSH2 0x1C5 DUP1 PUSH2 0x108 PUSH1 0x0 CODECOPY PUSH1 0x0 RETURN INVALID PUSH1 0x80 PUSH1 0x40 MSTORE CALLVALUE DUP1 ISZERO PUSH2 0x10 JUMPI PUSH1 0x0 DUP1 REVERT JUMPDEST POP PUSH1 0x4 CALLDATASIZE LT PUSH2 0x4C JUMPI PUSH1 0x0 CALLDATALOAD PUSH1 0xE0 SHR DUP1 PUSH4 0xC55699C EQ PUSH2 0x51 JUMPI DUP1 PUSH4 0x3FA4F245 EQ PUSH2 0x6F JUMPI DUP1 PUSH4 0x8DA5CB5B EQ PUSH2 0x8D JUMPI DUP1 PUSH4 0xA56DFE4A EQ PUSH2 0xAB JUMPI JUMPDEST PUSH1 0x0 DUP1 REVERT JUMPDEST PUSH2 0x59 PUSH2 0xC9 JUMP JUMPDEST PUSH1 0x40 MLOAD PUSH2 0x66 SWAP2 SWAP1 PUSH2 0x138 JUMP JUMPDEST PUSH1 0x40 MLOAD DUP1 SWAP2 SUB SWAP1 RETURN JUMPDEST PUSH2 0x77 PUSH2 0xCF JUMP JUMPDEST PUSH1 0x40 MLOAD PUSH2 0x84 SWAP2 SWAP1 PUSH2 0x138 JUMP JUMPDEST PUSH1 0x40 MLOAD DUP1 SWAP2 SUB SWAP1 RETURN JUMPDEST PUSH2 0x95 PUSH2 0xD5 JUMP JUMPDEST PUSH1 0x40 MLOAD PUSH2 0xA2 SWAP2 SWAP1 PUSH2 0x11D JUMP JUMPDEST PUSH1 0x40 MLOAD DUP1 SWAP2 SUB SWAP1 RETURN JUMPDEST PUSH2 0xB3 PUSH2 0xF9 JUMP JUMPDEST PUSH1 0x40 MLOAD PUSH2 0xC0 SWAP2 SWAP1 PUSH2 0x138 JUMP JUMPDEST PUSH1 0x40 MLOAD DUP1 SWAP2 SUB SWAP1 RETURN JUMPDEST PUSH1 0x2 SLOAD DUP2 JUMP JUMPDEST PUSH1 0x1 SLOAD DUP2 JUMP JUMPDEST PUSH1 0x0 DUP1 SLOAD SWAP1 PUSH2 0x100 EXP SWAP1 DIV PUSH20 0xFFFFFFFFFFFFFFFFFFFFFFFFFFFFFFFFFFFFFFFF AND DUP2 JUMP JUMPDEST PUSH1 0x3 SLOAD DUP2 JUMP JUMPDEST PUSH2 0x108 DUP2 PUSH2 0x153 JUMP JUMPDEST DUP3 MSTORE POP POP JUMP JUMPDEST PUSH2 0x117 DUP2 PUSH2 0x185 JUMP JUMPDEST DUP3 MSTORE POP POP JUMP JUMPDEST PUSH1 0x0 PUSH1 0x20 DUP3 ADD SWAP1 POP PUSH2 0x132 PUSH1 0x0 DUP4 ADD DUP5 PUSH2 0xFF JUMP JUMPDEST SWAP3 SWAP2 POP POP JUMP JUMPDEST PUSH1 0x0 PUSH1 0x20 DUP3 ADD SWAP1 POP PUSH2 0x14D PUSH1 0x0 DUP4 ADD DUP5 PUSH2 0x10E JUMP JUMPDEST SWAP3 SWAP2 POP POP JUMP JUMPDEST PUSH1 0x0 PUSH2 0x15E DUP3 PUSH2 0x165 JUMP JUMPDEST SWAP1 POP SWAP2 SWAP1 POP JUMP JUMPDEST PUSH1 0x0 PUSH20 0xFFFFFFFFFFFFFFFFFFFFFFFFFFFFFFFFFFFFFFFF DUP3 AND SWAP1 POP SWAP2 SWAP1 POP JUMP JUMPDEST PUSH1 0x0 DUP2 SWAP1 POP SWAP2 SWAP1 POP JUMP INVALID LOG2 PUSH5 0x6970667358 0x22 SLT KECCAK256 0x24 0xBF GASLIMIT 0xDA PUSH32 0x63481331C25419B9F4C471F5174B4F14DB1352E1338003F611848E64736F6C63 NUMBER STOP ADDMOD SMOD STOP CALLER PUSH1 0x80 PUSH1 0x40 MSTORE CALLER PUSH1 0x0 DUP1 PUSH2 0x100 EXP DUP2 SLOAD DUP2 PUSH20 0xFFFFFFFFFFFFFFFFFFFFFFFFFFFFFFFFFFFFFFFF MUL NOT AND SWAP1 DUP4 PUSH20 0xFFFFFFFFFFFFFFFFFFFFFFFFFFFFFFFFFFFFFFFF AND MUL OR SWAP1 SSTORE POP CALLVALUE DUP1 ISZERO PUSH2 0x50 JUMPI PUSH1 0x0 DUP1 REVERT JUMPDEST POP PUSH2 0x2D7 DUP1 PUSH2 0x60 PUSH1 0x0 CODECOPY PUSH1 0x0 RETURN INVALID PUSH1 0x80 PUSH1 0x40 MSTORE CALLVALUE DUP1 ISZERO PUSH2 0x10 JUMPI PUSH1 0x0 DUP1 REVERT JUMPDEST POP PUSH1 0x4 CALLDATASIZE LT PUSH2 0x36 JUMPI PUSH1 0x0 CALLDATALOAD PUSH1 0xE0 SHR DUP1 PUSH4 0x13AF4035 EQ PUSH2 0x3B JUMPI DUP1 PUSH4 0x8DA5CB5B EQ PUSH2 0x57 JUMPI JUMPDEST PUSH1 0x0 DUP1 REVERT JUMPDEST PUSH2 0x55 PUSH1 0x4 DUP1 CALLDATASIZE SUB DUP2 ADD SWAP1 PUSH2 0x50 SWAP2 SWAP1 PUSH2 0x17F JUMP JUMPDEST PUSH2 0x75 JUMP JUMPDEST STOP JUMPDEST PUSH2 0x5F PUSH2 0x146 JUMP JUMPDEST PUSH1 0x40 MLOAD PUSH2 0x6C SWAP2 SWAP1 PUSH2 0x1DE JUMP JUMPDEST PUSH1 0x40 MLOAD DUP1 SWAP2 SUB SWAP1 RETURN JUMPDEST PUSH1 0x0 DUP1 SLOAD SWAP1 PUSH2 0x100 EXP SWAP1 DIV PUSH20 0xFFFFFFFFFFFFFFFFFFFFFFFFFFFFFFFFFFFFFFFF AND PUSH20 0xFFFFFFFFFFFFFFFFFFFFFFFFFFFFFFFFFFFFFFFF AND CALLER PUSH20 0xFFFFFFFFFFFFFFFFFFFFFFFFFFFFFFFFFFFFFFFF AND EQ PUSH2 0x103 JUMPI PUSH1 0x40 MLOAD PUSH32 0x8C379A000000000000000000000000000000000000000000000000000000000 DUP2 MSTORE PUSH1 0x4 ADD PUSH2 0xFA SWAP1 PUSH2 0x1F9 JUMP JUMPDEST PUSH1 0x40 MLOAD DUP1 SWAP2 SUB SWAP1 REVERT JUMPDEST DUP1 PUSH1 0x0 DUP1 PUSH2 0x100 EXP DUP2 SLOAD DUP2 PUSH20 0xFFFFFFFFFFFFFFFFFFFFFFFFFFFFFFFFFFFFFFFF MUL NOT AND SWAP1 DUP4 PUSH20 0xFFFFFFFFFFFFFFFFFFFFFFFFFFFFFFFFFFFFFFFF AND MUL OR SWAP1 SSTORE POP POP JUMP JUMPDEST PUSH1 0x0 DUP1 SLOAD SWAP1 PUSH2 0x100 EXP SWAP1 DIV PUSH20 0xFFFFFFFFFFFFFFFFFFFFFFFFFFFFFFFFFFFFFFFF AND DUP2 JUMP JUMPDEST PUSH1 0x0 DUP2 CALLDATALOAD SWAP1 POP PUSH2 0x179 DUP2 PUSH2 0x28A JUMP JUMPDEST SWAP3 SWAP2 POP POP JUMP JUMPDEST PUSH1 0x0 PUSH1 0x20 DUP3 DUP5 SUB SLT ISZERO PUSH2 0x195 JUMPI PUSH2 0x194 PUSH2 0x25C JUMP JUMPDEST JUMPDEST PUSH1 0x0 PUSH2 0x1A3 DUP5 DUP3 DUP6 ADD PUSH2 0x16A JUMP JUMPDEST SWAP2 POP POP SWAP3 SWAP2 POP POP JUMP JUMPDEST PUSH2 0x1B5 DUP2 PUSH2 0x22A JUMP JUMPDEST DUP3 MSTORE POP POP JUMP JUMPDEST PUSH1 0x0 PUSH2 0x1C8 PUSH1 0x9 DUP4 PUSH2 0x219 JUMP JUMPDEST SWAP2 POP PUSH2 0x1D3 DUP3 PUSH2 0x261 JUMP JUMPDEST PUSH1 0x20 DUP3 ADD SWAP1 POP SWAP2 SWAP1 POP JUMP JUMPDEST PUSH1 0x0 PUSH1 0x20 DUP3 ADD SWAP1 POP PUSH2 0x1F3 PUSH1 0x0 DUP4 ADD DUP5 PUSH2 0x1AC JUMP JUMPDEST SWAP3 SWAP2 POP POP JUMP JUMPDEST PUSH1 0x0 PUSH1 0x20 DUP3 ADD SWAP1 POP DUP2 DUP2 SUB PUSH1 0x0 DUP4 ADD MSTORE PUSH2 0x212 DUP2 PUSH2 0x1BB JUMP JUMPDEST SWAP1 POP SWAP2 SWAP1 POP JUMP JUMPDEST PUSH1 0x0 DUP3 DUP3 MSTORE PUSH1 0x20 DUP3 ADD SWAP1 POP SWAP3 SWAP2 POP POP JUMP JUMPDEST PUSH1 0x0 PUSH2 0x235 DUP3 PUSH2 0x23C JUMP JUMPDEST SWAP1 POP SWAP2 SWAP1 POP JUMP JUMPDEST PUSH1 0x0 PUSH20 0xFFFFFFFFFFFFFFFFFFFFFFFFFFFFFFFFFFFFFFFF DUP3 AND SWAP1 POP SWAP2 SWAP1 POP JUMP JUMPDEST PUSH1 0x0 DUP1 REVERT JUMPDEST PUSH32 0x6E6F74206F776E65720000000000000000000000000000000000000000000000 PUSH1 0x0 DUP3 ADD MSTORE POP JUMP JUMPDEST PUSH2 0x293 DUP2 PUSH2 0x22A JUMP JUMPDEST DUP2 EQ PUSH2 0x29E JUMPI PUSH1 0x0 DUP1 REVERT JUMPDEST POP JUMP INVALID LOG2 PUSH5 0x6970667358 0x22 SLT KECCAK256 0xBC SWAP15 SWAP10 SHR MOD DUP15 0x21 XOR 0xEF PUSH11 0xDD5B4320B5C879F64A8C60 0x28 0xE7 0xE2 0x4C LT POP 0xBD DUP8 CALLER STOP LOG2 PUSH5 0x736F6C6343 STOP ADDMOD SMOD STOP CALLER LOG2 PUSH5 0x6970667358 0x22 SLT KECCAK256 DUP14 PUSH3 0xF1058D 0x5C 0xBF 0xCD CALLER 0xA6 0xD5 GASPRICE JUMPDEST DUP15 0x29 DUP1 JUMP MSIZE 0xE0 0xDC 0xDA SWAP10 BALANCE SWAP6 MLOAD 0x5F 0xD6 GASLIMIT 0x29 DELEGATECALL 0xD0 PUSH29 0x64736F6C63430008070033000000000000000000000000000000000000 "
				},
				"gasEstimates": {
					"creation": {
						"codeDepositCost": "555400",
						"executionCost": "587",
						"totalCost": "555987"
					},
					"external": {
						"getBytecode(uint256,uint256)": "infinite",
						"getBytecode1()": "infinite",
						"getCalldata(address)": "infinite"
					}
				},
				"methodIdentifiers": {
					"getBytecode(uint256,uint256)": "92d483db",
					"getBytecode1()": "e68f92f1",
					"getCalldata(address)": "2064cad5"
				}
			},
			"storageLayout": {
				"storage": [],
				"types": null
			},
			"userdoc": {
				"kind": "user",
				"methods": {},
				"version": 1
			}
		}
	}
}