{
	"Day35_CallOtherContract.sol": {
		"CallTestContract": {
			"abi": [
				{
					"inputs": [
						{
							"internalType": "address",
							"name": "_test",
							"type": "address"
						}
					],
					"name": "getX",
					"outputs": [
						{
							"internalType": "uint256",
							"name": "x",
							"type": "uint256"
						}
					],
					"stateMutability": "view",
					"type": "function"
				},
				{
					"inputs": [
						{
							"internalType": "contract TestContract",
							"name": "_test",
							"type": "address"
						},
						{
							"internalType": "uint256",
							"name": "_x",
							"type": "uint256"
						}
					],
					"name": "setX",
					"outputs": [],
					"stateMutability": "nonpayable",
					"type": "function"
				},
				{
					"inputs": [
						{
							"internalType": "address",
							"name": "_test",
							"type": "address"
						},
						{
							"internalType": "uint256",
							"name": "_x",
							"type": "uint256"
						}
					],
					"name": "setXandSendEther",
					"outputs": [],
					"stateMutability": "payable",
					"type": "function"
				}
			],
			"devdoc": {
				"kind": "dev",
				"methods": {},
				"version": 1
			},
			"evm": {
				"assembly": "    /* \"Day35_CallOtherContract.sol\":58:438  contract CallTestContract {... */\n  mstore(0x40, 0x80)\n  callvalue\n  dup1\n  iszero\n  tag_1\n  jumpi\n  0x00\n  dup1\n  revert\ntag_1:\n  pop\n  dataSize(sub_0)\n  dup1\n  dataOffset(sub_0)\n  0x00\n  codecopy\n  0x00\n  return\nstop\n\nsub_0: assembly {\n        /* \"Day35_CallOtherContract.sol\":58:438  contract CallTestContract {... */\n      mstore(0x40, 0x80)\n      jumpi(tag_1, lt(calldatasize, 0x04))\n      shr(0xe0, calldataload(0x00))\n      dup1\n      0x4a2ad99f\n      eq\n      tag_2\n      jumpi\n      dup1\n      0x7c94c8ca\n      eq\n      tag_3\n      jumpi\n      dup1\n      0xd44abc42\n      eq\n      tag_4\n      jumpi\n    tag_1:\n      0x00\n      dup1\n      revert\n        /* \"Day35_CallOtherContract.sol\":90:173  function setX(TestContract _test, uint _x) external {... */\n    tag_2:\n      callvalue\n      dup1\n      iszero\n      tag_5\n      jumpi\n      0x00\n      dup1\n      revert\n    tag_5:\n      pop\n      tag_6\n      0x04\n      dup1\n      calldatasize\n      sub\n      dup2\n      add\n      swap1\n      tag_7\n      swap2\n      swap1\n      tag_8\n      jump\t// in\n    tag_7:\n      tag_9\n      jump\t// in\n    tag_6:\n      stop\n        /* \"Day35_CallOtherContract.sol\":179:285  function getX(address _test) external view returns(uint x) {... */\n    tag_3:\n      callvalue\n      dup1\n      iszero\n      tag_10\n      jumpi\n      0x00\n      dup1\n      revert\n    tag_10:\n      pop\n      tag_11\n      0x04\n      dup1\n      calldatasize\n      sub\n      dup2\n      add\n      swap1\n      tag_12\n      swap2\n      swap1\n      tag_13\n      jump\t// in\n    tag_12:\n      tag_14\n      jump\t// in\n    tag_11:\n      mload(0x40)\n      tag_15\n      swap2\n      swap1\n      tag_16\n      jump\t// in\n    tag_15:\n      mload(0x40)\n      dup1\n      swap2\n      sub\n      swap1\n      return\n        /* \"Day35_CallOtherContract.sol\":291:435  function setXandSendEther(address _test, uint _x) external payable {... */\n    tag_4:\n      tag_17\n      0x04\n      dup1\n      calldatasize\n      sub\n      dup2\n      add\n      swap1\n      tag_18\n      swap2\n      swap1\n      tag_19\n      jump\t// in\n    tag_18:\n      tag_20\n      jump\t// in\n    tag_17:\n      stop\n        /* \"Day35_CallOtherContract.sol\":90:173  function setX(TestContract _test, uint _x) external {... */\n    tag_9:\n        /* \"Day35_CallOtherContract.sol\":152:157  _test */\n      dup2\n        /* \"Day35_CallOtherContract.sol\":152:162  _test.setX */\n      0xffffffffffffffffffffffffffffffffffffffff\n      and\n      0x4018d9aa\n        /* \"Day35_CallOtherContract.sol\":163:165  _x */\n      dup3\n        /* \"Day35_CallOtherContract.sol\":152:166  _test.setX(_x) */\n      mload(0x40)\n      dup3\n      0xffffffff\n      and\n      0xe0\n      shl\n      dup2\n      mstore\n      0x04\n      add\n      tag_22\n      swap2\n      swap1\n      tag_16\n      jump\t// in\n    tag_22:\n      0x00\n      mload(0x40)\n      dup1\n      dup4\n      sub\n      dup2\n      0x00\n      dup8\n      dup1\n      extcodesize\n      iszero\n      dup1\n      iszero\n      tag_23\n      jumpi\n      0x00\n      dup1\n      revert\n    tag_23:\n      pop\n      gas\n      call\n      iszero\n      dup1\n      iszero\n      tag_25\n      jumpi\n      returndatasize\n      0x00\n      dup1\n      returndatacopy\n      revert(0x00, returndatasize)\n    tag_25:\n      pop\n      pop\n      pop\n      pop\n        /* \"Day35_CallOtherContract.sol\":90:173  function setX(TestContract _test, uint _x) external {... */\n      pop\n      pop\n      jump\t// out\n        /* \"Day35_CallOtherContract.sol\":179:285  function getX(address _test) external view returns(uint x) {... */\n    tag_14:\n        /* \"Day35_CallOtherContract.sol\":230:236  uint x */\n      0x00\n        /* \"Day35_CallOtherContract.sol\":265:270  _test */\n      dup2\n        /* \"Day35_CallOtherContract.sol\":252:276  TestContract(_test).getX */\n      0xffffffffffffffffffffffffffffffffffffffff\n      and\n      0x5197c7aa\n        /* \"Day35_CallOtherContract.sol\":252:278  TestContract(_test).getX() */\n      mload(0x40)\n      dup2\n      0xffffffff\n      and\n      0xe0\n      shl\n      dup2\n      mstore\n      0x04\n      add\n      0x20\n      mload(0x40)\n      dup1\n      dup4\n      sub\n      dup2\n      dup7\n      dup1\n      extcodesize\n      iszero\n      dup1\n      iszero\n      tag_27\n      jumpi\n      0x00\n      dup1\n      revert\n    tag_27:\n      pop\n      gas\n      staticcall\n      iszero\n      dup1\n      iszero\n      tag_29\n      jumpi\n      returndatasize\n      0x00\n      dup1\n      returndatacopy\n      revert(0x00, returndatasize)\n    tag_29:\n      pop\n      pop\n      pop\n      pop\n      mload(0x40)\n      returndatasize\n      not(0x1f)\n      0x1f\n      dup3\n      add\n      and\n      dup3\n      add\n      dup1\n      0x40\n      mstore\n      pop\n      dup2\n      add\n      swap1\n      tag_30\n      swap2\n      swap1\n      tag_31\n      jump\t// in\n    tag_30:\n        /* \"Day35_CallOtherContract.sol\":248:278  x = TestContract(_test).getX() */\n      swap1\n      pop\n        /* \"Day35_CallOtherContract.sol\":179:285  function getX(address _test) external view returns(uint x) {... */\n      swap2\n      swap1\n      pop\n      jump\t// out\n        /* \"Day35_CallOtherContract.sol\":291:435  function setXandSendEther(address _test, uint _x) external payable {... */\n    tag_20:\n        /* \"Day35_CallOtherContract.sol\":381:386  _test */\n      dup2\n        /* \"Day35_CallOtherContract.sol\":368:407  TestContract(_test).setXandReceiveEther */\n      0xffffffffffffffffffffffffffffffffffffffff\n      and\n      0x02f42be9\n        /* \"Day35_CallOtherContract.sol\":414:423  msg.value */\n      callvalue\n        /* \"Day35_CallOtherContract.sol\":425:427  _x */\n      dup4\n        /* \"Day35_CallOtherContract.sol\":368:428  TestContract(_test).setXandReceiveEther{value:msg.value}(_x) */\n      mload(0x40)\n      dup4\n      0xffffffff\n      and\n      0xe0\n      shl\n      dup2\n      mstore\n      0x04\n      add\n      tag_33\n      swap2\n      swap1\n      tag_16\n      jump\t// in\n    tag_33:\n      0x00\n      mload(0x40)\n      dup1\n      dup4\n      sub\n      dup2\n      dup6\n      dup9\n      dup1\n      extcodesize\n      iszero\n      dup1\n      iszero\n      tag_34\n      jumpi\n      0x00\n      dup1\n      revert\n    tag_34:\n      pop\n      gas\n      call\n      iszero\n      dup1\n      iszero\n      tag_36\n      jumpi\n      returndatasize\n      0x00\n      dup1\n      returndatacopy\n      revert(0x00, returndatasize)\n    tag_36:\n      pop\n      pop\n      pop\n      pop\n      pop\n        /* \"Day35_CallOtherContract.sol\":291:435  function setXandSendEther(address _test, uint _x) external payable {... */\n      pop\n      pop\n      jump\t// out\n        /* \"#utility.yul\":7:146   */\n    tag_38:\n        /* \"#utility.yul\":53:58   */\n      0x00\n        /* \"#utility.yul\":91:97   */\n      dup2\n        /* \"#utility.yul\":78:98   */\n      calldataload\n        /* \"#utility.yul\":69:98   */\n      swap1\n      pop\n        /* \"#utility.yul\":107:140   */\n      tag_40\n        /* \"#utility.yul\":134:139   */\n      dup2\n        /* \"#utility.yul\":107:140   */\n      tag_41\n      jump\t// in\n    tag_40:\n        /* \"#utility.yul\":7:146   */\n      swap3\n      swap2\n      pop\n      pop\n      jump\t// out\n        /* \"#utility.yul\":152:331   */\n    tag_42:\n        /* \"#utility.yul\":218:223   */\n      0x00\n        /* \"#utility.yul\":256:262   */\n      dup2\n        /* \"#utility.yul\":243:263   */\n      calldataload\n        /* \"#utility.yul\":234:263   */\n      swap1\n      pop\n        /* \"#utility.yul\":272:325   */\n      tag_44\n        /* \"#utility.yul\":319:324   */\n      dup2\n        /* \"#utility.yul\":272:325   */\n      tag_45\n      jump\t// in\n    tag_44:\n        /* \"#utility.yul\":152:331   */\n      swap3\n      swap2\n      pop\n      pop\n      jump\t// out\n        /* \"#utility.yul\":337:476   */\n    tag_46:\n        /* \"#utility.yul\":383:388   */\n      0x00\n        /* \"#utility.yul\":421:427   */\n      dup2\n        /* \"#utility.yul\":408:428   */\n      calldataload\n        /* \"#utility.yul\":399:428   */\n      swap1\n      pop\n        /* \"#utility.yul\":437:470   */\n      tag_48\n        /* \"#utility.yul\":464:469   */\n      dup2\n        /* \"#utility.yul\":437:470   */\n      tag_49\n      jump\t// in\n    tag_48:\n        /* \"#utility.yul\":337:476   */\n      swap3\n      swap2\n      pop\n      pop\n      jump\t// out\n        /* \"#utility.yul\":482:625   */\n    tag_50:\n        /* \"#utility.yul\":539:544   */\n      0x00\n        /* \"#utility.yul\":570:576   */\n      dup2\n        /* \"#utility.yul\":564:577   */\n      mload\n        /* \"#utility.yul\":555:577   */\n      swap1\n      pop\n        /* \"#utility.yul\":586:619   */\n      tag_52\n        /* \"#utility.yul\":613:618   */\n      dup2\n        /* \"#utility.yul\":586:619   */\n      tag_49\n      jump\t// in\n    tag_52:\n        /* \"#utility.yul\":482:625   */\n      swap3\n      swap2\n      pop\n      pop\n      jump\t// out\n        /* \"#utility.yul\":631:960   */\n    tag_13:\n        /* \"#utility.yul\":690:696   */\n      0x00\n        /* \"#utility.yul\":739:741   */\n      0x20\n        /* \"#utility.yul\":727:736   */\n      dup3\n        /* \"#utility.yul\":718:725   */\n      dup5\n        /* \"#utility.yul\":714:737   */\n      sub\n        /* \"#utility.yul\":710:742   */\n      slt\n        /* \"#utility.yul\":707:826   */\n      iszero\n      tag_54\n      jumpi\n        /* \"#utility.yul\":745:824   */\n      tag_55\n      tag_56\n      jump\t// in\n    tag_55:\n        /* \"#utility.yul\":707:826   */\n    tag_54:\n        /* \"#utility.yul\":865:866   */\n      0x00\n        /* \"#utility.yul\":890:943   */\n      tag_57\n        /* \"#utility.yul\":935:942   */\n      dup5\n        /* \"#utility.yul\":926:932   */\n      dup3\n        /* \"#utility.yul\":915:924   */\n      dup6\n        /* \"#utility.yul\":911:933   */\n      add\n        /* \"#utility.yul\":890:943   */\n      tag_38\n      jump\t// in\n    tag_57:\n        /* \"#utility.yul\":880:943   */\n      swap2\n      pop\n        /* \"#utility.yul\":836:953   */\n      pop\n        /* \"#utility.yul\":631:960   */\n      swap3\n      swap2\n      pop\n      pop\n      jump\t// out\n        /* \"#utility.yul\":966:1440   */\n    tag_19:\n        /* \"#utility.yul\":1034:1040   */\n      0x00\n        /* \"#utility.yul\":1042:1048   */\n      dup1\n        /* \"#utility.yul\":1091:1093   */\n      0x40\n        /* \"#utility.yul\":1079:1088   */\n      dup4\n        /* \"#utility.yul\":1070:1077   */\n      dup6\n        /* \"#utility.yul\":1066:1089   */\n      sub\n        /* \"#utility.yul\":1062:1094   */\n      slt\n        /* \"#utility.yul\":1059:1178   */\n      iszero\n      tag_59\n      jumpi\n        /* \"#utility.yul\":1097:1176   */\n      tag_60\n      tag_56\n      jump\t// in\n    tag_60:\n        /* \"#utility.yul\":1059:1178   */\n    tag_59:\n        /* \"#utility.yul\":1217:1218   */\n      0x00\n        /* \"#utility.yul\":1242:1295   */\n      tag_61\n        /* \"#utility.yul\":1287:1294   */\n      dup6\n        /* \"#utility.yul\":1278:1284   */\n      dup3\n        /* \"#utility.yul\":1267:1276   */\n      dup7\n        /* \"#utility.yul\":1263:1285   */\n      add\n        /* \"#utility.yul\":1242:1295   */\n      tag_38\n      jump\t// in\n    tag_61:\n        /* \"#utility.yul\":1232:1295   */\n      swap3\n      pop\n        /* \"#utility.yul\":1188:1305   */\n      pop\n        /* \"#utility.yul\":1344:1346   */\n      0x20\n        /* \"#utility.yul\":1370:1423   */\n      tag_62\n        /* \"#utility.yul\":1415:1422   */\n      dup6\n        /* \"#utility.yul\":1406:1412   */\n      dup3\n        /* \"#utility.yul\":1395:1404   */\n      dup7\n        /* \"#utility.yul\":1391:1413   */\n      add\n        /* \"#utility.yul\":1370:1423   */\n      tag_46\n      jump\t// in\n    tag_62:\n        /* \"#utility.yul\":1360:1423   */\n      swap2\n      pop\n        /* \"#utility.yul\":1315:1433   */\n      pop\n        /* \"#utility.yul\":966:1440   */\n      swap3\n      pop\n      swap3\n      swap1\n      pop\n      jump\t// out\n        /* \"#utility.yul\":1446:1960   */\n    tag_8:\n        /* \"#utility.yul\":1534:1540   */\n      0x00\n        /* \"#utility.yul\":1542:1548   */\n      dup1\n        /* \"#utility.yul\":1591:1593   */\n      0x40\n        /* \"#utility.yul\":1579:1588   */\n      dup4\n        /* \"#utility.yul\":1570:1577   */\n      dup6\n        /* \"#utility.yul\":1566:1589   */\n      sub\n        /* \"#utility.yul\":1562:1594   */\n      slt\n        /* \"#utility.yul\":1559:1678   */\n      iszero\n      tag_64\n      jumpi\n        /* \"#utility.yul\":1597:1676   */\n      tag_65\n      tag_56\n      jump\t// in\n    tag_65:\n        /* \"#utility.yul\":1559:1678   */\n    tag_64:\n        /* \"#utility.yul\":1717:1718   */\n      0x00\n        /* \"#utility.yul\":1742:1815   */\n      tag_66\n        /* \"#utility.yul\":1807:1814   */\n      dup6\n        /* \"#utility.yul\":1798:1804   */\n      dup3\n        /* \"#utility.yul\":1787:1796   */\n      dup7\n        /* \"#utility.yul\":1783:1805   */\n      add\n        /* \"#utility.yul\":1742:1815   */\n      tag_42\n      jump\t// in\n    tag_66:\n        /* \"#utility.yul\":1732:1815   */\n      swap3\n      pop\n        /* \"#utility.yul\":1688:1825   */\n      pop\n        /* \"#utility.yul\":1864:1866   */\n      0x20\n        /* \"#utility.yul\":1890:1943   */\n      tag_67\n        /* \"#utility.yul\":1935:1942   */\n      dup6\n        /* \"#utility.yul\":1926:1932   */\n      dup3\n        /* \"#utility.yul\":1915:1924   */\n      dup7\n        /* \"#utility.yul\":1911:1933   */\n      add\n        /* \"#utility.yul\":1890:1943   */\n      tag_46\n      jump\t// in\n    tag_67:\n        /* \"#utility.yul\":1880:1943   */\n      swap2\n      pop\n        /* \"#utility.yul\":1835:1953   */\n      pop\n        /* \"#utility.yul\":1446:1960   */\n      swap3\n      pop\n      swap3\n      swap1\n      pop\n      jump\t// out\n        /* \"#utility.yul\":1966:2317   */\n    tag_31:\n        /* \"#utility.yul\":2036:2042   */\n      0x00\n        /* \"#utility.yul\":2085:2087   */\n      0x20\n        /* \"#utility.yul\":2073:2082   */\n      dup3\n        /* \"#utility.yul\":2064:2071   */\n      dup5\n        /* \"#utility.yul\":2060:2083   */\n      sub\n        /* \"#utility.yul\":2056:2088   */\n      slt\n        /* \"#utility.yul\":2053:2172   */\n      iszero\n      tag_69\n      jumpi\n        /* \"#utility.yul\":2091:2170   */\n      tag_70\n      tag_56\n      jump\t// in\n    tag_70:\n        /* \"#utility.yul\":2053:2172   */\n    tag_69:\n        /* \"#utility.yul\":2211:2212   */\n      0x00\n        /* \"#utility.yul\":2236:2300   */\n      tag_71\n        /* \"#utility.yul\":2292:2299   */\n      dup5\n        /* \"#utility.yul\":2283:2289   */\n      dup3\n        /* \"#utility.yul\":2272:2281   */\n      dup6\n        /* \"#utility.yul\":2268:2290   */\n      add\n        /* \"#utility.yul\":2236:2300   */\n      tag_50\n      jump\t// in\n    tag_71:\n        /* \"#utility.yul\":2226:2300   */\n      swap2\n      pop\n        /* \"#utility.yul\":2182:2310   */\n      pop\n        /* \"#utility.yul\":1966:2317   */\n      swap3\n      swap2\n      pop\n      pop\n      jump\t// out\n        /* \"#utility.yul\":2323:2441   */\n    tag_72:\n        /* \"#utility.yul\":2410:2434   */\n      tag_74\n        /* \"#utility.yul\":2428:2433   */\n      dup2\n        /* \"#utility.yul\":2410:2434   */\n      tag_75\n      jump\t// in\n    tag_74:\n        /* \"#utility.yul\":2405:2408   */\n      dup3\n        /* \"#utility.yul\":2398:2435   */\n      mstore\n        /* \"#utility.yul\":2323:2441   */\n      pop\n      pop\n      jump\t// out\n        /* \"#utility.yul\":2447:2669   */\n    tag_16:\n        /* \"#utility.yul\":2540:2544   */\n      0x00\n        /* \"#utility.yul\":2578:2580   */\n      0x20\n        /* \"#utility.yul\":2567:2576   */\n      dup3\n        /* \"#utility.yul\":2563:2581   */\n      add\n        /* \"#utility.yul\":2555:2581   */\n      swap1\n      pop\n        /* \"#utility.yul\":2591:2662   */\n      tag_77\n        /* \"#utility.yul\":2659:2660   */\n      0x00\n        /* \"#utility.yul\":2648:2657   */\n      dup4\n        /* \"#utility.yul\":2644:2661   */\n      add\n        /* \"#utility.yul\":2635:2641   */\n      dup5\n        /* \"#utility.yul\":2591:2662   */\n      tag_72\n      jump\t// in\n    tag_77:\n        /* \"#utility.yul\":2447:2669   */\n      swap3\n      swap2\n      pop\n      pop\n      jump\t// out\n        /* \"#utility.yul\":2756:2852   */\n    tag_80:\n        /* \"#utility.yul\":2793:2800   */\n      0x00\n        /* \"#utility.yul\":2822:2846   */\n      tag_82\n        /* \"#utility.yul\":2840:2845   */\n      dup3\n        /* \"#utility.yul\":2822:2846   */\n      tag_83\n      jump\t// in\n    tag_82:\n        /* \"#utility.yul\":2811:2846   */\n      swap1\n      pop\n        /* \"#utility.yul\":2756:2852   */\n      swap2\n      swap1\n      pop\n      jump\t// out\n        /* \"#utility.yul\":2858:2974   */\n    tag_84:\n        /* \"#utility.yul\":2915:2922   */\n      0x00\n        /* \"#utility.yul\":2944:2968   */\n      tag_86\n        /* \"#utility.yul\":2962:2967   */\n      dup3\n        /* \"#utility.yul\":2944:2968   */\n      tag_80\n      jump\t// in\n    tag_86:\n        /* \"#utility.yul\":2933:2968   */\n      swap1\n      pop\n        /* \"#utility.yul\":2858:2974   */\n      swap2\n      swap1\n      pop\n      jump\t// out\n        /* \"#utility.yul\":2980:3106   */\n    tag_83:\n        /* \"#utility.yul\":3017:3024   */\n      0x00\n        /* \"#utility.yul\":3057:3099   */\n      0xffffffffffffffffffffffffffffffffffffffff\n        /* \"#utility.yul\":3050:3055   */\n      dup3\n        /* \"#utility.yul\":3046:3100   */\n      and\n        /* \"#utility.yul\":3035:3100   */\n      swap1\n      pop\n        /* \"#utility.yul\":2980:3106   */\n      swap2\n      swap1\n      pop\n      jump\t// out\n        /* \"#utility.yul\":3112:3189   */\n    tag_75:\n        /* \"#utility.yul\":3149:3156   */\n      0x00\n        /* \"#utility.yul\":3178:3183   */\n      dup2\n        /* \"#utility.yul\":3167:3183   */\n      swap1\n      pop\n        /* \"#utility.yul\":3112:3189   */\n      swap2\n      swap1\n      pop\n      jump\t// out\n        /* \"#utility.yul\":3318:3435   */\n    tag_56:\n        /* \"#utility.yul\":3427:3428   */\n      0x00\n        /* \"#utility.yul\":3424:3425   */\n      dup1\n        /* \"#utility.yul\":3417:3429   */\n      revert\n        /* \"#utility.yul\":3441:3563   */\n    tag_41:\n        /* \"#utility.yul\":3514:3538   */\n      tag_93\n        /* \"#utility.yul\":3532:3537   */\n      dup2\n        /* \"#utility.yul\":3514:3538   */\n      tag_80\n      jump\t// in\n    tag_93:\n        /* \"#utility.yul\":3507:3512   */\n      dup2\n        /* \"#utility.yul\":3504:3539   */\n      eq\n        /* \"#utility.yul\":3494:3557   */\n      tag_94\n      jumpi\n        /* \"#utility.yul\":3553:3554   */\n      0x00\n        /* \"#utility.yul\":3550:3551   */\n      dup1\n        /* \"#utility.yul\":3543:3555   */\n      revert\n        /* \"#utility.yul\":3494:3557   */\n    tag_94:\n        /* \"#utility.yul\":3441:3563   */\n      pop\n      jump\t// out\n        /* \"#utility.yul\":3569:3731   */\n    tag_45:\n        /* \"#utility.yul\":3662:3706   */\n      tag_96\n        /* \"#utility.yul\":3700:3705   */\n      dup2\n        /* \"#utility.yul\":3662:3706   */\n      tag_84\n      jump\t// in\n    tag_96:\n        /* \"#utility.yul\":3655:3660   */\n      dup2\n        /* \"#utility.yul\":3652:3707   */\n      eq\n        /* \"#utility.yul\":3642:3725   */\n      tag_97\n      jumpi\n        /* \"#utility.yul\":3721:3722   */\n      0x00\n        /* \"#utility.yul\":3718:3719   */\n      dup1\n        /* \"#utility.yul\":3711:3723   */\n      revert\n        /* \"#utility.yul\":3642:3725   */\n    tag_97:\n        /* \"#utility.yul\":3569:3731   */\n      pop\n      jump\t// out\n        /* \"#utility.yul\":3737:3859   */\n    tag_49:\n        /* \"#utility.yul\":3810:3834   */\n      tag_99\n        /* \"#utility.yul\":3828:3833   */\n      dup2\n        /* \"#utility.yul\":3810:3834   */\n      tag_75\n      jump\t// in\n    tag_99:\n        /* \"#utility.yul\":3803:3808   */\n      dup2\n        /* \"#utility.yul\":3800:3835   */\n      eq\n        /* \"#utility.yul\":3790:3853   */\n      tag_100\n      jumpi\n        /* \"#utility.yul\":3849:3850   */\n      0x00\n        /* \"#utility.yul\":3846:3847   */\n      dup1\n        /* \"#utility.yul\":3839:3851   */\n      revert\n        /* \"#utility.yul\":3790:3853   */\n    tag_100:\n        /* \"#utility.yul\":3737:3859   */\n      pop\n      jump\t// out\n\n    auxdata: 0xa26469706673582212208bb8119ec6d2d6ea3f9ee843a00b7ca4c31587bd6876030feb044faeb42907de64736f6c63430008070033\n}\n",
				"bytecode": {
					"linkReferences": {},
					"object": "608060405234801561001057600080fd5b50610447806100206000396000f3fe6080604052600436106100345760003560e01c80634a2ad99f146100395780637c94c8ca14610062578063d44abc421461009f575b600080fd5b34801561004557600080fd5b50610060600480360381019061005b91906102e2565b6100bb565b005b34801561006e57600080fd5b5061008960048036038101906100849190610275565b61012a565b604051610096919061035e565b60405180910390f35b6100b960048036038101906100b491906102a2565b6101b1565b005b8173ffffffffffffffffffffffffffffffffffffffff16634018d9aa826040518263ffffffff1660e01b81526004016100f4919061035e565b600060405180830381600087803b15801561010e57600080fd5b505af1158015610122573d6000803e3d6000fd5b505050505050565b60008173ffffffffffffffffffffffffffffffffffffffff16635197c7aa6040518163ffffffff1660e01b815260040160206040518083038186803b15801561017257600080fd5b505afa158015610186573d6000803e3d6000fd5b505050506040513d601f19601f820116820180604052508101906101aa9190610322565b9050919050565b8173ffffffffffffffffffffffffffffffffffffffff166302f42be934836040518363ffffffff1660e01b81526004016101eb919061035e565b6000604051808303818588803b15801561020457600080fd5b505af1158015610218573d6000803e3d6000fd5b50505050505050565b600081359050610230816103cc565b92915050565b600081359050610245816103e3565b92915050565b60008135905061025a816103fa565b92915050565b60008151905061026f816103fa565b92915050565b60006020828403121561028b5761028a6103c7565b5b600061029984828501610221565b91505092915050565b600080604083850312156102b9576102b86103c7565b5b60006102c785828601610221565b92505060206102d88582860161024b565b9150509250929050565b600080604083850312156102f9576102f86103c7565b5b600061030785828601610236565b92505060206103188582860161024b565b9150509250929050565b600060208284031215610338576103376103c7565b5b600061034684828501610260565b91505092915050565b610358816103bd565b82525050565b6000602082019050610373600083018461034f565b92915050565b60006103848261039d565b9050919050565b600061039682610379565b9050919050565b600073ffffffffffffffffffffffffffffffffffffffff82169050919050565b6000819050919050565b600080fd5b6103d581610379565b81146103e057600080fd5b50565b6103ec8161038b565b81146103f757600080fd5b50565b610403816103bd565b811461040e57600080fd5b5056fea26469706673582212208bb8119ec6d2d6ea3f9ee843a00b7ca4c31587bd6876030feb044faeb42907de64736f6c63430008070033",
					"opcodes": "PUSH1 0x80 PUSH1 0x40 MSTORE CALLVALUE DUP1 ISZERO PUSH2 0x10 JUMPI PUSH1 0x0 DUP1 REVERT JUMPDEST POP PUSH2 0x447 DUP1 PUSH2 0x20 PUSH1 0x0 CODECOPY PUSH1 0x0 RETURN INVALID PUSH1 0x80 PUSH1 0x40 MSTORE PUSH1 0x4 CALLDATASIZE LT PUSH2 0x34 JUMPI PUSH1 0x0 CALLDATALOAD PUSH1 0xE0 SHR DUP1 PUSH4 0x4A2AD99F EQ PUSH2 0x39 JUMPI DUP1 PUSH4 0x7C94C8CA EQ PUSH2 0x62 JUMPI DUP1 PUSH4 0xD44ABC42 EQ PUSH2 0x9F JUMPI JUMPDEST PUSH1 0x0 DUP1 REVERT JUMPDEST CALLVALUE DUP1 ISZERO PUSH2 0x45 JUMPI PUSH1 0x0 DUP1 REVERT JUMPDEST POP PUSH2 0x60 PUSH1 0x4 DUP1 CALLDATASIZE SUB DUP2 ADD SWAP1 PUSH2 0x5B SWAP2 SWAP1 PUSH2 0x2E2 JUMP JUMPDEST PUSH2 0xBB JUMP JUMPDEST STOP JUMPDEST CALLVALUE DUP1 ISZERO PUSH2 0x6E JUMPI PUSH1 0x0 DUP1 REVERT JUMPDEST POP PUSH2 0x89 PUSH1 0x4 DUP1 CALLDATASIZE SUB DUP2 ADD SWAP1 PUSH2 0x84 SWAP2 SWAP1 PUSH2 0x275 JUMP JUMPDEST PUSH2 0x12A JUMP JUMPDEST PUSH1 0x40 MLOAD PUSH2 0x96 SWAP2 SWAP1 PUSH2 0x35E JUMP JUMPDEST PUSH1 0x40 MLOAD DUP1 SWAP2 SUB SWAP1 RETURN JUMPDEST PUSH2 0xB9 PUSH1 0x4 DUP1 CALLDATASIZE SUB DUP2 ADD SWAP1 PUSH2 0xB4 SWAP2 SWAP1 PUSH2 0x2A2 JUMP JUMPDEST PUSH2 0x1B1 JUMP JUMPDEST STOP JUMPDEST DUP2 PUSH20 0xFFFFFFFFFFFFFFFFFFFFFFFFFFFFFFFFFFFFFFFF AND PUSH4 0x4018D9AA DUP3 PUSH1 0x40 MLOAD DUP3 PUSH4 0xFFFFFFFF AND PUSH1 0xE0 SHL DUP2 MSTORE PUSH1 0x4 ADD PUSH2 0xF4 SWAP2 SWAP1 PUSH2 0x35E JUMP JUMPDEST PUSH1 0x0 PUSH1 0x40 MLOAD DUP1 DUP4 SUB DUP2 PUSH1 0x0 DUP8 DUP1 EXTCODESIZE ISZERO DUP1 ISZERO PUSH2 0x10E JUMPI PUSH1 0x0 DUP1 REVERT JUMPDEST POP GAS CALL ISZERO DUP1 ISZERO PUSH2 0x122 JUMPI RETURNDATASIZE PUSH1 0x0 DUP1 RETURNDATACOPY RETURNDATASIZE PUSH1 0x0 REVERT JUMPDEST POP POP POP POP POP POP JUMP JUMPDEST PUSH1 0x0 DUP2 PUSH20 0xFFFFFFFFFFFFFFFFFFFFFFFFFFFFFFFFFFFFFFFF AND PUSH4 0x5197C7AA PUSH1 0x40 MLOAD DUP2 PUSH4 0xFFFFFFFF AND PUSH1 0xE0 SHL DUP2 MSTORE PUSH1 0x4 ADD PUSH1 0x20 PUSH1 0x40 MLOAD DUP1 DUP4 SUB DUP2 DUP7 DUP1 EXTCODESIZE ISZERO DUP1 ISZERO PUSH2 0x172 JUMPI PUSH1 0x0 DUP1 REVERT JUMPDEST POP GAS STATICCALL ISZERO DUP1 ISZERO PUSH2 0x186 JUMPI RETURNDATASIZE PUSH1 0x0 DUP1 RETURNDATACOPY RETURNDATASIZE PUSH1 0x0 REVERT JUMPDEST POP POP POP POP PUSH1 0x40 MLOAD RETURNDATASIZE PUSH1 0x1F NOT PUSH1 0x1F DUP3 ADD AND DUP3 ADD DUP1 PUSH1 0x40 MSTORE POP DUP2 ADD SWAP1 PUSH2 0x1AA SWAP2 SWAP1 PUSH2 0x322 JUMP JUMPDEST SWAP1 POP SWAP2 SWAP1 POP JUMP JUMPDEST DUP2 PUSH20 0xFFFFFFFFFFFFFFFFFFFFFFFFFFFFFFFFFFFFFFFF AND PUSH4 0x2F42BE9 CALLVALUE DUP4 PUSH1 0x40 MLOAD DUP4 PUSH4 0xFFFFFFFF AND PUSH1 0xE0 SHL DUP2 MSTORE PUSH1 0x4 ADD PUSH2 0x1EB SWAP2 SWAP1 PUSH2 0x35E JUMP JUMPDEST PUSH1 0x0 PUSH1 0x40 MLOAD DUP1 DUP4 SUB DUP2 DUP6 DUP9 DUP1 EXTCODESIZE ISZERO DUP1 ISZERO PUSH2 0x204 JUMPI PUSH1 0x0 DUP1 REVERT JUMPDEST POP GAS CALL ISZERO DUP1 ISZERO PUSH2 0x218 JUMPI RETURNDATASIZE PUSH1 0x0 DUP1 RETURNDATACOPY RETURNDATASIZE PUSH1 0x0 REVERT JUMPDEST POP POP POP POP POP POP POP JUMP JUMPDEST PUSH1 0x0 DUP2 CALLDATALOAD SWAP1 POP PUSH2 0x230 DUP2 PUSH2 0x3CC JUMP JUMPDEST SWAP3 SWAP2 POP POP JUMP JUMPDEST PUSH1 0x0 DUP2 CALLDATALOAD SWAP1 POP PUSH2 0x245 DUP2 PUSH2 0x3E3 JUMP JUMPDEST SWAP3 SWAP2 POP POP JUMP JUMPDEST PUSH1 0x0 DUP2 CALLDATALOAD SWAP1 POP PUSH2 0x25A DUP2 PUSH2 0x3FA JUMP JUMPDEST SWAP3 SWAP2 POP POP JUMP JUMPDEST PUSH1 0x0 DUP2 MLOAD SWAP1 POP PUSH2 0x26F DUP2 PUSH2 0x3FA JUMP JUMPDEST SWAP3 SWAP2 POP POP JUMP JUMPDEST PUSH1 0x0 PUSH1 0x20 DUP3 DUP5 SUB SLT ISZERO PUSH2 0x28B JUMPI PUSH2 0x28A PUSH2 0x3C7 JUMP JUMPDEST JUMPDEST PUSH1 0x0 PUSH2 0x299 DUP5 DUP3 DUP6 ADD PUSH2 0x221 JUMP JUMPDEST SWAP2 POP POP SWAP3 SWAP2 POP POP JUMP JUMPDEST PUSH1 0x0 DUP1 PUSH1 0x40 DUP4 DUP6 SUB SLT ISZERO PUSH2 0x2B9 JUMPI PUSH2 0x2B8 PUSH2 0x3C7 JUMP JUMPDEST JUMPDEST PUSH1 0x0 PUSH2 0x2C7 DUP6 DUP3 DUP7 ADD PUSH2 0x221 JUMP JUMPDEST SWAP3 POP POP PUSH1 0x20 PUSH2 0x2D8 DUP6 DUP3 DUP7 ADD PUSH2 0x24B JUMP JUMPDEST SWAP2 POP POP SWAP3 POP SWAP3 SWAP1 POP JUMP JUMPDEST PUSH1 0x0 DUP1 PUSH1 0x40 DUP4 DUP6 SUB SLT ISZERO PUSH2 0x2F9 JUMPI PUSH2 0x2F8 PUSH2 0x3C7 JUMP JUMPDEST JUMPDEST PUSH1 0x0 PUSH2 0x307 DUP6 DUP3 DUP7 ADD PUSH2 0x236 JUMP JUMPDEST SWAP3 POP POP PUSH1 0x20 PUSH2 0x318 DUP6 DUP3 DUP7 ADD PUSH2 0x24B JUMP JUMPDEST SWAP2 POP POP SWAP3 POP SWAP3 SWAP1 POP JUMP JUMPDEST PUSH1 0x0 PUSH1 0x20 DUP3 DUP5 SUB SLT ISZERO PUSH2 0x338 JUMPI PUSH2 0x337 PUSH2 0x3C7 JUMP JUMPDEST JUMPDEST PUSH1 0x0 PUSH2 0x346 DUP5 DUP3 DUP6 ADD PUSH2 0x260 JUMP JUMPDEST SWAP2 POP POP SWAP3 SWAP2 POP POP JUMP JUMPDEST PUSH2 0x358 DUP2 PUSH2 0x3BD JUMP JUMPDEST DUP3 MSTORE POP POP JUMP JUMPDEST PUSH1 0x0 PUSH1 0x20 DUP3 ADD SWAP1 POP PUSH2 0x373 PUSH1 0x0 DUP4 ADD DUP5 PUSH2 0x34F JUMP JUMPDEST SWAP3 SWAP2 POP POP JUMP JUMPDEST PUSH1 0x0 PUSH2 0x384 DUP3 PUSH2 0x39D JUMP JUMPDEST SWAP1 POP SWAP2 SWAP1 POP JUMP JUMPDEST PUSH1 0x0 PUSH2 0x396 DUP3 PUSH2 0x379 JUMP JUMPDEST SWAP1 POP SWAP2 SWAP1 POP JUMP JUMPDEST PUSH1 0x0 PUSH20 0xFFFFFFFFFFFFFFFFFFFFFFFFFFFFFFFFFFFFFFFF DUP3 AND SWAP1 POP SWAP2 SWAP1 POP JUMP JUMPDEST PUSH1 0x0 DUP2 SWAP1 POP SWAP2 SWAP1 POP JUMP JUMPDEST PUSH1 0x0 DUP1 REVERT JUMPDEST PUSH2 0x3D5 DUP2 PUSH2 0x379 JUMP JUMPDEST DUP2 EQ PUSH2 0x3E0 JUMPI PUSH1 0x0 DUP1 REVERT JUMPDEST POP JUMP JUMPDEST PUSH2 0x3EC DUP2 PUSH2 0x38B JUMP JUMPDEST DUP2 EQ PUSH2 0x3F7 JUMPI PUSH1 0x0 DUP1 REVERT JUMPDEST POP JUMP JUMPDEST PUSH2 0x403 DUP2 PUSH2 0x3BD JUMP JUMPDEST DUP2 EQ PUSH2 0x40E JUMPI PUSH1 0x0 DUP1 REVERT JUMPDEST POP JUMP INVALID LOG2 PUSH5 0x6970667358 0x22 SLT KECCAK256 DUP12 0xB8 GT SWAP15 0xC6 0xD2 0xD6 0xEA EXTCODEHASH SWAP15 0xE8 NUMBER LOG0 SIGNEXTEND PUSH29 0xA4C31587BD6876030FEB044FAEB42907DE64736F6C6343000807003300 "
				},
				"gasEstimates": {
					"creation": {
						"codeDepositCost": "219000",
						"executionCost": "263",
						"totalCost": "219263"
					},
					"external": {
						"getX(address)": "infinite",
						"setX(address,uint256)": "infinite",
						"setXandSendEther(address,uint256)": "infinite"
					}
				},
				"methodIdentifiers": {
					"getX(address)": "7c94c8ca",
					"setX(address,uint256)": "4a2ad99f",
					"setXandSendEther(address,uint256)": "d44abc42"
				}
			},
			"storageLayout": {
				"storage": [],
				"types": null
			},
			"userdoc": {
				"kind": "user",
				"methods": {},
				"version": 1
			}
		}
	}
}