{
	"Day29_Visibllty.sol": {
		"Visibillity": {
			"abi": [
				{
					"inputs": [],
					"name": "examples",
					"outputs": [],
					"stateMutability": "view",
					"type": "function"
				},
				{
					"inputs": [],
					"name": "externalFunction",
					"outputs": [
						{
							"internalType": "uint256",
							"name": "",
							"type": "uint256"
						}
					],
					"stateMutability": "pure",
					"type": "function"
				},
				{
					"inputs": [],
					"name": "publicFunction",
					"outputs": [
						{
							"internalType": "uint256",
							"name": "",
							"type": "uint256"
						}
					],
					"stateMutability": "pure",
					"type": "function"
				},
				{
					"inputs": [],
					"name": "z",
					"outputs": [
						{
							"internalType": "uint256",
							"name": "",
							"type": "uint256"
						}
					],
					"stateMutability": "view",
					"type": "function"
				}
			],
			"devdoc": {
				"kind": "dev",
				"methods": {},
				"version": 1
			},
			"evm": {
				"assembly": "    /* \"Day29_Visibllty.sol\":58:696  contract Visibillity {... */\n  mstore(0x40, 0x80)\n    /* \"Day29_Visibllty.sol\":102:103  0 */\n  0x00\n    /* \"Day29_Visibllty.sol\":85:103  uint private x = 0 */\n  dup1\n  sstore\n    /* \"Day29_Visibllty.sol\":127:128  1 */\n  0x01\n    /* \"Day29_Visibllty.sol\":109:128  uint internal y = 1 */\n  dup1\n  sstore\n    /* \"Day29_Visibllty.sol\":150:151  2 */\n  0x02\n    /* \"Day29_Visibllty.sol\":134:151  uint public z = 2 */\n  dup1\n  sstore\n    /* \"Day29_Visibllty.sol\":58:696  contract Visibillity {... */\n  callvalue\n  dup1\n  iszero\n  tag_1\n  jumpi\n  0x00\n  dup1\n  revert\ntag_1:\n  pop\n  dataSize(sub_0)\n  dup1\n  dataOffset(sub_0)\n  0x00\n  codecopy\n  0x00\n  return\nstop\n\nsub_0: assembly {\n        /* \"Day29_Visibllty.sol\":58:696  contract Visibillity {... */\n      mstore(0x40, 0x80)\n      callvalue\n      dup1\n      iszero\n      tag_1\n      jumpi\n      0x00\n      dup1\n      revert\n    tag_1:\n      pop\n      jumpi(tag_2, lt(calldatasize, 0x04))\n      shr(0xe0, calldataload(0x00))\n      dup1\n      0x335d00c2\n      eq\n      tag_3\n      jumpi\n      dup1\n      0x3a32b549\n      eq\n      tag_4\n      jumpi\n      dup1\n      0x7b5d520b\n      eq\n      tag_5\n      jumpi\n      dup1\n      0xc5d7802e\n      eq\n      tag_6\n      jumpi\n    tag_2:\n      0x00\n      dup1\n      revert\n        /* \"Day29_Visibllty.sol\":518:694  function examples() external view {... */\n    tag_3:\n      tag_7\n      tag_8\n      jump\t// in\n    tag_7:\n      stop\n        /* \"Day29_Visibllty.sol\":427:512  function externalFunction () external pure returns (uint) {... */\n    tag_4:\n      tag_9\n      tag_10\n      jump\t// in\n    tag_9:\n      mload(0x40)\n      tag_11\n      swap2\n      swap1\n      tag_12\n      jump\t// in\n    tag_11:\n      mload(0x40)\n      dup1\n      swap2\n      sub\n      swap1\n      return\n        /* \"Day29_Visibllty.sol\":340:421  function publicFunction () public pure returns (uint) {... */\n    tag_5:\n      tag_13\n      tag_14\n      jump\t// in\n    tag_13:\n      mload(0x40)\n      tag_15\n      swap2\n      swap1\n      tag_12\n      jump\t// in\n    tag_15:\n      mload(0x40)\n      dup1\n      swap2\n      sub\n      swap1\n      return\n        /* \"Day29_Visibllty.sol\":134:151  uint public z = 2 */\n    tag_6:\n      tag_16\n      tag_17\n      jump\t// in\n    tag_16:\n      mload(0x40)\n      tag_18\n      swap2\n      swap1\n      tag_12\n      jump\t// in\n    tag_18:\n      mload(0x40)\n      dup1\n      swap2\n      sub\n      swap1\n      return\n        /* \"Day29_Visibllty.sol\":518:694  function examples() external view {... */\n    tag_8:\n        /* \"Day29_Visibllty.sol\":570:571  z */\n      sload(0x02)\n        /* \"Day29_Visibllty.sol\":566:567  y */\n      sload(0x01)\n        /* \"Day29_Visibllty.sol\":562:563  x */\n      sload(0x00)\n        /* \"Day29_Visibllty.sol\":562:567  x + y */\n      tag_20\n      swap2\n      swap1\n      tag_21\n      jump\t// in\n    tag_20:\n        /* \"Day29_Visibllty.sol\":562:571  x + y + z */\n      tag_22\n      swap2\n      swap1\n      tag_21\n      jump\t// in\n    tag_22:\n      pop\n        /* \"Day29_Visibllty.sol\":582:599  privateFunction() */\n      tag_23\n        /* \"Day29_Visibllty.sol\":582:597  privateFunction */\n      tag_24\n        /* \"Day29_Visibllty.sol\":582:599  privateFunction() */\n      jump\t// in\n    tag_23:\n      pop\n        /* \"Day29_Visibllty.sol\":609:627  internalFunction() */\n      tag_25\n        /* \"Day29_Visibllty.sol\":609:625  internalFunction */\n      tag_26\n        /* \"Day29_Visibllty.sol\":609:627  internalFunction() */\n      jump\t// in\n    tag_25:\n      pop\n        /* \"Day29_Visibllty.sol\":637:653  publicFunction() */\n      tag_27\n        /* \"Day29_Visibllty.sol\":637:651  publicFunction */\n      tag_14\n        /* \"Day29_Visibllty.sol\":637:653  publicFunction() */\n      jump\t// in\n    tag_27:\n      pop\n        /* \"Day29_Visibllty.sol\":664:668  this */\n      address\n        /* \"Day29_Visibllty.sol\":664:685  this.externalFunction */\n      0xffffffffffffffffffffffffffffffffffffffff\n      and\n      0x3a32b549\n        /* \"Day29_Visibllty.sol\":664:687  this.externalFunction() */\n      mload(0x40)\n      dup2\n      0xffffffff\n      and\n      0xe0\n      shl\n      dup2\n      mstore\n      0x04\n      add\n      0x20\n      mload(0x40)\n      dup1\n      dup4\n      sub\n      dup2\n      dup7\n      dup1\n      extcodesize\n      iszero\n      dup1\n      iszero\n      tag_28\n      jumpi\n      0x00\n      dup1\n      revert\n    tag_28:\n      pop\n      gas\n      staticcall\n      iszero\n      dup1\n      iszero\n      tag_30\n      jumpi\n      returndatasize\n      0x00\n      dup1\n      returndatacopy\n      revert(0x00, returndatasize)\n    tag_30:\n      pop\n      pop\n      pop\n      pop\n      mload(0x40)\n      returndatasize\n      not(0x1f)\n      0x1f\n      dup3\n      add\n      and\n      dup3\n      add\n      dup1\n      0x40\n      mstore\n      pop\n      dup2\n      add\n      swap1\n      tag_31\n      swap2\n      swap1\n      tag_32\n      jump\t// in\n    tag_31:\n      pop\n        /* \"Day29_Visibllty.sol\":518:694  function examples() external view {... */\n      jump\t// out\n        /* \"Day29_Visibllty.sol\":427:512  function externalFunction () external pure returns (uint) {... */\n    tag_10:\n        /* \"Day29_Visibllty.sol\":479:483  uint */\n      0x00\n        /* \"Day29_Visibllty.sol\":502:505  300 */\n      0x012c\n        /* \"Day29_Visibllty.sol\":495:505  return 300 */\n      swap1\n      pop\n        /* \"Day29_Visibllty.sol\":427:512  function externalFunction () external pure returns (uint) {... */\n      swap1\n      jump\t// out\n        /* \"Day29_Visibllty.sol\":340:421  function publicFunction () public pure returns (uint) {... */\n    tag_14:\n        /* \"Day29_Visibllty.sol\":388:392  uint */\n      0x00\n        /* \"Day29_Visibllty.sol\":411:414  200 */\n      0xc8\n        /* \"Day29_Visibllty.sol\":404:414  return 200 */\n      swap1\n      pop\n        /* \"Day29_Visibllty.sol\":340:421  function publicFunction () public pure returns (uint) {... */\n      swap1\n      jump\t// out\n        /* \"Day29_Visibllty.sol\":134:151  uint public z = 2 */\n    tag_17:\n      sload(0x02)\n      dup2\n      jump\t// out\n        /* \"Day29_Visibllty.sol\":162:243  function privateFunction () private pure returns (uint) {... */\n    tag_24:\n        /* \"Day29_Visibllty.sol\":212:216  uint */\n      0x00\n        /* \"Day29_Visibllty.sol\":162:243  function privateFunction () private pure returns (uint) {... */\n      swap1\n      jump\t// out\n        /* \"Day29_Visibllty.sol\":249:334  function internalFunction () internal pure returns (uint) {... */\n    tag_26:\n        /* \"Day29_Visibllty.sol\":301:305  uint */\n      0x00\n        /* \"Day29_Visibllty.sol\":324:327  100 */\n      0x64\n        /* \"Day29_Visibllty.sol\":317:327  return 100 */\n      swap1\n      pop\n        /* \"Day29_Visibllty.sol\":249:334  function internalFunction () internal pure returns (uint) {... */\n      swap1\n      jump\t// out\n        /* \"#utility.yul\":7:150   */\n    tag_38:\n        /* \"#utility.yul\":64:69   */\n      0x00\n        /* \"#utility.yul\":95:101   */\n      dup2\n        /* \"#utility.yul\":89:102   */\n      mload\n        /* \"#utility.yul\":80:102   */\n      swap1\n      pop\n        /* \"#utility.yul\":111:144   */\n      tag_40\n        /* \"#utility.yul\":138:143   */\n      dup2\n        /* \"#utility.yul\":111:144   */\n      tag_41\n      jump\t// in\n    tag_40:\n        /* \"#utility.yul\":7:150   */\n      swap3\n      swap2\n      pop\n      pop\n      jump\t// out\n        /* \"#utility.yul\":156:507   */\n    tag_32:\n        /* \"#utility.yul\":226:232   */\n      0x00\n        /* \"#utility.yul\":275:277   */\n      0x20\n        /* \"#utility.yul\":263:272   */\n      dup3\n        /* \"#utility.yul\":254:261   */\n      dup5\n        /* \"#utility.yul\":250:273   */\n      sub\n        /* \"#utility.yul\":246:278   */\n      slt\n        /* \"#utility.yul\":243:362   */\n      iszero\n      tag_43\n      jumpi\n        /* \"#utility.yul\":281:360   */\n      tag_44\n      tag_45\n      jump\t// in\n    tag_44:\n        /* \"#utility.yul\":243:362   */\n    tag_43:\n        /* \"#utility.yul\":401:402   */\n      0x00\n        /* \"#utility.yul\":426:490   */\n      tag_46\n        /* \"#utility.yul\":482:489   */\n      dup5\n        /* \"#utility.yul\":473:479   */\n      dup3\n        /* \"#utility.yul\":462:471   */\n      dup6\n        /* \"#utility.yul\":458:480   */\n      add\n        /* \"#utility.yul\":426:490   */\n      tag_38\n      jump\t// in\n    tag_46:\n        /* \"#utility.yul\":416:490   */\n      swap2\n      pop\n        /* \"#utility.yul\":372:500   */\n      pop\n        /* \"#utility.yul\":156:507   */\n      swap3\n      swap2\n      pop\n      pop\n      jump\t// out\n        /* \"#utility.yul\":513:631   */\n    tag_47:\n        /* \"#utility.yul\":600:624   */\n      tag_49\n        /* \"#utility.yul\":618:623   */\n      dup2\n        /* \"#utility.yul\":600:624   */\n      tag_50\n      jump\t// in\n    tag_49:\n        /* \"#utility.yul\":595:598   */\n      dup3\n        /* \"#utility.yul\":588:625   */\n      mstore\n        /* \"#utility.yul\":513:631   */\n      pop\n      pop\n      jump\t// out\n        /* \"#utility.yul\":637:859   */\n    tag_12:\n        /* \"#utility.yul\":730:734   */\n      0x00\n        /* \"#utility.yul\":768:770   */\n      0x20\n        /* \"#utility.yul\":757:766   */\n      dup3\n        /* \"#utility.yul\":753:771   */\n      add\n        /* \"#utility.yul\":745:771   */\n      swap1\n      pop\n        /* \"#utility.yul\":781:852   */\n      tag_52\n        /* \"#utility.yul\":849:850   */\n      0x00\n        /* \"#utility.yul\":838:847   */\n      dup4\n        /* \"#utility.yul\":834:851   */\n      add\n        /* \"#utility.yul\":825:831   */\n      dup5\n        /* \"#utility.yul\":781:852   */\n      tag_47\n      jump\t// in\n    tag_52:\n        /* \"#utility.yul\":637:859   */\n      swap3\n      swap2\n      pop\n      pop\n      jump\t// out\n        /* \"#utility.yul\":946:1251   */\n    tag_21:\n        /* \"#utility.yul\":986:989   */\n      0x00\n        /* \"#utility.yul\":1005:1025   */\n      tag_56\n        /* \"#utility.yul\":1023:1024   */\n      dup3\n        /* \"#utility.yul\":1005:1025   */\n      tag_50\n      jump\t// in\n    tag_56:\n        /* \"#utility.yul\":1000:1025   */\n      swap2\n      pop\n        /* \"#utility.yul\":1039:1059   */\n      tag_57\n        /* \"#utility.yul\":1057:1058   */\n      dup4\n        /* \"#utility.yul\":1039:1059   */\n      tag_50\n      jump\t// in\n    tag_57:\n        /* \"#utility.yul\":1034:1059   */\n      swap3\n      pop\n        /* \"#utility.yul\":1193:1194   */\n      dup3\n        /* \"#utility.yul\":1125:1191   */\n      0xffffffffffffffffffffffffffffffffffffffffffffffffffffffffffffffff\n        /* \"#utility.yul\":1121:1195   */\n      sub\n        /* \"#utility.yul\":1118:1119   */\n      dup3\n        /* \"#utility.yul\":1115:1196   */\n      gt\n        /* \"#utility.yul\":1112:1219   */\n      iszero\n      tag_58\n      jumpi\n        /* \"#utility.yul\":1199:1217   */\n      tag_59\n      tag_60\n      jump\t// in\n    tag_59:\n        /* \"#utility.yul\":1112:1219   */\n    tag_58:\n        /* \"#utility.yul\":1243:1244   */\n      dup3\n        /* \"#utility.yul\":1240:1241   */\n      dup3\n        /* \"#utility.yul\":1236:1245   */\n      add\n        /* \"#utility.yul\":1229:1245   */\n      swap1\n      pop\n        /* \"#utility.yul\":946:1251   */\n      swap3\n      swap2\n      pop\n      pop\n      jump\t// out\n        /* \"#utility.yul\":1257:1334   */\n    tag_50:\n        /* \"#utility.yul\":1294:1301   */\n      0x00\n        /* \"#utility.yul\":1323:1328   */\n      dup2\n        /* \"#utility.yul\":1312:1328   */\n      swap1\n      pop\n        /* \"#utility.yul\":1257:1334   */\n      swap2\n      swap1\n      pop\n      jump\t// out\n        /* \"#utility.yul\":1340:1520   */\n    tag_60:\n        /* \"#utility.yul\":1388:1465   */\n      0x4e487b7100000000000000000000000000000000000000000000000000000000\n        /* \"#utility.yul\":1385:1386   */\n      0x00\n        /* \"#utility.yul\":1378:1466   */\n      mstore\n        /* \"#utility.yul\":1485:1489   */\n      0x11\n        /* \"#utility.yul\":1482:1483   */\n      0x04\n        /* \"#utility.yul\":1475:1490   */\n      mstore\n        /* \"#utility.yul\":1509:1513   */\n      0x24\n        /* \"#utility.yul\":1506:1507   */\n      0x00\n        /* \"#utility.yul\":1499:1514   */\n      revert\n        /* \"#utility.yul\":1649:1766   */\n    tag_45:\n        /* \"#utility.yul\":1758:1759   */\n      0x00\n        /* \"#utility.yul\":1755:1756   */\n      dup1\n        /* \"#utility.yul\":1748:1760   */\n      revert\n        /* \"#utility.yul\":1772:1894   */\n    tag_41:\n        /* \"#utility.yul\":1845:1869   */\n      tag_67\n        /* \"#utility.yul\":1863:1868   */\n      dup2\n        /* \"#utility.yul\":1845:1869   */\n      tag_50\n      jump\t// in\n    tag_67:\n        /* \"#utility.yul\":1838:1843   */\n      dup2\n        /* \"#utility.yul\":1835:1870   */\n      eq\n        /* \"#utility.yul\":1825:1888   */\n      tag_68\n      jumpi\n        /* \"#utility.yul\":1884:1885   */\n      0x00\n        /* \"#utility.yul\":1881:1882   */\n      dup1\n        /* \"#utility.yul\":1874:1886   */\n      revert\n        /* \"#utility.yul\":1825:1888   */\n    tag_68:\n        /* \"#utility.yul\":1772:1894   */\n      pop\n      jump\t// out\n\n    auxdata: 0xa26469706673582212208c5aca1cf10719787e3a5fb7c4125ca7066725d01fb3841b2eea8ec7638d2e7864736f6c63430008070033\n}\n",
				"bytecode": {
					"linkReferences": {},
					"object": "608060405260008055600180556002805534801561001c57600080fd5b506102e38061002c6000396000f3fe608060405234801561001057600080fd5b506004361061004c5760003560e01c8063335d00c2146100515780633a32b5491461005b5780637b5d520b14610079578063c5d7802e14610097575b600080fd5b6100596100b5565b005b61006361016f565b60405161007091906101e7565b60405180910390f35b610081610179565b60405161008e91906101e7565b60405180910390f35b61009f610182565b6040516100ac91906101e7565b60405180910390f35b6002546001546000546100c89190610202565b6100d29190610202565b506100db610188565b506100e461018d565b506100ed610179565b503073ffffffffffffffffffffffffffffffffffffffff16633a32b5496040518163ffffffff1660e01b815260040160206040518083038186803b15801561013457600080fd5b505afa158015610148573d6000803e3d6000fd5b505050506040513d601f19601f8201168201806040525081019061016c91906101ab565b50565b600061012c905090565b600060c8905090565b60025481565b600090565b60006064905090565b6000815190506101a581610296565b92915050565b6000602082840312156101c1576101c0610291565b5b60006101cf84828501610196565b91505092915050565b6101e181610258565b82525050565b60006020820190506101fc60008301846101d8565b92915050565b600061020d82610258565b915061021883610258565b9250827fffffffffffffffffffffffffffffffffffffffffffffffffffffffffffffffff0382111561024d5761024c610262565b5b828201905092915050565b6000819050919050565b7f4e487b7100000000000000000000000000000000000000000000000000000000600052601160045260246000fd5b600080fd5b61029f81610258565b81146102aa57600080fd5b5056fea26469706673582212208c5aca1cf10719787e3a5fb7c4125ca7066725d01fb3841b2eea8ec7638d2e7864736f6c63430008070033",
					"opcodes": "PUSH1 0x80 PUSH1 0x40 MSTORE PUSH1 0x0 DUP1 SSTORE PUSH1 0x1 DUP1 SSTORE PUSH1 0x2 DUP1 SSTORE CALLVALUE DUP1 ISZERO PUSH2 0x1C JUMPI PUSH1 0x0 DUP1 REVERT JUMPDEST POP PUSH2 0x2E3 DUP1 PUSH2 0x2C PUSH1 0x0 CODECOPY PUSH1 0x0 RETURN INVALID PUSH1 0x80 PUSH1 0x40 MSTORE CALLVALUE DUP1 ISZERO PUSH2 0x10 JUMPI PUSH1 0x0 DUP1 REVERT JUMPDEST POP PUSH1 0x4 CALLDATASIZE LT PUSH2 0x4C JUMPI PUSH1 0x0 CALLDATALOAD PUSH1 0xE0 SHR DUP1 PUSH4 0x335D00C2 EQ PUSH2 0x51 JUMPI DUP1 PUSH4 0x3A32B549 EQ PUSH2 0x5B JUMPI DUP1 PUSH4 0x7B5D520B EQ PUSH2 0x79 JUMPI DUP1 PUSH4 0xC5D7802E EQ PUSH2 0x97 JUMPI JUMPDEST PUSH1 0x0 DUP1 REVERT JUMPDEST PUSH2 0x59 PUSH2 0xB5 JUMP JUMPDEST STOP JUMPDEST PUSH2 0x63 PUSH2 0x16F JUMP JUMPDEST PUSH1 0x40 MLOAD PUSH2 0x70 SWAP2 SWAP1 PUSH2 0x1E7 JUMP JUMPDEST PUSH1 0x40 MLOAD DUP1 SWAP2 SUB SWAP1 RETURN JUMPDEST PUSH2 0x81 PUSH2 0x179 JUMP JUMPDEST PUSH1 0x40 MLOAD PUSH2 0x8E SWAP2 SWAP1 PUSH2 0x1E7 JUMP JUMPDEST PUSH1 0x40 MLOAD DUP1 SWAP2 SUB SWAP1 RETURN JUMPDEST PUSH2 0x9F PUSH2 0x182 JUMP JUMPDEST PUSH1 0x40 MLOAD PUSH2 0xAC SWAP2 SWAP1 PUSH2 0x1E7 JUMP JUMPDEST PUSH1 0x40 MLOAD DUP1 SWAP2 SUB SWAP1 RETURN JUMPDEST PUSH1 0x2 SLOAD PUSH1 0x1 SLOAD PUSH1 0x0 SLOAD PUSH2 0xC8 SWAP2 SWAP1 PUSH2 0x202 JUMP JUMPDEST PUSH2 0xD2 SWAP2 SWAP1 PUSH2 0x202 JUMP JUMPDEST POP PUSH2 0xDB PUSH2 0x188 JUMP JUMPDEST POP PUSH2 0xE4 PUSH2 0x18D JUMP JUMPDEST POP PUSH2 0xED PUSH2 0x179 JUMP JUMPDEST POP ADDRESS PUSH20 0xFFFFFFFFFFFFFFFFFFFFFFFFFFFFFFFFFFFFFFFF AND PUSH4 0x3A32B549 PUSH1 0x40 MLOAD DUP2 PUSH4 0xFFFFFFFF AND PUSH1 0xE0 SHL DUP2 MSTORE PUSH1 0x4 ADD PUSH1 0x20 PUSH1 0x40 MLOAD DUP1 DUP4 SUB DUP2 DUP7 DUP1 EXTCODESIZE ISZERO DUP1 ISZERO PUSH2 0x134 JUMPI PUSH1 0x0 DUP1 REVERT JUMPDEST POP GAS STATICCALL ISZERO DUP1 ISZERO PUSH2 0x148 JUMPI RETURNDATASIZE PUSH1 0x0 DUP1 RETURNDATACOPY RETURNDATASIZE PUSH1 0x0 REVERT JUMPDEST POP POP POP POP PUSH1 0x40 MLOAD RETURNDATASIZE PUSH1 0x1F NOT PUSH1 0x1F DUP3 ADD AND DUP3 ADD DUP1 PUSH1 0x40 MSTORE POP DUP2 ADD SWAP1 PUSH2 0x16C SWAP2 SWAP1 PUSH2 0x1AB JUMP JUMPDEST POP JUMP JUMPDEST PUSH1 0x0 PUSH2 0x12C SWAP1 POP SWAP1 JUMP JUMPDEST PUSH1 0x0 PUSH1 0xC8 SWAP1 POP SWAP1 JUMP JUMPDEST PUSH1 0x2 SLOAD DUP2 JUMP JUMPDEST PUSH1 0x0 SWAP1 JUMP JUMPDEST PUSH1 0x0 PUSH1 0x64 SWAP1 POP SWAP1 JUMP JUMPDEST PUSH1 0x0 DUP2 MLOAD SWAP1 POP PUSH2 0x1A5 DUP2 PUSH2 0x296 JUMP JUMPDEST SWAP3 SWAP2 POP POP JUMP JUMPDEST PUSH1 0x0 PUSH1 0x20 DUP3 DUP5 SUB SLT ISZERO PUSH2 0x1C1 JUMPI PUSH2 0x1C0 PUSH2 0x291 JUMP JUMPDEST JUMPDEST PUSH1 0x0 PUSH2 0x1CF DUP5 DUP3 DUP6 ADD PUSH2 0x196 JUMP JUMPDEST SWAP2 POP POP SWAP3 SWAP2 POP POP JUMP JUMPDEST PUSH2 0x1E1 DUP2 PUSH2 0x258 JUMP JUMPDEST DUP3 MSTORE POP POP JUMP JUMPDEST PUSH1 0x0 PUSH1 0x20 DUP3 ADD SWAP1 POP PUSH2 0x1FC PUSH1 0x0 DUP4 ADD DUP5 PUSH2 0x1D8 JUMP JUMPDEST SWAP3 SWAP2 POP POP JUMP JUMPDEST PUSH1 0x0 PUSH2 0x20D DUP3 PUSH2 0x258 JUMP JUMPDEST SWAP2 POP PUSH2 0x218 DUP4 PUSH2 0x258 JUMP JUMPDEST SWAP3 POP DUP3 PUSH32 0xFFFFFFFFFFFFFFFFFFFFFFFFFFFFFFFFFFFFFFFFFFFFFFFFFFFFFFFFFFFFFFFF SUB DUP3 GT ISZERO PUSH2 0x24D JUMPI PUSH2 0x24C PUSH2 0x262 JUMP JUMPDEST JUMPDEST DUP3 DUP3 ADD SWAP1 POP SWAP3 SWAP2 POP POP JUMP JUMPDEST PUSH1 0x0 DUP2 SWAP1 POP SWAP2 SWAP1 POP JUMP JUMPDEST PUSH32 0x4E487B7100000000000000000000000000000000000000000000000000000000 PUSH1 0x0 MSTORE PUSH1 0x11 PUSH1 0x4 MSTORE PUSH1 0x24 PUSH1 0x0 REVERT JUMPDEST PUSH1 0x0 DUP1 REVERT JUMPDEST PUSH2 0x29F DUP2 PUSH2 0x258 JUMP JUMPDEST DUP2 EQ PUSH2 0x2AA JUMPI PUSH1 0x0 DUP1 REVERT JUMPDEST POP JUMP INVALID LOG2 PUSH5 0x6970667358 0x22 SLT KECCAK256 DUP13 GAS 0xCA SHR CALL SMOD NOT PUSH25 0x7E3A5FB7C4125CA7066725D01FB3841B2EEA8EC7638D2E7864 PUSH20 0x6F6C634300080700330000000000000000000000 "
				},
				"gasEstimates": {
					"creation": {
						"codeDepositCost": "147800",
						"executionCost": "49414",
						"totalCost": "197214"
					},
					"external": {
						"examples()": "infinite",
						"externalFunction()": "337",
						"publicFunction()": "359",
						"z()": "2473"
					},
					"internal": {
						"internalFunction()": "23",
						"privateFunction()": "15"
					}
				},
				"methodIdentifiers": {
					"examples()": "335d00c2",
					"externalFunction()": "3a32b549",
					"publicFunction()": "7b5d520b",
					"z()": "c5d7802e"
				}
			},
			"storageLayout": {
				"storage": [
					{
						"astId": 4,
						"contract": "Day29_Visibllty.sol:Visibillity",
						"label": "x",
						"offset": 0,
						"slot": "0",
						"type": "t_uint256"
					},
					{
						"astId": 7,
						"contract": "Day29_Visibllty.sol:Visibillity",
						"label": "y",
						"offset": 0,
						"slot": "1",
						"type": "t_uint256"
					},
					{
						"astId": 10,
						"contract": "Day29_Visibllty.sol:Visibillity",
						"label": "z",
						"offset": 0,
						"slot": "2",
						"type": "t_uint256"
					}
				],
				"types": {
					"t_uint256": {
						"encoding": "inplace",
						"label": "uint256",
						"numberOfBytes": "32"
					}
				}
			},
			"userdoc": {
				"kind": "user",
				"methods": {},
				"version": 1
			}
		}
	}
}