{
	"Day2_ValueTypes.sol": {
		"ValueTypes": {
			"abi": [
				{
					"inputs": [],
					"name": "a",
					"outputs": [
						{
							"internalType": "bool",
							"name": "",
							"type": "bool"
						}
					],
					"stateMutability": "view",
					"type": "function"
				},
				{
					"inputs": [],
					"name": "addr",
					"outputs": [
						{
							"internalType": "address",
							"name": "",
							"type": "address"
						}
					],
					"stateMutability": "view",
					"type": "function"
				},
				{
					"inputs": [],
					"name": "b",
					"outputs": [
						{
							"internalType": "uint256",
							"name": "",
							"type": "uint256"
						}
					],
					"stateMutability": "view",
					"type": "function"
				},
				{
					"inputs": [],
					"name": "c",
					"outputs": [
						{
							"internalType": "int256",
							"name": "",
							"type": "int256"
						}
					],
					"stateMutability": "view",
					"type": "function"
				},
				{
					"inputs": [],
					"name": "maxInt",
					"outputs": [
						{
							"internalType": "int256",
							"name": "",
							"type": "int256"
						}
					],
					"stateMutability": "view",
					"type": "function"
				},
				{
					"inputs": [],
					"name": "minInt",
					"outputs": [
						{
							"internalType": "int256",
							"name": "",
							"type": "int256"
						}
					],
					"stateMutability": "view",
					"type": "function"
				}
			],
			"devdoc": {
				"kind": "dev",
				"methods": {},
				"version": 1
			},
			"evm": {
				"assembly": "    /* \"Day2_ValueTypes.sol\":95:329  contract ValueTypes {... */\n  mstore(0x40, 0x80)\n    /* \"Day2_ValueTypes.sol\":198:211  type(int).max */\n  0x7fffffffffffffffffffffffffffffffffffffffffffffffffffffffffffffff\n    /* \"Day2_ValueTypes.sol\":178:211  int public maxInt = type(int).max */\n  0x03\n  sstore\n    /* \"Day2_ValueTypes.sol\":237:250  type(int).min */\n  0x8000000000000000000000000000000000000000000000000000000000000000\n    /* \"Day2_ValueTypes.sol\":217:250  int public minInt = type(int).min */\n  0x04\n  sstore\n    /* \"Day2_ValueTypes.sol\":279:321  0xEc82818BBD209f6694165757f9Ac9A0d0C7048aB */\n  0xec82818bbd209f6694165757f9ac9a0d0c7048ab\n    /* \"Day2_ValueTypes.sol\":257:321  address public addr = 0xEc82818BBD209f6694165757f9Ac9A0d0C7048aB */\n  0x05\n  exp(0x0100, 0x00)\n  dup2\n  sload\n  dup2\n  0xffffffffffffffffffffffffffffffffffffffff\n  mul\n  not\n  and\n  swap1\n  dup4\n  0xffffffffffffffffffffffffffffffffffffffff\n  and\n  mul\n  or\n  swap1\n  sstore\n  pop\n    /* \"Day2_ValueTypes.sol\":95:329  contract ValueTypes {... */\n  callvalue\n  dup1\n  iszero\n  tag_1\n  jumpi\n  0x00\n  dup1\n  revert\ntag_1:\n  pop\n  dataSize(sub_0)\n  dup1\n  dataOffset(sub_0)\n  0x00\n  codecopy\n  0x00\n  return\nstop\n\nsub_0: assembly {\n        /* \"Day2_ValueTypes.sol\":95:329  contract ValueTypes {... */\n      mstore(0x40, 0x80)\n      callvalue\n      dup1\n      iszero\n      tag_1\n      jumpi\n      0x00\n      dup1\n      revert\n    tag_1:\n      pop\n      jumpi(tag_2, lt(calldatasize, 0x04))\n      shr(0xe0, calldataload(0x00))\n      dup1\n      0x0dbe671f\n      eq\n      tag_3\n      jumpi\n      dup1\n      0x4df7e3d0\n      eq\n      tag_4\n      jumpi\n      dup1\n      0x767800de\n      eq\n      tag_5\n      jumpi\n      dup1\n      0x7a4c2571\n      eq\n      tag_6\n      jumpi\n      dup1\n      0x7e4e14cc\n      eq\n      tag_7\n      jumpi\n      dup1\n      0xc3da42b8\n      eq\n      tag_8\n      jumpi\n    tag_2:\n      0x00\n      dup1\n      revert\n        /* \"Day2_ValueTypes.sol\":121:134  bool public a */\n    tag_3:\n      tag_9\n      tag_10\n      jump\t// in\n    tag_9:\n      mload(0x40)\n      tag_11\n      swap2\n      swap1\n      tag_12\n      jump\t// in\n    tag_11:\n      mload(0x40)\n      dup1\n      swap2\n      sub\n      swap1\n      return\n        /* \"Day2_ValueTypes.sol\":140:153  uint public b */\n    tag_4:\n      tag_13\n      tag_14\n      jump\t// in\n    tag_13:\n      mload(0x40)\n      tag_15\n      swap2\n      swap1\n      tag_16\n      jump\t// in\n    tag_15:\n      mload(0x40)\n      dup1\n      swap2\n      sub\n      swap1\n      return\n        /* \"Day2_ValueTypes.sol\":257:321  address public addr = 0xEc82818BBD209f6694165757f9Ac9A0d0C7048aB */\n    tag_5:\n      tag_17\n      tag_18\n      jump\t// in\n    tag_17:\n      mload(0x40)\n      tag_19\n      swap2\n      swap1\n      tag_20\n      jump\t// in\n    tag_19:\n      mload(0x40)\n      dup1\n      swap2\n      sub\n      swap1\n      return\n        /* \"Day2_ValueTypes.sol\":178:211  int public maxInt = type(int).max */\n    tag_6:\n      tag_21\n      tag_22\n      jump\t// in\n    tag_21:\n      mload(0x40)\n      tag_23\n      swap2\n      swap1\n      tag_24\n      jump\t// in\n    tag_23:\n      mload(0x40)\n      dup1\n      swap2\n      sub\n      swap1\n      return\n        /* \"Day2_ValueTypes.sol\":217:250  int public minInt = type(int).min */\n    tag_7:\n      tag_25\n      tag_26\n      jump\t// in\n    tag_25:\n      mload(0x40)\n      tag_27\n      swap2\n      swap1\n      tag_24\n      jump\t// in\n    tag_27:\n      mload(0x40)\n      dup1\n      swap2\n      sub\n      swap1\n      return\n        /* \"Day2_ValueTypes.sol\":159:171  int public c */\n    tag_8:\n      tag_28\n      tag_29\n      jump\t// in\n    tag_28:\n      mload(0x40)\n      tag_30\n      swap2\n      swap1\n      tag_24\n      jump\t// in\n    tag_30:\n      mload(0x40)\n      dup1\n      swap2\n      sub\n      swap1\n      return\n        /* \"Day2_ValueTypes.sol\":121:134  bool public a */\n    tag_10:\n      0x00\n      dup1\n      sload\n      swap1\n      0x0100\n      exp\n      swap1\n      div\n      0xff\n      and\n      dup2\n      jump\t// out\n        /* \"Day2_ValueTypes.sol\":140:153  uint public b */\n    tag_14:\n      sload(0x01)\n      dup2\n      jump\t// out\n        /* \"Day2_ValueTypes.sol\":257:321  address public addr = 0xEc82818BBD209f6694165757f9Ac9A0d0C7048aB */\n    tag_18:\n      0x05\n      0x00\n      swap1\n      sload\n      swap1\n      0x0100\n      exp\n      swap1\n      div\n      0xffffffffffffffffffffffffffffffffffffffff\n      and\n      dup2\n      jump\t// out\n        /* \"Day2_ValueTypes.sol\":178:211  int public maxInt = type(int).max */\n    tag_22:\n      sload(0x03)\n      dup2\n      jump\t// out\n        /* \"Day2_ValueTypes.sol\":217:250  int public minInt = type(int).min */\n    tag_26:\n      sload(0x04)\n      dup2\n      jump\t// out\n        /* \"Day2_ValueTypes.sol\":159:171  int public c */\n    tag_29:\n      sload(0x02)\n      dup2\n      jump\t// out\n        /* \"#utility.yul\":7:125   */\n    tag_32:\n        /* \"#utility.yul\":94:118   */\n      tag_34\n        /* \"#utility.yul\":112:117   */\n      dup2\n        /* \"#utility.yul\":94:118   */\n      tag_35\n      jump\t// in\n    tag_34:\n        /* \"#utility.yul\":89:92   */\n      dup3\n        /* \"#utility.yul\":82:119   */\n      mstore\n        /* \"#utility.yul\":7:125   */\n      pop\n      pop\n      jump\t// out\n        /* \"#utility.yul\":131:240   */\n    tag_36:\n        /* \"#utility.yul\":212:233   */\n      tag_38\n        /* \"#utility.yul\":227:232   */\n      dup2\n        /* \"#utility.yul\":212:233   */\n      tag_39\n      jump\t// in\n    tag_38:\n        /* \"#utility.yul\":207:210   */\n      dup3\n        /* \"#utility.yul\":200:234   */\n      mstore\n        /* \"#utility.yul\":131:240   */\n      pop\n      pop\n      jump\t// out\n        /* \"#utility.yul\":246:361   */\n    tag_40:\n        /* \"#utility.yul\":331:354   */\n      tag_42\n        /* \"#utility.yul\":348:353   */\n      dup2\n        /* \"#utility.yul\":331:354   */\n      tag_43\n      jump\t// in\n    tag_42:\n        /* \"#utility.yul\":326:329   */\n      dup3\n        /* \"#utility.yul\":319:355   */\n      mstore\n        /* \"#utility.yul\":246:361   */\n      pop\n      pop\n      jump\t// out\n        /* \"#utility.yul\":367:485   */\n    tag_44:\n        /* \"#utility.yul\":454:478   */\n      tag_46\n        /* \"#utility.yul\":472:477   */\n      dup2\n        /* \"#utility.yul\":454:478   */\n      tag_47\n      jump\t// in\n    tag_46:\n        /* \"#utility.yul\":449:452   */\n      dup3\n        /* \"#utility.yul\":442:479   */\n      mstore\n        /* \"#utility.yul\":367:485   */\n      pop\n      pop\n      jump\t// out\n        /* \"#utility.yul\":491:713   */\n    tag_20:\n        /* \"#utility.yul\":584:588   */\n      0x00\n        /* \"#utility.yul\":622:624   */\n      0x20\n        /* \"#utility.yul\":611:620   */\n      dup3\n        /* \"#utility.yul\":607:625   */\n      add\n        /* \"#utility.yul\":599:625   */\n      swap1\n      pop\n        /* \"#utility.yul\":635:706   */\n      tag_49\n        /* \"#utility.yul\":703:704   */\n      0x00\n        /* \"#utility.yul\":692:701   */\n      dup4\n        /* \"#utility.yul\":688:705   */\n      add\n        /* \"#utility.yul\":679:685   */\n      dup5\n        /* \"#utility.yul\":635:706   */\n      tag_32\n      jump\t// in\n    tag_49:\n        /* \"#utility.yul\":491:713   */\n      swap3\n      swap2\n      pop\n      pop\n      jump\t// out\n        /* \"#utility.yul\":719:929   */\n    tag_12:\n        /* \"#utility.yul\":806:810   */\n      0x00\n        /* \"#utility.yul\":844:846   */\n      0x20\n        /* \"#utility.yul\":833:842   */\n      dup3\n        /* \"#utility.yul\":829:847   */\n      add\n        /* \"#utility.yul\":821:847   */\n      swap1\n      pop\n        /* \"#utility.yul\":857:922   */\n      tag_51\n        /* \"#utility.yul\":919:920   */\n      0x00\n        /* \"#utility.yul\":908:917   */\n      dup4\n        /* \"#utility.yul\":904:921   */\n      add\n        /* \"#utility.yul\":895:901   */\n      dup5\n        /* \"#utility.yul\":857:922   */\n      tag_36\n      jump\t// in\n    tag_51:\n        /* \"#utility.yul\":719:929   */\n      swap3\n      swap2\n      pop\n      pop\n      jump\t// out\n        /* \"#utility.yul\":935:1153   */\n    tag_24:\n        /* \"#utility.yul\":1026:1030   */\n      0x00\n        /* \"#utility.yul\":1064:1066   */\n      0x20\n        /* \"#utility.yul\":1053:1062   */\n      dup3\n        /* \"#utility.yul\":1049:1067   */\n      add\n        /* \"#utility.yul\":1041:1067   */\n      swap1\n      pop\n        /* \"#utility.yul\":1077:1146   */\n      tag_53\n        /* \"#utility.yul\":1143:1144   */\n      0x00\n        /* \"#utility.yul\":1132:1141   */\n      dup4\n        /* \"#utility.yul\":1128:1145   */\n      add\n        /* \"#utility.yul\":1119:1125   */\n      dup5\n        /* \"#utility.yul\":1077:1146   */\n      tag_40\n      jump\t// in\n    tag_53:\n        /* \"#utility.yul\":935:1153   */\n      swap3\n      swap2\n      pop\n      pop\n      jump\t// out\n        /* \"#utility.yul\":1159:1381   */\n    tag_16:\n        /* \"#utility.yul\":1252:1256   */\n      0x00\n        /* \"#utility.yul\":1290:1292   */\n      0x20\n        /* \"#utility.yul\":1279:1288   */\n      dup3\n        /* \"#utility.yul\":1275:1293   */\n      add\n        /* \"#utility.yul\":1267:1293   */\n      swap1\n      pop\n        /* \"#utility.yul\":1303:1374   */\n      tag_55\n        /* \"#utility.yul\":1371:1372   */\n      0x00\n        /* \"#utility.yul\":1360:1369   */\n      dup4\n        /* \"#utility.yul\":1356:1373   */\n      add\n        /* \"#utility.yul\":1347:1353   */\n      dup5\n        /* \"#utility.yul\":1303:1374   */\n      tag_44\n      jump\t// in\n    tag_55:\n        /* \"#utility.yul\":1159:1381   */\n      swap3\n      swap2\n      pop\n      pop\n      jump\t// out\n        /* \"#utility.yul\":1387:1483   */\n    tag_35:\n        /* \"#utility.yul\":1424:1431   */\n      0x00\n        /* \"#utility.yul\":1453:1477   */\n      tag_57\n        /* \"#utility.yul\":1471:1476   */\n      dup3\n        /* \"#utility.yul\":1453:1477   */\n      tag_58\n      jump\t// in\n    tag_57:\n        /* \"#utility.yul\":1442:1477   */\n      swap1\n      pop\n        /* \"#utility.yul\":1387:1483   */\n      swap2\n      swap1\n      pop\n      jump\t// out\n        /* \"#utility.yul\":1489:1579   */\n    tag_39:\n        /* \"#utility.yul\":1523:1530   */\n      0x00\n        /* \"#utility.yul\":1566:1571   */\n      dup2\n        /* \"#utility.yul\":1559:1572   */\n      iszero\n        /* \"#utility.yul\":1552:1573   */\n      iszero\n        /* \"#utility.yul\":1541:1573   */\n      swap1\n      pop\n        /* \"#utility.yul\":1489:1579   */\n      swap2\n      swap1\n      pop\n      jump\t// out\n        /* \"#utility.yul\":1585:1661   */\n    tag_43:\n        /* \"#utility.yul\":1621:1628   */\n      0x00\n        /* \"#utility.yul\":1650:1655   */\n      dup2\n        /* \"#utility.yul\":1639:1655   */\n      swap1\n      pop\n        /* \"#utility.yul\":1585:1661   */\n      swap2\n      swap1\n      pop\n      jump\t// out\n        /* \"#utility.yul\":1667:1793   */\n    tag_58:\n        /* \"#utility.yul\":1704:1711   */\n      0x00\n        /* \"#utility.yul\":1744:1786   */\n      0xffffffffffffffffffffffffffffffffffffffff\n        /* \"#utility.yul\":1737:1742   */\n      dup3\n        /* \"#utility.yul\":1733:1787   */\n      and\n        /* \"#utility.yul\":1722:1787   */\n      swap1\n      pop\n        /* \"#utility.yul\":1667:1793   */\n      swap2\n      swap1\n      pop\n      jump\t// out\n        /* \"#utility.yul\":1799:1876   */\n    tag_47:\n        /* \"#utility.yul\":1836:1843   */\n      0x00\n        /* \"#utility.yul\":1865:1870   */\n      dup2\n        /* \"#utility.yul\":1854:1870   */\n      swap1\n      pop\n        /* \"#utility.yul\":1799:1876   */\n      swap2\n      swap1\n      pop\n      jump\t// out\n\n    auxdata: 0xa2646970667358221220071cf1b78e38e9cdea7bac091539586d2cc01f4c8bfe00fc5d55f9a3b7ed632564736f6c63430008070033\n}\n",
				"bytecode": {
					"linkReferences": {},
					"object": "60806040527f7fffffffffffffffffffffffffffffffffffffffffffffffffffffffffffffff6003557f800000000000000000000000000000000000000000000000000000000000000060045573ec82818bbd209f6694165757f9ac9a0d0c7048ab600560006101000a81548173ffffffffffffffffffffffffffffffffffffffff021916908373ffffffffffffffffffffffffffffffffffffffff1602179055503480156100ad57600080fd5b5061029a806100bd6000396000f3fe608060405234801561001057600080fd5b50600436106100625760003560e01c80630dbe671f146100675780634df7e3d014610085578063767800de146100a35780637a4c2571146100c15780637e4e14cc146100df578063c3da42b8146100fd575b600080fd5b61006f61011b565b60405161007c91906101c1565b60405180910390f35b61008d61012c565b60405161009a91906101f7565b60405180910390f35b6100ab610132565b6040516100b891906101a6565b60405180910390f35b6100c9610158565b6040516100d691906101dc565b60405180910390f35b6100e761015e565b6040516100f491906101dc565b60405180910390f35b610105610164565b60405161011291906101dc565b60405180910390f35b60008054906101000a900460ff1681565b60015481565b600560009054906101000a900473ffffffffffffffffffffffffffffffffffffffff1681565b60035481565b60045481565b60025481565b61017381610212565b82525050565b61018281610224565b82525050565b61019181610230565b82525050565b6101a08161025a565b82525050565b60006020820190506101bb600083018461016a565b92915050565b60006020820190506101d66000830184610179565b92915050565b60006020820190506101f16000830184610188565b92915050565b600060208201905061020c6000830184610197565b92915050565b600061021d8261023a565b9050919050565b60008115159050919050565b6000819050919050565b600073ffffffffffffffffffffffffffffffffffffffff82169050919050565b600081905091905056fea2646970667358221220071cf1b78e38e9cdea7bac091539586d2cc01f4c8bfe00fc5d55f9a3b7ed632564736f6c63430008070033",
					"opcodes": "PUSH1 0x80 PUSH1 0x40 MSTORE PUSH32 0x7FFFFFFFFFFFFFFFFFFFFFFFFFFFFFFFFFFFFFFFFFFFFFFFFFFFFFFFFFFFFFFF PUSH1 0x3 SSTORE PUSH32 0x8000000000000000000000000000000000000000000000000000000000000000 PUSH1 0x4 SSTORE PUSH20 0xEC82818BBD209F6694165757F9AC9A0D0C7048AB PUSH1 0x5 PUSH1 0x0 PUSH2 0x100 EXP DUP2 SLOAD DUP2 PUSH20 0xFFFFFFFFFFFFFFFFFFFFFFFFFFFFFFFFFFFFFFFF MUL NOT AND SWAP1 DUP4 PUSH20 0xFFFFFFFFFFFFFFFFFFFFFFFFFFFFFFFFFFFFFFFF AND MUL OR SWAP1 SSTORE POP CALLVALUE DUP1 ISZERO PUSH2 0xAD JUMPI PUSH1 0x0 DUP1 REVERT JUMPDEST POP PUSH2 0x29A DUP1 PUSH2 0xBD PUSH1 0x0 CODECOPY PUSH1 0x0 RETURN INVALID PUSH1 0x80 PUSH1 0x40 MSTORE CALLVALUE DUP1 ISZERO PUSH2 0x10 JUMPI PUSH1 0x0 DUP1 REVERT JUMPDEST POP PUSH1 0x4 CALLDATASIZE LT PUSH2 0x62 JUMPI PUSH1 0x0 CALLDATALOAD PUSH1 0xE0 SHR DUP1 PUSH4 0xDBE671F EQ PUSH2 0x67 JUMPI DUP1 PUSH4 0x4DF7E3D0 EQ PUSH2 0x85 JUMPI DUP1 PUSH4 0x767800DE EQ PUSH2 0xA3 JUMPI DUP1 PUSH4 0x7A4C2571 EQ PUSH2 0xC1 JUMPI DUP1 PUSH4 0x7E4E14CC EQ PUSH2 0xDF JUMPI DUP1 PUSH4 0xC3DA42B8 EQ PUSH2 0xFD JUMPI JUMPDEST PUSH1 0x0 DUP1 REVERT JUMPDEST PUSH2 0x6F PUSH2 0x11B JUMP JUMPDEST PUSH1 0x40 MLOAD PUSH2 0x7C SWAP2 SWAP1 PUSH2 0x1C1 JUMP JUMPDEST PUSH1 0x40 MLOAD DUP1 SWAP2 SUB SWAP1 RETURN JUMPDEST PUSH2 0x8D PUSH2 0x12C JUMP JUMPDEST PUSH1 0x40 MLOAD PUSH2 0x9A SWAP2 SWAP1 PUSH2 0x1F7 JUMP JUMPDEST PUSH1 0x40 MLOAD DUP1 SWAP2 SUB SWAP1 RETURN JUMPDEST PUSH2 0xAB PUSH2 0x132 JUMP JUMPDEST PUSH1 0x40 MLOAD PUSH2 0xB8 SWAP2 SWAP1 PUSH2 0x1A6 JUMP JUMPDEST PUSH1 0x40 MLOAD DUP1 SWAP2 SUB SWAP1 RETURN JUMPDEST PUSH2 0xC9 PUSH2 0x158 JUMP JUMPDEST PUSH1 0x40 MLOAD PUSH2 0xD6 SWAP2 SWAP1 PUSH2 0x1DC JUMP JUMPDEST PUSH1 0x40 MLOAD DUP1 SWAP2 SUB SWAP1 RETURN JUMPDEST PUSH2 0xE7 PUSH2 0x15E JUMP JUMPDEST PUSH1 0x40 MLOAD PUSH2 0xF4 SWAP2 SWAP1 PUSH2 0x1DC JUMP JUMPDEST PUSH1 0x40 MLOAD DUP1 SWAP2 SUB SWAP1 RETURN JUMPDEST PUSH2 0x105 PUSH2 0x164 JUMP JUMPDEST PUSH1 0x40 MLOAD PUSH2 0x112 SWAP2 SWAP1 PUSH2 0x1DC JUMP JUMPDEST PUSH1 0x40 MLOAD DUP1 SWAP2 SUB SWAP1 RETURN JUMPDEST PUSH1 0x0 DUP1 SLOAD SWAP1 PUSH2 0x100 EXP SWAP1 DIV PUSH1 0xFF AND DUP2 JUMP JUMPDEST PUSH1 0x1 SLOAD DUP2 JUMP JUMPDEST PUSH1 0x5 PUSH1 0x0 SWAP1 SLOAD SWAP1 PUSH2 0x100 EXP SWAP1 DIV PUSH20 0xFFFFFFFFFFFFFFFFFFFFFFFFFFFFFFFFFFFFFFFF AND DUP2 JUMP JUMPDEST PUSH1 0x3 SLOAD DUP2 JUMP JUMPDEST PUSH1 0x4 SLOAD DUP2 JUMP JUMPDEST PUSH1 0x2 SLOAD DUP2 JUMP JUMPDEST PUSH2 0x173 DUP2 PUSH2 0x212 JUMP JUMPDEST DUP3 MSTORE POP POP JUMP JUMPDEST PUSH2 0x182 DUP2 PUSH2 0x224 JUMP JUMPDEST DUP3 MSTORE POP POP JUMP JUMPDEST PUSH2 0x191 DUP2 PUSH2 0x230 JUMP JUMPDEST DUP3 MSTORE POP POP JUMP JUMPDEST PUSH2 0x1A0 DUP2 PUSH2 0x25A JUMP JUMPDEST DUP3 MSTORE POP POP JUMP JUMPDEST PUSH1 0x0 PUSH1 0x20 DUP3 ADD SWAP1 POP PUSH2 0x1BB PUSH1 0x0 DUP4 ADD DUP5 PUSH2 0x16A JUMP JUMPDEST SWAP3 SWAP2 POP POP JUMP JUMPDEST PUSH1 0x0 PUSH1 0x20 DUP3 ADD SWAP1 POP PUSH2 0x1D6 PUSH1 0x0 DUP4 ADD DUP5 PUSH2 0x179 JUMP JUMPDEST SWAP3 SWAP2 POP POP JUMP JUMPDEST PUSH1 0x0 PUSH1 0x20 DUP3 ADD SWAP1 POP PUSH2 0x1F1 PUSH1 0x0 DUP4 ADD DUP5 PUSH2 0x188 JUMP JUMPDEST SWAP3 SWAP2 POP POP JUMP JUMPDEST PUSH1 0x0 PUSH1 0x20 DUP3 ADD SWAP1 POP PUSH2 0x20C PUSH1 0x0 DUP4 ADD DUP5 PUSH2 0x197 JUMP JUMPDEST SWAP3 SWAP2 POP POP JUMP JUMPDEST PUSH1 0x0 PUSH2 0x21D DUP3 PUSH2 0x23A JUMP JUMPDEST SWAP1 POP SWAP2 SWAP1 POP JUMP JUMPDEST PUSH1 0x0 DUP2 ISZERO ISZERO SWAP1 POP SWAP2 SWAP1 POP JUMP JUMPDEST PUSH1 0x0 DUP2 SWAP1 POP SWAP2 SWAP1 POP JUMP JUMPDEST PUSH1 0x0 PUSH20 0xFFFFFFFFFFFFFFFFFFFFFFFFFFFFFFFFFFFFFFFF DUP3 AND SWAP1 POP SWAP2 SWAP1 POP JUMP JUMPDEST PUSH1 0x0 DUP2 SWAP1 POP SWAP2 SWAP1 POP JUMP INVALID LOG2 PUSH5 0x6970667358 0x22 SLT KECCAK256 SMOD SHR CALL 0xB7 DUP15 CODESIZE 0xE9 0xCD 0xEA PUSH28 0xAC091539586D2CC01F4C8BFE00FC5D55F9A3B7ED632564736F6C6343 STOP ADDMOD SMOD STOP CALLER "
				},
				"gasEstimates": {
					"creation": {
						"codeDepositCost": "133200",
						"executionCost": "68656",
						"totalCost": "201856"
					},
					"external": {
						"a()": "2446",
						"addr()": "2536",
						"b()": "2429",
						"c()": "2517",
						"maxInt()": "2473",
						"minInt()": "2495"
					}
				},
				"methodIdentifiers": {
					"a()": "0dbe671f",
					"addr()": "767800de",
					"b()": "4df7e3d0",
					"c()": "c3da42b8",
					"maxInt()": "7a4c2571",
					"minInt()": "7e4e14cc"
				}
			},
			"storageLayout": {
				"storage": [
					{
						"astId": 3,
						"contract": "Day2_ValueTypes.sol:ValueTypes",
						"label": "a",
						"offset": 0,
						"slot": "0",
						"type": "t_bool"
					},
					{
						"astId": 5,
						"contract": "Day2_ValueTypes.sol:ValueTypes",
						"label": "b",
						"offset": 0,
						"slot": "1",
						"type": "t_uint256"
					},
					{
						"astId": 7,
						"contract": "Day2_ValueTypes.sol:ValueTypes",
						"label": "c",
						"offset": 0,
						"slot": "2",
						"type": "t_int256"
					},
					{
						"astId": 14,
						"contract": "Day2_ValueTypes.sol:ValueTypes",
						"label": "maxInt",
						"offset": 0,
						"slot": "3",
						"type": "t_int256"
					},
					{
						"astId": 21,
						"contract": "Day2_ValueTypes.sol:ValueTypes",
						"label": "minInt",
						"offset": 0,
						"slot": "4",
						"type": "t_int256"
					},
					{
						"astId": 24,
						"contract": "Day2_ValueTypes.sol:ValueTypes",
						"label": "addr",
						"offset": 0,
						"slot": "5",
						"type": "t_address"
					}
				],
				"types": {
					"t_address": {
						"encoding": "inplace",
						"label": "address",
						"numberOfBytes": "20"
					},
					"t_bool": {
						"encoding": "inplace",
						"label": "bool",
						"numberOfBytes": "1"
					},
					"t_int256": {
						"encoding": "inplace",
						"label": "int256",
						"numberOfBytes": "32"
					},
					"t_uint256": {
						"encoding": "inplace",
						"label": "uint256",
						"numberOfBytes": "32"
					}
				}
			},
			"userdoc": {
				"kind": "user",
				"methods": {},
				"version": 1
			}
		}
	}
}