{
	"Day25_Event.sol": {
		"Event": {
			"abi": [
				{
					"anonymous": false,
					"inputs": [
						{
							"indexed": false,
							"internalType": "string",
							"name": "message",
							"type": "string"
						},
						{
							"indexed": false,
							"internalType": "uint256",
							"name": "value",
							"type": "uint256"
						}
					],
					"name": "Log",
					"type": "event"
				},
				{
					"anonymous": false,
					"inputs": [
						{
							"indexed": true,
							"internalType": "address",
							"name": "sender",
							"type": "address"
						},
						{
							"indexed": false,
							"internalType": "uint256",
							"name": "val",
							"type": "uint256"
						}
					],
					"name": "Message",
					"type": "event"
				},
				{
					"inputs": [],
					"name": "example",
					"outputs": [],
					"stateMutability": "nonpayable",
					"type": "function"
				}
			],
			"devdoc": {
				"kind": "dev",
				"methods": {},
				"version": 1
			},
			"evm": {
				"assembly": "    /* \"Day25_Event.sol\":58:224  contract Event {... */\n  mstore(0x40, 0x80)\n  callvalue\n  dup1\n  iszero\n  tag_1\n  jumpi\n  0x00\n  dup1\n  revert\ntag_1:\n  pop\n  dataSize(sub_0)\n  dup1\n  dataOffset(sub_0)\n  0x00\n  codecopy\n  0x00\n  return\nstop\n\nsub_0: assembly {\n        /* \"Day25_Event.sol\":58:224  contract Event {... */\n      mstore(0x40, 0x80)\n      callvalue\n      dup1\n      iszero\n      tag_1\n      jumpi\n      0x00\n      dup1\n      revert\n    tag_1:\n      pop\n      jumpi(tag_2, lt(calldatasize, 0x04))\n      shr(0xe0, calldataload(0x00))\n      dup1\n      0x54353f2f\n      eq\n      tag_3\n      jumpi\n    tag_2:\n      0x00\n      dup1\n      revert\n        /* \"Day25_Event.sol\":178:222  function example() external {... */\n    tag_3:\n      tag_4\n      tag_5\n      jump\t// in\n    tag_4:\n      stop\n    tag_5:\n      jump\t// out\n\n    auxdata: 0xa2646970667358221220061036974bee982a70cca64076ddb7ca9d31064d386f95919d11d435b9a679cd64736f6c63430008070033\n}\n",
				"bytecode": {
					"linkReferences": {},
					"object": "6080604052348015600f57600080fd5b50606d80601d6000396000f3fe6080604052348015600f57600080fd5b506004361060285760003560e01c806354353f2f14602d575b600080fd5b60336035565b005b56fea2646970667358221220061036974bee982a70cca64076ddb7ca9d31064d386f95919d11d435b9a679cd64736f6c63430008070033",
					"opcodes": "PUSH1 0x80 PUSH1 0x40 MSTORE CALLVALUE DUP1 ISZERO PUSH1 0xF JUMPI PUSH1 0x0 DUP1 REVERT JUMPDEST POP PUSH1 0x6D DUP1 PUSH1 0x1D PUSH1 0x0 CODECOPY PUSH1 0x0 RETURN INVALID PUSH1 0x80 PUSH1 0x40 MSTORE CALLVALUE DUP1 ISZERO PUSH1 0xF JUMPI PUSH1 0x0 DUP1 REVERT JUMPDEST POP PUSH1 0x4 CALLDATASIZE LT PUSH1 0x28 JUMPI PUSH1 0x0 CALLDATALOAD PUSH1 0xE0 SHR DUP1 PUSH4 0x54353F2F EQ PUSH1 0x2D JUMPI JUMPDEST PUSH1 0x0 DUP1 REVERT JUMPDEST PUSH1 0x33 PUSH1 0x35 JUMP JUMPDEST STOP JUMPDEST JUMP INVALID LOG2 PUSH5 0x6970667358 0x22 SLT KECCAK256 MOD LT CALLDATASIZE SWAP8 0x4B 0xEE SWAP9 0x2A PUSH17 0xCCA64076DDB7CA9D31064D386F95919D11 0xD4 CALLDATALOAD 0xB9 0xA6 PUSH26 0xCD64736F6C634300080700330000000000000000000000000000 "
				},
				"gasEstimates": {
					"creation": {
						"codeDepositCost": "21800",
						"executionCost": "75",
						"totalCost": "21875"
					},
					"external": {
						"example()": "122"
					}
				},
				"methodIdentifiers": {
					"example()": "54353f2f"
				}
			},
			"storageLayout": {
				"storage": [],
				"types": null
			},
			"userdoc": {
				"kind": "user",
				"methods": {},
				"version": 1
			}
		}
	}
}