{
	"Day24_TodoList.sol": {
		"Todolist": {
			"abi": [
				{
					"inputs": [
						{
							"internalType": "string",
							"name": "_text",
							"type": "string"
						}
					],
					"name": "create",
					"outputs": [],
					"stateMutability": "nonpayable",
					"type": "function"
				},
				{
					"inputs": [
						{
							"internalType": "uint256",
							"name": "_index",
							"type": "uint256"
						}
					],
					"name": "get",
					"outputs": [
						{
							"internalType": "string",
							"name": "",
							"type": "string"
						},
						{
							"internalType": "bool",
							"name": "",
							"type": "bool"
						}
					],
					"stateMutability": "view",
					"type": "function"
				},
				{
					"inputs": [
						{
							"internalType": "uint256",
							"name": "",
							"type": "uint256"
						}
					],
					"name": "todos",
					"outputs": [
						{
							"internalType": "string",
							"name": "text",
							"type": "string"
						},
						{
							"internalType": "bool",
							"name": "completed",
							"type": "bool"
						}
					],
					"stateMutability": "view",
					"type": "function"
				},
				{
					"inputs": [
						{
							"internalType": "uint256",
							"name": "_index",
							"type": "uint256"
						}
					],
					"name": "toggleCompleted",
					"outputs": [],
					"stateMutability": "nonpayable",
					"type": "function"
				},
				{
					"inputs": [
						{
							"internalType": "uint256",
							"name": "_index",
							"type": "uint256"
						},
						{
							"internalType": "string",
							"name": "_text",
							"type": "string"
						},
						{
							"internalType": "bool",
							"name": "_status",
							"type": "bool"
						}
					],
					"name": "update",
					"outputs": [],
					"stateMutability": "nonpayable",
					"type": "function"
				}
			],
			"devdoc": {
				"kind": "dev",
				"methods": {},
				"version": 1
			},
			"evm": {
				"assembly": "    /* \"Day24_TodoList.sol\":58:1080  contract Todolist {... */\n  mstore(0x40, 0x80)\n  callvalue\n  dup1\n  iszero\n  tag_1\n  jumpi\n  0x00\n  dup1\n  revert\ntag_1:\n  pop\n  dataSize(sub_0)\n  dup1\n  dataOffset(sub_0)\n  0x00\n  codecopy\n  0x00\n  return\nstop\n\nsub_0: assembly {\n        /* \"Day24_TodoList.sol\":58:1080  contract Todolist {... */\n      mstore(0x40, 0x80)\n      callvalue\n      dup1\n      iszero\n      tag_1\n      jumpi\n      0x00\n      dup1\n      revert\n    tag_1:\n      pop\n      jumpi(tag_2, lt(calldatasize, 0x04))\n      shr(0xe0, calldataload(0x00))\n      dup1\n      0x455f5024\n      eq\n      tag_3\n      jumpi\n      dup1\n      0x4e324847\n      eq\n      tag_4\n      jumpi\n      dup1\n      0x9507d39a\n      eq\n      tag_5\n      jumpi\n      dup1\n      0xb6a46b3b\n      eq\n      tag_6\n      jumpi\n      dup1\n      0xbc8bc2b4\n      eq\n      tag_7\n      jumpi\n    tag_2:\n      0x00\n      dup1\n      revert\n        /* \"Day24_TodoList.sol\":964:1078  function toggleCompleted(uint _index) external {... */\n    tag_3:\n      tag_8\n      0x04\n      dup1\n      calldatasize\n      sub\n      dup2\n      add\n      swap1\n      tag_9\n      swap2\n      swap1\n      tag_10\n      jump\t// in\n    tag_9:\n      tag_11\n      jump\t// in\n    tag_8:\n      stop\n        /* \"Day24_TodoList.sol\":330:671  function update(uint _index, string calldata _text, bool _status) external {... */\n    tag_4:\n      tag_12\n      0x04\n      dup1\n      calldatasize\n      sub\n      dup2\n      add\n      swap1\n      tag_13\n      swap2\n      swap1\n      tag_14\n      jump\t// in\n    tag_13:\n      tag_15\n      jump\t// in\n    tag_12:\n      stop\n        /* \"Day24_TodoList.sol\":677:958  function get(uint _index) external view returns (string memory , bool){... */\n    tag_5:\n      tag_16\n      0x04\n      dup1\n      calldatasize\n      sub\n      dup2\n      add\n      swap1\n      tag_17\n      swap2\n      swap1\n      tag_10\n      jump\t// in\n    tag_17:\n      tag_18\n      jump\t// in\n    tag_16:\n      mload(0x40)\n      tag_19\n      swap3\n      swap2\n      swap1\n      tag_20\n      jump\t// in\n    tag_19:\n      mload(0x40)\n      dup1\n      swap2\n      sub\n      swap1\n      return\n        /* \"Day24_TodoList.sol\":178:324  function create(string calldata _text) external {... */\n    tag_6:\n      tag_21\n      0x04\n      dup1\n      calldatasize\n      sub\n      dup2\n      add\n      swap1\n      tag_22\n      swap2\n      swap1\n      tag_23\n      jump\t// in\n    tag_22:\n      tag_24\n      jump\t// in\n    tag_21:\n      stop\n        /* \"Day24_TodoList.sol\":152:171  Todo[] public todos */\n    tag_7:\n      tag_25\n      0x04\n      dup1\n      calldatasize\n      sub\n      dup2\n      add\n      swap1\n      tag_26\n      swap2\n      swap1\n      tag_10\n      jump\t// in\n    tag_26:\n      tag_27\n      jump\t// in\n    tag_25:\n      mload(0x40)\n      tag_28\n      swap3\n      swap2\n      swap1\n      tag_20\n      jump\t// in\n    tag_28:\n      mload(0x40)\n      dup1\n      swap2\n      sub\n      swap1\n      return\n        /* \"Day24_TodoList.sol\":964:1078  function toggleCompleted(uint _index) external {... */\n    tag_11:\n        /* \"Day24_TodoList.sol\":1048:1053  todos */\n      0x00\n        /* \"Day24_TodoList.sol\":1054:1060  _index */\n      dup2\n        /* \"Day24_TodoList.sol\":1048:1061  todos[_index] */\n      dup2\n      sload\n      dup2\n      lt\n      tag_30\n      jumpi\n      tag_31\n      tag_32\n      jump\t// in\n    tag_31:\n    tag_30:\n      swap1\n      0x00\n      mstore\n      keccak256(0x00, 0x20)\n      swap1\n      0x02\n      mul\n      add\n        /* \"Day24_TodoList.sol\":1048:1071  todos[_index].completed */\n      0x01\n      add\n      0x00\n      swap1\n      sload\n      swap1\n      0x0100\n      exp\n      swap1\n      div\n      0xff\n      and\n        /* \"Day24_TodoList.sol\":1047:1071  !todos[_index].completed */\n      iszero\n        /* \"Day24_TodoList.sol\":1021:1026  todos */\n      0x00\n        /* \"Day24_TodoList.sol\":1027:1033  _index */\n      dup3\n        /* \"Day24_TodoList.sol\":1021:1034  todos[_index] */\n      dup2\n      sload\n      dup2\n      lt\n      tag_34\n      jumpi\n      tag_35\n      tag_32\n      jump\t// in\n    tag_35:\n    tag_34:\n      swap1\n      0x00\n      mstore\n      keccak256(0x00, 0x20)\n      swap1\n      0x02\n      mul\n      add\n        /* \"Day24_TodoList.sol\":1021:1044  todos[_index].completed */\n      0x01\n      add\n      0x00\n        /* \"Day24_TodoList.sol\":1021:1071  todos[_index].completed = !todos[_index].completed */\n      0x0100\n      exp\n      dup2\n      sload\n      dup2\n      0xff\n      mul\n      not\n      and\n      swap1\n      dup4\n      iszero\n      iszero\n      mul\n      or\n      swap1\n      sstore\n      pop\n        /* \"Day24_TodoList.sol\":964:1078  function toggleCompleted(uint _index) external {... */\n      pop\n      jump\t// out\n        /* \"Day24_TodoList.sol\":330:671  function update(uint _index, string calldata _text, bool _status) external {... */\n    tag_15:\n        /* \"Day24_TodoList.sol\":616:621  _text */\n      dup3\n      dup3\n        /* \"Day24_TodoList.sol\":595:600  todos */\n      0x00\n        /* \"Day24_TodoList.sol\":601:607  _index */\n      dup7\n        /* \"Day24_TodoList.sol\":595:608  todos[_index] */\n      dup2\n      sload\n      dup2\n      lt\n      tag_38\n      jumpi\n      tag_39\n      tag_32\n      jump\t// in\n    tag_39:\n    tag_38:\n      swap1\n      0x00\n      mstore\n      keccak256(0x00, 0x20)\n      swap1\n      0x02\n      mul\n      add\n        /* \"Day24_TodoList.sol\":595:613  todos[_index].text */\n      0x00\n      add\n        /* \"Day24_TodoList.sol\":595:621  todos[_index].text = _text */\n      swap2\n      swap1\n      tag_41\n      swap3\n      swap2\n      swap1\n      tag_42\n      jump\t// in\n    tag_41:\n      pop\n        /* \"Day24_TodoList.sol\":657:664  _status */\n      dup1\n        /* \"Day24_TodoList.sol\":631:636  todos */\n      0x00\n        /* \"Day24_TodoList.sol\":637:643  _index */\n      dup6\n        /* \"Day24_TodoList.sol\":631:644  todos[_index] */\n      dup2\n      sload\n      dup2\n      lt\n      tag_43\n      jumpi\n      tag_44\n      tag_32\n      jump\t// in\n    tag_44:\n    tag_43:\n      swap1\n      0x00\n      mstore\n      keccak256(0x00, 0x20)\n      swap1\n      0x02\n      mul\n      add\n        /* \"Day24_TodoList.sol\":631:654  todos[_index].completed */\n      0x01\n      add\n      0x00\n        /* \"Day24_TodoList.sol\":631:664  todos[_index].completed = _status */\n      0x0100\n      exp\n      dup2\n      sload\n      dup2\n      0xff\n      mul\n      not\n      and\n      swap1\n      dup4\n      iszero\n      iszero\n      mul\n      or\n      swap1\n      sstore\n      pop\n        /* \"Day24_TodoList.sol\":330:671  function update(uint _index, string calldata _text, bool _status) external {... */\n      pop\n      pop\n      pop\n      pop\n      jump\t// out\n        /* \"Day24_TodoList.sol\":677:958  function get(uint _index) external view returns (string memory , bool){... */\n    tag_18:\n        /* \"Day24_TodoList.sol\":726:739  string memory */\n      0x60\n        /* \"Day24_TodoList.sol\":742:746  bool */\n      0x00\n        /* \"Day24_TodoList.sol\":876:892  Todo memory todo */\n      dup1\n        /* \"Day24_TodoList.sol\":895:900  todos */\n      0x00\n        /* \"Day24_TodoList.sol\":901:907  _index */\n      dup5\n        /* \"Day24_TodoList.sol\":895:908  todos[_index] */\n      dup2\n      sload\n      dup2\n      lt\n      tag_47\n      jumpi\n      tag_48\n      tag_32\n      jump\t// in\n    tag_48:\n    tag_47:\n      swap1\n      0x00\n      mstore\n      keccak256(0x00, 0x20)\n      swap1\n      0x02\n      mul\n      add\n        /* \"Day24_TodoList.sol\":876:908  Todo memory todo = todos[_index] */\n      mload(0x40)\n      dup1\n      0x40\n      add\n      0x40\n      mstore\n      swap1\n      dup2\n      0x00\n      dup3\n      add\n      dup1\n      sload\n      tag_50\n      swap1\n      tag_51\n      jump\t// in\n    tag_50:\n      dup1\n      0x1f\n      add\n      0x20\n      dup1\n      swap2\n      div\n      mul\n      0x20\n      add\n      mload(0x40)\n      swap1\n      dup2\n      add\n      0x40\n      mstore\n      dup1\n      swap3\n      swap2\n      swap1\n      dup2\n      dup2\n      mstore\n      0x20\n      add\n      dup3\n      dup1\n      sload\n      tag_52\n      swap1\n      tag_51\n      jump\t// in\n    tag_52:\n      dup1\n      iszero\n      tag_53\n      jumpi\n      dup1\n      0x1f\n      lt\n      tag_54\n      jumpi\n      0x0100\n      dup1\n      dup4\n      sload\n      div\n      mul\n      dup4\n      mstore\n      swap2\n      0x20\n      add\n      swap2\n      jump(tag_53)\n    tag_54:\n      dup3\n      add\n      swap2\n      swap1\n      0x00\n      mstore\n      keccak256(0x00, 0x20)\n      swap1\n    tag_55:\n      dup2\n      sload\n      dup2\n      mstore\n      swap1\n      0x01\n      add\n      swap1\n      0x20\n      add\n      dup1\n      dup4\n      gt\n      tag_55\n      jumpi\n      dup3\n      swap1\n      sub\n      0x1f\n      and\n      dup3\n      add\n      swap2\n    tag_53:\n      pop\n      pop\n      pop\n      pop\n      pop\n      dup2\n      mstore\n      0x20\n      add\n      0x01\n      dup3\n      add\n      0x00\n      swap1\n      sload\n      swap1\n      0x0100\n      exp\n      swap1\n      div\n      0xff\n      and\n      iszero\n      iszero\n      iszero\n      iszero\n      dup2\n      mstore\n      pop\n      pop\n      swap1\n      pop\n        /* \"Day24_TodoList.sol\":926:930  todo */\n      dup1\n        /* \"Day24_TodoList.sol\":926:935  todo.text */\n      0x00\n      add\n      mload\n        /* \"Day24_TodoList.sol\":936:940  todo */\n      dup2\n        /* \"Day24_TodoList.sol\":936:950  todo.completed */\n      0x20\n      add\n      mload\n        /* \"Day24_TodoList.sol\":918:951  return (todo.text,todo.completed) */\n      swap3\n      pop\n      swap3\n      pop\n      pop\n        /* \"Day24_TodoList.sol\":677:958  function get(uint _index) external view returns (string memory , bool){... */\n      swap2\n      pop\n      swap2\n      jump\t// out\n        /* \"Day24_TodoList.sol\":178:324  function create(string calldata _text) external {... */\n    tag_24:\n        /* \"Day24_TodoList.sol\":236:241  todos */\n      0x00\n        /* \"Day24_TodoList.sol\":247:316  Todo({... */\n      mload(0x40)\n      dup1\n      0x40\n      add\n      0x40\n      mstore\n      dup1\n        /* \"Day24_TodoList.sol\":271:276  _text */\n      dup5\n      dup5\n        /* \"Day24_TodoList.sol\":247:316  Todo({... */\n      dup1\n      dup1\n      0x1f\n      add\n      0x20\n      dup1\n      swap2\n      div\n      mul\n      0x20\n      add\n      mload(0x40)\n      swap1\n      dup2\n      add\n      0x40\n      mstore\n      dup1\n      swap4\n      swap3\n      swap2\n      swap1\n      dup2\n      dup2\n      mstore\n      0x20\n      add\n      dup4\n      dup4\n      dup1\n      dup3\n      dup5\n      calldatacopy\n      0x00\n      dup2\n      dup5\n      add\n      mstore\n      not(0x1f)\n      0x1f\n      dup3\n      add\n      and\n      swap1\n      pop\n      dup1\n      dup4\n      add\n      swap3\n      pop\n      pop\n      pop\n      pop\n      pop\n      pop\n      pop\n      dup2\n      mstore\n      0x20\n      add\n        /* \"Day24_TodoList.sol\":300:305  false */\n      0x00\n        /* \"Day24_TodoList.sol\":247:316  Todo({... */\n      iszero\n      iszero\n      dup2\n      mstore\n      pop\n        /* \"Day24_TodoList.sol\":236:317  todos.push(Todo({... */\n      swap1\n      dup1\n      0x01\n      dup2\n      sload\n      add\n      dup1\n      dup3\n      sstore\n      dup1\n      swap2\n      pop\n      pop\n      0x01\n      swap1\n      sub\n      swap1\n      0x00\n      mstore\n      keccak256(0x00, 0x20)\n      swap1\n      0x02\n      mul\n      add\n      0x00\n      swap1\n      swap2\n      swap1\n      swap2\n      swap1\n      swap2\n      pop\n      0x00\n      dup3\n      add\n      mload\n      dup2\n      0x00\n      add\n      swap1\n      dup1\n      mload\n      swap1\n      0x20\n      add\n      swap1\n      tag_58\n      swap3\n      swap2\n      swap1\n      tag_59\n      jump\t// in\n    tag_58:\n      pop\n      0x20\n      dup3\n      add\n      mload\n      dup2\n      0x01\n      add\n      exp(0x0100, 0x00)\n      dup2\n      sload\n      dup2\n      0xff\n      mul\n      not\n      and\n      swap1\n      dup4\n      iszero\n      iszero\n      mul\n      or\n      swap1\n      sstore\n      pop\n      pop\n      pop\n        /* \"Day24_TodoList.sol\":178:324  function create(string calldata _text) external {... */\n      pop\n      pop\n      jump\t// out\n        /* \"Day24_TodoList.sol\":152:171  Todo[] public todos */\n    tag_27:\n      0x00\n      dup2\n      dup2\n      sload\n      dup2\n      lt\n      tag_60\n      jumpi\n      0x00\n      dup1\n      revert\n    tag_60:\n      swap1\n      0x00\n      mstore\n      keccak256(0x00, 0x20)\n      swap1\n      0x02\n      mul\n      add\n      0x00\n      swap2\n      pop\n      swap1\n      pop\n      dup1\n      0x00\n      add\n      dup1\n      sload\n      tag_62\n      swap1\n      tag_51\n      jump\t// in\n    tag_62:\n      dup1\n      0x1f\n      add\n      0x20\n      dup1\n      swap2\n      div\n      mul\n      0x20\n      add\n      mload(0x40)\n      swap1\n      dup2\n      add\n      0x40\n      mstore\n      dup1\n      swap3\n      swap2\n      swap1\n      dup2\n      dup2\n      mstore\n      0x20\n      add\n      dup3\n      dup1\n      sload\n      tag_63\n      swap1\n      tag_51\n      jump\t// in\n    tag_63:\n      dup1\n      iszero\n      tag_64\n      jumpi\n      dup1\n      0x1f\n      lt\n      tag_65\n      jumpi\n      0x0100\n      dup1\n      dup4\n      sload\n      div\n      mul\n      dup4\n      mstore\n      swap2\n      0x20\n      add\n      swap2\n      jump(tag_64)\n    tag_65:\n      dup3\n      add\n      swap2\n      swap1\n      0x00\n      mstore\n      keccak256(0x00, 0x20)\n      swap1\n    tag_66:\n      dup2\n      sload\n      dup2\n      mstore\n      swap1\n      0x01\n      add\n      swap1\n      0x20\n      add\n      dup1\n      dup4\n      gt\n      tag_66\n      jumpi\n      dup3\n      swap1\n      sub\n      0x1f\n      and\n      dup3\n      add\n      swap2\n    tag_64:\n      pop\n      pop\n      pop\n      pop\n      pop\n      swap1\n      dup1\n      0x01\n      add\n      0x00\n      swap1\n      sload\n      swap1\n      0x0100\n      exp\n      swap1\n      div\n      0xff\n      and\n      swap1\n      pop\n      dup3\n      jump\t// out\n    tag_42:\n      dup3\n      dup1\n      sload\n      tag_67\n      swap1\n      tag_51\n      jump\t// in\n    tag_67:\n      swap1\n      0x00\n      mstore\n      keccak256(0x00, 0x20)\n      swap1\n      0x1f\n      add\n      0x20\n      swap1\n      div\n      dup2\n      add\n      swap3\n      dup3\n      tag_69\n      jumpi\n      0x00\n      dup6\n      sstore\n      jump(tag_68)\n    tag_69:\n      dup3\n      0x1f\n      lt\n      tag_70\n      jumpi\n      dup1\n      calldataload\n      not(0xff)\n      and\n      dup4\n      dup1\n      add\n      or\n      dup6\n      sstore\n      jump(tag_68)\n    tag_70:\n      dup3\n      dup1\n      add\n      0x01\n      add\n      dup6\n      sstore\n      dup3\n      iszero\n      tag_68\n      jumpi\n      swap2\n      dup3\n      add\n    tag_71:\n      dup3\n      dup2\n      gt\n      iszero\n      tag_72\n      jumpi\n      dup3\n      calldataload\n      dup3\n      sstore\n      swap2\n      0x20\n      add\n      swap2\n      swap1\n      0x01\n      add\n      swap1\n      jump(tag_71)\n    tag_72:\n    tag_68:\n      pop\n      swap1\n      pop\n      tag_73\n      swap2\n      swap1\n      tag_74\n      jump\t// in\n    tag_73:\n      pop\n      swap1\n      jump\t// out\n    tag_59:\n      dup3\n      dup1\n      sload\n      tag_75\n      swap1\n      tag_51\n      jump\t// in\n    tag_75:\n      swap1\n      0x00\n      mstore\n      keccak256(0x00, 0x20)\n      swap1\n      0x1f\n      add\n      0x20\n      swap1\n      div\n      dup2\n      add\n      swap3\n      dup3\n      tag_77\n      jumpi\n      0x00\n      dup6\n      sstore\n      jump(tag_76)\n    tag_77:\n      dup3\n      0x1f\n      lt\n      tag_78\n      jumpi\n      dup1\n      mload\n      not(0xff)\n      and\n      dup4\n      dup1\n      add\n      or\n      dup6\n      sstore\n      jump(tag_76)\n    tag_78:\n      dup3\n      dup1\n      add\n      0x01\n      add\n      dup6\n      sstore\n      dup3\n      iszero\n      tag_76\n      jumpi\n      swap2\n      dup3\n      add\n    tag_79:\n      dup3\n      dup2\n      gt\n      iszero\n      tag_80\n      jumpi\n      dup3\n      mload\n      dup3\n      sstore\n      swap2\n      0x20\n      add\n      swap2\n      swap1\n      0x01\n      add\n      swap1\n      jump(tag_79)\n    tag_80:\n    tag_76:\n      pop\n      swap1\n      pop\n      tag_81\n      swap2\n      swap1\n      tag_74\n      jump\t// in\n    tag_81:\n      pop\n      swap1\n      jump\t// out\n    tag_74:\n    tag_82:\n      dup1\n      dup3\n      gt\n      iszero\n      tag_83\n      jumpi\n      0x00\n      dup2\n      0x00\n      swap1\n      sstore\n      pop\n      0x01\n      add\n      jump(tag_82)\n    tag_83:\n      pop\n      swap1\n      jump\t// out\n        /* \"#utility.yul\":7:140   */\n    tag_85:\n        /* \"#utility.yul\":50:55   */\n      0x00\n        /* \"#utility.yul\":88:94   */\n      dup2\n        /* \"#utility.yul\":75:95   */\n      calldataload\n        /* \"#utility.yul\":66:95   */\n      swap1\n      pop\n        /* \"#utility.yul\":104:134   */\n      tag_87\n        /* \"#utility.yul\":128:133   */\n      dup2\n        /* \"#utility.yul\":104:134   */\n      tag_88\n      jump\t// in\n    tag_87:\n        /* \"#utility.yul\":7:140   */\n      swap3\n      swap2\n      pop\n      pop\n      jump\t// out\n        /* \"#utility.yul\":160:713   */\n    tag_89:\n        /* \"#utility.yul\":218:226   */\n      0x00\n        /* \"#utility.yul\":228:234   */\n      dup1\n        /* \"#utility.yul\":278:281   */\n      dup4\n        /* \"#utility.yul\":271:275   */\n      0x1f\n        /* \"#utility.yul\":263:269   */\n      dup5\n        /* \"#utility.yul\":259:276   */\n      add\n        /* \"#utility.yul\":255:282   */\n      slt\n        /* \"#utility.yul\":245:367   */\n      tag_91\n      jumpi\n        /* \"#utility.yul\":286:365   */\n      tag_92\n      tag_93\n      jump\t// in\n    tag_92:\n        /* \"#utility.yul\":245:367   */\n    tag_91:\n        /* \"#utility.yul\":399:405   */\n      dup3\n        /* \"#utility.yul\":386:406   */\n      calldataload\n        /* \"#utility.yul\":376:406   */\n      swap1\n      pop\n        /* \"#utility.yul\":429:447   */\n      0xffffffffffffffff\n        /* \"#utility.yul\":421:427   */\n      dup2\n        /* \"#utility.yul\":418:448   */\n      gt\n        /* \"#utility.yul\":415:532   */\n      iszero\n      tag_94\n      jumpi\n        /* \"#utility.yul\":451:530   */\n      tag_95\n      tag_96\n      jump\t// in\n    tag_95:\n        /* \"#utility.yul\":415:532   */\n    tag_94:\n        /* \"#utility.yul\":565:569   */\n      0x20\n        /* \"#utility.yul\":557:563   */\n      dup4\n        /* \"#utility.yul\":553:570   */\n      add\n        /* \"#utility.yul\":541:570   */\n      swap2\n      pop\n        /* \"#utility.yul\":619:622   */\n      dup4\n        /* \"#utility.yul\":611:615   */\n      0x01\n        /* \"#utility.yul\":603:609   */\n      dup3\n        /* \"#utility.yul\":599:616   */\n      mul\n        /* \"#utility.yul\":589:597   */\n      dup4\n        /* \"#utility.yul\":585:617   */\n      add\n        /* \"#utility.yul\":582:623   */\n      gt\n        /* \"#utility.yul\":579:707   */\n      iszero\n      tag_97\n      jumpi\n        /* \"#utility.yul\":626:705   */\n      tag_98\n      tag_99\n      jump\t// in\n    tag_98:\n        /* \"#utility.yul\":579:707   */\n    tag_97:\n        /* \"#utility.yul\":160:713   */\n      swap3\n      pop\n      swap3\n      swap1\n      pop\n      jump\t// out\n        /* \"#utility.yul\":719:858   */\n    tag_100:\n        /* \"#utility.yul\":765:770   */\n      0x00\n        /* \"#utility.yul\":803:809   */\n      dup2\n        /* \"#utility.yul\":790:810   */\n      calldataload\n        /* \"#utility.yul\":781:810   */\n      swap1\n      pop\n        /* \"#utility.yul\":819:852   */\n      tag_102\n        /* \"#utility.yul\":846:851   */\n      dup2\n        /* \"#utility.yul\":819:852   */\n      tag_103\n      jump\t// in\n    tag_102:\n        /* \"#utility.yul\":719:858   */\n      swap3\n      swap2\n      pop\n      pop\n      jump\t// out\n        /* \"#utility.yul\":864:1393   */\n    tag_23:\n        /* \"#utility.yul\":935:941   */\n      0x00\n        /* \"#utility.yul\":943:949   */\n      dup1\n        /* \"#utility.yul\":992:994   */\n      0x20\n        /* \"#utility.yul\":980:989   */\n      dup4\n        /* \"#utility.yul\":971:978   */\n      dup6\n        /* \"#utility.yul\":967:990   */\n      sub\n        /* \"#utility.yul\":963:995   */\n      slt\n        /* \"#utility.yul\":960:1079   */\n      iszero\n      tag_105\n      jumpi\n        /* \"#utility.yul\":998:1077   */\n      tag_106\n      tag_107\n      jump\t// in\n    tag_106:\n        /* \"#utility.yul\":960:1079   */\n    tag_105:\n        /* \"#utility.yul\":1146:1147   */\n      0x00\n        /* \"#utility.yul\":1135:1144   */\n      dup4\n        /* \"#utility.yul\":1131:1148   */\n      add\n        /* \"#utility.yul\":1118:1149   */\n      calldataload\n        /* \"#utility.yul\":1176:1194   */\n      0xffffffffffffffff\n        /* \"#utility.yul\":1168:1174   */\n      dup2\n        /* \"#utility.yul\":1165:1195   */\n      gt\n        /* \"#utility.yul\":1162:1279   */\n      iszero\n      tag_108\n      jumpi\n        /* \"#utility.yul\":1198:1277   */\n      tag_109\n      tag_110\n      jump\t// in\n    tag_109:\n        /* \"#utility.yul\":1162:1279   */\n    tag_108:\n        /* \"#utility.yul\":1311:1376   */\n      tag_111\n        /* \"#utility.yul\":1368:1375   */\n      dup6\n        /* \"#utility.yul\":1359:1365   */\n      dup3\n        /* \"#utility.yul\":1348:1357   */\n      dup7\n        /* \"#utility.yul\":1344:1366   */\n      add\n        /* \"#utility.yul\":1311:1376   */\n      tag_89\n      jump\t// in\n    tag_111:\n        /* \"#utility.yul\":1293:1376   */\n      swap3\n      pop\n      swap3\n      pop\n        /* \"#utility.yul\":1089:1386   */\n      pop\n        /* \"#utility.yul\":864:1393   */\n      swap3\n      pop\n      swap3\n      swap1\n      pop\n      jump\t// out\n        /* \"#utility.yul\":1399:1728   */\n    tag_10:\n        /* \"#utility.yul\":1458:1464   */\n      0x00\n        /* \"#utility.yul\":1507:1509   */\n      0x20\n        /* \"#utility.yul\":1495:1504   */\n      dup3\n        /* \"#utility.yul\":1486:1493   */\n      dup5\n        /* \"#utility.yul\":1482:1505   */\n      sub\n        /* \"#utility.yul\":1478:1510   */\n      slt\n        /* \"#utility.yul\":1475:1594   */\n      iszero\n      tag_113\n      jumpi\n        /* \"#utility.yul\":1513:1592   */\n      tag_114\n      tag_107\n      jump\t// in\n    tag_114:\n        /* \"#utility.yul\":1475:1594   */\n    tag_113:\n        /* \"#utility.yul\":1633:1634   */\n      0x00\n        /* \"#utility.yul\":1658:1711   */\n      tag_115\n        /* \"#utility.yul\":1703:1710   */\n      dup5\n        /* \"#utility.yul\":1694:1700   */\n      dup3\n        /* \"#utility.yul\":1683:1692   */\n      dup6\n        /* \"#utility.yul\":1679:1701   */\n      add\n        /* \"#utility.yul\":1658:1711   */\n      tag_100\n      jump\t// in\n    tag_115:\n        /* \"#utility.yul\":1648:1711   */\n      swap2\n      pop\n        /* \"#utility.yul\":1604:1721   */\n      pop\n        /* \"#utility.yul\":1399:1728   */\n      swap3\n      swap2\n      pop\n      pop\n      jump\t// out\n        /* \"#utility.yul\":1734:2547   */\n    tag_14:\n        /* \"#utility.yul\":1820:1826   */\n      0x00\n        /* \"#utility.yul\":1828:1834   */\n      dup1\n        /* \"#utility.yul\":1836:1842   */\n      0x00\n        /* \"#utility.yul\":1844:1850   */\n      dup1\n        /* \"#utility.yul\":1893:1895   */\n      0x60\n        /* \"#utility.yul\":1881:1890   */\n      dup6\n        /* \"#utility.yul\":1872:1879   */\n      dup8\n        /* \"#utility.yul\":1868:1891   */\n      sub\n        /* \"#utility.yul\":1864:1896   */\n      slt\n        /* \"#utility.yul\":1861:1980   */\n      iszero\n      tag_117\n      jumpi\n        /* \"#utility.yul\":1899:1978   */\n      tag_118\n      tag_107\n      jump\t// in\n    tag_118:\n        /* \"#utility.yul\":1861:1980   */\n    tag_117:\n        /* \"#utility.yul\":2019:2020   */\n      0x00\n        /* \"#utility.yul\":2044:2097   */\n      tag_119\n        /* \"#utility.yul\":2089:2096   */\n      dup8\n        /* \"#utility.yul\":2080:2086   */\n      dup3\n        /* \"#utility.yul\":2069:2078   */\n      dup9\n        /* \"#utility.yul\":2065:2087   */\n      add\n        /* \"#utility.yul\":2044:2097   */\n      tag_100\n      jump\t// in\n    tag_119:\n        /* \"#utility.yul\":2034:2097   */\n      swap5\n      pop\n        /* \"#utility.yul\":1990:2107   */\n      pop\n        /* \"#utility.yul\":2174:2176   */\n      0x20\n        /* \"#utility.yul\":2163:2172   */\n      dup6\n        /* \"#utility.yul\":2159:2177   */\n      add\n        /* \"#utility.yul\":2146:2178   */\n      calldataload\n        /* \"#utility.yul\":2205:2223   */\n      0xffffffffffffffff\n        /* \"#utility.yul\":2197:2203   */\n      dup2\n        /* \"#utility.yul\":2194:2224   */\n      gt\n        /* \"#utility.yul\":2191:2308   */\n      iszero\n      tag_120\n      jumpi\n        /* \"#utility.yul\":2227:2306   */\n      tag_121\n      tag_110\n      jump\t// in\n    tag_121:\n        /* \"#utility.yul\":2191:2308   */\n    tag_120:\n        /* \"#utility.yul\":2340:2405   */\n      tag_122\n        /* \"#utility.yul\":2397:2404   */\n      dup8\n        /* \"#utility.yul\":2388:2394   */\n      dup3\n        /* \"#utility.yul\":2377:2386   */\n      dup9\n        /* \"#utility.yul\":2373:2395   */\n      add\n        /* \"#utility.yul\":2340:2405   */\n      tag_89\n      jump\t// in\n    tag_122:\n        /* \"#utility.yul\":2322:2405   */\n      swap4\n      pop\n      swap4\n      pop\n        /* \"#utility.yul\":2117:2415   */\n      pop\n        /* \"#utility.yul\":2454:2456   */\n      0x40\n        /* \"#utility.yul\":2480:2530   */\n      tag_123\n        /* \"#utility.yul\":2522:2529   */\n      dup8\n        /* \"#utility.yul\":2513:2519   */\n      dup3\n        /* \"#utility.yul\":2502:2511   */\n      dup9\n        /* \"#utility.yul\":2498:2520   */\n      add\n        /* \"#utility.yul\":2480:2530   */\n      tag_85\n      jump\t// in\n    tag_123:\n        /* \"#utility.yul\":2470:2530   */\n      swap2\n      pop\n        /* \"#utility.yul\":2425:2540   */\n      pop\n        /* \"#utility.yul\":1734:2547   */\n      swap3\n      swap6\n      swap2\n      swap5\n      pop\n      swap3\n      pop\n      jump\t// out\n        /* \"#utility.yul\":2553:2662   */\n    tag_124:\n        /* \"#utility.yul\":2634:2655   */\n      tag_126\n        /* \"#utility.yul\":2649:2654   */\n      dup2\n        /* \"#utility.yul\":2634:2655   */\n      tag_127\n      jump\t// in\n    tag_126:\n        /* \"#utility.yul\":2629:2632   */\n      dup3\n        /* \"#utility.yul\":2622:2656   */\n      mstore\n        /* \"#utility.yul\":2553:2662   */\n      pop\n      pop\n      jump\t// out\n        /* \"#utility.yul\":2668:3032   */\n    tag_128:\n        /* \"#utility.yul\":2756:2759   */\n      0x00\n        /* \"#utility.yul\":2784:2823   */\n      tag_130\n        /* \"#utility.yul\":2817:2822   */\n      dup3\n        /* \"#utility.yul\":2784:2823   */\n      tag_131\n      jump\t// in\n    tag_130:\n        /* \"#utility.yul\":2839:2910   */\n      tag_132\n        /* \"#utility.yul\":2903:2909   */\n      dup2\n        /* \"#utility.yul\":2898:2901   */\n      dup6\n        /* \"#utility.yul\":2839:2910   */\n      tag_133\n      jump\t// in\n    tag_132:\n        /* \"#utility.yul\":2832:2910   */\n      swap4\n      pop\n        /* \"#utility.yul\":2919:2971   */\n      tag_134\n        /* \"#utility.yul\":2964:2970   */\n      dup2\n        /* \"#utility.yul\":2959:2962   */\n      dup6\n        /* \"#utility.yul\":2952:2956   */\n      0x20\n        /* \"#utility.yul\":2945:2950   */\n      dup7\n        /* \"#utility.yul\":2941:2957   */\n      add\n        /* \"#utility.yul\":2919:2971   */\n      tag_135\n      jump\t// in\n    tag_134:\n        /* \"#utility.yul\":2996:3025   */\n      tag_136\n        /* \"#utility.yul\":3018:3024   */\n      dup2\n        /* \"#utility.yul\":2996:3025   */\n      tag_137\n      jump\t// in\n    tag_136:\n        /* \"#utility.yul\":2991:2994   */\n      dup5\n        /* \"#utility.yul\":2987:3026   */\n      add\n        /* \"#utility.yul\":2980:3026   */\n      swap2\n      pop\n        /* \"#utility.yul\":2760:3032   */\n      pop\n        /* \"#utility.yul\":2668:3032   */\n      swap3\n      swap2\n      pop\n      pop\n      jump\t// out\n        /* \"#utility.yul\":3038:3449   */\n    tag_20:\n        /* \"#utility.yul\":3173:3177   */\n      0x00\n        /* \"#utility.yul\":3211:3213   */\n      0x40\n        /* \"#utility.yul\":3200:3209   */\n      dup3\n        /* \"#utility.yul\":3196:3214   */\n      add\n        /* \"#utility.yul\":3188:3214   */\n      swap1\n      pop\n        /* \"#utility.yul\":3260:3269   */\n      dup2\n        /* \"#utility.yul\":3254:3258   */\n      dup2\n        /* \"#utility.yul\":3250:3270   */\n      sub\n        /* \"#utility.yul\":3246:3247   */\n      0x00\n        /* \"#utility.yul\":3235:3244   */\n      dup4\n        /* \"#utility.yul\":3231:3248   */\n      add\n        /* \"#utility.yul\":3224:3271   */\n      mstore\n        /* \"#utility.yul\":3288:3366   */\n      tag_139\n        /* \"#utility.yul\":3361:3365   */\n      dup2\n        /* \"#utility.yul\":3352:3358   */\n      dup6\n        /* \"#utility.yul\":3288:3366   */\n      tag_128\n      jump\t// in\n    tag_139:\n        /* \"#utility.yul\":3280:3366   */\n      swap1\n      pop\n        /* \"#utility.yul\":3376:3442   */\n      tag_140\n        /* \"#utility.yul\":3438:3440   */\n      0x20\n        /* \"#utility.yul\":3427:3436   */\n      dup4\n        /* \"#utility.yul\":3423:3441   */\n      add\n        /* \"#utility.yul\":3414:3420   */\n      dup5\n        /* \"#utility.yul\":3376:3442   */\n      tag_124\n      jump\t// in\n    tag_140:\n        /* \"#utility.yul\":3038:3449   */\n      swap4\n      swap3\n      pop\n      pop\n      pop\n      jump\t// out\n        /* \"#utility.yul\":3536:3635   */\n    tag_131:\n        /* \"#utility.yul\":3588:3594   */\n      0x00\n        /* \"#utility.yul\":3622:3627   */\n      dup2\n        /* \"#utility.yul\":3616:3628   */\n      mload\n        /* \"#utility.yul\":3606:3628   */\n      swap1\n      pop\n        /* \"#utility.yul\":3536:3635   */\n      swap2\n      swap1\n      pop\n      jump\t// out\n        /* \"#utility.yul\":3641:3810   */\n    tag_133:\n        /* \"#utility.yul\":3725:3736   */\n      0x00\n        /* \"#utility.yul\":3759:3765   */\n      dup3\n        /* \"#utility.yul\":3754:3757   */\n      dup3\n        /* \"#utility.yul\":3747:3766   */\n      mstore\n        /* \"#utility.yul\":3799:3803   */\n      0x20\n        /* \"#utility.yul\":3794:3797   */\n      dup3\n        /* \"#utility.yul\":3790:3804   */\n      add\n        /* \"#utility.yul\":3775:3804   */\n      swap1\n      pop\n        /* \"#utility.yul\":3641:3810   */\n      swap3\n      swap2\n      pop\n      pop\n      jump\t// out\n        /* \"#utility.yul\":3816:3906   */\n    tag_127:\n        /* \"#utility.yul\":3850:3857   */\n      0x00\n        /* \"#utility.yul\":3893:3898   */\n      dup2\n        /* \"#utility.yul\":3886:3899   */\n      iszero\n        /* \"#utility.yul\":3879:3900   */\n      iszero\n        /* \"#utility.yul\":3868:3900   */\n      swap1\n      pop\n        /* \"#utility.yul\":3816:3906   */\n      swap2\n      swap1\n      pop\n      jump\t// out\n        /* \"#utility.yul\":3912:3989   */\n    tag_146:\n        /* \"#utility.yul\":3949:3956   */\n      0x00\n        /* \"#utility.yul\":3978:3983   */\n      dup2\n        /* \"#utility.yul\":3967:3983   */\n      swap1\n      pop\n        /* \"#utility.yul\":3912:3989   */\n      swap2\n      swap1\n      pop\n      jump\t// out\n        /* \"#utility.yul\":3995:4302   */\n    tag_135:\n        /* \"#utility.yul\":4063:4064   */\n      0x00\n        /* \"#utility.yul\":4073:4186   */\n    tag_149:\n        /* \"#utility.yul\":4087:4093   */\n      dup4\n        /* \"#utility.yul\":4084:4085   */\n      dup2\n        /* \"#utility.yul\":4081:4094   */\n      lt\n        /* \"#utility.yul\":4073:4186   */\n      iszero\n      tag_151\n      jumpi\n        /* \"#utility.yul\":4172:4173   */\n      dup1\n        /* \"#utility.yul\":4167:4170   */\n      dup3\n        /* \"#utility.yul\":4163:4174   */\n      add\n        /* \"#utility.yul\":4157:4175   */\n      mload\n        /* \"#utility.yul\":4153:4154   */\n      dup2\n        /* \"#utility.yul\":4148:4151   */\n      dup5\n        /* \"#utility.yul\":4144:4155   */\n      add\n        /* \"#utility.yul\":4137:4176   */\n      mstore\n        /* \"#utility.yul\":4109:4111   */\n      0x20\n        /* \"#utility.yul\":4106:4107   */\n      dup2\n        /* \"#utility.yul\":4102:4112   */\n      add\n        /* \"#utility.yul\":4097:4112   */\n      swap1\n      pop\n        /* \"#utility.yul\":4073:4186   */\n      jump(tag_149)\n    tag_151:\n        /* \"#utility.yul\":4204:4210   */\n      dup4\n        /* \"#utility.yul\":4201:4202   */\n      dup2\n        /* \"#utility.yul\":4198:4211   */\n      gt\n        /* \"#utility.yul\":4195:4296   */\n      iszero\n      tag_152\n      jumpi\n        /* \"#utility.yul\":4284:4285   */\n      0x00\n        /* \"#utility.yul\":4275:4281   */\n      dup5\n        /* \"#utility.yul\":4270:4273   */\n      dup5\n        /* \"#utility.yul\":4266:4282   */\n      add\n        /* \"#utility.yul\":4259:4286   */\n      mstore\n        /* \"#utility.yul\":4195:4296   */\n    tag_152:\n        /* \"#utility.yul\":4044:4302   */\n      pop\n        /* \"#utility.yul\":3995:4302   */\n      pop\n      pop\n      pop\n      jump\t// out\n        /* \"#utility.yul\":4308:4628   */\n    tag_51:\n        /* \"#utility.yul\":4352:4358   */\n      0x00\n        /* \"#utility.yul\":4389:4390   */\n      0x02\n        /* \"#utility.yul\":4383:4387   */\n      dup3\n        /* \"#utility.yul\":4379:4391   */\n      div\n        /* \"#utility.yul\":4369:4391   */\n      swap1\n      pop\n        /* \"#utility.yul\":4436:4437   */\n      0x01\n        /* \"#utility.yul\":4430:4434   */\n      dup3\n        /* \"#utility.yul\":4426:4438   */\n      and\n        /* \"#utility.yul\":4457:4475   */\n      dup1\n        /* \"#utility.yul\":4447:4528   */\n      tag_154\n      jumpi\n        /* \"#utility.yul\":4513:4517   */\n      0x7f\n        /* \"#utility.yul\":4505:4511   */\n      dup3\n        /* \"#utility.yul\":4501:4518   */\n      and\n        /* \"#utility.yul\":4491:4518   */\n      swap2\n      pop\n        /* \"#utility.yul\":4447:4528   */\n    tag_154:\n        /* \"#utility.yul\":4575:4577   */\n      0x20\n        /* \"#utility.yul\":4567:4573   */\n      dup3\n        /* \"#utility.yul\":4564:4578   */\n      lt\n        /* \"#utility.yul\":4544:4562   */\n      dup2\n        /* \"#utility.yul\":4541:4579   */\n      eq\n        /* \"#utility.yul\":4538:4622   */\n      iszero\n      tag_155\n      jumpi\n        /* \"#utility.yul\":4594:4612   */\n      tag_156\n      tag_157\n      jump\t// in\n    tag_156:\n        /* \"#utility.yul\":4538:4622   */\n    tag_155:\n        /* \"#utility.yul\":4359:4628   */\n      pop\n        /* \"#utility.yul\":4308:4628   */\n      swap2\n      swap1\n      pop\n      jump\t// out\n        /* \"#utility.yul\":4634:4814   */\n    tag_157:\n        /* \"#utility.yul\":4682:4759   */\n      0x4e487b7100000000000000000000000000000000000000000000000000000000\n        /* \"#utility.yul\":4679:4680   */\n      0x00\n        /* \"#utility.yul\":4672:4760   */\n      mstore\n        /* \"#utility.yul\":4779:4783   */\n      0x22\n        /* \"#utility.yul\":4776:4777   */\n      0x04\n        /* \"#utility.yul\":4769:4784   */\n      mstore\n        /* \"#utility.yul\":4803:4807   */\n      0x24\n        /* \"#utility.yul\":4800:4801   */\n      0x00\n        /* \"#utility.yul\":4793:4808   */\n      revert\n        /* \"#utility.yul\":4820:5000   */\n    tag_32:\n        /* \"#utility.yul\":4868:4945   */\n      0x4e487b7100000000000000000000000000000000000000000000000000000000\n        /* \"#utility.yul\":4865:4866   */\n      0x00\n        /* \"#utility.yul\":4858:4946   */\n      mstore\n        /* \"#utility.yul\":4965:4969   */\n      0x32\n        /* \"#utility.yul\":4962:4963   */\n      0x04\n        /* \"#utility.yul\":4955:4970   */\n      mstore\n        /* \"#utility.yul\":4989:4993   */\n      0x24\n        /* \"#utility.yul\":4986:4987   */\n      0x00\n        /* \"#utility.yul\":4979:4994   */\n      revert\n        /* \"#utility.yul\":5006:5123   */\n    tag_96:\n        /* \"#utility.yul\":5115:5116   */\n      0x00\n        /* \"#utility.yul\":5112:5113   */\n      dup1\n        /* \"#utility.yul\":5105:5117   */\n      revert\n        /* \"#utility.yul\":5129:5246   */\n    tag_93:\n        /* \"#utility.yul\":5238:5239   */\n      0x00\n        /* \"#utility.yul\":5235:5236   */\n      dup1\n        /* \"#utility.yul\":5228:5240   */\n      revert\n        /* \"#utility.yul\":5252:5369   */\n    tag_99:\n        /* \"#utility.yul\":5361:5362   */\n      0x00\n        /* \"#utility.yul\":5358:5359   */\n      dup1\n        /* \"#utility.yul\":5351:5363   */\n      revert\n        /* \"#utility.yul\":5375:5492   */\n    tag_110:\n        /* \"#utility.yul\":5484:5485   */\n      0x00\n        /* \"#utility.yul\":5481:5482   */\n      dup1\n        /* \"#utility.yul\":5474:5486   */\n      revert\n        /* \"#utility.yul\":5498:5615   */\n    tag_107:\n        /* \"#utility.yul\":5607:5608   */\n      0x00\n        /* \"#utility.yul\":5604:5605   */\n      dup1\n        /* \"#utility.yul\":5597:5609   */\n      revert\n        /* \"#utility.yul\":5621:5723   */\n    tag_137:\n        /* \"#utility.yul\":5662:5668   */\n      0x00\n        /* \"#utility.yul\":5713:5715   */\n      0x1f\n        /* \"#utility.yul\":5709:5716   */\n      not\n        /* \"#utility.yul\":5704:5706   */\n      0x1f\n        /* \"#utility.yul\":5697:5702   */\n      dup4\n        /* \"#utility.yul\":5693:5707   */\n      add\n        /* \"#utility.yul\":5689:5717   */\n      and\n        /* \"#utility.yul\":5679:5717   */\n      swap1\n      pop\n        /* \"#utility.yul\":5621:5723   */\n      swap2\n      swap1\n      pop\n      jump\t// out\n        /* \"#utility.yul\":5729:5845   */\n    tag_88:\n        /* \"#utility.yul\":5799:5820   */\n      tag_167\n        /* \"#utility.yul\":5814:5819   */\n      dup2\n        /* \"#utility.yul\":5799:5820   */\n      tag_127\n      jump\t// in\n    tag_167:\n        /* \"#utility.yul\":5792:5797   */\n      dup2\n        /* \"#utility.yul\":5789:5821   */\n      eq\n        /* \"#utility.yul\":5779:5839   */\n      tag_168\n      jumpi\n        /* \"#utility.yul\":5835:5836   */\n      0x00\n        /* \"#utility.yul\":5832:5833   */\n      dup1\n        /* \"#utility.yul\":5825:5837   */\n      revert\n        /* \"#utility.yul\":5779:5839   */\n    tag_168:\n        /* \"#utility.yul\":5729:5845   */\n      pop\n      jump\t// out\n        /* \"#utility.yul\":5851:5973   */\n    tag_103:\n        /* \"#utility.yul\":5924:5948   */\n      tag_170\n        /* \"#utility.yul\":5942:5947   */\n      dup2\n        /* \"#utility.yul\":5924:5948   */\n      tag_146\n      jump\t// in\n    tag_170:\n        /* \"#utility.yul\":5917:5922   */\n      dup2\n        /* \"#utility.yul\":5914:5949   */\n      eq\n        /* \"#utility.yul\":5904:5967   */\n      tag_171\n      jumpi\n        /* \"#utility.yul\":5963:5964   */\n      0x00\n        /* \"#utility.yul\":5960:5961   */\n      dup1\n        /* \"#utility.yul\":5953:5965   */\n      revert\n        /* \"#utility.yul\":5904:5967   */\n    tag_171:\n        /* \"#utility.yul\":5851:5973   */\n      pop\n      jump\t// out\n\n    auxdata: 0xa2646970667358221220a2b848d9de0d8f7ebd37ad3dafecb2533b4988e1dae7301367c12504b84fa65564736f6c63430008070033\n}\n",
				"bytecode": {
					"linkReferences": {},
					"object": "608060405234801561001057600080fd5b50610917806100206000396000f3fe608060405234801561001057600080fd5b50600436106100575760003560e01c8063455f50241461005c5780634e324847146100785780639507d39a14610094578063b6a46b3b146100c5578063bc8bc2b4146100e1575b600080fd5b6100766004803603810190610071919061067b565b610112565b005b610092600480360381019061008d91906106a8565b610185565b005b6100ae60048036038101906100a9919061067b565b6101fd565b6040516100bc929190610764565b60405180910390f35b6100df60048036038101906100da919061062e565b6102f2565b005b6100fb60048036038101906100f6919061067b565b6103bc565b604051610109929190610764565b60405180910390f35b600081815481106101265761012561085a565b5b906000526020600020906002020160010160009054906101000a900460ff16156000828154811061015a5761015961085a565b5b906000526020600020906002020160010160006101000a81548160ff02191690831515021790555050565b82826000868154811061019b5761019a61085a565b5b906000526020600020906002020160000191906101b9929190610485565b5080600085815481106101cf576101ce61085a565b5b906000526020600020906002020160010160006101000a81548160ff02191690831515021790555050505050565b6060600080600084815481106102165761021561085a565b5b906000526020600020906002020160405180604001604052908160008201805461023f906107f9565b80601f016020809104026020016040519081016040528092919081815260200182805461026b906107f9565b80156102b85780601f1061028d576101008083540402835291602001916102b8565b820191906000526020600020905b81548152906001019060200180831161029b57829003601f168201915b505050505081526020016001820160009054906101000a900460ff1615151515815250509050806000015181602001519250925050915091565b6000604051806040016040528084848080601f016020809104026020016040519081016040528093929190818152602001838380828437600081840152601f19601f820116905080830192505050505050508152602001600015158152509080600181540180825580915050600190039060005260206000209060020201600090919091909150600082015181600001908051906020019061039592919061050b565b5060208201518160010160006101000a81548160ff02191690831515021790555050505050565b600081815481106103cc57600080fd5b90600052602060002090600202016000915090508060000180546103ef906107f9565b80601f016020809104026020016040519081016040528092919081815260200182805461041b906107f9565b80156104685780601f1061043d57610100808354040283529160200191610468565b820191906000526020600020905b81548152906001019060200180831161044b57829003601f168201915b5050505050908060010160009054906101000a900460ff16905082565b828054610491906107f9565b90600052602060002090601f0160209004810192826104b357600085556104fa565b82601f106104cc57803560ff19168380011785556104fa565b828001600101855582156104fa579182015b828111156104f95782358255916020019190600101906104de565b5b5090506105079190610591565b5090565b828054610517906107f9565b90600052602060002090601f0160209004810192826105395760008555610580565b82601f1061055257805160ff1916838001178555610580565b82800160010185558215610580579182015b8281111561057f578251825591602001919060010190610564565b5b50905061058d9190610591565b5090565b5b808211156105aa576000816000905550600101610592565b5090565b6000813590506105bd816108b3565b92915050565b60008083601f8401126105d9576105d861088e565b5b8235905067ffffffffffffffff8111156105f6576105f5610889565b5b60208301915083600182028301111561061257610611610893565b5b9250929050565b600081359050610628816108ca565b92915050565b600080602083850312156106455761064461089d565b5b600083013567ffffffffffffffff81111561066357610662610898565b5b61066f858286016105c3565b92509250509250929050565b6000602082840312156106915761069061089d565b5b600061069f84828501610619565b91505092915050565b600080600080606085870312156106c2576106c161089d565b5b60006106d087828801610619565b945050602085013567ffffffffffffffff8111156106f1576106f0610898565b5b6106fd878288016105c3565b93509350506040610710878288016105ae565b91505092959194509250565b610725816107b0565b82525050565b600061073682610794565b610740818561079f565b93506107508185602086016107c6565b610759816108a2565b840191505092915050565b6000604082019050818103600083015261077e818561072b565b905061078d602083018461071c565b9392505050565b600081519050919050565b600082825260208201905092915050565b60008115159050919050565b6000819050919050565b60005b838110156107e45780820151818401526020810190506107c9565b838111156107f3576000848401525b50505050565b6000600282049050600182168061081157607f821691505b602082108114156108255761082461082b565b5b50919050565b7f4e487b7100000000000000000000000000000000000000000000000000000000600052602260045260246000fd5b7f4e487b7100000000000000000000000000000000000000000000000000000000600052603260045260246000fd5b600080fd5b600080fd5b600080fd5b600080fd5b600080fd5b6000601f19601f8301169050919050565b6108bc816107b0565b81146108c757600080fd5b50565b6108d3816107bc565b81146108de57600080fd5b5056fea2646970667358221220a2b848d9de0d8f7ebd37ad3dafecb2533b4988e1dae7301367c12504b84fa65564736f6c63430008070033",
					"opcodes": "PUSH1 0x80 PUSH1 0x40 MSTORE CALLVALUE DUP1 ISZERO PUSH2 0x10 JUMPI PUSH1 0x0 DUP1 REVERT JUMPDEST POP PUSH2 0x917 DUP1 PUSH2 0x20 PUSH1 0x0 CODECOPY PUSH1 0x0 RETURN INVALID PUSH1 0x80 PUSH1 0x40 MSTORE CALLVALUE DUP1 ISZERO PUSH2 0x10 JUMPI PUSH1 0x0 DUP1 REVERT JUMPDEST POP PUSH1 0x4 CALLDATASIZE LT PUSH2 0x57 JUMPI PUSH1 0x0 CALLDATALOAD PUSH1 0xE0 SHR DUP1 PUSH4 0x455F5024 EQ PUSH2 0x5C JUMPI DUP1 PUSH4 0x4E324847 EQ PUSH2 0x78 JUMPI DUP1 PUSH4 0x9507D39A EQ PUSH2 0x94 JUMPI DUP1 PUSH4 0xB6A46B3B EQ PUSH2 0xC5 JUMPI DUP1 PUSH4 0xBC8BC2B4 EQ PUSH2 0xE1 JUMPI JUMPDEST PUSH1 0x0 DUP1 REVERT JUMPDEST PUSH2 0x76 PUSH1 0x4 DUP1 CALLDATASIZE SUB DUP2 ADD SWAP1 PUSH2 0x71 SWAP2 SWAP1 PUSH2 0x67B JUMP JUMPDEST PUSH2 0x112 JUMP JUMPDEST STOP JUMPDEST PUSH2 0x92 PUSH1 0x4 DUP1 CALLDATASIZE SUB DUP2 ADD SWAP1 PUSH2 0x8D SWAP2 SWAP1 PUSH2 0x6A8 JUMP JUMPDEST PUSH2 0x185 JUMP JUMPDEST STOP JUMPDEST PUSH2 0xAE PUSH1 0x4 DUP1 CALLDATASIZE SUB DUP2 ADD SWAP1 PUSH2 0xA9 SWAP2 SWAP1 PUSH2 0x67B JUMP JUMPDEST PUSH2 0x1FD JUMP JUMPDEST PUSH1 0x40 MLOAD PUSH2 0xBC SWAP3 SWAP2 SWAP1 PUSH2 0x764 JUMP JUMPDEST PUSH1 0x40 MLOAD DUP1 SWAP2 SUB SWAP1 RETURN JUMPDEST PUSH2 0xDF PUSH1 0x4 DUP1 CALLDATASIZE SUB DUP2 ADD SWAP1 PUSH2 0xDA SWAP2 SWAP1 PUSH2 0x62E JUMP JUMPDEST PUSH2 0x2F2 JUMP JUMPDEST STOP JUMPDEST PUSH2 0xFB PUSH1 0x4 DUP1 CALLDATASIZE SUB DUP2 ADD SWAP1 PUSH2 0xF6 SWAP2 SWAP1 PUSH2 0x67B JUMP JUMPDEST PUSH2 0x3BC JUMP JUMPDEST PUSH1 0x40 MLOAD PUSH2 0x109 SWAP3 SWAP2 SWAP1 PUSH2 0x764 JUMP JUMPDEST PUSH1 0x40 MLOAD DUP1 SWAP2 SUB SWAP1 RETURN JUMPDEST PUSH1 0x0 DUP2 DUP2 SLOAD DUP2 LT PUSH2 0x126 JUMPI PUSH2 0x125 PUSH2 0x85A JUMP JUMPDEST JUMPDEST SWAP1 PUSH1 0x0 MSTORE PUSH1 0x20 PUSH1 0x0 KECCAK256 SWAP1 PUSH1 0x2 MUL ADD PUSH1 0x1 ADD PUSH1 0x0 SWAP1 SLOAD SWAP1 PUSH2 0x100 EXP SWAP1 DIV PUSH1 0xFF AND ISZERO PUSH1 0x0 DUP3 DUP2 SLOAD DUP2 LT PUSH2 0x15A JUMPI PUSH2 0x159 PUSH2 0x85A JUMP JUMPDEST JUMPDEST SWAP1 PUSH1 0x0 MSTORE PUSH1 0x20 PUSH1 0x0 KECCAK256 SWAP1 PUSH1 0x2 MUL ADD PUSH1 0x1 ADD PUSH1 0x0 PUSH2 0x100 EXP DUP2 SLOAD DUP2 PUSH1 0xFF MUL NOT AND SWAP1 DUP4 ISZERO ISZERO MUL OR SWAP1 SSTORE POP POP JUMP JUMPDEST DUP3 DUP3 PUSH1 0x0 DUP7 DUP2 SLOAD DUP2 LT PUSH2 0x19B JUMPI PUSH2 0x19A PUSH2 0x85A JUMP JUMPDEST JUMPDEST SWAP1 PUSH1 0x0 MSTORE PUSH1 0x20 PUSH1 0x0 KECCAK256 SWAP1 PUSH1 0x2 MUL ADD PUSH1 0x0 ADD SWAP2 SWAP1 PUSH2 0x1B9 SWAP3 SWAP2 SWAP1 PUSH2 0x485 JUMP JUMPDEST POP DUP1 PUSH1 0x0 DUP6 DUP2 SLOAD DUP2 LT PUSH2 0x1CF JUMPI PUSH2 0x1CE PUSH2 0x85A JUMP JUMPDEST JUMPDEST SWAP1 PUSH1 0x0 MSTORE PUSH1 0x20 PUSH1 0x0 KECCAK256 SWAP1 PUSH1 0x2 MUL ADD PUSH1 0x1 ADD PUSH1 0x0 PUSH2 0x100 EXP DUP2 SLOAD DUP2 PUSH1 0xFF MUL NOT AND SWAP1 DUP4 ISZERO ISZERO MUL OR SWAP1 SSTORE POP POP POP POP POP JUMP JUMPDEST PUSH1 0x60 PUSH1 0x0 DUP1 PUSH1 0x0 DUP5 DUP2 SLOAD DUP2 LT PUSH2 0x216 JUMPI PUSH2 0x215 PUSH2 0x85A JUMP JUMPDEST JUMPDEST SWAP1 PUSH1 0x0 MSTORE PUSH1 0x20 PUSH1 0x0 KECCAK256 SWAP1 PUSH1 0x2 MUL ADD PUSH1 0x40 MLOAD DUP1 PUSH1 0x40 ADD PUSH1 0x40 MSTORE SWAP1 DUP2 PUSH1 0x0 DUP3 ADD DUP1 SLOAD PUSH2 0x23F SWAP1 PUSH2 0x7F9 JUMP JUMPDEST DUP1 PUSH1 0x1F ADD PUSH1 0x20 DUP1 SWAP2 DIV MUL PUSH1 0x20 ADD PUSH1 0x40 MLOAD SWAP1 DUP2 ADD PUSH1 0x40 MSTORE DUP1 SWAP3 SWAP2 SWAP1 DUP2 DUP2 MSTORE PUSH1 0x20 ADD DUP3 DUP1 SLOAD PUSH2 0x26B SWAP1 PUSH2 0x7F9 JUMP JUMPDEST DUP1 ISZERO PUSH2 0x2B8 JUMPI DUP1 PUSH1 0x1F LT PUSH2 0x28D JUMPI PUSH2 0x100 DUP1 DUP4 SLOAD DIV MUL DUP4 MSTORE SWAP2 PUSH1 0x20 ADD SWAP2 PUSH2 0x2B8 JUMP JUMPDEST DUP3 ADD SWAP2 SWAP1 PUSH1 0x0 MSTORE PUSH1 0x20 PUSH1 0x0 KECCAK256 SWAP1 JUMPDEST DUP2 SLOAD DUP2 MSTORE SWAP1 PUSH1 0x1 ADD SWAP1 PUSH1 0x20 ADD DUP1 DUP4 GT PUSH2 0x29B JUMPI DUP3 SWAP1 SUB PUSH1 0x1F AND DUP3 ADD SWAP2 JUMPDEST POP POP POP POP POP DUP2 MSTORE PUSH1 0x20 ADD PUSH1 0x1 DUP3 ADD PUSH1 0x0 SWAP1 SLOAD SWAP1 PUSH2 0x100 EXP SWAP1 DIV PUSH1 0xFF AND ISZERO ISZERO ISZERO ISZERO DUP2 MSTORE POP POP SWAP1 POP DUP1 PUSH1 0x0 ADD MLOAD DUP2 PUSH1 0x20 ADD MLOAD SWAP3 POP SWAP3 POP POP SWAP2 POP SWAP2 JUMP JUMPDEST PUSH1 0x0 PUSH1 0x40 MLOAD DUP1 PUSH1 0x40 ADD PUSH1 0x40 MSTORE DUP1 DUP5 DUP5 DUP1 DUP1 PUSH1 0x1F ADD PUSH1 0x20 DUP1 SWAP2 DIV MUL PUSH1 0x20 ADD PUSH1 0x40 MLOAD SWAP1 DUP2 ADD PUSH1 0x40 MSTORE DUP1 SWAP4 SWAP3 SWAP2 SWAP1 DUP2 DUP2 MSTORE PUSH1 0x20 ADD DUP4 DUP4 DUP1 DUP3 DUP5 CALLDATACOPY PUSH1 0x0 DUP2 DUP5 ADD MSTORE PUSH1 0x1F NOT PUSH1 0x1F DUP3 ADD AND SWAP1 POP DUP1 DUP4 ADD SWAP3 POP POP POP POP POP POP POP DUP2 MSTORE PUSH1 0x20 ADD PUSH1 0x0 ISZERO ISZERO DUP2 MSTORE POP SWAP1 DUP1 PUSH1 0x1 DUP2 SLOAD ADD DUP1 DUP3 SSTORE DUP1 SWAP2 POP POP PUSH1 0x1 SWAP1 SUB SWAP1 PUSH1 0x0 MSTORE PUSH1 0x20 PUSH1 0x0 KECCAK256 SWAP1 PUSH1 0x2 MUL ADD PUSH1 0x0 SWAP1 SWAP2 SWAP1 SWAP2 SWAP1 SWAP2 POP PUSH1 0x0 DUP3 ADD MLOAD DUP2 PUSH1 0x0 ADD SWAP1 DUP1 MLOAD SWAP1 PUSH1 0x20 ADD SWAP1 PUSH2 0x395 SWAP3 SWAP2 SWAP1 PUSH2 0x50B JUMP JUMPDEST POP PUSH1 0x20 DUP3 ADD MLOAD DUP2 PUSH1 0x1 ADD PUSH1 0x0 PUSH2 0x100 EXP DUP2 SLOAD DUP2 PUSH1 0xFF MUL NOT AND SWAP1 DUP4 ISZERO ISZERO MUL OR SWAP1 SSTORE POP POP POP POP POP JUMP JUMPDEST PUSH1 0x0 DUP2 DUP2 SLOAD DUP2 LT PUSH2 0x3CC JUMPI PUSH1 0x0 DUP1 REVERT JUMPDEST SWAP1 PUSH1 0x0 MSTORE PUSH1 0x20 PUSH1 0x0 KECCAK256 SWAP1 PUSH1 0x2 MUL ADD PUSH1 0x0 SWAP2 POP SWAP1 POP DUP1 PUSH1 0x0 ADD DUP1 SLOAD PUSH2 0x3EF SWAP1 PUSH2 0x7F9 JUMP JUMPDEST DUP1 PUSH1 0x1F ADD PUSH1 0x20 DUP1 SWAP2 DIV MUL PUSH1 0x20 ADD PUSH1 0x40 MLOAD SWAP1 DUP2 ADD PUSH1 0x40 MSTORE DUP1 SWAP3 SWAP2 SWAP1 DUP2 DUP2 MSTORE PUSH1 0x20 ADD DUP3 DUP1 SLOAD PUSH2 0x41B SWAP1 PUSH2 0x7F9 JUMP JUMPDEST DUP1 ISZERO PUSH2 0x468 JUMPI DUP1 PUSH1 0x1F LT PUSH2 0x43D JUMPI PUSH2 0x100 DUP1 DUP4 SLOAD DIV MUL DUP4 MSTORE SWAP2 PUSH1 0x20 ADD SWAP2 PUSH2 0x468 JUMP JUMPDEST DUP3 ADD SWAP2 SWAP1 PUSH1 0x0 MSTORE PUSH1 0x20 PUSH1 0x0 KECCAK256 SWAP1 JUMPDEST DUP2 SLOAD DUP2 MSTORE SWAP1 PUSH1 0x1 ADD SWAP1 PUSH1 0x20 ADD DUP1 DUP4 GT PUSH2 0x44B JUMPI DUP3 SWAP1 SUB PUSH1 0x1F AND DUP3 ADD SWAP2 JUMPDEST POP POP POP POP POP SWAP1 DUP1 PUSH1 0x1 ADD PUSH1 0x0 SWAP1 SLOAD SWAP1 PUSH2 0x100 EXP SWAP1 DIV PUSH1 0xFF AND SWAP1 POP DUP3 JUMP JUMPDEST DUP3 DUP1 SLOAD PUSH2 0x491 SWAP1 PUSH2 0x7F9 JUMP JUMPDEST SWAP1 PUSH1 0x0 MSTORE PUSH1 0x20 PUSH1 0x0 KECCAK256 SWAP1 PUSH1 0x1F ADD PUSH1 0x20 SWAP1 DIV DUP2 ADD SWAP3 DUP3 PUSH2 0x4B3 JUMPI PUSH1 0x0 DUP6 SSTORE PUSH2 0x4FA JUMP JUMPDEST DUP3 PUSH1 0x1F LT PUSH2 0x4CC JUMPI DUP1 CALLDATALOAD PUSH1 0xFF NOT AND DUP4 DUP1 ADD OR DUP6 SSTORE PUSH2 0x4FA JUMP JUMPDEST DUP3 DUP1 ADD PUSH1 0x1 ADD DUP6 SSTORE DUP3 ISZERO PUSH2 0x4FA JUMPI SWAP2 DUP3 ADD JUMPDEST DUP3 DUP2 GT ISZERO PUSH2 0x4F9 JUMPI DUP3 CALLDATALOAD DUP3 SSTORE SWAP2 PUSH1 0x20 ADD SWAP2 SWAP1 PUSH1 0x1 ADD SWAP1 PUSH2 0x4DE JUMP JUMPDEST JUMPDEST POP SWAP1 POP PUSH2 0x507 SWAP2 SWAP1 PUSH2 0x591 JUMP JUMPDEST POP SWAP1 JUMP JUMPDEST DUP3 DUP1 SLOAD PUSH2 0x517 SWAP1 PUSH2 0x7F9 JUMP JUMPDEST SWAP1 PUSH1 0x0 MSTORE PUSH1 0x20 PUSH1 0x0 KECCAK256 SWAP1 PUSH1 0x1F ADD PUSH1 0x20 SWAP1 DIV DUP2 ADD SWAP3 DUP3 PUSH2 0x539 JUMPI PUSH1 0x0 DUP6 SSTORE PUSH2 0x580 JUMP JUMPDEST DUP3 PUSH1 0x1F LT PUSH2 0x552 JUMPI DUP1 MLOAD PUSH1 0xFF NOT AND DUP4 DUP1 ADD OR DUP6 SSTORE PUSH2 0x580 JUMP JUMPDEST DUP3 DUP1 ADD PUSH1 0x1 ADD DUP6 SSTORE DUP3 ISZERO PUSH2 0x580 JUMPI SWAP2 DUP3 ADD JUMPDEST DUP3 DUP2 GT ISZERO PUSH2 0x57F JUMPI DUP3 MLOAD DUP3 SSTORE SWAP2 PUSH1 0x20 ADD SWAP2 SWAP1 PUSH1 0x1 ADD SWAP1 PUSH2 0x564 JUMP JUMPDEST JUMPDEST POP SWAP1 POP PUSH2 0x58D SWAP2 SWAP1 PUSH2 0x591 JUMP JUMPDEST POP SWAP1 JUMP JUMPDEST JUMPDEST DUP1 DUP3 GT ISZERO PUSH2 0x5AA JUMPI PUSH1 0x0 DUP2 PUSH1 0x0 SWAP1 SSTORE POP PUSH1 0x1 ADD PUSH2 0x592 JUMP JUMPDEST POP SWAP1 JUMP JUMPDEST PUSH1 0x0 DUP2 CALLDATALOAD SWAP1 POP PUSH2 0x5BD DUP2 PUSH2 0x8B3 JUMP JUMPDEST SWAP3 SWAP2 POP POP JUMP JUMPDEST PUSH1 0x0 DUP1 DUP4 PUSH1 0x1F DUP5 ADD SLT PUSH2 0x5D9 JUMPI PUSH2 0x5D8 PUSH2 0x88E JUMP JUMPDEST JUMPDEST DUP3 CALLDATALOAD SWAP1 POP PUSH8 0xFFFFFFFFFFFFFFFF DUP2 GT ISZERO PUSH2 0x5F6 JUMPI PUSH2 0x5F5 PUSH2 0x889 JUMP JUMPDEST JUMPDEST PUSH1 0x20 DUP4 ADD SWAP2 POP DUP4 PUSH1 0x1 DUP3 MUL DUP4 ADD GT ISZERO PUSH2 0x612 JUMPI PUSH2 0x611 PUSH2 0x893 JUMP JUMPDEST JUMPDEST SWAP3 POP SWAP3 SWAP1 POP JUMP JUMPDEST PUSH1 0x0 DUP2 CALLDATALOAD SWAP1 POP PUSH2 0x628 DUP2 PUSH2 0x8CA JUMP JUMPDEST SWAP3 SWAP2 POP POP JUMP JUMPDEST PUSH1 0x0 DUP1 PUSH1 0x20 DUP4 DUP6 SUB SLT ISZERO PUSH2 0x645 JUMPI PUSH2 0x644 PUSH2 0x89D JUMP JUMPDEST JUMPDEST PUSH1 0x0 DUP4 ADD CALLDATALOAD PUSH8 0xFFFFFFFFFFFFFFFF DUP2 GT ISZERO PUSH2 0x663 JUMPI PUSH2 0x662 PUSH2 0x898 JUMP JUMPDEST JUMPDEST PUSH2 0x66F DUP6 DUP3 DUP7 ADD PUSH2 0x5C3 JUMP JUMPDEST SWAP3 POP SWAP3 POP POP SWAP3 POP SWAP3 SWAP1 POP JUMP JUMPDEST PUSH1 0x0 PUSH1 0x20 DUP3 DUP5 SUB SLT ISZERO PUSH2 0x691 JUMPI PUSH2 0x690 PUSH2 0x89D JUMP JUMPDEST JUMPDEST PUSH1 0x0 PUSH2 0x69F DUP5 DUP3 DUP6 ADD PUSH2 0x619 JUMP JUMPDEST SWAP2 POP POP SWAP3 SWAP2 POP POP JUMP JUMPDEST PUSH1 0x0 DUP1 PUSH1 0x0 DUP1 PUSH1 0x60 DUP6 DUP8 SUB SLT ISZERO PUSH2 0x6C2 JUMPI PUSH2 0x6C1 PUSH2 0x89D JUMP JUMPDEST JUMPDEST PUSH1 0x0 PUSH2 0x6D0 DUP8 DUP3 DUP9 ADD PUSH2 0x619 JUMP JUMPDEST SWAP5 POP POP PUSH1 0x20 DUP6 ADD CALLDATALOAD PUSH8 0xFFFFFFFFFFFFFFFF DUP2 GT ISZERO PUSH2 0x6F1 JUMPI PUSH2 0x6F0 PUSH2 0x898 JUMP JUMPDEST JUMPDEST PUSH2 0x6FD DUP8 DUP3 DUP9 ADD PUSH2 0x5C3 JUMP JUMPDEST SWAP4 POP SWAP4 POP POP PUSH1 0x40 PUSH2 0x710 DUP8 DUP3 DUP9 ADD PUSH2 0x5AE JUMP JUMPDEST SWAP2 POP POP SWAP3 SWAP6 SWAP2 SWAP5 POP SWAP3 POP JUMP JUMPDEST PUSH2 0x725 DUP2 PUSH2 0x7B0 JUMP JUMPDEST DUP3 MSTORE POP POP JUMP JUMPDEST PUSH1 0x0 PUSH2 0x736 DUP3 PUSH2 0x794 JUMP JUMPDEST PUSH2 0x740 DUP2 DUP6 PUSH2 0x79F JUMP JUMPDEST SWAP4 POP PUSH2 0x750 DUP2 DUP6 PUSH1 0x20 DUP7 ADD PUSH2 0x7C6 JUMP JUMPDEST PUSH2 0x759 DUP2 PUSH2 0x8A2 JUMP JUMPDEST DUP5 ADD SWAP2 POP POP SWAP3 SWAP2 POP POP JUMP JUMPDEST PUSH1 0x0 PUSH1 0x40 DUP3 ADD SWAP1 POP DUP2 DUP2 SUB PUSH1 0x0 DUP4 ADD MSTORE PUSH2 0x77E DUP2 DUP6 PUSH2 0x72B JUMP JUMPDEST SWAP1 POP PUSH2 0x78D PUSH1 0x20 DUP4 ADD DUP5 PUSH2 0x71C JUMP JUMPDEST SWAP4 SWAP3 POP POP POP JUMP JUMPDEST PUSH1 0x0 DUP2 MLOAD SWAP1 POP SWAP2 SWAP1 POP JUMP JUMPDEST PUSH1 0x0 DUP3 DUP3 MSTORE PUSH1 0x20 DUP3 ADD SWAP1 POP SWAP3 SWAP2 POP POP JUMP JUMPDEST PUSH1 0x0 DUP2 ISZERO ISZERO SWAP1 POP SWAP2 SWAP1 POP JUMP JUMPDEST PUSH1 0x0 DUP2 SWAP1 POP SWAP2 SWAP1 POP JUMP JUMPDEST PUSH1 0x0 JUMPDEST DUP4 DUP2 LT ISZERO PUSH2 0x7E4 JUMPI DUP1 DUP3 ADD MLOAD DUP2 DUP5 ADD MSTORE PUSH1 0x20 DUP2 ADD SWAP1 POP PUSH2 0x7C9 JUMP JUMPDEST DUP4 DUP2 GT ISZERO PUSH2 0x7F3 JUMPI PUSH1 0x0 DUP5 DUP5 ADD MSTORE JUMPDEST POP POP POP POP JUMP JUMPDEST PUSH1 0x0 PUSH1 0x2 DUP3 DIV SWAP1 POP PUSH1 0x1 DUP3 AND DUP1 PUSH2 0x811 JUMPI PUSH1 0x7F DUP3 AND SWAP2 POP JUMPDEST PUSH1 0x20 DUP3 LT DUP2 EQ ISZERO PUSH2 0x825 JUMPI PUSH2 0x824 PUSH2 0x82B JUMP JUMPDEST JUMPDEST POP SWAP2 SWAP1 POP JUMP JUMPDEST PUSH32 0x4E487B7100000000000000000000000000000000000000000000000000000000 PUSH1 0x0 MSTORE PUSH1 0x22 PUSH1 0x4 MSTORE PUSH1 0x24 PUSH1 0x0 REVERT JUMPDEST PUSH32 0x4E487B7100000000000000000000000000000000000000000000000000000000 PUSH1 0x0 MSTORE PUSH1 0x32 PUSH1 0x4 MSTORE PUSH1 0x24 PUSH1 0x0 REVERT JUMPDEST PUSH1 0x0 DUP1 REVERT JUMPDEST PUSH1 0x0 DUP1 REVERT JUMPDEST PUSH1 0x0 DUP1 REVERT JUMPDEST PUSH1 0x0 DUP1 REVERT JUMPDEST PUSH1 0x0 DUP1 REVERT JUMPDEST PUSH1 0x0 PUSH1 0x1F NOT PUSH1 0x1F DUP4 ADD AND SWAP1 POP SWAP2 SWAP1 POP JUMP JUMPDEST PUSH2 0x8BC DUP2 PUSH2 0x7B0 JUMP JUMPDEST DUP2 EQ PUSH2 0x8C7 JUMPI PUSH1 0x0 DUP1 REVERT JUMPDEST POP JUMP JUMPDEST PUSH2 0x8D3 DUP2 PUSH2 0x7BC JUMP JUMPDEST DUP2 EQ PUSH2 0x8DE JUMPI PUSH1 0x0 DUP1 REVERT JUMPDEST POP JUMP INVALID LOG2 PUSH5 0x6970667358 0x22 SLT KECCAK256 LOG2 0xB8 BASEFEE 0xD9 0xDE 0xD DUP16 PUSH31 0xBD37AD3DAFECB2533B4988E1DAE7301367C12504B84FA65564736F6C634300 ADDMOD SMOD STOP CALLER "
				},
				"gasEstimates": {
					"creation": {
						"codeDepositCost": "465400",
						"executionCost": "499",
						"totalCost": "465899"
					},
					"external": {
						"create(string)": "infinite",
						"get(uint256)": "infinite",
						"todos(uint256)": "infinite",
						"toggleCompleted(uint256)": "31184",
						"update(uint256,string,bool)": "infinite"
					}
				},
				"methodIdentifiers": {
					"create(string)": "b6a46b3b",
					"get(uint256)": "9507d39a",
					"todos(uint256)": "bc8bc2b4",
					"toggleCompleted(uint256)": "455f5024",
					"update(uint256,string,bool)": "4e324847"
				}
			},
			"storageLayout": {
				"storage": [
					{
						"astId": 10,
						"contract": "Day24_TodoList.sol:Todolist",
						"label": "todos",
						"offset": 0,
						"slot": "0",
						"type": "t_array(t_struct(Todo)6_storage)dyn_storage"
					}
				],
				"types": {
					"t_array(t_struct(Todo)6_storage)dyn_storage": {
						"base": "t_struct(Todo)6_storage",
						"encoding": "dynamic_array",
						"label": "struct Todolist.Todo[]",
						"numberOfBytes": "32"
					},
					"t_bool": {
						"encoding": "inplace",
						"label": "bool",
						"numberOfBytes": "1"
					},
					"t_string_storage": {
						"encoding": "bytes",
						"label": "string",
						"numberOfBytes": "32"
					},
					"t_struct(Todo)6_storage": {
						"encoding": "inplace",
						"label": "struct Todolist.Todo",
						"members": [
							{
								"astId": 3,
								"contract": "Day24_TodoList.sol:Todolist",
								"label": "text",
								"offset": 0,
								"slot": "0",
								"type": "t_string_storage"
							},
							{
								"astId": 5,
								"contract": "Day24_TodoList.sol:Todolist",
								"label": "completed",
								"offset": 0,
								"slot": "1",
								"type": "t_bool"
							}
						],
						"numberOfBytes": "64"
					}
				}
			},
			"userdoc": {
				"kind": "user",
				"methods": {},
				"version": 1
			}
		}
	}
}