{
	"Day42_Sig.sol": {
		"VerifySig": {
			"abi": [
				{
					"inputs": [
						{
							"internalType": "bytes32",
							"name": "_messageHash",
							"type": "bytes32"
						}
					],
					"name": "getEthSignMessageHash",
					"outputs": [
						{
							"internalType": "bytes32",
							"name": "",
							"type": "bytes32"
						}
					],
					"stateMutability": "pure",
					"type": "function"
				},
				{
					"inputs": [
						{
							"internalType": "string",
							"name": "_message",
							"type": "string"
						}
					],
					"name": "getMessageHash",
					"outputs": [
						{
							"internalType": "bytes32",
							"name": "",
							"type": "bytes32"
						}
					],
					"stateMutability": "pure",
					"type": "function"
				},
				{
					"inputs": [
						{
							"internalType": "bytes32",
							"name": "_ethSignedMessageHash",
							"type": "bytes32"
						},
						{
							"internalType": "bytes",
							"name": "_sig",
							"type": "bytes"
						}
					],
					"name": "recover",
					"outputs": [
						{
							"internalType": "address",
							"name": "",
							"type": "address"
						}
					],
					"stateMutability": "pure",
					"type": "function"
				},
				{
					"inputs": [
						{
							"internalType": "address",
							"name": "_signer",
							"type": "address"
						},
						{
							"internalType": "string",
							"name": "_message",
							"type": "string"
						},
						{
							"internalType": "bytes",
							"name": "_sig",
							"type": "bytes"
						}
					],
					"name": "verify",
					"outputs": [
						{
							"internalType": "bool",
							"name": "",
							"type": "bool"
						}
					],
					"stateMutability": "pure",
					"type": "function"
				}
			],
			"devdoc": {
				"kind": "dev",
				"methods": {},
				"version": 1
			},
			"evm": {
				"assembly": "    /* \"Day42_Sig.sol\":814:2026  contract VerifySig {... */\n  mstore(0x40, 0x80)\n  callvalue\n  dup1\n  iszero\n  tag_1\n  jumpi\n  0x00\n  dup1\n  revert\ntag_1:\n  pop\n  dataSize(sub_0)\n  dup1\n  dataOffset(sub_0)\n  0x00\n  codecopy\n  0x00\n  return\nstop\n\nsub_0: assembly {\n        /* \"Day42_Sig.sol\":814:2026  contract VerifySig {... */\n      mstore(0x40, 0x80)\n      callvalue\n      dup1\n      iszero\n      tag_1\n      jumpi\n      0x00\n      dup1\n      revert\n    tag_1:\n      pop\n      jumpi(tag_2, lt(calldatasize, 0x04))\n      shr(0xe0, calldataload(0x00))\n      dup1\n      0x19045a25\n      eq\n      tag_3\n      jumpi\n      dup1\n      0x2dd34f0f\n      eq\n      tag_4\n      jumpi\n      dup1\n      0x3f63bc39\n      eq\n      tag_5\n      jumpi\n      dup1\n      0xb446f3b2\n      eq\n      tag_6\n      jumpi\n    tag_2:\n      0x00\n      dup1\n      revert\n        /* \"Day42_Sig.sol\":1488:1707  function recover (bytes32 _ethSignedMessageHash, bytes memory _sig) public pure returns (address) {... */\n    tag_3:\n      tag_7\n      0x04\n      dup1\n      calldatasize\n      sub\n      dup2\n      add\n      swap1\n      tag_8\n      swap2\n      swap1\n      tag_9\n      jump\t// in\n    tag_8:\n      tag_10\n      jump\t// in\n    tag_7:\n      mload(0x40)\n      tag_11\n      swap2\n      swap1\n      tag_12\n      jump\t// in\n    tag_11:\n      mload(0x40)\n      dup1\n      swap2\n      sub\n      swap1\n      return\n        /* \"Day42_Sig.sol\":839:1146  function verify(address _signer, string memory _message, bytes memory _sig) external pure returns (bool) {... */\n    tag_4:\n      tag_13\n      0x04\n      dup1\n      calldatasize\n      sub\n      dup2\n      add\n      swap1\n      tag_14\n      swap2\n      swap1\n      tag_15\n      jump\t// in\n    tag_14:\n      tag_16\n      jump\t// in\n    tag_13:\n      mload(0x40)\n      tag_17\n      swap2\n      swap1\n      tag_18\n      jump\t// in\n    tag_17:\n      mload(0x40)\n      dup1\n      swap2\n      sub\n      swap1\n      return\n        /* \"Day42_Sig.sol\":1297:1482  function getEthSignMessageHash (bytes32 _messageHash) public pure returns (bytes32) {... */\n    tag_5:\n      tag_19\n      0x04\n      dup1\n      calldatasize\n      sub\n      dup2\n      add\n      swap1\n      tag_20\n      swap2\n      swap1\n      tag_21\n      jump\t// in\n    tag_20:\n      tag_22\n      jump\t// in\n    tag_19:\n      mload(0x40)\n      tag_23\n      swap2\n      swap1\n      tag_24\n      jump\t// in\n    tag_23:\n      mload(0x40)\n      dup1\n      swap2\n      sub\n      swap1\n      return\n        /* \"Day42_Sig.sol\":1152:1291  function getMessageHash(string memory _message) public pure returns (bytes32) {... */\n    tag_6:\n      tag_25\n      0x04\n      dup1\n      calldatasize\n      sub\n      dup2\n      add\n      swap1\n      tag_26\n      swap2\n      swap1\n      tag_27\n      jump\t// in\n    tag_26:\n      tag_28\n      jump\t// in\n    tag_25:\n      mload(0x40)\n      tag_29\n      swap2\n      swap1\n      tag_24\n      jump\t// in\n    tag_29:\n      mload(0x40)\n      dup1\n      swap2\n      sub\n      swap1\n      return\n        /* \"Day42_Sig.sol\":1488:1707  function recover (bytes32 _ethSignedMessageHash, bytes memory _sig) public pure returns (address) {... */\n    tag_10:\n        /* \"Day42_Sig.sol\":1577:1584  address */\n      0x00\n        /* \"Day42_Sig.sol\":1597:1606  bytes32 r */\n      dup1\n        /* \"Day42_Sig.sol\":1608:1617  bytes32 s */\n      0x00\n        /* \"Day42_Sig.sol\":1620:1627  uint8 v */\n      dup1\n        /* \"Day42_Sig.sol\":1631:1643  _split(_sig) */\n      tag_31\n        /* \"Day42_Sig.sol\":1638:1642  _sig */\n      dup6\n        /* \"Day42_Sig.sol\":1631:1637  _split */\n      tag_32\n        /* \"Day42_Sig.sol\":1631:1643  _split(_sig) */\n      jump\t// in\n    tag_31:\n        /* \"Day42_Sig.sol\":1596:1643  (bytes32 r, bytes32 s , uint8 v) = _split(_sig) */\n      swap3\n      pop\n      swap3\n      pop\n      swap3\n      pop\n        /* \"Day42_Sig.sol\":1661:1700  ecrecover(_ethSignedMessageHash, v,r,s) */\n      0x01\n        /* \"Day42_Sig.sol\":1671:1692  _ethSignedMessageHash */\n      dup7\n        /* \"Day42_Sig.sol\":1694:1695  v */\n      dup3\n        /* \"Day42_Sig.sol\":1696:1697  r */\n      dup6\n        /* \"Day42_Sig.sol\":1698:1699  s */\n      dup6\n        /* \"Day42_Sig.sol\":1661:1700  ecrecover(_ethSignedMessageHash, v,r,s) */\n      mload(0x40)\n      0x00\n      dup2\n      mstore\n      0x20\n      add\n      0x40\n      mstore\n      mload(0x40)\n      tag_33\n      swap5\n      swap4\n      swap3\n      swap2\n      swap1\n      tag_34\n      jump\t// in\n    tag_33:\n      0x20\n      mload(0x40)\n      0x20\n      dup2\n      sub\n      swap1\n      dup1\n      dup5\n      sub\n      swap1\n      dup6\n      gas\n      staticcall\n      iszero\n      dup1\n      iszero\n      tag_36\n      jumpi\n      returndatasize\n      0x00\n      dup1\n      returndatacopy\n      revert(0x00, returndatasize)\n    tag_36:\n      pop\n      pop\n      pop\n      mload(sub(mload(0x40), 0x20))\n        /* \"Day42_Sig.sol\":1653:1700  return  ecrecover(_ethSignedMessageHash, v,r,s) */\n      swap4\n      pop\n      pop\n      pop\n      pop\n        /* \"Day42_Sig.sol\":1488:1707  function recover (bytes32 _ethSignedMessageHash, bytes memory _sig) public pure returns (address) {... */\n      swap3\n      swap2\n      pop\n      pop\n      jump\t// out\n        /* \"Day42_Sig.sol\":839:1146  function verify(address _signer, string memory _message, bytes memory _sig) external pure returns (bool) {... */\n    tag_16:\n        /* \"Day42_Sig.sol\":938:942  bool */\n      0x00\n        /* \"Day42_Sig.sol\":954:973  bytes32 messageHash */\n      dup1\n        /* \"Day42_Sig.sol\":976:1000  getMessageHash(_message) */\n      tag_38\n        /* \"Day42_Sig.sol\":991:999  _message */\n      dup5\n        /* \"Day42_Sig.sol\":976:990  getMessageHash */\n      tag_28\n        /* \"Day42_Sig.sol\":976:1000  getMessageHash(_message) */\n      jump\t// in\n    tag_38:\n        /* \"Day42_Sig.sol\":954:1000  bytes32 messageHash = getMessageHash(_message) */\n      swap1\n      pop\n        /* \"Day42_Sig.sol\":1010:1038  bytes32 ethSignedMessageHash */\n      0x00\n        /* \"Day42_Sig.sol\":1041:1075  getEthSignMessageHash(messageHash) */\n      tag_39\n        /* \"Day42_Sig.sol\":1063:1074  messageHash */\n      dup3\n        /* \"Day42_Sig.sol\":1041:1062  getEthSignMessageHash */\n      tag_22\n        /* \"Day42_Sig.sol\":1041:1075  getEthSignMessageHash(messageHash) */\n      jump\t// in\n    tag_39:\n        /* \"Day42_Sig.sol\":1010:1075  bytes32 ethSignedMessageHash = getEthSignMessageHash(messageHash) */\n      swap1\n      pop\n        /* \"Day42_Sig.sol\":1132:1139  _signer */\n      dup6\n        /* \"Day42_Sig.sol\":1093:1139  recover(ethSignedMessageHash, _sig) == _signer */\n      0xffffffffffffffffffffffffffffffffffffffff\n      and\n        /* \"Day42_Sig.sol\":1093:1128  recover(ethSignedMessageHash, _sig) */\n      tag_40\n        /* \"Day42_Sig.sol\":1101:1121  ethSignedMessageHash */\n      dup3\n        /* \"Day42_Sig.sol\":1123:1127  _sig */\n      dup7\n        /* \"Day42_Sig.sol\":1093:1100  recover */\n      tag_10\n        /* \"Day42_Sig.sol\":1093:1128  recover(ethSignedMessageHash, _sig) */\n      jump\t// in\n    tag_40:\n        /* \"Day42_Sig.sol\":1093:1139  recover(ethSignedMessageHash, _sig) == _signer */\n      0xffffffffffffffffffffffffffffffffffffffff\n      and\n      eq\n        /* \"Day42_Sig.sol\":1086:1139  return recover(ethSignedMessageHash, _sig) == _signer */\n      swap3\n      pop\n      pop\n      pop\n        /* \"Day42_Sig.sol\":839:1146  function verify(address _signer, string memory _message, bytes memory _sig) external pure returns (bool) {... */\n      swap4\n      swap3\n      pop\n      pop\n      pop\n      jump\t// out\n        /* \"Day42_Sig.sol\":1297:1482  function getEthSignMessageHash (bytes32 _messageHash) public pure returns (bytes32) {... */\n    tag_22:\n        /* \"Day42_Sig.sol\":1372:1379  bytes32 */\n      0x00\n        /* \"Day42_Sig.sol\":1461:1473  _messageHash */\n      dup2\n        /* \"Day42_Sig.sol\":1408:1474  abi.encodePacked(\"\\x19Ethereum Signed Message:\\n32\", _messageHash) */\n      add(0x20, mload(0x40))\n      tag_42\n      swap2\n      swap1\n      tag_43\n      jump\t// in\n    tag_42:\n      mload(0x40)\n      0x20\n      dup2\n      dup4\n      sub\n      sub\n      dup2\n      mstore\n      swap1\n      0x40\n      mstore\n        /* \"Day42_Sig.sol\":1398:1475  keccak256(abi.encodePacked(\"\\x19Ethereum Signed Message:\\n32\", _messageHash)) */\n      dup1\n      mload\n      swap1\n      0x20\n      add\n      keccak256\n        /* \"Day42_Sig.sol\":1391:1475  return keccak256(abi.encodePacked(\"\\x19Ethereum Signed Message:\\n32\", _messageHash)) */\n      swap1\n      pop\n        /* \"Day42_Sig.sol\":1297:1482  function getEthSignMessageHash (bytes32 _messageHash) public pure returns (bytes32) {... */\n      swap2\n      swap1\n      pop\n      jump\t// out\n        /* \"Day42_Sig.sol\":1152:1291  function getMessageHash(string memory _message) public pure returns (bytes32) {... */\n    tag_28:\n        /* \"Day42_Sig.sol\":1221:1228  bytes32 */\n      0x00\n        /* \"Day42_Sig.sol\":1274:1282  _message */\n      dup2\n        /* \"Day42_Sig.sol\":1257:1283  abi.encodePacked(_message) */\n      add(0x20, mload(0x40))\n      tag_45\n      swap2\n      swap1\n      tag_46\n      jump\t// in\n    tag_45:\n      mload(0x40)\n      0x20\n      dup2\n      dup4\n      sub\n      sub\n      dup2\n      mstore\n      swap1\n      0x40\n      mstore\n        /* \"Day42_Sig.sol\":1247:1284  keccak256(abi.encodePacked(_message)) */\n      dup1\n      mload\n      swap1\n      0x20\n      add\n      keccak256\n        /* \"Day42_Sig.sol\":1240:1284  return keccak256(abi.encodePacked(_message)) */\n      swap1\n      pop\n        /* \"Day42_Sig.sol\":1152:1291  function getMessageHash(string memory _message) public pure returns (bytes32) {... */\n      swap2\n      swap1\n      pop\n      jump\t// out\n        /* \"Day42_Sig.sol\":1713:2024  function _split(bytes memory _sig) internal pure returns (bytes32 r, bytes32 s, uint8 v) {... */\n    tag_32:\n        /* \"Day42_Sig.sol\":1771:1780  bytes32 r */\n      0x00\n        /* \"Day42_Sig.sol\":1782:1791  bytes32 s */\n      dup1\n        /* \"Day42_Sig.sol\":1793:1800  uint8 v */\n      0x00\n        /* \"Day42_Sig.sol\":1835:1837  65 */\n      0x41\n        /* \"Day42_Sig.sol\":1820:1824  _sig */\n      dup5\n        /* \"Day42_Sig.sol\":1820:1831  _sig.length */\n      mload\n        /* \"Day42_Sig.sol\":1820:1837  _sig.length == 65 */\n      eq\n        /* \"Day42_Sig.sol\":1812:1866  require(_sig.length == 65, \"invalid signature length\") */\n      tag_48\n      jumpi\n      mload(0x40)\n      0x08c379a000000000000000000000000000000000000000000000000000000000\n      dup2\n      mstore\n      0x04\n      add\n      tag_49\n      swap1\n      tag_50\n      jump\t// in\n    tag_49:\n      mload(0x40)\n      dup1\n      swap2\n      sub\n      swap1\n      revert\n    tag_48:\n        /* \"Day42_Sig.sol\":1920:1922  32 */\n      0x20\n        /* \"Day42_Sig.sol\":1915:1919  _sig */\n      dup5\n        /* \"Day42_Sig.sol\":1911:1923  add(_sig,32) */\n      add\n        /* \"Day42_Sig.sol\":1905:1924  mload(add(_sig,32)) */\n      mload\n        /* \"Day42_Sig.sol\":1900:1924  r := mload(add(_sig,32)) */\n      swap3\n      pop\n        /* \"Day42_Sig.sol\":1957:1959  64 */\n      0x40\n        /* \"Day42_Sig.sol\":1952:1956  _sig */\n      dup5\n        /* \"Day42_Sig.sol\":1948:1960  add(_sig,64) */\n      add\n        /* \"Day42_Sig.sol\":1942:1961  mload(add(_sig,64)) */\n      mload\n        /* \"Day42_Sig.sol\":1937:1961  s := mload(add(_sig,64)) */\n      swap2\n      pop\n        /* \"Day42_Sig.sol\":2002:2004  96 */\n      0x60\n        /* \"Day42_Sig.sol\":1997:2001  _sig */\n      dup5\n        /* \"Day42_Sig.sol\":1993:2005  add(_sig,96) */\n      add\n        /* \"Day42_Sig.sol\":1987:2006  mload(add(_sig,96)) */\n      mload\n        /* \"Day42_Sig.sol\":1984:1985  0 */\n      0x00\n        /* \"Day42_Sig.sol\":1979:2007  byte(0, mload(add(_sig,96))) */\n      byte\n        /* \"Day42_Sig.sol\":1974:2007  v := byte(0, mload(add(_sig,96))) */\n      swap1\n      pop\n        /* \"Day42_Sig.sol\":1713:2024  function _split(bytes memory _sig) internal pure returns (bytes32 r, bytes32 s, uint8 v) {... */\n      swap2\n      swap4\n      swap1\n      swap3\n      pop\n      jump\t// out\n        /* \"#utility.yul\":7:82   */\n    tag_51:\n        /* \"#utility.yul\":40:46   */\n      0x00\n        /* \"#utility.yul\":73:75   */\n      0x40\n        /* \"#utility.yul\":67:76   */\n      mload\n        /* \"#utility.yul\":57:76   */\n      swap1\n      pop\n        /* \"#utility.yul\":7:82   */\n      swap1\n      jump\t// out\n        /* \"#utility.yul\":88:205   */\n    tag_52:\n        /* \"#utility.yul\":197:198   */\n      0x00\n        /* \"#utility.yul\":194:195   */\n      dup1\n        /* \"#utility.yul\":187:199   */\n      revert\n        /* \"#utility.yul\":211:328   */\n    tag_53:\n        /* \"#utility.yul\":320:321   */\n      0x00\n        /* \"#utility.yul\":317:318   */\n      dup1\n        /* \"#utility.yul\":310:322   */\n      revert\n        /* \"#utility.yul\":334:411   */\n    tag_54:\n        /* \"#utility.yul\":371:378   */\n      0x00\n        /* \"#utility.yul\":400:405   */\n      dup2\n        /* \"#utility.yul\":389:405   */\n      swap1\n      pop\n        /* \"#utility.yul\":334:411   */\n      swap2\n      swap1\n      pop\n      jump\t// out\n        /* \"#utility.yul\":417:539   */\n    tag_55:\n        /* \"#utility.yul\":490:514   */\n      tag_97\n        /* \"#utility.yul\":508:513   */\n      dup2\n        /* \"#utility.yul\":490:514   */\n      tag_54\n      jump\t// in\n    tag_97:\n        /* \"#utility.yul\":483:488   */\n      dup2\n        /* \"#utility.yul\":480:515   */\n      eq\n        /* \"#utility.yul\":470:533   */\n      tag_98\n      jumpi\n        /* \"#utility.yul\":529:530   */\n      0x00\n        /* \"#utility.yul\":526:527   */\n      dup1\n        /* \"#utility.yul\":519:531   */\n      revert\n        /* \"#utility.yul\":470:533   */\n    tag_98:\n        /* \"#utility.yul\":417:539   */\n      pop\n      jump\t// out\n        /* \"#utility.yul\":545:684   */\n    tag_56:\n        /* \"#utility.yul\":591:596   */\n      0x00\n        /* \"#utility.yul\":629:635   */\n      dup2\n        /* \"#utility.yul\":616:636   */\n      calldataload\n        /* \"#utility.yul\":607:636   */\n      swap1\n      pop\n        /* \"#utility.yul\":645:678   */\n      tag_100\n        /* \"#utility.yul\":672:677   */\n      dup2\n        /* \"#utility.yul\":645:678   */\n      tag_55\n      jump\t// in\n    tag_100:\n        /* \"#utility.yul\":545:684   */\n      swap3\n      swap2\n      pop\n      pop\n      jump\t// out\n        /* \"#utility.yul\":690:807   */\n    tag_57:\n        /* \"#utility.yul\":799:800   */\n      0x00\n        /* \"#utility.yul\":796:797   */\n      dup1\n        /* \"#utility.yul\":789:801   */\n      revert\n        /* \"#utility.yul\":813:930   */\n    tag_58:\n        /* \"#utility.yul\":922:923   */\n      0x00\n        /* \"#utility.yul\":919:920   */\n      dup1\n        /* \"#utility.yul\":912:924   */\n      revert\n        /* \"#utility.yul\":936:1038   */\n    tag_59:\n        /* \"#utility.yul\":977:983   */\n      0x00\n        /* \"#utility.yul\":1028:1030   */\n      0x1f\n        /* \"#utility.yul\":1024:1031   */\n      not\n        /* \"#utility.yul\":1019:1021   */\n      0x1f\n        /* \"#utility.yul\":1012:1017   */\n      dup4\n        /* \"#utility.yul\":1008:1022   */\n      add\n        /* \"#utility.yul\":1004:1032   */\n      and\n        /* \"#utility.yul\":994:1032   */\n      swap1\n      pop\n        /* \"#utility.yul\":936:1038   */\n      swap2\n      swap1\n      pop\n      jump\t// out\n        /* \"#utility.yul\":1044:1224   */\n    tag_60:\n        /* \"#utility.yul\":1092:1169   */\n      0x4e487b7100000000000000000000000000000000000000000000000000000000\n        /* \"#utility.yul\":1089:1090   */\n      0x00\n        /* \"#utility.yul\":1082:1170   */\n      mstore\n        /* \"#utility.yul\":1189:1193   */\n      0x41\n        /* \"#utility.yul\":1186:1187   */\n      0x04\n        /* \"#utility.yul\":1179:1194   */\n      mstore\n        /* \"#utility.yul\":1213:1217   */\n      0x24\n        /* \"#utility.yul\":1210:1211   */\n      0x00\n        /* \"#utility.yul\":1203:1218   */\n      revert\n        /* \"#utility.yul\":1230:1511   */\n    tag_61:\n        /* \"#utility.yul\":1313:1340   */\n      tag_106\n        /* \"#utility.yul\":1335:1339   */\n      dup3\n        /* \"#utility.yul\":1313:1340   */\n      tag_59\n      jump\t// in\n    tag_106:\n        /* \"#utility.yul\":1305:1311   */\n      dup2\n        /* \"#utility.yul\":1301:1341   */\n      add\n        /* \"#utility.yul\":1443:1449   */\n      dup2\n        /* \"#utility.yul\":1431:1441   */\n      dup2\n        /* \"#utility.yul\":1428:1450   */\n      lt\n        /* \"#utility.yul\":1407:1425   */\n      0xffffffffffffffff\n        /* \"#utility.yul\":1395:1405   */\n      dup3\n        /* \"#utility.yul\":1392:1426   */\n      gt\n        /* \"#utility.yul\":1389:1451   */\n      or\n        /* \"#utility.yul\":1386:1474   */\n      iszero\n      tag_107\n      jumpi\n        /* \"#utility.yul\":1454:1472   */\n      tag_108\n      tag_60\n      jump\t// in\n    tag_108:\n        /* \"#utility.yul\":1386:1474   */\n    tag_107:\n        /* \"#utility.yul\":1494:1504   */\n      dup1\n        /* \"#utility.yul\":1490:1492   */\n      0x40\n        /* \"#utility.yul\":1483:1505   */\n      mstore\n        /* \"#utility.yul\":1273:1511   */\n      pop\n        /* \"#utility.yul\":1230:1511   */\n      pop\n      pop\n      jump\t// out\n        /* \"#utility.yul\":1517:1646   */\n    tag_62:\n        /* \"#utility.yul\":1551:1557   */\n      0x00\n        /* \"#utility.yul\":1578:1598   */\n      tag_110\n      tag_51\n      jump\t// in\n    tag_110:\n        /* \"#utility.yul\":1568:1598   */\n      swap1\n      pop\n        /* \"#utility.yul\":1607:1640   */\n      tag_111\n        /* \"#utility.yul\":1635:1639   */\n      dup3\n        /* \"#utility.yul\":1627:1633   */\n      dup3\n        /* \"#utility.yul\":1607:1640   */\n      tag_61\n      jump\t// in\n    tag_111:\n        /* \"#utility.yul\":1517:1646   */\n      swap2\n      swap1\n      pop\n      jump\t// out\n        /* \"#utility.yul\":1652:1959   */\n    tag_63:\n        /* \"#utility.yul\":1713:1717   */\n      0x00\n        /* \"#utility.yul\":1803:1821   */\n      0xffffffffffffffff\n        /* \"#utility.yul\":1795:1801   */\n      dup3\n        /* \"#utility.yul\":1792:1822   */\n      gt\n        /* \"#utility.yul\":1789:1845   */\n      iszero\n      tag_113\n      jumpi\n        /* \"#utility.yul\":1825:1843   */\n      tag_114\n      tag_60\n      jump\t// in\n    tag_114:\n        /* \"#utility.yul\":1789:1845   */\n    tag_113:\n        /* \"#utility.yul\":1863:1892   */\n      tag_115\n        /* \"#utility.yul\":1885:1891   */\n      dup3\n        /* \"#utility.yul\":1863:1892   */\n      tag_59\n      jump\t// in\n    tag_115:\n        /* \"#utility.yul\":1855:1892   */\n      swap1\n      pop\n        /* \"#utility.yul\":1947:1951   */\n      0x20\n        /* \"#utility.yul\":1941:1945   */\n      dup2\n        /* \"#utility.yul\":1937:1952   */\n      add\n        /* \"#utility.yul\":1929:1952   */\n      swap1\n      pop\n        /* \"#utility.yul\":1652:1959   */\n      swap2\n      swap1\n      pop\n      jump\t// out\n        /* \"#utility.yul\":1965:2119   */\n    tag_64:\n        /* \"#utility.yul\":2049:2055   */\n      dup3\n        /* \"#utility.yul\":2044:2047   */\n      dup2\n        /* \"#utility.yul\":2039:2042   */\n      dup4\n        /* \"#utility.yul\":2026:2056   */\n      calldatacopy\n        /* \"#utility.yul\":2111:2112   */\n      0x00\n        /* \"#utility.yul\":2102:2108   */\n      dup4\n        /* \"#utility.yul\":2097:2100   */\n      dup4\n        /* \"#utility.yul\":2093:2109   */\n      add\n        /* \"#utility.yul\":2086:2113   */\n      mstore\n        /* \"#utility.yul\":1965:2119   */\n      pop\n      pop\n      pop\n      jump\t// out\n        /* \"#utility.yul\":2125:2535   */\n    tag_65:\n        /* \"#utility.yul\":2202:2207   */\n      0x00\n        /* \"#utility.yul\":2227:2292   */\n      tag_118\n        /* \"#utility.yul\":2243:2291   */\n      tag_119\n        /* \"#utility.yul\":2284:2290   */\n      dup5\n        /* \"#utility.yul\":2243:2291   */\n      tag_63\n      jump\t// in\n    tag_119:\n        /* \"#utility.yul\":2227:2292   */\n      tag_62\n      jump\t// in\n    tag_118:\n        /* \"#utility.yul\":2218:2292   */\n      swap1\n      pop\n        /* \"#utility.yul\":2315:2321   */\n      dup3\n        /* \"#utility.yul\":2308:2313   */\n      dup2\n        /* \"#utility.yul\":2301:2322   */\n      mstore\n        /* \"#utility.yul\":2353:2357   */\n      0x20\n        /* \"#utility.yul\":2346:2351   */\n      dup2\n        /* \"#utility.yul\":2342:2358   */\n      add\n        /* \"#utility.yul\":2391:2394   */\n      dup5\n        /* \"#utility.yul\":2382:2388   */\n      dup5\n        /* \"#utility.yul\":2377:2380   */\n      dup5\n        /* \"#utility.yul\":2373:2389   */\n      add\n        /* \"#utility.yul\":2370:2395   */\n      gt\n        /* \"#utility.yul\":2367:2479   */\n      iszero\n      tag_120\n      jumpi\n        /* \"#utility.yul\":2398:2477   */\n      tag_121\n      tag_58\n      jump\t// in\n    tag_121:\n        /* \"#utility.yul\":2367:2479   */\n    tag_120:\n        /* \"#utility.yul\":2488:2529   */\n      tag_122\n        /* \"#utility.yul\":2522:2528   */\n      dup5\n        /* \"#utility.yul\":2517:2520   */\n      dup3\n        /* \"#utility.yul\":2512:2515   */\n      dup6\n        /* \"#utility.yul\":2488:2529   */\n      tag_64\n      jump\t// in\n    tag_122:\n        /* \"#utility.yul\":2208:2535   */\n      pop\n        /* \"#utility.yul\":2125:2535   */\n      swap4\n      swap3\n      pop\n      pop\n      pop\n      jump\t// out\n        /* \"#utility.yul\":2554:2892   */\n    tag_66:\n        /* \"#utility.yul\":2609:2614   */\n      0x00\n        /* \"#utility.yul\":2658:2661   */\n      dup3\n        /* \"#utility.yul\":2651:2655   */\n      0x1f\n        /* \"#utility.yul\":2643:2649   */\n      dup4\n        /* \"#utility.yul\":2639:2656   */\n      add\n        /* \"#utility.yul\":2635:2662   */\n      slt\n        /* \"#utility.yul\":2625:2747   */\n      tag_124\n      jumpi\n        /* \"#utility.yul\":2666:2745   */\n      tag_125\n      tag_57\n      jump\t// in\n    tag_125:\n        /* \"#utility.yul\":2625:2747   */\n    tag_124:\n        /* \"#utility.yul\":2783:2789   */\n      dup2\n        /* \"#utility.yul\":2770:2790   */\n      calldataload\n        /* \"#utility.yul\":2808:2886   */\n      tag_126\n        /* \"#utility.yul\":2882:2885   */\n      dup5\n        /* \"#utility.yul\":2874:2880   */\n      dup3\n        /* \"#utility.yul\":2867:2871   */\n      0x20\n        /* \"#utility.yul\":2859:2865   */\n      dup7\n        /* \"#utility.yul\":2855:2872   */\n      add\n        /* \"#utility.yul\":2808:2886   */\n      tag_65\n      jump\t// in\n    tag_126:\n        /* \"#utility.yul\":2799:2886   */\n      swap2\n      pop\n        /* \"#utility.yul\":2615:2892   */\n      pop\n        /* \"#utility.yul\":2554:2892   */\n      swap3\n      swap2\n      pop\n      pop\n      jump\t// out\n        /* \"#utility.yul\":2898:3550   */\n    tag_9:\n        /* \"#utility.yul\":2975:2981   */\n      0x00\n        /* \"#utility.yul\":2983:2989   */\n      dup1\n        /* \"#utility.yul\":3032:3034   */\n      0x40\n        /* \"#utility.yul\":3020:3029   */\n      dup4\n        /* \"#utility.yul\":3011:3018   */\n      dup6\n        /* \"#utility.yul\":3007:3030   */\n      sub\n        /* \"#utility.yul\":3003:3035   */\n      slt\n        /* \"#utility.yul\":3000:3119   */\n      iszero\n      tag_128\n      jumpi\n        /* \"#utility.yul\":3038:3117   */\n      tag_129\n      tag_52\n      jump\t// in\n    tag_129:\n        /* \"#utility.yul\":3000:3119   */\n    tag_128:\n        /* \"#utility.yul\":3158:3159   */\n      0x00\n        /* \"#utility.yul\":3183:3236   */\n      tag_130\n        /* \"#utility.yul\":3228:3235   */\n      dup6\n        /* \"#utility.yul\":3219:3225   */\n      dup3\n        /* \"#utility.yul\":3208:3217   */\n      dup7\n        /* \"#utility.yul\":3204:3226   */\n      add\n        /* \"#utility.yul\":3183:3236   */\n      tag_56\n      jump\t// in\n    tag_130:\n        /* \"#utility.yul\":3173:3236   */\n      swap3\n      pop\n        /* \"#utility.yul\":3129:3246   */\n      pop\n        /* \"#utility.yul\":3313:3315   */\n      0x20\n        /* \"#utility.yul\":3302:3311   */\n      dup4\n        /* \"#utility.yul\":3298:3316   */\n      add\n        /* \"#utility.yul\":3285:3317   */\n      calldataload\n        /* \"#utility.yul\":3344:3362   */\n      0xffffffffffffffff\n        /* \"#utility.yul\":3336:3342   */\n      dup2\n        /* \"#utility.yul\":3333:3363   */\n      gt\n        /* \"#utility.yul\":3330:3447   */\n      iszero\n      tag_131\n      jumpi\n        /* \"#utility.yul\":3366:3445   */\n      tag_132\n      tag_53\n      jump\t// in\n    tag_132:\n        /* \"#utility.yul\":3330:3447   */\n    tag_131:\n        /* \"#utility.yul\":3471:3533   */\n      tag_133\n        /* \"#utility.yul\":3525:3532   */\n      dup6\n        /* \"#utility.yul\":3516:3522   */\n      dup3\n        /* \"#utility.yul\":3505:3514   */\n      dup7\n        /* \"#utility.yul\":3501:3523   */\n      add\n        /* \"#utility.yul\":3471:3533   */\n      tag_66\n      jump\t// in\n    tag_133:\n        /* \"#utility.yul\":3461:3533   */\n      swap2\n      pop\n        /* \"#utility.yul\":3256:3543   */\n      pop\n        /* \"#utility.yul\":2898:3550   */\n      swap3\n      pop\n      swap3\n      swap1\n      pop\n      jump\t// out\n        /* \"#utility.yul\":3556:3682   */\n    tag_67:\n        /* \"#utility.yul\":3593:3600   */\n      0x00\n        /* \"#utility.yul\":3633:3675   */\n      0xffffffffffffffffffffffffffffffffffffffff\n        /* \"#utility.yul\":3626:3631   */\n      dup3\n        /* \"#utility.yul\":3622:3676   */\n      and\n        /* \"#utility.yul\":3611:3676   */\n      swap1\n      pop\n        /* \"#utility.yul\":3556:3682   */\n      swap2\n      swap1\n      pop\n      jump\t// out\n        /* \"#utility.yul\":3688:3784   */\n    tag_68:\n        /* \"#utility.yul\":3725:3732   */\n      0x00\n        /* \"#utility.yul\":3754:3778   */\n      tag_136\n        /* \"#utility.yul\":3772:3777   */\n      dup3\n        /* \"#utility.yul\":3754:3778   */\n      tag_67\n      jump\t// in\n    tag_136:\n        /* \"#utility.yul\":3743:3778   */\n      swap1\n      pop\n        /* \"#utility.yul\":3688:3784   */\n      swap2\n      swap1\n      pop\n      jump\t// out\n        /* \"#utility.yul\":3790:3908   */\n    tag_69:\n        /* \"#utility.yul\":3877:3901   */\n      tag_138\n        /* \"#utility.yul\":3895:3900   */\n      dup2\n        /* \"#utility.yul\":3877:3901   */\n      tag_68\n      jump\t// in\n    tag_138:\n        /* \"#utility.yul\":3872:3875   */\n      dup3\n        /* \"#utility.yul\":3865:3902   */\n      mstore\n        /* \"#utility.yul\":3790:3908   */\n      pop\n      pop\n      jump\t// out\n        /* \"#utility.yul\":3914:4136   */\n    tag_12:\n        /* \"#utility.yul\":4007:4011   */\n      0x00\n        /* \"#utility.yul\":4045:4047   */\n      0x20\n        /* \"#utility.yul\":4034:4043   */\n      dup3\n        /* \"#utility.yul\":4030:4048   */\n      add\n        /* \"#utility.yul\":4022:4048   */\n      swap1\n      pop\n        /* \"#utility.yul\":4058:4129   */\n      tag_140\n        /* \"#utility.yul\":4126:4127   */\n      0x00\n        /* \"#utility.yul\":4115:4124   */\n      dup4\n        /* \"#utility.yul\":4111:4128   */\n      add\n        /* \"#utility.yul\":4102:4108   */\n      dup5\n        /* \"#utility.yul\":4058:4129   */\n      tag_69\n      jump\t// in\n    tag_140:\n        /* \"#utility.yul\":3914:4136   */\n      swap3\n      swap2\n      pop\n      pop\n      jump\t// out\n        /* \"#utility.yul\":4142:4264   */\n    tag_70:\n        /* \"#utility.yul\":4215:4239   */\n      tag_142\n        /* \"#utility.yul\":4233:4238   */\n      dup2\n        /* \"#utility.yul\":4215:4239   */\n      tag_68\n      jump\t// in\n    tag_142:\n        /* \"#utility.yul\":4208:4213   */\n      dup2\n        /* \"#utility.yul\":4205:4240   */\n      eq\n        /* \"#utility.yul\":4195:4258   */\n      tag_143\n      jumpi\n        /* \"#utility.yul\":4254:4255   */\n      0x00\n        /* \"#utility.yul\":4251:4252   */\n      dup1\n        /* \"#utility.yul\":4244:4256   */\n      revert\n        /* \"#utility.yul\":4195:4258   */\n    tag_143:\n        /* \"#utility.yul\":4142:4264   */\n      pop\n      jump\t// out\n        /* \"#utility.yul\":4270:4409   */\n    tag_71:\n        /* \"#utility.yul\":4316:4321   */\n      0x00\n        /* \"#utility.yul\":4354:4360   */\n      dup2\n        /* \"#utility.yul\":4341:4361   */\n      calldataload\n        /* \"#utility.yul\":4332:4361   */\n      swap1\n      pop\n        /* \"#utility.yul\":4370:4403   */\n      tag_145\n        /* \"#utility.yul\":4397:4402   */\n      dup2\n        /* \"#utility.yul\":4370:4403   */\n      tag_70\n      jump\t// in\n    tag_145:\n        /* \"#utility.yul\":4270:4409   */\n      swap3\n      swap2\n      pop\n      pop\n      jump\t// out\n        /* \"#utility.yul\":4415:4723   */\n    tag_72:\n        /* \"#utility.yul\":4477:4481   */\n      0x00\n        /* \"#utility.yul\":4567:4585   */\n      0xffffffffffffffff\n        /* \"#utility.yul\":4559:4565   */\n      dup3\n        /* \"#utility.yul\":4556:4586   */\n      gt\n        /* \"#utility.yul\":4553:4609   */\n      iszero\n      tag_147\n      jumpi\n        /* \"#utility.yul\":4589:4607   */\n      tag_148\n      tag_60\n      jump\t// in\n    tag_148:\n        /* \"#utility.yul\":4553:4609   */\n    tag_147:\n        /* \"#utility.yul\":4627:4656   */\n      tag_149\n        /* \"#utility.yul\":4649:4655   */\n      dup3\n        /* \"#utility.yul\":4627:4656   */\n      tag_59\n      jump\t// in\n    tag_149:\n        /* \"#utility.yul\":4619:4656   */\n      swap1\n      pop\n        /* \"#utility.yul\":4711:4715   */\n      0x20\n        /* \"#utility.yul\":4705:4709   */\n      dup2\n        /* \"#utility.yul\":4701:4716   */\n      add\n        /* \"#utility.yul\":4693:4716   */\n      swap1\n      pop\n        /* \"#utility.yul\":4415:4723   */\n      swap2\n      swap1\n      pop\n      jump\t// out\n        /* \"#utility.yul\":4729:5141   */\n    tag_73:\n        /* \"#utility.yul\":4807:4812   */\n      0x00\n        /* \"#utility.yul\":4832:4898   */\n      tag_151\n        /* \"#utility.yul\":4848:4897   */\n      tag_152\n        /* \"#utility.yul\":4890:4896   */\n      dup5\n        /* \"#utility.yul\":4848:4897   */\n      tag_72\n      jump\t// in\n    tag_152:\n        /* \"#utility.yul\":4832:4898   */\n      tag_62\n      jump\t// in\n    tag_151:\n        /* \"#utility.yul\":4823:4898   */\n      swap1\n      pop\n        /* \"#utility.yul\":4921:4927   */\n      dup3\n        /* \"#utility.yul\":4914:4919   */\n      dup2\n        /* \"#utility.yul\":4907:4928   */\n      mstore\n        /* \"#utility.yul\":4959:4963   */\n      0x20\n        /* \"#utility.yul\":4952:4957   */\n      dup2\n        /* \"#utility.yul\":4948:4964   */\n      add\n        /* \"#utility.yul\":4997:5000   */\n      dup5\n        /* \"#utility.yul\":4988:4994   */\n      dup5\n        /* \"#utility.yul\":4983:4986   */\n      dup5\n        /* \"#utility.yul\":4979:4995   */\n      add\n        /* \"#utility.yul\":4976:5001   */\n      gt\n        /* \"#utility.yul\":4973:5085   */\n      iszero\n      tag_153\n      jumpi\n        /* \"#utility.yul\":5004:5083   */\n      tag_154\n      tag_58\n      jump\t// in\n    tag_154:\n        /* \"#utility.yul\":4973:5085   */\n    tag_153:\n        /* \"#utility.yul\":5094:5135   */\n      tag_155\n        /* \"#utility.yul\":5128:5134   */\n      dup5\n        /* \"#utility.yul\":5123:5126   */\n      dup3\n        /* \"#utility.yul\":5118:5121   */\n      dup6\n        /* \"#utility.yul\":5094:5135   */\n      tag_64\n      jump\t// in\n    tag_155:\n        /* \"#utility.yul\":4813:5141   */\n      pop\n        /* \"#utility.yul\":4729:5141   */\n      swap4\n      swap3\n      pop\n      pop\n      pop\n      jump\t// out\n        /* \"#utility.yul\":5161:5501   */\n    tag_74:\n        /* \"#utility.yul\":5217:5222   */\n      0x00\n        /* \"#utility.yul\":5266:5269   */\n      dup3\n        /* \"#utility.yul\":5259:5263   */\n      0x1f\n        /* \"#utility.yul\":5251:5257   */\n      dup4\n        /* \"#utility.yul\":5247:5264   */\n      add\n        /* \"#utility.yul\":5243:5270   */\n      slt\n        /* \"#utility.yul\":5233:5355   */\n      tag_157\n      jumpi\n        /* \"#utility.yul\":5274:5353   */\n      tag_158\n      tag_57\n      jump\t// in\n    tag_158:\n        /* \"#utility.yul\":5233:5355   */\n    tag_157:\n        /* \"#utility.yul\":5391:5397   */\n      dup2\n        /* \"#utility.yul\":5378:5398   */\n      calldataload\n        /* \"#utility.yul\":5416:5495   */\n      tag_159\n        /* \"#utility.yul\":5491:5494   */\n      dup5\n        /* \"#utility.yul\":5483:5489   */\n      dup3\n        /* \"#utility.yul\":5476:5480   */\n      0x20\n        /* \"#utility.yul\":5468:5474   */\n      dup7\n        /* \"#utility.yul\":5464:5481   */\n      add\n        /* \"#utility.yul\":5416:5495   */\n      tag_73\n      jump\t// in\n    tag_159:\n        /* \"#utility.yul\":5407:5495   */\n      swap2\n      pop\n        /* \"#utility.yul\":5223:5501   */\n      pop\n        /* \"#utility.yul\":5161:5501   */\n      swap3\n      swap2\n      pop\n      pop\n      jump\t// out\n        /* \"#utility.yul\":5507:6484   */\n    tag_15:\n        /* \"#utility.yul\":5603:5609   */\n      0x00\n        /* \"#utility.yul\":5611:5617   */\n      dup1\n        /* \"#utility.yul\":5619:5625   */\n      0x00\n        /* \"#utility.yul\":5668:5670   */\n      0x60\n        /* \"#utility.yul\":5656:5665   */\n      dup5\n        /* \"#utility.yul\":5647:5654   */\n      dup7\n        /* \"#utility.yul\":5643:5666   */\n      sub\n        /* \"#utility.yul\":5639:5671   */\n      slt\n        /* \"#utility.yul\":5636:5755   */\n      iszero\n      tag_161\n      jumpi\n        /* \"#utility.yul\":5674:5753   */\n      tag_162\n      tag_52\n      jump\t// in\n    tag_162:\n        /* \"#utility.yul\":5636:5755   */\n    tag_161:\n        /* \"#utility.yul\":5794:5795   */\n      0x00\n        /* \"#utility.yul\":5819:5872   */\n      tag_163\n        /* \"#utility.yul\":5864:5871   */\n      dup7\n        /* \"#utility.yul\":5855:5861   */\n      dup3\n        /* \"#utility.yul\":5844:5853   */\n      dup8\n        /* \"#utility.yul\":5840:5862   */\n      add\n        /* \"#utility.yul\":5819:5872   */\n      tag_71\n      jump\t// in\n    tag_163:\n        /* \"#utility.yul\":5809:5872   */\n      swap4\n      pop\n        /* \"#utility.yul\":5765:5882   */\n      pop\n        /* \"#utility.yul\":5949:5951   */\n      0x20\n        /* \"#utility.yul\":5938:5947   */\n      dup5\n        /* \"#utility.yul\":5934:5952   */\n      add\n        /* \"#utility.yul\":5921:5953   */\n      calldataload\n        /* \"#utility.yul\":5980:5998   */\n      0xffffffffffffffff\n        /* \"#utility.yul\":5972:5978   */\n      dup2\n        /* \"#utility.yul\":5969:5999   */\n      gt\n        /* \"#utility.yul\":5966:6083   */\n      iszero\n      tag_164\n      jumpi\n        /* \"#utility.yul\":6002:6081   */\n      tag_165\n      tag_53\n      jump\t// in\n    tag_165:\n        /* \"#utility.yul\":5966:6083   */\n    tag_164:\n        /* \"#utility.yul\":6107:6170   */\n      tag_166\n        /* \"#utility.yul\":6162:6169   */\n      dup7\n        /* \"#utility.yul\":6153:6159   */\n      dup3\n        /* \"#utility.yul\":6142:6151   */\n      dup8\n        /* \"#utility.yul\":6138:6160   */\n      add\n        /* \"#utility.yul\":6107:6170   */\n      tag_74\n      jump\t// in\n    tag_166:\n        /* \"#utility.yul\":6097:6170   */\n      swap3\n      pop\n        /* \"#utility.yul\":5892:6180   */\n      pop\n        /* \"#utility.yul\":6247:6249   */\n      0x40\n        /* \"#utility.yul\":6236:6245   */\n      dup5\n        /* \"#utility.yul\":6232:6250   */\n      add\n        /* \"#utility.yul\":6219:6251   */\n      calldataload\n        /* \"#utility.yul\":6278:6296   */\n      0xffffffffffffffff\n        /* \"#utility.yul\":6270:6276   */\n      dup2\n        /* \"#utility.yul\":6267:6297   */\n      gt\n        /* \"#utility.yul\":6264:6381   */\n      iszero\n      tag_167\n      jumpi\n        /* \"#utility.yul\":6300:6379   */\n      tag_168\n      tag_53\n      jump\t// in\n    tag_168:\n        /* \"#utility.yul\":6264:6381   */\n    tag_167:\n        /* \"#utility.yul\":6405:6467   */\n      tag_169\n        /* \"#utility.yul\":6459:6466   */\n      dup7\n        /* \"#utility.yul\":6450:6456   */\n      dup3\n        /* \"#utility.yul\":6439:6448   */\n      dup8\n        /* \"#utility.yul\":6435:6457   */\n      add\n        /* \"#utility.yul\":6405:6467   */\n      tag_66\n      jump\t// in\n    tag_169:\n        /* \"#utility.yul\":6395:6467   */\n      swap2\n      pop\n        /* \"#utility.yul\":6190:6477   */\n      pop\n        /* \"#utility.yul\":5507:6484   */\n      swap3\n      pop\n      swap3\n      pop\n      swap3\n      jump\t// out\n        /* \"#utility.yul\":6490:6580   */\n    tag_75:\n        /* \"#utility.yul\":6524:6531   */\n      0x00\n        /* \"#utility.yul\":6567:6572   */\n      dup2\n        /* \"#utility.yul\":6560:6573   */\n      iszero\n        /* \"#utility.yul\":6553:6574   */\n      iszero\n        /* \"#utility.yul\":6542:6574   */\n      swap1\n      pop\n        /* \"#utility.yul\":6490:6580   */\n      swap2\n      swap1\n      pop\n      jump\t// out\n        /* \"#utility.yul\":6586:6695   */\n    tag_76:\n        /* \"#utility.yul\":6667:6688   */\n      tag_172\n        /* \"#utility.yul\":6682:6687   */\n      dup2\n        /* \"#utility.yul\":6667:6688   */\n      tag_75\n      jump\t// in\n    tag_172:\n        /* \"#utility.yul\":6662:6665   */\n      dup3\n        /* \"#utility.yul\":6655:6689   */\n      mstore\n        /* \"#utility.yul\":6586:6695   */\n      pop\n      pop\n      jump\t// out\n        /* \"#utility.yul\":6701:6911   */\n    tag_18:\n        /* \"#utility.yul\":6788:6792   */\n      0x00\n        /* \"#utility.yul\":6826:6828   */\n      0x20\n        /* \"#utility.yul\":6815:6824   */\n      dup3\n        /* \"#utility.yul\":6811:6829   */\n      add\n        /* \"#utility.yul\":6803:6829   */\n      swap1\n      pop\n        /* \"#utility.yul\":6839:6904   */\n      tag_174\n        /* \"#utility.yul\":6901:6902   */\n      0x00\n        /* \"#utility.yul\":6890:6899   */\n      dup4\n        /* \"#utility.yul\":6886:6903   */\n      add\n        /* \"#utility.yul\":6877:6883   */\n      dup5\n        /* \"#utility.yul\":6839:6904   */\n      tag_76\n      jump\t// in\n    tag_174:\n        /* \"#utility.yul\":6701:6911   */\n      swap3\n      swap2\n      pop\n      pop\n      jump\t// out\n        /* \"#utility.yul\":6917:7246   */\n    tag_21:\n        /* \"#utility.yul\":6976:6982   */\n      0x00\n        /* \"#utility.yul\":7025:7027   */\n      0x20\n        /* \"#utility.yul\":7013:7022   */\n      dup3\n        /* \"#utility.yul\":7004:7011   */\n      dup5\n        /* \"#utility.yul\":7000:7023   */\n      sub\n        /* \"#utility.yul\":6996:7028   */\n      slt\n        /* \"#utility.yul\":6993:7112   */\n      iszero\n      tag_176\n      jumpi\n        /* \"#utility.yul\":7031:7110   */\n      tag_177\n      tag_52\n      jump\t// in\n    tag_177:\n        /* \"#utility.yul\":6993:7112   */\n    tag_176:\n        /* \"#utility.yul\":7151:7152   */\n      0x00\n        /* \"#utility.yul\":7176:7229   */\n      tag_178\n        /* \"#utility.yul\":7221:7228   */\n      dup5\n        /* \"#utility.yul\":7212:7218   */\n      dup3\n        /* \"#utility.yul\":7201:7210   */\n      dup6\n        /* \"#utility.yul\":7197:7219   */\n      add\n        /* \"#utility.yul\":7176:7229   */\n      tag_56\n      jump\t// in\n    tag_178:\n        /* \"#utility.yul\":7166:7229   */\n      swap2\n      pop\n        /* \"#utility.yul\":7122:7239   */\n      pop\n        /* \"#utility.yul\":6917:7246   */\n      swap3\n      swap2\n      pop\n      pop\n      jump\t// out\n        /* \"#utility.yul\":7252:7370   */\n    tag_77:\n        /* \"#utility.yul\":7339:7363   */\n      tag_180\n        /* \"#utility.yul\":7357:7362   */\n      dup2\n        /* \"#utility.yul\":7339:7363   */\n      tag_54\n      jump\t// in\n    tag_180:\n        /* \"#utility.yul\":7334:7337   */\n      dup3\n        /* \"#utility.yul\":7327:7364   */\n      mstore\n        /* \"#utility.yul\":7252:7370   */\n      pop\n      pop\n      jump\t// out\n        /* \"#utility.yul\":7376:7598   */\n    tag_24:\n        /* \"#utility.yul\":7469:7473   */\n      0x00\n        /* \"#utility.yul\":7507:7509   */\n      0x20\n        /* \"#utility.yul\":7496:7505   */\n      dup3\n        /* \"#utility.yul\":7492:7510   */\n      add\n        /* \"#utility.yul\":7484:7510   */\n      swap1\n      pop\n        /* \"#utility.yul\":7520:7591   */\n      tag_182\n        /* \"#utility.yul\":7588:7589   */\n      0x00\n        /* \"#utility.yul\":7577:7586   */\n      dup4\n        /* \"#utility.yul\":7573:7590   */\n      add\n        /* \"#utility.yul\":7564:7570   */\n      dup5\n        /* \"#utility.yul\":7520:7591   */\n      tag_77\n      jump\t// in\n    tag_182:\n        /* \"#utility.yul\":7376:7598   */\n      swap3\n      swap2\n      pop\n      pop\n      jump\t// out\n        /* \"#utility.yul\":7604:8113   */\n    tag_27:\n        /* \"#utility.yul\":7673:7679   */\n      0x00\n        /* \"#utility.yul\":7722:7724   */\n      0x20\n        /* \"#utility.yul\":7710:7719   */\n      dup3\n        /* \"#utility.yul\":7701:7708   */\n      dup5\n        /* \"#utility.yul\":7697:7720   */\n      sub\n        /* \"#utility.yul\":7693:7725   */\n      slt\n        /* \"#utility.yul\":7690:7809   */\n      iszero\n      tag_184\n      jumpi\n        /* \"#utility.yul\":7728:7807   */\n      tag_185\n      tag_52\n      jump\t// in\n    tag_185:\n        /* \"#utility.yul\":7690:7809   */\n    tag_184:\n        /* \"#utility.yul\":7876:7877   */\n      0x00\n        /* \"#utility.yul\":7865:7874   */\n      dup3\n        /* \"#utility.yul\":7861:7878   */\n      add\n        /* \"#utility.yul\":7848:7879   */\n      calldataload\n        /* \"#utility.yul\":7906:7924   */\n      0xffffffffffffffff\n        /* \"#utility.yul\":7898:7904   */\n      dup2\n        /* \"#utility.yul\":7895:7925   */\n      gt\n        /* \"#utility.yul\":7892:8009   */\n      iszero\n      tag_186\n      jumpi\n        /* \"#utility.yul\":7928:8007   */\n      tag_187\n      tag_53\n      jump\t// in\n    tag_187:\n        /* \"#utility.yul\":7892:8009   */\n    tag_186:\n        /* \"#utility.yul\":8033:8096   */\n      tag_188\n        /* \"#utility.yul\":8088:8095   */\n      dup5\n        /* \"#utility.yul\":8079:8085   */\n      dup3\n        /* \"#utility.yul\":8068:8077   */\n      dup6\n        /* \"#utility.yul\":8064:8086   */\n      add\n        /* \"#utility.yul\":8033:8096   */\n      tag_74\n      jump\t// in\n    tag_188:\n        /* \"#utility.yul\":8023:8096   */\n      swap2\n      pop\n        /* \"#utility.yul\":7819:8106   */\n      pop\n        /* \"#utility.yul\":7604:8113   */\n      swap3\n      swap2\n      pop\n      pop\n      jump\t// out\n        /* \"#utility.yul\":8119:8205   */\n    tag_78:\n        /* \"#utility.yul\":8154:8161   */\n      0x00\n        /* \"#utility.yul\":8194:8198   */\n      0xff\n        /* \"#utility.yul\":8187:8192   */\n      dup3\n        /* \"#utility.yul\":8183:8199   */\n      and\n        /* \"#utility.yul\":8172:8199   */\n      swap1\n      pop\n        /* \"#utility.yul\":8119:8205   */\n      swap2\n      swap1\n      pop\n      jump\t// out\n        /* \"#utility.yul\":8211:8323   */\n    tag_79:\n        /* \"#utility.yul\":8294:8316   */\n      tag_191\n        /* \"#utility.yul\":8310:8315   */\n      dup2\n        /* \"#utility.yul\":8294:8316   */\n      tag_78\n      jump\t// in\n    tag_191:\n        /* \"#utility.yul\":8289:8292   */\n      dup3\n        /* \"#utility.yul\":8282:8317   */\n      mstore\n        /* \"#utility.yul\":8211:8323   */\n      pop\n      pop\n      jump\t// out\n        /* \"#utility.yul\":8329:8874   */\n    tag_34:\n        /* \"#utility.yul\":8502:8506   */\n      0x00\n        /* \"#utility.yul\":8540:8543   */\n      0x80\n        /* \"#utility.yul\":8529:8538   */\n      dup3\n        /* \"#utility.yul\":8525:8544   */\n      add\n        /* \"#utility.yul\":8517:8544   */\n      swap1\n      pop\n        /* \"#utility.yul\":8554:8625   */\n      tag_193\n        /* \"#utility.yul\":8622:8623   */\n      0x00\n        /* \"#utility.yul\":8611:8620   */\n      dup4\n        /* \"#utility.yul\":8607:8624   */\n      add\n        /* \"#utility.yul\":8598:8604   */\n      dup8\n        /* \"#utility.yul\":8554:8625   */\n      tag_77\n      jump\t// in\n    tag_193:\n        /* \"#utility.yul\":8635:8703   */\n      tag_194\n        /* \"#utility.yul\":8699:8701   */\n      0x20\n        /* \"#utility.yul\":8688:8697   */\n      dup4\n        /* \"#utility.yul\":8684:8702   */\n      add\n        /* \"#utility.yul\":8675:8681   */\n      dup7\n        /* \"#utility.yul\":8635:8703   */\n      tag_79\n      jump\t// in\n    tag_194:\n        /* \"#utility.yul\":8713:8785   */\n      tag_195\n        /* \"#utility.yul\":8781:8783   */\n      0x40\n        /* \"#utility.yul\":8770:8779   */\n      dup4\n        /* \"#utility.yul\":8766:8784   */\n      add\n        /* \"#utility.yul\":8757:8763   */\n      dup6\n        /* \"#utility.yul\":8713:8785   */\n      tag_77\n      jump\t// in\n    tag_195:\n        /* \"#utility.yul\":8795:8867   */\n      tag_196\n        /* \"#utility.yul\":8863:8865   */\n      0x60\n        /* \"#utility.yul\":8852:8861   */\n      dup4\n        /* \"#utility.yul\":8848:8866   */\n      add\n        /* \"#utility.yul\":8839:8845   */\n      dup5\n        /* \"#utility.yul\":8795:8867   */\n      tag_77\n      jump\t// in\n    tag_196:\n        /* \"#utility.yul\":8329:8874   */\n      swap6\n      swap5\n      pop\n      pop\n      pop\n      pop\n      pop\n      jump\t// out\n        /* \"#utility.yul\":8880:9028   */\n    tag_80:\n        /* \"#utility.yul\":8982:8993   */\n      0x00\n        /* \"#utility.yul\":9019:9022   */\n      dup2\n        /* \"#utility.yul\":9004:9022   */\n      swap1\n      pop\n        /* \"#utility.yul\":8880:9028   */\n      swap3\n      swap2\n      pop\n      pop\n      jump\t// out\n        /* \"#utility.yul\":9034:9248   */\n    tag_81:\n        /* \"#utility.yul\":9174:9240   */\n      0x19457468657265756d205369676e6564204d6573736167653a0a333200000000\n        /* \"#utility.yul\":9170:9171   */\n      0x00\n        /* \"#utility.yul\":9162:9168   */\n      dup3\n        /* \"#utility.yul\":9158:9172   */\n      add\n        /* \"#utility.yul\":9151:9241   */\n      mstore\n        /* \"#utility.yul\":9034:9248   */\n      pop\n      jump\t// out\n        /* \"#utility.yul\":9254:9656   */\n    tag_82:\n        /* \"#utility.yul\":9414:9417   */\n      0x00\n        /* \"#utility.yul\":9435:9520   */\n      tag_200\n        /* \"#utility.yul\":9517:9519   */\n      0x1c\n        /* \"#utility.yul\":9512:9515   */\n      dup4\n        /* \"#utility.yul\":9435:9520   */\n      tag_80\n      jump\t// in\n    tag_200:\n        /* \"#utility.yul\":9428:9520   */\n      swap2\n      pop\n        /* \"#utility.yul\":9529:9622   */\n      tag_201\n        /* \"#utility.yul\":9618:9621   */\n      dup3\n        /* \"#utility.yul\":9529:9622   */\n      tag_81\n      jump\t// in\n    tag_201:\n        /* \"#utility.yul\":9647:9649   */\n      0x1c\n        /* \"#utility.yul\":9642:9645   */\n      dup3\n        /* \"#utility.yul\":9638:9650   */\n      add\n        /* \"#utility.yul\":9631:9650   */\n      swap1\n      pop\n        /* \"#utility.yul\":9254:9656   */\n      swap2\n      swap1\n      pop\n      jump\t// out\n        /* \"#utility.yul\":9662:9741   */\n    tag_83:\n        /* \"#utility.yul\":9701:9708   */\n      0x00\n        /* \"#utility.yul\":9730:9735   */\n      dup2\n        /* \"#utility.yul\":9719:9735   */\n      swap1\n      pop\n        /* \"#utility.yul\":9662:9741   */\n      swap2\n      swap1\n      pop\n      jump\t// out\n        /* \"#utility.yul\":9747:9904   */\n    tag_84:\n        /* \"#utility.yul\":9852:9897   */\n      tag_204\n        /* \"#utility.yul\":9872:9896   */\n      tag_205\n        /* \"#utility.yul\":9890:9895   */\n      dup3\n        /* \"#utility.yul\":9872:9896   */\n      tag_54\n      jump\t// in\n    tag_205:\n        /* \"#utility.yul\":9852:9897   */\n      tag_83\n      jump\t// in\n    tag_204:\n        /* \"#utility.yul\":9847:9850   */\n      dup3\n        /* \"#utility.yul\":9840:9898   */\n      mstore\n        /* \"#utility.yul\":9747:9904   */\n      pop\n      pop\n      jump\t// out\n        /* \"#utility.yul\":9910:10432   */\n    tag_43:\n        /* \"#utility.yul\":10123:10126   */\n      0x00\n        /* \"#utility.yul\":10145:10293   */\n      tag_207\n        /* \"#utility.yul\":10289:10292   */\n      dup3\n        /* \"#utility.yul\":10145:10293   */\n      tag_82\n      jump\t// in\n    tag_207:\n        /* \"#utility.yul\":10138:10293   */\n      swap2\n      pop\n        /* \"#utility.yul\":10303:10378   */\n      tag_208\n        /* \"#utility.yul\":10374:10377   */\n      dup3\n        /* \"#utility.yul\":10365:10371   */\n      dup5\n        /* \"#utility.yul\":10303:10378   */\n      tag_84\n      jump\t// in\n    tag_208:\n        /* \"#utility.yul\":10403:10405   */\n      0x20\n        /* \"#utility.yul\":10398:10401   */\n      dup3\n        /* \"#utility.yul\":10394:10406   */\n      add\n        /* \"#utility.yul\":10387:10406   */\n      swap2\n      pop\n        /* \"#utility.yul\":10423:10426   */\n      dup2\n        /* \"#utility.yul\":10416:10426   */\n      swap1\n      pop\n        /* \"#utility.yul\":9910:10432   */\n      swap3\n      swap2\n      pop\n      pop\n      jump\t// out\n        /* \"#utility.yul\":10438:10537   */\n    tag_85:\n        /* \"#utility.yul\":10490:10496   */\n      0x00\n        /* \"#utility.yul\":10524:10529   */\n      dup2\n        /* \"#utility.yul\":10518:10530   */\n      mload\n        /* \"#utility.yul\":10508:10530   */\n      swap1\n      pop\n        /* \"#utility.yul\":10438:10537   */\n      swap2\n      swap1\n      pop\n      jump\t// out\n        /* \"#utility.yul\":10543:10850   */\n    tag_86:\n        /* \"#utility.yul\":10611:10612   */\n      0x00\n        /* \"#utility.yul\":10621:10734   */\n    tag_211:\n        /* \"#utility.yul\":10635:10641   */\n      dup4\n        /* \"#utility.yul\":10632:10633   */\n      dup2\n        /* \"#utility.yul\":10629:10642   */\n      lt\n        /* \"#utility.yul\":10621:10734   */\n      iszero\n      tag_213\n      jumpi\n        /* \"#utility.yul\":10720:10721   */\n      dup1\n        /* \"#utility.yul\":10715:10718   */\n      dup3\n        /* \"#utility.yul\":10711:10722   */\n      add\n        /* \"#utility.yul\":10705:10723   */\n      mload\n        /* \"#utility.yul\":10701:10702   */\n      dup2\n        /* \"#utility.yul\":10696:10699   */\n      dup5\n        /* \"#utility.yul\":10692:10703   */\n      add\n        /* \"#utility.yul\":10685:10724   */\n      mstore\n        /* \"#utility.yul\":10657:10659   */\n      0x20\n        /* \"#utility.yul\":10654:10655   */\n      dup2\n        /* \"#utility.yul\":10650:10660   */\n      add\n        /* \"#utility.yul\":10645:10660   */\n      swap1\n      pop\n        /* \"#utility.yul\":10621:10734   */\n      jump(tag_211)\n    tag_213:\n        /* \"#utility.yul\":10752:10758   */\n      dup4\n        /* \"#utility.yul\":10749:10750   */\n      dup2\n        /* \"#utility.yul\":10746:10759   */\n      gt\n        /* \"#utility.yul\":10743:10844   */\n      iszero\n      tag_214\n      jumpi\n        /* \"#utility.yul\":10832:10833   */\n      0x00\n        /* \"#utility.yul\":10823:10829   */\n      dup5\n        /* \"#utility.yul\":10818:10821   */\n      dup5\n        /* \"#utility.yul\":10814:10830   */\n      add\n        /* \"#utility.yul\":10807:10834   */\n      mstore\n        /* \"#utility.yul\":10743:10844   */\n    tag_214:\n        /* \"#utility.yul\":10592:10850   */\n      pop\n        /* \"#utility.yul\":10543:10850   */\n      pop\n      pop\n      pop\n      jump\t// out\n        /* \"#utility.yul\":10856:11233   */\n    tag_87:\n        /* \"#utility.yul\":10962:10965   */\n      0x00\n        /* \"#utility.yul\":10990:11029   */\n      tag_216\n        /* \"#utility.yul\":11023:11028   */\n      dup3\n        /* \"#utility.yul\":10990:11029   */\n      tag_85\n      jump\t// in\n    tag_216:\n        /* \"#utility.yul\":11045:11134   */\n      tag_217\n        /* \"#utility.yul\":11127:11133   */\n      dup2\n        /* \"#utility.yul\":11122:11125   */\n      dup6\n        /* \"#utility.yul\":11045:11134   */\n      tag_80\n      jump\t// in\n    tag_217:\n        /* \"#utility.yul\":11038:11134   */\n      swap4\n      pop\n        /* \"#utility.yul\":11143:11195   */\n      tag_218\n        /* \"#utility.yul\":11188:11194   */\n      dup2\n        /* \"#utility.yul\":11183:11186   */\n      dup6\n        /* \"#utility.yul\":11176:11180   */\n      0x20\n        /* \"#utility.yul\":11169:11174   */\n      dup7\n        /* \"#utility.yul\":11165:11181   */\n      add\n        /* \"#utility.yul\":11143:11195   */\n      tag_86\n      jump\t// in\n    tag_218:\n        /* \"#utility.yul\":11220:11226   */\n      dup1\n        /* \"#utility.yul\":11215:11218   */\n      dup5\n        /* \"#utility.yul\":11211:11227   */\n      add\n        /* \"#utility.yul\":11204:11227   */\n      swap2\n      pop\n        /* \"#utility.yul\":10966:11233   */\n      pop\n        /* \"#utility.yul\":10856:11233   */\n      swap3\n      swap2\n      pop\n      pop\n      jump\t// out\n        /* \"#utility.yul\":11239:11514   */\n    tag_46:\n        /* \"#utility.yul\":11371:11374   */\n      0x00\n        /* \"#utility.yul\":11393:11488   */\n      tag_220\n        /* \"#utility.yul\":11484:11487   */\n      dup3\n        /* \"#utility.yul\":11475:11481   */\n      dup5\n        /* \"#utility.yul\":11393:11488   */\n      tag_87\n      jump\t// in\n    tag_220:\n        /* \"#utility.yul\":11386:11488   */\n      swap2\n      pop\n        /* \"#utility.yul\":11505:11508   */\n      dup2\n        /* \"#utility.yul\":11498:11508   */\n      swap1\n      pop\n        /* \"#utility.yul\":11239:11514   */\n      swap3\n      swap2\n      pop\n      pop\n      jump\t// out\n        /* \"#utility.yul\":11520:11689   */\n    tag_88:\n        /* \"#utility.yul\":11604:11615   */\n      0x00\n        /* \"#utility.yul\":11638:11644   */\n      dup3\n        /* \"#utility.yul\":11633:11636   */\n      dup3\n        /* \"#utility.yul\":11626:11645   */\n      mstore\n        /* \"#utility.yul\":11678:11682   */\n      0x20\n        /* \"#utility.yul\":11673:11676   */\n      dup3\n        /* \"#utility.yul\":11669:11683   */\n      add\n        /* \"#utility.yul\":11654:11683   */\n      swap1\n      pop\n        /* \"#utility.yul\":11520:11689   */\n      swap3\n      swap2\n      pop\n      pop\n      jump\t// out\n        /* \"#utility.yul\":11695:11869   */\n    tag_89:\n        /* \"#utility.yul\":11835:11861   */\n      0x696e76616c6964207369676e6174757265206c656e6774680000000000000000\n        /* \"#utility.yul\":11831:11832   */\n      0x00\n        /* \"#utility.yul\":11823:11829   */\n      dup3\n        /* \"#utility.yul\":11819:11833   */\n      add\n        /* \"#utility.yul\":11812:11862   */\n      mstore\n        /* \"#utility.yul\":11695:11869   */\n      pop\n      jump\t// out\n        /* \"#utility.yul\":11875:12241   */\n    tag_90:\n        /* \"#utility.yul\":12017:12020   */\n      0x00\n        /* \"#utility.yul\":12038:12105   */\n      tag_224\n        /* \"#utility.yul\":12102:12104   */\n      0x18\n        /* \"#utility.yul\":12097:12100   */\n      dup4\n        /* \"#utility.yul\":12038:12105   */\n      tag_88\n      jump\t// in\n    tag_224:\n        /* \"#utility.yul\":12031:12105   */\n      swap2\n      pop\n        /* \"#utility.yul\":12114:12207   */\n      tag_225\n        /* \"#utility.yul\":12203:12206   */\n      dup3\n        /* \"#utility.yul\":12114:12207   */\n      tag_89\n      jump\t// in\n    tag_225:\n        /* \"#utility.yul\":12232:12234   */\n      0x20\n        /* \"#utility.yul\":12227:12230   */\n      dup3\n        /* \"#utility.yul\":12223:12235   */\n      add\n        /* \"#utility.yul\":12216:12235   */\n      swap1\n      pop\n        /* \"#utility.yul\":11875:12241   */\n      swap2\n      swap1\n      pop\n      jump\t// out\n        /* \"#utility.yul\":12247:12666   */\n    tag_50:\n        /* \"#utility.yul\":12413:12417   */\n      0x00\n        /* \"#utility.yul\":12451:12453   */\n      0x20\n        /* \"#utility.yul\":12440:12449   */\n      dup3\n        /* \"#utility.yul\":12436:12454   */\n      add\n        /* \"#utility.yul\":12428:12454   */\n      swap1\n      pop\n        /* \"#utility.yul\":12500:12509   */\n      dup2\n        /* \"#utility.yul\":12494:12498   */\n      dup2\n        /* \"#utility.yul\":12490:12510   */\n      sub\n        /* \"#utility.yul\":12486:12487   */\n      0x00\n        /* \"#utility.yul\":12475:12484   */\n      dup4\n        /* \"#utility.yul\":12471:12488   */\n      add\n        /* \"#utility.yul\":12464:12511   */\n      mstore\n        /* \"#utility.yul\":12528:12659   */\n      tag_227\n        /* \"#utility.yul\":12654:12658   */\n      dup2\n        /* \"#utility.yul\":12528:12659   */\n      tag_90\n      jump\t// in\n    tag_227:\n        /* \"#utility.yul\":12520:12659   */\n      swap1\n      pop\n        /* \"#utility.yul\":12247:12666   */\n      swap2\n      swap1\n      pop\n      jump\t// out\n\n    auxdata: 0xa2646970667358221220d2e7626f15c4f63acbe1bb5d40b9916b7d2d77a16bc37e7aaaf5baf69161cf0764736f6c634300080f0033\n}\n",
				"bytecode": {
					"linkReferences": {},
					"object": "608060405234801561001057600080fd5b50610954806100206000396000f3fe608060405234801561001057600080fd5b506004361061004c5760003560e01c806319045a25146100515780632dd34f0f146100815780633f63bc39146100b1578063b446f3b2146100e1575b600080fd5b61006b60048036038101906100669190610436565b610111565b60405161007891906104d3565b60405180910390f35b61009b600480360381019061009691906105bb565b610180565b6040516100a89190610661565b60405180910390f35b6100cb60048036038101906100c6919061067c565b6101de565b6040516100d891906106b8565b60405180910390f35b6100fb60048036038101906100f691906106d3565b61020e565b60405161010891906106b8565b60405180910390f35b6000806000806101208561023e565b925092509250600186828585604051600081526020016040526040516101499493929190610738565b6020604051602081039080840390855afa15801561016b573d6000803e3d6000fd5b50505060206040510351935050505092915050565b60008061018c8461020e565b90506000610199826101de565b90508573ffffffffffffffffffffffffffffffffffffffff166101bc8286610111565b73ffffffffffffffffffffffffffffffffffffffff1614925050509392505050565b6000816040516020016101f191906107f5565b604051602081830303815290604052805190602001209050919050565b600081604051602001610221919061088a565b604051602081830303815290604052805190602001209050919050565b60008060006041845114610287576040517f08c379a000000000000000000000000000000000000000000000000000000000815260040161027e906108fe565b60405180910390fd5b6020840151925060408401519150606084015160001a90509193909250565b6000604051905090565b600080fd5b600080fd5b6000819050919050565b6102cd816102ba565b81146102d857600080fd5b50565b6000813590506102ea816102c4565b92915050565b600080fd5b600080fd5b6000601f19601f8301169050919050565b7f4e487b7100000000000000000000000000000000000000000000000000000000600052604160045260246000fd5b610343826102fa565b810181811067ffffffffffffffff821117156103625761036161030b565b5b80604052505050565b60006103756102a6565b9050610381828261033a565b919050565b600067ffffffffffffffff8211156103a1576103a061030b565b5b6103aa826102fa565b9050602081019050919050565b82818337600083830152505050565b60006103d96103d484610386565b61036b565b9050828152602081018484840111156103f5576103f46102f5565b5b6104008482856103b7565b509392505050565b600082601f83011261041d5761041c6102f0565b5b813561042d8482602086016103c6565b91505092915050565b6000806040838503121561044d5761044c6102b0565b5b600061045b858286016102db565b925050602083013567ffffffffffffffff81111561047c5761047b6102b5565b5b61048885828601610408565b9150509250929050565b600073ffffffffffffffffffffffffffffffffffffffff82169050919050565b60006104bd82610492565b9050919050565b6104cd816104b2565b82525050565b60006020820190506104e860008301846104c4565b92915050565b6104f7816104b2565b811461050257600080fd5b50565b600081359050610514816104ee565b92915050565b600067ffffffffffffffff8211156105355761053461030b565b5b61053e826102fa565b9050602081019050919050565b600061055e6105598461051a565b61036b565b90508281526020810184848401111561057a576105796102f5565b5b6105858482856103b7565b509392505050565b600082601f8301126105a2576105a16102f0565b5b81356105b284826020860161054b565b91505092915050565b6000806000606084860312156105d4576105d36102b0565b5b60006105e286828701610505565b935050602084013567ffffffffffffffff811115610603576106026102b5565b5b61060f8682870161058d565b925050604084013567ffffffffffffffff8111156106305761062f6102b5565b5b61063c86828701610408565b9150509250925092565b60008115159050919050565b61065b81610646565b82525050565b60006020820190506106766000830184610652565b92915050565b600060208284031215610692576106916102b0565b5b60006106a0848285016102db565b91505092915050565b6106b2816102ba565b82525050565b60006020820190506106cd60008301846106a9565b92915050565b6000602082840312156106e9576106e86102b0565b5b600082013567ffffffffffffffff811115610707576107066102b5565b5b6107138482850161058d565b91505092915050565b600060ff82169050919050565b6107328161071c565b82525050565b600060808201905061074d60008301876106a9565b61075a6020830186610729565b61076760408301856106a9565b61077460608301846106a9565b95945050505050565b600081905092915050565b7f19457468657265756d205369676e6564204d6573736167653a0a333200000000600082015250565b60006107be601c8361077d565b91506107c982610788565b601c82019050919050565b6000819050919050565b6107ef6107ea826102ba565b6107d4565b82525050565b6000610800826107b1565b915061080c82846107de565b60208201915081905092915050565b600081519050919050565b60005b83811015610844578082015181840152602081019050610829565b83811115610853576000848401525b50505050565b60006108648261081b565b61086e818561077d565b935061087e818560208601610826565b80840191505092915050565b60006108968284610859565b915081905092915050565b600082825260208201905092915050565b7f696e76616c6964207369676e6174757265206c656e6774680000000000000000600082015250565b60006108e86018836108a1565b91506108f3826108b2565b602082019050919050565b60006020820190508181036000830152610917816108db565b905091905056fea2646970667358221220d2e7626f15c4f63acbe1bb5d40b9916b7d2d77a16bc37e7aaaf5baf69161cf0764736f6c634300080f0033",
					"opcodes": "PUSH1 0x80 PUSH1 0x40 MSTORE CALLVALUE DUP1 ISZERO PUSH2 0x10 JUMPI PUSH1 0x0 DUP1 REVERT JUMPDEST POP PUSH2 0x954 DUP1 PUSH2 0x20 PUSH1 0x0 CODECOPY PUSH1 0x0 RETURN INVALID PUSH1 0x80 PUSH1 0x40 MSTORE CALLVALUE DUP1 ISZERO PUSH2 0x10 JUMPI PUSH1 0x0 DUP1 REVERT JUMPDEST POP PUSH1 0x4 CALLDATASIZE LT PUSH2 0x4C JUMPI PUSH1 0x0 CALLDATALOAD PUSH1 0xE0 SHR DUP1 PUSH4 0x19045A25 EQ PUSH2 0x51 JUMPI DUP1 PUSH4 0x2DD34F0F EQ PUSH2 0x81 JUMPI DUP1 PUSH4 0x3F63BC39 EQ PUSH2 0xB1 JUMPI DUP1 PUSH4 0xB446F3B2 EQ PUSH2 0xE1 JUMPI JUMPDEST PUSH1 0x0 DUP1 REVERT JUMPDEST PUSH2 0x6B PUSH1 0x4 DUP1 CALLDATASIZE SUB DUP2 ADD SWAP1 PUSH2 0x66 SWAP2 SWAP1 PUSH2 0x436 JUMP JUMPDEST PUSH2 0x111 JUMP JUMPDEST PUSH1 0x40 MLOAD PUSH2 0x78 SWAP2 SWAP1 PUSH2 0x4D3 JUMP JUMPDEST PUSH1 0x40 MLOAD DUP1 SWAP2 SUB SWAP1 RETURN JUMPDEST PUSH2 0x9B PUSH1 0x4 DUP1 CALLDATASIZE SUB DUP2 ADD SWAP1 PUSH2 0x96 SWAP2 SWAP1 PUSH2 0x5BB JUMP JUMPDEST PUSH2 0x180 JUMP JUMPDEST PUSH1 0x40 MLOAD PUSH2 0xA8 SWAP2 SWAP1 PUSH2 0x661 JUMP JUMPDEST PUSH1 0x40 MLOAD DUP1 SWAP2 SUB SWAP1 RETURN JUMPDEST PUSH2 0xCB PUSH1 0x4 DUP1 CALLDATASIZE SUB DUP2 ADD SWAP1 PUSH2 0xC6 SWAP2 SWAP1 PUSH2 0x67C JUMP JUMPDEST PUSH2 0x1DE JUMP JUMPDEST PUSH1 0x40 MLOAD PUSH2 0xD8 SWAP2 SWAP1 PUSH2 0x6B8 JUMP JUMPDEST PUSH1 0x40 MLOAD DUP1 SWAP2 SUB SWAP1 RETURN JUMPDEST PUSH2 0xFB PUSH1 0x4 DUP1 CALLDATASIZE SUB DUP2 ADD SWAP1 PUSH2 0xF6 SWAP2 SWAP1 PUSH2 0x6D3 JUMP JUMPDEST PUSH2 0x20E JUMP JUMPDEST PUSH1 0x40 MLOAD PUSH2 0x108 SWAP2 SWAP1 PUSH2 0x6B8 JUMP JUMPDEST PUSH1 0x40 MLOAD DUP1 SWAP2 SUB SWAP1 RETURN JUMPDEST PUSH1 0x0 DUP1 PUSH1 0x0 DUP1 PUSH2 0x120 DUP6 PUSH2 0x23E JUMP JUMPDEST SWAP3 POP SWAP3 POP SWAP3 POP PUSH1 0x1 DUP7 DUP3 DUP6 DUP6 PUSH1 0x40 MLOAD PUSH1 0x0 DUP2 MSTORE PUSH1 0x20 ADD PUSH1 0x40 MSTORE PUSH1 0x40 MLOAD PUSH2 0x149 SWAP5 SWAP4 SWAP3 SWAP2 SWAP1 PUSH2 0x738 JUMP JUMPDEST PUSH1 0x20 PUSH1 0x40 MLOAD PUSH1 0x20 DUP2 SUB SWAP1 DUP1 DUP5 SUB SWAP1 DUP6 GAS STATICCALL ISZERO DUP1 ISZERO PUSH2 0x16B JUMPI RETURNDATASIZE PUSH1 0x0 DUP1 RETURNDATACOPY RETURNDATASIZE PUSH1 0x0 REVERT JUMPDEST POP POP POP PUSH1 0x20 PUSH1 0x40 MLOAD SUB MLOAD SWAP4 POP POP POP POP SWAP3 SWAP2 POP POP JUMP JUMPDEST PUSH1 0x0 DUP1 PUSH2 0x18C DUP5 PUSH2 0x20E JUMP JUMPDEST SWAP1 POP PUSH1 0x0 PUSH2 0x199 DUP3 PUSH2 0x1DE JUMP JUMPDEST SWAP1 POP DUP6 PUSH20 0xFFFFFFFFFFFFFFFFFFFFFFFFFFFFFFFFFFFFFFFF AND PUSH2 0x1BC DUP3 DUP7 PUSH2 0x111 JUMP JUMPDEST PUSH20 0xFFFFFFFFFFFFFFFFFFFFFFFFFFFFFFFFFFFFFFFF AND EQ SWAP3 POP POP POP SWAP4 SWAP3 POP POP POP JUMP JUMPDEST PUSH1 0x0 DUP2 PUSH1 0x40 MLOAD PUSH1 0x20 ADD PUSH2 0x1F1 SWAP2 SWAP1 PUSH2 0x7F5 JUMP JUMPDEST PUSH1 0x40 MLOAD PUSH1 0x20 DUP2 DUP4 SUB SUB DUP2 MSTORE SWAP1 PUSH1 0x40 MSTORE DUP1 MLOAD SWAP1 PUSH1 0x20 ADD KECCAK256 SWAP1 POP SWAP2 SWAP1 POP JUMP JUMPDEST PUSH1 0x0 DUP2 PUSH1 0x40 MLOAD PUSH1 0x20 ADD PUSH2 0x221 SWAP2 SWAP1 PUSH2 0x88A JUMP JUMPDEST PUSH1 0x40 MLOAD PUSH1 0x20 DUP2 DUP4 SUB SUB DUP2 MSTORE SWAP1 PUSH1 0x40 MSTORE DUP1 MLOAD SWAP1 PUSH1 0x20 ADD KECCAK256 SWAP1 POP SWAP2 SWAP1 POP JUMP JUMPDEST PUSH1 0x0 DUP1 PUSH1 0x0 PUSH1 0x41 DUP5 MLOAD EQ PUSH2 0x287 JUMPI PUSH1 0x40 MLOAD PUSH32 0x8C379A000000000000000000000000000000000000000000000000000000000 DUP2 MSTORE PUSH1 0x4 ADD PUSH2 0x27E SWAP1 PUSH2 0x8FE JUMP JUMPDEST PUSH1 0x40 MLOAD DUP1 SWAP2 SUB SWAP1 REVERT JUMPDEST PUSH1 0x20 DUP5 ADD MLOAD SWAP3 POP PUSH1 0x40 DUP5 ADD MLOAD SWAP2 POP PUSH1 0x60 DUP5 ADD MLOAD PUSH1 0x0 BYTE SWAP1 POP SWAP2 SWAP4 SWAP1 SWAP3 POP JUMP JUMPDEST PUSH1 0x0 PUSH1 0x40 MLOAD SWAP1 POP SWAP1 JUMP JUMPDEST PUSH1 0x0 DUP1 REVERT JUMPDEST PUSH1 0x0 DUP1 REVERT JUMPDEST PUSH1 0x0 DUP2 SWAP1 POP SWAP2 SWAP1 POP JUMP JUMPDEST PUSH2 0x2CD DUP2 PUSH2 0x2BA JUMP JUMPDEST DUP2 EQ PUSH2 0x2D8 JUMPI PUSH1 0x0 DUP1 REVERT JUMPDEST POP JUMP JUMPDEST PUSH1 0x0 DUP2 CALLDATALOAD SWAP1 POP PUSH2 0x2EA DUP2 PUSH2 0x2C4 JUMP JUMPDEST SWAP3 SWAP2 POP POP JUMP JUMPDEST PUSH1 0x0 DUP1 REVERT JUMPDEST PUSH1 0x0 DUP1 REVERT JUMPDEST PUSH1 0x0 PUSH1 0x1F NOT PUSH1 0x1F DUP4 ADD AND SWAP1 POP SWAP2 SWAP1 POP JUMP JUMPDEST PUSH32 0x4E487B7100000000000000000000000000000000000000000000000000000000 PUSH1 0x0 MSTORE PUSH1 0x41 PUSH1 0x4 MSTORE PUSH1 0x24 PUSH1 0x0 REVERT JUMPDEST PUSH2 0x343 DUP3 PUSH2 0x2FA JUMP JUMPDEST DUP2 ADD DUP2 DUP2 LT PUSH8 0xFFFFFFFFFFFFFFFF DUP3 GT OR ISZERO PUSH2 0x362 JUMPI PUSH2 0x361 PUSH2 0x30B JUMP JUMPDEST JUMPDEST DUP1 PUSH1 0x40 MSTORE POP POP POP JUMP JUMPDEST PUSH1 0x0 PUSH2 0x375 PUSH2 0x2A6 JUMP JUMPDEST SWAP1 POP PUSH2 0x381 DUP3 DUP3 PUSH2 0x33A JUMP JUMPDEST SWAP2 SWAP1 POP JUMP JUMPDEST PUSH1 0x0 PUSH8 0xFFFFFFFFFFFFFFFF DUP3 GT ISZERO PUSH2 0x3A1 JUMPI PUSH2 0x3A0 PUSH2 0x30B JUMP JUMPDEST JUMPDEST PUSH2 0x3AA DUP3 PUSH2 0x2FA JUMP JUMPDEST SWAP1 POP PUSH1 0x20 DUP2 ADD SWAP1 POP SWAP2 SWAP1 POP JUMP JUMPDEST DUP3 DUP2 DUP4 CALLDATACOPY PUSH1 0x0 DUP4 DUP4 ADD MSTORE POP POP POP JUMP JUMPDEST PUSH1 0x0 PUSH2 0x3D9 PUSH2 0x3D4 DUP5 PUSH2 0x386 JUMP JUMPDEST PUSH2 0x36B JUMP JUMPDEST SWAP1 POP DUP3 DUP2 MSTORE PUSH1 0x20 DUP2 ADD DUP5 DUP5 DUP5 ADD GT ISZERO PUSH2 0x3F5 JUMPI PUSH2 0x3F4 PUSH2 0x2F5 JUMP JUMPDEST JUMPDEST PUSH2 0x400 DUP5 DUP3 DUP6 PUSH2 0x3B7 JUMP JUMPDEST POP SWAP4 SWAP3 POP POP POP JUMP JUMPDEST PUSH1 0x0 DUP3 PUSH1 0x1F DUP4 ADD SLT PUSH2 0x41D JUMPI PUSH2 0x41C PUSH2 0x2F0 JUMP JUMPDEST JUMPDEST DUP2 CALLDATALOAD PUSH2 0x42D DUP5 DUP3 PUSH1 0x20 DUP7 ADD PUSH2 0x3C6 JUMP JUMPDEST SWAP2 POP POP SWAP3 SWAP2 POP POP JUMP JUMPDEST PUSH1 0x0 DUP1 PUSH1 0x40 DUP4 DUP6 SUB SLT ISZERO PUSH2 0x44D JUMPI PUSH2 0x44C PUSH2 0x2B0 JUMP JUMPDEST JUMPDEST PUSH1 0x0 PUSH2 0x45B DUP6 DUP3 DUP7 ADD PUSH2 0x2DB JUMP JUMPDEST SWAP3 POP POP PUSH1 0x20 DUP4 ADD CALLDATALOAD PUSH8 0xFFFFFFFFFFFFFFFF DUP2 GT ISZERO PUSH2 0x47C JUMPI PUSH2 0x47B PUSH2 0x2B5 JUMP JUMPDEST JUMPDEST PUSH2 0x488 DUP6 DUP3 DUP7 ADD PUSH2 0x408 JUMP JUMPDEST SWAP2 POP POP SWAP3 POP SWAP3 SWAP1 POP JUMP JUMPDEST PUSH1 0x0 PUSH20 0xFFFFFFFFFFFFFFFFFFFFFFFFFFFFFFFFFFFFFFFF DUP3 AND SWAP1 POP SWAP2 SWAP1 POP JUMP JUMPDEST PUSH1 0x0 PUSH2 0x4BD DUP3 PUSH2 0x492 JUMP JUMPDEST SWAP1 POP SWAP2 SWAP1 POP JUMP JUMPDEST PUSH2 0x4CD DUP2 PUSH2 0x4B2 JUMP JUMPDEST DUP3 MSTORE POP POP JUMP JUMPDEST PUSH1 0x0 PUSH1 0x20 DUP3 ADD SWAP1 POP PUSH2 0x4E8 PUSH1 0x0 DUP4 ADD DUP5 PUSH2 0x4C4 JUMP JUMPDEST SWAP3 SWAP2 POP POP JUMP JUMPDEST PUSH2 0x4F7 DUP2 PUSH2 0x4B2 JUMP JUMPDEST DUP2 EQ PUSH2 0x502 JUMPI PUSH1 0x0 DUP1 REVERT JUMPDEST POP JUMP JUMPDEST PUSH1 0x0 DUP2 CALLDATALOAD SWAP1 POP PUSH2 0x514 DUP2 PUSH2 0x4EE JUMP JUMPDEST SWAP3 SWAP2 POP POP JUMP JUMPDEST PUSH1 0x0 PUSH8 0xFFFFFFFFFFFFFFFF DUP3 GT ISZERO PUSH2 0x535 JUMPI PUSH2 0x534 PUSH2 0x30B JUMP JUMPDEST JUMPDEST PUSH2 0x53E DUP3 PUSH2 0x2FA JUMP JUMPDEST SWAP1 POP PUSH1 0x20 DUP2 ADD SWAP1 POP SWAP2 SWAP1 POP JUMP JUMPDEST PUSH1 0x0 PUSH2 0x55E PUSH2 0x559 DUP5 PUSH2 0x51A JUMP JUMPDEST PUSH2 0x36B JUMP JUMPDEST SWAP1 POP DUP3 DUP2 MSTORE PUSH1 0x20 DUP2 ADD DUP5 DUP5 DUP5 ADD GT ISZERO PUSH2 0x57A JUMPI PUSH2 0x579 PUSH2 0x2F5 JUMP JUMPDEST JUMPDEST PUSH2 0x585 DUP5 DUP3 DUP6 PUSH2 0x3B7 JUMP JUMPDEST POP SWAP4 SWAP3 POP POP POP JUMP JUMPDEST PUSH1 0x0 DUP3 PUSH1 0x1F DUP4 ADD SLT PUSH2 0x5A2 JUMPI PUSH2 0x5A1 PUSH2 0x2F0 JUMP JUMPDEST JUMPDEST DUP2 CALLDATALOAD PUSH2 0x5B2 DUP5 DUP3 PUSH1 0x20 DUP7 ADD PUSH2 0x54B JUMP JUMPDEST SWAP2 POP POP SWAP3 SWAP2 POP POP JUMP JUMPDEST PUSH1 0x0 DUP1 PUSH1 0x0 PUSH1 0x60 DUP5 DUP7 SUB SLT ISZERO PUSH2 0x5D4 JUMPI PUSH2 0x5D3 PUSH2 0x2B0 JUMP JUMPDEST JUMPDEST PUSH1 0x0 PUSH2 0x5E2 DUP7 DUP3 DUP8 ADD PUSH2 0x505 JUMP JUMPDEST SWAP4 POP POP PUSH1 0x20 DUP5 ADD CALLDATALOAD PUSH8 0xFFFFFFFFFFFFFFFF DUP2 GT ISZERO PUSH2 0x603 JUMPI PUSH2 0x602 PUSH2 0x2B5 JUMP JUMPDEST JUMPDEST PUSH2 0x60F DUP7 DUP3 DUP8 ADD PUSH2 0x58D JUMP JUMPDEST SWAP3 POP POP PUSH1 0x40 DUP5 ADD CALLDATALOAD PUSH8 0xFFFFFFFFFFFFFFFF DUP2 GT ISZERO PUSH2 0x630 JUMPI PUSH2 0x62F PUSH2 0x2B5 JUMP JUMPDEST JUMPDEST PUSH2 0x63C DUP7 DUP3 DUP8 ADD PUSH2 0x408 JUMP JUMPDEST SWAP2 POP POP SWAP3 POP SWAP3 POP SWAP3 JUMP JUMPDEST PUSH1 0x0 DUP2 ISZERO ISZERO SWAP1 POP SWAP2 SWAP1 POP JUMP JUMPDEST PUSH2 0x65B DUP2 PUSH2 0x646 JUMP JUMPDEST DUP3 MSTORE POP POP JUMP JUMPDEST PUSH1 0x0 PUSH1 0x20 DUP3 ADD SWAP1 POP PUSH2 0x676 PUSH1 0x0 DUP4 ADD DUP5 PUSH2 0x652 JUMP JUMPDEST SWAP3 SWAP2 POP POP JUMP JUMPDEST PUSH1 0x0 PUSH1 0x20 DUP3 DUP5 SUB SLT ISZERO PUSH2 0x692 JUMPI PUSH2 0x691 PUSH2 0x2B0 JUMP JUMPDEST JUMPDEST PUSH1 0x0 PUSH2 0x6A0 DUP5 DUP3 DUP6 ADD PUSH2 0x2DB JUMP JUMPDEST SWAP2 POP POP SWAP3 SWAP2 POP POP JUMP JUMPDEST PUSH2 0x6B2 DUP2 PUSH2 0x2BA JUMP JUMPDEST DUP3 MSTORE POP POP JUMP JUMPDEST PUSH1 0x0 PUSH1 0x20 DUP3 ADD SWAP1 POP PUSH2 0x6CD PUSH1 0x0 DUP4 ADD DUP5 PUSH2 0x6A9 JUMP JUMPDEST SWAP3 SWAP2 POP POP JUMP JUMPDEST PUSH1 0x0 PUSH1 0x20 DUP3 DUP5 SUB SLT ISZERO PUSH2 0x6E9 JUMPI PUSH2 0x6E8 PUSH2 0x2B0 JUMP JUMPDEST JUMPDEST PUSH1 0x0 DUP3 ADD CALLDATALOAD PUSH8 0xFFFFFFFFFFFFFFFF DUP2 GT ISZERO PUSH2 0x707 JUMPI PUSH2 0x706 PUSH2 0x2B5 JUMP JUMPDEST JUMPDEST PUSH2 0x713 DUP5 DUP3 DUP6 ADD PUSH2 0x58D JUMP JUMPDEST SWAP2 POP POP SWAP3 SWAP2 POP POP JUMP JUMPDEST PUSH1 0x0 PUSH1 0xFF DUP3 AND SWAP1 POP SWAP2 SWAP1 POP JUMP JUMPDEST PUSH2 0x732 DUP2 PUSH2 0x71C JUMP JUMPDEST DUP3 MSTORE POP POP JUMP JUMPDEST PUSH1 0x0 PUSH1 0x80 DUP3 ADD SWAP1 POP PUSH2 0x74D PUSH1 0x0 DUP4 ADD DUP8 PUSH2 0x6A9 JUMP JUMPDEST PUSH2 0x75A PUSH1 0x20 DUP4 ADD DUP7 PUSH2 0x729 JUMP JUMPDEST PUSH2 0x767 PUSH1 0x40 DUP4 ADD DUP6 PUSH2 0x6A9 JUMP JUMPDEST PUSH2 0x774 PUSH1 0x60 DUP4 ADD DUP5 PUSH2 0x6A9 JUMP JUMPDEST SWAP6 SWAP5 POP POP POP POP POP JUMP JUMPDEST PUSH1 0x0 DUP2 SWAP1 POP SWAP3 SWAP2 POP POP JUMP JUMPDEST PUSH32 0x19457468657265756D205369676E6564204D6573736167653A0A333200000000 PUSH1 0x0 DUP3 ADD MSTORE POP JUMP JUMPDEST PUSH1 0x0 PUSH2 0x7BE PUSH1 0x1C DUP4 PUSH2 0x77D JUMP JUMPDEST SWAP2 POP PUSH2 0x7C9 DUP3 PUSH2 0x788 JUMP JUMPDEST PUSH1 0x1C DUP3 ADD SWAP1 POP SWAP2 SWAP1 POP JUMP JUMPDEST PUSH1 0x0 DUP2 SWAP1 POP SWAP2 SWAP1 POP JUMP JUMPDEST PUSH2 0x7EF PUSH2 0x7EA DUP3 PUSH2 0x2BA JUMP JUMPDEST PUSH2 0x7D4 JUMP JUMPDEST DUP3 MSTORE POP POP JUMP JUMPDEST PUSH1 0x0 PUSH2 0x800 DUP3 PUSH2 0x7B1 JUMP JUMPDEST SWAP2 POP PUSH2 0x80C DUP3 DUP5 PUSH2 0x7DE JUMP JUMPDEST PUSH1 0x20 DUP3 ADD SWAP2 POP DUP2 SWAP1 POP SWAP3 SWAP2 POP POP JUMP JUMPDEST PUSH1 0x0 DUP2 MLOAD SWAP1 POP SWAP2 SWAP1 POP JUMP JUMPDEST PUSH1 0x0 JUMPDEST DUP4 DUP2 LT ISZERO PUSH2 0x844 JUMPI DUP1 DUP3 ADD MLOAD DUP2 DUP5 ADD MSTORE PUSH1 0x20 DUP2 ADD SWAP1 POP PUSH2 0x829 JUMP JUMPDEST DUP4 DUP2 GT ISZERO PUSH2 0x853 JUMPI PUSH1 0x0 DUP5 DUP5 ADD MSTORE JUMPDEST POP POP POP POP JUMP JUMPDEST PUSH1 0x0 PUSH2 0x864 DUP3 PUSH2 0x81B JUMP JUMPDEST PUSH2 0x86E DUP2 DUP6 PUSH2 0x77D JUMP JUMPDEST SWAP4 POP PUSH2 0x87E DUP2 DUP6 PUSH1 0x20 DUP7 ADD PUSH2 0x826 JUMP JUMPDEST DUP1 DUP5 ADD SWAP2 POP POP SWAP3 SWAP2 POP POP JUMP JUMPDEST PUSH1 0x0 PUSH2 0x896 DUP3 DUP5 PUSH2 0x859 JUMP JUMPDEST SWAP2 POP DUP2 SWAP1 POP SWAP3 SWAP2 POP POP JUMP JUMPDEST PUSH1 0x0 DUP3 DUP3 MSTORE PUSH1 0x20 DUP3 ADD SWAP1 POP SWAP3 SWAP2 POP POP JUMP JUMPDEST PUSH32 0x696E76616C6964207369676E6174757265206C656E6774680000000000000000 PUSH1 0x0 DUP3 ADD MSTORE POP JUMP JUMPDEST PUSH1 0x0 PUSH2 0x8E8 PUSH1 0x18 DUP4 PUSH2 0x8A1 JUMP JUMPDEST SWAP2 POP PUSH2 0x8F3 DUP3 PUSH2 0x8B2 JUMP JUMPDEST PUSH1 0x20 DUP3 ADD SWAP1 POP SWAP2 SWAP1 POP JUMP JUMPDEST PUSH1 0x0 PUSH1 0x20 DUP3 ADD SWAP1 POP DUP2 DUP2 SUB PUSH1 0x0 DUP4 ADD MSTORE PUSH2 0x917 DUP2 PUSH2 0x8DB JUMP JUMPDEST SWAP1 POP SWAP2 SWAP1 POP JUMP INVALID LOG2 PUSH5 0x6970667358 0x22 SLT KECCAK256 0xD2 0xE7 PUSH3 0x6F15C4 0xF6 GASPRICE 0xCB 0xE1 0xBB 0x5D BLOCKHASH 0xB9 SWAP2 PUSH12 0x7D2D77A16BC37E7AAAF5BAF6 SWAP2 PUSH2 0xCF07 PUSH5 0x736F6C6343 STOP ADDMOD 0xF STOP CALLER "
				},
				"gasEstimates": {
					"creation": {
						"codeDepositCost": "477600",
						"executionCost": "511",
						"totalCost": "478111"
					},
					"external": {
						"getEthSignMessageHash(bytes32)": "infinite",
						"getMessageHash(string)": "infinite",
						"recover(bytes32,bytes)": "infinite",
						"verify(address,string,bytes)": "infinite"
					},
					"internal": {
						"_split(bytes memory)": "infinite"
					}
				},
				"methodIdentifiers": {
					"getEthSignMessageHash(bytes32)": "3f63bc39",
					"getMessageHash(string)": "b446f3b2",
					"recover(bytes32,bytes)": "19045a25",
					"verify(address,string,bytes)": "2dd34f0f"
				}
			},
			"storageLayout": {
				"storage": [],
				"types": null
			},
			"userdoc": {
				"kind": "user",
				"methods": {},
				"version": 1
			}
		}
	}
}