{
	"Day29_Visibllty.sol": {
		"Visibillity": {
			"abi": [
				{
					"inputs": [],
					"name": "examples",
					"outputs": [],
					"stateMutability": "view",
					"type": "function"
				},
				{
					"inputs": [],
					"name": "externalFunction",
					"outputs": [
						{
							"internalType": "uint256",
							"name": "",
							"type": "uint256"
						}
					],
					"stateMutability": "pure",
					"type": "function"
				},
				{
					"inputs": [],
					"name": "publicFunction",
					"outputs": [
						{
							"internalType": "uint256",
							"name": "",
							"type": "uint256"
						}
					],
					"stateMutability": "pure",
					"type": "function"
				},
				{
					"inputs": [],
					"name": "z",
					"outputs": [
						{
							"internalType": "uint256",
							"name": "",
							"type": "uint256"
						}
					],
					"stateMutability": "view",
					"type": "function"
				}
			],
			"devdoc": {
				"kind": "dev",
				"methods": {},
				"version": 1
			},
			"evm": {
				"assembly": "    /* \"Day29_Visibllty.sol\":58:744  contract Visibillity {... */\n  mstore(0x40, 0x80)\n    /* \"Day29_Visibllty.sol\":102:103  0 */\n  0x00\n    /* \"Day29_Visibllty.sol\":85:103  uint private x = 0 */\n  dup1\n  sstore\n    /* \"Day29_Visibllty.sol\":127:128  1 */\n  0x01\n    /* \"Day29_Visibllty.sol\":109:128  uint internal y = 1 */\n  dup1\n  sstore\n    /* \"Day29_Visibllty.sol\":150:151  2 */\n  0x02\n    /* \"Day29_Visibllty.sol\":134:151  uint public z = 2 */\n  dup1\n  sstore\n    /* \"Day29_Visibllty.sol\":58:744  contract Visibillity {... */\n  callvalue\n  dup1\n  iszero\n  tag_1\n  jumpi\n  0x00\n  dup1\n  revert\ntag_1:\n  pop\n  dataSize(sub_0)\n  dup1\n  dataOffset(sub_0)\n  0x00\n  codecopy\n  0x00\n  return\nstop\n\nsub_0: assembly {\n        /* \"Day29_Visibllty.sol\":58:744  contract Visibillity {... */\n      mstore(0x40, 0x80)\n      callvalue\n      dup1\n      iszero\n      tag_1\n      jumpi\n      0x00\n      dup1\n      revert\n    tag_1:\n      pop\n      jumpi(tag_2, lt(calldatasize, 0x04))\n      shr(0xe0, calldataload(0x00))\n      dup1\n      0x335d00c2\n      eq\n      tag_3\n      jumpi\n      dup1\n      0x3a32b549\n      eq\n      tag_4\n      jumpi\n      dup1\n      0x7b5d520b\n      eq\n      tag_5\n      jumpi\n      dup1\n      0xc5d7802e\n      eq\n      tag_6\n      jumpi\n    tag_2:\n      0x00\n      dup1\n      revert\n        /* \"Day29_Visibllty.sol\":518:742  function examples() external view {... */\n    tag_3:\n      tag_7\n      tag_8\n      jump\t// in\n    tag_7:\n      stop\n        /* \"Day29_Visibllty.sol\":427:512  function externalFunction () external pure returns (uint) {... */\n    tag_4:\n      tag_9\n      tag_10\n      jump\t// in\n    tag_9:\n      mload(0x40)\n      tag_11\n      swap2\n      swap1\n      tag_12\n      jump\t// in\n    tag_11:\n      mload(0x40)\n      dup1\n      swap2\n      sub\n      swap1\n      return\n        /* \"Day29_Visibllty.sol\":340:421  function publicFunction () public pure returns (uint) {... */\n    tag_5:\n      tag_13\n      tag_14\n      jump\t// in\n    tag_13:\n      mload(0x40)\n      tag_15\n      swap2\n      swap1\n      tag_12\n      jump\t// in\n    tag_15:\n      mload(0x40)\n      dup1\n      swap2\n      sub\n      swap1\n      return\n        /* \"Day29_Visibllty.sol\":134:151  uint public z = 2 */\n    tag_6:\n      tag_16\n      tag_17\n      jump\t// in\n    tag_16:\n      mload(0x40)\n      tag_18\n      swap2\n      swap1\n      tag_12\n      jump\t// in\n    tag_18:\n      mload(0x40)\n      dup1\n      swap2\n      sub\n      swap1\n      return\n        /* \"Day29_Visibllty.sol\":518:742  function examples() external view {... */\n    tag_8:\n        /* \"Day29_Visibllty.sol\":570:571  z */\n      sload(0x02)\n        /* \"Day29_Visibllty.sol\":566:567  y */\n      sload(0x01)\n        /* \"Day29_Visibllty.sol\":562:563  x */\n      sload(0x00)\n        /* \"Day29_Visibllty.sol\":562:567  x + y */\n      tag_20\n      swap2\n      swap1\n      tag_21\n      jump\t// in\n    tag_20:\n        /* \"Day29_Visibllty.sol\":562:571  x + y + z */\n      tag_22\n      swap2\n      swap1\n      tag_21\n      jump\t// in\n    tag_22:\n      pop\n        /* \"Day29_Visibllty.sol\":582:599  privateFunction() */\n      tag_23\n        /* \"Day29_Visibllty.sol\":582:597  privateFunction */\n      tag_24\n        /* \"Day29_Visibllty.sol\":582:599  privateFunction() */\n      jump\t// in\n    tag_23:\n      pop\n        /* \"Day29_Visibllty.sol\":609:627  internalFunction() */\n      tag_25\n        /* \"Day29_Visibllty.sol\":609:625  internalFunction */\n      tag_26\n        /* \"Day29_Visibllty.sol\":609:627  internalFunction() */\n      jump\t// in\n    tag_25:\n      pop\n        /* \"Day29_Visibllty.sol\":637:653  publicFunction() */\n      tag_27\n        /* \"Day29_Visibllty.sol\":637:651  publicFunction */\n      tag_14\n        /* \"Day29_Visibllty.sol\":637:653  publicFunction() */\n      jump\t// in\n    tag_27:\n      pop\n        /* \"Day29_Visibllty.sol\":518:742  function examples() external view {... */\n      jump\t// out\n        /* \"Day29_Visibllty.sol\":427:512  function externalFunction () external pure returns (uint) {... */\n    tag_10:\n        /* \"Day29_Visibllty.sol\":479:483  uint */\n      0x00\n        /* \"Day29_Visibllty.sol\":502:505  300 */\n      0x012c\n        /* \"Day29_Visibllty.sol\":495:505  return 300 */\n      swap1\n      pop\n        /* \"Day29_Visibllty.sol\":427:512  function externalFunction () external pure returns (uint) {... */\n      swap1\n      jump\t// out\n        /* \"Day29_Visibllty.sol\":340:421  function publicFunction () public pure returns (uint) {... */\n    tag_14:\n        /* \"Day29_Visibllty.sol\":388:392  uint */\n      0x00\n        /* \"Day29_Visibllty.sol\":411:414  200 */\n      0xc8\n        /* \"Day29_Visibllty.sol\":404:414  return 200 */\n      swap1\n      pop\n        /* \"Day29_Visibllty.sol\":340:421  function publicFunction () public pure returns (uint) {... */\n      swap1\n      jump\t// out\n        /* \"Day29_Visibllty.sol\":134:151  uint public z = 2 */\n    tag_17:\n      sload(0x02)\n      dup2\n      jump\t// out\n        /* \"Day29_Visibllty.sol\":162:243  function privateFunction () private pure returns (uint) {... */\n    tag_24:\n        /* \"Day29_Visibllty.sol\":212:216  uint */\n      0x00\n        /* \"Day29_Visibllty.sol\":162:243  function privateFunction () private pure returns (uint) {... */\n      swap1\n      jump\t// out\n        /* \"Day29_Visibllty.sol\":249:334  function internalFunction () internal pure returns (uint) {... */\n    tag_26:\n        /* \"Day29_Visibllty.sol\":301:305  uint */\n      0x00\n        /* \"Day29_Visibllty.sol\":324:327  100 */\n      0x64\n        /* \"Day29_Visibllty.sol\":317:327  return 100 */\n      swap1\n      pop\n        /* \"Day29_Visibllty.sol\":249:334  function internalFunction () internal pure returns (uint) {... */\n      swap1\n      jump\t// out\n        /* \"#utility.yul\":7:125   */\n    tag_33:\n        /* \"#utility.yul\":94:118   */\n      tag_35\n        /* \"#utility.yul\":112:117   */\n      dup2\n        /* \"#utility.yul\":94:118   */\n      tag_36\n      jump\t// in\n    tag_35:\n        /* \"#utility.yul\":89:92   */\n      dup3\n        /* \"#utility.yul\":82:119   */\n      mstore\n        /* \"#utility.yul\":7:125   */\n      pop\n      pop\n      jump\t// out\n        /* \"#utility.yul\":131:353   */\n    tag_12:\n        /* \"#utility.yul\":224:228   */\n      0x00\n        /* \"#utility.yul\":262:264   */\n      0x20\n        /* \"#utility.yul\":251:260   */\n      dup3\n        /* \"#utility.yul\":247:265   */\n      add\n        /* \"#utility.yul\":239:265   */\n      swap1\n      pop\n        /* \"#utility.yul\":275:346   */\n      tag_38\n        /* \"#utility.yul\":343:344   */\n      0x00\n        /* \"#utility.yul\":332:341   */\n      dup4\n        /* \"#utility.yul\":328:345   */\n      add\n        /* \"#utility.yul\":319:325   */\n      dup5\n        /* \"#utility.yul\":275:346   */\n      tag_33\n      jump\t// in\n    tag_38:\n        /* \"#utility.yul\":131:353   */\n      swap3\n      swap2\n      pop\n      pop\n      jump\t// out\n        /* \"#utility.yul\":359:664   */\n    tag_21:\n        /* \"#utility.yul\":399:402   */\n      0x00\n        /* \"#utility.yul\":418:438   */\n      tag_40\n        /* \"#utility.yul\":436:437   */\n      dup3\n        /* \"#utility.yul\":418:438   */\n      tag_36\n      jump\t// in\n    tag_40:\n        /* \"#utility.yul\":413:438   */\n      swap2\n      pop\n        /* \"#utility.yul\":452:472   */\n      tag_41\n        /* \"#utility.yul\":470:471   */\n      dup4\n        /* \"#utility.yul\":452:472   */\n      tag_36\n      jump\t// in\n    tag_41:\n        /* \"#utility.yul\":447:472   */\n      swap3\n      pop\n        /* \"#utility.yul\":606:607   */\n      dup3\n        /* \"#utility.yul\":538:604   */\n      0xffffffffffffffffffffffffffffffffffffffffffffffffffffffffffffffff\n        /* \"#utility.yul\":534:608   */\n      sub\n        /* \"#utility.yul\":531:532   */\n      dup3\n        /* \"#utility.yul\":528:609   */\n      gt\n        /* \"#utility.yul\":525:632   */\n      iszero\n      tag_42\n      jumpi\n        /* \"#utility.yul\":612:630   */\n      tag_43\n      tag_44\n      jump\t// in\n    tag_43:\n        /* \"#utility.yul\":525:632   */\n    tag_42:\n        /* \"#utility.yul\":656:657   */\n      dup3\n        /* \"#utility.yul\":653:654   */\n      dup3\n        /* \"#utility.yul\":649:658   */\n      add\n        /* \"#utility.yul\":642:658   */\n      swap1\n      pop\n        /* \"#utility.yul\":359:664   */\n      swap3\n      swap2\n      pop\n      pop\n      jump\t// out\n        /* \"#utility.yul\":670:747   */\n    tag_36:\n        /* \"#utility.yul\":707:714   */\n      0x00\n        /* \"#utility.yul\":736:741   */\n      dup2\n        /* \"#utility.yul\":725:741   */\n      swap1\n      pop\n        /* \"#utility.yul\":670:747   */\n      swap2\n      swap1\n      pop\n      jump\t// out\n        /* \"#utility.yul\":753:933   */\n    tag_44:\n        /* \"#utility.yul\":801:878   */\n      0x4e487b7100000000000000000000000000000000000000000000000000000000\n        /* \"#utility.yul\":798:799   */\n      0x00\n        /* \"#utility.yul\":791:879   */\n      mstore\n        /* \"#utility.yul\":898:902   */\n      0x11\n        /* \"#utility.yul\":895:896   */\n      0x04\n        /* \"#utility.yul\":888:903   */\n      mstore\n        /* \"#utility.yul\":922:926   */\n      0x24\n        /* \"#utility.yul\":919:920   */\n      0x00\n        /* \"#utility.yul\":912:927   */\n      revert\n\n    auxdata: 0xa26469706673582212208aece3955fc6af6583ef474148a600b72b3f27cf5c2ed67aa0dc85ef31b06ddb64736f6c63430008070033\n}\n",
				"bytecode": {
					"linkReferences": {},
					"object": "608060405260008055600180556002805534801561001c57600080fd5b506102068061002c6000396000f3fe608060405234801561001057600080fd5b506004361061004c5760003560e01c8063335d00c2146100515780633a32b5491461005b5780637b5d520b14610079578063c5d7802e14610097575b600080fd5b6100596100b5565b005b6100636100f0565b6040516100709190610126565b60405180910390f35b6100816100fa565b60405161008e9190610126565b60405180910390f35b61009f610103565b6040516100ac9190610126565b60405180910390f35b6002546001546000546100c89190610141565b6100d29190610141565b506100db610109565b506100e461010e565b506100ed6100fa565b50565b600061012c905090565b600060c8905090565b60025481565b600090565b60006064905090565b61012081610197565b82525050565b600060208201905061013b6000830184610117565b92915050565b600061014c82610197565b915061015783610197565b9250827fffffffffffffffffffffffffffffffffffffffffffffffffffffffffffffffff0382111561018c5761018b6101a1565b5b828201905092915050565b6000819050919050565b7f4e487b7100000000000000000000000000000000000000000000000000000000600052601160045260246000fdfea26469706673582212208aece3955fc6af6583ef474148a600b72b3f27cf5c2ed67aa0dc85ef31b06ddb64736f6c63430008070033",
					"opcodes": "PUSH1 0x80 PUSH1 0x40 MSTORE PUSH1 0x0 DUP1 SSTORE PUSH1 0x1 DUP1 SSTORE PUSH1 0x2 DUP1 SSTORE CALLVALUE DUP1 ISZERO PUSH2 0x1C JUMPI PUSH1 0x0 DUP1 REVERT JUMPDEST POP PUSH2 0x206 DUP1 PUSH2 0x2C PUSH1 0x0 CODECOPY PUSH1 0x0 RETURN INVALID PUSH1 0x80 PUSH1 0x40 MSTORE CALLVALUE DUP1 ISZERO PUSH2 0x10 JUMPI PUSH1 0x0 DUP1 REVERT JUMPDEST POP PUSH1 0x4 CALLDATASIZE LT PUSH2 0x4C JUMPI PUSH1 0x0 CALLDATALOAD PUSH1 0xE0 SHR DUP1 PUSH4 0x335D00C2 EQ PUSH2 0x51 JUMPI DUP1 PUSH4 0x3A32B549 EQ PUSH2 0x5B JUMPI DUP1 PUSH4 0x7B5D520B EQ PUSH2 0x79 JUMPI DUP1 PUSH4 0xC5D7802E EQ PUSH2 0x97 JUMPI JUMPDEST PUSH1 0x0 DUP1 REVERT JUMPDEST PUSH2 0x59 PUSH2 0xB5 JUMP JUMPDEST STOP JUMPDEST PUSH2 0x63 PUSH2 0xF0 JUMP JUMPDEST PUSH1 0x40 MLOAD PUSH2 0x70 SWAP2 SWAP1 PUSH2 0x126 JUMP JUMPDEST PUSH1 0x40 MLOAD DUP1 SWAP2 SUB SWAP1 RETURN JUMPDEST PUSH2 0x81 PUSH2 0xFA JUMP JUMPDEST PUSH1 0x40 MLOAD PUSH2 0x8E SWAP2 SWAP1 PUSH2 0x126 JUMP JUMPDEST PUSH1 0x40 MLOAD DUP1 SWAP2 SUB SWAP1 RETURN JUMPDEST PUSH2 0x9F PUSH2 0x103 JUMP JUMPDEST PUSH1 0x40 MLOAD PUSH2 0xAC SWAP2 SWAP1 PUSH2 0x126 JUMP JUMPDEST PUSH1 0x40 MLOAD DUP1 SWAP2 SUB SWAP1 RETURN JUMPDEST PUSH1 0x2 SLOAD PUSH1 0x1 SLOAD PUSH1 0x0 SLOAD PUSH2 0xC8 SWAP2 SWAP1 PUSH2 0x141 JUMP JUMPDEST PUSH2 0xD2 SWAP2 SWAP1 PUSH2 0x141 JUMP JUMPDEST POP PUSH2 0xDB PUSH2 0x109 JUMP JUMPDEST POP PUSH2 0xE4 PUSH2 0x10E JUMP JUMPDEST POP PUSH2 0xED PUSH2 0xFA JUMP JUMPDEST POP JUMP JUMPDEST PUSH1 0x0 PUSH2 0x12C SWAP1 POP SWAP1 JUMP JUMPDEST PUSH1 0x0 PUSH1 0xC8 SWAP1 POP SWAP1 JUMP JUMPDEST PUSH1 0x2 SLOAD DUP2 JUMP JUMPDEST PUSH1 0x0 SWAP1 JUMP JUMPDEST PUSH1 0x0 PUSH1 0x64 SWAP1 POP SWAP1 JUMP JUMPDEST PUSH2 0x120 DUP2 PUSH2 0x197 JUMP JUMPDEST DUP3 MSTORE POP POP JUMP JUMPDEST PUSH1 0x0 PUSH1 0x20 DUP3 ADD SWAP1 POP PUSH2 0x13B PUSH1 0x0 DUP4 ADD DUP5 PUSH2 0x117 JUMP JUMPDEST SWAP3 SWAP2 POP POP JUMP JUMPDEST PUSH1 0x0 PUSH2 0x14C DUP3 PUSH2 0x197 JUMP JUMPDEST SWAP2 POP PUSH2 0x157 DUP4 PUSH2 0x197 JUMP JUMPDEST SWAP3 POP DUP3 PUSH32 0xFFFFFFFFFFFFFFFFFFFFFFFFFFFFFFFFFFFFFFFFFFFFFFFFFFFFFFFFFFFFFFFF SUB DUP3 GT ISZERO PUSH2 0x18C JUMPI PUSH2 0x18B PUSH2 0x1A1 JUMP JUMPDEST JUMPDEST DUP3 DUP3 ADD SWAP1 POP SWAP3 SWAP2 POP POP JUMP JUMPDEST PUSH1 0x0 DUP2 SWAP1 POP SWAP2 SWAP1 POP JUMP JUMPDEST PUSH32 0x4E487B7100000000000000000000000000000000000000000000000000000000 PUSH1 0x0 MSTORE PUSH1 0x11 PUSH1 0x4 MSTORE PUSH1 0x24 PUSH1 0x0 REVERT INVALID LOG2 PUSH5 0x6970667358 0x22 SLT KECCAK256 DUP11 0xEC 0xE3 SWAP6 0x5F 0xC6 0xAF PUSH6 0x83EF474148A6 STOP 0xB7 0x2B EXTCODEHASH 0x27 0xCF 0x5C 0x2E 0xD6 PUSH27 0xA0DC85EF31B06DDB64736F6C634300080700330000000000000000 "
				},
				"gasEstimates": {
					"creation": {
						"codeDepositCost": "103600",
						"executionCost": "49371",
						"totalCost": "152971"
					},
					"external": {
						"examples()": "infinite",
						"externalFunction()": "337",
						"publicFunction()": "359",
						"z()": "2473"
					},
					"internal": {
						"internalFunction()": "23",
						"privateFunction()": "15"
					}
				},
				"methodIdentifiers": {
					"examples()": "335d00c2",
					"externalFunction()": "3a32b549",
					"publicFunction()": "7b5d520b",
					"z()": "c5d7802e"
				}
			},
			"storageLayout": {
				"storage": [
					{
						"astId": 4,
						"contract": "Day29_Visibllty.sol:Visibillity",
						"label": "x",
						"offset": 0,
						"slot": "0",
						"type": "t_uint256"
					},
					{
						"astId": 7,
						"contract": "Day29_Visibllty.sol:Visibillity",
						"label": "y",
						"offset": 0,
						"slot": "1",
						"type": "t_uint256"
					},
					{
						"astId": 10,
						"contract": "Day29_Visibllty.sol:Visibillity",
						"label": "z",
						"offset": 0,
						"slot": "2",
						"type": "t_uint256"
					}
				],
				"types": {
					"t_uint256": {
						"encoding": "inplace",
						"label": "uint256",
						"numberOfBytes": "32"
					}
				}
			},
			"userdoc": {
				"kind": "user",
				"methods": {},
				"version": 1
			}
		}
	}
}