{
	"Day44_Kill contract.sol": {
		"Kill": {
			"abi": [
				{
					"inputs": [],
					"stateMutability": "payable",
					"type": "constructor"
				},
				{
					"inputs": [],
					"name": "kill",
					"outputs": [],
					"stateMutability": "nonpayable",
					"type": "function"
				},
				{
					"inputs": [],
					"name": "testCall",
					"outputs": [
						{
							"internalType": "uint256",
							"name": "",
							"type": "uint256"
						}
					],
					"stateMutability": "pure",
					"type": "function"
				}
			],
			"devdoc": {
				"kind": "dev",
				"methods": {},
				"version": 1
			},
			"evm": {
				"assembly": "    /* \"Day44_Kill contract.sol\":58:268  contract Kill {... */\n  mstore(0x40, 0x80)\n  dataSize(sub_0)\n  dup1\n  dataOffset(sub_0)\n  0x00\n  codecopy\n  0x00\n  return\nstop\n\nsub_0: assembly {\n        /* \"Day44_Kill contract.sol\":58:268  contract Kill {... */\n      mstore(0x40, 0x80)\n      callvalue\n      dup1\n      iszero\n      tag_1\n      jumpi\n      0x00\n      dup1\n      revert\n    tag_1:\n      pop\n      jumpi(tag_2, lt(calldatasize, 0x04))\n      shr(0xe0, calldataload(0x00))\n      dup1\n      0x41c0e1b5\n      eq\n      tag_3\n      jumpi\n      dup1\n      0xb7f05836\n      eq\n      tag_4\n      jumpi\n    tag_2:\n      0x00\n      dup1\n      revert\n        /* \"Day44_Kill contract.sol\":108:184  function kill () external {... */\n    tag_3:\n      tag_5\n      tag_6\n      jump\t// in\n    tag_5:\n      stop\n        /* \"Day44_Kill contract.sol\":190:266  function testCall() external pure returns (uint) {... */\n    tag_4:\n      tag_7\n      tag_8\n      jump\t// in\n    tag_7:\n      mload(0x40)\n      tag_9\n      swap2\n      swap1\n      tag_10\n      jump\t// in\n    tag_9:\n      mload(0x40)\n      dup1\n      swap2\n      sub\n      swap1\n      return\n        /* \"Day44_Kill contract.sol\":108:184  function kill () external {... */\n    tag_6:\n        /* \"Day44_Kill contract.sol\":165:175  msg.sender */\n      caller\n        /* \"Day44_Kill contract.sol\":144:177  selfdestruct(payable(msg.sender)) */\n      0xffffffffffffffffffffffffffffffffffffffff\n      and\n      selfdestruct\n        /* \"Day44_Kill contract.sol\":190:266  function testCall() external pure returns (uint) {... */\n    tag_8:\n        /* \"Day44_Kill contract.sol\":233:237  uint */\n      0x00\n        /* \"Day44_Kill contract.sol\":256:259  123 */\n      0x7b\n        /* \"Day44_Kill contract.sol\":249:259  return 123 */\n      swap1\n      pop\n        /* \"Day44_Kill contract.sol\":190:266  function testCall() external pure returns (uint) {... */\n      swap1\n      jump\t// out\n        /* \"#utility.yul\":7:84   */\n    tag_13:\n        /* \"#utility.yul\":44:51   */\n      0x00\n        /* \"#utility.yul\":73:78   */\n      dup2\n        /* \"#utility.yul\":62:78   */\n      swap1\n      pop\n        /* \"#utility.yul\":7:84   */\n      swap2\n      swap1\n      pop\n      jump\t// out\n        /* \"#utility.yul\":90:208   */\n    tag_14:\n        /* \"#utility.yul\":177:201   */\n      tag_18\n        /* \"#utility.yul\":195:200   */\n      dup2\n        /* \"#utility.yul\":177:201   */\n      tag_13\n      jump\t// in\n    tag_18:\n        /* \"#utility.yul\":172:175   */\n      dup3\n        /* \"#utility.yul\":165:202   */\n      mstore\n        /* \"#utility.yul\":90:208   */\n      pop\n      pop\n      jump\t// out\n        /* \"#utility.yul\":214:436   */\n    tag_10:\n        /* \"#utility.yul\":307:311   */\n      0x00\n        /* \"#utility.yul\":345:347   */\n      0x20\n        /* \"#utility.yul\":334:343   */\n      dup3\n        /* \"#utility.yul\":330:348   */\n      add\n        /* \"#utility.yul\":322:348   */\n      swap1\n      pop\n        /* \"#utility.yul\":358:429   */\n      tag_20\n        /* \"#utility.yul\":426:427   */\n      0x00\n        /* \"#utility.yul\":415:424   */\n      dup4\n        /* \"#utility.yul\":411:428   */\n      add\n        /* \"#utility.yul\":402:408   */\n      dup5\n        /* \"#utility.yul\":358:429   */\n      tag_14\n      jump\t// in\n    tag_20:\n        /* \"#utility.yul\":214:436   */\n      swap3\n      swap2\n      pop\n      pop\n      jump\t// out\n\n    auxdata: 0xa264697066735822122000ee1825b63d90207dcc6e3b7fec8210c030e50f03e3a6968d625da7fe9fc0fe64736f6c634300080f0033\n}\n",
				"bytecode": {
					"linkReferences": {},
					"object": "608060405260e1806100126000396000f3fe6080604052348015600f57600080fd5b506004361060325760003560e01c806341c0e1b5146037578063b7f0583614603f575b600080fd5b603d6059565b005b60456072565b604051605091906092565b60405180910390f35b3373ffffffffffffffffffffffffffffffffffffffff16ff5b6000607b905090565b6000819050919050565b608c81607b565b82525050565b600060208201905060a560008301846085565b9291505056fea264697066735822122000ee1825b63d90207dcc6e3b7fec8210c030e50f03e3a6968d625da7fe9fc0fe64736f6c634300080f0033",
					"opcodes": "PUSH1 0x80 PUSH1 0x40 MSTORE PUSH1 0xE1 DUP1 PUSH2 0x12 PUSH1 0x0 CODECOPY PUSH1 0x0 RETURN INVALID PUSH1 0x80 PUSH1 0x40 MSTORE CALLVALUE DUP1 ISZERO PUSH1 0xF JUMPI PUSH1 0x0 DUP1 REVERT JUMPDEST POP PUSH1 0x4 CALLDATASIZE LT PUSH1 0x32 JUMPI PUSH1 0x0 CALLDATALOAD PUSH1 0xE0 SHR DUP1 PUSH4 0x41C0E1B5 EQ PUSH1 0x37 JUMPI DUP1 PUSH4 0xB7F05836 EQ PUSH1 0x3F JUMPI JUMPDEST PUSH1 0x0 DUP1 REVERT JUMPDEST PUSH1 0x3D PUSH1 0x59 JUMP JUMPDEST STOP JUMPDEST PUSH1 0x45 PUSH1 0x72 JUMP JUMPDEST PUSH1 0x40 MLOAD PUSH1 0x50 SWAP2 SWAP1 PUSH1 0x92 JUMP JUMPDEST PUSH1 0x40 MLOAD DUP1 SWAP2 SUB SWAP1 RETURN JUMPDEST CALLER PUSH20 0xFFFFFFFFFFFFFFFFFFFFFFFFFFFFFFFFFFFFFFFF AND SELFDESTRUCT JUMPDEST PUSH1 0x0 PUSH1 0x7B SWAP1 POP SWAP1 JUMP JUMPDEST PUSH1 0x0 DUP2 SWAP1 POP SWAP2 SWAP1 POP JUMP JUMPDEST PUSH1 0x8C DUP2 PUSH1 0x7B JUMP JUMPDEST DUP3 MSTORE POP POP JUMP JUMPDEST PUSH1 0x0 PUSH1 0x20 DUP3 ADD SWAP1 POP PUSH1 0xA5 PUSH1 0x0 DUP4 ADD DUP5 PUSH1 0x85 JUMP JUMPDEST SWAP3 SWAP2 POP POP JUMP INVALID LOG2 PUSH5 0x6970667358 0x22 SLT KECCAK256 STOP 0xEE XOR 0x25 0xB6 RETURNDATASIZE SWAP1 KECCAK256 PUSH30 0xCC6E3B7FEC8210C030E50F03E3A6968D625DA7FE9FC0FE64736F6C634300 ADDMOD 0xF STOP CALLER "
				},
				"gasEstimates": {
					"creation": {
						"codeDepositCost": "45000",
						"executionCost": "75",
						"totalCost": "45075"
					},
					"external": {
						"kill()": "27721",
						"testCall()": "337"
					}
				},
				"methodIdentifiers": {
					"kill()": "41c0e1b5",
					"testCall()": "b7f05836"
				}
			},
			"storageLayout": {
				"storage": [],
				"types": null
			},
			"userdoc": {
				"kind": "user",
				"methods": {},
				"version": 1
			}
		}
	}
}