{
	"Day11_Modifier.sol": {
		"FunctionModifier": {
			"abi": [
				{
					"inputs": [],
					"name": "addCount",
					"outputs": [],
					"stateMutability": "nonpayable",
					"type": "function"
				},
				{
					"inputs": [],
					"name": "count",
					"outputs": [
						{
							"internalType": "uint256",
							"name": "",
							"type": "uint256"
						}
					],
					"stateMutability": "view",
					"type": "function"
				},
				{
					"inputs": [],
					"name": "minCount",
					"outputs": [],
					"stateMutability": "nonpayable",
					"type": "function"
				},
				{
					"inputs": [],
					"name": "pause",
					"outputs": [
						{
							"internalType": "bool",
							"name": "",
							"type": "bool"
						}
					],
					"stateMutability": "view",
					"type": "function"
				},
				{
					"inputs": [
						{
							"internalType": "bool",
							"name": "_pause",
							"type": "bool"
						}
					],
					"name": "togglePause",
					"outputs": [],
					"stateMutability": "nonpayable",
					"type": "function"
				}
			],
			"devdoc": {
				"kind": "dev",
				"methods": {},
				"version": 1
			},
			"evm": {
				"assembly": "    /* \"Day11_Modifier.sol\":145:586  contract FunctionModifier {... */\n  mstore(0x40, 0x80)\n  callvalue\n  dup1\n  iszero\n  tag_1\n  jumpi\n  0x00\n  dup1\n  revert\ntag_1:\n  pop\n  dataSize(sub_0)\n  dup1\n  dataOffset(sub_0)\n  0x00\n  codecopy\n  0x00\n  return\nstop\n\nsub_0: assembly {\n        /* \"Day11_Modifier.sol\":145:586  contract FunctionModifier {... */\n      mstore(0x40, 0x80)\n      callvalue\n      dup1\n      iszero\n      tag_1\n      jumpi\n      0x00\n      dup1\n      revert\n    tag_1:\n      pop\n      jumpi(tag_2, lt(calldatasize, 0x04))\n      shr(0xe0, calldataload(0x00))\n      dup1\n      0x06661abd\n      eq\n      tag_3\n      jumpi\n      dup1\n      0x0693b1ab\n      eq\n      tag_4\n      jumpi\n      dup1\n      0x57d159c6\n      eq\n      tag_5\n      jumpi\n      dup1\n      0x6cefce6e\n      eq\n      tag_6\n      jumpi\n      dup1\n      0x8456cb59\n      eq\n      tag_7\n      jumpi\n    tag_2:\n      0x00\n      dup1\n      revert\n        /* \"Day11_Modifier.sol\":200:217  uint public count */\n    tag_3:\n      tag_8\n      tag_9\n      jump\t// in\n    tag_8:\n      mload(0x40)\n      tag_10\n      swap2\n      swap1\n      tag_11\n      jump\t// in\n    tag_10:\n      mload(0x40)\n      dup1\n      swap2\n      sub\n      swap1\n      return\n        /* \"Day11_Modifier.sol\":490:584  function minCount () external {... */\n    tag_4:\n      tag_12\n      tag_13\n      jump\t// in\n    tag_12:\n      stop\n        /* \"Day11_Modifier.sol\":224:299  function togglePause (bool _pause) external {... */\n    tag_5:\n      tag_14\n      0x04\n      dup1\n      calldatasize\n      sub\n      dup2\n      add\n      swap1\n      tag_15\n      swap2\n      swap1\n      tag_16\n      jump\t// in\n    tag_15:\n      tag_17\n      jump\t// in\n    tag_14:\n      stop\n        /* \"Day11_Modifier.sol\":390:484  function addCount () external {... */\n    tag_6:\n      tag_18\n      tag_19\n      jump\t// in\n    tag_18:\n      stop\n        /* \"Day11_Modifier.sol\":177:194  bool public pause */\n    tag_7:\n      tag_20\n      tag_21\n      jump\t// in\n    tag_20:\n      mload(0x40)\n      tag_22\n      swap2\n      swap1\n      tag_23\n      jump\t// in\n    tag_22:\n      mload(0x40)\n      dup1\n      swap2\n      sub\n      swap1\n      return\n        /* \"Day11_Modifier.sol\":200:217  uint public count */\n    tag_9:\n      sload(0x01)\n      dup2\n      jump\t// out\n        /* \"Day11_Modifier.sol\":490:584  function minCount () external {... */\n    tag_13:\n        /* \"Day11_Modifier.sol\":540:545  pause */\n      0x00\n      dup1\n      sload\n      swap1\n      0x0100\n      exp\n      swap1\n      div\n      0xff\n      and\n        /* \"Day11_Modifier.sol\":539:545  !pause */\n      iszero\n        /* \"Day11_Modifier.sol\":530:556  require (!pause , \"pause\") */\n      tag_25\n      jumpi\n      mload(0x40)\n      0x08c379a000000000000000000000000000000000000000000000000000000000\n      dup2\n      mstore\n      0x04\n      add\n      tag_26\n      swap1\n      tag_27\n      jump\t// in\n    tag_26:\n      mload(0x40)\n      dup1\n      swap2\n      sub\n      swap1\n      revert\n    tag_25:\n        /* \"Day11_Modifier.sol\":575:576  1 */\n      0x01\n        /* \"Day11_Modifier.sol\":566:571  count */\n      dup1\n      0x00\n        /* \"Day11_Modifier.sol\":566:576  count -= 1 */\n      dup3\n      dup3\n      sload\n      tag_28\n      swap2\n      swap1\n      tag_29\n      jump\t// in\n    tag_28:\n      swap3\n      pop\n      pop\n      dup2\n      swap1\n      sstore\n      pop\n        /* \"Day11_Modifier.sol\":490:584  function minCount () external {... */\n      jump\t// out\n        /* \"Day11_Modifier.sol\":224:299  function togglePause (bool _pause) external {... */\n    tag_17:\n        /* \"Day11_Modifier.sol\":286:292  _pause */\n      dup1\n        /* \"Day11_Modifier.sol\":278:283  pause */\n      0x00\n      dup1\n        /* \"Day11_Modifier.sol\":278:292  pause = _pause */\n      0x0100\n      exp\n      dup2\n      sload\n      dup2\n      0xff\n      mul\n      not\n      and\n      swap1\n      dup4\n      iszero\n      iszero\n      mul\n      or\n      swap1\n      sstore\n      pop\n        /* \"Day11_Modifier.sol\":224:299  function togglePause (bool _pause) external {... */\n      pop\n      jump\t// out\n        /* \"Day11_Modifier.sol\":390:484  function addCount () external {... */\n    tag_19:\n        /* \"Day11_Modifier.sol\":440:445  pause */\n      0x00\n      dup1\n      sload\n      swap1\n      0x0100\n      exp\n      swap1\n      div\n      0xff\n      and\n        /* \"Day11_Modifier.sol\":439:445  !pause */\n      iszero\n        /* \"Day11_Modifier.sol\":430:456  require (!pause , \"pause\") */\n      tag_32\n      jumpi\n      mload(0x40)\n      0x08c379a000000000000000000000000000000000000000000000000000000000\n      dup2\n      mstore\n      0x04\n      add\n      tag_33\n      swap1\n      tag_27\n      jump\t// in\n    tag_33:\n      mload(0x40)\n      dup1\n      swap2\n      sub\n      swap1\n      revert\n    tag_32:\n        /* \"Day11_Modifier.sol\":475:476  1 */\n      0x01\n        /* \"Day11_Modifier.sol\":466:471  count */\n      dup1\n      0x00\n        /* \"Day11_Modifier.sol\":466:476  count += 1 */\n      dup3\n      dup3\n      sload\n      tag_34\n      swap2\n      swap1\n      tag_35\n      jump\t// in\n    tag_34:\n      swap3\n      pop\n      pop\n      dup2\n      swap1\n      sstore\n      pop\n        /* \"Day11_Modifier.sol\":390:484  function addCount () external {... */\n      jump\t// out\n        /* \"Day11_Modifier.sol\":177:194  bool public pause */\n    tag_21:\n      0x00\n      dup1\n      sload\n      swap1\n      0x0100\n      exp\n      swap1\n      div\n      0xff\n      and\n      dup2\n      jump\t// out\n        /* \"#utility.yul\":7:140   */\n    tag_37:\n        /* \"#utility.yul\":50:55   */\n      0x00\n        /* \"#utility.yul\":88:94   */\n      dup2\n        /* \"#utility.yul\":75:95   */\n      calldataload\n        /* \"#utility.yul\":66:95   */\n      swap1\n      pop\n        /* \"#utility.yul\":104:134   */\n      tag_39\n        /* \"#utility.yul\":128:133   */\n      dup2\n        /* \"#utility.yul\":104:134   */\n      tag_40\n      jump\t// in\n    tag_39:\n        /* \"#utility.yul\":7:140   */\n      swap3\n      swap2\n      pop\n      pop\n      jump\t// out\n        /* \"#utility.yul\":146:469   */\n    tag_16:\n        /* \"#utility.yul\":202:208   */\n      0x00\n        /* \"#utility.yul\":251:253   */\n      0x20\n        /* \"#utility.yul\":239:248   */\n      dup3\n        /* \"#utility.yul\":230:237   */\n      dup5\n        /* \"#utility.yul\":226:249   */\n      sub\n        /* \"#utility.yul\":222:254   */\n      slt\n        /* \"#utility.yul\":219:338   */\n      iszero\n      tag_42\n      jumpi\n        /* \"#utility.yul\":257:336   */\n      tag_43\n      tag_44\n      jump\t// in\n    tag_43:\n        /* \"#utility.yul\":219:338   */\n    tag_42:\n        /* \"#utility.yul\":377:378   */\n      0x00\n        /* \"#utility.yul\":402:452   */\n      tag_45\n        /* \"#utility.yul\":444:451   */\n      dup5\n        /* \"#utility.yul\":435:441   */\n      dup3\n        /* \"#utility.yul\":424:433   */\n      dup6\n        /* \"#utility.yul\":420:442   */\n      add\n        /* \"#utility.yul\":402:452   */\n      tag_37\n      jump\t// in\n    tag_45:\n        /* \"#utility.yul\":392:452   */\n      swap2\n      pop\n        /* \"#utility.yul\":348:462   */\n      pop\n        /* \"#utility.yul\":146:469   */\n      swap3\n      swap2\n      pop\n      pop\n      jump\t// out\n        /* \"#utility.yul\":475:584   */\n    tag_46:\n        /* \"#utility.yul\":556:577   */\n      tag_48\n        /* \"#utility.yul\":571:576   */\n      dup2\n        /* \"#utility.yul\":556:577   */\n      tag_49\n      jump\t// in\n    tag_48:\n        /* \"#utility.yul\":551:554   */\n      dup3\n        /* \"#utility.yul\":544:578   */\n      mstore\n        /* \"#utility.yul\":475:584   */\n      pop\n      pop\n      jump\t// out\n        /* \"#utility.yul\":590:955   */\n    tag_50:\n        /* \"#utility.yul\":732:735   */\n      0x00\n        /* \"#utility.yul\":753:819   */\n      tag_52\n        /* \"#utility.yul\":817:818   */\n      0x05\n        /* \"#utility.yul\":812:815   */\n      dup4\n        /* \"#utility.yul\":753:819   */\n      tag_53\n      jump\t// in\n    tag_52:\n        /* \"#utility.yul\":746:819   */\n      swap2\n      pop\n        /* \"#utility.yul\":828:921   */\n      tag_54\n        /* \"#utility.yul\":917:920   */\n      dup3\n        /* \"#utility.yul\":828:921   */\n      tag_55\n      jump\t// in\n    tag_54:\n        /* \"#utility.yul\":946:948   */\n      0x20\n        /* \"#utility.yul\":941:944   */\n      dup3\n        /* \"#utility.yul\":937:949   */\n      add\n        /* \"#utility.yul\":930:949   */\n      swap1\n      pop\n        /* \"#utility.yul\":590:955   */\n      swap2\n      swap1\n      pop\n      jump\t// out\n        /* \"#utility.yul\":961:1079   */\n    tag_56:\n        /* \"#utility.yul\":1048:1072   */\n      tag_58\n        /* \"#utility.yul\":1066:1071   */\n      dup2\n        /* \"#utility.yul\":1048:1072   */\n      tag_59\n      jump\t// in\n    tag_58:\n        /* \"#utility.yul\":1043:1046   */\n      dup3\n        /* \"#utility.yul\":1036:1073   */\n      mstore\n        /* \"#utility.yul\":961:1079   */\n      pop\n      pop\n      jump\t// out\n        /* \"#utility.yul\":1085:1295   */\n    tag_23:\n        /* \"#utility.yul\":1172:1176   */\n      0x00\n        /* \"#utility.yul\":1210:1212   */\n      0x20\n        /* \"#utility.yul\":1199:1208   */\n      dup3\n        /* \"#utility.yul\":1195:1213   */\n      add\n        /* \"#utility.yul\":1187:1213   */\n      swap1\n      pop\n        /* \"#utility.yul\":1223:1288   */\n      tag_61\n        /* \"#utility.yul\":1285:1286   */\n      0x00\n        /* \"#utility.yul\":1274:1283   */\n      dup4\n        /* \"#utility.yul\":1270:1287   */\n      add\n        /* \"#utility.yul\":1261:1267   */\n      dup5\n        /* \"#utility.yul\":1223:1288   */\n      tag_46\n      jump\t// in\n    tag_61:\n        /* \"#utility.yul\":1085:1295   */\n      swap3\n      swap2\n      pop\n      pop\n      jump\t// out\n        /* \"#utility.yul\":1301:1720   */\n    tag_27:\n        /* \"#utility.yul\":1467:1471   */\n      0x00\n        /* \"#utility.yul\":1505:1507   */\n      0x20\n        /* \"#utility.yul\":1494:1503   */\n      dup3\n        /* \"#utility.yul\":1490:1508   */\n      add\n        /* \"#utility.yul\":1482:1508   */\n      swap1\n      pop\n        /* \"#utility.yul\":1554:1563   */\n      dup2\n        /* \"#utility.yul\":1548:1552   */\n      dup2\n        /* \"#utility.yul\":1544:1564   */\n      sub\n        /* \"#utility.yul\":1540:1541   */\n      0x00\n        /* \"#utility.yul\":1529:1538   */\n      dup4\n        /* \"#utility.yul\":1525:1542   */\n      add\n        /* \"#utility.yul\":1518:1565   */\n      mstore\n        /* \"#utility.yul\":1582:1713   */\n      tag_63\n        /* \"#utility.yul\":1708:1712   */\n      dup2\n        /* \"#utility.yul\":1582:1713   */\n      tag_50\n      jump\t// in\n    tag_63:\n        /* \"#utility.yul\":1574:1713   */\n      swap1\n      pop\n        /* \"#utility.yul\":1301:1720   */\n      swap2\n      swap1\n      pop\n      jump\t// out\n        /* \"#utility.yul\":1726:1948   */\n    tag_11:\n        /* \"#utility.yul\":1819:1823   */\n      0x00\n        /* \"#utility.yul\":1857:1859   */\n      0x20\n        /* \"#utility.yul\":1846:1855   */\n      dup3\n        /* \"#utility.yul\":1842:1860   */\n      add\n        /* \"#utility.yul\":1834:1860   */\n      swap1\n      pop\n        /* \"#utility.yul\":1870:1941   */\n      tag_65\n        /* \"#utility.yul\":1938:1939   */\n      0x00\n        /* \"#utility.yul\":1927:1936   */\n      dup4\n        /* \"#utility.yul\":1923:1940   */\n      add\n        /* \"#utility.yul\":1914:1920   */\n      dup5\n        /* \"#utility.yul\":1870:1941   */\n      tag_56\n      jump\t// in\n    tag_65:\n        /* \"#utility.yul\":1726:1948   */\n      swap3\n      swap2\n      pop\n      pop\n      jump\t// out\n        /* \"#utility.yul\":2035:2204   */\n    tag_53:\n        /* \"#utility.yul\":2119:2130   */\n      0x00\n        /* \"#utility.yul\":2153:2159   */\n      dup3\n        /* \"#utility.yul\":2148:2151   */\n      dup3\n        /* \"#utility.yul\":2141:2160   */\n      mstore\n        /* \"#utility.yul\":2193:2197   */\n      0x20\n        /* \"#utility.yul\":2188:2191   */\n      dup3\n        /* \"#utility.yul\":2184:2198   */\n      add\n        /* \"#utility.yul\":2169:2198   */\n      swap1\n      pop\n        /* \"#utility.yul\":2035:2204   */\n      swap3\n      swap2\n      pop\n      pop\n      jump\t// out\n        /* \"#utility.yul\":2210:2515   */\n    tag_35:\n        /* \"#utility.yul\":2250:2253   */\n      0x00\n        /* \"#utility.yul\":2269:2289   */\n      tag_70\n        /* \"#utility.yul\":2287:2288   */\n      dup3\n        /* \"#utility.yul\":2269:2289   */\n      tag_59\n      jump\t// in\n    tag_70:\n        /* \"#utility.yul\":2264:2289   */\n      swap2\n      pop\n        /* \"#utility.yul\":2303:2323   */\n      tag_71\n        /* \"#utility.yul\":2321:2322   */\n      dup4\n        /* \"#utility.yul\":2303:2323   */\n      tag_59\n      jump\t// in\n    tag_71:\n        /* \"#utility.yul\":2298:2323   */\n      swap3\n      pop\n        /* \"#utility.yul\":2457:2458   */\n      dup3\n        /* \"#utility.yul\":2389:2455   */\n      0xffffffffffffffffffffffffffffffffffffffffffffffffffffffffffffffff\n        /* \"#utility.yul\":2385:2459   */\n      sub\n        /* \"#utility.yul\":2382:2383   */\n      dup3\n        /* \"#utility.yul\":2379:2460   */\n      gt\n        /* \"#utility.yul\":2376:2483   */\n      iszero\n      tag_72\n      jumpi\n        /* \"#utility.yul\":2463:2481   */\n      tag_73\n      tag_74\n      jump\t// in\n    tag_73:\n        /* \"#utility.yul\":2376:2483   */\n    tag_72:\n        /* \"#utility.yul\":2507:2508   */\n      dup3\n        /* \"#utility.yul\":2504:2505   */\n      dup3\n        /* \"#utility.yul\":2500:2509   */\n      add\n        /* \"#utility.yul\":2493:2509   */\n      swap1\n      pop\n        /* \"#utility.yul\":2210:2515   */\n      swap3\n      swap2\n      pop\n      pop\n      jump\t// out\n        /* \"#utility.yul\":2521:2712   */\n    tag_29:\n        /* \"#utility.yul\":2561:2565   */\n      0x00\n        /* \"#utility.yul\":2581:2601   */\n      tag_76\n        /* \"#utility.yul\":2599:2600   */\n      dup3\n        /* \"#utility.yul\":2581:2601   */\n      tag_59\n      jump\t// in\n    tag_76:\n        /* \"#utility.yul\":2576:2601   */\n      swap2\n      pop\n        /* \"#utility.yul\":2615:2635   */\n      tag_77\n        /* \"#utility.yul\":2633:2634   */\n      dup4\n        /* \"#utility.yul\":2615:2635   */\n      tag_59\n      jump\t// in\n    tag_77:\n        /* \"#utility.yul\":2610:2635   */\n      swap3\n      pop\n        /* \"#utility.yul\":2654:2655   */\n      dup3\n        /* \"#utility.yul\":2651:2652   */\n      dup3\n        /* \"#utility.yul\":2648:2656   */\n      lt\n        /* \"#utility.yul\":2645:2679   */\n      iszero\n      tag_78\n      jumpi\n        /* \"#utility.yul\":2659:2677   */\n      tag_79\n      tag_74\n      jump\t// in\n    tag_79:\n        /* \"#utility.yul\":2645:2679   */\n    tag_78:\n        /* \"#utility.yul\":2704:2705   */\n      dup3\n        /* \"#utility.yul\":2701:2702   */\n      dup3\n        /* \"#utility.yul\":2697:2706   */\n      sub\n        /* \"#utility.yul\":2689:2706   */\n      swap1\n      pop\n        /* \"#utility.yul\":2521:2712   */\n      swap3\n      swap2\n      pop\n      pop\n      jump\t// out\n        /* \"#utility.yul\":2718:2808   */\n    tag_49:\n        /* \"#utility.yul\":2752:2759   */\n      0x00\n        /* \"#utility.yul\":2795:2800   */\n      dup2\n        /* \"#utility.yul\":2788:2801   */\n      iszero\n        /* \"#utility.yul\":2781:2802   */\n      iszero\n        /* \"#utility.yul\":2770:2802   */\n      swap1\n      pop\n        /* \"#utility.yul\":2718:2808   */\n      swap2\n      swap1\n      pop\n      jump\t// out\n        /* \"#utility.yul\":2814:2891   */\n    tag_59:\n        /* \"#utility.yul\":2851:2858   */\n      0x00\n        /* \"#utility.yul\":2880:2885   */\n      dup2\n        /* \"#utility.yul\":2869:2885   */\n      swap1\n      pop\n        /* \"#utility.yul\":2814:2891   */\n      swap2\n      swap1\n      pop\n      jump\t// out\n        /* \"#utility.yul\":2897:3077   */\n    tag_74:\n        /* \"#utility.yul\":2945:3022   */\n      0x4e487b7100000000000000000000000000000000000000000000000000000000\n        /* \"#utility.yul\":2942:2943   */\n      0x00\n        /* \"#utility.yul\":2935:3023   */\n      mstore\n        /* \"#utility.yul\":3042:3046   */\n      0x11\n        /* \"#utility.yul\":3039:3040   */\n      0x04\n        /* \"#utility.yul\":3032:3047   */\n      mstore\n        /* \"#utility.yul\":3066:3070   */\n      0x24\n        /* \"#utility.yul\":3063:3064   */\n      0x00\n        /* \"#utility.yul\":3056:3071   */\n      revert\n        /* \"#utility.yul\":3206:3323   */\n    tag_44:\n        /* \"#utility.yul\":3315:3316   */\n      0x00\n        /* \"#utility.yul\":3312:3313   */\n      dup1\n        /* \"#utility.yul\":3305:3317   */\n      revert\n        /* \"#utility.yul\":3329:3484   */\n    tag_55:\n        /* \"#utility.yul\":3469:3476   */\n      0x7061757365000000000000000000000000000000000000000000000000000000\n        /* \"#utility.yul\":3465:3466   */\n      0x00\n        /* \"#utility.yul\":3457:3463   */\n      dup3\n        /* \"#utility.yul\":3453:3467   */\n      add\n        /* \"#utility.yul\":3446:3477   */\n      mstore\n        /* \"#utility.yul\":3329:3484   */\n      pop\n      jump\t// out\n        /* \"#utility.yul\":3490:3606   */\n    tag_40:\n        /* \"#utility.yul\":3560:3581   */\n      tag_88\n        /* \"#utility.yul\":3575:3580   */\n      dup2\n        /* \"#utility.yul\":3560:3581   */\n      tag_49\n      jump\t// in\n    tag_88:\n        /* \"#utility.yul\":3553:3558   */\n      dup2\n        /* \"#utility.yul\":3550:3582   */\n      eq\n        /* \"#utility.yul\":3540:3600   */\n      tag_89\n      jumpi\n        /* \"#utility.yul\":3596:3597   */\n      0x00\n        /* \"#utility.yul\":3593:3594   */\n      dup1\n        /* \"#utility.yul\":3586:3598   */\n      revert\n        /* \"#utility.yul\":3540:3600   */\n    tag_89:\n        /* \"#utility.yul\":3490:3606   */\n      pop\n      jump\t// out\n\n    auxdata: 0xa2646970667358221220471d3df00280b1515f639fb9a8d8791be6e2383101fdd4813ccac45740409e5c64736f6c63430008070033\n}\n",
				"bytecode": {
					"linkReferences": {},
					"object": "608060405234801561001057600080fd5b50610401806100206000396000f3fe608060405234801561001057600080fd5b50600436106100575760003560e01c806306661abd1461005c5780630693b1ab1461007a57806357d159c6146100845780636cefce6e146100a05780638456cb59146100aa575b600080fd5b6100646100c8565b604051610071919061028b565b60405180910390f35b6100826100ce565b005b61009e600480360381019061009991906101e2565b610137565b005b6100a8610153565b005b6100b26101bc565b6040516100bf9190610250565b60405180910390f35b60015481565b60008054906101000a900460ff161561011c576040517f08c379a00000000000000000000000000000000000000000000000000000000081526004016101139061026b565b60405180910390fd5b600180600082825461012e919061030d565b92505081905550565b806000806101000a81548160ff02191690831515021790555050565b60008054906101000a900460ff16156101a1576040517f08c379a00000000000000000000000000000000000000000000000000000000081526004016101989061026b565b60405180910390fd5b60018060008282546101b391906102b7565b92505081905550565b60008054906101000a900460ff1681565b6000813590506101dc816103b4565b92915050565b6000602082840312156101f8576101f7610386565b5b6000610206848285016101cd565b91505092915050565b61021881610341565b82525050565b600061022b6005836102a6565b91506102368261038b565b602082019050919050565b61024a8161034d565b82525050565b6000602082019050610265600083018461020f565b92915050565b600060208201905081810360008301526102848161021e565b9050919050565b60006020820190506102a06000830184610241565b92915050565b600082825260208201905092915050565b60006102c28261034d565b91506102cd8361034d565b9250827fffffffffffffffffffffffffffffffffffffffffffffffffffffffffffffffff0382111561030257610301610357565b5b828201905092915050565b60006103188261034d565b91506103238361034d565b92508282101561033657610335610357565b5b828203905092915050565b60008115159050919050565b6000819050919050565b7f4e487b7100000000000000000000000000000000000000000000000000000000600052601160045260246000fd5b600080fd5b7f7061757365000000000000000000000000000000000000000000000000000000600082015250565b6103bd81610341565b81146103c857600080fd5b5056fea2646970667358221220471d3df00280b1515f639fb9a8d8791be6e2383101fdd4813ccac45740409e5c64736f6c63430008070033",
					"opcodes": "PUSH1 0x80 PUSH1 0x40 MSTORE CALLVALUE DUP1 ISZERO PUSH2 0x10 JUMPI PUSH1 0x0 DUP1 REVERT JUMPDEST POP PUSH2 0x401 DUP1 PUSH2 0x20 PUSH1 0x0 CODECOPY PUSH1 0x0 RETURN INVALID PUSH1 0x80 PUSH1 0x40 MSTORE CALLVALUE DUP1 ISZERO PUSH2 0x10 JUMPI PUSH1 0x0 DUP1 REVERT JUMPDEST POP PUSH1 0x4 CALLDATASIZE LT PUSH2 0x57 JUMPI PUSH1 0x0 CALLDATALOAD PUSH1 0xE0 SHR DUP1 PUSH4 0x6661ABD EQ PUSH2 0x5C JUMPI DUP1 PUSH4 0x693B1AB EQ PUSH2 0x7A JUMPI DUP1 PUSH4 0x57D159C6 EQ PUSH2 0x84 JUMPI DUP1 PUSH4 0x6CEFCE6E EQ PUSH2 0xA0 JUMPI DUP1 PUSH4 0x8456CB59 EQ PUSH2 0xAA JUMPI JUMPDEST PUSH1 0x0 DUP1 REVERT JUMPDEST PUSH2 0x64 PUSH2 0xC8 JUMP JUMPDEST PUSH1 0x40 MLOAD PUSH2 0x71 SWAP2 SWAP1 PUSH2 0x28B JUMP JUMPDEST PUSH1 0x40 MLOAD DUP1 SWAP2 SUB SWAP1 RETURN JUMPDEST PUSH2 0x82 PUSH2 0xCE JUMP JUMPDEST STOP JUMPDEST PUSH2 0x9E PUSH1 0x4 DUP1 CALLDATASIZE SUB DUP2 ADD SWAP1 PUSH2 0x99 SWAP2 SWAP1 PUSH2 0x1E2 JUMP JUMPDEST PUSH2 0x137 JUMP JUMPDEST STOP JUMPDEST PUSH2 0xA8 PUSH2 0x153 JUMP JUMPDEST STOP JUMPDEST PUSH2 0xB2 PUSH2 0x1BC JUMP JUMPDEST PUSH1 0x40 MLOAD PUSH2 0xBF SWAP2 SWAP1 PUSH2 0x250 JUMP JUMPDEST PUSH1 0x40 MLOAD DUP1 SWAP2 SUB SWAP1 RETURN JUMPDEST PUSH1 0x1 SLOAD DUP2 JUMP JUMPDEST PUSH1 0x0 DUP1 SLOAD SWAP1 PUSH2 0x100 EXP SWAP1 DIV PUSH1 0xFF AND ISZERO PUSH2 0x11C JUMPI PUSH1 0x40 MLOAD PUSH32 0x8C379A000000000000000000000000000000000000000000000000000000000 DUP2 MSTORE PUSH1 0x4 ADD PUSH2 0x113 SWAP1 PUSH2 0x26B JUMP JUMPDEST PUSH1 0x40 MLOAD DUP1 SWAP2 SUB SWAP1 REVERT JUMPDEST PUSH1 0x1 DUP1 PUSH1 0x0 DUP3 DUP3 SLOAD PUSH2 0x12E SWAP2 SWAP1 PUSH2 0x30D JUMP JUMPDEST SWAP3 POP POP DUP2 SWAP1 SSTORE POP JUMP JUMPDEST DUP1 PUSH1 0x0 DUP1 PUSH2 0x100 EXP DUP2 SLOAD DUP2 PUSH1 0xFF MUL NOT AND SWAP1 DUP4 ISZERO ISZERO MUL OR SWAP1 SSTORE POP POP JUMP JUMPDEST PUSH1 0x0 DUP1 SLOAD SWAP1 PUSH2 0x100 EXP SWAP1 DIV PUSH1 0xFF AND ISZERO PUSH2 0x1A1 JUMPI PUSH1 0x40 MLOAD PUSH32 0x8C379A000000000000000000000000000000000000000000000000000000000 DUP2 MSTORE PUSH1 0x4 ADD PUSH2 0x198 SWAP1 PUSH2 0x26B JUMP JUMPDEST PUSH1 0x40 MLOAD DUP1 SWAP2 SUB SWAP1 REVERT JUMPDEST PUSH1 0x1 DUP1 PUSH1 0x0 DUP3 DUP3 SLOAD PUSH2 0x1B3 SWAP2 SWAP1 PUSH2 0x2B7 JUMP JUMPDEST SWAP3 POP POP DUP2 SWAP1 SSTORE POP JUMP JUMPDEST PUSH1 0x0 DUP1 SLOAD SWAP1 PUSH2 0x100 EXP SWAP1 DIV PUSH1 0xFF AND DUP2 JUMP JUMPDEST PUSH1 0x0 DUP2 CALLDATALOAD SWAP1 POP PUSH2 0x1DC DUP2 PUSH2 0x3B4 JUMP JUMPDEST SWAP3 SWAP2 POP POP JUMP JUMPDEST PUSH1 0x0 PUSH1 0x20 DUP3 DUP5 SUB SLT ISZERO PUSH2 0x1F8 JUMPI PUSH2 0x1F7 PUSH2 0x386 JUMP JUMPDEST JUMPDEST PUSH1 0x0 PUSH2 0x206 DUP5 DUP3 DUP6 ADD PUSH2 0x1CD JUMP JUMPDEST SWAP2 POP POP SWAP3 SWAP2 POP POP JUMP JUMPDEST PUSH2 0x218 DUP2 PUSH2 0x341 JUMP JUMPDEST DUP3 MSTORE POP POP JUMP JUMPDEST PUSH1 0x0 PUSH2 0x22B PUSH1 0x5 DUP4 PUSH2 0x2A6 JUMP JUMPDEST SWAP2 POP PUSH2 0x236 DUP3 PUSH2 0x38B JUMP JUMPDEST PUSH1 0x20 DUP3 ADD SWAP1 POP SWAP2 SWAP1 POP JUMP JUMPDEST PUSH2 0x24A DUP2 PUSH2 0x34D JUMP JUMPDEST DUP3 MSTORE POP POP JUMP JUMPDEST PUSH1 0x0 PUSH1 0x20 DUP3 ADD SWAP1 POP PUSH2 0x265 PUSH1 0x0 DUP4 ADD DUP5 PUSH2 0x20F JUMP JUMPDEST SWAP3 SWAP2 POP POP JUMP JUMPDEST PUSH1 0x0 PUSH1 0x20 DUP3 ADD SWAP1 POP DUP2 DUP2 SUB PUSH1 0x0 DUP4 ADD MSTORE PUSH2 0x284 DUP2 PUSH2 0x21E JUMP JUMPDEST SWAP1 POP SWAP2 SWAP1 POP JUMP JUMPDEST PUSH1 0x0 PUSH1 0x20 DUP3 ADD SWAP1 POP PUSH2 0x2A0 PUSH1 0x0 DUP4 ADD DUP5 PUSH2 0x241 JUMP JUMPDEST SWAP3 SWAP2 POP POP JUMP JUMPDEST PUSH1 0x0 DUP3 DUP3 MSTORE PUSH1 0x20 DUP3 ADD SWAP1 POP SWAP3 SWAP2 POP POP JUMP JUMPDEST PUSH1 0x0 PUSH2 0x2C2 DUP3 PUSH2 0x34D JUMP JUMPDEST SWAP2 POP PUSH2 0x2CD DUP4 PUSH2 0x34D JUMP JUMPDEST SWAP3 POP DUP3 PUSH32 0xFFFFFFFFFFFFFFFFFFFFFFFFFFFFFFFFFFFFFFFFFFFFFFFFFFFFFFFFFFFFFFFF SUB DUP3 GT ISZERO PUSH2 0x302 JUMPI PUSH2 0x301 PUSH2 0x357 JUMP JUMPDEST JUMPDEST DUP3 DUP3 ADD SWAP1 POP SWAP3 SWAP2 POP POP JUMP JUMPDEST PUSH1 0x0 PUSH2 0x318 DUP3 PUSH2 0x34D JUMP JUMPDEST SWAP2 POP PUSH2 0x323 DUP4 PUSH2 0x34D JUMP JUMPDEST SWAP3 POP DUP3 DUP3 LT ISZERO PUSH2 0x336 JUMPI PUSH2 0x335 PUSH2 0x357 JUMP JUMPDEST JUMPDEST DUP3 DUP3 SUB SWAP1 POP SWAP3 SWAP2 POP POP JUMP JUMPDEST PUSH1 0x0 DUP2 ISZERO ISZERO SWAP1 POP SWAP2 SWAP1 POP JUMP JUMPDEST PUSH1 0x0 DUP2 SWAP1 POP SWAP2 SWAP1 POP JUMP JUMPDEST PUSH32 0x4E487B7100000000000000000000000000000000000000000000000000000000 PUSH1 0x0 MSTORE PUSH1 0x11 PUSH1 0x4 MSTORE PUSH1 0x24 PUSH1 0x0 REVERT JUMPDEST PUSH1 0x0 DUP1 REVERT JUMPDEST PUSH32 0x7061757365000000000000000000000000000000000000000000000000000000 PUSH1 0x0 DUP3 ADD MSTORE POP JUMP JUMPDEST PUSH2 0x3BD DUP2 PUSH2 0x341 JUMP JUMPDEST DUP2 EQ PUSH2 0x3C8 JUMPI PUSH1 0x0 DUP1 REVERT JUMPDEST POP JUMP INVALID LOG2 PUSH5 0x6970667358 0x22 SLT KECCAK256 SELFBALANCE SAR RETURNDATASIZE CREATE MUL DUP1 0xB1 MLOAD 0x5F PUSH4 0x9FB9A8D8 PUSH26 0x1BE6E2383101FDD4813CCAC45740409E5C64736F6C6343000807 STOP CALLER "
				},
				"gasEstimates": {
					"creation": {
						"codeDepositCost": "205000",
						"executionCost": "251",
						"totalCost": "205251"
					},
					"external": {
						"addCount()": "infinite",
						"count()": "2407",
						"minCount()": "infinite",
						"pause()": "2534",
						"togglePause(bool)": "24701"
					}
				},
				"methodIdentifiers": {
					"addCount()": "6cefce6e",
					"count()": "06661abd",
					"minCount()": "0693b1ab",
					"pause()": "8456cb59",
					"togglePause(bool)": "57d159c6"
				}
			},
			"storageLayout": {
				"storage": [
					{
						"astId": 3,
						"contract": "Day11_Modifier.sol:FunctionModifier",
						"label": "pause",
						"offset": 0,
						"slot": "0",
						"type": "t_bool"
					},
					{
						"astId": 5,
						"contract": "Day11_Modifier.sol:FunctionModifier",
						"label": "count",
						"offset": 0,
						"slot": "1",
						"type": "t_uint256"
					}
				],
				"types": {
					"t_bool": {
						"encoding": "inplace",
						"label": "bool",
						"numberOfBytes": "1"
					},
					"t_uint256": {
						"encoding": "inplace",
						"label": "uint256",
						"numberOfBytes": "32"
					}
				}
			},
			"userdoc": {
				"kind": "user",
				"methods": {},
				"version": 1
			}
		}
	}
}