{
	"Day37_Call.sol": {
		"Call": {
			"abi": [
				{
					"inputs": [
						{
							"internalType": "address",
							"name": "_test",
							"type": "address"
						}
					],
					"name": "callFoo",
					"outputs": [],
					"stateMutability": "payable",
					"type": "function"
				},
				{
					"inputs": [],
					"name": "data",
					"outputs": [
						{
							"internalType": "bytes",
							"name": "",
							"type": "bytes"
						}
					],
					"stateMutability": "view",
					"type": "function"
				}
			],
			"devdoc": {
				"kind": "dev",
				"methods": {},
				"version": 1
			},
			"evm": {
				"assembly": "    /* \"Day37_Call.sol\":328:580  contract Call {... */\n  mstore(0x40, 0x80)\n  callvalue\n  dup1\n  iszero\n  tag_1\n  jumpi\n  0x00\n  dup1\n  revert\ntag_1:\n  pop\n  dataSize(sub_0)\n  dup1\n  dataOffset(sub_0)\n  0x00\n  codecopy\n  0x00\n  return\nstop\n\nsub_0: assembly {\n        /* \"Day37_Call.sol\":328:580  contract Call {... */\n      mstore(0x40, 0x80)\n      jumpi(tag_1, lt(calldatasize, 0x04))\n      shr(0xe0, calldataload(0x00))\n      dup1\n      0x73d4a13a\n      eq\n      tag_2\n      jumpi\n      dup1\n      0xedcbe76c\n      eq\n      tag_3\n      jumpi\n    tag_1:\n      0x00\n      dup1\n      revert\n        /* \"Day37_Call.sol\":348:365  bytes public data */\n    tag_2:\n      callvalue\n      dup1\n      iszero\n      tag_4\n      jumpi\n      0x00\n      dup1\n      revert\n    tag_4:\n      pop\n      tag_5\n      tag_6\n      jump\t// in\n    tag_5:\n      mload(0x40)\n      tag_7\n      swap2\n      swap1\n      tag_8\n      jump\t// in\n    tag_7:\n      mload(0x40)\n      dup1\n      swap2\n      sub\n      swap1\n      return\n        /* \"Day37_Call.sol\":372:578  function callFoo(address _test) external payable {... */\n    tag_3:\n      tag_9\n      0x04\n      dup1\n      calldatasize\n      sub\n      dup2\n      add\n      swap1\n      tag_10\n      swap2\n      swap1\n      tag_11\n      jump\t// in\n    tag_10:\n      tag_12\n      jump\t// in\n    tag_9:\n      stop\n        /* \"Day37_Call.sol\":348:365  bytes public data */\n    tag_6:\n      0x00\n      dup1\n      sload\n      tag_13\n      swap1\n      tag_14\n      jump\t// in\n    tag_13:\n      dup1\n      0x1f\n      add\n      0x20\n      dup1\n      swap2\n      div\n      mul\n      0x20\n      add\n      mload(0x40)\n      swap1\n      dup2\n      add\n      0x40\n      mstore\n      dup1\n      swap3\n      swap2\n      swap1\n      dup2\n      dup2\n      mstore\n      0x20\n      add\n      dup3\n      dup1\n      sload\n      tag_15\n      swap1\n      tag_14\n      jump\t// in\n    tag_15:\n      dup1\n      iszero\n      tag_16\n      jumpi\n      dup1\n      0x1f\n      lt\n      tag_17\n      jumpi\n      0x0100\n      dup1\n      dup4\n      sload\n      div\n      mul\n      dup4\n      mstore\n      swap2\n      0x20\n      add\n      swap2\n      jump(tag_16)\n    tag_17:\n      dup3\n      add\n      swap2\n      swap1\n      0x00\n      mstore\n      keccak256(0x00, 0x20)\n      swap1\n    tag_18:\n      dup2\n      sload\n      dup2\n      mstore\n      swap1\n      0x01\n      add\n      swap1\n      0x20\n      add\n      dup1\n      dup4\n      gt\n      tag_18\n      jumpi\n      dup3\n      swap1\n      sub\n      0x1f\n      and\n      dup3\n      add\n      swap2\n    tag_16:\n      pop\n      pop\n      pop\n      pop\n      pop\n      dup2\n      jump\t// out\n        /* \"Day37_Call.sol\":372:578  function callFoo(address _test) external payable {... */\n    tag_12:\n        /* \"Day37_Call.sol\":432:444  bool success */\n      0x00\n        /* \"Day37_Call.sol\":446:464  bytes memory _data */\n      dup1\n        /* \"Day37_Call.sol\":468:473  _test */\n      dup3\n        /* \"Day37_Call.sol\":468:478  _test.call */\n      0xffffffffffffffffffffffffffffffffffffffff\n      and\n        /* \"Day37_Call.sol\":485:488  333 */\n      0x014d\n        /* \"Day37_Call.sol\":494:498  5000 */\n      0x1388\n        /* \"Day37_Call.sol\":468:562  _test.call{value:333, gas:5000}(abi.encodeWithSignature(\"foo(string,uint256)\",\"foo call\",123)) */\n      swap1\n        /* \"Day37_Call.sol\":557:560  123 */\n      0x7b\n        /* \"Day37_Call.sol\":500:561  abi.encodeWithSignature(\"foo(string,uint256)\",\"foo call\",123) */\n      add(0x24, mload(0x40))\n      tag_20\n      swap2\n      swap1\n      tag_21\n      jump\t// in\n    tag_20:\n      mload(0x40)\n      0x20\n      dup2\n      dup4\n      sub\n      sub\n      dup2\n      mstore\n      swap1\n      0x40\n      mstore\n      and(not(0xffffffffffffffffffffffffffffffffffffffffffffffffffffffff), 0x24ccab8f00000000000000000000000000000000000000000000000000000000)\n      0x20\n      dup3\n      add\n      dup1\n      mload\n      0xffffffffffffffffffffffffffffffffffffffffffffffffffffffff\n      dup4\n      dup2\n      dup4\n      and\n      or\n      dup4\n      mstore\n      pop\n      pop\n      pop\n      pop\n        /* \"Day37_Call.sol\":468:562  _test.call{value:333, gas:5000}(abi.encodeWithSignature(\"foo(string,uint256)\",\"foo call\",123)) */\n      mload(0x40)\n      tag_22\n      swap2\n      swap1\n      tag_23\n      jump\t// in\n    tag_22:\n      0x00\n      mload(0x40)\n      dup1\n      dup4\n      sub\n      dup2\n      dup6\n      dup9\n      dup9\n      call\n      swap4\n      pop\n      pop\n      pop\n      pop\n      returndatasize\n      dup1\n      0x00\n      dup2\n      eq\n      tag_26\n      jumpi\n      mload(0x40)\n      swap2\n      pop\n      and(add(returndatasize, 0x3f), not(0x1f))\n      dup3\n      add\n      0x40\n      mstore\n      returndatasize\n      dup3\n      mstore\n      returndatasize\n      0x00\n      0x20\n      dup5\n      add\n      returndatacopy\n      jump(tag_25)\n    tag_26:\n      0x60\n      swap2\n      pop\n    tag_25:\n      pop\n        /* \"Day37_Call.sol\":431:562  (bool success, bytes memory _data) = _test.call{value:333, gas:5000}(abi.encodeWithSignature(\"foo(string,uint256)\",\"foo call\",123)) */\n      swap2\n      pop\n      swap2\n      pop\n        /* \"Day37_Call.sol\":421:578  {... */\n      pop\n      pop\n        /* \"Day37_Call.sol\":372:578  function callFoo(address _test) external payable {... */\n      pop\n      jump\t// out\n        /* \"#utility.yul\":7:146   */\n    tag_28:\n        /* \"#utility.yul\":53:58   */\n      0x00\n        /* \"#utility.yul\":91:97   */\n      dup2\n        /* \"#utility.yul\":78:98   */\n      calldataload\n        /* \"#utility.yul\":69:98   */\n      swap1\n      pop\n        /* \"#utility.yul\":107:140   */\n      tag_30\n        /* \"#utility.yul\":134:139   */\n      dup2\n        /* \"#utility.yul\":107:140   */\n      tag_31\n      jump\t// in\n    tag_30:\n        /* \"#utility.yul\":7:146   */\n      swap3\n      swap2\n      pop\n      pop\n      jump\t// out\n        /* \"#utility.yul\":152:481   */\n    tag_11:\n        /* \"#utility.yul\":211:217   */\n      0x00\n        /* \"#utility.yul\":260:262   */\n      0x20\n        /* \"#utility.yul\":248:257   */\n      dup3\n        /* \"#utility.yul\":239:246   */\n      dup5\n        /* \"#utility.yul\":235:258   */\n      sub\n        /* \"#utility.yul\":231:263   */\n      slt\n        /* \"#utility.yul\":228:347   */\n      iszero\n      tag_33\n      jumpi\n        /* \"#utility.yul\":266:345   */\n      tag_34\n      tag_35\n      jump\t// in\n    tag_34:\n        /* \"#utility.yul\":228:347   */\n    tag_33:\n        /* \"#utility.yul\":386:387   */\n      0x00\n        /* \"#utility.yul\":411:464   */\n      tag_36\n        /* \"#utility.yul\":456:463   */\n      dup5\n        /* \"#utility.yul\":447:453   */\n      dup3\n        /* \"#utility.yul\":436:445   */\n      dup6\n        /* \"#utility.yul\":432:454   */\n      add\n        /* \"#utility.yul\":411:464   */\n      tag_28\n      jump\t// in\n    tag_36:\n        /* \"#utility.yul\":401:464   */\n      swap2\n      pop\n        /* \"#utility.yul\":357:474   */\n      pop\n        /* \"#utility.yul\":152:481   */\n      swap3\n      swap2\n      pop\n      pop\n      jump\t// out\n        /* \"#utility.yul\":487:847   */\n    tag_37:\n        /* \"#utility.yul\":573:576   */\n      0x00\n        /* \"#utility.yul\":601:639   */\n      tag_39\n        /* \"#utility.yul\":633:638   */\n      dup3\n        /* \"#utility.yul\":601:639   */\n      tag_40\n      jump\t// in\n    tag_39:\n        /* \"#utility.yul\":655:725   */\n      tag_41\n        /* \"#utility.yul\":718:724   */\n      dup2\n        /* \"#utility.yul\":713:716   */\n      dup6\n        /* \"#utility.yul\":655:725   */\n      tag_42\n      jump\t// in\n    tag_41:\n        /* \"#utility.yul\":648:725   */\n      swap4\n      pop\n        /* \"#utility.yul\":734:786   */\n      tag_43\n        /* \"#utility.yul\":779:785   */\n      dup2\n        /* \"#utility.yul\":774:777   */\n      dup6\n        /* \"#utility.yul\":767:771   */\n      0x20\n        /* \"#utility.yul\":760:765   */\n      dup7\n        /* \"#utility.yul\":756:772   */\n      add\n        /* \"#utility.yul\":734:786   */\n      tag_44\n      jump\t// in\n    tag_43:\n        /* \"#utility.yul\":811:840   */\n      tag_45\n        /* \"#utility.yul\":833:839   */\n      dup2\n        /* \"#utility.yul\":811:840   */\n      tag_46\n      jump\t// in\n    tag_45:\n        /* \"#utility.yul\":806:809   */\n      dup5\n        /* \"#utility.yul\":802:841   */\n      add\n        /* \"#utility.yul\":795:841   */\n      swap2\n      pop\n        /* \"#utility.yul\":577:847   */\n      pop\n        /* \"#utility.yul\":487:847   */\n      swap3\n      swap2\n      pop\n      pop\n      jump\t// out\n        /* \"#utility.yul\":853:1226   */\n    tag_47:\n        /* \"#utility.yul\":957:960   */\n      0x00\n        /* \"#utility.yul\":985:1023   */\n      tag_49\n        /* \"#utility.yul\":1017:1022   */\n      dup3\n        /* \"#utility.yul\":985:1023   */\n      tag_40\n      jump\t// in\n    tag_49:\n        /* \"#utility.yul\":1039:1127   */\n      tag_50\n        /* \"#utility.yul\":1120:1126   */\n      dup2\n        /* \"#utility.yul\":1115:1118   */\n      dup6\n        /* \"#utility.yul\":1039:1127   */\n      tag_51\n      jump\t// in\n    tag_50:\n        /* \"#utility.yul\":1032:1127   */\n      swap4\n      pop\n        /* \"#utility.yul\":1136:1188   */\n      tag_52\n        /* \"#utility.yul\":1181:1187   */\n      dup2\n        /* \"#utility.yul\":1176:1179   */\n      dup6\n        /* \"#utility.yul\":1169:1173   */\n      0x20\n        /* \"#utility.yul\":1162:1167   */\n      dup7\n        /* \"#utility.yul\":1158:1174   */\n      add\n        /* \"#utility.yul\":1136:1188   */\n      tag_44\n      jump\t// in\n    tag_52:\n        /* \"#utility.yul\":1213:1219   */\n      dup1\n        /* \"#utility.yul\":1208:1211   */\n      dup5\n        /* \"#utility.yul\":1204:1220   */\n      add\n        /* \"#utility.yul\":1197:1220   */\n      swap2\n      pop\n        /* \"#utility.yul\":961:1226   */\n      pop\n        /* \"#utility.yul\":853:1226   */\n      swap3\n      swap2\n      pop\n      pop\n      jump\t// out\n        /* \"#utility.yul\":1232:1379   */\n    tag_53:\n        /* \"#utility.yul\":1327:1372   */\n      tag_55\n        /* \"#utility.yul\":1366:1371   */\n      dup2\n        /* \"#utility.yul\":1327:1372   */\n      tag_56\n      jump\t// in\n    tag_55:\n        /* \"#utility.yul\":1322:1325   */\n      dup3\n        /* \"#utility.yul\":1315:1373   */\n      mstore\n        /* \"#utility.yul\":1232:1379   */\n      pop\n      pop\n      jump\t// out\n        /* \"#utility.yul\":1385:1750   */\n    tag_57:\n        /* \"#utility.yul\":1527:1530   */\n      0x00\n        /* \"#utility.yul\":1548:1614   */\n      tag_59\n        /* \"#utility.yul\":1612:1613   */\n      0x08\n        /* \"#utility.yul\":1607:1610   */\n      dup4\n        /* \"#utility.yul\":1548:1614   */\n      tag_60\n      jump\t// in\n    tag_59:\n        /* \"#utility.yul\":1541:1614   */\n      swap2\n      pop\n        /* \"#utility.yul\":1623:1716   */\n      tag_61\n        /* \"#utility.yul\":1712:1715   */\n      dup3\n        /* \"#utility.yul\":1623:1716   */\n      tag_62\n      jump\t// in\n    tag_61:\n        /* \"#utility.yul\":1741:1743   */\n      0x20\n        /* \"#utility.yul\":1736:1739   */\n      dup3\n        /* \"#utility.yul\":1732:1744   */\n      add\n        /* \"#utility.yul\":1725:1744   */\n      swap1\n      pop\n        /* \"#utility.yul\":1385:1750   */\n      swap2\n      swap1\n      pop\n      jump\t// out\n        /* \"#utility.yul\":1756:2027   */\n    tag_23:\n        /* \"#utility.yul\":1886:1889   */\n      0x00\n        /* \"#utility.yul\":1908:2001   */\n      tag_64\n        /* \"#utility.yul\":1997:2000   */\n      dup3\n        /* \"#utility.yul\":1988:1994   */\n      dup5\n        /* \"#utility.yul\":1908:2001   */\n      tag_47\n      jump\t// in\n    tag_64:\n        /* \"#utility.yul\":1901:2001   */\n      swap2\n      pop\n        /* \"#utility.yul\":2018:2021   */\n      dup2\n        /* \"#utility.yul\":2011:2021   */\n      swap1\n      pop\n        /* \"#utility.yul\":1756:2027   */\n      swap3\n      swap2\n      pop\n      pop\n      jump\t// out\n        /* \"#utility.yul\":2033:2342   */\n    tag_8:\n        /* \"#utility.yul\":2144:2148   */\n      0x00\n        /* \"#utility.yul\":2182:2184   */\n      0x20\n        /* \"#utility.yul\":2171:2180   */\n      dup3\n        /* \"#utility.yul\":2167:2185   */\n      add\n        /* \"#utility.yul\":2159:2185   */\n      swap1\n      pop\n        /* \"#utility.yul\":2231:2240   */\n      dup2\n        /* \"#utility.yul\":2225:2229   */\n      dup2\n        /* \"#utility.yul\":2221:2241   */\n      sub\n        /* \"#utility.yul\":2217:2218   */\n      0x00\n        /* \"#utility.yul\":2206:2215   */\n      dup4\n        /* \"#utility.yul\":2202:2219   */\n      add\n        /* \"#utility.yul\":2195:2242   */\n      mstore\n        /* \"#utility.yul\":2259:2335   */\n      tag_66\n        /* \"#utility.yul\":2330:2334   */\n      dup2\n        /* \"#utility.yul\":2321:2327   */\n      dup5\n        /* \"#utility.yul\":2259:2335   */\n      tag_37\n      jump\t// in\n    tag_66:\n        /* \"#utility.yul\":2251:2335   */\n      swap1\n      pop\n        /* \"#utility.yul\":2033:2342   */\n      swap3\n      swap2\n      pop\n      pop\n      jump\t// out\n        /* \"#utility.yul\":2348:2893   */\n    tag_21:\n        /* \"#utility.yul\":2550:2554   */\n      0x00\n        /* \"#utility.yul\":2588:2590   */\n      0x40\n        /* \"#utility.yul\":2577:2586   */\n      dup3\n        /* \"#utility.yul\":2573:2591   */\n      add\n        /* \"#utility.yul\":2565:2591   */\n      swap1\n      pop\n        /* \"#utility.yul\":2637:2646   */\n      dup2\n        /* \"#utility.yul\":2631:2635   */\n      dup2\n        /* \"#utility.yul\":2627:2647   */\n      sub\n        /* \"#utility.yul\":2623:2624   */\n      0x00\n        /* \"#utility.yul\":2612:2621   */\n      dup4\n        /* \"#utility.yul\":2608:2625   */\n      add\n        /* \"#utility.yul\":2601:2648   */\n      mstore\n        /* \"#utility.yul\":2665:2796   */\n      tag_68\n        /* \"#utility.yul\":2791:2795   */\n      dup2\n        /* \"#utility.yul\":2665:2796   */\n      tag_57\n      jump\t// in\n    tag_68:\n        /* \"#utility.yul\":2657:2796   */\n      swap1\n      pop\n        /* \"#utility.yul\":2806:2886   */\n      tag_69\n        /* \"#utility.yul\":2882:2884   */\n      0x20\n        /* \"#utility.yul\":2871:2880   */\n      dup4\n        /* \"#utility.yul\":2867:2885   */\n      add\n        /* \"#utility.yul\":2858:2864   */\n      dup5\n        /* \"#utility.yul\":2806:2886   */\n      tag_53\n      jump\t// in\n    tag_69:\n        /* \"#utility.yul\":2348:2893   */\n      swap3\n      swap2\n      pop\n      pop\n      jump\t// out\n        /* \"#utility.yul\":2980:3078   */\n    tag_40:\n        /* \"#utility.yul\":3031:3037   */\n      0x00\n        /* \"#utility.yul\":3065:3070   */\n      dup2\n        /* \"#utility.yul\":3059:3071   */\n      mload\n        /* \"#utility.yul\":3049:3071   */\n      swap1\n      pop\n        /* \"#utility.yul\":2980:3078   */\n      swap2\n      swap1\n      pop\n      jump\t// out\n        /* \"#utility.yul\":3084:3252   */\n    tag_42:\n        /* \"#utility.yul\":3167:3178   */\n      0x00\n        /* \"#utility.yul\":3201:3207   */\n      dup3\n        /* \"#utility.yul\":3196:3199   */\n      dup3\n        /* \"#utility.yul\":3189:3208   */\n      mstore\n        /* \"#utility.yul\":3241:3245   */\n      0x20\n        /* \"#utility.yul\":3236:3239   */\n      dup3\n        /* \"#utility.yul\":3232:3246   */\n      add\n        /* \"#utility.yul\":3217:3246   */\n      swap1\n      pop\n        /* \"#utility.yul\":3084:3252   */\n      swap3\n      swap2\n      pop\n      pop\n      jump\t// out\n        /* \"#utility.yul\":3258:3405   */\n    tag_51:\n        /* \"#utility.yul\":3359:3370   */\n      0x00\n        /* \"#utility.yul\":3396:3399   */\n      dup2\n        /* \"#utility.yul\":3381:3399   */\n      swap1\n      pop\n        /* \"#utility.yul\":3258:3405   */\n      swap3\n      swap2\n      pop\n      pop\n      jump\t// out\n        /* \"#utility.yul\":3411:3580   */\n    tag_60:\n        /* \"#utility.yul\":3495:3506   */\n      0x00\n        /* \"#utility.yul\":3529:3535   */\n      dup3\n        /* \"#utility.yul\":3524:3527   */\n      dup3\n        /* \"#utility.yul\":3517:3536   */\n      mstore\n        /* \"#utility.yul\":3569:3573   */\n      0x20\n        /* \"#utility.yul\":3564:3567   */\n      dup3\n        /* \"#utility.yul\":3560:3574   */\n      add\n        /* \"#utility.yul\":3545:3574   */\n      swap1\n      pop\n        /* \"#utility.yul\":3411:3580   */\n      swap3\n      swap2\n      pop\n      pop\n      jump\t// out\n        /* \"#utility.yul\":3586:3682   */\n    tag_76:\n        /* \"#utility.yul\":3623:3630   */\n      0x00\n        /* \"#utility.yul\":3652:3676   */\n      tag_78\n        /* \"#utility.yul\":3670:3675   */\n      dup3\n        /* \"#utility.yul\":3652:3676   */\n      tag_79\n      jump\t// in\n    tag_78:\n        /* \"#utility.yul\":3641:3676   */\n      swap1\n      pop\n        /* \"#utility.yul\":3586:3682   */\n      swap2\n      swap1\n      pop\n      jump\t// out\n        /* \"#utility.yul\":3688:3814   */\n    tag_79:\n        /* \"#utility.yul\":3725:3732   */\n      0x00\n        /* \"#utility.yul\":3765:3807   */\n      0xffffffffffffffffffffffffffffffffffffffff\n        /* \"#utility.yul\":3758:3763   */\n      dup3\n        /* \"#utility.yul\":3754:3808   */\n      and\n        /* \"#utility.yul\":3743:3808   */\n      swap1\n      pop\n        /* \"#utility.yul\":3688:3814   */\n      swap2\n      swap1\n      pop\n      jump\t// out\n        /* \"#utility.yul\":3820:3906   */\n    tag_81:\n        /* \"#utility.yul\":3855:3862   */\n      0x00\n        /* \"#utility.yul\":3895:3899   */\n      0xff\n        /* \"#utility.yul\":3888:3893   */\n      dup3\n        /* \"#utility.yul\":3884:3900   */\n      and\n        /* \"#utility.yul\":3873:3900   */\n      swap1\n      pop\n        /* \"#utility.yul\":3820:3906   */\n      swap2\n      swap1\n      pop\n      jump\t// out\n        /* \"#utility.yul\":3912:4031   */\n    tag_56:\n        /* \"#utility.yul\":3970:3979   */\n      0x00\n        /* \"#utility.yul\":4003:4025   */\n      tag_84\n        /* \"#utility.yul\":4019:4024   */\n      dup3\n        /* \"#utility.yul\":4003:4025   */\n      tag_81\n      jump\t// in\n    tag_84:\n        /* \"#utility.yul\":3990:4025   */\n      swap1\n      pop\n        /* \"#utility.yul\":3912:4031   */\n      swap2\n      swap1\n      pop\n      jump\t// out\n        /* \"#utility.yul\":4037:4344   */\n    tag_44:\n        /* \"#utility.yul\":4105:4106   */\n      0x00\n        /* \"#utility.yul\":4115:4228   */\n    tag_86:\n        /* \"#utility.yul\":4129:4135   */\n      dup4\n        /* \"#utility.yul\":4126:4127   */\n      dup2\n        /* \"#utility.yul\":4123:4136   */\n      lt\n        /* \"#utility.yul\":4115:4228   */\n      iszero\n      tag_88\n      jumpi\n        /* \"#utility.yul\":4214:4215   */\n      dup1\n        /* \"#utility.yul\":4209:4212   */\n      dup3\n        /* \"#utility.yul\":4205:4216   */\n      add\n        /* \"#utility.yul\":4199:4217   */\n      mload\n        /* \"#utility.yul\":4195:4196   */\n      dup2\n        /* \"#utility.yul\":4190:4193   */\n      dup5\n        /* \"#utility.yul\":4186:4197   */\n      add\n        /* \"#utility.yul\":4179:4218   */\n      mstore\n        /* \"#utility.yul\":4151:4153   */\n      0x20\n        /* \"#utility.yul\":4148:4149   */\n      dup2\n        /* \"#utility.yul\":4144:4154   */\n      add\n        /* \"#utility.yul\":4139:4154   */\n      swap1\n      pop\n        /* \"#utility.yul\":4115:4228   */\n      jump(tag_86)\n    tag_88:\n        /* \"#utility.yul\":4246:4252   */\n      dup4\n        /* \"#utility.yul\":4243:4244   */\n      dup2\n        /* \"#utility.yul\":4240:4253   */\n      gt\n        /* \"#utility.yul\":4237:4338   */\n      iszero\n      tag_89\n      jumpi\n        /* \"#utility.yul\":4326:4327   */\n      0x00\n        /* \"#utility.yul\":4317:4323   */\n      dup5\n        /* \"#utility.yul\":4312:4315   */\n      dup5\n        /* \"#utility.yul\":4308:4324   */\n      add\n        /* \"#utility.yul\":4301:4328   */\n      mstore\n        /* \"#utility.yul\":4237:4338   */\n    tag_89:\n        /* \"#utility.yul\":4086:4344   */\n      pop\n        /* \"#utility.yul\":4037:4344   */\n      pop\n      pop\n      pop\n      jump\t// out\n        /* \"#utility.yul\":4350:4670   */\n    tag_14:\n        /* \"#utility.yul\":4394:4400   */\n      0x00\n        /* \"#utility.yul\":4431:4432   */\n      0x02\n        /* \"#utility.yul\":4425:4429   */\n      dup3\n        /* \"#utility.yul\":4421:4433   */\n      div\n        /* \"#utility.yul\":4411:4433   */\n      swap1\n      pop\n        /* \"#utility.yul\":4478:4479   */\n      0x01\n        /* \"#utility.yul\":4472:4476   */\n      dup3\n        /* \"#utility.yul\":4468:4480   */\n      and\n        /* \"#utility.yul\":4499:4517   */\n      dup1\n        /* \"#utility.yul\":4489:4570   */\n      tag_91\n      jumpi\n        /* \"#utility.yul\":4555:4559   */\n      0x7f\n        /* \"#utility.yul\":4547:4553   */\n      dup3\n        /* \"#utility.yul\":4543:4560   */\n      and\n        /* \"#utility.yul\":4533:4560   */\n      swap2\n      pop\n        /* \"#utility.yul\":4489:4570   */\n    tag_91:\n        /* \"#utility.yul\":4617:4619   */\n      0x20\n        /* \"#utility.yul\":4609:4615   */\n      dup3\n        /* \"#utility.yul\":4606:4620   */\n      lt\n        /* \"#utility.yul\":4586:4604   */\n      dup2\n        /* \"#utility.yul\":4583:4621   */\n      eq\n        /* \"#utility.yul\":4580:4664   */\n      iszero\n      tag_92\n      jumpi\n        /* \"#utility.yul\":4636:4654   */\n      tag_93\n      tag_94\n      jump\t// in\n    tag_93:\n        /* \"#utility.yul\":4580:4664   */\n    tag_92:\n        /* \"#utility.yul\":4401:4670   */\n      pop\n        /* \"#utility.yul\":4350:4670   */\n      swap2\n      swap1\n      pop\n      jump\t// out\n        /* \"#utility.yul\":4676:4856   */\n    tag_94:\n        /* \"#utility.yul\":4724:4801   */\n      0x4e487b7100000000000000000000000000000000000000000000000000000000\n        /* \"#utility.yul\":4721:4722   */\n      0x00\n        /* \"#utility.yul\":4714:4802   */\n      mstore\n        /* \"#utility.yul\":4821:4825   */\n      0x22\n        /* \"#utility.yul\":4818:4819   */\n      0x04\n        /* \"#utility.yul\":4811:4826   */\n      mstore\n        /* \"#utility.yul\":4845:4849   */\n      0x24\n        /* \"#utility.yul\":4842:4843   */\n      0x00\n        /* \"#utility.yul\":4835:4850   */\n      revert\n        /* \"#utility.yul\":4985:5102   */\n    tag_35:\n        /* \"#utility.yul\":5094:5095   */\n      0x00\n        /* \"#utility.yul\":5091:5092   */\n      dup1\n        /* \"#utility.yul\":5084:5096   */\n      revert\n        /* \"#utility.yul\":5108:5210   */\n    tag_46:\n        /* \"#utility.yul\":5149:5155   */\n      0x00\n        /* \"#utility.yul\":5200:5202   */\n      0x1f\n        /* \"#utility.yul\":5196:5203   */\n      not\n        /* \"#utility.yul\":5191:5193   */\n      0x1f\n        /* \"#utility.yul\":5184:5189   */\n      dup4\n        /* \"#utility.yul\":5180:5194   */\n      add\n        /* \"#utility.yul\":5176:5204   */\n      and\n        /* \"#utility.yul\":5166:5204   */\n      swap1\n      pop\n        /* \"#utility.yul\":5108:5210   */\n      swap2\n      swap1\n      pop\n      jump\t// out\n        /* \"#utility.yul\":5216:5374   */\n    tag_62:\n        /* \"#utility.yul\":5356:5366   */\n      0x666f6f2063616c6c000000000000000000000000000000000000000000000000\n        /* \"#utility.yul\":5352:5353   */\n      0x00\n        /* \"#utility.yul\":5344:5350   */\n      dup3\n        /* \"#utility.yul\":5340:5354   */\n      add\n        /* \"#utility.yul\":5333:5367   */\n      mstore\n        /* \"#utility.yul\":5216:5374   */\n      pop\n      jump\t// out\n        /* \"#utility.yul\":5380:5502   */\n    tag_31:\n        /* \"#utility.yul\":5453:5477   */\n      tag_102\n        /* \"#utility.yul\":5471:5476   */\n      dup2\n        /* \"#utility.yul\":5453:5477   */\n      tag_76\n      jump\t// in\n    tag_102:\n        /* \"#utility.yul\":5446:5451   */\n      dup2\n        /* \"#utility.yul\":5443:5478   */\n      eq\n        /* \"#utility.yul\":5433:5496   */\n      tag_103\n      jumpi\n        /* \"#utility.yul\":5492:5493   */\n      0x00\n        /* \"#utility.yul\":5489:5490   */\n      dup1\n        /* \"#utility.yul\":5482:5494   */\n      revert\n        /* \"#utility.yul\":5433:5496   */\n    tag_103:\n        /* \"#utility.yul\":5380:5502   */\n      pop\n      jump\t// out\n\n    auxdata: 0xa2646970667358221220fa482564a0fc0342c3c575c034f1680b713afc776e7b2c0793069fe986e5e75b64736f6c63430008070033\n}\n",
				"bytecode": {
					"linkReferences": {},
					"object": "608060405234801561001057600080fd5b506104fb806100206000396000f3fe6080604052600436106100295760003560e01c806373d4a13a1461002e578063edcbe76c14610059575b600080fd5b34801561003a57600080fd5b50610043610075565b6040516100509190610302565b60405180910390f35b610073600480360381019061006e9190610222565b610103565b005b600080546100829061040e565b80601f01602080910402602001604051908101604052809291908181526020018280546100ae9061040e565b80156100fb5780601f106100d0576101008083540402835291602001916100fb565b820191906000526020600020905b8154815290600101906020018083116100de57829003601f168201915b505050505081565b6000808273ffffffffffffffffffffffffffffffffffffffff1661014d61138890607b6040516024016101369190610324565b6040516020818303038152906040527f24ccab8f000000000000000000000000000000000000000000000000000000007bffffffffffffffffffffffffffffffffffffffffffffffffffffffff19166020820180517bffffffffffffffffffffffffffffffffffffffffffffffffffffffff83818316178352505050506040516101c091906102eb565b600060405180830381858888f193505050503d80600081146101fe576040519150601f19603f3d011682016040523d82523d6000602084013e610203565b606091505b5091509150505050565b60008135905061021c816104ae565b92915050565b6000602082840312156102385761023761046f565b5b60006102468482850161020d565b91505092915050565b600061025a82610352565b610264818561035d565b93506102748185602086016103db565b61027d81610474565b840191505092915050565b600061029382610352565b61029d818561036e565b93506102ad8185602086016103db565b80840191505092915050565b6102c2816103c9565b82525050565b60006102d5600883610379565b91506102e082610485565b602082019050919050565b60006102f78284610288565b915081905092915050565b6000602082019050818103600083015261031c818461024f565b905092915050565b6000604082019050818103600083015261033d816102c8565b905061034c60208301846102b9565b92915050565b600081519050919050565b600082825260208201905092915050565b600081905092915050565b600082825260208201905092915050565b60006103958261039c565b9050919050565b600073ffffffffffffffffffffffffffffffffffffffff82169050919050565b600060ff82169050919050565b60006103d4826103bc565b9050919050565b60005b838110156103f95780820151818401526020810190506103de565b83811115610408576000848401525b50505050565b6000600282049050600182168061042657607f821691505b6020821081141561043a57610439610440565b5b50919050565b7f4e487b7100000000000000000000000000000000000000000000000000000000600052602260045260246000fd5b600080fd5b6000601f19601f8301169050919050565b7f666f6f2063616c6c000000000000000000000000000000000000000000000000600082015250565b6104b78161038a565b81146104c257600080fd5b5056fea2646970667358221220fa482564a0fc0342c3c575c034f1680b713afc776e7b2c0793069fe986e5e75b64736f6c63430008070033",
					"opcodes": "PUSH1 0x80 PUSH1 0x40 MSTORE CALLVALUE DUP1 ISZERO PUSH2 0x10 JUMPI PUSH1 0x0 DUP1 REVERT JUMPDEST POP PUSH2 0x4FB DUP1 PUSH2 0x20 PUSH1 0x0 CODECOPY PUSH1 0x0 RETURN INVALID PUSH1 0x80 PUSH1 0x40 MSTORE PUSH1 0x4 CALLDATASIZE LT PUSH2 0x29 JUMPI PUSH1 0x0 CALLDATALOAD PUSH1 0xE0 SHR DUP1 PUSH4 0x73D4A13A EQ PUSH2 0x2E JUMPI DUP1 PUSH4 0xEDCBE76C EQ PUSH2 0x59 JUMPI JUMPDEST PUSH1 0x0 DUP1 REVERT JUMPDEST CALLVALUE DUP1 ISZERO PUSH2 0x3A JUMPI PUSH1 0x0 DUP1 REVERT JUMPDEST POP PUSH2 0x43 PUSH2 0x75 JUMP JUMPDEST PUSH1 0x40 MLOAD PUSH2 0x50 SWAP2 SWAP1 PUSH2 0x302 JUMP JUMPDEST PUSH1 0x40 MLOAD DUP1 SWAP2 SUB SWAP1 RETURN JUMPDEST PUSH2 0x73 PUSH1 0x4 DUP1 CALLDATASIZE SUB DUP2 ADD SWAP1 PUSH2 0x6E SWAP2 SWAP1 PUSH2 0x222 JUMP JUMPDEST PUSH2 0x103 JUMP JUMPDEST STOP JUMPDEST PUSH1 0x0 DUP1 SLOAD PUSH2 0x82 SWAP1 PUSH2 0x40E JUMP JUMPDEST DUP1 PUSH1 0x1F ADD PUSH1 0x20 DUP1 SWAP2 DIV MUL PUSH1 0x20 ADD PUSH1 0x40 MLOAD SWAP1 DUP2 ADD PUSH1 0x40 MSTORE DUP1 SWAP3 SWAP2 SWAP1 DUP2 DUP2 MSTORE PUSH1 0x20 ADD DUP3 DUP1 SLOAD PUSH2 0xAE SWAP1 PUSH2 0x40E JUMP JUMPDEST DUP1 ISZERO PUSH2 0xFB JUMPI DUP1 PUSH1 0x1F LT PUSH2 0xD0 JUMPI PUSH2 0x100 DUP1 DUP4 SLOAD DIV MUL DUP4 MSTORE SWAP2 PUSH1 0x20 ADD SWAP2 PUSH2 0xFB JUMP JUMPDEST DUP3 ADD SWAP2 SWAP1 PUSH1 0x0 MSTORE PUSH1 0x20 PUSH1 0x0 KECCAK256 SWAP1 JUMPDEST DUP2 SLOAD DUP2 MSTORE SWAP1 PUSH1 0x1 ADD SWAP1 PUSH1 0x20 ADD DUP1 DUP4 GT PUSH2 0xDE JUMPI DUP3 SWAP1 SUB PUSH1 0x1F AND DUP3 ADD SWAP2 JUMPDEST POP POP POP POP POP DUP2 JUMP JUMPDEST PUSH1 0x0 DUP1 DUP3 PUSH20 0xFFFFFFFFFFFFFFFFFFFFFFFFFFFFFFFFFFFFFFFF AND PUSH2 0x14D PUSH2 0x1388 SWAP1 PUSH1 0x7B PUSH1 0x40 MLOAD PUSH1 0x24 ADD PUSH2 0x136 SWAP2 SWAP1 PUSH2 0x324 JUMP JUMPDEST PUSH1 0x40 MLOAD PUSH1 0x20 DUP2 DUP4 SUB SUB DUP2 MSTORE SWAP1 PUSH1 0x40 MSTORE PUSH32 0x24CCAB8F00000000000000000000000000000000000000000000000000000000 PUSH28 0xFFFFFFFFFFFFFFFFFFFFFFFFFFFFFFFFFFFFFFFFFFFFFFFFFFFFFFFF NOT AND PUSH1 0x20 DUP3 ADD DUP1 MLOAD PUSH28 0xFFFFFFFFFFFFFFFFFFFFFFFFFFFFFFFFFFFFFFFFFFFFFFFFFFFFFFFF DUP4 DUP2 DUP4 AND OR DUP4 MSTORE POP POP POP POP PUSH1 0x40 MLOAD PUSH2 0x1C0 SWAP2 SWAP1 PUSH2 0x2EB JUMP JUMPDEST PUSH1 0x0 PUSH1 0x40 MLOAD DUP1 DUP4 SUB DUP2 DUP6 DUP9 DUP9 CALL SWAP4 POP POP POP POP RETURNDATASIZE DUP1 PUSH1 0x0 DUP2 EQ PUSH2 0x1FE JUMPI PUSH1 0x40 MLOAD SWAP2 POP PUSH1 0x1F NOT PUSH1 0x3F RETURNDATASIZE ADD AND DUP3 ADD PUSH1 0x40 MSTORE RETURNDATASIZE DUP3 MSTORE RETURNDATASIZE PUSH1 0x0 PUSH1 0x20 DUP5 ADD RETURNDATACOPY PUSH2 0x203 JUMP JUMPDEST PUSH1 0x60 SWAP2 POP JUMPDEST POP SWAP2 POP SWAP2 POP POP POP POP JUMP JUMPDEST PUSH1 0x0 DUP2 CALLDATALOAD SWAP1 POP PUSH2 0x21C DUP2 PUSH2 0x4AE JUMP JUMPDEST SWAP3 SWAP2 POP POP JUMP JUMPDEST PUSH1 0x0 PUSH1 0x20 DUP3 DUP5 SUB SLT ISZERO PUSH2 0x238 JUMPI PUSH2 0x237 PUSH2 0x46F JUMP JUMPDEST JUMPDEST PUSH1 0x0 PUSH2 0x246 DUP5 DUP3 DUP6 ADD PUSH2 0x20D JUMP JUMPDEST SWAP2 POP POP SWAP3 SWAP2 POP POP JUMP JUMPDEST PUSH1 0x0 PUSH2 0x25A DUP3 PUSH2 0x352 JUMP JUMPDEST PUSH2 0x264 DUP2 DUP6 PUSH2 0x35D JUMP JUMPDEST SWAP4 POP PUSH2 0x274 DUP2 DUP6 PUSH1 0x20 DUP7 ADD PUSH2 0x3DB JUMP JUMPDEST PUSH2 0x27D DUP2 PUSH2 0x474 JUMP JUMPDEST DUP5 ADD SWAP2 POP POP SWAP3 SWAP2 POP POP JUMP JUMPDEST PUSH1 0x0 PUSH2 0x293 DUP3 PUSH2 0x352 JUMP JUMPDEST PUSH2 0x29D DUP2 DUP6 PUSH2 0x36E JUMP JUMPDEST SWAP4 POP PUSH2 0x2AD DUP2 DUP6 PUSH1 0x20 DUP7 ADD PUSH2 0x3DB JUMP JUMPDEST DUP1 DUP5 ADD SWAP2 POP POP SWAP3 SWAP2 POP POP JUMP JUMPDEST PUSH2 0x2C2 DUP2 PUSH2 0x3C9 JUMP JUMPDEST DUP3 MSTORE POP POP JUMP JUMPDEST PUSH1 0x0 PUSH2 0x2D5 PUSH1 0x8 DUP4 PUSH2 0x379 JUMP JUMPDEST SWAP2 POP PUSH2 0x2E0 DUP3 PUSH2 0x485 JUMP JUMPDEST PUSH1 0x20 DUP3 ADD SWAP1 POP SWAP2 SWAP1 POP JUMP JUMPDEST PUSH1 0x0 PUSH2 0x2F7 DUP3 DUP5 PUSH2 0x288 JUMP JUMPDEST SWAP2 POP DUP2 SWAP1 POP SWAP3 SWAP2 POP POP JUMP JUMPDEST PUSH1 0x0 PUSH1 0x20 DUP3 ADD SWAP1 POP DUP2 DUP2 SUB PUSH1 0x0 DUP4 ADD MSTORE PUSH2 0x31C DUP2 DUP5 PUSH2 0x24F JUMP JUMPDEST SWAP1 POP SWAP3 SWAP2 POP POP JUMP JUMPDEST PUSH1 0x0 PUSH1 0x40 DUP3 ADD SWAP1 POP DUP2 DUP2 SUB PUSH1 0x0 DUP4 ADD MSTORE PUSH2 0x33D DUP2 PUSH2 0x2C8 JUMP JUMPDEST SWAP1 POP PUSH2 0x34C PUSH1 0x20 DUP4 ADD DUP5 PUSH2 0x2B9 JUMP JUMPDEST SWAP3 SWAP2 POP POP JUMP JUMPDEST PUSH1 0x0 DUP2 MLOAD SWAP1 POP SWAP2 SWAP1 POP JUMP JUMPDEST PUSH1 0x0 DUP3 DUP3 MSTORE PUSH1 0x20 DUP3 ADD SWAP1 POP SWAP3 SWAP2 POP POP JUMP JUMPDEST PUSH1 0x0 DUP2 SWAP1 POP SWAP3 SWAP2 POP POP JUMP JUMPDEST PUSH1 0x0 DUP3 DUP3 MSTORE PUSH1 0x20 DUP3 ADD SWAP1 POP SWAP3 SWAP2 POP POP JUMP JUMPDEST PUSH1 0x0 PUSH2 0x395 DUP3 PUSH2 0x39C JUMP JUMPDEST SWAP1 POP SWAP2 SWAP1 POP JUMP JUMPDEST PUSH1 0x0 PUSH20 0xFFFFFFFFFFFFFFFFFFFFFFFFFFFFFFFFFFFFFFFF DUP3 AND SWAP1 POP SWAP2 SWAP1 POP JUMP JUMPDEST PUSH1 0x0 PUSH1 0xFF DUP3 AND SWAP1 POP SWAP2 SWAP1 POP JUMP JUMPDEST PUSH1 0x0 PUSH2 0x3D4 DUP3 PUSH2 0x3BC JUMP JUMPDEST SWAP1 POP SWAP2 SWAP1 POP JUMP JUMPDEST PUSH1 0x0 JUMPDEST DUP4 DUP2 LT ISZERO PUSH2 0x3F9 JUMPI DUP1 DUP3 ADD MLOAD DUP2 DUP5 ADD MSTORE PUSH1 0x20 DUP2 ADD SWAP1 POP PUSH2 0x3DE JUMP JUMPDEST DUP4 DUP2 GT ISZERO PUSH2 0x408 JUMPI PUSH1 0x0 DUP5 DUP5 ADD MSTORE JUMPDEST POP POP POP POP JUMP JUMPDEST PUSH1 0x0 PUSH1 0x2 DUP3 DIV SWAP1 POP PUSH1 0x1 DUP3 AND DUP1 PUSH2 0x426 JUMPI PUSH1 0x7F DUP3 AND SWAP2 POP JUMPDEST PUSH1 0x20 DUP3 LT DUP2 EQ ISZERO PUSH2 0x43A JUMPI PUSH2 0x439 PUSH2 0x440 JUMP JUMPDEST JUMPDEST POP SWAP2 SWAP1 POP JUMP JUMPDEST PUSH32 0x4E487B7100000000000000000000000000000000000000000000000000000000 PUSH1 0x0 MSTORE PUSH1 0x22 PUSH1 0x4 MSTORE PUSH1 0x24 PUSH1 0x0 REVERT JUMPDEST PUSH1 0x0 DUP1 REVERT JUMPDEST PUSH1 0x0 PUSH1 0x1F NOT PUSH1 0x1F DUP4 ADD AND SWAP1 POP SWAP2 SWAP1 POP JUMP JUMPDEST PUSH32 0x666F6F2063616C6C000000000000000000000000000000000000000000000000 PUSH1 0x0 DUP3 ADD MSTORE POP JUMP JUMPDEST PUSH2 0x4B7 DUP2 PUSH2 0x38A JUMP JUMPDEST DUP2 EQ PUSH2 0x4C2 JUMPI PUSH1 0x0 DUP1 REVERT JUMPDEST POP JUMP INVALID LOG2 PUSH5 0x6970667358 0x22 SLT KECCAK256 STATICCALL BASEFEE 0x25 PUSH5 0xA0FC0342C3 0xC5 PUSH22 0xC034F1680B713AFC776E7B2C0793069FE986E5E75B64 PUSH20 0x6F6C634300080700330000000000000000000000 "
				},
				"gasEstimates": {
					"creation": {
						"codeDepositCost": "255000",
						"executionCost": "294",
						"totalCost": "255294"
					},
					"external": {
						"callFoo(address)": "infinite",
						"data()": "infinite"
					}
				},
				"methodIdentifiers": {
					"callFoo(address)": "edcbe76c",
					"data()": "73d4a13a"
				}
			},
			"storageLayout": {
				"storage": [
					{
						"astId": 36,
						"contract": "Day37_Call.sol:Call",
						"label": "data",
						"offset": 0,
						"slot": "0",
						"type": "t_bytes_storage"
					}
				],
				"types": {
					"t_bytes_storage": {
						"encoding": "bytes",
						"label": "bytes",
						"numberOfBytes": "32"
					}
				}
			},
			"userdoc": {
				"kind": "user",
				"methods": {},
				"version": 1
			}
		}
	}
}