{
	"Day29_Visibllty.sol": {
		"Visibillity": {
			"abi": [
				{
					"inputs": [],
					"name": "externalFunction",
					"outputs": [
						{
							"internalType": "uint256",
							"name": "",
							"type": "uint256"
						}
					],
					"stateMutability": "pure",
					"type": "function"
				},
				{
					"inputs": [],
					"name": "publicFunction",
					"outputs": [
						{
							"internalType": "uint256",
							"name": "",
							"type": "uint256"
						}
					],
					"stateMutability": "pure",
					"type": "function"
				},
				{
					"inputs": [],
					"name": "z",
					"outputs": [
						{
							"internalType": "uint256",
							"name": "",
							"type": "uint256"
						}
					],
					"stateMutability": "view",
					"type": "function"
				}
			],
			"devdoc": {
				"kind": "dev",
				"methods": {},
				"version": 1
			},
			"evm": {
				"assembly": "    /* \"Day29_Visibllty.sol\":58:489  contract Visibillity {... */\n  mstore(0x40, 0x80)\n    /* \"Day29_Visibllty.sol\":102:103  0 */\n  0x00\n    /* \"Day29_Visibllty.sol\":85:103  uint private x = 0 */\n  dup1\n  sstore\n    /* \"Day29_Visibllty.sol\":127:128  1 */\n  0x01\n    /* \"Day29_Visibllty.sol\":109:128  uint internal y = 1 */\n  dup1\n  sstore\n    /* \"Day29_Visibllty.sol\":150:151  2 */\n  0x02\n    /* \"Day29_Visibllty.sol\":134:151  uint public z = 2 */\n  dup1\n  sstore\n    /* \"Day29_Visibllty.sol\":58:489  contract Visibillity {... */\n  callvalue\n  dup1\n  iszero\n  tag_1\n  jumpi\n  0x00\n  dup1\n  revert\ntag_1:\n  pop\n  dataSize(sub_0)\n  dup1\n  dataOffset(sub_0)\n  0x00\n  codecopy\n  0x00\n  return\nstop\n\nsub_0: assembly {\n        /* \"Day29_Visibllty.sol\":58:489  contract Visibillity {... */\n      mstore(0x40, 0x80)\n      callvalue\n      dup1\n      iszero\n      tag_1\n      jumpi\n      0x00\n      dup1\n      revert\n    tag_1:\n      pop\n      jumpi(tag_2, lt(calldatasize, 0x04))\n      shr(0xe0, calldataload(0x00))\n      dup1\n      0x3a32b549\n      eq\n      tag_3\n      jumpi\n      dup1\n      0x7b5d520b\n      eq\n      tag_4\n      jumpi\n      dup1\n      0xc5d7802e\n      eq\n      tag_5\n      jumpi\n    tag_2:\n      0x00\n      dup1\n      revert\n        /* \"Day29_Visibllty.sol\":427:487  function externalFunction () external pure returns (uint) {} */\n    tag_3:\n      tag_6\n      tag_7\n      jump\t// in\n    tag_6:\n      mload(0x40)\n      tag_8\n      swap2\n      swap1\n      tag_9\n      jump\t// in\n    tag_8:\n      mload(0x40)\n      dup1\n      swap2\n      sub\n      swap1\n      return\n        /* \"Day29_Visibllty.sol\":340:421  function publicFunction () public pure returns (uint) {... */\n    tag_4:\n      tag_10\n      tag_11\n      jump\t// in\n    tag_10:\n      mload(0x40)\n      tag_12\n      swap2\n      swap1\n      tag_9\n      jump\t// in\n    tag_12:\n      mload(0x40)\n      dup1\n      swap2\n      sub\n      swap1\n      return\n        /* \"Day29_Visibllty.sol\":134:151  uint public z = 2 */\n    tag_5:\n      tag_13\n      tag_14\n      jump\t// in\n    tag_13:\n      mload(0x40)\n      tag_15\n      swap2\n      swap1\n      tag_9\n      jump\t// in\n    tag_15:\n      mload(0x40)\n      dup1\n      swap2\n      sub\n      swap1\n      return\n        /* \"Day29_Visibllty.sol\":427:487  function externalFunction () external pure returns (uint) {} */\n    tag_7:\n        /* \"Day29_Visibllty.sol\":479:483  uint */\n      0x00\n        /* \"Day29_Visibllty.sol\":427:487  function externalFunction () external pure returns (uint) {} */\n      swap1\n      jump\t// out\n        /* \"Day29_Visibllty.sol\":340:421  function publicFunction () public pure returns (uint) {... */\n    tag_11:\n        /* \"Day29_Visibllty.sol\":388:392  uint */\n      0x00\n        /* \"Day29_Visibllty.sol\":411:414  200 */\n      0xc8\n        /* \"Day29_Visibllty.sol\":404:414  return 200 */\n      swap1\n      pop\n        /* \"Day29_Visibllty.sol\":340:421  function publicFunction () public pure returns (uint) {... */\n      swap1\n      jump\t// out\n        /* \"Day29_Visibllty.sol\":134:151  uint public z = 2 */\n    tag_14:\n      sload(0x02)\n      dup2\n      jump\t// out\n        /* \"#utility.yul\":7:125   */\n    tag_19:\n        /* \"#utility.yul\":94:118   */\n      tag_21\n        /* \"#utility.yul\":112:117   */\n      dup2\n        /* \"#utility.yul\":94:118   */\n      tag_22\n      jump\t// in\n    tag_21:\n        /* \"#utility.yul\":89:92   */\n      dup3\n        /* \"#utility.yul\":82:119   */\n      mstore\n        /* \"#utility.yul\":7:125   */\n      pop\n      pop\n      jump\t// out\n        /* \"#utility.yul\":131:353   */\n    tag_9:\n        /* \"#utility.yul\":224:228   */\n      0x00\n        /* \"#utility.yul\":262:264   */\n      0x20\n        /* \"#utility.yul\":251:260   */\n      dup3\n        /* \"#utility.yul\":247:265   */\n      add\n        /* \"#utility.yul\":239:265   */\n      swap1\n      pop\n        /* \"#utility.yul\":275:346   */\n      tag_24\n        /* \"#utility.yul\":343:344   */\n      0x00\n        /* \"#utility.yul\":332:341   */\n      dup4\n        /* \"#utility.yul\":328:345   */\n      add\n        /* \"#utility.yul\":319:325   */\n      dup5\n        /* \"#utility.yul\":275:346   */\n      tag_19\n      jump\t// in\n    tag_24:\n        /* \"#utility.yul\":131:353   */\n      swap3\n      swap2\n      pop\n      pop\n      jump\t// out\n        /* \"#utility.yul\":359:436   */\n    tag_22:\n        /* \"#utility.yul\":396:403   */\n      0x00\n        /* \"#utility.yul\":425:430   */\n      dup2\n        /* \"#utility.yul\":414:430   */\n      swap1\n      pop\n        /* \"#utility.yul\":359:436   */\n      swap2\n      swap1\n      pop\n      jump\t// out\n\n    auxdata: 0xa2646970667358221220ff6a785fd0ae19f6f8bfeee5299a26437bd39f36227a3be652da384b27485e8564736f6c63430008070033\n}\n",
				"bytecode": {
					"linkReferences": {},
					"object": "608060405260008055600180556002805534801561001c57600080fd5b506101098061002c6000396000f3fe6080604052348015600f57600080fd5b5060043610603c5760003560e01c80633a32b5491460415780637b5d520b14605b578063c5d7802e146075575b600080fd5b6047608f565b6040516052919060b0565b60405180910390f35b60616094565b604051606c919060b0565b60405180910390f35b607b609d565b6040516086919060b0565b60405180910390f35b600090565b600060c8905090565b60025481565b60aa8160c9565b82525050565b600060208201905060c3600083018460a3565b92915050565b600081905091905056fea2646970667358221220ff6a785fd0ae19f6f8bfeee5299a26437bd39f36227a3be652da384b27485e8564736f6c63430008070033",
					"opcodes": "PUSH1 0x80 PUSH1 0x40 MSTORE PUSH1 0x0 DUP1 SSTORE PUSH1 0x1 DUP1 SSTORE PUSH1 0x2 DUP1 SSTORE CALLVALUE DUP1 ISZERO PUSH2 0x1C JUMPI PUSH1 0x0 DUP1 REVERT JUMPDEST POP PUSH2 0x109 DUP1 PUSH2 0x2C PUSH1 0x0 CODECOPY PUSH1 0x0 RETURN INVALID PUSH1 0x80 PUSH1 0x40 MSTORE CALLVALUE DUP1 ISZERO PUSH1 0xF JUMPI PUSH1 0x0 DUP1 REVERT JUMPDEST POP PUSH1 0x4 CALLDATASIZE LT PUSH1 0x3C JUMPI PUSH1 0x0 CALLDATALOAD PUSH1 0xE0 SHR DUP1 PUSH4 0x3A32B549 EQ PUSH1 0x41 JUMPI DUP1 PUSH4 0x7B5D520B EQ PUSH1 0x5B JUMPI DUP1 PUSH4 0xC5D7802E EQ PUSH1 0x75 JUMPI JUMPDEST PUSH1 0x0 DUP1 REVERT JUMPDEST PUSH1 0x47 PUSH1 0x8F JUMP JUMPDEST PUSH1 0x40 MLOAD PUSH1 0x52 SWAP2 SWAP1 PUSH1 0xB0 JUMP JUMPDEST PUSH1 0x40 MLOAD DUP1 SWAP2 SUB SWAP1 RETURN JUMPDEST PUSH1 0x61 PUSH1 0x94 JUMP JUMPDEST PUSH1 0x40 MLOAD PUSH1 0x6C SWAP2 SWAP1 PUSH1 0xB0 JUMP JUMPDEST PUSH1 0x40 MLOAD DUP1 SWAP2 SUB SWAP1 RETURN JUMPDEST PUSH1 0x7B PUSH1 0x9D JUMP JUMPDEST PUSH1 0x40 MLOAD PUSH1 0x86 SWAP2 SWAP1 PUSH1 0xB0 JUMP JUMPDEST PUSH1 0x40 MLOAD DUP1 SWAP2 SUB SWAP1 RETURN JUMPDEST PUSH1 0x0 SWAP1 JUMP JUMPDEST PUSH1 0x0 PUSH1 0xC8 SWAP1 POP SWAP1 JUMP JUMPDEST PUSH1 0x2 SLOAD DUP2 JUMP JUMPDEST PUSH1 0xAA DUP2 PUSH1 0xC9 JUMP JUMPDEST DUP3 MSTORE POP POP JUMP JUMPDEST PUSH1 0x0 PUSH1 0x20 DUP3 ADD SWAP1 POP PUSH1 0xC3 PUSH1 0x0 DUP4 ADD DUP5 PUSH1 0xA3 JUMP JUMPDEST SWAP3 SWAP2 POP POP JUMP JUMPDEST PUSH1 0x0 DUP2 SWAP1 POP SWAP2 SWAP1 POP JUMP INVALID LOG2 PUSH5 0x6970667358 0x22 SLT KECCAK256 SELFDESTRUCT PUSH11 0x785FD0AE19F6F8BFEEE529 SWAP11 0x26 NUMBER PUSH28 0xD39F36227A3BE652DA384B27485E8564736F6C634300080700330000 "
				},
				"gasEstimates": {
					"creation": {
						"codeDepositCost": "53000",
						"executionCost": "49323",
						"totalCost": "102323"
					},
					"external": {
						"externalFunction()": "307",
						"publicFunction()": "337",
						"z()": "2451"
					},
					"internal": {
						"internalFunction()": "infinite",
						"privateFunction()": "infinite"
					}
				},
				"methodIdentifiers": {
					"externalFunction()": "3a32b549",
					"publicFunction()": "7b5d520b",
					"z()": "c5d7802e"
				}
			},
			"storageLayout": {
				"storage": [
					{
						"astId": 4,
						"contract": "Day29_Visibllty.sol:Visibillity",
						"label": "x",
						"offset": 0,
						"slot": "0",
						"type": "t_uint256"
					},
					{
						"astId": 7,
						"contract": "Day29_Visibllty.sol:Visibillity",
						"label": "y",
						"offset": 0,
						"slot": "1",
						"type": "t_uint256"
					},
					{
						"astId": 10,
						"contract": "Day29_Visibllty.sol:Visibillity",
						"label": "z",
						"offset": 0,
						"slot": "2",
						"type": "t_uint256"
					}
				],
				"types": {
					"t_uint256": {
						"encoding": "inplace",
						"label": "uint256",
						"numberOfBytes": "32"
					}
				}
			},
			"userdoc": {
				"kind": "user",
				"methods": {},
				"version": 1
			}
		}
	}
}