{
	"Day25_Event.sol": {
		"Event": {
			"abi": [
				{
					"anonymous": false,
					"inputs": [
						{
							"indexed": false,
							"internalType": "string",
							"name": "message",
							"type": "string"
						},
						{
							"indexed": false,
							"internalType": "uint256",
							"name": "value",
							"type": "uint256"
						}
					],
					"name": "Log",
					"type": "event"
				},
				{
					"anonymous": false,
					"inputs": [
						{
							"indexed": true,
							"internalType": "address",
							"name": "sender",
							"type": "address"
						},
						{
							"indexed": false,
							"internalType": "uint256",
							"name": "val",
							"type": "uint256"
						}
					],
					"name": "Message",
					"type": "event"
				},
				{
					"inputs": [],
					"name": "example",
					"outputs": [],
					"stateMutability": "nonpayable",
					"type": "function"
				}
			],
			"devdoc": {
				"kind": "dev",
				"methods": {},
				"version": 1
			},
			"evm": {
				"assembly": "    /* \"Day25_Event.sol\":58:257  contract Event {... */\n  mstore(0x40, 0x80)\n  callvalue\n  dup1\n  iszero\n  tag_1\n  jumpi\n  0x00\n  dup1\n  revert\ntag_1:\n  pop\n  dataSize(sub_0)\n  dup1\n  dataOffset(sub_0)\n  0x00\n  codecopy\n  0x00\n  return\nstop\n\nsub_0: assembly {\n        /* \"Day25_Event.sol\":58:257  contract Event {... */\n      mstore(0x40, 0x80)\n      callvalue\n      dup1\n      iszero\n      tag_1\n      jumpi\n      0x00\n      dup1\n      revert\n    tag_1:\n      pop\n      jumpi(tag_2, lt(calldatasize, 0x04))\n      shr(0xe0, calldataload(0x00))\n      dup1\n      0x54353f2f\n      eq\n      tag_3\n      jumpi\n    tag_2:\n      0x00\n      dup1\n      revert\n        /* \"Day25_Event.sol\":178:255  function example() external {... */\n    tag_3:\n      tag_4\n      tag_5\n      jump\t// in\n    tag_4:\n      stop\n    tag_5:\n        /* \"Day25_Event.sol\":221:239  Log (\"hello\", 123) */\n      0xdd970dd9b5bfe707922155b058a407655cb18288b807e2216442bca8ad83d6b5\n        /* \"Day25_Event.sol\":235:238  123 */\n      0x7b\n        /* \"Day25_Event.sol\":221:239  Log (\"hello\", 123) */\n      mload(0x40)\n      tag_7\n      swap2\n      swap1\n      tag_8\n      jump\t// in\n    tag_7:\n      mload(0x40)\n      dup1\n      swap2\n      sub\n      swap1\n      log1\n        /* \"Day25_Event.sol\":178:255  function example() external {... */\n      jump\t// out\n        /* \"#utility.yul\":7:158   */\n    tag_10:\n        /* \"#utility.yul\":104:151   */\n      tag_12\n        /* \"#utility.yul\":145:150   */\n      dup2\n        /* \"#utility.yul\":104:151   */\n      tag_13\n      jump\t// in\n    tag_12:\n        /* \"#utility.yul\":99:102   */\n      dup3\n        /* \"#utility.yul\":92:152   */\n      mstore\n        /* \"#utility.yul\":7:158   */\n      pop\n      pop\n      jump\t// out\n        /* \"#utility.yul\":164:529   */\n    tag_14:\n        /* \"#utility.yul\":306:309   */\n      0x00\n        /* \"#utility.yul\":327:393   */\n      tag_16\n        /* \"#utility.yul\":391:392   */\n      0x05\n        /* \"#utility.yul\":386:389   */\n      dup4\n        /* \"#utility.yul\":327:393   */\n      tag_17\n      jump\t// in\n    tag_16:\n        /* \"#utility.yul\":320:393   */\n      swap2\n      pop\n        /* \"#utility.yul\":402:495   */\n      tag_18\n        /* \"#utility.yul\":491:494   */\n      dup3\n        /* \"#utility.yul\":402:495   */\n      tag_19\n      jump\t// in\n    tag_18:\n        /* \"#utility.yul\":520:522   */\n      0x20\n        /* \"#utility.yul\":515:518   */\n      dup3\n        /* \"#utility.yul\":511:523   */\n      add\n        /* \"#utility.yul\":504:523   */\n      swap1\n      pop\n        /* \"#utility.yul\":164:529   */\n      swap2\n      swap1\n      pop\n      jump\t// out\n        /* \"#utility.yul\":535:1084   */\n    tag_8:\n        /* \"#utility.yul\":739:743   */\n      0x00\n        /* \"#utility.yul\":777:779   */\n      0x40\n        /* \"#utility.yul\":766:775   */\n      dup3\n        /* \"#utility.yul\":762:780   */\n      add\n        /* \"#utility.yul\":754:780   */\n      swap1\n      pop\n        /* \"#utility.yul\":826:835   */\n      dup2\n        /* \"#utility.yul\":820:824   */\n      dup2\n        /* \"#utility.yul\":816:836   */\n      sub\n        /* \"#utility.yul\":812:813   */\n      0x00\n        /* \"#utility.yul\":801:810   */\n      dup4\n        /* \"#utility.yul\":797:814   */\n      add\n        /* \"#utility.yul\":790:837   */\n      mstore\n        /* \"#utility.yul\":854:985   */\n      tag_21\n        /* \"#utility.yul\":980:984   */\n      dup2\n        /* \"#utility.yul\":854:985   */\n      tag_14\n      jump\t// in\n    tag_21:\n        /* \"#utility.yul\":846:985   */\n      swap1\n      pop\n        /* \"#utility.yul\":995:1077   */\n      tag_22\n        /* \"#utility.yul\":1073:1075   */\n      0x20\n        /* \"#utility.yul\":1062:1071   */\n      dup4\n        /* \"#utility.yul\":1058:1076   */\n      add\n        /* \"#utility.yul\":1049:1055   */\n      dup5\n        /* \"#utility.yul\":995:1077   */\n      tag_10\n      jump\t// in\n    tag_22:\n        /* \"#utility.yul\":535:1084   */\n      swap3\n      swap2\n      pop\n      pop\n      jump\t// out\n        /* \"#utility.yul\":1090:1259   */\n    tag_17:\n        /* \"#utility.yul\":1174:1185   */\n      0x00\n        /* \"#utility.yul\":1208:1214   */\n      dup3\n        /* \"#utility.yul\":1203:1206   */\n      dup3\n        /* \"#utility.yul\":1196:1215   */\n      mstore\n        /* \"#utility.yul\":1248:1252   */\n      0x20\n        /* \"#utility.yul\":1243:1246   */\n      dup3\n        /* \"#utility.yul\":1239:1253   */\n      add\n        /* \"#utility.yul\":1224:1253   */\n      swap1\n      pop\n        /* \"#utility.yul\":1090:1259   */\n      swap3\n      swap2\n      pop\n      pop\n      jump\t// out\n        /* \"#utility.yul\":1265:1342   */\n    tag_24:\n        /* \"#utility.yul\":1302:1309   */\n      0x00\n        /* \"#utility.yul\":1331:1336   */\n      dup2\n        /* \"#utility.yul\":1320:1336   */\n      swap1\n      pop\n        /* \"#utility.yul\":1265:1342   */\n      swap2\n      swap1\n      pop\n      jump\t// out\n        /* \"#utility.yul\":1348:1471   */\n    tag_13:\n        /* \"#utility.yul\":1408:1417   */\n      0x00\n        /* \"#utility.yul\":1441:1465   */\n      tag_27\n        /* \"#utility.yul\":1459:1464   */\n      dup3\n        /* \"#utility.yul\":1441:1465   */\n      tag_24\n      jump\t// in\n    tag_27:\n        /* \"#utility.yul\":1428:1465   */\n      swap1\n      pop\n        /* \"#utility.yul\":1348:1471   */\n      swap2\n      swap1\n      pop\n      jump\t// out\n        /* \"#utility.yul\":1477:1632   */\n    tag_19:\n        /* \"#utility.yul\":1617:1624   */\n      0x68656c6c6f000000000000000000000000000000000000000000000000000000\n        /* \"#utility.yul\":1613:1614   */\n      0x00\n        /* \"#utility.yul\":1605:1611   */\n      dup3\n        /* \"#utility.yul\":1601:1615   */\n      add\n        /* \"#utility.yul\":1594:1625   */\n      mstore\n        /* \"#utility.yul\":1477:1632   */\n      pop\n      jump\t// out\n\n    auxdata: 0xa264697066735822122084f4c347c7493476288c1b5a8423e994c1338b723678960336519bc560d2b8f864736f6c63430008070033\n}\n",
				"bytecode": {
					"linkReferences": {},
					"object": "608060405234801561001057600080fd5b50610160806100206000396000f3fe608060405234801561001057600080fd5b506004361061002b5760003560e01c806354353f2f14610030575b600080fd5b61003861003a565b005b7fdd970dd9b5bfe707922155b058a407655cb18288b807e2216442bca8ad83d6b5607b60405161006a91906100a6565b60405180910390a1565b61007d816100ef565b82525050565b60006100906005836100d4565b915061009b82610101565b602082019050919050565b600060408201905081810360008301526100bf81610083565b90506100ce6020830184610074565b92915050565b600082825260208201905092915050565b6000819050919050565b60006100fa826100e5565b9050919050565b7f68656c6c6f00000000000000000000000000000000000000000000000000000060008201525056fea264697066735822122084f4c347c7493476288c1b5a8423e994c1338b723678960336519bc560d2b8f864736f6c63430008070033",
					"opcodes": "PUSH1 0x80 PUSH1 0x40 MSTORE CALLVALUE DUP1 ISZERO PUSH2 0x10 JUMPI PUSH1 0x0 DUP1 REVERT JUMPDEST POP PUSH2 0x160 DUP1 PUSH2 0x20 PUSH1 0x0 CODECOPY PUSH1 0x0 RETURN INVALID PUSH1 0x80 PUSH1 0x40 MSTORE CALLVALUE DUP1 ISZERO PUSH2 0x10 JUMPI PUSH1 0x0 DUP1 REVERT JUMPDEST POP PUSH1 0x4 CALLDATASIZE LT PUSH2 0x2B JUMPI PUSH1 0x0 CALLDATALOAD PUSH1 0xE0 SHR DUP1 PUSH4 0x54353F2F EQ PUSH2 0x30 JUMPI JUMPDEST PUSH1 0x0 DUP1 REVERT JUMPDEST PUSH2 0x38 PUSH2 0x3A JUMP JUMPDEST STOP JUMPDEST PUSH32 0xDD970DD9B5BFE707922155B058A407655CB18288B807E2216442BCA8AD83D6B5 PUSH1 0x7B PUSH1 0x40 MLOAD PUSH2 0x6A SWAP2 SWAP1 PUSH2 0xA6 JUMP JUMPDEST PUSH1 0x40 MLOAD DUP1 SWAP2 SUB SWAP1 LOG1 JUMP JUMPDEST PUSH2 0x7D DUP2 PUSH2 0xEF JUMP JUMPDEST DUP3 MSTORE POP POP JUMP JUMPDEST PUSH1 0x0 PUSH2 0x90 PUSH1 0x5 DUP4 PUSH2 0xD4 JUMP JUMPDEST SWAP2 POP PUSH2 0x9B DUP3 PUSH2 0x101 JUMP JUMPDEST PUSH1 0x20 DUP3 ADD SWAP1 POP SWAP2 SWAP1 POP JUMP JUMPDEST PUSH1 0x0 PUSH1 0x40 DUP3 ADD SWAP1 POP DUP2 DUP2 SUB PUSH1 0x0 DUP4 ADD MSTORE PUSH2 0xBF DUP2 PUSH2 0x83 JUMP JUMPDEST SWAP1 POP PUSH2 0xCE PUSH1 0x20 DUP4 ADD DUP5 PUSH2 0x74 JUMP JUMPDEST SWAP3 SWAP2 POP POP JUMP JUMPDEST PUSH1 0x0 DUP3 DUP3 MSTORE PUSH1 0x20 DUP3 ADD SWAP1 POP SWAP3 SWAP2 POP POP JUMP JUMPDEST PUSH1 0x0 DUP2 SWAP1 POP SWAP2 SWAP1 POP JUMP JUMPDEST PUSH1 0x0 PUSH2 0xFA DUP3 PUSH2 0xE5 JUMP JUMPDEST SWAP1 POP SWAP2 SWAP1 POP JUMP JUMPDEST PUSH32 0x68656C6C6F000000000000000000000000000000000000000000000000000000 PUSH1 0x0 DUP3 ADD MSTORE POP JUMP INVALID LOG2 PUSH5 0x6970667358 0x22 SLT KECCAK256 DUP5 DELEGATECALL 0xC3 SELFBALANCE 0xC7 0x49 CALLVALUE PUSH23 0x288C1B5A8423E994C1338B723678960336519BC560D2B8 0xF8 PUSH5 0x736F6C6343 STOP ADDMOD SMOD STOP CALLER "
				},
				"gasEstimates": {
					"creation": {
						"codeDepositCost": "70400",
						"executionCost": "117",
						"totalCost": "70517"
					},
					"external": {
						"example()": "2326"
					}
				},
				"methodIdentifiers": {
					"example()": "54353f2f"
				}
			},
			"storageLayout": {
				"storage": [],
				"types": null
			},
			"userdoc": {
				"kind": "user",
				"methods": {},
				"version": 1
			}
		}
	}
}