{
	"Day50_ERC721A.sol": {
		"Azuki": {
			"abi": [
				{
					"inputs": [],
					"stateMutability": "nonpayable",
					"type": "constructor"
				},
				{
					"inputs": [],
					"name": "ApprovalCallerNotOwnerNorApproved",
					"type": "error"
				},
				{
					"inputs": [],
					"name": "ApprovalQueryForNonexistentToken",
					"type": "error"
				},
				{
					"inputs": [],
					"name": "ApproveToCaller",
					"type": "error"
				},
				{
					"inputs": [],
					"name": "BalanceQueryForZeroAddress",
					"type": "error"
				},
				{
					"inputs": [],
					"name": "MintERC2309QuantityExceedsLimit",
					"type": "error"
				},
				{
					"inputs": [],
					"name": "MintToZeroAddress",
					"type": "error"
				},
				{
					"inputs": [],
					"name": "MintZeroQuantity",
					"type": "error"
				},
				{
					"inputs": [],
					"name": "OwnerQueryForNonexistentToken",
					"type": "error"
				},
				{
					"inputs": [],
					"name": "OwnershipNotInitializedForExtraData",
					"type": "error"
				},
				{
					"inputs": [],
					"name": "TransferCallerNotOwnerNorApproved",
					"type": "error"
				},
				{
					"inputs": [],
					"name": "TransferFromIncorrectOwner",
					"type": "error"
				},
				{
					"inputs": [],
					"name": "TransferToNonERC721ReceiverImplementer",
					"type": "error"
				},
				{
					"inputs": [],
					"name": "TransferToZeroAddress",
					"type": "error"
				},
				{
					"inputs": [],
					"name": "URIQueryForNonexistentToken",
					"type": "error"
				},
				{
					"anonymous": false,
					"inputs": [
						{
							"indexed": true,
							"internalType": "address",
							"name": "owner",
							"type": "address"
						},
						{
							"indexed": true,
							"internalType": "address",
							"name": "approved",
							"type": "address"
						},
						{
							"indexed": true,
							"internalType": "uint256",
							"name": "tokenId",
							"type": "uint256"
						}
					],
					"name": "Approval",
					"type": "event"
				},
				{
					"anonymous": false,
					"inputs": [
						{
							"indexed": true,
							"internalType": "address",
							"name": "owner",
							"type": "address"
						},
						{
							"indexed": true,
							"internalType": "address",
							"name": "operator",
							"type": "address"
						},
						{
							"indexed": false,
							"internalType": "bool",
							"name": "approved",
							"type": "bool"
						}
					],
					"name": "ApprovalForAll",
					"type": "event"
				},
				{
					"anonymous": false,
					"inputs": [
						{
							"indexed": true,
							"internalType": "uint256",
							"name": "fromTokenId",
							"type": "uint256"
						},
						{
							"indexed": false,
							"internalType": "uint256",
							"name": "toTokenId",
							"type": "uint256"
						},
						{
							"indexed": true,
							"internalType": "address",
							"name": "from",
							"type": "address"
						},
						{
							"indexed": true,
							"internalType": "address",
							"name": "to",
							"type": "address"
						}
					],
					"name": "ConsecutiveTransfer",
					"type": "event"
				},
				{
					"anonymous": false,
					"inputs": [
						{
							"indexed": true,
							"internalType": "address",
							"name": "from",
							"type": "address"
						},
						{
							"indexed": true,
							"internalType": "address",
							"name": "to",
							"type": "address"
						},
						{
							"indexed": true,
							"internalType": "uint256",
							"name": "tokenId",
							"type": "uint256"
						}
					],
					"name": "Transfer",
					"type": "event"
				},
				{
					"inputs": [
						{
							"internalType": "address",
							"name": "to",
							"type": "address"
						},
						{
							"internalType": "uint256",
							"name": "tokenId",
							"type": "uint256"
						}
					],
					"name": "approve",
					"outputs": [],
					"stateMutability": "nonpayable",
					"type": "function"
				},
				{
					"inputs": [
						{
							"internalType": "address",
							"name": "owner",
							"type": "address"
						}
					],
					"name": "balanceOf",
					"outputs": [
						{
							"internalType": "uint256",
							"name": "",
							"type": "uint256"
						}
					],
					"stateMutability": "view",
					"type": "function"
				},
				{
					"inputs": [
						{
							"internalType": "uint256",
							"name": "tokenId",
							"type": "uint256"
						}
					],
					"name": "getApproved",
					"outputs": [
						{
							"internalType": "address",
							"name": "",
							"type": "address"
						}
					],
					"stateMutability": "view",
					"type": "function"
				},
				{
					"inputs": [
						{
							"internalType": "address",
							"name": "owner",
							"type": "address"
						},
						{
							"internalType": "address",
							"name": "operator",
							"type": "address"
						}
					],
					"name": "isApprovedForAll",
					"outputs": [
						{
							"internalType": "bool",
							"name": "",
							"type": "bool"
						}
					],
					"stateMutability": "view",
					"type": "function"
				},
				{
					"inputs": [
						{
							"internalType": "uint256",
							"name": "quantity",
							"type": "uint256"
						}
					],
					"name": "mint",
					"outputs": [],
					"stateMutability": "payable",
					"type": "function"
				},
				{
					"inputs": [],
					"name": "name",
					"outputs": [
						{
							"internalType": "string",
							"name": "",
							"type": "string"
						}
					],
					"stateMutability": "view",
					"type": "function"
				},
				{
					"inputs": [
						{
							"internalType": "uint256",
							"name": "tokenId",
							"type": "uint256"
						}
					],
					"name": "ownerOf",
					"outputs": [
						{
							"internalType": "address",
							"name": "",
							"type": "address"
						}
					],
					"stateMutability": "view",
					"type": "function"
				},
				{
					"inputs": [
						{
							"internalType": "address",
							"name": "from",
							"type": "address"
						},
						{
							"internalType": "address",
							"name": "to",
							"type": "address"
						},
						{
							"internalType": "uint256",
							"name": "tokenId",
							"type": "uint256"
						}
					],
					"name": "safeTransferFrom",
					"outputs": [],
					"stateMutability": "nonpayable",
					"type": "function"
				},
				{
					"inputs": [
						{
							"internalType": "address",
							"name": "from",
							"type": "address"
						},
						{
							"internalType": "address",
							"name": "to",
							"type": "address"
						},
						{
							"internalType": "uint256",
							"name": "tokenId",
							"type": "uint256"
						},
						{
							"internalType": "bytes",
							"name": "_data",
							"type": "bytes"
						}
					],
					"name": "safeTransferFrom",
					"outputs": [],
					"stateMutability": "nonpayable",
					"type": "function"
				},
				{
					"inputs": [
						{
							"internalType": "address",
							"name": "operator",
							"type": "address"
						},
						{
							"internalType": "bool",
							"name": "approved",
							"type": "bool"
						}
					],
					"name": "setApprovalForAll",
					"outputs": [],
					"stateMutability": "nonpayable",
					"type": "function"
				},
				{
					"inputs": [
						{
							"internalType": "bytes4",
							"name": "interfaceId",
							"type": "bytes4"
						}
					],
					"name": "supportsInterface",
					"outputs": [
						{
							"internalType": "bool",
							"name": "",
							"type": "bool"
						}
					],
					"stateMutability": "view",
					"type": "function"
				},
				{
					"inputs": [],
					"name": "symbol",
					"outputs": [
						{
							"internalType": "string",
							"name": "",
							"type": "string"
						}
					],
					"stateMutability": "view",
					"type": "function"
				},
				{
					"inputs": [
						{
							"internalType": "uint256",
							"name": "tokenId",
							"type": "uint256"
						}
					],
					"name": "tokenURI",
					"outputs": [
						{
							"internalType": "string",
							"name": "",
							"type": "string"
						}
					],
					"stateMutability": "view",
					"type": "function"
				},
				{
					"inputs": [],
					"name": "totalSupply",
					"outputs": [
						{
							"internalType": "uint256",
							"name": "",
							"type": "uint256"
						}
					],
					"stateMutability": "view",
					"type": "function"
				},
				{
					"inputs": [
						{
							"internalType": "address",
							"name": "from",
							"type": "address"
						},
						{
							"internalType": "address",
							"name": "to",
							"type": "address"
						},
						{
							"internalType": "uint256",
							"name": "tokenId",
							"type": "uint256"
						}
					],
					"name": "transferFrom",
					"outputs": [],
					"stateMutability": "nonpayable",
					"type": "function"
				}
			],
			"devdoc": {
				"kind": "dev",
				"methods": {
					"approve(address,uint256)": {
						"details": "See {IERC721-approve}."
					},
					"balanceOf(address)": {
						"details": "See {IERC721-balanceOf}."
					},
					"getApproved(uint256)": {
						"details": "See {IERC721-getApproved}."
					},
					"isApprovedForAll(address,address)": {
						"details": "See {IERC721-isApprovedForAll}."
					},
					"name()": {
						"details": "See {IERC721Metadata-name}."
					},
					"ownerOf(uint256)": {
						"details": "See {IERC721-ownerOf}."
					},
					"safeTransferFrom(address,address,uint256)": {
						"details": "See {IERC721-safeTransferFrom}."
					},
					"safeTransferFrom(address,address,uint256,bytes)": {
						"details": "See {IERC721-safeTransferFrom}."
					},
					"setApprovalForAll(address,bool)": {
						"details": "See {IERC721-setApprovalForAll}."
					},
					"supportsInterface(bytes4)": {
						"details": "See {IERC165-supportsInterface}."
					},
					"symbol()": {
						"details": "See {IERC721Metadata-symbol}."
					},
					"tokenURI(uint256)": {
						"details": "See {IERC721Metadata-tokenURI}."
					},
					"totalSupply()": {
						"details": "Returns the total number of tokens in existence. Burned tokens will reduce the count. To get the total number of tokens minted, please see `_totalMinted`."
					},
					"transferFrom(address,address,uint256)": {
						"details": "Transfers `tokenId` from `from` to `to`. Requirements: - `to` cannot be the zero address. - `tokenId` token must be owned by `from`. Emits a {Transfer} event."
					}
				},
				"version": 1
			},
			"evm": {
				"assembly": "    /* \"Day50_ERC721A.sol\":98:342  contract Azuki is ERC721A {... */\n  mstore(0x40, 0x80)\n    /* \"Day50_ERC721A.sol\":128:170  constructor() ERC721A(\"Azuki\", \"AZUKI\") {} */\n  callvalue\n  dup1\n  iszero\n  tag_1\n  jumpi\n  0x00\n  dup1\n  revert\ntag_1:\n  pop\n    /* \"erc721a/contracts/ERC721A.sol\":3986:4140  constructor(string memory name_, string memory symbol_) {... */\n  mload(0x40)\n  dup1\n  0x40\n  add\n  0x40\n  mstore\n  dup1\n  0x05\n  dup2\n  mstore\n  0x20\n  add\n  0x417a756b69000000000000000000000000000000000000000000000000000000\n  dup2\n  mstore\n  pop\n  mload(0x40)\n  dup1\n  0x40\n  add\n  0x40\n  mstore\n  dup1\n  0x05\n  dup2\n  mstore\n  0x20\n  add\n  0x415a554b49000000000000000000000000000000000000000000000000000000\n  dup2\n  mstore\n  pop\n    /* \"erc721a/contracts/ERC721A.sol\":4060:4065  name_ */\n  dup2\n    /* \"erc721a/contracts/ERC721A.sol\":4052:4057  _name */\n  0x02\n    /* \"erc721a/contracts/ERC721A.sol\":4052:4065  _name = name_ */\n  swap1\n  dup1\n  mload\n  swap1\n  0x20\n  add\n  swap1\n  tag_5\n  swap3\n  swap2\n  swap1\n  tag_6\n  jump\t// in\ntag_5:\n  pop\n    /* \"erc721a/contracts/ERC721A.sol\":4085:4092  symbol_ */\n  dup1\n    /* \"erc721a/contracts/ERC721A.sol\":4075:4082  _symbol */\n  0x03\n    /* \"erc721a/contracts/ERC721A.sol\":4075:4092  _symbol = symbol_ */\n  swap1\n  dup1\n  mload\n  swap1\n  0x20\n  add\n  swap1\n  tag_7\n  swap3\n  swap2\n  swap1\n  tag_6\n  jump\t// in\ntag_7:\n  pop\n    /* \"erc721a/contracts/ERC721A.sol\":4118:4133  _startTokenId() */\n  tag_8\n    /* \"erc721a/contracts/ERC721A.sol\":4118:4131  _startTokenId */\n  shl(0x20, tag_9)\n    /* \"erc721a/contracts/ERC721A.sol\":4118:4133  _startTokenId() */\n  0x20\n  shr\n  jump\t// in\ntag_8:\n    /* \"erc721a/contracts/ERC721A.sol\":4102:4115  _currentIndex */\n  0x00\n    /* \"erc721a/contracts/ERC721A.sol\":4102:4133  _currentIndex = _startTokenId() */\n  dup2\n  swap1\n  sstore\n  pop\n    /* \"erc721a/contracts/ERC721A.sol\":3986:4140  constructor(string memory name_, string memory symbol_) {... */\n  pop\n  pop\n    /* \"Day50_ERC721A.sol\":98:342  contract Azuki is ERC721A {... */\n  jump(tag_11)\n    /* \"erc721a/contracts/ERC721A.sol\":4276:4366  function _startTokenId() internal view virtual returns (uint256) {... */\ntag_9:\n    /* \"erc721a/contracts/ERC721A.sol\":4332:4339  uint256 */\n  0x00\n    /* \"erc721a/contracts/ERC721A.sol\":4276:4366  function _startTokenId() internal view virtual returns (uint256) {... */\n  swap1\n  jump\t// out\n    /* \"Day50_ERC721A.sol\":98:342  contract Azuki is ERC721A {... */\ntag_6:\n  dup3\n  dup1\n  sload\n  tag_13\n  swap1\n  tag_14\n  jump\t// in\ntag_13:\n  swap1\n  0x00\n  mstore\n  keccak256(0x00, 0x20)\n  swap1\n  0x1f\n  add\n  0x20\n  swap1\n  div\n  dup2\n  add\n  swap3\n  dup3\n  tag_16\n  jumpi\n  0x00\n  dup6\n  sstore\n  jump(tag_15)\ntag_16:\n  dup3\n  0x1f\n  lt\n  tag_17\n  jumpi\n  dup1\n  mload\n  not(0xff)\n  and\n  dup4\n  dup1\n  add\n  or\n  dup6\n  sstore\n  jump(tag_15)\ntag_17:\n  dup3\n  dup1\n  add\n  0x01\n  add\n  dup6\n  sstore\n  dup3\n  iszero\n  tag_15\n  jumpi\n  swap2\n  dup3\n  add\ntag_18:\n  dup3\n  dup2\n  gt\n  iszero\n  tag_19\n  jumpi\n  dup3\n  mload\n  dup3\n  sstore\n  swap2\n  0x20\n  add\n  swap2\n  swap1\n  0x01\n  add\n  swap1\n  jump(tag_18)\ntag_19:\ntag_15:\n  pop\n  swap1\n  pop\n  tag_20\n  swap2\n  swap1\n  tag_21\n  jump\t// in\ntag_20:\n  pop\n  swap1\n  jump\t// out\ntag_21:\ntag_22:\n  dup1\n  dup3\n  gt\n  iszero\n  tag_23\n  jumpi\n  0x00\n  dup2\n  0x00\n  swap1\n  sstore\n  pop\n  0x01\n  add\n  jump(tag_22)\ntag_23:\n  pop\n  swap1\n  jump\t// out\n    /* \"#utility.yul\":7:327   */\ntag_14:\n    /* \"#utility.yul\":51:57   */\n  0x00\n    /* \"#utility.yul\":88:89   */\n  0x02\n    /* \"#utility.yul\":82:86   */\n  dup3\n    /* \"#utility.yul\":78:90   */\n  div\n    /* \"#utility.yul\":68:90   */\n  swap1\n  pop\n    /* \"#utility.yul\":135:136   */\n  0x01\n    /* \"#utility.yul\":129:133   */\n  dup3\n    /* \"#utility.yul\":125:137   */\n  and\n    /* \"#utility.yul\":156:174   */\n  dup1\n    /* \"#utility.yul\":146:227   */\n  tag_26\n  jumpi\n    /* \"#utility.yul\":212:216   */\n  0x7f\n    /* \"#utility.yul\":204:210   */\n  dup3\n    /* \"#utility.yul\":200:217   */\n  and\n    /* \"#utility.yul\":190:217   */\n  swap2\n  pop\n    /* \"#utility.yul\":146:227   */\ntag_26:\n    /* \"#utility.yul\":274:276   */\n  0x20\n    /* \"#utility.yul\":266:272   */\n  dup3\n    /* \"#utility.yul\":263:277   */\n  lt\n    /* \"#utility.yul\":243:261   */\n  dup2\n    /* \"#utility.yul\":240:278   */\n  eq\n    /* \"#utility.yul\":237:321   */\n  iszero\n  tag_27\n  jumpi\n    /* \"#utility.yul\":293:311   */\n  tag_28\n  tag_29\n  jump\t// in\ntag_28:\n    /* \"#utility.yul\":237:321   */\ntag_27:\n    /* \"#utility.yul\":58:327   */\n  pop\n    /* \"#utility.yul\":7:327   */\n  swap2\n  swap1\n  pop\n  jump\t// out\n    /* \"#utility.yul\":333:513   */\ntag_29:\n    /* \"#utility.yul\":381:458   */\n  0x4e487b7100000000000000000000000000000000000000000000000000000000\n    /* \"#utility.yul\":378:379   */\n  0x00\n    /* \"#utility.yul\":371:459   */\n  mstore\n    /* \"#utility.yul\":478:482   */\n  0x22\n    /* \"#utility.yul\":475:476   */\n  0x04\n    /* \"#utility.yul\":468:483   */\n  mstore\n    /* \"#utility.yul\":502:506   */\n  0x24\n    /* \"#utility.yul\":499:500   */\n  0x00\n    /* \"#utility.yul\":492:507   */\n  revert\n    /* \"Day50_ERC721A.sol\":98:342  contract Azuki is ERC721A {... */\ntag_11:\n  dataSize(sub_0)\n  dup1\n  dataOffset(sub_0)\n  0x00\n  codecopy\n  0x00\n  return\nstop\n\nsub_0: assembly {\n        /* \"Day50_ERC721A.sol\":98:342  contract Azuki is ERC721A {... */\n      mstore(0x40, 0x80)\n      jumpi(tag_1, lt(calldatasize, 0x04))\n      shr(0xe0, calldataload(0x00))\n      dup1\n      0x6352211e\n      gt\n      tag_17\n      jumpi\n      dup1\n      0xa22cb465\n      gt\n      tag_18\n      jumpi\n      dup1\n      0xa22cb465\n      eq\n      tag_13\n      jumpi\n      dup1\n      0xb88d4fde\n      eq\n      tag_14\n      jumpi\n      dup1\n      0xc87b56dd\n      eq\n      tag_15\n      jumpi\n      dup1\n      0xe985e9c5\n      eq\n      tag_16\n      jumpi\n      jump(tag_1)\n    tag_18:\n      dup1\n      0x6352211e\n      eq\n      tag_9\n      jumpi\n      dup1\n      0x70a08231\n      eq\n      tag_10\n      jumpi\n      dup1\n      0x95d89b41\n      eq\n      tag_11\n      jumpi\n      dup1\n      0xa0712d68\n      eq\n      tag_12\n      jumpi\n      jump(tag_1)\n    tag_17:\n      dup1\n      0x095ea7b3\n      gt\n      tag_19\n      jumpi\n      dup1\n      0x095ea7b3\n      eq\n      tag_5\n      jumpi\n      dup1\n      0x18160ddd\n      eq\n      tag_6\n      jumpi\n      dup1\n      0x23b872dd\n      eq\n      tag_7\n      jumpi\n      dup1\n      0x42842e0e\n      eq\n      tag_8\n      jumpi\n      jump(tag_1)\n    tag_19:\n      dup1\n      0x01ffc9a7\n      eq\n      tag_2\n      jumpi\n      dup1\n      0x06fdde03\n      eq\n      tag_3\n      jumpi\n      dup1\n      0x081812fc\n      eq\n      tag_4\n      jumpi\n    tag_1:\n      0x00\n      dup1\n      revert\n        /* \"erc721a/contracts/ERC721A.sol\":5653:6260  function supportsInterface(bytes4 interfaceId) public view virtual override returns (bool) {... */\n    tag_2:\n      callvalue\n      dup1\n      iszero\n      tag_20\n      jumpi\n      0x00\n      dup1\n      revert\n    tag_20:\n      pop\n      tag_21\n      0x04\n      dup1\n      calldatasize\n      sub\n      dup2\n      add\n      swap1\n      tag_22\n      swap2\n      swap1\n      tag_23\n      jump\t// in\n    tag_22:\n      tag_24\n      jump\t// in\n    tag_21:\n      mload(0x40)\n      tag_25\n      swap2\n      swap1\n      tag_26\n      jump\t// in\n    tag_25:\n      mload(0x40)\n      dup1\n      swap2\n      sub\n      swap1\n      return\n        /* \"erc721a/contracts/ERC721A.sol\":11161:11259  function name() public view virtual override returns (string memory) {... */\n    tag_3:\n      callvalue\n      dup1\n      iszero\n      tag_27\n      jumpi\n      0x00\n      dup1\n      revert\n    tag_27:\n      pop\n      tag_28\n      tag_29\n      jump\t// in\n    tag_28:\n      mload(0x40)\n      tag_30\n      swap2\n      swap1\n      tag_31\n      jump\t// in\n    tag_30:\n      mload(0x40)\n      dup1\n      swap2\n      sub\n      swap1\n      return\n        /* \"erc721a/contracts/ERC721A.sol\":13048:13248  function getApproved(uint256 tokenId) public view override returns (address) {... */\n    tag_4:\n      callvalue\n      dup1\n      iszero\n      tag_32\n      jumpi\n      0x00\n      dup1\n      revert\n    tag_32:\n      pop\n      tag_33\n      0x04\n      dup1\n      calldatasize\n      sub\n      dup2\n      add\n      swap1\n      tag_34\n      swap2\n      swap1\n      tag_35\n      jump\t// in\n    tag_34:\n      tag_36\n      jump\t// in\n    tag_33:\n      mload(0x40)\n      tag_37\n      swap2\n      swap1\n      tag_38\n      jump\t// in\n    tag_37:\n      mload(0x40)\n      dup1\n      swap2\n      sub\n      swap1\n      return\n        /* \"erc721a/contracts/ERC721A.sol\":12611:12987  function approve(address to, uint256 tokenId) public override {... */\n    tag_5:\n      callvalue\n      dup1\n      iszero\n      tag_39\n      jumpi\n      0x00\n      dup1\n      revert\n    tag_39:\n      pop\n      tag_40\n      0x04\n      dup1\n      calldatasize\n      sub\n      dup2\n      add\n      swap1\n      tag_41\n      swap2\n      swap1\n      tag_42\n      jump\t// in\n    tag_41:\n      tag_43\n      jump\t// in\n    tag_40:\n      stop\n        /* \"erc721a/contracts/ERC721A.sol\":4736:5045  function totalSupply() public view override returns (uint256) {... */\n    tag_6:\n      callvalue\n      dup1\n      iszero\n      tag_44\n      jumpi\n      0x00\n      dup1\n      revert\n    tag_44:\n      pop\n      tag_45\n      tag_46\n      jump\t// in\n    tag_45:\n      mload(0x40)\n      tag_47\n      swap2\n      swap1\n      tag_48\n      jump\t// in\n    tag_47:\n      mload(0x40)\n      dup1\n      swap2\n      sub\n      swap1\n      return\n        /* \"erc721a/contracts/ERC721A.sol\":22055:24794  function transferFrom(... */\n    tag_7:\n      callvalue\n      dup1\n      iszero\n      tag_49\n      jumpi\n      0x00\n      dup1\n      revert\n    tag_49:\n      pop\n      tag_50\n      0x04\n      dup1\n      calldatasize\n      sub\n      dup2\n      add\n      swap1\n      tag_51\n      swap2\n      swap1\n      tag_52\n      jump\t// in\n    tag_51:\n      tag_53\n      jump\t// in\n    tag_50:\n      stop\n        /* \"erc721a/contracts/ERC721A.sol\":13912:14091  function safeTransferFrom(... */\n    tag_8:\n      callvalue\n      dup1\n      iszero\n      tag_54\n      jumpi\n      0x00\n      dup1\n      revert\n    tag_54:\n      pop\n      tag_55\n      0x04\n      dup1\n      calldatasize\n      sub\n      dup2\n      add\n      swap1\n      tag_56\n      swap2\n      swap1\n      tag_52\n      jump\t// in\n    tag_56:\n      tag_57\n      jump\t// in\n    tag_55:\n      stop\n        /* \"erc721a/contracts/ERC721A.sol\":10957:11099  function ownerOf(uint256 tokenId) public view override returns (address) {... */\n    tag_9:\n      callvalue\n      dup1\n      iszero\n      tag_58\n      jumpi\n      0x00\n      dup1\n      revert\n    tag_58:\n      pop\n      tag_59\n      0x04\n      dup1\n      calldatasize\n      sub\n      dup2\n      add\n      swap1\n      tag_60\n      swap2\n      swap1\n      tag_35\n      jump\t// in\n    tag_60:\n      tag_61\n      jump\t// in\n    tag_59:\n      mload(0x40)\n      tag_62\n      swap2\n      swap1\n      tag_38\n      jump\t// in\n    tag_62:\n      mload(0x40)\n      dup1\n      swap2\n      sub\n      swap1\n      return\n        /* \"erc721a/contracts/ERC721A.sol\":6319:6540  function balanceOf(address owner) public view override returns (uint256) {... */\n    tag_10:\n      callvalue\n      dup1\n      iszero\n      tag_63\n      jumpi\n      0x00\n      dup1\n      revert\n    tag_63:\n      pop\n      tag_64\n      0x04\n      dup1\n      calldatasize\n      sub\n      dup2\n      add\n      swap1\n      tag_65\n      swap2\n      swap1\n      tag_66\n      jump\t// in\n    tag_65:\n      tag_67\n      jump\t// in\n    tag_64:\n      mload(0x40)\n      tag_68\n      swap2\n      swap1\n      tag_48\n      jump\t// in\n    tag_68:\n      mload(0x40)\n      dup1\n      swap2\n      sub\n      swap1\n      return\n        /* \"erc721a/contracts/ERC721A.sol\":11323:11425  function symbol() public view virtual override returns (string memory) {... */\n    tag_11:\n      callvalue\n      dup1\n      iszero\n      tag_69\n      jumpi\n      0x00\n      dup1\n      revert\n    tag_69:\n      pop\n      tag_70\n      tag_71\n      jump\t// in\n    tag_70:\n      mload(0x40)\n      tag_72\n      swap2\n      swap1\n      tag_31\n      jump\t// in\n    tag_72:\n      mload(0x40)\n      dup1\n      swap2\n      sub\n      swap1\n      return\n        /* \"Day50_ERC721A.sol\":174:340  function mint(uint256 quantity) external payable {... */\n    tag_12:\n      tag_73\n      0x04\n      dup1\n      calldatasize\n      sub\n      dup2\n      add\n      swap1\n      tag_74\n      swap2\n      swap1\n      tag_35\n      jump\t// in\n    tag_74:\n      tag_75\n      jump\t// in\n    tag_73:\n      stop\n        /* \"erc721a/contracts/ERC721A.sol\":13315:13618  function setApprovalForAll(address operator, bool approved) public virtual override {... */\n    tag_13:\n      callvalue\n      dup1\n      iszero\n      tag_76\n      jumpi\n      0x00\n      dup1\n      revert\n    tag_76:\n      pop\n      tag_77\n      0x04\n      dup1\n      calldatasize\n      sub\n      dup2\n      add\n      swap1\n      tag_78\n      swap2\n      swap1\n      tag_79\n      jump\t// in\n    tag_78:\n      tag_80\n      jump\t// in\n    tag_77:\n      stop\n        /* \"erc721a/contracts/ERC721A.sol\":14157:14545  function safeTransferFrom(... */\n    tag_14:\n      callvalue\n      dup1\n      iszero\n      tag_81\n      jumpi\n      0x00\n      dup1\n      revert\n    tag_81:\n      pop\n      tag_82\n      0x04\n      dup1\n      calldatasize\n      sub\n      dup2\n      add\n      swap1\n      tag_83\n      swap2\n      swap1\n      tag_84\n      jump\t// in\n    tag_83:\n      tag_85\n      jump\t// in\n    tag_82:\n      stop\n        /* \"erc721a/contracts/ERC721A.sol\":11491:11804  function tokenURI(uint256 tokenId) public view virtual override returns (string memory) {... */\n    tag_15:\n      callvalue\n      dup1\n      iszero\n      tag_86\n      jumpi\n      0x00\n      dup1\n      revert\n    tag_86:\n      pop\n      tag_87\n      0x04\n      dup1\n      calldatasize\n      sub\n      dup2\n      add\n      swap1\n      tag_88\n      swap2\n      swap1\n      tag_35\n      jump\t// in\n    tag_88:\n      tag_89\n      jump\t// in\n    tag_87:\n      mload(0x40)\n      tag_90\n      swap2\n      swap1\n      tag_31\n      jump\t// in\n    tag_90:\n      mload(0x40)\n      dup1\n      swap2\n      sub\n      swap1\n      return\n        /* \"erc721a/contracts/ERC721A.sol\":13684:13846  function isApprovedForAll(address owner, address operator) public view virtual override returns (bool) {... */\n    tag_16:\n      callvalue\n      dup1\n      iszero\n      tag_91\n      jumpi\n      0x00\n      dup1\n      revert\n    tag_91:\n      pop\n      tag_92\n      0x04\n      dup1\n      calldatasize\n      sub\n      dup2\n      add\n      swap1\n      tag_93\n      swap2\n      swap1\n      tag_94\n      jump\t// in\n    tag_93:\n      tag_95\n      jump\t// in\n    tag_92:\n      mload(0x40)\n      tag_96\n      swap2\n      swap1\n      tag_26\n      jump\t// in\n    tag_96:\n      mload(0x40)\n      dup1\n      swap2\n      sub\n      swap1\n      return\n        /* \"erc721a/contracts/ERC721A.sol\":5653:6260  function supportsInterface(bytes4 interfaceId) public view virtual override returns (bool) {... */\n    tag_24:\n        /* \"erc721a/contracts/ERC721A.sol\":5738:5742  bool */\n      0x00\n        /* \"erc721a/contracts/ERC721A.sol\":6048:6058  0x01ffc9a7 */\n      0x01ffc9a7\n        /* \"erc721a/contracts/ERC721A.sol\":6033:6058  interfaceId == 0x01ffc9a7 */\n      0xe0\n      shl\n        /* \"erc721a/contracts/ERC721A.sol\":6033:6044  interfaceId */\n      dup3\n        /* \"erc721a/contracts/ERC721A.sol\":6033:6058  interfaceId == 0x01ffc9a7 */\n      not(0xffffffffffffffffffffffffffffffffffffffffffffffffffffffff)\n      and\n      eq\n        /* \"erc721a/contracts/ERC721A.sol\":6033:6134  interfaceId == 0x01ffc9a7 || // ERC165 interface ID for ERC165.... */\n      dup1\n      tag_98\n      jumpi\n      pop\n        /* \"erc721a/contracts/ERC721A.sol\":6124:6134  0x80ac58cd */\n      0x80ac58cd\n        /* \"erc721a/contracts/ERC721A.sol\":6109:6134  interfaceId == 0x80ac58cd */\n      0xe0\n      shl\n        /* \"erc721a/contracts/ERC721A.sol\":6109:6120  interfaceId */\n      dup3\n        /* \"erc721a/contracts/ERC721A.sol\":6109:6134  interfaceId == 0x80ac58cd */\n      not(0xffffffffffffffffffffffffffffffffffffffffffffffffffffffff)\n      and\n      eq\n        /* \"erc721a/contracts/ERC721A.sol\":6033:6134  interfaceId == 0x01ffc9a7 || // ERC165 interface ID for ERC165.... */\n    tag_98:\n        /* \"erc721a/contracts/ERC721A.sol\":6033:6210  interfaceId == 0x01ffc9a7 || // ERC165 interface ID for ERC165.... */\n      dup1\n      tag_99\n      jumpi\n      pop\n        /* \"erc721a/contracts/ERC721A.sol\":6200:6210  0x5b5e139f */\n      0x5b5e139f\n        /* \"erc721a/contracts/ERC721A.sol\":6185:6210  interfaceId == 0x5b5e139f */\n      0xe0\n      shl\n        /* \"erc721a/contracts/ERC721A.sol\":6185:6196  interfaceId */\n      dup3\n        /* \"erc721a/contracts/ERC721A.sol\":6185:6210  interfaceId == 0x5b5e139f */\n      not(0xffffffffffffffffffffffffffffffffffffffffffffffffffffffff)\n      and\n      eq\n        /* \"erc721a/contracts/ERC721A.sol\":6033:6210  interfaceId == 0x01ffc9a7 || // ERC165 interface ID for ERC165.... */\n    tag_99:\n        /* \"erc721a/contracts/ERC721A.sol\":6014:6210  return... */\n      swap1\n      pop\n        /* \"erc721a/contracts/ERC721A.sol\":5653:6260  function supportsInterface(bytes4 interfaceId) public view virtual override returns (bool) {... */\n      swap2\n      swap1\n      pop\n      jump\t// out\n        /* \"erc721a/contracts/ERC721A.sol\":11161:11259  function name() public view virtual override returns (string memory) {... */\n    tag_29:\n        /* \"erc721a/contracts/ERC721A.sol\":11215:11228  string memory */\n      0x60\n        /* \"erc721a/contracts/ERC721A.sol\":11247:11252  _name */\n      0x02\n        /* \"erc721a/contracts/ERC721A.sol\":11240:11252  return _name */\n      dup1\n      sload\n      tag_101\n      swap1\n      tag_102\n      jump\t// in\n    tag_101:\n      dup1\n      0x1f\n      add\n      0x20\n      dup1\n      swap2\n      div\n      mul\n      0x20\n      add\n      mload(0x40)\n      swap1\n      dup2\n      add\n      0x40\n      mstore\n      dup1\n      swap3\n      swap2\n      swap1\n      dup2\n      dup2\n      mstore\n      0x20\n      add\n      dup3\n      dup1\n      sload\n      tag_103\n      swap1\n      tag_102\n      jump\t// in\n    tag_103:\n      dup1\n      iszero\n      tag_104\n      jumpi\n      dup1\n      0x1f\n      lt\n      tag_105\n      jumpi\n      0x0100\n      dup1\n      dup4\n      sload\n      div\n      mul\n      dup4\n      mstore\n      swap2\n      0x20\n      add\n      swap2\n      jump(tag_104)\n    tag_105:\n      dup3\n      add\n      swap2\n      swap1\n      0x00\n      mstore\n      keccak256(0x00, 0x20)\n      swap1\n    tag_106:\n      dup2\n      sload\n      dup2\n      mstore\n      swap1\n      0x01\n      add\n      swap1\n      0x20\n      add\n      dup1\n      dup4\n      gt\n      tag_106\n      jumpi\n      dup3\n      swap1\n      sub\n      0x1f\n      and\n      dup3\n      add\n      swap2\n    tag_104:\n      pop\n      pop\n      pop\n      pop\n      pop\n      swap1\n      pop\n        /* \"erc721a/contracts/ERC721A.sol\":11161:11259  function name() public view virtual override returns (string memory) {... */\n      swap1\n      jump\t// out\n        /* \"erc721a/contracts/ERC721A.sol\":13048:13248  function getApproved(uint256 tokenId) public view override returns (address) {... */\n    tag_36:\n        /* \"erc721a/contracts/ERC721A.sol\":13116:13123  address */\n      0x00\n        /* \"erc721a/contracts/ERC721A.sol\":13140:13156  _exists(tokenId) */\n      tag_108\n        /* \"erc721a/contracts/ERC721A.sol\":13148:13155  tokenId */\n      dup3\n        /* \"erc721a/contracts/ERC721A.sol\":13140:13147  _exists */\n      tag_109\n        /* \"erc721a/contracts/ERC721A.sol\":13140:13156  _exists(tokenId) */\n      jump\t// in\n    tag_108:\n        /* \"erc721a/contracts/ERC721A.sol\":13135:13199  if (!_exists(tokenId)) revert ApprovalQueryForNonexistentToken() */\n      tag_110\n      jumpi\n        /* \"erc721a/contracts/ERC721A.sol\":13165:13199  ApprovalQueryForNonexistentToken() */\n      mload(0x40)\n      0xcf4700e400000000000000000000000000000000000000000000000000000000\n      dup2\n      mstore\n      0x04\n      add\n      mload(0x40)\n      dup1\n      swap2\n      sub\n      swap1\n      revert\n        /* \"erc721a/contracts/ERC721A.sol\":13135:13199  if (!_exists(tokenId)) revert ApprovalQueryForNonexistentToken() */\n    tag_110:\n        /* \"erc721a/contracts/ERC721A.sol\":13217:13232  _tokenApprovals */\n      0x06\n        /* \"erc721a/contracts/ERC721A.sol\":13217:13241  _tokenApprovals[tokenId] */\n      0x00\n        /* \"erc721a/contracts/ERC721A.sol\":13233:13240  tokenId */\n      dup4\n        /* \"erc721a/contracts/ERC721A.sol\":13217:13241  _tokenApprovals[tokenId] */\n      dup2\n      mstore\n      0x20\n      add\n      swap1\n      dup2\n      mstore\n      0x20\n      add\n      0x00\n      keccak256\n      0x00\n      swap1\n      sload\n      swap1\n      0x0100\n      exp\n      swap1\n      div\n      0xffffffffffffffffffffffffffffffffffffffff\n      and\n        /* \"erc721a/contracts/ERC721A.sol\":13210:13241  return _tokenApprovals[tokenId] */\n      swap1\n      pop\n        /* \"erc721a/contracts/ERC721A.sol\":13048:13248  function getApproved(uint256 tokenId) public view override returns (address) {... */\n      swap2\n      swap1\n      pop\n      jump\t// out\n        /* \"erc721a/contracts/ERC721A.sol\":12611:12987  function approve(address to, uint256 tokenId) public override {... */\n    tag_43:\n        /* \"erc721a/contracts/ERC721A.sol\":12683:12696  address owner */\n      0x00\n        /* \"erc721a/contracts/ERC721A.sol\":12699:12715  ownerOf(tokenId) */\n      tag_112\n        /* \"erc721a/contracts/ERC721A.sol\":12707:12714  tokenId */\n      dup3\n        /* \"erc721a/contracts/ERC721A.sol\":12699:12706  ownerOf */\n      tag_61\n        /* \"erc721a/contracts/ERC721A.sol\":12699:12715  ownerOf(tokenId) */\n      jump\t// in\n    tag_112:\n        /* \"erc721a/contracts/ERC721A.sol\":12683:12715  address owner = ownerOf(tokenId) */\n      swap1\n      pop\n        /* \"erc721a/contracts/ERC721A.sol\":12753:12758  owner */\n      dup1\n        /* \"erc721a/contracts/ERC721A.sol\":12730:12758  _msgSenderERC721A() != owner */\n      0xffffffffffffffffffffffffffffffffffffffff\n      and\n        /* \"erc721a/contracts/ERC721A.sol\":12730:12749  _msgSenderERC721A() */\n      tag_113\n        /* \"erc721a/contracts/ERC721A.sol\":12730:12747  _msgSenderERC721A */\n      tag_114\n        /* \"erc721a/contracts/ERC721A.sol\":12730:12749  _msgSenderERC721A() */\n      jump\t// in\n    tag_113:\n        /* \"erc721a/contracts/ERC721A.sol\":12730:12758  _msgSenderERC721A() != owner */\n      0xffffffffffffffffffffffffffffffffffffffff\n      and\n      eq\n        /* \"erc721a/contracts/ERC721A.sol\":12726:12898  if (_msgSenderERC721A() != owner)... */\n      tag_115\n      jumpi\n        /* \"erc721a/contracts/ERC721A.sol\":12777:12821  isApprovedForAll(owner, _msgSenderERC721A()) */\n      tag_116\n        /* \"erc721a/contracts/ERC721A.sol\":12794:12799  owner */\n      dup2\n        /* \"erc721a/contracts/ERC721A.sol\":12801:12820  _msgSenderERC721A() */\n      tag_117\n        /* \"erc721a/contracts/ERC721A.sol\":12801:12818  _msgSenderERC721A */\n      tag_114\n        /* \"erc721a/contracts/ERC721A.sol\":12801:12820  _msgSenderERC721A() */\n      jump\t// in\n    tag_117:\n        /* \"erc721a/contracts/ERC721A.sol\":12777:12793  isApprovedForAll */\n      tag_95\n        /* \"erc721a/contracts/ERC721A.sol\":12777:12821  isApprovedForAll(owner, _msgSenderERC721A()) */\n      jump\t// in\n    tag_116:\n        /* \"erc721a/contracts/ERC721A.sol\":12772:12898  if (!isApprovedForAll(owner, _msgSenderERC721A())) {... */\n      tag_118\n      jumpi\n        /* \"erc721a/contracts/ERC721A.sol\":12848:12883  ApprovalCallerNotOwnerNorApproved() */\n      mload(0x40)\n      0xcfb3b94200000000000000000000000000000000000000000000000000000000\n      dup2\n      mstore\n      0x04\n      add\n      mload(0x40)\n      dup1\n      swap2\n      sub\n      swap1\n      revert\n        /* \"erc721a/contracts/ERC721A.sol\":12772:12898  if (!isApprovedForAll(owner, _msgSenderERC721A())) {... */\n    tag_118:\n        /* \"erc721a/contracts/ERC721A.sol\":12726:12898  if (_msgSenderERC721A() != owner)... */\n    tag_115:\n        /* \"erc721a/contracts/ERC721A.sol\":12935:12937  to */\n      dup3\n        /* \"erc721a/contracts/ERC721A.sol\":12908:12923  _tokenApprovals */\n      0x06\n        /* \"erc721a/contracts/ERC721A.sol\":12908:12932  _tokenApprovals[tokenId] */\n      0x00\n        /* \"erc721a/contracts/ERC721A.sol\":12924:12931  tokenId */\n      dup5\n        /* \"erc721a/contracts/ERC721A.sol\":12908:12932  _tokenApprovals[tokenId] */\n      dup2\n      mstore\n      0x20\n      add\n      swap1\n      dup2\n      mstore\n      0x20\n      add\n      0x00\n      keccak256\n      0x00\n        /* \"erc721a/contracts/ERC721A.sol\":12908:12937  _tokenApprovals[tokenId] = to */\n      0x0100\n      exp\n      dup2\n      sload\n      dup2\n      0xffffffffffffffffffffffffffffffffffffffff\n      mul\n      not\n      and\n      swap1\n      dup4\n      0xffffffffffffffffffffffffffffffffffffffff\n      and\n      mul\n      or\n      swap1\n      sstore\n      pop\n        /* \"erc721a/contracts/ERC721A.sol\":12972:12979  tokenId */\n      dup2\n        /* \"erc721a/contracts/ERC721A.sol\":12968:12970  to */\n      dup4\n        /* \"erc721a/contracts/ERC721A.sol\":12952:12980  Approval(owner, to, tokenId) */\n      0xffffffffffffffffffffffffffffffffffffffff\n      and\n        /* \"erc721a/contracts/ERC721A.sol\":12961:12966  owner */\n      dup3\n        /* \"erc721a/contracts/ERC721A.sol\":12952:12980  Approval(owner, to, tokenId) */\n      0xffffffffffffffffffffffffffffffffffffffff\n      and\n      0x8c5be1e5ebec7d5bd14f71427d1e84f3dd0314c0f7b2291e5b200ac8c7c3b925\n      mload(0x40)\n      mload(0x40)\n      dup1\n      swap2\n      sub\n      swap1\n      log4\n        /* \"erc721a/contracts/ERC721A.sol\":12673:12987  {... */\n      pop\n        /* \"erc721a/contracts/ERC721A.sol\":12611:12987  function approve(address to, uint256 tokenId) public override {... */\n      pop\n      pop\n      jump\t// out\n        /* \"erc721a/contracts/ERC721A.sol\":4736:5045  function totalSupply() public view override returns (uint256) {... */\n    tag_46:\n        /* \"erc721a/contracts/ERC721A.sol\":4789:4796  uint256 */\n      0x00\n        /* \"erc721a/contracts/ERC721A.sol\":5013:5028  _startTokenId() */\n      tag_120\n        /* \"erc721a/contracts/ERC721A.sol\":5013:5026  _startTokenId */\n      tag_121\n        /* \"erc721a/contracts/ERC721A.sol\":5013:5028  _startTokenId() */\n      jump\t// in\n    tag_120:\n        /* \"erc721a/contracts/ERC721A.sol\":4998:5010  _burnCounter */\n      sload(0x01)\n        /* \"erc721a/contracts/ERC721A.sol\":4982:4995  _currentIndex */\n      sload(0x00)\n        /* \"erc721a/contracts/ERC721A.sol\":4982:5010  _currentIndex - _burnCounter */\n      sub\n        /* \"erc721a/contracts/ERC721A.sol\":4982:5028  _currentIndex - _burnCounter - _startTokenId() */\n      sub\n        /* \"erc721a/contracts/ERC721A.sol\":4975:5028  return _currentIndex - _burnCounter - _startTokenId() */\n      swap1\n      pop\n        /* \"erc721a/contracts/ERC721A.sol\":4736:5045  function totalSupply() public view override returns (uint256) {... */\n      swap1\n      jump\t// out\n        /* \"erc721a/contracts/ERC721A.sol\":22055:24794  function transferFrom(... */\n    tag_53:\n        /* \"erc721a/contracts/ERC721A.sol\":22184:22211  uint256 prevOwnershipPacked */\n      0x00\n        /* \"erc721a/contracts/ERC721A.sol\":22214:22241  _packedOwnershipOf(tokenId) */\n      tag_123\n        /* \"erc721a/contracts/ERC721A.sol\":22233:22240  tokenId */\n      dup3\n        /* \"erc721a/contracts/ERC721A.sol\":22214:22232  _packedOwnershipOf */\n      tag_124\n        /* \"erc721a/contracts/ERC721A.sol\":22214:22241  _packedOwnershipOf(tokenId) */\n      jump\t// in\n    tag_123:\n        /* \"erc721a/contracts/ERC721A.sol\":22184:22241  uint256 prevOwnershipPacked = _packedOwnershipOf(tokenId) */\n      swap1\n      pop\n        /* \"erc721a/contracts/ERC721A.sol\":22297:22301  from */\n      dup4\n        /* \"erc721a/contracts/ERC721A.sol\":22256:22301  address(uint160(prevOwnershipPacked)) != from */\n      0xffffffffffffffffffffffffffffffffffffffff\n      and\n        /* \"erc721a/contracts/ERC721A.sol\":22272:22291  prevOwnershipPacked */\n      dup2\n        /* \"erc721a/contracts/ERC721A.sol\":22256:22301  address(uint160(prevOwnershipPacked)) != from */\n      0xffffffffffffffffffffffffffffffffffffffff\n      and\n      eq\n        /* \"erc721a/contracts/ERC721A.sol\":22252:22338  if (address(uint160(prevOwnershipPacked)) != from) revert TransferFromIncorrectOwner() */\n      tag_125\n      jumpi\n        /* \"erc721a/contracts/ERC721A.sol\":22310:22338  TransferFromIncorrectOwner() */\n      mload(0x40)\n      0xa114810000000000000000000000000000000000000000000000000000000000\n      dup2\n      mstore\n      0x04\n      add\n      mload(0x40)\n      dup1\n      swap2\n      sub\n      swap1\n      revert\n        /* \"erc721a/contracts/ERC721A.sol\":22252:22338  if (address(uint160(prevOwnershipPacked)) != from) revert TransferFromIncorrectOwner() */\n    tag_125:\n        /* \"erc721a/contracts/ERC721A.sol\":22350:22377  uint256 approvedAddressSlot */\n      0x00\n        /* \"erc721a/contracts/ERC721A.sol\":22379:22402  address approvedAddress */\n      dup1\n        /* \"erc721a/contracts/ERC721A.sol\":22406:22434  _getApprovedAddress(tokenId) */\n      tag_126\n        /* \"erc721a/contracts/ERC721A.sol\":22426:22433  tokenId */\n      dup5\n        /* \"erc721a/contracts/ERC721A.sol\":22406:22425  _getApprovedAddress */\n      tag_127\n        /* \"erc721a/contracts/ERC721A.sol\":22406:22434  _getApprovedAddress(tokenId) */\n      jump\t// in\n    tag_126:\n        /* \"erc721a/contracts/ERC721A.sol\":22349:22434  (uint256 approvedAddressSlot, address approvedAddress) = _getApprovedAddress(tokenId) */\n      swap2\n      pop\n      swap2\n      pop\n        /* \"erc721a/contracts/ERC721A.sol\":22531:22593  _isOwnerOrApproved(approvedAddress, from, _msgSenderERC721A()) */\n      tag_128\n        /* \"erc721a/contracts/ERC721A.sol\":22550:22565  approvedAddress */\n      dup2\n        /* \"erc721a/contracts/ERC721A.sol\":22567:22571  from */\n      dup8\n        /* \"erc721a/contracts/ERC721A.sol\":22573:22592  _msgSenderERC721A() */\n      tag_129\n        /* \"erc721a/contracts/ERC721A.sol\":22573:22590  _msgSenderERC721A */\n      tag_114\n        /* \"erc721a/contracts/ERC721A.sol\":22573:22592  _msgSenderERC721A() */\n      jump\t// in\n    tag_129:\n        /* \"erc721a/contracts/ERC721A.sol\":22531:22549  _isOwnerOrApproved */\n      tag_130\n        /* \"erc721a/contracts/ERC721A.sol\":22531:22593  _isOwnerOrApproved(approvedAddress, from, _msgSenderERC721A()) */\n      jump\t// in\n    tag_128:\n        /* \"erc721a/contracts/ERC721A.sol\":22526:22699  if (!_isOwnerOrApproved(approvedAddress, from, _msgSenderERC721A()))... */\n      tag_131\n      jumpi\n        /* \"erc721a/contracts/ERC721A.sol\":22612:22655  isApprovedForAll(from, _msgSenderERC721A()) */\n      tag_132\n        /* \"erc721a/contracts/ERC721A.sol\":22629:22633  from */\n      dup7\n        /* \"erc721a/contracts/ERC721A.sol\":22635:22654  _msgSenderERC721A() */\n      tag_133\n        /* \"erc721a/contracts/ERC721A.sol\":22635:22652  _msgSenderERC721A */\n      tag_114\n        /* \"erc721a/contracts/ERC721A.sol\":22635:22654  _msgSenderERC721A() */\n      jump\t// in\n    tag_133:\n        /* \"erc721a/contracts/ERC721A.sol\":22612:22628  isApprovedForAll */\n      tag_95\n        /* \"erc721a/contracts/ERC721A.sol\":22612:22655  isApprovedForAll(from, _msgSenderERC721A()) */\n      jump\t// in\n    tag_132:\n        /* \"erc721a/contracts/ERC721A.sol\":22607:22699  if (!isApprovedForAll(from, _msgSenderERC721A())) revert TransferCallerNotOwnerNorApproved() */\n      tag_134\n      jumpi\n        /* \"erc721a/contracts/ERC721A.sol\":22664:22699  TransferCallerNotOwnerNorApproved() */\n      mload(0x40)\n      0x59c896be00000000000000000000000000000000000000000000000000000000\n      dup2\n      mstore\n      0x04\n      add\n      mload(0x40)\n      dup1\n      swap2\n      sub\n      swap1\n      revert\n        /* \"erc721a/contracts/ERC721A.sol\":22607:22699  if (!isApprovedForAll(from, _msgSenderERC721A())) revert TransferCallerNotOwnerNorApproved() */\n    tag_134:\n        /* \"erc721a/contracts/ERC721A.sol\":22526:22699  if (!_isOwnerOrApproved(approvedAddress, from, _msgSenderERC721A()))... */\n    tag_131:\n        /* \"erc721a/contracts/ERC721A.sol\":22728:22729  0 */\n      0x00\n        /* \"erc721a/contracts/ERC721A.sol\":22714:22730  to == address(0) */\n      0xffffffffffffffffffffffffffffffffffffffff\n      and\n        /* \"erc721a/contracts/ERC721A.sol\":22714:22716  to */\n      dup6\n        /* \"erc721a/contracts/ERC721A.sol\":22714:22730  to == address(0) */\n      0xffffffffffffffffffffffffffffffffffffffff\n      and\n      eq\n        /* \"erc721a/contracts/ERC721A.sol\":22710:22762  if (to == address(0)) revert TransferToZeroAddress() */\n      iszero\n      tag_135\n      jumpi\n        /* \"erc721a/contracts/ERC721A.sol\":22739:22762  TransferToZeroAddress() */\n      mload(0x40)\n      0xea553b3400000000000000000000000000000000000000000000000000000000\n      dup2\n      mstore\n      0x04\n      add\n      mload(0x40)\n      dup1\n      swap2\n      sub\n      swap1\n      revert\n        /* \"erc721a/contracts/ERC721A.sol\":22710:22762  if (to == address(0)) revert TransferToZeroAddress() */\n    tag_135:\n        /* \"erc721a/contracts/ERC721A.sol\":22773:22816  _beforeTokenTransfers(from, to, tokenId, 1) */\n      tag_136\n        /* \"erc721a/contracts/ERC721A.sol\":22795:22799  from */\n      dup7\n        /* \"erc721a/contracts/ERC721A.sol\":22801:22803  to */\n      dup7\n        /* \"erc721a/contracts/ERC721A.sol\":22805:22812  tokenId */\n      dup7\n        /* \"erc721a/contracts/ERC721A.sol\":22814:22815  1 */\n      0x01\n        /* \"erc721a/contracts/ERC721A.sol\":22773:22794  _beforeTokenTransfers */\n      tag_137\n        /* \"erc721a/contracts/ERC721A.sol\":22773:22816  _beforeTokenTransfers(from, to, tokenId, 1) */\n      jump\t// in\n    tag_136:\n        /* \"erc721a/contracts/ERC721A.sol\":22905:22920  approvedAddress */\n      dup1\n        /* \"erc721a/contracts/ERC721A.sol\":22902:23059  if approvedAddress {... */\n      iszero\n      tag_138\n      jumpi\n        /* \"erc721a/contracts/ERC721A.sol\":23043:23044  0 */\n      0x00\n        /* \"erc721a/contracts/ERC721A.sol\":23022:23041  approvedAddressSlot */\n      dup3\n        /* \"erc721a/contracts/ERC721A.sol\":23015:23045  sstore(approvedAddressSlot, 0) */\n      sstore\n        /* \"erc721a/contracts/ERC721A.sol\":22902:23059  if approvedAddress {... */\n    tag_138:\n        /* \"erc721a/contracts/ERC721A.sol\":23429:23447  _packedAddressData */\n      0x05\n        /* \"erc721a/contracts/ERC721A.sol\":23429:23453  _packedAddressData[from] */\n      0x00\n        /* \"erc721a/contracts/ERC721A.sol\":23448:23452  from */\n      dup8\n        /* \"erc721a/contracts/ERC721A.sol\":23429:23453  _packedAddressData[from] */\n      0xffffffffffffffffffffffffffffffffffffffff\n      and\n      0xffffffffffffffffffffffffffffffffffffffff\n      and\n      dup2\n      mstore\n      0x20\n      add\n      swap1\n      dup2\n      mstore\n      0x20\n      add\n      0x00\n      keccak256\n      0x00\n        /* \"erc721a/contracts/ERC721A.sol\":23427:23453  --_packedAddressData[from] */\n      dup2\n      sload\n      0x01\n      swap1\n      sub\n      swap2\n      swap1\n      pop\n      dup2\n      swap1\n      sstore\n      pop\n        /* \"erc721a/contracts/ERC721A.sol\":23497:23515  _packedAddressData */\n      0x05\n        /* \"erc721a/contracts/ERC721A.sol\":23497:23519  _packedAddressData[to] */\n      0x00\n        /* \"erc721a/contracts/ERC721A.sol\":23516:23518  to */\n      dup7\n        /* \"erc721a/contracts/ERC721A.sol\":23497:23519  _packedAddressData[to] */\n      0xffffffffffffffffffffffffffffffffffffffff\n      and\n      0xffffffffffffffffffffffffffffffffffffffff\n      and\n      dup2\n      mstore\n      0x20\n      add\n      swap1\n      dup2\n      mstore\n      0x20\n      add\n      0x00\n      keccak256\n      0x00\n        /* \"erc721a/contracts/ERC721A.sol\":23495:23519  ++_packedAddressData[to] */\n      dup2\n      sload\n      0x01\n      add\n      swap2\n      swap1\n      pop\n      dup2\n      swap1\n      sstore\n      pop\n        /* \"erc721a/contracts/ERC721A.sol\":23812:23954  _packOwnershipData(... */\n      tag_139\n        /* \"erc721a/contracts/ERC721A.sol\":23848:23850  to */\n      dup6\n        /* \"erc721a/contracts/ERC721A.sol\":23895:23940  _nextExtraData(from, to, prevOwnershipPacked) */\n      tag_140\n        /* \"erc721a/contracts/ERC721A.sol\":23910:23914  from */\n      dup9\n        /* \"erc721a/contracts/ERC721A.sol\":23916:23918  to */\n      dup9\n        /* \"erc721a/contracts/ERC721A.sol\":23920:23939  prevOwnershipPacked */\n      dup8\n        /* \"erc721a/contracts/ERC721A.sol\":23895:23909  _nextExtraData */\n      tag_141\n        /* \"erc721a/contracts/ERC721A.sol\":23895:23940  _nextExtraData(from, to, prevOwnershipPacked) */\n      jump\t// in\n    tag_140:\n        /* \"erc721a/contracts/ERC721A.sol\":2046:2054  1 << 225 */\n      0x0200000000000000000000000000000000000000000000000000000000\n        /* \"erc721a/contracts/ERC721A.sol\":23868:23940  BITMASK_NEXT_INITIALIZED | _nextExtraData(from, to, prevOwnershipPacked) */\n      or\n        /* \"erc721a/contracts/ERC721A.sol\":23812:23830  _packOwnershipData */\n      tag_142\n        /* \"erc721a/contracts/ERC721A.sol\":23812:23954  _packOwnershipData(... */\n      jump\t// in\n    tag_139:\n        /* \"erc721a/contracts/ERC721A.sol\":23783:23800  _packedOwnerships */\n      0x04\n        /* \"erc721a/contracts/ERC721A.sol\":23783:23809  _packedOwnerships[tokenId] */\n      0x00\n        /* \"erc721a/contracts/ERC721A.sol\":23801:23808  tokenId */\n      dup7\n        /* \"erc721a/contracts/ERC721A.sol\":23783:23809  _packedOwnerships[tokenId] */\n      dup2\n      mstore\n      0x20\n      add\n      swap1\n      dup2\n      mstore\n      0x20\n      add\n      0x00\n      keccak256\n        /* \"erc721a/contracts/ERC721A.sol\":23783:23954  _packedOwnerships[tokenId] = _packOwnershipData(... */\n      dup2\n      swap1\n      sstore\n      pop\n        /* \"erc721a/contracts/ERC721A.sol\":24121:24122  0 */\n      0x00\n        /* \"erc721a/contracts/ERC721A.sol\":2046:2054  1 << 225 */\n      0x0200000000000000000000000000000000000000000000000000000000\n        /* \"erc721a/contracts/ERC721A.sol\":24071:24090  prevOwnershipPacked */\n      dup5\n        /* \"erc721a/contracts/ERC721A.sol\":24071:24117  prevOwnershipPacked & BITMASK_NEXT_INITIALIZED */\n      and\n        /* \"erc721a/contracts/ERC721A.sol\":24071:24122  prevOwnershipPacked & BITMASK_NEXT_INITIALIZED == 0 */\n      eq\n        /* \"erc721a/contracts/ERC721A.sol\":24067:24683  if (prevOwnershipPacked & BITMASK_NEXT_INITIALIZED == 0) {... */\n      iszero\n      tag_143\n      jumpi\n        /* \"erc721a/contracts/ERC721A.sol\":24142:24161  uint256 nextTokenId */\n      0x00\n        /* \"erc721a/contracts/ERC721A.sol\":24174:24175  1 */\n      0x01\n        /* \"erc721a/contracts/ERC721A.sol\":24164:24171  tokenId */\n      dup6\n        /* \"erc721a/contracts/ERC721A.sol\":24164:24175  tokenId + 1 */\n      add\n        /* \"erc721a/contracts/ERC721A.sol\":24142:24175  uint256 nextTokenId = tokenId + 1 */\n      swap1\n      pop\n        /* \"erc721a/contracts/ERC721A.sol\":24329:24330  0 */\n      0x00\n        /* \"erc721a/contracts/ERC721A.sol\":24295:24312  _packedOwnerships */\n      0x04\n        /* \"erc721a/contracts/ERC721A.sol\":24295:24325  _packedOwnerships[nextTokenId] */\n      0x00\n        /* \"erc721a/contracts/ERC721A.sol\":24313:24324  nextTokenId */\n      dup4\n        /* \"erc721a/contracts/ERC721A.sol\":24295:24325  _packedOwnerships[nextTokenId] */\n      dup2\n      mstore\n      0x20\n      add\n      swap1\n      dup2\n      mstore\n      0x20\n      add\n      0x00\n      keccak256\n      sload\n        /* \"erc721a/contracts/ERC721A.sol\":24295:24330  _packedOwnerships[nextTokenId] == 0 */\n      eq\n        /* \"erc721a/contracts/ERC721A.sol\":24291:24669  if (_packedOwnerships[nextTokenId] == 0) {... */\n      iszero\n      tag_144\n      jumpi\n        /* \"erc721a/contracts/ERC721A.sol\":24431:24444  _currentIndex */\n      sload(0x00)\n        /* \"erc721a/contracts/ERC721A.sol\":24416:24427  nextTokenId */\n      dup2\n        /* \"erc721a/contracts/ERC721A.sol\":24416:24444  nextTokenId != _currentIndex */\n      eq\n        /* \"erc721a/contracts/ERC721A.sol\":24412:24651  if (nextTokenId != _currentIndex) {... */\n      tag_145\n      jumpi\n        /* \"erc721a/contracts/ERC721A.sol\":24609:24628  prevOwnershipPacked */\n      dup4\n        /* \"erc721a/contracts/ERC721A.sol\":24576:24593  _packedOwnerships */\n      0x04\n        /* \"erc721a/contracts/ERC721A.sol\":24576:24606  _packedOwnerships[nextTokenId] */\n      0x00\n        /* \"erc721a/contracts/ERC721A.sol\":24594:24605  nextTokenId */\n      dup4\n        /* \"erc721a/contracts/ERC721A.sol\":24576:24606  _packedOwnerships[nextTokenId] */\n      dup2\n      mstore\n      0x20\n      add\n      swap1\n      dup2\n      mstore\n      0x20\n      add\n      0x00\n      keccak256\n        /* \"erc721a/contracts/ERC721A.sol\":24576:24628  _packedOwnerships[nextTokenId] = prevOwnershipPacked */\n      dup2\n      swap1\n      sstore\n      pop\n        /* \"erc721a/contracts/ERC721A.sol\":24412:24651  if (nextTokenId != _currentIndex) {... */\n    tag_145:\n        /* \"erc721a/contracts/ERC721A.sol\":24291:24669  if (_packedOwnerships[nextTokenId] == 0) {... */\n    tag_144:\n        /* \"erc721a/contracts/ERC721A.sol\":24124:24683  {... */\n      pop\n        /* \"erc721a/contracts/ERC721A.sol\":24067:24683  if (prevOwnershipPacked & BITMASK_NEXT_INITIALIZED == 0) {... */\n    tag_143:\n        /* \"erc721a/contracts/ERC721A.sol\":24727:24734  tokenId */\n      dup4\n        /* \"erc721a/contracts/ERC721A.sol\":24723:24725  to */\n      dup6\n        /* \"erc721a/contracts/ERC721A.sol\":24708:24735  Transfer(from, to, tokenId) */\n      0xffffffffffffffffffffffffffffffffffffffff\n      and\n        /* \"erc721a/contracts/ERC721A.sol\":24717:24721  from */\n      dup8\n        /* \"erc721a/contracts/ERC721A.sol\":24708:24735  Transfer(from, to, tokenId) */\n      0xffffffffffffffffffffffffffffffffffffffff\n      and\n      0xddf252ad1be2c89b69c2b068fc378daa952ba7f163c4a11628f55a4df523b3ef\n      mload(0x40)\n      mload(0x40)\n      dup1\n      swap2\n      sub\n      swap1\n      log4\n        /* \"erc721a/contracts/ERC721A.sol\":24745:24787  _afterTokenTransfers(from, to, tokenId, 1) */\n      tag_146\n        /* \"erc721a/contracts/ERC721A.sol\":24766:24770  from */\n      dup7\n        /* \"erc721a/contracts/ERC721A.sol\":24772:24774  to */\n      dup7\n        /* \"erc721a/contracts/ERC721A.sol\":24776:24783  tokenId */\n      dup7\n        /* \"erc721a/contracts/ERC721A.sol\":24785:24786  1 */\n      0x01\n        /* \"erc721a/contracts/ERC721A.sol\":24745:24765  _afterTokenTransfers */\n      tag_147\n        /* \"erc721a/contracts/ERC721A.sol\":24745:24787  _afterTokenTransfers(from, to, tokenId, 1) */\n      jump\t// in\n    tag_146:\n        /* \"erc721a/contracts/ERC721A.sol\":22174:24794  {... */\n      pop\n      pop\n      pop\n        /* \"erc721a/contracts/ERC721A.sol\":22055:24794  function transferFrom(... */\n      pop\n      pop\n      pop\n      jump\t// out\n        /* \"erc721a/contracts/ERC721A.sol\":13912:14091  function safeTransferFrom(... */\n    tag_57:\n        /* \"erc721a/contracts/ERC721A.sol\":14045:14084  safeTransferFrom(from, to, tokenId, '') */\n      tag_149\n        /* \"erc721a/contracts/ERC721A.sol\":14062:14066  from */\n      dup4\n        /* \"erc721a/contracts/ERC721A.sol\":14068:14070  to */\n      dup4\n        /* \"erc721a/contracts/ERC721A.sol\":14072:14079  tokenId */\n      dup4\n        /* \"erc721a/contracts/ERC721A.sol\":14045:14084  safeTransferFrom(from, to, tokenId, '') */\n      mload(0x40)\n      dup1\n      0x20\n      add\n      0x40\n      mstore\n      dup1\n      0x00\n      dup2\n      mstore\n      pop\n        /* \"erc721a/contracts/ERC721A.sol\":14045:14061  safeTransferFrom */\n      tag_85\n        /* \"erc721a/contracts/ERC721A.sol\":14045:14084  safeTransferFrom(from, to, tokenId, '') */\n      jump\t// in\n    tag_149:\n        /* \"erc721a/contracts/ERC721A.sol\":13912:14091  function safeTransferFrom(... */\n      pop\n      pop\n      pop\n      jump\t// out\n        /* \"erc721a/contracts/ERC721A.sol\":10957:11099  function ownerOf(uint256 tokenId) public view override returns (address) {... */\n    tag_61:\n        /* \"erc721a/contracts/ERC721A.sol\":11021:11028  address */\n      0x00\n        /* \"erc721a/contracts/ERC721A.sol\":11063:11090  _packedOwnershipOf(tokenId) */\n      tag_151\n        /* \"erc721a/contracts/ERC721A.sol\":11082:11089  tokenId */\n      dup3\n        /* \"erc721a/contracts/ERC721A.sol\":11063:11081  _packedOwnershipOf */\n      tag_124\n        /* \"erc721a/contracts/ERC721A.sol\":11063:11090  _packedOwnershipOf(tokenId) */\n      jump\t// in\n    tag_151:\n        /* \"erc721a/contracts/ERC721A.sol\":11040:11092  return address(uint160(_packedOwnershipOf(tokenId))) */\n      swap1\n      pop\n        /* \"erc721a/contracts/ERC721A.sol\":10957:11099  function ownerOf(uint256 tokenId) public view override returns (address) {... */\n      swap2\n      swap1\n      pop\n      jump\t// out\n        /* \"erc721a/contracts/ERC721A.sol\":6319:6540  function balanceOf(address owner) public view override returns (uint256) {... */\n    tag_67:\n        /* \"erc721a/contracts/ERC721A.sol\":6383:6390  uint256 */\n      0x00\n        /* \"erc721a/contracts/ERC721A.sol\":6423:6424  0 */\n      dup1\n        /* \"erc721a/contracts/ERC721A.sol\":6406:6425  owner == address(0) */\n      0xffffffffffffffffffffffffffffffffffffffff\n      and\n        /* \"erc721a/contracts/ERC721A.sol\":6406:6411  owner */\n      dup3\n        /* \"erc721a/contracts/ERC721A.sol\":6406:6425  owner == address(0) */\n      0xffffffffffffffffffffffffffffffffffffffff\n      and\n      eq\n        /* \"erc721a/contracts/ERC721A.sol\":6402:6462  if (owner == address(0)) revert BalanceQueryForZeroAddress() */\n      iszero\n      tag_153\n      jumpi\n        /* \"erc721a/contracts/ERC721A.sol\":6434:6462  BalanceQueryForZeroAddress() */\n      mload(0x40)\n      0x8f4eb60400000000000000000000000000000000000000000000000000000000\n      dup2\n      mstore\n      0x04\n      add\n      mload(0x40)\n      dup1\n      swap2\n      sub\n      swap1\n      revert\n        /* \"erc721a/contracts/ERC721A.sol\":6402:6462  if (owner == address(0)) revert BalanceQueryForZeroAddress() */\n    tag_153:\n        /* \"erc721a/contracts/ERC721A.sol\":1022:1035  (1 << 64) - 1 */\n      0xffffffffffffffff\n        /* \"erc721a/contracts/ERC721A.sol\":6479:6497  _packedAddressData */\n      0x05\n        /* \"erc721a/contracts/ERC721A.sol\":6479:6504  _packedAddressData[owner] */\n      0x00\n        /* \"erc721a/contracts/ERC721A.sol\":6498:6503  owner */\n      dup5\n        /* \"erc721a/contracts/ERC721A.sol\":6479:6504  _packedAddressData[owner] */\n      0xffffffffffffffffffffffffffffffffffffffff\n      and\n      0xffffffffffffffffffffffffffffffffffffffff\n      and\n      dup2\n      mstore\n      0x20\n      add\n      swap1\n      dup2\n      mstore\n      0x20\n      add\n      0x00\n      keccak256\n      sload\n        /* \"erc721a/contracts/ERC721A.sol\":6479:6533  _packedAddressData[owner] & BITMASK_ADDRESS_DATA_ENTRY */\n      and\n        /* \"erc721a/contracts/ERC721A.sol\":6472:6533  return _packedAddressData[owner] & BITMASK_ADDRESS_DATA_ENTRY */\n      swap1\n      pop\n        /* \"erc721a/contracts/ERC721A.sol\":6319:6540  function balanceOf(address owner) public view override returns (uint256) {... */\n      swap2\n      swap1\n      pop\n      jump\t// out\n        /* \"erc721a/contracts/ERC721A.sol\":11323:11425  function symbol() public view virtual override returns (string memory) {... */\n    tag_71:\n        /* \"erc721a/contracts/ERC721A.sol\":11379:11392  string memory */\n      0x60\n        /* \"erc721a/contracts/ERC721A.sol\":11411:11418  _symbol */\n      0x03\n        /* \"erc721a/contracts/ERC721A.sol\":11404:11418  return _symbol */\n      dup1\n      sload\n      tag_155\n      swap1\n      tag_102\n      jump\t// in\n    tag_155:\n      dup1\n      0x1f\n      add\n      0x20\n      dup1\n      swap2\n      div\n      mul\n      0x20\n      add\n      mload(0x40)\n      swap1\n      dup2\n      add\n      0x40\n      mstore\n      dup1\n      swap3\n      swap2\n      swap1\n      dup2\n      dup2\n      mstore\n      0x20\n      add\n      dup3\n      dup1\n      sload\n      tag_156\n      swap1\n      tag_102\n      jump\t// in\n    tag_156:\n      dup1\n      iszero\n      tag_157\n      jumpi\n      dup1\n      0x1f\n      lt\n      tag_158\n      jumpi\n      0x0100\n      dup1\n      dup4\n      sload\n      div\n      mul\n      dup4\n      mstore\n      swap2\n      0x20\n      add\n      swap2\n      jump(tag_157)\n    tag_158:\n      dup3\n      add\n      swap2\n      swap1\n      0x00\n      mstore\n      keccak256(0x00, 0x20)\n      swap1\n    tag_159:\n      dup2\n      sload\n      dup2\n      mstore\n      swap1\n      0x01\n      add\n      swap1\n      0x20\n      add\n      dup1\n      dup4\n      gt\n      tag_159\n      jumpi\n      dup3\n      swap1\n      sub\n      0x1f\n      and\n      dup3\n      add\n      swap2\n    tag_157:\n      pop\n      pop\n      pop\n      pop\n      pop\n      swap1\n      pop\n        /* \"erc721a/contracts/ERC721A.sol\":11323:11425  function symbol() public view virtual override returns (string memory) {... */\n      swap1\n      jump\t// out\n        /* \"Day50_ERC721A.sol\":174:340  function mint(uint256 quantity) external payable {... */\n    tag_75:\n        /* \"Day50_ERC721A.sol\":304:335  _safeMint(msg.sender, quantity) */\n      tag_161\n        /* \"Day50_ERC721A.sol\":314:324  msg.sender */\n      caller\n        /* \"Day50_ERC721A.sol\":326:334  quantity */\n      dup3\n        /* \"Day50_ERC721A.sol\":304:313  _safeMint */\n      tag_162\n        /* \"Day50_ERC721A.sol\":304:335  _safeMint(msg.sender, quantity) */\n      jump\t// in\n    tag_161:\n        /* \"Day50_ERC721A.sol\":174:340  function mint(uint256 quantity) external payable {... */\n      pop\n      jump\t// out\n        /* \"erc721a/contracts/ERC721A.sol\":13315:13618  function setApprovalForAll(address operator, bool approved) public virtual override {... */\n    tag_80:\n        /* \"erc721a/contracts/ERC721A.sol\":13425:13444  _msgSenderERC721A() */\n      tag_164\n        /* \"erc721a/contracts/ERC721A.sol\":13425:13442  _msgSenderERC721A */\n      tag_114\n        /* \"erc721a/contracts/ERC721A.sol\":13425:13444  _msgSenderERC721A() */\n      jump\t// in\n    tag_164:\n        /* \"erc721a/contracts/ERC721A.sol\":13413:13444  operator == _msgSenderERC721A() */\n      0xffffffffffffffffffffffffffffffffffffffff\n      and\n        /* \"erc721a/contracts/ERC721A.sol\":13413:13421  operator */\n      dup3\n        /* \"erc721a/contracts/ERC721A.sol\":13413:13444  operator == _msgSenderERC721A() */\n      0xffffffffffffffffffffffffffffffffffffffff\n      and\n      eq\n        /* \"erc721a/contracts/ERC721A.sol\":13409:13470  if (operator == _msgSenderERC721A()) revert ApproveToCaller() */\n      iszero\n      tag_165\n      jumpi\n        /* \"erc721a/contracts/ERC721A.sol\":13453:13470  ApproveToCaller() */\n      mload(0x40)\n      0xb06307db00000000000000000000000000000000000000000000000000000000\n      dup2\n      mstore\n      0x04\n      add\n      mload(0x40)\n      dup1\n      swap2\n      sub\n      swap1\n      revert\n        /* \"erc721a/contracts/ERC721A.sol\":13409:13470  if (operator == _msgSenderERC721A()) revert ApproveToCaller() */\n    tag_165:\n        /* \"erc721a/contracts/ERC721A.sol\":13533:13541  approved */\n      dup1\n        /* \"erc721a/contracts/ERC721A.sol\":13481:13499  _operatorApprovals */\n      0x07\n        /* \"erc721a/contracts/ERC721A.sol\":13481:13520  _operatorApprovals[_msgSenderERC721A()] */\n      0x00\n        /* \"erc721a/contracts/ERC721A.sol\":13500:13519  _msgSenderERC721A() */\n      tag_166\n        /* \"erc721a/contracts/ERC721A.sol\":13500:13517  _msgSenderERC721A */\n      tag_114\n        /* \"erc721a/contracts/ERC721A.sol\":13500:13519  _msgSenderERC721A() */\n      jump\t// in\n    tag_166:\n        /* \"erc721a/contracts/ERC721A.sol\":13481:13520  _operatorApprovals[_msgSenderERC721A()] */\n      0xffffffffffffffffffffffffffffffffffffffff\n      and\n      0xffffffffffffffffffffffffffffffffffffffff\n      and\n      dup2\n      mstore\n      0x20\n      add\n      swap1\n      dup2\n      mstore\n      0x20\n      add\n      0x00\n      keccak256\n        /* \"erc721a/contracts/ERC721A.sol\":13481:13530  _operatorApprovals[_msgSenderERC721A()][operator] */\n      0x00\n        /* \"erc721a/contracts/ERC721A.sol\":13521:13529  operator */\n      dup5\n        /* \"erc721a/contracts/ERC721A.sol\":13481:13530  _operatorApprovals[_msgSenderERC721A()][operator] */\n      0xffffffffffffffffffffffffffffffffffffffff\n      and\n      0xffffffffffffffffffffffffffffffffffffffff\n      and\n      dup2\n      mstore\n      0x20\n      add\n      swap1\n      dup2\n      mstore\n      0x20\n      add\n      0x00\n      keccak256\n      0x00\n        /* \"erc721a/contracts/ERC721A.sol\":13481:13541  _operatorApprovals[_msgSenderERC721A()][operator] = approved */\n      0x0100\n      exp\n      dup2\n      sload\n      dup2\n      0xff\n      mul\n      not\n      and\n      swap1\n      dup4\n      iszero\n      iszero\n      mul\n      or\n      swap1\n      sstore\n      pop\n        /* \"erc721a/contracts/ERC721A.sol\":13592:13600  operator */\n      dup2\n        /* \"erc721a/contracts/ERC721A.sol\":13556:13611  ApprovalForAll(_msgSenderERC721A(), operator, approved) */\n      0xffffffffffffffffffffffffffffffffffffffff\n      and\n        /* \"erc721a/contracts/ERC721A.sol\":13571:13590  _msgSenderERC721A() */\n      tag_167\n        /* \"erc721a/contracts/ERC721A.sol\":13571:13588  _msgSenderERC721A */\n      tag_114\n        /* \"erc721a/contracts/ERC721A.sol\":13571:13590  _msgSenderERC721A() */\n      jump\t// in\n    tag_167:\n        /* \"erc721a/contracts/ERC721A.sol\":13556:13611  ApprovalForAll(_msgSenderERC721A(), operator, approved) */\n      0xffffffffffffffffffffffffffffffffffffffff\n      and\n      0x17307eab39ab6107e8899845ad3d59bd9653f200f220920489ca2b5937696c31\n        /* \"erc721a/contracts/ERC721A.sol\":13602:13610  approved */\n      dup4\n        /* \"erc721a/contracts/ERC721A.sol\":13556:13611  ApprovalForAll(_msgSenderERC721A(), operator, approved) */\n      mload(0x40)\n      tag_168\n      swap2\n      swap1\n      tag_26\n      jump\t// in\n    tag_168:\n      mload(0x40)\n      dup1\n      swap2\n      sub\n      swap1\n      log3\n        /* \"erc721a/contracts/ERC721A.sol\":13315:13618  function setApprovalForAll(address operator, bool approved) public virtual override {... */\n      pop\n      pop\n      jump\t// out\n        /* \"erc721a/contracts/ERC721A.sol\":14157:14545  function safeTransferFrom(... */\n    tag_85:\n        /* \"erc721a/contracts/ERC721A.sol\":14318:14349  transferFrom(from, to, tokenId) */\n      tag_170\n        /* \"erc721a/contracts/ERC721A.sol\":14331:14335  from */\n      dup5\n        /* \"erc721a/contracts/ERC721A.sol\":14337:14339  to */\n      dup5\n        /* \"erc721a/contracts/ERC721A.sol\":14341:14348  tokenId */\n      dup5\n        /* \"erc721a/contracts/ERC721A.sol\":14318:14330  transferFrom */\n      tag_53\n        /* \"erc721a/contracts/ERC721A.sol\":14318:14349  transferFrom(from, to, tokenId) */\n      jump\t// in\n    tag_170:\n        /* \"erc721a/contracts/ERC721A.sol\":14381:14382  0 */\n      0x00\n        /* \"erc721a/contracts/ERC721A.sol\":14363:14365  to */\n      dup4\n        /* \"erc721a/contracts/ERC721A.sol\":14363:14377  to.code.length */\n      0xffffffffffffffffffffffffffffffffffffffff\n      and\n      extcodesize\n        /* \"erc721a/contracts/ERC721A.sol\":14363:14382  to.code.length != 0 */\n      eq\n        /* \"erc721a/contracts/ERC721A.sol\":14359:14539  if (to.code.length != 0)... */\n      tag_171\n      jumpi\n        /* \"erc721a/contracts/ERC721A.sol\":14401:14457  _checkContractOnERC721Received(from, to, tokenId, _data) */\n      tag_172\n        /* \"erc721a/contracts/ERC721A.sol\":14432:14436  from */\n      dup5\n        /* \"erc721a/contracts/ERC721A.sol\":14438:14440  to */\n      dup5\n        /* \"erc721a/contracts/ERC721A.sol\":14442:14449  tokenId */\n      dup5\n        /* \"erc721a/contracts/ERC721A.sol\":14451:14456  _data */\n      dup5\n        /* \"erc721a/contracts/ERC721A.sol\":14401:14431  _checkContractOnERC721Received */\n      tag_173\n        /* \"erc721a/contracts/ERC721A.sol\":14401:14457  _checkContractOnERC721Received(from, to, tokenId, _data) */\n      jump\t// in\n    tag_172:\n        /* \"erc721a/contracts/ERC721A.sol\":14396:14539  if (!_checkContractOnERC721Received(from, to, tokenId, _data)) {... */\n      tag_174\n      jumpi\n        /* \"erc721a/contracts/ERC721A.sol\":14484:14524  TransferToNonERC721ReceiverImplementer() */\n      mload(0x40)\n      0xd1a57ed600000000000000000000000000000000000000000000000000000000\n      dup2\n      mstore\n      0x04\n      add\n      mload(0x40)\n      dup1\n      swap2\n      sub\n      swap1\n      revert\n        /* \"erc721a/contracts/ERC721A.sol\":14396:14539  if (!_checkContractOnERC721Received(from, to, tokenId, _data)) {... */\n    tag_174:\n        /* \"erc721a/contracts/ERC721A.sol\":14359:14539  if (to.code.length != 0)... */\n    tag_171:\n        /* \"erc721a/contracts/ERC721A.sol\":14157:14545  function safeTransferFrom(... */\n      pop\n      pop\n      pop\n      pop\n      jump\t// out\n        /* \"erc721a/contracts/ERC721A.sol\":11491:11804  function tokenURI(uint256 tokenId) public view virtual override returns (string memory) {... */\n    tag_89:\n        /* \"erc721a/contracts/ERC721A.sol\":11564:11577  string memory */\n      0x60\n        /* \"erc721a/contracts/ERC721A.sol\":11594:11610  _exists(tokenId) */\n      tag_176\n        /* \"erc721a/contracts/ERC721A.sol\":11602:11609  tokenId */\n      dup3\n        /* \"erc721a/contracts/ERC721A.sol\":11594:11601  _exists */\n      tag_109\n        /* \"erc721a/contracts/ERC721A.sol\":11594:11610  _exists(tokenId) */\n      jump\t// in\n    tag_176:\n        /* \"erc721a/contracts/ERC721A.sol\":11589:11648  if (!_exists(tokenId)) revert URIQueryForNonexistentToken() */\n      tag_177\n      jumpi\n        /* \"erc721a/contracts/ERC721A.sol\":11619:11648  URIQueryForNonexistentToken() */\n      mload(0x40)\n      0xa14c4b5000000000000000000000000000000000000000000000000000000000\n      dup2\n      mstore\n      0x04\n      add\n      mload(0x40)\n      dup1\n      swap2\n      sub\n      swap1\n      revert\n        /* \"erc721a/contracts/ERC721A.sol\":11589:11648  if (!_exists(tokenId)) revert URIQueryForNonexistentToken() */\n    tag_177:\n        /* \"erc721a/contracts/ERC721A.sol\":11659:11680  string memory baseURI */\n      0x00\n        /* \"erc721a/contracts/ERC721A.sol\":11683:11693  _baseURI() */\n      tag_178\n        /* \"erc721a/contracts/ERC721A.sol\":11683:11691  _baseURI */\n      tag_179\n        /* \"erc721a/contracts/ERC721A.sol\":11683:11693  _baseURI() */\n      jump\t// in\n    tag_178:\n        /* \"erc721a/contracts/ERC721A.sol\":11659:11693  string memory baseURI = _baseURI() */\n      swap1\n      pop\n        /* \"erc721a/contracts/ERC721A.sol\":11735:11736  0 */\n      0x00\n        /* \"erc721a/contracts/ERC721A.sol\":11716:11723  baseURI */\n      dup2\n        /* \"erc721a/contracts/ERC721A.sol\":11710:11731  bytes(baseURI).length */\n      mload\n        /* \"erc721a/contracts/ERC721A.sol\":11710:11736  bytes(baseURI).length != 0 */\n      eq\n      iszero\n        /* \"erc721a/contracts/ERC721A.sol\":11710:11797  bytes(baseURI).length != 0 ? string(abi.encodePacked(baseURI, _toString(tokenId))) : '' */\n      tag_180\n      jumpi\n      mload(0x40)\n      dup1\n      0x20\n      add\n      0x40\n      mstore\n      dup1\n      0x00\n      dup2\n      mstore\n      pop\n      jump(tag_181)\n    tag_180:\n        /* \"erc721a/contracts/ERC721A.sol\":11763:11770  baseURI */\n      dup1\n        /* \"erc721a/contracts/ERC721A.sol\":11772:11790  _toString(tokenId) */\n      tag_182\n        /* \"erc721a/contracts/ERC721A.sol\":11782:11789  tokenId */\n      dup5\n        /* \"erc721a/contracts/ERC721A.sol\":11772:11781  _toString */\n      tag_183\n        /* \"erc721a/contracts/ERC721A.sol\":11772:11790  _toString(tokenId) */\n      jump\t// in\n    tag_182:\n        /* \"erc721a/contracts/ERC721A.sol\":11746:11791  abi.encodePacked(baseURI, _toString(tokenId)) */\n      add(0x20, mload(0x40))\n      tag_184\n      swap3\n      swap2\n      swap1\n      tag_185\n      jump\t// in\n    tag_184:\n      mload(0x40)\n      0x20\n      dup2\n      dup4\n      sub\n      sub\n      dup2\n      mstore\n      swap1\n      0x40\n      mstore\n        /* \"erc721a/contracts/ERC721A.sol\":11710:11797  bytes(baseURI).length != 0 ? string(abi.encodePacked(baseURI, _toString(tokenId))) : '' */\n    tag_181:\n        /* \"erc721a/contracts/ERC721A.sol\":11703:11797  return bytes(baseURI).length != 0 ? string(abi.encodePacked(baseURI, _toString(tokenId))) : '' */\n      swap2\n      pop\n      pop\n        /* \"erc721a/contracts/ERC721A.sol\":11491:11804  function tokenURI(uint256 tokenId) public view virtual override returns (string memory) {... */\n      swap2\n      swap1\n      pop\n      jump\t// out\n        /* \"erc721a/contracts/ERC721A.sol\":13684:13846  function isApprovedForAll(address owner, address operator) public view virtual override returns (bool) {... */\n    tag_95:\n        /* \"erc721a/contracts/ERC721A.sol\":13781:13785  bool */\n      0x00\n        /* \"erc721a/contracts/ERC721A.sol\":13804:13822  _operatorApprovals */\n      0x07\n        /* \"erc721a/contracts/ERC721A.sol\":13804:13829  _operatorApprovals[owner] */\n      0x00\n        /* \"erc721a/contracts/ERC721A.sol\":13823:13828  owner */\n      dup5\n        /* \"erc721a/contracts/ERC721A.sol\":13804:13829  _operatorApprovals[owner] */\n      0xffffffffffffffffffffffffffffffffffffffff\n      and\n      0xffffffffffffffffffffffffffffffffffffffff\n      and\n      dup2\n      mstore\n      0x20\n      add\n      swap1\n      dup2\n      mstore\n      0x20\n      add\n      0x00\n      keccak256\n        /* \"erc721a/contracts/ERC721A.sol\":13804:13839  _operatorApprovals[owner][operator] */\n      0x00\n        /* \"erc721a/contracts/ERC721A.sol\":13830:13838  operator */\n      dup4\n        /* \"erc721a/contracts/ERC721A.sol\":13804:13839  _operatorApprovals[owner][operator] */\n      0xffffffffffffffffffffffffffffffffffffffff\n      and\n      0xffffffffffffffffffffffffffffffffffffffff\n      and\n      dup2\n      mstore\n      0x20\n      add\n      swap1\n      dup2\n      mstore\n      0x20\n      add\n      0x00\n      keccak256\n      0x00\n      swap1\n      sload\n      swap1\n      0x0100\n      exp\n      swap1\n      div\n      0xff\n      and\n        /* \"erc721a/contracts/ERC721A.sol\":13797:13839  return _operatorApprovals[owner][operator] */\n      swap1\n      pop\n        /* \"erc721a/contracts/ERC721A.sol\":13684:13846  function isApprovedForAll(address owner, address operator) public view virtual override returns (bool) {... */\n      swap3\n      swap2\n      pop\n      pop\n      jump\t// out\n        /* \"erc721a/contracts/ERC721A.sol\":14791:15059  function _exists(uint256 tokenId) internal view returns (bool) {... */\n    tag_109:\n        /* \"erc721a/contracts/ERC721A.sol\":14848:14852  bool */\n      0x00\n        /* \"erc721a/contracts/ERC721A.sol\":14902:14909  tokenId */\n      dup2\n        /* \"erc721a/contracts/ERC721A.sol\":14883:14898  _startTokenId() */\n      tag_188\n        /* \"erc721a/contracts/ERC721A.sol\":14883:14896  _startTokenId */\n      tag_121\n        /* \"erc721a/contracts/ERC721A.sol\":14883:14898  _startTokenId() */\n      jump\t// in\n    tag_188:\n        /* \"erc721a/contracts/ERC721A.sol\":14883:14909  _startTokenId() <= tokenId */\n      gt\n      iszero\n        /* \"erc721a/contracts/ERC721A.sol\":14883:14948  _startTokenId() <= tokenId &&... */\n      dup1\n      iszero\n      tag_189\n      jumpi\n      pop\n        /* \"erc721a/contracts/ERC721A.sol\":14935:14948  _currentIndex */\n      sload(0x00)\n        /* \"erc721a/contracts/ERC721A.sol\":14925:14932  tokenId */\n      dup3\n        /* \"erc721a/contracts/ERC721A.sol\":14925:14948  tokenId < _currentIndex */\n      lt\n        /* \"erc721a/contracts/ERC721A.sol\":14883:14948  _startTokenId() <= tokenId &&... */\n    tag_189:\n        /* \"erc721a/contracts/ERC721A.sol\":14883:15033  _startTokenId() <= tokenId &&... */\n      dup1\n      iszero\n      tag_190\n      jumpi\n      pop\n        /* \"erc721a/contracts/ERC721A.sol\":15032:15033  0 */\n      0x00\n        /* \"erc721a/contracts/ERC721A.sol\":1774:1782  1 << 224 */\n      0x0100000000000000000000000000000000000000000000000000000000\n        /* \"erc721a/contracts/ERC721A.sol\":14985:15002  _packedOwnerships */\n      0x04\n        /* \"erc721a/contracts/ERC721A.sol\":14985:15011  _packedOwnerships[tokenId] */\n      0x00\n        /* \"erc721a/contracts/ERC721A.sol\":15003:15010  tokenId */\n      dup6\n        /* \"erc721a/contracts/ERC721A.sol\":14985:15011  _packedOwnerships[tokenId] */\n      dup2\n      mstore\n      0x20\n      add\n      swap1\n      dup2\n      mstore\n      0x20\n      add\n      0x00\n      keccak256\n      sload\n        /* \"erc721a/contracts/ERC721A.sol\":14985:15028  _packedOwnerships[tokenId] & BITMASK_BURNED */\n      and\n        /* \"erc721a/contracts/ERC721A.sol\":14985:15033  _packedOwnerships[tokenId] & BITMASK_BURNED == 0 */\n      eq\n        /* \"erc721a/contracts/ERC721A.sol\":14883:15033  _startTokenId() <= tokenId &&... */\n    tag_190:\n        /* \"erc721a/contracts/ERC721A.sol\":14864:15033  return... */\n      swap1\n      pop\n        /* \"erc721a/contracts/ERC721A.sol\":14791:15059  function _exists(uint256 tokenId) internal view returns (bool) {... */\n      swap2\n      swap1\n      pop\n      jump\t// out\n        /* \"erc721a/contracts/ERC721A.sol\":32874:32977  function _msgSenderERC721A() internal view virtual returns (address) {... */\n    tag_114:\n        /* \"erc721a/contracts/ERC721A.sol\":32934:32941  address */\n      0x00\n        /* \"erc721a/contracts/ERC721A.sol\":32960:32970  msg.sender */\n      caller\n        /* \"erc721a/contracts/ERC721A.sol\":32953:32970  return msg.sender */\n      swap1\n      pop\n        /* \"erc721a/contracts/ERC721A.sol\":32874:32977  function _msgSenderERC721A() internal view virtual returns (address) {... */\n      swap1\n      jump\t// out\n        /* \"erc721a/contracts/ERC721A.sol\":4276:4366  function _startTokenId() internal view virtual returns (uint256) {... */\n    tag_121:\n        /* \"erc721a/contracts/ERC721A.sol\":4332:4339  uint256 */\n      0x00\n        /* \"erc721a/contracts/ERC721A.sol\":4276:4366  function _startTokenId() internal view virtual returns (uint256) {... */\n      swap1\n      jump\t// out\n        /* \"erc721a/contracts/ERC721A.sol\":7949:9054  function _packedOwnershipOf(uint256 tokenId) private view returns (uint256) {... */\n    tag_124:\n        /* \"erc721a/contracts/ERC721A.sol\":8016:8023  uint256 */\n      0x00\n        /* \"erc721a/contracts/ERC721A.sol\":8035:8047  uint256 curr */\n      dup1\n        /* \"erc721a/contracts/ERC721A.sol\":8050:8057  tokenId */\n      dup3\n        /* \"erc721a/contracts/ERC721A.sol\":8035:8057  uint256 curr = tokenId */\n      swap1\n      pop\n        /* \"erc721a/contracts/ERC721A.sol\":8115:8119  curr */\n      dup1\n        /* \"erc721a/contracts/ERC721A.sol\":8096:8111  _startTokenId() */\n      tag_194\n        /* \"erc721a/contracts/ERC721A.sol\":8096:8109  _startTokenId */\n      tag_121\n        /* \"erc721a/contracts/ERC721A.sol\":8096:8111  _startTokenId() */\n      jump\t// in\n    tag_194:\n        /* \"erc721a/contracts/ERC721A.sol\":8096:8119  _startTokenId() <= curr */\n      gt\n        /* \"erc721a/contracts/ERC721A.sol\":8092:8990  if (_startTokenId() <= curr)... */\n      tag_195\n      jumpi\n        /* \"erc721a/contracts/ERC721A.sol\":8148:8161  _currentIndex */\n      sload(0x00)\n        /* \"erc721a/contracts/ERC721A.sol\":8141:8145  curr */\n      dup2\n        /* \"erc721a/contracts/ERC721A.sol\":8141:8161  curr < _currentIndex */\n      lt\n        /* \"erc721a/contracts/ERC721A.sol\":8137:8990  if (curr < _currentIndex) {... */\n      iszero\n      tag_196\n      jumpi\n        /* \"erc721a/contracts/ERC721A.sol\":8185:8199  uint256 packed */\n      0x00\n        /* \"erc721a/contracts/ERC721A.sol\":8202:8219  _packedOwnerships */\n      0x04\n        /* \"erc721a/contracts/ERC721A.sol\":8202:8225  _packedOwnerships[curr] */\n      0x00\n        /* \"erc721a/contracts/ERC721A.sol\":8220:8224  curr */\n      dup4\n        /* \"erc721a/contracts/ERC721A.sol\":8202:8225  _packedOwnerships[curr] */\n      dup2\n      mstore\n      0x20\n      add\n      swap1\n      dup2\n      mstore\n      0x20\n      add\n      0x00\n      keccak256\n      sload\n        /* \"erc721a/contracts/ERC721A.sol\":8185:8225  uint256 packed = _packedOwnerships[curr] */\n      swap1\n      pop\n        /* \"erc721a/contracts/ERC721A.sol\":8316:8317  0 */\n      0x00\n        /* \"erc721a/contracts/ERC721A.sol\":1774:1782  1 << 224 */\n      0x0100000000000000000000000000000000000000000000000000000000\n        /* \"erc721a/contracts/ERC721A.sol\":8289:8295  packed */\n      dup3\n        /* \"erc721a/contracts/ERC721A.sol\":8289:8312  packed & BITMASK_BURNED */\n      and\n        /* \"erc721a/contracts/ERC721A.sol\":8289:8317  packed & BITMASK_BURNED == 0 */\n      eq\n        /* \"erc721a/contracts/ERC721A.sol\":8285:8972  if (packed & BITMASK_BURNED == 0) {... */\n      iszero\n      tag_197\n      jumpi\n        /* \"erc721a/contracts/ERC721A.sol\":8800:8911  while (packed == 0) {... */\n    tag_198:\n        /* \"erc721a/contracts/ERC721A.sol\":8817:8818  0 */\n      0x00\n        /* \"erc721a/contracts/ERC721A.sol\":8807:8813  packed */\n      dup2\n        /* \"erc721a/contracts/ERC721A.sol\":8807:8818  packed == 0 */\n      eq\n        /* \"erc721a/contracts/ERC721A.sol\":8800:8911  while (packed == 0) {... */\n      iszero\n      tag_199\n      jumpi\n        /* \"erc721a/contracts/ERC721A.sol\":8859:8876  _packedOwnerships */\n      0x04\n        /* \"erc721a/contracts/ERC721A.sol\":8859:8884  _packedOwnerships[--curr] */\n      0x00\n        /* \"erc721a/contracts/ERC721A.sol\":8877:8883  --curr */\n      dup4\n      0x01\n      swap1\n      sub\n      swap4\n      pop\n      dup4\n        /* \"erc721a/contracts/ERC721A.sol\":8859:8884  _packedOwnerships[--curr] */\n      dup2\n      mstore\n      0x20\n      add\n      swap1\n      dup2\n      mstore\n      0x20\n      add\n      0x00\n      keccak256\n      sload\n        /* \"erc721a/contracts/ERC721A.sol\":8850:8884  packed = _packedOwnerships[--curr] */\n      swap1\n      pop\n        /* \"erc721a/contracts/ERC721A.sol\":8800:8911  while (packed == 0) {... */\n      jump(tag_198)\n    tag_199:\n        /* \"erc721a/contracts/ERC721A.sol\":8943:8949  packed */\n      dup1\n        /* \"erc721a/contracts/ERC721A.sol\":8936:8949  return packed */\n      swap3\n      pop\n      pop\n      pop\n      jump(tag_193)\n        /* \"erc721a/contracts/ERC721A.sol\":8285:8972  if (packed & BITMASK_BURNED == 0) {... */\n    tag_197:\n        /* \"erc721a/contracts/ERC721A.sol\":8163:8990  {... */\n      pop\n        /* \"erc721a/contracts/ERC721A.sol\":8137:8990  if (curr < _currentIndex) {... */\n    tag_196:\n        /* \"erc721a/contracts/ERC721A.sol\":8092:8990  if (_startTokenId() <= curr)... */\n    tag_195:\n        /* \"erc721a/contracts/ERC721A.sol\":9016:9047  OwnerQueryForNonexistentToken() */\n      mload(0x40)\n      0xdf2d9b4200000000000000000000000000000000000000000000000000000000\n      dup2\n      mstore\n      0x04\n      add\n      mload(0x40)\n      dup1\n      swap2\n      sub\n      swap1\n      revert\n        /* \"erc721a/contracts/ERC721A.sol\":7949:9054  function _packedOwnershipOf(uint256 tokenId) private view returns (uint256) {... */\n    tag_193:\n      swap2\n      swap1\n      pop\n      jump\t// out\n        /* \"erc721a/contracts/ERC721A.sol\":20436:21073  function _getApprovedAddress(uint256 tokenId)... */\n    tag_127:\n        /* \"erc721a/contracts/ERC721A.sol\":20528:20555  uint256 approvedAddressSlot */\n      0x00\n        /* \"erc721a/contracts/ERC721A.sol\":20557:20580  address approvedAddress */\n      dup1\n        /* \"erc721a/contracts/ERC721A.sol\":20596:20649  mapping(uint256 => address) storage tokenApprovalsPtr */\n      0x00\n        /* \"erc721a/contracts/ERC721A.sol\":20652:20667  _tokenApprovals */\n      0x06\n        /* \"erc721a/contracts/ERC721A.sol\":20596:20667  mapping(uint256 => address) storage tokenApprovalsPtr = _tokenApprovals */\n      swap1\n      pop\n        /* \"erc721a/contracts/ERC721A.sol\":20834:20841  tokenId */\n      dup4\n        /* \"erc721a/contracts/ERC721A.sol\":20828:20832  0x00 */\n      0x00\n        /* \"erc721a/contracts/ERC721A.sol\":20821:20842  mstore(0x00, tokenId) */\n      mstore\n        /* \"erc721a/contracts/ERC721A.sol\":20868:20890  tokenApprovalsPtr.slot */\n      dup1\n        /* \"erc721a/contracts/ERC721A.sol\":20862:20866  0x20 */\n      0x20\n        /* \"erc721a/contracts/ERC721A.sol\":20855:20891  mstore(0x20, tokenApprovalsPtr.slot) */\n      mstore\n        /* \"erc721a/contracts/ERC721A.sol\":20943:20947  0x40 */\n      0x40\n        /* \"erc721a/contracts/ERC721A.sol\":20937:20941  0x00 */\n      0x00\n        /* \"erc721a/contracts/ERC721A.sol\":20927:20948  keccak256(0x00, 0x40) */\n      keccak256\n        /* \"erc721a/contracts/ERC721A.sol\":20904:20948  approvedAddressSlot := keccak256(0x00, 0x40) */\n      swap3\n      pop\n        /* \"erc721a/contracts/ERC721A.sol\":21037:21056  approvedAddressSlot */\n      dup3\n        /* \"erc721a/contracts/ERC721A.sol\":21031:21057  sload(approvedAddressSlot) */\n      sload\n        /* \"erc721a/contracts/ERC721A.sol\":21012:21057  approvedAddress := sload(approvedAddressSlot) */\n      swap2\n      pop\n        /* \"erc721a/contracts/ERC721A.sol\":20774:21067  {... */\n      pop\n        /* \"erc721a/contracts/ERC721A.sol\":20436:21073  function _getApprovedAddress(uint256 tokenId)... */\n      swap2\n      pop\n      swap2\n      jump\t// out\n        /* \"erc721a/contracts/ERC721A.sol\":21181:21813  function _isOwnerOrApproved(... */\n    tag_130:\n        /* \"erc721a/contracts/ERC721A.sol\":21319:21330  bool result */\n      0x00\n        /* \"erc721a/contracts/ERC721A.sol\":21478:21493  BITMASK_ADDRESS */\n      0xffffffffffffffffffffffffffffffffffffffff\n        /* \"erc721a/contracts/ERC721A.sol\":21472:21476  from */\n      dup4\n        /* \"erc721a/contracts/ERC721A.sol\":21468:21494  and(from, BITMASK_ADDRESS) */\n      and\n        /* \"erc721a/contracts/ERC721A.sol\":21460:21494  from := and(from, BITMASK_ADDRESS) */\n      swap3\n      pop\n        /* \"erc721a/contracts/ERC721A.sol\":21635:21650  BITMASK_ADDRESS */\n      0xffffffffffffffffffffffffffffffffffffffff\n        /* \"erc721a/contracts/ERC721A.sol\":21624:21633  msgSender */\n      dup3\n        /* \"erc721a/contracts/ERC721A.sol\":21620:21651  and(msgSender, BITMASK_ADDRESS) */\n      and\n        /* \"erc721a/contracts/ERC721A.sol\":21607:21651  msgSender := and(msgSender, BITMASK_ADDRESS) */\n      swap2\n      pop\n        /* \"erc721a/contracts/ERC721A.sol\":21780:21795  approvedAddress */\n      dup4\n        /* \"erc721a/contracts/ERC721A.sol\":21769:21778  msgSender */\n      dup3\n        /* \"erc721a/contracts/ERC721A.sol\":21766:21796  eq(msgSender, approvedAddress) */\n      eq\n        /* \"erc721a/contracts/ERC721A.sol\":21759:21763  from */\n      dup4\n        /* \"erc721a/contracts/ERC721A.sol\":21748:21757  msgSender */\n      dup4\n        /* \"erc721a/contracts/ERC721A.sol\":21745:21764  eq(msgSender, from) */\n      eq\n        /* \"erc721a/contracts/ERC721A.sol\":21742:21797  or(eq(msgSender, from), eq(msgSender, approvedAddress)) */\n      or\n        /* \"erc721a/contracts/ERC721A.sol\":21732:21797  result := or(eq(msgSender, from), eq(msgSender, approvedAddress)) */\n      swap1\n      pop\n        /* \"erc721a/contracts/ERC721A.sol\":21181:21813  function _isOwnerOrApproved(... */\n      swap4\n      swap3\n      pop\n      pop\n      pop\n      jump\t// out\n        /* \"erc721a/contracts/ERC721A.sol\":31742:31896  function _beforeTokenTransfers(... */\n    tag_137:\n      pop\n      pop\n      pop\n      pop\n      jump\t// out\n        /* \"erc721a/contracts/ERC721A.sol\":30099:30401  function _nextExtraData(... */\n    tag_141:\n        /* \"erc721a/contracts/ERC721A.sol\":30230:30237  uint256 */\n      0x00\n        /* \"erc721a/contracts/ERC721A.sol\":30249:30265  uint24 extraData */\n      dup1\n        /* \"erc721a/contracts/ERC721A.sol\":2166:2169  232 */\n      0xe8\n        /* \"erc721a/contracts/ERC721A.sol\":30275:30294  prevOwnershipPacked */\n      dup4\n        /* \"erc721a/contracts/ERC721A.sol\":30275:30315  prevOwnershipPacked >> BITPOS_EXTRA_DATA */\n      swap1\n      shr\n        /* \"erc721a/contracts/ERC721A.sol\":30249:30316  uint24 extraData = uint24(prevOwnershipPacked >> BITPOS_EXTRA_DATA) */\n      swap1\n      pop\n        /* \"erc721a/contracts/ERC721A.sol\":2166:2169  232 */\n      0xe8\n        /* \"erc721a/contracts/ERC721A.sol\":30341:30372  _extraData(from, to, extraData) */\n      tag_204\n        /* \"erc721a/contracts/ERC721A.sol\":30352:30356  from */\n      dup7\n        /* \"erc721a/contracts/ERC721A.sol\":30358:30360  to */\n      dup7\n        /* \"erc721a/contracts/ERC721A.sol\":30362:30371  extraData */\n      dup5\n        /* \"erc721a/contracts/ERC721A.sol\":30341:30351  _extraData */\n      tag_205\n        /* \"erc721a/contracts/ERC721A.sol\":30341:30372  _extraData(from, to, extraData) */\n      jump\t// in\n    tag_204:\n        /* \"erc721a/contracts/ERC721A.sol\":30333:30373  uint256(_extraData(from, to, extraData)) */\n      0xffffff\n      and\n        /* \"erc721a/contracts/ERC721A.sol\":30333:30394  uint256(_extraData(from, to, extraData)) << BITPOS_EXTRA_DATA */\n      swap1\n      shl\n        /* \"erc721a/contracts/ERC721A.sol\":30326:30394  return uint256(_extraData(from, to, extraData)) << BITPOS_EXTRA_DATA */\n      swap2\n      pop\n      pop\n        /* \"erc721a/contracts/ERC721A.sol\":30099:30401  function _nextExtraData(... */\n      swap4\n      swap3\n      pop\n      pop\n      pop\n      jump\t// out\n        /* \"erc721a/contracts/ERC721A.sol\":10460:10900  function _packOwnershipData(address owner, uint256 flags) private view returns (uint256 result) {... */\n    tag_142:\n        /* \"erc721a/contracts/ERC721A.sol\":10540:10554  uint256 result */\n      0x00\n        /* \"erc721a/contracts/ERC721A.sol\":10705:10720  BITMASK_ADDRESS */\n      0xffffffffffffffffffffffffffffffffffffffff\n        /* \"erc721a/contracts/ERC721A.sol\":10698:10703  owner */\n      dup4\n        /* \"erc721a/contracts/ERC721A.sol\":10694:10721  and(owner, BITMASK_ADDRESS) */\n      and\n        /* \"erc721a/contracts/ERC721A.sol\":10685:10721  owner := and(owner, BITMASK_ADDRESS) */\n      swap3\n      pop\n        /* \"erc721a/contracts/ERC721A.sol\":10877:10882  flags */\n      dup2\n        /* \"erc721a/contracts/ERC721A.sol\":10863:10874  timestamp() */\n      timestamp\n        /* \"erc721a/contracts/ERC721A.sol\":10839:10861  BITPOS_START_TIMESTAMP */\n      0xa0\n        /* \"erc721a/contracts/ERC721A.sol\":10835:10875  shl(BITPOS_START_TIMESTAMP, timestamp()) */\n      shl\n        /* \"erc721a/contracts/ERC721A.sol\":10832:10883  or(shl(BITPOS_START_TIMESTAMP, timestamp()), flags) */\n      or\n        /* \"erc721a/contracts/ERC721A.sol\":10825:10830  owner */\n      dup4\n        /* \"erc721a/contracts/ERC721A.sol\":10822:10884  or(owner, or(shl(BITPOS_START_TIMESTAMP, timestamp()), flags)) */\n      or\n        /* \"erc721a/contracts/ERC721A.sol\":10812:10884  result := or(owner, or(shl(BITPOS_START_TIMESTAMP, timestamp()), flags)) */\n      swap1\n      pop\n        /* \"erc721a/contracts/ERC721A.sol\":10460:10900  function _packOwnershipData(address owner, uint256 flags) private view returns (uint256 result) {... */\n      swap3\n      swap2\n      pop\n      pop\n      jump\t// out\n        /* \"erc721a/contracts/ERC721A.sol\":32537:32690  function _afterTokenTransfers(... */\n    tag_147:\n      pop\n      pop\n      pop\n      pop\n      jump\t// out\n        /* \"erc721a/contracts/ERC721A.sol\":15138:15240  function _safeMint(address to, uint256 quantity) internal {... */\n    tag_162:\n        /* \"erc721a/contracts/ERC721A.sol\":15206:15233  _safeMint(to, quantity, '') */\n      tag_209\n        /* \"erc721a/contracts/ERC721A.sol\":15216:15218  to */\n      dup3\n        /* \"erc721a/contracts/ERC721A.sol\":15220:15228  quantity */\n      dup3\n        /* \"erc721a/contracts/ERC721A.sol\":15206:15233  _safeMint(to, quantity, '') */\n      mload(0x40)\n      dup1\n      0x20\n      add\n      0x40\n      mstore\n      dup1\n      0x00\n      dup2\n      mstore\n      pop\n        /* \"erc721a/contracts/ERC721A.sol\":15206:15215  _safeMint */\n      tag_210\n        /* \"erc721a/contracts/ERC721A.sol\":15206:15233  _safeMint(to, quantity, '') */\n      jump\t// in\n    tag_209:\n        /* \"erc721a/contracts/ERC721A.sol\":15138:15240  function _safeMint(address to, uint256 quantity) internal {... */\n      pop\n      pop\n      jump\t// out\n        /* \"erc721a/contracts/ERC721A.sol\":28649:29346  function _checkContractOnERC721Received(... */\n    tag_173:\n        /* \"erc721a/contracts/ERC721A.sol\":28807:28811  bool */\n      0x00\n        /* \"erc721a/contracts/ERC721A.sol\":28852:28854  to */\n      dup4\n        /* \"erc721a/contracts/ERC721A.sol\":28827:28872  ERC721A__IERC721Receiver(to).onERC721Received */\n      0xffffffffffffffffffffffffffffffffffffffff\n      and\n      0x150b7a02\n        /* \"erc721a/contracts/ERC721A.sol\":28873:28892  _msgSenderERC721A() */\n      tag_212\n        /* \"erc721a/contracts/ERC721A.sol\":28873:28890  _msgSenderERC721A */\n      tag_114\n        /* \"erc721a/contracts/ERC721A.sol\":28873:28892  _msgSenderERC721A() */\n      jump\t// in\n    tag_212:\n        /* \"erc721a/contracts/ERC721A.sol\":28894:28898  from */\n      dup8\n        /* \"erc721a/contracts/ERC721A.sol\":28900:28907  tokenId */\n      dup7\n        /* \"erc721a/contracts/ERC721A.sol\":28909:28914  _data */\n      dup7\n        /* \"erc721a/contracts/ERC721A.sol\":28827:28915  ERC721A__IERC721Receiver(to).onERC721Received(_msgSenderERC721A(), from, tokenId, _data) */\n      mload(0x40)\n      dup6\n      0xffffffff\n      and\n      0xe0\n      shl\n      dup2\n      mstore\n      0x04\n      add\n      tag_213\n      swap5\n      swap4\n      swap3\n      swap2\n      swap1\n      tag_214\n      jump\t// in\n    tag_213:\n      0x20\n      mload(0x40)\n      dup1\n      dup4\n      sub\n      dup2\n      0x00\n      dup8\n      dup1\n      extcodesize\n      iszero\n      dup1\n      iszero\n      tag_215\n      jumpi\n      0x00\n      dup1\n      revert\n    tag_215:\n      pop\n      gas\n      call\n      swap3\n      pop\n      pop\n      pop\n      dup1\n      iszero\n      tag_216\n      jumpi\n      pop\n      mload(0x40)\n      returndatasize\n      not(0x1f)\n      0x1f\n      dup3\n      add\n      and\n      dup3\n      add\n      dup1\n      0x40\n      mstore\n      pop\n      dup2\n      add\n      swap1\n      tag_217\n      swap2\n      swap1\n      tag_218\n      jump\t// in\n    tag_217:\n      0x01\n    tag_216:\n        /* \"erc721a/contracts/ERC721A.sol\":28823:29340  try ERC721A__IERC721Receiver(to).onERC721Received(_msgSenderERC721A(), from, tokenId, _data) returns (... */\n      tag_219\n      jumpi\n      returndatasize\n      dup1\n      0x00\n      dup2\n      eq\n      tag_224\n      jumpi\n      mload(0x40)\n      swap2\n      pop\n      and(add(returndatasize, 0x3f), not(0x1f))\n      dup3\n      add\n      0x40\n      mstore\n      returndatasize\n      dup3\n      mstore\n      returndatasize\n      0x00\n      0x20\n      dup5\n      add\n      returndatacopy\n      jump(tag_223)\n    tag_224:\n      0x60\n      swap2\n      pop\n    tag_223:\n      pop\n        /* \"erc721a/contracts/ERC721A.sol\":29122:29123  0 */\n      0x00\n        /* \"erc721a/contracts/ERC721A.sol\":29105:29111  reason */\n      dup2\n        /* \"erc721a/contracts/ERC721A.sol\":29105:29118  reason.length */\n      mload\n        /* \"erc721a/contracts/ERC721A.sol\":29105:29123  reason.length == 0 */\n      eq\n        /* \"erc721a/contracts/ERC721A.sol\":29101:29330  if (reason.length == 0) {... */\n      iszero\n      tag_225\n      jumpi\n        /* \"erc721a/contracts/ERC721A.sol\":29150:29190  TransferToNonERC721ReceiverImplementer() */\n      mload(0x40)\n      0xd1a57ed600000000000000000000000000000000000000000000000000000000\n      dup2\n      mstore\n      0x04\n      add\n      mload(0x40)\n      dup1\n      swap2\n      sub\n      swap1\n      revert\n        /* \"erc721a/contracts/ERC721A.sol\":29101:29330  if (reason.length == 0) {... */\n    tag_225:\n        /* \"erc721a/contracts/ERC721A.sol\":29290:29296  reason */\n      dup1\n        /* \"erc721a/contracts/ERC721A.sol\":29284:29297  mload(reason) */\n      mload\n        /* \"erc721a/contracts/ERC721A.sol\":29275:29281  reason */\n      dup2\n        /* \"erc721a/contracts/ERC721A.sol\":29271:29273  32 */\n      0x20\n        /* \"erc721a/contracts/ERC721A.sol\":29267:29282  add(32, reason) */\n      add\n        /* \"erc721a/contracts/ERC721A.sol\":29260:29298  revert(add(32, reason), mload(reason)) */\n      revert\n        /* \"erc721a/contracts/ERC721A.sol\":28823:29340  try ERC721A__IERC721Receiver(to).onERC721Received(_msgSenderERC721A(), from, tokenId, _data) returns (... */\n    tag_219:\n        /* \"erc721a/contracts/ERC721A.sol\":28993:29047  ERC721A__IERC721Receiver(to).onERC721Received.selector */\n      shl(0xe0, 0x150b7a02)\n        /* \"erc721a/contracts/ERC721A.sol\":28983:29047  retval == ERC721A__IERC721Receiver(to).onERC721Received.selector */\n      not(0xffffffffffffffffffffffffffffffffffffffffffffffffffffffff)\n      and\n        /* \"erc721a/contracts/ERC721A.sol\":28983:28989  retval */\n      dup2\n        /* \"erc721a/contracts/ERC721A.sol\":28983:29047  retval == ERC721A__IERC721Receiver(to).onERC721Received.selector */\n      not(0xffffffffffffffffffffffffffffffffffffffffffffffffffffffff)\n      and\n      eq\n        /* \"erc721a/contracts/ERC721A.sol\":28976:29047  return retval == ERC721A__IERC721Receiver(to).onERC721Received.selector */\n      swap2\n      pop\n      pop\n        /* \"erc721a/contracts/ERC721A.sol\":28649:29346  function _checkContractOnERC721Received(... */\n      swap5\n      swap4\n      pop\n      pop\n      pop\n      pop\n      jump\t// out\n        /* \"erc721a/contracts/ERC721A.sol\":12049:12141  function _baseURI() internal view virtual returns (string memory) {... */\n    tag_179:\n        /* \"erc721a/contracts/ERC721A.sol\":12100:12113  string memory */\n      0x60\n        /* \"erc721a/contracts/ERC721A.sol\":12125:12134  return '' */\n      mload(0x40)\n      dup1\n      0x20\n      add\n      0x40\n      mstore\n      dup1\n      0x00\n      dup2\n      mstore\n      pop\n      swap1\n      pop\n        /* \"erc721a/contracts/ERC721A.sol\":12049:12141  function _baseURI() internal view virtual returns (string memory) {... */\n      swap1\n      jump\t// out\n        /* \"erc721a/contracts/ERC721A.sol\":33078:34998  function _toString(uint256 value) internal pure returns (string memory ptr) {... */\n    tag_183:\n        /* \"erc721a/contracts/ERC721A.sol\":33135:33152  string memory ptr */\n      0x60\n        /* \"erc721a/contracts/ERC721A.sol\":33548:33551  128 */\n      0x80\n        /* \"erc721a/contracts/ERC721A.sol\":33541:33545  0x40 */\n      0x40\n        /* \"erc721a/contracts/ERC721A.sol\":33535:33546  mload(0x40) */\n      mload\n        /* \"erc721a/contracts/ERC721A.sol\":33531:33552  add(mload(0x40), 128) */\n      add\n        /* \"erc721a/contracts/ERC721A.sol\":33524:33552  ptr := add(mload(0x40), 128) */\n      swap1\n      pop\n        /* \"erc721a/contracts/ERC721A.sol\":33637:33640  ptr */\n      dup1\n        /* \"erc721a/contracts/ERC721A.sol\":33631:33635  0x40 */\n      0x40\n        /* \"erc721a/contracts/ERC721A.sol\":33624:33641  mstore(0x40, ptr) */\n      mstore\n        /* \"erc721a/contracts/ERC721A.sol\":33740:33743  ptr */\n      dup1\n        /* \"erc721a/contracts/ERC721A.sol\":34188:34193  value */\n      dup3\n        /* \"erc721a/contracts/ERC721A.sol\":34316:34317  1 */\n      0x01\n        /* \"erc721a/contracts/ERC721A.sol\":34311:34314  ptr */\n      dup4\n        /* \"erc721a/contracts/ERC721A.sol\":34307:34318  sub(ptr, 1) */\n      sub\n        /* \"erc721a/contracts/ERC721A.sol\":34300:34318  ptr := sub(ptr, 1) */\n      swap3\n      pop\n        /* \"erc721a/contracts/ERC721A.sol\":34451:34453  10 */\n      0x0a\n        /* \"erc721a/contracts/ERC721A.sol\":34445:34449  temp */\n      dup2\n        /* \"erc721a/contracts/ERC721A.sol\":34441:34454  mod(temp, 10) */\n      mod\n        /* \"erc721a/contracts/ERC721A.sol\":34437:34439  48 */\n      0x30\n        /* \"erc721a/contracts/ERC721A.sol\":34433:34455  add(48, mod(temp, 10)) */\n      add\n        /* \"erc721a/contracts/ERC721A.sol\":34428:34431  ptr */\n      dup4\n        /* \"erc721a/contracts/ERC721A.sol\":34420:34456  mstore8(ptr, add(48, mod(temp, 10))) */\n      mstore8\n        /* \"erc721a/contracts/ERC721A.sol\":34491:34493  10 */\n      0x0a\n        /* \"erc721a/contracts/ERC721A.sol\":34485:34489  temp */\n      dup2\n        /* \"erc721a/contracts/ERC721A.sol\":34481:34494  div(temp, 10) */\n      div\n        /* \"erc721a/contracts/ERC721A.sol\":34473:34494  temp := div(temp, 10) */\n      swap1\n      pop\n        /* \"erc721a/contracts/ERC721A.sol\":34082:34764  for {... */\n    tag_230:\n        /* \"erc721a/contracts/ERC721A.sol\":34509:34513  temp */\n      dup1\n        /* \"erc721a/contracts/ERC721A.sol\":34082:34764  for {... */\n      iszero\n      tag_232\n      jumpi\n        /* \"erc721a/contracts/ERC721A.sol\":34695:34696  1 */\n      0x01\n        /* \"erc721a/contracts/ERC721A.sol\":34690:34693  ptr */\n      dup4\n        /* \"erc721a/contracts/ERC721A.sol\":34686:34697  sub(ptr, 1) */\n      sub\n        /* \"erc721a/contracts/ERC721A.sol\":34679:34697  ptr := sub(ptr, 1) */\n      swap3\n      pop\n        /* \"erc721a/contracts/ERC721A.sol\":34745:34747  10 */\n      0x0a\n        /* \"erc721a/contracts/ERC721A.sol\":34739:34743  temp */\n      dup2\n        /* \"erc721a/contracts/ERC721A.sol\":34735:34748  mod(temp, 10) */\n      mod\n        /* \"erc721a/contracts/ERC721A.sol\":34731:34733  48 */\n      0x30\n        /* \"erc721a/contracts/ERC721A.sol\":34727:34749  add(48, mod(temp, 10)) */\n      add\n        /* \"erc721a/contracts/ERC721A.sol\":34722:34725  ptr */\n      dup4\n        /* \"erc721a/contracts/ERC721A.sol\":34714:34750  mstore8(ptr, add(48, mod(temp, 10))) */\n      mstore8\n        /* \"erc721a/contracts/ERC721A.sol\":34602:34604  10 */\n      0x0a\n        /* \"erc721a/contracts/ERC721A.sol\":34596:34600  temp */\n      dup2\n        /* \"erc721a/contracts/ERC721A.sol\":34592:34605  div(temp, 10) */\n      div\n        /* \"erc721a/contracts/ERC721A.sol\":34584:34605  temp := div(temp, 10) */\n      swap1\n      pop\n        /* \"erc721a/contracts/ERC721A.sol\":34082:34764  for {... */\n      jump(tag_230)\n    tag_232:\n        /* \"erc721a/contracts/ERC721A.sol\":34086:34508  {... */\n      pop\n        /* \"erc721a/contracts/ERC721A.sol\":34801:34804  ptr */\n      dup2\n        /* \"erc721a/contracts/ERC721A.sol\":34796:34799  end */\n      dup2\n        /* \"erc721a/contracts/ERC721A.sol\":34792:34805  sub(end, ptr) */\n      sub\n        /* \"erc721a/contracts/ERC721A.sol\":34914:34916  32 */\n      0x20\n        /* \"erc721a/contracts/ERC721A.sol\":34909:34912  ptr */\n      dup4\n        /* \"erc721a/contracts/ERC721A.sol\":34905:34917  sub(ptr, 32) */\n      sub\n        /* \"erc721a/contracts/ERC721A.sol\":34898:34917  ptr := sub(ptr, 32) */\n      swap3\n      pop\n        /* \"erc721a/contracts/ERC721A.sol\":34975:34981  length */\n      dup1\n        /* \"erc721a/contracts/ERC721A.sol\":34970:34973  ptr */\n      dup4\n        /* \"erc721a/contracts/ERC721A.sol\":34963:34982  mstore(ptr, length) */\n      mstore\n        /* \"erc721a/contracts/ERC721A.sol\":33173:34992  {... */\n      pop\n      pop\n        /* \"erc721a/contracts/ERC721A.sol\":33078:34998  function _toString(uint256 value) internal pure returns (string memory ptr) {... */\n      swap2\n      swap1\n      pop\n      jump\t// out\n        /* \"erc721a/contracts/ERC721A.sol\":30961:31104  function _extraData(... */\n    tag_205:\n        /* \"erc721a/contracts/ERC721A.sol\":31094:31100  uint24 */\n      0x00\n        /* \"erc721a/contracts/ERC721A.sol\":30961:31104  function _extraData(... */\n      swap4\n      swap3\n      pop\n      pop\n      pop\n      jump\t// out\n        /* \"erc721a/contracts/ERC721A.sol\":15641:16302  function _safeMint(... */\n    tag_210:\n        /* \"erc721a/contracts/ERC721A.sol\":15759:15778  _mint(to, quantity) */\n      tag_235\n        /* \"erc721a/contracts/ERC721A.sol\":15765:15767  to */\n      dup4\n        /* \"erc721a/contracts/ERC721A.sol\":15769:15777  quantity */\n      dup4\n        /* \"erc721a/contracts/ERC721A.sol\":15759:15764  _mint */\n      tag_236\n        /* \"erc721a/contracts/ERC721A.sol\":15759:15778  _mint(to, quantity) */\n      jump\t// in\n    tag_235:\n        /* \"erc721a/contracts/ERC721A.sol\":15835:15836  0 */\n      0x00\n        /* \"erc721a/contracts/ERC721A.sol\":15817:15819  to */\n      dup4\n        /* \"erc721a/contracts/ERC721A.sol\":15817:15831  to.code.length */\n      0xffffffffffffffffffffffffffffffffffffffff\n      and\n      extcodesize\n        /* \"erc721a/contracts/ERC721A.sol\":15817:15836  to.code.length != 0 */\n      eq\n        /* \"erc721a/contracts/ERC721A.sol\":15813:16286  if (to.code.length != 0) {... */\n      tag_237\n      jumpi\n        /* \"erc721a/contracts/ERC721A.sol\":15856:15867  uint256 end */\n      0x00\n        /* \"erc721a/contracts/ERC721A.sol\":15870:15883  _currentIndex */\n      dup1\n      sload\n        /* \"erc721a/contracts/ERC721A.sol\":15856:15883  uint256 end = _currentIndex */\n      swap1\n      pop\n        /* \"erc721a/contracts/ERC721A.sol\":15901:15914  uint256 index */\n      0x00\n        /* \"erc721a/contracts/ERC721A.sol\":15923:15931  quantity */\n      dup4\n        /* \"erc721a/contracts/ERC721A.sol\":15917:15920  end */\n      dup3\n        /* \"erc721a/contracts/ERC721A.sol\":15917:15931  end - quantity */\n      sub\n        /* \"erc721a/contracts/ERC721A.sol\":15901:15931  uint256 index = end - quantity */\n      swap1\n      pop\n        /* \"erc721a/contracts/ERC721A.sol\":15949:16178  do {... */\n    tag_238:\n        /* \"erc721a/contracts/ERC721A.sol\":15979:16041  _checkContractOnERC721Received(address(0), to, index++, _data) */\n      tag_241\n        /* \"erc721a/contracts/ERC721A.sol\":16018:16019  0 */\n      0x00\n        /* \"erc721a/contracts/ERC721A.sol\":16022:16024  to */\n      dup7\n        /* \"erc721a/contracts/ERC721A.sol\":16026:16033  index++ */\n      dup4\n      dup1\n      0x01\n      add\n      swap5\n      pop\n        /* \"erc721a/contracts/ERC721A.sol\":16035:16040  _data */\n      dup7\n        /* \"erc721a/contracts/ERC721A.sol\":15979:16009  _checkContractOnERC721Received */\n      tag_173\n        /* \"erc721a/contracts/ERC721A.sol\":15979:16041  _checkContractOnERC721Received(address(0), to, index++, _data) */\n      jump\t// in\n    tag_241:\n        /* \"erc721a/contracts/ERC721A.sol\":15974:16139  if (!_checkContractOnERC721Received(address(0), to, index++, _data)) {... */\n      tag_242\n      jumpi\n        /* \"erc721a/contracts/ERC721A.sol\":16076:16116  TransferToNonERC721ReceiverImplementer() */\n      mload(0x40)\n      0xd1a57ed600000000000000000000000000000000000000000000000000000000\n      dup2\n      mstore\n      0x04\n      add\n      mload(0x40)\n      dup1\n      swap2\n      sub\n      swap1\n      revert\n        /* \"erc721a/contracts/ERC721A.sol\":15974:16139  if (!_checkContractOnERC721Received(address(0), to, index++, _data)) {... */\n    tag_242:\n        /* \"erc721a/contracts/ERC721A.sol\":16173:16176  end */\n      dup2\n        /* \"erc721a/contracts/ERC721A.sol\":16165:16170  index */\n      dup2\n        /* \"erc721a/contracts/ERC721A.sol\":16165:16176  index < end */\n      lt\n        /* \"erc721a/contracts/ERC721A.sol\":15949:16178  do {... */\n      tag_238\n      jumpi\n        /* \"erc721a/contracts/ERC721A.sol\":16258:16261  end */\n      dup2\n        /* \"erc721a/contracts/ERC721A.sol\":16241:16254  _currentIndex */\n      sload(0x00)\n        /* \"erc721a/contracts/ERC721A.sol\":16241:16261  _currentIndex != end */\n      eq\n        /* \"erc721a/contracts/ERC721A.sol\":16237:16271  if (_currentIndex != end) revert() */\n      tag_243\n      jumpi\n        /* \"erc721a/contracts/ERC721A.sol\":16263:16271  revert() */\n      0x00\n      dup1\n      revert\n        /* \"erc721a/contracts/ERC721A.sol\":16237:16271  if (_currentIndex != end) revert() */\n    tag_243:\n        /* \"erc721a/contracts/ERC721A.sol\":15838:16286  {... */\n      pop\n      pop\n        /* \"erc721a/contracts/ERC721A.sol\":15813:16286  if (to.code.length != 0) {... */\n    tag_237:\n        /* \"erc721a/contracts/ERC721A.sol\":15641:16302  function _safeMint(... */\n      pop\n      pop\n      pop\n      jump\t// out\n        /* \"erc721a/contracts/ERC721A.sol\":16563:18055  function _mint(address to, uint256 quantity) internal {... */\n    tag_236:\n        /* \"erc721a/contracts/ERC721A.sol\":16627:16647  uint256 startTokenId */\n      0x00\n        /* \"erc721a/contracts/ERC721A.sol\":16650:16663  _currentIndex */\n      dup1\n      sload\n        /* \"erc721a/contracts/ERC721A.sol\":16627:16663  uint256 startTokenId = _currentIndex */\n      swap1\n      pop\n        /* \"erc721a/contracts/ERC721A.sol\":16691:16692  0 */\n      0x00\n        /* \"erc721a/contracts/ERC721A.sol\":16677:16693  to == address(0) */\n      0xffffffffffffffffffffffffffffffffffffffff\n      and\n        /* \"erc721a/contracts/ERC721A.sol\":16677:16679  to */\n      dup4\n        /* \"erc721a/contracts/ERC721A.sol\":16677:16693  to == address(0) */\n      0xffffffffffffffffffffffffffffffffffffffff\n      and\n      eq\n        /* \"erc721a/contracts/ERC721A.sol\":16673:16721  if (to == address(0)) revert MintToZeroAddress() */\n      iszero\n      tag_245\n      jumpi\n        /* \"erc721a/contracts/ERC721A.sol\":16702:16721  MintToZeroAddress() */\n      mload(0x40)\n      0x2e07630000000000000000000000000000000000000000000000000000000000\n      dup2\n      mstore\n      0x04\n      add\n      mload(0x40)\n      dup1\n      swap2\n      sub\n      swap1\n      revert\n        /* \"erc721a/contracts/ERC721A.sol\":16673:16721  if (to == address(0)) revert MintToZeroAddress() */\n    tag_245:\n        /* \"erc721a/contracts/ERC721A.sol\":16747:16748  0 */\n      0x00\n        /* \"erc721a/contracts/ERC721A.sol\":16735:16743  quantity */\n      dup3\n        /* \"erc721a/contracts/ERC721A.sol\":16735:16748  quantity == 0 */\n      eq\n        /* \"erc721a/contracts/ERC721A.sol\":16731:16775  if (quantity == 0) revert MintZeroQuantity() */\n      iszero\n      tag_246\n      jumpi\n        /* \"erc721a/contracts/ERC721A.sol\":16757:16775  MintZeroQuantity() */\n      mload(0x40)\n      0xb562e8dd00000000000000000000000000000000000000000000000000000000\n      dup2\n      mstore\n      0x04\n      add\n      mload(0x40)\n      dup1\n      swap2\n      sub\n      swap1\n      revert\n        /* \"erc721a/contracts/ERC721A.sol\":16731:16775  if (quantity == 0) revert MintZeroQuantity() */\n    tag_246:\n        /* \"erc721a/contracts/ERC721A.sol\":16786:16847  _beforeTokenTransfers(address(0), to, startTokenId, quantity) */\n      tag_247\n        /* \"erc721a/contracts/ERC721A.sol\":16816:16817  0 */\n      0x00\n        /* \"erc721a/contracts/ERC721A.sol\":16820:16822  to */\n      dup5\n        /* \"erc721a/contracts/ERC721A.sol\":16824:16836  startTokenId */\n      dup4\n        /* \"erc721a/contracts/ERC721A.sol\":16838:16846  quantity */\n      dup6\n        /* \"erc721a/contracts/ERC721A.sol\":16786:16807  _beforeTokenTransfers */\n      tag_137\n        /* \"erc721a/contracts/ERC721A.sol\":16786:16847  _beforeTokenTransfers(address(0), to, startTokenId, quantity) */\n      jump\t// in\n    tag_247:\n        /* \"erc721a/contracts/ERC721A.sol\":17318:17319  1 */\n      0x01\n        /* \"erc721a/contracts/ERC721A.sol\":1156:1158  64 */\n      0x40\n        /* \"erc721a/contracts/ERC721A.sol\":17289:17290  1 */\n      0x01\n        /* \"erc721a/contracts/ERC721A.sol\":17289:17314  1 << BITPOS_NUMBER_MINTED */\n      swap1\n      shl\n        /* \"erc721a/contracts/ERC721A.sol\":17288:17319  (1 << BITPOS_NUMBER_MINTED) | 1 */\n      or\n        /* \"erc721a/contracts/ERC721A.sol\":17276:17284  quantity */\n      dup3\n        /* \"erc721a/contracts/ERC721A.sol\":17276:17320  quantity * ((1 << BITPOS_NUMBER_MINTED) | 1) */\n      mul\n        /* \"erc721a/contracts/ERC721A.sol\":17250:17268  _packedAddressData */\n      0x05\n        /* \"erc721a/contracts/ERC721A.sol\":17250:17272  _packedAddressData[to] */\n      0x00\n        /* \"erc721a/contracts/ERC721A.sol\":17269:17271  to */\n      dup6\n        /* \"erc721a/contracts/ERC721A.sol\":17250:17272  _packedAddressData[to] */\n      0xffffffffffffffffffffffffffffffffffffffff\n      and\n      0xffffffffffffffffffffffffffffffffffffffff\n      and\n      dup2\n      mstore\n      0x20\n      add\n      swap1\n      dup2\n      mstore\n      0x20\n      add\n      0x00\n      keccak256\n      0x00\n        /* \"erc721a/contracts/ERC721A.sol\":17250:17320  _packedAddressData[to] += quantity * ((1 << BITPOS_NUMBER_MINTED) | 1) */\n      dup3\n      dup3\n      sload\n      add\n      swap3\n      pop\n      pop\n      dup2\n      swap1\n      sstore\n      pop\n        /* \"erc721a/contracts/ERC721A.sol\":17590:17726  _packOwnershipData(... */\n      tag_248\n        /* \"erc721a/contracts/ERC721A.sol\":17626:17628  to */\n      dup4\n        /* \"erc721a/contracts/ERC721A.sol\":17679:17712  _nextExtraData(address(0), to, 0) */\n      tag_249\n        /* \"erc721a/contracts/ERC721A.sol\":17702:17703  0 */\n      0x00\n        /* \"erc721a/contracts/ERC721A.sol\":17706:17708  to */\n      dup7\n        /* \"erc721a/contracts/ERC721A.sol\":17710:17711  0 */\n      0x00\n        /* \"erc721a/contracts/ERC721A.sol\":17679:17693  _nextExtraData */\n      tag_141\n        /* \"erc721a/contracts/ERC721A.sol\":17679:17712  _nextExtraData(address(0), to, 0) */\n      jump\t// in\n    tag_249:\n        /* \"erc721a/contracts/ERC721A.sol\":17646:17676  _nextInitializedFlag(quantity) */\n      tag_250\n        /* \"erc721a/contracts/ERC721A.sol\":17667:17675  quantity */\n      dup6\n        /* \"erc721a/contracts/ERC721A.sol\":17646:17666  _nextInitializedFlag */\n      tag_251\n        /* \"erc721a/contracts/ERC721A.sol\":17646:17676  _nextInitializedFlag(quantity) */\n      jump\t// in\n    tag_250:\n        /* \"erc721a/contracts/ERC721A.sol\":17646:17712  _nextInitializedFlag(quantity) | _nextExtraData(address(0), to, 0) */\n      or\n        /* \"erc721a/contracts/ERC721A.sol\":17590:17608  _packOwnershipData */\n      tag_142\n        /* \"erc721a/contracts/ERC721A.sol\":17590:17726  _packOwnershipData(... */\n      jump\t// in\n    tag_248:\n        /* \"erc721a/contracts/ERC721A.sol\":17556:17573  _packedOwnerships */\n      0x04\n        /* \"erc721a/contracts/ERC721A.sol\":17556:17587  _packedOwnerships[startTokenId] */\n      0x00\n        /* \"erc721a/contracts/ERC721A.sol\":17574:17586  startTokenId */\n      dup4\n        /* \"erc721a/contracts/ERC721A.sol\":17556:17587  _packedOwnerships[startTokenId] */\n      dup2\n      mstore\n      0x20\n      add\n      swap1\n      dup2\n      mstore\n      0x20\n      add\n      0x00\n      keccak256\n        /* \"erc721a/contracts/ERC721A.sol\":17556:17726  _packedOwnerships[startTokenId] = _packOwnershipData(... */\n      dup2\n      swap1\n      sstore\n      pop\n        /* \"erc721a/contracts/ERC721A.sol\":17741:17756  uint256 tokenId */\n      0x00\n        /* \"erc721a/contracts/ERC721A.sol\":17759:17771  startTokenId */\n      dup2\n        /* \"erc721a/contracts/ERC721A.sol\":17741:17771  uint256 tokenId = startTokenId */\n      swap1\n      pop\n        /* \"erc721a/contracts/ERC721A.sol\":17785:17796  uint256 end */\n      0x00\n        /* \"erc721a/contracts/ERC721A.sol\":17814:17822  quantity */\n      dup4\n        /* \"erc721a/contracts/ERC721A.sol\":17799:17811  startTokenId */\n      dup4\n        /* \"erc721a/contracts/ERC721A.sol\":17799:17822  startTokenId + quantity */\n      add\n        /* \"erc721a/contracts/ERC721A.sol\":17785:17822  uint256 end = startTokenId + quantity */\n      swap1\n      pop\n        /* \"erc721a/contracts/ERC721A.sol\":17836:17935  do {... */\n    tag_252:\n        /* \"erc721a/contracts/ERC721A.sol\":17887:17896  tokenId++ */\n      dup2\n      dup1\n      0x01\n      add\n      swap3\n      pop\n        /* \"erc721a/contracts/ERC721A.sol\":17883:17885  to */\n      dup6\n        /* \"erc721a/contracts/ERC721A.sol\":17862:17897  Transfer(address(0), to, tokenId++) */\n      0xffffffffffffffffffffffffffffffffffffffff\n      and\n        /* \"erc721a/contracts/ERC721A.sol\":17879:17880  0 */\n      0x00\n        /* \"erc721a/contracts/ERC721A.sol\":17862:17897  Transfer(address(0), to, tokenId++) */\n      0xffffffffffffffffffffffffffffffffffffffff\n      and\n      0xddf252ad1be2c89b69c2b068fc378daa952ba7f163c4a11628f55a4df523b3ef\n      mload(0x40)\n      mload(0x40)\n      dup1\n      swap2\n      sub\n      swap1\n      log4\n        /* \"erc721a/contracts/ERC721A.sol\":17930:17933  end */\n      dup1\n        /* \"erc721a/contracts/ERC721A.sol\":17920:17927  tokenId */\n      dup3\n        /* \"erc721a/contracts/ERC721A.sol\":17920:17933  tokenId < end */\n      lt\n        /* \"erc721a/contracts/ERC721A.sol\":17836:17935  do {... */\n      tag_252\n      jumpi\n        /* \"erc721a/contracts/ERC721A.sol\":17965:17968  end */\n      dup1\n        /* \"erc721a/contracts/ERC721A.sol\":17949:17962  _currentIndex */\n      0x00\n        /* \"erc721a/contracts/ERC721A.sol\":17949:17968  _currentIndex = end */\n      dup2\n      swap1\n      sstore\n      pop\n        /* \"erc721a/contracts/ERC721A.sol\":17030:17979  unchecked {... */\n      pop\n      pop\n        /* \"erc721a/contracts/ERC721A.sol\":17988:18048  _afterTokenTransfers(address(0), to, startTokenId, quantity) */\n      tag_255\n        /* \"erc721a/contracts/ERC721A.sol\":18017:18018  0 */\n      0x00\n        /* \"erc721a/contracts/ERC721A.sol\":18021:18023  to */\n      dup5\n        /* \"erc721a/contracts/ERC721A.sol\":18025:18037  startTokenId */\n      dup4\n        /* \"erc721a/contracts/ERC721A.sol\":18039:18047  quantity */\n      dup6\n        /* \"erc721a/contracts/ERC721A.sol\":17988:18008  _afterTokenTransfers */\n      tag_147\n        /* \"erc721a/contracts/ERC721A.sol\":17988:18048  _afterTokenTransfers(address(0), to, startTokenId, quantity) */\n      jump\t// in\n    tag_255:\n        /* \"erc721a/contracts/ERC721A.sol\":16617:18055  {... */\n      pop\n        /* \"erc721a/contracts/ERC721A.sol\":16563:18055  function _mint(address to, uint256 quantity) internal {... */\n      pop\n      pop\n      jump\t// out\n        /* \"erc721a/contracts/ERC721A.sol\":12238:12554  function _nextInitializedFlag(uint256 quantity) private pure returns (uint256 result) {... */\n    tag_251:\n        /* \"erc721a/contracts/ERC721A.sol\":12308:12322  uint256 result */\n      0x00\n        /* \"erc721a/contracts/ERC721A.sol\":12535:12536  1 */\n      0x01\n        /* \"erc721a/contracts/ERC721A.sol\":12525:12533  quantity */\n      dup3\n        /* \"erc721a/contracts/ERC721A.sol\":12522:12537  eq(quantity, 1) */\n      eq\n        /* \"erc721a/contracts/ERC721A.sol\":12497:12520  BITPOS_NEXT_INITIALIZED */\n      0xe1\n        /* \"erc721a/contracts/ERC721A.sol\":12493:12538  shl(BITPOS_NEXT_INITIALIZED, eq(quantity, 1)) */\n      shl\n        /* \"erc721a/contracts/ERC721A.sol\":12483:12538  result := shl(BITPOS_NEXT_INITIALIZED, eq(quantity, 1)) */\n      swap1\n      pop\n        /* \"erc721a/contracts/ERC721A.sol\":12238:12554  function _nextInitializedFlag(uint256 quantity) private pure returns (uint256 result) {... */\n      swap2\n      swap1\n      pop\n      jump\t// out\n        /* \"#utility.yul\":7:417   */\n    tag_258:\n        /* \"#utility.yul\":84:89   */\n      0x00\n        /* \"#utility.yul\":109:174   */\n      tag_260\n        /* \"#utility.yul\":125:173   */\n      tag_261\n        /* \"#utility.yul\":166:172   */\n      dup5\n        /* \"#utility.yul\":125:173   */\n      tag_262\n      jump\t// in\n    tag_261:\n        /* \"#utility.yul\":109:174   */\n      tag_263\n      jump\t// in\n    tag_260:\n        /* \"#utility.yul\":100:174   */\n      swap1\n      pop\n        /* \"#utility.yul\":197:203   */\n      dup3\n        /* \"#utility.yul\":190:195   */\n      dup2\n        /* \"#utility.yul\":183:204   */\n      mstore\n        /* \"#utility.yul\":235:239   */\n      0x20\n        /* \"#utility.yul\":228:233   */\n      dup2\n        /* \"#utility.yul\":224:240   */\n      add\n        /* \"#utility.yul\":273:276   */\n      dup5\n        /* \"#utility.yul\":264:270   */\n      dup5\n        /* \"#utility.yul\":259:262   */\n      dup5\n        /* \"#utility.yul\":255:271   */\n      add\n        /* \"#utility.yul\":252:277   */\n      gt\n        /* \"#utility.yul\":249:361   */\n      iszero\n      tag_264\n      jumpi\n        /* \"#utility.yul\":280:359   */\n      tag_265\n      tag_266\n      jump\t// in\n    tag_265:\n        /* \"#utility.yul\":249:361   */\n    tag_264:\n        /* \"#utility.yul\":370:411   */\n      tag_267\n        /* \"#utility.yul\":404:410   */\n      dup5\n        /* \"#utility.yul\":399:402   */\n      dup3\n        /* \"#utility.yul\":394:397   */\n      dup6\n        /* \"#utility.yul\":370:411   */\n      tag_268\n      jump\t// in\n    tag_267:\n        /* \"#utility.yul\":90:417   */\n      pop\n        /* \"#utility.yul\":7:417   */\n      swap4\n      swap3\n      pop\n      pop\n      pop\n      jump\t// out\n        /* \"#utility.yul\":423:562   */\n    tag_269:\n        /* \"#utility.yul\":469:474   */\n      0x00\n        /* \"#utility.yul\":507:513   */\n      dup2\n        /* \"#utility.yul\":494:514   */\n      calldataload\n        /* \"#utility.yul\":485:514   */\n      swap1\n      pop\n        /* \"#utility.yul\":523:556   */\n      tag_271\n        /* \"#utility.yul\":550:555   */\n      dup2\n        /* \"#utility.yul\":523:556   */\n      tag_272\n      jump\t// in\n    tag_271:\n        /* \"#utility.yul\":423:562   */\n      swap3\n      swap2\n      pop\n      pop\n      jump\t// out\n        /* \"#utility.yul\":568:701   */\n    tag_273:\n        /* \"#utility.yul\":611:616   */\n      0x00\n        /* \"#utility.yul\":649:655   */\n      dup2\n        /* \"#utility.yul\":636:656   */\n      calldataload\n        /* \"#utility.yul\":627:656   */\n      swap1\n      pop\n        /* \"#utility.yul\":665:695   */\n      tag_275\n        /* \"#utility.yul\":689:694   */\n      dup2\n        /* \"#utility.yul\":665:695   */\n      tag_276\n      jump\t// in\n    tag_275:\n        /* \"#utility.yul\":568:701   */\n      swap3\n      swap2\n      pop\n      pop\n      jump\t// out\n        /* \"#utility.yul\":707:844   */\n    tag_277:\n        /* \"#utility.yul\":752:757   */\n      0x00\n        /* \"#utility.yul\":790:796   */\n      dup2\n        /* \"#utility.yul\":777:797   */\n      calldataload\n        /* \"#utility.yul\":768:797   */\n      swap1\n      pop\n        /* \"#utility.yul\":806:838   */\n      tag_279\n        /* \"#utility.yul\":832:837   */\n      dup2\n        /* \"#utility.yul\":806:838   */\n      tag_280\n      jump\t// in\n    tag_279:\n        /* \"#utility.yul\":707:844   */\n      swap3\n      swap2\n      pop\n      pop\n      jump\t// out\n        /* \"#utility.yul\":850:991   */\n    tag_281:\n        /* \"#utility.yul\":906:911   */\n      0x00\n        /* \"#utility.yul\":937:943   */\n      dup2\n        /* \"#utility.yul\":931:944   */\n      mload\n        /* \"#utility.yul\":922:944   */\n      swap1\n      pop\n        /* \"#utility.yul\":953:985   */\n      tag_283\n        /* \"#utility.yul\":979:984   */\n      dup2\n        /* \"#utility.yul\":953:985   */\n      tag_280\n      jump\t// in\n    tag_283:\n        /* \"#utility.yul\":850:991   */\n      swap3\n      swap2\n      pop\n      pop\n      jump\t// out\n        /* \"#utility.yul\":1010:1348   */\n    tag_284:\n        /* \"#utility.yul\":1065:1070   */\n      0x00\n        /* \"#utility.yul\":1114:1117   */\n      dup3\n        /* \"#utility.yul\":1107:1111   */\n      0x1f\n        /* \"#utility.yul\":1099:1105   */\n      dup4\n        /* \"#utility.yul\":1095:1112   */\n      add\n        /* \"#utility.yul\":1091:1118   */\n      slt\n        /* \"#utility.yul\":1081:1203   */\n      tag_286\n      jumpi\n        /* \"#utility.yul\":1122:1201   */\n      tag_287\n      tag_288\n      jump\t// in\n    tag_287:\n        /* \"#utility.yul\":1081:1203   */\n    tag_286:\n        /* \"#utility.yul\":1239:1245   */\n      dup2\n        /* \"#utility.yul\":1226:1246   */\n      calldataload\n        /* \"#utility.yul\":1264:1342   */\n      tag_289\n        /* \"#utility.yul\":1338:1341   */\n      dup5\n        /* \"#utility.yul\":1330:1336   */\n      dup3\n        /* \"#utility.yul\":1323:1327   */\n      0x20\n        /* \"#utility.yul\":1315:1321   */\n      dup7\n        /* \"#utility.yul\":1311:1328   */\n      add\n        /* \"#utility.yul\":1264:1342   */\n      tag_258\n      jump\t// in\n    tag_289:\n        /* \"#utility.yul\":1255:1342   */\n      swap2\n      pop\n        /* \"#utility.yul\":1071:1348   */\n      pop\n        /* \"#utility.yul\":1010:1348   */\n      swap3\n      swap2\n      pop\n      pop\n      jump\t// out\n        /* \"#utility.yul\":1354:1493   */\n    tag_290:\n        /* \"#utility.yul\":1400:1405   */\n      0x00\n        /* \"#utility.yul\":1438:1444   */\n      dup2\n        /* \"#utility.yul\":1425:1445   */\n      calldataload\n        /* \"#utility.yul\":1416:1445   */\n      swap1\n      pop\n        /* \"#utility.yul\":1454:1487   */\n      tag_292\n        /* \"#utility.yul\":1481:1486   */\n      dup2\n        /* \"#utility.yul\":1454:1487   */\n      tag_293\n      jump\t// in\n    tag_292:\n        /* \"#utility.yul\":1354:1493   */\n      swap3\n      swap2\n      pop\n      pop\n      jump\t// out\n        /* \"#utility.yul\":1499:1828   */\n    tag_66:\n        /* \"#utility.yul\":1558:1564   */\n      0x00\n        /* \"#utility.yul\":1607:1609   */\n      0x20\n        /* \"#utility.yul\":1595:1604   */\n      dup3\n        /* \"#utility.yul\":1586:1593   */\n      dup5\n        /* \"#utility.yul\":1582:1605   */\n      sub\n        /* \"#utility.yul\":1578:1610   */\n      slt\n        /* \"#utility.yul\":1575:1694   */\n      iszero\n      tag_295\n      jumpi\n        /* \"#utility.yul\":1613:1692   */\n      tag_296\n      tag_297\n      jump\t// in\n    tag_296:\n        /* \"#utility.yul\":1575:1694   */\n    tag_295:\n        /* \"#utility.yul\":1733:1734   */\n      0x00\n        /* \"#utility.yul\":1758:1811   */\n      tag_298\n        /* \"#utility.yul\":1803:1810   */\n      dup5\n        /* \"#utility.yul\":1794:1800   */\n      dup3\n        /* \"#utility.yul\":1783:1792   */\n      dup6\n        /* \"#utility.yul\":1779:1801   */\n      add\n        /* \"#utility.yul\":1758:1811   */\n      tag_269\n      jump\t// in\n    tag_298:\n        /* \"#utility.yul\":1748:1811   */\n      swap2\n      pop\n        /* \"#utility.yul\":1704:1821   */\n      pop\n        /* \"#utility.yul\":1499:1828   */\n      swap3\n      swap2\n      pop\n      pop\n      jump\t// out\n        /* \"#utility.yul\":1834:2308   */\n    tag_94:\n        /* \"#utility.yul\":1902:1908   */\n      0x00\n        /* \"#utility.yul\":1910:1916   */\n      dup1\n        /* \"#utility.yul\":1959:1961   */\n      0x40\n        /* \"#utility.yul\":1947:1956   */\n      dup4\n        /* \"#utility.yul\":1938:1945   */\n      dup6\n        /* \"#utility.yul\":1934:1957   */\n      sub\n        /* \"#utility.yul\":1930:1962   */\n      slt\n        /* \"#utility.yul\":1927:2046   */\n      iszero\n      tag_300\n      jumpi\n        /* \"#utility.yul\":1965:2044   */\n      tag_301\n      tag_297\n      jump\t// in\n    tag_301:\n        /* \"#utility.yul\":1927:2046   */\n    tag_300:\n        /* \"#utility.yul\":2085:2086   */\n      0x00\n        /* \"#utility.yul\":2110:2163   */\n      tag_302\n        /* \"#utility.yul\":2155:2162   */\n      dup6\n        /* \"#utility.yul\":2146:2152   */\n      dup3\n        /* \"#utility.yul\":2135:2144   */\n      dup7\n        /* \"#utility.yul\":2131:2153   */\n      add\n        /* \"#utility.yul\":2110:2163   */\n      tag_269\n      jump\t// in\n    tag_302:\n        /* \"#utility.yul\":2100:2163   */\n      swap3\n      pop\n        /* \"#utility.yul\":2056:2173   */\n      pop\n        /* \"#utility.yul\":2212:2214   */\n      0x20\n        /* \"#utility.yul\":2238:2291   */\n      tag_303\n        /* \"#utility.yul\":2283:2290   */\n      dup6\n        /* \"#utility.yul\":2274:2280   */\n      dup3\n        /* \"#utility.yul\":2263:2272   */\n      dup7\n        /* \"#utility.yul\":2259:2281   */\n      add\n        /* \"#utility.yul\":2238:2291   */\n      tag_269\n      jump\t// in\n    tag_303:\n        /* \"#utility.yul\":2228:2291   */\n      swap2\n      pop\n        /* \"#utility.yul\":2183:2301   */\n      pop\n        /* \"#utility.yul\":1834:2308   */\n      swap3\n      pop\n      swap3\n      swap1\n      pop\n      jump\t// out\n        /* \"#utility.yul\":2314:2933   */\n    tag_52:\n        /* \"#utility.yul\":2391:2397   */\n      0x00\n        /* \"#utility.yul\":2399:2405   */\n      dup1\n        /* \"#utility.yul\":2407:2413   */\n      0x00\n        /* \"#utility.yul\":2456:2458   */\n      0x60\n        /* \"#utility.yul\":2444:2453   */\n      dup5\n        /* \"#utility.yul\":2435:2442   */\n      dup7\n        /* \"#utility.yul\":2431:2454   */\n      sub\n        /* \"#utility.yul\":2427:2459   */\n      slt\n        /* \"#utility.yul\":2424:2543   */\n      iszero\n      tag_305\n      jumpi\n        /* \"#utility.yul\":2462:2541   */\n      tag_306\n      tag_297\n      jump\t// in\n    tag_306:\n        /* \"#utility.yul\":2424:2543   */\n    tag_305:\n        /* \"#utility.yul\":2582:2583   */\n      0x00\n        /* \"#utility.yul\":2607:2660   */\n      tag_307\n        /* \"#utility.yul\":2652:2659   */\n      dup7\n        /* \"#utility.yul\":2643:2649   */\n      dup3\n        /* \"#utility.yul\":2632:2641   */\n      dup8\n        /* \"#utility.yul\":2628:2650   */\n      add\n        /* \"#utility.yul\":2607:2660   */\n      tag_269\n      jump\t// in\n    tag_307:\n        /* \"#utility.yul\":2597:2660   */\n      swap4\n      pop\n        /* \"#utility.yul\":2553:2670   */\n      pop\n        /* \"#utility.yul\":2709:2711   */\n      0x20\n        /* \"#utility.yul\":2735:2788   */\n      tag_308\n        /* \"#utility.yul\":2780:2787   */\n      dup7\n        /* \"#utility.yul\":2771:2777   */\n      dup3\n        /* \"#utility.yul\":2760:2769   */\n      dup8\n        /* \"#utility.yul\":2756:2778   */\n      add\n        /* \"#utility.yul\":2735:2788   */\n      tag_269\n      jump\t// in\n    tag_308:\n        /* \"#utility.yul\":2725:2788   */\n      swap3\n      pop\n        /* \"#utility.yul\":2680:2798   */\n      pop\n        /* \"#utility.yul\":2837:2839   */\n      0x40\n        /* \"#utility.yul\":2863:2916   */\n      tag_309\n        /* \"#utility.yul\":2908:2915   */\n      dup7\n        /* \"#utility.yul\":2899:2905   */\n      dup3\n        /* \"#utility.yul\":2888:2897   */\n      dup8\n        /* \"#utility.yul\":2884:2906   */\n      add\n        /* \"#utility.yul\":2863:2916   */\n      tag_290\n      jump\t// in\n    tag_309:\n        /* \"#utility.yul\":2853:2916   */\n      swap2\n      pop\n        /* \"#utility.yul\":2808:2926   */\n      pop\n        /* \"#utility.yul\":2314:2933   */\n      swap3\n      pop\n      swap3\n      pop\n      swap3\n      jump\t// out\n        /* \"#utility.yul\":2939:3882   */\n    tag_84:\n        /* \"#utility.yul\":3034:3040   */\n      0x00\n        /* \"#utility.yul\":3042:3048   */\n      dup1\n        /* \"#utility.yul\":3050:3056   */\n      0x00\n        /* \"#utility.yul\":3058:3064   */\n      dup1\n        /* \"#utility.yul\":3107:3110   */\n      0x80\n        /* \"#utility.yul\":3095:3104   */\n      dup6\n        /* \"#utility.yul\":3086:3093   */\n      dup8\n        /* \"#utility.yul\":3082:3105   */\n      sub\n        /* \"#utility.yul\":3078:3111   */\n      slt\n        /* \"#utility.yul\":3075:3195   */\n      iszero\n      tag_311\n      jumpi\n        /* \"#utility.yul\":3114:3193   */\n      tag_312\n      tag_297\n      jump\t// in\n    tag_312:\n        /* \"#utility.yul\":3075:3195   */\n    tag_311:\n        /* \"#utility.yul\":3234:3235   */\n      0x00\n        /* \"#utility.yul\":3259:3312   */\n      tag_313\n        /* \"#utility.yul\":3304:3311   */\n      dup8\n        /* \"#utility.yul\":3295:3301   */\n      dup3\n        /* \"#utility.yul\":3284:3293   */\n      dup9\n        /* \"#utility.yul\":3280:3302   */\n      add\n        /* \"#utility.yul\":3259:3312   */\n      tag_269\n      jump\t// in\n    tag_313:\n        /* \"#utility.yul\":3249:3312   */\n      swap5\n      pop\n        /* \"#utility.yul\":3205:3322   */\n      pop\n        /* \"#utility.yul\":3361:3363   */\n      0x20\n        /* \"#utility.yul\":3387:3440   */\n      tag_314\n        /* \"#utility.yul\":3432:3439   */\n      dup8\n        /* \"#utility.yul\":3423:3429   */\n      dup3\n        /* \"#utility.yul\":3412:3421   */\n      dup9\n        /* \"#utility.yul\":3408:3430   */\n      add\n        /* \"#utility.yul\":3387:3440   */\n      tag_269\n      jump\t// in\n    tag_314:\n        /* \"#utility.yul\":3377:3440   */\n      swap4\n      pop\n        /* \"#utility.yul\":3332:3450   */\n      pop\n        /* \"#utility.yul\":3489:3491   */\n      0x40\n        /* \"#utility.yul\":3515:3568   */\n      tag_315\n        /* \"#utility.yul\":3560:3567   */\n      dup8\n        /* \"#utility.yul\":3551:3557   */\n      dup3\n        /* \"#utility.yul\":3540:3549   */\n      dup9\n        /* \"#utility.yul\":3536:3558   */\n      add\n        /* \"#utility.yul\":3515:3568   */\n      tag_290\n      jump\t// in\n    tag_315:\n        /* \"#utility.yul\":3505:3568   */\n      swap3\n      pop\n        /* \"#utility.yul\":3460:3578   */\n      pop\n        /* \"#utility.yul\":3645:3647   */\n      0x60\n        /* \"#utility.yul\":3634:3643   */\n      dup6\n        /* \"#utility.yul\":3630:3648   */\n      add\n        /* \"#utility.yul\":3617:3649   */\n      calldataload\n        /* \"#utility.yul\":3676:3694   */\n      0xffffffffffffffff\n        /* \"#utility.yul\":3668:3674   */\n      dup2\n        /* \"#utility.yul\":3665:3695   */\n      gt\n        /* \"#utility.yul\":3662:3779   */\n      iszero\n      tag_316\n      jumpi\n        /* \"#utility.yul\":3698:3777   */\n      tag_317\n      tag_318\n      jump\t// in\n    tag_317:\n        /* \"#utility.yul\":3662:3779   */\n    tag_316:\n        /* \"#utility.yul\":3803:3865   */\n      tag_319\n        /* \"#utility.yul\":3857:3864   */\n      dup8\n        /* \"#utility.yul\":3848:3854   */\n      dup3\n        /* \"#utility.yul\":3837:3846   */\n      dup9\n        /* \"#utility.yul\":3833:3855   */\n      add\n        /* \"#utility.yul\":3803:3865   */\n      tag_284\n      jump\t// in\n    tag_319:\n        /* \"#utility.yul\":3793:3865   */\n      swap2\n      pop\n        /* \"#utility.yul\":3588:3875   */\n      pop\n        /* \"#utility.yul\":2939:3882   */\n      swap3\n      swap6\n      swap2\n      swap5\n      pop\n      swap3\n      pop\n      jump\t// out\n        /* \"#utility.yul\":3888:4356   */\n    tag_79:\n        /* \"#utility.yul\":3953:3959   */\n      0x00\n        /* \"#utility.yul\":3961:3967   */\n      dup1\n        /* \"#utility.yul\":4010:4012   */\n      0x40\n        /* \"#utility.yul\":3998:4007   */\n      dup4\n        /* \"#utility.yul\":3989:3996   */\n      dup6\n        /* \"#utility.yul\":3985:4008   */\n      sub\n        /* \"#utility.yul\":3981:4013   */\n      slt\n        /* \"#utility.yul\":3978:4097   */\n      iszero\n      tag_321\n      jumpi\n        /* \"#utility.yul\":4016:4095   */\n      tag_322\n      tag_297\n      jump\t// in\n    tag_322:\n        /* \"#utility.yul\":3978:4097   */\n    tag_321:\n        /* \"#utility.yul\":4136:4137   */\n      0x00\n        /* \"#utility.yul\":4161:4214   */\n      tag_323\n        /* \"#utility.yul\":4206:4213   */\n      dup6\n        /* \"#utility.yul\":4197:4203   */\n      dup3\n        /* \"#utility.yul\":4186:4195   */\n      dup7\n        /* \"#utility.yul\":4182:4204   */\n      add\n        /* \"#utility.yul\":4161:4214   */\n      tag_269\n      jump\t// in\n    tag_323:\n        /* \"#utility.yul\":4151:4214   */\n      swap3\n      pop\n        /* \"#utility.yul\":4107:4224   */\n      pop\n        /* \"#utility.yul\":4263:4265   */\n      0x20\n        /* \"#utility.yul\":4289:4339   */\n      tag_324\n        /* \"#utility.yul\":4331:4338   */\n      dup6\n        /* \"#utility.yul\":4322:4328   */\n      dup3\n        /* \"#utility.yul\":4311:4320   */\n      dup7\n        /* \"#utility.yul\":4307:4329   */\n      add\n        /* \"#utility.yul\":4289:4339   */\n      tag_273\n      jump\t// in\n    tag_324:\n        /* \"#utility.yul\":4279:4339   */\n      swap2\n      pop\n        /* \"#utility.yul\":4234:4349   */\n      pop\n        /* \"#utility.yul\":3888:4356   */\n      swap3\n      pop\n      swap3\n      swap1\n      pop\n      jump\t// out\n        /* \"#utility.yul\":4362:4836   */\n    tag_42:\n        /* \"#utility.yul\":4430:4436   */\n      0x00\n        /* \"#utility.yul\":4438:4444   */\n      dup1\n        /* \"#utility.yul\":4487:4489   */\n      0x40\n        /* \"#utility.yul\":4475:4484   */\n      dup4\n        /* \"#utility.yul\":4466:4473   */\n      dup6\n        /* \"#utility.yul\":4462:4485   */\n      sub\n        /* \"#utility.yul\":4458:4490   */\n      slt\n        /* \"#utility.yul\":4455:4574   */\n      iszero\n      tag_326\n      jumpi\n        /* \"#utility.yul\":4493:4572   */\n      tag_327\n      tag_297\n      jump\t// in\n    tag_327:\n        /* \"#utility.yul\":4455:4574   */\n    tag_326:\n        /* \"#utility.yul\":4613:4614   */\n      0x00\n        /* \"#utility.yul\":4638:4691   */\n      tag_328\n        /* \"#utility.yul\":4683:4690   */\n      dup6\n        /* \"#utility.yul\":4674:4680   */\n      dup3\n        /* \"#utility.yul\":4663:4672   */\n      dup7\n        /* \"#utility.yul\":4659:4681   */\n      add\n        /* \"#utility.yul\":4638:4691   */\n      tag_269\n      jump\t// in\n    tag_328:\n        /* \"#utility.yul\":4628:4691   */\n      swap3\n      pop\n        /* \"#utility.yul\":4584:4701   */\n      pop\n        /* \"#utility.yul\":4740:4742   */\n      0x20\n        /* \"#utility.yul\":4766:4819   */\n      tag_329\n        /* \"#utility.yul\":4811:4818   */\n      dup6\n        /* \"#utility.yul\":4802:4808   */\n      dup3\n        /* \"#utility.yul\":4791:4800   */\n      dup7\n        /* \"#utility.yul\":4787:4809   */\n      add\n        /* \"#utility.yul\":4766:4819   */\n      tag_290\n      jump\t// in\n    tag_329:\n        /* \"#utility.yul\":4756:4819   */\n      swap2\n      pop\n        /* \"#utility.yul\":4711:4829   */\n      pop\n        /* \"#utility.yul\":4362:4836   */\n      swap3\n      pop\n      swap3\n      swap1\n      pop\n      jump\t// out\n        /* \"#utility.yul\":4842:5169   */\n    tag_23:\n        /* \"#utility.yul\":4900:4906   */\n      0x00\n        /* \"#utility.yul\":4949:4951   */\n      0x20\n        /* \"#utility.yul\":4937:4946   */\n      dup3\n        /* \"#utility.yul\":4928:4935   */\n      dup5\n        /* \"#utility.yul\":4924:4947   */\n      sub\n        /* \"#utility.yul\":4920:4952   */\n      slt\n        /* \"#utility.yul\":4917:5036   */\n      iszero\n      tag_331\n      jumpi\n        /* \"#utility.yul\":4955:5034   */\n      tag_332\n      tag_297\n      jump\t// in\n    tag_332:\n        /* \"#utility.yul\":4917:5036   */\n    tag_331:\n        /* \"#utility.yul\":5075:5076   */\n      0x00\n        /* \"#utility.yul\":5100:5152   */\n      tag_333\n        /* \"#utility.yul\":5144:5151   */\n      dup5\n        /* \"#utility.yul\":5135:5141   */\n      dup3\n        /* \"#utility.yul\":5124:5133   */\n      dup6\n        /* \"#utility.yul\":5120:5142   */\n      add\n        /* \"#utility.yul\":5100:5152   */\n      tag_277\n      jump\t// in\n    tag_333:\n        /* \"#utility.yul\":5090:5152   */\n      swap2\n      pop\n        /* \"#utility.yul\":5046:5162   */\n      pop\n        /* \"#utility.yul\":4842:5169   */\n      swap3\n      swap2\n      pop\n      pop\n      jump\t// out\n        /* \"#utility.yul\":5175:5524   */\n    tag_218:\n        /* \"#utility.yul\":5244:5250   */\n      0x00\n        /* \"#utility.yul\":5293:5295   */\n      0x20\n        /* \"#utility.yul\":5281:5290   */\n      dup3\n        /* \"#utility.yul\":5272:5279   */\n      dup5\n        /* \"#utility.yul\":5268:5291   */\n      sub\n        /* \"#utility.yul\":5264:5296   */\n      slt\n        /* \"#utility.yul\":5261:5380   */\n      iszero\n      tag_335\n      jumpi\n        /* \"#utility.yul\":5299:5378   */\n      tag_336\n      tag_297\n      jump\t// in\n    tag_336:\n        /* \"#utility.yul\":5261:5380   */\n    tag_335:\n        /* \"#utility.yul\":5419:5420   */\n      0x00\n        /* \"#utility.yul\":5444:5507   */\n      tag_337\n        /* \"#utility.yul\":5499:5506   */\n      dup5\n        /* \"#utility.yul\":5490:5496   */\n      dup3\n        /* \"#utility.yul\":5479:5488   */\n      dup6\n        /* \"#utility.yul\":5475:5497   */\n      add\n        /* \"#utility.yul\":5444:5507   */\n      tag_281\n      jump\t// in\n    tag_337:\n        /* \"#utility.yul\":5434:5507   */\n      swap2\n      pop\n        /* \"#utility.yul\":5390:5517   */\n      pop\n        /* \"#utility.yul\":5175:5524   */\n      swap3\n      swap2\n      pop\n      pop\n      jump\t// out\n        /* \"#utility.yul\":5530:5859   */\n    tag_35:\n        /* \"#utility.yul\":5589:5595   */\n      0x00\n        /* \"#utility.yul\":5638:5640   */\n      0x20\n        /* \"#utility.yul\":5626:5635   */\n      dup3\n        /* \"#utility.yul\":5617:5624   */\n      dup5\n        /* \"#utility.yul\":5613:5636   */\n      sub\n        /* \"#utility.yul\":5609:5641   */\n      slt\n        /* \"#utility.yul\":5606:5725   */\n      iszero\n      tag_339\n      jumpi\n        /* \"#utility.yul\":5644:5723   */\n      tag_340\n      tag_297\n      jump\t// in\n    tag_340:\n        /* \"#utility.yul\":5606:5725   */\n    tag_339:\n        /* \"#utility.yul\":5764:5765   */\n      0x00\n        /* \"#utility.yul\":5789:5842   */\n      tag_341\n        /* \"#utility.yul\":5834:5841   */\n      dup5\n        /* \"#utility.yul\":5825:5831   */\n      dup3\n        /* \"#utility.yul\":5814:5823   */\n      dup6\n        /* \"#utility.yul\":5810:5832   */\n      add\n        /* \"#utility.yul\":5789:5842   */\n      tag_290\n      jump\t// in\n    tag_341:\n        /* \"#utility.yul\":5779:5842   */\n      swap2\n      pop\n        /* \"#utility.yul\":5735:5852   */\n      pop\n        /* \"#utility.yul\":5530:5859   */\n      swap3\n      swap2\n      pop\n      pop\n      jump\t// out\n        /* \"#utility.yul\":5865:5983   */\n    tag_342:\n        /* \"#utility.yul\":5952:5976   */\n      tag_344\n        /* \"#utility.yul\":5970:5975   */\n      dup2\n        /* \"#utility.yul\":5952:5976   */\n      tag_345\n      jump\t// in\n    tag_344:\n        /* \"#utility.yul\":5947:5950   */\n      dup3\n        /* \"#utility.yul\":5940:5977   */\n      mstore\n        /* \"#utility.yul\":5865:5983   */\n      pop\n      pop\n      jump\t// out\n        /* \"#utility.yul\":5989:6098   */\n    tag_346:\n        /* \"#utility.yul\":6070:6091   */\n      tag_348\n        /* \"#utility.yul\":6085:6090   */\n      dup2\n        /* \"#utility.yul\":6070:6091   */\n      tag_349\n      jump\t// in\n    tag_348:\n        /* \"#utility.yul\":6065:6068   */\n      dup3\n        /* \"#utility.yul\":6058:6092   */\n      mstore\n        /* \"#utility.yul\":5989:6098   */\n      pop\n      pop\n      jump\t// out\n        /* \"#utility.yul\":6104:6464   */\n    tag_350:\n        /* \"#utility.yul\":6190:6193   */\n      0x00\n        /* \"#utility.yul\":6218:6256   */\n      tag_352\n        /* \"#utility.yul\":6250:6255   */\n      dup3\n        /* \"#utility.yul\":6218:6256   */\n      tag_353\n      jump\t// in\n    tag_352:\n        /* \"#utility.yul\":6272:6342   */\n      tag_354\n        /* \"#utility.yul\":6335:6341   */\n      dup2\n        /* \"#utility.yul\":6330:6333   */\n      dup6\n        /* \"#utility.yul\":6272:6342   */\n      tag_355\n      jump\t// in\n    tag_354:\n        /* \"#utility.yul\":6265:6342   */\n      swap4\n      pop\n        /* \"#utility.yul\":6351:6403   */\n      tag_356\n        /* \"#utility.yul\":6396:6402   */\n      dup2\n        /* \"#utility.yul\":6391:6394   */\n      dup6\n        /* \"#utility.yul\":6384:6388   */\n      0x20\n        /* \"#utility.yul\":6377:6382   */\n      dup7\n        /* \"#utility.yul\":6373:6389   */\n      add\n        /* \"#utility.yul\":6351:6403   */\n      tag_357\n      jump\t// in\n    tag_356:\n        /* \"#utility.yul\":6428:6457   */\n      tag_358\n        /* \"#utility.yul\":6450:6456   */\n      dup2\n        /* \"#utility.yul\":6428:6457   */\n      tag_359\n      jump\t// in\n    tag_358:\n        /* \"#utility.yul\":6423:6426   */\n      dup5\n        /* \"#utility.yul\":6419:6458   */\n      add\n        /* \"#utility.yul\":6412:6458   */\n      swap2\n      pop\n        /* \"#utility.yul\":6194:6464   */\n      pop\n        /* \"#utility.yul\":6104:6464   */\n      swap3\n      swap2\n      pop\n      pop\n      jump\t// out\n        /* \"#utility.yul\":6470:6834   */\n    tag_360:\n        /* \"#utility.yul\":6558:6561   */\n      0x00\n        /* \"#utility.yul\":6586:6625   */\n      tag_362\n        /* \"#utility.yul\":6619:6624   */\n      dup3\n        /* \"#utility.yul\":6586:6625   */\n      tag_363\n      jump\t// in\n    tag_362:\n        /* \"#utility.yul\":6641:6712   */\n      tag_364\n        /* \"#utility.yul\":6705:6711   */\n      dup2\n        /* \"#utility.yul\":6700:6703   */\n      dup6\n        /* \"#utility.yul\":6641:6712   */\n      tag_365\n      jump\t// in\n    tag_364:\n        /* \"#utility.yul\":6634:6712   */\n      swap4\n      pop\n        /* \"#utility.yul\":6721:6773   */\n      tag_366\n        /* \"#utility.yul\":6766:6772   */\n      dup2\n        /* \"#utility.yul\":6761:6764   */\n      dup6\n        /* \"#utility.yul\":6754:6758   */\n      0x20\n        /* \"#utility.yul\":6747:6752   */\n      dup7\n        /* \"#utility.yul\":6743:6759   */\n      add\n        /* \"#utility.yul\":6721:6773   */\n      tag_357\n      jump\t// in\n    tag_366:\n        /* \"#utility.yul\":6798:6827   */\n      tag_367\n        /* \"#utility.yul\":6820:6826   */\n      dup2\n        /* \"#utility.yul\":6798:6827   */\n      tag_359\n      jump\t// in\n    tag_367:\n        /* \"#utility.yul\":6793:6796   */\n      dup5\n        /* \"#utility.yul\":6789:6828   */\n      add\n        /* \"#utility.yul\":6782:6828   */\n      swap2\n      pop\n        /* \"#utility.yul\":6562:6834   */\n      pop\n        /* \"#utility.yul\":6470:6834   */\n      swap3\n      swap2\n      pop\n      pop\n      jump\t// out\n        /* \"#utility.yul\":6840:7217   */\n    tag_368:\n        /* \"#utility.yul\":6946:6949   */\n      0x00\n        /* \"#utility.yul\":6974:7013   */\n      tag_370\n        /* \"#utility.yul\":7007:7012   */\n      dup3\n        /* \"#utility.yul\":6974:7013   */\n      tag_363\n      jump\t// in\n    tag_370:\n        /* \"#utility.yul\":7029:7118   */\n      tag_371\n        /* \"#utility.yul\":7111:7117   */\n      dup2\n        /* \"#utility.yul\":7106:7109   */\n      dup6\n        /* \"#utility.yul\":7029:7118   */\n      tag_372\n      jump\t// in\n    tag_371:\n        /* \"#utility.yul\":7022:7118   */\n      swap4\n      pop\n        /* \"#utility.yul\":7127:7179   */\n      tag_373\n        /* \"#utility.yul\":7172:7178   */\n      dup2\n        /* \"#utility.yul\":7167:7170   */\n      dup6\n        /* \"#utility.yul\":7160:7164   */\n      0x20\n        /* \"#utility.yul\":7153:7158   */\n      dup7\n        /* \"#utility.yul\":7149:7165   */\n      add\n        /* \"#utility.yul\":7127:7179   */\n      tag_357\n      jump\t// in\n    tag_373:\n        /* \"#utility.yul\":7204:7210   */\n      dup1\n        /* \"#utility.yul\":7199:7202   */\n      dup5\n        /* \"#utility.yul\":7195:7211   */\n      add\n        /* \"#utility.yul\":7188:7211   */\n      swap2\n      pop\n        /* \"#utility.yul\":6950:7217   */\n      pop\n        /* \"#utility.yul\":6840:7217   */\n      swap3\n      swap2\n      pop\n      pop\n      jump\t// out\n        /* \"#utility.yul\":7223:7341   */\n    tag_374:\n        /* \"#utility.yul\":7310:7334   */\n      tag_376\n        /* \"#utility.yul\":7328:7333   */\n      dup2\n        /* \"#utility.yul\":7310:7334   */\n      tag_377\n      jump\t// in\n    tag_376:\n        /* \"#utility.yul\":7305:7308   */\n      dup3\n        /* \"#utility.yul\":7298:7335   */\n      mstore\n        /* \"#utility.yul\":7223:7341   */\n      pop\n      pop\n      jump\t// out\n        /* \"#utility.yul\":7347:7782   */\n    tag_185:\n        /* \"#utility.yul\":7527:7530   */\n      0x00\n        /* \"#utility.yul\":7549:7644   */\n      tag_379\n        /* \"#utility.yul\":7640:7643   */\n      dup3\n        /* \"#utility.yul\":7631:7637   */\n      dup6\n        /* \"#utility.yul\":7549:7644   */\n      tag_368\n      jump\t// in\n    tag_379:\n        /* \"#utility.yul\":7542:7644   */\n      swap2\n      pop\n        /* \"#utility.yul\":7661:7756   */\n      tag_380\n        /* \"#utility.yul\":7752:7755   */\n      dup3\n        /* \"#utility.yul\":7743:7749   */\n      dup5\n        /* \"#utility.yul\":7661:7756   */\n      tag_368\n      jump\t// in\n    tag_380:\n        /* \"#utility.yul\":7654:7756   */\n      swap2\n      pop\n        /* \"#utility.yul\":7773:7776   */\n      dup2\n        /* \"#utility.yul\":7766:7776   */\n      swap1\n      pop\n        /* \"#utility.yul\":7347:7782   */\n      swap4\n      swap3\n      pop\n      pop\n      pop\n      jump\t// out\n        /* \"#utility.yul\":7788:8010   */\n    tag_38:\n        /* \"#utility.yul\":7881:7885   */\n      0x00\n        /* \"#utility.yul\":7919:7921   */\n      0x20\n        /* \"#utility.yul\":7908:7917   */\n      dup3\n        /* \"#utility.yul\":7904:7922   */\n      add\n        /* \"#utility.yul\":7896:7922   */\n      swap1\n      pop\n        /* \"#utility.yul\":7932:8003   */\n      tag_382\n        /* \"#utility.yul\":8000:8001   */\n      0x00\n        /* \"#utility.yul\":7989:7998   */\n      dup4\n        /* \"#utility.yul\":7985:8002   */\n      add\n        /* \"#utility.yul\":7976:7982   */\n      dup5\n        /* \"#utility.yul\":7932:8003   */\n      tag_342\n      jump\t// in\n    tag_382:\n        /* \"#utility.yul\":7788:8010   */\n      swap3\n      swap2\n      pop\n      pop\n      jump\t// out\n        /* \"#utility.yul\":8016:8656   */\n    tag_214:\n        /* \"#utility.yul\":8211:8215   */\n      0x00\n        /* \"#utility.yul\":8249:8252   */\n      0x80\n        /* \"#utility.yul\":8238:8247   */\n      dup3\n        /* \"#utility.yul\":8234:8253   */\n      add\n        /* \"#utility.yul\":8226:8253   */\n      swap1\n      pop\n        /* \"#utility.yul\":8263:8334   */\n      tag_384\n        /* \"#utility.yul\":8331:8332   */\n      0x00\n        /* \"#utility.yul\":8320:8329   */\n      dup4\n        /* \"#utility.yul\":8316:8333   */\n      add\n        /* \"#utility.yul\":8307:8313   */\n      dup8\n        /* \"#utility.yul\":8263:8334   */\n      tag_342\n      jump\t// in\n    tag_384:\n        /* \"#utility.yul\":8344:8416   */\n      tag_385\n        /* \"#utility.yul\":8412:8414   */\n      0x20\n        /* \"#utility.yul\":8401:8410   */\n      dup4\n        /* \"#utility.yul\":8397:8415   */\n      add\n        /* \"#utility.yul\":8388:8394   */\n      dup7\n        /* \"#utility.yul\":8344:8416   */\n      tag_342\n      jump\t// in\n    tag_385:\n        /* \"#utility.yul\":8426:8498   */\n      tag_386\n        /* \"#utility.yul\":8494:8496   */\n      0x40\n        /* \"#utility.yul\":8483:8492   */\n      dup4\n        /* \"#utility.yul\":8479:8497   */\n      add\n        /* \"#utility.yul\":8470:8476   */\n      dup6\n        /* \"#utility.yul\":8426:8498   */\n      tag_374\n      jump\t// in\n    tag_386:\n        /* \"#utility.yul\":8545:8554   */\n      dup2\n        /* \"#utility.yul\":8539:8543   */\n      dup2\n        /* \"#utility.yul\":8535:8555   */\n      sub\n        /* \"#utility.yul\":8530:8532   */\n      0x60\n        /* \"#utility.yul\":8519:8528   */\n      dup4\n        /* \"#utility.yul\":8515:8533   */\n      add\n        /* \"#utility.yul\":8508:8556   */\n      mstore\n        /* \"#utility.yul\":8573:8649   */\n      tag_387\n        /* \"#utility.yul\":8644:8648   */\n      dup2\n        /* \"#utility.yul\":8635:8641   */\n      dup5\n        /* \"#utility.yul\":8573:8649   */\n      tag_350\n      jump\t// in\n    tag_387:\n        /* \"#utility.yul\":8565:8649   */\n      swap1\n      pop\n        /* \"#utility.yul\":8016:8656   */\n      swap6\n      swap5\n      pop\n      pop\n      pop\n      pop\n      pop\n      jump\t// out\n        /* \"#utility.yul\":8662:8872   */\n    tag_26:\n        /* \"#utility.yul\":8749:8753   */\n      0x00\n        /* \"#utility.yul\":8787:8789   */\n      0x20\n        /* \"#utility.yul\":8776:8785   */\n      dup3\n        /* \"#utility.yul\":8772:8790   */\n      add\n        /* \"#utility.yul\":8764:8790   */\n      swap1\n      pop\n        /* \"#utility.yul\":8800:8865   */\n      tag_389\n        /* \"#utility.yul\":8862:8863   */\n      0x00\n        /* \"#utility.yul\":8851:8860   */\n      dup4\n        /* \"#utility.yul\":8847:8864   */\n      add\n        /* \"#utility.yul\":8838:8844   */\n      dup5\n        /* \"#utility.yul\":8800:8865   */\n      tag_346\n      jump\t// in\n    tag_389:\n        /* \"#utility.yul\":8662:8872   */\n      swap3\n      swap2\n      pop\n      pop\n      jump\t// out\n        /* \"#utility.yul\":8878:9191   */\n    tag_31:\n        /* \"#utility.yul\":8991:8995   */\n      0x00\n        /* \"#utility.yul\":9029:9031   */\n      0x20\n        /* \"#utility.yul\":9018:9027   */\n      dup3\n        /* \"#utility.yul\":9014:9032   */\n      add\n        /* \"#utility.yul\":9006:9032   */\n      swap1\n      pop\n        /* \"#utility.yul\":9078:9087   */\n      dup2\n        /* \"#utility.yul\":9072:9076   */\n      dup2\n        /* \"#utility.yul\":9068:9088   */\n      sub\n        /* \"#utility.yul\":9064:9065   */\n      0x00\n        /* \"#utility.yul\":9053:9062   */\n      dup4\n        /* \"#utility.yul\":9049:9066   */\n      add\n        /* \"#utility.yul\":9042:9089   */\n      mstore\n        /* \"#utility.yul\":9106:9184   */\n      tag_391\n        /* \"#utility.yul\":9179:9183   */\n      dup2\n        /* \"#utility.yul\":9170:9176   */\n      dup5\n        /* \"#utility.yul\":9106:9184   */\n      tag_360\n      jump\t// in\n    tag_391:\n        /* \"#utility.yul\":9098:9184   */\n      swap1\n      pop\n        /* \"#utility.yul\":8878:9191   */\n      swap3\n      swap2\n      pop\n      pop\n      jump\t// out\n        /* \"#utility.yul\":9197:9419   */\n    tag_48:\n        /* \"#utility.yul\":9290:9294   */\n      0x00\n        /* \"#utility.yul\":9328:9330   */\n      0x20\n        /* \"#utility.yul\":9317:9326   */\n      dup3\n        /* \"#utility.yul\":9313:9331   */\n      add\n        /* \"#utility.yul\":9305:9331   */\n      swap1\n      pop\n        /* \"#utility.yul\":9341:9412   */\n      tag_393\n        /* \"#utility.yul\":9409:9410   */\n      0x00\n        /* \"#utility.yul\":9398:9407   */\n      dup4\n        /* \"#utility.yul\":9394:9411   */\n      add\n        /* \"#utility.yul\":9385:9391   */\n      dup5\n        /* \"#utility.yul\":9341:9412   */\n      tag_374\n      jump\t// in\n    tag_393:\n        /* \"#utility.yul\":9197:9419   */\n      swap3\n      swap2\n      pop\n      pop\n      jump\t// out\n        /* \"#utility.yul\":9425:9554   */\n    tag_263:\n        /* \"#utility.yul\":9459:9465   */\n      0x00\n        /* \"#utility.yul\":9486:9506   */\n      tag_395\n      tag_396\n      jump\t// in\n    tag_395:\n        /* \"#utility.yul\":9476:9506   */\n      swap1\n      pop\n        /* \"#utility.yul\":9515:9548   */\n      tag_397\n        /* \"#utility.yul\":9543:9547   */\n      dup3\n        /* \"#utility.yul\":9535:9541   */\n      dup3\n        /* \"#utility.yul\":9515:9548   */\n      tag_398\n      jump\t// in\n    tag_397:\n        /* \"#utility.yul\":9425:9554   */\n      swap2\n      swap1\n      pop\n      jump\t// out\n        /* \"#utility.yul\":9560:9635   */\n    tag_396:\n        /* \"#utility.yul\":9593:9599   */\n      0x00\n        /* \"#utility.yul\":9626:9628   */\n      0x40\n        /* \"#utility.yul\":9620:9629   */\n      mload\n        /* \"#utility.yul\":9610:9629   */\n      swap1\n      pop\n        /* \"#utility.yul\":9560:9635   */\n      swap1\n      jump\t// out\n        /* \"#utility.yul\":9641:9948   */\n    tag_262:\n        /* \"#utility.yul\":9702:9706   */\n      0x00\n        /* \"#utility.yul\":9792:9810   */\n      0xffffffffffffffff\n        /* \"#utility.yul\":9784:9790   */\n      dup3\n        /* \"#utility.yul\":9781:9811   */\n      gt\n        /* \"#utility.yul\":9778:9834   */\n      iszero\n      tag_401\n      jumpi\n        /* \"#utility.yul\":9814:9832   */\n      tag_402\n      tag_403\n      jump\t// in\n    tag_402:\n        /* \"#utility.yul\":9778:9834   */\n    tag_401:\n        /* \"#utility.yul\":9852:9881   */\n      tag_404\n        /* \"#utility.yul\":9874:9880   */\n      dup3\n        /* \"#utility.yul\":9852:9881   */\n      tag_359\n      jump\t// in\n    tag_404:\n        /* \"#utility.yul\":9844:9881   */\n      swap1\n      pop\n        /* \"#utility.yul\":9936:9940   */\n      0x20\n        /* \"#utility.yul\":9930:9934   */\n      dup2\n        /* \"#utility.yul\":9926:9941   */\n      add\n        /* \"#utility.yul\":9918:9941   */\n      swap1\n      pop\n        /* \"#utility.yul\":9641:9948   */\n      swap2\n      swap1\n      pop\n      jump\t// out\n        /* \"#utility.yul\":9954:10052   */\n    tag_353:\n        /* \"#utility.yul\":10005:10011   */\n      0x00\n        /* \"#utility.yul\":10039:10044   */\n      dup2\n        /* \"#utility.yul\":10033:10045   */\n      mload\n        /* \"#utility.yul\":10023:10045   */\n      swap1\n      pop\n        /* \"#utility.yul\":9954:10052   */\n      swap2\n      swap1\n      pop\n      jump\t// out\n        /* \"#utility.yul\":10058:10157   */\n    tag_363:\n        /* \"#utility.yul\":10110:10116   */\n      0x00\n        /* \"#utility.yul\":10144:10149   */\n      dup2\n        /* \"#utility.yul\":10138:10150   */\n      mload\n        /* \"#utility.yul\":10128:10150   */\n      swap1\n      pop\n        /* \"#utility.yul\":10058:10157   */\n      swap2\n      swap1\n      pop\n      jump\t// out\n        /* \"#utility.yul\":10163:10331   */\n    tag_355:\n        /* \"#utility.yul\":10246:10257   */\n      0x00\n        /* \"#utility.yul\":10280:10286   */\n      dup3\n        /* \"#utility.yul\":10275:10278   */\n      dup3\n        /* \"#utility.yul\":10268:10287   */\n      mstore\n        /* \"#utility.yul\":10320:10324   */\n      0x20\n        /* \"#utility.yul\":10315:10318   */\n      dup3\n        /* \"#utility.yul\":10311:10325   */\n      add\n        /* \"#utility.yul\":10296:10325   */\n      swap1\n      pop\n        /* \"#utility.yul\":10163:10331   */\n      swap3\n      swap2\n      pop\n      pop\n      jump\t// out\n        /* \"#utility.yul\":10337:10506   */\n    tag_365:\n        /* \"#utility.yul\":10421:10432   */\n      0x00\n        /* \"#utility.yul\":10455:10461   */\n      dup3\n        /* \"#utility.yul\":10450:10453   */\n      dup3\n        /* \"#utility.yul\":10443:10462   */\n      mstore\n        /* \"#utility.yul\":10495:10499   */\n      0x20\n        /* \"#utility.yul\":10490:10493   */\n      dup3\n        /* \"#utility.yul\":10486:10500   */\n      add\n        /* \"#utility.yul\":10471:10500   */\n      swap1\n      pop\n        /* \"#utility.yul\":10337:10506   */\n      swap3\n      swap2\n      pop\n      pop\n      jump\t// out\n        /* \"#utility.yul\":10512:10660   */\n    tag_372:\n        /* \"#utility.yul\":10614:10625   */\n      0x00\n        /* \"#utility.yul\":10651:10654   */\n      dup2\n        /* \"#utility.yul\":10636:10654   */\n      swap1\n      pop\n        /* \"#utility.yul\":10512:10660   */\n      swap3\n      swap2\n      pop\n      pop\n      jump\t// out\n        /* \"#utility.yul\":10666:10762   */\n    tag_345:\n        /* \"#utility.yul\":10703:10710   */\n      0x00\n        /* \"#utility.yul\":10732:10756   */\n      tag_411\n        /* \"#utility.yul\":10750:10755   */\n      dup3\n        /* \"#utility.yul\":10732:10756   */\n      tag_412\n      jump\t// in\n    tag_411:\n        /* \"#utility.yul\":10721:10756   */\n      swap1\n      pop\n        /* \"#utility.yul\":10666:10762   */\n      swap2\n      swap1\n      pop\n      jump\t// out\n        /* \"#utility.yul\":10768:10858   */\n    tag_349:\n        /* \"#utility.yul\":10802:10809   */\n      0x00\n        /* \"#utility.yul\":10845:10850   */\n      dup2\n        /* \"#utility.yul\":10838:10851   */\n      iszero\n        /* \"#utility.yul\":10831:10852   */\n      iszero\n        /* \"#utility.yul\":10820:10852   */\n      swap1\n      pop\n        /* \"#utility.yul\":10768:10858   */\n      swap2\n      swap1\n      pop\n      jump\t// out\n        /* \"#utility.yul\":10864:11013   */\n    tag_414:\n        /* \"#utility.yul\":10900:10907   */\n      0x00\n        /* \"#utility.yul\":10940:11006   */\n      0xffffffff00000000000000000000000000000000000000000000000000000000\n        /* \"#utility.yul\":10933:10938   */\n      dup3\n        /* \"#utility.yul\":10929:11007   */\n      and\n        /* \"#utility.yul\":10918:11007   */\n      swap1\n      pop\n        /* \"#utility.yul\":10864:11013   */\n      swap2\n      swap1\n      pop\n      jump\t// out\n        /* \"#utility.yul\":11019:11145   */\n    tag_412:\n        /* \"#utility.yul\":11056:11063   */\n      0x00\n        /* \"#utility.yul\":11096:11138   */\n      0xffffffffffffffffffffffffffffffffffffffff\n        /* \"#utility.yul\":11089:11094   */\n      dup3\n        /* \"#utility.yul\":11085:11139   */\n      and\n        /* \"#utility.yul\":11074:11139   */\n      swap1\n      pop\n        /* \"#utility.yul\":11019:11145   */\n      swap2\n      swap1\n      pop\n      jump\t// out\n        /* \"#utility.yul\":11151:11228   */\n    tag_377:\n        /* \"#utility.yul\":11188:11195   */\n      0x00\n        /* \"#utility.yul\":11217:11222   */\n      dup2\n        /* \"#utility.yul\":11206:11222   */\n      swap1\n      pop\n        /* \"#utility.yul\":11151:11228   */\n      swap2\n      swap1\n      pop\n      jump\t// out\n        /* \"#utility.yul\":11234:11388   */\n    tag_268:\n        /* \"#utility.yul\":11318:11324   */\n      dup3\n        /* \"#utility.yul\":11313:11316   */\n      dup2\n        /* \"#utility.yul\":11308:11311   */\n      dup4\n        /* \"#utility.yul\":11295:11325   */\n      calldatacopy\n        /* \"#utility.yul\":11380:11381   */\n      0x00\n        /* \"#utility.yul\":11371:11377   */\n      dup4\n        /* \"#utility.yul\":11366:11369   */\n      dup4\n        /* \"#utility.yul\":11362:11378   */\n      add\n        /* \"#utility.yul\":11355:11382   */\n      mstore\n        /* \"#utility.yul\":11234:11388   */\n      pop\n      pop\n      pop\n      jump\t// out\n        /* \"#utility.yul\":11394:11701   */\n    tag_357:\n        /* \"#utility.yul\":11462:11463   */\n      0x00\n        /* \"#utility.yul\":11472:11585   */\n    tag_420:\n        /* \"#utility.yul\":11486:11492   */\n      dup4\n        /* \"#utility.yul\":11483:11484   */\n      dup2\n        /* \"#utility.yul\":11480:11493   */\n      lt\n        /* \"#utility.yul\":11472:11585   */\n      iszero\n      tag_422\n      jumpi\n        /* \"#utility.yul\":11571:11572   */\n      dup1\n        /* \"#utility.yul\":11566:11569   */\n      dup3\n        /* \"#utility.yul\":11562:11573   */\n      add\n        /* \"#utility.yul\":11556:11574   */\n      mload\n        /* \"#utility.yul\":11552:11553   */\n      dup2\n        /* \"#utility.yul\":11547:11550   */\n      dup5\n        /* \"#utility.yul\":11543:11554   */\n      add\n        /* \"#utility.yul\":11536:11575   */\n      mstore\n        /* \"#utility.yul\":11508:11510   */\n      0x20\n        /* \"#utility.yul\":11505:11506   */\n      dup2\n        /* \"#utility.yul\":11501:11511   */\n      add\n        /* \"#utility.yul\":11496:11511   */\n      swap1\n      pop\n        /* \"#utility.yul\":11472:11585   */\n      jump(tag_420)\n    tag_422:\n        /* \"#utility.yul\":11603:11609   */\n      dup4\n        /* \"#utility.yul\":11600:11601   */\n      dup2\n        /* \"#utility.yul\":11597:11610   */\n      gt\n        /* \"#utility.yul\":11594:11695   */\n      iszero\n      tag_423\n      jumpi\n        /* \"#utility.yul\":11683:11684   */\n      0x00\n        /* \"#utility.yul\":11674:11680   */\n      dup5\n        /* \"#utility.yul\":11669:11672   */\n      dup5\n        /* \"#utility.yul\":11665:11681   */\n      add\n        /* \"#utility.yul\":11658:11685   */\n      mstore\n        /* \"#utility.yul\":11594:11695   */\n    tag_423:\n        /* \"#utility.yul\":11443:11701   */\n      pop\n        /* \"#utility.yul\":11394:11701   */\n      pop\n      pop\n      pop\n      jump\t// out\n        /* \"#utility.yul\":11707:12027   */\n    tag_102:\n        /* \"#utility.yul\":11751:11757   */\n      0x00\n        /* \"#utility.yul\":11788:11789   */\n      0x02\n        /* \"#utility.yul\":11782:11786   */\n      dup3\n        /* \"#utility.yul\":11778:11790   */\n      div\n        /* \"#utility.yul\":11768:11790   */\n      swap1\n      pop\n        /* \"#utility.yul\":11835:11836   */\n      0x01\n        /* \"#utility.yul\":11829:11833   */\n      dup3\n        /* \"#utility.yul\":11825:11837   */\n      and\n        /* \"#utility.yul\":11856:11874   */\n      dup1\n        /* \"#utility.yul\":11846:11927   */\n      tag_425\n      jumpi\n        /* \"#utility.yul\":11912:11916   */\n      0x7f\n        /* \"#utility.yul\":11904:11910   */\n      dup3\n        /* \"#utility.yul\":11900:11917   */\n      and\n        /* \"#utility.yul\":11890:11917   */\n      swap2\n      pop\n        /* \"#utility.yul\":11846:11927   */\n    tag_425:\n        /* \"#utility.yul\":11974:11976   */\n      0x20\n        /* \"#utility.yul\":11966:11972   */\n      dup3\n        /* \"#utility.yul\":11963:11977   */\n      lt\n        /* \"#utility.yul\":11943:11961   */\n      dup2\n        /* \"#utility.yul\":11940:11978   */\n      eq\n        /* \"#utility.yul\":11937:12021   */\n      iszero\n      tag_426\n      jumpi\n        /* \"#utility.yul\":11993:12011   */\n      tag_427\n      tag_428\n      jump\t// in\n    tag_427:\n        /* \"#utility.yul\":11937:12021   */\n    tag_426:\n        /* \"#utility.yul\":11758:12027   */\n      pop\n        /* \"#utility.yul\":11707:12027   */\n      swap2\n      swap1\n      pop\n      jump\t// out\n        /* \"#utility.yul\":12033:12314   */\n    tag_398:\n        /* \"#utility.yul\":12116:12143   */\n      tag_430\n        /* \"#utility.yul\":12138:12142   */\n      dup3\n        /* \"#utility.yul\":12116:12143   */\n      tag_359\n      jump\t// in\n    tag_430:\n        /* \"#utility.yul\":12108:12114   */\n      dup2\n        /* \"#utility.yul\":12104:12144   */\n      add\n        /* \"#utility.yul\":12246:12252   */\n      dup2\n        /* \"#utility.yul\":12234:12244   */\n      dup2\n        /* \"#utility.yul\":12231:12253   */\n      lt\n        /* \"#utility.yul\":12210:12228   */\n      0xffffffffffffffff\n        /* \"#utility.yul\":12198:12208   */\n      dup3\n        /* \"#utility.yul\":12195:12229   */\n      gt\n        /* \"#utility.yul\":12192:12254   */\n      or\n        /* \"#utility.yul\":12189:12277   */\n      iszero\n      tag_431\n      jumpi\n        /* \"#utility.yul\":12257:12275   */\n      tag_432\n      tag_403\n      jump\t// in\n    tag_432:\n        /* \"#utility.yul\":12189:12277   */\n    tag_431:\n        /* \"#utility.yul\":12297:12307   */\n      dup1\n        /* \"#utility.yul\":12293:12295   */\n      0x40\n        /* \"#utility.yul\":12286:12308   */\n      mstore\n        /* \"#utility.yul\":12076:12314   */\n      pop\n        /* \"#utility.yul\":12033:12314   */\n      pop\n      pop\n      jump\t// out\n        /* \"#utility.yul\":12320:12500   */\n    tag_428:\n        /* \"#utility.yul\":12368:12445   */\n      0x4e487b7100000000000000000000000000000000000000000000000000000000\n        /* \"#utility.yul\":12365:12366   */\n      0x00\n        /* \"#utility.yul\":12358:12446   */\n      mstore\n        /* \"#utility.yul\":12465:12469   */\n      0x22\n        /* \"#utility.yul\":12462:12463   */\n      0x04\n        /* \"#utility.yul\":12455:12470   */\n      mstore\n        /* \"#utility.yul\":12489:12493   */\n      0x24\n        /* \"#utility.yul\":12486:12487   */\n      0x00\n        /* \"#utility.yul\":12479:12494   */\n      revert\n        /* \"#utility.yul\":12506:12686   */\n    tag_403:\n        /* \"#utility.yul\":12554:12631   */\n      0x4e487b7100000000000000000000000000000000000000000000000000000000\n        /* \"#utility.yul\":12551:12552   */\n      0x00\n        /* \"#utility.yul\":12544:12632   */\n      mstore\n        /* \"#utility.yul\":12651:12655   */\n      0x41\n        /* \"#utility.yul\":12648:12649   */\n      0x04\n        /* \"#utility.yul\":12641:12656   */\n      mstore\n        /* \"#utility.yul\":12675:12679   */\n      0x24\n        /* \"#utility.yul\":12672:12673   */\n      0x00\n        /* \"#utility.yul\":12665:12680   */\n      revert\n        /* \"#utility.yul\":12692:12809   */\n    tag_288:\n        /* \"#utility.yul\":12801:12802   */\n      0x00\n        /* \"#utility.yul\":12798:12799   */\n      dup1\n        /* \"#utility.yul\":12791:12803   */\n      revert\n        /* \"#utility.yul\":12815:12932   */\n    tag_266:\n        /* \"#utility.yul\":12924:12925   */\n      0x00\n        /* \"#utility.yul\":12921:12922   */\n      dup1\n        /* \"#utility.yul\":12914:12926   */\n      revert\n        /* \"#utility.yul\":12938:13055   */\n    tag_318:\n        /* \"#utility.yul\":13047:13048   */\n      0x00\n        /* \"#utility.yul\":13044:13045   */\n      dup1\n        /* \"#utility.yul\":13037:13049   */\n      revert\n        /* \"#utility.yul\":13061:13178   */\n    tag_297:\n        /* \"#utility.yul\":13170:13171   */\n      0x00\n        /* \"#utility.yul\":13167:13168   */\n      dup1\n        /* \"#utility.yul\":13160:13172   */\n      revert\n        /* \"#utility.yul\":13184:13286   */\n    tag_359:\n        /* \"#utility.yul\":13225:13231   */\n      0x00\n        /* \"#utility.yul\":13276:13278   */\n      0x1f\n        /* \"#utility.yul\":13272:13279   */\n      not\n        /* \"#utility.yul\":13267:13269   */\n      0x1f\n        /* \"#utility.yul\":13260:13265   */\n      dup4\n        /* \"#utility.yul\":13256:13270   */\n      add\n        /* \"#utility.yul\":13252:13280   */\n      and\n        /* \"#utility.yul\":13242:13280   */\n      swap1\n      pop\n        /* \"#utility.yul\":13184:13286   */\n      swap2\n      swap1\n      pop\n      jump\t// out\n        /* \"#utility.yul\":13292:13414   */\n    tag_272:\n        /* \"#utility.yul\":13365:13389   */\n      tag_441\n        /* \"#utility.yul\":13383:13388   */\n      dup2\n        /* \"#utility.yul\":13365:13389   */\n      tag_345\n      jump\t// in\n    tag_441:\n        /* \"#utility.yul\":13358:13363   */\n      dup2\n        /* \"#utility.yul\":13355:13390   */\n      eq\n        /* \"#utility.yul\":13345:13408   */\n      tag_442\n      jumpi\n        /* \"#utility.yul\":13404:13405   */\n      0x00\n        /* \"#utility.yul\":13401:13402   */\n      dup1\n        /* \"#utility.yul\":13394:13406   */\n      revert\n        /* \"#utility.yul\":13345:13408   */\n    tag_442:\n        /* \"#utility.yul\":13292:13414   */\n      pop\n      jump\t// out\n        /* \"#utility.yul\":13420:13536   */\n    tag_276:\n        /* \"#utility.yul\":13490:13511   */\n      tag_444\n        /* \"#utility.yul\":13505:13510   */\n      dup2\n        /* \"#utility.yul\":13490:13511   */\n      tag_349\n      jump\t// in\n    tag_444:\n        /* \"#utility.yul\":13483:13488   */\n      dup2\n        /* \"#utility.yul\":13480:13512   */\n      eq\n        /* \"#utility.yul\":13470:13530   */\n      tag_445\n      jumpi\n        /* \"#utility.yul\":13526:13527   */\n      0x00\n        /* \"#utility.yul\":13523:13524   */\n      dup1\n        /* \"#utility.yul\":13516:13528   */\n      revert\n        /* \"#utility.yul\":13470:13530   */\n    tag_445:\n        /* \"#utility.yul\":13420:13536   */\n      pop\n      jump\t// out\n        /* \"#utility.yul\":13542:13662   */\n    tag_280:\n        /* \"#utility.yul\":13614:13637   */\n      tag_447\n        /* \"#utility.yul\":13631:13636   */\n      dup2\n        /* \"#utility.yul\":13614:13637   */\n      tag_414\n      jump\t// in\n    tag_447:\n        /* \"#utility.yul\":13607:13612   */\n      dup2\n        /* \"#utility.yul\":13604:13638   */\n      eq\n        /* \"#utility.yul\":13594:13656   */\n      tag_448\n      jumpi\n        /* \"#utility.yul\":13652:13653   */\n      0x00\n        /* \"#utility.yul\":13649:13650   */\n      dup1\n        /* \"#utility.yul\":13642:13654   */\n      revert\n        /* \"#utility.yul\":13594:13656   */\n    tag_448:\n        /* \"#utility.yul\":13542:13662   */\n      pop\n      jump\t// out\n        /* \"#utility.yul\":13668:13790   */\n    tag_293:\n        /* \"#utility.yul\":13741:13765   */\n      tag_450\n        /* \"#utility.yul\":13759:13764   */\n      dup2\n        /* \"#utility.yul\":13741:13765   */\n      tag_377\n      jump\t// in\n    tag_450:\n        /* \"#utility.yul\":13734:13739   */\n      dup2\n        /* \"#utility.yul\":13731:13766   */\n      eq\n        /* \"#utility.yul\":13721:13784   */\n      tag_451\n      jumpi\n        /* \"#utility.yul\":13780:13781   */\n      0x00\n        /* \"#utility.yul\":13777:13778   */\n      dup1\n        /* \"#utility.yul\":13770:13782   */\n      revert\n        /* \"#utility.yul\":13721:13784   */\n    tag_451:\n        /* \"#utility.yul\":13668:13790   */\n      pop\n      jump\t// out\n\n    auxdata: 0xa2646970667358221220d1d5fbf681d4525c216ecb284c0ab2f758db70a21475536f2e912acd42b617ff64736f6c63430008070033\n}\n",
				"bytecode": {
					"linkReferences": {},
					"object": "60806040523480156200001157600080fd5b506040518060400160405280600581526020017f417a756b690000000000000000000000000000000000000000000000000000008152506040518060400160405280600581526020017f415a554b49000000000000000000000000000000000000000000000000000000815250816002908051906020019062000096929190620000d3565b508060039080519060200190620000af929190620000d3565b50620000c0620000ce60201b60201c565b6000819055505050620001e8565b600090565b828054620000e19062000183565b90600052602060002090601f01602090048101928262000105576000855562000151565b82601f106200012057805160ff191683800117855562000151565b8280016001018555821562000151579182015b828111156200015057825182559160200191906001019062000133565b5b50905062000160919062000164565b5090565b5b808211156200017f57600081600090555060010162000165565b5090565b600060028204905060018216806200019c57607f821691505b60208210811415620001b357620001b2620001b9565b5b50919050565b7f4e487b7100000000000000000000000000000000000000000000000000000000600052602260045260246000fd5b611c9f80620001f86000396000f3fe6080604052600436106100e85760003560e01c80636352211e1161008a578063a22cb46511610059578063a22cb465146102f9578063b88d4fde14610322578063c87b56dd1461034b578063e985e9c514610388576100e8565b80636352211e1461023857806370a082311461027557806395d89b41146102b2578063a0712d68146102dd576100e8565b8063095ea7b3116100c6578063095ea7b31461019257806318160ddd146101bb57806323b872dd146101e657806342842e0e1461020f576100e8565b806301ffc9a7146100ed57806306fdde031461012a578063081812fc14610155575b600080fd5b3480156100f957600080fd5b50610114600480360381019061010f919061179e565b6103c5565b6040516101219190611980565b60405180910390f35b34801561013657600080fd5b5061013f610457565b60405161014c919061199b565b60405180910390f35b34801561016157600080fd5b5061017c600480360381019061017791906117f8565b6104e9565b6040516101899190611919565b60405180910390f35b34801561019e57600080fd5b506101b960048036038101906101b4919061175e565b610565565b005b3480156101c757600080fd5b506101d06106a6565b6040516101dd91906119bd565b60405180910390f35b3480156101f257600080fd5b5061020d60048036038101906102089190611648565b6106bd565b005b34801561021b57600080fd5b5061023660048036038101906102319190611648565b6109e2565b005b34801561024457600080fd5b5061025f600480360381019061025a91906117f8565b610a02565b60405161026c9190611919565b60405180910390f35b34801561028157600080fd5b5061029c600480360381019061029791906115db565b610a14565b6040516102a991906119bd565b60405180910390f35b3480156102be57600080fd5b506102c7610acd565b6040516102d4919061199b565b60405180910390f35b6102f760048036038101906102f291906117f8565b610b5f565b005b34801561030557600080fd5b50610320600480360381019061031b919061171e565b610b6c565b005b34801561032e57600080fd5b506103496004803603810190610344919061169b565b610ce4565b005b34801561035757600080fd5b50610372600480360381019061036d91906117f8565b610d57565b60405161037f919061199b565b60405180910390f35b34801561039457600080fd5b506103af60048036038101906103aa9190611608565b610df6565b6040516103bc9190611980565b60405180910390f35b60006301ffc9a760e01b827bffffffffffffffffffffffffffffffffffffffffffffffffffffffff1916148061042057506380ac58cd60e01b827bffffffffffffffffffffffffffffffffffffffffffffffffffffffff1916145b806104505750635b5e139f60e01b827bffffffffffffffffffffffffffffffffffffffffffffffffffffffff1916145b9050919050565b60606002805461046690611b27565b80601f016020809104026020016040519081016040528092919081815260200182805461049290611b27565b80156104df5780601f106104b4576101008083540402835291602001916104df565b820191906000526020600020905b8154815290600101906020018083116104c257829003601f168201915b5050505050905090565b60006104f482610e8a565b61052a576040517fcf4700e400000000000000000000000000000000000000000000000000000000815260040160405180910390fd5b6006600083815260200190815260200160002060009054906101000a900473ffffffffffffffffffffffffffffffffffffffff169050919050565b600061057082610a02565b90508073ffffffffffffffffffffffffffffffffffffffff16610591610ee9565b73ffffffffffffffffffffffffffffffffffffffff16146105f4576105bd816105b8610ee9565b610df6565b6105f3576040517fcfb3b94200000000000000000000000000000000000000000000000000000000815260040160405180910390fd5b5b826006600084815260200190815260200160002060006101000a81548173ffffffffffffffffffffffffffffffffffffffff021916908373ffffffffffffffffffffffffffffffffffffffff160217905550818373ffffffffffffffffffffffffffffffffffffffff168273ffffffffffffffffffffffffffffffffffffffff167f8c5be1e5ebec7d5bd14f71427d1e84f3dd0314c0f7b2291e5b200ac8c7c3b92560405160405180910390a4505050565b60006106b0610ef1565b6001546000540303905090565b60006106c882610ef6565b90508373ffffffffffffffffffffffffffffffffffffffff168173ffffffffffffffffffffffffffffffffffffffff161461072f576040517fa114810000000000000000000000000000000000000000000000000000000000815260040160405180910390fd5b60008061073b84610fc4565b91509150610751818761074c610ee9565b610fe6565b61079d5761076686610761610ee9565b610df6565b61079c576040517f59c896be00000000000000000000000000000000000000000000000000000000815260040160405180910390fd5b5b600073ffffffffffffffffffffffffffffffffffffffff168573ffffffffffffffffffffffffffffffffffffffff161415610804576040517fea553b3400000000000000000000000000000000000000000000000000000000815260040160405180910390fd5b610811868686600161102a565b801561081c57600082555b600560008773ffffffffffffffffffffffffffffffffffffffff1673ffffffffffffffffffffffffffffffffffffffff168152602001908152602001600020600081546001900391905081905550600560008673ffffffffffffffffffffffffffffffffffffffff1673ffffffffffffffffffffffffffffffffffffffff16815260200190815260200160002060008154600101919050819055506108ea856108c6888887611030565b7c020000000000000000000000000000000000000000000000000000000017611058565b600460008681526020019081526020016000208190555060007c02000000000000000000000000000000000000000000000000000000008416141561097257600060018501905060006004600083815260200190815260200160002054141561097057600054811461096f578360046000838152602001908152602001600020819055505b5b505b838573ffffffffffffffffffffffffffffffffffffffff168773ffffffffffffffffffffffffffffffffffffffff167fddf252ad1be2c89b69c2b068fc378daa952ba7f163c4a11628f55a4df523b3ef60405160405180910390a46109da8686866001611083565b505050505050565b6109fd83838360405180602001604052806000815250610ce4565b505050565b6000610a0d82610ef6565b9050919050565b60008073ffffffffffffffffffffffffffffffffffffffff168273ffffffffffffffffffffffffffffffffffffffff161415610a7c576040517f8f4eb60400000000000000000000000000000000000000000000000000000000815260040160405180910390fd5b67ffffffffffffffff600560008473ffffffffffffffffffffffffffffffffffffffff1673ffffffffffffffffffffffffffffffffffffffff16815260200190815260200160002054169050919050565b606060038054610adc90611b27565b80601f0160208091040260200160405190810160405280929190818152602001828054610b0890611b27565b8015610b555780601f10610b2a57610100808354040283529160200191610b55565b820191906000526020600020905b815481529060010190602001808311610b3857829003601f168201915b5050505050905090565b610b693382611089565b50565b610b74610ee9565b73ffffffffffffffffffffffffffffffffffffffff168273ffffffffffffffffffffffffffffffffffffffff161415610bd9576040517fb06307db00000000000000000000000000000000000000000000000000000000815260040160405180910390fd5b8060076000610be6610ee9565b73ffffffffffffffffffffffffffffffffffffffff1673ffffffffffffffffffffffffffffffffffffffff16815260200190815260200160002060008473ffffffffffffffffffffffffffffffffffffffff1673ffffffffffffffffffffffffffffffffffffffff16815260200190815260200160002060006101000a81548160ff0219169083151502179055508173ffffffffffffffffffffffffffffffffffffffff16610c93610ee9565b73ffffffffffffffffffffffffffffffffffffffff167f17307eab39ab6107e8899845ad3d59bd9653f200f220920489ca2b5937696c3183604051610cd89190611980565b60405180910390a35050565b610cef8484846106bd565b60008373ffffffffffffffffffffffffffffffffffffffff163b14610d5157610d1a848484846110a7565b610d50576040517fd1a57ed600000000000000000000000000000000000000000000000000000000815260040160405180910390fd5b5b50505050565b6060610d6282610e8a565b610d98576040517fa14c4b5000000000000000000000000000000000000000000000000000000000815260040160405180910390fd5b6000610da2611207565b9050600081511415610dc35760405180602001604052806000815250610dee565b80610dcd8461121e565b604051602001610dde9291906118f5565b6040516020818303038152906040525b915050919050565b6000600760008473ffffffffffffffffffffffffffffffffffffffff1673ffffffffffffffffffffffffffffffffffffffff16815260200190815260200160002060008373ffffffffffffffffffffffffffffffffffffffff1673ffffffffffffffffffffffffffffffffffffffff16815260200190815260200160002060009054906101000a900460ff16905092915050565b600081610e95610ef1565b11158015610ea4575060005482105b8015610ee2575060007c0100000000000000000000000000000000000000000000000000000000600460008581526020019081526020016000205416145b9050919050565b600033905090565b600090565b60008082905080610f05610ef1565b11610f8d57600054811015610f8c5760006004600083815260200190815260200160002054905060007c010000000000000000000000000000000000000000000000000000000082161415610f8a575b6000811415610f80576004600083600190039350838152602001908152602001600020549050610f55565b8092505050610fbf565b505b5b6040517fdf2d9b4200000000000000000000000000000000000000000000000000000000815260040160405180910390fd5b919050565b6000806000600690508360005280602052604060002092508254915050915091565b600073ffffffffffffffffffffffffffffffffffffffff8316925073ffffffffffffffffffffffffffffffffffffffff821691508382148383141790509392505050565b50505050565b60008060e883901c905060e8611047868684611278565b62ffffff16901b9150509392505050565b600073ffffffffffffffffffffffffffffffffffffffff83169250814260a01b178317905092915050565b50505050565b6110a3828260405180602001604052806000815250611281565b5050565b60008373ffffffffffffffffffffffffffffffffffffffff1663150b7a026110cd610ee9565b8786866040518563ffffffff1660e01b81526004016110ef9493929190611934565b602060405180830381600087803b15801561110957600080fd5b505af192505050801561113a57506040513d601f19601f8201168201806040525081019061113791906117cb565b60015b6111b4573d806000811461116a576040519150601f19603f3d011682016040523d82523d6000602084013e61116f565b606091505b506000815114156111ac576040517fd1a57ed600000000000000000000000000000000000000000000000000000000815260040160405180910390fd5b805181602001fd5b63150b7a0260e01b7bffffffffffffffffffffffffffffffffffffffffffffffffffffffff1916817bffffffffffffffffffffffffffffffffffffffffffffffffffffffff191614915050949350505050565b606060405180602001604052806000815250905090565b60606080604051019050806040528082600183039250600a81066030018353600a810490505b801561126457600183039250600a81066030018353600a81049050611244565b508181036020830392508083525050919050565b60009392505050565b61128b838361131e565b60008373ffffffffffffffffffffffffffffffffffffffff163b1461131957600080549050600083820390505b6112cb60008683806001019450866110a7565b611301576040517fd1a57ed600000000000000000000000000000000000000000000000000000000815260040160405180910390fd5b8181106112b857816000541461131657600080fd5b50505b505050565b600080549050600073ffffffffffffffffffffffffffffffffffffffff168373ffffffffffffffffffffffffffffffffffffffff16141561138b576040517f2e07630000000000000000000000000000000000000000000000000000000000815260040160405180910390fd5b60008214156113c6576040517fb562e8dd00000000000000000000000000000000000000000000000000000000815260040160405180910390fd5b6113d3600084838561102a565b600160406001901b178202600560008573ffffffffffffffffffffffffffffffffffffffff1673ffffffffffffffffffffffffffffffffffffffff1681526020019081526020016000206000828254019250508190555061144a8361143b6000866000611030565b611444856114f2565b17611058565b60046000838152602001908152602001600020819055506000819050600083830190505b818060010192508573ffffffffffffffffffffffffffffffffffffffff16600073ffffffffffffffffffffffffffffffffffffffff167fddf252ad1be2c89b69c2b068fc378daa952ba7f163c4a11628f55a4df523b3ef60405160405180910390a480821061146e578060008190555050506114ed6000848385611083565b505050565b60006001821460e11b9050919050565b6000611515611510846119fd565b6119d8565b90508281526020810184848401111561153157611530611bed565b5b61153c848285611ae5565b509392505050565b60008135905061155381611c0d565b92915050565b60008135905061156881611c24565b92915050565b60008135905061157d81611c3b565b92915050565b60008151905061159281611c3b565b92915050565b600082601f8301126115ad576115ac611be8565b5b81356115bd848260208601611502565b91505092915050565b6000813590506115d581611c52565b92915050565b6000602082840312156115f1576115f0611bf7565b5b60006115ff84828501611544565b91505092915050565b6000806040838503121561161f5761161e611bf7565b5b600061162d85828601611544565b925050602061163e85828601611544565b9150509250929050565b60008060006060848603121561166157611660611bf7565b5b600061166f86828701611544565b935050602061168086828701611544565b9250506040611691868287016115c6565b9150509250925092565b600080600080608085870312156116b5576116b4611bf7565b5b60006116c387828801611544565b94505060206116d487828801611544565b93505060406116e5878288016115c6565b925050606085013567ffffffffffffffff81111561170657611705611bf2565b5b61171287828801611598565b91505092959194509250565b6000806040838503121561173557611734611bf7565b5b600061174385828601611544565b925050602061175485828601611559565b9150509250929050565b6000806040838503121561177557611774611bf7565b5b600061178385828601611544565b9250506020611794858286016115c6565b9150509250929050565b6000602082840312156117b4576117b3611bf7565b5b60006117c28482850161156e565b91505092915050565b6000602082840312156117e1576117e0611bf7565b5b60006117ef84828501611583565b91505092915050565b60006020828403121561180e5761180d611bf7565b5b600061181c848285016115c6565b91505092915050565b61182e81611a71565b82525050565b61183d81611a83565b82525050565b600061184e82611a2e565b6118588185611a44565b9350611868818560208601611af4565b61187181611bfc565b840191505092915050565b600061188782611a39565b6118918185611a55565b93506118a1818560208601611af4565b6118aa81611bfc565b840191505092915050565b60006118c082611a39565b6118ca8185611a66565b93506118da818560208601611af4565b80840191505092915050565b6118ef81611adb565b82525050565b600061190182856118b5565b915061190d82846118b5565b91508190509392505050565b600060208201905061192e6000830184611825565b92915050565b60006080820190506119496000830187611825565b6119566020830186611825565b61196360408301856118e6565b81810360608301526119758184611843565b905095945050505050565b60006020820190506119956000830184611834565b92915050565b600060208201905081810360008301526119b5818461187c565b905092915050565b60006020820190506119d260008301846118e6565b92915050565b60006119e26119f3565b90506119ee8282611b59565b919050565b6000604051905090565b600067ffffffffffffffff821115611a1857611a17611bb9565b5b611a2182611bfc565b9050602081019050919050565b600081519050919050565b600081519050919050565b600082825260208201905092915050565b600082825260208201905092915050565b600081905092915050565b6000611a7c82611abb565b9050919050565b60008115159050919050565b60007fffffffff0000000000000000000000000000000000000000000000000000000082169050919050565b600073ffffffffffffffffffffffffffffffffffffffff82169050919050565b6000819050919050565b82818337600083830152505050565b60005b83811015611b12578082015181840152602081019050611af7565b83811115611b21576000848401525b50505050565b60006002820490506001821680611b3f57607f821691505b60208210811415611b5357611b52611b8a565b5b50919050565b611b6282611bfc565b810181811067ffffffffffffffff82111715611b8157611b80611bb9565b5b80604052505050565b7f4e487b7100000000000000000000000000000000000000000000000000000000600052602260045260246000fd5b7f4e487b7100000000000000000000000000000000000000000000000000000000600052604160045260246000fd5b600080fd5b600080fd5b600080fd5b600080fd5b6000601f19601f8301169050919050565b611c1681611a71565b8114611c2157600080fd5b50565b611c2d81611a83565b8114611c3857600080fd5b50565b611c4481611a8f565b8114611c4f57600080fd5b50565b611c5b81611adb565b8114611c6657600080fd5b5056fea2646970667358221220d1d5fbf681d4525c216ecb284c0ab2f758db70a21475536f2e912acd42b617ff64736f6c63430008070033",
					"opcodes": "PUSH1 0x80 PUSH1 0x40 MSTORE CALLVALUE DUP1 ISZERO PUSH3 0x11 JUMPI PUSH1 0x0 DUP1 REVERT JUMPDEST POP PUSH1 0x40 MLOAD DUP1 PUSH1 0x40 ADD PUSH1 0x40 MSTORE DUP1 PUSH1 0x5 DUP2 MSTORE PUSH1 0x20 ADD PUSH32 0x417A756B69000000000000000000000000000000000000000000000000000000 DUP2 MSTORE POP PUSH1 0x40 MLOAD DUP1 PUSH1 0x40 ADD PUSH1 0x40 MSTORE DUP1 PUSH1 0x5 DUP2 MSTORE PUSH1 0x20 ADD PUSH32 0x415A554B49000000000000000000000000000000000000000000000000000000 DUP2 MSTORE POP DUP2 PUSH1 0x2 SWAP1 DUP1 MLOAD SWAP1 PUSH1 0x20 ADD SWAP1 PUSH3 0x96 SWAP3 SWAP2 SWAP1 PUSH3 0xD3 JUMP JUMPDEST POP DUP1 PUSH1 0x3 SWAP1 DUP1 MLOAD SWAP1 PUSH1 0x20 ADD SWAP1 PUSH3 0xAF SWAP3 SWAP2 SWAP1 PUSH3 0xD3 JUMP JUMPDEST POP PUSH3 0xC0 PUSH3 0xCE PUSH1 0x20 SHL PUSH1 0x20 SHR JUMP JUMPDEST PUSH1 0x0 DUP2 SWAP1 SSTORE POP POP POP PUSH3 0x1E8 JUMP JUMPDEST PUSH1 0x0 SWAP1 JUMP JUMPDEST DUP3 DUP1 SLOAD PUSH3 0xE1 SWAP1 PUSH3 0x183 JUMP JUMPDEST SWAP1 PUSH1 0x0 MSTORE PUSH1 0x20 PUSH1 0x0 KECCAK256 SWAP1 PUSH1 0x1F ADD PUSH1 0x20 SWAP1 DIV DUP2 ADD SWAP3 DUP3 PUSH3 0x105 JUMPI PUSH1 0x0 DUP6 SSTORE PUSH3 0x151 JUMP JUMPDEST DUP3 PUSH1 0x1F LT PUSH3 0x120 JUMPI DUP1 MLOAD PUSH1 0xFF NOT AND DUP4 DUP1 ADD OR DUP6 SSTORE PUSH3 0x151 JUMP JUMPDEST DUP3 DUP1 ADD PUSH1 0x1 ADD DUP6 SSTORE DUP3 ISZERO PUSH3 0x151 JUMPI SWAP2 DUP3 ADD JUMPDEST DUP3 DUP2 GT ISZERO PUSH3 0x150 JUMPI DUP3 MLOAD DUP3 SSTORE SWAP2 PUSH1 0x20 ADD SWAP2 SWAP1 PUSH1 0x1 ADD SWAP1 PUSH3 0x133 JUMP JUMPDEST JUMPDEST POP SWAP1 POP PUSH3 0x160 SWAP2 SWAP1 PUSH3 0x164 JUMP JUMPDEST POP SWAP1 JUMP JUMPDEST JUMPDEST DUP1 DUP3 GT ISZERO PUSH3 0x17F JUMPI PUSH1 0x0 DUP2 PUSH1 0x0 SWAP1 SSTORE POP PUSH1 0x1 ADD PUSH3 0x165 JUMP JUMPDEST POP SWAP1 JUMP JUMPDEST PUSH1 0x0 PUSH1 0x2 DUP3 DIV SWAP1 POP PUSH1 0x1 DUP3 AND DUP1 PUSH3 0x19C JUMPI PUSH1 0x7F DUP3 AND SWAP2 POP JUMPDEST PUSH1 0x20 DUP3 LT DUP2 EQ ISZERO PUSH3 0x1B3 JUMPI PUSH3 0x1B2 PUSH3 0x1B9 JUMP JUMPDEST JUMPDEST POP SWAP2 SWAP1 POP JUMP JUMPDEST PUSH32 0x4E487B7100000000000000000000000000000000000000000000000000000000 PUSH1 0x0 MSTORE PUSH1 0x22 PUSH1 0x4 MSTORE PUSH1 0x24 PUSH1 0x0 REVERT JUMPDEST PUSH2 0x1C9F DUP1 PUSH3 0x1F8 PUSH1 0x0 CODECOPY PUSH1 0x0 RETURN INVALID PUSH1 0x80 PUSH1 0x40 MSTORE PUSH1 0x4 CALLDATASIZE LT PUSH2 0xE8 JUMPI PUSH1 0x0 CALLDATALOAD PUSH1 0xE0 SHR DUP1 PUSH4 0x6352211E GT PUSH2 0x8A JUMPI DUP1 PUSH4 0xA22CB465 GT PUSH2 0x59 JUMPI DUP1 PUSH4 0xA22CB465 EQ PUSH2 0x2F9 JUMPI DUP1 PUSH4 0xB88D4FDE EQ PUSH2 0x322 JUMPI DUP1 PUSH4 0xC87B56DD EQ PUSH2 0x34B JUMPI DUP1 PUSH4 0xE985E9C5 EQ PUSH2 0x388 JUMPI PUSH2 0xE8 JUMP JUMPDEST DUP1 PUSH4 0x6352211E EQ PUSH2 0x238 JUMPI DUP1 PUSH4 0x70A08231 EQ PUSH2 0x275 JUMPI DUP1 PUSH4 0x95D89B41 EQ PUSH2 0x2B2 JUMPI DUP1 PUSH4 0xA0712D68 EQ PUSH2 0x2DD JUMPI PUSH2 0xE8 JUMP JUMPDEST DUP1 PUSH4 0x95EA7B3 GT PUSH2 0xC6 JUMPI DUP1 PUSH4 0x95EA7B3 EQ PUSH2 0x192 JUMPI DUP1 PUSH4 0x18160DDD EQ PUSH2 0x1BB JUMPI DUP1 PUSH4 0x23B872DD EQ PUSH2 0x1E6 JUMPI DUP1 PUSH4 0x42842E0E EQ PUSH2 0x20F JUMPI PUSH2 0xE8 JUMP JUMPDEST DUP1 PUSH4 0x1FFC9A7 EQ PUSH2 0xED JUMPI DUP1 PUSH4 0x6FDDE03 EQ PUSH2 0x12A JUMPI DUP1 PUSH4 0x81812FC EQ PUSH2 0x155 JUMPI JUMPDEST PUSH1 0x0 DUP1 REVERT JUMPDEST CALLVALUE DUP1 ISZERO PUSH2 0xF9 JUMPI PUSH1 0x0 DUP1 REVERT JUMPDEST POP PUSH2 0x114 PUSH1 0x4 DUP1 CALLDATASIZE SUB DUP2 ADD SWAP1 PUSH2 0x10F SWAP2 SWAP1 PUSH2 0x179E JUMP JUMPDEST PUSH2 0x3C5 JUMP JUMPDEST PUSH1 0x40 MLOAD PUSH2 0x121 SWAP2 SWAP1 PUSH2 0x1980 JUMP JUMPDEST PUSH1 0x40 MLOAD DUP1 SWAP2 SUB SWAP1 RETURN JUMPDEST CALLVALUE DUP1 ISZERO PUSH2 0x136 JUMPI PUSH1 0x0 DUP1 REVERT JUMPDEST POP PUSH2 0x13F PUSH2 0x457 JUMP JUMPDEST PUSH1 0x40 MLOAD PUSH2 0x14C SWAP2 SWAP1 PUSH2 0x199B JUMP JUMPDEST PUSH1 0x40 MLOAD DUP1 SWAP2 SUB SWAP1 RETURN JUMPDEST CALLVALUE DUP1 ISZERO PUSH2 0x161 JUMPI PUSH1 0x0 DUP1 REVERT JUMPDEST POP PUSH2 0x17C PUSH1 0x4 DUP1 CALLDATASIZE SUB DUP2 ADD SWAP1 PUSH2 0x177 SWAP2 SWAP1 PUSH2 0x17F8 JUMP JUMPDEST PUSH2 0x4E9 JUMP JUMPDEST PUSH1 0x40 MLOAD PUSH2 0x189 SWAP2 SWAP1 PUSH2 0x1919 JUMP JUMPDEST PUSH1 0x40 MLOAD DUP1 SWAP2 SUB SWAP1 RETURN JUMPDEST CALLVALUE DUP1 ISZERO PUSH2 0x19E JUMPI PUSH1 0x0 DUP1 REVERT JUMPDEST POP PUSH2 0x1B9 PUSH1 0x4 DUP1 CALLDATASIZE SUB DUP2 ADD SWAP1 PUSH2 0x1B4 SWAP2 SWAP1 PUSH2 0x175E JUMP JUMPDEST PUSH2 0x565 JUMP JUMPDEST STOP JUMPDEST CALLVALUE DUP1 ISZERO PUSH2 0x1C7 JUMPI PUSH1 0x0 DUP1 REVERT JUMPDEST POP PUSH2 0x1D0 PUSH2 0x6A6 JUMP JUMPDEST PUSH1 0x40 MLOAD PUSH2 0x1DD SWAP2 SWAP1 PUSH2 0x19BD JUMP JUMPDEST PUSH1 0x40 MLOAD DUP1 SWAP2 SUB SWAP1 RETURN JUMPDEST CALLVALUE DUP1 ISZERO PUSH2 0x1F2 JUMPI PUSH1 0x0 DUP1 REVERT JUMPDEST POP PUSH2 0x20D PUSH1 0x4 DUP1 CALLDATASIZE SUB DUP2 ADD SWAP1 PUSH2 0x208 SWAP2 SWAP1 PUSH2 0x1648 JUMP JUMPDEST PUSH2 0x6BD JUMP JUMPDEST STOP JUMPDEST CALLVALUE DUP1 ISZERO PUSH2 0x21B JUMPI PUSH1 0x0 DUP1 REVERT JUMPDEST POP PUSH2 0x236 PUSH1 0x4 DUP1 CALLDATASIZE SUB DUP2 ADD SWAP1 PUSH2 0x231 SWAP2 SWAP1 PUSH2 0x1648 JUMP JUMPDEST PUSH2 0x9E2 JUMP JUMPDEST STOP JUMPDEST CALLVALUE DUP1 ISZERO PUSH2 0x244 JUMPI PUSH1 0x0 DUP1 REVERT JUMPDEST POP PUSH2 0x25F PUSH1 0x4 DUP1 CALLDATASIZE SUB DUP2 ADD SWAP1 PUSH2 0x25A SWAP2 SWAP1 PUSH2 0x17F8 JUMP JUMPDEST PUSH2 0xA02 JUMP JUMPDEST PUSH1 0x40 MLOAD PUSH2 0x26C SWAP2 SWAP1 PUSH2 0x1919 JUMP JUMPDEST PUSH1 0x40 MLOAD DUP1 SWAP2 SUB SWAP1 RETURN JUMPDEST CALLVALUE DUP1 ISZERO PUSH2 0x281 JUMPI PUSH1 0x0 DUP1 REVERT JUMPDEST POP PUSH2 0x29C PUSH1 0x4 DUP1 CALLDATASIZE SUB DUP2 ADD SWAP1 PUSH2 0x297 SWAP2 SWAP1 PUSH2 0x15DB JUMP JUMPDEST PUSH2 0xA14 JUMP JUMPDEST PUSH1 0x40 MLOAD PUSH2 0x2A9 SWAP2 SWAP1 PUSH2 0x19BD JUMP JUMPDEST PUSH1 0x40 MLOAD DUP1 SWAP2 SUB SWAP1 RETURN JUMPDEST CALLVALUE DUP1 ISZERO PUSH2 0x2BE JUMPI PUSH1 0x0 DUP1 REVERT JUMPDEST POP PUSH2 0x2C7 PUSH2 0xACD JUMP JUMPDEST PUSH1 0x40 MLOAD PUSH2 0x2D4 SWAP2 SWAP1 PUSH2 0x199B JUMP JUMPDEST PUSH1 0x40 MLOAD DUP1 SWAP2 SUB SWAP1 RETURN JUMPDEST PUSH2 0x2F7 PUSH1 0x4 DUP1 CALLDATASIZE SUB DUP2 ADD SWAP1 PUSH2 0x2F2 SWAP2 SWAP1 PUSH2 0x17F8 JUMP JUMPDEST PUSH2 0xB5F JUMP JUMPDEST STOP JUMPDEST CALLVALUE DUP1 ISZERO PUSH2 0x305 JUMPI PUSH1 0x0 DUP1 REVERT JUMPDEST POP PUSH2 0x320 PUSH1 0x4 DUP1 CALLDATASIZE SUB DUP2 ADD SWAP1 PUSH2 0x31B SWAP2 SWAP1 PUSH2 0x171E JUMP JUMPDEST PUSH2 0xB6C JUMP JUMPDEST STOP JUMPDEST CALLVALUE DUP1 ISZERO PUSH2 0x32E JUMPI PUSH1 0x0 DUP1 REVERT JUMPDEST POP PUSH2 0x349 PUSH1 0x4 DUP1 CALLDATASIZE SUB DUP2 ADD SWAP1 PUSH2 0x344 SWAP2 SWAP1 PUSH2 0x169B JUMP JUMPDEST PUSH2 0xCE4 JUMP JUMPDEST STOP JUMPDEST CALLVALUE DUP1 ISZERO PUSH2 0x357 JUMPI PUSH1 0x0 DUP1 REVERT JUMPDEST POP PUSH2 0x372 PUSH1 0x4 DUP1 CALLDATASIZE SUB DUP2 ADD SWAP1 PUSH2 0x36D SWAP2 SWAP1 PUSH2 0x17F8 JUMP JUMPDEST PUSH2 0xD57 JUMP JUMPDEST PUSH1 0x40 MLOAD PUSH2 0x37F SWAP2 SWAP1 PUSH2 0x199B JUMP JUMPDEST PUSH1 0x40 MLOAD DUP1 SWAP2 SUB SWAP1 RETURN JUMPDEST CALLVALUE DUP1 ISZERO PUSH2 0x394 JUMPI PUSH1 0x0 DUP1 REVERT JUMPDEST POP PUSH2 0x3AF PUSH1 0x4 DUP1 CALLDATASIZE SUB DUP2 ADD SWAP1 PUSH2 0x3AA SWAP2 SWAP1 PUSH2 0x1608 JUMP JUMPDEST PUSH2 0xDF6 JUMP JUMPDEST PUSH1 0x40 MLOAD PUSH2 0x3BC SWAP2 SWAP1 PUSH2 0x1980 JUMP JUMPDEST PUSH1 0x40 MLOAD DUP1 SWAP2 SUB SWAP1 RETURN JUMPDEST PUSH1 0x0 PUSH4 0x1FFC9A7 PUSH1 0xE0 SHL DUP3 PUSH28 0xFFFFFFFFFFFFFFFFFFFFFFFFFFFFFFFFFFFFFFFFFFFFFFFFFFFFFFFF NOT AND EQ DUP1 PUSH2 0x420 JUMPI POP PUSH4 0x80AC58CD PUSH1 0xE0 SHL DUP3 PUSH28 0xFFFFFFFFFFFFFFFFFFFFFFFFFFFFFFFFFFFFFFFFFFFFFFFFFFFFFFFF NOT AND EQ JUMPDEST DUP1 PUSH2 0x450 JUMPI POP PUSH4 0x5B5E139F PUSH1 0xE0 SHL DUP3 PUSH28 0xFFFFFFFFFFFFFFFFFFFFFFFFFFFFFFFFFFFFFFFFFFFFFFFFFFFFFFFF NOT AND EQ JUMPDEST SWAP1 POP SWAP2 SWAP1 POP JUMP JUMPDEST PUSH1 0x60 PUSH1 0x2 DUP1 SLOAD PUSH2 0x466 SWAP1 PUSH2 0x1B27 JUMP JUMPDEST DUP1 PUSH1 0x1F ADD PUSH1 0x20 DUP1 SWAP2 DIV MUL PUSH1 0x20 ADD PUSH1 0x40 MLOAD SWAP1 DUP2 ADD PUSH1 0x40 MSTORE DUP1 SWAP3 SWAP2 SWAP1 DUP2 DUP2 MSTORE PUSH1 0x20 ADD DUP3 DUP1 SLOAD PUSH2 0x492 SWAP1 PUSH2 0x1B27 JUMP JUMPDEST DUP1 ISZERO PUSH2 0x4DF JUMPI DUP1 PUSH1 0x1F LT PUSH2 0x4B4 JUMPI PUSH2 0x100 DUP1 DUP4 SLOAD DIV MUL DUP4 MSTORE SWAP2 PUSH1 0x20 ADD SWAP2 PUSH2 0x4DF JUMP JUMPDEST DUP3 ADD SWAP2 SWAP1 PUSH1 0x0 MSTORE PUSH1 0x20 PUSH1 0x0 KECCAK256 SWAP1 JUMPDEST DUP2 SLOAD DUP2 MSTORE SWAP1 PUSH1 0x1 ADD SWAP1 PUSH1 0x20 ADD DUP1 DUP4 GT PUSH2 0x4C2 JUMPI DUP3 SWAP1 SUB PUSH1 0x1F AND DUP3 ADD SWAP2 JUMPDEST POP POP POP POP POP SWAP1 POP SWAP1 JUMP JUMPDEST PUSH1 0x0 PUSH2 0x4F4 DUP3 PUSH2 0xE8A JUMP JUMPDEST PUSH2 0x52A JUMPI PUSH1 0x40 MLOAD PUSH32 0xCF4700E400000000000000000000000000000000000000000000000000000000 DUP2 MSTORE PUSH1 0x4 ADD PUSH1 0x40 MLOAD DUP1 SWAP2 SUB SWAP1 REVERT JUMPDEST PUSH1 0x6 PUSH1 0x0 DUP4 DUP2 MSTORE PUSH1 0x20 ADD SWAP1 DUP2 MSTORE PUSH1 0x20 ADD PUSH1 0x0 KECCAK256 PUSH1 0x0 SWAP1 SLOAD SWAP1 PUSH2 0x100 EXP SWAP1 DIV PUSH20 0xFFFFFFFFFFFFFFFFFFFFFFFFFFFFFFFFFFFFFFFF AND SWAP1 POP SWAP2 SWAP1 POP JUMP JUMPDEST PUSH1 0x0 PUSH2 0x570 DUP3 PUSH2 0xA02 JUMP JUMPDEST SWAP1 POP DUP1 PUSH20 0xFFFFFFFFFFFFFFFFFFFFFFFFFFFFFFFFFFFFFFFF AND PUSH2 0x591 PUSH2 0xEE9 JUMP JUMPDEST PUSH20 0xFFFFFFFFFFFFFFFFFFFFFFFFFFFFFFFFFFFFFFFF AND EQ PUSH2 0x5F4 JUMPI PUSH2 0x5BD DUP2 PUSH2 0x5B8 PUSH2 0xEE9 JUMP JUMPDEST PUSH2 0xDF6 JUMP JUMPDEST PUSH2 0x5F3 JUMPI PUSH1 0x40 MLOAD PUSH32 0xCFB3B94200000000000000000000000000000000000000000000000000000000 DUP2 MSTORE PUSH1 0x4 ADD PUSH1 0x40 MLOAD DUP1 SWAP2 SUB SWAP1 REVERT JUMPDEST JUMPDEST DUP3 PUSH1 0x6 PUSH1 0x0 DUP5 DUP2 MSTORE PUSH1 0x20 ADD SWAP1 DUP2 MSTORE PUSH1 0x20 ADD PUSH1 0x0 KECCAK256 PUSH1 0x0 PUSH2 0x100 EXP DUP2 SLOAD DUP2 PUSH20 0xFFFFFFFFFFFFFFFFFFFFFFFFFFFFFFFFFFFFFFFF MUL NOT AND SWAP1 DUP4 PUSH20 0xFFFFFFFFFFFFFFFFFFFFFFFFFFFFFFFFFFFFFFFF AND MUL OR SWAP1 SSTORE POP DUP2 DUP4 PUSH20 0xFFFFFFFFFFFFFFFFFFFFFFFFFFFFFFFFFFFFFFFF AND DUP3 PUSH20 0xFFFFFFFFFFFFFFFFFFFFFFFFFFFFFFFFFFFFFFFF AND PUSH32 0x8C5BE1E5EBEC7D5BD14F71427D1E84F3DD0314C0F7B2291E5B200AC8C7C3B925 PUSH1 0x40 MLOAD PUSH1 0x40 MLOAD DUP1 SWAP2 SUB SWAP1 LOG4 POP POP POP JUMP JUMPDEST PUSH1 0x0 PUSH2 0x6B0 PUSH2 0xEF1 JUMP JUMPDEST PUSH1 0x1 SLOAD PUSH1 0x0 SLOAD SUB SUB SWAP1 POP SWAP1 JUMP JUMPDEST PUSH1 0x0 PUSH2 0x6C8 DUP3 PUSH2 0xEF6 JUMP JUMPDEST SWAP1 POP DUP4 PUSH20 0xFFFFFFFFFFFFFFFFFFFFFFFFFFFFFFFFFFFFFFFF AND DUP2 PUSH20 0xFFFFFFFFFFFFFFFFFFFFFFFFFFFFFFFFFFFFFFFF AND EQ PUSH2 0x72F JUMPI PUSH1 0x40 MLOAD PUSH32 0xA114810000000000000000000000000000000000000000000000000000000000 DUP2 MSTORE PUSH1 0x4 ADD PUSH1 0x40 MLOAD DUP1 SWAP2 SUB SWAP1 REVERT JUMPDEST PUSH1 0x0 DUP1 PUSH2 0x73B DUP5 PUSH2 0xFC4 JUMP JUMPDEST SWAP2 POP SWAP2 POP PUSH2 0x751 DUP2 DUP8 PUSH2 0x74C PUSH2 0xEE9 JUMP JUMPDEST PUSH2 0xFE6 JUMP JUMPDEST PUSH2 0x79D JUMPI PUSH2 0x766 DUP7 PUSH2 0x761 PUSH2 0xEE9 JUMP JUMPDEST PUSH2 0xDF6 JUMP JUMPDEST PUSH2 0x79C JUMPI PUSH1 0x40 MLOAD PUSH32 0x59C896BE00000000000000000000000000000000000000000000000000000000 DUP2 MSTORE PUSH1 0x4 ADD PUSH1 0x40 MLOAD DUP1 SWAP2 SUB SWAP1 REVERT JUMPDEST JUMPDEST PUSH1 0x0 PUSH20 0xFFFFFFFFFFFFFFFFFFFFFFFFFFFFFFFFFFFFFFFF AND DUP6 PUSH20 0xFFFFFFFFFFFFFFFFFFFFFFFFFFFFFFFFFFFFFFFF AND EQ ISZERO PUSH2 0x804 JUMPI PUSH1 0x40 MLOAD PUSH32 0xEA553B3400000000000000000000000000000000000000000000000000000000 DUP2 MSTORE PUSH1 0x4 ADD PUSH1 0x40 MLOAD DUP1 SWAP2 SUB SWAP1 REVERT JUMPDEST PUSH2 0x811 DUP7 DUP7 DUP7 PUSH1 0x1 PUSH2 0x102A JUMP JUMPDEST DUP1 ISZERO PUSH2 0x81C JUMPI PUSH1 0x0 DUP3 SSTORE JUMPDEST PUSH1 0x5 PUSH1 0x0 DUP8 PUSH20 0xFFFFFFFFFFFFFFFFFFFFFFFFFFFFFFFFFFFFFFFF AND PUSH20 0xFFFFFFFFFFFFFFFFFFFFFFFFFFFFFFFFFFFFFFFF AND DUP2 MSTORE PUSH1 0x20 ADD SWAP1 DUP2 MSTORE PUSH1 0x20 ADD PUSH1 0x0 KECCAK256 PUSH1 0x0 DUP2 SLOAD PUSH1 0x1 SWAP1 SUB SWAP2 SWAP1 POP DUP2 SWAP1 SSTORE POP PUSH1 0x5 PUSH1 0x0 DUP7 PUSH20 0xFFFFFFFFFFFFFFFFFFFFFFFFFFFFFFFFFFFFFFFF AND PUSH20 0xFFFFFFFFFFFFFFFFFFFFFFFFFFFFFFFFFFFFFFFF AND DUP2 MSTORE PUSH1 0x20 ADD SWAP1 DUP2 MSTORE PUSH1 0x20 ADD PUSH1 0x0 KECCAK256 PUSH1 0x0 DUP2 SLOAD PUSH1 0x1 ADD SWAP2 SWAP1 POP DUP2 SWAP1 SSTORE POP PUSH2 0x8EA DUP6 PUSH2 0x8C6 DUP9 DUP9 DUP8 PUSH2 0x1030 JUMP JUMPDEST PUSH29 0x200000000000000000000000000000000000000000000000000000000 OR PUSH2 0x1058 JUMP JUMPDEST PUSH1 0x4 PUSH1 0x0 DUP7 DUP2 MSTORE PUSH1 0x20 ADD SWAP1 DUP2 MSTORE PUSH1 0x20 ADD PUSH1 0x0 KECCAK256 DUP2 SWAP1 SSTORE POP PUSH1 0x0 PUSH29 0x200000000000000000000000000000000000000000000000000000000 DUP5 AND EQ ISZERO PUSH2 0x972 JUMPI PUSH1 0x0 PUSH1 0x1 DUP6 ADD SWAP1 POP PUSH1 0x0 PUSH1 0x4 PUSH1 0x0 DUP4 DUP2 MSTORE PUSH1 0x20 ADD SWAP1 DUP2 MSTORE PUSH1 0x20 ADD PUSH1 0x0 KECCAK256 SLOAD EQ ISZERO PUSH2 0x970 JUMPI PUSH1 0x0 SLOAD DUP2 EQ PUSH2 0x96F JUMPI DUP4 PUSH1 0x4 PUSH1 0x0 DUP4 DUP2 MSTORE PUSH1 0x20 ADD SWAP1 DUP2 MSTORE PUSH1 0x20 ADD PUSH1 0x0 KECCAK256 DUP2 SWAP1 SSTORE POP JUMPDEST JUMPDEST POP JUMPDEST DUP4 DUP6 PUSH20 0xFFFFFFFFFFFFFFFFFFFFFFFFFFFFFFFFFFFFFFFF AND DUP8 PUSH20 0xFFFFFFFFFFFFFFFFFFFFFFFFFFFFFFFFFFFFFFFF AND PUSH32 0xDDF252AD1BE2C89B69C2B068FC378DAA952BA7F163C4A11628F55A4DF523B3EF PUSH1 0x40 MLOAD PUSH1 0x40 MLOAD DUP1 SWAP2 SUB SWAP1 LOG4 PUSH2 0x9DA DUP7 DUP7 DUP7 PUSH1 0x1 PUSH2 0x1083 JUMP JUMPDEST POP POP POP POP POP POP JUMP JUMPDEST PUSH2 0x9FD DUP4 DUP4 DUP4 PUSH1 0x40 MLOAD DUP1 PUSH1 0x20 ADD PUSH1 0x40 MSTORE DUP1 PUSH1 0x0 DUP2 MSTORE POP PUSH2 0xCE4 JUMP JUMPDEST POP POP POP JUMP JUMPDEST PUSH1 0x0 PUSH2 0xA0D DUP3 PUSH2 0xEF6 JUMP JUMPDEST SWAP1 POP SWAP2 SWAP1 POP JUMP JUMPDEST PUSH1 0x0 DUP1 PUSH20 0xFFFFFFFFFFFFFFFFFFFFFFFFFFFFFFFFFFFFFFFF AND DUP3 PUSH20 0xFFFFFFFFFFFFFFFFFFFFFFFFFFFFFFFFFFFFFFFF AND EQ ISZERO PUSH2 0xA7C JUMPI PUSH1 0x40 MLOAD PUSH32 0x8F4EB60400000000000000000000000000000000000000000000000000000000 DUP2 MSTORE PUSH1 0x4 ADD PUSH1 0x40 MLOAD DUP1 SWAP2 SUB SWAP1 REVERT JUMPDEST PUSH8 0xFFFFFFFFFFFFFFFF PUSH1 0x5 PUSH1 0x0 DUP5 PUSH20 0xFFFFFFFFFFFFFFFFFFFFFFFFFFFFFFFFFFFFFFFF AND PUSH20 0xFFFFFFFFFFFFFFFFFFFFFFFFFFFFFFFFFFFFFFFF AND DUP2 MSTORE PUSH1 0x20 ADD SWAP1 DUP2 MSTORE PUSH1 0x20 ADD PUSH1 0x0 KECCAK256 SLOAD AND SWAP1 POP SWAP2 SWAP1 POP JUMP JUMPDEST PUSH1 0x60 PUSH1 0x3 DUP1 SLOAD PUSH2 0xADC SWAP1 PUSH2 0x1B27 JUMP JUMPDEST DUP1 PUSH1 0x1F ADD PUSH1 0x20 DUP1 SWAP2 DIV MUL PUSH1 0x20 ADD PUSH1 0x40 MLOAD SWAP1 DUP2 ADD PUSH1 0x40 MSTORE DUP1 SWAP3 SWAP2 SWAP1 DUP2 DUP2 MSTORE PUSH1 0x20 ADD DUP3 DUP1 SLOAD PUSH2 0xB08 SWAP1 PUSH2 0x1B27 JUMP JUMPDEST DUP1 ISZERO PUSH2 0xB55 JUMPI DUP1 PUSH1 0x1F LT PUSH2 0xB2A JUMPI PUSH2 0x100 DUP1 DUP4 SLOAD DIV MUL DUP4 MSTORE SWAP2 PUSH1 0x20 ADD SWAP2 PUSH2 0xB55 JUMP JUMPDEST DUP3 ADD SWAP2 SWAP1 PUSH1 0x0 MSTORE PUSH1 0x20 PUSH1 0x0 KECCAK256 SWAP1 JUMPDEST DUP2 SLOAD DUP2 MSTORE SWAP1 PUSH1 0x1 ADD SWAP1 PUSH1 0x20 ADD DUP1 DUP4 GT PUSH2 0xB38 JUMPI DUP3 SWAP1 SUB PUSH1 0x1F AND DUP3 ADD SWAP2 JUMPDEST POP POP POP POP POP SWAP1 POP SWAP1 JUMP JUMPDEST PUSH2 0xB69 CALLER DUP3 PUSH2 0x1089 JUMP JUMPDEST POP JUMP JUMPDEST PUSH2 0xB74 PUSH2 0xEE9 JUMP JUMPDEST PUSH20 0xFFFFFFFFFFFFFFFFFFFFFFFFFFFFFFFFFFFFFFFF AND DUP3 PUSH20 0xFFFFFFFFFFFFFFFFFFFFFFFFFFFFFFFFFFFFFFFF AND EQ ISZERO PUSH2 0xBD9 JUMPI PUSH1 0x40 MLOAD PUSH32 0xB06307DB00000000000000000000000000000000000000000000000000000000 DUP2 MSTORE PUSH1 0x4 ADD PUSH1 0x40 MLOAD DUP1 SWAP2 SUB SWAP1 REVERT JUMPDEST DUP1 PUSH1 0x7 PUSH1 0x0 PUSH2 0xBE6 PUSH2 0xEE9 JUMP JUMPDEST PUSH20 0xFFFFFFFFFFFFFFFFFFFFFFFFFFFFFFFFFFFFFFFF AND PUSH20 0xFFFFFFFFFFFFFFFFFFFFFFFFFFFFFFFFFFFFFFFF AND DUP2 MSTORE PUSH1 0x20 ADD SWAP1 DUP2 MSTORE PUSH1 0x20 ADD PUSH1 0x0 KECCAK256 PUSH1 0x0 DUP5 PUSH20 0xFFFFFFFFFFFFFFFFFFFFFFFFFFFFFFFFFFFFFFFF AND PUSH20 0xFFFFFFFFFFFFFFFFFFFFFFFFFFFFFFFFFFFFFFFF AND DUP2 MSTORE PUSH1 0x20 ADD SWAP1 DUP2 MSTORE PUSH1 0x20 ADD PUSH1 0x0 KECCAK256 PUSH1 0x0 PUSH2 0x100 EXP DUP2 SLOAD DUP2 PUSH1 0xFF MUL NOT AND SWAP1 DUP4 ISZERO ISZERO MUL OR SWAP1 SSTORE POP DUP2 PUSH20 0xFFFFFFFFFFFFFFFFFFFFFFFFFFFFFFFFFFFFFFFF AND PUSH2 0xC93 PUSH2 0xEE9 JUMP JUMPDEST PUSH20 0xFFFFFFFFFFFFFFFFFFFFFFFFFFFFFFFFFFFFFFFF AND PUSH32 0x17307EAB39AB6107E8899845AD3D59BD9653F200F220920489CA2B5937696C31 DUP4 PUSH1 0x40 MLOAD PUSH2 0xCD8 SWAP2 SWAP1 PUSH2 0x1980 JUMP JUMPDEST PUSH1 0x40 MLOAD DUP1 SWAP2 SUB SWAP1 LOG3 POP POP JUMP JUMPDEST PUSH2 0xCEF DUP5 DUP5 DUP5 PUSH2 0x6BD JUMP JUMPDEST PUSH1 0x0 DUP4 PUSH20 0xFFFFFFFFFFFFFFFFFFFFFFFFFFFFFFFFFFFFFFFF AND EXTCODESIZE EQ PUSH2 0xD51 JUMPI PUSH2 0xD1A DUP5 DUP5 DUP5 DUP5 PUSH2 0x10A7 JUMP JUMPDEST PUSH2 0xD50 JUMPI PUSH1 0x40 MLOAD PUSH32 0xD1A57ED600000000000000000000000000000000000000000000000000000000 DUP2 MSTORE PUSH1 0x4 ADD PUSH1 0x40 MLOAD DUP1 SWAP2 SUB SWAP1 REVERT JUMPDEST JUMPDEST POP POP POP POP JUMP JUMPDEST PUSH1 0x60 PUSH2 0xD62 DUP3 PUSH2 0xE8A JUMP JUMPDEST PUSH2 0xD98 JUMPI PUSH1 0x40 MLOAD PUSH32 0xA14C4B5000000000000000000000000000000000000000000000000000000000 DUP2 MSTORE PUSH1 0x4 ADD PUSH1 0x40 MLOAD DUP1 SWAP2 SUB SWAP1 REVERT JUMPDEST PUSH1 0x0 PUSH2 0xDA2 PUSH2 0x1207 JUMP JUMPDEST SWAP1 POP PUSH1 0x0 DUP2 MLOAD EQ ISZERO PUSH2 0xDC3 JUMPI PUSH1 0x40 MLOAD DUP1 PUSH1 0x20 ADD PUSH1 0x40 MSTORE DUP1 PUSH1 0x0 DUP2 MSTORE POP PUSH2 0xDEE JUMP JUMPDEST DUP1 PUSH2 0xDCD DUP5 PUSH2 0x121E JUMP JUMPDEST PUSH1 0x40 MLOAD PUSH1 0x20 ADD PUSH2 0xDDE SWAP3 SWAP2 SWAP1 PUSH2 0x18F5 JUMP JUMPDEST PUSH1 0x40 MLOAD PUSH1 0x20 DUP2 DUP4 SUB SUB DUP2 MSTORE SWAP1 PUSH1 0x40 MSTORE JUMPDEST SWAP2 POP POP SWAP2 SWAP1 POP JUMP JUMPDEST PUSH1 0x0 PUSH1 0x7 PUSH1 0x0 DUP5 PUSH20 0xFFFFFFFFFFFFFFFFFFFFFFFFFFFFFFFFFFFFFFFF AND PUSH20 0xFFFFFFFFFFFFFFFFFFFFFFFFFFFFFFFFFFFFFFFF AND DUP2 MSTORE PUSH1 0x20 ADD SWAP1 DUP2 MSTORE PUSH1 0x20 ADD PUSH1 0x0 KECCAK256 PUSH1 0x0 DUP4 PUSH20 0xFFFFFFFFFFFFFFFFFFFFFFFFFFFFFFFFFFFFFFFF AND PUSH20 0xFFFFFFFFFFFFFFFFFFFFFFFFFFFFFFFFFFFFFFFF AND DUP2 MSTORE PUSH1 0x20 ADD SWAP1 DUP2 MSTORE PUSH1 0x20 ADD PUSH1 0x0 KECCAK256 PUSH1 0x0 SWAP1 SLOAD SWAP1 PUSH2 0x100 EXP SWAP1 DIV PUSH1 0xFF AND SWAP1 POP SWAP3 SWAP2 POP POP JUMP JUMPDEST PUSH1 0x0 DUP2 PUSH2 0xE95 PUSH2 0xEF1 JUMP JUMPDEST GT ISZERO DUP1 ISZERO PUSH2 0xEA4 JUMPI POP PUSH1 0x0 SLOAD DUP3 LT JUMPDEST DUP1 ISZERO PUSH2 0xEE2 JUMPI POP PUSH1 0x0 PUSH29 0x100000000000000000000000000000000000000000000000000000000 PUSH1 0x4 PUSH1 0x0 DUP6 DUP2 MSTORE PUSH1 0x20 ADD SWAP1 DUP2 MSTORE PUSH1 0x20 ADD PUSH1 0x0 KECCAK256 SLOAD AND EQ JUMPDEST SWAP1 POP SWAP2 SWAP1 POP JUMP JUMPDEST PUSH1 0x0 CALLER SWAP1 POP SWAP1 JUMP JUMPDEST PUSH1 0x0 SWAP1 JUMP JUMPDEST PUSH1 0x0 DUP1 DUP3 SWAP1 POP DUP1 PUSH2 0xF05 PUSH2 0xEF1 JUMP JUMPDEST GT PUSH2 0xF8D JUMPI PUSH1 0x0 SLOAD DUP2 LT ISZERO PUSH2 0xF8C JUMPI PUSH1 0x0 PUSH1 0x4 PUSH1 0x0 DUP4 DUP2 MSTORE PUSH1 0x20 ADD SWAP1 DUP2 MSTORE PUSH1 0x20 ADD PUSH1 0x0 KECCAK256 SLOAD SWAP1 POP PUSH1 0x0 PUSH29 0x100000000000000000000000000000000000000000000000000000000 DUP3 AND EQ ISZERO PUSH2 0xF8A JUMPI JUMPDEST PUSH1 0x0 DUP2 EQ ISZERO PUSH2 0xF80 JUMPI PUSH1 0x4 PUSH1 0x0 DUP4 PUSH1 0x1 SWAP1 SUB SWAP4 POP DUP4 DUP2 MSTORE PUSH1 0x20 ADD SWAP1 DUP2 MSTORE PUSH1 0x20 ADD PUSH1 0x0 KECCAK256 SLOAD SWAP1 POP PUSH2 0xF55 JUMP JUMPDEST DUP1 SWAP3 POP POP POP PUSH2 0xFBF JUMP JUMPDEST POP JUMPDEST JUMPDEST PUSH1 0x40 MLOAD PUSH32 0xDF2D9B4200000000000000000000000000000000000000000000000000000000 DUP2 MSTORE PUSH1 0x4 ADD PUSH1 0x40 MLOAD DUP1 SWAP2 SUB SWAP1 REVERT JUMPDEST SWAP2 SWAP1 POP JUMP JUMPDEST PUSH1 0x0 DUP1 PUSH1 0x0 PUSH1 0x6 SWAP1 POP DUP4 PUSH1 0x0 MSTORE DUP1 PUSH1 0x20 MSTORE PUSH1 0x40 PUSH1 0x0 KECCAK256 SWAP3 POP DUP3 SLOAD SWAP2 POP POP SWAP2 POP SWAP2 JUMP JUMPDEST PUSH1 0x0 PUSH20 0xFFFFFFFFFFFFFFFFFFFFFFFFFFFFFFFFFFFFFFFF DUP4 AND SWAP3 POP PUSH20 0xFFFFFFFFFFFFFFFFFFFFFFFFFFFFFFFFFFFFFFFF DUP3 AND SWAP2 POP DUP4 DUP3 EQ DUP4 DUP4 EQ OR SWAP1 POP SWAP4 SWAP3 POP POP POP JUMP JUMPDEST POP POP POP POP JUMP JUMPDEST PUSH1 0x0 DUP1 PUSH1 0xE8 DUP4 SWAP1 SHR SWAP1 POP PUSH1 0xE8 PUSH2 0x1047 DUP7 DUP7 DUP5 PUSH2 0x1278 JUMP JUMPDEST PUSH3 0xFFFFFF AND SWAP1 SHL SWAP2 POP POP SWAP4 SWAP3 POP POP POP JUMP JUMPDEST PUSH1 0x0 PUSH20 0xFFFFFFFFFFFFFFFFFFFFFFFFFFFFFFFFFFFFFFFF DUP4 AND SWAP3 POP DUP2 TIMESTAMP PUSH1 0xA0 SHL OR DUP4 OR SWAP1 POP SWAP3 SWAP2 POP POP JUMP JUMPDEST POP POP POP POP JUMP JUMPDEST PUSH2 0x10A3 DUP3 DUP3 PUSH1 0x40 MLOAD DUP1 PUSH1 0x20 ADD PUSH1 0x40 MSTORE DUP1 PUSH1 0x0 DUP2 MSTORE POP PUSH2 0x1281 JUMP JUMPDEST POP POP JUMP JUMPDEST PUSH1 0x0 DUP4 PUSH20 0xFFFFFFFFFFFFFFFFFFFFFFFFFFFFFFFFFFFFFFFF AND PUSH4 0x150B7A02 PUSH2 0x10CD PUSH2 0xEE9 JUMP JUMPDEST DUP8 DUP7 DUP7 PUSH1 0x40 MLOAD DUP6 PUSH4 0xFFFFFFFF AND PUSH1 0xE0 SHL DUP2 MSTORE PUSH1 0x4 ADD PUSH2 0x10EF SWAP5 SWAP4 SWAP3 SWAP2 SWAP1 PUSH2 0x1934 JUMP JUMPDEST PUSH1 0x20 PUSH1 0x40 MLOAD DUP1 DUP4 SUB DUP2 PUSH1 0x0 DUP8 DUP1 EXTCODESIZE ISZERO DUP1 ISZERO PUSH2 0x1109 JUMPI PUSH1 0x0 DUP1 REVERT JUMPDEST POP GAS CALL SWAP3 POP POP POP DUP1 ISZERO PUSH2 0x113A JUMPI POP PUSH1 0x40 MLOAD RETURNDATASIZE PUSH1 0x1F NOT PUSH1 0x1F DUP3 ADD AND DUP3 ADD DUP1 PUSH1 0x40 MSTORE POP DUP2 ADD SWAP1 PUSH2 0x1137 SWAP2 SWAP1 PUSH2 0x17CB JUMP JUMPDEST PUSH1 0x1 JUMPDEST PUSH2 0x11B4 JUMPI RETURNDATASIZE DUP1 PUSH1 0x0 DUP2 EQ PUSH2 0x116A JUMPI PUSH1 0x40 MLOAD SWAP2 POP PUSH1 0x1F NOT PUSH1 0x3F RETURNDATASIZE ADD AND DUP3 ADD PUSH1 0x40 MSTORE RETURNDATASIZE DUP3 MSTORE RETURNDATASIZE PUSH1 0x0 PUSH1 0x20 DUP5 ADD RETURNDATACOPY PUSH2 0x116F JUMP JUMPDEST PUSH1 0x60 SWAP2 POP JUMPDEST POP PUSH1 0x0 DUP2 MLOAD EQ ISZERO PUSH2 0x11AC JUMPI PUSH1 0x40 MLOAD PUSH32 0xD1A57ED600000000000000000000000000000000000000000000000000000000 DUP2 MSTORE PUSH1 0x4 ADD PUSH1 0x40 MLOAD DUP1 SWAP2 SUB SWAP1 REVERT JUMPDEST DUP1 MLOAD DUP2 PUSH1 0x20 ADD REVERT JUMPDEST PUSH4 0x150B7A02 PUSH1 0xE0 SHL PUSH28 0xFFFFFFFFFFFFFFFFFFFFFFFFFFFFFFFFFFFFFFFFFFFFFFFFFFFFFFFF NOT AND DUP2 PUSH28 0xFFFFFFFFFFFFFFFFFFFFFFFFFFFFFFFFFFFFFFFFFFFFFFFFFFFFFFFF NOT AND EQ SWAP2 POP POP SWAP5 SWAP4 POP POP POP POP JUMP JUMPDEST PUSH1 0x60 PUSH1 0x40 MLOAD DUP1 PUSH1 0x20 ADD PUSH1 0x40 MSTORE DUP1 PUSH1 0x0 DUP2 MSTORE POP SWAP1 POP SWAP1 JUMP JUMPDEST PUSH1 0x60 PUSH1 0x80 PUSH1 0x40 MLOAD ADD SWAP1 POP DUP1 PUSH1 0x40 MSTORE DUP1 DUP3 PUSH1 0x1 DUP4 SUB SWAP3 POP PUSH1 0xA DUP2 MOD PUSH1 0x30 ADD DUP4 MSTORE8 PUSH1 0xA DUP2 DIV SWAP1 POP JUMPDEST DUP1 ISZERO PUSH2 0x1264 JUMPI PUSH1 0x1 DUP4 SUB SWAP3 POP PUSH1 0xA DUP2 MOD PUSH1 0x30 ADD DUP4 MSTORE8 PUSH1 0xA DUP2 DIV SWAP1 POP PUSH2 0x1244 JUMP JUMPDEST POP DUP2 DUP2 SUB PUSH1 0x20 DUP4 SUB SWAP3 POP DUP1 DUP4 MSTORE POP POP SWAP2 SWAP1 POP JUMP JUMPDEST PUSH1 0x0 SWAP4 SWAP3 POP POP POP JUMP JUMPDEST PUSH2 0x128B DUP4 DUP4 PUSH2 0x131E JUMP JUMPDEST PUSH1 0x0 DUP4 PUSH20 0xFFFFFFFFFFFFFFFFFFFFFFFFFFFFFFFFFFFFFFFF AND EXTCODESIZE EQ PUSH2 0x1319 JUMPI PUSH1 0x0 DUP1 SLOAD SWAP1 POP PUSH1 0x0 DUP4 DUP3 SUB SWAP1 POP JUMPDEST PUSH2 0x12CB PUSH1 0x0 DUP7 DUP4 DUP1 PUSH1 0x1 ADD SWAP5 POP DUP7 PUSH2 0x10A7 JUMP JUMPDEST PUSH2 0x1301 JUMPI PUSH1 0x40 MLOAD PUSH32 0xD1A57ED600000000000000000000000000000000000000000000000000000000 DUP2 MSTORE PUSH1 0x4 ADD PUSH1 0x40 MLOAD DUP1 SWAP2 SUB SWAP1 REVERT JUMPDEST DUP2 DUP2 LT PUSH2 0x12B8 JUMPI DUP2 PUSH1 0x0 SLOAD EQ PUSH2 0x1316 JUMPI PUSH1 0x0 DUP1 REVERT JUMPDEST POP POP JUMPDEST POP POP POP JUMP JUMPDEST PUSH1 0x0 DUP1 SLOAD SWAP1 POP PUSH1 0x0 PUSH20 0xFFFFFFFFFFFFFFFFFFFFFFFFFFFFFFFFFFFFFFFF AND DUP4 PUSH20 0xFFFFFFFFFFFFFFFFFFFFFFFFFFFFFFFFFFFFFFFF AND EQ ISZERO PUSH2 0x138B JUMPI PUSH1 0x40 MLOAD PUSH32 0x2E07630000000000000000000000000000000000000000000000000000000000 DUP2 MSTORE PUSH1 0x4 ADD PUSH1 0x40 MLOAD DUP1 SWAP2 SUB SWAP1 REVERT JUMPDEST PUSH1 0x0 DUP3 EQ ISZERO PUSH2 0x13C6 JUMPI PUSH1 0x40 MLOAD PUSH32 0xB562E8DD00000000000000000000000000000000000000000000000000000000 DUP2 MSTORE PUSH1 0x4 ADD PUSH1 0x40 MLOAD DUP1 SWAP2 SUB SWAP1 REVERT JUMPDEST PUSH2 0x13D3 PUSH1 0x0 DUP5 DUP4 DUP6 PUSH2 0x102A JUMP JUMPDEST PUSH1 0x1 PUSH1 0x40 PUSH1 0x1 SWAP1 SHL OR DUP3 MUL PUSH1 0x5 PUSH1 0x0 DUP6 PUSH20 0xFFFFFFFFFFFFFFFFFFFFFFFFFFFFFFFFFFFFFFFF AND PUSH20 0xFFFFFFFFFFFFFFFFFFFFFFFFFFFFFFFFFFFFFFFF AND DUP2 MSTORE PUSH1 0x20 ADD SWAP1 DUP2 MSTORE PUSH1 0x20 ADD PUSH1 0x0 KECCAK256 PUSH1 0x0 DUP3 DUP3 SLOAD ADD SWAP3 POP POP DUP2 SWAP1 SSTORE POP PUSH2 0x144A DUP4 PUSH2 0x143B PUSH1 0x0 DUP7 PUSH1 0x0 PUSH2 0x1030 JUMP JUMPDEST PUSH2 0x1444 DUP6 PUSH2 0x14F2 JUMP JUMPDEST OR PUSH2 0x1058 JUMP JUMPDEST PUSH1 0x4 PUSH1 0x0 DUP4 DUP2 MSTORE PUSH1 0x20 ADD SWAP1 DUP2 MSTORE PUSH1 0x20 ADD PUSH1 0x0 KECCAK256 DUP2 SWAP1 SSTORE POP PUSH1 0x0 DUP2 SWAP1 POP PUSH1 0x0 DUP4 DUP4 ADD SWAP1 POP JUMPDEST DUP2 DUP1 PUSH1 0x1 ADD SWAP3 POP DUP6 PUSH20 0xFFFFFFFFFFFFFFFFFFFFFFFFFFFFFFFFFFFFFFFF AND PUSH1 0x0 PUSH20 0xFFFFFFFFFFFFFFFFFFFFFFFFFFFFFFFFFFFFFFFF AND PUSH32 0xDDF252AD1BE2C89B69C2B068FC378DAA952BA7F163C4A11628F55A4DF523B3EF PUSH1 0x40 MLOAD PUSH1 0x40 MLOAD DUP1 SWAP2 SUB SWAP1 LOG4 DUP1 DUP3 LT PUSH2 0x146E JUMPI DUP1 PUSH1 0x0 DUP2 SWAP1 SSTORE POP POP POP PUSH2 0x14ED PUSH1 0x0 DUP5 DUP4 DUP6 PUSH2 0x1083 JUMP JUMPDEST POP POP POP JUMP JUMPDEST PUSH1 0x0 PUSH1 0x1 DUP3 EQ PUSH1 0xE1 SHL SWAP1 POP SWAP2 SWAP1 POP JUMP JUMPDEST PUSH1 0x0 PUSH2 0x1515 PUSH2 0x1510 DUP5 PUSH2 0x19FD JUMP JUMPDEST PUSH2 0x19D8 JUMP JUMPDEST SWAP1 POP DUP3 DUP2 MSTORE PUSH1 0x20 DUP2 ADD DUP5 DUP5 DUP5 ADD GT ISZERO PUSH2 0x1531 JUMPI PUSH2 0x1530 PUSH2 0x1BED JUMP JUMPDEST JUMPDEST PUSH2 0x153C DUP5 DUP3 DUP6 PUSH2 0x1AE5 JUMP JUMPDEST POP SWAP4 SWAP3 POP POP POP JUMP JUMPDEST PUSH1 0x0 DUP2 CALLDATALOAD SWAP1 POP PUSH2 0x1553 DUP2 PUSH2 0x1C0D JUMP JUMPDEST SWAP3 SWAP2 POP POP JUMP JUMPDEST PUSH1 0x0 DUP2 CALLDATALOAD SWAP1 POP PUSH2 0x1568 DUP2 PUSH2 0x1C24 JUMP JUMPDEST SWAP3 SWAP2 POP POP JUMP JUMPDEST PUSH1 0x0 DUP2 CALLDATALOAD SWAP1 POP PUSH2 0x157D DUP2 PUSH2 0x1C3B JUMP JUMPDEST SWAP3 SWAP2 POP POP JUMP JUMPDEST PUSH1 0x0 DUP2 MLOAD SWAP1 POP PUSH2 0x1592 DUP2 PUSH2 0x1C3B JUMP JUMPDEST SWAP3 SWAP2 POP POP JUMP JUMPDEST PUSH1 0x0 DUP3 PUSH1 0x1F DUP4 ADD SLT PUSH2 0x15AD JUMPI PUSH2 0x15AC PUSH2 0x1BE8 JUMP JUMPDEST JUMPDEST DUP2 CALLDATALOAD PUSH2 0x15BD DUP5 DUP3 PUSH1 0x20 DUP7 ADD PUSH2 0x1502 JUMP JUMPDEST SWAP2 POP POP SWAP3 SWAP2 POP POP JUMP JUMPDEST PUSH1 0x0 DUP2 CALLDATALOAD SWAP1 POP PUSH2 0x15D5 DUP2 PUSH2 0x1C52 JUMP JUMPDEST SWAP3 SWAP2 POP POP JUMP JUMPDEST PUSH1 0x0 PUSH1 0x20 DUP3 DUP5 SUB SLT ISZERO PUSH2 0x15F1 JUMPI PUSH2 0x15F0 PUSH2 0x1BF7 JUMP JUMPDEST JUMPDEST PUSH1 0x0 PUSH2 0x15FF DUP5 DUP3 DUP6 ADD PUSH2 0x1544 JUMP JUMPDEST SWAP2 POP POP SWAP3 SWAP2 POP POP JUMP JUMPDEST PUSH1 0x0 DUP1 PUSH1 0x40 DUP4 DUP6 SUB SLT ISZERO PUSH2 0x161F JUMPI PUSH2 0x161E PUSH2 0x1BF7 JUMP JUMPDEST JUMPDEST PUSH1 0x0 PUSH2 0x162D DUP6 DUP3 DUP7 ADD PUSH2 0x1544 JUMP JUMPDEST SWAP3 POP POP PUSH1 0x20 PUSH2 0x163E DUP6 DUP3 DUP7 ADD PUSH2 0x1544 JUMP JUMPDEST SWAP2 POP POP SWAP3 POP SWAP3 SWAP1 POP JUMP JUMPDEST PUSH1 0x0 DUP1 PUSH1 0x0 PUSH1 0x60 DUP5 DUP7 SUB SLT ISZERO PUSH2 0x1661 JUMPI PUSH2 0x1660 PUSH2 0x1BF7 JUMP JUMPDEST JUMPDEST PUSH1 0x0 PUSH2 0x166F DUP7 DUP3 DUP8 ADD PUSH2 0x1544 JUMP JUMPDEST SWAP4 POP POP PUSH1 0x20 PUSH2 0x1680 DUP7 DUP3 DUP8 ADD PUSH2 0x1544 JUMP JUMPDEST SWAP3 POP POP PUSH1 0x40 PUSH2 0x1691 DUP7 DUP3 DUP8 ADD PUSH2 0x15C6 JUMP JUMPDEST SWAP2 POP POP SWAP3 POP SWAP3 POP SWAP3 JUMP JUMPDEST PUSH1 0x0 DUP1 PUSH1 0x0 DUP1 PUSH1 0x80 DUP6 DUP8 SUB SLT ISZERO PUSH2 0x16B5 JUMPI PUSH2 0x16B4 PUSH2 0x1BF7 JUMP JUMPDEST JUMPDEST PUSH1 0x0 PUSH2 0x16C3 DUP8 DUP3 DUP9 ADD PUSH2 0x1544 JUMP JUMPDEST SWAP5 POP POP PUSH1 0x20 PUSH2 0x16D4 DUP8 DUP3 DUP9 ADD PUSH2 0x1544 JUMP JUMPDEST SWAP4 POP POP PUSH1 0x40 PUSH2 0x16E5 DUP8 DUP3 DUP9 ADD PUSH2 0x15C6 JUMP JUMPDEST SWAP3 POP POP PUSH1 0x60 DUP6 ADD CALLDATALOAD PUSH8 0xFFFFFFFFFFFFFFFF DUP2 GT ISZERO PUSH2 0x1706 JUMPI PUSH2 0x1705 PUSH2 0x1BF2 JUMP JUMPDEST JUMPDEST PUSH2 0x1712 DUP8 DUP3 DUP9 ADD PUSH2 0x1598 JUMP JUMPDEST SWAP2 POP POP SWAP3 SWAP6 SWAP2 SWAP5 POP SWAP3 POP JUMP JUMPDEST PUSH1 0x0 DUP1 PUSH1 0x40 DUP4 DUP6 SUB SLT ISZERO PUSH2 0x1735 JUMPI PUSH2 0x1734 PUSH2 0x1BF7 JUMP JUMPDEST JUMPDEST PUSH1 0x0 PUSH2 0x1743 DUP6 DUP3 DUP7 ADD PUSH2 0x1544 JUMP JUMPDEST SWAP3 POP POP PUSH1 0x20 PUSH2 0x1754 DUP6 DUP3 DUP7 ADD PUSH2 0x1559 JUMP JUMPDEST SWAP2 POP POP SWAP3 POP SWAP3 SWAP1 POP JUMP JUMPDEST PUSH1 0x0 DUP1 PUSH1 0x40 DUP4 DUP6 SUB SLT ISZERO PUSH2 0x1775 JUMPI PUSH2 0x1774 PUSH2 0x1BF7 JUMP JUMPDEST JUMPDEST PUSH1 0x0 PUSH2 0x1783 DUP6 DUP3 DUP7 ADD PUSH2 0x1544 JUMP JUMPDEST SWAP3 POP POP PUSH1 0x20 PUSH2 0x1794 DUP6 DUP3 DUP7 ADD PUSH2 0x15C6 JUMP JUMPDEST SWAP2 POP POP SWAP3 POP SWAP3 SWAP1 POP JUMP JUMPDEST PUSH1 0x0 PUSH1 0x20 DUP3 DUP5 SUB SLT ISZERO PUSH2 0x17B4 JUMPI PUSH2 0x17B3 PUSH2 0x1BF7 JUMP JUMPDEST JUMPDEST PUSH1 0x0 PUSH2 0x17C2 DUP5 DUP3 DUP6 ADD PUSH2 0x156E JUMP JUMPDEST SWAP2 POP POP SWAP3 SWAP2 POP POP JUMP JUMPDEST PUSH1 0x0 PUSH1 0x20 DUP3 DUP5 SUB SLT ISZERO PUSH2 0x17E1 JUMPI PUSH2 0x17E0 PUSH2 0x1BF7 JUMP JUMPDEST JUMPDEST PUSH1 0x0 PUSH2 0x17EF DUP5 DUP3 DUP6 ADD PUSH2 0x1583 JUMP JUMPDEST SWAP2 POP POP SWAP3 SWAP2 POP POP JUMP JUMPDEST PUSH1 0x0 PUSH1 0x20 DUP3 DUP5 SUB SLT ISZERO PUSH2 0x180E JUMPI PUSH2 0x180D PUSH2 0x1BF7 JUMP JUMPDEST JUMPDEST PUSH1 0x0 PUSH2 0x181C DUP5 DUP3 DUP6 ADD PUSH2 0x15C6 JUMP JUMPDEST SWAP2 POP POP SWAP3 SWAP2 POP POP JUMP JUMPDEST PUSH2 0x182E DUP2 PUSH2 0x1A71 JUMP JUMPDEST DUP3 MSTORE POP POP JUMP JUMPDEST PUSH2 0x183D DUP2 PUSH2 0x1A83 JUMP JUMPDEST DUP3 MSTORE POP POP JUMP JUMPDEST PUSH1 0x0 PUSH2 0x184E DUP3 PUSH2 0x1A2E JUMP JUMPDEST PUSH2 0x1858 DUP2 DUP6 PUSH2 0x1A44 JUMP JUMPDEST SWAP4 POP PUSH2 0x1868 DUP2 DUP6 PUSH1 0x20 DUP7 ADD PUSH2 0x1AF4 JUMP JUMPDEST PUSH2 0x1871 DUP2 PUSH2 0x1BFC JUMP JUMPDEST DUP5 ADD SWAP2 POP POP SWAP3 SWAP2 POP POP JUMP JUMPDEST PUSH1 0x0 PUSH2 0x1887 DUP3 PUSH2 0x1A39 JUMP JUMPDEST PUSH2 0x1891 DUP2 DUP6 PUSH2 0x1A55 JUMP JUMPDEST SWAP4 POP PUSH2 0x18A1 DUP2 DUP6 PUSH1 0x20 DUP7 ADD PUSH2 0x1AF4 JUMP JUMPDEST PUSH2 0x18AA DUP2 PUSH2 0x1BFC JUMP JUMPDEST DUP5 ADD SWAP2 POP POP SWAP3 SWAP2 POP POP JUMP JUMPDEST PUSH1 0x0 PUSH2 0x18C0 DUP3 PUSH2 0x1A39 JUMP JUMPDEST PUSH2 0x18CA DUP2 DUP6 PUSH2 0x1A66 JUMP JUMPDEST SWAP4 POP PUSH2 0x18DA DUP2 DUP6 PUSH1 0x20 DUP7 ADD PUSH2 0x1AF4 JUMP JUMPDEST DUP1 DUP5 ADD SWAP2 POP POP SWAP3 SWAP2 POP POP JUMP JUMPDEST PUSH2 0x18EF DUP2 PUSH2 0x1ADB JUMP JUMPDEST DUP3 MSTORE POP POP JUMP JUMPDEST PUSH1 0x0 PUSH2 0x1901 DUP3 DUP6 PUSH2 0x18B5 JUMP JUMPDEST SWAP2 POP PUSH2 0x190D DUP3 DUP5 PUSH2 0x18B5 JUMP JUMPDEST SWAP2 POP DUP2 SWAP1 POP SWAP4 SWAP3 POP POP POP JUMP JUMPDEST PUSH1 0x0 PUSH1 0x20 DUP3 ADD SWAP1 POP PUSH2 0x192E PUSH1 0x0 DUP4 ADD DUP5 PUSH2 0x1825 JUMP JUMPDEST SWAP3 SWAP2 POP POP JUMP JUMPDEST PUSH1 0x0 PUSH1 0x80 DUP3 ADD SWAP1 POP PUSH2 0x1949 PUSH1 0x0 DUP4 ADD DUP8 PUSH2 0x1825 JUMP JUMPDEST PUSH2 0x1956 PUSH1 0x20 DUP4 ADD DUP7 PUSH2 0x1825 JUMP JUMPDEST PUSH2 0x1963 PUSH1 0x40 DUP4 ADD DUP6 PUSH2 0x18E6 JUMP JUMPDEST DUP2 DUP2 SUB PUSH1 0x60 DUP4 ADD MSTORE PUSH2 0x1975 DUP2 DUP5 PUSH2 0x1843 JUMP JUMPDEST SWAP1 POP SWAP6 SWAP5 POP POP POP POP POP JUMP JUMPDEST PUSH1 0x0 PUSH1 0x20 DUP3 ADD SWAP1 POP PUSH2 0x1995 PUSH1 0x0 DUP4 ADD DUP5 PUSH2 0x1834 JUMP JUMPDEST SWAP3 SWAP2 POP POP JUMP JUMPDEST PUSH1 0x0 PUSH1 0x20 DUP3 ADD SWAP1 POP DUP2 DUP2 SUB PUSH1 0x0 DUP4 ADD MSTORE PUSH2 0x19B5 DUP2 DUP5 PUSH2 0x187C JUMP JUMPDEST SWAP1 POP SWAP3 SWAP2 POP POP JUMP JUMPDEST PUSH1 0x0 PUSH1 0x20 DUP3 ADD SWAP1 POP PUSH2 0x19D2 PUSH1 0x0 DUP4 ADD DUP5 PUSH2 0x18E6 JUMP JUMPDEST SWAP3 SWAP2 POP POP JUMP JUMPDEST PUSH1 0x0 PUSH2 0x19E2 PUSH2 0x19F3 JUMP JUMPDEST SWAP1 POP PUSH2 0x19EE DUP3 DUP3 PUSH2 0x1B59 JUMP JUMPDEST SWAP2 SWAP1 POP JUMP JUMPDEST PUSH1 0x0 PUSH1 0x40 MLOAD SWAP1 POP SWAP1 JUMP JUMPDEST PUSH1 0x0 PUSH8 0xFFFFFFFFFFFFFFFF DUP3 GT ISZERO PUSH2 0x1A18 JUMPI PUSH2 0x1A17 PUSH2 0x1BB9 JUMP JUMPDEST JUMPDEST PUSH2 0x1A21 DUP3 PUSH2 0x1BFC JUMP JUMPDEST SWAP1 POP PUSH1 0x20 DUP2 ADD SWAP1 POP SWAP2 SWAP1 POP JUMP JUMPDEST PUSH1 0x0 DUP2 MLOAD SWAP1 POP SWAP2 SWAP1 POP JUMP JUMPDEST PUSH1 0x0 DUP2 MLOAD SWAP1 POP SWAP2 SWAP1 POP JUMP JUMPDEST PUSH1 0x0 DUP3 DUP3 MSTORE PUSH1 0x20 DUP3 ADD SWAP1 POP SWAP3 SWAP2 POP POP JUMP JUMPDEST PUSH1 0x0 DUP3 DUP3 MSTORE PUSH1 0x20 DUP3 ADD SWAP1 POP SWAP3 SWAP2 POP POP JUMP JUMPDEST PUSH1 0x0 DUP2 SWAP1 POP SWAP3 SWAP2 POP POP JUMP JUMPDEST PUSH1 0x0 PUSH2 0x1A7C DUP3 PUSH2 0x1ABB JUMP JUMPDEST SWAP1 POP SWAP2 SWAP1 POP JUMP JUMPDEST PUSH1 0x0 DUP2 ISZERO ISZERO SWAP1 POP SWAP2 SWAP1 POP JUMP JUMPDEST PUSH1 0x0 PUSH32 0xFFFFFFFF00000000000000000000000000000000000000000000000000000000 DUP3 AND SWAP1 POP SWAP2 SWAP1 POP JUMP JUMPDEST PUSH1 0x0 PUSH20 0xFFFFFFFFFFFFFFFFFFFFFFFFFFFFFFFFFFFFFFFF DUP3 AND SWAP1 POP SWAP2 SWAP1 POP JUMP JUMPDEST PUSH1 0x0 DUP2 SWAP1 POP SWAP2 SWAP1 POP JUMP JUMPDEST DUP3 DUP2 DUP4 CALLDATACOPY PUSH1 0x0 DUP4 DUP4 ADD MSTORE POP POP POP JUMP JUMPDEST PUSH1 0x0 JUMPDEST DUP4 DUP2 LT ISZERO PUSH2 0x1B12 JUMPI DUP1 DUP3 ADD MLOAD DUP2 DUP5 ADD MSTORE PUSH1 0x20 DUP2 ADD SWAP1 POP PUSH2 0x1AF7 JUMP JUMPDEST DUP4 DUP2 GT ISZERO PUSH2 0x1B21 JUMPI PUSH1 0x0 DUP5 DUP5 ADD MSTORE JUMPDEST POP POP POP POP JUMP JUMPDEST PUSH1 0x0 PUSH1 0x2 DUP3 DIV SWAP1 POP PUSH1 0x1 DUP3 AND DUP1 PUSH2 0x1B3F JUMPI PUSH1 0x7F DUP3 AND SWAP2 POP JUMPDEST PUSH1 0x20 DUP3 LT DUP2 EQ ISZERO PUSH2 0x1B53 JUMPI PUSH2 0x1B52 PUSH2 0x1B8A JUMP JUMPDEST JUMPDEST POP SWAP2 SWAP1 POP JUMP JUMPDEST PUSH2 0x1B62 DUP3 PUSH2 0x1BFC JUMP JUMPDEST DUP2 ADD DUP2 DUP2 LT PUSH8 0xFFFFFFFFFFFFFFFF DUP3 GT OR ISZERO PUSH2 0x1B81 JUMPI PUSH2 0x1B80 PUSH2 0x1BB9 JUMP JUMPDEST JUMPDEST DUP1 PUSH1 0x40 MSTORE POP POP POP JUMP JUMPDEST PUSH32 0x4E487B7100000000000000000000000000000000000000000000000000000000 PUSH1 0x0 MSTORE PUSH1 0x22 PUSH1 0x4 MSTORE PUSH1 0x24 PUSH1 0x0 REVERT JUMPDEST PUSH32 0x4E487B7100000000000000000000000000000000000000000000000000000000 PUSH1 0x0 MSTORE PUSH1 0x41 PUSH1 0x4 MSTORE PUSH1 0x24 PUSH1 0x0 REVERT JUMPDEST PUSH1 0x0 DUP1 REVERT JUMPDEST PUSH1 0x0 DUP1 REVERT JUMPDEST PUSH1 0x0 DUP1 REVERT JUMPDEST PUSH1 0x0 DUP1 REVERT JUMPDEST PUSH1 0x0 PUSH1 0x1F NOT PUSH1 0x1F DUP4 ADD AND SWAP1 POP SWAP2 SWAP1 POP JUMP JUMPDEST PUSH2 0x1C16 DUP2 PUSH2 0x1A71 JUMP JUMPDEST DUP2 EQ PUSH2 0x1C21 JUMPI PUSH1 0x0 DUP1 REVERT JUMPDEST POP JUMP JUMPDEST PUSH2 0x1C2D DUP2 PUSH2 0x1A83 JUMP JUMPDEST DUP2 EQ PUSH2 0x1C38 JUMPI PUSH1 0x0 DUP1 REVERT JUMPDEST POP JUMP JUMPDEST PUSH2 0x1C44 DUP2 PUSH2 0x1A8F JUMP JUMPDEST DUP2 EQ PUSH2 0x1C4F JUMPI PUSH1 0x0 DUP1 REVERT JUMPDEST POP JUMP JUMPDEST PUSH2 0x1C5B DUP2 PUSH2 0x1ADB JUMP JUMPDEST DUP2 EQ PUSH2 0x1C66 JUMPI PUSH1 0x0 DUP1 REVERT JUMPDEST POP JUMP INVALID LOG2 PUSH5 0x6970667358 0x22 SLT KECCAK256 0xD1 0xD5 0xFB 0xF6 DUP2 0xD4 MSTORE 0x5C 0x21 PUSH15 0xCB284C0AB2F758DB70A21475536F2E SWAP2 0x2A 0xCD TIMESTAMP 0xB6 OR SELFDESTRUCT PUSH5 0x736F6C6343 STOP ADDMOD SMOD STOP CALLER "
				},
				"gasEstimates": {
					"creation": {
						"codeDepositCost": "1465400",
						"executionCost": "infinite",
						"totalCost": "infinite"
					},
					"external": {
						"approve(address,uint256)": "infinite",
						"balanceOf(address)": "2930",
						"getApproved(uint256)": "7375",
						"isApprovedForAll(address,address)": "infinite",
						"mint(uint256)": "infinite",
						"name()": "infinite",
						"ownerOf(uint256)": "infinite",
						"safeTransferFrom(address,address,uint256)": "infinite",
						"safeTransferFrom(address,address,uint256,bytes)": "infinite",
						"setApprovalForAll(address,bool)": "infinite",
						"supportsInterface(bytes4)": "745",
						"symbol()": "infinite",
						"tokenURI(uint256)": "5545",
						"totalSupply()": "4621",
						"transferFrom(address,address,uint256)": "infinite"
					}
				},
				"methodIdentifiers": {
					"approve(address,uint256)": "095ea7b3",
					"balanceOf(address)": "70a08231",
					"getApproved(uint256)": "081812fc",
					"isApprovedForAll(address,address)": "e985e9c5",
					"mint(uint256)": "a0712d68",
					"name()": "06fdde03",
					"ownerOf(uint256)": "6352211e",
					"safeTransferFrom(address,address,uint256)": "42842e0e",
					"safeTransferFrom(address,address,uint256,bytes)": "b88d4fde",
					"setApprovalForAll(address,bool)": "a22cb465",
					"supportsInterface(bytes4)": "01ffc9a7",
					"symbol()": "95d89b41",
					"tokenURI(uint256)": "c87b56dd",
					"totalSupply()": "18160ddd",
					"transferFrom(address,address,uint256)": "23b872dd"
				}
			},
			"storageLayout": {
				"storage": [
					{
						"astId": 111,
						"contract": "Day50_ERC721A.sol:Azuki",
						"label": "_currentIndex",
						"offset": 0,
						"slot": "0",
						"type": "t_uint256"
					},
					{
						"astId": 113,
						"contract": "Day50_ERC721A.sol:Azuki",
						"label": "_burnCounter",
						"offset": 0,
						"slot": "1",
						"type": "t_uint256"
					},
					{
						"astId": 115,
						"contract": "Day50_ERC721A.sol:Azuki",
						"label": "_name",
						"offset": 0,
						"slot": "2",
						"type": "t_string_storage"
					},
					{
						"astId": 117,
						"contract": "Day50_ERC721A.sol:Azuki",
						"label": "_symbol",
						"offset": 0,
						"slot": "3",
						"type": "t_string_storage"
					},
					{
						"astId": 121,
						"contract": "Day50_ERC721A.sol:Azuki",
						"label": "_packedOwnerships",
						"offset": 0,
						"slot": "4",
						"type": "t_mapping(t_uint256,t_uint256)"
					},
					{
						"astId": 125,
						"contract": "Day50_ERC721A.sol:Azuki",
						"label": "_packedAddressData",
						"offset": 0,
						"slot": "5",
						"type": "t_mapping(t_address,t_uint256)"
					},
					{
						"astId": 129,
						"contract": "Day50_ERC721A.sol:Azuki",
						"label": "_tokenApprovals",
						"offset": 0,
						"slot": "6",
						"type": "t_mapping(t_uint256,t_address)"
					},
					{
						"astId": 135,
						"contract": "Day50_ERC721A.sol:Azuki",
						"label": "_operatorApprovals",
						"offset": 0,
						"slot": "7",
						"type": "t_mapping(t_address,t_mapping(t_address,t_bool))"
					}
				],
				"types": {
					"t_address": {
						"encoding": "inplace",
						"label": "address",
						"numberOfBytes": "20"
					},
					"t_bool": {
						"encoding": "inplace",
						"label": "bool",
						"numberOfBytes": "1"
					},
					"t_mapping(t_address,t_bool)": {
						"encoding": "mapping",
						"key": "t_address",
						"label": "mapping(address => bool)",
						"numberOfBytes": "32",
						"value": "t_bool"
					},
					"t_mapping(t_address,t_mapping(t_address,t_bool))": {
						"encoding": "mapping",
						"key": "t_address",
						"label": "mapping(address => mapping(address => bool))",
						"numberOfBytes": "32",
						"value": "t_mapping(t_address,t_bool)"
					},
					"t_mapping(t_address,t_uint256)": {
						"encoding": "mapping",
						"key": "t_address",
						"label": "mapping(address => uint256)",
						"numberOfBytes": "32",
						"value": "t_uint256"
					},
					"t_mapping(t_uint256,t_address)": {
						"encoding": "mapping",
						"key": "t_uint256",
						"label": "mapping(uint256 => address)",
						"numberOfBytes": "32",
						"value": "t_address"
					},
					"t_mapping(t_uint256,t_uint256)": {
						"encoding": "mapping",
						"key": "t_uint256",
						"label": "mapping(uint256 => uint256)",
						"numberOfBytes": "32",
						"value": "t_uint256"
					},
					"t_string_storage": {
						"encoding": "bytes",
						"label": "string",
						"numberOfBytes": "32"
					},
					"t_uint256": {
						"encoding": "inplace",
						"label": "uint256",
						"numberOfBytes": "32"
					}
				}
			},
			"userdoc": {
				"errors": {
					"ApprovalCallerNotOwnerNorApproved()": [
						{
							"notice": "The caller must own the token or be an approved operator."
						}
					],
					"ApprovalQueryForNonexistentToken()": [
						{
							"notice": "The token does not exist."
						}
					],
					"ApproveToCaller()": [
						{
							"notice": "The caller cannot approve to their own address."
						}
					],
					"BalanceQueryForZeroAddress()": [
						{
							"notice": "Cannot query the balance for the zero address."
						}
					],
					"MintERC2309QuantityExceedsLimit()": [
						{
							"notice": "The `quantity` minted with ERC2309 exceeds the safety limit."
						}
					],
					"MintToZeroAddress()": [
						{
							"notice": "Cannot mint to the zero address."
						}
					],
					"MintZeroQuantity()": [
						{
							"notice": "The quantity of tokens minted must be more than zero."
						}
					],
					"OwnerQueryForNonexistentToken()": [
						{
							"notice": "The token does not exist."
						}
					],
					"OwnershipNotInitializedForExtraData()": [
						{
							"notice": "The `extraData` cannot be set on an unintialized ownership slot."
						}
					],
					"TransferCallerNotOwnerNorApproved()": [
						{
							"notice": "The caller must own the token or be an approved operator."
						}
					],
					"TransferFromIncorrectOwner()": [
						{
							"notice": "The token must be owned by `from`."
						}
					],
					"TransferToNonERC721ReceiverImplementer()": [
						{
							"notice": "Cannot safely transfer to a contract that does not implement the ERC721Receiver interface."
						}
					],
					"TransferToZeroAddress()": [
						{
							"notice": "Cannot transfer to the zero address."
						}
					],
					"URIQueryForNonexistentToken()": [
						{
							"notice": "The token does not exist."
						}
					]
				},
				"kind": "user",
				"methods": {},
				"version": 1
			}
		}
	}
}