{
	"Day35_CallOtherContract.sol": {
		"CallTestContract": {
			"abi": [
				{
					"inputs": [
						{
							"internalType": "address",
							"name": "_test",
							"type": "address"
						}
					],
					"name": "getX",
					"outputs": [
						{
							"internalType": "uint256",
							"name": "x",
							"type": "uint256"
						}
					],
					"stateMutability": "view",
					"type": "function"
				},
				{
					"inputs": [
						{
							"internalType": "address",
							"name": "_test",
							"type": "address"
						}
					],
					"name": "getXandValue",
					"outputs": [
						{
							"internalType": "uint256",
							"name": "",
							"type": "uint256"
						},
						{
							"internalType": "uint256",
							"name": "",
							"type": "uint256"
						}
					],
					"stateMutability": "payable",
					"type": "function"
				},
				{
					"inputs": [
						{
							"internalType": "contract TestContract",
							"name": "_test",
							"type": "address"
						},
						{
							"internalType": "uint256",
							"name": "_x",
							"type": "uint256"
						}
					],
					"name": "setX",
					"outputs": [],
					"stateMutability": "nonpayable",
					"type": "function"
				},
				{
					"inputs": [
						{
							"internalType": "address",
							"name": "_test",
							"type": "address"
						},
						{
							"internalType": "uint256",
							"name": "_x",
							"type": "uint256"
						}
					],
					"name": "setXandSendEther",
					"outputs": [],
					"stateMutability": "payable",
					"type": "function"
				}
			],
			"devdoc": {
				"kind": "dev",
				"methods": {},
				"version": 1
			},
			"evm": {
				"assembly": "    /* \"Day35_CallOtherContract.sol\":58:633  contract CallTestContract {... */\n  mstore(0x40, 0x80)\n  callvalue\n  dup1\n  iszero\n  tag_1\n  jumpi\n  0x00\n  dup1\n  revert\ntag_1:\n  pop\n  dataSize(sub_0)\n  dup1\n  dataOffset(sub_0)\n  0x00\n  codecopy\n  0x00\n  return\nstop\n\nsub_0: assembly {\n        /* \"Day35_CallOtherContract.sol\":58:633  contract CallTestContract {... */\n      mstore(0x40, 0x80)\n      jumpi(tag_1, lt(calldatasize, 0x04))\n      shr(0xe0, calldataload(0x00))\n      dup1\n      0x37e2621b\n      eq\n      tag_2\n      jumpi\n      dup1\n      0x4a2ad99f\n      eq\n      tag_3\n      jumpi\n      dup1\n      0x7c94c8ca\n      eq\n      tag_4\n      jumpi\n      dup1\n      0xd44abc42\n      eq\n      tag_5\n      jumpi\n    tag_1:\n      0x00\n      dup1\n      revert\n        /* \"Day35_CallOtherContract.sol\":441:630  function getXandValue(address _test) external payable returns(uint ,uint) {... */\n    tag_2:\n      tag_6\n      0x04\n      dup1\n      calldatasize\n      sub\n      dup2\n      add\n      swap1\n      tag_7\n      swap2\n      swap1\n      tag_8\n      jump\t// in\n    tag_7:\n      tag_9\n      jump\t// in\n    tag_6:\n      mload(0x40)\n      tag_10\n      swap3\n      swap2\n      swap1\n      tag_11\n      jump\t// in\n    tag_10:\n      mload(0x40)\n      dup1\n      swap2\n      sub\n      swap1\n      return\n        /* \"Day35_CallOtherContract.sol\":90:173  function setX(TestContract _test, uint _x) external {... */\n    tag_3:\n      callvalue\n      dup1\n      iszero\n      tag_12\n      jumpi\n      0x00\n      dup1\n      revert\n    tag_12:\n      pop\n      tag_13\n      0x04\n      dup1\n      calldatasize\n      sub\n      dup2\n      add\n      swap1\n      tag_14\n      swap2\n      swap1\n      tag_15\n      jump\t// in\n    tag_14:\n      tag_16\n      jump\t// in\n    tag_13:\n      stop\n        /* \"Day35_CallOtherContract.sol\":179:285  function getX(address _test) external view returns(uint x) {... */\n    tag_4:\n      callvalue\n      dup1\n      iszero\n      tag_17\n      jumpi\n      0x00\n      dup1\n      revert\n    tag_17:\n      pop\n      tag_18\n      0x04\n      dup1\n      calldatasize\n      sub\n      dup2\n      add\n      swap1\n      tag_19\n      swap2\n      swap1\n      tag_8\n      jump\t// in\n    tag_19:\n      tag_20\n      jump\t// in\n    tag_18:\n      mload(0x40)\n      tag_21\n      swap2\n      swap1\n      tag_22\n      jump\t// in\n    tag_21:\n      mload(0x40)\n      dup1\n      swap2\n      sub\n      swap1\n      return\n        /* \"Day35_CallOtherContract.sol\":291:435  function setXandSendEther(address _test, uint _x) external payable {... */\n    tag_5:\n      tag_23\n      0x04\n      dup1\n      calldatasize\n      sub\n      dup2\n      add\n      swap1\n      tag_24\n      swap2\n      swap1\n      tag_25\n      jump\t// in\n    tag_24:\n      tag_26\n      jump\t// in\n    tag_23:\n      stop\n        /* \"Day35_CallOtherContract.sol\":441:630  function getXandValue(address _test) external payable returns(uint ,uint) {... */\n    tag_9:\n        /* \"Day35_CallOtherContract.sol\":503:507  uint */\n      0x00\n        /* \"Day35_CallOtherContract.sol\":509:513  uint */\n      dup1\n        /* \"Day35_CallOtherContract.sol\":441:630  function getXandValue(address _test) external payable returns(uint ,uint) {... */\n      swap2\n      pop\n      swap2\n      jump\t// out\n        /* \"Day35_CallOtherContract.sol\":90:173  function setX(TestContract _test, uint _x) external {... */\n    tag_16:\n        /* \"Day35_CallOtherContract.sol\":152:157  _test */\n      dup2\n        /* \"Day35_CallOtherContract.sol\":152:162  _test.setX */\n      0xffffffffffffffffffffffffffffffffffffffff\n      and\n      0x4018d9aa\n        /* \"Day35_CallOtherContract.sol\":163:165  _x */\n      dup3\n        /* \"Day35_CallOtherContract.sol\":152:166  _test.setX(_x) */\n      mload(0x40)\n      dup3\n      0xffffffff\n      and\n      0xe0\n      shl\n      dup2\n      mstore\n      0x04\n      add\n      tag_29\n      swap2\n      swap1\n      tag_22\n      jump\t// in\n    tag_29:\n      0x00\n      mload(0x40)\n      dup1\n      dup4\n      sub\n      dup2\n      0x00\n      dup8\n      dup1\n      extcodesize\n      iszero\n      dup1\n      iszero\n      tag_30\n      jumpi\n      0x00\n      dup1\n      revert\n    tag_30:\n      pop\n      gas\n      call\n      iszero\n      dup1\n      iszero\n      tag_32\n      jumpi\n      returndatasize\n      0x00\n      dup1\n      returndatacopy\n      revert(0x00, returndatasize)\n    tag_32:\n      pop\n      pop\n      pop\n      pop\n        /* \"Day35_CallOtherContract.sol\":90:173  function setX(TestContract _test, uint _x) external {... */\n      pop\n      pop\n      jump\t// out\n        /* \"Day35_CallOtherContract.sol\":179:285  function getX(address _test) external view returns(uint x) {... */\n    tag_20:\n        /* \"Day35_CallOtherContract.sol\":230:236  uint x */\n      0x00\n        /* \"Day35_CallOtherContract.sol\":265:270  _test */\n      dup2\n        /* \"Day35_CallOtherContract.sol\":252:276  TestContract(_test).getX */\n      0xffffffffffffffffffffffffffffffffffffffff\n      and\n      0x5197c7aa\n        /* \"Day35_CallOtherContract.sol\":252:278  TestContract(_test).getX() */\n      mload(0x40)\n      dup2\n      0xffffffff\n      and\n      0xe0\n      shl\n      dup2\n      mstore\n      0x04\n      add\n      0x20\n      mload(0x40)\n      dup1\n      dup4\n      sub\n      dup2\n      dup7\n      dup1\n      extcodesize\n      iszero\n      dup1\n      iszero\n      tag_34\n      jumpi\n      0x00\n      dup1\n      revert\n    tag_34:\n      pop\n      gas\n      staticcall\n      iszero\n      dup1\n      iszero\n      tag_36\n      jumpi\n      returndatasize\n      0x00\n      dup1\n      returndatacopy\n      revert(0x00, returndatasize)\n    tag_36:\n      pop\n      pop\n      pop\n      pop\n      mload(0x40)\n      returndatasize\n      not(0x1f)\n      0x1f\n      dup3\n      add\n      and\n      dup3\n      add\n      dup1\n      0x40\n      mstore\n      pop\n      dup2\n      add\n      swap1\n      tag_37\n      swap2\n      swap1\n      tag_38\n      jump\t// in\n    tag_37:\n        /* \"Day35_CallOtherContract.sol\":248:278  x = TestContract(_test).getX() */\n      swap1\n      pop\n        /* \"Day35_CallOtherContract.sol\":179:285  function getX(address _test) external view returns(uint x) {... */\n      swap2\n      swap1\n      pop\n      jump\t// out\n        /* \"Day35_CallOtherContract.sol\":291:435  function setXandSendEther(address _test, uint _x) external payable {... */\n    tag_26:\n        /* \"Day35_CallOtherContract.sol\":381:386  _test */\n      dup2\n        /* \"Day35_CallOtherContract.sol\":368:407  TestContract(_test).setXandReceiveEther */\n      0xffffffffffffffffffffffffffffffffffffffff\n      and\n      0x02f42be9\n        /* \"Day35_CallOtherContract.sol\":414:423  msg.value */\n      callvalue\n        /* \"Day35_CallOtherContract.sol\":425:427  _x */\n      dup4\n        /* \"Day35_CallOtherContract.sol\":368:428  TestContract(_test).setXandReceiveEther{value:msg.value}(_x) */\n      mload(0x40)\n      dup4\n      0xffffffff\n      and\n      0xe0\n      shl\n      dup2\n      mstore\n      0x04\n      add\n      tag_40\n      swap2\n      swap1\n      tag_22\n      jump\t// in\n    tag_40:\n      0x00\n      mload(0x40)\n      dup1\n      dup4\n      sub\n      dup2\n      dup6\n      dup9\n      dup1\n      extcodesize\n      iszero\n      dup1\n      iszero\n      tag_41\n      jumpi\n      0x00\n      dup1\n      revert\n    tag_41:\n      pop\n      gas\n      call\n      iszero\n      dup1\n      iszero\n      tag_43\n      jumpi\n      returndatasize\n      0x00\n      dup1\n      returndatacopy\n      revert(0x00, returndatasize)\n    tag_43:\n      pop\n      pop\n      pop\n      pop\n      pop\n        /* \"Day35_CallOtherContract.sol\":291:435  function setXandSendEther(address _test, uint _x) external payable {... */\n      pop\n      pop\n      jump\t// out\n        /* \"#utility.yul\":7:146   */\n    tag_45:\n        /* \"#utility.yul\":53:58   */\n      0x00\n        /* \"#utility.yul\":91:97   */\n      dup2\n        /* \"#utility.yul\":78:98   */\n      calldataload\n        /* \"#utility.yul\":69:98   */\n      swap1\n      pop\n        /* \"#utility.yul\":107:140   */\n      tag_47\n        /* \"#utility.yul\":134:139   */\n      dup2\n        /* \"#utility.yul\":107:140   */\n      tag_48\n      jump\t// in\n    tag_47:\n        /* \"#utility.yul\":7:146   */\n      swap3\n      swap2\n      pop\n      pop\n      jump\t// out\n        /* \"#utility.yul\":152:331   */\n    tag_49:\n        /* \"#utility.yul\":218:223   */\n      0x00\n        /* \"#utility.yul\":256:262   */\n      dup2\n        /* \"#utility.yul\":243:263   */\n      calldataload\n        /* \"#utility.yul\":234:263   */\n      swap1\n      pop\n        /* \"#utility.yul\":272:325   */\n      tag_51\n        /* \"#utility.yul\":319:324   */\n      dup2\n        /* \"#utility.yul\":272:325   */\n      tag_52\n      jump\t// in\n    tag_51:\n        /* \"#utility.yul\":152:331   */\n      swap3\n      swap2\n      pop\n      pop\n      jump\t// out\n        /* \"#utility.yul\":337:476   */\n    tag_53:\n        /* \"#utility.yul\":383:388   */\n      0x00\n        /* \"#utility.yul\":421:427   */\n      dup2\n        /* \"#utility.yul\":408:428   */\n      calldataload\n        /* \"#utility.yul\":399:428   */\n      swap1\n      pop\n        /* \"#utility.yul\":437:470   */\n      tag_55\n        /* \"#utility.yul\":464:469   */\n      dup2\n        /* \"#utility.yul\":437:470   */\n      tag_56\n      jump\t// in\n    tag_55:\n        /* \"#utility.yul\":337:476   */\n      swap3\n      swap2\n      pop\n      pop\n      jump\t// out\n        /* \"#utility.yul\":482:625   */\n    tag_57:\n        /* \"#utility.yul\":539:544   */\n      0x00\n        /* \"#utility.yul\":570:576   */\n      dup2\n        /* \"#utility.yul\":564:577   */\n      mload\n        /* \"#utility.yul\":555:577   */\n      swap1\n      pop\n        /* \"#utility.yul\":586:619   */\n      tag_59\n        /* \"#utility.yul\":613:618   */\n      dup2\n        /* \"#utility.yul\":586:619   */\n      tag_56\n      jump\t// in\n    tag_59:\n        /* \"#utility.yul\":482:625   */\n      swap3\n      swap2\n      pop\n      pop\n      jump\t// out\n        /* \"#utility.yul\":631:960   */\n    tag_8:\n        /* \"#utility.yul\":690:696   */\n      0x00\n        /* \"#utility.yul\":739:741   */\n      0x20\n        /* \"#utility.yul\":727:736   */\n      dup3\n        /* \"#utility.yul\":718:725   */\n      dup5\n        /* \"#utility.yul\":714:737   */\n      sub\n        /* \"#utility.yul\":710:742   */\n      slt\n        /* \"#utility.yul\":707:826   */\n      iszero\n      tag_61\n      jumpi\n        /* \"#utility.yul\":745:824   */\n      tag_62\n      tag_63\n      jump\t// in\n    tag_62:\n        /* \"#utility.yul\":707:826   */\n    tag_61:\n        /* \"#utility.yul\":865:866   */\n      0x00\n        /* \"#utility.yul\":890:943   */\n      tag_64\n        /* \"#utility.yul\":935:942   */\n      dup5\n        /* \"#utility.yul\":926:932   */\n      dup3\n        /* \"#utility.yul\":915:924   */\n      dup6\n        /* \"#utility.yul\":911:933   */\n      add\n        /* \"#utility.yul\":890:943   */\n      tag_45\n      jump\t// in\n    tag_64:\n        /* \"#utility.yul\":880:943   */\n      swap2\n      pop\n        /* \"#utility.yul\":836:953   */\n      pop\n        /* \"#utility.yul\":631:960   */\n      swap3\n      swap2\n      pop\n      pop\n      jump\t// out\n        /* \"#utility.yul\":966:1440   */\n    tag_25:\n        /* \"#utility.yul\":1034:1040   */\n      0x00\n        /* \"#utility.yul\":1042:1048   */\n      dup1\n        /* \"#utility.yul\":1091:1093   */\n      0x40\n        /* \"#utility.yul\":1079:1088   */\n      dup4\n        /* \"#utility.yul\":1070:1077   */\n      dup6\n        /* \"#utility.yul\":1066:1089   */\n      sub\n        /* \"#utility.yul\":1062:1094   */\n      slt\n        /* \"#utility.yul\":1059:1178   */\n      iszero\n      tag_66\n      jumpi\n        /* \"#utility.yul\":1097:1176   */\n      tag_67\n      tag_63\n      jump\t// in\n    tag_67:\n        /* \"#utility.yul\":1059:1178   */\n    tag_66:\n        /* \"#utility.yul\":1217:1218   */\n      0x00\n        /* \"#utility.yul\":1242:1295   */\n      tag_68\n        /* \"#utility.yul\":1287:1294   */\n      dup6\n        /* \"#utility.yul\":1278:1284   */\n      dup3\n        /* \"#utility.yul\":1267:1276   */\n      dup7\n        /* \"#utility.yul\":1263:1285   */\n      add\n        /* \"#utility.yul\":1242:1295   */\n      tag_45\n      jump\t// in\n    tag_68:\n        /* \"#utility.yul\":1232:1295   */\n      swap3\n      pop\n        /* \"#utility.yul\":1188:1305   */\n      pop\n        /* \"#utility.yul\":1344:1346   */\n      0x20\n        /* \"#utility.yul\":1370:1423   */\n      tag_69\n        /* \"#utility.yul\":1415:1422   */\n      dup6\n        /* \"#utility.yul\":1406:1412   */\n      dup3\n        /* \"#utility.yul\":1395:1404   */\n      dup7\n        /* \"#utility.yul\":1391:1413   */\n      add\n        /* \"#utility.yul\":1370:1423   */\n      tag_53\n      jump\t// in\n    tag_69:\n        /* \"#utility.yul\":1360:1423   */\n      swap2\n      pop\n        /* \"#utility.yul\":1315:1433   */\n      pop\n        /* \"#utility.yul\":966:1440   */\n      swap3\n      pop\n      swap3\n      swap1\n      pop\n      jump\t// out\n        /* \"#utility.yul\":1446:1960   */\n    tag_15:\n        /* \"#utility.yul\":1534:1540   */\n      0x00\n        /* \"#utility.yul\":1542:1548   */\n      dup1\n        /* \"#utility.yul\":1591:1593   */\n      0x40\n        /* \"#utility.yul\":1579:1588   */\n      dup4\n        /* \"#utility.yul\":1570:1577   */\n      dup6\n        /* \"#utility.yul\":1566:1589   */\n      sub\n        /* \"#utility.yul\":1562:1594   */\n      slt\n        /* \"#utility.yul\":1559:1678   */\n      iszero\n      tag_71\n      jumpi\n        /* \"#utility.yul\":1597:1676   */\n      tag_72\n      tag_63\n      jump\t// in\n    tag_72:\n        /* \"#utility.yul\":1559:1678   */\n    tag_71:\n        /* \"#utility.yul\":1717:1718   */\n      0x00\n        /* \"#utility.yul\":1742:1815   */\n      tag_73\n        /* \"#utility.yul\":1807:1814   */\n      dup6\n        /* \"#utility.yul\":1798:1804   */\n      dup3\n        /* \"#utility.yul\":1787:1796   */\n      dup7\n        /* \"#utility.yul\":1783:1805   */\n      add\n        /* \"#utility.yul\":1742:1815   */\n      tag_49\n      jump\t// in\n    tag_73:\n        /* \"#utility.yul\":1732:1815   */\n      swap3\n      pop\n        /* \"#utility.yul\":1688:1825   */\n      pop\n        /* \"#utility.yul\":1864:1866   */\n      0x20\n        /* \"#utility.yul\":1890:1943   */\n      tag_74\n        /* \"#utility.yul\":1935:1942   */\n      dup6\n        /* \"#utility.yul\":1926:1932   */\n      dup3\n        /* \"#utility.yul\":1915:1924   */\n      dup7\n        /* \"#utility.yul\":1911:1933   */\n      add\n        /* \"#utility.yul\":1890:1943   */\n      tag_53\n      jump\t// in\n    tag_74:\n        /* \"#utility.yul\":1880:1943   */\n      swap2\n      pop\n        /* \"#utility.yul\":1835:1953   */\n      pop\n        /* \"#utility.yul\":1446:1960   */\n      swap3\n      pop\n      swap3\n      swap1\n      pop\n      jump\t// out\n        /* \"#utility.yul\":1966:2317   */\n    tag_38:\n        /* \"#utility.yul\":2036:2042   */\n      0x00\n        /* \"#utility.yul\":2085:2087   */\n      0x20\n        /* \"#utility.yul\":2073:2082   */\n      dup3\n        /* \"#utility.yul\":2064:2071   */\n      dup5\n        /* \"#utility.yul\":2060:2083   */\n      sub\n        /* \"#utility.yul\":2056:2088   */\n      slt\n        /* \"#utility.yul\":2053:2172   */\n      iszero\n      tag_76\n      jumpi\n        /* \"#utility.yul\":2091:2170   */\n      tag_77\n      tag_63\n      jump\t// in\n    tag_77:\n        /* \"#utility.yul\":2053:2172   */\n    tag_76:\n        /* \"#utility.yul\":2211:2212   */\n      0x00\n        /* \"#utility.yul\":2236:2300   */\n      tag_78\n        /* \"#utility.yul\":2292:2299   */\n      dup5\n        /* \"#utility.yul\":2283:2289   */\n      dup3\n        /* \"#utility.yul\":2272:2281   */\n      dup6\n        /* \"#utility.yul\":2268:2290   */\n      add\n        /* \"#utility.yul\":2236:2300   */\n      tag_57\n      jump\t// in\n    tag_78:\n        /* \"#utility.yul\":2226:2300   */\n      swap2\n      pop\n        /* \"#utility.yul\":2182:2310   */\n      pop\n        /* \"#utility.yul\":1966:2317   */\n      swap3\n      swap2\n      pop\n      pop\n      jump\t// out\n        /* \"#utility.yul\":2323:2441   */\n    tag_79:\n        /* \"#utility.yul\":2410:2434   */\n      tag_81\n        /* \"#utility.yul\":2428:2433   */\n      dup2\n        /* \"#utility.yul\":2410:2434   */\n      tag_82\n      jump\t// in\n    tag_81:\n        /* \"#utility.yul\":2405:2408   */\n      dup3\n        /* \"#utility.yul\":2398:2435   */\n      mstore\n        /* \"#utility.yul\":2323:2441   */\n      pop\n      pop\n      jump\t// out\n        /* \"#utility.yul\":2447:2669   */\n    tag_22:\n        /* \"#utility.yul\":2540:2544   */\n      0x00\n        /* \"#utility.yul\":2578:2580   */\n      0x20\n        /* \"#utility.yul\":2567:2576   */\n      dup3\n        /* \"#utility.yul\":2563:2581   */\n      add\n        /* \"#utility.yul\":2555:2581   */\n      swap1\n      pop\n        /* \"#utility.yul\":2591:2662   */\n      tag_84\n        /* \"#utility.yul\":2659:2660   */\n      0x00\n        /* \"#utility.yul\":2648:2657   */\n      dup4\n        /* \"#utility.yul\":2644:2661   */\n      add\n        /* \"#utility.yul\":2635:2641   */\n      dup5\n        /* \"#utility.yul\":2591:2662   */\n      tag_79\n      jump\t// in\n    tag_84:\n        /* \"#utility.yul\":2447:2669   */\n      swap3\n      swap2\n      pop\n      pop\n      jump\t// out\n        /* \"#utility.yul\":2675:3007   */\n    tag_11:\n        /* \"#utility.yul\":2796:2800   */\n      0x00\n        /* \"#utility.yul\":2834:2836   */\n      0x40\n        /* \"#utility.yul\":2823:2832   */\n      dup3\n        /* \"#utility.yul\":2819:2837   */\n      add\n        /* \"#utility.yul\":2811:2837   */\n      swap1\n      pop\n        /* \"#utility.yul\":2847:2918   */\n      tag_86\n        /* \"#utility.yul\":2915:2916   */\n      0x00\n        /* \"#utility.yul\":2904:2913   */\n      dup4\n        /* \"#utility.yul\":2900:2917   */\n      add\n        /* \"#utility.yul\":2891:2897   */\n      dup6\n        /* \"#utility.yul\":2847:2918   */\n      tag_79\n      jump\t// in\n    tag_86:\n        /* \"#utility.yul\":2928:3000   */\n      tag_87\n        /* \"#utility.yul\":2996:2998   */\n      0x20\n        /* \"#utility.yul\":2985:2994   */\n      dup4\n        /* \"#utility.yul\":2981:2999   */\n      add\n        /* \"#utility.yul\":2972:2978   */\n      dup5\n        /* \"#utility.yul\":2928:3000   */\n      tag_79\n      jump\t// in\n    tag_87:\n        /* \"#utility.yul\":2675:3007   */\n      swap4\n      swap3\n      pop\n      pop\n      pop\n      jump\t// out\n        /* \"#utility.yul\":3094:3190   */\n    tag_90:\n        /* \"#utility.yul\":3131:3138   */\n      0x00\n        /* \"#utility.yul\":3160:3184   */\n      tag_92\n        /* \"#utility.yul\":3178:3183   */\n      dup3\n        /* \"#utility.yul\":3160:3184   */\n      tag_93\n      jump\t// in\n    tag_92:\n        /* \"#utility.yul\":3149:3184   */\n      swap1\n      pop\n        /* \"#utility.yul\":3094:3190   */\n      swap2\n      swap1\n      pop\n      jump\t// out\n        /* \"#utility.yul\":3196:3312   */\n    tag_94:\n        /* \"#utility.yul\":3253:3260   */\n      0x00\n        /* \"#utility.yul\":3282:3306   */\n      tag_96\n        /* \"#utility.yul\":3300:3305   */\n      dup3\n        /* \"#utility.yul\":3282:3306   */\n      tag_90\n      jump\t// in\n    tag_96:\n        /* \"#utility.yul\":3271:3306   */\n      swap1\n      pop\n        /* \"#utility.yul\":3196:3312   */\n      swap2\n      swap1\n      pop\n      jump\t// out\n        /* \"#utility.yul\":3318:3444   */\n    tag_93:\n        /* \"#utility.yul\":3355:3362   */\n      0x00\n        /* \"#utility.yul\":3395:3437   */\n      0xffffffffffffffffffffffffffffffffffffffff\n        /* \"#utility.yul\":3388:3393   */\n      dup3\n        /* \"#utility.yul\":3384:3438   */\n      and\n        /* \"#utility.yul\":3373:3438   */\n      swap1\n      pop\n        /* \"#utility.yul\":3318:3444   */\n      swap2\n      swap1\n      pop\n      jump\t// out\n        /* \"#utility.yul\":3450:3527   */\n    tag_82:\n        /* \"#utility.yul\":3487:3494   */\n      0x00\n        /* \"#utility.yul\":3516:3521   */\n      dup2\n        /* \"#utility.yul\":3505:3521   */\n      swap1\n      pop\n        /* \"#utility.yul\":3450:3527   */\n      swap2\n      swap1\n      pop\n      jump\t// out\n        /* \"#utility.yul\":3656:3773   */\n    tag_63:\n        /* \"#utility.yul\":3765:3766   */\n      0x00\n        /* \"#utility.yul\":3762:3763   */\n      dup1\n        /* \"#utility.yul\":3755:3767   */\n      revert\n        /* \"#utility.yul\":3779:3901   */\n    tag_48:\n        /* \"#utility.yul\":3852:3876   */\n      tag_103\n        /* \"#utility.yul\":3870:3875   */\n      dup2\n        /* \"#utility.yul\":3852:3876   */\n      tag_90\n      jump\t// in\n    tag_103:\n        /* \"#utility.yul\":3845:3850   */\n      dup2\n        /* \"#utility.yul\":3842:3877   */\n      eq\n        /* \"#utility.yul\":3832:3895   */\n      tag_104\n      jumpi\n        /* \"#utility.yul\":3891:3892   */\n      0x00\n        /* \"#utility.yul\":3888:3889   */\n      dup1\n        /* \"#utility.yul\":3881:3893   */\n      revert\n        /* \"#utility.yul\":3832:3895   */\n    tag_104:\n        /* \"#utility.yul\":3779:3901   */\n      pop\n      jump\t// out\n        /* \"#utility.yul\":3907:4069   */\n    tag_52:\n        /* \"#utility.yul\":4000:4044   */\n      tag_106\n        /* \"#utility.yul\":4038:4043   */\n      dup2\n        /* \"#utility.yul\":4000:4044   */\n      tag_94\n      jump\t// in\n    tag_106:\n        /* \"#utility.yul\":3993:3998   */\n      dup2\n        /* \"#utility.yul\":3990:4045   */\n      eq\n        /* \"#utility.yul\":3980:4063   */\n      tag_107\n      jumpi\n        /* \"#utility.yul\":4059:4060   */\n      0x00\n        /* \"#utility.yul\":4056:4057   */\n      dup1\n        /* \"#utility.yul\":4049:4061   */\n      revert\n        /* \"#utility.yul\":3980:4063   */\n    tag_107:\n        /* \"#utility.yul\":3907:4069   */\n      pop\n      jump\t// out\n        /* \"#utility.yul\":4075:4197   */\n    tag_56:\n        /* \"#utility.yul\":4148:4172   */\n      tag_109\n        /* \"#utility.yul\":4166:4171   */\n      dup2\n        /* \"#utility.yul\":4148:4172   */\n      tag_82\n      jump\t// in\n    tag_109:\n        /* \"#utility.yul\":4141:4146   */\n      dup2\n        /* \"#utility.yul\":4138:4173   */\n      eq\n        /* \"#utility.yul\":4128:4191   */\n      tag_110\n      jumpi\n        /* \"#utility.yul\":4187:4188   */\n      0x00\n        /* \"#utility.yul\":4184:4185   */\n      dup1\n        /* \"#utility.yul\":4177:4189   */\n      revert\n        /* \"#utility.yul\":4128:4191   */\n    tag_110:\n        /* \"#utility.yul\":4075:4197   */\n      pop\n      jump\t// out\n\n    auxdata: 0xa2646970667358221220f188c16814a7dace0ed3eeb0dcb0f9d306df799920e995c733ecfdf19431c5da64736f6c63430008070033\n}\n",
				"bytecode": {
					"linkReferences": {},
					"object": "608060405234801561001057600080fd5b506104b4806100206000396000f3fe60806040526004361061003f5760003560e01c806337e2621b146100445780634a2ad99f146100755780637c94c8ca1461009e578063d44abc42146100db575b600080fd5b61005e600480360381019061005991906102b9565b6100f7565b60405161006c9291906103bd565b60405180910390f35b34801561008157600080fd5b5061009c60048036038101906100979190610326565b6100ff565b005b3480156100aa57600080fd5b506100c560048036038101906100c091906102b9565b61016e565b6040516100d291906103a2565b60405180910390f35b6100f560048036038101906100f091906102e6565b6101f5565b005b600080915091565b8173ffffffffffffffffffffffffffffffffffffffff16634018d9aa826040518263ffffffff1660e01b815260040161013891906103a2565b600060405180830381600087803b15801561015257600080fd5b505af1158015610166573d6000803e3d6000fd5b505050505050565b60008173ffffffffffffffffffffffffffffffffffffffff16635197c7aa6040518163ffffffff1660e01b815260040160206040518083038186803b1580156101b657600080fd5b505afa1580156101ca573d6000803e3d6000fd5b505050506040513d601f19601f820116820180604052508101906101ee9190610366565b9050919050565b8173ffffffffffffffffffffffffffffffffffffffff166302f42be934836040518363ffffffff1660e01b815260040161022f91906103a2565b6000604051808303818588803b15801561024857600080fd5b505af115801561025c573d6000803e3d6000fd5b50505050505050565b60008135905061027481610439565b92915050565b60008135905061028981610450565b92915050565b60008135905061029e81610467565b92915050565b6000815190506102b381610467565b92915050565b6000602082840312156102cf576102ce610434565b5b60006102dd84828501610265565b91505092915050565b600080604083850312156102fd576102fc610434565b5b600061030b85828601610265565b925050602061031c8582860161028f565b9150509250929050565b6000806040838503121561033d5761033c610434565b5b600061034b8582860161027a565b925050602061035c8582860161028f565b9150509250929050565b60006020828403121561037c5761037b610434565b5b600061038a848285016102a4565b91505092915050565b61039c8161042a565b82525050565b60006020820190506103b76000830184610393565b92915050565b60006040820190506103d26000830185610393565b6103df6020830184610393565b9392505050565b60006103f18261040a565b9050919050565b6000610403826103e6565b9050919050565b600073ffffffffffffffffffffffffffffffffffffffff82169050919050565b6000819050919050565b600080fd5b610442816103e6565b811461044d57600080fd5b50565b610459816103f8565b811461046457600080fd5b50565b6104708161042a565b811461047b57600080fd5b5056fea2646970667358221220f188c16814a7dace0ed3eeb0dcb0f9d306df799920e995c733ecfdf19431c5da64736f6c63430008070033",
					"opcodes": "PUSH1 0x80 PUSH1 0x40 MSTORE CALLVALUE DUP1 ISZERO PUSH2 0x10 JUMPI PUSH1 0x0 DUP1 REVERT JUMPDEST POP PUSH2 0x4B4 DUP1 PUSH2 0x20 PUSH1 0x0 CODECOPY PUSH1 0x0 RETURN INVALID PUSH1 0x80 PUSH1 0x40 MSTORE PUSH1 0x4 CALLDATASIZE LT PUSH2 0x3F JUMPI PUSH1 0x0 CALLDATALOAD PUSH1 0xE0 SHR DUP1 PUSH4 0x37E2621B EQ PUSH2 0x44 JUMPI DUP1 PUSH4 0x4A2AD99F EQ PUSH2 0x75 JUMPI DUP1 PUSH4 0x7C94C8CA EQ PUSH2 0x9E JUMPI DUP1 PUSH4 0xD44ABC42 EQ PUSH2 0xDB JUMPI JUMPDEST PUSH1 0x0 DUP1 REVERT JUMPDEST PUSH2 0x5E PUSH1 0x4 DUP1 CALLDATASIZE SUB DUP2 ADD SWAP1 PUSH2 0x59 SWAP2 SWAP1 PUSH2 0x2B9 JUMP JUMPDEST PUSH2 0xF7 JUMP JUMPDEST PUSH1 0x40 MLOAD PUSH2 0x6C SWAP3 SWAP2 SWAP1 PUSH2 0x3BD JUMP JUMPDEST PUSH1 0x40 MLOAD DUP1 SWAP2 SUB SWAP1 RETURN JUMPDEST CALLVALUE DUP1 ISZERO PUSH2 0x81 JUMPI PUSH1 0x0 DUP1 REVERT JUMPDEST POP PUSH2 0x9C PUSH1 0x4 DUP1 CALLDATASIZE SUB DUP2 ADD SWAP1 PUSH2 0x97 SWAP2 SWAP1 PUSH2 0x326 JUMP JUMPDEST PUSH2 0xFF JUMP JUMPDEST STOP JUMPDEST CALLVALUE DUP1 ISZERO PUSH2 0xAA JUMPI PUSH1 0x0 DUP1 REVERT JUMPDEST POP PUSH2 0xC5 PUSH1 0x4 DUP1 CALLDATASIZE SUB DUP2 ADD SWAP1 PUSH2 0xC0 SWAP2 SWAP1 PUSH2 0x2B9 JUMP JUMPDEST PUSH2 0x16E JUMP JUMPDEST PUSH1 0x40 MLOAD PUSH2 0xD2 SWAP2 SWAP1 PUSH2 0x3A2 JUMP JUMPDEST PUSH1 0x40 MLOAD DUP1 SWAP2 SUB SWAP1 RETURN JUMPDEST PUSH2 0xF5 PUSH1 0x4 DUP1 CALLDATASIZE SUB DUP2 ADD SWAP1 PUSH2 0xF0 SWAP2 SWAP1 PUSH2 0x2E6 JUMP JUMPDEST PUSH2 0x1F5 JUMP JUMPDEST STOP JUMPDEST PUSH1 0x0 DUP1 SWAP2 POP SWAP2 JUMP JUMPDEST DUP2 PUSH20 0xFFFFFFFFFFFFFFFFFFFFFFFFFFFFFFFFFFFFFFFF AND PUSH4 0x4018D9AA DUP3 PUSH1 0x40 MLOAD DUP3 PUSH4 0xFFFFFFFF AND PUSH1 0xE0 SHL DUP2 MSTORE PUSH1 0x4 ADD PUSH2 0x138 SWAP2 SWAP1 PUSH2 0x3A2 JUMP JUMPDEST PUSH1 0x0 PUSH1 0x40 MLOAD DUP1 DUP4 SUB DUP2 PUSH1 0x0 DUP8 DUP1 EXTCODESIZE ISZERO DUP1 ISZERO PUSH2 0x152 JUMPI PUSH1 0x0 DUP1 REVERT JUMPDEST POP GAS CALL ISZERO DUP1 ISZERO PUSH2 0x166 JUMPI RETURNDATASIZE PUSH1 0x0 DUP1 RETURNDATACOPY RETURNDATASIZE PUSH1 0x0 REVERT JUMPDEST POP POP POP POP POP POP JUMP JUMPDEST PUSH1 0x0 DUP2 PUSH20 0xFFFFFFFFFFFFFFFFFFFFFFFFFFFFFFFFFFFFFFFF AND PUSH4 0x5197C7AA PUSH1 0x40 MLOAD DUP2 PUSH4 0xFFFFFFFF AND PUSH1 0xE0 SHL DUP2 MSTORE PUSH1 0x4 ADD PUSH1 0x20 PUSH1 0x40 MLOAD DUP1 DUP4 SUB DUP2 DUP7 DUP1 EXTCODESIZE ISZERO DUP1 ISZERO PUSH2 0x1B6 JUMPI PUSH1 0x0 DUP1 REVERT JUMPDEST POP GAS STATICCALL ISZERO DUP1 ISZERO PUSH2 0x1CA JUMPI RETURNDATASIZE PUSH1 0x0 DUP1 RETURNDATACOPY RETURNDATASIZE PUSH1 0x0 REVERT JUMPDEST POP POP POP POP PUSH1 0x40 MLOAD RETURNDATASIZE PUSH1 0x1F NOT PUSH1 0x1F DUP3 ADD AND DUP3 ADD DUP1 PUSH1 0x40 MSTORE POP DUP2 ADD SWAP1 PUSH2 0x1EE SWAP2 SWAP1 PUSH2 0x366 JUMP JUMPDEST SWAP1 POP SWAP2 SWAP1 POP JUMP JUMPDEST DUP2 PUSH20 0xFFFFFFFFFFFFFFFFFFFFFFFFFFFFFFFFFFFFFFFF AND PUSH4 0x2F42BE9 CALLVALUE DUP4 PUSH1 0x40 MLOAD DUP4 PUSH4 0xFFFFFFFF AND PUSH1 0xE0 SHL DUP2 MSTORE PUSH1 0x4 ADD PUSH2 0x22F SWAP2 SWAP1 PUSH2 0x3A2 JUMP JUMPDEST PUSH1 0x0 PUSH1 0x40 MLOAD DUP1 DUP4 SUB DUP2 DUP6 DUP9 DUP1 EXTCODESIZE ISZERO DUP1 ISZERO PUSH2 0x248 JUMPI PUSH1 0x0 DUP1 REVERT JUMPDEST POP GAS CALL ISZERO DUP1 ISZERO PUSH2 0x25C JUMPI RETURNDATASIZE PUSH1 0x0 DUP1 RETURNDATACOPY RETURNDATASIZE PUSH1 0x0 REVERT JUMPDEST POP POP POP POP POP POP POP JUMP JUMPDEST PUSH1 0x0 DUP2 CALLDATALOAD SWAP1 POP PUSH2 0x274 DUP2 PUSH2 0x439 JUMP JUMPDEST SWAP3 SWAP2 POP POP JUMP JUMPDEST PUSH1 0x0 DUP2 CALLDATALOAD SWAP1 POP PUSH2 0x289 DUP2 PUSH2 0x450 JUMP JUMPDEST SWAP3 SWAP2 POP POP JUMP JUMPDEST PUSH1 0x0 DUP2 CALLDATALOAD SWAP1 POP PUSH2 0x29E DUP2 PUSH2 0x467 JUMP JUMPDEST SWAP3 SWAP2 POP POP JUMP JUMPDEST PUSH1 0x0 DUP2 MLOAD SWAP1 POP PUSH2 0x2B3 DUP2 PUSH2 0x467 JUMP JUMPDEST SWAP3 SWAP2 POP POP JUMP JUMPDEST PUSH1 0x0 PUSH1 0x20 DUP3 DUP5 SUB SLT ISZERO PUSH2 0x2CF JUMPI PUSH2 0x2CE PUSH2 0x434 JUMP JUMPDEST JUMPDEST PUSH1 0x0 PUSH2 0x2DD DUP5 DUP3 DUP6 ADD PUSH2 0x265 JUMP JUMPDEST SWAP2 POP POP SWAP3 SWAP2 POP POP JUMP JUMPDEST PUSH1 0x0 DUP1 PUSH1 0x40 DUP4 DUP6 SUB SLT ISZERO PUSH2 0x2FD JUMPI PUSH2 0x2FC PUSH2 0x434 JUMP JUMPDEST JUMPDEST PUSH1 0x0 PUSH2 0x30B DUP6 DUP3 DUP7 ADD PUSH2 0x265 JUMP JUMPDEST SWAP3 POP POP PUSH1 0x20 PUSH2 0x31C DUP6 DUP3 DUP7 ADD PUSH2 0x28F JUMP JUMPDEST SWAP2 POP POP SWAP3 POP SWAP3 SWAP1 POP JUMP JUMPDEST PUSH1 0x0 DUP1 PUSH1 0x40 DUP4 DUP6 SUB SLT ISZERO PUSH2 0x33D JUMPI PUSH2 0x33C PUSH2 0x434 JUMP JUMPDEST JUMPDEST PUSH1 0x0 PUSH2 0x34B DUP6 DUP3 DUP7 ADD PUSH2 0x27A JUMP JUMPDEST SWAP3 POP POP PUSH1 0x20 PUSH2 0x35C DUP6 DUP3 DUP7 ADD PUSH2 0x28F JUMP JUMPDEST SWAP2 POP POP SWAP3 POP SWAP3 SWAP1 POP JUMP JUMPDEST PUSH1 0x0 PUSH1 0x20 DUP3 DUP5 SUB SLT ISZERO PUSH2 0x37C JUMPI PUSH2 0x37B PUSH2 0x434 JUMP JUMPDEST JUMPDEST PUSH1 0x0 PUSH2 0x38A DUP5 DUP3 DUP6 ADD PUSH2 0x2A4 JUMP JUMPDEST SWAP2 POP POP SWAP3 SWAP2 POP POP JUMP JUMPDEST PUSH2 0x39C DUP2 PUSH2 0x42A JUMP JUMPDEST DUP3 MSTORE POP POP JUMP JUMPDEST PUSH1 0x0 PUSH1 0x20 DUP3 ADD SWAP1 POP PUSH2 0x3B7 PUSH1 0x0 DUP4 ADD DUP5 PUSH2 0x393 JUMP JUMPDEST SWAP3 SWAP2 POP POP JUMP JUMPDEST PUSH1 0x0 PUSH1 0x40 DUP3 ADD SWAP1 POP PUSH2 0x3D2 PUSH1 0x0 DUP4 ADD DUP6 PUSH2 0x393 JUMP JUMPDEST PUSH2 0x3DF PUSH1 0x20 DUP4 ADD DUP5 PUSH2 0x393 JUMP JUMPDEST SWAP4 SWAP3 POP POP POP JUMP JUMPDEST PUSH1 0x0 PUSH2 0x3F1 DUP3 PUSH2 0x40A JUMP JUMPDEST SWAP1 POP SWAP2 SWAP1 POP JUMP JUMPDEST PUSH1 0x0 PUSH2 0x403 DUP3 PUSH2 0x3E6 JUMP JUMPDEST SWAP1 POP SWAP2 SWAP1 POP JUMP JUMPDEST PUSH1 0x0 PUSH20 0xFFFFFFFFFFFFFFFFFFFFFFFFFFFFFFFFFFFFFFFF DUP3 AND SWAP1 POP SWAP2 SWAP1 POP JUMP JUMPDEST PUSH1 0x0 DUP2 SWAP1 POP SWAP2 SWAP1 POP JUMP JUMPDEST PUSH1 0x0 DUP1 REVERT JUMPDEST PUSH2 0x442 DUP2 PUSH2 0x3E6 JUMP JUMPDEST DUP2 EQ PUSH2 0x44D JUMPI PUSH1 0x0 DUP1 REVERT JUMPDEST POP JUMP JUMPDEST PUSH2 0x459 DUP2 PUSH2 0x3F8 JUMP JUMPDEST DUP2 EQ PUSH2 0x464 JUMPI PUSH1 0x0 DUP1 REVERT JUMPDEST POP JUMP JUMPDEST PUSH2 0x470 DUP2 PUSH2 0x42A JUMP JUMPDEST DUP2 EQ PUSH2 0x47B JUMPI PUSH1 0x0 DUP1 REVERT JUMPDEST POP JUMP INVALID LOG2 PUSH5 0x6970667358 0x22 SLT KECCAK256 CALL DUP9 0xC1 PUSH9 0x14A7DACE0ED3EEB0DC 0xB0 0xF9 0xD3 MOD 0xDF PUSH26 0x9920E995C733ECFDF19431C5DA64736F6C634300080700330000 "
				},
				"gasEstimates": {
					"creation": {
						"codeDepositCost": "240800",
						"executionCost": "281",
						"totalCost": "241081"
					},
					"external": {
						"getX(address)": "infinite",
						"getXandValue(address)": "infinite",
						"setX(address,uint256)": "infinite",
						"setXandSendEther(address,uint256)": "infinite"
					}
				},
				"methodIdentifiers": {
					"getX(address)": "7c94c8ca",
					"getXandValue(address)": "37e2621b",
					"setX(address,uint256)": "4a2ad99f",
					"setXandSendEther(address,uint256)": "d44abc42"
				}
			},
			"storageLayout": {
				"storage": [],
				"types": null
			},
			"userdoc": {
				"kind": "user",
				"methods": {},
				"version": 1
			}
		}
	}
}