{
	"Day23_DataLocation.sol": {
		"DataLocations": {
			"abi": [
				{
					"inputs": [
						{
							"internalType": "address",
							"name": "",
							"type": "address"
						}
					],
					"name": "myStructs",
					"outputs": [
						{
							"internalType": "uint256",
							"name": "foo",
							"type": "uint256"
						},
						{
							"internalType": "string",
							"name": "text",
							"type": "string"
						}
					],
					"stateMutability": "view",
					"type": "function"
				}
			],
			"devdoc": {
				"kind": "dev",
				"methods": {},
				"version": 1
			},
			"evm": {
				"assembly": "    /* \"Day23_DataLocation.sol\":107:252  contract DataLocations {... */\n  mstore(0x40, 0x80)\n  callvalue\n  dup1\n  iszero\n  tag_1\n  jumpi\n  0x00\n  dup1\n  revert\ntag_1:\n  pop\n  dataSize(sub_0)\n  dup1\n  dataOffset(sub_0)\n  0x00\n  codecopy\n  0x00\n  return\nstop\n\nsub_0: assembly {\n        /* \"Day23_DataLocation.sol\":107:252  contract DataLocations {... */\n      mstore(0x40, 0x80)\n      callvalue\n      dup1\n      iszero\n      tag_1\n      jumpi\n      0x00\n      dup1\n      revert\n    tag_1:\n      pop\n      jumpi(tag_2, lt(calldatasize, 0x04))\n      shr(0xe0, calldataload(0x00))\n      dup1\n      0xb43c5d33\n      eq\n      tag_3\n      jumpi\n    tag_2:\n      0x00\n      dup1\n      revert\n        /* \"Day23_DataLocation.sol\":204:249  mapping(address => MyStruct) public myStructs */\n    tag_3:\n      tag_4\n      0x04\n      dup1\n      calldatasize\n      sub\n      dup2\n      add\n      swap1\n      tag_5\n      swap2\n      swap1\n      tag_6\n      jump\t// in\n    tag_5:\n      tag_7\n      jump\t// in\n    tag_4:\n      mload(0x40)\n      tag_8\n      swap3\n      swap2\n      swap1\n      tag_9\n      jump\t// in\n    tag_8:\n      mload(0x40)\n      dup1\n      swap2\n      sub\n      swap1\n      return\n    tag_7:\n      mstore(0x20, 0x00)\n      dup1\n      0x00\n      mstore\n      keccak256(0x00, 0x40)\n      0x00\n      swap2\n      pop\n      swap1\n      pop\n      dup1\n      0x00\n      add\n      sload\n      swap1\n      dup1\n      0x01\n      add\n      dup1\n      sload\n      tag_10\n      swap1\n      tag_11\n      jump\t// in\n    tag_10:\n      dup1\n      0x1f\n      add\n      0x20\n      dup1\n      swap2\n      div\n      mul\n      0x20\n      add\n      mload(0x40)\n      swap1\n      dup2\n      add\n      0x40\n      mstore\n      dup1\n      swap3\n      swap2\n      swap1\n      dup2\n      dup2\n      mstore\n      0x20\n      add\n      dup3\n      dup1\n      sload\n      tag_12\n      swap1\n      tag_11\n      jump\t// in\n    tag_12:\n      dup1\n      iszero\n      tag_13\n      jumpi\n      dup1\n      0x1f\n      lt\n      tag_14\n      jumpi\n      0x0100\n      dup1\n      dup4\n      sload\n      div\n      mul\n      dup4\n      mstore\n      swap2\n      0x20\n      add\n      swap2\n      jump(tag_13)\n    tag_14:\n      dup3\n      add\n      swap2\n      swap1\n      0x00\n      mstore\n      keccak256(0x00, 0x20)\n      swap1\n    tag_15:\n      dup2\n      sload\n      dup2\n      mstore\n      swap1\n      0x01\n      add\n      swap1\n      0x20\n      add\n      dup1\n      dup4\n      gt\n      tag_15\n      jumpi\n      dup3\n      swap1\n      sub\n      0x1f\n      and\n      dup3\n      add\n      swap2\n    tag_13:\n      pop\n      pop\n      pop\n      pop\n      pop\n      swap1\n      pop\n      dup3\n      jump\t// out\n        /* \"#utility.yul\":7:146   */\n    tag_17:\n        /* \"#utility.yul\":53:58   */\n      0x00\n        /* \"#utility.yul\":91:97   */\n      dup2\n        /* \"#utility.yul\":78:98   */\n      calldataload\n        /* \"#utility.yul\":69:98   */\n      swap1\n      pop\n        /* \"#utility.yul\":107:140   */\n      tag_19\n        /* \"#utility.yul\":134:139   */\n      dup2\n        /* \"#utility.yul\":107:140   */\n      tag_20\n      jump\t// in\n    tag_19:\n        /* \"#utility.yul\":7:146   */\n      swap3\n      swap2\n      pop\n      pop\n      jump\t// out\n        /* \"#utility.yul\":152:481   */\n    tag_6:\n        /* \"#utility.yul\":211:217   */\n      0x00\n        /* \"#utility.yul\":260:262   */\n      0x20\n        /* \"#utility.yul\":248:257   */\n      dup3\n        /* \"#utility.yul\":239:246   */\n      dup5\n        /* \"#utility.yul\":235:258   */\n      sub\n        /* \"#utility.yul\":231:263   */\n      slt\n        /* \"#utility.yul\":228:347   */\n      iszero\n      tag_22\n      jumpi\n        /* \"#utility.yul\":266:345   */\n      tag_23\n      tag_24\n      jump\t// in\n    tag_23:\n        /* \"#utility.yul\":228:347   */\n    tag_22:\n        /* \"#utility.yul\":386:387   */\n      0x00\n        /* \"#utility.yul\":411:464   */\n      tag_25\n        /* \"#utility.yul\":456:463   */\n      dup5\n        /* \"#utility.yul\":447:453   */\n      dup3\n        /* \"#utility.yul\":436:445   */\n      dup6\n        /* \"#utility.yul\":432:454   */\n      add\n        /* \"#utility.yul\":411:464   */\n      tag_17\n      jump\t// in\n    tag_25:\n        /* \"#utility.yul\":401:464   */\n      swap2\n      pop\n        /* \"#utility.yul\":357:474   */\n      pop\n        /* \"#utility.yul\":152:481   */\n      swap3\n      swap2\n      pop\n      pop\n      jump\t// out\n        /* \"#utility.yul\":487:851   */\n    tag_26:\n        /* \"#utility.yul\":575:578   */\n      0x00\n        /* \"#utility.yul\":603:642   */\n      tag_28\n        /* \"#utility.yul\":636:641   */\n      dup3\n        /* \"#utility.yul\":603:642   */\n      tag_29\n      jump\t// in\n    tag_28:\n        /* \"#utility.yul\":658:729   */\n      tag_30\n        /* \"#utility.yul\":722:728   */\n      dup2\n        /* \"#utility.yul\":717:720   */\n      dup6\n        /* \"#utility.yul\":658:729   */\n      tag_31\n      jump\t// in\n    tag_30:\n        /* \"#utility.yul\":651:729   */\n      swap4\n      pop\n        /* \"#utility.yul\":738:790   */\n      tag_32\n        /* \"#utility.yul\":783:789   */\n      dup2\n        /* \"#utility.yul\":778:781   */\n      dup6\n        /* \"#utility.yul\":771:775   */\n      0x20\n        /* \"#utility.yul\":764:769   */\n      dup7\n        /* \"#utility.yul\":760:776   */\n      add\n        /* \"#utility.yul\":738:790   */\n      tag_33\n      jump\t// in\n    tag_32:\n        /* \"#utility.yul\":815:844   */\n      tag_34\n        /* \"#utility.yul\":837:843   */\n      dup2\n        /* \"#utility.yul\":815:844   */\n      tag_35\n      jump\t// in\n    tag_34:\n        /* \"#utility.yul\":810:813   */\n      dup5\n        /* \"#utility.yul\":806:845   */\n      add\n        /* \"#utility.yul\":799:845   */\n      swap2\n      pop\n        /* \"#utility.yul\":579:851   */\n      pop\n        /* \"#utility.yul\":487:851   */\n      swap3\n      swap2\n      pop\n      pop\n      jump\t// out\n        /* \"#utility.yul\":857:975   */\n    tag_36:\n        /* \"#utility.yul\":944:968   */\n      tag_38\n        /* \"#utility.yul\":962:967   */\n      dup2\n        /* \"#utility.yul\":944:968   */\n      tag_39\n      jump\t// in\n    tag_38:\n        /* \"#utility.yul\":939:942   */\n      dup3\n        /* \"#utility.yul\":932:969   */\n      mstore\n        /* \"#utility.yul\":857:975   */\n      pop\n      pop\n      jump\t// out\n        /* \"#utility.yul\":981:1404   */\n    tag_9:\n        /* \"#utility.yul\":1122:1126   */\n      0x00\n        /* \"#utility.yul\":1160:1162   */\n      0x40\n        /* \"#utility.yul\":1149:1158   */\n      dup3\n        /* \"#utility.yul\":1145:1163   */\n      add\n        /* \"#utility.yul\":1137:1163   */\n      swap1\n      pop\n        /* \"#utility.yul\":1173:1244   */\n      tag_41\n        /* \"#utility.yul\":1241:1242   */\n      0x00\n        /* \"#utility.yul\":1230:1239   */\n      dup4\n        /* \"#utility.yul\":1226:1243   */\n      add\n        /* \"#utility.yul\":1217:1223   */\n      dup6\n        /* \"#utility.yul\":1173:1244   */\n      tag_36\n      jump\t// in\n    tag_41:\n        /* \"#utility.yul\":1291:1300   */\n      dup2\n        /* \"#utility.yul\":1285:1289   */\n      dup2\n        /* \"#utility.yul\":1281:1301   */\n      sub\n        /* \"#utility.yul\":1276:1278   */\n      0x20\n        /* \"#utility.yul\":1265:1274   */\n      dup4\n        /* \"#utility.yul\":1261:1279   */\n      add\n        /* \"#utility.yul\":1254:1302   */\n      mstore\n        /* \"#utility.yul\":1319:1397   */\n      tag_42\n        /* \"#utility.yul\":1392:1396   */\n      dup2\n        /* \"#utility.yul\":1383:1389   */\n      dup5\n        /* \"#utility.yul\":1319:1397   */\n      tag_26\n      jump\t// in\n    tag_42:\n        /* \"#utility.yul\":1311:1397   */\n      swap1\n      pop\n        /* \"#utility.yul\":981:1404   */\n      swap4\n      swap3\n      pop\n      pop\n      pop\n      jump\t// out\n        /* \"#utility.yul\":1491:1590   */\n    tag_29:\n        /* \"#utility.yul\":1543:1549   */\n      0x00\n        /* \"#utility.yul\":1577:1582   */\n      dup2\n        /* \"#utility.yul\":1571:1583   */\n      mload\n        /* \"#utility.yul\":1561:1583   */\n      swap1\n      pop\n        /* \"#utility.yul\":1491:1590   */\n      swap2\n      swap1\n      pop\n      jump\t// out\n        /* \"#utility.yul\":1596:1765   */\n    tag_31:\n        /* \"#utility.yul\":1680:1691   */\n      0x00\n        /* \"#utility.yul\":1714:1720   */\n      dup3\n        /* \"#utility.yul\":1709:1712   */\n      dup3\n        /* \"#utility.yul\":1702:1721   */\n      mstore\n        /* \"#utility.yul\":1754:1758   */\n      0x20\n        /* \"#utility.yul\":1749:1752   */\n      dup3\n        /* \"#utility.yul\":1745:1759   */\n      add\n        /* \"#utility.yul\":1730:1759   */\n      swap1\n      pop\n        /* \"#utility.yul\":1596:1765   */\n      swap3\n      swap2\n      pop\n      pop\n      jump\t// out\n        /* \"#utility.yul\":1771:1867   */\n    tag_47:\n        /* \"#utility.yul\":1808:1815   */\n      0x00\n        /* \"#utility.yul\":1837:1861   */\n      tag_49\n        /* \"#utility.yul\":1855:1860   */\n      dup3\n        /* \"#utility.yul\":1837:1861   */\n      tag_50\n      jump\t// in\n    tag_49:\n        /* \"#utility.yul\":1826:1861   */\n      swap1\n      pop\n        /* \"#utility.yul\":1771:1867   */\n      swap2\n      swap1\n      pop\n      jump\t// out\n        /* \"#utility.yul\":1873:1999   */\n    tag_50:\n        /* \"#utility.yul\":1910:1917   */\n      0x00\n        /* \"#utility.yul\":1950:1992   */\n      0xffffffffffffffffffffffffffffffffffffffff\n        /* \"#utility.yul\":1943:1948   */\n      dup3\n        /* \"#utility.yul\":1939:1993   */\n      and\n        /* \"#utility.yul\":1928:1993   */\n      swap1\n      pop\n        /* \"#utility.yul\":1873:1999   */\n      swap2\n      swap1\n      pop\n      jump\t// out\n        /* \"#utility.yul\":2005:2082   */\n    tag_39:\n        /* \"#utility.yul\":2042:2049   */\n      0x00\n        /* \"#utility.yul\":2071:2076   */\n      dup2\n        /* \"#utility.yul\":2060:2076   */\n      swap1\n      pop\n        /* \"#utility.yul\":2005:2082   */\n      swap2\n      swap1\n      pop\n      jump\t// out\n        /* \"#utility.yul\":2088:2395   */\n    tag_33:\n        /* \"#utility.yul\":2156:2157   */\n      0x00\n        /* \"#utility.yul\":2166:2279   */\n    tag_54:\n        /* \"#utility.yul\":2180:2186   */\n      dup4\n        /* \"#utility.yul\":2177:2178   */\n      dup2\n        /* \"#utility.yul\":2174:2187   */\n      lt\n        /* \"#utility.yul\":2166:2279   */\n      iszero\n      tag_56\n      jumpi\n        /* \"#utility.yul\":2265:2266   */\n      dup1\n        /* \"#utility.yul\":2260:2263   */\n      dup3\n        /* \"#utility.yul\":2256:2267   */\n      add\n        /* \"#utility.yul\":2250:2268   */\n      mload\n        /* \"#utility.yul\":2246:2247   */\n      dup2\n        /* \"#utility.yul\":2241:2244   */\n      dup5\n        /* \"#utility.yul\":2237:2248   */\n      add\n        /* \"#utility.yul\":2230:2269   */\n      mstore\n        /* \"#utility.yul\":2202:2204   */\n      0x20\n        /* \"#utility.yul\":2199:2200   */\n      dup2\n        /* \"#utility.yul\":2195:2205   */\n      add\n        /* \"#utility.yul\":2190:2205   */\n      swap1\n      pop\n        /* \"#utility.yul\":2166:2279   */\n      jump(tag_54)\n    tag_56:\n        /* \"#utility.yul\":2297:2303   */\n      dup4\n        /* \"#utility.yul\":2294:2295   */\n      dup2\n        /* \"#utility.yul\":2291:2304   */\n      gt\n        /* \"#utility.yul\":2288:2389   */\n      iszero\n      tag_57\n      jumpi\n        /* \"#utility.yul\":2377:2378   */\n      0x00\n        /* \"#utility.yul\":2368:2374   */\n      dup5\n        /* \"#utility.yul\":2363:2366   */\n      dup5\n        /* \"#utility.yul\":2359:2375   */\n      add\n        /* \"#utility.yul\":2352:2379   */\n      mstore\n        /* \"#utility.yul\":2288:2389   */\n    tag_57:\n        /* \"#utility.yul\":2137:2395   */\n      pop\n        /* \"#utility.yul\":2088:2395   */\n      pop\n      pop\n      pop\n      jump\t// out\n        /* \"#utility.yul\":2401:2721   */\n    tag_11:\n        /* \"#utility.yul\":2445:2451   */\n      0x00\n        /* \"#utility.yul\":2482:2483   */\n      0x02\n        /* \"#utility.yul\":2476:2480   */\n      dup3\n        /* \"#utility.yul\":2472:2484   */\n      div\n        /* \"#utility.yul\":2462:2484   */\n      swap1\n      pop\n        /* \"#utility.yul\":2529:2530   */\n      0x01\n        /* \"#utility.yul\":2523:2527   */\n      dup3\n        /* \"#utility.yul\":2519:2531   */\n      and\n        /* \"#utility.yul\":2550:2568   */\n      dup1\n        /* \"#utility.yul\":2540:2621   */\n      tag_59\n      jumpi\n        /* \"#utility.yul\":2606:2610   */\n      0x7f\n        /* \"#utility.yul\":2598:2604   */\n      dup3\n        /* \"#utility.yul\":2594:2611   */\n      and\n        /* \"#utility.yul\":2584:2611   */\n      swap2\n      pop\n        /* \"#utility.yul\":2540:2621   */\n    tag_59:\n        /* \"#utility.yul\":2668:2670   */\n      0x20\n        /* \"#utility.yul\":2660:2666   */\n      dup3\n        /* \"#utility.yul\":2657:2671   */\n      lt\n        /* \"#utility.yul\":2637:2655   */\n      dup2\n        /* \"#utility.yul\":2634:2672   */\n      eq\n        /* \"#utility.yul\":2631:2715   */\n      iszero\n      tag_60\n      jumpi\n        /* \"#utility.yul\":2687:2705   */\n      tag_61\n      tag_62\n      jump\t// in\n    tag_61:\n        /* \"#utility.yul\":2631:2715   */\n    tag_60:\n        /* \"#utility.yul\":2452:2721   */\n      pop\n        /* \"#utility.yul\":2401:2721   */\n      swap2\n      swap1\n      pop\n      jump\t// out\n        /* \"#utility.yul\":2727:2907   */\n    tag_62:\n        /* \"#utility.yul\":2775:2852   */\n      0x4e487b7100000000000000000000000000000000000000000000000000000000\n        /* \"#utility.yul\":2772:2773   */\n      0x00\n        /* \"#utility.yul\":2765:2853   */\n      mstore\n        /* \"#utility.yul\":2872:2876   */\n      0x22\n        /* \"#utility.yul\":2869:2870   */\n      0x04\n        /* \"#utility.yul\":2862:2877   */\n      mstore\n        /* \"#utility.yul\":2896:2900   */\n      0x24\n        /* \"#utility.yul\":2893:2894   */\n      0x00\n        /* \"#utility.yul\":2886:2901   */\n      revert\n        /* \"#utility.yul\":3036:3153   */\n    tag_24:\n        /* \"#utility.yul\":3145:3146   */\n      0x00\n        /* \"#utility.yul\":3142:3143   */\n      dup1\n        /* \"#utility.yul\":3135:3147   */\n      revert\n        /* \"#utility.yul\":3159:3261   */\n    tag_35:\n        /* \"#utility.yul\":3200:3206   */\n      0x00\n        /* \"#utility.yul\":3251:3253   */\n      0x1f\n        /* \"#utility.yul\":3247:3254   */\n      not\n        /* \"#utility.yul\":3242:3244   */\n      0x1f\n        /* \"#utility.yul\":3235:3240   */\n      dup4\n        /* \"#utility.yul\":3231:3245   */\n      add\n        /* \"#utility.yul\":3227:3255   */\n      and\n        /* \"#utility.yul\":3217:3255   */\n      swap1\n      pop\n        /* \"#utility.yul\":3159:3261   */\n      swap2\n      swap1\n      pop\n      jump\t// out\n        /* \"#utility.yul\":3267:3389   */\n    tag_20:\n        /* \"#utility.yul\":3340:3364   */\n      tag_69\n        /* \"#utility.yul\":3358:3363   */\n      dup2\n        /* \"#utility.yul\":3340:3364   */\n      tag_47\n      jump\t// in\n    tag_69:\n        /* \"#utility.yul\":3333:3338   */\n      dup2\n        /* \"#utility.yul\":3330:3365   */\n      eq\n        /* \"#utility.yul\":3320:3383   */\n      tag_70\n      jumpi\n        /* \"#utility.yul\":3379:3380   */\n      0x00\n        /* \"#utility.yul\":3376:3377   */\n      dup1\n        /* \"#utility.yul\":3369:3381   */\n      revert\n        /* \"#utility.yul\":3320:3383   */\n    tag_70:\n        /* \"#utility.yul\":3267:3389   */\n      pop\n      jump\t// out\n\n    auxdata: 0xa2646970667358221220efa85771fc32f675278627560838e5a467ee5697b7d504f531197e6c5e4578e164736f6c63430008070033\n}\n",
				"bytecode": {
					"linkReferences": {},
					"object": "608060405234801561001057600080fd5b50610316806100206000396000f3fe608060405234801561001057600080fd5b506004361061002b5760003560e01c8063b43c5d3314610030575b600080fd5b61004a60048036038101906100459190610122565b610061565b604051610058929190610197565b60405180910390f35b600060205280600052604060002060009150905080600001549080600101805461008a90610252565b80601f01602080910402602001604051908101604052809291908181526020018280546100b690610252565b80156101035780601f106100d857610100808354040283529160200191610103565b820191906000526020600020905b8154815290600101906020018083116100e657829003601f168201915b5050505050905082565b60008135905061011c816102c9565b92915050565b600060208284031215610138576101376102b3565b5b60006101468482850161010d565b91505092915050565b600061015a826101c7565b61016481856101d2565b935061017481856020860161021f565b61017d816102b8565b840191505092915050565b61019181610215565b82525050565b60006040820190506101ac6000830185610188565b81810360208301526101be818461014f565b90509392505050565b600081519050919050565b600082825260208201905092915050565b60006101ee826101f5565b9050919050565b600073ffffffffffffffffffffffffffffffffffffffff82169050919050565b6000819050919050565b60005b8381101561023d578082015181840152602081019050610222565b8381111561024c576000848401525b50505050565b6000600282049050600182168061026a57607f821691505b6020821081141561027e5761027d610284565b5b50919050565b7f4e487b7100000000000000000000000000000000000000000000000000000000600052602260045260246000fd5b600080fd5b6000601f19601f8301169050919050565b6102d2816101e3565b81146102dd57600080fd5b5056fea2646970667358221220efa85771fc32f675278627560838e5a467ee5697b7d504f531197e6c5e4578e164736f6c63430008070033",
					"opcodes": "PUSH1 0x80 PUSH1 0x40 MSTORE CALLVALUE DUP1 ISZERO PUSH2 0x10 JUMPI PUSH1 0x0 DUP1 REVERT JUMPDEST POP PUSH2 0x316 DUP1 PUSH2 0x20 PUSH1 0x0 CODECOPY PUSH1 0x0 RETURN INVALID PUSH1 0x80 PUSH1 0x40 MSTORE CALLVALUE DUP1 ISZERO PUSH2 0x10 JUMPI PUSH1 0x0 DUP1 REVERT JUMPDEST POP PUSH1 0x4 CALLDATASIZE LT PUSH2 0x2B JUMPI PUSH1 0x0 CALLDATALOAD PUSH1 0xE0 SHR DUP1 PUSH4 0xB43C5D33 EQ PUSH2 0x30 JUMPI JUMPDEST PUSH1 0x0 DUP1 REVERT JUMPDEST PUSH2 0x4A PUSH1 0x4 DUP1 CALLDATASIZE SUB DUP2 ADD SWAP1 PUSH2 0x45 SWAP2 SWAP1 PUSH2 0x122 JUMP JUMPDEST PUSH2 0x61 JUMP JUMPDEST PUSH1 0x40 MLOAD PUSH2 0x58 SWAP3 SWAP2 SWAP1 PUSH2 0x197 JUMP JUMPDEST PUSH1 0x40 MLOAD DUP1 SWAP2 SUB SWAP1 RETURN JUMPDEST PUSH1 0x0 PUSH1 0x20 MSTORE DUP1 PUSH1 0x0 MSTORE PUSH1 0x40 PUSH1 0x0 KECCAK256 PUSH1 0x0 SWAP2 POP SWAP1 POP DUP1 PUSH1 0x0 ADD SLOAD SWAP1 DUP1 PUSH1 0x1 ADD DUP1 SLOAD PUSH2 0x8A SWAP1 PUSH2 0x252 JUMP JUMPDEST DUP1 PUSH1 0x1F ADD PUSH1 0x20 DUP1 SWAP2 DIV MUL PUSH1 0x20 ADD PUSH1 0x40 MLOAD SWAP1 DUP2 ADD PUSH1 0x40 MSTORE DUP1 SWAP3 SWAP2 SWAP1 DUP2 DUP2 MSTORE PUSH1 0x20 ADD DUP3 DUP1 SLOAD PUSH2 0xB6 SWAP1 PUSH2 0x252 JUMP JUMPDEST DUP1 ISZERO PUSH2 0x103 JUMPI DUP1 PUSH1 0x1F LT PUSH2 0xD8 JUMPI PUSH2 0x100 DUP1 DUP4 SLOAD DIV MUL DUP4 MSTORE SWAP2 PUSH1 0x20 ADD SWAP2 PUSH2 0x103 JUMP JUMPDEST DUP3 ADD SWAP2 SWAP1 PUSH1 0x0 MSTORE PUSH1 0x20 PUSH1 0x0 KECCAK256 SWAP1 JUMPDEST DUP2 SLOAD DUP2 MSTORE SWAP1 PUSH1 0x1 ADD SWAP1 PUSH1 0x20 ADD DUP1 DUP4 GT PUSH2 0xE6 JUMPI DUP3 SWAP1 SUB PUSH1 0x1F AND DUP3 ADD SWAP2 JUMPDEST POP POP POP POP POP SWAP1 POP DUP3 JUMP JUMPDEST PUSH1 0x0 DUP2 CALLDATALOAD SWAP1 POP PUSH2 0x11C DUP2 PUSH2 0x2C9 JUMP JUMPDEST SWAP3 SWAP2 POP POP JUMP JUMPDEST PUSH1 0x0 PUSH1 0x20 DUP3 DUP5 SUB SLT ISZERO PUSH2 0x138 JUMPI PUSH2 0x137 PUSH2 0x2B3 JUMP JUMPDEST JUMPDEST PUSH1 0x0 PUSH2 0x146 DUP5 DUP3 DUP6 ADD PUSH2 0x10D JUMP JUMPDEST SWAP2 POP POP SWAP3 SWAP2 POP POP JUMP JUMPDEST PUSH1 0x0 PUSH2 0x15A DUP3 PUSH2 0x1C7 JUMP JUMPDEST PUSH2 0x164 DUP2 DUP6 PUSH2 0x1D2 JUMP JUMPDEST SWAP4 POP PUSH2 0x174 DUP2 DUP6 PUSH1 0x20 DUP7 ADD PUSH2 0x21F JUMP JUMPDEST PUSH2 0x17D DUP2 PUSH2 0x2B8 JUMP JUMPDEST DUP5 ADD SWAP2 POP POP SWAP3 SWAP2 POP POP JUMP JUMPDEST PUSH2 0x191 DUP2 PUSH2 0x215 JUMP JUMPDEST DUP3 MSTORE POP POP JUMP JUMPDEST PUSH1 0x0 PUSH1 0x40 DUP3 ADD SWAP1 POP PUSH2 0x1AC PUSH1 0x0 DUP4 ADD DUP6 PUSH2 0x188 JUMP JUMPDEST DUP2 DUP2 SUB PUSH1 0x20 DUP4 ADD MSTORE PUSH2 0x1BE DUP2 DUP5 PUSH2 0x14F JUMP JUMPDEST SWAP1 POP SWAP4 SWAP3 POP POP POP JUMP JUMPDEST PUSH1 0x0 DUP2 MLOAD SWAP1 POP SWAP2 SWAP1 POP JUMP JUMPDEST PUSH1 0x0 DUP3 DUP3 MSTORE PUSH1 0x20 DUP3 ADD SWAP1 POP SWAP3 SWAP2 POP POP JUMP JUMPDEST PUSH1 0x0 PUSH2 0x1EE DUP3 PUSH2 0x1F5 JUMP JUMPDEST SWAP1 POP SWAP2 SWAP1 POP JUMP JUMPDEST PUSH1 0x0 PUSH20 0xFFFFFFFFFFFFFFFFFFFFFFFFFFFFFFFFFFFFFFFF DUP3 AND SWAP1 POP SWAP2 SWAP1 POP JUMP JUMPDEST PUSH1 0x0 DUP2 SWAP1 POP SWAP2 SWAP1 POP JUMP JUMPDEST PUSH1 0x0 JUMPDEST DUP4 DUP2 LT ISZERO PUSH2 0x23D JUMPI DUP1 DUP3 ADD MLOAD DUP2 DUP5 ADD MSTORE PUSH1 0x20 DUP2 ADD SWAP1 POP PUSH2 0x222 JUMP JUMPDEST DUP4 DUP2 GT ISZERO PUSH2 0x24C JUMPI PUSH1 0x0 DUP5 DUP5 ADD MSTORE JUMPDEST POP POP POP POP JUMP JUMPDEST PUSH1 0x0 PUSH1 0x2 DUP3 DIV SWAP1 POP PUSH1 0x1 DUP3 AND DUP1 PUSH2 0x26A JUMPI PUSH1 0x7F DUP3 AND SWAP2 POP JUMPDEST PUSH1 0x20 DUP3 LT DUP2 EQ ISZERO PUSH2 0x27E JUMPI PUSH2 0x27D PUSH2 0x284 JUMP JUMPDEST JUMPDEST POP SWAP2 SWAP1 POP JUMP JUMPDEST PUSH32 0x4E487B7100000000000000000000000000000000000000000000000000000000 PUSH1 0x0 MSTORE PUSH1 0x22 PUSH1 0x4 MSTORE PUSH1 0x24 PUSH1 0x0 REVERT JUMPDEST PUSH1 0x0 DUP1 REVERT JUMPDEST PUSH1 0x0 PUSH1 0x1F NOT PUSH1 0x1F DUP4 ADD AND SWAP1 POP SWAP2 SWAP1 POP JUMP JUMPDEST PUSH2 0x2D2 DUP2 PUSH2 0x1E3 JUMP JUMPDEST DUP2 EQ PUSH2 0x2DD JUMPI PUSH1 0x0 DUP1 REVERT JUMPDEST POP JUMP INVALID LOG2 PUSH5 0x6970667358 0x22 SLT KECCAK256 0xEF 0xA8 JUMPI PUSH18 0xFC32F675278627560838E5A467EE5697B7D5 DIV CREATE2 BALANCE NOT PUSH31 0x6C5E4578E164736F6C63430008070033000000000000000000000000000000 "
				},
				"gasEstimates": {
					"creation": {
						"codeDepositCost": "158000",
						"executionCost": "202",
						"totalCost": "158202"
					},
					"external": {
						"myStructs(address)": "infinite"
					}
				},
				"methodIdentifiers": {
					"myStructs(address)": "b43c5d33"
				}
			},
			"storageLayout": {
				"storage": [
					{
						"astId": 11,
						"contract": "Day23_DataLocation.sol:DataLocations",
						"label": "myStructs",
						"offset": 0,
						"slot": "0",
						"type": "t_mapping(t_address,t_struct(MyStruct)6_storage)"
					}
				],
				"types": {
					"t_address": {
						"encoding": "inplace",
						"label": "address",
						"numberOfBytes": "20"
					},
					"t_mapping(t_address,t_struct(MyStruct)6_storage)": {
						"encoding": "mapping",
						"key": "t_address",
						"label": "mapping(address => struct DataLocations.MyStruct)",
						"numberOfBytes": "32",
						"value": "t_struct(MyStruct)6_storage"
					},
					"t_string_storage": {
						"encoding": "bytes",
						"label": "string",
						"numberOfBytes": "32"
					},
					"t_struct(MyStruct)6_storage": {
						"encoding": "inplace",
						"label": "struct DataLocations.MyStruct",
						"members": [
							{
								"astId": 3,
								"contract": "Day23_DataLocation.sol:DataLocations",
								"label": "foo",
								"offset": 0,
								"slot": "0",
								"type": "t_uint256"
							},
							{
								"astId": 5,
								"contract": "Day23_DataLocation.sol:DataLocations",
								"label": "text",
								"offset": 0,
								"slot": "1",
								"type": "t_string_storage"
							}
						],
						"numberOfBytes": "64"
					},
					"t_uint256": {
						"encoding": "inplace",
						"label": "uint256",
						"numberOfBytes": "32"
					}
				}
			},
			"userdoc": {
				"kind": "user",
				"methods": {},
				"version": 1
			}
		}
	}
}