{
	"Day34_EthWallet.sol": {
		"EtherWallet": {
			"abi": [
				{
					"inputs": [],
					"stateMutability": "nonpayable",
					"type": "constructor"
				},
				{
					"inputs": [],
					"name": "getbalance",
					"outputs": [
						{
							"internalType": "uint256",
							"name": "",
							"type": "uint256"
						}
					],
					"stateMutability": "view",
					"type": "function"
				},
				{
					"inputs": [],
					"name": "owner",
					"outputs": [
						{
							"internalType": "address payable",
							"name": "",
							"type": "address"
						}
					],
					"stateMutability": "view",
					"type": "function"
				},
				{
					"inputs": [
						{
							"internalType": "uint256",
							"name": "_amount",
							"type": "uint256"
						}
					],
					"name": "withdraw",
					"outputs": [],
					"stateMutability": "nonpayable",
					"type": "function"
				},
				{
					"stateMutability": "payable",
					"type": "receive"
				}
			],
			"devdoc": {
				"kind": "dev",
				"methods": {},
				"version": 1
			},
			"evm": {
				"assembly": "    /* \"Day34_EthWallet.sol\":58:604  contract EtherWallet {... */\n  mstore(0x40, 0x80)\n    /* \"Day34_EthWallet.sol\":120:178  constructor() {... */\n  callvalue\n  dup1\n  iszero\n  tag_1\n  jumpi\n  0x00\n  dup1\n  revert\ntag_1:\n  pop\n    /* \"Day34_EthWallet.sol\":160:170  msg.sender */\n  caller\n    /* \"Day34_EthWallet.sol\":144:149  owner */\n  0x00\n  dup1\n    /* \"Day34_EthWallet.sol\":144:171  owner = payable(msg.sender) */\n  0x0100\n  exp\n  dup2\n  sload\n  dup2\n  0xffffffffffffffffffffffffffffffffffffffff\n  mul\n  not\n  and\n  swap1\n  dup4\n  0xffffffffffffffffffffffffffffffffffffffff\n  and\n  mul\n  or\n  swap1\n  sstore\n  pop\n    /* \"Day34_EthWallet.sol\":58:604  contract EtherWallet {... */\n  dataSize(sub_0)\n  dup1\n  dataOffset(sub_0)\n  0x00\n  codecopy\n  0x00\n  return\nstop\n\nsub_0: assembly {\n        /* \"Day34_EthWallet.sol\":58:604  contract EtherWallet {... */\n      mstore(0x40, 0x80)\n      jumpi(tag_1, lt(calldatasize, 0x04))\n      shr(0xe0, calldataload(0x00))\n      dup1\n      0x2e1a7d4d\n      eq\n      tag_3\n      jumpi\n      dup1\n      0x4d9b3d5d\n      eq\n      tag_4\n      jumpi\n      dup1\n      0x8da5cb5b\n      eq\n      tag_5\n      jumpi\n      jump(tag_2)\n    tag_1:\n      jumpi(tag_2, calldatasize)\n      stop\n    tag_2:\n      0x00\n      dup1\n      revert\n        /* \"Day34_EthWallet.sol\":219:500  function withdraw (uint _amount) external {... */\n    tag_3:\n      callvalue\n      dup1\n      iszero\n      tag_8\n      jumpi\n      0x00\n      dup1\n      revert\n    tag_8:\n      pop\n      tag_9\n      0x04\n      dup1\n      calldatasize\n      sub\n      dup2\n      add\n      swap1\n      tag_10\n      swap2\n      swap1\n      tag_11\n      jump\t// in\n    tag_10:\n      tag_12\n      jump\t// in\n    tag_9:\n      stop\n        /* \"Day34_EthWallet.sol\":506:602  function getbalance() external view returns (uint) {... */\n    tag_4:\n      callvalue\n      dup1\n      iszero\n      tag_13\n      jumpi\n      0x00\n      dup1\n      revert\n    tag_13:\n      pop\n      tag_14\n      tag_15\n      jump\t// in\n    tag_14:\n      mload(0x40)\n      tag_16\n      swap2\n      swap1\n      tag_17\n      jump\t// in\n    tag_16:\n      mload(0x40)\n      dup1\n      swap2\n      sub\n      swap1\n      return\n        /* \"Day34_EthWallet.sol\":85:113  address payable public owner */\n    tag_5:\n      callvalue\n      dup1\n      iszero\n      tag_18\n      jumpi\n      0x00\n      dup1\n      revert\n    tag_18:\n      pop\n      tag_19\n      tag_20\n      jump\t// in\n    tag_19:\n      mload(0x40)\n      tag_21\n      swap2\n      swap1\n      tag_22\n      jump\t// in\n    tag_21:\n      mload(0x40)\n      dup1\n      swap2\n      sub\n      swap1\n      return\n        /* \"Day34_EthWallet.sol\":219:500  function withdraw (uint _amount) external {... */\n    tag_12:\n        /* \"Day34_EthWallet.sol\":387:396  bool sent */\n      0x00\n        /* \"Day34_EthWallet.sol\":410:420  msg.sender */\n      caller\n        /* \"Day34_EthWallet.sol\":402:426  payable(msg.sender).call */\n      0xffffffffffffffffffffffffffffffffffffffff\n      and\n        /* \"Day34_EthWallet.sol\":434:441  _amount */\n      dup3\n        /* \"Day34_EthWallet.sol\":402:446  payable(msg.sender).call{value: _amount}(\"\") */\n      mload(0x40)\n      tag_24\n      swap1\n      tag_25\n      jump\t// in\n    tag_24:\n      0x00\n      mload(0x40)\n      dup1\n      dup4\n      sub\n      dup2\n      dup6\n      dup8\n      gas\n      call\n      swap3\n      pop\n      pop\n      pop\n      returndatasize\n      dup1\n      0x00\n      dup2\n      eq\n      tag_28\n      jumpi\n      mload(0x40)\n      swap2\n      pop\n      and(add(returndatasize, 0x3f), not(0x1f))\n      dup3\n      add\n      0x40\n      mstore\n      returndatasize\n      dup3\n      mstore\n      returndatasize\n      0x00\n      0x20\n      dup5\n      add\n      returndatacopy\n      jump(tag_27)\n    tag_28:\n      0x60\n      swap2\n      pop\n    tag_27:\n      pop\n        /* \"Day34_EthWallet.sol\":386:446  (bool sent, ) = payable(msg.sender).call{value: _amount}(\"\") */\n      pop\n      swap1\n      pop\n        /* \"Day34_EthWallet.sol\":464:468  sent */\n      dup1\n        /* \"Day34_EthWallet.sol\":456:493  require(sent, \"failed to send ether\") */\n      tag_29\n      jumpi\n      mload(0x40)\n      0x08c379a000000000000000000000000000000000000000000000000000000000\n      dup2\n      mstore\n      0x04\n      add\n      tag_30\n      swap1\n      tag_31\n      jump\t// in\n    tag_30:\n      mload(0x40)\n      dup1\n      swap2\n      sub\n      swap1\n      revert\n    tag_29:\n        /* \"Day34_EthWallet.sol\":261:500  {... */\n      pop\n        /* \"Day34_EthWallet.sol\":219:500  function withdraw (uint _amount) external {... */\n      pop\n      jump\t// out\n        /* \"Day34_EthWallet.sol\":506:602  function getbalance() external view returns (uint) {... */\n    tag_15:\n        /* \"Day34_EthWallet.sol\":551:555  uint */\n      0x00\n        /* \"Day34_EthWallet.sol\":574:595  address(this).balance */\n      selfbalance\n        /* \"Day34_EthWallet.sol\":567:595  return address(this).balance */\n      swap1\n      pop\n        /* \"Day34_EthWallet.sol\":506:602  function getbalance() external view returns (uint) {... */\n      swap1\n      jump\t// out\n        /* \"Day34_EthWallet.sol\":85:113  address payable public owner */\n    tag_20:\n      0x00\n      dup1\n      sload\n      swap1\n      0x0100\n      exp\n      swap1\n      div\n      0xffffffffffffffffffffffffffffffffffffffff\n      and\n      dup2\n      jump\t// out\n        /* \"#utility.yul\":7:146   */\n    tag_34:\n        /* \"#utility.yul\":53:58   */\n      0x00\n        /* \"#utility.yul\":91:97   */\n      dup2\n        /* \"#utility.yul\":78:98   */\n      calldataload\n        /* \"#utility.yul\":69:98   */\n      swap1\n      pop\n        /* \"#utility.yul\":107:140   */\n      tag_36\n        /* \"#utility.yul\":134:139   */\n      dup2\n        /* \"#utility.yul\":107:140   */\n      tag_37\n      jump\t// in\n    tag_36:\n        /* \"#utility.yul\":7:146   */\n      swap3\n      swap2\n      pop\n      pop\n      jump\t// out\n        /* \"#utility.yul\":152:481   */\n    tag_11:\n        /* \"#utility.yul\":211:217   */\n      0x00\n        /* \"#utility.yul\":260:262   */\n      0x20\n        /* \"#utility.yul\":248:257   */\n      dup3\n        /* \"#utility.yul\":239:246   */\n      dup5\n        /* \"#utility.yul\":235:258   */\n      sub\n        /* \"#utility.yul\":231:263   */\n      slt\n        /* \"#utility.yul\":228:347   */\n      iszero\n      tag_39\n      jumpi\n        /* \"#utility.yul\":266:345   */\n      tag_40\n      tag_41\n      jump\t// in\n    tag_40:\n        /* \"#utility.yul\":228:347   */\n    tag_39:\n        /* \"#utility.yul\":386:387   */\n      0x00\n        /* \"#utility.yul\":411:464   */\n      tag_42\n        /* \"#utility.yul\":456:463   */\n      dup5\n        /* \"#utility.yul\":447:453   */\n      dup3\n        /* \"#utility.yul\":436:445   */\n      dup6\n        /* \"#utility.yul\":432:454   */\n      add\n        /* \"#utility.yul\":411:464   */\n      tag_34\n      jump\t// in\n    tag_42:\n        /* \"#utility.yul\":401:464   */\n      swap2\n      pop\n        /* \"#utility.yul\":357:474   */\n      pop\n        /* \"#utility.yul\":152:481   */\n      swap3\n      swap2\n      pop\n      pop\n      jump\t// out\n        /* \"#utility.yul\":487:629   */\n    tag_43:\n        /* \"#utility.yul\":590:622   */\n      tag_45\n        /* \"#utility.yul\":616:621   */\n      dup2\n        /* \"#utility.yul\":590:622   */\n      tag_46\n      jump\t// in\n    tag_45:\n        /* \"#utility.yul\":585:588   */\n      dup3\n        /* \"#utility.yul\":578:623   */\n      mstore\n        /* \"#utility.yul\":487:629   */\n      pop\n      pop\n      jump\t// out\n        /* \"#utility.yul\":635:1001   */\n    tag_47:\n        /* \"#utility.yul\":777:780   */\n      0x00\n        /* \"#utility.yul\":798:865   */\n      tag_49\n        /* \"#utility.yul\":862:864   */\n      0x14\n        /* \"#utility.yul\":857:860   */\n      dup4\n        /* \"#utility.yul\":798:865   */\n      tag_50\n      jump\t// in\n    tag_49:\n        /* \"#utility.yul\":791:865   */\n      swap2\n      pop\n        /* \"#utility.yul\":874:967   */\n      tag_51\n        /* \"#utility.yul\":963:966   */\n      dup3\n        /* \"#utility.yul\":874:967   */\n      tag_52\n      jump\t// in\n    tag_51:\n        /* \"#utility.yul\":992:994   */\n      0x20\n        /* \"#utility.yul\":987:990   */\n      dup3\n        /* \"#utility.yul\":983:995   */\n      add\n        /* \"#utility.yul\":976:995   */\n      swap1\n      pop\n        /* \"#utility.yul\":635:1001   */\n      swap2\n      swap1\n      pop\n      jump\t// out\n        /* \"#utility.yul\":1007:1405   */\n    tag_53:\n        /* \"#utility.yul\":1166:1169   */\n      0x00\n        /* \"#utility.yul\":1187:1270   */\n      tag_55\n        /* \"#utility.yul\":1268:1269   */\n      0x00\n        /* \"#utility.yul\":1263:1266   */\n      dup4\n        /* \"#utility.yul\":1187:1270   */\n      tag_56\n      jump\t// in\n    tag_55:\n        /* \"#utility.yul\":1180:1270   */\n      swap2\n      pop\n        /* \"#utility.yul\":1279:1372   */\n      tag_57\n        /* \"#utility.yul\":1368:1371   */\n      dup3\n        /* \"#utility.yul\":1279:1372   */\n      tag_58\n      jump\t// in\n    tag_57:\n        /* \"#utility.yul\":1397:1398   */\n      0x00\n        /* \"#utility.yul\":1392:1395   */\n      dup3\n        /* \"#utility.yul\":1388:1399   */\n      add\n        /* \"#utility.yul\":1381:1399   */\n      swap1\n      pop\n        /* \"#utility.yul\":1007:1405   */\n      swap2\n      swap1\n      pop\n      jump\t// out\n        /* \"#utility.yul\":1411:1529   */\n    tag_59:\n        /* \"#utility.yul\":1498:1522   */\n      tag_61\n        /* \"#utility.yul\":1516:1521   */\n      dup2\n        /* \"#utility.yul\":1498:1522   */\n      tag_62\n      jump\t// in\n    tag_61:\n        /* \"#utility.yul\":1493:1496   */\n      dup3\n        /* \"#utility.yul\":1486:1523   */\n      mstore\n        /* \"#utility.yul\":1411:1529   */\n      pop\n      pop\n      jump\t// out\n        /* \"#utility.yul\":1535:1914   */\n    tag_25:\n        /* \"#utility.yul\":1719:1722   */\n      0x00\n        /* \"#utility.yul\":1741:1888   */\n      tag_64\n        /* \"#utility.yul\":1884:1887   */\n      dup3\n        /* \"#utility.yul\":1741:1888   */\n      tag_53\n      jump\t// in\n    tag_64:\n        /* \"#utility.yul\":1734:1888   */\n      swap2\n      pop\n        /* \"#utility.yul\":1905:1908   */\n      dup2\n        /* \"#utility.yul\":1898:1908   */\n      swap1\n      pop\n        /* \"#utility.yul\":1535:1914   */\n      swap2\n      swap1\n      pop\n      jump\t// out\n        /* \"#utility.yul\":1920:2174   */\n    tag_22:\n        /* \"#utility.yul\":2029:2033   */\n      0x00\n        /* \"#utility.yul\":2067:2069   */\n      0x20\n        /* \"#utility.yul\":2056:2065   */\n      dup3\n        /* \"#utility.yul\":2052:2070   */\n      add\n        /* \"#utility.yul\":2044:2070   */\n      swap1\n      pop\n        /* \"#utility.yul\":2080:2167   */\n      tag_66\n        /* \"#utility.yul\":2164:2165   */\n      0x00\n        /* \"#utility.yul\":2153:2162   */\n      dup4\n        /* \"#utility.yul\":2149:2166   */\n      add\n        /* \"#utility.yul\":2140:2146   */\n      dup5\n        /* \"#utility.yul\":2080:2167   */\n      tag_43\n      jump\t// in\n    tag_66:\n        /* \"#utility.yul\":1920:2174   */\n      swap3\n      swap2\n      pop\n      pop\n      jump\t// out\n        /* \"#utility.yul\":2180:2599   */\n    tag_31:\n        /* \"#utility.yul\":2346:2350   */\n      0x00\n        /* \"#utility.yul\":2384:2386   */\n      0x20\n        /* \"#utility.yul\":2373:2382   */\n      dup3\n        /* \"#utility.yul\":2369:2387   */\n      add\n        /* \"#utility.yul\":2361:2387   */\n      swap1\n      pop\n        /* \"#utility.yul\":2433:2442   */\n      dup2\n        /* \"#utility.yul\":2427:2431   */\n      dup2\n        /* \"#utility.yul\":2423:2443   */\n      sub\n        /* \"#utility.yul\":2419:2420   */\n      0x00\n        /* \"#utility.yul\":2408:2417   */\n      dup4\n        /* \"#utility.yul\":2404:2421   */\n      add\n        /* \"#utility.yul\":2397:2444   */\n      mstore\n        /* \"#utility.yul\":2461:2592   */\n      tag_68\n        /* \"#utility.yul\":2587:2591   */\n      dup2\n        /* \"#utility.yul\":2461:2592   */\n      tag_47\n      jump\t// in\n    tag_68:\n        /* \"#utility.yul\":2453:2592   */\n      swap1\n      pop\n        /* \"#utility.yul\":2180:2599   */\n      swap2\n      swap1\n      pop\n      jump\t// out\n        /* \"#utility.yul\":2605:2827   */\n    tag_17:\n        /* \"#utility.yul\":2698:2702   */\n      0x00\n        /* \"#utility.yul\":2736:2738   */\n      0x20\n        /* \"#utility.yul\":2725:2734   */\n      dup3\n        /* \"#utility.yul\":2721:2739   */\n      add\n        /* \"#utility.yul\":2713:2739   */\n      swap1\n      pop\n        /* \"#utility.yul\":2749:2820   */\n      tag_70\n        /* \"#utility.yul\":2817:2818   */\n      0x00\n        /* \"#utility.yul\":2806:2815   */\n      dup4\n        /* \"#utility.yul\":2802:2819   */\n      add\n        /* \"#utility.yul\":2793:2799   */\n      dup5\n        /* \"#utility.yul\":2749:2820   */\n      tag_59\n      jump\t// in\n    tag_70:\n        /* \"#utility.yul\":2605:2827   */\n      swap3\n      swap2\n      pop\n      pop\n      jump\t// out\n        /* \"#utility.yul\":2914:3061   */\n    tag_56:\n        /* \"#utility.yul\":3015:3026   */\n      0x00\n        /* \"#utility.yul\":3052:3055   */\n      dup2\n        /* \"#utility.yul\":3037:3055   */\n      swap1\n      pop\n        /* \"#utility.yul\":2914:3061   */\n      swap3\n      swap2\n      pop\n      pop\n      jump\t// out\n        /* \"#utility.yul\":3067:3236   */\n    tag_50:\n        /* \"#utility.yul\":3151:3162   */\n      0x00\n        /* \"#utility.yul\":3185:3191   */\n      dup3\n        /* \"#utility.yul\":3180:3183   */\n      dup3\n        /* \"#utility.yul\":3173:3192   */\n      mstore\n        /* \"#utility.yul\":3225:3229   */\n      0x20\n        /* \"#utility.yul\":3220:3223   */\n      dup3\n        /* \"#utility.yul\":3216:3230   */\n      add\n        /* \"#utility.yul\":3201:3230   */\n      swap1\n      pop\n        /* \"#utility.yul\":3067:3236   */\n      swap3\n      swap2\n      pop\n      pop\n      jump\t// out\n        /* \"#utility.yul\":3242:3346   */\n    tag_46:\n        /* \"#utility.yul\":3287:3294   */\n      0x00\n        /* \"#utility.yul\":3316:3340   */\n      tag_76\n        /* \"#utility.yul\":3334:3339   */\n      dup3\n        /* \"#utility.yul\":3316:3340   */\n      tag_77\n      jump\t// in\n    tag_76:\n        /* \"#utility.yul\":3305:3340   */\n      swap1\n      pop\n        /* \"#utility.yul\":3242:3346   */\n      swap2\n      swap1\n      pop\n      jump\t// out\n        /* \"#utility.yul\":3352:3478   */\n    tag_77:\n        /* \"#utility.yul\":3389:3396   */\n      0x00\n        /* \"#utility.yul\":3429:3471   */\n      0xffffffffffffffffffffffffffffffffffffffff\n        /* \"#utility.yul\":3422:3427   */\n      dup3\n        /* \"#utility.yul\":3418:3472   */\n      and\n        /* \"#utility.yul\":3407:3472   */\n      swap1\n      pop\n        /* \"#utility.yul\":3352:3478   */\n      swap2\n      swap1\n      pop\n      jump\t// out\n        /* \"#utility.yul\":3484:3561   */\n    tag_62:\n        /* \"#utility.yul\":3521:3528   */\n      0x00\n        /* \"#utility.yul\":3550:3555   */\n      dup2\n        /* \"#utility.yul\":3539:3555   */\n      swap1\n      pop\n        /* \"#utility.yul\":3484:3561   */\n      swap2\n      swap1\n      pop\n      jump\t// out\n        /* \"#utility.yul\":3690:3807   */\n    tag_41:\n        /* \"#utility.yul\":3799:3800   */\n      0x00\n        /* \"#utility.yul\":3796:3797   */\n      dup1\n        /* \"#utility.yul\":3789:3801   */\n      revert\n        /* \"#utility.yul\":3813:3983   */\n    tag_52:\n        /* \"#utility.yul\":3953:3975   */\n      0x6661696c656420746f2073656e64206574686572000000000000000000000000\n        /* \"#utility.yul\":3949:3950   */\n      0x00\n        /* \"#utility.yul\":3941:3947   */\n      dup3\n        /* \"#utility.yul\":3937:3951   */\n      add\n        /* \"#utility.yul\":3930:3976   */\n      mstore\n        /* \"#utility.yul\":3813:3983   */\n      pop\n      jump\t// out\n        /* \"#utility.yul\":3989:4103   */\n    tag_58:\n      pop\n      jump\t// out\n        /* \"#utility.yul\":4109:4231   */\n    tag_37:\n        /* \"#utility.yul\":4182:4206   */\n      tag_86\n        /* \"#utility.yul\":4200:4205   */\n      dup2\n        /* \"#utility.yul\":4182:4206   */\n      tag_62\n      jump\t// in\n    tag_86:\n        /* \"#utility.yul\":4175:4180   */\n      dup2\n        /* \"#utility.yul\":4172:4207   */\n      eq\n        /* \"#utility.yul\":4162:4225   */\n      tag_87\n      jumpi\n        /* \"#utility.yul\":4221:4222   */\n      0x00\n        /* \"#utility.yul\":4218:4219   */\n      dup1\n        /* \"#utility.yul\":4211:4223   */\n      revert\n        /* \"#utility.yul\":4162:4225   */\n    tag_87:\n        /* \"#utility.yul\":4109:4231   */\n      pop\n      jump\t// out\n\n    auxdata: 0xa2646970667358221220f0cbe4f718f3fd377bc1b15e7279f2cf0933f13dd7f25bd2623ba2f20f6d196364736f6c63430008070033\n}\n",
				"bytecode": {
					"linkReferences": {},
					"object": "608060405234801561001057600080fd5b50336000806101000a81548173ffffffffffffffffffffffffffffffffffffffff021916908373ffffffffffffffffffffffffffffffffffffffff160217905550610386806100606000396000f3fe6080604052600436106100385760003560e01c80632e1a7d4d146100445780634d9b3d5d1461006d5780638da5cb5b146100985761003f565b3661003f57005b600080fd5b34801561005057600080fd5b5061006b600480360381019061006691906101b4565b6100c3565b005b34801561007957600080fd5b50610082610173565b60405161008f9190610295565b60405180910390f35b3480156100a457600080fd5b506100ad61017b565b6040516100ba919061025a565b60405180910390f35b60003373ffffffffffffffffffffffffffffffffffffffff16826040516100e990610245565b60006040518083038185875af1925050503d8060008114610126576040519150601f19603f3d011682016040523d82523d6000602084013e61012b565b606091505b505090508061016f576040517f08c379a000000000000000000000000000000000000000000000000000000000815260040161016690610275565b60405180910390fd5b5050565b600047905090565b60008054906101000a900473ffffffffffffffffffffffffffffffffffffffff1681565b6000813590506101ae81610339565b92915050565b6000602082840312156101ca576101c9610308565b5b60006101d88482850161019f565b91505092915050565b6101ea816102cc565b82525050565b60006101fd6014836102bb565b91506102088261030d565b602082019050919050565b60006102206000836102b0565b915061022b82610336565b600082019050919050565b61023f816102fe565b82525050565b600061025082610213565b9150819050919050565b600060208201905061026f60008301846101e1565b92915050565b6000602082019050818103600083015261028e816101f0565b9050919050565b60006020820190506102aa6000830184610236565b92915050565b600081905092915050565b600082825260208201905092915050565b60006102d7826102de565b9050919050565b600073ffffffffffffffffffffffffffffffffffffffff82169050919050565b6000819050919050565b600080fd5b7f6661696c656420746f2073656e64206574686572000000000000000000000000600082015250565b50565b610342816102fe565b811461034d57600080fd5b5056fea2646970667358221220f0cbe4f718f3fd377bc1b15e7279f2cf0933f13dd7f25bd2623ba2f20f6d196364736f6c63430008070033",
					"opcodes": "PUSH1 0x80 PUSH1 0x40 MSTORE CALLVALUE DUP1 ISZERO PUSH2 0x10 JUMPI PUSH1 0x0 DUP1 REVERT JUMPDEST POP CALLER PUSH1 0x0 DUP1 PUSH2 0x100 EXP DUP2 SLOAD DUP2 PUSH20 0xFFFFFFFFFFFFFFFFFFFFFFFFFFFFFFFFFFFFFFFF MUL NOT AND SWAP1 DUP4 PUSH20 0xFFFFFFFFFFFFFFFFFFFFFFFFFFFFFFFFFFFFFFFF AND MUL OR SWAP1 SSTORE POP PUSH2 0x386 DUP1 PUSH2 0x60 PUSH1 0x0 CODECOPY PUSH1 0x0 RETURN INVALID PUSH1 0x80 PUSH1 0x40 MSTORE PUSH1 0x4 CALLDATASIZE LT PUSH2 0x38 JUMPI PUSH1 0x0 CALLDATALOAD PUSH1 0xE0 SHR DUP1 PUSH4 0x2E1A7D4D EQ PUSH2 0x44 JUMPI DUP1 PUSH4 0x4D9B3D5D EQ PUSH2 0x6D JUMPI DUP1 PUSH4 0x8DA5CB5B EQ PUSH2 0x98 JUMPI PUSH2 0x3F JUMP JUMPDEST CALLDATASIZE PUSH2 0x3F JUMPI STOP JUMPDEST PUSH1 0x0 DUP1 REVERT JUMPDEST CALLVALUE DUP1 ISZERO PUSH2 0x50 JUMPI PUSH1 0x0 DUP1 REVERT JUMPDEST POP PUSH2 0x6B PUSH1 0x4 DUP1 CALLDATASIZE SUB DUP2 ADD SWAP1 PUSH2 0x66 SWAP2 SWAP1 PUSH2 0x1B4 JUMP JUMPDEST PUSH2 0xC3 JUMP JUMPDEST STOP JUMPDEST CALLVALUE DUP1 ISZERO PUSH2 0x79 JUMPI PUSH1 0x0 DUP1 REVERT JUMPDEST POP PUSH2 0x82 PUSH2 0x173 JUMP JUMPDEST PUSH1 0x40 MLOAD PUSH2 0x8F SWAP2 SWAP1 PUSH2 0x295 JUMP JUMPDEST PUSH1 0x40 MLOAD DUP1 SWAP2 SUB SWAP1 RETURN JUMPDEST CALLVALUE DUP1 ISZERO PUSH2 0xA4 JUMPI PUSH1 0x0 DUP1 REVERT JUMPDEST POP PUSH2 0xAD PUSH2 0x17B JUMP JUMPDEST PUSH1 0x40 MLOAD PUSH2 0xBA SWAP2 SWAP1 PUSH2 0x25A JUMP JUMPDEST PUSH1 0x40 MLOAD DUP1 SWAP2 SUB SWAP1 RETURN JUMPDEST PUSH1 0x0 CALLER PUSH20 0xFFFFFFFFFFFFFFFFFFFFFFFFFFFFFFFFFFFFFFFF AND DUP3 PUSH1 0x40 MLOAD PUSH2 0xE9 SWAP1 PUSH2 0x245 JUMP JUMPDEST PUSH1 0x0 PUSH1 0x40 MLOAD DUP1 DUP4 SUB DUP2 DUP6 DUP8 GAS CALL SWAP3 POP POP POP RETURNDATASIZE DUP1 PUSH1 0x0 DUP2 EQ PUSH2 0x126 JUMPI PUSH1 0x40 MLOAD SWAP2 POP PUSH1 0x1F NOT PUSH1 0x3F RETURNDATASIZE ADD AND DUP3 ADD PUSH1 0x40 MSTORE RETURNDATASIZE DUP3 MSTORE RETURNDATASIZE PUSH1 0x0 PUSH1 0x20 DUP5 ADD RETURNDATACOPY PUSH2 0x12B JUMP JUMPDEST PUSH1 0x60 SWAP2 POP JUMPDEST POP POP SWAP1 POP DUP1 PUSH2 0x16F JUMPI PUSH1 0x40 MLOAD PUSH32 0x8C379A000000000000000000000000000000000000000000000000000000000 DUP2 MSTORE PUSH1 0x4 ADD PUSH2 0x166 SWAP1 PUSH2 0x275 JUMP JUMPDEST PUSH1 0x40 MLOAD DUP1 SWAP2 SUB SWAP1 REVERT JUMPDEST POP POP JUMP JUMPDEST PUSH1 0x0 SELFBALANCE SWAP1 POP SWAP1 JUMP JUMPDEST PUSH1 0x0 DUP1 SLOAD SWAP1 PUSH2 0x100 EXP SWAP1 DIV PUSH20 0xFFFFFFFFFFFFFFFFFFFFFFFFFFFFFFFFFFFFFFFF AND DUP2 JUMP JUMPDEST PUSH1 0x0 DUP2 CALLDATALOAD SWAP1 POP PUSH2 0x1AE DUP2 PUSH2 0x339 JUMP JUMPDEST SWAP3 SWAP2 POP POP JUMP JUMPDEST PUSH1 0x0 PUSH1 0x20 DUP3 DUP5 SUB SLT ISZERO PUSH2 0x1CA JUMPI PUSH2 0x1C9 PUSH2 0x308 JUMP JUMPDEST JUMPDEST PUSH1 0x0 PUSH2 0x1D8 DUP5 DUP3 DUP6 ADD PUSH2 0x19F JUMP JUMPDEST SWAP2 POP POP SWAP3 SWAP2 POP POP JUMP JUMPDEST PUSH2 0x1EA DUP2 PUSH2 0x2CC JUMP JUMPDEST DUP3 MSTORE POP POP JUMP JUMPDEST PUSH1 0x0 PUSH2 0x1FD PUSH1 0x14 DUP4 PUSH2 0x2BB JUMP JUMPDEST SWAP2 POP PUSH2 0x208 DUP3 PUSH2 0x30D JUMP JUMPDEST PUSH1 0x20 DUP3 ADD SWAP1 POP SWAP2 SWAP1 POP JUMP JUMPDEST PUSH1 0x0 PUSH2 0x220 PUSH1 0x0 DUP4 PUSH2 0x2B0 JUMP JUMPDEST SWAP2 POP PUSH2 0x22B DUP3 PUSH2 0x336 JUMP JUMPDEST PUSH1 0x0 DUP3 ADD SWAP1 POP SWAP2 SWAP1 POP JUMP JUMPDEST PUSH2 0x23F DUP2 PUSH2 0x2FE JUMP JUMPDEST DUP3 MSTORE POP POP JUMP JUMPDEST PUSH1 0x0 PUSH2 0x250 DUP3 PUSH2 0x213 JUMP JUMPDEST SWAP2 POP DUP2 SWAP1 POP SWAP2 SWAP1 POP JUMP JUMPDEST PUSH1 0x0 PUSH1 0x20 DUP3 ADD SWAP1 POP PUSH2 0x26F PUSH1 0x0 DUP4 ADD DUP5 PUSH2 0x1E1 JUMP JUMPDEST SWAP3 SWAP2 POP POP JUMP JUMPDEST PUSH1 0x0 PUSH1 0x20 DUP3 ADD SWAP1 POP DUP2 DUP2 SUB PUSH1 0x0 DUP4 ADD MSTORE PUSH2 0x28E DUP2 PUSH2 0x1F0 JUMP JUMPDEST SWAP1 POP SWAP2 SWAP1 POP JUMP JUMPDEST PUSH1 0x0 PUSH1 0x20 DUP3 ADD SWAP1 POP PUSH2 0x2AA PUSH1 0x0 DUP4 ADD DUP5 PUSH2 0x236 JUMP JUMPDEST SWAP3 SWAP2 POP POP JUMP JUMPDEST PUSH1 0x0 DUP2 SWAP1 POP SWAP3 SWAP2 POP POP JUMP JUMPDEST PUSH1 0x0 DUP3 DUP3 MSTORE PUSH1 0x20 DUP3 ADD SWAP1 POP SWAP3 SWAP2 POP POP JUMP JUMPDEST PUSH1 0x0 PUSH2 0x2D7 DUP3 PUSH2 0x2DE JUMP JUMPDEST SWAP1 POP SWAP2 SWAP1 POP JUMP JUMPDEST PUSH1 0x0 PUSH20 0xFFFFFFFFFFFFFFFFFFFFFFFFFFFFFFFFFFFFFFFF DUP3 AND SWAP1 POP SWAP2 SWAP1 POP JUMP JUMPDEST PUSH1 0x0 DUP2 SWAP1 POP SWAP2 SWAP1 POP JUMP JUMPDEST PUSH1 0x0 DUP1 REVERT JUMPDEST PUSH32 0x6661696C656420746F2073656E64206574686572000000000000000000000000 PUSH1 0x0 DUP3 ADD MSTORE POP JUMP JUMPDEST POP JUMP JUMPDEST PUSH2 0x342 DUP2 PUSH2 0x2FE JUMP JUMPDEST DUP2 EQ PUSH2 0x34D JUMPI PUSH1 0x0 DUP1 REVERT JUMPDEST POP JUMP INVALID LOG2 PUSH5 0x6970667358 0x22 SLT KECCAK256 CREATE 0xCB 0xE4 0xF7 XOR RETURN REVERT CALLDATACOPY PUSH28 0xC1B15E7279F2CF0933F13DD7F25BD2623BA2F20F6D196364736F6C63 NUMBER STOP ADDMOD SMOD STOP CALLER "
				},
				"gasEstimates": {
					"creation": {
						"codeDepositCost": "180400",
						"executionCost": "24492",
						"totalCost": "204892"
					},
					"external": {
						"getbalance()": "339",
						"owner()": "2533",
						"withdraw(uint256)": "infinite"
					}
				},
				"methodIdentifiers": {
					"getbalance()": "4d9b3d5d",
					"owner()": "8da5cb5b",
					"withdraw(uint256)": "2e1a7d4d"
				}
			},
			"storageLayout": {
				"storage": [
					{
						"astId": 3,
						"contract": "Day34_EthWallet.sol:EtherWallet",
						"label": "owner",
						"offset": 0,
						"slot": "0",
						"type": "t_address_payable"
					}
				],
				"types": {
					"t_address_payable": {
						"encoding": "inplace",
						"label": "address payable",
						"numberOfBytes": "20"
					}
				}
			},
			"userdoc": {
				"kind": "user",
				"methods": {},
				"version": 1
			}
		}
	}
}