{
	"Day16_ArrayShift.sol": {
		"ArrayShift": {
			"abi": [
				{
					"inputs": [
						{
							"internalType": "uint256",
							"name": "",
							"type": "uint256"
						}
					],
					"name": "arr",
					"outputs": [
						{
							"internalType": "uint256",
							"name": "",
							"type": "uint256"
						}
					],
					"stateMutability": "view",
					"type": "function"
				},
				{
					"inputs": [],
					"name": "example",
					"outputs": [],
					"stateMutability": "nonpayable",
					"type": "function"
				},
				{
					"inputs": [
						{
							"internalType": "uint256",
							"name": "index",
							"type": "uint256"
						}
					],
					"name": "remove",
					"outputs": [],
					"stateMutability": "nonpayable",
					"type": "function"
				},
				{
					"inputs": [],
					"name": "test",
					"outputs": [],
					"stateMutability": "nonpayable",
					"type": "function"
				}
			],
			"devdoc": {
				"kind": "dev",
				"methods": {},
				"version": 1
			},
			"evm": {
				"assembly": "    /* \"Day16_ArrayShift.sol\":58:785  contract ArrayShift {... */\n  mstore(0x40, 0x80)\n  callvalue\n  dup1\n  iszero\n  tag_1\n  jumpi\n  0x00\n  dup1\n  revert\ntag_1:\n  pop\n  dataSize(sub_0)\n  dup1\n  dataOffset(sub_0)\n  0x00\n  codecopy\n  0x00\n  return\nstop\n\nsub_0: assembly {\n        /* \"Day16_ArrayShift.sol\":58:785  contract ArrayShift {... */\n      mstore(0x40, 0x80)\n      callvalue\n      dup1\n      iszero\n      tag_1\n      jumpi\n      0x00\n      dup1\n      revert\n    tag_1:\n      pop\n      jumpi(tag_2, lt(calldatasize, 0x04))\n      shr(0xe0, calldataload(0x00))\n      dup1\n      0x4cc82215\n      eq\n      tag_3\n      jumpi\n      dup1\n      0x54353f2f\n      eq\n      tag_4\n      jumpi\n      dup1\n      0x71e5ee5f\n      eq\n      tag_5\n      jumpi\n      dup1\n      0xf8a8fd6d\n      eq\n      tag_6\n      jumpi\n    tag_2:\n      0x00\n      dup1\n      revert\n        /* \"Day16_ArrayShift.sol\":310:527  function remove (uint index) public {... */\n    tag_3:\n      tag_7\n      0x04\n      dup1\n      calldatasize\n      sub\n      dup2\n      add\n      swap1\n      tag_8\n      swap2\n      swap1\n      tag_9\n      jump\t// in\n    tag_8:\n      tag_10\n      jump\t// in\n    tag_7:\n      stop\n        /* \"Day16_ArrayShift.sol\":108:210  function example () external {... */\n    tag_4:\n      tag_11\n      tag_12\n      jump\t// in\n    tag_11:\n      stop\n        /* \"Day16_ArrayShift.sol\":84:101  uint[] public arr */\n    tag_5:\n      tag_13\n      0x04\n      dup1\n      calldatasize\n      sub\n      dup2\n      add\n      swap1\n      tag_14\n      swap2\n      swap1\n      tag_9\n      jump\t// in\n    tag_14:\n      tag_15\n      jump\t// in\n    tag_13:\n      mload(0x40)\n      tag_16\n      swap2\n      swap1\n      tag_17\n      jump\t// in\n    tag_16:\n      mload(0x40)\n      dup1\n      swap2\n      sub\n      swap1\n      return\n        /* \"Day16_ArrayShift.sol\":533:783  function test () external {... */\n    tag_6:\n      tag_18\n      tag_19\n      jump\t// in\n    tag_18:\n      stop\n        /* \"Day16_ArrayShift.sol\":310:527  function remove (uint index) public {... */\n    tag_10:\n        /* \"Day16_ArrayShift.sol\":373:376  arr */\n      0x00\n        /* \"Day16_ArrayShift.sol\":373:383  arr.length */\n      dup1\n      sload\n      swap1\n      pop\n        /* \"Day16_ArrayShift.sol\":365:370  index */\n      dup2\n        /* \"Day16_ArrayShift.sol\":365:383  index < arr.length */\n      lt\n        /* \"Day16_ArrayShift.sol\":356:405  require (index < arr.length,\"index out of bound\") */\n      tag_21\n      jumpi\n      mload(0x40)\n      0x08c379a000000000000000000000000000000000000000000000000000000000\n      dup2\n      mstore\n      0x04\n      add\n      tag_22\n      swap1\n      tag_23\n      jump\t// in\n    tag_22:\n      mload(0x40)\n      dup1\n      swap2\n      sub\n      swap1\n      revert\n    tag_21:\n        /* \"Day16_ArrayShift.sol\":420:426  uint i */\n      0x00\n        /* \"Day16_ArrayShift.sol\":427:432  index */\n      dup2\n        /* \"Day16_ArrayShift.sol\":420:432  uint i=index */\n      swap1\n      pop\n        /* \"Day16_ArrayShift.sol\":415:502  for (uint i=index; i < arr.length - 1; i++ ) {... */\n    tag_24:\n        /* \"Day16_ArrayShift.sol\":451:452  1 */\n      0x01\n        /* \"Day16_ArrayShift.sol\":438:441  arr */\n      0x00\n        /* \"Day16_ArrayShift.sol\":438:448  arr.length */\n      dup1\n      sload\n      swap1\n      pop\n        /* \"Day16_ArrayShift.sol\":438:452  arr.length - 1 */\n      tag_27\n      swap2\n      swap1\n      tag_28\n      jump\t// in\n    tag_27:\n        /* \"Day16_ArrayShift.sol\":434:435  i */\n      dup2\n        /* \"Day16_ArrayShift.sol\":434:452  i < arr.length - 1 */\n      lt\n        /* \"Day16_ArrayShift.sol\":415:502  for (uint i=index; i < arr.length - 1; i++ ) {... */\n      iszero\n      tag_25\n      jumpi\n        /* \"Day16_ArrayShift.sol\":483:486  arr */\n      0x00\n        /* \"Day16_ArrayShift.sol\":489:490  1 */\n      0x01\n        /* \"Day16_ArrayShift.sol\":487:488  i */\n      dup3\n        /* \"Day16_ArrayShift.sol\":487:490  i+1 */\n      tag_29\n      swap2\n      swap1\n      tag_30\n      jump\t// in\n    tag_29:\n        /* \"Day16_ArrayShift.sol\":483:491  arr[i+1] */\n      dup2\n      sload\n      dup2\n      lt\n      tag_31\n      jumpi\n      tag_32\n      tag_33\n      jump\t// in\n    tag_32:\n    tag_31:\n      swap1\n      0x00\n      mstore\n      keccak256(0x00, 0x20)\n      add\n      sload\n        /* \"Day16_ArrayShift.sol\":474:477  arr */\n      0x00\n        /* \"Day16_ArrayShift.sol\":478:479  i */\n      dup3\n        /* \"Day16_ArrayShift.sol\":474:480  arr[i] */\n      dup2\n      sload\n      dup2\n      lt\n      tag_35\n      jumpi\n      tag_36\n      tag_33\n      jump\t// in\n    tag_36:\n    tag_35:\n      swap1\n      0x00\n      mstore\n      keccak256(0x00, 0x20)\n      add\n        /* \"Day16_ArrayShift.sol\":474:491  arr[i] = arr[i+1] */\n      dup2\n      swap1\n      sstore\n      pop\n        /* \"Day16_ArrayShift.sol\":454:457  i++ */\n      dup1\n      dup1\n      tag_38\n      swap1\n      tag_39\n      jump\t// in\n    tag_38:\n      swap2\n      pop\n      pop\n        /* \"Day16_ArrayShift.sol\":415:502  for (uint i=index; i < arr.length - 1; i++ ) {... */\n      jump(tag_24)\n    tag_25:\n      pop\n        /* \"Day16_ArrayShift.sol\":511:514  arr */\n      0x00\n        /* \"Day16_ArrayShift.sol\":511:520  arr.pop() */\n      dup1\n      sload\n      dup1\n      tag_40\n      jumpi\n      tag_41\n      tag_42\n      jump\t// in\n    tag_41:\n    tag_40:\n      0x01\n      swap1\n      sub\n      dup2\n      dup2\n      swap1\n      0x00\n      mstore\n      keccak256(0x00, 0x20)\n      add\n      0x00\n      swap1\n      sstore\n      swap1\n      sstore\n        /* \"Day16_ArrayShift.sol\":310:527  function remove (uint index) public {... */\n      pop\n      jump\t// out\n        /* \"Day16_ArrayShift.sol\":108:210  function example () external {... */\n    tag_12:\n        /* \"Day16_ArrayShift.sol\":147:164  arr = [1,2,3,4,5] */\n      mload(0x40)\n      dup1\n      0xa0\n      add\n      0x40\n      mstore\n      dup1\n        /* \"Day16_ArrayShift.sol\":154:155  1 */\n      0x01\n        /* \"Day16_ArrayShift.sol\":147:164  arr = [1,2,3,4,5] */\n      0xff\n      and\n      dup2\n      mstore\n      0x20\n      add\n        /* \"Day16_ArrayShift.sol\":156:157  2 */\n      0x02\n        /* \"Day16_ArrayShift.sol\":147:164  arr = [1,2,3,4,5] */\n      0xff\n      and\n      dup2\n      mstore\n      0x20\n      add\n        /* \"Day16_ArrayShift.sol\":158:159  3 */\n      0x03\n        /* \"Day16_ArrayShift.sol\":147:164  arr = [1,2,3,4,5] */\n      0xff\n      and\n      dup2\n      mstore\n      0x20\n      add\n        /* \"Day16_ArrayShift.sol\":160:161  4 */\n      0x04\n        /* \"Day16_ArrayShift.sol\":147:164  arr = [1,2,3,4,5] */\n      0xff\n      and\n      dup2\n      mstore\n      0x20\n      add\n        /* \"Day16_ArrayShift.sol\":162:163  5 */\n      0x05\n        /* \"Day16_ArrayShift.sol\":147:164  arr = [1,2,3,4,5] */\n      0xff\n      and\n      dup2\n      mstore\n      pop\n        /* \"Day16_ArrayShift.sol\":147:150  arr */\n      0x00\n        /* \"Day16_ArrayShift.sol\":147:164  arr = [1,2,3,4,5] */\n      swap1\n      0x05\n      tag_45\n      swap3\n      swap2\n      swap1\n      tag_46\n      jump\t// in\n    tag_45:\n      pop\n        /* \"Day16_ArrayShift.sol\":181:184  arr */\n      0x00\n        /* \"Day16_ArrayShift.sol\":185:186  1 */\n      0x01\n        /* \"Day16_ArrayShift.sol\":181:187  arr[1] */\n      dup2\n      sload\n      dup2\n      lt\n      tag_47\n      jumpi\n      tag_48\n      tag_33\n      jump\t// in\n    tag_48:\n    tag_47:\n      swap1\n      0x00\n      mstore\n      keccak256(0x00, 0x20)\n      add\n        /* \"Day16_ArrayShift.sol\":174:187  delete arr[1] */\n      0x00\n      swap1\n      sstore\n        /* \"Day16_ArrayShift.sol\":108:210  function example () external {... */\n      jump\t// out\n        /* \"Day16_ArrayShift.sol\":84:101  uint[] public arr */\n    tag_15:\n      0x00\n      dup2\n      dup2\n      sload\n      dup2\n      lt\n      tag_50\n      jumpi\n      0x00\n      dup1\n      revert\n    tag_50:\n      swap1\n      0x00\n      mstore\n      keccak256(0x00, 0x20)\n      add\n      0x00\n      swap2\n      pop\n      swap1\n      pop\n      sload\n      dup2\n      jump\t// out\n        /* \"Day16_ArrayShift.sol\":533:783  function test () external {... */\n    tag_19:\n        /* \"Day16_ArrayShift.sol\":569:586  arr = [1,2,3,4,5] */\n      mload(0x40)\n      dup1\n      0xa0\n      add\n      0x40\n      mstore\n      dup1\n        /* \"Day16_ArrayShift.sol\":576:577  1 */\n      0x01\n        /* \"Day16_ArrayShift.sol\":569:586  arr = [1,2,3,4,5] */\n      0xff\n      and\n      dup2\n      mstore\n      0x20\n      add\n        /* \"Day16_ArrayShift.sol\":578:579  2 */\n      0x02\n        /* \"Day16_ArrayShift.sol\":569:586  arr = [1,2,3,4,5] */\n      0xff\n      and\n      dup2\n      mstore\n      0x20\n      add\n        /* \"Day16_ArrayShift.sol\":580:581  3 */\n      0x03\n        /* \"Day16_ArrayShift.sol\":569:586  arr = [1,2,3,4,5] */\n      0xff\n      and\n      dup2\n      mstore\n      0x20\n      add\n        /* \"Day16_ArrayShift.sol\":582:583  4 */\n      0x04\n        /* \"Day16_ArrayShift.sol\":569:586  arr = [1,2,3,4,5] */\n      0xff\n      and\n      dup2\n      mstore\n      0x20\n      add\n        /* \"Day16_ArrayShift.sol\":584:585  5 */\n      0x05\n        /* \"Day16_ArrayShift.sol\":569:586  arr = [1,2,3,4,5] */\n      0xff\n      and\n      dup2\n      mstore\n      pop\n        /* \"Day16_ArrayShift.sol\":569:572  arr */\n      0x00\n        /* \"Day16_ArrayShift.sol\":569:586  arr = [1,2,3,4,5] */\n      swap1\n      0x05\n      tag_53\n      swap3\n      swap2\n      swap1\n      tag_46\n      jump\t// in\n    tag_53:\n      pop\n        /* \"Day16_ArrayShift.sol\":596:605  remove(2) */\n      tag_54\n        /* \"Day16_ArrayShift.sol\":603:604  2 */\n      0x02\n        /* \"Day16_ArrayShift.sol\":596:602  remove */\n      tag_10\n        /* \"Day16_ArrayShift.sol\":596:605  remove(2) */\n      jump\t// in\n    tag_54:\n        /* \"Day16_ArrayShift.sol\":653:654  1 */\n      0x01\n        /* \"Day16_ArrayShift.sol\":643:646  arr */\n      0x00\n        /* \"Day16_ArrayShift.sol\":647:648  0 */\n      dup1\n        /* \"Day16_ArrayShift.sol\":643:649  arr[0] */\n      dup2\n      sload\n      dup2\n      lt\n      tag_55\n      jumpi\n      tag_56\n      tag_33\n      jump\t// in\n    tag_56:\n    tag_55:\n      swap1\n      0x00\n      mstore\n      keccak256(0x00, 0x20)\n      add\n      sload\n        /* \"Day16_ArrayShift.sol\":643:654  arr[0] == 1 */\n      eq\n        /* \"Day16_ArrayShift.sol\":636:655  assert(arr[0] == 1) */\n      tag_58\n      jumpi\n      tag_59\n      tag_60\n      jump\t// in\n    tag_59:\n    tag_58:\n        /* \"Day16_ArrayShift.sol\":682:683  2 */\n      0x02\n        /* \"Day16_ArrayShift.sol\":672:675  arr */\n      0x00\n        /* \"Day16_ArrayShift.sol\":676:677  1 */\n      0x01\n        /* \"Day16_ArrayShift.sol\":672:678  arr[1] */\n      dup2\n      sload\n      dup2\n      lt\n      tag_61\n      jumpi\n      tag_62\n      tag_33\n      jump\t// in\n    tag_62:\n    tag_61:\n      swap1\n      0x00\n      mstore\n      keccak256(0x00, 0x20)\n      add\n      sload\n        /* \"Day16_ArrayShift.sol\":672:683  arr[1] == 2 */\n      eq\n        /* \"Day16_ArrayShift.sol\":665:684  assert(arr[1] == 2) */\n      tag_64\n      jumpi\n      tag_65\n      tag_60\n      jump\t// in\n    tag_65:\n    tag_64:\n        /* \"Day16_ArrayShift.sol\":711:712  4 */\n      0x04\n        /* \"Day16_ArrayShift.sol\":701:704  arr */\n      0x00\n        /* \"Day16_ArrayShift.sol\":705:706  2 */\n      0x02\n        /* \"Day16_ArrayShift.sol\":701:707  arr[2] */\n      dup2\n      sload\n      dup2\n      lt\n      tag_66\n      jumpi\n      tag_67\n      tag_33\n      jump\t// in\n    tag_67:\n    tag_66:\n      swap1\n      0x00\n      mstore\n      keccak256(0x00, 0x20)\n      add\n      sload\n        /* \"Day16_ArrayShift.sol\":701:712  arr[2] == 4 */\n      eq\n        /* \"Day16_ArrayShift.sol\":694:713  assert(arr[2] == 4) */\n      tag_69\n      jumpi\n      tag_70\n      tag_60\n      jump\t// in\n    tag_70:\n    tag_69:\n        /* \"Day16_ArrayShift.sol\":740:741  5 */\n      0x05\n        /* \"Day16_ArrayShift.sol\":730:733  arr */\n      0x00\n        /* \"Day16_ArrayShift.sol\":734:735  3 */\n      0x03\n        /* \"Day16_ArrayShift.sol\":730:736  arr[3] */\n      dup2\n      sload\n      dup2\n      lt\n      tag_71\n      jumpi\n      tag_72\n      tag_33\n      jump\t// in\n    tag_72:\n    tag_71:\n      swap1\n      0x00\n      mstore\n      keccak256(0x00, 0x20)\n      add\n      sload\n        /* \"Day16_ArrayShift.sol\":730:741  arr[3] == 5 */\n      eq\n        /* \"Day16_ArrayShift.sol\":723:742  assert(arr[3] == 5) */\n      tag_74\n      jumpi\n      tag_75\n      tag_60\n      jump\t// in\n    tag_75:\n    tag_74:\n        /* \"Day16_ArrayShift.sol\":773:774  4 */\n      0x04\n        /* \"Day16_ArrayShift.sol\":759:762  arr */\n      0x00\n        /* \"Day16_ArrayShift.sol\":759:769  arr.length */\n      dup1\n      sload\n      swap1\n      pop\n        /* \"Day16_ArrayShift.sol\":759:774  arr.length == 4 */\n      eq\n        /* \"Day16_ArrayShift.sol\":752:775  assert(arr.length == 4) */\n      tag_76\n      jumpi\n      tag_77\n      tag_60\n      jump\t// in\n    tag_77:\n    tag_76:\n        /* \"Day16_ArrayShift.sol\":533:783  function test () external {... */\n      jump\t// out\n    tag_46:\n      dup3\n      dup1\n      sload\n      dup3\n      dup3\n      sstore\n      swap1\n      0x00\n      mstore\n      keccak256(0x00, 0x20)\n      swap1\n      dup2\n      add\n      swap3\n      dup3\n      iszero\n      tag_78\n      jumpi\n      swap2\n      0x20\n      mul\n      dup3\n      add\n    tag_79:\n      dup3\n      dup2\n      gt\n      iszero\n      tag_80\n      jumpi\n      dup3\n      mload\n      dup3\n      swap1\n      0xff\n      and\n      swap1\n      sstore\n      swap2\n      0x20\n      add\n      swap2\n      swap1\n      0x01\n      add\n      swap1\n      jump(tag_79)\n    tag_80:\n    tag_78:\n      pop\n      swap1\n      pop\n      tag_81\n      swap2\n      swap1\n      tag_82\n      jump\t// in\n    tag_81:\n      pop\n      swap1\n      jump\t// out\n    tag_82:\n    tag_83:\n      dup1\n      dup3\n      gt\n      iszero\n      tag_84\n      jumpi\n      0x00\n      dup2\n      0x00\n      swap1\n      sstore\n      pop\n      0x01\n      add\n      jump(tag_83)\n    tag_84:\n      pop\n      swap1\n      jump\t// out\n        /* \"#utility.yul\":7:146   */\n    tag_86:\n        /* \"#utility.yul\":53:58   */\n      0x00\n        /* \"#utility.yul\":91:97   */\n      dup2\n        /* \"#utility.yul\":78:98   */\n      calldataload\n        /* \"#utility.yul\":69:98   */\n      swap1\n      pop\n        /* \"#utility.yul\":107:140   */\n      tag_88\n        /* \"#utility.yul\":134:139   */\n      dup2\n        /* \"#utility.yul\":107:140   */\n      tag_89\n      jump\t// in\n    tag_88:\n        /* \"#utility.yul\":7:146   */\n      swap3\n      swap2\n      pop\n      pop\n      jump\t// out\n        /* \"#utility.yul\":152:481   */\n    tag_9:\n        /* \"#utility.yul\":211:217   */\n      0x00\n        /* \"#utility.yul\":260:262   */\n      0x20\n        /* \"#utility.yul\":248:257   */\n      dup3\n        /* \"#utility.yul\":239:246   */\n      dup5\n        /* \"#utility.yul\":235:258   */\n      sub\n        /* \"#utility.yul\":231:263   */\n      slt\n        /* \"#utility.yul\":228:347   */\n      iszero\n      tag_91\n      jumpi\n        /* \"#utility.yul\":266:345   */\n      tag_92\n      tag_93\n      jump\t// in\n    tag_92:\n        /* \"#utility.yul\":228:347   */\n    tag_91:\n        /* \"#utility.yul\":386:387   */\n      0x00\n        /* \"#utility.yul\":411:464   */\n      tag_94\n        /* \"#utility.yul\":456:463   */\n      dup5\n        /* \"#utility.yul\":447:453   */\n      dup3\n        /* \"#utility.yul\":436:445   */\n      dup6\n        /* \"#utility.yul\":432:454   */\n      add\n        /* \"#utility.yul\":411:464   */\n      tag_86\n      jump\t// in\n    tag_94:\n        /* \"#utility.yul\":401:464   */\n      swap2\n      pop\n        /* \"#utility.yul\":357:474   */\n      pop\n        /* \"#utility.yul\":152:481   */\n      swap3\n      swap2\n      pop\n      pop\n      jump\t// out\n        /* \"#utility.yul\":487:853   */\n    tag_95:\n        /* \"#utility.yul\":629:632   */\n      0x00\n        /* \"#utility.yul\":650:717   */\n      tag_97\n        /* \"#utility.yul\":714:716   */\n      0x12\n        /* \"#utility.yul\":709:712   */\n      dup4\n        /* \"#utility.yul\":650:717   */\n      tag_98\n      jump\t// in\n    tag_97:\n        /* \"#utility.yul\":643:717   */\n      swap2\n      pop\n        /* \"#utility.yul\":726:819   */\n      tag_99\n        /* \"#utility.yul\":815:818   */\n      dup3\n        /* \"#utility.yul\":726:819   */\n      tag_100\n      jump\t// in\n    tag_99:\n        /* \"#utility.yul\":844:846   */\n      0x20\n        /* \"#utility.yul\":839:842   */\n      dup3\n        /* \"#utility.yul\":835:847   */\n      add\n        /* \"#utility.yul\":828:847   */\n      swap1\n      pop\n        /* \"#utility.yul\":487:853   */\n      swap2\n      swap1\n      pop\n      jump\t// out\n        /* \"#utility.yul\":859:977   */\n    tag_101:\n        /* \"#utility.yul\":946:970   */\n      tag_103\n        /* \"#utility.yul\":964:969   */\n      dup2\n        /* \"#utility.yul\":946:970   */\n      tag_104\n      jump\t// in\n    tag_103:\n        /* \"#utility.yul\":941:944   */\n      dup3\n        /* \"#utility.yul\":934:971   */\n      mstore\n        /* \"#utility.yul\":859:977   */\n      pop\n      pop\n      jump\t// out\n        /* \"#utility.yul\":983:1402   */\n    tag_23:\n        /* \"#utility.yul\":1149:1153   */\n      0x00\n        /* \"#utility.yul\":1187:1189   */\n      0x20\n        /* \"#utility.yul\":1176:1185   */\n      dup3\n        /* \"#utility.yul\":1172:1190   */\n      add\n        /* \"#utility.yul\":1164:1190   */\n      swap1\n      pop\n        /* \"#utility.yul\":1236:1245   */\n      dup2\n        /* \"#utility.yul\":1230:1234   */\n      dup2\n        /* \"#utility.yul\":1226:1246   */\n      sub\n        /* \"#utility.yul\":1222:1223   */\n      0x00\n        /* \"#utility.yul\":1211:1220   */\n      dup4\n        /* \"#utility.yul\":1207:1224   */\n      add\n        /* \"#utility.yul\":1200:1247   */\n      mstore\n        /* \"#utility.yul\":1264:1395   */\n      tag_106\n        /* \"#utility.yul\":1390:1394   */\n      dup2\n        /* \"#utility.yul\":1264:1395   */\n      tag_95\n      jump\t// in\n    tag_106:\n        /* \"#utility.yul\":1256:1395   */\n      swap1\n      pop\n        /* \"#utility.yul\":983:1402   */\n      swap2\n      swap1\n      pop\n      jump\t// out\n        /* \"#utility.yul\":1408:1630   */\n    tag_17:\n        /* \"#utility.yul\":1501:1505   */\n      0x00\n        /* \"#utility.yul\":1539:1541   */\n      0x20\n        /* \"#utility.yul\":1528:1537   */\n      dup3\n        /* \"#utility.yul\":1524:1542   */\n      add\n        /* \"#utility.yul\":1516:1542   */\n      swap1\n      pop\n        /* \"#utility.yul\":1552:1623   */\n      tag_108\n        /* \"#utility.yul\":1620:1621   */\n      0x00\n        /* \"#utility.yul\":1609:1618   */\n      dup4\n        /* \"#utility.yul\":1605:1622   */\n      add\n        /* \"#utility.yul\":1596:1602   */\n      dup5\n        /* \"#utility.yul\":1552:1623   */\n      tag_101\n      jump\t// in\n    tag_108:\n        /* \"#utility.yul\":1408:1630   */\n      swap3\n      swap2\n      pop\n      pop\n      jump\t// out\n        /* \"#utility.yul\":1717:1886   */\n    tag_98:\n        /* \"#utility.yul\":1801:1812   */\n      0x00\n        /* \"#utility.yul\":1835:1841   */\n      dup3\n        /* \"#utility.yul\":1830:1833   */\n      dup3\n        /* \"#utility.yul\":1823:1842   */\n      mstore\n        /* \"#utility.yul\":1875:1879   */\n      0x20\n        /* \"#utility.yul\":1870:1873   */\n      dup3\n        /* \"#utility.yul\":1866:1880   */\n      add\n        /* \"#utility.yul\":1851:1880   */\n      swap1\n      pop\n        /* \"#utility.yul\":1717:1886   */\n      swap3\n      swap2\n      pop\n      pop\n      jump\t// out\n        /* \"#utility.yul\":1892:2197   */\n    tag_30:\n        /* \"#utility.yul\":1932:1935   */\n      0x00\n        /* \"#utility.yul\":1951:1971   */\n      tag_113\n        /* \"#utility.yul\":1969:1970   */\n      dup3\n        /* \"#utility.yul\":1951:1971   */\n      tag_104\n      jump\t// in\n    tag_113:\n        /* \"#utility.yul\":1946:1971   */\n      swap2\n      pop\n        /* \"#utility.yul\":1985:2005   */\n      tag_114\n        /* \"#utility.yul\":2003:2004   */\n      dup4\n        /* \"#utility.yul\":1985:2005   */\n      tag_104\n      jump\t// in\n    tag_114:\n        /* \"#utility.yul\":1980:2005   */\n      swap3\n      pop\n        /* \"#utility.yul\":2139:2140   */\n      dup3\n        /* \"#utility.yul\":2071:2137   */\n      0xffffffffffffffffffffffffffffffffffffffffffffffffffffffffffffffff\n        /* \"#utility.yul\":2067:2141   */\n      sub\n        /* \"#utility.yul\":2064:2065   */\n      dup3\n        /* \"#utility.yul\":2061:2142   */\n      gt\n        /* \"#utility.yul\":2058:2165   */\n      iszero\n      tag_115\n      jumpi\n        /* \"#utility.yul\":2145:2163   */\n      tag_116\n      tag_117\n      jump\t// in\n    tag_116:\n        /* \"#utility.yul\":2058:2165   */\n    tag_115:\n        /* \"#utility.yul\":2189:2190   */\n      dup3\n        /* \"#utility.yul\":2186:2187   */\n      dup3\n        /* \"#utility.yul\":2182:2191   */\n      add\n        /* \"#utility.yul\":2175:2191   */\n      swap1\n      pop\n        /* \"#utility.yul\":1892:2197   */\n      swap3\n      swap2\n      pop\n      pop\n      jump\t// out\n        /* \"#utility.yul\":2203:2394   */\n    tag_28:\n        /* \"#utility.yul\":2243:2247   */\n      0x00\n        /* \"#utility.yul\":2263:2283   */\n      tag_119\n        /* \"#utility.yul\":2281:2282   */\n      dup3\n        /* \"#utility.yul\":2263:2283   */\n      tag_104\n      jump\t// in\n    tag_119:\n        /* \"#utility.yul\":2258:2283   */\n      swap2\n      pop\n        /* \"#utility.yul\":2297:2317   */\n      tag_120\n        /* \"#utility.yul\":2315:2316   */\n      dup4\n        /* \"#utility.yul\":2297:2317   */\n      tag_104\n      jump\t// in\n    tag_120:\n        /* \"#utility.yul\":2292:2317   */\n      swap3\n      pop\n        /* \"#utility.yul\":2336:2337   */\n      dup3\n        /* \"#utility.yul\":2333:2334   */\n      dup3\n        /* \"#utility.yul\":2330:2338   */\n      lt\n        /* \"#utility.yul\":2327:2361   */\n      iszero\n      tag_121\n      jumpi\n        /* \"#utility.yul\":2341:2359   */\n      tag_122\n      tag_117\n      jump\t// in\n    tag_122:\n        /* \"#utility.yul\":2327:2361   */\n    tag_121:\n        /* \"#utility.yul\":2386:2387   */\n      dup3\n        /* \"#utility.yul\":2383:2384   */\n      dup3\n        /* \"#utility.yul\":2379:2388   */\n      sub\n        /* \"#utility.yul\":2371:2388   */\n      swap1\n      pop\n        /* \"#utility.yul\":2203:2394   */\n      swap3\n      swap2\n      pop\n      pop\n      jump\t// out\n        /* \"#utility.yul\":2400:2477   */\n    tag_104:\n        /* \"#utility.yul\":2437:2444   */\n      0x00\n        /* \"#utility.yul\":2466:2471   */\n      dup2\n        /* \"#utility.yul\":2455:2471   */\n      swap1\n      pop\n        /* \"#utility.yul\":2400:2477   */\n      swap2\n      swap1\n      pop\n      jump\t// out\n        /* \"#utility.yul\":2483:2716   */\n    tag_39:\n        /* \"#utility.yul\":2522:2525   */\n      0x00\n        /* \"#utility.yul\":2545:2569   */\n      tag_125\n        /* \"#utility.yul\":2563:2568   */\n      dup3\n        /* \"#utility.yul\":2545:2569   */\n      tag_104\n      jump\t// in\n    tag_125:\n        /* \"#utility.yul\":2536:2569   */\n      swap2\n      pop\n        /* \"#utility.yul\":2591:2657   */\n      0xffffffffffffffffffffffffffffffffffffffffffffffffffffffffffffffff\n        /* \"#utility.yul\":2584:2589   */\n      dup3\n        /* \"#utility.yul\":2581:2658   */\n      eq\n        /* \"#utility.yul\":2578:2681   */\n      iszero\n      tag_126\n      jumpi\n        /* \"#utility.yul\":2661:2679   */\n      tag_127\n      tag_117\n      jump\t// in\n    tag_127:\n        /* \"#utility.yul\":2578:2681   */\n    tag_126:\n        /* \"#utility.yul\":2708:2709   */\n      0x01\n        /* \"#utility.yul\":2701:2706   */\n      dup3\n        /* \"#utility.yul\":2697:2710   */\n      add\n        /* \"#utility.yul\":2690:2710   */\n      swap1\n      pop\n        /* \"#utility.yul\":2483:2716   */\n      swap2\n      swap1\n      pop\n      jump\t// out\n        /* \"#utility.yul\":2722:2902   */\n    tag_60:\n        /* \"#utility.yul\":2770:2847   */\n      0x4e487b7100000000000000000000000000000000000000000000000000000000\n        /* \"#utility.yul\":2767:2768   */\n      0x00\n        /* \"#utility.yul\":2760:2848   */\n      mstore\n        /* \"#utility.yul\":2867:2871   */\n      0x01\n        /* \"#utility.yul\":2864:2865   */\n      0x04\n        /* \"#utility.yul\":2857:2872   */\n      mstore\n        /* \"#utility.yul\":2891:2895   */\n      0x24\n        /* \"#utility.yul\":2888:2889   */\n      0x00\n        /* \"#utility.yul\":2881:2896   */\n      revert\n        /* \"#utility.yul\":2908:3088   */\n    tag_117:\n        /* \"#utility.yul\":2956:3033   */\n      0x4e487b7100000000000000000000000000000000000000000000000000000000\n        /* \"#utility.yul\":2953:2954   */\n      0x00\n        /* \"#utility.yul\":2946:3034   */\n      mstore\n        /* \"#utility.yul\":3053:3057   */\n      0x11\n        /* \"#utility.yul\":3050:3051   */\n      0x04\n        /* \"#utility.yul\":3043:3058   */\n      mstore\n        /* \"#utility.yul\":3077:3081   */\n      0x24\n        /* \"#utility.yul\":3074:3075   */\n      0x00\n        /* \"#utility.yul\":3067:3082   */\n      revert\n        /* \"#utility.yul\":3094:3274   */\n    tag_42:\n        /* \"#utility.yul\":3142:3219   */\n      0x4e487b7100000000000000000000000000000000000000000000000000000000\n        /* \"#utility.yul\":3139:3140   */\n      0x00\n        /* \"#utility.yul\":3132:3220   */\n      mstore\n        /* \"#utility.yul\":3239:3243   */\n      0x31\n        /* \"#utility.yul\":3236:3237   */\n      0x04\n        /* \"#utility.yul\":3229:3244   */\n      mstore\n        /* \"#utility.yul\":3263:3267   */\n      0x24\n        /* \"#utility.yul\":3260:3261   */\n      0x00\n        /* \"#utility.yul\":3253:3268   */\n      revert\n        /* \"#utility.yul\":3280:3460   */\n    tag_33:\n        /* \"#utility.yul\":3328:3405   */\n      0x4e487b7100000000000000000000000000000000000000000000000000000000\n        /* \"#utility.yul\":3325:3326   */\n      0x00\n        /* \"#utility.yul\":3318:3406   */\n      mstore\n        /* \"#utility.yul\":3425:3429   */\n      0x32\n        /* \"#utility.yul\":3422:3423   */\n      0x04\n        /* \"#utility.yul\":3415:3430   */\n      mstore\n        /* \"#utility.yul\":3449:3453   */\n      0x24\n        /* \"#utility.yul\":3446:3447   */\n      0x00\n        /* \"#utility.yul\":3439:3454   */\n      revert\n        /* \"#utility.yul\":3589:3706   */\n    tag_93:\n        /* \"#utility.yul\":3698:3699   */\n      0x00\n        /* \"#utility.yul\":3695:3696   */\n      dup1\n        /* \"#utility.yul\":3688:3700   */\n      revert\n        /* \"#utility.yul\":3712:3880   */\n    tag_100:\n        /* \"#utility.yul\":3852:3872   */\n      0x696e646578206f7574206f6620626f756e640000000000000000000000000000\n        /* \"#utility.yul\":3848:3849   */\n      0x00\n        /* \"#utility.yul\":3840:3846   */\n      dup3\n        /* \"#utility.yul\":3836:3850   */\n      add\n        /* \"#utility.yul\":3829:3873   */\n      mstore\n        /* \"#utility.yul\":3712:3880   */\n      pop\n      jump\t// out\n        /* \"#utility.yul\":3886:4008   */\n    tag_89:\n        /* \"#utility.yul\":3959:3983   */\n      tag_137\n        /* \"#utility.yul\":3977:3982   */\n      dup2\n        /* \"#utility.yul\":3959:3983   */\n      tag_104\n      jump\t// in\n    tag_137:\n        /* \"#utility.yul\":3952:3957   */\n      dup2\n        /* \"#utility.yul\":3949:3984   */\n      eq\n        /* \"#utility.yul\":3939:4002   */\n      tag_138\n      jumpi\n        /* \"#utility.yul\":3998:3999   */\n      0x00\n        /* \"#utility.yul\":3995:3996   */\n      dup1\n        /* \"#utility.yul\":3988:4000   */\n      revert\n        /* \"#utility.yul\":3939:4002   */\n    tag_138:\n        /* \"#utility.yul\":3886:4008   */\n      pop\n      jump\t// out\n\n    auxdata: 0xa2646970667358221220776de87a6386bd785673533edb57c30a5f45190cdabf4a0eb686eed76ccedd9b64736f6c63430008070033\n}\n",
				"bytecode": {
					"linkReferences": {},
					"object": "608060405234801561001057600080fd5b506106a8806100206000396000f3fe608060405234801561001057600080fd5b506004361061004c5760003560e01c80634cc822151461005157806354353f2f1461006d57806371e5ee5f14610077578063f8a8fd6d146100a7575b600080fd5b61006b600480360381019061006691906103e9565b6100b1565b005b6100756101a3565b005b610091600480360381019061008c91906103e9565b610214565b60405161009e9190610468565b60405180910390f35b6100af610238565b005b60008054905081106100f8576040517f08c379a00000000000000000000000000000000000000000000000000000000081526004016100ef90610448565b60405180910390fd5b60008190505b600160008054905061011091906104ea565b8110156101775760006001826101269190610494565b81548110610137576101366105fe565b5b906000526020600020015460008281548110610156576101556105fe565b5b9060005260206000200181905550808061016f90610528565b9150506100fe565b50600080548061018a576101896105cf565b5b6001900381819060005260206000200160009055905550565b6040518060a00160405280600160ff168152602001600260ff168152602001600360ff168152602001600460ff168152602001600560ff1681525060009060056101ee929190610365565b506000600181548110610204576102036105fe565b5b9060005260206000200160009055565b6000818154811061022457600080fd5b906000526020600020016000915090505481565b6040518060a00160405280600160ff168152602001600260ff168152602001600360ff168152602001600460ff168152602001600560ff168152506000906005610283929190610365565b5061028e60026100b1565b6001600080815481106102a4576102a36105fe565b5b9060005260206000200154146102bd576102bc610571565b5b600260006001815481106102d4576102d36105fe565b5b9060005260206000200154146102ed576102ec610571565b5b60046000600281548110610304576103036105fe565b5b90600052602060002001541461031d5761031c610571565b5b60056000600381548110610334576103336105fe565b5b90600052602060002001541461034d5761034c610571565b5b60046000805490501461036357610362610571565b5b565b8280548282559060005260206000209081019282156103a6579160200282015b828111156103a5578251829060ff16905591602001919060010190610385565b5b5090506103b391906103b7565b5090565b5b808211156103d05760008160009055506001016103b8565b5090565b6000813590506103e38161065b565b92915050565b6000602082840312156103ff576103fe61062d565b5b600061040d848285016103d4565b91505092915050565b6000610423601283610483565b915061042e82610632565b602082019050919050565b6104428161051e565b82525050565b6000602082019050818103600083015261046181610416565b9050919050565b600060208201905061047d6000830184610439565b92915050565b600082825260208201905092915050565b600061049f8261051e565b91506104aa8361051e565b9250827fffffffffffffffffffffffffffffffffffffffffffffffffffffffffffffffff038211156104df576104de6105a0565b5b828201905092915050565b60006104f58261051e565b91506105008361051e565b925082821015610513576105126105a0565b5b828203905092915050565b6000819050919050565b60006105338261051e565b91507fffffffffffffffffffffffffffffffffffffffffffffffffffffffffffffffff821415610566576105656105a0565b5b600182019050919050565b7f4e487b7100000000000000000000000000000000000000000000000000000000600052600160045260246000fd5b7f4e487b7100000000000000000000000000000000000000000000000000000000600052601160045260246000fd5b7f4e487b7100000000000000000000000000000000000000000000000000000000600052603160045260246000fd5b7f4e487b7100000000000000000000000000000000000000000000000000000000600052603260045260246000fd5b600080fd5b7f696e646578206f7574206f6620626f756e640000000000000000000000000000600082015250565b6106648161051e565b811461066f57600080fd5b5056fea2646970667358221220776de87a6386bd785673533edb57c30a5f45190cdabf4a0eb686eed76ccedd9b64736f6c63430008070033",
					"opcodes": "PUSH1 0x80 PUSH1 0x40 MSTORE CALLVALUE DUP1 ISZERO PUSH2 0x10 JUMPI PUSH1 0x0 DUP1 REVERT JUMPDEST POP PUSH2 0x6A8 DUP1 PUSH2 0x20 PUSH1 0x0 CODECOPY PUSH1 0x0 RETURN INVALID PUSH1 0x80 PUSH1 0x40 MSTORE CALLVALUE DUP1 ISZERO PUSH2 0x10 JUMPI PUSH1 0x0 DUP1 REVERT JUMPDEST POP PUSH1 0x4 CALLDATASIZE LT PUSH2 0x4C JUMPI PUSH1 0x0 CALLDATALOAD PUSH1 0xE0 SHR DUP1 PUSH4 0x4CC82215 EQ PUSH2 0x51 JUMPI DUP1 PUSH4 0x54353F2F EQ PUSH2 0x6D JUMPI DUP1 PUSH4 0x71E5EE5F EQ PUSH2 0x77 JUMPI DUP1 PUSH4 0xF8A8FD6D EQ PUSH2 0xA7 JUMPI JUMPDEST PUSH1 0x0 DUP1 REVERT JUMPDEST PUSH2 0x6B PUSH1 0x4 DUP1 CALLDATASIZE SUB DUP2 ADD SWAP1 PUSH2 0x66 SWAP2 SWAP1 PUSH2 0x3E9 JUMP JUMPDEST PUSH2 0xB1 JUMP JUMPDEST STOP JUMPDEST PUSH2 0x75 PUSH2 0x1A3 JUMP JUMPDEST STOP JUMPDEST PUSH2 0x91 PUSH1 0x4 DUP1 CALLDATASIZE SUB DUP2 ADD SWAP1 PUSH2 0x8C SWAP2 SWAP1 PUSH2 0x3E9 JUMP JUMPDEST PUSH2 0x214 JUMP JUMPDEST PUSH1 0x40 MLOAD PUSH2 0x9E SWAP2 SWAP1 PUSH2 0x468 JUMP JUMPDEST PUSH1 0x40 MLOAD DUP1 SWAP2 SUB SWAP1 RETURN JUMPDEST PUSH2 0xAF PUSH2 0x238 JUMP JUMPDEST STOP JUMPDEST PUSH1 0x0 DUP1 SLOAD SWAP1 POP DUP2 LT PUSH2 0xF8 JUMPI PUSH1 0x40 MLOAD PUSH32 0x8C379A000000000000000000000000000000000000000000000000000000000 DUP2 MSTORE PUSH1 0x4 ADD PUSH2 0xEF SWAP1 PUSH2 0x448 JUMP JUMPDEST PUSH1 0x40 MLOAD DUP1 SWAP2 SUB SWAP1 REVERT JUMPDEST PUSH1 0x0 DUP2 SWAP1 POP JUMPDEST PUSH1 0x1 PUSH1 0x0 DUP1 SLOAD SWAP1 POP PUSH2 0x110 SWAP2 SWAP1 PUSH2 0x4EA JUMP JUMPDEST DUP2 LT ISZERO PUSH2 0x177 JUMPI PUSH1 0x0 PUSH1 0x1 DUP3 PUSH2 0x126 SWAP2 SWAP1 PUSH2 0x494 JUMP JUMPDEST DUP2 SLOAD DUP2 LT PUSH2 0x137 JUMPI PUSH2 0x136 PUSH2 0x5FE JUMP JUMPDEST JUMPDEST SWAP1 PUSH1 0x0 MSTORE PUSH1 0x20 PUSH1 0x0 KECCAK256 ADD SLOAD PUSH1 0x0 DUP3 DUP2 SLOAD DUP2 LT PUSH2 0x156 JUMPI PUSH2 0x155 PUSH2 0x5FE JUMP JUMPDEST JUMPDEST SWAP1 PUSH1 0x0 MSTORE PUSH1 0x20 PUSH1 0x0 KECCAK256 ADD DUP2 SWAP1 SSTORE POP DUP1 DUP1 PUSH2 0x16F SWAP1 PUSH2 0x528 JUMP JUMPDEST SWAP2 POP POP PUSH2 0xFE JUMP JUMPDEST POP PUSH1 0x0 DUP1 SLOAD DUP1 PUSH2 0x18A JUMPI PUSH2 0x189 PUSH2 0x5CF JUMP JUMPDEST JUMPDEST PUSH1 0x1 SWAP1 SUB DUP2 DUP2 SWAP1 PUSH1 0x0 MSTORE PUSH1 0x20 PUSH1 0x0 KECCAK256 ADD PUSH1 0x0 SWAP1 SSTORE SWAP1 SSTORE POP JUMP JUMPDEST PUSH1 0x40 MLOAD DUP1 PUSH1 0xA0 ADD PUSH1 0x40 MSTORE DUP1 PUSH1 0x1 PUSH1 0xFF AND DUP2 MSTORE PUSH1 0x20 ADD PUSH1 0x2 PUSH1 0xFF AND DUP2 MSTORE PUSH1 0x20 ADD PUSH1 0x3 PUSH1 0xFF AND DUP2 MSTORE PUSH1 0x20 ADD PUSH1 0x4 PUSH1 0xFF AND DUP2 MSTORE PUSH1 0x20 ADD PUSH1 0x5 PUSH1 0xFF AND DUP2 MSTORE POP PUSH1 0x0 SWAP1 PUSH1 0x5 PUSH2 0x1EE SWAP3 SWAP2 SWAP1 PUSH2 0x365 JUMP JUMPDEST POP PUSH1 0x0 PUSH1 0x1 DUP2 SLOAD DUP2 LT PUSH2 0x204 JUMPI PUSH2 0x203 PUSH2 0x5FE JUMP JUMPDEST JUMPDEST SWAP1 PUSH1 0x0 MSTORE PUSH1 0x20 PUSH1 0x0 KECCAK256 ADD PUSH1 0x0 SWAP1 SSTORE JUMP JUMPDEST PUSH1 0x0 DUP2 DUP2 SLOAD DUP2 LT PUSH2 0x224 JUMPI PUSH1 0x0 DUP1 REVERT JUMPDEST SWAP1 PUSH1 0x0 MSTORE PUSH1 0x20 PUSH1 0x0 KECCAK256 ADD PUSH1 0x0 SWAP2 POP SWAP1 POP SLOAD DUP2 JUMP JUMPDEST PUSH1 0x40 MLOAD DUP1 PUSH1 0xA0 ADD PUSH1 0x40 MSTORE DUP1 PUSH1 0x1 PUSH1 0xFF AND DUP2 MSTORE PUSH1 0x20 ADD PUSH1 0x2 PUSH1 0xFF AND DUP2 MSTORE PUSH1 0x20 ADD PUSH1 0x3 PUSH1 0xFF AND DUP2 MSTORE PUSH1 0x20 ADD PUSH1 0x4 PUSH1 0xFF AND DUP2 MSTORE PUSH1 0x20 ADD PUSH1 0x5 PUSH1 0xFF AND DUP2 MSTORE POP PUSH1 0x0 SWAP1 PUSH1 0x5 PUSH2 0x283 SWAP3 SWAP2 SWAP1 PUSH2 0x365 JUMP JUMPDEST POP PUSH2 0x28E PUSH1 0x2 PUSH2 0xB1 JUMP JUMPDEST PUSH1 0x1 PUSH1 0x0 DUP1 DUP2 SLOAD DUP2 LT PUSH2 0x2A4 JUMPI PUSH2 0x2A3 PUSH2 0x5FE JUMP JUMPDEST JUMPDEST SWAP1 PUSH1 0x0 MSTORE PUSH1 0x20 PUSH1 0x0 KECCAK256 ADD SLOAD EQ PUSH2 0x2BD JUMPI PUSH2 0x2BC PUSH2 0x571 JUMP JUMPDEST JUMPDEST PUSH1 0x2 PUSH1 0x0 PUSH1 0x1 DUP2 SLOAD DUP2 LT PUSH2 0x2D4 JUMPI PUSH2 0x2D3 PUSH2 0x5FE JUMP JUMPDEST JUMPDEST SWAP1 PUSH1 0x0 MSTORE PUSH1 0x20 PUSH1 0x0 KECCAK256 ADD SLOAD EQ PUSH2 0x2ED JUMPI PUSH2 0x2EC PUSH2 0x571 JUMP JUMPDEST JUMPDEST PUSH1 0x4 PUSH1 0x0 PUSH1 0x2 DUP2 SLOAD DUP2 LT PUSH2 0x304 JUMPI PUSH2 0x303 PUSH2 0x5FE JUMP JUMPDEST JUMPDEST SWAP1 PUSH1 0x0 MSTORE PUSH1 0x20 PUSH1 0x0 KECCAK256 ADD SLOAD EQ PUSH2 0x31D JUMPI PUSH2 0x31C PUSH2 0x571 JUMP JUMPDEST JUMPDEST PUSH1 0x5 PUSH1 0x0 PUSH1 0x3 DUP2 SLOAD DUP2 LT PUSH2 0x334 JUMPI PUSH2 0x333 PUSH2 0x5FE JUMP JUMPDEST JUMPDEST SWAP1 PUSH1 0x0 MSTORE PUSH1 0x20 PUSH1 0x0 KECCAK256 ADD SLOAD EQ PUSH2 0x34D JUMPI PUSH2 0x34C PUSH2 0x571 JUMP JUMPDEST JUMPDEST PUSH1 0x4 PUSH1 0x0 DUP1 SLOAD SWAP1 POP EQ PUSH2 0x363 JUMPI PUSH2 0x362 PUSH2 0x571 JUMP JUMPDEST JUMPDEST JUMP JUMPDEST DUP3 DUP1 SLOAD DUP3 DUP3 SSTORE SWAP1 PUSH1 0x0 MSTORE PUSH1 0x20 PUSH1 0x0 KECCAK256 SWAP1 DUP2 ADD SWAP3 DUP3 ISZERO PUSH2 0x3A6 JUMPI SWAP2 PUSH1 0x20 MUL DUP3 ADD JUMPDEST DUP3 DUP2 GT ISZERO PUSH2 0x3A5 JUMPI DUP3 MLOAD DUP3 SWAP1 PUSH1 0xFF AND SWAP1 SSTORE SWAP2 PUSH1 0x20 ADD SWAP2 SWAP1 PUSH1 0x1 ADD SWAP1 PUSH2 0x385 JUMP JUMPDEST JUMPDEST POP SWAP1 POP PUSH2 0x3B3 SWAP2 SWAP1 PUSH2 0x3B7 JUMP JUMPDEST POP SWAP1 JUMP JUMPDEST JUMPDEST DUP1 DUP3 GT ISZERO PUSH2 0x3D0 JUMPI PUSH1 0x0 DUP2 PUSH1 0x0 SWAP1 SSTORE POP PUSH1 0x1 ADD PUSH2 0x3B8 JUMP JUMPDEST POP SWAP1 JUMP JUMPDEST PUSH1 0x0 DUP2 CALLDATALOAD SWAP1 POP PUSH2 0x3E3 DUP2 PUSH2 0x65B JUMP JUMPDEST SWAP3 SWAP2 POP POP JUMP JUMPDEST PUSH1 0x0 PUSH1 0x20 DUP3 DUP5 SUB SLT ISZERO PUSH2 0x3FF JUMPI PUSH2 0x3FE PUSH2 0x62D JUMP JUMPDEST JUMPDEST PUSH1 0x0 PUSH2 0x40D DUP5 DUP3 DUP6 ADD PUSH2 0x3D4 JUMP JUMPDEST SWAP2 POP POP SWAP3 SWAP2 POP POP JUMP JUMPDEST PUSH1 0x0 PUSH2 0x423 PUSH1 0x12 DUP4 PUSH2 0x483 JUMP JUMPDEST SWAP2 POP PUSH2 0x42E DUP3 PUSH2 0x632 JUMP JUMPDEST PUSH1 0x20 DUP3 ADD SWAP1 POP SWAP2 SWAP1 POP JUMP JUMPDEST PUSH2 0x442 DUP2 PUSH2 0x51E JUMP JUMPDEST DUP3 MSTORE POP POP JUMP JUMPDEST PUSH1 0x0 PUSH1 0x20 DUP3 ADD SWAP1 POP DUP2 DUP2 SUB PUSH1 0x0 DUP4 ADD MSTORE PUSH2 0x461 DUP2 PUSH2 0x416 JUMP JUMPDEST SWAP1 POP SWAP2 SWAP1 POP JUMP JUMPDEST PUSH1 0x0 PUSH1 0x20 DUP3 ADD SWAP1 POP PUSH2 0x47D PUSH1 0x0 DUP4 ADD DUP5 PUSH2 0x439 JUMP JUMPDEST SWAP3 SWAP2 POP POP JUMP JUMPDEST PUSH1 0x0 DUP3 DUP3 MSTORE PUSH1 0x20 DUP3 ADD SWAP1 POP SWAP3 SWAP2 POP POP JUMP JUMPDEST PUSH1 0x0 PUSH2 0x49F DUP3 PUSH2 0x51E JUMP JUMPDEST SWAP2 POP PUSH2 0x4AA DUP4 PUSH2 0x51E JUMP JUMPDEST SWAP3 POP DUP3 PUSH32 0xFFFFFFFFFFFFFFFFFFFFFFFFFFFFFFFFFFFFFFFFFFFFFFFFFFFFFFFFFFFFFFFF SUB DUP3 GT ISZERO PUSH2 0x4DF JUMPI PUSH2 0x4DE PUSH2 0x5A0 JUMP JUMPDEST JUMPDEST DUP3 DUP3 ADD SWAP1 POP SWAP3 SWAP2 POP POP JUMP JUMPDEST PUSH1 0x0 PUSH2 0x4F5 DUP3 PUSH2 0x51E JUMP JUMPDEST SWAP2 POP PUSH2 0x500 DUP4 PUSH2 0x51E JUMP JUMPDEST SWAP3 POP DUP3 DUP3 LT ISZERO PUSH2 0x513 JUMPI PUSH2 0x512 PUSH2 0x5A0 JUMP JUMPDEST JUMPDEST DUP3 DUP3 SUB SWAP1 POP SWAP3 SWAP2 POP POP JUMP JUMPDEST PUSH1 0x0 DUP2 SWAP1 POP SWAP2 SWAP1 POP JUMP JUMPDEST PUSH1 0x0 PUSH2 0x533 DUP3 PUSH2 0x51E JUMP JUMPDEST SWAP2 POP PUSH32 0xFFFFFFFFFFFFFFFFFFFFFFFFFFFFFFFFFFFFFFFFFFFFFFFFFFFFFFFFFFFFFFFF DUP3 EQ ISZERO PUSH2 0x566 JUMPI PUSH2 0x565 PUSH2 0x5A0 JUMP JUMPDEST JUMPDEST PUSH1 0x1 DUP3 ADD SWAP1 POP SWAP2 SWAP1 POP JUMP JUMPDEST PUSH32 0x4E487B7100000000000000000000000000000000000000000000000000000000 PUSH1 0x0 MSTORE PUSH1 0x1 PUSH1 0x4 MSTORE PUSH1 0x24 PUSH1 0x0 REVERT JUMPDEST PUSH32 0x4E487B7100000000000000000000000000000000000000000000000000000000 PUSH1 0x0 MSTORE PUSH1 0x11 PUSH1 0x4 MSTORE PUSH1 0x24 PUSH1 0x0 REVERT JUMPDEST PUSH32 0x4E487B7100000000000000000000000000000000000000000000000000000000 PUSH1 0x0 MSTORE PUSH1 0x31 PUSH1 0x4 MSTORE PUSH1 0x24 PUSH1 0x0 REVERT JUMPDEST PUSH32 0x4E487B7100000000000000000000000000000000000000000000000000000000 PUSH1 0x0 MSTORE PUSH1 0x32 PUSH1 0x4 MSTORE PUSH1 0x24 PUSH1 0x0 REVERT JUMPDEST PUSH1 0x0 DUP1 REVERT JUMPDEST PUSH32 0x696E646578206F7574206F6620626F756E640000000000000000000000000000 PUSH1 0x0 DUP3 ADD MSTORE POP JUMP JUMPDEST PUSH2 0x664 DUP2 PUSH2 0x51E JUMP JUMPDEST DUP2 EQ PUSH2 0x66F JUMPI PUSH1 0x0 DUP1 REVERT JUMPDEST POP JUMP INVALID LOG2 PUSH5 0x6970667358 0x22 SLT KECCAK256 PUSH24 0x6DE87A6386BD785673533EDB57C30A5F45190CDABF4A0EB6 DUP7 0xEE 0xD7 PUSH13 0xCEDD9B64736F6C634300080700 CALLER "
				},
				"gasEstimates": {
					"creation": {
						"codeDepositCost": "340800",
						"executionCost": "380",
						"totalCost": "341180"
					},
					"external": {
						"arr(uint256)": "infinite",
						"example()": "infinite",
						"remove(uint256)": "infinite",
						"test()": "infinite"
					}
				},
				"methodIdentifiers": {
					"arr(uint256)": "71e5ee5f",
					"example()": "54353f2f",
					"remove(uint256)": "4cc82215",
					"test()": "f8a8fd6d"
				}
			},
			"storageLayout": {
				"storage": [
					{
						"astId": 4,
						"contract": "Day16_ArrayShift.sol:ArrayShift",
						"label": "arr",
						"offset": 0,
						"slot": "0",
						"type": "t_array(t_uint256)dyn_storage"
					}
				],
				"types": {
					"t_array(t_uint256)dyn_storage": {
						"base": "t_uint256",
						"encoding": "dynamic_array",
						"label": "uint256[]",
						"numberOfBytes": "32"
					},
					"t_uint256": {
						"encoding": "inplace",
						"label": "uint256",
						"numberOfBytes": "32"
					}
				}
			},
			"userdoc": {
				"kind": "user",
				"methods": {},
				"version": 1
			}
		}
	}
}