{
	"Day10_Error.sol": {
		"Errors": {
			"abi": [
				{
					"inputs": [
						{
							"internalType": "address",
							"name": "caller",
							"type": "address"
						},
						{
							"internalType": "uint256",
							"name": "x",
							"type": "uint256"
						}
					],
					"name": "MyError",
					"type": "error"
				},
				{
					"inputs": [
						{
							"internalType": "uint256",
							"name": "x",
							"type": "uint256"
						}
					],
					"name": "foo",
					"outputs": [],
					"stateMutability": "nonpayable",
					"type": "function"
				},
				{
					"inputs": [],
					"name": "num",
					"outputs": [
						{
							"internalType": "uint256",
							"name": "",
							"type": "uint256"
						}
					],
					"stateMutability": "view",
					"type": "function"
				},
				{
					"inputs": [],
					"name": "testAssert",
					"outputs": [],
					"stateMutability": "view",
					"type": "function"
				},
				{
					"inputs": [
						{
							"internalType": "uint256",
							"name": "_x",
							"type": "uint256"
						}
					],
					"name": "testCustomError",
					"outputs": [],
					"stateMutability": "view",
					"type": "function"
				},
				{
					"inputs": [
						{
							"internalType": "uint256",
							"name": "x",
							"type": "uint256"
						}
					],
					"name": "testRequire",
					"outputs": [],
					"stateMutability": "pure",
					"type": "function"
				},
				{
					"inputs": [
						{
							"internalType": "uint256",
							"name": "x",
							"type": "uint256"
						}
					],
					"name": "testRevert",
					"outputs": [],
					"stateMutability": "pure",
					"type": "function"
				}
			],
			"devdoc": {
				"kind": "dev",
				"methods": {},
				"version": 1
			},
			"evm": {
				"assembly": "    /* \"Day10_Error.sol\":341:950  contract Errors {... */\n  mstore(0x40, 0x80)\n    /* \"Day10_Error.sol\":381:384  123 */\n  0x7b\n    /* \"Day10_Error.sol\":363:384  uint public num = 123 */\n  0x00\n  sstore\n    /* \"Day10_Error.sol\":341:950  contract Errors {... */\n  callvalue\n  dup1\n  iszero\n  tag_1\n  jumpi\n  0x00\n  dup1\n  revert\ntag_1:\n  pop\n  dataSize(sub_0)\n  dup1\n  dataOffset(sub_0)\n  0x00\n  codecopy\n  0x00\n  return\nstop\n\nsub_0: assembly {\n        /* \"Day10_Error.sol\":341:950  contract Errors {... */\n      mstore(0x40, 0x80)\n      callvalue\n      dup1\n      iszero\n      tag_1\n      jumpi\n      0x00\n      dup1\n      revert\n    tag_1:\n      pop\n      jumpi(tag_2, lt(calldatasize, 0x04))\n      shr(0xe0, calldataload(0x00))\n      dup1\n      0x20987767\n      eq\n      tag_3\n      jumpi\n      dup1\n      0x2b813bc0\n      eq\n      tag_4\n      jumpi\n      dup1\n      0x2fbebd38\n      eq\n      tag_5\n      jumpi\n      dup1\n      0x4e70b1dc\n      eq\n      tag_6\n      jumpi\n      dup1\n      0x75f7286c\n      eq\n      tag_7\n      jumpi\n      dup1\n      0xb8bd717f\n      eq\n      tag_8\n      jumpi\n    tag_2:\n      0x00\n      dup1\n      revert\n        /* \"Day10_Error.sol\":485:599  function testRevert (uint x) external pure {... */\n    tag_3:\n      tag_9\n      0x04\n      dup1\n      calldatasize\n      sub\n      dup2\n      add\n      swap1\n      tag_10\n      swap2\n      swap1\n      tag_11\n      jump\t// in\n    tag_10:\n      tag_12\n      jump\t// in\n    tag_9:\n      stop\n        /* \"Day10_Error.sol\":605:675  function testAssert () public view {... */\n    tag_4:\n      tag_13\n      tag_14\n      jump\t// in\n    tag_13:\n      stop\n        /* \"Day10_Error.sol\":681:764  function foo (uint x) external {... */\n    tag_5:\n      tag_15\n      0x04\n      dup1\n      calldatasize\n      sub\n      dup2\n      add\n      swap1\n      tag_16\n      swap2\n      swap1\n      tag_11\n      jump\t// in\n    tag_16:\n      tag_17\n      jump\t// in\n    tag_15:\n      stop\n        /* \"Day10_Error.sol\":363:384  uint public num = 123 */\n    tag_6:\n      tag_18\n      tag_19\n      jump\t// in\n    tag_18:\n      mload(0x40)\n      tag_20\n      swap2\n      swap1\n      tag_21\n      jump\t// in\n    tag_20:\n      mload(0x40)\n      dup1\n      swap2\n      sub\n      swap1\n      return\n        /* \"Day10_Error.sol\":814:947  function testCustomError (uint _x) external view {... */\n    tag_7:\n      tag_22\n      0x04\n      dup1\n      calldatasize\n      sub\n      dup2\n      add\n      swap1\n      tag_23\n      swap2\n      swap1\n      tag_11\n      jump\t// in\n    tag_23:\n      tag_24\n      jump\t// in\n    tag_22:\n      stop\n        /* \"Day10_Error.sol\":391:479  function testRequire (uint x) external pure {... */\n    tag_8:\n      tag_25\n      0x04\n      dup1\n      calldatasize\n      sub\n      dup2\n      add\n      swap1\n      tag_26\n      swap2\n      swap1\n      tag_11\n      jump\t// in\n    tag_26:\n      tag_27\n      jump\t// in\n    tag_25:\n      stop\n        /* \"Day10_Error.sol\":485:599  function testRevert (uint x) external pure {... */\n    tag_12:\n        /* \"Day10_Error.sol\":547:549  10 */\n      0x0a\n        /* \"Day10_Error.sol\":542:543  x */\n      dup2\n        /* \"Day10_Error.sol\":542:549  x <= 10 */\n      gt\n        /* \"Day10_Error.sol\":538:593  if (x <= 10) {... */\n      tag_29\n      jumpi\n        /* \"Day10_Error.sol\":565:582  revert (\"i > 10\") */\n      mload(0x40)\n      0x08c379a000000000000000000000000000000000000000000000000000000000\n      dup2\n      mstore\n      0x04\n      add\n      tag_30\n      swap1\n      tag_31\n      jump\t// in\n    tag_30:\n      mload(0x40)\n      dup1\n      swap2\n      sub\n      swap1\n      revert\n        /* \"Day10_Error.sol\":538:593  if (x <= 10) {... */\n    tag_29:\n        /* \"Day10_Error.sol\":485:599  function testRevert (uint x) external pure {... */\n      pop\n      jump\t// out\n        /* \"Day10_Error.sol\":605:675  function testAssert () public view {... */\n    tag_14:\n        /* \"Day10_Error.sol\":664:667  123 */\n      0x7b\n        /* \"Day10_Error.sol\":657:660  num */\n      sload(0x00)\n        /* \"Day10_Error.sol\":657:667  num == 123 */\n      eq\n        /* \"Day10_Error.sol\":650:668  assert(num == 123) */\n      tag_33\n      jumpi\n      tag_34\n      tag_35\n      jump\t// in\n    tag_34:\n    tag_33:\n        /* \"Day10_Error.sol\":605:675  function testAssert () public view {... */\n      jump\t// out\n        /* \"Day10_Error.sol\":681:764  function foo (uint x) external {... */\n    tag_17:\n        /* \"Day10_Error.sol\":729:730  x */\n      dup1\n        /* \"Day10_Error.sol\":722:725  num */\n      0x00\n      dup1\n        /* \"Day10_Error.sol\":722:730  num += x */\n      dup3\n      dup3\n      sload\n      tag_37\n      swap2\n      swap1\n      tag_38\n      jump\t// in\n    tag_37:\n      swap3\n      pop\n      pop\n      dup2\n      swap1\n      sstore\n      pop\n        /* \"Day10_Error.sol\":754:756  10 */\n      0x0a\n        /* \"Day10_Error.sol\":749:750  x */\n      dup2\n        /* \"Day10_Error.sol\":749:756  x <= 10 */\n      gt\n      iszero\n        /* \"Day10_Error.sol\":740:757  require (x <= 10) */\n      tag_39\n      jumpi\n      0x00\n      dup1\n      revert\n    tag_39:\n        /* \"Day10_Error.sol\":681:764  function foo (uint x) external {... */\n      pop\n      jump\t// out\n        /* \"Day10_Error.sol\":363:384  uint public num = 123 */\n    tag_19:\n      sload(0x00)\n      dup2\n      jump\t// out\n        /* \"Day10_Error.sol\":814:947  function testCustomError (uint _x) external view {... */\n    tag_24:\n        /* \"Day10_Error.sol\":882:884  10 */\n      0x0a\n        /* \"Day10_Error.sol\":877:879  _x */\n      dup2\n        /* \"Day10_Error.sol\":877:884  _x < 10 */\n      lt\n        /* \"Day10_Error.sol\":873:941  if (_x < 10) {... */\n      iszero\n      tag_41\n      jumpi\n        /* \"Day10_Error.sol\":915:925  msg.sender */\n      caller\n        /* \"Day10_Error.sol\":927:929  _x */\n      dup2\n        /* \"Day10_Error.sol\":907:930  MyError(msg.sender, _x) */\n      mload(0x40)\n      0xe2399bb800000000000000000000000000000000000000000000000000000000\n      dup2\n      mstore\n      0x04\n      add\n      tag_42\n      swap3\n      swap2\n      swap1\n      tag_43\n      jump\t// in\n    tag_42:\n      mload(0x40)\n      dup1\n      swap2\n      sub\n      swap1\n      revert\n        /* \"Day10_Error.sol\":873:941  if (_x < 10) {... */\n    tag_41:\n        /* \"Day10_Error.sol\":814:947  function testCustomError (uint _x) external view {... */\n      pop\n      jump\t// out\n        /* \"Day10_Error.sol\":391:479  function testRequire (uint x) external pure {... */\n    tag_27:\n        /* \"Day10_Error.sol\":459:461  10 */\n      0x0a\n        /* \"Day10_Error.sol\":454:455  x */\n      dup2\n        /* \"Day10_Error.sol\":454:461  x <= 10 */\n      gt\n      iszero\n        /* \"Day10_Error.sol\":445:472  require (x <= 10, \"x > 10\") */\n      tag_45\n      jumpi\n      mload(0x40)\n      0x08c379a000000000000000000000000000000000000000000000000000000000\n      dup2\n      mstore\n      0x04\n      add\n      tag_46\n      swap1\n      tag_47\n      jump\t// in\n    tag_46:\n      mload(0x40)\n      dup1\n      swap2\n      sub\n      swap1\n      revert\n    tag_45:\n        /* \"Day10_Error.sol\":391:479  function testRequire (uint x) external pure {... */\n      pop\n      jump\t// out\n        /* \"#utility.yul\":7:146   */\n    tag_49:\n        /* \"#utility.yul\":53:58   */\n      0x00\n        /* \"#utility.yul\":91:97   */\n      dup2\n        /* \"#utility.yul\":78:98   */\n      calldataload\n        /* \"#utility.yul\":69:98   */\n      swap1\n      pop\n        /* \"#utility.yul\":107:140   */\n      tag_51\n        /* \"#utility.yul\":134:139   */\n      dup2\n        /* \"#utility.yul\":107:140   */\n      tag_52\n      jump\t// in\n    tag_51:\n        /* \"#utility.yul\":7:146   */\n      swap3\n      swap2\n      pop\n      pop\n      jump\t// out\n        /* \"#utility.yul\":152:481   */\n    tag_11:\n        /* \"#utility.yul\":211:217   */\n      0x00\n        /* \"#utility.yul\":260:262   */\n      0x20\n        /* \"#utility.yul\":248:257   */\n      dup3\n        /* \"#utility.yul\":239:246   */\n      dup5\n        /* \"#utility.yul\":235:258   */\n      sub\n        /* \"#utility.yul\":231:263   */\n      slt\n        /* \"#utility.yul\":228:347   */\n      iszero\n      tag_54\n      jumpi\n        /* \"#utility.yul\":266:345   */\n      tag_55\n      tag_56\n      jump\t// in\n    tag_55:\n        /* \"#utility.yul\":228:347   */\n    tag_54:\n        /* \"#utility.yul\":386:387   */\n      0x00\n        /* \"#utility.yul\":411:464   */\n      tag_57\n        /* \"#utility.yul\":456:463   */\n      dup5\n        /* \"#utility.yul\":447:453   */\n      dup3\n        /* \"#utility.yul\":436:445   */\n      dup6\n        /* \"#utility.yul\":432:454   */\n      add\n        /* \"#utility.yul\":411:464   */\n      tag_49\n      jump\t// in\n    tag_57:\n        /* \"#utility.yul\":401:464   */\n      swap2\n      pop\n        /* \"#utility.yul\":357:474   */\n      pop\n        /* \"#utility.yul\":152:481   */\n      swap3\n      swap2\n      pop\n      pop\n      jump\t// out\n        /* \"#utility.yul\":487:605   */\n    tag_58:\n        /* \"#utility.yul\":574:598   */\n      tag_60\n        /* \"#utility.yul\":592:597   */\n      dup2\n        /* \"#utility.yul\":574:598   */\n      tag_61\n      jump\t// in\n    tag_60:\n        /* \"#utility.yul\":569:572   */\n      dup3\n        /* \"#utility.yul\":562:599   */\n      mstore\n        /* \"#utility.yul\":487:605   */\n      pop\n      pop\n      jump\t// out\n        /* \"#utility.yul\":611:976   */\n    tag_62:\n        /* \"#utility.yul\":753:756   */\n      0x00\n        /* \"#utility.yul\":774:840   */\n      tag_64\n        /* \"#utility.yul\":838:839   */\n      0x06\n        /* \"#utility.yul\":833:836   */\n      dup4\n        /* \"#utility.yul\":774:840   */\n      tag_65\n      jump\t// in\n    tag_64:\n        /* \"#utility.yul\":767:840   */\n      swap2\n      pop\n        /* \"#utility.yul\":849:942   */\n      tag_66\n        /* \"#utility.yul\":938:941   */\n      dup3\n        /* \"#utility.yul\":849:942   */\n      tag_67\n      jump\t// in\n    tag_66:\n        /* \"#utility.yul\":967:969   */\n      0x20\n        /* \"#utility.yul\":962:965   */\n      dup3\n        /* \"#utility.yul\":958:970   */\n      add\n        /* \"#utility.yul\":951:970   */\n      swap1\n      pop\n        /* \"#utility.yul\":611:976   */\n      swap2\n      swap1\n      pop\n      jump\t// out\n        /* \"#utility.yul\":982:1347   */\n    tag_68:\n        /* \"#utility.yul\":1124:1127   */\n      0x00\n        /* \"#utility.yul\":1145:1211   */\n      tag_70\n        /* \"#utility.yul\":1209:1210   */\n      0x06\n        /* \"#utility.yul\":1204:1207   */\n      dup4\n        /* \"#utility.yul\":1145:1211   */\n      tag_65\n      jump\t// in\n    tag_70:\n        /* \"#utility.yul\":1138:1211   */\n      swap2\n      pop\n        /* \"#utility.yul\":1220:1313   */\n      tag_71\n        /* \"#utility.yul\":1309:1312   */\n      dup3\n        /* \"#utility.yul\":1220:1313   */\n      tag_72\n      jump\t// in\n    tag_71:\n        /* \"#utility.yul\":1338:1340   */\n      0x20\n        /* \"#utility.yul\":1333:1336   */\n      dup3\n        /* \"#utility.yul\":1329:1341   */\n      add\n        /* \"#utility.yul\":1322:1341   */\n      swap1\n      pop\n        /* \"#utility.yul\":982:1347   */\n      swap2\n      swap1\n      pop\n      jump\t// out\n        /* \"#utility.yul\":1353:1471   */\n    tag_73:\n        /* \"#utility.yul\":1440:1464   */\n      tag_75\n        /* \"#utility.yul\":1458:1463   */\n      dup2\n        /* \"#utility.yul\":1440:1464   */\n      tag_76\n      jump\t// in\n    tag_75:\n        /* \"#utility.yul\":1435:1438   */\n      dup3\n        /* \"#utility.yul\":1428:1465   */\n      mstore\n        /* \"#utility.yul\":1353:1471   */\n      pop\n      pop\n      jump\t// out\n        /* \"#utility.yul\":1477:1809   */\n    tag_43:\n        /* \"#utility.yul\":1598:1602   */\n      0x00\n        /* \"#utility.yul\":1636:1638   */\n      0x40\n        /* \"#utility.yul\":1625:1634   */\n      dup3\n        /* \"#utility.yul\":1621:1639   */\n      add\n        /* \"#utility.yul\":1613:1639   */\n      swap1\n      pop\n        /* \"#utility.yul\":1649:1720   */\n      tag_78\n        /* \"#utility.yul\":1717:1718   */\n      0x00\n        /* \"#utility.yul\":1706:1715   */\n      dup4\n        /* \"#utility.yul\":1702:1719   */\n      add\n        /* \"#utility.yul\":1693:1699   */\n      dup6\n        /* \"#utility.yul\":1649:1720   */\n      tag_58\n      jump\t// in\n    tag_78:\n        /* \"#utility.yul\":1730:1802   */\n      tag_79\n        /* \"#utility.yul\":1798:1800   */\n      0x20\n        /* \"#utility.yul\":1787:1796   */\n      dup4\n        /* \"#utility.yul\":1783:1801   */\n      add\n        /* \"#utility.yul\":1774:1780   */\n      dup5\n        /* \"#utility.yul\":1730:1802   */\n      tag_73\n      jump\t// in\n    tag_79:\n        /* \"#utility.yul\":1477:1809   */\n      swap4\n      swap3\n      pop\n      pop\n      pop\n      jump\t// out\n        /* \"#utility.yul\":1815:2234   */\n    tag_31:\n        /* \"#utility.yul\":1981:1985   */\n      0x00\n        /* \"#utility.yul\":2019:2021   */\n      0x20\n        /* \"#utility.yul\":2008:2017   */\n      dup3\n        /* \"#utility.yul\":2004:2022   */\n      add\n        /* \"#utility.yul\":1996:2022   */\n      swap1\n      pop\n        /* \"#utility.yul\":2068:2077   */\n      dup2\n        /* \"#utility.yul\":2062:2066   */\n      dup2\n        /* \"#utility.yul\":2058:2078   */\n      sub\n        /* \"#utility.yul\":2054:2055   */\n      0x00\n        /* \"#utility.yul\":2043:2052   */\n      dup4\n        /* \"#utility.yul\":2039:2056   */\n      add\n        /* \"#utility.yul\":2032:2079   */\n      mstore\n        /* \"#utility.yul\":2096:2227   */\n      tag_81\n        /* \"#utility.yul\":2222:2226   */\n      dup2\n        /* \"#utility.yul\":2096:2227   */\n      tag_62\n      jump\t// in\n    tag_81:\n        /* \"#utility.yul\":2088:2227   */\n      swap1\n      pop\n        /* \"#utility.yul\":1815:2234   */\n      swap2\n      swap1\n      pop\n      jump\t// out\n        /* \"#utility.yul\":2240:2659   */\n    tag_47:\n        /* \"#utility.yul\":2406:2410   */\n      0x00\n        /* \"#utility.yul\":2444:2446   */\n      0x20\n        /* \"#utility.yul\":2433:2442   */\n      dup3\n        /* \"#utility.yul\":2429:2447   */\n      add\n        /* \"#utility.yul\":2421:2447   */\n      swap1\n      pop\n        /* \"#utility.yul\":2493:2502   */\n      dup2\n        /* \"#utility.yul\":2487:2491   */\n      dup2\n        /* \"#utility.yul\":2483:2503   */\n      sub\n        /* \"#utility.yul\":2479:2480   */\n      0x00\n        /* \"#utility.yul\":2468:2477   */\n      dup4\n        /* \"#utility.yul\":2464:2481   */\n      add\n        /* \"#utility.yul\":2457:2504   */\n      mstore\n        /* \"#utility.yul\":2521:2652   */\n      tag_83\n        /* \"#utility.yul\":2647:2651   */\n      dup2\n        /* \"#utility.yul\":2521:2652   */\n      tag_68\n      jump\t// in\n    tag_83:\n        /* \"#utility.yul\":2513:2652   */\n      swap1\n      pop\n        /* \"#utility.yul\":2240:2659   */\n      swap2\n      swap1\n      pop\n      jump\t// out\n        /* \"#utility.yul\":2665:2887   */\n    tag_21:\n        /* \"#utility.yul\":2758:2762   */\n      0x00\n        /* \"#utility.yul\":2796:2798   */\n      0x20\n        /* \"#utility.yul\":2785:2794   */\n      dup3\n        /* \"#utility.yul\":2781:2799   */\n      add\n        /* \"#utility.yul\":2773:2799   */\n      swap1\n      pop\n        /* \"#utility.yul\":2809:2880   */\n      tag_85\n        /* \"#utility.yul\":2877:2878   */\n      0x00\n        /* \"#utility.yul\":2866:2875   */\n      dup4\n        /* \"#utility.yul\":2862:2879   */\n      add\n        /* \"#utility.yul\":2853:2859   */\n      dup5\n        /* \"#utility.yul\":2809:2880   */\n      tag_73\n      jump\t// in\n    tag_85:\n        /* \"#utility.yul\":2665:2887   */\n      swap3\n      swap2\n      pop\n      pop\n      jump\t// out\n        /* \"#utility.yul\":2974:3143   */\n    tag_65:\n        /* \"#utility.yul\":3058:3069   */\n      0x00\n        /* \"#utility.yul\":3092:3098   */\n      dup3\n        /* \"#utility.yul\":3087:3090   */\n      dup3\n        /* \"#utility.yul\":3080:3099   */\n      mstore\n        /* \"#utility.yul\":3132:3136   */\n      0x20\n        /* \"#utility.yul\":3127:3130   */\n      dup3\n        /* \"#utility.yul\":3123:3137   */\n      add\n        /* \"#utility.yul\":3108:3137   */\n      swap1\n      pop\n        /* \"#utility.yul\":2974:3143   */\n      swap3\n      swap2\n      pop\n      pop\n      jump\t// out\n        /* \"#utility.yul\":3149:3454   */\n    tag_38:\n        /* \"#utility.yul\":3189:3192   */\n      0x00\n        /* \"#utility.yul\":3208:3228   */\n      tag_90\n        /* \"#utility.yul\":3226:3227   */\n      dup3\n        /* \"#utility.yul\":3208:3228   */\n      tag_76\n      jump\t// in\n    tag_90:\n        /* \"#utility.yul\":3203:3228   */\n      swap2\n      pop\n        /* \"#utility.yul\":3242:3262   */\n      tag_91\n        /* \"#utility.yul\":3260:3261   */\n      dup4\n        /* \"#utility.yul\":3242:3262   */\n      tag_76\n      jump\t// in\n    tag_91:\n        /* \"#utility.yul\":3237:3262   */\n      swap3\n      pop\n        /* \"#utility.yul\":3396:3397   */\n      dup3\n        /* \"#utility.yul\":3328:3394   */\n      0xffffffffffffffffffffffffffffffffffffffffffffffffffffffffffffffff\n        /* \"#utility.yul\":3324:3398   */\n      sub\n        /* \"#utility.yul\":3321:3322   */\n      dup3\n        /* \"#utility.yul\":3318:3399   */\n      gt\n        /* \"#utility.yul\":3315:3422   */\n      iszero\n      tag_92\n      jumpi\n        /* \"#utility.yul\":3402:3420   */\n      tag_93\n      tag_94\n      jump\t// in\n    tag_93:\n        /* \"#utility.yul\":3315:3422   */\n    tag_92:\n        /* \"#utility.yul\":3446:3447   */\n      dup3\n        /* \"#utility.yul\":3443:3444   */\n      dup3\n        /* \"#utility.yul\":3439:3448   */\n      add\n        /* \"#utility.yul\":3432:3448   */\n      swap1\n      pop\n        /* \"#utility.yul\":3149:3454   */\n      swap3\n      swap2\n      pop\n      pop\n      jump\t// out\n        /* \"#utility.yul\":3460:3556   */\n    tag_61:\n        /* \"#utility.yul\":3497:3504   */\n      0x00\n        /* \"#utility.yul\":3526:3550   */\n      tag_96\n        /* \"#utility.yul\":3544:3549   */\n      dup3\n        /* \"#utility.yul\":3526:3550   */\n      tag_97\n      jump\t// in\n    tag_96:\n        /* \"#utility.yul\":3515:3550   */\n      swap1\n      pop\n        /* \"#utility.yul\":3460:3556   */\n      swap2\n      swap1\n      pop\n      jump\t// out\n        /* \"#utility.yul\":3562:3688   */\n    tag_97:\n        /* \"#utility.yul\":3599:3606   */\n      0x00\n        /* \"#utility.yul\":3639:3681   */\n      0xffffffffffffffffffffffffffffffffffffffff\n        /* \"#utility.yul\":3632:3637   */\n      dup3\n        /* \"#utility.yul\":3628:3682   */\n      and\n        /* \"#utility.yul\":3617:3682   */\n      swap1\n      pop\n        /* \"#utility.yul\":3562:3688   */\n      swap2\n      swap1\n      pop\n      jump\t// out\n        /* \"#utility.yul\":3694:3771   */\n    tag_76:\n        /* \"#utility.yul\":3731:3738   */\n      0x00\n        /* \"#utility.yul\":3760:3765   */\n      dup2\n        /* \"#utility.yul\":3749:3765   */\n      swap1\n      pop\n        /* \"#utility.yul\":3694:3771   */\n      swap2\n      swap1\n      pop\n      jump\t// out\n        /* \"#utility.yul\":3777:3957   */\n    tag_35:\n        /* \"#utility.yul\":3825:3902   */\n      0x4e487b7100000000000000000000000000000000000000000000000000000000\n        /* \"#utility.yul\":3822:3823   */\n      0x00\n        /* \"#utility.yul\":3815:3903   */\n      mstore\n        /* \"#utility.yul\":3922:3926   */\n      0x01\n        /* \"#utility.yul\":3919:3920   */\n      0x04\n        /* \"#utility.yul\":3912:3927   */\n      mstore\n        /* \"#utility.yul\":3946:3950   */\n      0x24\n        /* \"#utility.yul\":3943:3944   */\n      0x00\n        /* \"#utility.yul\":3936:3951   */\n      revert\n        /* \"#utility.yul\":3963:4143   */\n    tag_94:\n        /* \"#utility.yul\":4011:4088   */\n      0x4e487b7100000000000000000000000000000000000000000000000000000000\n        /* \"#utility.yul\":4008:4009   */\n      0x00\n        /* \"#utility.yul\":4001:4089   */\n      mstore\n        /* \"#utility.yul\":4108:4112   */\n      0x11\n        /* \"#utility.yul\":4105:4106   */\n      0x04\n        /* \"#utility.yul\":4098:4113   */\n      mstore\n        /* \"#utility.yul\":4132:4136   */\n      0x24\n        /* \"#utility.yul\":4129:4130   */\n      0x00\n        /* \"#utility.yul\":4122:4137   */\n      revert\n        /* \"#utility.yul\":4272:4389   */\n    tag_56:\n        /* \"#utility.yul\":4381:4382   */\n      0x00\n        /* \"#utility.yul\":4378:4379   */\n      dup1\n        /* \"#utility.yul\":4371:4383   */\n      revert\n        /* \"#utility.yul\":4395:4551   */\n    tag_67:\n        /* \"#utility.yul\":4535:4543   */\n      0x69203e2031300000000000000000000000000000000000000000000000000000\n        /* \"#utility.yul\":4531:4532   */\n      0x00\n        /* \"#utility.yul\":4523:4529   */\n      dup3\n        /* \"#utility.yul\":4519:4533   */\n      add\n        /* \"#utility.yul\":4512:4544   */\n      mstore\n        /* \"#utility.yul\":4395:4551   */\n      pop\n      jump\t// out\n        /* \"#utility.yul\":4557:4713   */\n    tag_72:\n        /* \"#utility.yul\":4697:4705   */\n      0x78203e2031300000000000000000000000000000000000000000000000000000\n        /* \"#utility.yul\":4693:4694   */\n      0x00\n        /* \"#utility.yul\":4685:4691   */\n      dup3\n        /* \"#utility.yul\":4681:4695   */\n      add\n        /* \"#utility.yul\":4674:4706   */\n      mstore\n        /* \"#utility.yul\":4557:4713   */\n      pop\n      jump\t// out\n        /* \"#utility.yul\":4719:4841   */\n    tag_52:\n        /* \"#utility.yul\":4792:4816   */\n      tag_108\n        /* \"#utility.yul\":4810:4815   */\n      dup2\n        /* \"#utility.yul\":4792:4816   */\n      tag_76\n      jump\t// in\n    tag_108:\n        /* \"#utility.yul\":4785:4790   */\n      dup2\n        /* \"#utility.yul\":4782:4817   */\n      eq\n        /* \"#utility.yul\":4772:4835   */\n      tag_109\n      jumpi\n        /* \"#utility.yul\":4831:4832   */\n      0x00\n        /* \"#utility.yul\":4828:4829   */\n      dup1\n        /* \"#utility.yul\":4821:4833   */\n      revert\n        /* \"#utility.yul\":4772:4835   */\n    tag_109:\n        /* \"#utility.yul\":4719:4841   */\n      pop\n      jump\t// out\n\n    auxdata: 0xa2646970667358221220c74951e4aa6b9835faa32a747e991f4094ee977e4bad833ca86ae35fed1cf5bc64736f6c63430008070033\n}\n",
				"bytecode": {
					"linkReferences": {},
					"object": "6080604052607b60005534801561001557600080fd5b506104ea806100256000396000f3fe608060405234801561001057600080fd5b50600436106100625760003560e01c806320987767146100675780632b813bc0146100835780632fbebd381461008d5780634e70b1dc146100a957806375f7286c146100c7578063b8bd717f146100e3575b600080fd5b610081600480360381019061007c9190610230565b6100ff565b005b61008b610145565b005b6100a760048036038101906100a29190610230565b61015a565b005b6100b1610183565b6040516100be919061032a565b60405180910390f35b6100e160048036038101906100dc9190610230565b610189565b005b6100fd60048036038101906100f89190610230565b6101d4565b005b600a8111610142576040517f08c379a0000000000000000000000000000000000000000000000000000000008152600401610139906102ea565b60405180910390fd5b50565b607b60005414610158576101576103e8565b5b565b8060008082825461016b9190610356565b92505081905550600a81111561018057600080fd5b50565b60005481565b600a8110156101d15733816040517fe2399bb80000000000000000000000000000000000000000000000000000000081526004016101c89291906102c1565b60405180910390fd5b50565b600a811115610218576040517f08c379a000000000000000000000000000000000000000000000000000000000815260040161020f9061030a565b60405180910390fd5b50565b60008135905061022a8161049d565b92915050565b60006020828403121561024657610245610446565b5b60006102548482850161021b565b91505092915050565b610266816103ac565b82525050565b6000610279600683610345565b91506102848261044b565b602082019050919050565b600061029c600683610345565b91506102a782610474565b602082019050919050565b6102bb816103de565b82525050565b60006040820190506102d6600083018561025d565b6102e360208301846102b2565b9392505050565b600060208201905081810360008301526103038161026c565b9050919050565b600060208201905081810360008301526103238161028f565b9050919050565b600060208201905061033f60008301846102b2565b92915050565b600082825260208201905092915050565b6000610361826103de565b915061036c836103de565b9250827fffffffffffffffffffffffffffffffffffffffffffffffffffffffffffffffff038211156103a1576103a0610417565b5b828201905092915050565b60006103b7826103be565b9050919050565b600073ffffffffffffffffffffffffffffffffffffffff82169050919050565b6000819050919050565b7f4e487b7100000000000000000000000000000000000000000000000000000000600052600160045260246000fd5b7f4e487b7100000000000000000000000000000000000000000000000000000000600052601160045260246000fd5b600080fd5b7f69203e2031300000000000000000000000000000000000000000000000000000600082015250565b7f78203e2031300000000000000000000000000000000000000000000000000000600082015250565b6104a6816103de565b81146104b157600080fd5b5056fea2646970667358221220c74951e4aa6b9835faa32a747e991f4094ee977e4bad833ca86ae35fed1cf5bc64736f6c63430008070033",
					"opcodes": "PUSH1 0x80 PUSH1 0x40 MSTORE PUSH1 0x7B PUSH1 0x0 SSTORE CALLVALUE DUP1 ISZERO PUSH2 0x15 JUMPI PUSH1 0x0 DUP1 REVERT JUMPDEST POP PUSH2 0x4EA DUP1 PUSH2 0x25 PUSH1 0x0 CODECOPY PUSH1 0x0 RETURN INVALID PUSH1 0x80 PUSH1 0x40 MSTORE CALLVALUE DUP1 ISZERO PUSH2 0x10 JUMPI PUSH1 0x0 DUP1 REVERT JUMPDEST POP PUSH1 0x4 CALLDATASIZE LT PUSH2 0x62 JUMPI PUSH1 0x0 CALLDATALOAD PUSH1 0xE0 SHR DUP1 PUSH4 0x20987767 EQ PUSH2 0x67 JUMPI DUP1 PUSH4 0x2B813BC0 EQ PUSH2 0x83 JUMPI DUP1 PUSH4 0x2FBEBD38 EQ PUSH2 0x8D JUMPI DUP1 PUSH4 0x4E70B1DC EQ PUSH2 0xA9 JUMPI DUP1 PUSH4 0x75F7286C EQ PUSH2 0xC7 JUMPI DUP1 PUSH4 0xB8BD717F EQ PUSH2 0xE3 JUMPI JUMPDEST PUSH1 0x0 DUP1 REVERT JUMPDEST PUSH2 0x81 PUSH1 0x4 DUP1 CALLDATASIZE SUB DUP2 ADD SWAP1 PUSH2 0x7C SWAP2 SWAP1 PUSH2 0x230 JUMP JUMPDEST PUSH2 0xFF JUMP JUMPDEST STOP JUMPDEST PUSH2 0x8B PUSH2 0x145 JUMP JUMPDEST STOP JUMPDEST PUSH2 0xA7 PUSH1 0x4 DUP1 CALLDATASIZE SUB DUP2 ADD SWAP1 PUSH2 0xA2 SWAP2 SWAP1 PUSH2 0x230 JUMP JUMPDEST PUSH2 0x15A JUMP JUMPDEST STOP JUMPDEST PUSH2 0xB1 PUSH2 0x183 JUMP JUMPDEST PUSH1 0x40 MLOAD PUSH2 0xBE SWAP2 SWAP1 PUSH2 0x32A JUMP JUMPDEST PUSH1 0x40 MLOAD DUP1 SWAP2 SUB SWAP1 RETURN JUMPDEST PUSH2 0xE1 PUSH1 0x4 DUP1 CALLDATASIZE SUB DUP2 ADD SWAP1 PUSH2 0xDC SWAP2 SWAP1 PUSH2 0x230 JUMP JUMPDEST PUSH2 0x189 JUMP JUMPDEST STOP JUMPDEST PUSH2 0xFD PUSH1 0x4 DUP1 CALLDATASIZE SUB DUP2 ADD SWAP1 PUSH2 0xF8 SWAP2 SWAP1 PUSH2 0x230 JUMP JUMPDEST PUSH2 0x1D4 JUMP JUMPDEST STOP JUMPDEST PUSH1 0xA DUP2 GT PUSH2 0x142 JUMPI PUSH1 0x40 MLOAD PUSH32 0x8C379A000000000000000000000000000000000000000000000000000000000 DUP2 MSTORE PUSH1 0x4 ADD PUSH2 0x139 SWAP1 PUSH2 0x2EA JUMP JUMPDEST PUSH1 0x40 MLOAD DUP1 SWAP2 SUB SWAP1 REVERT JUMPDEST POP JUMP JUMPDEST PUSH1 0x7B PUSH1 0x0 SLOAD EQ PUSH2 0x158 JUMPI PUSH2 0x157 PUSH2 0x3E8 JUMP JUMPDEST JUMPDEST JUMP JUMPDEST DUP1 PUSH1 0x0 DUP1 DUP3 DUP3 SLOAD PUSH2 0x16B SWAP2 SWAP1 PUSH2 0x356 JUMP JUMPDEST SWAP3 POP POP DUP2 SWAP1 SSTORE POP PUSH1 0xA DUP2 GT ISZERO PUSH2 0x180 JUMPI PUSH1 0x0 DUP1 REVERT JUMPDEST POP JUMP JUMPDEST PUSH1 0x0 SLOAD DUP2 JUMP JUMPDEST PUSH1 0xA DUP2 LT ISZERO PUSH2 0x1D1 JUMPI CALLER DUP2 PUSH1 0x40 MLOAD PUSH32 0xE2399BB800000000000000000000000000000000000000000000000000000000 DUP2 MSTORE PUSH1 0x4 ADD PUSH2 0x1C8 SWAP3 SWAP2 SWAP1 PUSH2 0x2C1 JUMP JUMPDEST PUSH1 0x40 MLOAD DUP1 SWAP2 SUB SWAP1 REVERT JUMPDEST POP JUMP JUMPDEST PUSH1 0xA DUP2 GT ISZERO PUSH2 0x218 JUMPI PUSH1 0x40 MLOAD PUSH32 0x8C379A000000000000000000000000000000000000000000000000000000000 DUP2 MSTORE PUSH1 0x4 ADD PUSH2 0x20F SWAP1 PUSH2 0x30A JUMP JUMPDEST PUSH1 0x40 MLOAD DUP1 SWAP2 SUB SWAP1 REVERT JUMPDEST POP JUMP JUMPDEST PUSH1 0x0 DUP2 CALLDATALOAD SWAP1 POP PUSH2 0x22A DUP2 PUSH2 0x49D JUMP JUMPDEST SWAP3 SWAP2 POP POP JUMP JUMPDEST PUSH1 0x0 PUSH1 0x20 DUP3 DUP5 SUB SLT ISZERO PUSH2 0x246 JUMPI PUSH2 0x245 PUSH2 0x446 JUMP JUMPDEST JUMPDEST PUSH1 0x0 PUSH2 0x254 DUP5 DUP3 DUP6 ADD PUSH2 0x21B JUMP JUMPDEST SWAP2 POP POP SWAP3 SWAP2 POP POP JUMP JUMPDEST PUSH2 0x266 DUP2 PUSH2 0x3AC JUMP JUMPDEST DUP3 MSTORE POP POP JUMP JUMPDEST PUSH1 0x0 PUSH2 0x279 PUSH1 0x6 DUP4 PUSH2 0x345 JUMP JUMPDEST SWAP2 POP PUSH2 0x284 DUP3 PUSH2 0x44B JUMP JUMPDEST PUSH1 0x20 DUP3 ADD SWAP1 POP SWAP2 SWAP1 POP JUMP JUMPDEST PUSH1 0x0 PUSH2 0x29C PUSH1 0x6 DUP4 PUSH2 0x345 JUMP JUMPDEST SWAP2 POP PUSH2 0x2A7 DUP3 PUSH2 0x474 JUMP JUMPDEST PUSH1 0x20 DUP3 ADD SWAP1 POP SWAP2 SWAP1 POP JUMP JUMPDEST PUSH2 0x2BB DUP2 PUSH2 0x3DE JUMP JUMPDEST DUP3 MSTORE POP POP JUMP JUMPDEST PUSH1 0x0 PUSH1 0x40 DUP3 ADD SWAP1 POP PUSH2 0x2D6 PUSH1 0x0 DUP4 ADD DUP6 PUSH2 0x25D JUMP JUMPDEST PUSH2 0x2E3 PUSH1 0x20 DUP4 ADD DUP5 PUSH2 0x2B2 JUMP JUMPDEST SWAP4 SWAP3 POP POP POP JUMP JUMPDEST PUSH1 0x0 PUSH1 0x20 DUP3 ADD SWAP1 POP DUP2 DUP2 SUB PUSH1 0x0 DUP4 ADD MSTORE PUSH2 0x303 DUP2 PUSH2 0x26C JUMP JUMPDEST SWAP1 POP SWAP2 SWAP1 POP JUMP JUMPDEST PUSH1 0x0 PUSH1 0x20 DUP3 ADD SWAP1 POP DUP2 DUP2 SUB PUSH1 0x0 DUP4 ADD MSTORE PUSH2 0x323 DUP2 PUSH2 0x28F JUMP JUMPDEST SWAP1 POP SWAP2 SWAP1 POP JUMP JUMPDEST PUSH1 0x0 PUSH1 0x20 DUP3 ADD SWAP1 POP PUSH2 0x33F PUSH1 0x0 DUP4 ADD DUP5 PUSH2 0x2B2 JUMP JUMPDEST SWAP3 SWAP2 POP POP JUMP JUMPDEST PUSH1 0x0 DUP3 DUP3 MSTORE PUSH1 0x20 DUP3 ADD SWAP1 POP SWAP3 SWAP2 POP POP JUMP JUMPDEST PUSH1 0x0 PUSH2 0x361 DUP3 PUSH2 0x3DE JUMP JUMPDEST SWAP2 POP PUSH2 0x36C DUP4 PUSH2 0x3DE JUMP JUMPDEST SWAP3 POP DUP3 PUSH32 0xFFFFFFFFFFFFFFFFFFFFFFFFFFFFFFFFFFFFFFFFFFFFFFFFFFFFFFFFFFFFFFFF SUB DUP3 GT ISZERO PUSH2 0x3A1 JUMPI PUSH2 0x3A0 PUSH2 0x417 JUMP JUMPDEST JUMPDEST DUP3 DUP3 ADD SWAP1 POP SWAP3 SWAP2 POP POP JUMP JUMPDEST PUSH1 0x0 PUSH2 0x3B7 DUP3 PUSH2 0x3BE JUMP JUMPDEST SWAP1 POP SWAP2 SWAP1 POP JUMP JUMPDEST PUSH1 0x0 PUSH20 0xFFFFFFFFFFFFFFFFFFFFFFFFFFFFFFFFFFFFFFFF DUP3 AND SWAP1 POP SWAP2 SWAP1 POP JUMP JUMPDEST PUSH1 0x0 DUP2 SWAP1 POP SWAP2 SWAP1 POP JUMP JUMPDEST PUSH32 0x4E487B7100000000000000000000000000000000000000000000000000000000 PUSH1 0x0 MSTORE PUSH1 0x1 PUSH1 0x4 MSTORE PUSH1 0x24 PUSH1 0x0 REVERT JUMPDEST PUSH32 0x4E487B7100000000000000000000000000000000000000000000000000000000 PUSH1 0x0 MSTORE PUSH1 0x11 PUSH1 0x4 MSTORE PUSH1 0x24 PUSH1 0x0 REVERT JUMPDEST PUSH1 0x0 DUP1 REVERT JUMPDEST PUSH32 0x69203E2031300000000000000000000000000000000000000000000000000000 PUSH1 0x0 DUP3 ADD MSTORE POP JUMP JUMPDEST PUSH32 0x78203E2031300000000000000000000000000000000000000000000000000000 PUSH1 0x0 DUP3 ADD MSTORE POP JUMP JUMPDEST PUSH2 0x4A6 DUP2 PUSH2 0x3DE JUMP JUMPDEST DUP2 EQ PUSH2 0x4B1 JUMPI PUSH1 0x0 DUP1 REVERT JUMPDEST POP JUMP INVALID LOG2 PUSH5 0x6970667358 0x22 SLT KECCAK256 0xC7 0x49 MLOAD 0xE4 0xAA PUSH12 0x9835FAA32A747E991F4094EE SWAP8 PUSH31 0x4BAD833CA86AE35FED1CF5BC64736F6C634300080700330000000000000000 "
				},
				"gasEstimates": {
					"creation": {
						"codeDepositCost": "251600",
						"executionCost": "22400",
						"totalCost": "274000"
					},
					"external": {
						"foo(uint256)": "infinite",
						"num()": "2473",
						"testAssert()": "2296",
						"testCustomError(uint256)": "infinite",
						"testRequire(uint256)": "807",
						"testRevert(uint256)": "694"
					}
				},
				"methodIdentifiers": {
					"foo(uint256)": "2fbebd38",
					"num()": "4e70b1dc",
					"testAssert()": "2b813bc0",
					"testCustomError(uint256)": "75f7286c",
					"testRequire(uint256)": "b8bd717f",
					"testRevert(uint256)": "20987767"
				}
			},
			"storageLayout": {
				"storage": [
					{
						"astId": 4,
						"contract": "Day10_Error.sol:Errors",
						"label": "num",
						"offset": 0,
						"slot": "0",
						"type": "t_uint256"
					}
				],
				"types": {
					"t_uint256": {
						"encoding": "inplace",
						"label": "uint256",
						"numberOfBytes": "32"
					}
				}
			},
			"userdoc": {
				"kind": "user",
				"methods": {},
				"version": 1
			}
		}
	}
}