{
	"Day20_Struct.sol": {
		"Struct": {
			"abi": [
				{
					"inputs": [],
					"name": "car",
					"outputs": [
						{
							"internalType": "string",
							"name": "model",
							"type": "string"
						},
						{
							"internalType": "bool",
							"name": "year",
							"type": "bool"
						},
						{
							"internalType": "address",
							"name": "owner",
							"type": "address"
						}
					],
					"stateMutability": "view",
					"type": "function"
				},
				{
					"inputs": [
						{
							"internalType": "uint256",
							"name": "",
							"type": "uint256"
						}
					],
					"name": "cars",
					"outputs": [
						{
							"internalType": "string",
							"name": "model",
							"type": "string"
						},
						{
							"internalType": "bool",
							"name": "year",
							"type": "bool"
						},
						{
							"internalType": "address",
							"name": "owner",
							"type": "address"
						}
					],
					"stateMutability": "view",
					"type": "function"
				},
				{
					"inputs": [
						{
							"internalType": "address",
							"name": "",
							"type": "address"
						},
						{
							"internalType": "uint256",
							"name": "",
							"type": "uint256"
						}
					],
					"name": "carsByOwner",
					"outputs": [
						{
							"internalType": "string",
							"name": "model",
							"type": "string"
						},
						{
							"internalType": "bool",
							"name": "year",
							"type": "bool"
						},
						{
							"internalType": "address",
							"name": "owner",
							"type": "address"
						}
					],
					"stateMutability": "view",
					"type": "function"
				}
			],
			"devdoc": {
				"kind": "dev",
				"methods": {},
				"version": 1
			},
			"evm": {
				"assembly": "    /* \"Day20_Struct.sol\":58:264  contract Struct {... */\n  mstore(0x40, 0x80)\n  callvalue\n  dup1\n  iszero\n  tag_1\n  jumpi\n  0x00\n  dup1\n  revert\ntag_1:\n  pop\n  dataSize(sub_0)\n  dup1\n  dataOffset(sub_0)\n  0x00\n  codecopy\n  0x00\n  return\nstop\n\nsub_0: assembly {\n        /* \"Day20_Struct.sol\":58:264  contract Struct {... */\n      mstore(0x40, 0x80)\n      callvalue\n      dup1\n      iszero\n      tag_1\n      jumpi\n      0x00\n      dup1\n      revert\n    tag_1:\n      pop\n      jumpi(tag_2, lt(calldatasize, 0x04))\n      shr(0xe0, calldataload(0x00))\n      dup1\n      0xaa9fb6c8\n      eq\n      tag_3\n      jumpi\n      dup1\n      0xee26fac3\n      eq\n      tag_4\n      jumpi\n      dup1\n      0xf7746e36\n      eq\n      tag_5\n      jumpi\n    tag_2:\n      0x00\n      dup1\n      revert\n        /* \"Day20_Struct.sol\":211:255  mapping(address => Car[]) public carsByOwner */\n    tag_3:\n      tag_6\n      0x04\n      dup1\n      calldatasize\n      sub\n      dup2\n      add\n      swap1\n      tag_7\n      swap2\n      swap1\n      tag_8\n      jump\t// in\n    tag_7:\n      tag_9\n      jump\t// in\n    tag_6:\n      mload(0x40)\n      tag_10\n      swap4\n      swap3\n      swap2\n      swap1\n      tag_11\n      jump\t// in\n    tag_10:\n      mload(0x40)\n      dup1\n      swap2\n      sub\n      swap1\n      return\n        /* \"Day20_Struct.sol\":168:182  Car public car */\n    tag_4:\n      tag_12\n      tag_13\n      jump\t// in\n    tag_12:\n      mload(0x40)\n      tag_14\n      swap4\n      swap3\n      swap2\n      swap1\n      tag_11\n      jump\t// in\n    tag_14:\n      mload(0x40)\n      dup1\n      swap2\n      sub\n      swap1\n      return\n        /* \"Day20_Struct.sol\":188:205  Car[] public cars */\n    tag_5:\n      tag_15\n      0x04\n      dup1\n      calldatasize\n      sub\n      dup2\n      add\n      swap1\n      tag_16\n      swap2\n      swap1\n      tag_17\n      jump\t// in\n    tag_16:\n      tag_18\n      jump\t// in\n    tag_15:\n      mload(0x40)\n      tag_19\n      swap4\n      swap3\n      swap2\n      swap1\n      tag_11\n      jump\t// in\n    tag_19:\n      mload(0x40)\n      dup1\n      swap2\n      sub\n      swap1\n      return\n        /* \"Day20_Struct.sol\":211:255  mapping(address => Car[]) public carsByOwner */\n    tag_9:\n      mstore(0x20, 0x03)\n      dup2\n      0x00\n      mstore\n      keccak256(0x00, 0x40)\n      dup2\n      dup2\n      sload\n      dup2\n      lt\n      tag_20\n      jumpi\n      0x00\n      dup1\n      revert\n    tag_20:\n      swap1\n      0x00\n      mstore\n      keccak256(0x00, 0x20)\n      swap1\n      0x02\n      mul\n      add\n      0x00\n      swap2\n      pop\n      swap2\n      pop\n      pop\n      dup1\n      0x00\n      add\n      dup1\n      sload\n      tag_22\n      swap1\n      tag_23\n      jump\t// in\n    tag_22:\n      dup1\n      0x1f\n      add\n      0x20\n      dup1\n      swap2\n      div\n      mul\n      0x20\n      add\n      mload(0x40)\n      swap1\n      dup2\n      add\n      0x40\n      mstore\n      dup1\n      swap3\n      swap2\n      swap1\n      dup2\n      dup2\n      mstore\n      0x20\n      add\n      dup3\n      dup1\n      sload\n      tag_24\n      swap1\n      tag_23\n      jump\t// in\n    tag_24:\n      dup1\n      iszero\n      tag_25\n      jumpi\n      dup1\n      0x1f\n      lt\n      tag_26\n      jumpi\n      0x0100\n      dup1\n      dup4\n      sload\n      div\n      mul\n      dup4\n      mstore\n      swap2\n      0x20\n      add\n      swap2\n      jump(tag_25)\n    tag_26:\n      dup3\n      add\n      swap2\n      swap1\n      0x00\n      mstore\n      keccak256(0x00, 0x20)\n      swap1\n    tag_27:\n      dup2\n      sload\n      dup2\n      mstore\n      swap1\n      0x01\n      add\n      swap1\n      0x20\n      add\n      dup1\n      dup4\n      gt\n      tag_27\n      jumpi\n      dup3\n      swap1\n      sub\n      0x1f\n      and\n      dup3\n      add\n      swap2\n    tag_25:\n      pop\n      pop\n      pop\n      pop\n      pop\n      swap1\n      dup1\n      0x01\n      add\n      0x00\n      swap1\n      sload\n      swap1\n      0x0100\n      exp\n      swap1\n      div\n      0xff\n      and\n      swap1\n      dup1\n      0x01\n      add\n      0x01\n      swap1\n      sload\n      swap1\n      0x0100\n      exp\n      swap1\n      div\n      0xffffffffffffffffffffffffffffffffffffffff\n      and\n      swap1\n      pop\n      dup4\n      jump\t// out\n        /* \"Day20_Struct.sol\":168:182  Car public car */\n    tag_13:\n      0x00\n      dup1\n      0x00\n      add\n      dup1\n      sload\n      tag_28\n      swap1\n      tag_23\n      jump\t// in\n    tag_28:\n      dup1\n      0x1f\n      add\n      0x20\n      dup1\n      swap2\n      div\n      mul\n      0x20\n      add\n      mload(0x40)\n      swap1\n      dup2\n      add\n      0x40\n      mstore\n      dup1\n      swap3\n      swap2\n      swap1\n      dup2\n      dup2\n      mstore\n      0x20\n      add\n      dup3\n      dup1\n      sload\n      tag_29\n      swap1\n      tag_23\n      jump\t// in\n    tag_29:\n      dup1\n      iszero\n      tag_30\n      jumpi\n      dup1\n      0x1f\n      lt\n      tag_31\n      jumpi\n      0x0100\n      dup1\n      dup4\n      sload\n      div\n      mul\n      dup4\n      mstore\n      swap2\n      0x20\n      add\n      swap2\n      jump(tag_30)\n    tag_31:\n      dup3\n      add\n      swap2\n      swap1\n      0x00\n      mstore\n      keccak256(0x00, 0x20)\n      swap1\n    tag_32:\n      dup2\n      sload\n      dup2\n      mstore\n      swap1\n      0x01\n      add\n      swap1\n      0x20\n      add\n      dup1\n      dup4\n      gt\n      tag_32\n      jumpi\n      dup3\n      swap1\n      sub\n      0x1f\n      and\n      dup3\n      add\n      swap2\n    tag_30:\n      pop\n      pop\n      pop\n      pop\n      pop\n      swap1\n      dup1\n      0x01\n      add\n      0x00\n      swap1\n      sload\n      swap1\n      0x0100\n      exp\n      swap1\n      div\n      0xff\n      and\n      swap1\n      dup1\n      0x01\n      add\n      0x01\n      swap1\n      sload\n      swap1\n      0x0100\n      exp\n      swap1\n      div\n      0xffffffffffffffffffffffffffffffffffffffff\n      and\n      swap1\n      pop\n      dup4\n      jump\t// out\n        /* \"Day20_Struct.sol\":188:205  Car[] public cars */\n    tag_18:\n      0x02\n      dup2\n      dup2\n      sload\n      dup2\n      lt\n      tag_33\n      jumpi\n      0x00\n      dup1\n      revert\n    tag_33:\n      swap1\n      0x00\n      mstore\n      keccak256(0x00, 0x20)\n      swap1\n      0x02\n      mul\n      add\n      0x00\n      swap2\n      pop\n      swap1\n      pop\n      dup1\n      0x00\n      add\n      dup1\n      sload\n      tag_35\n      swap1\n      tag_23\n      jump\t// in\n    tag_35:\n      dup1\n      0x1f\n      add\n      0x20\n      dup1\n      swap2\n      div\n      mul\n      0x20\n      add\n      mload(0x40)\n      swap1\n      dup2\n      add\n      0x40\n      mstore\n      dup1\n      swap3\n      swap2\n      swap1\n      dup2\n      dup2\n      mstore\n      0x20\n      add\n      dup3\n      dup1\n      sload\n      tag_36\n      swap1\n      tag_23\n      jump\t// in\n    tag_36:\n      dup1\n      iszero\n      tag_37\n      jumpi\n      dup1\n      0x1f\n      lt\n      tag_38\n      jumpi\n      0x0100\n      dup1\n      dup4\n      sload\n      div\n      mul\n      dup4\n      mstore\n      swap2\n      0x20\n      add\n      swap2\n      jump(tag_37)\n    tag_38:\n      dup3\n      add\n      swap2\n      swap1\n      0x00\n      mstore\n      keccak256(0x00, 0x20)\n      swap1\n    tag_39:\n      dup2\n      sload\n      dup2\n      mstore\n      swap1\n      0x01\n      add\n      swap1\n      0x20\n      add\n      dup1\n      dup4\n      gt\n      tag_39\n      jumpi\n      dup3\n      swap1\n      sub\n      0x1f\n      and\n      dup3\n      add\n      swap2\n    tag_37:\n      pop\n      pop\n      pop\n      pop\n      pop\n      swap1\n      dup1\n      0x01\n      add\n      0x00\n      swap1\n      sload\n      swap1\n      0x0100\n      exp\n      swap1\n      div\n      0xff\n      and\n      swap1\n      dup1\n      0x01\n      add\n      0x01\n      swap1\n      sload\n      swap1\n      0x0100\n      exp\n      swap1\n      div\n      0xffffffffffffffffffffffffffffffffffffffff\n      and\n      swap1\n      pop\n      dup4\n      jump\t// out\n        /* \"#utility.yul\":7:146   */\n    tag_41:\n        /* \"#utility.yul\":53:58   */\n      0x00\n        /* \"#utility.yul\":91:97   */\n      dup2\n        /* \"#utility.yul\":78:98   */\n      calldataload\n        /* \"#utility.yul\":69:98   */\n      swap1\n      pop\n        /* \"#utility.yul\":107:140   */\n      tag_43\n        /* \"#utility.yul\":134:139   */\n      dup2\n        /* \"#utility.yul\":107:140   */\n      tag_44\n      jump\t// in\n    tag_43:\n        /* \"#utility.yul\":7:146   */\n      swap3\n      swap2\n      pop\n      pop\n      jump\t// out\n        /* \"#utility.yul\":152:291   */\n    tag_45:\n        /* \"#utility.yul\":198:203   */\n      0x00\n        /* \"#utility.yul\":236:242   */\n      dup2\n        /* \"#utility.yul\":223:243   */\n      calldataload\n        /* \"#utility.yul\":214:243   */\n      swap1\n      pop\n        /* \"#utility.yul\":252:285   */\n      tag_47\n        /* \"#utility.yul\":279:284   */\n      dup2\n        /* \"#utility.yul\":252:285   */\n      tag_48\n      jump\t// in\n    tag_47:\n        /* \"#utility.yul\":152:291   */\n      swap3\n      swap2\n      pop\n      pop\n      jump\t// out\n        /* \"#utility.yul\":297:771   */\n    tag_8:\n        /* \"#utility.yul\":365:371   */\n      0x00\n        /* \"#utility.yul\":373:379   */\n      dup1\n        /* \"#utility.yul\":422:424   */\n      0x40\n        /* \"#utility.yul\":410:419   */\n      dup4\n        /* \"#utility.yul\":401:408   */\n      dup6\n        /* \"#utility.yul\":397:420   */\n      sub\n        /* \"#utility.yul\":393:425   */\n      slt\n        /* \"#utility.yul\":390:509   */\n      iszero\n      tag_50\n      jumpi\n        /* \"#utility.yul\":428:507   */\n      tag_51\n      tag_52\n      jump\t// in\n    tag_51:\n        /* \"#utility.yul\":390:509   */\n    tag_50:\n        /* \"#utility.yul\":548:549   */\n      0x00\n        /* \"#utility.yul\":573:626   */\n      tag_53\n        /* \"#utility.yul\":618:625   */\n      dup6\n        /* \"#utility.yul\":609:615   */\n      dup3\n        /* \"#utility.yul\":598:607   */\n      dup7\n        /* \"#utility.yul\":594:616   */\n      add\n        /* \"#utility.yul\":573:626   */\n      tag_41\n      jump\t// in\n    tag_53:\n        /* \"#utility.yul\":563:626   */\n      swap3\n      pop\n        /* \"#utility.yul\":519:636   */\n      pop\n        /* \"#utility.yul\":675:677   */\n      0x20\n        /* \"#utility.yul\":701:754   */\n      tag_54\n        /* \"#utility.yul\":746:753   */\n      dup6\n        /* \"#utility.yul\":737:743   */\n      dup3\n        /* \"#utility.yul\":726:735   */\n      dup7\n        /* \"#utility.yul\":722:744   */\n      add\n        /* \"#utility.yul\":701:754   */\n      tag_45\n      jump\t// in\n    tag_54:\n        /* \"#utility.yul\":691:754   */\n      swap2\n      pop\n        /* \"#utility.yul\":646:764   */\n      pop\n        /* \"#utility.yul\":297:771   */\n      swap3\n      pop\n      swap3\n      swap1\n      pop\n      jump\t// out\n        /* \"#utility.yul\":777:1106   */\n    tag_17:\n        /* \"#utility.yul\":836:842   */\n      0x00\n        /* \"#utility.yul\":885:887   */\n      0x20\n        /* \"#utility.yul\":873:882   */\n      dup3\n        /* \"#utility.yul\":864:871   */\n      dup5\n        /* \"#utility.yul\":860:883   */\n      sub\n        /* \"#utility.yul\":856:888   */\n      slt\n        /* \"#utility.yul\":853:972   */\n      iszero\n      tag_56\n      jumpi\n        /* \"#utility.yul\":891:970   */\n      tag_57\n      tag_52\n      jump\t// in\n    tag_57:\n        /* \"#utility.yul\":853:972   */\n    tag_56:\n        /* \"#utility.yul\":1011:1012   */\n      0x00\n        /* \"#utility.yul\":1036:1089   */\n      tag_58\n        /* \"#utility.yul\":1081:1088   */\n      dup5\n        /* \"#utility.yul\":1072:1078   */\n      dup3\n        /* \"#utility.yul\":1061:1070   */\n      dup6\n        /* \"#utility.yul\":1057:1079   */\n      add\n        /* \"#utility.yul\":1036:1089   */\n      tag_45\n      jump\t// in\n    tag_58:\n        /* \"#utility.yul\":1026:1089   */\n      swap2\n      pop\n        /* \"#utility.yul\":982:1099   */\n      pop\n        /* \"#utility.yul\":777:1106   */\n      swap3\n      swap2\n      pop\n      pop\n      jump\t// out\n        /* \"#utility.yul\":1112:1230   */\n    tag_59:\n        /* \"#utility.yul\":1199:1223   */\n      tag_61\n        /* \"#utility.yul\":1217:1222   */\n      dup2\n        /* \"#utility.yul\":1199:1223   */\n      tag_62\n      jump\t// in\n    tag_61:\n        /* \"#utility.yul\":1194:1197   */\n      dup3\n        /* \"#utility.yul\":1187:1224   */\n      mstore\n        /* \"#utility.yul\":1112:1230   */\n      pop\n      pop\n      jump\t// out\n        /* \"#utility.yul\":1236:1345   */\n    tag_63:\n        /* \"#utility.yul\":1317:1338   */\n      tag_65\n        /* \"#utility.yul\":1332:1337   */\n      dup2\n        /* \"#utility.yul\":1317:1338   */\n      tag_66\n      jump\t// in\n    tag_65:\n        /* \"#utility.yul\":1312:1315   */\n      dup3\n        /* \"#utility.yul\":1305:1339   */\n      mstore\n        /* \"#utility.yul\":1236:1345   */\n      pop\n      pop\n      jump\t// out\n        /* \"#utility.yul\":1351:1715   */\n    tag_67:\n        /* \"#utility.yul\":1439:1442   */\n      0x00\n        /* \"#utility.yul\":1467:1506   */\n      tag_69\n        /* \"#utility.yul\":1500:1505   */\n      dup3\n        /* \"#utility.yul\":1467:1506   */\n      tag_70\n      jump\t// in\n    tag_69:\n        /* \"#utility.yul\":1522:1593   */\n      tag_71\n        /* \"#utility.yul\":1586:1592   */\n      dup2\n        /* \"#utility.yul\":1581:1584   */\n      dup6\n        /* \"#utility.yul\":1522:1593   */\n      tag_72\n      jump\t// in\n    tag_71:\n        /* \"#utility.yul\":1515:1593   */\n      swap4\n      pop\n        /* \"#utility.yul\":1602:1654   */\n      tag_73\n        /* \"#utility.yul\":1647:1653   */\n      dup2\n        /* \"#utility.yul\":1642:1645   */\n      dup6\n        /* \"#utility.yul\":1635:1639   */\n      0x20\n        /* \"#utility.yul\":1628:1633   */\n      dup7\n        /* \"#utility.yul\":1624:1640   */\n      add\n        /* \"#utility.yul\":1602:1654   */\n      tag_74\n      jump\t// in\n    tag_73:\n        /* \"#utility.yul\":1679:1708   */\n      tag_75\n        /* \"#utility.yul\":1701:1707   */\n      dup2\n        /* \"#utility.yul\":1679:1708   */\n      tag_76\n      jump\t// in\n    tag_75:\n        /* \"#utility.yul\":1674:1677   */\n      dup5\n        /* \"#utility.yul\":1670:1709   */\n      add\n        /* \"#utility.yul\":1663:1709   */\n      swap2\n      pop\n        /* \"#utility.yul\":1443:1715   */\n      pop\n        /* \"#utility.yul\":1351:1715   */\n      swap3\n      swap2\n      pop\n      pop\n      jump\t// out\n        /* \"#utility.yul\":1721:2242   */\n    tag_11:\n        /* \"#utility.yul\":1884:1888   */\n      0x00\n        /* \"#utility.yul\":1922:1924   */\n      0x60\n        /* \"#utility.yul\":1911:1920   */\n      dup3\n        /* \"#utility.yul\":1907:1925   */\n      add\n        /* \"#utility.yul\":1899:1925   */\n      swap1\n      pop\n        /* \"#utility.yul\":1971:1980   */\n      dup2\n        /* \"#utility.yul\":1965:1969   */\n      dup2\n        /* \"#utility.yul\":1961:1981   */\n      sub\n        /* \"#utility.yul\":1957:1958   */\n      0x00\n        /* \"#utility.yul\":1946:1955   */\n      dup4\n        /* \"#utility.yul\":1942:1959   */\n      add\n        /* \"#utility.yul\":1935:1982   */\n      mstore\n        /* \"#utility.yul\":1999:2077   */\n      tag_78\n        /* \"#utility.yul\":2072:2076   */\n      dup2\n        /* \"#utility.yul\":2063:2069   */\n      dup7\n        /* \"#utility.yul\":1999:2077   */\n      tag_67\n      jump\t// in\n    tag_78:\n        /* \"#utility.yul\":1991:2077   */\n      swap1\n      pop\n        /* \"#utility.yul\":2087:2153   */\n      tag_79\n        /* \"#utility.yul\":2149:2151   */\n      0x20\n        /* \"#utility.yul\":2138:2147   */\n      dup4\n        /* \"#utility.yul\":2134:2152   */\n      add\n        /* \"#utility.yul\":2125:2131   */\n      dup6\n        /* \"#utility.yul\":2087:2153   */\n      tag_63\n      jump\t// in\n    tag_79:\n        /* \"#utility.yul\":2163:2235   */\n      tag_80\n        /* \"#utility.yul\":2231:2233   */\n      0x40\n        /* \"#utility.yul\":2220:2229   */\n      dup4\n        /* \"#utility.yul\":2216:2234   */\n      add\n        /* \"#utility.yul\":2207:2213   */\n      dup5\n        /* \"#utility.yul\":2163:2235   */\n      tag_59\n      jump\t// in\n    tag_80:\n        /* \"#utility.yul\":1721:2242   */\n      swap5\n      swap4\n      pop\n      pop\n      pop\n      pop\n      jump\t// out\n        /* \"#utility.yul\":2329:2428   */\n    tag_70:\n        /* \"#utility.yul\":2381:2387   */\n      0x00\n        /* \"#utility.yul\":2415:2420   */\n      dup2\n        /* \"#utility.yul\":2409:2421   */\n      mload\n        /* \"#utility.yul\":2399:2421   */\n      swap1\n      pop\n        /* \"#utility.yul\":2329:2428   */\n      swap2\n      swap1\n      pop\n      jump\t// out\n        /* \"#utility.yul\":2434:2603   */\n    tag_72:\n        /* \"#utility.yul\":2518:2529   */\n      0x00\n        /* \"#utility.yul\":2552:2558   */\n      dup3\n        /* \"#utility.yul\":2547:2550   */\n      dup3\n        /* \"#utility.yul\":2540:2559   */\n      mstore\n        /* \"#utility.yul\":2592:2596   */\n      0x20\n        /* \"#utility.yul\":2587:2590   */\n      dup3\n        /* \"#utility.yul\":2583:2597   */\n      add\n        /* \"#utility.yul\":2568:2597   */\n      swap1\n      pop\n        /* \"#utility.yul\":2434:2603   */\n      swap3\n      swap2\n      pop\n      pop\n      jump\t// out\n        /* \"#utility.yul\":2609:2705   */\n    tag_62:\n        /* \"#utility.yul\":2646:2653   */\n      0x00\n        /* \"#utility.yul\":2675:2699   */\n      tag_86\n        /* \"#utility.yul\":2693:2698   */\n      dup3\n        /* \"#utility.yul\":2675:2699   */\n      tag_87\n      jump\t// in\n    tag_86:\n        /* \"#utility.yul\":2664:2699   */\n      swap1\n      pop\n        /* \"#utility.yul\":2609:2705   */\n      swap2\n      swap1\n      pop\n      jump\t// out\n        /* \"#utility.yul\":2711:2801   */\n    tag_66:\n        /* \"#utility.yul\":2745:2752   */\n      0x00\n        /* \"#utility.yul\":2788:2793   */\n      dup2\n        /* \"#utility.yul\":2781:2794   */\n      iszero\n        /* \"#utility.yul\":2774:2795   */\n      iszero\n        /* \"#utility.yul\":2763:2795   */\n      swap1\n      pop\n        /* \"#utility.yul\":2711:2801   */\n      swap2\n      swap1\n      pop\n      jump\t// out\n        /* \"#utility.yul\":2807:2933   */\n    tag_87:\n        /* \"#utility.yul\":2844:2851   */\n      0x00\n        /* \"#utility.yul\":2884:2926   */\n      0xffffffffffffffffffffffffffffffffffffffff\n        /* \"#utility.yul\":2877:2882   */\n      dup3\n        /* \"#utility.yul\":2873:2927   */\n      and\n        /* \"#utility.yul\":2862:2927   */\n      swap1\n      pop\n        /* \"#utility.yul\":2807:2933   */\n      swap2\n      swap1\n      pop\n      jump\t// out\n        /* \"#utility.yul\":2939:3016   */\n    tag_90:\n        /* \"#utility.yul\":2976:2983   */\n      0x00\n        /* \"#utility.yul\":3005:3010   */\n      dup2\n        /* \"#utility.yul\":2994:3010   */\n      swap1\n      pop\n        /* \"#utility.yul\":2939:3016   */\n      swap2\n      swap1\n      pop\n      jump\t// out\n        /* \"#utility.yul\":3022:3329   */\n    tag_74:\n        /* \"#utility.yul\":3090:3091   */\n      0x00\n        /* \"#utility.yul\":3100:3213   */\n    tag_93:\n        /* \"#utility.yul\":3114:3120   */\n      dup4\n        /* \"#utility.yul\":3111:3112   */\n      dup2\n        /* \"#utility.yul\":3108:3121   */\n      lt\n        /* \"#utility.yul\":3100:3213   */\n      iszero\n      tag_95\n      jumpi\n        /* \"#utility.yul\":3199:3200   */\n      dup1\n        /* \"#utility.yul\":3194:3197   */\n      dup3\n        /* \"#utility.yul\":3190:3201   */\n      add\n        /* \"#utility.yul\":3184:3202   */\n      mload\n        /* \"#utility.yul\":3180:3181   */\n      dup2\n        /* \"#utility.yul\":3175:3178   */\n      dup5\n        /* \"#utility.yul\":3171:3182   */\n      add\n        /* \"#utility.yul\":3164:3203   */\n      mstore\n        /* \"#utility.yul\":3136:3138   */\n      0x20\n        /* \"#utility.yul\":3133:3134   */\n      dup2\n        /* \"#utility.yul\":3129:3139   */\n      add\n        /* \"#utility.yul\":3124:3139   */\n      swap1\n      pop\n        /* \"#utility.yul\":3100:3213   */\n      jump(tag_93)\n    tag_95:\n        /* \"#utility.yul\":3231:3237   */\n      dup4\n        /* \"#utility.yul\":3228:3229   */\n      dup2\n        /* \"#utility.yul\":3225:3238   */\n      gt\n        /* \"#utility.yul\":3222:3323   */\n      iszero\n      tag_96\n      jumpi\n        /* \"#utility.yul\":3311:3312   */\n      0x00\n        /* \"#utility.yul\":3302:3308   */\n      dup5\n        /* \"#utility.yul\":3297:3300   */\n      dup5\n        /* \"#utility.yul\":3293:3309   */\n      add\n        /* \"#utility.yul\":3286:3313   */\n      mstore\n        /* \"#utility.yul\":3222:3323   */\n    tag_96:\n        /* \"#utility.yul\":3071:3329   */\n      pop\n        /* \"#utility.yul\":3022:3329   */\n      pop\n      pop\n      pop\n      jump\t// out\n        /* \"#utility.yul\":3335:3655   */\n    tag_23:\n        /* \"#utility.yul\":3379:3385   */\n      0x00\n        /* \"#utility.yul\":3416:3417   */\n      0x02\n        /* \"#utility.yul\":3410:3414   */\n      dup3\n        /* \"#utility.yul\":3406:3418   */\n      div\n        /* \"#utility.yul\":3396:3418   */\n      swap1\n      pop\n        /* \"#utility.yul\":3463:3464   */\n      0x01\n        /* \"#utility.yul\":3457:3461   */\n      dup3\n        /* \"#utility.yul\":3453:3465   */\n      and\n        /* \"#utility.yul\":3484:3502   */\n      dup1\n        /* \"#utility.yul\":3474:3555   */\n      tag_98\n      jumpi\n        /* \"#utility.yul\":3540:3544   */\n      0x7f\n        /* \"#utility.yul\":3532:3538   */\n      dup3\n        /* \"#utility.yul\":3528:3545   */\n      and\n        /* \"#utility.yul\":3518:3545   */\n      swap2\n      pop\n        /* \"#utility.yul\":3474:3555   */\n    tag_98:\n        /* \"#utility.yul\":3602:3604   */\n      0x20\n        /* \"#utility.yul\":3594:3600   */\n      dup3\n        /* \"#utility.yul\":3591:3605   */\n      lt\n        /* \"#utility.yul\":3571:3589   */\n      dup2\n        /* \"#utility.yul\":3568:3606   */\n      eq\n        /* \"#utility.yul\":3565:3649   */\n      iszero\n      tag_99\n      jumpi\n        /* \"#utility.yul\":3621:3639   */\n      tag_100\n      tag_101\n      jump\t// in\n    tag_100:\n        /* \"#utility.yul\":3565:3649   */\n    tag_99:\n        /* \"#utility.yul\":3386:3655   */\n      pop\n        /* \"#utility.yul\":3335:3655   */\n      swap2\n      swap1\n      pop\n      jump\t// out\n        /* \"#utility.yul\":3661:3841   */\n    tag_101:\n        /* \"#utility.yul\":3709:3786   */\n      0x4e487b7100000000000000000000000000000000000000000000000000000000\n        /* \"#utility.yul\":3706:3707   */\n      0x00\n        /* \"#utility.yul\":3699:3787   */\n      mstore\n        /* \"#utility.yul\":3806:3810   */\n      0x22\n        /* \"#utility.yul\":3803:3804   */\n      0x04\n        /* \"#utility.yul\":3796:3811   */\n      mstore\n        /* \"#utility.yul\":3830:3834   */\n      0x24\n        /* \"#utility.yul\":3827:3828   */\n      0x00\n        /* \"#utility.yul\":3820:3835   */\n      revert\n        /* \"#utility.yul\":3970:4087   */\n    tag_52:\n        /* \"#utility.yul\":4079:4080   */\n      0x00\n        /* \"#utility.yul\":4076:4077   */\n      dup1\n        /* \"#utility.yul\":4069:4081   */\n      revert\n        /* \"#utility.yul\":4093:4195   */\n    tag_76:\n        /* \"#utility.yul\":4134:4140   */\n      0x00\n        /* \"#utility.yul\":4185:4187   */\n      0x1f\n        /* \"#utility.yul\":4181:4188   */\n      not\n        /* \"#utility.yul\":4176:4178   */\n      0x1f\n        /* \"#utility.yul\":4169:4174   */\n      dup4\n        /* \"#utility.yul\":4165:4179   */\n      add\n        /* \"#utility.yul\":4161:4189   */\n      and\n        /* \"#utility.yul\":4151:4189   */\n      swap1\n      pop\n        /* \"#utility.yul\":4093:4195   */\n      swap2\n      swap1\n      pop\n      jump\t// out\n        /* \"#utility.yul\":4201:4323   */\n    tag_44:\n        /* \"#utility.yul\":4274:4298   */\n      tag_108\n        /* \"#utility.yul\":4292:4297   */\n      dup2\n        /* \"#utility.yul\":4274:4298   */\n      tag_62\n      jump\t// in\n    tag_108:\n        /* \"#utility.yul\":4267:4272   */\n      dup2\n        /* \"#utility.yul\":4264:4299   */\n      eq\n        /* \"#utility.yul\":4254:4317   */\n      tag_109\n      jumpi\n        /* \"#utility.yul\":4313:4314   */\n      0x00\n        /* \"#utility.yul\":4310:4311   */\n      dup1\n        /* \"#utility.yul\":4303:4315   */\n      revert\n        /* \"#utility.yul\":4254:4317   */\n    tag_109:\n        /* \"#utility.yul\":4201:4323   */\n      pop\n      jump\t// out\n        /* \"#utility.yul\":4329:4451   */\n    tag_48:\n        /* \"#utility.yul\":4402:4426   */\n      tag_111\n        /* \"#utility.yul\":4420:4425   */\n      dup2\n        /* \"#utility.yul\":4402:4426   */\n      tag_90\n      jump\t// in\n    tag_111:\n        /* \"#utility.yul\":4395:4400   */\n      dup2\n        /* \"#utility.yul\":4392:4427   */\n      eq\n        /* \"#utility.yul\":4382:4445   */\n      tag_112\n      jumpi\n        /* \"#utility.yul\":4441:4442   */\n      0x00\n        /* \"#utility.yul\":4438:4439   */\n      dup1\n        /* \"#utility.yul\":4431:4443   */\n      revert\n        /* \"#utility.yul\":4382:4445   */\n    tag_112:\n        /* \"#utility.yul\":4329:4451   */\n      pop\n      jump\t// out\n\n    auxdata: 0xa2646970667358221220874f7bd16db17789c9fbcb0ad3a2daf7e6186371b7474556ee75eb3da7ea3f0464736f6c63430008070033\n}\n",
				"bytecode": {
					"linkReferences": {},
					"object": "608060405234801561001057600080fd5b50610620806100206000396000f3fe608060405234801561001057600080fd5b50600436106100415760003560e01c8063aa9fb6c814610046578063ee26fac314610078578063f7746e3614610098575b600080fd5b610060600480360381019061005b91906103ac565b6100ca565b60405161006f93929190610470565b60405180910390f35b6100806101c6565b60405161008f93929190610470565b60405180910390f35b6100b260048036038101906100ad91906103ec565b610293565b6040516100c193929190610470565b60405180910390f35b600360205281600052604060002081815481106100e657600080fd5b90600052602060002090600202016000915091505080600001805461010a90610545565b80601f016020809104026020016040519081016040528092919081815260200182805461013690610545565b80156101835780601f1061015857610100808354040283529160200191610183565b820191906000526020600020905b81548152906001019060200180831161016657829003601f168201915b5050505050908060010160009054906101000a900460ff16908060010160019054906101000a900473ffffffffffffffffffffffffffffffffffffffff16905083565b60008060000180546101d790610545565b80601f016020809104026020016040519081016040528092919081815260200182805461020390610545565b80156102505780601f1061022557610100808354040283529160200191610250565b820191906000526020600020905b81548152906001019060200180831161023357829003601f168201915b5050505050908060010160009054906101000a900460ff16908060010160019054906101000a900473ffffffffffffffffffffffffffffffffffffffff16905083565b600281815481106102a357600080fd5b90600052602060002090600202016000915090508060000180546102c690610545565b80601f01602080910402602001604051908101604052809291908181526020018280546102f290610545565b801561033f5780601f106103145761010080835404028352916020019161033f565b820191906000526020600020905b81548152906001019060200180831161032257829003601f168201915b5050505050908060010160009054906101000a900460ff16908060010160019054906101000a900473ffffffffffffffffffffffffffffffffffffffff16905083565b600081359050610391816105bc565b92915050565b6000813590506103a6816105d3565b92915050565b600080604083850312156103c3576103c26105a6565b5b60006103d185828601610382565b92505060206103e285828601610397565b9150509250929050565b600060208284031215610402576104016105a6565b5b600061041084828501610397565b91505092915050565b610422816104ca565b82525050565b610431816104dc565b82525050565b6000610442826104ae565b61044c81856104b9565b935061045c818560208601610512565b610465816105ab565b840191505092915050565b6000606082019050818103600083015261048a8186610437565b90506104996020830185610428565b6104a66040830184610419565b949350505050565b600081519050919050565b600082825260208201905092915050565b60006104d5826104e8565b9050919050565b60008115159050919050565b600073ffffffffffffffffffffffffffffffffffffffff82169050919050565b6000819050919050565b60005b83811015610530578082015181840152602081019050610515565b8381111561053f576000848401525b50505050565b6000600282049050600182168061055d57607f821691505b6020821081141561057157610570610577565b5b50919050565b7f4e487b7100000000000000000000000000000000000000000000000000000000600052602260045260246000fd5b600080fd5b6000601f19601f8301169050919050565b6105c5816104ca565b81146105d057600080fd5b50565b6105dc81610508565b81146105e757600080fd5b5056fea2646970667358221220874f7bd16db17789c9fbcb0ad3a2daf7e6186371b7474556ee75eb3da7ea3f0464736f6c63430008070033",
					"opcodes": "PUSH1 0x80 PUSH1 0x40 MSTORE CALLVALUE DUP1 ISZERO PUSH2 0x10 JUMPI PUSH1 0x0 DUP1 REVERT JUMPDEST POP PUSH2 0x620 DUP1 PUSH2 0x20 PUSH1 0x0 CODECOPY PUSH1 0x0 RETURN INVALID PUSH1 0x80 PUSH1 0x40 MSTORE CALLVALUE DUP1 ISZERO PUSH2 0x10 JUMPI PUSH1 0x0 DUP1 REVERT JUMPDEST POP PUSH1 0x4 CALLDATASIZE LT PUSH2 0x41 JUMPI PUSH1 0x0 CALLDATALOAD PUSH1 0xE0 SHR DUP1 PUSH4 0xAA9FB6C8 EQ PUSH2 0x46 JUMPI DUP1 PUSH4 0xEE26FAC3 EQ PUSH2 0x78 JUMPI DUP1 PUSH4 0xF7746E36 EQ PUSH2 0x98 JUMPI JUMPDEST PUSH1 0x0 DUP1 REVERT JUMPDEST PUSH2 0x60 PUSH1 0x4 DUP1 CALLDATASIZE SUB DUP2 ADD SWAP1 PUSH2 0x5B SWAP2 SWAP1 PUSH2 0x3AC JUMP JUMPDEST PUSH2 0xCA JUMP JUMPDEST PUSH1 0x40 MLOAD PUSH2 0x6F SWAP4 SWAP3 SWAP2 SWAP1 PUSH2 0x470 JUMP JUMPDEST PUSH1 0x40 MLOAD DUP1 SWAP2 SUB SWAP1 RETURN JUMPDEST PUSH2 0x80 PUSH2 0x1C6 JUMP JUMPDEST PUSH1 0x40 MLOAD PUSH2 0x8F SWAP4 SWAP3 SWAP2 SWAP1 PUSH2 0x470 JUMP JUMPDEST PUSH1 0x40 MLOAD DUP1 SWAP2 SUB SWAP1 RETURN JUMPDEST PUSH2 0xB2 PUSH1 0x4 DUP1 CALLDATASIZE SUB DUP2 ADD SWAP1 PUSH2 0xAD SWAP2 SWAP1 PUSH2 0x3EC JUMP JUMPDEST PUSH2 0x293 JUMP JUMPDEST PUSH1 0x40 MLOAD PUSH2 0xC1 SWAP4 SWAP3 SWAP2 SWAP1 PUSH2 0x470 JUMP JUMPDEST PUSH1 0x40 MLOAD DUP1 SWAP2 SUB SWAP1 RETURN JUMPDEST PUSH1 0x3 PUSH1 0x20 MSTORE DUP2 PUSH1 0x0 MSTORE PUSH1 0x40 PUSH1 0x0 KECCAK256 DUP2 DUP2 SLOAD DUP2 LT PUSH2 0xE6 JUMPI PUSH1 0x0 DUP1 REVERT JUMPDEST SWAP1 PUSH1 0x0 MSTORE PUSH1 0x20 PUSH1 0x0 KECCAK256 SWAP1 PUSH1 0x2 MUL ADD PUSH1 0x0 SWAP2 POP SWAP2 POP POP DUP1 PUSH1 0x0 ADD DUP1 SLOAD PUSH2 0x10A SWAP1 PUSH2 0x545 JUMP JUMPDEST DUP1 PUSH1 0x1F ADD PUSH1 0x20 DUP1 SWAP2 DIV MUL PUSH1 0x20 ADD PUSH1 0x40 MLOAD SWAP1 DUP2 ADD PUSH1 0x40 MSTORE DUP1 SWAP3 SWAP2 SWAP1 DUP2 DUP2 MSTORE PUSH1 0x20 ADD DUP3 DUP1 SLOAD PUSH2 0x136 SWAP1 PUSH2 0x545 JUMP JUMPDEST DUP1 ISZERO PUSH2 0x183 JUMPI DUP1 PUSH1 0x1F LT PUSH2 0x158 JUMPI PUSH2 0x100 DUP1 DUP4 SLOAD DIV MUL DUP4 MSTORE SWAP2 PUSH1 0x20 ADD SWAP2 PUSH2 0x183 JUMP JUMPDEST DUP3 ADD SWAP2 SWAP1 PUSH1 0x0 MSTORE PUSH1 0x20 PUSH1 0x0 KECCAK256 SWAP1 JUMPDEST DUP2 SLOAD DUP2 MSTORE SWAP1 PUSH1 0x1 ADD SWAP1 PUSH1 0x20 ADD DUP1 DUP4 GT PUSH2 0x166 JUMPI DUP3 SWAP1 SUB PUSH1 0x1F AND DUP3 ADD SWAP2 JUMPDEST POP POP POP POP POP SWAP1 DUP1 PUSH1 0x1 ADD PUSH1 0x0 SWAP1 SLOAD SWAP1 PUSH2 0x100 EXP SWAP1 DIV PUSH1 0xFF AND SWAP1 DUP1 PUSH1 0x1 ADD PUSH1 0x1 SWAP1 SLOAD SWAP1 PUSH2 0x100 EXP SWAP1 DIV PUSH20 0xFFFFFFFFFFFFFFFFFFFFFFFFFFFFFFFFFFFFFFFF AND SWAP1 POP DUP4 JUMP JUMPDEST PUSH1 0x0 DUP1 PUSH1 0x0 ADD DUP1 SLOAD PUSH2 0x1D7 SWAP1 PUSH2 0x545 JUMP JUMPDEST DUP1 PUSH1 0x1F ADD PUSH1 0x20 DUP1 SWAP2 DIV MUL PUSH1 0x20 ADD PUSH1 0x40 MLOAD SWAP1 DUP2 ADD PUSH1 0x40 MSTORE DUP1 SWAP3 SWAP2 SWAP1 DUP2 DUP2 MSTORE PUSH1 0x20 ADD DUP3 DUP1 SLOAD PUSH2 0x203 SWAP1 PUSH2 0x545 JUMP JUMPDEST DUP1 ISZERO PUSH2 0x250 JUMPI DUP1 PUSH1 0x1F LT PUSH2 0x225 JUMPI PUSH2 0x100 DUP1 DUP4 SLOAD DIV MUL DUP4 MSTORE SWAP2 PUSH1 0x20 ADD SWAP2 PUSH2 0x250 JUMP JUMPDEST DUP3 ADD SWAP2 SWAP1 PUSH1 0x0 MSTORE PUSH1 0x20 PUSH1 0x0 KECCAK256 SWAP1 JUMPDEST DUP2 SLOAD DUP2 MSTORE SWAP1 PUSH1 0x1 ADD SWAP1 PUSH1 0x20 ADD DUP1 DUP4 GT PUSH2 0x233 JUMPI DUP3 SWAP1 SUB PUSH1 0x1F AND DUP3 ADD SWAP2 JUMPDEST POP POP POP POP POP SWAP1 DUP1 PUSH1 0x1 ADD PUSH1 0x0 SWAP1 SLOAD SWAP1 PUSH2 0x100 EXP SWAP1 DIV PUSH1 0xFF AND SWAP1 DUP1 PUSH1 0x1 ADD PUSH1 0x1 SWAP1 SLOAD SWAP1 PUSH2 0x100 EXP SWAP1 DIV PUSH20 0xFFFFFFFFFFFFFFFFFFFFFFFFFFFFFFFFFFFFFFFF AND SWAP1 POP DUP4 JUMP JUMPDEST PUSH1 0x2 DUP2 DUP2 SLOAD DUP2 LT PUSH2 0x2A3 JUMPI PUSH1 0x0 DUP1 REVERT JUMPDEST SWAP1 PUSH1 0x0 MSTORE PUSH1 0x20 PUSH1 0x0 KECCAK256 SWAP1 PUSH1 0x2 MUL ADD PUSH1 0x0 SWAP2 POP SWAP1 POP DUP1 PUSH1 0x0 ADD DUP1 SLOAD PUSH2 0x2C6 SWAP1 PUSH2 0x545 JUMP JUMPDEST DUP1 PUSH1 0x1F ADD PUSH1 0x20 DUP1 SWAP2 DIV MUL PUSH1 0x20 ADD PUSH1 0x40 MLOAD SWAP1 DUP2 ADD PUSH1 0x40 MSTORE DUP1 SWAP3 SWAP2 SWAP1 DUP2 DUP2 MSTORE PUSH1 0x20 ADD DUP3 DUP1 SLOAD PUSH2 0x2F2 SWAP1 PUSH2 0x545 JUMP JUMPDEST DUP1 ISZERO PUSH2 0x33F JUMPI DUP1 PUSH1 0x1F LT PUSH2 0x314 JUMPI PUSH2 0x100 DUP1 DUP4 SLOAD DIV MUL DUP4 MSTORE SWAP2 PUSH1 0x20 ADD SWAP2 PUSH2 0x33F JUMP JUMPDEST DUP3 ADD SWAP2 SWAP1 PUSH1 0x0 MSTORE PUSH1 0x20 PUSH1 0x0 KECCAK256 SWAP1 JUMPDEST DUP2 SLOAD DUP2 MSTORE SWAP1 PUSH1 0x1 ADD SWAP1 PUSH1 0x20 ADD DUP1 DUP4 GT PUSH2 0x322 JUMPI DUP3 SWAP1 SUB PUSH1 0x1F AND DUP3 ADD SWAP2 JUMPDEST POP POP POP POP POP SWAP1 DUP1 PUSH1 0x1 ADD PUSH1 0x0 SWAP1 SLOAD SWAP1 PUSH2 0x100 EXP SWAP1 DIV PUSH1 0xFF AND SWAP1 DUP1 PUSH1 0x1 ADD PUSH1 0x1 SWAP1 SLOAD SWAP1 PUSH2 0x100 EXP SWAP1 DIV PUSH20 0xFFFFFFFFFFFFFFFFFFFFFFFFFFFFFFFFFFFFFFFF AND SWAP1 POP DUP4 JUMP JUMPDEST PUSH1 0x0 DUP2 CALLDATALOAD SWAP1 POP PUSH2 0x391 DUP2 PUSH2 0x5BC JUMP JUMPDEST SWAP3 SWAP2 POP POP JUMP JUMPDEST PUSH1 0x0 DUP2 CALLDATALOAD SWAP1 POP PUSH2 0x3A6 DUP2 PUSH2 0x5D3 JUMP JUMPDEST SWAP3 SWAP2 POP POP JUMP JUMPDEST PUSH1 0x0 DUP1 PUSH1 0x40 DUP4 DUP6 SUB SLT ISZERO PUSH2 0x3C3 JUMPI PUSH2 0x3C2 PUSH2 0x5A6 JUMP JUMPDEST JUMPDEST PUSH1 0x0 PUSH2 0x3D1 DUP6 DUP3 DUP7 ADD PUSH2 0x382 JUMP JUMPDEST SWAP3 POP POP PUSH1 0x20 PUSH2 0x3E2 DUP6 DUP3 DUP7 ADD PUSH2 0x397 JUMP JUMPDEST SWAP2 POP POP SWAP3 POP SWAP3 SWAP1 POP JUMP JUMPDEST PUSH1 0x0 PUSH1 0x20 DUP3 DUP5 SUB SLT ISZERO PUSH2 0x402 JUMPI PUSH2 0x401 PUSH2 0x5A6 JUMP JUMPDEST JUMPDEST PUSH1 0x0 PUSH2 0x410 DUP5 DUP3 DUP6 ADD PUSH2 0x397 JUMP JUMPDEST SWAP2 POP POP SWAP3 SWAP2 POP POP JUMP JUMPDEST PUSH2 0x422 DUP2 PUSH2 0x4CA JUMP JUMPDEST DUP3 MSTORE POP POP JUMP JUMPDEST PUSH2 0x431 DUP2 PUSH2 0x4DC JUMP JUMPDEST DUP3 MSTORE POP POP JUMP JUMPDEST PUSH1 0x0 PUSH2 0x442 DUP3 PUSH2 0x4AE JUMP JUMPDEST PUSH2 0x44C DUP2 DUP6 PUSH2 0x4B9 JUMP JUMPDEST SWAP4 POP PUSH2 0x45C DUP2 DUP6 PUSH1 0x20 DUP7 ADD PUSH2 0x512 JUMP JUMPDEST PUSH2 0x465 DUP2 PUSH2 0x5AB JUMP JUMPDEST DUP5 ADD SWAP2 POP POP SWAP3 SWAP2 POP POP JUMP JUMPDEST PUSH1 0x0 PUSH1 0x60 DUP3 ADD SWAP1 POP DUP2 DUP2 SUB PUSH1 0x0 DUP4 ADD MSTORE PUSH2 0x48A DUP2 DUP7 PUSH2 0x437 JUMP JUMPDEST SWAP1 POP PUSH2 0x499 PUSH1 0x20 DUP4 ADD DUP6 PUSH2 0x428 JUMP JUMPDEST PUSH2 0x4A6 PUSH1 0x40 DUP4 ADD DUP5 PUSH2 0x419 JUMP JUMPDEST SWAP5 SWAP4 POP POP POP POP JUMP JUMPDEST PUSH1 0x0 DUP2 MLOAD SWAP1 POP SWAP2 SWAP1 POP JUMP JUMPDEST PUSH1 0x0 DUP3 DUP3 MSTORE PUSH1 0x20 DUP3 ADD SWAP1 POP SWAP3 SWAP2 POP POP JUMP JUMPDEST PUSH1 0x0 PUSH2 0x4D5 DUP3 PUSH2 0x4E8 JUMP JUMPDEST SWAP1 POP SWAP2 SWAP1 POP JUMP JUMPDEST PUSH1 0x0 DUP2 ISZERO ISZERO SWAP1 POP SWAP2 SWAP1 POP JUMP JUMPDEST PUSH1 0x0 PUSH20 0xFFFFFFFFFFFFFFFFFFFFFFFFFFFFFFFFFFFFFFFF DUP3 AND SWAP1 POP SWAP2 SWAP1 POP JUMP JUMPDEST PUSH1 0x0 DUP2 SWAP1 POP SWAP2 SWAP1 POP JUMP JUMPDEST PUSH1 0x0 JUMPDEST DUP4 DUP2 LT ISZERO PUSH2 0x530 JUMPI DUP1 DUP3 ADD MLOAD DUP2 DUP5 ADD MSTORE PUSH1 0x20 DUP2 ADD SWAP1 POP PUSH2 0x515 JUMP JUMPDEST DUP4 DUP2 GT ISZERO PUSH2 0x53F JUMPI PUSH1 0x0 DUP5 DUP5 ADD MSTORE JUMPDEST POP POP POP POP JUMP JUMPDEST PUSH1 0x0 PUSH1 0x2 DUP3 DIV SWAP1 POP PUSH1 0x1 DUP3 AND DUP1 PUSH2 0x55D JUMPI PUSH1 0x7F DUP3 AND SWAP2 POP JUMPDEST PUSH1 0x20 DUP3 LT DUP2 EQ ISZERO PUSH2 0x571 JUMPI PUSH2 0x570 PUSH2 0x577 JUMP JUMPDEST JUMPDEST POP SWAP2 SWAP1 POP JUMP JUMPDEST PUSH32 0x4E487B7100000000000000000000000000000000000000000000000000000000 PUSH1 0x0 MSTORE PUSH1 0x22 PUSH1 0x4 MSTORE PUSH1 0x24 PUSH1 0x0 REVERT JUMPDEST PUSH1 0x0 DUP1 REVERT JUMPDEST PUSH1 0x0 PUSH1 0x1F NOT PUSH1 0x1F DUP4 ADD AND SWAP1 POP SWAP2 SWAP1 POP JUMP JUMPDEST PUSH2 0x5C5 DUP2 PUSH2 0x4CA JUMP JUMPDEST DUP2 EQ PUSH2 0x5D0 JUMPI PUSH1 0x0 DUP1 REVERT JUMPDEST POP JUMP JUMPDEST PUSH2 0x5DC DUP2 PUSH2 0x508 JUMP JUMPDEST DUP2 EQ PUSH2 0x5E7 JUMPI PUSH1 0x0 DUP1 REVERT JUMPDEST POP JUMP INVALID LOG2 PUSH5 0x6970667358 0x22 SLT KECCAK256 DUP8 0x4F PUSH28 0xD16DB17789C9FBCB0AD3A2DAF7E6186371B7474556EE75EB3DA7EA3F DIV PUSH5 0x736F6C6343 STOP ADDMOD SMOD STOP CALLER "
				},
				"gasEstimates": {
					"creation": {
						"codeDepositCost": "313600",
						"executionCost": "349",
						"totalCost": "313949"
					},
					"external": {
						"car()": "infinite",
						"cars(uint256)": "infinite",
						"carsByOwner(address,uint256)": "infinite"
					}
				},
				"methodIdentifiers": {
					"car()": "ee26fac3",
					"cars(uint256)": "f7746e36",
					"carsByOwner(address,uint256)": "aa9fb6c8"
				}
			},
			"storageLayout": {
				"storage": [
					{
						"astId": 11,
						"contract": "Day20_Struct.sol:Struct",
						"label": "car",
						"offset": 0,
						"slot": "0",
						"type": "t_struct(Car)8_storage"
					},
					{
						"astId": 15,
						"contract": "Day20_Struct.sol:Struct",
						"label": "cars",
						"offset": 0,
						"slot": "2",
						"type": "t_array(t_struct(Car)8_storage)dyn_storage"
					},
					{
						"astId": 21,
						"contract": "Day20_Struct.sol:Struct",
						"label": "carsByOwner",
						"offset": 0,
						"slot": "3",
						"type": "t_mapping(t_address,t_array(t_struct(Car)8_storage)dyn_storage)"
					}
				],
				"types": {
					"t_address": {
						"encoding": "inplace",
						"label": "address",
						"numberOfBytes": "20"
					},
					"t_array(t_struct(Car)8_storage)dyn_storage": {
						"base": "t_struct(Car)8_storage",
						"encoding": "dynamic_array",
						"label": "struct Struct.Car[]",
						"numberOfBytes": "32"
					},
					"t_bool": {
						"encoding": "inplace",
						"label": "bool",
						"numberOfBytes": "1"
					},
					"t_mapping(t_address,t_array(t_struct(Car)8_storage)dyn_storage)": {
						"encoding": "mapping",
						"key": "t_address",
						"label": "mapping(address => struct Struct.Car[])",
						"numberOfBytes": "32",
						"value": "t_array(t_struct(Car)8_storage)dyn_storage"
					},
					"t_string_storage": {
						"encoding": "bytes",
						"label": "string",
						"numberOfBytes": "32"
					},
					"t_struct(Car)8_storage": {
						"encoding": "inplace",
						"label": "struct Struct.Car",
						"members": [
							{
								"astId": 3,
								"contract": "Day20_Struct.sol:Struct",
								"label": "model",
								"offset": 0,
								"slot": "0",
								"type": "t_string_storage"
							},
							{
								"astId": 5,
								"contract": "Day20_Struct.sol:Struct",
								"label": "year",
								"offset": 0,
								"slot": "1",
								"type": "t_bool"
							},
							{
								"astId": 7,
								"contract": "Day20_Struct.sol:Struct",
								"label": "owner",
								"offset": 1,
								"slot": "1",
								"type": "t_address"
							}
						],
						"numberOfBytes": "64"
					}
				}
			},
			"userdoc": {
				"kind": "user",
				"methods": {},
				"version": 1
			}
		}
	}
}