{
	"Day16_ArrayShift.sol": {
		"ArrayShift": {
			"abi": [
				{
					"inputs": [
						{
							"internalType": "uint256",
							"name": "",
							"type": "uint256"
						}
					],
					"name": "arr",
					"outputs": [
						{
							"internalType": "uint256",
							"name": "",
							"type": "uint256"
						}
					],
					"stateMutability": "view",
					"type": "function"
				},
				{
					"inputs": [],
					"name": "example",
					"outputs": [],
					"stateMutability": "nonpayable",
					"type": "function"
				},
				{
					"inputs": [
						{
							"internalType": "uint256",
							"name": "index",
							"type": "uint256"
						}
					],
					"name": "remove",
					"outputs": [],
					"stateMutability": "nonpayable",
					"type": "function"
				}
			],
			"devdoc": {
				"kind": "dev",
				"methods": {},
				"version": 1
			},
			"evm": {
				"assembly": "    /* \"Day16_ArrayShift.sol\":58:375  contract ArrayShift {... */\n  mstore(0x40, 0x80)\n  callvalue\n  dup1\n  iszero\n  tag_1\n  jumpi\n  0x00\n  dup1\n  revert\ntag_1:\n  pop\n  dataSize(sub_0)\n  dup1\n  dataOffset(sub_0)\n  0x00\n  codecopy\n  0x00\n  return\nstop\n\nsub_0: assembly {\n        /* \"Day16_ArrayShift.sol\":58:375  contract ArrayShift {... */\n      mstore(0x40, 0x80)\n      callvalue\n      dup1\n      iszero\n      tag_1\n      jumpi\n      0x00\n      dup1\n      revert\n    tag_1:\n      pop\n      jumpi(tag_2, lt(calldatasize, 0x04))\n      shr(0xe0, calldataload(0x00))\n      dup1\n      0x4cc82215\n      eq\n      tag_3\n      jumpi\n      dup1\n      0x54353f2f\n      eq\n      tag_4\n      jumpi\n      dup1\n      0x71e5ee5f\n      eq\n      tag_5\n      jumpi\n    tag_2:\n      0x00\n      dup1\n      revert\n        /* \"Day16_ArrayShift.sol\":212:373  function remove (uint index) external {... */\n    tag_3:\n      tag_6\n      0x04\n      dup1\n      calldatasize\n      sub\n      dup2\n      add\n      swap1\n      tag_7\n      swap2\n      swap1\n      tag_8\n      jump\t// in\n    tag_7:\n      tag_9\n      jump\t// in\n    tag_6:\n      stop\n        /* \"Day16_ArrayShift.sol\":108:206  function example () external {... */\n    tag_4:\n      tag_10\n      tag_11\n      jump\t// in\n    tag_10:\n      stop\n        /* \"Day16_ArrayShift.sol\":84:101  uint[] public arr */\n    tag_5:\n      tag_12\n      0x04\n      dup1\n      calldatasize\n      sub\n      dup2\n      add\n      swap1\n      tag_13\n      swap2\n      swap1\n      tag_8\n      jump\t// in\n    tag_13:\n      tag_14\n      jump\t// in\n    tag_12:\n      mload(0x40)\n      tag_15\n      swap2\n      swap1\n      tag_16\n      jump\t// in\n    tag_15:\n      mload(0x40)\n      dup1\n      swap2\n      sub\n      swap1\n      return\n        /* \"Day16_ArrayShift.sol\":212:373  function remove (uint index) external {... */\n    tag_9:\n        /* \"Day16_ArrayShift.sol\":265:271  uint i */\n      0x00\n        /* \"Day16_ArrayShift.sol\":272:277  index */\n      dup2\n        /* \"Day16_ArrayShift.sol\":265:277  uint i=index */\n      swap1\n      pop\n        /* \"Day16_ArrayShift.sol\":260:347  for (uint i=index; i <= arr.length -1; i++ ) {... */\n    tag_18:\n        /* \"Day16_ArrayShift.sol\":296:297  1 */\n      0x01\n        /* \"Day16_ArrayShift.sol\":284:287  arr */\n      0x00\n        /* \"Day16_ArrayShift.sol\":284:294  arr.length */\n      dup1\n      sload\n      swap1\n      pop\n        /* \"Day16_ArrayShift.sol\":284:297  arr.length -1 */\n      tag_21\n      swap2\n      swap1\n      tag_22\n      jump\t// in\n    tag_21:\n        /* \"Day16_ArrayShift.sol\":279:280  i */\n      dup2\n        /* \"Day16_ArrayShift.sol\":279:297  i <= arr.length -1 */\n      gt\n        /* \"Day16_ArrayShift.sol\":260:347  for (uint i=index; i <= arr.length -1; i++ ) {... */\n      tag_19\n      jumpi\n        /* \"Day16_ArrayShift.sol\":328:331  arr */\n      0x00\n        /* \"Day16_ArrayShift.sol\":334:335  1 */\n      0x01\n        /* \"Day16_ArrayShift.sol\":332:333  i */\n      dup3\n        /* \"Day16_ArrayShift.sol\":332:335  i+1 */\n      tag_23\n      swap2\n      swap1\n      tag_24\n      jump\t// in\n    tag_23:\n        /* \"Day16_ArrayShift.sol\":328:336  arr[i+1] */\n      dup2\n      sload\n      dup2\n      lt\n      tag_25\n      jumpi\n      tag_26\n      tag_27\n      jump\t// in\n    tag_26:\n    tag_25:\n      swap1\n      0x00\n      mstore\n      keccak256(0x00, 0x20)\n      add\n      sload\n        /* \"Day16_ArrayShift.sol\":319:322  arr */\n      0x00\n        /* \"Day16_ArrayShift.sol\":323:324  i */\n      dup3\n        /* \"Day16_ArrayShift.sol\":319:325  arr[i] */\n      dup2\n      sload\n      dup2\n      lt\n      tag_29\n      jumpi\n      tag_30\n      tag_27\n      jump\t// in\n    tag_30:\n    tag_29:\n      swap1\n      0x00\n      mstore\n      keccak256(0x00, 0x20)\n      add\n        /* \"Day16_ArrayShift.sol\":319:336  arr[i] = arr[i+1] */\n      dup2\n      swap1\n      sstore\n      pop\n        /* \"Day16_ArrayShift.sol\":299:302  i++ */\n      dup1\n      dup1\n      tag_32\n      swap1\n      tag_33\n      jump\t// in\n    tag_32:\n      swap2\n      pop\n      pop\n        /* \"Day16_ArrayShift.sol\":260:347  for (uint i=index; i <= arr.length -1; i++ ) {... */\n      jump(tag_18)\n    tag_19:\n      pop\n        /* \"Day16_ArrayShift.sol\":357:360  arr */\n      0x00\n        /* \"Day16_ArrayShift.sol\":357:366  arr.pop() */\n      dup1\n      sload\n      dup1\n      tag_34\n      jumpi\n      tag_35\n      tag_36\n      jump\t// in\n    tag_35:\n    tag_34:\n      0x01\n      swap1\n      sub\n      dup2\n      dup2\n      swap1\n      0x00\n      mstore\n      keccak256(0x00, 0x20)\n      add\n      0x00\n      swap1\n      sstore\n      swap1\n      sstore\n        /* \"Day16_ArrayShift.sol\":212:373  function remove (uint index) external {... */\n      pop\n      jump\t// out\n        /* \"Day16_ArrayShift.sol\":108:206  function example () external {... */\n    tag_11:\n        /* \"Day16_ArrayShift.sol\":147:160  arr = [1,2,3] */\n      mload(0x40)\n      dup1\n      0x60\n      add\n      0x40\n      mstore\n      dup1\n        /* \"Day16_ArrayShift.sol\":154:155  1 */\n      0x01\n        /* \"Day16_ArrayShift.sol\":147:160  arr = [1,2,3] */\n      0xff\n      and\n      dup2\n      mstore\n      0x20\n      add\n        /* \"Day16_ArrayShift.sol\":156:157  2 */\n      0x02\n        /* \"Day16_ArrayShift.sol\":147:160  arr = [1,2,3] */\n      0xff\n      and\n      dup2\n      mstore\n      0x20\n      add\n        /* \"Day16_ArrayShift.sol\":158:159  3 */\n      0x03\n        /* \"Day16_ArrayShift.sol\":147:160  arr = [1,2,3] */\n      0xff\n      and\n      dup2\n      mstore\n      pop\n        /* \"Day16_ArrayShift.sol\":147:150  arr */\n      0x00\n        /* \"Day16_ArrayShift.sol\":147:160  arr = [1,2,3] */\n      swap1\n      0x03\n      tag_39\n      swap3\n      swap2\n      swap1\n      tag_40\n      jump\t// in\n    tag_39:\n      pop\n        /* \"Day16_ArrayShift.sol\":177:180  arr */\n      0x00\n        /* \"Day16_ArrayShift.sol\":181:182  1 */\n      0x01\n        /* \"Day16_ArrayShift.sol\":177:183  arr[1] */\n      dup2\n      sload\n      dup2\n      lt\n      tag_41\n      jumpi\n      tag_42\n      tag_27\n      jump\t// in\n    tag_42:\n    tag_41:\n      swap1\n      0x00\n      mstore\n      keccak256(0x00, 0x20)\n      add\n        /* \"Day16_ArrayShift.sol\":170:183  delete arr[1] */\n      0x00\n      swap1\n      sstore\n        /* \"Day16_ArrayShift.sol\":108:206  function example () external {... */\n      jump\t// out\n        /* \"Day16_ArrayShift.sol\":84:101  uint[] public arr */\n    tag_14:\n      0x00\n      dup2\n      dup2\n      sload\n      dup2\n      lt\n      tag_44\n      jumpi\n      0x00\n      dup1\n      revert\n    tag_44:\n      swap1\n      0x00\n      mstore\n      keccak256(0x00, 0x20)\n      add\n      0x00\n      swap2\n      pop\n      swap1\n      pop\n      sload\n      dup2\n      jump\t// out\n    tag_40:\n      dup3\n      dup1\n      sload\n      dup3\n      dup3\n      sstore\n      swap1\n      0x00\n      mstore\n      keccak256(0x00, 0x20)\n      swap1\n      dup2\n      add\n      swap3\n      dup3\n      iszero\n      tag_46\n      jumpi\n      swap2\n      0x20\n      mul\n      dup3\n      add\n    tag_47:\n      dup3\n      dup2\n      gt\n      iszero\n      tag_48\n      jumpi\n      dup3\n      mload\n      dup3\n      swap1\n      0xff\n      and\n      swap1\n      sstore\n      swap2\n      0x20\n      add\n      swap2\n      swap1\n      0x01\n      add\n      swap1\n      jump(tag_47)\n    tag_48:\n    tag_46:\n      pop\n      swap1\n      pop\n      tag_49\n      swap2\n      swap1\n      tag_50\n      jump\t// in\n    tag_49:\n      pop\n      swap1\n      jump\t// out\n    tag_50:\n    tag_51:\n      dup1\n      dup3\n      gt\n      iszero\n      tag_52\n      jumpi\n      0x00\n      dup2\n      0x00\n      swap1\n      sstore\n      pop\n      0x01\n      add\n      jump(tag_51)\n    tag_52:\n      pop\n      swap1\n      jump\t// out\n        /* \"#utility.yul\":7:146   */\n    tag_54:\n        /* \"#utility.yul\":53:58   */\n      0x00\n        /* \"#utility.yul\":91:97   */\n      dup2\n        /* \"#utility.yul\":78:98   */\n      calldataload\n        /* \"#utility.yul\":69:98   */\n      swap1\n      pop\n        /* \"#utility.yul\":107:140   */\n      tag_56\n        /* \"#utility.yul\":134:139   */\n      dup2\n        /* \"#utility.yul\":107:140   */\n      tag_57\n      jump\t// in\n    tag_56:\n        /* \"#utility.yul\":7:146   */\n      swap3\n      swap2\n      pop\n      pop\n      jump\t// out\n        /* \"#utility.yul\":152:481   */\n    tag_8:\n        /* \"#utility.yul\":211:217   */\n      0x00\n        /* \"#utility.yul\":260:262   */\n      0x20\n        /* \"#utility.yul\":248:257   */\n      dup3\n        /* \"#utility.yul\":239:246   */\n      dup5\n        /* \"#utility.yul\":235:258   */\n      sub\n        /* \"#utility.yul\":231:263   */\n      slt\n        /* \"#utility.yul\":228:347   */\n      iszero\n      tag_59\n      jumpi\n        /* \"#utility.yul\":266:345   */\n      tag_60\n      tag_61\n      jump\t// in\n    tag_60:\n        /* \"#utility.yul\":228:347   */\n    tag_59:\n        /* \"#utility.yul\":386:387   */\n      0x00\n        /* \"#utility.yul\":411:464   */\n      tag_62\n        /* \"#utility.yul\":456:463   */\n      dup5\n        /* \"#utility.yul\":447:453   */\n      dup3\n        /* \"#utility.yul\":436:445   */\n      dup6\n        /* \"#utility.yul\":432:454   */\n      add\n        /* \"#utility.yul\":411:464   */\n      tag_54\n      jump\t// in\n    tag_62:\n        /* \"#utility.yul\":401:464   */\n      swap2\n      pop\n        /* \"#utility.yul\":357:474   */\n      pop\n        /* \"#utility.yul\":152:481   */\n      swap3\n      swap2\n      pop\n      pop\n      jump\t// out\n        /* \"#utility.yul\":487:605   */\n    tag_63:\n        /* \"#utility.yul\":574:598   */\n      tag_65\n        /* \"#utility.yul\":592:597   */\n      dup2\n        /* \"#utility.yul\":574:598   */\n      tag_66\n      jump\t// in\n    tag_65:\n        /* \"#utility.yul\":569:572   */\n      dup3\n        /* \"#utility.yul\":562:599   */\n      mstore\n        /* \"#utility.yul\":487:605   */\n      pop\n      pop\n      jump\t// out\n        /* \"#utility.yul\":611:833   */\n    tag_16:\n        /* \"#utility.yul\":704:708   */\n      0x00\n        /* \"#utility.yul\":742:744   */\n      0x20\n        /* \"#utility.yul\":731:740   */\n      dup3\n        /* \"#utility.yul\":727:745   */\n      add\n        /* \"#utility.yul\":719:745   */\n      swap1\n      pop\n        /* \"#utility.yul\":755:826   */\n      tag_68\n        /* \"#utility.yul\":823:824   */\n      0x00\n        /* \"#utility.yul\":812:821   */\n      dup4\n        /* \"#utility.yul\":808:825   */\n      add\n        /* \"#utility.yul\":799:805   */\n      dup5\n        /* \"#utility.yul\":755:826   */\n      tag_63\n      jump\t// in\n    tag_68:\n        /* \"#utility.yul\":611:833   */\n      swap3\n      swap2\n      pop\n      pop\n      jump\t// out\n        /* \"#utility.yul\":920:1225   */\n    tag_24:\n        /* \"#utility.yul\":960:963   */\n      0x00\n        /* \"#utility.yul\":979:999   */\n      tag_72\n        /* \"#utility.yul\":997:998   */\n      dup3\n        /* \"#utility.yul\":979:999   */\n      tag_66\n      jump\t// in\n    tag_72:\n        /* \"#utility.yul\":974:999   */\n      swap2\n      pop\n        /* \"#utility.yul\":1013:1033   */\n      tag_73\n        /* \"#utility.yul\":1031:1032   */\n      dup4\n        /* \"#utility.yul\":1013:1033   */\n      tag_66\n      jump\t// in\n    tag_73:\n        /* \"#utility.yul\":1008:1033   */\n      swap3\n      pop\n        /* \"#utility.yul\":1167:1168   */\n      dup3\n        /* \"#utility.yul\":1099:1165   */\n      0xffffffffffffffffffffffffffffffffffffffffffffffffffffffffffffffff\n        /* \"#utility.yul\":1095:1169   */\n      sub\n        /* \"#utility.yul\":1092:1093   */\n      dup3\n        /* \"#utility.yul\":1089:1170   */\n      gt\n        /* \"#utility.yul\":1086:1193   */\n      iszero\n      tag_74\n      jumpi\n        /* \"#utility.yul\":1173:1191   */\n      tag_75\n      tag_76\n      jump\t// in\n    tag_75:\n        /* \"#utility.yul\":1086:1193   */\n    tag_74:\n        /* \"#utility.yul\":1217:1218   */\n      dup3\n        /* \"#utility.yul\":1214:1215   */\n      dup3\n        /* \"#utility.yul\":1210:1219   */\n      add\n        /* \"#utility.yul\":1203:1219   */\n      swap1\n      pop\n        /* \"#utility.yul\":920:1225   */\n      swap3\n      swap2\n      pop\n      pop\n      jump\t// out\n        /* \"#utility.yul\":1231:1422   */\n    tag_22:\n        /* \"#utility.yul\":1271:1275   */\n      0x00\n        /* \"#utility.yul\":1291:1311   */\n      tag_78\n        /* \"#utility.yul\":1309:1310   */\n      dup3\n        /* \"#utility.yul\":1291:1311   */\n      tag_66\n      jump\t// in\n    tag_78:\n        /* \"#utility.yul\":1286:1311   */\n      swap2\n      pop\n        /* \"#utility.yul\":1325:1345   */\n      tag_79\n        /* \"#utility.yul\":1343:1344   */\n      dup4\n        /* \"#utility.yul\":1325:1345   */\n      tag_66\n      jump\t// in\n    tag_79:\n        /* \"#utility.yul\":1320:1345   */\n      swap3\n      pop\n        /* \"#utility.yul\":1364:1365   */\n      dup3\n        /* \"#utility.yul\":1361:1362   */\n      dup3\n        /* \"#utility.yul\":1358:1366   */\n      lt\n        /* \"#utility.yul\":1355:1389   */\n      iszero\n      tag_80\n      jumpi\n        /* \"#utility.yul\":1369:1387   */\n      tag_81\n      tag_76\n      jump\t// in\n    tag_81:\n        /* \"#utility.yul\":1355:1389   */\n    tag_80:\n        /* \"#utility.yul\":1414:1415   */\n      dup3\n        /* \"#utility.yul\":1411:1412   */\n      dup3\n        /* \"#utility.yul\":1407:1416   */\n      sub\n        /* \"#utility.yul\":1399:1416   */\n      swap1\n      pop\n        /* \"#utility.yul\":1231:1422   */\n      swap3\n      swap2\n      pop\n      pop\n      jump\t// out\n        /* \"#utility.yul\":1428:1505   */\n    tag_66:\n        /* \"#utility.yul\":1465:1472   */\n      0x00\n        /* \"#utility.yul\":1494:1499   */\n      dup2\n        /* \"#utility.yul\":1483:1499   */\n      swap1\n      pop\n        /* \"#utility.yul\":1428:1505   */\n      swap2\n      swap1\n      pop\n      jump\t// out\n        /* \"#utility.yul\":1511:1744   */\n    tag_33:\n        /* \"#utility.yul\":1550:1553   */\n      0x00\n        /* \"#utility.yul\":1573:1597   */\n      tag_84\n        /* \"#utility.yul\":1591:1596   */\n      dup3\n        /* \"#utility.yul\":1573:1597   */\n      tag_66\n      jump\t// in\n    tag_84:\n        /* \"#utility.yul\":1564:1597   */\n      swap2\n      pop\n        /* \"#utility.yul\":1619:1685   */\n      0xffffffffffffffffffffffffffffffffffffffffffffffffffffffffffffffff\n        /* \"#utility.yul\":1612:1617   */\n      dup3\n        /* \"#utility.yul\":1609:1686   */\n      eq\n        /* \"#utility.yul\":1606:1709   */\n      iszero\n      tag_85\n      jumpi\n        /* \"#utility.yul\":1689:1707   */\n      tag_86\n      tag_76\n      jump\t// in\n    tag_86:\n        /* \"#utility.yul\":1606:1709   */\n    tag_85:\n        /* \"#utility.yul\":1736:1737   */\n      0x01\n        /* \"#utility.yul\":1729:1734   */\n      dup3\n        /* \"#utility.yul\":1725:1738   */\n      add\n        /* \"#utility.yul\":1718:1738   */\n      swap1\n      pop\n        /* \"#utility.yul\":1511:1744   */\n      swap2\n      swap1\n      pop\n      jump\t// out\n        /* \"#utility.yul\":1750:1930   */\n    tag_76:\n        /* \"#utility.yul\":1798:1875   */\n      0x4e487b7100000000000000000000000000000000000000000000000000000000\n        /* \"#utility.yul\":1795:1796   */\n      0x00\n        /* \"#utility.yul\":1788:1876   */\n      mstore\n        /* \"#utility.yul\":1895:1899   */\n      0x11\n        /* \"#utility.yul\":1892:1893   */\n      0x04\n        /* \"#utility.yul\":1885:1900   */\n      mstore\n        /* \"#utility.yul\":1919:1923   */\n      0x24\n        /* \"#utility.yul\":1916:1917   */\n      0x00\n        /* \"#utility.yul\":1909:1924   */\n      revert\n        /* \"#utility.yul\":1936:2116   */\n    tag_36:\n        /* \"#utility.yul\":1984:2061   */\n      0x4e487b7100000000000000000000000000000000000000000000000000000000\n        /* \"#utility.yul\":1981:1982   */\n      0x00\n        /* \"#utility.yul\":1974:2062   */\n      mstore\n        /* \"#utility.yul\":2081:2085   */\n      0x31\n        /* \"#utility.yul\":2078:2079   */\n      0x04\n        /* \"#utility.yul\":2071:2086   */\n      mstore\n        /* \"#utility.yul\":2105:2109   */\n      0x24\n        /* \"#utility.yul\":2102:2103   */\n      0x00\n        /* \"#utility.yul\":2095:2110   */\n      revert\n        /* \"#utility.yul\":2122:2302   */\n    tag_27:\n        /* \"#utility.yul\":2170:2247   */\n      0x4e487b7100000000000000000000000000000000000000000000000000000000\n        /* \"#utility.yul\":2167:2168   */\n      0x00\n        /* \"#utility.yul\":2160:2248   */\n      mstore\n        /* \"#utility.yul\":2267:2271   */\n      0x32\n        /* \"#utility.yul\":2264:2265   */\n      0x04\n        /* \"#utility.yul\":2257:2272   */\n      mstore\n        /* \"#utility.yul\":2291:2295   */\n      0x24\n        /* \"#utility.yul\":2288:2289   */\n      0x00\n        /* \"#utility.yul\":2281:2296   */\n      revert\n        /* \"#utility.yul\":2431:2548   */\n    tag_61:\n        /* \"#utility.yul\":2540:2541   */\n      0x00\n        /* \"#utility.yul\":2537:2538   */\n      dup1\n        /* \"#utility.yul\":2530:2542   */\n      revert\n        /* \"#utility.yul\":2554:2676   */\n    tag_57:\n        /* \"#utility.yul\":2627:2651   */\n      tag_94\n        /* \"#utility.yul\":2645:2650   */\n      dup2\n        /* \"#utility.yul\":2627:2651   */\n      tag_66\n      jump\t// in\n    tag_94:\n        /* \"#utility.yul\":2620:2625   */\n      dup2\n        /* \"#utility.yul\":2617:2652   */\n      eq\n        /* \"#utility.yul\":2607:2670   */\n      tag_95\n      jumpi\n        /* \"#utility.yul\":2666:2667   */\n      0x00\n        /* \"#utility.yul\":2663:2664   */\n      dup1\n        /* \"#utility.yul\":2656:2668   */\n      revert\n        /* \"#utility.yul\":2607:2670   */\n    tag_95:\n        /* \"#utility.yul\":2554:2676   */\n      pop\n      jump\t// out\n\n    auxdata: 0xa264697066735822122033d74457617cc7b52052817cde5e9a1e275e9f11c8a0545248c3ad71267de76364736f6c63430008070033\n}\n",
				"bytecode": {
					"linkReferences": {},
					"object": "608060405234801561001057600080fd5b5061045e806100206000396000f3fe608060405234801561001057600080fd5b50600436106100415760003560e01c80634cc822151461004657806354353f2f1461006257806371e5ee5f1461006c575b600080fd5b610060600480360381019061005b919061024b565b61009c565b005b61006a610146565b005b6100866004803603810190610081919061024b565b6101a3565b6040516100939190610287565b60405180910390f35b60008190505b60016000805490506100b491906102f8565b811161011a5760006001826100c991906102a2565b815481106100da576100d96103dd565b5b9060005260206000200154600082815481106100f9576100f86103dd565b5b9060005260206000200181905550808061011290610336565b9150506100a2565b50600080548061012d5761012c6103ae565b5b6001900381819060005260206000200160009055905550565b6040518060600160405280600160ff168152602001600260ff168152602001600360ff16815250600090600361017d9291906101c7565b506000600181548110610193576101926103dd565b5b9060005260206000200160009055565b600081815481106101b357600080fd5b906000526020600020016000915090505481565b828054828255906000526020600020908101928215610208579160200282015b82811115610207578251829060ff169055916020019190600101906101e7565b5b5090506102159190610219565b5090565b5b8082111561023257600081600090555060010161021a565b5090565b60008135905061024581610411565b92915050565b6000602082840312156102615761026061040c565b5b600061026f84828501610236565b91505092915050565b6102818161032c565b82525050565b600060208201905061029c6000830184610278565b92915050565b60006102ad8261032c565b91506102b88361032c565b9250827fffffffffffffffffffffffffffffffffffffffffffffffffffffffffffffffff038211156102ed576102ec61037f565b5b828201905092915050565b60006103038261032c565b915061030e8361032c565b9250828210156103215761032061037f565b5b828203905092915050565b6000819050919050565b60006103418261032c565b91507fffffffffffffffffffffffffffffffffffffffffffffffffffffffffffffffff8214156103745761037361037f565b5b600182019050919050565b7f4e487b7100000000000000000000000000000000000000000000000000000000600052601160045260246000fd5b7f4e487b7100000000000000000000000000000000000000000000000000000000600052603160045260246000fd5b7f4e487b7100000000000000000000000000000000000000000000000000000000600052603260045260246000fd5b600080fd5b61041a8161032c565b811461042557600080fd5b5056fea264697066735822122033d74457617cc7b52052817cde5e9a1e275e9f11c8a0545248c3ad71267de76364736f6c63430008070033",
					"opcodes": "PUSH1 0x80 PUSH1 0x40 MSTORE CALLVALUE DUP1 ISZERO PUSH2 0x10 JUMPI PUSH1 0x0 DUP1 REVERT JUMPDEST POP PUSH2 0x45E DUP1 PUSH2 0x20 PUSH1 0x0 CODECOPY PUSH1 0x0 RETURN INVALID PUSH1 0x80 PUSH1 0x40 MSTORE CALLVALUE DUP1 ISZERO PUSH2 0x10 JUMPI PUSH1 0x0 DUP1 REVERT JUMPDEST POP PUSH1 0x4 CALLDATASIZE LT PUSH2 0x41 JUMPI PUSH1 0x0 CALLDATALOAD PUSH1 0xE0 SHR DUP1 PUSH4 0x4CC82215 EQ PUSH2 0x46 JUMPI DUP1 PUSH4 0x54353F2F EQ PUSH2 0x62 JUMPI DUP1 PUSH4 0x71E5EE5F EQ PUSH2 0x6C JUMPI JUMPDEST PUSH1 0x0 DUP1 REVERT JUMPDEST PUSH2 0x60 PUSH1 0x4 DUP1 CALLDATASIZE SUB DUP2 ADD SWAP1 PUSH2 0x5B SWAP2 SWAP1 PUSH2 0x24B JUMP JUMPDEST PUSH2 0x9C JUMP JUMPDEST STOP JUMPDEST PUSH2 0x6A PUSH2 0x146 JUMP JUMPDEST STOP JUMPDEST PUSH2 0x86 PUSH1 0x4 DUP1 CALLDATASIZE SUB DUP2 ADD SWAP1 PUSH2 0x81 SWAP2 SWAP1 PUSH2 0x24B JUMP JUMPDEST PUSH2 0x1A3 JUMP JUMPDEST PUSH1 0x40 MLOAD PUSH2 0x93 SWAP2 SWAP1 PUSH2 0x287 JUMP JUMPDEST PUSH1 0x40 MLOAD DUP1 SWAP2 SUB SWAP1 RETURN JUMPDEST PUSH1 0x0 DUP2 SWAP1 POP JUMPDEST PUSH1 0x1 PUSH1 0x0 DUP1 SLOAD SWAP1 POP PUSH2 0xB4 SWAP2 SWAP1 PUSH2 0x2F8 JUMP JUMPDEST DUP2 GT PUSH2 0x11A JUMPI PUSH1 0x0 PUSH1 0x1 DUP3 PUSH2 0xC9 SWAP2 SWAP1 PUSH2 0x2A2 JUMP JUMPDEST DUP2 SLOAD DUP2 LT PUSH2 0xDA JUMPI PUSH2 0xD9 PUSH2 0x3DD JUMP JUMPDEST JUMPDEST SWAP1 PUSH1 0x0 MSTORE PUSH1 0x20 PUSH1 0x0 KECCAK256 ADD SLOAD PUSH1 0x0 DUP3 DUP2 SLOAD DUP2 LT PUSH2 0xF9 JUMPI PUSH2 0xF8 PUSH2 0x3DD JUMP JUMPDEST JUMPDEST SWAP1 PUSH1 0x0 MSTORE PUSH1 0x20 PUSH1 0x0 KECCAK256 ADD DUP2 SWAP1 SSTORE POP DUP1 DUP1 PUSH2 0x112 SWAP1 PUSH2 0x336 JUMP JUMPDEST SWAP2 POP POP PUSH2 0xA2 JUMP JUMPDEST POP PUSH1 0x0 DUP1 SLOAD DUP1 PUSH2 0x12D JUMPI PUSH2 0x12C PUSH2 0x3AE JUMP JUMPDEST JUMPDEST PUSH1 0x1 SWAP1 SUB DUP2 DUP2 SWAP1 PUSH1 0x0 MSTORE PUSH1 0x20 PUSH1 0x0 KECCAK256 ADD PUSH1 0x0 SWAP1 SSTORE SWAP1 SSTORE POP JUMP JUMPDEST PUSH1 0x40 MLOAD DUP1 PUSH1 0x60 ADD PUSH1 0x40 MSTORE DUP1 PUSH1 0x1 PUSH1 0xFF AND DUP2 MSTORE PUSH1 0x20 ADD PUSH1 0x2 PUSH1 0xFF AND DUP2 MSTORE PUSH1 0x20 ADD PUSH1 0x3 PUSH1 0xFF AND DUP2 MSTORE POP PUSH1 0x0 SWAP1 PUSH1 0x3 PUSH2 0x17D SWAP3 SWAP2 SWAP1 PUSH2 0x1C7 JUMP JUMPDEST POP PUSH1 0x0 PUSH1 0x1 DUP2 SLOAD DUP2 LT PUSH2 0x193 JUMPI PUSH2 0x192 PUSH2 0x3DD JUMP JUMPDEST JUMPDEST SWAP1 PUSH1 0x0 MSTORE PUSH1 0x20 PUSH1 0x0 KECCAK256 ADD PUSH1 0x0 SWAP1 SSTORE JUMP JUMPDEST PUSH1 0x0 DUP2 DUP2 SLOAD DUP2 LT PUSH2 0x1B3 JUMPI PUSH1 0x0 DUP1 REVERT JUMPDEST SWAP1 PUSH1 0x0 MSTORE PUSH1 0x20 PUSH1 0x0 KECCAK256 ADD PUSH1 0x0 SWAP2 POP SWAP1 POP SLOAD DUP2 JUMP JUMPDEST DUP3 DUP1 SLOAD DUP3 DUP3 SSTORE SWAP1 PUSH1 0x0 MSTORE PUSH1 0x20 PUSH1 0x0 KECCAK256 SWAP1 DUP2 ADD SWAP3 DUP3 ISZERO PUSH2 0x208 JUMPI SWAP2 PUSH1 0x20 MUL DUP3 ADD JUMPDEST DUP3 DUP2 GT ISZERO PUSH2 0x207 JUMPI DUP3 MLOAD DUP3 SWAP1 PUSH1 0xFF AND SWAP1 SSTORE SWAP2 PUSH1 0x20 ADD SWAP2 SWAP1 PUSH1 0x1 ADD SWAP1 PUSH2 0x1E7 JUMP JUMPDEST JUMPDEST POP SWAP1 POP PUSH2 0x215 SWAP2 SWAP1 PUSH2 0x219 JUMP JUMPDEST POP SWAP1 JUMP JUMPDEST JUMPDEST DUP1 DUP3 GT ISZERO PUSH2 0x232 JUMPI PUSH1 0x0 DUP2 PUSH1 0x0 SWAP1 SSTORE POP PUSH1 0x1 ADD PUSH2 0x21A JUMP JUMPDEST POP SWAP1 JUMP JUMPDEST PUSH1 0x0 DUP2 CALLDATALOAD SWAP1 POP PUSH2 0x245 DUP2 PUSH2 0x411 JUMP JUMPDEST SWAP3 SWAP2 POP POP JUMP JUMPDEST PUSH1 0x0 PUSH1 0x20 DUP3 DUP5 SUB SLT ISZERO PUSH2 0x261 JUMPI PUSH2 0x260 PUSH2 0x40C JUMP JUMPDEST JUMPDEST PUSH1 0x0 PUSH2 0x26F DUP5 DUP3 DUP6 ADD PUSH2 0x236 JUMP JUMPDEST SWAP2 POP POP SWAP3 SWAP2 POP POP JUMP JUMPDEST PUSH2 0x281 DUP2 PUSH2 0x32C JUMP JUMPDEST DUP3 MSTORE POP POP JUMP JUMPDEST PUSH1 0x0 PUSH1 0x20 DUP3 ADD SWAP1 POP PUSH2 0x29C PUSH1 0x0 DUP4 ADD DUP5 PUSH2 0x278 JUMP JUMPDEST SWAP3 SWAP2 POP POP JUMP JUMPDEST PUSH1 0x0 PUSH2 0x2AD DUP3 PUSH2 0x32C JUMP JUMPDEST SWAP2 POP PUSH2 0x2B8 DUP4 PUSH2 0x32C JUMP JUMPDEST SWAP3 POP DUP3 PUSH32 0xFFFFFFFFFFFFFFFFFFFFFFFFFFFFFFFFFFFFFFFFFFFFFFFFFFFFFFFFFFFFFFFF SUB DUP3 GT ISZERO PUSH2 0x2ED JUMPI PUSH2 0x2EC PUSH2 0x37F JUMP JUMPDEST JUMPDEST DUP3 DUP3 ADD SWAP1 POP SWAP3 SWAP2 POP POP JUMP JUMPDEST PUSH1 0x0 PUSH2 0x303 DUP3 PUSH2 0x32C JUMP JUMPDEST SWAP2 POP PUSH2 0x30E DUP4 PUSH2 0x32C JUMP JUMPDEST SWAP3 POP DUP3 DUP3 LT ISZERO PUSH2 0x321 JUMPI PUSH2 0x320 PUSH2 0x37F JUMP JUMPDEST JUMPDEST DUP3 DUP3 SUB SWAP1 POP SWAP3 SWAP2 POP POP JUMP JUMPDEST PUSH1 0x0 DUP2 SWAP1 POP SWAP2 SWAP1 POP JUMP JUMPDEST PUSH1 0x0 PUSH2 0x341 DUP3 PUSH2 0x32C JUMP JUMPDEST SWAP2 POP PUSH32 0xFFFFFFFFFFFFFFFFFFFFFFFFFFFFFFFFFFFFFFFFFFFFFFFFFFFFFFFFFFFFFFFF DUP3 EQ ISZERO PUSH2 0x374 JUMPI PUSH2 0x373 PUSH2 0x37F JUMP JUMPDEST JUMPDEST PUSH1 0x1 DUP3 ADD SWAP1 POP SWAP2 SWAP1 POP JUMP JUMPDEST PUSH32 0x4E487B7100000000000000000000000000000000000000000000000000000000 PUSH1 0x0 MSTORE PUSH1 0x11 PUSH1 0x4 MSTORE PUSH1 0x24 PUSH1 0x0 REVERT JUMPDEST PUSH32 0x4E487B7100000000000000000000000000000000000000000000000000000000 PUSH1 0x0 MSTORE PUSH1 0x31 PUSH1 0x4 MSTORE PUSH1 0x24 PUSH1 0x0 REVERT JUMPDEST PUSH32 0x4E487B7100000000000000000000000000000000000000000000000000000000 PUSH1 0x0 MSTORE PUSH1 0x32 PUSH1 0x4 MSTORE PUSH1 0x24 PUSH1 0x0 REVERT JUMPDEST PUSH1 0x0 DUP1 REVERT JUMPDEST PUSH2 0x41A DUP2 PUSH2 0x32C JUMP JUMPDEST DUP2 EQ PUSH2 0x425 JUMPI PUSH1 0x0 DUP1 REVERT JUMPDEST POP JUMP INVALID LOG2 PUSH5 0x6970667358 0x22 SLT KECCAK256 CALLER 0xD7 DIFFICULTY JUMPI PUSH2 0x7CC7 0xB5 KECCAK256 MSTORE DUP2 PUSH29 0xDE5E9A1E275E9F11C8A0545248C3AD71267DE76364736F6C6343000807 STOP CALLER "
				},
				"gasEstimates": {
					"creation": {
						"codeDepositCost": "223600",
						"executionCost": "263",
						"totalCost": "223863"
					},
					"external": {
						"arr(uint256)": "infinite",
						"example()": "infinite",
						"remove(uint256)": "infinite"
					}
				},
				"methodIdentifiers": {
					"arr(uint256)": "71e5ee5f",
					"example()": "54353f2f",
					"remove(uint256)": "4cc82215"
				}
			},
			"storageLayout": {
				"storage": [
					{
						"astId": 4,
						"contract": "Day16_ArrayShift.sol:ArrayShift",
						"label": "arr",
						"offset": 0,
						"slot": "0",
						"type": "t_array(t_uint256)dyn_storage"
					}
				],
				"types": {
					"t_array(t_uint256)dyn_storage": {
						"base": "t_uint256",
						"encoding": "dynamic_array",
						"label": "uint256[]",
						"numberOfBytes": "32"
					},
					"t_uint256": {
						"encoding": "inplace",
						"label": "uint256",
						"numberOfBytes": "32"
					}
				}
			},
			"userdoc": {
				"kind": "user",
				"methods": {},
				"version": 1
			}
		}
	}
}