{
	"Day4_Variables.sol": {
		"Var": {
			"abi": [
				{
					"inputs": [],
					"name": "func",
					"outputs": [],
					"stateMutability": "nonpayable",
					"type": "function"
				},
				{
					"inputs": [],
					"name": "glob",
					"outputs": [
						{
							"internalType": "address",
							"name": "",
							"type": "address"
						},
						{
							"internalType": "uint256",
							"name": "",
							"type": "uint256"
						},
						{
							"internalType": "uint256",
							"name": "",
							"type": "uint256"
						}
					],
					"stateMutability": "view",
					"type": "function"
				},
				{
					"inputs": [],
					"name": "stateVariables",
					"outputs": [
						{
							"internalType": "uint256",
							"name": "",
							"type": "uint256"
						}
					],
					"stateMutability": "view",
					"type": "function"
				}
			],
			"devdoc": {
				"kind": "dev",
				"methods": {},
				"version": 1
			},
			"evm": {
				"assembly": "    /* \"Day4_Variables.sol\":267:700  contract Var {... */\n  mstore(0x40, 0x80)\n    /* \"Day4_Variables.sol\":315:318  123 */\n  0x7b\n    /* \"Day4_Variables.sol\":286:318  uint public stateVariables = 123 */\n  0x00\n  sstore\n    /* \"Day4_Variables.sol\":267:700  contract Var {... */\n  callvalue\n  dup1\n  iszero\n  tag_1\n  jumpi\n  0x00\n  dup1\n  revert\ntag_1:\n  pop\n  dataSize(sub_0)\n  dup1\n  dataOffset(sub_0)\n  0x00\n  codecopy\n  0x00\n  return\nstop\n\nsub_0: assembly {\n        /* \"Day4_Variables.sol\":267:700  contract Var {... */\n      mstore(0x40, 0x80)\n      callvalue\n      dup1\n      iszero\n      tag_1\n      jumpi\n      0x00\n      dup1\n      revert\n    tag_1:\n      pop\n      jumpi(tag_2, lt(calldatasize, 0x04))\n      shr(0xe0, calldataload(0x00))\n      dup1\n      0x53a75e25\n      eq\n      tag_3\n      jumpi\n      dup1\n      0x636053e2\n      eq\n      tag_4\n      jumpi\n      dup1\n      0xbfa814b5\n      eq\n      tag_5\n      jumpi\n    tag_2:\n      0x00\n      dup1\n      revert\n        /* \"Day4_Variables.sol\":286:318  uint public stateVariables = 123 */\n    tag_3:\n      tag_6\n      tag_7\n      jump\t// in\n    tag_6:\n      mload(0x40)\n      tag_8\n      swap2\n      swap1\n      tag_9\n      jump\t// in\n    tag_8:\n      mload(0x40)\n      dup1\n      swap2\n      sub\n      swap1\n      return\n        /* \"Day4_Variables.sol\":466:698  function glob () external view returns (address, uint, uint) {... */\n    tag_4:\n      tag_10\n      tag_11\n      jump\t// in\n    tag_10:\n      mload(0x40)\n      tag_12\n      swap4\n      swap3\n      swap2\n      swap1\n      tag_13\n      jump\t// in\n    tag_12:\n      mload(0x40)\n      dup1\n      swap2\n      sub\n      swap1\n      return\n        /* \"Day4_Variables.sol\":325:460  function func () external {... */\n    tag_5:\n      tag_14\n      tag_15\n      jump\t// in\n    tag_14:\n      stop\n        /* \"Day4_Variables.sol\":286:318  uint public stateVariables = 123 */\n    tag_7:\n      sload(0x00)\n      dup2\n      jump\t// out\n        /* \"Day4_Variables.sol\":466:698  function glob () external view returns (address, uint, uint) {... */\n    tag_11:\n        /* \"Day4_Variables.sol\":506:513  address */\n      0x00\n        /* \"Day4_Variables.sol\":515:519  uint */\n      dup1\n        /* \"Day4_Variables.sol\":521:525  uint */\n      0x00\n        /* \"Day4_Variables.sol\":537:551  address sender */\n      dup1\n        /* \"Day4_Variables.sol\":554:564  msg.sender */\n      caller\n        /* \"Day4_Variables.sol\":537:564  address sender = msg.sender */\n      swap1\n      pop\n        /* \"Day4_Variables.sol\":574:588  uint timestamp */\n      0x00\n        /* \"Day4_Variables.sol\":591:606  block.timestamp */\n      timestamp\n        /* \"Day4_Variables.sol\":574:606  uint timestamp = block.timestamp */\n      swap1\n      pop\n        /* \"Day4_Variables.sol\":616:629  uint blockNum */\n      0x00\n        /* \"Day4_Variables.sol\":632:644  block.number */\n      number\n        /* \"Day4_Variables.sol\":616:644  uint blockNum = block.number */\n      swap1\n      pop\n        /* \"Day4_Variables.sol\":663:669  sender */\n      dup3\n        /* \"Day4_Variables.sol\":671:680  timestamp */\n      dup3\n        /* \"Day4_Variables.sol\":682:690  blockNum */\n      dup3\n        /* \"Day4_Variables.sol\":655:691  return (sender, timestamp, blockNum) */\n      swap6\n      pop\n      swap6\n      pop\n      swap6\n      pop\n      pop\n      pop\n      pop\n        /* \"Day4_Variables.sol\":466:698  function glob () external view returns (address, uint, uint) {... */\n      swap1\n      swap2\n      swap3\n      jump\t// out\n        /* \"Day4_Variables.sol\":325:460  function func () external {... */\n    tag_15:\n        /* \"Day4_Variables.sol\":361:380  uint localVariables */\n      0x00\n        /* \"Day4_Variables.sol\":422:423  1 */\n      0x01\n        /* \"Day4_Variables.sol\":404:423  localVariables += 1 */\n      dup2\n      tag_18\n      swap2\n      swap1\n      tag_19\n      jump\t// in\n    tag_18:\n      swap1\n      pop\n        /* \"Day4_Variables.sol\":452:453  2 */\n      0x02\n        /* \"Day4_Variables.sol\":434:448  stateVariables */\n      0x00\n      dup1\n        /* \"Day4_Variables.sol\":434:453  stateVariables += 2 */\n      dup3\n      dup3\n      sload\n      tag_20\n      swap2\n      swap1\n      tag_19\n      jump\t// in\n    tag_20:\n      swap3\n      pop\n      pop\n      dup2\n      swap1\n      sstore\n      pop\n        /* \"Day4_Variables.sol\":351:460  {... */\n      pop\n        /* \"Day4_Variables.sol\":325:460  function func () external {... */\n      jump\t// out\n        /* \"#utility.yul\":7:125   */\n    tag_22:\n        /* \"#utility.yul\":94:118   */\n      tag_24\n        /* \"#utility.yul\":112:117   */\n      dup2\n        /* \"#utility.yul\":94:118   */\n      tag_25\n      jump\t// in\n    tag_24:\n        /* \"#utility.yul\":89:92   */\n      dup3\n        /* \"#utility.yul\":82:119   */\n      mstore\n        /* \"#utility.yul\":7:125   */\n      pop\n      pop\n      jump\t// out\n        /* \"#utility.yul\":131:249   */\n    tag_26:\n        /* \"#utility.yul\":218:242   */\n      tag_28\n        /* \"#utility.yul\":236:241   */\n      dup2\n        /* \"#utility.yul\":218:242   */\n      tag_29\n      jump\t// in\n    tag_28:\n        /* \"#utility.yul\":213:216   */\n      dup3\n        /* \"#utility.yul\":206:243   */\n      mstore\n        /* \"#utility.yul\":131:249   */\n      pop\n      pop\n      jump\t// out\n        /* \"#utility.yul\":255:697   */\n    tag_13:\n        /* \"#utility.yul\":404:408   */\n      0x00\n        /* \"#utility.yul\":442:444   */\n      0x60\n        /* \"#utility.yul\":431:440   */\n      dup3\n        /* \"#utility.yul\":427:445   */\n      add\n        /* \"#utility.yul\":419:445   */\n      swap1\n      pop\n        /* \"#utility.yul\":455:526   */\n      tag_31\n        /* \"#utility.yul\":523:524   */\n      0x00\n        /* \"#utility.yul\":512:521   */\n      dup4\n        /* \"#utility.yul\":508:525   */\n      add\n        /* \"#utility.yul\":499:505   */\n      dup7\n        /* \"#utility.yul\":455:526   */\n      tag_22\n      jump\t// in\n    tag_31:\n        /* \"#utility.yul\":536:608   */\n      tag_32\n        /* \"#utility.yul\":604:606   */\n      0x20\n        /* \"#utility.yul\":593:602   */\n      dup4\n        /* \"#utility.yul\":589:607   */\n      add\n        /* \"#utility.yul\":580:586   */\n      dup6\n        /* \"#utility.yul\":536:608   */\n      tag_26\n      jump\t// in\n    tag_32:\n        /* \"#utility.yul\":618:690   */\n      tag_33\n        /* \"#utility.yul\":686:688   */\n      0x40\n        /* \"#utility.yul\":675:684   */\n      dup4\n        /* \"#utility.yul\":671:689   */\n      add\n        /* \"#utility.yul\":662:668   */\n      dup5\n        /* \"#utility.yul\":618:690   */\n      tag_26\n      jump\t// in\n    tag_33:\n        /* \"#utility.yul\":255:697   */\n      swap5\n      swap4\n      pop\n      pop\n      pop\n      pop\n      jump\t// out\n        /* \"#utility.yul\":703:925   */\n    tag_9:\n        /* \"#utility.yul\":796:800   */\n      0x00\n        /* \"#utility.yul\":834:836   */\n      0x20\n        /* \"#utility.yul\":823:832   */\n      dup3\n        /* \"#utility.yul\":819:837   */\n      add\n        /* \"#utility.yul\":811:837   */\n      swap1\n      pop\n        /* \"#utility.yul\":847:918   */\n      tag_35\n        /* \"#utility.yul\":915:916   */\n      0x00\n        /* \"#utility.yul\":904:913   */\n      dup4\n        /* \"#utility.yul\":900:917   */\n      add\n        /* \"#utility.yul\":891:897   */\n      dup5\n        /* \"#utility.yul\":847:918   */\n      tag_26\n      jump\t// in\n    tag_35:\n        /* \"#utility.yul\":703:925   */\n      swap3\n      swap2\n      pop\n      pop\n      jump\t// out\n        /* \"#utility.yul\":931:1236   */\n    tag_19:\n        /* \"#utility.yul\":971:974   */\n      0x00\n        /* \"#utility.yul\":990:1010   */\n      tag_37\n        /* \"#utility.yul\":1008:1009   */\n      dup3\n        /* \"#utility.yul\":990:1010   */\n      tag_29\n      jump\t// in\n    tag_37:\n        /* \"#utility.yul\":985:1010   */\n      swap2\n      pop\n        /* \"#utility.yul\":1024:1044   */\n      tag_38\n        /* \"#utility.yul\":1042:1043   */\n      dup4\n        /* \"#utility.yul\":1024:1044   */\n      tag_29\n      jump\t// in\n    tag_38:\n        /* \"#utility.yul\":1019:1044   */\n      swap3\n      pop\n        /* \"#utility.yul\":1178:1179   */\n      dup3\n        /* \"#utility.yul\":1110:1176   */\n      0xffffffffffffffffffffffffffffffffffffffffffffffffffffffffffffffff\n        /* \"#utility.yul\":1106:1180   */\n      sub\n        /* \"#utility.yul\":1103:1104   */\n      dup3\n        /* \"#utility.yul\":1100:1181   */\n      gt\n        /* \"#utility.yul\":1097:1204   */\n      iszero\n      tag_39\n      jumpi\n        /* \"#utility.yul\":1184:1202   */\n      tag_40\n      tag_41\n      jump\t// in\n    tag_40:\n        /* \"#utility.yul\":1097:1204   */\n    tag_39:\n        /* \"#utility.yul\":1228:1229   */\n      dup3\n        /* \"#utility.yul\":1225:1226   */\n      dup3\n        /* \"#utility.yul\":1221:1230   */\n      add\n        /* \"#utility.yul\":1214:1230   */\n      swap1\n      pop\n        /* \"#utility.yul\":931:1236   */\n      swap3\n      swap2\n      pop\n      pop\n      jump\t// out\n        /* \"#utility.yul\":1242:1338   */\n    tag_25:\n        /* \"#utility.yul\":1279:1286   */\n      0x00\n        /* \"#utility.yul\":1308:1332   */\n      tag_43\n        /* \"#utility.yul\":1326:1331   */\n      dup3\n        /* \"#utility.yul\":1308:1332   */\n      tag_44\n      jump\t// in\n    tag_43:\n        /* \"#utility.yul\":1297:1332   */\n      swap1\n      pop\n        /* \"#utility.yul\":1242:1338   */\n      swap2\n      swap1\n      pop\n      jump\t// out\n        /* \"#utility.yul\":1344:1470   */\n    tag_44:\n        /* \"#utility.yul\":1381:1388   */\n      0x00\n        /* \"#utility.yul\":1421:1463   */\n      0xffffffffffffffffffffffffffffffffffffffff\n        /* \"#utility.yul\":1414:1419   */\n      dup3\n        /* \"#utility.yul\":1410:1464   */\n      and\n        /* \"#utility.yul\":1399:1464   */\n      swap1\n      pop\n        /* \"#utility.yul\":1344:1470   */\n      swap2\n      swap1\n      pop\n      jump\t// out\n        /* \"#utility.yul\":1476:1553   */\n    tag_29:\n        /* \"#utility.yul\":1513:1520   */\n      0x00\n        /* \"#utility.yul\":1542:1547   */\n      dup2\n        /* \"#utility.yul\":1531:1547   */\n      swap1\n      pop\n        /* \"#utility.yul\":1476:1553   */\n      swap2\n      swap1\n      pop\n      jump\t// out\n        /* \"#utility.yul\":1559:1739   */\n    tag_41:\n        /* \"#utility.yul\":1607:1684   */\n      0x4e487b7100000000000000000000000000000000000000000000000000000000\n        /* \"#utility.yul\":1604:1605   */\n      0x00\n        /* \"#utility.yul\":1597:1685   */\n      mstore\n        /* \"#utility.yul\":1704:1708   */\n      0x11\n        /* \"#utility.yul\":1701:1702   */\n      0x04\n        /* \"#utility.yul\":1694:1709   */\n      mstore\n        /* \"#utility.yul\":1728:1732   */\n      0x24\n        /* \"#utility.yul\":1725:1726   */\n      0x00\n        /* \"#utility.yul\":1718:1733   */\n      revert\n\n    auxdata: 0xa2646970667358221220b9618e989e526351143e032c009f30c0c4ef4f623bcfc7bb103576de864bc81d64736f6c63430008070033\n}\n",
				"bytecode": {
					"linkReferences": {},
					"object": "6080604052607b60005534801561001557600080fd5b5061024c806100256000396000f3fe608060405234801561001057600080fd5b50600436106100415760003560e01c806353a75e2514610046578063636053e214610064578063bfa814b514610084575b600080fd5b61004e61008e565b60405161005b919061013a565b60405180910390f35b61006c610094565b60405161007b93929190610103565b60405180910390f35b61008c6100b8565b005b60005481565b60008060008033905060004290506000439050828282955095509550505050909192565b60006001816100c79190610155565b905060026000808282546100db9190610155565b9250508190555050565b6100ee816101ab565b82525050565b6100fd816101dd565b82525050565b600060608201905061011860008301866100e5565b61012560208301856100f4565b61013260408301846100f4565b949350505050565b600060208201905061014f60008301846100f4565b92915050565b6000610160826101dd565b915061016b836101dd565b9250827fffffffffffffffffffffffffffffffffffffffffffffffffffffffffffffffff038211156101a05761019f6101e7565b5b828201905092915050565b60006101b6826101bd565b9050919050565b600073ffffffffffffffffffffffffffffffffffffffff82169050919050565b6000819050919050565b7f4e487b7100000000000000000000000000000000000000000000000000000000600052601160045260246000fdfea2646970667358221220b9618e989e526351143e032c009f30c0c4ef4f623bcfc7bb103576de864bc81d64736f6c63430008070033",
					"opcodes": "PUSH1 0x80 PUSH1 0x40 MSTORE PUSH1 0x7B PUSH1 0x0 SSTORE CALLVALUE DUP1 ISZERO PUSH2 0x15 JUMPI PUSH1 0x0 DUP1 REVERT JUMPDEST POP PUSH2 0x24C DUP1 PUSH2 0x25 PUSH1 0x0 CODECOPY PUSH1 0x0 RETURN INVALID PUSH1 0x80 PUSH1 0x40 MSTORE CALLVALUE DUP1 ISZERO PUSH2 0x10 JUMPI PUSH1 0x0 DUP1 REVERT JUMPDEST POP PUSH1 0x4 CALLDATASIZE LT PUSH2 0x41 JUMPI PUSH1 0x0 CALLDATALOAD PUSH1 0xE0 SHR DUP1 PUSH4 0x53A75E25 EQ PUSH2 0x46 JUMPI DUP1 PUSH4 0x636053E2 EQ PUSH2 0x64 JUMPI DUP1 PUSH4 0xBFA814B5 EQ PUSH2 0x84 JUMPI JUMPDEST PUSH1 0x0 DUP1 REVERT JUMPDEST PUSH2 0x4E PUSH2 0x8E JUMP JUMPDEST PUSH1 0x40 MLOAD PUSH2 0x5B SWAP2 SWAP1 PUSH2 0x13A JUMP JUMPDEST PUSH1 0x40 MLOAD DUP1 SWAP2 SUB SWAP1 RETURN JUMPDEST PUSH2 0x6C PUSH2 0x94 JUMP JUMPDEST PUSH1 0x40 MLOAD PUSH2 0x7B SWAP4 SWAP3 SWAP2 SWAP1 PUSH2 0x103 JUMP JUMPDEST PUSH1 0x40 MLOAD DUP1 SWAP2 SUB SWAP1 RETURN JUMPDEST PUSH2 0x8C PUSH2 0xB8 JUMP JUMPDEST STOP JUMPDEST PUSH1 0x0 SLOAD DUP2 JUMP JUMPDEST PUSH1 0x0 DUP1 PUSH1 0x0 DUP1 CALLER SWAP1 POP PUSH1 0x0 TIMESTAMP SWAP1 POP PUSH1 0x0 NUMBER SWAP1 POP DUP3 DUP3 DUP3 SWAP6 POP SWAP6 POP SWAP6 POP POP POP POP SWAP1 SWAP2 SWAP3 JUMP JUMPDEST PUSH1 0x0 PUSH1 0x1 DUP2 PUSH2 0xC7 SWAP2 SWAP1 PUSH2 0x155 JUMP JUMPDEST SWAP1 POP PUSH1 0x2 PUSH1 0x0 DUP1 DUP3 DUP3 SLOAD PUSH2 0xDB SWAP2 SWAP1 PUSH2 0x155 JUMP JUMPDEST SWAP3 POP POP DUP2 SWAP1 SSTORE POP POP JUMP JUMPDEST PUSH2 0xEE DUP2 PUSH2 0x1AB JUMP JUMPDEST DUP3 MSTORE POP POP JUMP JUMPDEST PUSH2 0xFD DUP2 PUSH2 0x1DD JUMP JUMPDEST DUP3 MSTORE POP POP JUMP JUMPDEST PUSH1 0x0 PUSH1 0x60 DUP3 ADD SWAP1 POP PUSH2 0x118 PUSH1 0x0 DUP4 ADD DUP7 PUSH2 0xE5 JUMP JUMPDEST PUSH2 0x125 PUSH1 0x20 DUP4 ADD DUP6 PUSH2 0xF4 JUMP JUMPDEST PUSH2 0x132 PUSH1 0x40 DUP4 ADD DUP5 PUSH2 0xF4 JUMP JUMPDEST SWAP5 SWAP4 POP POP POP POP JUMP JUMPDEST PUSH1 0x0 PUSH1 0x20 DUP3 ADD SWAP1 POP PUSH2 0x14F PUSH1 0x0 DUP4 ADD DUP5 PUSH2 0xF4 JUMP JUMPDEST SWAP3 SWAP2 POP POP JUMP JUMPDEST PUSH1 0x0 PUSH2 0x160 DUP3 PUSH2 0x1DD JUMP JUMPDEST SWAP2 POP PUSH2 0x16B DUP4 PUSH2 0x1DD JUMP JUMPDEST SWAP3 POP DUP3 PUSH32 0xFFFFFFFFFFFFFFFFFFFFFFFFFFFFFFFFFFFFFFFFFFFFFFFFFFFFFFFFFFFFFFFF SUB DUP3 GT ISZERO PUSH2 0x1A0 JUMPI PUSH2 0x19F PUSH2 0x1E7 JUMP JUMPDEST JUMPDEST DUP3 DUP3 ADD SWAP1 POP SWAP3 SWAP2 POP POP JUMP JUMPDEST PUSH1 0x0 PUSH2 0x1B6 DUP3 PUSH2 0x1BD JUMP JUMPDEST SWAP1 POP SWAP2 SWAP1 POP JUMP JUMPDEST PUSH1 0x0 PUSH20 0xFFFFFFFFFFFFFFFFFFFFFFFFFFFFFFFFFFFFFFFF DUP3 AND SWAP1 POP SWAP2 SWAP1 POP JUMP JUMPDEST PUSH1 0x0 DUP2 SWAP1 POP SWAP2 SWAP1 POP JUMP JUMPDEST PUSH32 0x4E487B7100000000000000000000000000000000000000000000000000000000 PUSH1 0x0 MSTORE PUSH1 0x11 PUSH1 0x4 MSTORE PUSH1 0x24 PUSH1 0x0 REVERT INVALID LOG2 PUSH5 0x6970667358 0x22 SLT KECCAK256 0xB9 PUSH2 0x8E98 SWAP15 MSTORE PUSH4 0x51143E03 0x2C STOP SWAP16 ADDRESS 0xC0 0xC4 0xEF 0x4F PUSH3 0x3BCFC7 0xBB LT CALLDATALOAD PUSH23 0xDE864BC81D64736F6C6343000807003300000000000000 "
				},
				"gasEstimates": {
					"creation": {
						"codeDepositCost": "117600",
						"executionCost": "22271",
						"totalCost": "139871"
					},
					"external": {
						"func()": "infinite",
						"glob()": "infinite",
						"stateVariables()": "2407"
					}
				},
				"methodIdentifiers": {
					"func()": "bfa814b5",
					"glob()": "636053e2",
					"stateVariables()": "53a75e25"
				}
			},
			"storageLayout": {
				"storage": [
					{
						"astId": 4,
						"contract": "Day4_Variables.sol:Var",
						"label": "stateVariables",
						"offset": 0,
						"slot": "0",
						"type": "t_uint256"
					}
				],
				"types": {
					"t_uint256": {
						"encoding": "inplace",
						"label": "uint256",
						"numberOfBytes": "32"
					}
				}
			},
			"userdoc": {
				"kind": "user",
				"methods": {},
				"version": 1
			}
		}
	}
}