{
	"Day53._TimeLock.sol": {
		"TestTimeLock": {
			"abi": [
				{
					"inputs": [
						{
							"internalType": "address",
							"name": "_timeLock",
							"type": "address"
						}
					],
					"stateMutability": "nonpayable",
					"type": "constructor"
				},
				{
					"inputs": [],
					"name": "test",
					"outputs": [],
					"stateMutability": "nonpayable",
					"type": "function"
				},
				{
					"inputs": [],
					"name": "timeLock",
					"outputs": [
						{
							"internalType": "address",
							"name": "",
							"type": "address"
						}
					],
					"stateMutability": "view",
					"type": "function"
				}
			],
			"devdoc": {
				"kind": "dev",
				"methods": {},
				"version": 1
			},
			"evm": {
				"assembly": "    /* \"Day53._TimeLock.sol\":4211:4486  contract TestTimeLock {... */\n  mstore(0x40, 0x80)\n    /* \"Day53._TimeLock.sol\":4269:4337  constructor(address _timeLock) {... */\n  callvalue\n  dup1\n  iszero\n  tag_1\n  jumpi\n  0x00\n  dup1\n  revert\ntag_1:\n  pop\n  mload(0x40)\n  sub(codesize, bytecodeSize)\n  dup1\n  bytecodeSize\n  dup4\n  codecopy\n  dup2\n  dup2\n  add\n  0x40\n  mstore\n  dup2\n  add\n  swap1\n  tag_2\n  swap2\n  swap1\n  tag_3\n  jump\t// in\ntag_2:\n    /* \"Day53._TimeLock.sol\":4321:4330  _timeLock */\n  dup1\n    /* \"Day53._TimeLock.sol\":4310:4318  timeLock */\n  0x00\n  dup1\n    /* \"Day53._TimeLock.sol\":4310:4330  timeLock = _timeLock */\n  0x0100\n  exp\n  dup2\n  sload\n  dup2\n  0xffffffffffffffffffffffffffffffffffffffff\n  mul\n  not\n  and\n  swap1\n  dup4\n  0xffffffffffffffffffffffffffffffffffffffff\n  and\n  mul\n  or\n  swap1\n  sstore\n  pop\n    /* \"Day53._TimeLock.sol\":4269:4337  constructor(address _timeLock) {... */\n  pop\n    /* \"Day53._TimeLock.sol\":4211:4486  contract TestTimeLock {... */\n  jump(tag_6)\n    /* \"#utility.yul\":88:205   */\ntag_8:\n    /* \"#utility.yul\":197:198   */\n  0x00\n    /* \"#utility.yul\":194:195   */\n  dup1\n    /* \"#utility.yul\":187:199   */\n  revert\n    /* \"#utility.yul\":334:460   */\ntag_10:\n    /* \"#utility.yul\":371:378   */\n  0x00\n    /* \"#utility.yul\":411:453   */\n  0xffffffffffffffffffffffffffffffffffffffff\n    /* \"#utility.yul\":404:409   */\n  dup3\n    /* \"#utility.yul\":400:454   */\n  and\n    /* \"#utility.yul\":389:454   */\n  swap1\n  pop\n    /* \"#utility.yul\":334:460   */\n  swap2\n  swap1\n  pop\n  jump\t// out\n    /* \"#utility.yul\":466:562   */\ntag_11:\n    /* \"#utility.yul\":503:510   */\n  0x00\n    /* \"#utility.yul\":532:556   */\n  tag_20\n    /* \"#utility.yul\":550:555   */\n  dup3\n    /* \"#utility.yul\":532:556   */\n  tag_10\n  jump\t// in\ntag_20:\n    /* \"#utility.yul\":521:556   */\n  swap1\n  pop\n    /* \"#utility.yul\":466:562   */\n  swap2\n  swap1\n  pop\n  jump\t// out\n    /* \"#utility.yul\":568:690   */\ntag_12:\n    /* \"#utility.yul\":641:665   */\n  tag_22\n    /* \"#utility.yul\":659:664   */\n  dup2\n    /* \"#utility.yul\":641:665   */\n  tag_11\n  jump\t// in\ntag_22:\n    /* \"#utility.yul\":634:639   */\n  dup2\n    /* \"#utility.yul\":631:666   */\n  eq\n    /* \"#utility.yul\":621:684   */\n  tag_23\n  jumpi\n    /* \"#utility.yul\":680:681   */\n  0x00\n    /* \"#utility.yul\":677:678   */\n  dup1\n    /* \"#utility.yul\":670:682   */\n  revert\n    /* \"#utility.yul\":621:684   */\ntag_23:\n    /* \"#utility.yul\":568:690   */\n  pop\n  jump\t// out\n    /* \"#utility.yul\":696:839   */\ntag_13:\n    /* \"#utility.yul\":753:758   */\n  0x00\n    /* \"#utility.yul\":784:790   */\n  dup2\n    /* \"#utility.yul\":778:791   */\n  mload\n    /* \"#utility.yul\":769:791   */\n  swap1\n  pop\n    /* \"#utility.yul\":800:833   */\n  tag_25\n    /* \"#utility.yul\":827:832   */\n  dup2\n    /* \"#utility.yul\":800:833   */\n  tag_12\n  jump\t// in\ntag_25:\n    /* \"#utility.yul\":696:839   */\n  swap3\n  swap2\n  pop\n  pop\n  jump\t// out\n    /* \"#utility.yul\":845:1196   */\ntag_3:\n    /* \"#utility.yul\":915:921   */\n  0x00\n    /* \"#utility.yul\":964:966   */\n  0x20\n    /* \"#utility.yul\":952:961   */\n  dup3\n    /* \"#utility.yul\":943:950   */\n  dup5\n    /* \"#utility.yul\":939:962   */\n  sub\n    /* \"#utility.yul\":935:967   */\n  slt\n    /* \"#utility.yul\":932:1051   */\n  iszero\n  tag_27\n  jumpi\n    /* \"#utility.yul\":970:1049   */\n  tag_28\n  tag_8\n  jump\t// in\ntag_28:\n    /* \"#utility.yul\":932:1051   */\ntag_27:\n    /* \"#utility.yul\":1090:1091   */\n  0x00\n    /* \"#utility.yul\":1115:1179   */\n  tag_29\n    /* \"#utility.yul\":1171:1178   */\n  dup5\n    /* \"#utility.yul\":1162:1168   */\n  dup3\n    /* \"#utility.yul\":1151:1160   */\n  dup6\n    /* \"#utility.yul\":1147:1169   */\n  add\n    /* \"#utility.yul\":1115:1179   */\n  tag_13\n  jump\t// in\ntag_29:\n    /* \"#utility.yul\":1105:1179   */\n  swap2\n  pop\n    /* \"#utility.yul\":1061:1189   */\n  pop\n    /* \"#utility.yul\":845:1196   */\n  swap3\n  swap2\n  pop\n  pop\n  jump\t// out\n    /* \"Day53._TimeLock.sol\":4211:4486  contract TestTimeLock {... */\ntag_6:\n  dataSize(sub_0)\n  dup1\n  dataOffset(sub_0)\n  0x00\n  codecopy\n  0x00\n  return\nstop\n\nsub_0: assembly {\n        /* \"Day53._TimeLock.sol\":4211:4486  contract TestTimeLock {... */\n      mstore(0x40, 0x80)\n      callvalue\n      dup1\n      iszero\n      tag_1\n      jumpi\n      0x00\n      dup1\n      revert\n    tag_1:\n      pop\n      jumpi(tag_2, lt(calldatasize, 0x04))\n      shr(0xe0, calldataload(0x00))\n      dup1\n      0xd085835a\n      eq\n      tag_3\n      jumpi\n      dup1\n      0xf8a8fd6d\n      eq\n      tag_4\n      jumpi\n    tag_2:\n      0x00\n      dup1\n      revert\n        /* \"Day53._TimeLock.sol\":4239:4262  address public timeLock */\n    tag_3:\n      tag_5\n      tag_6\n      jump\t// in\n    tag_5:\n      mload(0x40)\n      tag_7\n      swap2\n      swap1\n      tag_8\n      jump\t// in\n    tag_7:\n      mload(0x40)\n      dup1\n      swap2\n      sub\n      swap1\n      return\n        /* \"Day53._TimeLock.sol\":4343:4484  function test() external {... */\n    tag_4:\n      tag_9\n      tag_10\n      jump\t// in\n    tag_9:\n      stop\n        /* \"Day53._TimeLock.sol\":4239:4262  address public timeLock */\n    tag_6:\n      0x00\n      dup1\n      sload\n      swap1\n      0x0100\n      exp\n      swap1\n      div\n      0xffffffffffffffffffffffffffffffffffffffff\n      and\n      dup2\n      jump\t// out\n        /* \"Day53._TimeLock.sol\":4343:4484  function test() external {... */\n    tag_10:\n        /* \"Day53._TimeLock.sol\":4400:4408  timeLock */\n      0x00\n      dup1\n      sload\n      swap1\n      0x0100\n      exp\n      swap1\n      div\n      0xffffffffffffffffffffffffffffffffffffffff\n      and\n        /* \"Day53._TimeLock.sol\":4386:4408  msg.sender == timeLock */\n      0xffffffffffffffffffffffffffffffffffffffff\n      and\n        /* \"Day53._TimeLock.sol\":4386:4396  msg.sender */\n      caller\n        /* \"Day53._TimeLock.sol\":4386:4408  msg.sender == timeLock */\n      0xffffffffffffffffffffffffffffffffffffffff\n      and\n      eq\n        /* \"Day53._TimeLock.sol\":4378:4425  require(msg.sender == timeLock, \"not timelock\") */\n      tag_12\n      jumpi\n      mload(0x40)\n      0x08c379a000000000000000000000000000000000000000000000000000000000\n      dup2\n      mstore\n      0x04\n      add\n      tag_13\n      swap1\n      tag_14\n      jump\t// in\n    tag_13:\n      mload(0x40)\n      dup1\n      swap2\n      sub\n      swap1\n      revert\n    tag_12:\n        /* \"Day53._TimeLock.sol\":4343:4484  function test() external {... */\n      jump\t// out\n        /* \"#utility.yul\":7:133   */\n    tag_15:\n        /* \"#utility.yul\":44:51   */\n      0x00\n        /* \"#utility.yul\":84:126   */\n      0xffffffffffffffffffffffffffffffffffffffff\n        /* \"#utility.yul\":77:82   */\n      dup3\n        /* \"#utility.yul\":73:127   */\n      and\n        /* \"#utility.yul\":62:127   */\n      swap1\n      pop\n        /* \"#utility.yul\":7:133   */\n      swap2\n      swap1\n      pop\n      jump\t// out\n        /* \"#utility.yul\":139:235   */\n    tag_16:\n        /* \"#utility.yul\":176:183   */\n      0x00\n        /* \"#utility.yul\":205:229   */\n      tag_24\n        /* \"#utility.yul\":223:228   */\n      dup3\n        /* \"#utility.yul\":205:229   */\n      tag_15\n      jump\t// in\n    tag_24:\n        /* \"#utility.yul\":194:229   */\n      swap1\n      pop\n        /* \"#utility.yul\":139:235   */\n      swap2\n      swap1\n      pop\n      jump\t// out\n        /* \"#utility.yul\":241:359   */\n    tag_17:\n        /* \"#utility.yul\":328:352   */\n      tag_26\n        /* \"#utility.yul\":346:351   */\n      dup2\n        /* \"#utility.yul\":328:352   */\n      tag_16\n      jump\t// in\n    tag_26:\n        /* \"#utility.yul\":323:326   */\n      dup3\n        /* \"#utility.yul\":316:353   */\n      mstore\n        /* \"#utility.yul\":241:359   */\n      pop\n      pop\n      jump\t// out\n        /* \"#utility.yul\":365:587   */\n    tag_8:\n        /* \"#utility.yul\":458:462   */\n      0x00\n        /* \"#utility.yul\":496:498   */\n      0x20\n        /* \"#utility.yul\":485:494   */\n      dup3\n        /* \"#utility.yul\":481:499   */\n      add\n        /* \"#utility.yul\":473:499   */\n      swap1\n      pop\n        /* \"#utility.yul\":509:580   */\n      tag_28\n        /* \"#utility.yul\":577:578   */\n      0x00\n        /* \"#utility.yul\":566:575   */\n      dup4\n        /* \"#utility.yul\":562:579   */\n      add\n        /* \"#utility.yul\":553:559   */\n      dup5\n        /* \"#utility.yul\":509:580   */\n      tag_17\n      jump\t// in\n    tag_28:\n        /* \"#utility.yul\":365:587   */\n      swap3\n      swap2\n      pop\n      pop\n      jump\t// out\n        /* \"#utility.yul\":593:762   */\n    tag_18:\n        /* \"#utility.yul\":677:688   */\n      0x00\n        /* \"#utility.yul\":711:717   */\n      dup3\n        /* \"#utility.yul\":706:709   */\n      dup3\n        /* \"#utility.yul\":699:718   */\n      mstore\n        /* \"#utility.yul\":751:755   */\n      0x20\n        /* \"#utility.yul\":746:749   */\n      dup3\n        /* \"#utility.yul\":742:756   */\n      add\n        /* \"#utility.yul\":727:756   */\n      swap1\n      pop\n        /* \"#utility.yul\":593:762   */\n      swap3\n      swap2\n      pop\n      pop\n      jump\t// out\n        /* \"#utility.yul\":768:930   */\n    tag_19:\n        /* \"#utility.yul\":908:922   */\n      0x6e6f742074696d656c6f636b0000000000000000000000000000000000000000\n        /* \"#utility.yul\":904:905   */\n      0x00\n        /* \"#utility.yul\":896:902   */\n      dup3\n        /* \"#utility.yul\":892:906   */\n      add\n        /* \"#utility.yul\":885:923   */\n      mstore\n        /* \"#utility.yul\":768:930   */\n      pop\n      jump\t// out\n        /* \"#utility.yul\":936:1302   */\n    tag_20:\n        /* \"#utility.yul\":1078:1081   */\n      0x00\n        /* \"#utility.yul\":1099:1166   */\n      tag_32\n        /* \"#utility.yul\":1163:1165   */\n      0x0c\n        /* \"#utility.yul\":1158:1161   */\n      dup4\n        /* \"#utility.yul\":1099:1166   */\n      tag_18\n      jump\t// in\n    tag_32:\n        /* \"#utility.yul\":1092:1166   */\n      swap2\n      pop\n        /* \"#utility.yul\":1175:1268   */\n      tag_33\n        /* \"#utility.yul\":1264:1267   */\n      dup3\n        /* \"#utility.yul\":1175:1268   */\n      tag_19\n      jump\t// in\n    tag_33:\n        /* \"#utility.yul\":1293:1295   */\n      0x20\n        /* \"#utility.yul\":1288:1291   */\n      dup3\n        /* \"#utility.yul\":1284:1296   */\n      add\n        /* \"#utility.yul\":1277:1296   */\n      swap1\n      pop\n        /* \"#utility.yul\":936:1302   */\n      swap2\n      swap1\n      pop\n      jump\t// out\n        /* \"#utility.yul\":1308:1727   */\n    tag_14:\n        /* \"#utility.yul\":1474:1478   */\n      0x00\n        /* \"#utility.yul\":1512:1514   */\n      0x20\n        /* \"#utility.yul\":1501:1510   */\n      dup3\n        /* \"#utility.yul\":1497:1515   */\n      add\n        /* \"#utility.yul\":1489:1515   */\n      swap1\n      pop\n        /* \"#utility.yul\":1561:1570   */\n      dup2\n        /* \"#utility.yul\":1555:1559   */\n      dup2\n        /* \"#utility.yul\":1551:1571   */\n      sub\n        /* \"#utility.yul\":1547:1548   */\n      0x00\n        /* \"#utility.yul\":1536:1545   */\n      dup4\n        /* \"#utility.yul\":1532:1549   */\n      add\n        /* \"#utility.yul\":1525:1572   */\n      mstore\n        /* \"#utility.yul\":1589:1720   */\n      tag_35\n        /* \"#utility.yul\":1715:1719   */\n      dup2\n        /* \"#utility.yul\":1589:1720   */\n      tag_20\n      jump\t// in\n    tag_35:\n        /* \"#utility.yul\":1581:1720   */\n      swap1\n      pop\n        /* \"#utility.yul\":1308:1727   */\n      swap2\n      swap1\n      pop\n      jump\t// out\n\n    auxdata: 0xa2646970667358221220e562f843e0f10280e37bc7453a7597cbde9f07f91e1d376ff99c0e511092224764736f6c634300080f0033\n}\n",
				"bytecode": {
					"linkReferences": {},
					"object": "608060405234801561001057600080fd5b5060405161033d38038061033d833981810160405281019061003291906100db565b806000806101000a81548173ffffffffffffffffffffffffffffffffffffffff021916908373ffffffffffffffffffffffffffffffffffffffff16021790555050610108565b600080fd5b600073ffffffffffffffffffffffffffffffffffffffff82169050919050565b60006100a88261007d565b9050919050565b6100b88161009d565b81146100c357600080fd5b50565b6000815190506100d5816100af565b92915050565b6000602082840312156100f1576100f0610078565b5b60006100ff848285016100c6565b91505092915050565b610226806101176000396000f3fe608060405234801561001057600080fd5b50600436106100365760003560e01c8063d085835a1461003b578063f8a8fd6d14610059575b600080fd5b610043610063565b6040516100509190610158565b60405180910390f35b610061610087565b005b60008054906101000a900473ffffffffffffffffffffffffffffffffffffffff1681565b60008054906101000a900473ffffffffffffffffffffffffffffffffffffffff1673ffffffffffffffffffffffffffffffffffffffff163373ffffffffffffffffffffffffffffffffffffffff1614610115576040517f08c379a000000000000000000000000000000000000000000000000000000000815260040161010c906101d0565b60405180910390fd5b565b600073ffffffffffffffffffffffffffffffffffffffff82169050919050565b600061014282610117565b9050919050565b61015281610137565b82525050565b600060208201905061016d6000830184610149565b92915050565b600082825260208201905092915050565b7f6e6f742074696d656c6f636b0000000000000000000000000000000000000000600082015250565b60006101ba600c83610173565b91506101c582610184565b602082019050919050565b600060208201905081810360008301526101e9816101ad565b905091905056fea2646970667358221220e562f843e0f10280e37bc7453a7597cbde9f07f91e1d376ff99c0e511092224764736f6c634300080f0033",
					"opcodes": "PUSH1 0x80 PUSH1 0x40 MSTORE CALLVALUE DUP1 ISZERO PUSH2 0x10 JUMPI PUSH1 0x0 DUP1 REVERT JUMPDEST POP PUSH1 0x40 MLOAD PUSH2 0x33D CODESIZE SUB DUP1 PUSH2 0x33D DUP4 CODECOPY DUP2 DUP2 ADD PUSH1 0x40 MSTORE DUP2 ADD SWAP1 PUSH2 0x32 SWAP2 SWAP1 PUSH2 0xDB JUMP JUMPDEST DUP1 PUSH1 0x0 DUP1 PUSH2 0x100 EXP DUP2 SLOAD DUP2 PUSH20 0xFFFFFFFFFFFFFFFFFFFFFFFFFFFFFFFFFFFFFFFF MUL NOT AND SWAP1 DUP4 PUSH20 0xFFFFFFFFFFFFFFFFFFFFFFFFFFFFFFFFFFFFFFFF AND MUL OR SWAP1 SSTORE POP POP PUSH2 0x108 JUMP JUMPDEST PUSH1 0x0 DUP1 REVERT JUMPDEST PUSH1 0x0 PUSH20 0xFFFFFFFFFFFFFFFFFFFFFFFFFFFFFFFFFFFFFFFF DUP3 AND SWAP1 POP SWAP2 SWAP1 POP JUMP JUMPDEST PUSH1 0x0 PUSH2 0xA8 DUP3 PUSH2 0x7D JUMP JUMPDEST SWAP1 POP SWAP2 SWAP1 POP JUMP JUMPDEST PUSH2 0xB8 DUP2 PUSH2 0x9D JUMP JUMPDEST DUP2 EQ PUSH2 0xC3 JUMPI PUSH1 0x0 DUP1 REVERT JUMPDEST POP JUMP JUMPDEST PUSH1 0x0 DUP2 MLOAD SWAP1 POP PUSH2 0xD5 DUP2 PUSH2 0xAF JUMP JUMPDEST SWAP3 SWAP2 POP POP JUMP JUMPDEST PUSH1 0x0 PUSH1 0x20 DUP3 DUP5 SUB SLT ISZERO PUSH2 0xF1 JUMPI PUSH2 0xF0 PUSH2 0x78 JUMP JUMPDEST JUMPDEST PUSH1 0x0 PUSH2 0xFF DUP5 DUP3 DUP6 ADD PUSH2 0xC6 JUMP JUMPDEST SWAP2 POP POP SWAP3 SWAP2 POP POP JUMP JUMPDEST PUSH2 0x226 DUP1 PUSH2 0x117 PUSH1 0x0 CODECOPY PUSH1 0x0 RETURN INVALID PUSH1 0x80 PUSH1 0x40 MSTORE CALLVALUE DUP1 ISZERO PUSH2 0x10 JUMPI PUSH1 0x0 DUP1 REVERT JUMPDEST POP PUSH1 0x4 CALLDATASIZE LT PUSH2 0x36 JUMPI PUSH1 0x0 CALLDATALOAD PUSH1 0xE0 SHR DUP1 PUSH4 0xD085835A EQ PUSH2 0x3B JUMPI DUP1 PUSH4 0xF8A8FD6D EQ PUSH2 0x59 JUMPI JUMPDEST PUSH1 0x0 DUP1 REVERT JUMPDEST PUSH2 0x43 PUSH2 0x63 JUMP JUMPDEST PUSH1 0x40 MLOAD PUSH2 0x50 SWAP2 SWAP1 PUSH2 0x158 JUMP JUMPDEST PUSH1 0x40 MLOAD DUP1 SWAP2 SUB SWAP1 RETURN JUMPDEST PUSH2 0x61 PUSH2 0x87 JUMP JUMPDEST STOP JUMPDEST PUSH1 0x0 DUP1 SLOAD SWAP1 PUSH2 0x100 EXP SWAP1 DIV PUSH20 0xFFFFFFFFFFFFFFFFFFFFFFFFFFFFFFFFFFFFFFFF AND DUP2 JUMP JUMPDEST PUSH1 0x0 DUP1 SLOAD SWAP1 PUSH2 0x100 EXP SWAP1 DIV PUSH20 0xFFFFFFFFFFFFFFFFFFFFFFFFFFFFFFFFFFFFFFFF AND PUSH20 0xFFFFFFFFFFFFFFFFFFFFFFFFFFFFFFFFFFFFFFFF AND CALLER PUSH20 0xFFFFFFFFFFFFFFFFFFFFFFFFFFFFFFFFFFFFFFFF AND EQ PUSH2 0x115 JUMPI PUSH1 0x40 MLOAD PUSH32 0x8C379A000000000000000000000000000000000000000000000000000000000 DUP2 MSTORE PUSH1 0x4 ADD PUSH2 0x10C SWAP1 PUSH2 0x1D0 JUMP JUMPDEST PUSH1 0x40 MLOAD DUP1 SWAP2 SUB SWAP1 REVERT JUMPDEST JUMP JUMPDEST PUSH1 0x0 PUSH20 0xFFFFFFFFFFFFFFFFFFFFFFFFFFFFFFFFFFFFFFFF DUP3 AND SWAP1 POP SWAP2 SWAP1 POP JUMP JUMPDEST PUSH1 0x0 PUSH2 0x142 DUP3 PUSH2 0x117 JUMP JUMPDEST SWAP1 POP SWAP2 SWAP1 POP JUMP JUMPDEST PUSH2 0x152 DUP2 PUSH2 0x137 JUMP JUMPDEST DUP3 MSTORE POP POP JUMP JUMPDEST PUSH1 0x0 PUSH1 0x20 DUP3 ADD SWAP1 POP PUSH2 0x16D PUSH1 0x0 DUP4 ADD DUP5 PUSH2 0x149 JUMP JUMPDEST SWAP3 SWAP2 POP POP JUMP JUMPDEST PUSH1 0x0 DUP3 DUP3 MSTORE PUSH1 0x20 DUP3 ADD SWAP1 POP SWAP3 SWAP2 POP POP JUMP JUMPDEST PUSH32 0x6E6F742074696D656C6F636B0000000000000000000000000000000000000000 PUSH1 0x0 DUP3 ADD MSTORE POP JUMP JUMPDEST PUSH1 0x0 PUSH2 0x1BA PUSH1 0xC DUP4 PUSH2 0x173 JUMP JUMPDEST SWAP2 POP PUSH2 0x1C5 DUP3 PUSH2 0x184 JUMP JUMPDEST PUSH1 0x20 DUP3 ADD SWAP1 POP SWAP2 SWAP1 POP JUMP JUMPDEST PUSH1 0x0 PUSH1 0x20 DUP3 ADD SWAP1 POP DUP2 DUP2 SUB PUSH1 0x0 DUP4 ADD MSTORE PUSH2 0x1E9 DUP2 PUSH2 0x1AD JUMP JUMPDEST SWAP1 POP SWAP2 SWAP1 POP JUMP INVALID LOG2 PUSH5 0x6970667358 0x22 SLT KECCAK256 0xE5 PUSH3 0xF843E0 CALL MUL DUP1 0xE3 PUSH28 0xC7453A7597CBDE9F07F91E1D376FF99C0E511092224764736F6C6343 STOP ADDMOD 0xF STOP CALLER "
				},
				"gasEstimates": {
					"creation": {
						"codeDepositCost": "110000",
						"executionCost": "infinite",
						"totalCost": "infinite"
					},
					"external": {
						"test()": "2600",
						"timeLock()": "2489"
					}
				},
				"methodIdentifiers": {
					"test()": "f8a8fd6d",
					"timeLock()": "d085835a"
				}
			},
			"storageLayout": {
				"storage": [
					{
						"astId": 370,
						"contract": "Day53._TimeLock.sol:TestTimeLock",
						"label": "timeLock",
						"offset": 0,
						"slot": "0",
						"type": "t_address"
					}
				],
				"types": {
					"t_address": {
						"encoding": "inplace",
						"label": "address",
						"numberOfBytes": "20"
					}
				}
			},
			"userdoc": {
				"kind": "user",
				"methods": {},
				"version": 1
			}
		}
	}
}