{
	"Day22_DeployAnyContract.sol": {
		"Proxy": {
			"abi": [
				{
					"anonymous": false,
					"inputs": [
						{
							"indexed": false,
							"internalType": "address",
							"name": "",
							"type": "address"
						}
					],
					"name": "Deploy",
					"type": "event"
				},
				{
					"stateMutability": "payable",
					"type": "fallback"
				},
				{
					"inputs": [
						{
							"internalType": "bytes",
							"name": "_code",
							"type": "bytes"
						}
					],
					"name": "deploy",
					"outputs": [
						{
							"internalType": "address",
							"name": "addr",
							"type": "address"
						}
					],
					"stateMutability": "payable",
					"type": "function"
				}
			],
			"devdoc": {
				"kind": "dev",
				"methods": {},
				"version": 1
			},
			"evm": {
				"assembly": "    /* \"Day22_DeployAnyContract.sol\":480:693  contract Proxy {... */\n  mstore(0x40, 0x80)\n  callvalue\n  dup1\n  iszero\n  tag_1\n  jumpi\n  0x00\n  dup1\n  revert\ntag_1:\n  pop\n  dataSize(sub_0)\n  dup1\n  dataOffset(sub_0)\n  0x00\n  codecopy\n  0x00\n  return\nstop\n\nsub_0: assembly {\n        /* \"Day22_DeployAnyContract.sol\":480:693  contract Proxy {... */\n      mstore(0x40, 0x80)\n      jumpi(tag_1, lt(calldatasize, 0x04))\n      shr(0xe0, calldataload(0x00))\n      dup1\n      0x774360\n      eq\n      tag_3\n      jumpi\n      jump(tag_2)\n    tag_1:\n    tag_2:\n      stop\n        /* \"Day22_DeployAnyContract.sol\":566:691  function deploy (bytes memory _code) external payable returns (address addr) {... */\n    tag_3:\n      tag_6\n      0x04\n      dup1\n      calldatasize\n      sub\n      dup2\n      add\n      swap1\n      tag_7\n      swap2\n      swap1\n      tag_8\n      jump\t// in\n    tag_7:\n      tag_9\n      jump\t// in\n    tag_6:\n      mload(0x40)\n      tag_10\n      swap2\n      swap1\n      tag_11\n      jump\t// in\n    tag_10:\n      mload(0x40)\n      dup1\n      swap2\n      sub\n      swap1\n      return\n    tag_9:\n        /* \"Day22_DeployAnyContract.sol\":629:641  address addr */\n      0x00\n        /* \"Day22_DeployAnyContract.sol\":566:691  function deploy (bytes memory _code) external payable returns (address addr) {... */\n      swap2\n      swap1\n      pop\n      jump\t// out\n        /* \"#utility.yul\":7:417   */\n    tag_14:\n        /* \"#utility.yul\":84:89   */\n      0x00\n        /* \"#utility.yul\":109:174   */\n      tag_16\n        /* \"#utility.yul\":125:173   */\n      tag_17\n        /* \"#utility.yul\":166:172   */\n      dup5\n        /* \"#utility.yul\":125:173   */\n      tag_18\n      jump\t// in\n    tag_17:\n        /* \"#utility.yul\":109:174   */\n      tag_19\n      jump\t// in\n    tag_16:\n        /* \"#utility.yul\":100:174   */\n      swap1\n      pop\n        /* \"#utility.yul\":197:203   */\n      dup3\n        /* \"#utility.yul\":190:195   */\n      dup2\n        /* \"#utility.yul\":183:204   */\n      mstore\n        /* \"#utility.yul\":235:239   */\n      0x20\n        /* \"#utility.yul\":228:233   */\n      dup2\n        /* \"#utility.yul\":224:240   */\n      add\n        /* \"#utility.yul\":273:276   */\n      dup5\n        /* \"#utility.yul\":264:270   */\n      dup5\n        /* \"#utility.yul\":259:262   */\n      dup5\n        /* \"#utility.yul\":255:271   */\n      add\n        /* \"#utility.yul\":252:277   */\n      gt\n        /* \"#utility.yul\":249:361   */\n      iszero\n      tag_20\n      jumpi\n        /* \"#utility.yul\":280:359   */\n      tag_21\n      tag_22\n      jump\t// in\n    tag_21:\n        /* \"#utility.yul\":249:361   */\n    tag_20:\n        /* \"#utility.yul\":370:411   */\n      tag_23\n        /* \"#utility.yul\":404:410   */\n      dup5\n        /* \"#utility.yul\":399:402   */\n      dup3\n        /* \"#utility.yul\":394:397   */\n      dup6\n        /* \"#utility.yul\":370:411   */\n      tag_24\n      jump\t// in\n    tag_23:\n        /* \"#utility.yul\":90:417   */\n      pop\n        /* \"#utility.yul\":7:417   */\n      swap4\n      swap3\n      pop\n      pop\n      pop\n      jump\t// out\n        /* \"#utility.yul\":436:774   */\n    tag_25:\n        /* \"#utility.yul\":491:496   */\n      0x00\n        /* \"#utility.yul\":540:543   */\n      dup3\n        /* \"#utility.yul\":533:537   */\n      0x1f\n        /* \"#utility.yul\":525:531   */\n      dup4\n        /* \"#utility.yul\":521:538   */\n      add\n        /* \"#utility.yul\":517:544   */\n      slt\n        /* \"#utility.yul\":507:629   */\n      tag_27\n      jumpi\n        /* \"#utility.yul\":548:627   */\n      tag_28\n      tag_29\n      jump\t// in\n    tag_28:\n        /* \"#utility.yul\":507:629   */\n    tag_27:\n        /* \"#utility.yul\":665:671   */\n      dup2\n        /* \"#utility.yul\":652:672   */\n      calldataload\n        /* \"#utility.yul\":690:768   */\n      tag_30\n        /* \"#utility.yul\":764:767   */\n      dup5\n        /* \"#utility.yul\":756:762   */\n      dup3\n        /* \"#utility.yul\":749:753   */\n      0x20\n        /* \"#utility.yul\":741:747   */\n      dup7\n        /* \"#utility.yul\":737:754   */\n      add\n        /* \"#utility.yul\":690:768   */\n      tag_14\n      jump\t// in\n    tag_30:\n        /* \"#utility.yul\":681:768   */\n      swap2\n      pop\n        /* \"#utility.yul\":497:774   */\n      pop\n        /* \"#utility.yul\":436:774   */\n      swap3\n      swap2\n      pop\n      pop\n      jump\t// out\n        /* \"#utility.yul\":780:1287   */\n    tag_8:\n        /* \"#utility.yul\":848:854   */\n      0x00\n        /* \"#utility.yul\":897:899   */\n      0x20\n        /* \"#utility.yul\":885:894   */\n      dup3\n        /* \"#utility.yul\":876:883   */\n      dup5\n        /* \"#utility.yul\":872:895   */\n      sub\n        /* \"#utility.yul\":868:900   */\n      slt\n        /* \"#utility.yul\":865:984   */\n      iszero\n      tag_32\n      jumpi\n        /* \"#utility.yul\":903:982   */\n      tag_33\n      tag_34\n      jump\t// in\n    tag_33:\n        /* \"#utility.yul\":865:984   */\n    tag_32:\n        /* \"#utility.yul\":1051:1052   */\n      0x00\n        /* \"#utility.yul\":1040:1049   */\n      dup3\n        /* \"#utility.yul\":1036:1053   */\n      add\n        /* \"#utility.yul\":1023:1054   */\n      calldataload\n        /* \"#utility.yul\":1081:1099   */\n      0xffffffffffffffff\n        /* \"#utility.yul\":1073:1079   */\n      dup2\n        /* \"#utility.yul\":1070:1100   */\n      gt\n        /* \"#utility.yul\":1067:1184   */\n      iszero\n      tag_35\n      jumpi\n        /* \"#utility.yul\":1103:1182   */\n      tag_36\n      tag_37\n      jump\t// in\n    tag_36:\n        /* \"#utility.yul\":1067:1184   */\n    tag_35:\n        /* \"#utility.yul\":1208:1270   */\n      tag_38\n        /* \"#utility.yul\":1262:1269   */\n      dup5\n        /* \"#utility.yul\":1253:1259   */\n      dup3\n        /* \"#utility.yul\":1242:1251   */\n      dup6\n        /* \"#utility.yul\":1238:1260   */\n      add\n        /* \"#utility.yul\":1208:1270   */\n      tag_25\n      jump\t// in\n    tag_38:\n        /* \"#utility.yul\":1198:1270   */\n      swap2\n      pop\n        /* \"#utility.yul\":994:1280   */\n      pop\n        /* \"#utility.yul\":780:1287   */\n      swap3\n      swap2\n      pop\n      pop\n      jump\t// out\n        /* \"#utility.yul\":1293:1411   */\n    tag_39:\n        /* \"#utility.yul\":1380:1404   */\n      tag_41\n        /* \"#utility.yul\":1398:1403   */\n      dup2\n        /* \"#utility.yul\":1380:1404   */\n      tag_42\n      jump\t// in\n    tag_41:\n        /* \"#utility.yul\":1375:1378   */\n      dup3\n        /* \"#utility.yul\":1368:1405   */\n      mstore\n        /* \"#utility.yul\":1293:1411   */\n      pop\n      pop\n      jump\t// out\n        /* \"#utility.yul\":1417:1639   */\n    tag_11:\n        /* \"#utility.yul\":1510:1514   */\n      0x00\n        /* \"#utility.yul\":1548:1550   */\n      0x20\n        /* \"#utility.yul\":1537:1546   */\n      dup3\n        /* \"#utility.yul\":1533:1551   */\n      add\n        /* \"#utility.yul\":1525:1551   */\n      swap1\n      pop\n        /* \"#utility.yul\":1561:1632   */\n      tag_44\n        /* \"#utility.yul\":1629:1630   */\n      0x00\n        /* \"#utility.yul\":1618:1627   */\n      dup4\n        /* \"#utility.yul\":1614:1631   */\n      add\n        /* \"#utility.yul\":1605:1611   */\n      dup5\n        /* \"#utility.yul\":1561:1632   */\n      tag_39\n      jump\t// in\n    tag_44:\n        /* \"#utility.yul\":1417:1639   */\n      swap3\n      swap2\n      pop\n      pop\n      jump\t// out\n        /* \"#utility.yul\":1645:1774   */\n    tag_19:\n        /* \"#utility.yul\":1679:1685   */\n      0x00\n        /* \"#utility.yul\":1706:1726   */\n      tag_46\n      tag_47\n      jump\t// in\n    tag_46:\n        /* \"#utility.yul\":1696:1726   */\n      swap1\n      pop\n        /* \"#utility.yul\":1735:1768   */\n      tag_48\n        /* \"#utility.yul\":1763:1767   */\n      dup3\n        /* \"#utility.yul\":1755:1761   */\n      dup3\n        /* \"#utility.yul\":1735:1768   */\n      tag_49\n      jump\t// in\n    tag_48:\n        /* \"#utility.yul\":1645:1774   */\n      swap2\n      swap1\n      pop\n      jump\t// out\n        /* \"#utility.yul\":1780:1855   */\n    tag_47:\n        /* \"#utility.yul\":1813:1819   */\n      0x00\n        /* \"#utility.yul\":1846:1848   */\n      0x40\n        /* \"#utility.yul\":1840:1849   */\n      mload\n        /* \"#utility.yul\":1830:1849   */\n      swap1\n      pop\n        /* \"#utility.yul\":1780:1855   */\n      swap1\n      jump\t// out\n        /* \"#utility.yul\":1861:2168   */\n    tag_18:\n        /* \"#utility.yul\":1922:1926   */\n      0x00\n        /* \"#utility.yul\":2012:2030   */\n      0xffffffffffffffff\n        /* \"#utility.yul\":2004:2010   */\n      dup3\n        /* \"#utility.yul\":2001:2031   */\n      gt\n        /* \"#utility.yul\":1998:2054   */\n      iszero\n      tag_52\n      jumpi\n        /* \"#utility.yul\":2034:2052   */\n      tag_53\n      tag_54\n      jump\t// in\n    tag_53:\n        /* \"#utility.yul\":1998:2054   */\n    tag_52:\n        /* \"#utility.yul\":2072:2101   */\n      tag_55\n        /* \"#utility.yul\":2094:2100   */\n      dup3\n        /* \"#utility.yul\":2072:2101   */\n      tag_56\n      jump\t// in\n    tag_55:\n        /* \"#utility.yul\":2064:2101   */\n      swap1\n      pop\n        /* \"#utility.yul\":2156:2160   */\n      0x20\n        /* \"#utility.yul\":2150:2154   */\n      dup2\n        /* \"#utility.yul\":2146:2161   */\n      add\n        /* \"#utility.yul\":2138:2161   */\n      swap1\n      pop\n        /* \"#utility.yul\":1861:2168   */\n      swap2\n      swap1\n      pop\n      jump\t// out\n        /* \"#utility.yul\":2174:2270   */\n    tag_42:\n        /* \"#utility.yul\":2211:2218   */\n      0x00\n        /* \"#utility.yul\":2240:2264   */\n      tag_58\n        /* \"#utility.yul\":2258:2263   */\n      dup3\n        /* \"#utility.yul\":2240:2264   */\n      tag_59\n      jump\t// in\n    tag_58:\n        /* \"#utility.yul\":2229:2264   */\n      swap1\n      pop\n        /* \"#utility.yul\":2174:2270   */\n      swap2\n      swap1\n      pop\n      jump\t// out\n        /* \"#utility.yul\":2276:2402   */\n    tag_59:\n        /* \"#utility.yul\":2313:2320   */\n      0x00\n        /* \"#utility.yul\":2353:2395   */\n      0xffffffffffffffffffffffffffffffffffffffff\n        /* \"#utility.yul\":2346:2351   */\n      dup3\n        /* \"#utility.yul\":2342:2396   */\n      and\n        /* \"#utility.yul\":2331:2396   */\n      swap1\n      pop\n        /* \"#utility.yul\":2276:2402   */\n      swap2\n      swap1\n      pop\n      jump\t// out\n        /* \"#utility.yul\":2408:2562   */\n    tag_24:\n        /* \"#utility.yul\":2492:2498   */\n      dup3\n        /* \"#utility.yul\":2487:2490   */\n      dup2\n        /* \"#utility.yul\":2482:2485   */\n      dup4\n        /* \"#utility.yul\":2469:2499   */\n      calldatacopy\n        /* \"#utility.yul\":2554:2555   */\n      0x00\n        /* \"#utility.yul\":2545:2551   */\n      dup4\n        /* \"#utility.yul\":2540:2543   */\n      dup4\n        /* \"#utility.yul\":2536:2552   */\n      add\n        /* \"#utility.yul\":2529:2556   */\n      mstore\n        /* \"#utility.yul\":2408:2562   */\n      pop\n      pop\n      pop\n      jump\t// out\n        /* \"#utility.yul\":2568:2849   */\n    tag_49:\n        /* \"#utility.yul\":2651:2678   */\n      tag_63\n        /* \"#utility.yul\":2673:2677   */\n      dup3\n        /* \"#utility.yul\":2651:2678   */\n      tag_56\n      jump\t// in\n    tag_63:\n        /* \"#utility.yul\":2643:2649   */\n      dup2\n        /* \"#utility.yul\":2639:2679   */\n      add\n        /* \"#utility.yul\":2781:2787   */\n      dup2\n        /* \"#utility.yul\":2769:2779   */\n      dup2\n        /* \"#utility.yul\":2766:2788   */\n      lt\n        /* \"#utility.yul\":2745:2763   */\n      0xffffffffffffffff\n        /* \"#utility.yul\":2733:2743   */\n      dup3\n        /* \"#utility.yul\":2730:2764   */\n      gt\n        /* \"#utility.yul\":2727:2789   */\n      or\n        /* \"#utility.yul\":2724:2812   */\n      iszero\n      tag_64\n      jumpi\n        /* \"#utility.yul\":2792:2810   */\n      tag_65\n      tag_54\n      jump\t// in\n    tag_65:\n        /* \"#utility.yul\":2724:2812   */\n    tag_64:\n        /* \"#utility.yul\":2832:2842   */\n      dup1\n        /* \"#utility.yul\":2828:2830   */\n      0x40\n        /* \"#utility.yul\":2821:2843   */\n      mstore\n        /* \"#utility.yul\":2611:2849   */\n      pop\n        /* \"#utility.yul\":2568:2849   */\n      pop\n      pop\n      jump\t// out\n        /* \"#utility.yul\":2855:3035   */\n    tag_54:\n        /* \"#utility.yul\":2903:2980   */\n      0x4e487b7100000000000000000000000000000000000000000000000000000000\n        /* \"#utility.yul\":2900:2901   */\n      0x00\n        /* \"#utility.yul\":2893:2981   */\n      mstore\n        /* \"#utility.yul\":3000:3004   */\n      0x41\n        /* \"#utility.yul\":2997:2998   */\n      0x04\n        /* \"#utility.yul\":2990:3005   */\n      mstore\n        /* \"#utility.yul\":3024:3028   */\n      0x24\n        /* \"#utility.yul\":3021:3022   */\n      0x00\n        /* \"#utility.yul\":3014:3029   */\n      revert\n        /* \"#utility.yul\":3041:3158   */\n    tag_29:\n        /* \"#utility.yul\":3150:3151   */\n      0x00\n        /* \"#utility.yul\":3147:3148   */\n      dup1\n        /* \"#utility.yul\":3140:3152   */\n      revert\n        /* \"#utility.yul\":3164:3281   */\n    tag_22:\n        /* \"#utility.yul\":3273:3274   */\n      0x00\n        /* \"#utility.yul\":3270:3271   */\n      dup1\n        /* \"#utility.yul\":3263:3275   */\n      revert\n        /* \"#utility.yul\":3287:3404   */\n    tag_37:\n        /* \"#utility.yul\":3396:3397   */\n      0x00\n        /* \"#utility.yul\":3393:3394   */\n      dup1\n        /* \"#utility.yul\":3386:3398   */\n      revert\n        /* \"#utility.yul\":3410:3527   */\n    tag_34:\n        /* \"#utility.yul\":3519:3520   */\n      0x00\n        /* \"#utility.yul\":3516:3517   */\n      dup1\n        /* \"#utility.yul\":3509:3521   */\n      revert\n        /* \"#utility.yul\":3533:3635   */\n    tag_56:\n        /* \"#utility.yul\":3574:3580   */\n      0x00\n        /* \"#utility.yul\":3625:3627   */\n      0x1f\n        /* \"#utility.yul\":3621:3628   */\n      not\n        /* \"#utility.yul\":3616:3618   */\n      0x1f\n        /* \"#utility.yul\":3609:3614   */\n      dup4\n        /* \"#utility.yul\":3605:3619   */\n      add\n        /* \"#utility.yul\":3601:3629   */\n      and\n        /* \"#utility.yul\":3591:3629   */\n      swap1\n      pop\n        /* \"#utility.yul\":3533:3635   */\n      swap2\n      swap1\n      pop\n      jump\t// out\n\n    auxdata: 0xa26469706673582212207d80c0d6f48ee238a863be81c0cad046407c55e0425fe0c4037fd5e6aef80b3764736f6c63430008070033\n}\n",
				"bytecode": {
					"linkReferences": {},
					"object": "608060405234801561001057600080fd5b50610290806100206000396000f3fe6080604052600436106100215760003560e01c80627743601461002457610022565b5b005b61003e600480360381019061003991906100cb565b610054565b60405161004b9190610123565b60405180910390f35b6000919050565b600061006e61006984610163565b61013e565b90508281526020810184848401111561008a5761008961023a565b5b6100958482856101c6565b509392505050565b600082601f8301126100b2576100b1610235565b5b81356100c284826020860161005b565b91505092915050565b6000602082840312156100e1576100e0610244565b5b600082013567ffffffffffffffff8111156100ff576100fe61023f565b5b61010b8482850161009d565b91505092915050565b61011d81610194565b82525050565b60006020820190506101386000830184610114565b92915050565b6000610148610159565b905061015482826101d5565b919050565b6000604051905090565b600067ffffffffffffffff82111561017e5761017d610206565b5b61018782610249565b9050602081019050919050565b600061019f826101a6565b9050919050565b600073ffffffffffffffffffffffffffffffffffffffff82169050919050565b82818337600083830152505050565b6101de82610249565b810181811067ffffffffffffffff821117156101fd576101fc610206565b5b80604052505050565b7f4e487b7100000000000000000000000000000000000000000000000000000000600052604160045260246000fd5b600080fd5b600080fd5b600080fd5b600080fd5b6000601f19601f830116905091905056fea26469706673582212207d80c0d6f48ee238a863be81c0cad046407c55e0425fe0c4037fd5e6aef80b3764736f6c63430008070033",
					"opcodes": "PUSH1 0x80 PUSH1 0x40 MSTORE CALLVALUE DUP1 ISZERO PUSH2 0x10 JUMPI PUSH1 0x0 DUP1 REVERT JUMPDEST POP PUSH2 0x290 DUP1 PUSH2 0x20 PUSH1 0x0 CODECOPY PUSH1 0x0 RETURN INVALID PUSH1 0x80 PUSH1 0x40 MSTORE PUSH1 0x4 CALLDATASIZE LT PUSH2 0x21 JUMPI PUSH1 0x0 CALLDATALOAD PUSH1 0xE0 SHR DUP1 PUSH3 0x774360 EQ PUSH2 0x24 JUMPI PUSH2 0x22 JUMP JUMPDEST JUMPDEST STOP JUMPDEST PUSH2 0x3E PUSH1 0x4 DUP1 CALLDATASIZE SUB DUP2 ADD SWAP1 PUSH2 0x39 SWAP2 SWAP1 PUSH2 0xCB JUMP JUMPDEST PUSH2 0x54 JUMP JUMPDEST PUSH1 0x40 MLOAD PUSH2 0x4B SWAP2 SWAP1 PUSH2 0x123 JUMP JUMPDEST PUSH1 0x40 MLOAD DUP1 SWAP2 SUB SWAP1 RETURN JUMPDEST PUSH1 0x0 SWAP2 SWAP1 POP JUMP JUMPDEST PUSH1 0x0 PUSH2 0x6E PUSH2 0x69 DUP5 PUSH2 0x163 JUMP JUMPDEST PUSH2 0x13E JUMP JUMPDEST SWAP1 POP DUP3 DUP2 MSTORE PUSH1 0x20 DUP2 ADD DUP5 DUP5 DUP5 ADD GT ISZERO PUSH2 0x8A JUMPI PUSH2 0x89 PUSH2 0x23A JUMP JUMPDEST JUMPDEST PUSH2 0x95 DUP5 DUP3 DUP6 PUSH2 0x1C6 JUMP JUMPDEST POP SWAP4 SWAP3 POP POP POP JUMP JUMPDEST PUSH1 0x0 DUP3 PUSH1 0x1F DUP4 ADD SLT PUSH2 0xB2 JUMPI PUSH2 0xB1 PUSH2 0x235 JUMP JUMPDEST JUMPDEST DUP2 CALLDATALOAD PUSH2 0xC2 DUP5 DUP3 PUSH1 0x20 DUP7 ADD PUSH2 0x5B JUMP JUMPDEST SWAP2 POP POP SWAP3 SWAP2 POP POP JUMP JUMPDEST PUSH1 0x0 PUSH1 0x20 DUP3 DUP5 SUB SLT ISZERO PUSH2 0xE1 JUMPI PUSH2 0xE0 PUSH2 0x244 JUMP JUMPDEST JUMPDEST PUSH1 0x0 DUP3 ADD CALLDATALOAD PUSH8 0xFFFFFFFFFFFFFFFF DUP2 GT ISZERO PUSH2 0xFF JUMPI PUSH2 0xFE PUSH2 0x23F JUMP JUMPDEST JUMPDEST PUSH2 0x10B DUP5 DUP3 DUP6 ADD PUSH2 0x9D JUMP JUMPDEST SWAP2 POP POP SWAP3 SWAP2 POP POP JUMP JUMPDEST PUSH2 0x11D DUP2 PUSH2 0x194 JUMP JUMPDEST DUP3 MSTORE POP POP JUMP JUMPDEST PUSH1 0x0 PUSH1 0x20 DUP3 ADD SWAP1 POP PUSH2 0x138 PUSH1 0x0 DUP4 ADD DUP5 PUSH2 0x114 JUMP JUMPDEST SWAP3 SWAP2 POP POP JUMP JUMPDEST PUSH1 0x0 PUSH2 0x148 PUSH2 0x159 JUMP JUMPDEST SWAP1 POP PUSH2 0x154 DUP3 DUP3 PUSH2 0x1D5 JUMP JUMPDEST SWAP2 SWAP1 POP JUMP JUMPDEST PUSH1 0x0 PUSH1 0x40 MLOAD SWAP1 POP SWAP1 JUMP JUMPDEST PUSH1 0x0 PUSH8 0xFFFFFFFFFFFFFFFF DUP3 GT ISZERO PUSH2 0x17E JUMPI PUSH2 0x17D PUSH2 0x206 JUMP JUMPDEST JUMPDEST PUSH2 0x187 DUP3 PUSH2 0x249 JUMP JUMPDEST SWAP1 POP PUSH1 0x20 DUP2 ADD SWAP1 POP SWAP2 SWAP1 POP JUMP JUMPDEST PUSH1 0x0 PUSH2 0x19F DUP3 PUSH2 0x1A6 JUMP JUMPDEST SWAP1 POP SWAP2 SWAP1 POP JUMP JUMPDEST PUSH1 0x0 PUSH20 0xFFFFFFFFFFFFFFFFFFFFFFFFFFFFFFFFFFFFFFFF DUP3 AND SWAP1 POP SWAP2 SWAP1 POP JUMP JUMPDEST DUP3 DUP2 DUP4 CALLDATACOPY PUSH1 0x0 DUP4 DUP4 ADD MSTORE POP POP POP JUMP JUMPDEST PUSH2 0x1DE DUP3 PUSH2 0x249 JUMP JUMPDEST DUP2 ADD DUP2 DUP2 LT PUSH8 0xFFFFFFFFFFFFFFFF DUP3 GT OR ISZERO PUSH2 0x1FD JUMPI PUSH2 0x1FC PUSH2 0x206 JUMP JUMPDEST JUMPDEST DUP1 PUSH1 0x40 MSTORE POP POP POP JUMP JUMPDEST PUSH32 0x4E487B7100000000000000000000000000000000000000000000000000000000 PUSH1 0x0 MSTORE PUSH1 0x41 PUSH1 0x4 MSTORE PUSH1 0x24 PUSH1 0x0 REVERT JUMPDEST PUSH1 0x0 DUP1 REVERT JUMPDEST PUSH1 0x0 DUP1 REVERT JUMPDEST PUSH1 0x0 DUP1 REVERT JUMPDEST PUSH1 0x0 DUP1 REVERT JUMPDEST PUSH1 0x0 PUSH1 0x1F NOT PUSH1 0x1F DUP4 ADD AND SWAP1 POP SWAP2 SWAP1 POP JUMP INVALID LOG2 PUSH5 0x6970667358 0x22 SLT KECCAK256 PUSH30 0x80C0D6F48EE238A863BE81C0CAD046407C55E0425FE0C4037FD5E6AEF80B CALLDATACOPY PUSH5 0x736F6C6343 STOP ADDMOD SMOD STOP CALLER "
				},
				"gasEstimates": {
					"creation": {
						"codeDepositCost": "131200",
						"executionCost": "177",
						"totalCost": "131377"
					},
					"external": {
						"": "85",
						"deploy(bytes)": "infinite"
					}
				},
				"methodIdentifiers": {
					"deploy(bytes)": "00774360"
				}
			},
			"storageLayout": {
				"storage": [],
				"types": null
			},
			"userdoc": {
				"kind": "user",
				"methods": {},
				"version": 1
			}
		}
	}
}