{
	"Day41_keccak256.sol": {
		"HasFunc": {
			"abi": [
				{
					"inputs": [
						{
							"internalType": "string",
							"name": "text0",
							"type": "string"
						},
						{
							"internalType": "string",
							"name": "text1",
							"type": "string"
						}
					],
					"name": "encode",
					"outputs": [
						{
							"internalType": "bytes",
							"name": "",
							"type": "bytes"
						}
					],
					"stateMutability": "pure",
					"type": "function"
				},
				{
					"inputs": [
						{
							"internalType": "string",
							"name": "text",
							"type": "string"
						},
						{
							"internalType": "uint256",
							"name": "num",
							"type": "uint256"
						},
						{
							"internalType": "address",
							"name": "addr",
							"type": "address"
						}
					],
					"name": "hsah",
					"outputs": [
						{
							"internalType": "bytes32",
							"name": "",
							"type": "bytes32"
						}
					],
					"stateMutability": "pure",
					"type": "function"
				}
			],
			"devdoc": {
				"kind": "dev",
				"methods": {},
				"version": 1
			},
			"evm": {
				"assembly": "    /* \"Day41_keccak256.sol\":58:357  contract HasFunc {... */\n  mstore(0x40, 0x80)\n  callvalue\n  dup1\n  iszero\n  tag_1\n  jumpi\n  0x00\n  dup1\n  revert\ntag_1:\n  pop\n  dataSize(sub_0)\n  dup1\n  dataOffset(sub_0)\n  0x00\n  codecopy\n  0x00\n  return\nstop\n\nsub_0: assembly {\n        /* \"Day41_keccak256.sol\":58:357  contract HasFunc {... */\n      mstore(0x40, 0x80)\n      callvalue\n      dup1\n      iszero\n      tag_1\n      jumpi\n      0x00\n      dup1\n      revert\n    tag_1:\n      pop\n      jumpi(tag_2, lt(calldatasize, 0x04))\n      shr(0xe0, calldataload(0x00))\n      dup1\n      0x0573e536\n      eq\n      tag_3\n      jumpi\n      dup1\n      0x17fe2da2\n      eq\n      tag_4\n      jumpi\n    tag_2:\n      0x00\n      dup1\n      revert\n        /* \"Day41_keccak256.sol\":81:238  function hsah (string memory text, uint num, address addr) external pure returns (bytes32) {... */\n    tag_3:\n      tag_5\n      0x04\n      dup1\n      calldatasize\n      sub\n      dup2\n      add\n      swap1\n      tag_6\n      swap2\n      swap1\n      tag_7\n      jump\t// in\n    tag_6:\n      tag_8\n      jump\t// in\n    tag_5:\n      mload(0x40)\n      tag_9\n      swap2\n      swap1\n      tag_10\n      jump\t// in\n    tag_9:\n      mload(0x40)\n      dup1\n      swap2\n      sub\n      swap1\n      return\n        /* \"Day41_keccak256.sol\":244:355  function encode(string memory text0, string memory text1) external pure returns (bytes memory) {... */\n    tag_4:\n      tag_11\n      0x04\n      dup1\n      calldatasize\n      sub\n      dup2\n      add\n      swap1\n      tag_12\n      swap2\n      swap1\n      tag_13\n      jump\t// in\n    tag_12:\n      tag_14\n      jump\t// in\n    tag_11:\n      mload(0x40)\n      tag_15\n      swap2\n      swap1\n      tag_16\n      jump\t// in\n    tag_15:\n      mload(0x40)\n      dup1\n      swap2\n      sub\n      swap1\n      return\n        /* \"Day41_keccak256.sol\":81:238  function hsah (string memory text, uint num, address addr) external pure returns (bytes32) {... */\n    tag_8:\n        /* \"Day41_keccak256.sol\":163:170  bytes32 */\n      0x00\n        /* \"Day41_keccak256.sol\":216:220  text */\n      dup4\n        /* \"Day41_keccak256.sol\":221:224  num */\n      dup4\n        /* \"Day41_keccak256.sol\":225:229  addr */\n      dup4\n        /* \"Day41_keccak256.sol\":199:230  abi.encodePacked(text,num,addr) */\n      add(0x20, mload(0x40))\n      tag_18\n      swap4\n      swap3\n      swap2\n      swap1\n      tag_19\n      jump\t// in\n    tag_18:\n      mload(0x40)\n      0x20\n      dup2\n      dup4\n      sub\n      sub\n      dup2\n      mstore\n      swap1\n      0x40\n      mstore\n        /* \"Day41_keccak256.sol\":189:231  keccak256(abi.encodePacked(text,num,addr)) */\n      dup1\n      mload\n      swap1\n      0x20\n      add\n      keccak256\n        /* \"Day41_keccak256.sol\":182:231  return keccak256(abi.encodePacked(text,num,addr)) */\n      swap1\n      pop\n        /* \"Day41_keccak256.sol\":81:238  function hsah (string memory text, uint num, address addr) external pure returns (bytes32) {... */\n      swap4\n      swap3\n      pop\n      pop\n      pop\n      jump\t// out\n        /* \"Day41_keccak256.sol\":244:355  function encode(string memory text0, string memory text1) external pure returns (bytes memory) {... */\n    tag_14:\n        /* \"Day41_keccak256.sol\":325:337  bytes memory */\n      0x60\n        /* \"Day41_keccak256.sol\":244:355  function encode(string memory text0, string memory text1) external pure returns (bytes memory) {... */\n      swap3\n      swap2\n      pop\n      pop\n      jump\t// out\n        /* \"#utility.yul\":7:419   */\n    tag_22:\n        /* \"#utility.yul\":85:90   */\n      0x00\n        /* \"#utility.yul\":110:176   */\n      tag_24\n        /* \"#utility.yul\":126:175   */\n      tag_25\n        /* \"#utility.yul\":168:174   */\n      dup5\n        /* \"#utility.yul\":126:175   */\n      tag_26\n      jump\t// in\n    tag_25:\n        /* \"#utility.yul\":110:176   */\n      tag_27\n      jump\t// in\n    tag_24:\n        /* \"#utility.yul\":101:176   */\n      swap1\n      pop\n        /* \"#utility.yul\":199:205   */\n      dup3\n        /* \"#utility.yul\":192:197   */\n      dup2\n        /* \"#utility.yul\":185:206   */\n      mstore\n        /* \"#utility.yul\":237:241   */\n      0x20\n        /* \"#utility.yul\":230:235   */\n      dup2\n        /* \"#utility.yul\":226:242   */\n      add\n        /* \"#utility.yul\":275:278   */\n      dup5\n        /* \"#utility.yul\":266:272   */\n      dup5\n        /* \"#utility.yul\":261:264   */\n      dup5\n        /* \"#utility.yul\":257:273   */\n      add\n        /* \"#utility.yul\":254:279   */\n      gt\n        /* \"#utility.yul\":251:363   */\n      iszero\n      tag_28\n      jumpi\n        /* \"#utility.yul\":282:361   */\n      tag_29\n      tag_30\n      jump\t// in\n    tag_29:\n        /* \"#utility.yul\":251:363   */\n    tag_28:\n        /* \"#utility.yul\":372:413   */\n      tag_31\n        /* \"#utility.yul\":406:412   */\n      dup5\n        /* \"#utility.yul\":401:404   */\n      dup3\n        /* \"#utility.yul\":396:399   */\n      dup6\n        /* \"#utility.yul\":372:413   */\n      tag_32\n      jump\t// in\n    tag_31:\n        /* \"#utility.yul\":91:419   */\n      pop\n        /* \"#utility.yul\":7:419   */\n      swap4\n      swap3\n      pop\n      pop\n      pop\n      jump\t// out\n        /* \"#utility.yul\":425:564   */\n    tag_33:\n        /* \"#utility.yul\":471:476   */\n      0x00\n        /* \"#utility.yul\":509:515   */\n      dup2\n        /* \"#utility.yul\":496:516   */\n      calldataload\n        /* \"#utility.yul\":487:516   */\n      swap1\n      pop\n        /* \"#utility.yul\":525:558   */\n      tag_35\n        /* \"#utility.yul\":552:557   */\n      dup2\n        /* \"#utility.yul\":525:558   */\n      tag_36\n      jump\t// in\n    tag_35:\n        /* \"#utility.yul\":425:564   */\n      swap3\n      swap2\n      pop\n      pop\n      jump\t// out\n        /* \"#utility.yul\":584:924   */\n    tag_37:\n        /* \"#utility.yul\":640:645   */\n      0x00\n        /* \"#utility.yul\":689:692   */\n      dup3\n        /* \"#utility.yul\":682:686   */\n      0x1f\n        /* \"#utility.yul\":674:680   */\n      dup4\n        /* \"#utility.yul\":670:687   */\n      add\n        /* \"#utility.yul\":666:693   */\n      slt\n        /* \"#utility.yul\":656:778   */\n      tag_39\n      jumpi\n        /* \"#utility.yul\":697:776   */\n      tag_40\n      tag_41\n      jump\t// in\n    tag_40:\n        /* \"#utility.yul\":656:778   */\n    tag_39:\n        /* \"#utility.yul\":814:820   */\n      dup2\n        /* \"#utility.yul\":801:821   */\n      calldataload\n        /* \"#utility.yul\":839:918   */\n      tag_42\n        /* \"#utility.yul\":914:917   */\n      dup5\n        /* \"#utility.yul\":906:912   */\n      dup3\n        /* \"#utility.yul\":899:903   */\n      0x20\n        /* \"#utility.yul\":891:897   */\n      dup7\n        /* \"#utility.yul\":887:904   */\n      add\n        /* \"#utility.yul\":839:918   */\n      tag_22\n      jump\t// in\n    tag_42:\n        /* \"#utility.yul\":830:918   */\n      swap2\n      pop\n        /* \"#utility.yul\":646:924   */\n      pop\n        /* \"#utility.yul\":584:924   */\n      swap3\n      swap2\n      pop\n      pop\n      jump\t// out\n        /* \"#utility.yul\":930:1069   */\n    tag_43:\n        /* \"#utility.yul\":976:981   */\n      0x00\n        /* \"#utility.yul\":1014:1020   */\n      dup2\n        /* \"#utility.yul\":1001:1021   */\n      calldataload\n        /* \"#utility.yul\":992:1021   */\n      swap1\n      pop\n        /* \"#utility.yul\":1030:1063   */\n      tag_45\n        /* \"#utility.yul\":1057:1062   */\n      dup2\n        /* \"#utility.yul\":1030:1063   */\n      tag_46\n      jump\t// in\n    tag_45:\n        /* \"#utility.yul\":930:1069   */\n      swap3\n      swap2\n      pop\n      pop\n      jump\t// out\n        /* \"#utility.yul\":1075:1909   */\n    tag_13:\n        /* \"#utility.yul\":1163:1169   */\n      0x00\n        /* \"#utility.yul\":1171:1177   */\n      dup1\n        /* \"#utility.yul\":1220:1222   */\n      0x40\n        /* \"#utility.yul\":1208:1217   */\n      dup4\n        /* \"#utility.yul\":1199:1206   */\n      dup6\n        /* \"#utility.yul\":1195:1218   */\n      sub\n        /* \"#utility.yul\":1191:1223   */\n      slt\n        /* \"#utility.yul\":1188:1307   */\n      iszero\n      tag_48\n      jumpi\n        /* \"#utility.yul\":1226:1305   */\n      tag_49\n      tag_50\n      jump\t// in\n    tag_49:\n        /* \"#utility.yul\":1188:1307   */\n    tag_48:\n        /* \"#utility.yul\":1374:1375   */\n      0x00\n        /* \"#utility.yul\":1363:1372   */\n      dup4\n        /* \"#utility.yul\":1359:1376   */\n      add\n        /* \"#utility.yul\":1346:1377   */\n      calldataload\n        /* \"#utility.yul\":1404:1422   */\n      0xffffffffffffffff\n        /* \"#utility.yul\":1396:1402   */\n      dup2\n        /* \"#utility.yul\":1393:1423   */\n      gt\n        /* \"#utility.yul\":1390:1507   */\n      iszero\n      tag_51\n      jumpi\n        /* \"#utility.yul\":1426:1505   */\n      tag_52\n      tag_53\n      jump\t// in\n    tag_52:\n        /* \"#utility.yul\":1390:1507   */\n    tag_51:\n        /* \"#utility.yul\":1531:1594   */\n      tag_54\n        /* \"#utility.yul\":1586:1593   */\n      dup6\n        /* \"#utility.yul\":1577:1583   */\n      dup3\n        /* \"#utility.yul\":1566:1575   */\n      dup7\n        /* \"#utility.yul\":1562:1584   */\n      add\n        /* \"#utility.yul\":1531:1594   */\n      tag_37\n      jump\t// in\n    tag_54:\n        /* \"#utility.yul\":1521:1594   */\n      swap3\n      pop\n        /* \"#utility.yul\":1317:1604   */\n      pop\n        /* \"#utility.yul\":1671:1673   */\n      0x20\n        /* \"#utility.yul\":1660:1669   */\n      dup4\n        /* \"#utility.yul\":1656:1674   */\n      add\n        /* \"#utility.yul\":1643:1675   */\n      calldataload\n        /* \"#utility.yul\":1702:1720   */\n      0xffffffffffffffff\n        /* \"#utility.yul\":1694:1700   */\n      dup2\n        /* \"#utility.yul\":1691:1721   */\n      gt\n        /* \"#utility.yul\":1688:1805   */\n      iszero\n      tag_55\n      jumpi\n        /* \"#utility.yul\":1724:1803   */\n      tag_56\n      tag_53\n      jump\t// in\n    tag_56:\n        /* \"#utility.yul\":1688:1805   */\n    tag_55:\n        /* \"#utility.yul\":1829:1892   */\n      tag_57\n        /* \"#utility.yul\":1884:1891   */\n      dup6\n        /* \"#utility.yul\":1875:1881   */\n      dup3\n        /* \"#utility.yul\":1864:1873   */\n      dup7\n        /* \"#utility.yul\":1860:1882   */\n      add\n        /* \"#utility.yul\":1829:1892   */\n      tag_37\n      jump\t// in\n    tag_57:\n        /* \"#utility.yul\":1819:1892   */\n      swap2\n      pop\n        /* \"#utility.yul\":1614:1902   */\n      pop\n        /* \"#utility.yul\":1075:1909   */\n      swap3\n      pop\n      swap3\n      swap1\n      pop\n      jump\t// out\n        /* \"#utility.yul\":1915:2714   */\n    tag_7:\n        /* \"#utility.yul\":2002:2008   */\n      0x00\n        /* \"#utility.yul\":2010:2016   */\n      dup1\n        /* \"#utility.yul\":2018:2024   */\n      0x00\n        /* \"#utility.yul\":2067:2069   */\n      0x60\n        /* \"#utility.yul\":2055:2064   */\n      dup5\n        /* \"#utility.yul\":2046:2053   */\n      dup7\n        /* \"#utility.yul\":2042:2065   */\n      sub\n        /* \"#utility.yul\":2038:2070   */\n      slt\n        /* \"#utility.yul\":2035:2154   */\n      iszero\n      tag_59\n      jumpi\n        /* \"#utility.yul\":2073:2152   */\n      tag_60\n      tag_50\n      jump\t// in\n    tag_60:\n        /* \"#utility.yul\":2035:2154   */\n    tag_59:\n        /* \"#utility.yul\":2221:2222   */\n      0x00\n        /* \"#utility.yul\":2210:2219   */\n      dup5\n        /* \"#utility.yul\":2206:2223   */\n      add\n        /* \"#utility.yul\":2193:2224   */\n      calldataload\n        /* \"#utility.yul\":2251:2269   */\n      0xffffffffffffffff\n        /* \"#utility.yul\":2243:2249   */\n      dup2\n        /* \"#utility.yul\":2240:2270   */\n      gt\n        /* \"#utility.yul\":2237:2354   */\n      iszero\n      tag_61\n      jumpi\n        /* \"#utility.yul\":2273:2352   */\n      tag_62\n      tag_53\n      jump\t// in\n    tag_62:\n        /* \"#utility.yul\":2237:2354   */\n    tag_61:\n        /* \"#utility.yul\":2378:2441   */\n      tag_63\n        /* \"#utility.yul\":2433:2440   */\n      dup7\n        /* \"#utility.yul\":2424:2430   */\n      dup3\n        /* \"#utility.yul\":2413:2422   */\n      dup8\n        /* \"#utility.yul\":2409:2431   */\n      add\n        /* \"#utility.yul\":2378:2441   */\n      tag_37\n      jump\t// in\n    tag_63:\n        /* \"#utility.yul\":2368:2441   */\n      swap4\n      pop\n        /* \"#utility.yul\":2164:2451   */\n      pop\n        /* \"#utility.yul\":2490:2492   */\n      0x20\n        /* \"#utility.yul\":2516:2569   */\n      tag_64\n        /* \"#utility.yul\":2561:2568   */\n      dup7\n        /* \"#utility.yul\":2552:2558   */\n      dup3\n        /* \"#utility.yul\":2541:2550   */\n      dup8\n        /* \"#utility.yul\":2537:2559   */\n      add\n        /* \"#utility.yul\":2516:2569   */\n      tag_43\n      jump\t// in\n    tag_64:\n        /* \"#utility.yul\":2506:2569   */\n      swap3\n      pop\n        /* \"#utility.yul\":2461:2579   */\n      pop\n        /* \"#utility.yul\":2618:2620   */\n      0x40\n        /* \"#utility.yul\":2644:2697   */\n      tag_65\n        /* \"#utility.yul\":2689:2696   */\n      dup7\n        /* \"#utility.yul\":2680:2686   */\n      dup3\n        /* \"#utility.yul\":2669:2678   */\n      dup8\n        /* \"#utility.yul\":2665:2687   */\n      add\n        /* \"#utility.yul\":2644:2697   */\n      tag_33\n      jump\t// in\n    tag_65:\n        /* \"#utility.yul\":2634:2697   */\n      swap2\n      pop\n        /* \"#utility.yul\":2589:2707   */\n      pop\n        /* \"#utility.yul\":1915:2714   */\n      swap3\n      pop\n      swap3\n      pop\n      swap3\n      jump\t// out\n        /* \"#utility.yul\":2720:2877   */\n    tag_66:\n        /* \"#utility.yul\":2825:2870   */\n      tag_68\n        /* \"#utility.yul\":2845:2869   */\n      tag_69\n        /* \"#utility.yul\":2863:2868   */\n      dup3\n        /* \"#utility.yul\":2845:2869   */\n      tag_70\n      jump\t// in\n    tag_69:\n        /* \"#utility.yul\":2825:2870   */\n      tag_71\n      jump\t// in\n    tag_68:\n        /* \"#utility.yul\":2820:2823   */\n      dup3\n        /* \"#utility.yul\":2813:2871   */\n      mstore\n        /* \"#utility.yul\":2720:2877   */\n      pop\n      pop\n      jump\t// out\n        /* \"#utility.yul\":2883:3001   */\n    tag_72:\n        /* \"#utility.yul\":2970:2994   */\n      tag_74\n        /* \"#utility.yul\":2988:2993   */\n      dup2\n        /* \"#utility.yul\":2970:2994   */\n      tag_75\n      jump\t// in\n    tag_74:\n        /* \"#utility.yul\":2965:2968   */\n      dup3\n        /* \"#utility.yul\":2958:2995   */\n      mstore\n        /* \"#utility.yul\":2883:3001   */\n      pop\n      pop\n      jump\t// out\n        /* \"#utility.yul\":3007:3367   */\n    tag_76:\n        /* \"#utility.yul\":3093:3096   */\n      0x00\n        /* \"#utility.yul\":3121:3159   */\n      tag_78\n        /* \"#utility.yul\":3153:3158   */\n      dup3\n        /* \"#utility.yul\":3121:3159   */\n      tag_79\n      jump\t// in\n    tag_78:\n        /* \"#utility.yul\":3175:3245   */\n      tag_80\n        /* \"#utility.yul\":3238:3244   */\n      dup2\n        /* \"#utility.yul\":3233:3236   */\n      dup6\n        /* \"#utility.yul\":3175:3245   */\n      tag_81\n      jump\t// in\n    tag_80:\n        /* \"#utility.yul\":3168:3245   */\n      swap4\n      pop\n        /* \"#utility.yul\":3254:3306   */\n      tag_82\n        /* \"#utility.yul\":3299:3305   */\n      dup2\n        /* \"#utility.yul\":3294:3297   */\n      dup6\n        /* \"#utility.yul\":3287:3291   */\n      0x20\n        /* \"#utility.yul\":3280:3285   */\n      dup7\n        /* \"#utility.yul\":3276:3292   */\n      add\n        /* \"#utility.yul\":3254:3306   */\n      tag_83\n      jump\t// in\n    tag_82:\n        /* \"#utility.yul\":3331:3360   */\n      tag_84\n        /* \"#utility.yul\":3353:3359   */\n      dup2\n        /* \"#utility.yul\":3331:3360   */\n      tag_85\n      jump\t// in\n    tag_84:\n        /* \"#utility.yul\":3326:3329   */\n      dup5\n        /* \"#utility.yul\":3322:3361   */\n      add\n        /* \"#utility.yul\":3315:3361   */\n      swap2\n      pop\n        /* \"#utility.yul\":3097:3367   */\n      pop\n        /* \"#utility.yul\":3007:3367   */\n      swap3\n      swap2\n      pop\n      pop\n      jump\t// out\n        /* \"#utility.yul\":3373:3750   */\n    tag_86:\n        /* \"#utility.yul\":3479:3482   */\n      0x00\n        /* \"#utility.yul\":3507:3546   */\n      tag_88\n        /* \"#utility.yul\":3540:3545   */\n      dup3\n        /* \"#utility.yul\":3507:3546   */\n      tag_89\n      jump\t// in\n    tag_88:\n        /* \"#utility.yul\":3562:3651   */\n      tag_90\n        /* \"#utility.yul\":3644:3650   */\n      dup2\n        /* \"#utility.yul\":3639:3642   */\n      dup6\n        /* \"#utility.yul\":3562:3651   */\n      tag_91\n      jump\t// in\n    tag_90:\n        /* \"#utility.yul\":3555:3651   */\n      swap4\n      pop\n        /* \"#utility.yul\":3660:3712   */\n      tag_92\n        /* \"#utility.yul\":3705:3711   */\n      dup2\n        /* \"#utility.yul\":3700:3703   */\n      dup6\n        /* \"#utility.yul\":3693:3697   */\n      0x20\n        /* \"#utility.yul\":3686:3691   */\n      dup7\n        /* \"#utility.yul\":3682:3698   */\n      add\n        /* \"#utility.yul\":3660:3712   */\n      tag_83\n      jump\t// in\n    tag_92:\n        /* \"#utility.yul\":3737:3743   */\n      dup1\n        /* \"#utility.yul\":3732:3735   */\n      dup5\n        /* \"#utility.yul\":3728:3744   */\n      add\n        /* \"#utility.yul\":3721:3744   */\n      swap2\n      pop\n        /* \"#utility.yul\":3483:3750   */\n      pop\n        /* \"#utility.yul\":3373:3750   */\n      swap3\n      swap2\n      pop\n      pop\n      jump\t// out\n        /* \"#utility.yul\":3756:3913   */\n    tag_93:\n        /* \"#utility.yul\":3861:3906   */\n      tag_95\n        /* \"#utility.yul\":3881:3905   */\n      tag_96\n        /* \"#utility.yul\":3899:3904   */\n      dup3\n        /* \"#utility.yul\":3881:3905   */\n      tag_97\n      jump\t// in\n    tag_96:\n        /* \"#utility.yul\":3861:3906   */\n      tag_98\n      jump\t// in\n    tag_95:\n        /* \"#utility.yul\":3856:3859   */\n      dup3\n        /* \"#utility.yul\":3849:3907   */\n      mstore\n        /* \"#utility.yul\":3756:3913   */\n      pop\n      pop\n      jump\t// out\n        /* \"#utility.yul\":3919:4476   */\n    tag_19:\n        /* \"#utility.yul\":4107:4110   */\n      0x00\n        /* \"#utility.yul\":4129:4224   */\n      tag_100\n        /* \"#utility.yul\":4220:4223   */\n      dup3\n        /* \"#utility.yul\":4211:4217   */\n      dup7\n        /* \"#utility.yul\":4129:4224   */\n      tag_86\n      jump\t// in\n    tag_100:\n        /* \"#utility.yul\":4122:4224   */\n      swap2\n      pop\n        /* \"#utility.yul\":4234:4309   */\n      tag_101\n        /* \"#utility.yul\":4305:4308   */\n      dup3\n        /* \"#utility.yul\":4296:4302   */\n      dup6\n        /* \"#utility.yul\":4234:4309   */\n      tag_93\n      jump\t// in\n    tag_101:\n        /* \"#utility.yul\":4334:4336   */\n      0x20\n        /* \"#utility.yul\":4329:4332   */\n      dup3\n        /* \"#utility.yul\":4325:4337   */\n      add\n        /* \"#utility.yul\":4318:4337   */\n      swap2\n      pop\n        /* \"#utility.yul\":4347:4422   */\n      tag_102\n        /* \"#utility.yul\":4418:4421   */\n      dup3\n        /* \"#utility.yul\":4409:4415   */\n      dup5\n        /* \"#utility.yul\":4347:4422   */\n      tag_66\n      jump\t// in\n    tag_102:\n        /* \"#utility.yul\":4447:4449   */\n      0x14\n        /* \"#utility.yul\":4442:4445   */\n      dup3\n        /* \"#utility.yul\":4438:4450   */\n      add\n        /* \"#utility.yul\":4431:4450   */\n      swap2\n      pop\n        /* \"#utility.yul\":4467:4470   */\n      dup2\n        /* \"#utility.yul\":4460:4470   */\n      swap1\n      pop\n        /* \"#utility.yul\":3919:4476   */\n      swap5\n      swap4\n      pop\n      pop\n      pop\n      pop\n      jump\t// out\n        /* \"#utility.yul\":4482:4704   */\n    tag_10:\n        /* \"#utility.yul\":4575:4579   */\n      0x00\n        /* \"#utility.yul\":4613:4615   */\n      0x20\n        /* \"#utility.yul\":4602:4611   */\n      dup3\n        /* \"#utility.yul\":4598:4616   */\n      add\n        /* \"#utility.yul\":4590:4616   */\n      swap1\n      pop\n        /* \"#utility.yul\":4626:4697   */\n      tag_104\n        /* \"#utility.yul\":4694:4695   */\n      0x00\n        /* \"#utility.yul\":4683:4692   */\n      dup4\n        /* \"#utility.yul\":4679:4696   */\n      add\n        /* \"#utility.yul\":4670:4676   */\n      dup5\n        /* \"#utility.yul\":4626:4697   */\n      tag_72\n      jump\t// in\n    tag_104:\n        /* \"#utility.yul\":4482:4704   */\n      swap3\n      swap2\n      pop\n      pop\n      jump\t// out\n        /* \"#utility.yul\":4710:5019   */\n    tag_16:\n        /* \"#utility.yul\":4821:4825   */\n      0x00\n        /* \"#utility.yul\":4859:4861   */\n      0x20\n        /* \"#utility.yul\":4848:4857   */\n      dup3\n        /* \"#utility.yul\":4844:4862   */\n      add\n        /* \"#utility.yul\":4836:4862   */\n      swap1\n      pop\n        /* \"#utility.yul\":4908:4917   */\n      dup2\n        /* \"#utility.yul\":4902:4906   */\n      dup2\n        /* \"#utility.yul\":4898:4918   */\n      sub\n        /* \"#utility.yul\":4894:4895   */\n      0x00\n        /* \"#utility.yul\":4883:4892   */\n      dup4\n        /* \"#utility.yul\":4879:4896   */\n      add\n        /* \"#utility.yul\":4872:4919   */\n      mstore\n        /* \"#utility.yul\":4936:5012   */\n      tag_106\n        /* \"#utility.yul\":5007:5011   */\n      dup2\n        /* \"#utility.yul\":4998:5004   */\n      dup5\n        /* \"#utility.yul\":4936:5012   */\n      tag_76\n      jump\t// in\n    tag_106:\n        /* \"#utility.yul\":4928:5012   */\n      swap1\n      pop\n        /* \"#utility.yul\":4710:5019   */\n      swap3\n      swap2\n      pop\n      pop\n      jump\t// out\n        /* \"#utility.yul\":5025:5154   */\n    tag_27:\n        /* \"#utility.yul\":5059:5065   */\n      0x00\n        /* \"#utility.yul\":5086:5106   */\n      tag_108\n      tag_109\n      jump\t// in\n    tag_108:\n        /* \"#utility.yul\":5076:5106   */\n      swap1\n      pop\n        /* \"#utility.yul\":5115:5148   */\n      tag_110\n        /* \"#utility.yul\":5143:5147   */\n      dup3\n        /* \"#utility.yul\":5135:5141   */\n      dup3\n        /* \"#utility.yul\":5115:5148   */\n      tag_111\n      jump\t// in\n    tag_110:\n        /* \"#utility.yul\":5025:5154   */\n      swap2\n      swap1\n      pop\n      jump\t// out\n        /* \"#utility.yul\":5160:5235   */\n    tag_109:\n        /* \"#utility.yul\":5193:5199   */\n      0x00\n        /* \"#utility.yul\":5226:5228   */\n      0x40\n        /* \"#utility.yul\":5220:5229   */\n      mload\n        /* \"#utility.yul\":5210:5229   */\n      swap1\n      pop\n        /* \"#utility.yul\":5160:5235   */\n      swap1\n      jump\t// out\n        /* \"#utility.yul\":5241:5549   */\n    tag_26:\n        /* \"#utility.yul\":5303:5307   */\n      0x00\n        /* \"#utility.yul\":5393:5411   */\n      0xffffffffffffffff\n        /* \"#utility.yul\":5385:5391   */\n      dup3\n        /* \"#utility.yul\":5382:5412   */\n      gt\n        /* \"#utility.yul\":5379:5435   */\n      iszero\n      tag_114\n      jumpi\n        /* \"#utility.yul\":5415:5433   */\n      tag_115\n      tag_116\n      jump\t// in\n    tag_115:\n        /* \"#utility.yul\":5379:5435   */\n    tag_114:\n        /* \"#utility.yul\":5453:5482   */\n      tag_117\n        /* \"#utility.yul\":5475:5481   */\n      dup3\n        /* \"#utility.yul\":5453:5482   */\n      tag_85\n      jump\t// in\n    tag_117:\n        /* \"#utility.yul\":5445:5482   */\n      swap1\n      pop\n        /* \"#utility.yul\":5537:5541   */\n      0x20\n        /* \"#utility.yul\":5531:5535   */\n      dup2\n        /* \"#utility.yul\":5527:5542   */\n      add\n        /* \"#utility.yul\":5519:5542   */\n      swap1\n      pop\n        /* \"#utility.yul\":5241:5549   */\n      swap2\n      swap1\n      pop\n      jump\t// out\n        /* \"#utility.yul\":5555:5653   */\n    tag_79:\n        /* \"#utility.yul\":5606:5612   */\n      0x00\n        /* \"#utility.yul\":5640:5645   */\n      dup2\n        /* \"#utility.yul\":5634:5646   */\n      mload\n        /* \"#utility.yul\":5624:5646   */\n      swap1\n      pop\n        /* \"#utility.yul\":5555:5653   */\n      swap2\n      swap1\n      pop\n      jump\t// out\n        /* \"#utility.yul\":5659:5758   */\n    tag_89:\n        /* \"#utility.yul\":5711:5717   */\n      0x00\n        /* \"#utility.yul\":5745:5750   */\n      dup2\n        /* \"#utility.yul\":5739:5751   */\n      mload\n        /* \"#utility.yul\":5729:5751   */\n      swap1\n      pop\n        /* \"#utility.yul\":5659:5758   */\n      swap2\n      swap1\n      pop\n      jump\t// out\n        /* \"#utility.yul\":5764:5932   */\n    tag_81:\n        /* \"#utility.yul\":5847:5858   */\n      0x00\n        /* \"#utility.yul\":5881:5887   */\n      dup3\n        /* \"#utility.yul\":5876:5879   */\n      dup3\n        /* \"#utility.yul\":5869:5888   */\n      mstore\n        /* \"#utility.yul\":5921:5925   */\n      0x20\n        /* \"#utility.yul\":5916:5919   */\n      dup3\n        /* \"#utility.yul\":5912:5926   */\n      add\n        /* \"#utility.yul\":5897:5926   */\n      swap1\n      pop\n        /* \"#utility.yul\":5764:5932   */\n      swap3\n      swap2\n      pop\n      pop\n      jump\t// out\n        /* \"#utility.yul\":5938:6086   */\n    tag_91:\n        /* \"#utility.yul\":6040:6051   */\n      0x00\n        /* \"#utility.yul\":6077:6080   */\n      dup2\n        /* \"#utility.yul\":6062:6080   */\n      swap1\n      pop\n        /* \"#utility.yul\":5938:6086   */\n      swap3\n      swap2\n      pop\n      pop\n      jump\t// out\n        /* \"#utility.yul\":6092:6188   */\n    tag_70:\n        /* \"#utility.yul\":6129:6136   */\n      0x00\n        /* \"#utility.yul\":6158:6182   */\n      tag_123\n        /* \"#utility.yul\":6176:6181   */\n      dup3\n        /* \"#utility.yul\":6158:6182   */\n      tag_124\n      jump\t// in\n    tag_123:\n        /* \"#utility.yul\":6147:6182   */\n      swap1\n      pop\n        /* \"#utility.yul\":6092:6188   */\n      swap2\n      swap1\n      pop\n      jump\t// out\n        /* \"#utility.yul\":6194:6271   */\n    tag_75:\n        /* \"#utility.yul\":6231:6238   */\n      0x00\n        /* \"#utility.yul\":6260:6265   */\n      dup2\n        /* \"#utility.yul\":6249:6265   */\n      swap1\n      pop\n        /* \"#utility.yul\":6194:6271   */\n      swap2\n      swap1\n      pop\n      jump\t// out\n        /* \"#utility.yul\":6277:6403   */\n    tag_124:\n        /* \"#utility.yul\":6314:6321   */\n      0x00\n        /* \"#utility.yul\":6354:6396   */\n      0xffffffffffffffffffffffffffffffffffffffff\n        /* \"#utility.yul\":6347:6352   */\n      dup3\n        /* \"#utility.yul\":6343:6397   */\n      and\n        /* \"#utility.yul\":6332:6397   */\n      swap1\n      pop\n        /* \"#utility.yul\":6277:6403   */\n      swap2\n      swap1\n      pop\n      jump\t// out\n        /* \"#utility.yul\":6409:6486   */\n    tag_97:\n        /* \"#utility.yul\":6446:6453   */\n      0x00\n        /* \"#utility.yul\":6475:6480   */\n      dup2\n        /* \"#utility.yul\":6464:6480   */\n      swap1\n      pop\n        /* \"#utility.yul\":6409:6486   */\n      swap2\n      swap1\n      pop\n      jump\t// out\n        /* \"#utility.yul\":6492:6646   */\n    tag_32:\n        /* \"#utility.yul\":6576:6582   */\n      dup3\n        /* \"#utility.yul\":6571:6574   */\n      dup2\n        /* \"#utility.yul\":6566:6569   */\n      dup4\n        /* \"#utility.yul\":6553:6583   */\n      calldatacopy\n        /* \"#utility.yul\":6638:6639   */\n      0x00\n        /* \"#utility.yul\":6629:6635   */\n      dup4\n        /* \"#utility.yul\":6624:6627   */\n      dup4\n        /* \"#utility.yul\":6620:6636   */\n      add\n        /* \"#utility.yul\":6613:6640   */\n      mstore\n        /* \"#utility.yul\":6492:6646   */\n      pop\n      pop\n      pop\n      jump\t// out\n        /* \"#utility.yul\":6652:6959   */\n    tag_83:\n        /* \"#utility.yul\":6720:6721   */\n      0x00\n        /* \"#utility.yul\":6730:6843   */\n    tag_130:\n        /* \"#utility.yul\":6744:6750   */\n      dup4\n        /* \"#utility.yul\":6741:6742   */\n      dup2\n        /* \"#utility.yul\":6738:6751   */\n      lt\n        /* \"#utility.yul\":6730:6843   */\n      iszero\n      tag_132\n      jumpi\n        /* \"#utility.yul\":6829:6830   */\n      dup1\n        /* \"#utility.yul\":6824:6827   */\n      dup3\n        /* \"#utility.yul\":6820:6831   */\n      add\n        /* \"#utility.yul\":6814:6832   */\n      mload\n        /* \"#utility.yul\":6810:6811   */\n      dup2\n        /* \"#utility.yul\":6805:6808   */\n      dup5\n        /* \"#utility.yul\":6801:6812   */\n      add\n        /* \"#utility.yul\":6794:6833   */\n      mstore\n        /* \"#utility.yul\":6766:6768   */\n      0x20\n        /* \"#utility.yul\":6763:6764   */\n      dup2\n        /* \"#utility.yul\":6759:6769   */\n      add\n        /* \"#utility.yul\":6754:6769   */\n      swap1\n      pop\n        /* \"#utility.yul\":6730:6843   */\n      jump(tag_130)\n    tag_132:\n        /* \"#utility.yul\":6861:6867   */\n      dup4\n        /* \"#utility.yul\":6858:6859   */\n      dup2\n        /* \"#utility.yul\":6855:6868   */\n      gt\n        /* \"#utility.yul\":6852:6953   */\n      iszero\n      tag_133\n      jumpi\n        /* \"#utility.yul\":6941:6942   */\n      0x00\n        /* \"#utility.yul\":6932:6938   */\n      dup5\n        /* \"#utility.yul\":6927:6930   */\n      dup5\n        /* \"#utility.yul\":6923:6939   */\n      add\n        /* \"#utility.yul\":6916:6943   */\n      mstore\n        /* \"#utility.yul\":6852:6953   */\n    tag_133:\n        /* \"#utility.yul\":6701:6959   */\n      pop\n        /* \"#utility.yul\":6652:6959   */\n      pop\n      pop\n      pop\n      jump\t// out\n        /* \"#utility.yul\":6965:7246   */\n    tag_111:\n        /* \"#utility.yul\":7048:7075   */\n      tag_135\n        /* \"#utility.yul\":7070:7074   */\n      dup3\n        /* \"#utility.yul\":7048:7075   */\n      tag_85\n      jump\t// in\n    tag_135:\n        /* \"#utility.yul\":7040:7046   */\n      dup2\n        /* \"#utility.yul\":7036:7076   */\n      add\n        /* \"#utility.yul\":7178:7184   */\n      dup2\n        /* \"#utility.yul\":7166:7176   */\n      dup2\n        /* \"#utility.yul\":7163:7185   */\n      lt\n        /* \"#utility.yul\":7142:7160   */\n      0xffffffffffffffff\n        /* \"#utility.yul\":7130:7140   */\n      dup3\n        /* \"#utility.yul\":7127:7161   */\n      gt\n        /* \"#utility.yul\":7124:7186   */\n      or\n        /* \"#utility.yul\":7121:7209   */\n      iszero\n      tag_136\n      jumpi\n        /* \"#utility.yul\":7189:7207   */\n      tag_137\n      tag_116\n      jump\t// in\n    tag_137:\n        /* \"#utility.yul\":7121:7209   */\n    tag_136:\n        /* \"#utility.yul\":7229:7239   */\n      dup1\n        /* \"#utility.yul\":7225:7227   */\n      0x40\n        /* \"#utility.yul\":7218:7240   */\n      mstore\n        /* \"#utility.yul\":7008:7246   */\n      pop\n        /* \"#utility.yul\":6965:7246   */\n      pop\n      pop\n      jump\t// out\n        /* \"#utility.yul\":7252:7352   */\n    tag_71:\n        /* \"#utility.yul\":7291:7298   */\n      0x00\n        /* \"#utility.yul\":7320:7346   */\n      tag_139\n        /* \"#utility.yul\":7340:7345   */\n      dup3\n        /* \"#utility.yul\":7320:7346   */\n      tag_140\n      jump\t// in\n    tag_139:\n        /* \"#utility.yul\":7309:7346   */\n      swap1\n      pop\n        /* \"#utility.yul\":7252:7352   */\n      swap2\n      swap1\n      pop\n      jump\t// out\n        /* \"#utility.yul\":7358:7452   */\n    tag_140:\n        /* \"#utility.yul\":7397:7404   */\n      0x00\n        /* \"#utility.yul\":7426:7446   */\n      tag_142\n        /* \"#utility.yul\":7440:7445   */\n      dup3\n        /* \"#utility.yul\":7426:7446   */\n      tag_143\n      jump\t// in\n    tag_142:\n        /* \"#utility.yul\":7415:7446   */\n      swap1\n      pop\n        /* \"#utility.yul\":7358:7452   */\n      swap2\n      swap1\n      pop\n      jump\t// out\n        /* \"#utility.yul\":7458:7537   */\n    tag_98:\n        /* \"#utility.yul\":7497:7504   */\n      0x00\n        /* \"#utility.yul\":7526:7531   */\n      dup2\n        /* \"#utility.yul\":7515:7531   */\n      swap1\n      pop\n        /* \"#utility.yul\":7458:7537   */\n      swap2\n      swap1\n      pop\n      jump\t// out\n        /* \"#utility.yul\":7543:7723   */\n    tag_116:\n        /* \"#utility.yul\":7591:7668   */\n      0x4e487b7100000000000000000000000000000000000000000000000000000000\n        /* \"#utility.yul\":7588:7589   */\n      0x00\n        /* \"#utility.yul\":7581:7669   */\n      mstore\n        /* \"#utility.yul\":7688:7692   */\n      0x41\n        /* \"#utility.yul\":7685:7686   */\n      0x04\n        /* \"#utility.yul\":7678:7693   */\n      mstore\n        /* \"#utility.yul\":7712:7716   */\n      0x24\n        /* \"#utility.yul\":7709:7710   */\n      0x00\n        /* \"#utility.yul\":7702:7717   */\n      revert\n        /* \"#utility.yul\":7729:7846   */\n    tag_41:\n        /* \"#utility.yul\":7838:7839   */\n      0x00\n        /* \"#utility.yul\":7835:7836   */\n      dup1\n        /* \"#utility.yul\":7828:7840   */\n      revert\n        /* \"#utility.yul\":7852:7969   */\n    tag_30:\n        /* \"#utility.yul\":7961:7962   */\n      0x00\n        /* \"#utility.yul\":7958:7959   */\n      dup1\n        /* \"#utility.yul\":7951:7963   */\n      revert\n        /* \"#utility.yul\":7975:8092   */\n    tag_53:\n        /* \"#utility.yul\":8084:8085   */\n      0x00\n        /* \"#utility.yul\":8081:8082   */\n      dup1\n        /* \"#utility.yul\":8074:8086   */\n      revert\n        /* \"#utility.yul\":8098:8215   */\n    tag_50:\n        /* \"#utility.yul\":8207:8208   */\n      0x00\n        /* \"#utility.yul\":8204:8205   */\n      dup1\n        /* \"#utility.yul\":8197:8209   */\n      revert\n        /* \"#utility.yul\":8221:8323   */\n    tag_85:\n        /* \"#utility.yul\":8262:8268   */\n      0x00\n        /* \"#utility.yul\":8313:8315   */\n      0x1f\n        /* \"#utility.yul\":8309:8316   */\n      not\n        /* \"#utility.yul\":8304:8306   */\n      0x1f\n        /* \"#utility.yul\":8297:8302   */\n      dup4\n        /* \"#utility.yul\":8293:8307   */\n      add\n        /* \"#utility.yul\":8289:8317   */\n      and\n        /* \"#utility.yul\":8279:8317   */\n      swap1\n      pop\n        /* \"#utility.yul\":8221:8323   */\n      swap2\n      swap1\n      pop\n      jump\t// out\n        /* \"#utility.yul\":8329:8423   */\n    tag_143:\n        /* \"#utility.yul\":8362:8370   */\n      0x00\n        /* \"#utility.yul\":8410:8415   */\n      dup2\n        /* \"#utility.yul\":8406:8408   */\n      0x60\n        /* \"#utility.yul\":8402:8416   */\n      shl\n        /* \"#utility.yul\":8381:8416   */\n      swap1\n      pop\n        /* \"#utility.yul\":8329:8423   */\n      swap2\n      swap1\n      pop\n      jump\t// out\n        /* \"#utility.yul\":8429:8551   */\n    tag_36:\n        /* \"#utility.yul\":8502:8526   */\n      tag_153\n        /* \"#utility.yul\":8520:8525   */\n      dup2\n        /* \"#utility.yul\":8502:8526   */\n      tag_70\n      jump\t// in\n    tag_153:\n        /* \"#utility.yul\":8495:8500   */\n      dup2\n        /* \"#utility.yul\":8492:8527   */\n      eq\n        /* \"#utility.yul\":8482:8545   */\n      tag_154\n      jumpi\n        /* \"#utility.yul\":8541:8542   */\n      0x00\n        /* \"#utility.yul\":8538:8539   */\n      dup1\n        /* \"#utility.yul\":8531:8543   */\n      revert\n        /* \"#utility.yul\":8482:8545   */\n    tag_154:\n        /* \"#utility.yul\":8429:8551   */\n      pop\n      jump\t// out\n        /* \"#utility.yul\":8557:8679   */\n    tag_46:\n        /* \"#utility.yul\":8630:8654   */\n      tag_156\n        /* \"#utility.yul\":8648:8653   */\n      dup2\n        /* \"#utility.yul\":8630:8654   */\n      tag_97\n      jump\t// in\n    tag_156:\n        /* \"#utility.yul\":8623:8628   */\n      dup2\n        /* \"#utility.yul\":8620:8655   */\n      eq\n        /* \"#utility.yul\":8610:8673   */\n      tag_157\n      jumpi\n        /* \"#utility.yul\":8669:8670   */\n      0x00\n        /* \"#utility.yul\":8666:8667   */\n      dup1\n        /* \"#utility.yul\":8659:8671   */\n      revert\n        /* \"#utility.yul\":8610:8673   */\n    tag_157:\n        /* \"#utility.yul\":8557:8679   */\n      pop\n      jump\t// out\n\n    auxdata: 0xa2646970667358221220a2feea2f82126d525a7a78e6700f63069396a73462ce248c64d2c4225f921ace64736f6c63430008070033\n}\n",
				"bytecode": {
					"linkReferences": {},
					"object": "608060405234801561001057600080fd5b506105ab806100206000396000f3fe608060405234801561001057600080fd5b50600436106100365760003560e01c80630573e5361461003b57806317fe2da21461006b575b600080fd5b610055600480360381019061005091906101eb565b61009b565b604051610062919061033a565b60405180910390f35b61008560048036038101906100809190610173565b6100d1565b6040516100929190610355565b60405180910390f35b60008383836040516020016100b293929190610301565b6040516020818303038152906040528051906020012090509392505050565b606092915050565b60006100ec6100e78461039c565b610377565b9050828152602081018484840111156101085761010761051a565b5b610113848285610445565b509392505050565b60008135905061012a81610547565b92915050565b600082601f83011261014557610144610515565b5b81356101558482602086016100d9565b91505092915050565b60008135905061016d8161055e565b92915050565b6000806040838503121561018a57610189610524565b5b600083013567ffffffffffffffff8111156101a8576101a761051f565b5b6101b485828601610130565b925050602083013567ffffffffffffffff8111156101d5576101d461051f565b5b6101e185828601610130565b9150509250929050565b60008060006060848603121561020457610203610524565b5b600084013567ffffffffffffffff8111156102225761022161051f565b5b61022e86828701610130565b935050602061023f8682870161015e565b92505060406102508682870161011b565b9150509250925092565b61026b610266826103ff565b6104b8565b82525050565b61027a81610411565b82525050565b600061028b826103cd565b61029581856103e3565b93506102a5818560208601610454565b6102ae81610529565b840191505092915050565b60006102c4826103d8565b6102ce81856103f4565b93506102de818560208601610454565b80840191505092915050565b6102fb6102f68261043b565b6104dc565b82525050565b600061030d82866102b9565b915061031982856102ea565b602082019150610329828461025a565b601482019150819050949350505050565b600060208201905061034f6000830184610271565b92915050565b6000602082019050818103600083015261036f8184610280565b905092915050565b6000610381610392565b905061038d8282610487565b919050565b6000604051905090565b600067ffffffffffffffff8211156103b7576103b66104e6565b5b6103c082610529565b9050602081019050919050565b600081519050919050565b600081519050919050565b600082825260208201905092915050565b600081905092915050565b600061040a8261041b565b9050919050565b6000819050919050565b600073ffffffffffffffffffffffffffffffffffffffff82169050919050565b6000819050919050565b82818337600083830152505050565b60005b83811015610472578082015181840152602081019050610457565b83811115610481576000848401525b50505050565b61049082610529565b810181811067ffffffffffffffff821117156104af576104ae6104e6565b5b80604052505050565b60006104c3826104ca565b9050919050565b60006104d58261053a565b9050919050565b6000819050919050565b7f4e487b7100000000000000000000000000000000000000000000000000000000600052604160045260246000fd5b600080fd5b600080fd5b600080fd5b600080fd5b6000601f19601f8301169050919050565b60008160601b9050919050565b610550816103ff565b811461055b57600080fd5b50565b6105678161043b565b811461057257600080fd5b5056fea2646970667358221220a2feea2f82126d525a7a78e6700f63069396a73462ce248c64d2c4225f921ace64736f6c63430008070033",
					"opcodes": "PUSH1 0x80 PUSH1 0x40 MSTORE CALLVALUE DUP1 ISZERO PUSH2 0x10 JUMPI PUSH1 0x0 DUP1 REVERT JUMPDEST POP PUSH2 0x5AB DUP1 PUSH2 0x20 PUSH1 0x0 CODECOPY PUSH1 0x0 RETURN INVALID PUSH1 0x80 PUSH1 0x40 MSTORE CALLVALUE DUP1 ISZERO PUSH2 0x10 JUMPI PUSH1 0x0 DUP1 REVERT JUMPDEST POP PUSH1 0x4 CALLDATASIZE LT PUSH2 0x36 JUMPI PUSH1 0x0 CALLDATALOAD PUSH1 0xE0 SHR DUP1 PUSH4 0x573E536 EQ PUSH2 0x3B JUMPI DUP1 PUSH4 0x17FE2DA2 EQ PUSH2 0x6B JUMPI JUMPDEST PUSH1 0x0 DUP1 REVERT JUMPDEST PUSH2 0x55 PUSH1 0x4 DUP1 CALLDATASIZE SUB DUP2 ADD SWAP1 PUSH2 0x50 SWAP2 SWAP1 PUSH2 0x1EB JUMP JUMPDEST PUSH2 0x9B JUMP JUMPDEST PUSH1 0x40 MLOAD PUSH2 0x62 SWAP2 SWAP1 PUSH2 0x33A JUMP JUMPDEST PUSH1 0x40 MLOAD DUP1 SWAP2 SUB SWAP1 RETURN JUMPDEST PUSH2 0x85 PUSH1 0x4 DUP1 CALLDATASIZE SUB DUP2 ADD SWAP1 PUSH2 0x80 SWAP2 SWAP1 PUSH2 0x173 JUMP JUMPDEST PUSH2 0xD1 JUMP JUMPDEST PUSH1 0x40 MLOAD PUSH2 0x92 SWAP2 SWAP1 PUSH2 0x355 JUMP JUMPDEST PUSH1 0x40 MLOAD DUP1 SWAP2 SUB SWAP1 RETURN JUMPDEST PUSH1 0x0 DUP4 DUP4 DUP4 PUSH1 0x40 MLOAD PUSH1 0x20 ADD PUSH2 0xB2 SWAP4 SWAP3 SWAP2 SWAP1 PUSH2 0x301 JUMP JUMPDEST PUSH1 0x40 MLOAD PUSH1 0x20 DUP2 DUP4 SUB SUB DUP2 MSTORE SWAP1 PUSH1 0x40 MSTORE DUP1 MLOAD SWAP1 PUSH1 0x20 ADD KECCAK256 SWAP1 POP SWAP4 SWAP3 POP POP POP JUMP JUMPDEST PUSH1 0x60 SWAP3 SWAP2 POP POP JUMP JUMPDEST PUSH1 0x0 PUSH2 0xEC PUSH2 0xE7 DUP5 PUSH2 0x39C JUMP JUMPDEST PUSH2 0x377 JUMP JUMPDEST SWAP1 POP DUP3 DUP2 MSTORE PUSH1 0x20 DUP2 ADD DUP5 DUP5 DUP5 ADD GT ISZERO PUSH2 0x108 JUMPI PUSH2 0x107 PUSH2 0x51A JUMP JUMPDEST JUMPDEST PUSH2 0x113 DUP5 DUP3 DUP6 PUSH2 0x445 JUMP JUMPDEST POP SWAP4 SWAP3 POP POP POP JUMP JUMPDEST PUSH1 0x0 DUP2 CALLDATALOAD SWAP1 POP PUSH2 0x12A DUP2 PUSH2 0x547 JUMP JUMPDEST SWAP3 SWAP2 POP POP JUMP JUMPDEST PUSH1 0x0 DUP3 PUSH1 0x1F DUP4 ADD SLT PUSH2 0x145 JUMPI PUSH2 0x144 PUSH2 0x515 JUMP JUMPDEST JUMPDEST DUP2 CALLDATALOAD PUSH2 0x155 DUP5 DUP3 PUSH1 0x20 DUP7 ADD PUSH2 0xD9 JUMP JUMPDEST SWAP2 POP POP SWAP3 SWAP2 POP POP JUMP JUMPDEST PUSH1 0x0 DUP2 CALLDATALOAD SWAP1 POP PUSH2 0x16D DUP2 PUSH2 0x55E JUMP JUMPDEST SWAP3 SWAP2 POP POP JUMP JUMPDEST PUSH1 0x0 DUP1 PUSH1 0x40 DUP4 DUP6 SUB SLT ISZERO PUSH2 0x18A JUMPI PUSH2 0x189 PUSH2 0x524 JUMP JUMPDEST JUMPDEST PUSH1 0x0 DUP4 ADD CALLDATALOAD PUSH8 0xFFFFFFFFFFFFFFFF DUP2 GT ISZERO PUSH2 0x1A8 JUMPI PUSH2 0x1A7 PUSH2 0x51F JUMP JUMPDEST JUMPDEST PUSH2 0x1B4 DUP6 DUP3 DUP7 ADD PUSH2 0x130 JUMP JUMPDEST SWAP3 POP POP PUSH1 0x20 DUP4 ADD CALLDATALOAD PUSH8 0xFFFFFFFFFFFFFFFF DUP2 GT ISZERO PUSH2 0x1D5 JUMPI PUSH2 0x1D4 PUSH2 0x51F JUMP JUMPDEST JUMPDEST PUSH2 0x1E1 DUP6 DUP3 DUP7 ADD PUSH2 0x130 JUMP JUMPDEST SWAP2 POP POP SWAP3 POP SWAP3 SWAP1 POP JUMP JUMPDEST PUSH1 0x0 DUP1 PUSH1 0x0 PUSH1 0x60 DUP5 DUP7 SUB SLT ISZERO PUSH2 0x204 JUMPI PUSH2 0x203 PUSH2 0x524 JUMP JUMPDEST JUMPDEST PUSH1 0x0 DUP5 ADD CALLDATALOAD PUSH8 0xFFFFFFFFFFFFFFFF DUP2 GT ISZERO PUSH2 0x222 JUMPI PUSH2 0x221 PUSH2 0x51F JUMP JUMPDEST JUMPDEST PUSH2 0x22E DUP7 DUP3 DUP8 ADD PUSH2 0x130 JUMP JUMPDEST SWAP4 POP POP PUSH1 0x20 PUSH2 0x23F DUP7 DUP3 DUP8 ADD PUSH2 0x15E JUMP JUMPDEST SWAP3 POP POP PUSH1 0x40 PUSH2 0x250 DUP7 DUP3 DUP8 ADD PUSH2 0x11B JUMP JUMPDEST SWAP2 POP POP SWAP3 POP SWAP3 POP SWAP3 JUMP JUMPDEST PUSH2 0x26B PUSH2 0x266 DUP3 PUSH2 0x3FF JUMP JUMPDEST PUSH2 0x4B8 JUMP JUMPDEST DUP3 MSTORE POP POP JUMP JUMPDEST PUSH2 0x27A DUP2 PUSH2 0x411 JUMP JUMPDEST DUP3 MSTORE POP POP JUMP JUMPDEST PUSH1 0x0 PUSH2 0x28B DUP3 PUSH2 0x3CD JUMP JUMPDEST PUSH2 0x295 DUP2 DUP6 PUSH2 0x3E3 JUMP JUMPDEST SWAP4 POP PUSH2 0x2A5 DUP2 DUP6 PUSH1 0x20 DUP7 ADD PUSH2 0x454 JUMP JUMPDEST PUSH2 0x2AE DUP2 PUSH2 0x529 JUMP JUMPDEST DUP5 ADD SWAP2 POP POP SWAP3 SWAP2 POP POP JUMP JUMPDEST PUSH1 0x0 PUSH2 0x2C4 DUP3 PUSH2 0x3D8 JUMP JUMPDEST PUSH2 0x2CE DUP2 DUP6 PUSH2 0x3F4 JUMP JUMPDEST SWAP4 POP PUSH2 0x2DE DUP2 DUP6 PUSH1 0x20 DUP7 ADD PUSH2 0x454 JUMP JUMPDEST DUP1 DUP5 ADD SWAP2 POP POP SWAP3 SWAP2 POP POP JUMP JUMPDEST PUSH2 0x2FB PUSH2 0x2F6 DUP3 PUSH2 0x43B JUMP JUMPDEST PUSH2 0x4DC JUMP JUMPDEST DUP3 MSTORE POP POP JUMP JUMPDEST PUSH1 0x0 PUSH2 0x30D DUP3 DUP7 PUSH2 0x2B9 JUMP JUMPDEST SWAP2 POP PUSH2 0x319 DUP3 DUP6 PUSH2 0x2EA JUMP JUMPDEST PUSH1 0x20 DUP3 ADD SWAP2 POP PUSH2 0x329 DUP3 DUP5 PUSH2 0x25A JUMP JUMPDEST PUSH1 0x14 DUP3 ADD SWAP2 POP DUP2 SWAP1 POP SWAP5 SWAP4 POP POP POP POP JUMP JUMPDEST PUSH1 0x0 PUSH1 0x20 DUP3 ADD SWAP1 POP PUSH2 0x34F PUSH1 0x0 DUP4 ADD DUP5 PUSH2 0x271 JUMP JUMPDEST SWAP3 SWAP2 POP POP JUMP JUMPDEST PUSH1 0x0 PUSH1 0x20 DUP3 ADD SWAP1 POP DUP2 DUP2 SUB PUSH1 0x0 DUP4 ADD MSTORE PUSH2 0x36F DUP2 DUP5 PUSH2 0x280 JUMP JUMPDEST SWAP1 POP SWAP3 SWAP2 POP POP JUMP JUMPDEST PUSH1 0x0 PUSH2 0x381 PUSH2 0x392 JUMP JUMPDEST SWAP1 POP PUSH2 0x38D DUP3 DUP3 PUSH2 0x487 JUMP JUMPDEST SWAP2 SWAP1 POP JUMP JUMPDEST PUSH1 0x0 PUSH1 0x40 MLOAD SWAP1 POP SWAP1 JUMP JUMPDEST PUSH1 0x0 PUSH8 0xFFFFFFFFFFFFFFFF DUP3 GT ISZERO PUSH2 0x3B7 JUMPI PUSH2 0x3B6 PUSH2 0x4E6 JUMP JUMPDEST JUMPDEST PUSH2 0x3C0 DUP3 PUSH2 0x529 JUMP JUMPDEST SWAP1 POP PUSH1 0x20 DUP2 ADD SWAP1 POP SWAP2 SWAP1 POP JUMP JUMPDEST PUSH1 0x0 DUP2 MLOAD SWAP1 POP SWAP2 SWAP1 POP JUMP JUMPDEST PUSH1 0x0 DUP2 MLOAD SWAP1 POP SWAP2 SWAP1 POP JUMP JUMPDEST PUSH1 0x0 DUP3 DUP3 MSTORE PUSH1 0x20 DUP3 ADD SWAP1 POP SWAP3 SWAP2 POP POP JUMP JUMPDEST PUSH1 0x0 DUP2 SWAP1 POP SWAP3 SWAP2 POP POP JUMP JUMPDEST PUSH1 0x0 PUSH2 0x40A DUP3 PUSH2 0x41B JUMP JUMPDEST SWAP1 POP SWAP2 SWAP1 POP JUMP JUMPDEST PUSH1 0x0 DUP2 SWAP1 POP SWAP2 SWAP1 POP JUMP JUMPDEST PUSH1 0x0 PUSH20 0xFFFFFFFFFFFFFFFFFFFFFFFFFFFFFFFFFFFFFFFF DUP3 AND SWAP1 POP SWAP2 SWAP1 POP JUMP JUMPDEST PUSH1 0x0 DUP2 SWAP1 POP SWAP2 SWAP1 POP JUMP JUMPDEST DUP3 DUP2 DUP4 CALLDATACOPY PUSH1 0x0 DUP4 DUP4 ADD MSTORE POP POP POP JUMP JUMPDEST PUSH1 0x0 JUMPDEST DUP4 DUP2 LT ISZERO PUSH2 0x472 JUMPI DUP1 DUP3 ADD MLOAD DUP2 DUP5 ADD MSTORE PUSH1 0x20 DUP2 ADD SWAP1 POP PUSH2 0x457 JUMP JUMPDEST DUP4 DUP2 GT ISZERO PUSH2 0x481 JUMPI PUSH1 0x0 DUP5 DUP5 ADD MSTORE JUMPDEST POP POP POP POP JUMP JUMPDEST PUSH2 0x490 DUP3 PUSH2 0x529 JUMP JUMPDEST DUP2 ADD DUP2 DUP2 LT PUSH8 0xFFFFFFFFFFFFFFFF DUP3 GT OR ISZERO PUSH2 0x4AF JUMPI PUSH2 0x4AE PUSH2 0x4E6 JUMP JUMPDEST JUMPDEST DUP1 PUSH1 0x40 MSTORE POP POP POP JUMP JUMPDEST PUSH1 0x0 PUSH2 0x4C3 DUP3 PUSH2 0x4CA JUMP JUMPDEST SWAP1 POP SWAP2 SWAP1 POP JUMP JUMPDEST PUSH1 0x0 PUSH2 0x4D5 DUP3 PUSH2 0x53A JUMP JUMPDEST SWAP1 POP SWAP2 SWAP1 POP JUMP JUMPDEST PUSH1 0x0 DUP2 SWAP1 POP SWAP2 SWAP1 POP JUMP JUMPDEST PUSH32 0x4E487B7100000000000000000000000000000000000000000000000000000000 PUSH1 0x0 MSTORE PUSH1 0x41 PUSH1 0x4 MSTORE PUSH1 0x24 PUSH1 0x0 REVERT JUMPDEST PUSH1 0x0 DUP1 REVERT JUMPDEST PUSH1 0x0 DUP1 REVERT JUMPDEST PUSH1 0x0 DUP1 REVERT JUMPDEST PUSH1 0x0 DUP1 REVERT JUMPDEST PUSH1 0x0 PUSH1 0x1F NOT PUSH1 0x1F DUP4 ADD AND SWAP1 POP SWAP2 SWAP1 POP JUMP JUMPDEST PUSH1 0x0 DUP2 PUSH1 0x60 SHL SWAP1 POP SWAP2 SWAP1 POP JUMP JUMPDEST PUSH2 0x550 DUP2 PUSH2 0x3FF JUMP JUMPDEST DUP2 EQ PUSH2 0x55B JUMPI PUSH1 0x0 DUP1 REVERT JUMPDEST POP JUMP JUMPDEST PUSH2 0x567 DUP2 PUSH2 0x43B JUMP JUMPDEST DUP2 EQ PUSH2 0x572 JUMPI PUSH1 0x0 DUP1 REVERT JUMPDEST POP JUMP INVALID LOG2 PUSH5 0x6970667358 0x22 SLT KECCAK256 LOG2 INVALID 0xEA 0x2F DUP3 SLT PUSH14 0x525A7A78E6700F63069396A73462 0xCE 0x24 DUP13 PUSH5 0xD2C4225F92 BYTE 0xCE PUSH5 0x736F6C6343 STOP ADDMOD SMOD STOP CALLER "
				},
				"gasEstimates": {
					"creation": {
						"codeDepositCost": "290200",
						"executionCost": "331",
						"totalCost": "290531"
					},
					"external": {
						"encode(string,string)": "infinite",
						"hsah(string,uint256,address)": "infinite"
					}
				},
				"methodIdentifiers": {
					"encode(string,string)": "17fe2da2",
					"hsah(string,uint256,address)": "0573e536"
				}
			},
			"storageLayout": {
				"storage": [],
				"types": null
			},
			"userdoc": {
				"kind": "user",
				"methods": {},
				"version": 1
			}
		}
	}
}