{
	"Day10_Error.sol": {
		"Errors": {
			"abi": [
				{
					"inputs": [],
					"name": "foo",
					"outputs": [],
					"stateMutability": "nonpayable",
					"type": "function"
				},
				{
					"inputs": [],
					"name": "num",
					"outputs": [
						{
							"internalType": "uint256",
							"name": "",
							"type": "uint256"
						}
					],
					"stateMutability": "view",
					"type": "function"
				},
				{
					"inputs": [],
					"name": "testAssert",
					"outputs": [],
					"stateMutability": "view",
					"type": "function"
				},
				{
					"inputs": [
						{
							"internalType": "uint256",
							"name": "x",
							"type": "uint256"
						}
					],
					"name": "testRequire",
					"outputs": [],
					"stateMutability": "pure",
					"type": "function"
				},
				{
					"inputs": [
						{
							"internalType": "uint256",
							"name": "x",
							"type": "uint256"
						}
					],
					"name": "testRevert",
					"outputs": [],
					"stateMutability": "pure",
					"type": "function"
				}
			],
			"devdoc": {
				"kind": "dev",
				"methods": {},
				"version": 1
			},
			"evm": {
				"assembly": "    /* \"Day10_Error.sol\":308:694  contract Errors {... */\n  mstore(0x40, 0x80)\n    /* \"Day10_Error.sol\":348:351  123 */\n  0x7b\n    /* \"Day10_Error.sol\":330:351  uint public num = 123 */\n  0x00\n  sstore\n    /* \"Day10_Error.sol\":308:694  contract Errors {... */\n  callvalue\n  dup1\n  iszero\n  tag_1\n  jumpi\n  0x00\n  dup1\n  revert\ntag_1:\n  pop\n  dataSize(sub_0)\n  dup1\n  dataOffset(sub_0)\n  0x00\n  codecopy\n  0x00\n  return\nstop\n\nsub_0: assembly {\n        /* \"Day10_Error.sol\":308:694  contract Errors {... */\n      mstore(0x40, 0x80)\n      callvalue\n      dup1\n      iszero\n      tag_1\n      jumpi\n      0x00\n      dup1\n      revert\n    tag_1:\n      pop\n      jumpi(tag_2, lt(calldatasize, 0x04))\n      shr(0xe0, calldataload(0x00))\n      dup1\n      0x20987767\n      eq\n      tag_3\n      jumpi\n      dup1\n      0x2b813bc0\n      eq\n      tag_4\n      jumpi\n      dup1\n      0x4e70b1dc\n      eq\n      tag_5\n      jumpi\n      dup1\n      0xb8bd717f\n      eq\n      tag_6\n      jumpi\n      dup1\n      0xc2985578\n      eq\n      tag_7\n      jumpi\n    tag_2:\n      0x00\n      dup1\n      revert\n        /* \"Day10_Error.sol\":452:566  function testRevert (uint x) external pure {... */\n    tag_3:\n      tag_8\n      0x04\n      dup1\n      calldatasize\n      sub\n      dup2\n      add\n      swap1\n      tag_9\n      swap2\n      swap1\n      tag_10\n      jump\t// in\n    tag_9:\n      tag_11\n      jump\t// in\n    tag_8:\n      stop\n        /* \"Day10_Error.sol\":572:644  function testAssert () external view {... */\n    tag_4:\n      tag_12\n      tag_13\n      jump\t// in\n    tag_12:\n      stop\n        /* \"Day10_Error.sol\":330:351  uint public num = 123 */\n    tag_5:\n      tag_14\n      tag_15\n      jump\t// in\n    tag_14:\n      mload(0x40)\n      tag_16\n      swap2\n      swap1\n      tag_17\n      jump\t// in\n    tag_16:\n      mload(0x40)\n      dup1\n      swap2\n      sub\n      swap1\n      return\n        /* \"Day10_Error.sol\":358:446  function testRequire (uint x) external pure {... */\n    tag_6:\n      tag_18\n      0x04\n      dup1\n      calldatasize\n      sub\n      dup2\n      add\n      swap1\n      tag_19\n      swap2\n      swap1\n      tag_10\n      jump\t// in\n    tag_19:\n      tag_20\n      jump\t// in\n    tag_18:\n      stop\n        /* \"Day10_Error.sol\":650:691  function foo () external {... */\n    tag_7:\n      tag_21\n      tag_22\n      jump\t// in\n    tag_21:\n      stop\n        /* \"Day10_Error.sol\":452:566  function testRevert (uint x) external pure {... */\n    tag_11:\n        /* \"Day10_Error.sol\":514:516  10 */\n      0x0a\n        /* \"Day10_Error.sol\":509:510  x */\n      dup2\n        /* \"Day10_Error.sol\":509:516  x <= 10 */\n      gt\n        /* \"Day10_Error.sol\":505:560  if (x <= 10) {... */\n      tag_24\n      jumpi\n        /* \"Day10_Error.sol\":532:549  revert (\"i > 10\") */\n      mload(0x40)\n      0x08c379a000000000000000000000000000000000000000000000000000000000\n      dup2\n      mstore\n      0x04\n      add\n      tag_25\n      swap1\n      tag_26\n      jump\t// in\n    tag_25:\n      mload(0x40)\n      dup1\n      swap2\n      sub\n      swap1\n      revert\n        /* \"Day10_Error.sol\":505:560  if (x <= 10) {... */\n    tag_24:\n        /* \"Day10_Error.sol\":452:566  function testRevert (uint x) external pure {... */\n      pop\n      jump\t// out\n        /* \"Day10_Error.sol\":572:644  function testAssert () external view {... */\n    tag_13:\n        /* \"Day10_Error.sol\":633:636  123 */\n      0x7b\n        /* \"Day10_Error.sol\":626:629  num */\n      sload(0x00)\n        /* \"Day10_Error.sol\":626:636  num == 123 */\n      eq\n        /* \"Day10_Error.sol\":619:637  assert(num == 123) */\n      tag_28\n      jumpi\n      tag_29\n      tag_30\n      jump\t// in\n    tag_29:\n    tag_28:\n        /* \"Day10_Error.sol\":572:644  function testAssert () external view {... */\n      jump\t// out\n        /* \"Day10_Error.sol\":330:351  uint public num = 123 */\n    tag_15:\n      sload(0x00)\n      dup2\n      jump\t// out\n        /* \"Day10_Error.sol\":358:446  function testRequire (uint x) external pure {... */\n    tag_20:\n        /* \"Day10_Error.sol\":426:428  10 */\n      0x0a\n        /* \"Day10_Error.sol\":421:422  x */\n      dup2\n        /* \"Day10_Error.sol\":421:428  x <= 10 */\n      gt\n      iszero\n        /* \"Day10_Error.sol\":412:439  require (x <= 10, \"x > 10\") */\n      tag_32\n      jumpi\n      mload(0x40)\n      0x08c379a000000000000000000000000000000000000000000000000000000000\n      dup2\n      mstore\n      0x04\n      add\n      tag_33\n      swap1\n      tag_34\n      jump\t// in\n    tag_33:\n      mload(0x40)\n      dup1\n      swap2\n      sub\n      swap1\n      revert\n    tag_32:\n        /* \"Day10_Error.sol\":358:446  function testRequire (uint x) external pure {... */\n      pop\n      jump\t// out\n        /* \"Day10_Error.sol\":650:691  function foo () external {... */\n    tag_22:\n      jump\t// out\n        /* \"#utility.yul\":7:146   */\n    tag_37:\n        /* \"#utility.yul\":53:58   */\n      0x00\n        /* \"#utility.yul\":91:97   */\n      dup2\n        /* \"#utility.yul\":78:98   */\n      calldataload\n        /* \"#utility.yul\":69:98   */\n      swap1\n      pop\n        /* \"#utility.yul\":107:140   */\n      tag_39\n        /* \"#utility.yul\":134:139   */\n      dup2\n        /* \"#utility.yul\":107:140   */\n      tag_40\n      jump\t// in\n    tag_39:\n        /* \"#utility.yul\":7:146   */\n      swap3\n      swap2\n      pop\n      pop\n      jump\t// out\n        /* \"#utility.yul\":152:481   */\n    tag_10:\n        /* \"#utility.yul\":211:217   */\n      0x00\n        /* \"#utility.yul\":260:262   */\n      0x20\n        /* \"#utility.yul\":248:257   */\n      dup3\n        /* \"#utility.yul\":239:246   */\n      dup5\n        /* \"#utility.yul\":235:258   */\n      sub\n        /* \"#utility.yul\":231:263   */\n      slt\n        /* \"#utility.yul\":228:347   */\n      iszero\n      tag_42\n      jumpi\n        /* \"#utility.yul\":266:345   */\n      tag_43\n      tag_44\n      jump\t// in\n    tag_43:\n        /* \"#utility.yul\":228:347   */\n    tag_42:\n        /* \"#utility.yul\":386:387   */\n      0x00\n        /* \"#utility.yul\":411:464   */\n      tag_45\n        /* \"#utility.yul\":456:463   */\n      dup5\n        /* \"#utility.yul\":447:453   */\n      dup3\n        /* \"#utility.yul\":436:445   */\n      dup6\n        /* \"#utility.yul\":432:454   */\n      add\n        /* \"#utility.yul\":411:464   */\n      tag_37\n      jump\t// in\n    tag_45:\n        /* \"#utility.yul\":401:464   */\n      swap2\n      pop\n        /* \"#utility.yul\":357:474   */\n      pop\n        /* \"#utility.yul\":152:481   */\n      swap3\n      swap2\n      pop\n      pop\n      jump\t// out\n        /* \"#utility.yul\":487:852   */\n    tag_46:\n        /* \"#utility.yul\":629:632   */\n      0x00\n        /* \"#utility.yul\":650:716   */\n      tag_48\n        /* \"#utility.yul\":714:715   */\n      0x06\n        /* \"#utility.yul\":709:712   */\n      dup4\n        /* \"#utility.yul\":650:716   */\n      tag_49\n      jump\t// in\n    tag_48:\n        /* \"#utility.yul\":643:716   */\n      swap2\n      pop\n        /* \"#utility.yul\":725:818   */\n      tag_50\n        /* \"#utility.yul\":814:817   */\n      dup3\n        /* \"#utility.yul\":725:818   */\n      tag_51\n      jump\t// in\n    tag_50:\n        /* \"#utility.yul\":843:845   */\n      0x20\n        /* \"#utility.yul\":838:841   */\n      dup3\n        /* \"#utility.yul\":834:846   */\n      add\n        /* \"#utility.yul\":827:846   */\n      swap1\n      pop\n        /* \"#utility.yul\":487:852   */\n      swap2\n      swap1\n      pop\n      jump\t// out\n        /* \"#utility.yul\":858:1223   */\n    tag_52:\n        /* \"#utility.yul\":1000:1003   */\n      0x00\n        /* \"#utility.yul\":1021:1087   */\n      tag_54\n        /* \"#utility.yul\":1085:1086   */\n      0x06\n        /* \"#utility.yul\":1080:1083   */\n      dup4\n        /* \"#utility.yul\":1021:1087   */\n      tag_49\n      jump\t// in\n    tag_54:\n        /* \"#utility.yul\":1014:1087   */\n      swap2\n      pop\n        /* \"#utility.yul\":1096:1189   */\n      tag_55\n        /* \"#utility.yul\":1185:1188   */\n      dup3\n        /* \"#utility.yul\":1096:1189   */\n      tag_56\n      jump\t// in\n    tag_55:\n        /* \"#utility.yul\":1214:1216   */\n      0x20\n        /* \"#utility.yul\":1209:1212   */\n      dup3\n        /* \"#utility.yul\":1205:1217   */\n      add\n        /* \"#utility.yul\":1198:1217   */\n      swap1\n      pop\n        /* \"#utility.yul\":858:1223   */\n      swap2\n      swap1\n      pop\n      jump\t// out\n        /* \"#utility.yul\":1229:1347   */\n    tag_57:\n        /* \"#utility.yul\":1316:1340   */\n      tag_59\n        /* \"#utility.yul\":1334:1339   */\n      dup2\n        /* \"#utility.yul\":1316:1340   */\n      tag_60\n      jump\t// in\n    tag_59:\n        /* \"#utility.yul\":1311:1314   */\n      dup3\n        /* \"#utility.yul\":1304:1341   */\n      mstore\n        /* \"#utility.yul\":1229:1347   */\n      pop\n      pop\n      jump\t// out\n        /* \"#utility.yul\":1353:1772   */\n    tag_26:\n        /* \"#utility.yul\":1519:1523   */\n      0x00\n        /* \"#utility.yul\":1557:1559   */\n      0x20\n        /* \"#utility.yul\":1546:1555   */\n      dup3\n        /* \"#utility.yul\":1542:1560   */\n      add\n        /* \"#utility.yul\":1534:1560   */\n      swap1\n      pop\n        /* \"#utility.yul\":1606:1615   */\n      dup2\n        /* \"#utility.yul\":1600:1604   */\n      dup2\n        /* \"#utility.yul\":1596:1616   */\n      sub\n        /* \"#utility.yul\":1592:1593   */\n      0x00\n        /* \"#utility.yul\":1581:1590   */\n      dup4\n        /* \"#utility.yul\":1577:1594   */\n      add\n        /* \"#utility.yul\":1570:1617   */\n      mstore\n        /* \"#utility.yul\":1634:1765   */\n      tag_62\n        /* \"#utility.yul\":1760:1764   */\n      dup2\n        /* \"#utility.yul\":1634:1765   */\n      tag_46\n      jump\t// in\n    tag_62:\n        /* \"#utility.yul\":1626:1765   */\n      swap1\n      pop\n        /* \"#utility.yul\":1353:1772   */\n      swap2\n      swap1\n      pop\n      jump\t// out\n        /* \"#utility.yul\":1778:2197   */\n    tag_34:\n        /* \"#utility.yul\":1944:1948   */\n      0x00\n        /* \"#utility.yul\":1982:1984   */\n      0x20\n        /* \"#utility.yul\":1971:1980   */\n      dup3\n        /* \"#utility.yul\":1967:1985   */\n      add\n        /* \"#utility.yul\":1959:1985   */\n      swap1\n      pop\n        /* \"#utility.yul\":2031:2040   */\n      dup2\n        /* \"#utility.yul\":2025:2029   */\n      dup2\n        /* \"#utility.yul\":2021:2041   */\n      sub\n        /* \"#utility.yul\":2017:2018   */\n      0x00\n        /* \"#utility.yul\":2006:2015   */\n      dup4\n        /* \"#utility.yul\":2002:2019   */\n      add\n        /* \"#utility.yul\":1995:2042   */\n      mstore\n        /* \"#utility.yul\":2059:2190   */\n      tag_64\n        /* \"#utility.yul\":2185:2189   */\n      dup2\n        /* \"#utility.yul\":2059:2190   */\n      tag_52\n      jump\t// in\n    tag_64:\n        /* \"#utility.yul\":2051:2190   */\n      swap1\n      pop\n        /* \"#utility.yul\":1778:2197   */\n      swap2\n      swap1\n      pop\n      jump\t// out\n        /* \"#utility.yul\":2203:2425   */\n    tag_17:\n        /* \"#utility.yul\":2296:2300   */\n      0x00\n        /* \"#utility.yul\":2334:2336   */\n      0x20\n        /* \"#utility.yul\":2323:2332   */\n      dup3\n        /* \"#utility.yul\":2319:2337   */\n      add\n        /* \"#utility.yul\":2311:2337   */\n      swap1\n      pop\n        /* \"#utility.yul\":2347:2418   */\n      tag_66\n        /* \"#utility.yul\":2415:2416   */\n      0x00\n        /* \"#utility.yul\":2404:2413   */\n      dup4\n        /* \"#utility.yul\":2400:2417   */\n      add\n        /* \"#utility.yul\":2391:2397   */\n      dup5\n        /* \"#utility.yul\":2347:2418   */\n      tag_57\n      jump\t// in\n    tag_66:\n        /* \"#utility.yul\":2203:2425   */\n      swap3\n      swap2\n      pop\n      pop\n      jump\t// out\n        /* \"#utility.yul\":2512:2681   */\n    tag_49:\n        /* \"#utility.yul\":2596:2607   */\n      0x00\n        /* \"#utility.yul\":2630:2636   */\n      dup3\n        /* \"#utility.yul\":2625:2628   */\n      dup3\n        /* \"#utility.yul\":2618:2637   */\n      mstore\n        /* \"#utility.yul\":2670:2674   */\n      0x20\n        /* \"#utility.yul\":2665:2668   */\n      dup3\n        /* \"#utility.yul\":2661:2675   */\n      add\n        /* \"#utility.yul\":2646:2675   */\n      swap1\n      pop\n        /* \"#utility.yul\":2512:2681   */\n      swap3\n      swap2\n      pop\n      pop\n      jump\t// out\n        /* \"#utility.yul\":2687:2764   */\n    tag_60:\n        /* \"#utility.yul\":2724:2731   */\n      0x00\n        /* \"#utility.yul\":2753:2758   */\n      dup2\n        /* \"#utility.yul\":2742:2758   */\n      swap1\n      pop\n        /* \"#utility.yul\":2687:2764   */\n      swap2\n      swap1\n      pop\n      jump\t// out\n        /* \"#utility.yul\":2770:2950   */\n    tag_30:\n        /* \"#utility.yul\":2818:2895   */\n      0x4e487b7100000000000000000000000000000000000000000000000000000000\n        /* \"#utility.yul\":2815:2816   */\n      0x00\n        /* \"#utility.yul\":2808:2896   */\n      mstore\n        /* \"#utility.yul\":2915:2919   */\n      0x01\n        /* \"#utility.yul\":2912:2913   */\n      0x04\n        /* \"#utility.yul\":2905:2920   */\n      mstore\n        /* \"#utility.yul\":2939:2943   */\n      0x24\n        /* \"#utility.yul\":2936:2937   */\n      0x00\n        /* \"#utility.yul\":2929:2944   */\n      revert\n        /* \"#utility.yul\":3079:3196   */\n    tag_44:\n        /* \"#utility.yul\":3188:3189   */\n      0x00\n        /* \"#utility.yul\":3185:3186   */\n      dup1\n        /* \"#utility.yul\":3178:3190   */\n      revert\n        /* \"#utility.yul\":3202:3358   */\n    tag_51:\n        /* \"#utility.yul\":3342:3350   */\n      0x69203e2031300000000000000000000000000000000000000000000000000000\n        /* \"#utility.yul\":3338:3339   */\n      0x00\n        /* \"#utility.yul\":3330:3336   */\n      dup3\n        /* \"#utility.yul\":3326:3340   */\n      add\n        /* \"#utility.yul\":3319:3351   */\n      mstore\n        /* \"#utility.yul\":3202:3358   */\n      pop\n      jump\t// out\n        /* \"#utility.yul\":3364:3520   */\n    tag_56:\n        /* \"#utility.yul\":3504:3512   */\n      0x78203e2031300000000000000000000000000000000000000000000000000000\n        /* \"#utility.yul\":3500:3501   */\n      0x00\n        /* \"#utility.yul\":3492:3498   */\n      dup3\n        /* \"#utility.yul\":3488:3502   */\n      add\n        /* \"#utility.yul\":3481:3513   */\n      mstore\n        /* \"#utility.yul\":3364:3520   */\n      pop\n      jump\t// out\n        /* \"#utility.yul\":3526:3648   */\n    tag_40:\n        /* \"#utility.yul\":3599:3623   */\n      tag_78\n        /* \"#utility.yul\":3617:3622   */\n      dup2\n        /* \"#utility.yul\":3599:3623   */\n      tag_60\n      jump\t// in\n    tag_78:\n        /* \"#utility.yul\":3592:3597   */\n      dup2\n        /* \"#utility.yul\":3589:3624   */\n      eq\n        /* \"#utility.yul\":3579:3642   */\n      tag_79\n      jumpi\n        /* \"#utility.yul\":3638:3639   */\n      0x00\n        /* \"#utility.yul\":3635:3636   */\n      dup1\n        /* \"#utility.yul\":3628:3640   */\n      revert\n        /* \"#utility.yul\":3579:3642   */\n    tag_79:\n        /* \"#utility.yul\":3526:3648   */\n      pop\n      jump\t// out\n\n    auxdata: 0xa264697066735822122024c9cda858fe913efba9b9868f2ee99a69ae5047789bdd4b092867a351cfd49964736f6c63430008070033\n}\n",
				"bytecode": {
					"linkReferences": {},
					"object": "6080604052607b60005534801561001557600080fd5b50610350806100256000396000f3fe608060405234801561001057600080fd5b50600436106100575760003560e01c8063209877671461005c5780632b813bc0146100785780634e70b1dc14610082578063b8bd717f146100a0578063c2985578146100bc575b600080fd5b61007660048036038101906100719190610185565b6100c6565b005b61008061010c565b005b61008a610121565b6040516100979190610247565b60405180910390f35b6100ba60048036038101906100b59190610185565b610127565b005b6100c461016e565b005b600a8111610109576040517f08c379a000000000000000000000000000000000000000000000000000000000815260040161010090610207565b60405180910390fd5b50565b607b6000541461011f5761011e61027d565b5b565b60005481565b600a81111561016b576040517f08c379a000000000000000000000000000000000000000000000000000000000815260040161016290610227565b60405180910390fd5b50565b565b60008135905061017f81610303565b92915050565b60006020828403121561019b5761019a6102ac565b5b60006101a984828501610170565b91505092915050565b60006101bf600683610262565b91506101ca826102b1565b602082019050919050565b60006101e2600683610262565b91506101ed826102da565b602082019050919050565b61020181610273565b82525050565b60006020820190508181036000830152610220816101b2565b9050919050565b60006020820190508181036000830152610240816101d5565b9050919050565b600060208201905061025c60008301846101f8565b92915050565b600082825260208201905092915050565b6000819050919050565b7f4e487b7100000000000000000000000000000000000000000000000000000000600052600160045260246000fd5b600080fd5b7f69203e2031300000000000000000000000000000000000000000000000000000600082015250565b7f78203e2031300000000000000000000000000000000000000000000000000000600082015250565b61030c81610273565b811461031757600080fd5b5056fea264697066735822122024c9cda858fe913efba9b9868f2ee99a69ae5047789bdd4b092867a351cfd49964736f6c63430008070033",
					"opcodes": "PUSH1 0x80 PUSH1 0x40 MSTORE PUSH1 0x7B PUSH1 0x0 SSTORE CALLVALUE DUP1 ISZERO PUSH2 0x15 JUMPI PUSH1 0x0 DUP1 REVERT JUMPDEST POP PUSH2 0x350 DUP1 PUSH2 0x25 PUSH1 0x0 CODECOPY PUSH1 0x0 RETURN INVALID PUSH1 0x80 PUSH1 0x40 MSTORE CALLVALUE DUP1 ISZERO PUSH2 0x10 JUMPI PUSH1 0x0 DUP1 REVERT JUMPDEST POP PUSH1 0x4 CALLDATASIZE LT PUSH2 0x57 JUMPI PUSH1 0x0 CALLDATALOAD PUSH1 0xE0 SHR DUP1 PUSH4 0x20987767 EQ PUSH2 0x5C JUMPI DUP1 PUSH4 0x2B813BC0 EQ PUSH2 0x78 JUMPI DUP1 PUSH4 0x4E70B1DC EQ PUSH2 0x82 JUMPI DUP1 PUSH4 0xB8BD717F EQ PUSH2 0xA0 JUMPI DUP1 PUSH4 0xC2985578 EQ PUSH2 0xBC JUMPI JUMPDEST PUSH1 0x0 DUP1 REVERT JUMPDEST PUSH2 0x76 PUSH1 0x4 DUP1 CALLDATASIZE SUB DUP2 ADD SWAP1 PUSH2 0x71 SWAP2 SWAP1 PUSH2 0x185 JUMP JUMPDEST PUSH2 0xC6 JUMP JUMPDEST STOP JUMPDEST PUSH2 0x80 PUSH2 0x10C JUMP JUMPDEST STOP JUMPDEST PUSH2 0x8A PUSH2 0x121 JUMP JUMPDEST PUSH1 0x40 MLOAD PUSH2 0x97 SWAP2 SWAP1 PUSH2 0x247 JUMP JUMPDEST PUSH1 0x40 MLOAD DUP1 SWAP2 SUB SWAP1 RETURN JUMPDEST PUSH2 0xBA PUSH1 0x4 DUP1 CALLDATASIZE SUB DUP2 ADD SWAP1 PUSH2 0xB5 SWAP2 SWAP1 PUSH2 0x185 JUMP JUMPDEST PUSH2 0x127 JUMP JUMPDEST STOP JUMPDEST PUSH2 0xC4 PUSH2 0x16E JUMP JUMPDEST STOP JUMPDEST PUSH1 0xA DUP2 GT PUSH2 0x109 JUMPI PUSH1 0x40 MLOAD PUSH32 0x8C379A000000000000000000000000000000000000000000000000000000000 DUP2 MSTORE PUSH1 0x4 ADD PUSH2 0x100 SWAP1 PUSH2 0x207 JUMP JUMPDEST PUSH1 0x40 MLOAD DUP1 SWAP2 SUB SWAP1 REVERT JUMPDEST POP JUMP JUMPDEST PUSH1 0x7B PUSH1 0x0 SLOAD EQ PUSH2 0x11F JUMPI PUSH2 0x11E PUSH2 0x27D JUMP JUMPDEST JUMPDEST JUMP JUMPDEST PUSH1 0x0 SLOAD DUP2 JUMP JUMPDEST PUSH1 0xA DUP2 GT ISZERO PUSH2 0x16B JUMPI PUSH1 0x40 MLOAD PUSH32 0x8C379A000000000000000000000000000000000000000000000000000000000 DUP2 MSTORE PUSH1 0x4 ADD PUSH2 0x162 SWAP1 PUSH2 0x227 JUMP JUMPDEST PUSH1 0x40 MLOAD DUP1 SWAP2 SUB SWAP1 REVERT JUMPDEST POP JUMP JUMPDEST JUMP JUMPDEST PUSH1 0x0 DUP2 CALLDATALOAD SWAP1 POP PUSH2 0x17F DUP2 PUSH2 0x303 JUMP JUMPDEST SWAP3 SWAP2 POP POP JUMP JUMPDEST PUSH1 0x0 PUSH1 0x20 DUP3 DUP5 SUB SLT ISZERO PUSH2 0x19B JUMPI PUSH2 0x19A PUSH2 0x2AC JUMP JUMPDEST JUMPDEST PUSH1 0x0 PUSH2 0x1A9 DUP5 DUP3 DUP6 ADD PUSH2 0x170 JUMP JUMPDEST SWAP2 POP POP SWAP3 SWAP2 POP POP JUMP JUMPDEST PUSH1 0x0 PUSH2 0x1BF PUSH1 0x6 DUP4 PUSH2 0x262 JUMP JUMPDEST SWAP2 POP PUSH2 0x1CA DUP3 PUSH2 0x2B1 JUMP JUMPDEST PUSH1 0x20 DUP3 ADD SWAP1 POP SWAP2 SWAP1 POP JUMP JUMPDEST PUSH1 0x0 PUSH2 0x1E2 PUSH1 0x6 DUP4 PUSH2 0x262 JUMP JUMPDEST SWAP2 POP PUSH2 0x1ED DUP3 PUSH2 0x2DA JUMP JUMPDEST PUSH1 0x20 DUP3 ADD SWAP1 POP SWAP2 SWAP1 POP JUMP JUMPDEST PUSH2 0x201 DUP2 PUSH2 0x273 JUMP JUMPDEST DUP3 MSTORE POP POP JUMP JUMPDEST PUSH1 0x0 PUSH1 0x20 DUP3 ADD SWAP1 POP DUP2 DUP2 SUB PUSH1 0x0 DUP4 ADD MSTORE PUSH2 0x220 DUP2 PUSH2 0x1B2 JUMP JUMPDEST SWAP1 POP SWAP2 SWAP1 POP JUMP JUMPDEST PUSH1 0x0 PUSH1 0x20 DUP3 ADD SWAP1 POP DUP2 DUP2 SUB PUSH1 0x0 DUP4 ADD MSTORE PUSH2 0x240 DUP2 PUSH2 0x1D5 JUMP JUMPDEST SWAP1 POP SWAP2 SWAP1 POP JUMP JUMPDEST PUSH1 0x0 PUSH1 0x20 DUP3 ADD SWAP1 POP PUSH2 0x25C PUSH1 0x0 DUP4 ADD DUP5 PUSH2 0x1F8 JUMP JUMPDEST SWAP3 SWAP2 POP POP JUMP JUMPDEST PUSH1 0x0 DUP3 DUP3 MSTORE PUSH1 0x20 DUP3 ADD SWAP1 POP SWAP3 SWAP2 POP POP JUMP JUMPDEST PUSH1 0x0 DUP2 SWAP1 POP SWAP2 SWAP1 POP JUMP JUMPDEST PUSH32 0x4E487B7100000000000000000000000000000000000000000000000000000000 PUSH1 0x0 MSTORE PUSH1 0x1 PUSH1 0x4 MSTORE PUSH1 0x24 PUSH1 0x0 REVERT JUMPDEST PUSH1 0x0 DUP1 REVERT JUMPDEST PUSH32 0x69203E2031300000000000000000000000000000000000000000000000000000 PUSH1 0x0 DUP3 ADD MSTORE POP JUMP JUMPDEST PUSH32 0x78203E2031300000000000000000000000000000000000000000000000000000 PUSH1 0x0 DUP3 ADD MSTORE POP JUMP JUMPDEST PUSH2 0x30C DUP2 PUSH2 0x273 JUMP JUMPDEST DUP2 EQ PUSH2 0x317 JUMPI PUSH1 0x0 DUP1 REVERT JUMPDEST POP JUMP INVALID LOG2 PUSH5 0x6970667358 0x22 SLT KECCAK256 0x24 0xC9 0xCD 0xA8 PC INVALID SWAP2 RETURNDATACOPY 0xFB 0xA9 0xB9 DUP7 DUP16 0x2E 0xE9 SWAP11 PUSH10 0xAE5047789BDD4B092867 LOG3 MLOAD 0xCF 0xD4 SWAP10 PUSH5 0x736F6C6343 STOP ADDMOD SMOD STOP CALLER "
				},
				"gasEstimates": {
					"creation": {
						"codeDepositCost": "169600",
						"executionCost": "22320",
						"totalCost": "191920"
					},
					"external": {
						"foo()": "210",
						"num()": "2451",
						"testAssert()": "2296",
						"testRequire(uint256)": "763",
						"testRevert(uint256)": "694"
					}
				},
				"methodIdentifiers": {
					"foo()": "c2985578",
					"num()": "4e70b1dc",
					"testAssert()": "2b813bc0",
					"testRequire(uint256)": "b8bd717f",
					"testRevert(uint256)": "20987767"
				}
			},
			"storageLayout": {
				"storage": [
					{
						"astId": 4,
						"contract": "Day10_Error.sol:Errors",
						"label": "num",
						"offset": 0,
						"slot": "0",
						"type": "t_uint256"
					}
				],
				"types": {
					"t_uint256": {
						"encoding": "inplace",
						"label": "uint256",
						"numberOfBytes": "32"
					}
				}
			},
			"userdoc": {
				"kind": "user",
				"methods": {},
				"version": 1
			}
		}
	}
}