{
	"Day23_DataLocation.sol": {
		"DataLocations": {
			"abi": [
				{
					"inputs": [
						{
							"internalType": "uint256[]",
							"name": "y",
							"type": "uint256[]"
						},
						{
							"internalType": "string",
							"name": "s",
							"type": "string"
						}
					],
					"name": "examples",
					"outputs": [
						{
							"internalType": "uint256[]",
							"name": "",
							"type": "uint256[]"
						}
					],
					"stateMutability": "nonpayable",
					"type": "function"
				},
				{
					"inputs": [
						{
							"internalType": "address",
							"name": "",
							"type": "address"
						}
					],
					"name": "myStructs",
					"outputs": [
						{
							"internalType": "uint256",
							"name": "foo",
							"type": "uint256"
						},
						{
							"internalType": "string",
							"name": "text",
							"type": "string"
						}
					],
					"stateMutability": "view",
					"type": "function"
				}
			],
			"devdoc": {
				"kind": "dev",
				"methods": {},
				"version": 1
			},
			"evm": {
				"assembly": "    /* \"Day23_DataLocation.sol\":107:698  contract DataLocations {... */\n  mstore(0x40, 0x80)\n  callvalue\n  dup1\n  iszero\n  tag_1\n  jumpi\n  0x00\n  dup1\n  revert\ntag_1:\n  pop\n  dataSize(sub_0)\n  dup1\n  dataOffset(sub_0)\n  0x00\n  codecopy\n  0x00\n  return\nstop\n\nsub_0: assembly {\n        /* \"Day23_DataLocation.sol\":107:698  contract DataLocations {... */\n      mstore(0x40, 0x80)\n      callvalue\n      dup1\n      iszero\n      tag_1\n      jumpi\n      0x00\n      dup1\n      revert\n    tag_1:\n      pop\n      jumpi(tag_2, lt(calldatasize, 0x04))\n      shr(0xe0, calldataload(0x00))\n      dup1\n      0xb43c5d33\n      eq\n      tag_3\n      jumpi\n      dup1\n      0xfc277a95\n      eq\n      tag_4\n      jumpi\n    tag_2:\n      0x00\n      dup1\n      revert\n        /* \"Day23_DataLocation.sol\":204:249  mapping(address => MyStruct) public myStructs */\n    tag_3:\n      tag_5\n      0x04\n      dup1\n      calldatasize\n      sub\n      dup2\n      add\n      swap1\n      tag_6\n      swap2\n      swap1\n      tag_7\n      jump\t// in\n    tag_6:\n      tag_8\n      jump\t// in\n    tag_5:\n      mload(0x40)\n      tag_9\n      swap3\n      swap2\n      swap1\n      tag_10\n      jump\t// in\n    tag_9:\n      mload(0x40)\n      dup1\n      swap2\n      sub\n      swap1\n      return\n        /* \"Day23_DataLocation.sol\":256:696  function examples (uint[] calldata y, string memory s) external returns (uint[] memory) {... */\n    tag_4:\n      tag_11\n      0x04\n      dup1\n      calldatasize\n      sub\n      dup2\n      add\n      swap1\n      tag_12\n      swap2\n      swap1\n      tag_13\n      jump\t// in\n    tag_12:\n      tag_14\n      jump\t// in\n    tag_11:\n      mload(0x40)\n      tag_15\n      swap2\n      swap1\n      tag_16\n      jump\t// in\n    tag_15:\n      mload(0x40)\n      dup1\n      swap2\n      sub\n      swap1\n      return\n        /* \"Day23_DataLocation.sol\":204:249  mapping(address => MyStruct) public myStructs */\n    tag_8:\n      mstore(0x20, 0x00)\n      dup1\n      0x00\n      mstore\n      keccak256(0x00, 0x40)\n      0x00\n      swap2\n      pop\n      swap1\n      pop\n      dup1\n      0x00\n      add\n      sload\n      swap1\n      dup1\n      0x01\n      add\n      dup1\n      sload\n      tag_17\n      swap1\n      tag_18\n      jump\t// in\n    tag_17:\n      dup1\n      0x1f\n      add\n      0x20\n      dup1\n      swap2\n      div\n      mul\n      0x20\n      add\n      mload(0x40)\n      swap1\n      dup2\n      add\n      0x40\n      mstore\n      dup1\n      swap3\n      swap2\n      swap1\n      dup2\n      dup2\n      mstore\n      0x20\n      add\n      dup3\n      dup1\n      sload\n      tag_19\n      swap1\n      tag_18\n      jump\t// in\n    tag_19:\n      dup1\n      iszero\n      tag_20\n      jumpi\n      dup1\n      0x1f\n      lt\n      tag_21\n      jumpi\n      0x0100\n      dup1\n      dup4\n      sload\n      div\n      mul\n      dup4\n      mstore\n      swap2\n      0x20\n      add\n      swap2\n      jump(tag_20)\n    tag_21:\n      dup3\n      add\n      swap2\n      swap1\n      0x00\n      mstore\n      keccak256(0x00, 0x20)\n      swap1\n    tag_22:\n      dup2\n      sload\n      dup2\n      mstore\n      swap1\n      0x01\n      add\n      swap1\n      0x20\n      add\n      dup1\n      dup4\n      gt\n      tag_22\n      jumpi\n      dup3\n      swap1\n      sub\n      0x1f\n      and\n      dup3\n      add\n      swap2\n    tag_20:\n      pop\n      pop\n      pop\n      pop\n      pop\n      swap1\n      pop\n      dup3\n      jump\t// out\n        /* \"Day23_DataLocation.sol\":256:696  function examples (uint[] calldata y, string memory s) external returns (uint[] memory) {... */\n    tag_14:\n        /* \"Day23_DataLocation.sol\":329:342  uint[] memory */\n      0x60\n        /* \"Day23_DataLocation.sol\":378:411  MyStruct({ foo:123, text:\"bar\" }) */\n      mload(0x40)\n      dup1\n      0x40\n      add\n      0x40\n      mstore\n      dup1\n        /* \"Day23_DataLocation.sol\":393:396  123 */\n      0x7b\n        /* \"Day23_DataLocation.sol\":378:411  MyStruct({ foo:123, text:\"bar\" }) */\n      dup2\n      mstore\n      0x20\n      add\n      mload(0x40)\n      dup1\n      0x40\n      add\n      0x40\n      mstore\n      dup1\n      0x03\n      dup2\n      mstore\n      0x20\n      add\n      0x6261720000000000000000000000000000000000000000000000000000000000\n      dup2\n      mstore\n      pop\n      dup2\n      mstore\n      pop\n        /* \"Day23_DataLocation.sol\":354:363  myStructs */\n      0x00\n        /* \"Day23_DataLocation.sol\":354:375  myStructs[msg.sender] */\n      dup1\n        /* \"Day23_DataLocation.sol\":364:374  msg.sender */\n      caller\n        /* \"Day23_DataLocation.sol\":354:375  myStructs[msg.sender] */\n      0xffffffffffffffffffffffffffffffffffffffff\n      and\n      0xffffffffffffffffffffffffffffffffffffffff\n      and\n      dup2\n      mstore\n      0x20\n      add\n      swap1\n      dup2\n      mstore\n      0x20\n      add\n      0x00\n      keccak256\n        /* \"Day23_DataLocation.sol\":354:411  myStructs[msg.sender] = MyStruct({ foo:123, text:\"bar\" }) */\n      0x00\n      dup3\n      add\n      mload\n      dup2\n      0x00\n      add\n      sstore\n      0x20\n      dup3\n      add\n      mload\n      dup2\n      0x01\n      add\n      swap1\n      dup1\n      mload\n      swap1\n      0x20\n      add\n      swap1\n      tag_24\n      swap3\n      swap2\n      swap1\n      tag_25\n      jump\t// in\n    tag_24:\n      pop\n      swap1\n      pop\n      pop\n        /* \"Day23_DataLocation.sol\":422:447  MyStruct storage myStruct */\n      0x00\n        /* \"Day23_DataLocation.sol\":450:459  myStructs */\n      dup1\n        /* \"Day23_DataLocation.sol\":450:471  myStructs[msg.sender] */\n      0x00\n        /* \"Day23_DataLocation.sol\":460:470  msg.sender */\n      caller\n        /* \"Day23_DataLocation.sol\":450:471  myStructs[msg.sender] */\n      0xffffffffffffffffffffffffffffffffffffffff\n      and\n      0xffffffffffffffffffffffffffffffffffffffff\n      and\n      dup2\n      mstore\n      0x20\n      add\n      swap1\n      dup2\n      mstore\n      0x20\n      add\n      0x00\n      keccak256\n        /* \"Day23_DataLocation.sol\":422:471  MyStruct storage myStruct = myStructs[msg.sender] */\n      swap1\n      pop\n        /* \"Day23_DataLocation.sol\":481:502  myStruct.text = \"foo\" */\n      mload(0x40)\n      dup1\n      0x40\n      add\n      0x40\n      mstore\n      dup1\n      0x03\n      dup2\n      mstore\n      0x20\n      add\n      0x666f6f0000000000000000000000000000000000000000000000000000000000\n      dup2\n      mstore\n      pop\n        /* \"Day23_DataLocation.sol\":481:489  myStruct */\n      dup2\n        /* \"Day23_DataLocation.sol\":481:494  myStruct.text */\n      0x01\n      add\n        /* \"Day23_DataLocation.sol\":481:502  myStruct.text = \"foo\" */\n      swap1\n      dup1\n      mload\n      swap1\n      0x20\n      add\n      swap1\n      tag_26\n      swap3\n      swap2\n      swap1\n      tag_25\n      jump\t// in\n    tag_26:\n      pop\n        /* \"Day23_DataLocation.sol\":513:537  MyStruct memory mystruct */\n      0x00\n        /* \"Day23_DataLocation.sol\":540:549  myStructs */\n      dup1\n        /* \"Day23_DataLocation.sol\":540:561  myStructs[msg.sender] */\n      0x00\n        /* \"Day23_DataLocation.sol\":550:560  msg.sender */\n      caller\n        /* \"Day23_DataLocation.sol\":540:561  myStructs[msg.sender] */\n      0xffffffffffffffffffffffffffffffffffffffff\n      and\n      0xffffffffffffffffffffffffffffffffffffffff\n      and\n      dup2\n      mstore\n      0x20\n      add\n      swap1\n      dup2\n      mstore\n      0x20\n      add\n      0x00\n      keccak256\n        /* \"Day23_DataLocation.sol\":513:561  MyStruct memory mystruct = myStructs[msg.sender] */\n      mload(0x40)\n      dup1\n      0x40\n      add\n      0x40\n      mstore\n      swap1\n      dup2\n      0x00\n      dup3\n      add\n      sload\n      dup2\n      mstore\n      0x20\n      add\n      0x01\n      dup3\n      add\n      dup1\n      sload\n      tag_27\n      swap1\n      tag_18\n      jump\t// in\n    tag_27:\n      dup1\n      0x1f\n      add\n      0x20\n      dup1\n      swap2\n      div\n      mul\n      0x20\n      add\n      mload(0x40)\n      swap1\n      dup2\n      add\n      0x40\n      mstore\n      dup1\n      swap3\n      swap2\n      swap1\n      dup2\n      dup2\n      mstore\n      0x20\n      add\n      dup3\n      dup1\n      sload\n      tag_28\n      swap1\n      tag_18\n      jump\t// in\n    tag_28:\n      dup1\n      iszero\n      tag_29\n      jumpi\n      dup1\n      0x1f\n      lt\n      tag_30\n      jumpi\n      0x0100\n      dup1\n      dup4\n      sload\n      div\n      mul\n      dup4\n      mstore\n      swap2\n      0x20\n      add\n      swap2\n      jump(tag_29)\n    tag_30:\n      dup3\n      add\n      swap2\n      swap1\n      0x00\n      mstore\n      keccak256(0x00, 0x20)\n      swap1\n    tag_31:\n      dup2\n      sload\n      dup2\n      mstore\n      swap1\n      0x01\n      add\n      swap1\n      0x20\n      add\n      dup1\n      dup4\n      gt\n      tag_31\n      jumpi\n      dup3\n      swap1\n      sub\n      0x1f\n      and\n      dup3\n      add\n      swap2\n    tag_29:\n      pop\n      pop\n      pop\n      pop\n      pop\n      dup2\n      mstore\n      pop\n      pop\n      swap1\n      pop\n        /* \"Day23_DataLocation.sol\":571:592  mystruct.text = \"456\" */\n      mload(0x40)\n      dup1\n      0x40\n      add\n      0x40\n      mstore\n      dup1\n      0x03\n      dup2\n      mstore\n      0x20\n      add\n      0x3435360000000000000000000000000000000000000000000000000000000000\n      dup2\n      mstore\n      pop\n        /* \"Day23_DataLocation.sol\":571:579  mystruct */\n      dup2\n        /* \"Day23_DataLocation.sol\":571:584  mystruct.text */\n      0x20\n      add\n        /* \"Day23_DataLocation.sol\":571:592  mystruct.text = \"456\" */\n      dup2\n      swap1\n      mstore\n      pop\n        /* \"Day23_DataLocation.sol\":603:623  uint[] memory memArr */\n      0x00\n        /* \"Day23_DataLocation.sol\":637:638  3 */\n      0x03\n        /* \"Day23_DataLocation.sol\":626:639  new uint[](3) */\n      0xffffffffffffffff\n      dup2\n      gt\n      iszero\n      tag_32\n      jumpi\n      tag_33\n      tag_34\n      jump\t// in\n    tag_33:\n    tag_32:\n      mload(0x40)\n      swap1\n      dup1\n      dup3\n      mstore\n      dup1\n      0x20\n      mul\n      0x20\n      add\n      dup3\n      add\n      0x40\n      mstore\n      dup1\n      iszero\n      tag_35\n      jumpi\n      dup2\n      0x20\n      add\n      0x20\n      dup3\n      mul\n      dup1\n      calldatasize\n      dup4\n      calldatacopy\n      dup1\n      dup3\n      add\n      swap2\n      pop\n      pop\n      swap1\n      pop\n    tag_35:\n      pop\n        /* \"Day23_DataLocation.sol\":603:639  uint[] memory memArr = new uint[](3) */\n      swap1\n      pop\n        /* \"Day23_DataLocation.sol\":661:664  234 */\n      0xea\n        /* \"Day23_DataLocation.sol\":649:655  memArr */\n      dup2\n        /* \"Day23_DataLocation.sol\":656:657  0 */\n      0x00\n        /* \"Day23_DataLocation.sol\":649:658  memArr[0] */\n      dup2\n      mload\n      dup2\n      lt\n      tag_36\n      jumpi\n      tag_37\n      tag_38\n      jump\t// in\n    tag_37:\n    tag_36:\n      0x20\n      mul\n      0x20\n      add\n      add\n        /* \"Day23_DataLocation.sol\":649:664  memArr[0] = 234 */\n      dup2\n      dup2\n      mstore\n      pop\n      pop\n        /* \"Day23_DataLocation.sol\":681:687  memArr */\n      dup1\n        /* \"Day23_DataLocation.sol\":674:687  return memArr */\n      swap4\n      pop\n      pop\n      pop\n      pop\n        /* \"Day23_DataLocation.sol\":256:696  function examples (uint[] calldata y, string memory s) external returns (uint[] memory) {... */\n      swap4\n      swap3\n      pop\n      pop\n      pop\n      jump\t// out\n    tag_25:\n      dup3\n      dup1\n      sload\n      tag_39\n      swap1\n      tag_18\n      jump\t// in\n    tag_39:\n      swap1\n      0x00\n      mstore\n      keccak256(0x00, 0x20)\n      swap1\n      0x1f\n      add\n      0x20\n      swap1\n      div\n      dup2\n      add\n      swap3\n      dup3\n      tag_41\n      jumpi\n      0x00\n      dup6\n      sstore\n      jump(tag_40)\n    tag_41:\n      dup3\n      0x1f\n      lt\n      tag_42\n      jumpi\n      dup1\n      mload\n      not(0xff)\n      and\n      dup4\n      dup1\n      add\n      or\n      dup6\n      sstore\n      jump(tag_40)\n    tag_42:\n      dup3\n      dup1\n      add\n      0x01\n      add\n      dup6\n      sstore\n      dup3\n      iszero\n      tag_40\n      jumpi\n      swap2\n      dup3\n      add\n    tag_43:\n      dup3\n      dup2\n      gt\n      iszero\n      tag_44\n      jumpi\n      dup3\n      mload\n      dup3\n      sstore\n      swap2\n      0x20\n      add\n      swap2\n      swap1\n      0x01\n      add\n      swap1\n      jump(tag_43)\n    tag_44:\n    tag_40:\n      pop\n      swap1\n      pop\n      tag_45\n      swap2\n      swap1\n      tag_46\n      jump\t// in\n    tag_45:\n      pop\n      swap1\n      jump\t// out\n    tag_46:\n    tag_47:\n      dup1\n      dup3\n      gt\n      iszero\n      tag_48\n      jumpi\n      0x00\n      dup2\n      0x00\n      swap1\n      sstore\n      pop\n      0x01\n      add\n      jump(tag_47)\n    tag_48:\n      pop\n      swap1\n      jump\t// out\n        /* \"#utility.yul\":7:419   */\n    tag_50:\n        /* \"#utility.yul\":85:90   */\n      0x00\n        /* \"#utility.yul\":110:176   */\n      tag_52\n        /* \"#utility.yul\":126:175   */\n      tag_53\n        /* \"#utility.yul\":168:174   */\n      dup5\n        /* \"#utility.yul\":126:175   */\n      tag_54\n      jump\t// in\n    tag_53:\n        /* \"#utility.yul\":110:176   */\n      tag_55\n      jump\t// in\n    tag_52:\n        /* \"#utility.yul\":101:176   */\n      swap1\n      pop\n        /* \"#utility.yul\":199:205   */\n      dup3\n        /* \"#utility.yul\":192:197   */\n      dup2\n        /* \"#utility.yul\":185:206   */\n      mstore\n        /* \"#utility.yul\":237:241   */\n      0x20\n        /* \"#utility.yul\":230:235   */\n      dup2\n        /* \"#utility.yul\":226:242   */\n      add\n        /* \"#utility.yul\":275:278   */\n      dup5\n        /* \"#utility.yul\":266:272   */\n      dup5\n        /* \"#utility.yul\":261:264   */\n      dup5\n        /* \"#utility.yul\":257:273   */\n      add\n        /* \"#utility.yul\":254:279   */\n      gt\n        /* \"#utility.yul\":251:363   */\n      iszero\n      tag_56\n      jumpi\n        /* \"#utility.yul\":282:361   */\n      tag_57\n      tag_58\n      jump\t// in\n    tag_57:\n        /* \"#utility.yul\":251:363   */\n    tag_56:\n        /* \"#utility.yul\":372:413   */\n      tag_59\n        /* \"#utility.yul\":406:412   */\n      dup5\n        /* \"#utility.yul\":401:404   */\n      dup3\n        /* \"#utility.yul\":396:399   */\n      dup6\n        /* \"#utility.yul\":372:413   */\n      tag_60\n      jump\t// in\n    tag_59:\n        /* \"#utility.yul\":91:419   */\n      pop\n        /* \"#utility.yul\":7:419   */\n      swap4\n      swap3\n      pop\n      pop\n      pop\n      jump\t// out\n        /* \"#utility.yul\":425:564   */\n    tag_61:\n        /* \"#utility.yul\":471:476   */\n      0x00\n        /* \"#utility.yul\":509:515   */\n      dup2\n        /* \"#utility.yul\":496:516   */\n      calldataload\n        /* \"#utility.yul\":487:516   */\n      swap1\n      pop\n        /* \"#utility.yul\":525:558   */\n      tag_63\n        /* \"#utility.yul\":552:557   */\n      dup2\n        /* \"#utility.yul\":525:558   */\n      tag_64\n      jump\t// in\n    tag_63:\n        /* \"#utility.yul\":425:564   */\n      swap3\n      swap2\n      pop\n      pop\n      jump\t// out\n        /* \"#utility.yul\":587:1155   */\n    tag_65:\n        /* \"#utility.yul\":660:668   */\n      0x00\n        /* \"#utility.yul\":670:676   */\n      dup1\n        /* \"#utility.yul\":720:723   */\n      dup4\n        /* \"#utility.yul\":713:717   */\n      0x1f\n        /* \"#utility.yul\":705:711   */\n      dup5\n        /* \"#utility.yul\":701:718   */\n      add\n        /* \"#utility.yul\":697:724   */\n      slt\n        /* \"#utility.yul\":687:809   */\n      tag_67\n      jumpi\n        /* \"#utility.yul\":728:807   */\n      tag_68\n      tag_69\n      jump\t// in\n    tag_68:\n        /* \"#utility.yul\":687:809   */\n    tag_67:\n        /* \"#utility.yul\":841:847   */\n      dup3\n        /* \"#utility.yul\":828:848   */\n      calldataload\n        /* \"#utility.yul\":818:848   */\n      swap1\n      pop\n        /* \"#utility.yul\":871:889   */\n      0xffffffffffffffff\n        /* \"#utility.yul\":863:869   */\n      dup2\n        /* \"#utility.yul\":860:890   */\n      gt\n        /* \"#utility.yul\":857:974   */\n      iszero\n      tag_70\n      jumpi\n        /* \"#utility.yul\":893:972   */\n      tag_71\n      tag_72\n      jump\t// in\n    tag_71:\n        /* \"#utility.yul\":857:974   */\n    tag_70:\n        /* \"#utility.yul\":1007:1011   */\n      0x20\n        /* \"#utility.yul\":999:1005   */\n      dup4\n        /* \"#utility.yul\":995:1012   */\n      add\n        /* \"#utility.yul\":983:1012   */\n      swap2\n      pop\n        /* \"#utility.yul\":1061:1064   */\n      dup4\n        /* \"#utility.yul\":1053:1057   */\n      0x20\n        /* \"#utility.yul\":1045:1051   */\n      dup3\n        /* \"#utility.yul\":1041:1058   */\n      mul\n        /* \"#utility.yul\":1031:1039   */\n      dup4\n        /* \"#utility.yul\":1027:1059   */\n      add\n        /* \"#utility.yul\":1024:1065   */\n      gt\n        /* \"#utility.yul\":1021:1149   */\n      iszero\n      tag_73\n      jumpi\n        /* \"#utility.yul\":1068:1147   */\n      tag_74\n      tag_75\n      jump\t// in\n    tag_74:\n        /* \"#utility.yul\":1021:1149   */\n    tag_73:\n        /* \"#utility.yul\":587:1155   */\n      swap3\n      pop\n      swap3\n      swap1\n      pop\n      jump\t// out\n        /* \"#utility.yul\":1175:1515   */\n    tag_76:\n        /* \"#utility.yul\":1231:1236   */\n      0x00\n        /* \"#utility.yul\":1280:1283   */\n      dup3\n        /* \"#utility.yul\":1273:1277   */\n      0x1f\n        /* \"#utility.yul\":1265:1271   */\n      dup4\n        /* \"#utility.yul\":1261:1278   */\n      add\n        /* \"#utility.yul\":1257:1284   */\n      slt\n        /* \"#utility.yul\":1247:1369   */\n      tag_78\n      jumpi\n        /* \"#utility.yul\":1288:1367   */\n      tag_79\n      tag_69\n      jump\t// in\n    tag_79:\n        /* \"#utility.yul\":1247:1369   */\n    tag_78:\n        /* \"#utility.yul\":1405:1411   */\n      dup2\n        /* \"#utility.yul\":1392:1412   */\n      calldataload\n        /* \"#utility.yul\":1430:1509   */\n      tag_80\n        /* \"#utility.yul\":1505:1508   */\n      dup5\n        /* \"#utility.yul\":1497:1503   */\n      dup3\n        /* \"#utility.yul\":1490:1494   */\n      0x20\n        /* \"#utility.yul\":1482:1488   */\n      dup7\n        /* \"#utility.yul\":1478:1495   */\n      add\n        /* \"#utility.yul\":1430:1509   */\n      tag_50\n      jump\t// in\n    tag_80:\n        /* \"#utility.yul\":1421:1509   */\n      swap2\n      pop\n        /* \"#utility.yul\":1237:1515   */\n      pop\n        /* \"#utility.yul\":1175:1515   */\n      swap3\n      swap2\n      pop\n      pop\n      jump\t// out\n        /* \"#utility.yul\":1521:1850   */\n    tag_7:\n        /* \"#utility.yul\":1580:1586   */\n      0x00\n        /* \"#utility.yul\":1629:1631   */\n      0x20\n        /* \"#utility.yul\":1617:1626   */\n      dup3\n        /* \"#utility.yul\":1608:1615   */\n      dup5\n        /* \"#utility.yul\":1604:1627   */\n      sub\n        /* \"#utility.yul\":1600:1632   */\n      slt\n        /* \"#utility.yul\":1597:1716   */\n      iszero\n      tag_82\n      jumpi\n        /* \"#utility.yul\":1635:1714   */\n      tag_83\n      tag_84\n      jump\t// in\n    tag_83:\n        /* \"#utility.yul\":1597:1716   */\n    tag_82:\n        /* \"#utility.yul\":1755:1756   */\n      0x00\n        /* \"#utility.yul\":1780:1833   */\n      tag_85\n        /* \"#utility.yul\":1825:1832   */\n      dup5\n        /* \"#utility.yul\":1816:1822   */\n      dup3\n        /* \"#utility.yul\":1805:1814   */\n      dup6\n        /* \"#utility.yul\":1801:1823   */\n      add\n        /* \"#utility.yul\":1780:1833   */\n      tag_61\n      jump\t// in\n    tag_85:\n        /* \"#utility.yul\":1770:1833   */\n      swap2\n      pop\n        /* \"#utility.yul\":1726:1843   */\n      pop\n        /* \"#utility.yul\":1521:1850   */\n      swap3\n      swap2\n      pop\n      pop\n      jump\t// out\n        /* \"#utility.yul\":1856:2740   */\n    tag_13:\n        /* \"#utility.yul\":1961:1967   */\n      0x00\n        /* \"#utility.yul\":1969:1975   */\n      dup1\n        /* \"#utility.yul\":1977:1983   */\n      0x00\n        /* \"#utility.yul\":2026:2028   */\n      0x40\n        /* \"#utility.yul\":2014:2023   */\n      dup5\n        /* \"#utility.yul\":2005:2012   */\n      dup7\n        /* \"#utility.yul\":2001:2024   */\n      sub\n        /* \"#utility.yul\":1997:2029   */\n      slt\n        /* \"#utility.yul\":1994:2113   */\n      iszero\n      tag_87\n      jumpi\n        /* \"#utility.yul\":2032:2111   */\n      tag_88\n      tag_84\n      jump\t// in\n    tag_88:\n        /* \"#utility.yul\":1994:2113   */\n    tag_87:\n        /* \"#utility.yul\":2180:2181   */\n      0x00\n        /* \"#utility.yul\":2169:2178   */\n      dup5\n        /* \"#utility.yul\":2165:2182   */\n      add\n        /* \"#utility.yul\":2152:2183   */\n      calldataload\n        /* \"#utility.yul\":2210:2228   */\n      0xffffffffffffffff\n        /* \"#utility.yul\":2202:2208   */\n      dup2\n        /* \"#utility.yul\":2199:2229   */\n      gt\n        /* \"#utility.yul\":2196:2313   */\n      iszero\n      tag_89\n      jumpi\n        /* \"#utility.yul\":2232:2311   */\n      tag_90\n      tag_91\n      jump\t// in\n    tag_90:\n        /* \"#utility.yul\":2196:2313   */\n    tag_89:\n        /* \"#utility.yul\":2345:2425   */\n      tag_92\n        /* \"#utility.yul\":2417:2424   */\n      dup7\n        /* \"#utility.yul\":2408:2414   */\n      dup3\n        /* \"#utility.yul\":2397:2406   */\n      dup8\n        /* \"#utility.yul\":2393:2415   */\n      add\n        /* \"#utility.yul\":2345:2425   */\n      tag_65\n      jump\t// in\n    tag_92:\n        /* \"#utility.yul\":2327:2425   */\n      swap4\n      pop\n      swap4\n      pop\n        /* \"#utility.yul\":2123:2435   */\n      pop\n        /* \"#utility.yul\":2502:2504   */\n      0x20\n        /* \"#utility.yul\":2491:2500   */\n      dup5\n        /* \"#utility.yul\":2487:2505   */\n      add\n        /* \"#utility.yul\":2474:2506   */\n      calldataload\n        /* \"#utility.yul\":2533:2551   */\n      0xffffffffffffffff\n        /* \"#utility.yul\":2525:2531   */\n      dup2\n        /* \"#utility.yul\":2522:2552   */\n      gt\n        /* \"#utility.yul\":2519:2636   */\n      iszero\n      tag_93\n      jumpi\n        /* \"#utility.yul\":2555:2634   */\n      tag_94\n      tag_91\n      jump\t// in\n    tag_94:\n        /* \"#utility.yul\":2519:2636   */\n    tag_93:\n        /* \"#utility.yul\":2660:2723   */\n      tag_95\n        /* \"#utility.yul\":2715:2722   */\n      dup7\n        /* \"#utility.yul\":2706:2712   */\n      dup3\n        /* \"#utility.yul\":2695:2704   */\n      dup8\n        /* \"#utility.yul\":2691:2713   */\n      add\n        /* \"#utility.yul\":2660:2723   */\n      tag_76\n      jump\t// in\n    tag_95:\n        /* \"#utility.yul\":2650:2723   */\n      swap2\n      pop\n        /* \"#utility.yul\":2445:2733   */\n      pop\n        /* \"#utility.yul\":1856:2740   */\n      swap3\n      pop\n      swap3\n      pop\n      swap3\n      jump\t// out\n        /* \"#utility.yul\":2746:2925   */\n    tag_96:\n        /* \"#utility.yul\":2815:2825   */\n      0x00\n        /* \"#utility.yul\":2836:2882   */\n      tag_98\n        /* \"#utility.yul\":2878:2881   */\n      dup4\n        /* \"#utility.yul\":2870:2876   */\n      dup4\n        /* \"#utility.yul\":2836:2882   */\n      tag_99\n      jump\t// in\n    tag_98:\n        /* \"#utility.yul\":2914:2918   */\n      0x20\n        /* \"#utility.yul\":2909:2912   */\n      dup4\n        /* \"#utility.yul\":2905:2919   */\n      add\n        /* \"#utility.yul\":2891:2919   */\n      swap1\n      pop\n        /* \"#utility.yul\":2746:2925   */\n      swap3\n      swap2\n      pop\n      pop\n      jump\t// out\n        /* \"#utility.yul\":2961:3693   */\n    tag_100:\n        /* \"#utility.yul\":3080:3083   */\n      0x00\n        /* \"#utility.yul\":3109:3163   */\n      tag_102\n        /* \"#utility.yul\":3157:3162   */\n      dup3\n        /* \"#utility.yul\":3109:3163   */\n      tag_103\n      jump\t// in\n    tag_102:\n        /* \"#utility.yul\":3179:3265   */\n      tag_104\n        /* \"#utility.yul\":3258:3264   */\n      dup2\n        /* \"#utility.yul\":3253:3256   */\n      dup6\n        /* \"#utility.yul\":3179:3265   */\n      tag_105\n      jump\t// in\n    tag_104:\n        /* \"#utility.yul\":3172:3265   */\n      swap4\n      pop\n        /* \"#utility.yul\":3289:3345   */\n      tag_106\n        /* \"#utility.yul\":3339:3344   */\n      dup4\n        /* \"#utility.yul\":3289:3345   */\n      tag_107\n      jump\t// in\n    tag_106:\n        /* \"#utility.yul\":3368:3375   */\n      dup1\n        /* \"#utility.yul\":3399:3400   */\n      0x00\n        /* \"#utility.yul\":3384:3668   */\n    tag_108:\n        /* \"#utility.yul\":3409:3415   */\n      dup4\n        /* \"#utility.yul\":3406:3407   */\n      dup2\n        /* \"#utility.yul\":3403:3416   */\n      lt\n        /* \"#utility.yul\":3384:3668   */\n      iszero\n      tag_110\n      jumpi\n        /* \"#utility.yul\":3485:3491   */\n      dup2\n        /* \"#utility.yul\":3479:3492   */\n      mload\n        /* \"#utility.yul\":3512:3575   */\n      tag_111\n        /* \"#utility.yul\":3571:3574   */\n      dup9\n        /* \"#utility.yul\":3556:3569   */\n      dup3\n        /* \"#utility.yul\":3512:3575   */\n      tag_96\n      jump\t// in\n    tag_111:\n        /* \"#utility.yul\":3505:3575   */\n      swap8\n      pop\n        /* \"#utility.yul\":3598:3658   */\n      tag_112\n        /* \"#utility.yul\":3651:3657   */\n      dup4\n        /* \"#utility.yul\":3598:3658   */\n      tag_113\n      jump\t// in\n    tag_112:\n        /* \"#utility.yul\":3588:3658   */\n      swap3\n      pop\n        /* \"#utility.yul\":3444:3668   */\n      pop\n        /* \"#utility.yul\":3431:3432   */\n      0x01\n        /* \"#utility.yul\":3428:3429   */\n      dup2\n        /* \"#utility.yul\":3424:3433   */\n      add\n        /* \"#utility.yul\":3419:3433   */\n      swap1\n      pop\n        /* \"#utility.yul\":3384:3668   */\n      jump(tag_108)\n    tag_110:\n        /* \"#utility.yul\":3388:3402   */\n      pop\n        /* \"#utility.yul\":3684:3687   */\n      dup6\n        /* \"#utility.yul\":3677:3687   */\n      swap4\n      pop\n        /* \"#utility.yul\":3085:3693   */\n      pop\n      pop\n      pop\n        /* \"#utility.yul\":2961:3693   */\n      swap3\n      swap2\n      pop\n      pop\n      jump\t// out\n        /* \"#utility.yul\":3699:4063   */\n    tag_114:\n        /* \"#utility.yul\":3787:3790   */\n      0x00\n        /* \"#utility.yul\":3815:3854   */\n      tag_116\n        /* \"#utility.yul\":3848:3853   */\n      dup3\n        /* \"#utility.yul\":3815:3854   */\n      tag_117\n      jump\t// in\n    tag_116:\n        /* \"#utility.yul\":3870:3941   */\n      tag_118\n        /* \"#utility.yul\":3934:3940   */\n      dup2\n        /* \"#utility.yul\":3929:3932   */\n      dup6\n        /* \"#utility.yul\":3870:3941   */\n      tag_119\n      jump\t// in\n    tag_118:\n        /* \"#utility.yul\":3863:3941   */\n      swap4\n      pop\n        /* \"#utility.yul\":3950:4002   */\n      tag_120\n        /* \"#utility.yul\":3995:4001   */\n      dup2\n        /* \"#utility.yul\":3990:3993   */\n      dup6\n        /* \"#utility.yul\":3983:3987   */\n      0x20\n        /* \"#utility.yul\":3976:3981   */\n      dup7\n        /* \"#utility.yul\":3972:3988   */\n      add\n        /* \"#utility.yul\":3950:4002   */\n      tag_121\n      jump\t// in\n    tag_120:\n        /* \"#utility.yul\":4027:4056   */\n      tag_122\n        /* \"#utility.yul\":4049:4055   */\n      dup2\n        /* \"#utility.yul\":4027:4056   */\n      tag_123\n      jump\t// in\n    tag_122:\n        /* \"#utility.yul\":4022:4025   */\n      dup5\n        /* \"#utility.yul\":4018:4057   */\n      add\n        /* \"#utility.yul\":4011:4057   */\n      swap2\n      pop\n        /* \"#utility.yul\":3791:4063   */\n      pop\n        /* \"#utility.yul\":3699:4063   */\n      swap3\n      swap2\n      pop\n      pop\n      jump\t// out\n        /* \"#utility.yul\":4069:4177   */\n    tag_99:\n        /* \"#utility.yul\":4146:4170   */\n      tag_125\n        /* \"#utility.yul\":4164:4169   */\n      dup2\n        /* \"#utility.yul\":4146:4170   */\n      tag_126\n      jump\t// in\n    tag_125:\n        /* \"#utility.yul\":4141:4144   */\n      dup3\n        /* \"#utility.yul\":4134:4171   */\n      mstore\n        /* \"#utility.yul\":4069:4177   */\n      pop\n      pop\n      jump\t// out\n        /* \"#utility.yul\":4183:4301   */\n    tag_127:\n        /* \"#utility.yul\":4270:4294   */\n      tag_129\n        /* \"#utility.yul\":4288:4293   */\n      dup2\n        /* \"#utility.yul\":4270:4294   */\n      tag_126\n      jump\t// in\n    tag_129:\n        /* \"#utility.yul\":4265:4268   */\n      dup3\n        /* \"#utility.yul\":4258:4295   */\n      mstore\n        /* \"#utility.yul\":4183:4301   */\n      pop\n      pop\n      jump\t// out\n        /* \"#utility.yul\":4307:4680   */\n    tag_16:\n        /* \"#utility.yul\":4450:4454   */\n      0x00\n        /* \"#utility.yul\":4488:4490   */\n      0x20\n        /* \"#utility.yul\":4477:4486   */\n      dup3\n        /* \"#utility.yul\":4473:4491   */\n      add\n        /* \"#utility.yul\":4465:4491   */\n      swap1\n      pop\n        /* \"#utility.yul\":4537:4546   */\n      dup2\n        /* \"#utility.yul\":4531:4535   */\n      dup2\n        /* \"#utility.yul\":4527:4547   */\n      sub\n        /* \"#utility.yul\":4523:4524   */\n      0x00\n        /* \"#utility.yul\":4512:4521   */\n      dup4\n        /* \"#utility.yul\":4508:4525   */\n      add\n        /* \"#utility.yul\":4501:4548   */\n      mstore\n        /* \"#utility.yul\":4565:4673   */\n      tag_131\n        /* \"#utility.yul\":4668:4672   */\n      dup2\n        /* \"#utility.yul\":4659:4665   */\n      dup5\n        /* \"#utility.yul\":4565:4673   */\n      tag_100\n      jump\t// in\n    tag_131:\n        /* \"#utility.yul\":4557:4673   */\n      swap1\n      pop\n        /* \"#utility.yul\":4307:4680   */\n      swap3\n      swap2\n      pop\n      pop\n      jump\t// out\n        /* \"#utility.yul\":4686:5109   */\n    tag_10:\n        /* \"#utility.yul\":4827:4831   */\n      0x00\n        /* \"#utility.yul\":4865:4867   */\n      0x40\n        /* \"#utility.yul\":4854:4863   */\n      dup3\n        /* \"#utility.yul\":4850:4868   */\n      add\n        /* \"#utility.yul\":4842:4868   */\n      swap1\n      pop\n        /* \"#utility.yul\":4878:4949   */\n      tag_133\n        /* \"#utility.yul\":4946:4947   */\n      0x00\n        /* \"#utility.yul\":4935:4944   */\n      dup4\n        /* \"#utility.yul\":4931:4948   */\n      add\n        /* \"#utility.yul\":4922:4928   */\n      dup6\n        /* \"#utility.yul\":4878:4949   */\n      tag_127\n      jump\t// in\n    tag_133:\n        /* \"#utility.yul\":4996:5005   */\n      dup2\n        /* \"#utility.yul\":4990:4994   */\n      dup2\n        /* \"#utility.yul\":4986:5006   */\n      sub\n        /* \"#utility.yul\":4981:4983   */\n      0x20\n        /* \"#utility.yul\":4970:4979   */\n      dup4\n        /* \"#utility.yul\":4966:4984   */\n      add\n        /* \"#utility.yul\":4959:5007   */\n      mstore\n        /* \"#utility.yul\":5024:5102   */\n      tag_134\n        /* \"#utility.yul\":5097:5101   */\n      dup2\n        /* \"#utility.yul\":5088:5094   */\n      dup5\n        /* \"#utility.yul\":5024:5102   */\n      tag_114\n      jump\t// in\n    tag_134:\n        /* \"#utility.yul\":5016:5102   */\n      swap1\n      pop\n        /* \"#utility.yul\":4686:5109   */\n      swap4\n      swap3\n      pop\n      pop\n      pop\n      jump\t// out\n        /* \"#utility.yul\":5115:5244   */\n    tag_55:\n        /* \"#utility.yul\":5149:5155   */\n      0x00\n        /* \"#utility.yul\":5176:5196   */\n      tag_136\n      tag_137\n      jump\t// in\n    tag_136:\n        /* \"#utility.yul\":5166:5196   */\n      swap1\n      pop\n        /* \"#utility.yul\":5205:5238   */\n      tag_138\n        /* \"#utility.yul\":5233:5237   */\n      dup3\n        /* \"#utility.yul\":5225:5231   */\n      dup3\n        /* \"#utility.yul\":5205:5238   */\n      tag_139\n      jump\t// in\n    tag_138:\n        /* \"#utility.yul\":5115:5244   */\n      swap2\n      swap1\n      pop\n      jump\t// out\n        /* \"#utility.yul\":5250:5325   */\n    tag_137:\n        /* \"#utility.yul\":5283:5289   */\n      0x00\n        /* \"#utility.yul\":5316:5318   */\n      0x40\n        /* \"#utility.yul\":5310:5319   */\n      mload\n        /* \"#utility.yul\":5300:5319   */\n      swap1\n      pop\n        /* \"#utility.yul\":5250:5325   */\n      swap1\n      jump\t// out\n        /* \"#utility.yul\":5331:5639   */\n    tag_54:\n        /* \"#utility.yul\":5393:5397   */\n      0x00\n        /* \"#utility.yul\":5483:5501   */\n      0xffffffffffffffff\n        /* \"#utility.yul\":5475:5481   */\n      dup3\n        /* \"#utility.yul\":5472:5502   */\n      gt\n        /* \"#utility.yul\":5469:5525   */\n      iszero\n      tag_142\n      jumpi\n        /* \"#utility.yul\":5505:5523   */\n      tag_143\n      tag_34\n      jump\t// in\n    tag_143:\n        /* \"#utility.yul\":5469:5525   */\n    tag_142:\n        /* \"#utility.yul\":5543:5572   */\n      tag_144\n        /* \"#utility.yul\":5565:5571   */\n      dup3\n        /* \"#utility.yul\":5543:5572   */\n      tag_123\n      jump\t// in\n    tag_144:\n        /* \"#utility.yul\":5535:5572   */\n      swap1\n      pop\n        /* \"#utility.yul\":5627:5631   */\n      0x20\n        /* \"#utility.yul\":5621:5625   */\n      dup2\n        /* \"#utility.yul\":5617:5632   */\n      add\n        /* \"#utility.yul\":5609:5632   */\n      swap1\n      pop\n        /* \"#utility.yul\":5331:5639   */\n      swap2\n      swap1\n      pop\n      jump\t// out\n        /* \"#utility.yul\":5645:5777   */\n    tag_107:\n        /* \"#utility.yul\":5712:5716   */\n      0x00\n        /* \"#utility.yul\":5735:5738   */\n      dup2\n        /* \"#utility.yul\":5727:5738   */\n      swap1\n      pop\n        /* \"#utility.yul\":5765:5769   */\n      0x20\n        /* \"#utility.yul\":5760:5763   */\n      dup3\n        /* \"#utility.yul\":5756:5770   */\n      add\n        /* \"#utility.yul\":5748:5770   */\n      swap1\n      pop\n        /* \"#utility.yul\":5645:5777   */\n      swap2\n      swap1\n      pop\n      jump\t// out\n        /* \"#utility.yul\":5783:5897   */\n    tag_103:\n        /* \"#utility.yul\":5850:5856   */\n      0x00\n        /* \"#utility.yul\":5884:5889   */\n      dup2\n        /* \"#utility.yul\":5878:5890   */\n      mload\n        /* \"#utility.yul\":5868:5890   */\n      swap1\n      pop\n        /* \"#utility.yul\":5783:5897   */\n      swap2\n      swap1\n      pop\n      jump\t// out\n        /* \"#utility.yul\":5903:6002   */\n    tag_117:\n        /* \"#utility.yul\":5955:5961   */\n      0x00\n        /* \"#utility.yul\":5989:5994   */\n      dup2\n        /* \"#utility.yul\":5983:5995   */\n      mload\n        /* \"#utility.yul\":5973:5995   */\n      swap1\n      pop\n        /* \"#utility.yul\":5903:6002   */\n      swap2\n      swap1\n      pop\n      jump\t// out\n        /* \"#utility.yul\":6008:6121   */\n    tag_113:\n        /* \"#utility.yul\":6078:6082   */\n      0x00\n        /* \"#utility.yul\":6110:6114   */\n      0x20\n        /* \"#utility.yul\":6105:6108   */\n      dup3\n        /* \"#utility.yul\":6101:6115   */\n      add\n        /* \"#utility.yul\":6093:6115   */\n      swap1\n      pop\n        /* \"#utility.yul\":6008:6121   */\n      swap2\n      swap1\n      pop\n      jump\t// out\n        /* \"#utility.yul\":6127:6311   */\n    tag_105:\n        /* \"#utility.yul\":6226:6237   */\n      0x00\n        /* \"#utility.yul\":6260:6266   */\n      dup3\n        /* \"#utility.yul\":6255:6258   */\n      dup3\n        /* \"#utility.yul\":6248:6267   */\n      mstore\n        /* \"#utility.yul\":6300:6304   */\n      0x20\n        /* \"#utility.yul\":6295:6298   */\n      dup3\n        /* \"#utility.yul\":6291:6305   */\n      add\n        /* \"#utility.yul\":6276:6305   */\n      swap1\n      pop\n        /* \"#utility.yul\":6127:6311   */\n      swap3\n      swap2\n      pop\n      pop\n      jump\t// out\n        /* \"#utility.yul\":6317:6486   */\n    tag_119:\n        /* \"#utility.yul\":6401:6412   */\n      0x00\n        /* \"#utility.yul\":6435:6441   */\n      dup3\n        /* \"#utility.yul\":6430:6433   */\n      dup3\n        /* \"#utility.yul\":6423:6442   */\n      mstore\n        /* \"#utility.yul\":6475:6479   */\n      0x20\n        /* \"#utility.yul\":6470:6473   */\n      dup3\n        /* \"#utility.yul\":6466:6480   */\n      add\n        /* \"#utility.yul\":6451:6480   */\n      swap1\n      pop\n        /* \"#utility.yul\":6317:6486   */\n      swap3\n      swap2\n      pop\n      pop\n      jump\t// out\n        /* \"#utility.yul\":6492:6588   */\n    tag_151:\n        /* \"#utility.yul\":6529:6536   */\n      0x00\n        /* \"#utility.yul\":6558:6582   */\n      tag_153\n        /* \"#utility.yul\":6576:6581   */\n      dup3\n        /* \"#utility.yul\":6558:6582   */\n      tag_154\n      jump\t// in\n    tag_153:\n        /* \"#utility.yul\":6547:6582   */\n      swap1\n      pop\n        /* \"#utility.yul\":6492:6588   */\n      swap2\n      swap1\n      pop\n      jump\t// out\n        /* \"#utility.yul\":6594:6720   */\n    tag_154:\n        /* \"#utility.yul\":6631:6638   */\n      0x00\n        /* \"#utility.yul\":6671:6713   */\n      0xffffffffffffffffffffffffffffffffffffffff\n        /* \"#utility.yul\":6664:6669   */\n      dup3\n        /* \"#utility.yul\":6660:6714   */\n      and\n        /* \"#utility.yul\":6649:6714   */\n      swap1\n      pop\n        /* \"#utility.yul\":6594:6720   */\n      swap2\n      swap1\n      pop\n      jump\t// out\n        /* \"#utility.yul\":6726:6803   */\n    tag_126:\n        /* \"#utility.yul\":6763:6770   */\n      0x00\n        /* \"#utility.yul\":6792:6797   */\n      dup2\n        /* \"#utility.yul\":6781:6797   */\n      swap1\n      pop\n        /* \"#utility.yul\":6726:6803   */\n      swap2\n      swap1\n      pop\n      jump\t// out\n        /* \"#utility.yul\":6809:6963   */\n    tag_60:\n        /* \"#utility.yul\":6893:6899   */\n      dup3\n        /* \"#utility.yul\":6888:6891   */\n      dup2\n        /* \"#utility.yul\":6883:6886   */\n      dup4\n        /* \"#utility.yul\":6870:6900   */\n      calldatacopy\n        /* \"#utility.yul\":6955:6956   */\n      0x00\n        /* \"#utility.yul\":6946:6952   */\n      dup4\n        /* \"#utility.yul\":6941:6944   */\n      dup4\n        /* \"#utility.yul\":6937:6953   */\n      add\n        /* \"#utility.yul\":6930:6957   */\n      mstore\n        /* \"#utility.yul\":6809:6963   */\n      pop\n      pop\n      pop\n      jump\t// out\n        /* \"#utility.yul\":6969:7276   */\n    tag_121:\n        /* \"#utility.yul\":7037:7038   */\n      0x00\n        /* \"#utility.yul\":7047:7160   */\n    tag_159:\n        /* \"#utility.yul\":7061:7067   */\n      dup4\n        /* \"#utility.yul\":7058:7059   */\n      dup2\n        /* \"#utility.yul\":7055:7068   */\n      lt\n        /* \"#utility.yul\":7047:7160   */\n      iszero\n      tag_161\n      jumpi\n        /* \"#utility.yul\":7146:7147   */\n      dup1\n        /* \"#utility.yul\":7141:7144   */\n      dup3\n        /* \"#utility.yul\":7137:7148   */\n      add\n        /* \"#utility.yul\":7131:7149   */\n      mload\n        /* \"#utility.yul\":7127:7128   */\n      dup2\n        /* \"#utility.yul\":7122:7125   */\n      dup5\n        /* \"#utility.yul\":7118:7129   */\n      add\n        /* \"#utility.yul\":7111:7150   */\n      mstore\n        /* \"#utility.yul\":7083:7085   */\n      0x20\n        /* \"#utility.yul\":7080:7081   */\n      dup2\n        /* \"#utility.yul\":7076:7086   */\n      add\n        /* \"#utility.yul\":7071:7086   */\n      swap1\n      pop\n        /* \"#utility.yul\":7047:7160   */\n      jump(tag_159)\n    tag_161:\n        /* \"#utility.yul\":7178:7184   */\n      dup4\n        /* \"#utility.yul\":7175:7176   */\n      dup2\n        /* \"#utility.yul\":7172:7185   */\n      gt\n        /* \"#utility.yul\":7169:7270   */\n      iszero\n      tag_162\n      jumpi\n        /* \"#utility.yul\":7258:7259   */\n      0x00\n        /* \"#utility.yul\":7249:7255   */\n      dup5\n        /* \"#utility.yul\":7244:7247   */\n      dup5\n        /* \"#utility.yul\":7240:7256   */\n      add\n        /* \"#utility.yul\":7233:7260   */\n      mstore\n        /* \"#utility.yul\":7169:7270   */\n    tag_162:\n        /* \"#utility.yul\":7018:7276   */\n      pop\n        /* \"#utility.yul\":6969:7276   */\n      pop\n      pop\n      pop\n      jump\t// out\n        /* \"#utility.yul\":7282:7602   */\n    tag_18:\n        /* \"#utility.yul\":7326:7332   */\n      0x00\n        /* \"#utility.yul\":7363:7364   */\n      0x02\n        /* \"#utility.yul\":7357:7361   */\n      dup3\n        /* \"#utility.yul\":7353:7365   */\n      div\n        /* \"#utility.yul\":7343:7365   */\n      swap1\n      pop\n        /* \"#utility.yul\":7410:7411   */\n      0x01\n        /* \"#utility.yul\":7404:7408   */\n      dup3\n        /* \"#utility.yul\":7400:7412   */\n      and\n        /* \"#utility.yul\":7431:7449   */\n      dup1\n        /* \"#utility.yul\":7421:7502   */\n      tag_164\n      jumpi\n        /* \"#utility.yul\":7487:7491   */\n      0x7f\n        /* \"#utility.yul\":7479:7485   */\n      dup3\n        /* \"#utility.yul\":7475:7492   */\n      and\n        /* \"#utility.yul\":7465:7492   */\n      swap2\n      pop\n        /* \"#utility.yul\":7421:7502   */\n    tag_164:\n        /* \"#utility.yul\":7549:7551   */\n      0x20\n        /* \"#utility.yul\":7541:7547   */\n      dup3\n        /* \"#utility.yul\":7538:7552   */\n      lt\n        /* \"#utility.yul\":7518:7536   */\n      dup2\n        /* \"#utility.yul\":7515:7553   */\n      eq\n        /* \"#utility.yul\":7512:7596   */\n      iszero\n      tag_165\n      jumpi\n        /* \"#utility.yul\":7568:7586   */\n      tag_166\n      tag_167\n      jump\t// in\n    tag_166:\n        /* \"#utility.yul\":7512:7596   */\n    tag_165:\n        /* \"#utility.yul\":7333:7602   */\n      pop\n        /* \"#utility.yul\":7282:7602   */\n      swap2\n      swap1\n      pop\n      jump\t// out\n        /* \"#utility.yul\":7608:7889   */\n    tag_139:\n        /* \"#utility.yul\":7691:7718   */\n      tag_169\n        /* \"#utility.yul\":7713:7717   */\n      dup3\n        /* \"#utility.yul\":7691:7718   */\n      tag_123\n      jump\t// in\n    tag_169:\n        /* \"#utility.yul\":7683:7689   */\n      dup2\n        /* \"#utility.yul\":7679:7719   */\n      add\n        /* \"#utility.yul\":7821:7827   */\n      dup2\n        /* \"#utility.yul\":7809:7819   */\n      dup2\n        /* \"#utility.yul\":7806:7828   */\n      lt\n        /* \"#utility.yul\":7785:7803   */\n      0xffffffffffffffff\n        /* \"#utility.yul\":7773:7783   */\n      dup3\n        /* \"#utility.yul\":7770:7804   */\n      gt\n        /* \"#utility.yul\":7767:7829   */\n      or\n        /* \"#utility.yul\":7764:7852   */\n      iszero\n      tag_170\n      jumpi\n        /* \"#utility.yul\":7832:7850   */\n      tag_171\n      tag_34\n      jump\t// in\n    tag_171:\n        /* \"#utility.yul\":7764:7852   */\n    tag_170:\n        /* \"#utility.yul\":7872:7882   */\n      dup1\n        /* \"#utility.yul\":7868:7870   */\n      0x40\n        /* \"#utility.yul\":7861:7883   */\n      mstore\n        /* \"#utility.yul\":7651:7889   */\n      pop\n        /* \"#utility.yul\":7608:7889   */\n      pop\n      pop\n      jump\t// out\n        /* \"#utility.yul\":7895:8075   */\n    tag_167:\n        /* \"#utility.yul\":7943:8020   */\n      0x4e487b7100000000000000000000000000000000000000000000000000000000\n        /* \"#utility.yul\":7940:7941   */\n      0x00\n        /* \"#utility.yul\":7933:8021   */\n      mstore\n        /* \"#utility.yul\":8040:8044   */\n      0x22\n        /* \"#utility.yul\":8037:8038   */\n      0x04\n        /* \"#utility.yul\":8030:8045   */\n      mstore\n        /* \"#utility.yul\":8064:8068   */\n      0x24\n        /* \"#utility.yul\":8061:8062   */\n      0x00\n        /* \"#utility.yul\":8054:8069   */\n      revert\n        /* \"#utility.yul\":8081:8261   */\n    tag_38:\n        /* \"#utility.yul\":8129:8206   */\n      0x4e487b7100000000000000000000000000000000000000000000000000000000\n        /* \"#utility.yul\":8126:8127   */\n      0x00\n        /* \"#utility.yul\":8119:8207   */\n      mstore\n        /* \"#utility.yul\":8226:8230   */\n      0x32\n        /* \"#utility.yul\":8223:8224   */\n      0x04\n        /* \"#utility.yul\":8216:8231   */\n      mstore\n        /* \"#utility.yul\":8250:8254   */\n      0x24\n        /* \"#utility.yul\":8247:8248   */\n      0x00\n        /* \"#utility.yul\":8240:8255   */\n      revert\n        /* \"#utility.yul\":8267:8447   */\n    tag_34:\n        /* \"#utility.yul\":8315:8392   */\n      0x4e487b7100000000000000000000000000000000000000000000000000000000\n        /* \"#utility.yul\":8312:8313   */\n      0x00\n        /* \"#utility.yul\":8305:8393   */\n      mstore\n        /* \"#utility.yul\":8412:8416   */\n      0x41\n        /* \"#utility.yul\":8409:8410   */\n      0x04\n        /* \"#utility.yul\":8402:8417   */\n      mstore\n        /* \"#utility.yul\":8436:8440   */\n      0x24\n        /* \"#utility.yul\":8433:8434   */\n      0x00\n        /* \"#utility.yul\":8426:8441   */\n      revert\n        /* \"#utility.yul\":8453:8570   */\n    tag_72:\n        /* \"#utility.yul\":8562:8563   */\n      0x00\n        /* \"#utility.yul\":8559:8560   */\n      dup1\n        /* \"#utility.yul\":8552:8564   */\n      revert\n        /* \"#utility.yul\":8576:8693   */\n    tag_69:\n        /* \"#utility.yul\":8685:8686   */\n      0x00\n        /* \"#utility.yul\":8682:8683   */\n      dup1\n        /* \"#utility.yul\":8675:8687   */\n      revert\n        /* \"#utility.yul\":8699:8816   */\n    tag_75:\n        /* \"#utility.yul\":8808:8809   */\n      0x00\n        /* \"#utility.yul\":8805:8806   */\n      dup1\n        /* \"#utility.yul\":8798:8810   */\n      revert\n        /* \"#utility.yul\":8822:8939   */\n    tag_58:\n        /* \"#utility.yul\":8931:8932   */\n      0x00\n        /* \"#utility.yul\":8928:8929   */\n      dup1\n        /* \"#utility.yul\":8921:8933   */\n      revert\n        /* \"#utility.yul\":8945:9062   */\n    tag_91:\n        /* \"#utility.yul\":9054:9055   */\n      0x00\n        /* \"#utility.yul\":9051:9052   */\n      dup1\n        /* \"#utility.yul\":9044:9056   */\n      revert\n        /* \"#utility.yul\":9068:9185   */\n    tag_84:\n        /* \"#utility.yul\":9177:9178   */\n      0x00\n        /* \"#utility.yul\":9174:9175   */\n      dup1\n        /* \"#utility.yul\":9167:9179   */\n      revert\n        /* \"#utility.yul\":9191:9293   */\n    tag_123:\n        /* \"#utility.yul\":9232:9238   */\n      0x00\n        /* \"#utility.yul\":9283:9285   */\n      0x1f\n        /* \"#utility.yul\":9279:9286   */\n      not\n        /* \"#utility.yul\":9274:9276   */\n      0x1f\n        /* \"#utility.yul\":9267:9272   */\n      dup4\n        /* \"#utility.yul\":9263:9277   */\n      add\n        /* \"#utility.yul\":9259:9287   */\n      and\n        /* \"#utility.yul\":9249:9287   */\n      swap1\n      pop\n        /* \"#utility.yul\":9191:9293   */\n      swap2\n      swap1\n      pop\n      jump\t// out\n        /* \"#utility.yul\":9299:9421   */\n    tag_64:\n        /* \"#utility.yul\":9372:9396   */\n      tag_183\n        /* \"#utility.yul\":9390:9395   */\n      dup2\n        /* \"#utility.yul\":9372:9396   */\n      tag_151\n      jump\t// in\n    tag_183:\n        /* \"#utility.yul\":9365:9370   */\n      dup2\n        /* \"#utility.yul\":9362:9397   */\n      eq\n        /* \"#utility.yul\":9352:9415   */\n      tag_184\n      jumpi\n        /* \"#utility.yul\":9411:9412   */\n      0x00\n        /* \"#utility.yul\":9408:9409   */\n      dup1\n        /* \"#utility.yul\":9401:9413   */\n      revert\n        /* \"#utility.yul\":9352:9415   */\n    tag_184:\n        /* \"#utility.yul\":9299:9421   */\n      pop\n      jump\t// out\n\n    auxdata: 0xa2646970667358221220a5a3d056fbdd8bafa982c11c4b4363a6472faace18f330aecb804e3f4d404a8964736f6c63430008070033\n}\n",
				"bytecode": {
					"linkReferences": {},
					"object": "608060405234801561001057600080fd5b50610a0c806100206000396000f3fe608060405234801561001057600080fd5b50600436106100365760003560e01c8063b43c5d331461003b578063fc277a951461006c575b600080fd5b610055600480360381019061005091906105af565b61009c565b604051610063929190610747565b60405180910390f35b610086600480360381019061008191906105dc565b610148565b6040516100939190610725565b60405180910390f35b60006020528060005260406000206000915090508060000154908060010180546100c5906108a0565b80601f01602080910402602001604051908101604052809291908181526020018280546100f1906108a0565b801561013e5780601f106101135761010080835404028352916020019161013e565b820191906000526020600020905b81548152906001019060200180831161012157829003601f168201915b5050505050905082565b60606040518060400160405280607b81526020016040518060400160405280600381526020017f62617200000000000000000000000000000000000000000000000000000000008152508152506000803373ffffffffffffffffffffffffffffffffffffffff1673ffffffffffffffffffffffffffffffffffffffff1681526020019081526020016000206000820151816000015560208201518160010190805190602001906101f9929190610431565b5090505060008060003373ffffffffffffffffffffffffffffffffffffffff1673ffffffffffffffffffffffffffffffffffffffff16815260200190815260200160002090506040518060400160405280600381526020017f666f6f000000000000000000000000000000000000000000000000000000000081525081600101908051906020019061028c929190610431565b5060008060003373ffffffffffffffffffffffffffffffffffffffff1673ffffffffffffffffffffffffffffffffffffffff168152602001908152602001600020604051806040016040529081600082015481526020016001820180546102f2906108a0565b80601f016020809104026020016040519081016040528092919081815260200182805461031e906108a0565b801561036b5780601f106103405761010080835404028352916020019161036b565b820191906000526020600020905b81548152906001019060200180831161034e57829003601f168201915b50505050508152505090506040518060400160405280600381526020017f343536000000000000000000000000000000000000000000000000000000000081525081602001819052506000600367ffffffffffffffff8111156103d1576103d0610961565b5b6040519080825280602002602001820160405280156103ff5781602001602082028036833780820191505090505b50905060ea8160008151811061041857610417610932565b5b6020026020010181815250508093505050509392505050565b82805461043d906108a0565b90600052602060002090601f01602090048101928261045f57600085556104a6565b82601f1061047857805160ff19168380011785556104a6565b828001600101855582156104a6579182015b828111156104a557825182559160200191906001019061048a565b5b5090506104b391906104b7565b5090565b5b808211156104d05760008160009055506001016104b8565b5090565b60006104e76104e28461079c565b610777565b9050828152602081018484840111156105035761050261099f565b5b61050e84828561085e565b509392505050565b600081359050610525816109bf565b92915050565b60008083601f84011261054157610540610995565b5b8235905067ffffffffffffffff81111561055e5761055d610990565b5b60208301915083602082028301111561057a5761057961099a565b5b9250929050565b600082601f83011261059657610595610995565b5b81356105a68482602086016104d4565b91505092915050565b6000602082840312156105c5576105c46109a9565b5b60006105d384828501610516565b91505092915050565b6000806000604084860312156105f5576105f46109a9565b5b600084013567ffffffffffffffff811115610613576106126109a4565b5b61061f8682870161052b565b9350935050602084013567ffffffffffffffff811115610642576106416109a4565b5b61064e86828701610581565b9150509250925092565b60006106648383610707565b60208301905092915050565b600061067b826107dd565b6106858185610800565b9350610690836107cd565b8060005b838110156106c15781516106a88882610658565b97506106b3836107f3565b925050600181019050610694565b5085935050505092915050565b60006106d9826107e8565b6106e38185610811565b93506106f381856020860161086d565b6106fc816109ae565b840191505092915050565b61071081610854565b82525050565b61071f81610854565b82525050565b6000602082019050818103600083015261073f8184610670565b905092915050565b600060408201905061075c6000830185610716565b818103602083015261076e81846106ce565b90509392505050565b6000610781610792565b905061078d82826108d2565b919050565b6000604051905090565b600067ffffffffffffffff8211156107b7576107b6610961565b5b6107c0826109ae565b9050602081019050919050565b6000819050602082019050919050565b600081519050919050565b600081519050919050565b6000602082019050919050565b600082825260208201905092915050565b600082825260208201905092915050565b600061082d82610834565b9050919050565b600073ffffffffffffffffffffffffffffffffffffffff82169050919050565b6000819050919050565b82818337600083830152505050565b60005b8381101561088b578082015181840152602081019050610870565b8381111561089a576000848401525b50505050565b600060028204905060018216806108b857607f821691505b602082108114156108cc576108cb610903565b5b50919050565b6108db826109ae565b810181811067ffffffffffffffff821117156108fa576108f9610961565b5b80604052505050565b7f4e487b7100000000000000000000000000000000000000000000000000000000600052602260045260246000fd5b7f4e487b7100000000000000000000000000000000000000000000000000000000600052603260045260246000fd5b7f4e487b7100000000000000000000000000000000000000000000000000000000600052604160045260246000fd5b600080fd5b600080fd5b600080fd5b600080fd5b600080fd5b600080fd5b6000601f19601f8301169050919050565b6109c881610822565b81146109d357600080fd5b5056fea2646970667358221220a5a3d056fbdd8bafa982c11c4b4363a6472faace18f330aecb804e3f4d404a8964736f6c63430008070033",
					"opcodes": "PUSH1 0x80 PUSH1 0x40 MSTORE CALLVALUE DUP1 ISZERO PUSH2 0x10 JUMPI PUSH1 0x0 DUP1 REVERT JUMPDEST POP PUSH2 0xA0C DUP1 PUSH2 0x20 PUSH1 0x0 CODECOPY PUSH1 0x0 RETURN INVALID PUSH1 0x80 PUSH1 0x40 MSTORE CALLVALUE DUP1 ISZERO PUSH2 0x10 JUMPI PUSH1 0x0 DUP1 REVERT JUMPDEST POP PUSH1 0x4 CALLDATASIZE LT PUSH2 0x36 JUMPI PUSH1 0x0 CALLDATALOAD PUSH1 0xE0 SHR DUP1 PUSH4 0xB43C5D33 EQ PUSH2 0x3B JUMPI DUP1 PUSH4 0xFC277A95 EQ PUSH2 0x6C JUMPI JUMPDEST PUSH1 0x0 DUP1 REVERT JUMPDEST PUSH2 0x55 PUSH1 0x4 DUP1 CALLDATASIZE SUB DUP2 ADD SWAP1 PUSH2 0x50 SWAP2 SWAP1 PUSH2 0x5AF JUMP JUMPDEST PUSH2 0x9C JUMP JUMPDEST PUSH1 0x40 MLOAD PUSH2 0x63 SWAP3 SWAP2 SWAP1 PUSH2 0x747 JUMP JUMPDEST PUSH1 0x40 MLOAD DUP1 SWAP2 SUB SWAP1 RETURN JUMPDEST PUSH2 0x86 PUSH1 0x4 DUP1 CALLDATASIZE SUB DUP2 ADD SWAP1 PUSH2 0x81 SWAP2 SWAP1 PUSH2 0x5DC JUMP JUMPDEST PUSH2 0x148 JUMP JUMPDEST PUSH1 0x40 MLOAD PUSH2 0x93 SWAP2 SWAP1 PUSH2 0x725 JUMP JUMPDEST PUSH1 0x40 MLOAD DUP1 SWAP2 SUB SWAP1 RETURN JUMPDEST PUSH1 0x0 PUSH1 0x20 MSTORE DUP1 PUSH1 0x0 MSTORE PUSH1 0x40 PUSH1 0x0 KECCAK256 PUSH1 0x0 SWAP2 POP SWAP1 POP DUP1 PUSH1 0x0 ADD SLOAD SWAP1 DUP1 PUSH1 0x1 ADD DUP1 SLOAD PUSH2 0xC5 SWAP1 PUSH2 0x8A0 JUMP JUMPDEST DUP1 PUSH1 0x1F ADD PUSH1 0x20 DUP1 SWAP2 DIV MUL PUSH1 0x20 ADD PUSH1 0x40 MLOAD SWAP1 DUP2 ADD PUSH1 0x40 MSTORE DUP1 SWAP3 SWAP2 SWAP1 DUP2 DUP2 MSTORE PUSH1 0x20 ADD DUP3 DUP1 SLOAD PUSH2 0xF1 SWAP1 PUSH2 0x8A0 JUMP JUMPDEST DUP1 ISZERO PUSH2 0x13E JUMPI DUP1 PUSH1 0x1F LT PUSH2 0x113 JUMPI PUSH2 0x100 DUP1 DUP4 SLOAD DIV MUL DUP4 MSTORE SWAP2 PUSH1 0x20 ADD SWAP2 PUSH2 0x13E JUMP JUMPDEST DUP3 ADD SWAP2 SWAP1 PUSH1 0x0 MSTORE PUSH1 0x20 PUSH1 0x0 KECCAK256 SWAP1 JUMPDEST DUP2 SLOAD DUP2 MSTORE SWAP1 PUSH1 0x1 ADD SWAP1 PUSH1 0x20 ADD DUP1 DUP4 GT PUSH2 0x121 JUMPI DUP3 SWAP1 SUB PUSH1 0x1F AND DUP3 ADD SWAP2 JUMPDEST POP POP POP POP POP SWAP1 POP DUP3 JUMP JUMPDEST PUSH1 0x60 PUSH1 0x40 MLOAD DUP1 PUSH1 0x40 ADD PUSH1 0x40 MSTORE DUP1 PUSH1 0x7B DUP2 MSTORE PUSH1 0x20 ADD PUSH1 0x40 MLOAD DUP1 PUSH1 0x40 ADD PUSH1 0x40 MSTORE DUP1 PUSH1 0x3 DUP2 MSTORE PUSH1 0x20 ADD PUSH32 0x6261720000000000000000000000000000000000000000000000000000000000 DUP2 MSTORE POP DUP2 MSTORE POP PUSH1 0x0 DUP1 CALLER PUSH20 0xFFFFFFFFFFFFFFFFFFFFFFFFFFFFFFFFFFFFFFFF AND PUSH20 0xFFFFFFFFFFFFFFFFFFFFFFFFFFFFFFFFFFFFFFFF AND DUP2 MSTORE PUSH1 0x20 ADD SWAP1 DUP2 MSTORE PUSH1 0x20 ADD PUSH1 0x0 KECCAK256 PUSH1 0x0 DUP3 ADD MLOAD DUP2 PUSH1 0x0 ADD SSTORE PUSH1 0x20 DUP3 ADD MLOAD DUP2 PUSH1 0x1 ADD SWAP1 DUP1 MLOAD SWAP1 PUSH1 0x20 ADD SWAP1 PUSH2 0x1F9 SWAP3 SWAP2 SWAP1 PUSH2 0x431 JUMP JUMPDEST POP SWAP1 POP POP PUSH1 0x0 DUP1 PUSH1 0x0 CALLER PUSH20 0xFFFFFFFFFFFFFFFFFFFFFFFFFFFFFFFFFFFFFFFF AND PUSH20 0xFFFFFFFFFFFFFFFFFFFFFFFFFFFFFFFFFFFFFFFF AND DUP2 MSTORE PUSH1 0x20 ADD SWAP1 DUP2 MSTORE PUSH1 0x20 ADD PUSH1 0x0 KECCAK256 SWAP1 POP PUSH1 0x40 MLOAD DUP1 PUSH1 0x40 ADD PUSH1 0x40 MSTORE DUP1 PUSH1 0x3 DUP2 MSTORE PUSH1 0x20 ADD PUSH32 0x666F6F0000000000000000000000000000000000000000000000000000000000 DUP2 MSTORE POP DUP2 PUSH1 0x1 ADD SWAP1 DUP1 MLOAD SWAP1 PUSH1 0x20 ADD SWAP1 PUSH2 0x28C SWAP3 SWAP2 SWAP1 PUSH2 0x431 JUMP JUMPDEST POP PUSH1 0x0 DUP1 PUSH1 0x0 CALLER PUSH20 0xFFFFFFFFFFFFFFFFFFFFFFFFFFFFFFFFFFFFFFFF AND PUSH20 0xFFFFFFFFFFFFFFFFFFFFFFFFFFFFFFFFFFFFFFFF AND DUP2 MSTORE PUSH1 0x20 ADD SWAP1 DUP2 MSTORE PUSH1 0x20 ADD PUSH1 0x0 KECCAK256 PUSH1 0x40 MLOAD DUP1 PUSH1 0x40 ADD PUSH1 0x40 MSTORE SWAP1 DUP2 PUSH1 0x0 DUP3 ADD SLOAD DUP2 MSTORE PUSH1 0x20 ADD PUSH1 0x1 DUP3 ADD DUP1 SLOAD PUSH2 0x2F2 SWAP1 PUSH2 0x8A0 JUMP JUMPDEST DUP1 PUSH1 0x1F ADD PUSH1 0x20 DUP1 SWAP2 DIV MUL PUSH1 0x20 ADD PUSH1 0x40 MLOAD SWAP1 DUP2 ADD PUSH1 0x40 MSTORE DUP1 SWAP3 SWAP2 SWAP1 DUP2 DUP2 MSTORE PUSH1 0x20 ADD DUP3 DUP1 SLOAD PUSH2 0x31E SWAP1 PUSH2 0x8A0 JUMP JUMPDEST DUP1 ISZERO PUSH2 0x36B JUMPI DUP1 PUSH1 0x1F LT PUSH2 0x340 JUMPI PUSH2 0x100 DUP1 DUP4 SLOAD DIV MUL DUP4 MSTORE SWAP2 PUSH1 0x20 ADD SWAP2 PUSH2 0x36B JUMP JUMPDEST DUP3 ADD SWAP2 SWAP1 PUSH1 0x0 MSTORE PUSH1 0x20 PUSH1 0x0 KECCAK256 SWAP1 JUMPDEST DUP2 SLOAD DUP2 MSTORE SWAP1 PUSH1 0x1 ADD SWAP1 PUSH1 0x20 ADD DUP1 DUP4 GT PUSH2 0x34E JUMPI DUP3 SWAP1 SUB PUSH1 0x1F AND DUP3 ADD SWAP2 JUMPDEST POP POP POP POP POP DUP2 MSTORE POP POP SWAP1 POP PUSH1 0x40 MLOAD DUP1 PUSH1 0x40 ADD PUSH1 0x40 MSTORE DUP1 PUSH1 0x3 DUP2 MSTORE PUSH1 0x20 ADD PUSH32 0x3435360000000000000000000000000000000000000000000000000000000000 DUP2 MSTORE POP DUP2 PUSH1 0x20 ADD DUP2 SWAP1 MSTORE POP PUSH1 0x0 PUSH1 0x3 PUSH8 0xFFFFFFFFFFFFFFFF DUP2 GT ISZERO PUSH2 0x3D1 JUMPI PUSH2 0x3D0 PUSH2 0x961 JUMP JUMPDEST JUMPDEST PUSH1 0x40 MLOAD SWAP1 DUP1 DUP3 MSTORE DUP1 PUSH1 0x20 MUL PUSH1 0x20 ADD DUP3 ADD PUSH1 0x40 MSTORE DUP1 ISZERO PUSH2 0x3FF JUMPI DUP2 PUSH1 0x20 ADD PUSH1 0x20 DUP3 MUL DUP1 CALLDATASIZE DUP4 CALLDATACOPY DUP1 DUP3 ADD SWAP2 POP POP SWAP1 POP JUMPDEST POP SWAP1 POP PUSH1 0xEA DUP2 PUSH1 0x0 DUP2 MLOAD DUP2 LT PUSH2 0x418 JUMPI PUSH2 0x417 PUSH2 0x932 JUMP JUMPDEST JUMPDEST PUSH1 0x20 MUL PUSH1 0x20 ADD ADD DUP2 DUP2 MSTORE POP POP DUP1 SWAP4 POP POP POP POP SWAP4 SWAP3 POP POP POP JUMP JUMPDEST DUP3 DUP1 SLOAD PUSH2 0x43D SWAP1 PUSH2 0x8A0 JUMP JUMPDEST SWAP1 PUSH1 0x0 MSTORE PUSH1 0x20 PUSH1 0x0 KECCAK256 SWAP1 PUSH1 0x1F ADD PUSH1 0x20 SWAP1 DIV DUP2 ADD SWAP3 DUP3 PUSH2 0x45F JUMPI PUSH1 0x0 DUP6 SSTORE PUSH2 0x4A6 JUMP JUMPDEST DUP3 PUSH1 0x1F LT PUSH2 0x478 JUMPI DUP1 MLOAD PUSH1 0xFF NOT AND DUP4 DUP1 ADD OR DUP6 SSTORE PUSH2 0x4A6 JUMP JUMPDEST DUP3 DUP1 ADD PUSH1 0x1 ADD DUP6 SSTORE DUP3 ISZERO PUSH2 0x4A6 JUMPI SWAP2 DUP3 ADD JUMPDEST DUP3 DUP2 GT ISZERO PUSH2 0x4A5 JUMPI DUP3 MLOAD DUP3 SSTORE SWAP2 PUSH1 0x20 ADD SWAP2 SWAP1 PUSH1 0x1 ADD SWAP1 PUSH2 0x48A JUMP JUMPDEST JUMPDEST POP SWAP1 POP PUSH2 0x4B3 SWAP2 SWAP1 PUSH2 0x4B7 JUMP JUMPDEST POP SWAP1 JUMP JUMPDEST JUMPDEST DUP1 DUP3 GT ISZERO PUSH2 0x4D0 JUMPI PUSH1 0x0 DUP2 PUSH1 0x0 SWAP1 SSTORE POP PUSH1 0x1 ADD PUSH2 0x4B8 JUMP JUMPDEST POP SWAP1 JUMP JUMPDEST PUSH1 0x0 PUSH2 0x4E7 PUSH2 0x4E2 DUP5 PUSH2 0x79C JUMP JUMPDEST PUSH2 0x777 JUMP JUMPDEST SWAP1 POP DUP3 DUP2 MSTORE PUSH1 0x20 DUP2 ADD DUP5 DUP5 DUP5 ADD GT ISZERO PUSH2 0x503 JUMPI PUSH2 0x502 PUSH2 0x99F JUMP JUMPDEST JUMPDEST PUSH2 0x50E DUP5 DUP3 DUP6 PUSH2 0x85E JUMP JUMPDEST POP SWAP4 SWAP3 POP POP POP JUMP JUMPDEST PUSH1 0x0 DUP2 CALLDATALOAD SWAP1 POP PUSH2 0x525 DUP2 PUSH2 0x9BF JUMP JUMPDEST SWAP3 SWAP2 POP POP JUMP JUMPDEST PUSH1 0x0 DUP1 DUP4 PUSH1 0x1F DUP5 ADD SLT PUSH2 0x541 JUMPI PUSH2 0x540 PUSH2 0x995 JUMP JUMPDEST JUMPDEST DUP3 CALLDATALOAD SWAP1 POP PUSH8 0xFFFFFFFFFFFFFFFF DUP2 GT ISZERO PUSH2 0x55E JUMPI PUSH2 0x55D PUSH2 0x990 JUMP JUMPDEST JUMPDEST PUSH1 0x20 DUP4 ADD SWAP2 POP DUP4 PUSH1 0x20 DUP3 MUL DUP4 ADD GT ISZERO PUSH2 0x57A JUMPI PUSH2 0x579 PUSH2 0x99A JUMP JUMPDEST JUMPDEST SWAP3 POP SWAP3 SWAP1 POP JUMP JUMPDEST PUSH1 0x0 DUP3 PUSH1 0x1F DUP4 ADD SLT PUSH2 0x596 JUMPI PUSH2 0x595 PUSH2 0x995 JUMP JUMPDEST JUMPDEST DUP2 CALLDATALOAD PUSH2 0x5A6 DUP5 DUP3 PUSH1 0x20 DUP7 ADD PUSH2 0x4D4 JUMP JUMPDEST SWAP2 POP POP SWAP3 SWAP2 POP POP JUMP JUMPDEST PUSH1 0x0 PUSH1 0x20 DUP3 DUP5 SUB SLT ISZERO PUSH2 0x5C5 JUMPI PUSH2 0x5C4 PUSH2 0x9A9 JUMP JUMPDEST JUMPDEST PUSH1 0x0 PUSH2 0x5D3 DUP5 DUP3 DUP6 ADD PUSH2 0x516 JUMP JUMPDEST SWAP2 POP POP SWAP3 SWAP2 POP POP JUMP JUMPDEST PUSH1 0x0 DUP1 PUSH1 0x0 PUSH1 0x40 DUP5 DUP7 SUB SLT ISZERO PUSH2 0x5F5 JUMPI PUSH2 0x5F4 PUSH2 0x9A9 JUMP JUMPDEST JUMPDEST PUSH1 0x0 DUP5 ADD CALLDATALOAD PUSH8 0xFFFFFFFFFFFFFFFF DUP2 GT ISZERO PUSH2 0x613 JUMPI PUSH2 0x612 PUSH2 0x9A4 JUMP JUMPDEST JUMPDEST PUSH2 0x61F DUP7 DUP3 DUP8 ADD PUSH2 0x52B JUMP JUMPDEST SWAP4 POP SWAP4 POP POP PUSH1 0x20 DUP5 ADD CALLDATALOAD PUSH8 0xFFFFFFFFFFFFFFFF DUP2 GT ISZERO PUSH2 0x642 JUMPI PUSH2 0x641 PUSH2 0x9A4 JUMP JUMPDEST JUMPDEST PUSH2 0x64E DUP7 DUP3 DUP8 ADD PUSH2 0x581 JUMP JUMPDEST SWAP2 POP POP SWAP3 POP SWAP3 POP SWAP3 JUMP JUMPDEST PUSH1 0x0 PUSH2 0x664 DUP4 DUP4 PUSH2 0x707 JUMP JUMPDEST PUSH1 0x20 DUP4 ADD SWAP1 POP SWAP3 SWAP2 POP POP JUMP JUMPDEST PUSH1 0x0 PUSH2 0x67B DUP3 PUSH2 0x7DD JUMP JUMPDEST PUSH2 0x685 DUP2 DUP6 PUSH2 0x800 JUMP JUMPDEST SWAP4 POP PUSH2 0x690 DUP4 PUSH2 0x7CD JUMP JUMPDEST DUP1 PUSH1 0x0 JUMPDEST DUP4 DUP2 LT ISZERO PUSH2 0x6C1 JUMPI DUP2 MLOAD PUSH2 0x6A8 DUP9 DUP3 PUSH2 0x658 JUMP JUMPDEST SWAP8 POP PUSH2 0x6B3 DUP4 PUSH2 0x7F3 JUMP JUMPDEST SWAP3 POP POP PUSH1 0x1 DUP2 ADD SWAP1 POP PUSH2 0x694 JUMP JUMPDEST POP DUP6 SWAP4 POP POP POP POP SWAP3 SWAP2 POP POP JUMP JUMPDEST PUSH1 0x0 PUSH2 0x6D9 DUP3 PUSH2 0x7E8 JUMP JUMPDEST PUSH2 0x6E3 DUP2 DUP6 PUSH2 0x811 JUMP JUMPDEST SWAP4 POP PUSH2 0x6F3 DUP2 DUP6 PUSH1 0x20 DUP7 ADD PUSH2 0x86D JUMP JUMPDEST PUSH2 0x6FC DUP2 PUSH2 0x9AE JUMP JUMPDEST DUP5 ADD SWAP2 POP POP SWAP3 SWAP2 POP POP JUMP JUMPDEST PUSH2 0x710 DUP2 PUSH2 0x854 JUMP JUMPDEST DUP3 MSTORE POP POP JUMP JUMPDEST PUSH2 0x71F DUP2 PUSH2 0x854 JUMP JUMPDEST DUP3 MSTORE POP POP JUMP JUMPDEST PUSH1 0x0 PUSH1 0x20 DUP3 ADD SWAP1 POP DUP2 DUP2 SUB PUSH1 0x0 DUP4 ADD MSTORE PUSH2 0x73F DUP2 DUP5 PUSH2 0x670 JUMP JUMPDEST SWAP1 POP SWAP3 SWAP2 POP POP JUMP JUMPDEST PUSH1 0x0 PUSH1 0x40 DUP3 ADD SWAP1 POP PUSH2 0x75C PUSH1 0x0 DUP4 ADD DUP6 PUSH2 0x716 JUMP JUMPDEST DUP2 DUP2 SUB PUSH1 0x20 DUP4 ADD MSTORE PUSH2 0x76E DUP2 DUP5 PUSH2 0x6CE JUMP JUMPDEST SWAP1 POP SWAP4 SWAP3 POP POP POP JUMP JUMPDEST PUSH1 0x0 PUSH2 0x781 PUSH2 0x792 JUMP JUMPDEST SWAP1 POP PUSH2 0x78D DUP3 DUP3 PUSH2 0x8D2 JUMP JUMPDEST SWAP2 SWAP1 POP JUMP JUMPDEST PUSH1 0x0 PUSH1 0x40 MLOAD SWAP1 POP SWAP1 JUMP JUMPDEST PUSH1 0x0 PUSH8 0xFFFFFFFFFFFFFFFF DUP3 GT ISZERO PUSH2 0x7B7 JUMPI PUSH2 0x7B6 PUSH2 0x961 JUMP JUMPDEST JUMPDEST PUSH2 0x7C0 DUP3 PUSH2 0x9AE JUMP JUMPDEST SWAP1 POP PUSH1 0x20 DUP2 ADD SWAP1 POP SWAP2 SWAP1 POP JUMP JUMPDEST PUSH1 0x0 DUP2 SWAP1 POP PUSH1 0x20 DUP3 ADD SWAP1 POP SWAP2 SWAP1 POP JUMP JUMPDEST PUSH1 0x0 DUP2 MLOAD SWAP1 POP SWAP2 SWAP1 POP JUMP JUMPDEST PUSH1 0x0 DUP2 MLOAD SWAP1 POP SWAP2 SWAP1 POP JUMP JUMPDEST PUSH1 0x0 PUSH1 0x20 DUP3 ADD SWAP1 POP SWAP2 SWAP1 POP JUMP JUMPDEST PUSH1 0x0 DUP3 DUP3 MSTORE PUSH1 0x20 DUP3 ADD SWAP1 POP SWAP3 SWAP2 POP POP JUMP JUMPDEST PUSH1 0x0 DUP3 DUP3 MSTORE PUSH1 0x20 DUP3 ADD SWAP1 POP SWAP3 SWAP2 POP POP JUMP JUMPDEST PUSH1 0x0 PUSH2 0x82D DUP3 PUSH2 0x834 JUMP JUMPDEST SWAP1 POP SWAP2 SWAP1 POP JUMP JUMPDEST PUSH1 0x0 PUSH20 0xFFFFFFFFFFFFFFFFFFFFFFFFFFFFFFFFFFFFFFFF DUP3 AND SWAP1 POP SWAP2 SWAP1 POP JUMP JUMPDEST PUSH1 0x0 DUP2 SWAP1 POP SWAP2 SWAP1 POP JUMP JUMPDEST DUP3 DUP2 DUP4 CALLDATACOPY PUSH1 0x0 DUP4 DUP4 ADD MSTORE POP POP POP JUMP JUMPDEST PUSH1 0x0 JUMPDEST DUP4 DUP2 LT ISZERO PUSH2 0x88B JUMPI DUP1 DUP3 ADD MLOAD DUP2 DUP5 ADD MSTORE PUSH1 0x20 DUP2 ADD SWAP1 POP PUSH2 0x870 JUMP JUMPDEST DUP4 DUP2 GT ISZERO PUSH2 0x89A JUMPI PUSH1 0x0 DUP5 DUP5 ADD MSTORE JUMPDEST POP POP POP POP JUMP JUMPDEST PUSH1 0x0 PUSH1 0x2 DUP3 DIV SWAP1 POP PUSH1 0x1 DUP3 AND DUP1 PUSH2 0x8B8 JUMPI PUSH1 0x7F DUP3 AND SWAP2 POP JUMPDEST PUSH1 0x20 DUP3 LT DUP2 EQ ISZERO PUSH2 0x8CC JUMPI PUSH2 0x8CB PUSH2 0x903 JUMP JUMPDEST JUMPDEST POP SWAP2 SWAP1 POP JUMP JUMPDEST PUSH2 0x8DB DUP3 PUSH2 0x9AE JUMP JUMPDEST DUP2 ADD DUP2 DUP2 LT PUSH8 0xFFFFFFFFFFFFFFFF DUP3 GT OR ISZERO PUSH2 0x8FA JUMPI PUSH2 0x8F9 PUSH2 0x961 JUMP JUMPDEST JUMPDEST DUP1 PUSH1 0x40 MSTORE POP POP POP JUMP JUMPDEST PUSH32 0x4E487B7100000000000000000000000000000000000000000000000000000000 PUSH1 0x0 MSTORE PUSH1 0x22 PUSH1 0x4 MSTORE PUSH1 0x24 PUSH1 0x0 REVERT JUMPDEST PUSH32 0x4E487B7100000000000000000000000000000000000000000000000000000000 PUSH1 0x0 MSTORE PUSH1 0x32 PUSH1 0x4 MSTORE PUSH1 0x24 PUSH1 0x0 REVERT JUMPDEST PUSH32 0x4E487B7100000000000000000000000000000000000000000000000000000000 PUSH1 0x0 MSTORE PUSH1 0x41 PUSH1 0x4 MSTORE PUSH1 0x24 PUSH1 0x0 REVERT JUMPDEST PUSH1 0x0 DUP1 REVERT JUMPDEST PUSH1 0x0 DUP1 REVERT JUMPDEST PUSH1 0x0 DUP1 REVERT JUMPDEST PUSH1 0x0 DUP1 REVERT JUMPDEST PUSH1 0x0 DUP1 REVERT JUMPDEST PUSH1 0x0 DUP1 REVERT JUMPDEST PUSH1 0x0 PUSH1 0x1F NOT PUSH1 0x1F DUP4 ADD AND SWAP1 POP SWAP2 SWAP1 POP JUMP JUMPDEST PUSH2 0x9C8 DUP2 PUSH2 0x822 JUMP JUMPDEST DUP2 EQ PUSH2 0x9D3 JUMPI PUSH1 0x0 DUP1 REVERT JUMPDEST POP JUMP INVALID LOG2 PUSH5 0x6970667358 0x22 SLT KECCAK256 0xA5 LOG3 0xD0 JUMP 0xFB 0xDD DUP12 0xAF 0xA9 DUP3 0xC1 SHR 0x4B NUMBER PUSH4 0xA6472FAA 0xCE XOR RETURN ADDRESS 0xAE 0xCB DUP1 0x4E EXTCODEHASH 0x4D BLOCKHASH 0x4A DUP10 PUSH5 0x736F6C6343 STOP ADDMOD SMOD STOP CALLER "
				},
				"gasEstimates": {
					"creation": {
						"codeDepositCost": "514400",
						"executionCost": "549",
						"totalCost": "514949"
					},
					"external": {
						"examples(uint256[],string)": "infinite",
						"myStructs(address)": "infinite"
					}
				},
				"methodIdentifiers": {
					"examples(uint256[],string)": "fc277a95",
					"myStructs(address)": "b43c5d33"
				}
			},
			"storageLayout": {
				"storage": [
					{
						"astId": 11,
						"contract": "Day23_DataLocation.sol:DataLocations",
						"label": "myStructs",
						"offset": 0,
						"slot": "0",
						"type": "t_mapping(t_address,t_struct(MyStruct)6_storage)"
					}
				],
				"types": {
					"t_address": {
						"encoding": "inplace",
						"label": "address",
						"numberOfBytes": "20"
					},
					"t_mapping(t_address,t_struct(MyStruct)6_storage)": {
						"encoding": "mapping",
						"key": "t_address",
						"label": "mapping(address => struct DataLocations.MyStruct)",
						"numberOfBytes": "32",
						"value": "t_struct(MyStruct)6_storage"
					},
					"t_string_storage": {
						"encoding": "bytes",
						"label": "string",
						"numberOfBytes": "32"
					},
					"t_struct(MyStruct)6_storage": {
						"encoding": "inplace",
						"label": "struct DataLocations.MyStruct",
						"members": [
							{
								"astId": 3,
								"contract": "Day23_DataLocation.sol:DataLocations",
								"label": "foo",
								"offset": 0,
								"slot": "0",
								"type": "t_uint256"
							},
							{
								"astId": 5,
								"contract": "Day23_DataLocation.sol:DataLocations",
								"label": "text",
								"offset": 0,
								"slot": "1",
								"type": "t_string_storage"
							}
						],
						"numberOfBytes": "64"
					},
					"t_uint256": {
						"encoding": "inplace",
						"label": "uint256",
						"numberOfBytes": "32"
					}
				}
			},
			"userdoc": {
				"kind": "user",
				"methods": {},
				"version": 1
			}
		}
	}
}