{
	"Day13_Practice_Ownable.sol": {
		"Ownable": {
			"abi": [
				{
					"inputs": [],
					"stateMutability": "nonpayable",
					"type": "constructor"
				},
				{
					"inputs": [],
					"name": "anyOneCanCall",
					"outputs": [],
					"stateMutability": "nonpayable",
					"type": "function"
				},
				{
					"inputs": [],
					"name": "onlyOwnerCanCall",
					"outputs": [],
					"stateMutability": "nonpayable",
					"type": "function"
				},
				{
					"inputs": [],
					"name": "owner",
					"outputs": [
						{
							"internalType": "address",
							"name": "",
							"type": "address"
						}
					],
					"stateMutability": "view",
					"type": "function"
				}
			],
			"devdoc": {
				"kind": "dev",
				"methods": {},
				"version": 1
			},
			"evm": {
				"assembly": "    /* \"Day13_Practice_Ownable.sol\":58:405  contract  Ownable {... */\n  mstore(0x40, 0x80)\n    /* \"Day13_Practice_Ownable.sol\":109:159  constructor () {... */\n  callvalue\n  dup1\n  iszero\n  tag_1\n  jumpi\n  0x00\n  dup1\n  revert\ntag_1:\n  pop\n    /* \"Day13_Practice_Ownable.sol\":142:152  msg.sender */\n  caller\n    /* \"Day13_Practice_Ownable.sol\":134:139  owner */\n  0x00\n  dup1\n    /* \"Day13_Practice_Ownable.sol\":134:152  owner = msg.sender */\n  0x0100\n  exp\n  dup2\n  sload\n  dup2\n  0xffffffffffffffffffffffffffffffffffffffff\n  mul\n  not\n  and\n  swap1\n  dup4\n  0xffffffffffffffffffffffffffffffffffffffff\n  and\n  mul\n  or\n  swap1\n  sstore\n  pop\n    /* \"Day13_Practice_Ownable.sol\":58:405  contract  Ownable {... */\n  dataSize(sub_0)\n  dup1\n  dataOffset(sub_0)\n  0x00\n  codecopy\n  0x00\n  return\nstop\n\nsub_0: assembly {\n        /* \"Day13_Practice_Ownable.sol\":58:405  contract  Ownable {... */\n      mstore(0x40, 0x80)\n      callvalue\n      dup1\n      iszero\n      tag_1\n      jumpi\n      0x00\n      dup1\n      revert\n    tag_1:\n      pop\n      jumpi(tag_2, lt(calldatasize, 0x04))\n      shr(0xe0, calldataload(0x00))\n      dup1\n      0x4bd0c0d7\n      eq\n      tag_3\n      jumpi\n      dup1\n      0x5bc749e4\n      eq\n      tag_4\n      jumpi\n      dup1\n      0x8da5cb5b\n      eq\n      tag_5\n      jumpi\n    tag_2:\n      0x00\n      dup1\n      revert\n        /* \"Day13_Practice_Ownable.sol\":269:327  function anyOneCanCall () external {... */\n    tag_3:\n      tag_6\n      tag_7\n      jump\t// in\n    tag_6:\n      stop\n        /* \"Day13_Practice_Ownable.sol\":333:403  function onlyOwnerCanCall () external onlyOwner{... */\n    tag_4:\n      tag_8\n      tag_9\n      jump\t// in\n    tag_8:\n      stop\n        /* \"Day13_Practice_Ownable.sol\":82:102  address public owner */\n    tag_5:\n      tag_10\n      tag_11\n      jump\t// in\n    tag_10:\n      mload(0x40)\n      tag_12\n      swap2\n      swap1\n      tag_13\n      jump\t// in\n    tag_12:\n      mload(0x40)\n      dup1\n      swap2\n      sub\n      swap1\n      return\n        /* \"Day13_Practice_Ownable.sol\":269:327  function anyOneCanCall () external {... */\n    tag_7:\n      jump\t// out\n        /* \"Day13_Practice_Ownable.sol\":333:403  function onlyOwnerCanCall () external onlyOwner{... */\n    tag_9:\n        /* \"Day13_Practice_Ownable.sol\":220:225  owner */\n      0x00\n      dup1\n      sload\n      swap1\n      0x0100\n      exp\n      swap1\n      div\n      0xffffffffffffffffffffffffffffffffffffffff\n      and\n        /* \"Day13_Practice_Ownable.sol\":206:225  msg.sender == owner */\n      0xffffffffffffffffffffffffffffffffffffffff\n      and\n        /* \"Day13_Practice_Ownable.sol\":206:216  msg.sender */\n      caller\n        /* \"Day13_Practice_Ownable.sol\":206:225  msg.sender == owner */\n      0xffffffffffffffffffffffffffffffffffffffff\n      and\n      eq\n        /* \"Day13_Practice_Ownable.sol\":197:239  require (msg.sender == owner, \"not owner\") */\n      tag_16\n      jumpi\n      mload(0x40)\n      0x08c379a000000000000000000000000000000000000000000000000000000000\n      dup2\n      mstore\n      0x04\n      add\n      tag_17\n      swap1\n      tag_18\n      jump\t// in\n    tag_17:\n      mload(0x40)\n      dup1\n      swap2\n      sub\n      swap1\n      revert\n    tag_16:\n        /* \"Day13_Practice_Ownable.sol\":333:403  function onlyOwnerCanCall () external onlyOwner{... */\n      jump\t// out\n        /* \"Day13_Practice_Ownable.sol\":82:102  address public owner */\n    tag_11:\n      0x00\n      dup1\n      sload\n      swap1\n      0x0100\n      exp\n      swap1\n      div\n      0xffffffffffffffffffffffffffffffffffffffff\n      and\n      dup2\n      jump\t// out\n        /* \"#utility.yul\":7:125   */\n    tag_21:\n        /* \"#utility.yul\":94:118   */\n      tag_23\n        /* \"#utility.yul\":112:117   */\n      dup2\n        /* \"#utility.yul\":94:118   */\n      tag_24\n      jump\t// in\n    tag_23:\n        /* \"#utility.yul\":89:92   */\n      dup3\n        /* \"#utility.yul\":82:119   */\n      mstore\n        /* \"#utility.yul\":7:125   */\n      pop\n      pop\n      jump\t// out\n        /* \"#utility.yul\":131:496   */\n    tag_25:\n        /* \"#utility.yul\":273:276   */\n      0x00\n        /* \"#utility.yul\":294:360   */\n      tag_27\n        /* \"#utility.yul\":358:359   */\n      0x09\n        /* \"#utility.yul\":353:356   */\n      dup4\n        /* \"#utility.yul\":294:360   */\n      tag_28\n      jump\t// in\n    tag_27:\n        /* \"#utility.yul\":287:360   */\n      swap2\n      pop\n        /* \"#utility.yul\":369:462   */\n      tag_29\n        /* \"#utility.yul\":458:461   */\n      dup3\n        /* \"#utility.yul\":369:462   */\n      tag_30\n      jump\t// in\n    tag_29:\n        /* \"#utility.yul\":487:489   */\n      0x20\n        /* \"#utility.yul\":482:485   */\n      dup3\n        /* \"#utility.yul\":478:490   */\n      add\n        /* \"#utility.yul\":471:490   */\n      swap1\n      pop\n        /* \"#utility.yul\":131:496   */\n      swap2\n      swap1\n      pop\n      jump\t// out\n        /* \"#utility.yul\":502:724   */\n    tag_13:\n        /* \"#utility.yul\":595:599   */\n      0x00\n        /* \"#utility.yul\":633:635   */\n      0x20\n        /* \"#utility.yul\":622:631   */\n      dup3\n        /* \"#utility.yul\":618:636   */\n      add\n        /* \"#utility.yul\":610:636   */\n      swap1\n      pop\n        /* \"#utility.yul\":646:717   */\n      tag_32\n        /* \"#utility.yul\":714:715   */\n      0x00\n        /* \"#utility.yul\":703:712   */\n      dup4\n        /* \"#utility.yul\":699:716   */\n      add\n        /* \"#utility.yul\":690:696   */\n      dup5\n        /* \"#utility.yul\":646:717   */\n      tag_21\n      jump\t// in\n    tag_32:\n        /* \"#utility.yul\":502:724   */\n      swap3\n      swap2\n      pop\n      pop\n      jump\t// out\n        /* \"#utility.yul\":730:1149   */\n    tag_18:\n        /* \"#utility.yul\":896:900   */\n      0x00\n        /* \"#utility.yul\":934:936   */\n      0x20\n        /* \"#utility.yul\":923:932   */\n      dup3\n        /* \"#utility.yul\":919:937   */\n      add\n        /* \"#utility.yul\":911:937   */\n      swap1\n      pop\n        /* \"#utility.yul\":983:992   */\n      dup2\n        /* \"#utility.yul\":977:981   */\n      dup2\n        /* \"#utility.yul\":973:993   */\n      sub\n        /* \"#utility.yul\":969:970   */\n      0x00\n        /* \"#utility.yul\":958:967   */\n      dup4\n        /* \"#utility.yul\":954:971   */\n      add\n        /* \"#utility.yul\":947:994   */\n      mstore\n        /* \"#utility.yul\":1011:1142   */\n      tag_34\n        /* \"#utility.yul\":1137:1141   */\n      dup2\n        /* \"#utility.yul\":1011:1142   */\n      tag_25\n      jump\t// in\n    tag_34:\n        /* \"#utility.yul\":1003:1142   */\n      swap1\n      pop\n        /* \"#utility.yul\":730:1149   */\n      swap2\n      swap1\n      pop\n      jump\t// out\n        /* \"#utility.yul\":1155:1324   */\n    tag_28:\n        /* \"#utility.yul\":1239:1250   */\n      0x00\n        /* \"#utility.yul\":1273:1279   */\n      dup3\n        /* \"#utility.yul\":1268:1271   */\n      dup3\n        /* \"#utility.yul\":1261:1280   */\n      mstore\n        /* \"#utility.yul\":1313:1317   */\n      0x20\n        /* \"#utility.yul\":1308:1311   */\n      dup3\n        /* \"#utility.yul\":1304:1318   */\n      add\n        /* \"#utility.yul\":1289:1318   */\n      swap1\n      pop\n        /* \"#utility.yul\":1155:1324   */\n      swap3\n      swap2\n      pop\n      pop\n      jump\t// out\n        /* \"#utility.yul\":1330:1426   */\n    tag_24:\n        /* \"#utility.yul\":1367:1374   */\n      0x00\n        /* \"#utility.yul\":1396:1420   */\n      tag_37\n        /* \"#utility.yul\":1414:1419   */\n      dup3\n        /* \"#utility.yul\":1396:1420   */\n      tag_38\n      jump\t// in\n    tag_37:\n        /* \"#utility.yul\":1385:1420   */\n      swap1\n      pop\n        /* \"#utility.yul\":1330:1426   */\n      swap2\n      swap1\n      pop\n      jump\t// out\n        /* \"#utility.yul\":1432:1558   */\n    tag_38:\n        /* \"#utility.yul\":1469:1476   */\n      0x00\n        /* \"#utility.yul\":1509:1551   */\n      0xffffffffffffffffffffffffffffffffffffffff\n        /* \"#utility.yul\":1502:1507   */\n      dup3\n        /* \"#utility.yul\":1498:1552   */\n      and\n        /* \"#utility.yul\":1487:1552   */\n      swap1\n      pop\n        /* \"#utility.yul\":1432:1558   */\n      swap2\n      swap1\n      pop\n      jump\t// out\n        /* \"#utility.yul\":1564:1723   */\n    tag_30:\n        /* \"#utility.yul\":1704:1715   */\n      0x6e6f74206f776e65720000000000000000000000000000000000000000000000\n        /* \"#utility.yul\":1700:1701   */\n      0x00\n        /* \"#utility.yul\":1692:1698   */\n      dup3\n        /* \"#utility.yul\":1688:1702   */\n      add\n        /* \"#utility.yul\":1681:1716   */\n      mstore\n        /* \"#utility.yul\":1564:1723   */\n      pop\n      jump\t// out\n\n    auxdata: 0xa26469706673582212203f04d89614811807d54da31efd7468400b2a8c2f190789e185bc3271a02baa9764736f6c63430008070033\n}\n",
				"bytecode": {
					"linkReferences": {},
					"object": "608060405234801561001057600080fd5b50336000806101000a81548173ffffffffffffffffffffffffffffffffffffffff021916908373ffffffffffffffffffffffffffffffffffffffff16021790555061023d806100606000396000f3fe608060405234801561001057600080fd5b50600436106100415760003560e01c80634bd0c0d7146100465780635bc749e4146100505780638da5cb5b1461005a575b600080fd5b61004e610078565b005b61005861007a565b005b61006261010a565b60405161006f9190610160565b60405180910390f35b565b60008054906101000a900473ffffffffffffffffffffffffffffffffffffffff1673ffffffffffffffffffffffffffffffffffffffff163373ffffffffffffffffffffffffffffffffffffffff1614610108576040517f08c379a00000000000000000000000000000000000000000000000000000000081526004016100ff9061017b565b60405180910390fd5b565b60008054906101000a900473ffffffffffffffffffffffffffffffffffffffff1681565b610137816101ac565b82525050565b600061014a60098361019b565b9150610155826101de565b602082019050919050565b6000602082019050610175600083018461012e565b92915050565b600060208201905081810360008301526101948161013d565b9050919050565b600082825260208201905092915050565b60006101b7826101be565b9050919050565b600073ffffffffffffffffffffffffffffffffffffffff82169050919050565b7f6e6f74206f776e6572000000000000000000000000000000000000000000000060008201525056fea26469706673582212203f04d89614811807d54da31efd7468400b2a8c2f190789e185bc3271a02baa9764736f6c63430008070033",
					"opcodes": "PUSH1 0x80 PUSH1 0x40 MSTORE CALLVALUE DUP1 ISZERO PUSH2 0x10 JUMPI PUSH1 0x0 DUP1 REVERT JUMPDEST POP CALLER PUSH1 0x0 DUP1 PUSH2 0x100 EXP DUP2 SLOAD DUP2 PUSH20 0xFFFFFFFFFFFFFFFFFFFFFFFFFFFFFFFFFFFFFFFF MUL NOT AND SWAP1 DUP4 PUSH20 0xFFFFFFFFFFFFFFFFFFFFFFFFFFFFFFFFFFFFFFFF AND MUL OR SWAP1 SSTORE POP PUSH2 0x23D DUP1 PUSH2 0x60 PUSH1 0x0 CODECOPY PUSH1 0x0 RETURN INVALID PUSH1 0x80 PUSH1 0x40 MSTORE CALLVALUE DUP1 ISZERO PUSH2 0x10 JUMPI PUSH1 0x0 DUP1 REVERT JUMPDEST POP PUSH1 0x4 CALLDATASIZE LT PUSH2 0x41 JUMPI PUSH1 0x0 CALLDATALOAD PUSH1 0xE0 SHR DUP1 PUSH4 0x4BD0C0D7 EQ PUSH2 0x46 JUMPI DUP1 PUSH4 0x5BC749E4 EQ PUSH2 0x50 JUMPI DUP1 PUSH4 0x8DA5CB5B EQ PUSH2 0x5A JUMPI JUMPDEST PUSH1 0x0 DUP1 REVERT JUMPDEST PUSH2 0x4E PUSH2 0x78 JUMP JUMPDEST STOP JUMPDEST PUSH2 0x58 PUSH2 0x7A JUMP JUMPDEST STOP JUMPDEST PUSH2 0x62 PUSH2 0x10A JUMP JUMPDEST PUSH1 0x40 MLOAD PUSH2 0x6F SWAP2 SWAP1 PUSH2 0x160 JUMP JUMPDEST PUSH1 0x40 MLOAD DUP1 SWAP2 SUB SWAP1 RETURN JUMPDEST JUMP JUMPDEST PUSH1 0x0 DUP1 SLOAD SWAP1 PUSH2 0x100 EXP SWAP1 DIV PUSH20 0xFFFFFFFFFFFFFFFFFFFFFFFFFFFFFFFFFFFFFFFF AND PUSH20 0xFFFFFFFFFFFFFFFFFFFFFFFFFFFFFFFFFFFFFFFF AND CALLER PUSH20 0xFFFFFFFFFFFFFFFFFFFFFFFFFFFFFFFFFFFFFFFF AND EQ PUSH2 0x108 JUMPI PUSH1 0x40 MLOAD PUSH32 0x8C379A000000000000000000000000000000000000000000000000000000000 DUP2 MSTORE PUSH1 0x4 ADD PUSH2 0xFF SWAP1 PUSH2 0x17B JUMP JUMPDEST PUSH1 0x40 MLOAD DUP1 SWAP2 SUB SWAP1 REVERT JUMPDEST JUMP JUMPDEST PUSH1 0x0 DUP1 SLOAD SWAP1 PUSH2 0x100 EXP SWAP1 DIV PUSH20 0xFFFFFFFFFFFFFFFFFFFFFFFFFFFFFFFFFFFFFFFF AND DUP2 JUMP JUMPDEST PUSH2 0x137 DUP2 PUSH2 0x1AC JUMP JUMPDEST DUP3 MSTORE POP POP JUMP JUMPDEST PUSH1 0x0 PUSH2 0x14A PUSH1 0x9 DUP4 PUSH2 0x19B JUMP JUMPDEST SWAP2 POP PUSH2 0x155 DUP3 PUSH2 0x1DE JUMP JUMPDEST PUSH1 0x20 DUP3 ADD SWAP1 POP SWAP2 SWAP1 POP JUMP JUMPDEST PUSH1 0x0 PUSH1 0x20 DUP3 ADD SWAP1 POP PUSH2 0x175 PUSH1 0x0 DUP4 ADD DUP5 PUSH2 0x12E JUMP JUMPDEST SWAP3 SWAP2 POP POP JUMP JUMPDEST PUSH1 0x0 PUSH1 0x20 DUP3 ADD SWAP1 POP DUP2 DUP2 SUB PUSH1 0x0 DUP4 ADD MSTORE PUSH2 0x194 DUP2 PUSH2 0x13D JUMP JUMPDEST SWAP1 POP SWAP2 SWAP1 POP JUMP JUMPDEST PUSH1 0x0 DUP3 DUP3 MSTORE PUSH1 0x20 DUP3 ADD SWAP1 POP SWAP3 SWAP2 POP POP JUMP JUMPDEST PUSH1 0x0 PUSH2 0x1B7 DUP3 PUSH2 0x1BE JUMP JUMPDEST SWAP1 POP SWAP2 SWAP1 POP JUMP JUMPDEST PUSH1 0x0 PUSH20 0xFFFFFFFFFFFFFFFFFFFFFFFFFFFFFFFFFFFFFFFF DUP3 AND SWAP1 POP SWAP2 SWAP1 POP JUMP JUMPDEST PUSH32 0x6E6F74206F776E65720000000000000000000000000000000000000000000000 PUSH1 0x0 DUP3 ADD MSTORE POP JUMP INVALID LOG2 PUSH5 0x6970667358 0x22 SLT KECCAK256 EXTCODEHASH DIV 0xD8 SWAP7 EQ DUP2 XOR SMOD 0xD5 0x4D LOG3 0x1E REVERT PUSH21 0x68400B2A8C2F190789E185BC3271A02BAA9764736F PUSH13 0x63430008070033000000000000 "
				},
				"gasEstimates": {
					"creation": {
						"codeDepositCost": "114600",
						"executionCost": "24425",
						"totalCost": "139025"
					},
					"external": {
						"anyOneCanCall()": "122",
						"onlyOwnerCanCall()": "2600",
						"owner()": "2533"
					}
				},
				"methodIdentifiers": {
					"anyOneCanCall()": "4bd0c0d7",
					"onlyOwnerCanCall()": "5bc749e4",
					"owner()": "8da5cb5b"
				}
			},
			"storageLayout": {
				"storage": [
					{
						"astId": 3,
						"contract": "Day13_Practice_Ownable.sol:Ownable",
						"label": "owner",
						"offset": 0,
						"slot": "0",
						"type": "t_address"
					}
				],
				"types": {
					"t_address": {
						"encoding": "inplace",
						"label": "address",
						"numberOfBytes": "20"
					}
				}
			},
			"userdoc": {
				"kind": "user",
				"methods": {},
				"version": 1
			}
		}
	}
}