{
	"Day30_Immutable.sol": {
		"Immutable": {
			"abi": [
				{
					"inputs": [],
					"name": "example",
					"outputs": [],
					"stateMutability": "nonpayable",
					"type": "function"
				},
				{
					"inputs": [],
					"name": "owner",
					"outputs": [
						{
							"internalType": "address",
							"name": "",
							"type": "address"
						}
					],
					"stateMutability": "view",
					"type": "function"
				},
				{
					"inputs": [],
					"name": "x",
					"outputs": [
						{
							"internalType": "uint256",
							"name": "",
							"type": "uint256"
						}
					],
					"stateMutability": "view",
					"type": "function"
				}
			],
			"devdoc": {
				"kind": "dev",
				"methods": {},
				"version": 1
			},
			"evm": {
				"assembly": "    /* \"Day30_Immutable.sol\":58:313  contract Immutable {... */\n  mstore(0x40, 0xa0)\n    /* \"Day30_Immutable.sol\":171:181  msg.sender */\n  caller\n    /* \"Day30_Immutable.sol\":138:181  address public immutable owner = msg.sender */\n  0xffffffffffffffffffffffffffffffffffffffff\n  and\n  0x80\n  swap1\n  0xffffffffffffffffffffffffffffffffffffffff\n  and\n  0x60\n  shl\n  dup2\n  mstore\n  pop\n    /* \"Day30_Immutable.sol\":58:313  contract Immutable {... */\n  callvalue\n  dup1\n  iszero\n  tag_1\n  jumpi\n  0x00\n  dup1\n  revert\ntag_1:\n  pop\n  shr(0x60, mload(0x80))\n  codecopy(0x00, dataOffset(sub_0), dataSize(sub_0))\n  0x00\n  assignImmutable(\"0xceebf77a833b30520287ddd9478ff51abbdffa30aa90a8d655dba0e8a79ce0c1\")\n  return(0x00, dataSize(sub_0))\nstop\n\nsub_0: assembly {\n        /* \"Day30_Immutable.sol\":58:313  contract Immutable {... */\n      mstore(0x40, 0x80)\n      callvalue\n      dup1\n      iszero\n      tag_1\n      jumpi\n      0x00\n      dup1\n      revert\n    tag_1:\n      pop\n      jumpi(tag_2, lt(calldatasize, 0x04))\n      shr(0xe0, calldataload(0x00))\n      dup1\n      0x0c55699c\n      eq\n      tag_3\n      jumpi\n      dup1\n      0x54353f2f\n      eq\n      tag_4\n      jumpi\n      dup1\n      0x8da5cb5b\n      eq\n      tag_5\n      jumpi\n    tag_2:\n      0x00\n      dup1\n      revert\n        /* \"Day30_Immutable.sol\":187:200  uint public x */\n    tag_3:\n      tag_6\n      tag_7\n      jump\t// in\n    tag_6:\n      mload(0x40)\n      tag_8\n      swap2\n      swap1\n      tag_9\n      jump\t// in\n    tag_8:\n      mload(0x40)\n      dup1\n      swap2\n      sub\n      swap1\n      return\n        /* \"Day30_Immutable.sol\":207:311  function example () external {... */\n    tag_4:\n      tag_10\n      tag_11\n      jump\t// in\n    tag_10:\n      stop\n        /* \"Day30_Immutable.sol\":138:181  address public immutable owner = msg.sender */\n    tag_5:\n      tag_12\n      tag_13\n      jump\t// in\n    tag_12:\n      mload(0x40)\n      tag_14\n      swap2\n      swap1\n      tag_15\n      jump\t// in\n    tag_14:\n      mload(0x40)\n      dup1\n      swap2\n      sub\n      swap1\n      return\n        /* \"Day30_Immutable.sol\":187:200  uint public x */\n    tag_7:\n      sload(0x00)\n      dup2\n      jump\t// out\n        /* \"Day30_Immutable.sol\":207:311  function example () external {... */\n    tag_11:\n        /* \"Day30_Immutable.sol\":264:274  msg.sender */\n      caller\n        /* \"Day30_Immutable.sol\":255:274  owner == msg.sender */\n      0xffffffffffffffffffffffffffffffffffffffff\n      and\n        /* \"Day30_Immutable.sol\":255:260  owner */\n      immutable(\"0xceebf77a833b30520287ddd9478ff51abbdffa30aa90a8d655dba0e8a79ce0c1\")\n        /* \"Day30_Immutable.sol\":255:274  owner == msg.sender */\n      0xffffffffffffffffffffffffffffffffffffffff\n      and\n      eq\n        /* \"Day30_Immutable.sol\":246:288  require (owner == msg.sender, \"not owner\") */\n      tag_17\n      jumpi\n      mload(0x40)\n      0x08c379a000000000000000000000000000000000000000000000000000000000\n      dup2\n      mstore\n      0x04\n      add\n      tag_18\n      swap1\n      tag_19\n      jump\t// in\n    tag_18:\n      mload(0x40)\n      dup1\n      swap2\n      sub\n      swap1\n      revert\n    tag_17:\n        /* \"Day30_Immutable.sol\":303:304  1 */\n      0x01\n        /* \"Day30_Immutable.sol\":298:299  x */\n      0x00\n      dup1\n        /* \"Day30_Immutable.sol\":298:304  x += 1 */\n      dup3\n      dup3\n      sload\n      tag_20\n      swap2\n      swap1\n      tag_21\n      jump\t// in\n    tag_20:\n      swap3\n      pop\n      pop\n      dup2\n      swap1\n      sstore\n      pop\n        /* \"Day30_Immutable.sol\":207:311  function example () external {... */\n      jump\t// out\n        /* \"Day30_Immutable.sol\":138:181  address public immutable owner = msg.sender */\n    tag_13:\n      immutable(\"0xceebf77a833b30520287ddd9478ff51abbdffa30aa90a8d655dba0e8a79ce0c1\")\n      dup2\n      jump\t// out\n        /* \"#utility.yul\":7:125   */\n    tag_23:\n        /* \"#utility.yul\":94:118   */\n      tag_25\n        /* \"#utility.yul\":112:117   */\n      dup2\n        /* \"#utility.yul\":94:118   */\n      tag_26\n      jump\t// in\n    tag_25:\n        /* \"#utility.yul\":89:92   */\n      dup3\n        /* \"#utility.yul\":82:119   */\n      mstore\n        /* \"#utility.yul\":7:125   */\n      pop\n      pop\n      jump\t// out\n        /* \"#utility.yul\":131:496   */\n    tag_27:\n        /* \"#utility.yul\":273:276   */\n      0x00\n        /* \"#utility.yul\":294:360   */\n      tag_29\n        /* \"#utility.yul\":358:359   */\n      0x09\n        /* \"#utility.yul\":353:356   */\n      dup4\n        /* \"#utility.yul\":294:360   */\n      tag_30\n      jump\t// in\n    tag_29:\n        /* \"#utility.yul\":287:360   */\n      swap2\n      pop\n        /* \"#utility.yul\":369:462   */\n      tag_31\n        /* \"#utility.yul\":458:461   */\n      dup3\n        /* \"#utility.yul\":369:462   */\n      tag_32\n      jump\t// in\n    tag_31:\n        /* \"#utility.yul\":487:489   */\n      0x20\n        /* \"#utility.yul\":482:485   */\n      dup3\n        /* \"#utility.yul\":478:490   */\n      add\n        /* \"#utility.yul\":471:490   */\n      swap1\n      pop\n        /* \"#utility.yul\":131:496   */\n      swap2\n      swap1\n      pop\n      jump\t// out\n        /* \"#utility.yul\":502:620   */\n    tag_33:\n        /* \"#utility.yul\":589:613   */\n      tag_35\n        /* \"#utility.yul\":607:612   */\n      dup2\n        /* \"#utility.yul\":589:613   */\n      tag_36\n      jump\t// in\n    tag_35:\n        /* \"#utility.yul\":584:587   */\n      dup3\n        /* \"#utility.yul\":577:614   */\n      mstore\n        /* \"#utility.yul\":502:620   */\n      pop\n      pop\n      jump\t// out\n        /* \"#utility.yul\":626:848   */\n    tag_15:\n        /* \"#utility.yul\":719:723   */\n      0x00\n        /* \"#utility.yul\":757:759   */\n      0x20\n        /* \"#utility.yul\":746:755   */\n      dup3\n        /* \"#utility.yul\":742:760   */\n      add\n        /* \"#utility.yul\":734:760   */\n      swap1\n      pop\n        /* \"#utility.yul\":770:841   */\n      tag_38\n        /* \"#utility.yul\":838:839   */\n      0x00\n        /* \"#utility.yul\":827:836   */\n      dup4\n        /* \"#utility.yul\":823:840   */\n      add\n        /* \"#utility.yul\":814:820   */\n      dup5\n        /* \"#utility.yul\":770:841   */\n      tag_23\n      jump\t// in\n    tag_38:\n        /* \"#utility.yul\":626:848   */\n      swap3\n      swap2\n      pop\n      pop\n      jump\t// out\n        /* \"#utility.yul\":854:1273   */\n    tag_19:\n        /* \"#utility.yul\":1020:1024   */\n      0x00\n        /* \"#utility.yul\":1058:1060   */\n      0x20\n        /* \"#utility.yul\":1047:1056   */\n      dup3\n        /* \"#utility.yul\":1043:1061   */\n      add\n        /* \"#utility.yul\":1035:1061   */\n      swap1\n      pop\n        /* \"#utility.yul\":1107:1116   */\n      dup2\n        /* \"#utility.yul\":1101:1105   */\n      dup2\n        /* \"#utility.yul\":1097:1117   */\n      sub\n        /* \"#utility.yul\":1093:1094   */\n      0x00\n        /* \"#utility.yul\":1082:1091   */\n      dup4\n        /* \"#utility.yul\":1078:1095   */\n      add\n        /* \"#utility.yul\":1071:1118   */\n      mstore\n        /* \"#utility.yul\":1135:1266   */\n      tag_40\n        /* \"#utility.yul\":1261:1265   */\n      dup2\n        /* \"#utility.yul\":1135:1266   */\n      tag_27\n      jump\t// in\n    tag_40:\n        /* \"#utility.yul\":1127:1266   */\n      swap1\n      pop\n        /* \"#utility.yul\":854:1273   */\n      swap2\n      swap1\n      pop\n      jump\t// out\n        /* \"#utility.yul\":1279:1501   */\n    tag_9:\n        /* \"#utility.yul\":1372:1376   */\n      0x00\n        /* \"#utility.yul\":1410:1412   */\n      0x20\n        /* \"#utility.yul\":1399:1408   */\n      dup3\n        /* \"#utility.yul\":1395:1413   */\n      add\n        /* \"#utility.yul\":1387:1413   */\n      swap1\n      pop\n        /* \"#utility.yul\":1423:1494   */\n      tag_42\n        /* \"#utility.yul\":1491:1492   */\n      0x00\n        /* \"#utility.yul\":1480:1489   */\n      dup4\n        /* \"#utility.yul\":1476:1493   */\n      add\n        /* \"#utility.yul\":1467:1473   */\n      dup5\n        /* \"#utility.yul\":1423:1494   */\n      tag_33\n      jump\t// in\n    tag_42:\n        /* \"#utility.yul\":1279:1501   */\n      swap3\n      swap2\n      pop\n      pop\n      jump\t// out\n        /* \"#utility.yul\":1507:1676   */\n    tag_30:\n        /* \"#utility.yul\":1591:1602   */\n      0x00\n        /* \"#utility.yul\":1625:1631   */\n      dup3\n        /* \"#utility.yul\":1620:1623   */\n      dup3\n        /* \"#utility.yul\":1613:1632   */\n      mstore\n        /* \"#utility.yul\":1665:1669   */\n      0x20\n        /* \"#utility.yul\":1660:1663   */\n      dup3\n        /* \"#utility.yul\":1656:1670   */\n      add\n        /* \"#utility.yul\":1641:1670   */\n      swap1\n      pop\n        /* \"#utility.yul\":1507:1676   */\n      swap3\n      swap2\n      pop\n      pop\n      jump\t// out\n        /* \"#utility.yul\":1682:1987   */\n    tag_21:\n        /* \"#utility.yul\":1722:1725   */\n      0x00\n        /* \"#utility.yul\":1741:1761   */\n      tag_45\n        /* \"#utility.yul\":1759:1760   */\n      dup3\n        /* \"#utility.yul\":1741:1761   */\n      tag_36\n      jump\t// in\n    tag_45:\n        /* \"#utility.yul\":1736:1761   */\n      swap2\n      pop\n        /* \"#utility.yul\":1775:1795   */\n      tag_46\n        /* \"#utility.yul\":1793:1794   */\n      dup4\n        /* \"#utility.yul\":1775:1795   */\n      tag_36\n      jump\t// in\n    tag_46:\n        /* \"#utility.yul\":1770:1795   */\n      swap3\n      pop\n        /* \"#utility.yul\":1929:1930   */\n      dup3\n        /* \"#utility.yul\":1861:1927   */\n      0xffffffffffffffffffffffffffffffffffffffffffffffffffffffffffffffff\n        /* \"#utility.yul\":1857:1931   */\n      sub\n        /* \"#utility.yul\":1854:1855   */\n      dup3\n        /* \"#utility.yul\":1851:1932   */\n      gt\n        /* \"#utility.yul\":1848:1955   */\n      iszero\n      tag_47\n      jumpi\n        /* \"#utility.yul\":1935:1953   */\n      tag_48\n      tag_49\n      jump\t// in\n    tag_48:\n        /* \"#utility.yul\":1848:1955   */\n    tag_47:\n        /* \"#utility.yul\":1979:1980   */\n      dup3\n        /* \"#utility.yul\":1976:1977   */\n      dup3\n        /* \"#utility.yul\":1972:1981   */\n      add\n        /* \"#utility.yul\":1965:1981   */\n      swap1\n      pop\n        /* \"#utility.yul\":1682:1987   */\n      swap3\n      swap2\n      pop\n      pop\n      jump\t// out\n        /* \"#utility.yul\":1993:2089   */\n    tag_26:\n        /* \"#utility.yul\":2030:2037   */\n      0x00\n        /* \"#utility.yul\":2059:2083   */\n      tag_51\n        /* \"#utility.yul\":2077:2082   */\n      dup3\n        /* \"#utility.yul\":2059:2083   */\n      tag_52\n      jump\t// in\n    tag_51:\n        /* \"#utility.yul\":2048:2083   */\n      swap1\n      pop\n        /* \"#utility.yul\":1993:2089   */\n      swap2\n      swap1\n      pop\n      jump\t// out\n        /* \"#utility.yul\":2095:2221   */\n    tag_52:\n        /* \"#utility.yul\":2132:2139   */\n      0x00\n        /* \"#utility.yul\":2172:2214   */\n      0xffffffffffffffffffffffffffffffffffffffff\n        /* \"#utility.yul\":2165:2170   */\n      dup3\n        /* \"#utility.yul\":2161:2215   */\n      and\n        /* \"#utility.yul\":2150:2215   */\n      swap1\n      pop\n        /* \"#utility.yul\":2095:2221   */\n      swap2\n      swap1\n      pop\n      jump\t// out\n        /* \"#utility.yul\":2227:2304   */\n    tag_36:\n        /* \"#utility.yul\":2264:2271   */\n      0x00\n        /* \"#utility.yul\":2293:2298   */\n      dup2\n        /* \"#utility.yul\":2282:2298   */\n      swap1\n      pop\n        /* \"#utility.yul\":2227:2304   */\n      swap2\n      swap1\n      pop\n      jump\t// out\n        /* \"#utility.yul\":2310:2490   */\n    tag_49:\n        /* \"#utility.yul\":2358:2435   */\n      0x4e487b7100000000000000000000000000000000000000000000000000000000\n        /* \"#utility.yul\":2355:2356   */\n      0x00\n        /* \"#utility.yul\":2348:2436   */\n      mstore\n        /* \"#utility.yul\":2455:2459   */\n      0x11\n        /* \"#utility.yul\":2452:2453   */\n      0x04\n        /* \"#utility.yul\":2445:2460   */\n      mstore\n        /* \"#utility.yul\":2479:2483   */\n      0x24\n        /* \"#utility.yul\":2476:2477   */\n      0x00\n        /* \"#utility.yul\":2469:2484   */\n      revert\n        /* \"#utility.yul\":2496:2655   */\n    tag_32:\n        /* \"#utility.yul\":2636:2647   */\n      0x6e6f74206f776e65720000000000000000000000000000000000000000000000\n        /* \"#utility.yul\":2632:2633   */\n      0x00\n        /* \"#utility.yul\":2624:2630   */\n      dup3\n        /* \"#utility.yul\":2620:2634   */\n      add\n        /* \"#utility.yul\":2613:2648   */\n      mstore\n        /* \"#utility.yul\":2496:2655   */\n      pop\n      jump\t// out\n\n    auxdata: 0xa26469706673582212202964ee2fff2904446d4c7f0f8329ab6009b742215a5a2fb1354d132838e4eca464736f6c63430008070033\n}\n",
				"bytecode": {
					"linkReferences": {},
					"object": "60a06040523373ffffffffffffffffffffffffffffffffffffffff1660809073ffffffffffffffffffffffffffffffffffffffff1660601b81525034801561004657600080fd5b5060805160601c61032761006b6000396000818160ab015261013d01526103276000f3fe608060405234801561001057600080fd5b50600436106100415760003560e01c80630c55699c1461004657806354353f2f146100645780638da5cb5b1461006e575b600080fd5b61004e61008c565b60405161005b91906101db565b60405180910390f35b61006c610092565b005b61007661013b565b60405161008391906101a0565b60405180910390f35b60005481565b3373ffffffffffffffffffffffffffffffffffffffff167f000000000000000000000000000000000000000000000000000000000000000073ffffffffffffffffffffffffffffffffffffffff1614610120576040517f08c379a0000000000000000000000000000000000000000000000000000000008152600401610117906101bb565b60405180910390fd5b60016000808282546101329190610207565b92505081905550565b7f000000000000000000000000000000000000000000000000000000000000000081565b6101688161025d565b82525050565b600061017b6009836101f6565b9150610186826102c8565b602082019050919050565b61019a8161028f565b82525050565b60006020820190506101b5600083018461015f565b92915050565b600060208201905081810360008301526101d48161016e565b9050919050565b60006020820190506101f06000830184610191565b92915050565b600082825260208201905092915050565b60006102128261028f565b915061021d8361028f565b9250827fffffffffffffffffffffffffffffffffffffffffffffffffffffffffffffffff0382111561025257610251610299565b5b828201905092915050565b60006102688261026f565b9050919050565b600073ffffffffffffffffffffffffffffffffffffffff82169050919050565b6000819050919050565b7f4e487b7100000000000000000000000000000000000000000000000000000000600052601160045260246000fd5b7f6e6f74206f776e6572000000000000000000000000000000000000000000000060008201525056fea26469706673582212202964ee2fff2904446d4c7f0f8329ab6009b742215a5a2fb1354d132838e4eca464736f6c63430008070033",
					"opcodes": "PUSH1 0xA0 PUSH1 0x40 MSTORE CALLER PUSH20 0xFFFFFFFFFFFFFFFFFFFFFFFFFFFFFFFFFFFFFFFF AND PUSH1 0x80 SWAP1 PUSH20 0xFFFFFFFFFFFFFFFFFFFFFFFFFFFFFFFFFFFFFFFF AND PUSH1 0x60 SHL DUP2 MSTORE POP CALLVALUE DUP1 ISZERO PUSH2 0x46 JUMPI PUSH1 0x0 DUP1 REVERT JUMPDEST POP PUSH1 0x80 MLOAD PUSH1 0x60 SHR PUSH2 0x327 PUSH2 0x6B PUSH1 0x0 CODECOPY PUSH1 0x0 DUP2 DUP2 PUSH1 0xAB ADD MSTORE PUSH2 0x13D ADD MSTORE PUSH2 0x327 PUSH1 0x0 RETURN INVALID PUSH1 0x80 PUSH1 0x40 MSTORE CALLVALUE DUP1 ISZERO PUSH2 0x10 JUMPI PUSH1 0x0 DUP1 REVERT JUMPDEST POP PUSH1 0x4 CALLDATASIZE LT PUSH2 0x41 JUMPI PUSH1 0x0 CALLDATALOAD PUSH1 0xE0 SHR DUP1 PUSH4 0xC55699C EQ PUSH2 0x46 JUMPI DUP1 PUSH4 0x54353F2F EQ PUSH2 0x64 JUMPI DUP1 PUSH4 0x8DA5CB5B EQ PUSH2 0x6E JUMPI JUMPDEST PUSH1 0x0 DUP1 REVERT JUMPDEST PUSH2 0x4E PUSH2 0x8C JUMP JUMPDEST PUSH1 0x40 MLOAD PUSH2 0x5B SWAP2 SWAP1 PUSH2 0x1DB JUMP JUMPDEST PUSH1 0x40 MLOAD DUP1 SWAP2 SUB SWAP1 RETURN JUMPDEST PUSH2 0x6C PUSH2 0x92 JUMP JUMPDEST STOP JUMPDEST PUSH2 0x76 PUSH2 0x13B JUMP JUMPDEST PUSH1 0x40 MLOAD PUSH2 0x83 SWAP2 SWAP1 PUSH2 0x1A0 JUMP JUMPDEST PUSH1 0x40 MLOAD DUP1 SWAP2 SUB SWAP1 RETURN JUMPDEST PUSH1 0x0 SLOAD DUP2 JUMP JUMPDEST CALLER PUSH20 0xFFFFFFFFFFFFFFFFFFFFFFFFFFFFFFFFFFFFFFFF AND PUSH32 0x0 PUSH20 0xFFFFFFFFFFFFFFFFFFFFFFFFFFFFFFFFFFFFFFFF AND EQ PUSH2 0x120 JUMPI PUSH1 0x40 MLOAD PUSH32 0x8C379A000000000000000000000000000000000000000000000000000000000 DUP2 MSTORE PUSH1 0x4 ADD PUSH2 0x117 SWAP1 PUSH2 0x1BB JUMP JUMPDEST PUSH1 0x40 MLOAD DUP1 SWAP2 SUB SWAP1 REVERT JUMPDEST PUSH1 0x1 PUSH1 0x0 DUP1 DUP3 DUP3 SLOAD PUSH2 0x132 SWAP2 SWAP1 PUSH2 0x207 JUMP JUMPDEST SWAP3 POP POP DUP2 SWAP1 SSTORE POP JUMP JUMPDEST PUSH32 0x0 DUP2 JUMP JUMPDEST PUSH2 0x168 DUP2 PUSH2 0x25D JUMP JUMPDEST DUP3 MSTORE POP POP JUMP JUMPDEST PUSH1 0x0 PUSH2 0x17B PUSH1 0x9 DUP4 PUSH2 0x1F6 JUMP JUMPDEST SWAP2 POP PUSH2 0x186 DUP3 PUSH2 0x2C8 JUMP JUMPDEST PUSH1 0x20 DUP3 ADD SWAP1 POP SWAP2 SWAP1 POP JUMP JUMPDEST PUSH2 0x19A DUP2 PUSH2 0x28F JUMP JUMPDEST DUP3 MSTORE POP POP JUMP JUMPDEST PUSH1 0x0 PUSH1 0x20 DUP3 ADD SWAP1 POP PUSH2 0x1B5 PUSH1 0x0 DUP4 ADD DUP5 PUSH2 0x15F JUMP JUMPDEST SWAP3 SWAP2 POP POP JUMP JUMPDEST PUSH1 0x0 PUSH1 0x20 DUP3 ADD SWAP1 POP DUP2 DUP2 SUB PUSH1 0x0 DUP4 ADD MSTORE PUSH2 0x1D4 DUP2 PUSH2 0x16E JUMP JUMPDEST SWAP1 POP SWAP2 SWAP1 POP JUMP JUMPDEST PUSH1 0x0 PUSH1 0x20 DUP3 ADD SWAP1 POP PUSH2 0x1F0 PUSH1 0x0 DUP4 ADD DUP5 PUSH2 0x191 JUMP JUMPDEST SWAP3 SWAP2 POP POP JUMP JUMPDEST PUSH1 0x0 DUP3 DUP3 MSTORE PUSH1 0x20 DUP3 ADD SWAP1 POP SWAP3 SWAP2 POP POP JUMP JUMPDEST PUSH1 0x0 PUSH2 0x212 DUP3 PUSH2 0x28F JUMP JUMPDEST SWAP2 POP PUSH2 0x21D DUP4 PUSH2 0x28F JUMP JUMPDEST SWAP3 POP DUP3 PUSH32 0xFFFFFFFFFFFFFFFFFFFFFFFFFFFFFFFFFFFFFFFFFFFFFFFFFFFFFFFFFFFFFFFF SUB DUP3 GT ISZERO PUSH2 0x252 JUMPI PUSH2 0x251 PUSH2 0x299 JUMP JUMPDEST JUMPDEST DUP3 DUP3 ADD SWAP1 POP SWAP3 SWAP2 POP POP JUMP JUMPDEST PUSH1 0x0 PUSH2 0x268 DUP3 PUSH2 0x26F JUMP JUMPDEST SWAP1 POP SWAP2 SWAP1 POP JUMP JUMPDEST PUSH1 0x0 PUSH20 0xFFFFFFFFFFFFFFFFFFFFFFFFFFFFFFFFFFFFFFFF DUP3 AND SWAP1 POP SWAP2 SWAP1 POP JUMP JUMPDEST PUSH1 0x0 DUP2 SWAP1 POP SWAP2 SWAP1 POP JUMP JUMPDEST PUSH32 0x4E487B7100000000000000000000000000000000000000000000000000000000 PUSH1 0x0 MSTORE PUSH1 0x11 PUSH1 0x4 MSTORE PUSH1 0x24 PUSH1 0x0 REVERT JUMPDEST PUSH32 0x6E6F74206F776E65720000000000000000000000000000000000000000000000 PUSH1 0x0 DUP3 ADD MSTORE POP JUMP INVALID LOG2 PUSH5 0x6970667358 0x22 SLT KECCAK256 0x29 PUSH5 0xEE2FFF2904 DIFFICULTY PUSH14 0x4C7F0F8329AB6009B742215A5A2F 0xB1 CALLDATALOAD 0x4D SGT 0x28 CODESIZE 0xE4 0xEC LOG4 PUSH5 0x736F6C6343 STOP ADDMOD SMOD STOP CALLER "
				},
				"gasEstimates": {
					"creation": {
						"codeDepositCost": "161400",
						"executionCost": "infinite",
						"totalCost": "infinite"
					},
					"external": {
						"example()": "infinite",
						"owner()": "infinite",
						"x()": "2407"
					}
				},
				"methodIdentifiers": {
					"example()": "54353f2f",
					"owner()": "8da5cb5b",
					"x()": "0c55699c"
				}
			},
			"storageLayout": {
				"storage": [
					{
						"astId": 7,
						"contract": "Day30_Immutable.sol:Immutable",
						"label": "x",
						"offset": 0,
						"slot": "0",
						"type": "t_uint256"
					}
				],
				"types": {
					"t_uint256": {
						"encoding": "inplace",
						"label": "uint256",
						"numberOfBytes": "32"
					}
				}
			},
			"userdoc": {
				"kind": "user",
				"methods": {},
				"version": 1
			}
		}
	}
}