{
	"Day10_Error.sol": {
		"Errors": {
			"abi": [
				{
					"inputs": [
						{
							"internalType": "uint256",
							"name": "x",
							"type": "uint256"
						}
					],
					"name": "foo",
					"outputs": [],
					"stateMutability": "nonpayable",
					"type": "function"
				},
				{
					"inputs": [],
					"name": "num",
					"outputs": [
						{
							"internalType": "uint256",
							"name": "",
							"type": "uint256"
						}
					],
					"stateMutability": "view",
					"type": "function"
				},
				{
					"inputs": [],
					"name": "testAssert",
					"outputs": [],
					"stateMutability": "view",
					"type": "function"
				},
				{
					"inputs": [
						{
							"internalType": "uint256",
							"name": "x",
							"type": "uint256"
						}
					],
					"name": "testRequire",
					"outputs": [],
					"stateMutability": "pure",
					"type": "function"
				},
				{
					"inputs": [
						{
							"internalType": "uint256",
							"name": "x",
							"type": "uint256"
						}
					],
					"name": "testRevert",
					"outputs": [],
					"stateMutability": "pure",
					"type": "function"
				}
			],
			"devdoc": {
				"kind": "dev",
				"methods": {},
				"version": 1
			},
			"evm": {
				"assembly": "    /* \"Day10_Error.sol\":308:736  contract Errors {... */\n  mstore(0x40, 0x80)\n    /* \"Day10_Error.sol\":348:351  123 */\n  0x7b\n    /* \"Day10_Error.sol\":330:351  uint public num = 123 */\n  0x00\n  sstore\n    /* \"Day10_Error.sol\":308:736  contract Errors {... */\n  callvalue\n  dup1\n  iszero\n  tag_1\n  jumpi\n  0x00\n  dup1\n  revert\ntag_1:\n  pop\n  dataSize(sub_0)\n  dup1\n  dataOffset(sub_0)\n  0x00\n  codecopy\n  0x00\n  return\nstop\n\nsub_0: assembly {\n        /* \"Day10_Error.sol\":308:736  contract Errors {... */\n      mstore(0x40, 0x80)\n      callvalue\n      dup1\n      iszero\n      tag_1\n      jumpi\n      0x00\n      dup1\n      revert\n    tag_1:\n      pop\n      jumpi(tag_2, lt(calldatasize, 0x04))\n      shr(0xe0, calldataload(0x00))\n      dup1\n      0x20987767\n      eq\n      tag_3\n      jumpi\n      dup1\n      0x2b813bc0\n      eq\n      tag_4\n      jumpi\n      dup1\n      0x2fbebd38\n      eq\n      tag_5\n      jumpi\n      dup1\n      0x4e70b1dc\n      eq\n      tag_6\n      jumpi\n      dup1\n      0xb8bd717f\n      eq\n      tag_7\n      jumpi\n    tag_2:\n      0x00\n      dup1\n      revert\n        /* \"Day10_Error.sol\":452:566  function testRevert (uint x) external pure {... */\n    tag_3:\n      tag_8\n      0x04\n      dup1\n      calldatasize\n      sub\n      dup2\n      add\n      swap1\n      tag_9\n      swap2\n      swap1\n      tag_10\n      jump\t// in\n    tag_9:\n      tag_11\n      jump\t// in\n    tag_8:\n      stop\n        /* \"Day10_Error.sol\":572:644  function testAssert () external view {... */\n    tag_4:\n      tag_12\n      tag_13\n      jump\t// in\n    tag_12:\n      stop\n        /* \"Day10_Error.sol\":650:733  function foo (uint x) external {... */\n    tag_5:\n      tag_14\n      0x04\n      dup1\n      calldatasize\n      sub\n      dup2\n      add\n      swap1\n      tag_15\n      swap2\n      swap1\n      tag_10\n      jump\t// in\n    tag_15:\n      tag_16\n      jump\t// in\n    tag_14:\n      stop\n        /* \"Day10_Error.sol\":330:351  uint public num = 123 */\n    tag_6:\n      tag_17\n      tag_18\n      jump\t// in\n    tag_17:\n      mload(0x40)\n      tag_19\n      swap2\n      swap1\n      tag_20\n      jump\t// in\n    tag_19:\n      mload(0x40)\n      dup1\n      swap2\n      sub\n      swap1\n      return\n        /* \"Day10_Error.sol\":358:446  function testRequire (uint x) external pure {... */\n    tag_7:\n      tag_21\n      0x04\n      dup1\n      calldatasize\n      sub\n      dup2\n      add\n      swap1\n      tag_22\n      swap2\n      swap1\n      tag_10\n      jump\t// in\n    tag_22:\n      tag_23\n      jump\t// in\n    tag_21:\n      stop\n        /* \"Day10_Error.sol\":452:566  function testRevert (uint x) external pure {... */\n    tag_11:\n        /* \"Day10_Error.sol\":514:516  10 */\n      0x0a\n        /* \"Day10_Error.sol\":509:510  x */\n      dup2\n        /* \"Day10_Error.sol\":509:516  x <= 10 */\n      gt\n        /* \"Day10_Error.sol\":505:560  if (x <= 10) {... */\n      tag_25\n      jumpi\n        /* \"Day10_Error.sol\":532:549  revert (\"i > 10\") */\n      mload(0x40)\n      0x08c379a000000000000000000000000000000000000000000000000000000000\n      dup2\n      mstore\n      0x04\n      add\n      tag_26\n      swap1\n      tag_27\n      jump\t// in\n    tag_26:\n      mload(0x40)\n      dup1\n      swap2\n      sub\n      swap1\n      revert\n        /* \"Day10_Error.sol\":505:560  if (x <= 10) {... */\n    tag_25:\n        /* \"Day10_Error.sol\":452:566  function testRevert (uint x) external pure {... */\n      pop\n      jump\t// out\n        /* \"Day10_Error.sol\":572:644  function testAssert () external view {... */\n    tag_13:\n        /* \"Day10_Error.sol\":633:636  123 */\n      0x7b\n        /* \"Day10_Error.sol\":626:629  num */\n      sload(0x00)\n        /* \"Day10_Error.sol\":626:636  num == 123 */\n      eq\n        /* \"Day10_Error.sol\":619:637  assert(num == 123) */\n      tag_29\n      jumpi\n      tag_30\n      tag_31\n      jump\t// in\n    tag_30:\n    tag_29:\n        /* \"Day10_Error.sol\":572:644  function testAssert () external view {... */\n      jump\t// out\n        /* \"Day10_Error.sol\":650:733  function foo (uint x) external {... */\n    tag_16:\n        /* \"Day10_Error.sol\":698:699  x */\n      dup1\n        /* \"Day10_Error.sol\":691:694  num */\n      0x00\n      dup1\n        /* \"Day10_Error.sol\":691:699  num += x */\n      dup3\n      dup3\n      sload\n      tag_33\n      swap2\n      swap1\n      tag_34\n      jump\t// in\n    tag_33:\n      swap3\n      pop\n      pop\n      dup2\n      swap1\n      sstore\n      pop\n        /* \"Day10_Error.sol\":723:725  10 */\n      0x0a\n        /* \"Day10_Error.sol\":718:719  x */\n      dup2\n        /* \"Day10_Error.sol\":718:725  x <= 10 */\n      gt\n      iszero\n        /* \"Day10_Error.sol\":709:726  require (x <= 10) */\n      tag_35\n      jumpi\n      0x00\n      dup1\n      revert\n    tag_35:\n        /* \"Day10_Error.sol\":650:733  function foo (uint x) external {... */\n      pop\n      jump\t// out\n        /* \"Day10_Error.sol\":330:351  uint public num = 123 */\n    tag_18:\n      sload(0x00)\n      dup2\n      jump\t// out\n        /* \"Day10_Error.sol\":358:446  function testRequire (uint x) external pure {... */\n    tag_23:\n        /* \"Day10_Error.sol\":426:428  10 */\n      0x0a\n        /* \"Day10_Error.sol\":421:422  x */\n      dup2\n        /* \"Day10_Error.sol\":421:428  x <= 10 */\n      gt\n      iszero\n        /* \"Day10_Error.sol\":412:439  require (x <= 10, \"x > 10\") */\n      tag_37\n      jumpi\n      mload(0x40)\n      0x08c379a000000000000000000000000000000000000000000000000000000000\n      dup2\n      mstore\n      0x04\n      add\n      tag_38\n      swap1\n      tag_39\n      jump\t// in\n    tag_38:\n      mload(0x40)\n      dup1\n      swap2\n      sub\n      swap1\n      revert\n    tag_37:\n        /* \"Day10_Error.sol\":358:446  function testRequire (uint x) external pure {... */\n      pop\n      jump\t// out\n        /* \"#utility.yul\":7:146   */\n    tag_41:\n        /* \"#utility.yul\":53:58   */\n      0x00\n        /* \"#utility.yul\":91:97   */\n      dup2\n        /* \"#utility.yul\":78:98   */\n      calldataload\n        /* \"#utility.yul\":69:98   */\n      swap1\n      pop\n        /* \"#utility.yul\":107:140   */\n      tag_43\n        /* \"#utility.yul\":134:139   */\n      dup2\n        /* \"#utility.yul\":107:140   */\n      tag_44\n      jump\t// in\n    tag_43:\n        /* \"#utility.yul\":7:146   */\n      swap3\n      swap2\n      pop\n      pop\n      jump\t// out\n        /* \"#utility.yul\":152:481   */\n    tag_10:\n        /* \"#utility.yul\":211:217   */\n      0x00\n        /* \"#utility.yul\":260:262   */\n      0x20\n        /* \"#utility.yul\":248:257   */\n      dup3\n        /* \"#utility.yul\":239:246   */\n      dup5\n        /* \"#utility.yul\":235:258   */\n      sub\n        /* \"#utility.yul\":231:263   */\n      slt\n        /* \"#utility.yul\":228:347   */\n      iszero\n      tag_46\n      jumpi\n        /* \"#utility.yul\":266:345   */\n      tag_47\n      tag_48\n      jump\t// in\n    tag_47:\n        /* \"#utility.yul\":228:347   */\n    tag_46:\n        /* \"#utility.yul\":386:387   */\n      0x00\n        /* \"#utility.yul\":411:464   */\n      tag_49\n        /* \"#utility.yul\":456:463   */\n      dup5\n        /* \"#utility.yul\":447:453   */\n      dup3\n        /* \"#utility.yul\":436:445   */\n      dup6\n        /* \"#utility.yul\":432:454   */\n      add\n        /* \"#utility.yul\":411:464   */\n      tag_41\n      jump\t// in\n    tag_49:\n        /* \"#utility.yul\":401:464   */\n      swap2\n      pop\n        /* \"#utility.yul\":357:474   */\n      pop\n        /* \"#utility.yul\":152:481   */\n      swap3\n      swap2\n      pop\n      pop\n      jump\t// out\n        /* \"#utility.yul\":487:852   */\n    tag_50:\n        /* \"#utility.yul\":629:632   */\n      0x00\n        /* \"#utility.yul\":650:716   */\n      tag_52\n        /* \"#utility.yul\":714:715   */\n      0x06\n        /* \"#utility.yul\":709:712   */\n      dup4\n        /* \"#utility.yul\":650:716   */\n      tag_53\n      jump\t// in\n    tag_52:\n        /* \"#utility.yul\":643:716   */\n      swap2\n      pop\n        /* \"#utility.yul\":725:818   */\n      tag_54\n        /* \"#utility.yul\":814:817   */\n      dup3\n        /* \"#utility.yul\":725:818   */\n      tag_55\n      jump\t// in\n    tag_54:\n        /* \"#utility.yul\":843:845   */\n      0x20\n        /* \"#utility.yul\":838:841   */\n      dup3\n        /* \"#utility.yul\":834:846   */\n      add\n        /* \"#utility.yul\":827:846   */\n      swap1\n      pop\n        /* \"#utility.yul\":487:852   */\n      swap2\n      swap1\n      pop\n      jump\t// out\n        /* \"#utility.yul\":858:1223   */\n    tag_56:\n        /* \"#utility.yul\":1000:1003   */\n      0x00\n        /* \"#utility.yul\":1021:1087   */\n      tag_58\n        /* \"#utility.yul\":1085:1086   */\n      0x06\n        /* \"#utility.yul\":1080:1083   */\n      dup4\n        /* \"#utility.yul\":1021:1087   */\n      tag_53\n      jump\t// in\n    tag_58:\n        /* \"#utility.yul\":1014:1087   */\n      swap2\n      pop\n        /* \"#utility.yul\":1096:1189   */\n      tag_59\n        /* \"#utility.yul\":1185:1188   */\n      dup3\n        /* \"#utility.yul\":1096:1189   */\n      tag_60\n      jump\t// in\n    tag_59:\n        /* \"#utility.yul\":1214:1216   */\n      0x20\n        /* \"#utility.yul\":1209:1212   */\n      dup3\n        /* \"#utility.yul\":1205:1217   */\n      add\n        /* \"#utility.yul\":1198:1217   */\n      swap1\n      pop\n        /* \"#utility.yul\":858:1223   */\n      swap2\n      swap1\n      pop\n      jump\t// out\n        /* \"#utility.yul\":1229:1347   */\n    tag_61:\n        /* \"#utility.yul\":1316:1340   */\n      tag_63\n        /* \"#utility.yul\":1334:1339   */\n      dup2\n        /* \"#utility.yul\":1316:1340   */\n      tag_64\n      jump\t// in\n    tag_63:\n        /* \"#utility.yul\":1311:1314   */\n      dup3\n        /* \"#utility.yul\":1304:1341   */\n      mstore\n        /* \"#utility.yul\":1229:1347   */\n      pop\n      pop\n      jump\t// out\n        /* \"#utility.yul\":1353:1772   */\n    tag_27:\n        /* \"#utility.yul\":1519:1523   */\n      0x00\n        /* \"#utility.yul\":1557:1559   */\n      0x20\n        /* \"#utility.yul\":1546:1555   */\n      dup3\n        /* \"#utility.yul\":1542:1560   */\n      add\n        /* \"#utility.yul\":1534:1560   */\n      swap1\n      pop\n        /* \"#utility.yul\":1606:1615   */\n      dup2\n        /* \"#utility.yul\":1600:1604   */\n      dup2\n        /* \"#utility.yul\":1596:1616   */\n      sub\n        /* \"#utility.yul\":1592:1593   */\n      0x00\n        /* \"#utility.yul\":1581:1590   */\n      dup4\n        /* \"#utility.yul\":1577:1594   */\n      add\n        /* \"#utility.yul\":1570:1617   */\n      mstore\n        /* \"#utility.yul\":1634:1765   */\n      tag_66\n        /* \"#utility.yul\":1760:1764   */\n      dup2\n        /* \"#utility.yul\":1634:1765   */\n      tag_50\n      jump\t// in\n    tag_66:\n        /* \"#utility.yul\":1626:1765   */\n      swap1\n      pop\n        /* \"#utility.yul\":1353:1772   */\n      swap2\n      swap1\n      pop\n      jump\t// out\n        /* \"#utility.yul\":1778:2197   */\n    tag_39:\n        /* \"#utility.yul\":1944:1948   */\n      0x00\n        /* \"#utility.yul\":1982:1984   */\n      0x20\n        /* \"#utility.yul\":1971:1980   */\n      dup3\n        /* \"#utility.yul\":1967:1985   */\n      add\n        /* \"#utility.yul\":1959:1985   */\n      swap1\n      pop\n        /* \"#utility.yul\":2031:2040   */\n      dup2\n        /* \"#utility.yul\":2025:2029   */\n      dup2\n        /* \"#utility.yul\":2021:2041   */\n      sub\n        /* \"#utility.yul\":2017:2018   */\n      0x00\n        /* \"#utility.yul\":2006:2015   */\n      dup4\n        /* \"#utility.yul\":2002:2019   */\n      add\n        /* \"#utility.yul\":1995:2042   */\n      mstore\n        /* \"#utility.yul\":2059:2190   */\n      tag_68\n        /* \"#utility.yul\":2185:2189   */\n      dup2\n        /* \"#utility.yul\":2059:2190   */\n      tag_56\n      jump\t// in\n    tag_68:\n        /* \"#utility.yul\":2051:2190   */\n      swap1\n      pop\n        /* \"#utility.yul\":1778:2197   */\n      swap2\n      swap1\n      pop\n      jump\t// out\n        /* \"#utility.yul\":2203:2425   */\n    tag_20:\n        /* \"#utility.yul\":2296:2300   */\n      0x00\n        /* \"#utility.yul\":2334:2336   */\n      0x20\n        /* \"#utility.yul\":2323:2332   */\n      dup3\n        /* \"#utility.yul\":2319:2337   */\n      add\n        /* \"#utility.yul\":2311:2337   */\n      swap1\n      pop\n        /* \"#utility.yul\":2347:2418   */\n      tag_70\n        /* \"#utility.yul\":2415:2416   */\n      0x00\n        /* \"#utility.yul\":2404:2413   */\n      dup4\n        /* \"#utility.yul\":2400:2417   */\n      add\n        /* \"#utility.yul\":2391:2397   */\n      dup5\n        /* \"#utility.yul\":2347:2418   */\n      tag_61\n      jump\t// in\n    tag_70:\n        /* \"#utility.yul\":2203:2425   */\n      swap3\n      swap2\n      pop\n      pop\n      jump\t// out\n        /* \"#utility.yul\":2512:2681   */\n    tag_53:\n        /* \"#utility.yul\":2596:2607   */\n      0x00\n        /* \"#utility.yul\":2630:2636   */\n      dup3\n        /* \"#utility.yul\":2625:2628   */\n      dup3\n        /* \"#utility.yul\":2618:2637   */\n      mstore\n        /* \"#utility.yul\":2670:2674   */\n      0x20\n        /* \"#utility.yul\":2665:2668   */\n      dup3\n        /* \"#utility.yul\":2661:2675   */\n      add\n        /* \"#utility.yul\":2646:2675   */\n      swap1\n      pop\n        /* \"#utility.yul\":2512:2681   */\n      swap3\n      swap2\n      pop\n      pop\n      jump\t// out\n        /* \"#utility.yul\":2687:2992   */\n    tag_34:\n        /* \"#utility.yul\":2727:2730   */\n      0x00\n        /* \"#utility.yul\":2746:2766   */\n      tag_75\n        /* \"#utility.yul\":2764:2765   */\n      dup3\n        /* \"#utility.yul\":2746:2766   */\n      tag_64\n      jump\t// in\n    tag_75:\n        /* \"#utility.yul\":2741:2766   */\n      swap2\n      pop\n        /* \"#utility.yul\":2780:2800   */\n      tag_76\n        /* \"#utility.yul\":2798:2799   */\n      dup4\n        /* \"#utility.yul\":2780:2800   */\n      tag_64\n      jump\t// in\n    tag_76:\n        /* \"#utility.yul\":2775:2800   */\n      swap3\n      pop\n        /* \"#utility.yul\":2934:2935   */\n      dup3\n        /* \"#utility.yul\":2866:2932   */\n      0xffffffffffffffffffffffffffffffffffffffffffffffffffffffffffffffff\n        /* \"#utility.yul\":2862:2936   */\n      sub\n        /* \"#utility.yul\":2859:2860   */\n      dup3\n        /* \"#utility.yul\":2856:2937   */\n      gt\n        /* \"#utility.yul\":2853:2960   */\n      iszero\n      tag_77\n      jumpi\n        /* \"#utility.yul\":2940:2958   */\n      tag_78\n      tag_79\n      jump\t// in\n    tag_78:\n        /* \"#utility.yul\":2853:2960   */\n    tag_77:\n        /* \"#utility.yul\":2984:2985   */\n      dup3\n        /* \"#utility.yul\":2981:2982   */\n      dup3\n        /* \"#utility.yul\":2977:2986   */\n      add\n        /* \"#utility.yul\":2970:2986   */\n      swap1\n      pop\n        /* \"#utility.yul\":2687:2992   */\n      swap3\n      swap2\n      pop\n      pop\n      jump\t// out\n        /* \"#utility.yul\":2998:3075   */\n    tag_64:\n        /* \"#utility.yul\":3035:3042   */\n      0x00\n        /* \"#utility.yul\":3064:3069   */\n      dup2\n        /* \"#utility.yul\":3053:3069   */\n      swap1\n      pop\n        /* \"#utility.yul\":2998:3075   */\n      swap2\n      swap1\n      pop\n      jump\t// out\n        /* \"#utility.yul\":3081:3261   */\n    tag_31:\n        /* \"#utility.yul\":3129:3206   */\n      0x4e487b7100000000000000000000000000000000000000000000000000000000\n        /* \"#utility.yul\":3126:3127   */\n      0x00\n        /* \"#utility.yul\":3119:3207   */\n      mstore\n        /* \"#utility.yul\":3226:3230   */\n      0x01\n        /* \"#utility.yul\":3223:3224   */\n      0x04\n        /* \"#utility.yul\":3216:3231   */\n      mstore\n        /* \"#utility.yul\":3250:3254   */\n      0x24\n        /* \"#utility.yul\":3247:3248   */\n      0x00\n        /* \"#utility.yul\":3240:3255   */\n      revert\n        /* \"#utility.yul\":3267:3447   */\n    tag_79:\n        /* \"#utility.yul\":3315:3392   */\n      0x4e487b7100000000000000000000000000000000000000000000000000000000\n        /* \"#utility.yul\":3312:3313   */\n      0x00\n        /* \"#utility.yul\":3305:3393   */\n      mstore\n        /* \"#utility.yul\":3412:3416   */\n      0x11\n        /* \"#utility.yul\":3409:3410   */\n      0x04\n        /* \"#utility.yul\":3402:3417   */\n      mstore\n        /* \"#utility.yul\":3436:3440   */\n      0x24\n        /* \"#utility.yul\":3433:3434   */\n      0x00\n        /* \"#utility.yul\":3426:3441   */\n      revert\n        /* \"#utility.yul\":3576:3693   */\n    tag_48:\n        /* \"#utility.yul\":3685:3686   */\n      0x00\n        /* \"#utility.yul\":3682:3683   */\n      dup1\n        /* \"#utility.yul\":3675:3687   */\n      revert\n        /* \"#utility.yul\":3699:3855   */\n    tag_55:\n        /* \"#utility.yul\":3839:3847   */\n      0x69203e2031300000000000000000000000000000000000000000000000000000\n        /* \"#utility.yul\":3835:3836   */\n      0x00\n        /* \"#utility.yul\":3827:3833   */\n      dup3\n        /* \"#utility.yul\":3823:3837   */\n      add\n        /* \"#utility.yul\":3816:3848   */\n      mstore\n        /* \"#utility.yul\":3699:3855   */\n      pop\n      jump\t// out\n        /* \"#utility.yul\":3861:4017   */\n    tag_60:\n        /* \"#utility.yul\":4001:4009   */\n      0x78203e2031300000000000000000000000000000000000000000000000000000\n        /* \"#utility.yul\":3997:3998   */\n      0x00\n        /* \"#utility.yul\":3989:3995   */\n      dup3\n        /* \"#utility.yul\":3985:3999   */\n      add\n        /* \"#utility.yul\":3978:4010   */\n      mstore\n        /* \"#utility.yul\":3861:4017   */\n      pop\n      jump\t// out\n        /* \"#utility.yul\":4023:4145   */\n    tag_44:\n        /* \"#utility.yul\":4096:4120   */\n      tag_89\n        /* \"#utility.yul\":4114:4119   */\n      dup2\n        /* \"#utility.yul\":4096:4120   */\n      tag_64\n      jump\t// in\n    tag_89:\n        /* \"#utility.yul\":4089:4094   */\n      dup2\n        /* \"#utility.yul\":4086:4121   */\n      eq\n        /* \"#utility.yul\":4076:4139   */\n      tag_90\n      jumpi\n        /* \"#utility.yul\":4135:4136   */\n      0x00\n        /* \"#utility.yul\":4132:4133   */\n      dup1\n        /* \"#utility.yul\":4125:4137   */\n      revert\n        /* \"#utility.yul\":4076:4139   */\n    tag_90:\n        /* \"#utility.yul\":4023:4145   */\n      pop\n      jump\t// out\n\n    auxdata: 0xa26469706673582212201b25f7a75f4b5056665a05c5ad9f7a1486f946a40e78418bb731c89838ab237a64736f6c63430008070033\n}\n",
				"bytecode": {
					"linkReferences": {},
					"object": "6080604052607b60005534801561001557600080fd5b5061040e806100256000396000f3fe608060405234801561001057600080fd5b50600436106100575760003560e01c8063209877671461005c5780632b813bc0146100785780632fbebd38146100825780634e70b1dc1461009e578063b8bd717f146100bc575b600080fd5b610076600480360381019061007191906101be565b6100d8565b005b61008061011e565b005b61009c600480360381019061009791906101be565b610133565b005b6100a661015c565b6040516100b39190610280565b60405180910390f35b6100d660048036038101906100d191906101be565b610162565b005b600a811161011b576040517f08c379a000000000000000000000000000000000000000000000000000000000815260040161011290610240565b60405180910390fd5b50565b607b600054146101315761013061030c565b5b565b8060008082825461014491906102ac565b92505081905550600a81111561015957600080fd5b50565b60005481565b600a8111156101a6576040517f08c379a000000000000000000000000000000000000000000000000000000000815260040161019d90610260565b60405180910390fd5b50565b6000813590506101b8816103c1565b92915050565b6000602082840312156101d4576101d361036a565b5b60006101e2848285016101a9565b91505092915050565b60006101f860068361029b565b91506102038261036f565b602082019050919050565b600061021b60068361029b565b915061022682610398565b602082019050919050565b61023a81610302565b82525050565b60006020820190508181036000830152610259816101eb565b9050919050565b600060208201905081810360008301526102798161020e565b9050919050565b60006020820190506102956000830184610231565b92915050565b600082825260208201905092915050565b60006102b782610302565b91506102c283610302565b9250827fffffffffffffffffffffffffffffffffffffffffffffffffffffffffffffffff038211156102f7576102f661033b565b5b828201905092915050565b6000819050919050565b7f4e487b7100000000000000000000000000000000000000000000000000000000600052600160045260246000fd5b7f4e487b7100000000000000000000000000000000000000000000000000000000600052601160045260246000fd5b600080fd5b7f69203e2031300000000000000000000000000000000000000000000000000000600082015250565b7f78203e2031300000000000000000000000000000000000000000000000000000600082015250565b6103ca81610302565b81146103d557600080fd5b5056fea26469706673582212201b25f7a75f4b5056665a05c5ad9f7a1486f946a40e78418bb731c89838ab237a64736f6c63430008070033",
					"opcodes": "PUSH1 0x80 PUSH1 0x40 MSTORE PUSH1 0x7B PUSH1 0x0 SSTORE CALLVALUE DUP1 ISZERO PUSH2 0x15 JUMPI PUSH1 0x0 DUP1 REVERT JUMPDEST POP PUSH2 0x40E DUP1 PUSH2 0x25 PUSH1 0x0 CODECOPY PUSH1 0x0 RETURN INVALID PUSH1 0x80 PUSH1 0x40 MSTORE CALLVALUE DUP1 ISZERO PUSH2 0x10 JUMPI PUSH1 0x0 DUP1 REVERT JUMPDEST POP PUSH1 0x4 CALLDATASIZE LT PUSH2 0x57 JUMPI PUSH1 0x0 CALLDATALOAD PUSH1 0xE0 SHR DUP1 PUSH4 0x20987767 EQ PUSH2 0x5C JUMPI DUP1 PUSH4 0x2B813BC0 EQ PUSH2 0x78 JUMPI DUP1 PUSH4 0x2FBEBD38 EQ PUSH2 0x82 JUMPI DUP1 PUSH4 0x4E70B1DC EQ PUSH2 0x9E JUMPI DUP1 PUSH4 0xB8BD717F EQ PUSH2 0xBC JUMPI JUMPDEST PUSH1 0x0 DUP1 REVERT JUMPDEST PUSH2 0x76 PUSH1 0x4 DUP1 CALLDATASIZE SUB DUP2 ADD SWAP1 PUSH2 0x71 SWAP2 SWAP1 PUSH2 0x1BE JUMP JUMPDEST PUSH2 0xD8 JUMP JUMPDEST STOP JUMPDEST PUSH2 0x80 PUSH2 0x11E JUMP JUMPDEST STOP JUMPDEST PUSH2 0x9C PUSH1 0x4 DUP1 CALLDATASIZE SUB DUP2 ADD SWAP1 PUSH2 0x97 SWAP2 SWAP1 PUSH2 0x1BE JUMP JUMPDEST PUSH2 0x133 JUMP JUMPDEST STOP JUMPDEST PUSH2 0xA6 PUSH2 0x15C JUMP JUMPDEST PUSH1 0x40 MLOAD PUSH2 0xB3 SWAP2 SWAP1 PUSH2 0x280 JUMP JUMPDEST PUSH1 0x40 MLOAD DUP1 SWAP2 SUB SWAP1 RETURN JUMPDEST PUSH2 0xD6 PUSH1 0x4 DUP1 CALLDATASIZE SUB DUP2 ADD SWAP1 PUSH2 0xD1 SWAP2 SWAP1 PUSH2 0x1BE JUMP JUMPDEST PUSH2 0x162 JUMP JUMPDEST STOP JUMPDEST PUSH1 0xA DUP2 GT PUSH2 0x11B JUMPI PUSH1 0x40 MLOAD PUSH32 0x8C379A000000000000000000000000000000000000000000000000000000000 DUP2 MSTORE PUSH1 0x4 ADD PUSH2 0x112 SWAP1 PUSH2 0x240 JUMP JUMPDEST PUSH1 0x40 MLOAD DUP1 SWAP2 SUB SWAP1 REVERT JUMPDEST POP JUMP JUMPDEST PUSH1 0x7B PUSH1 0x0 SLOAD EQ PUSH2 0x131 JUMPI PUSH2 0x130 PUSH2 0x30C JUMP JUMPDEST JUMPDEST JUMP JUMPDEST DUP1 PUSH1 0x0 DUP1 DUP3 DUP3 SLOAD PUSH2 0x144 SWAP2 SWAP1 PUSH2 0x2AC JUMP JUMPDEST SWAP3 POP POP DUP2 SWAP1 SSTORE POP PUSH1 0xA DUP2 GT ISZERO PUSH2 0x159 JUMPI PUSH1 0x0 DUP1 REVERT JUMPDEST POP JUMP JUMPDEST PUSH1 0x0 SLOAD DUP2 JUMP JUMPDEST PUSH1 0xA DUP2 GT ISZERO PUSH2 0x1A6 JUMPI PUSH1 0x40 MLOAD PUSH32 0x8C379A000000000000000000000000000000000000000000000000000000000 DUP2 MSTORE PUSH1 0x4 ADD PUSH2 0x19D SWAP1 PUSH2 0x260 JUMP JUMPDEST PUSH1 0x40 MLOAD DUP1 SWAP2 SUB SWAP1 REVERT JUMPDEST POP JUMP JUMPDEST PUSH1 0x0 DUP2 CALLDATALOAD SWAP1 POP PUSH2 0x1B8 DUP2 PUSH2 0x3C1 JUMP JUMPDEST SWAP3 SWAP2 POP POP JUMP JUMPDEST PUSH1 0x0 PUSH1 0x20 DUP3 DUP5 SUB SLT ISZERO PUSH2 0x1D4 JUMPI PUSH2 0x1D3 PUSH2 0x36A JUMP JUMPDEST JUMPDEST PUSH1 0x0 PUSH2 0x1E2 DUP5 DUP3 DUP6 ADD PUSH2 0x1A9 JUMP JUMPDEST SWAP2 POP POP SWAP3 SWAP2 POP POP JUMP JUMPDEST PUSH1 0x0 PUSH2 0x1F8 PUSH1 0x6 DUP4 PUSH2 0x29B JUMP JUMPDEST SWAP2 POP PUSH2 0x203 DUP3 PUSH2 0x36F JUMP JUMPDEST PUSH1 0x20 DUP3 ADD SWAP1 POP SWAP2 SWAP1 POP JUMP JUMPDEST PUSH1 0x0 PUSH2 0x21B PUSH1 0x6 DUP4 PUSH2 0x29B JUMP JUMPDEST SWAP2 POP PUSH2 0x226 DUP3 PUSH2 0x398 JUMP JUMPDEST PUSH1 0x20 DUP3 ADD SWAP1 POP SWAP2 SWAP1 POP JUMP JUMPDEST PUSH2 0x23A DUP2 PUSH2 0x302 JUMP JUMPDEST DUP3 MSTORE POP POP JUMP JUMPDEST PUSH1 0x0 PUSH1 0x20 DUP3 ADD SWAP1 POP DUP2 DUP2 SUB PUSH1 0x0 DUP4 ADD MSTORE PUSH2 0x259 DUP2 PUSH2 0x1EB JUMP JUMPDEST SWAP1 POP SWAP2 SWAP1 POP JUMP JUMPDEST PUSH1 0x0 PUSH1 0x20 DUP3 ADD SWAP1 POP DUP2 DUP2 SUB PUSH1 0x0 DUP4 ADD MSTORE PUSH2 0x279 DUP2 PUSH2 0x20E JUMP JUMPDEST SWAP1 POP SWAP2 SWAP1 POP JUMP JUMPDEST PUSH1 0x0 PUSH1 0x20 DUP3 ADD SWAP1 POP PUSH2 0x295 PUSH1 0x0 DUP4 ADD DUP5 PUSH2 0x231 JUMP JUMPDEST SWAP3 SWAP2 POP POP JUMP JUMPDEST PUSH1 0x0 DUP3 DUP3 MSTORE PUSH1 0x20 DUP3 ADD SWAP1 POP SWAP3 SWAP2 POP POP JUMP JUMPDEST PUSH1 0x0 PUSH2 0x2B7 DUP3 PUSH2 0x302 JUMP JUMPDEST SWAP2 POP PUSH2 0x2C2 DUP4 PUSH2 0x302 JUMP JUMPDEST SWAP3 POP DUP3 PUSH32 0xFFFFFFFFFFFFFFFFFFFFFFFFFFFFFFFFFFFFFFFFFFFFFFFFFFFFFFFFFFFFFFFF SUB DUP3 GT ISZERO PUSH2 0x2F7 JUMPI PUSH2 0x2F6 PUSH2 0x33B JUMP JUMPDEST JUMPDEST DUP3 DUP3 ADD SWAP1 POP SWAP3 SWAP2 POP POP JUMP JUMPDEST PUSH1 0x0 DUP2 SWAP1 POP SWAP2 SWAP1 POP JUMP JUMPDEST PUSH32 0x4E487B7100000000000000000000000000000000000000000000000000000000 PUSH1 0x0 MSTORE PUSH1 0x1 PUSH1 0x4 MSTORE PUSH1 0x24 PUSH1 0x0 REVERT JUMPDEST PUSH32 0x4E487B7100000000000000000000000000000000000000000000000000000000 PUSH1 0x0 MSTORE PUSH1 0x11 PUSH1 0x4 MSTORE PUSH1 0x24 PUSH1 0x0 REVERT JUMPDEST PUSH1 0x0 DUP1 REVERT JUMPDEST PUSH32 0x69203E2031300000000000000000000000000000000000000000000000000000 PUSH1 0x0 DUP3 ADD MSTORE POP JUMP JUMPDEST PUSH32 0x78203E2031300000000000000000000000000000000000000000000000000000 PUSH1 0x0 DUP3 ADD MSTORE POP JUMP JUMPDEST PUSH2 0x3CA DUP2 PUSH2 0x302 JUMP JUMPDEST DUP2 EQ PUSH2 0x3D5 JUMPI PUSH1 0x0 DUP1 REVERT JUMPDEST POP JUMP INVALID LOG2 PUSH5 0x6970667358 0x22 SLT KECCAK256 SHL 0x25 0xF7 0xA7 0x5F 0x4B POP JUMP PUSH7 0x5A05C5AD9F7A14 DUP7 0xF9 CHAINID LOG4 0xE PUSH25 0x418BB731C89838AB237A64736F6C6343000807003300000000 "
				},
				"gasEstimates": {
					"creation": {
						"codeDepositCost": "207600",
						"executionCost": "22357",
						"totalCost": "229957"
					},
					"external": {
						"foo(uint256)": "infinite",
						"num()": "2473",
						"testAssert()": "2296",
						"testRequire(uint256)": "785",
						"testRevert(uint256)": "694"
					}
				},
				"methodIdentifiers": {
					"foo(uint256)": "2fbebd38",
					"num()": "4e70b1dc",
					"testAssert()": "2b813bc0",
					"testRequire(uint256)": "b8bd717f",
					"testRevert(uint256)": "20987767"
				}
			},
			"storageLayout": {
				"storage": [
					{
						"astId": 4,
						"contract": "Day10_Error.sol:Errors",
						"label": "num",
						"offset": 0,
						"slot": "0",
						"type": "t_uint256"
					}
				],
				"types": {
					"t_uint256": {
						"encoding": "inplace",
						"label": "uint256",
						"numberOfBytes": "32"
					}
				}
			},
			"userdoc": {
				"kind": "user",
				"methods": {},
				"version": 1
			}
		}
	}
}