{
	"Day33_SendETH.sol": {
		"SendEther": {
			"abi": [
				{
					"inputs": [],
					"stateMutability": "payable",
					"type": "constructor"
				},
				{
					"inputs": [
						{
							"internalType": "address payable",
							"name": "_to",
							"type": "address"
						}
					],
					"name": "sendViaSend",
					"outputs": [],
					"stateMutability": "payable",
					"type": "function"
				},
				{
					"inputs": [
						{
							"internalType": "address payable",
							"name": "_to",
							"type": "address"
						}
					],
					"name": "sendViaTransfer",
					"outputs": [],
					"stateMutability": "payable",
					"type": "function"
				},
				{
					"stateMutability": "payable",
					"type": "receive"
				}
			],
			"devdoc": {
				"kind": "dev",
				"methods": {},
				"version": 1
			},
			"evm": {
				"assembly": "    /* \"Day33_SendETH.sol\":164:506  contract SendEther {... */\n  mstore(0x40, 0x80)\n  dataSize(sub_0)\n  dup1\n  dataOffset(sub_0)\n  0x00\n  codecopy\n  0x00\n  return\nstop\n\nsub_0: assembly {\n        /* \"Day33_SendETH.sol\":164:506  contract SendEther {... */\n      mstore(0x40, 0x80)\n      jumpi(tag_1, lt(calldatasize, 0x04))\n      shr(0xe0, calldataload(0x00))\n      dup1\n      0x636e082b\n      eq\n      tag_3\n      jumpi\n      dup1\n      0x74be4806\n      eq\n      tag_4\n      jumpi\n      jump(tag_2)\n    tag_1:\n      jumpi(tag_2, calldatasize)\n      stop\n    tag_2:\n      0x00\n      dup1\n      revert\n        /* \"Day33_SendETH.sol\":254:351  function sendViaTransfer(address payable _to) external payable {... */\n    tag_3:\n      tag_7\n      0x04\n      dup1\n      calldatasize\n      sub\n      dup2\n      add\n      swap1\n      tag_8\n      swap2\n      swap1\n      tag_9\n      jump\t// in\n    tag_8:\n      tag_10\n      jump\t// in\n    tag_7:\n      stop\n        /* \"Day33_SendETH.sol\":357:496  function sendViaSend(address payable _to) external payable {... */\n    tag_4:\n      tag_11\n      0x04\n      dup1\n      calldatasize\n      sub\n      dup2\n      add\n      swap1\n      tag_12\n      swap2\n      swap1\n      tag_9\n      jump\t// in\n    tag_12:\n      tag_13\n      jump\t// in\n    tag_11:\n      stop\n        /* \"Day33_SendETH.sol\":254:351  function sendViaTransfer(address payable _to) external payable {... */\n    tag_10:\n        /* \"Day33_SendETH.sol\":327:330  _to */\n      dup1\n        /* \"Day33_SendETH.sol\":327:339  _to.transfer */\n      0xffffffffffffffffffffffffffffffffffffffff\n      and\n        /* \"Day33_SendETH.sol\":327:344  _to.transfer(123) */\n      0x08fc\n        /* \"Day33_SendETH.sol\":340:343  123 */\n      0x7b\n        /* \"Day33_SendETH.sol\":327:344  _to.transfer(123) */\n      swap1\n      dup2\n      iszero\n      mul\n      swap1\n      mload(0x40)\n      0x00\n      mload(0x40)\n      dup1\n      dup4\n      sub\n      dup2\n      dup6\n      dup9\n      dup9\n      call\n      swap4\n      pop\n      pop\n      pop\n      pop\n      iszero\n      dup1\n      iszero\n      tag_16\n      jumpi\n      returndatasize\n      0x00\n      dup1\n      returndatacopy\n      revert(0x00, returndatasize)\n    tag_16:\n      pop\n        /* \"Day33_SendETH.sol\":254:351  function sendViaTransfer(address payable _to) external payable {... */\n      pop\n      jump\t// out\n        /* \"Day33_SendETH.sol\":357:496  function sendViaSend(address payable _to) external payable {... */\n    tag_13:\n        /* \"Day33_SendETH.sol\":426:435  bool sent */\n      0x00\n        /* \"Day33_SendETH.sol\":438:441  _to */\n      dup2\n        /* \"Day33_SendETH.sol\":438:446  _to.send */\n      0xffffffffffffffffffffffffffffffffffffffff\n      and\n        /* \"Day33_SendETH.sol\":438:451  _to.send(123) */\n      0x08fc\n        /* \"Day33_SendETH.sol\":447:450  123 */\n      0x7b\n        /* \"Day33_SendETH.sol\":438:451  _to.send(123) */\n      swap1\n      dup2\n      iszero\n      mul\n      swap1\n      mload(0x40)\n      0x00\n      mload(0x40)\n      dup1\n      dup4\n      sub\n      dup2\n      dup6\n      dup9\n      dup9\n      call\n      swap4\n      pop\n      pop\n      pop\n      pop\n        /* \"Day33_SendETH.sol\":426:451  bool sent = _to.send(123) */\n      swap1\n      pop\n        /* \"Day33_SendETH.sol\":469:473  sent */\n      dup1\n        /* \"Day33_SendETH.sol\":461:489  require(sent, \"send failed\") */\n      tag_19\n      jumpi\n      mload(0x40)\n      0x08c379a000000000000000000000000000000000000000000000000000000000\n      dup2\n      mstore\n      0x04\n      add\n      tag_20\n      swap1\n      tag_21\n      jump\t// in\n    tag_20:\n      mload(0x40)\n      dup1\n      swap2\n      sub\n      swap1\n      revert\n    tag_19:\n        /* \"Day33_SendETH.sol\":416:496  {... */\n      pop\n        /* \"Day33_SendETH.sol\":357:496  function sendViaSend(address payable _to) external payable {... */\n      pop\n      jump\t// out\n        /* \"#utility.yul\":7:162   */\n    tag_23:\n        /* \"#utility.yul\":61:66   */\n      0x00\n        /* \"#utility.yul\":99:105   */\n      dup2\n        /* \"#utility.yul\":86:106   */\n      calldataload\n        /* \"#utility.yul\":77:106   */\n      swap1\n      pop\n        /* \"#utility.yul\":115:156   */\n      tag_25\n        /* \"#utility.yul\":150:155   */\n      dup2\n        /* \"#utility.yul\":115:156   */\n      tag_26\n      jump\t// in\n    tag_25:\n        /* \"#utility.yul\":7:162   */\n      swap3\n      swap2\n      pop\n      pop\n      jump\t// out\n        /* \"#utility.yul\":168:513   */\n    tag_9:\n        /* \"#utility.yul\":235:241   */\n      0x00\n        /* \"#utility.yul\":284:286   */\n      0x20\n        /* \"#utility.yul\":272:281   */\n      dup3\n        /* \"#utility.yul\":263:270   */\n      dup5\n        /* \"#utility.yul\":259:282   */\n      sub\n        /* \"#utility.yul\":255:287   */\n      slt\n        /* \"#utility.yul\":252:371   */\n      iszero\n      tag_28\n      jumpi\n        /* \"#utility.yul\":290:369   */\n      tag_29\n      tag_30\n      jump\t// in\n    tag_29:\n        /* \"#utility.yul\":252:371   */\n    tag_28:\n        /* \"#utility.yul\":410:411   */\n      0x00\n        /* \"#utility.yul\":435:496   */\n      tag_31\n        /* \"#utility.yul\":488:495   */\n      dup5\n        /* \"#utility.yul\":479:485   */\n      dup3\n        /* \"#utility.yul\":468:477   */\n      dup6\n        /* \"#utility.yul\":464:486   */\n      add\n        /* \"#utility.yul\":435:496   */\n      tag_23\n      jump\t// in\n    tag_31:\n        /* \"#utility.yul\":425:496   */\n      swap2\n      pop\n        /* \"#utility.yul\":381:506   */\n      pop\n        /* \"#utility.yul\":168:513   */\n      swap3\n      swap2\n      pop\n      pop\n      jump\t// out\n        /* \"#utility.yul\":519:885   */\n    tag_32:\n        /* \"#utility.yul\":661:664   */\n      0x00\n        /* \"#utility.yul\":682:749   */\n      tag_34\n        /* \"#utility.yul\":746:748   */\n      0x0b\n        /* \"#utility.yul\":741:744   */\n      dup4\n        /* \"#utility.yul\":682:749   */\n      tag_35\n      jump\t// in\n    tag_34:\n        /* \"#utility.yul\":675:749   */\n      swap2\n      pop\n        /* \"#utility.yul\":758:851   */\n      tag_36\n        /* \"#utility.yul\":847:850   */\n      dup3\n        /* \"#utility.yul\":758:851   */\n      tag_37\n      jump\t// in\n    tag_36:\n        /* \"#utility.yul\":876:878   */\n      0x20\n        /* \"#utility.yul\":871:874   */\n      dup3\n        /* \"#utility.yul\":867:879   */\n      add\n        /* \"#utility.yul\":860:879   */\n      swap1\n      pop\n        /* \"#utility.yul\":519:885   */\n      swap2\n      swap1\n      pop\n      jump\t// out\n        /* \"#utility.yul\":891:1310   */\n    tag_21:\n        /* \"#utility.yul\":1057:1061   */\n      0x00\n        /* \"#utility.yul\":1095:1097   */\n      0x20\n        /* \"#utility.yul\":1084:1093   */\n      dup3\n        /* \"#utility.yul\":1080:1098   */\n      add\n        /* \"#utility.yul\":1072:1098   */\n      swap1\n      pop\n        /* \"#utility.yul\":1144:1153   */\n      dup2\n        /* \"#utility.yul\":1138:1142   */\n      dup2\n        /* \"#utility.yul\":1134:1154   */\n      sub\n        /* \"#utility.yul\":1130:1131   */\n      0x00\n        /* \"#utility.yul\":1119:1128   */\n      dup4\n        /* \"#utility.yul\":1115:1132   */\n      add\n        /* \"#utility.yul\":1108:1155   */\n      mstore\n        /* \"#utility.yul\":1172:1303   */\n      tag_39\n        /* \"#utility.yul\":1298:1302   */\n      dup2\n        /* \"#utility.yul\":1172:1303   */\n      tag_32\n      jump\t// in\n    tag_39:\n        /* \"#utility.yul\":1164:1303   */\n      swap1\n      pop\n        /* \"#utility.yul\":891:1310   */\n      swap2\n      swap1\n      pop\n      jump\t// out\n        /* \"#utility.yul\":1397:1566   */\n    tag_35:\n        /* \"#utility.yul\":1481:1492   */\n      0x00\n        /* \"#utility.yul\":1515:1521   */\n      dup3\n        /* \"#utility.yul\":1510:1513   */\n      dup3\n        /* \"#utility.yul\":1503:1522   */\n      mstore\n        /* \"#utility.yul\":1555:1559   */\n      0x20\n        /* \"#utility.yul\":1550:1553   */\n      dup3\n        /* \"#utility.yul\":1546:1560   */\n      add\n        /* \"#utility.yul\":1531:1560   */\n      swap1\n      pop\n        /* \"#utility.yul\":1397:1566   */\n      swap3\n      swap2\n      pop\n      pop\n      jump\t// out\n        /* \"#utility.yul\":1572:1676   */\n    tag_43:\n        /* \"#utility.yul\":1617:1624   */\n      0x00\n        /* \"#utility.yul\":1646:1670   */\n      tag_45\n        /* \"#utility.yul\":1664:1669   */\n      dup3\n        /* \"#utility.yul\":1646:1670   */\n      tag_46\n      jump\t// in\n    tag_45:\n        /* \"#utility.yul\":1635:1670   */\n      swap1\n      pop\n        /* \"#utility.yul\":1572:1676   */\n      swap2\n      swap1\n      pop\n      jump\t// out\n        /* \"#utility.yul\":1682:1808   */\n    tag_46:\n        /* \"#utility.yul\":1719:1726   */\n      0x00\n        /* \"#utility.yul\":1759:1801   */\n      0xffffffffffffffffffffffffffffffffffffffff\n        /* \"#utility.yul\":1752:1757   */\n      dup3\n        /* \"#utility.yul\":1748:1802   */\n      and\n        /* \"#utility.yul\":1737:1802   */\n      swap1\n      pop\n        /* \"#utility.yul\":1682:1808   */\n      swap2\n      swap1\n      pop\n      jump\t// out\n        /* \"#utility.yul\":1937:2054   */\n    tag_30:\n        /* \"#utility.yul\":2046:2047   */\n      0x00\n        /* \"#utility.yul\":2043:2044   */\n      dup1\n        /* \"#utility.yul\":2036:2048   */\n      revert\n        /* \"#utility.yul\":2060:2221   */\n    tag_37:\n        /* \"#utility.yul\":2200:2213   */\n      0x73656e64206661696c6564000000000000000000000000000000000000000000\n        /* \"#utility.yul\":2196:2197   */\n      0x00\n        /* \"#utility.yul\":2188:2194   */\n      dup3\n        /* \"#utility.yul\":2184:2198   */\n      add\n        /* \"#utility.yul\":2177:2214   */\n      mstore\n        /* \"#utility.yul\":2060:2221   */\n      pop\n      jump\t// out\n        /* \"#utility.yul\":2227:2365   */\n    tag_26:\n        /* \"#utility.yul\":2308:2340   */\n      tag_53\n        /* \"#utility.yul\":2334:2339   */\n      dup2\n        /* \"#utility.yul\":2308:2340   */\n      tag_43\n      jump\t// in\n    tag_53:\n        /* \"#utility.yul\":2301:2306   */\n      dup2\n        /* \"#utility.yul\":2298:2341   */\n      eq\n        /* \"#utility.yul\":2288:2359   */\n      tag_54\n      jumpi\n        /* \"#utility.yul\":2355:2356   */\n      0x00\n        /* \"#utility.yul\":2352:2353   */\n      dup1\n        /* \"#utility.yul\":2345:2357   */\n      revert\n        /* \"#utility.yul\":2288:2359   */\n    tag_54:\n        /* \"#utility.yul\":2227:2365   */\n      pop\n      jump\t// out\n\n    auxdata: 0xa2646970667358221220a0eff3828fcd25c2fc6c84dc64c2705fc566b73d69204f156d330a05ef23aacb64736f6c63430008070033\n}\n",
				"bytecode": {
					"linkReferences": {},
					"object": "608060405261027d806100136000396000f3fe60806040526004361061002d5760003560e01c8063636e082b1461003957806374be48061461005557610034565b3661003457005b600080fd5b610053600480360381019061004e919061014f565b610071565b005b61006f600480360381019061006a919061014f565b6100bc565b005b8073ffffffffffffffffffffffffffffffffffffffff166108fc607b9081150290604051600060405180830381858888f193505050501580156100b8573d6000803e3d6000fd5b5050565b60008173ffffffffffffffffffffffffffffffffffffffff166108fc607b9081150290604051600060405180830381858888f19350505050905080610136576040517f08c379a000000000000000000000000000000000000000000000000000000000815260040161012d9061019f565b60405180910390fd5b5050565b60008135905061014981610230565b92915050565b60006020828403121561016557610164610202565b5b60006101738482850161013a565b91505092915050565b6000610189600b836101bf565b915061019482610207565b602082019050919050565b600060208201905081810360008301526101b88161017c565b9050919050565b600082825260208201905092915050565b60006101db826101e2565b9050919050565b600073ffffffffffffffffffffffffffffffffffffffff82169050919050565b600080fd5b7f73656e64206661696c6564000000000000000000000000000000000000000000600082015250565b610239816101d0565b811461024457600080fd5b5056fea2646970667358221220a0eff3828fcd25c2fc6c84dc64c2705fc566b73d69204f156d330a05ef23aacb64736f6c63430008070033",
					"opcodes": "PUSH1 0x80 PUSH1 0x40 MSTORE PUSH2 0x27D DUP1 PUSH2 0x13 PUSH1 0x0 CODECOPY PUSH1 0x0 RETURN INVALID PUSH1 0x80 PUSH1 0x40 MSTORE PUSH1 0x4 CALLDATASIZE LT PUSH2 0x2D JUMPI PUSH1 0x0 CALLDATALOAD PUSH1 0xE0 SHR DUP1 PUSH4 0x636E082B EQ PUSH2 0x39 JUMPI DUP1 PUSH4 0x74BE4806 EQ PUSH2 0x55 JUMPI PUSH2 0x34 JUMP JUMPDEST CALLDATASIZE PUSH2 0x34 JUMPI STOP JUMPDEST PUSH1 0x0 DUP1 REVERT JUMPDEST PUSH2 0x53 PUSH1 0x4 DUP1 CALLDATASIZE SUB DUP2 ADD SWAP1 PUSH2 0x4E SWAP2 SWAP1 PUSH2 0x14F JUMP JUMPDEST PUSH2 0x71 JUMP JUMPDEST STOP JUMPDEST PUSH2 0x6F PUSH1 0x4 DUP1 CALLDATASIZE SUB DUP2 ADD SWAP1 PUSH2 0x6A SWAP2 SWAP1 PUSH2 0x14F JUMP JUMPDEST PUSH2 0xBC JUMP JUMPDEST STOP JUMPDEST DUP1 PUSH20 0xFFFFFFFFFFFFFFFFFFFFFFFFFFFFFFFFFFFFFFFF AND PUSH2 0x8FC PUSH1 0x7B SWAP1 DUP2 ISZERO MUL SWAP1 PUSH1 0x40 MLOAD PUSH1 0x0 PUSH1 0x40 MLOAD DUP1 DUP4 SUB DUP2 DUP6 DUP9 DUP9 CALL SWAP4 POP POP POP POP ISZERO DUP1 ISZERO PUSH2 0xB8 JUMPI RETURNDATASIZE PUSH1 0x0 DUP1 RETURNDATACOPY RETURNDATASIZE PUSH1 0x0 REVERT JUMPDEST POP POP JUMP JUMPDEST PUSH1 0x0 DUP2 PUSH20 0xFFFFFFFFFFFFFFFFFFFFFFFFFFFFFFFFFFFFFFFF AND PUSH2 0x8FC PUSH1 0x7B SWAP1 DUP2 ISZERO MUL SWAP1 PUSH1 0x40 MLOAD PUSH1 0x0 PUSH1 0x40 MLOAD DUP1 DUP4 SUB DUP2 DUP6 DUP9 DUP9 CALL SWAP4 POP POP POP POP SWAP1 POP DUP1 PUSH2 0x136 JUMPI PUSH1 0x40 MLOAD PUSH32 0x8C379A000000000000000000000000000000000000000000000000000000000 DUP2 MSTORE PUSH1 0x4 ADD PUSH2 0x12D SWAP1 PUSH2 0x19F JUMP JUMPDEST PUSH1 0x40 MLOAD DUP1 SWAP2 SUB SWAP1 REVERT JUMPDEST POP POP JUMP JUMPDEST PUSH1 0x0 DUP2 CALLDATALOAD SWAP1 POP PUSH2 0x149 DUP2 PUSH2 0x230 JUMP JUMPDEST SWAP3 SWAP2 POP POP JUMP JUMPDEST PUSH1 0x0 PUSH1 0x20 DUP3 DUP5 SUB SLT ISZERO PUSH2 0x165 JUMPI PUSH2 0x164 PUSH2 0x202 JUMP JUMPDEST JUMPDEST PUSH1 0x0 PUSH2 0x173 DUP5 DUP3 DUP6 ADD PUSH2 0x13A JUMP JUMPDEST SWAP2 POP POP SWAP3 SWAP2 POP POP JUMP JUMPDEST PUSH1 0x0 PUSH2 0x189 PUSH1 0xB DUP4 PUSH2 0x1BF JUMP JUMPDEST SWAP2 POP PUSH2 0x194 DUP3 PUSH2 0x207 JUMP JUMPDEST PUSH1 0x20 DUP3 ADD SWAP1 POP SWAP2 SWAP1 POP JUMP JUMPDEST PUSH1 0x0 PUSH1 0x20 DUP3 ADD SWAP1 POP DUP2 DUP2 SUB PUSH1 0x0 DUP4 ADD MSTORE PUSH2 0x1B8 DUP2 PUSH2 0x17C JUMP JUMPDEST SWAP1 POP SWAP2 SWAP1 POP JUMP JUMPDEST PUSH1 0x0 DUP3 DUP3 MSTORE PUSH1 0x20 DUP3 ADD SWAP1 POP SWAP3 SWAP2 POP POP JUMP JUMPDEST PUSH1 0x0 PUSH2 0x1DB DUP3 PUSH2 0x1E2 JUMP JUMPDEST SWAP1 POP SWAP2 SWAP1 POP JUMP JUMPDEST PUSH1 0x0 PUSH20 0xFFFFFFFFFFFFFFFFFFFFFFFFFFFFFFFFFFFFFFFF DUP3 AND SWAP1 POP SWAP2 SWAP1 POP JUMP JUMPDEST PUSH1 0x0 DUP1 REVERT JUMPDEST PUSH32 0x73656E64206661696C6564000000000000000000000000000000000000000000 PUSH1 0x0 DUP3 ADD MSTORE POP JUMP JUMPDEST PUSH2 0x239 DUP2 PUSH2 0x1D0 JUMP JUMPDEST DUP2 EQ PUSH2 0x244 JUMPI PUSH1 0x0 DUP1 REVERT JUMPDEST POP JUMP INVALID LOG2 PUSH5 0x6970667358 0x22 SLT KECCAK256 LOG0 0xEF RETURN DUP3 DUP16 0xCD 0x25 0xC2 0xFC PUSH13 0x84DC64C2705FC566B73D69204F ISZERO PUSH14 0x330A05EF23AACB64736F6C634300 ADDMOD SMOD STOP CALLER "
				},
				"gasEstimates": {
					"creation": {
						"codeDepositCost": "127400",
						"executionCost": "147",
						"totalCost": "127547"
					},
					"external": {
						"sendViaSend(address)": "infinite",
						"sendViaTransfer(address)": "infinite"
					}
				},
				"methodIdentifiers": {
					"sendViaSend(address)": "74be4806",
					"sendViaTransfer(address)": "636e082b"
				}
			},
			"storageLayout": {
				"storage": [],
				"types": null
			},
			"userdoc": {
				"kind": "user",
				"methods": {},
				"version": 1
			}
		}
	}
}