{
	"Day2_ValueTypes.sol": {
		"ValueTypes": {
			"abi": [
				{
					"inputs": [],
					"name": "a",
					"outputs": [
						{
							"internalType": "bool",
							"name": "",
							"type": "bool"
						}
					],
					"stateMutability": "view",
					"type": "function"
				},
				{
					"inputs": [],
					"name": "b",
					"outputs": [
						{
							"internalType": "uint256",
							"name": "",
							"type": "uint256"
						}
					],
					"stateMutability": "view",
					"type": "function"
				},
				{
					"inputs": [],
					"name": "c",
					"outputs": [
						{
							"internalType": "int256",
							"name": "",
							"type": "int256"
						}
					],
					"stateMutability": "view",
					"type": "function"
				},
				{
					"inputs": [],
					"name": "maxInt",
					"outputs": [
						{
							"internalType": "int256",
							"name": "",
							"type": "int256"
						}
					],
					"stateMutability": "view",
					"type": "function"
				},
				{
					"inputs": [],
					"name": "minInt",
					"outputs": [
						{
							"internalType": "int256",
							"name": "",
							"type": "int256"
						}
					],
					"stateMutability": "view",
					"type": "function"
				}
			],
			"devdoc": {
				"kind": "dev",
				"methods": {},
				"version": 1
			},
			"evm": {
				"assembly": "    /* \"Day2_ValueTypes.sol\":95:259  contract ValueTypes {... */\n  mstore(0x40, 0x80)\n    /* \"Day2_ValueTypes.sol\":198:211  type(int).max */\n  0x7fffffffffffffffffffffffffffffffffffffffffffffffffffffffffffffff\n    /* \"Day2_ValueTypes.sol\":178:211  int public maxInt = type(int).max */\n  0x03\n  sstore\n    /* \"Day2_ValueTypes.sol\":237:250  type(int).min */\n  0x8000000000000000000000000000000000000000000000000000000000000000\n    /* \"Day2_ValueTypes.sol\":217:250  int public minInt = type(int).min */\n  0x04\n  sstore\n    /* \"Day2_ValueTypes.sol\":95:259  contract ValueTypes {... */\n  callvalue\n  dup1\n  iszero\n  tag_1\n  jumpi\n  0x00\n  dup1\n  revert\ntag_1:\n  pop\n  dataSize(sub_0)\n  dup1\n  dataOffset(sub_0)\n  0x00\n  codecopy\n  0x00\n  return\nstop\n\nsub_0: assembly {\n        /* \"Day2_ValueTypes.sol\":95:259  contract ValueTypes {... */\n      mstore(0x40, 0x80)\n      callvalue\n      dup1\n      iszero\n      tag_1\n      jumpi\n      0x00\n      dup1\n      revert\n    tag_1:\n      pop\n      jumpi(tag_2, lt(calldatasize, 0x04))\n      shr(0xe0, calldataload(0x00))\n      dup1\n      0x0dbe671f\n      eq\n      tag_3\n      jumpi\n      dup1\n      0x4df7e3d0\n      eq\n      tag_4\n      jumpi\n      dup1\n      0x7a4c2571\n      eq\n      tag_5\n      jumpi\n      dup1\n      0x7e4e14cc\n      eq\n      tag_6\n      jumpi\n      dup1\n      0xc3da42b8\n      eq\n      tag_7\n      jumpi\n    tag_2:\n      0x00\n      dup1\n      revert\n        /* \"Day2_ValueTypes.sol\":121:134  bool public a */\n    tag_3:\n      tag_8\n      tag_9\n      jump\t// in\n    tag_8:\n      mload(0x40)\n      tag_10\n      swap2\n      swap1\n      tag_11\n      jump\t// in\n    tag_10:\n      mload(0x40)\n      dup1\n      swap2\n      sub\n      swap1\n      return\n        /* \"Day2_ValueTypes.sol\":140:153  uint public b */\n    tag_4:\n      tag_12\n      tag_13\n      jump\t// in\n    tag_12:\n      mload(0x40)\n      tag_14\n      swap2\n      swap1\n      tag_15\n      jump\t// in\n    tag_14:\n      mload(0x40)\n      dup1\n      swap2\n      sub\n      swap1\n      return\n        /* \"Day2_ValueTypes.sol\":178:211  int public maxInt = type(int).max */\n    tag_5:\n      tag_16\n      tag_17\n      jump\t// in\n    tag_16:\n      mload(0x40)\n      tag_18\n      swap2\n      swap1\n      tag_19\n      jump\t// in\n    tag_18:\n      mload(0x40)\n      dup1\n      swap2\n      sub\n      swap1\n      return\n        /* \"Day2_ValueTypes.sol\":217:250  int public minInt = type(int).min */\n    tag_6:\n      tag_20\n      tag_21\n      jump\t// in\n    tag_20:\n      mload(0x40)\n      tag_22\n      swap2\n      swap1\n      tag_19\n      jump\t// in\n    tag_22:\n      mload(0x40)\n      dup1\n      swap2\n      sub\n      swap1\n      return\n        /* \"Day2_ValueTypes.sol\":159:171  int public c */\n    tag_7:\n      tag_23\n      tag_24\n      jump\t// in\n    tag_23:\n      mload(0x40)\n      tag_25\n      swap2\n      swap1\n      tag_19\n      jump\t// in\n    tag_25:\n      mload(0x40)\n      dup1\n      swap2\n      sub\n      swap1\n      return\n        /* \"Day2_ValueTypes.sol\":121:134  bool public a */\n    tag_9:\n      0x00\n      dup1\n      sload\n      swap1\n      0x0100\n      exp\n      swap1\n      div\n      0xff\n      and\n      dup2\n      jump\t// out\n        /* \"Day2_ValueTypes.sol\":140:153  uint public b */\n    tag_13:\n      sload(0x01)\n      dup2\n      jump\t// out\n        /* \"Day2_ValueTypes.sol\":178:211  int public maxInt = type(int).max */\n    tag_17:\n      sload(0x03)\n      dup2\n      jump\t// out\n        /* \"Day2_ValueTypes.sol\":217:250  int public minInt = type(int).min */\n    tag_21:\n      sload(0x04)\n      dup2\n      jump\t// out\n        /* \"Day2_ValueTypes.sol\":159:171  int public c */\n    tag_24:\n      sload(0x02)\n      dup2\n      jump\t// out\n        /* \"#utility.yul\":7:116   */\n    tag_27:\n        /* \"#utility.yul\":88:109   */\n      tag_29\n        /* \"#utility.yul\":103:108   */\n      dup2\n        /* \"#utility.yul\":88:109   */\n      tag_30\n      jump\t// in\n    tag_29:\n        /* \"#utility.yul\":83:86   */\n      dup3\n        /* \"#utility.yul\":76:110   */\n      mstore\n        /* \"#utility.yul\":7:116   */\n      pop\n      pop\n      jump\t// out\n        /* \"#utility.yul\":122:237   */\n    tag_31:\n        /* \"#utility.yul\":207:230   */\n      tag_33\n        /* \"#utility.yul\":224:229   */\n      dup2\n        /* \"#utility.yul\":207:230   */\n      tag_34\n      jump\t// in\n    tag_33:\n        /* \"#utility.yul\":202:205   */\n      dup3\n        /* \"#utility.yul\":195:231   */\n      mstore\n        /* \"#utility.yul\":122:237   */\n      pop\n      pop\n      jump\t// out\n        /* \"#utility.yul\":243:361   */\n    tag_35:\n        /* \"#utility.yul\":330:354   */\n      tag_37\n        /* \"#utility.yul\":348:353   */\n      dup2\n        /* \"#utility.yul\":330:354   */\n      tag_38\n      jump\t// in\n    tag_37:\n        /* \"#utility.yul\":325:328   */\n      dup3\n        /* \"#utility.yul\":318:355   */\n      mstore\n        /* \"#utility.yul\":243:361   */\n      pop\n      pop\n      jump\t// out\n        /* \"#utility.yul\":367:577   */\n    tag_11:\n        /* \"#utility.yul\":454:458   */\n      0x00\n        /* \"#utility.yul\":492:494   */\n      0x20\n        /* \"#utility.yul\":481:490   */\n      dup3\n        /* \"#utility.yul\":477:495   */\n      add\n        /* \"#utility.yul\":469:495   */\n      swap1\n      pop\n        /* \"#utility.yul\":505:570   */\n      tag_40\n        /* \"#utility.yul\":567:568   */\n      0x00\n        /* \"#utility.yul\":556:565   */\n      dup4\n        /* \"#utility.yul\":552:569   */\n      add\n        /* \"#utility.yul\":543:549   */\n      dup5\n        /* \"#utility.yul\":505:570   */\n      tag_27\n      jump\t// in\n    tag_40:\n        /* \"#utility.yul\":367:577   */\n      swap3\n      swap2\n      pop\n      pop\n      jump\t// out\n        /* \"#utility.yul\":583:801   */\n    tag_19:\n        /* \"#utility.yul\":674:678   */\n      0x00\n        /* \"#utility.yul\":712:714   */\n      0x20\n        /* \"#utility.yul\":701:710   */\n      dup3\n        /* \"#utility.yul\":697:715   */\n      add\n        /* \"#utility.yul\":689:715   */\n      swap1\n      pop\n        /* \"#utility.yul\":725:794   */\n      tag_42\n        /* \"#utility.yul\":791:792   */\n      0x00\n        /* \"#utility.yul\":780:789   */\n      dup4\n        /* \"#utility.yul\":776:793   */\n      add\n        /* \"#utility.yul\":767:773   */\n      dup5\n        /* \"#utility.yul\":725:794   */\n      tag_31\n      jump\t// in\n    tag_42:\n        /* \"#utility.yul\":583:801   */\n      swap3\n      swap2\n      pop\n      pop\n      jump\t// out\n        /* \"#utility.yul\":807:1029   */\n    tag_15:\n        /* \"#utility.yul\":900:904   */\n      0x00\n        /* \"#utility.yul\":938:940   */\n      0x20\n        /* \"#utility.yul\":927:936   */\n      dup3\n        /* \"#utility.yul\":923:941   */\n      add\n        /* \"#utility.yul\":915:941   */\n      swap1\n      pop\n        /* \"#utility.yul\":951:1022   */\n      tag_44\n        /* \"#utility.yul\":1019:1020   */\n      0x00\n        /* \"#utility.yul\":1008:1017   */\n      dup4\n        /* \"#utility.yul\":1004:1021   */\n      add\n        /* \"#utility.yul\":995:1001   */\n      dup5\n        /* \"#utility.yul\":951:1022   */\n      tag_35\n      jump\t// in\n    tag_44:\n        /* \"#utility.yul\":807:1029   */\n      swap3\n      swap2\n      pop\n      pop\n      jump\t// out\n        /* \"#utility.yul\":1035:1125   */\n    tag_30:\n        /* \"#utility.yul\":1069:1076   */\n      0x00\n        /* \"#utility.yul\":1112:1117   */\n      dup2\n        /* \"#utility.yul\":1105:1118   */\n      iszero\n        /* \"#utility.yul\":1098:1119   */\n      iszero\n        /* \"#utility.yul\":1087:1119   */\n      swap1\n      pop\n        /* \"#utility.yul\":1035:1125   */\n      swap2\n      swap1\n      pop\n      jump\t// out\n        /* \"#utility.yul\":1131:1207   */\n    tag_34:\n        /* \"#utility.yul\":1167:1174   */\n      0x00\n        /* \"#utility.yul\":1196:1201   */\n      dup2\n        /* \"#utility.yul\":1185:1201   */\n      swap1\n      pop\n        /* \"#utility.yul\":1131:1207   */\n      swap2\n      swap1\n      pop\n      jump\t// out\n        /* \"#utility.yul\":1213:1290   */\n    tag_38:\n        /* \"#utility.yul\":1250:1257   */\n      0x00\n        /* \"#utility.yul\":1279:1284   */\n      dup2\n        /* \"#utility.yul\":1268:1284   */\n      swap1\n      pop\n        /* \"#utility.yul\":1213:1290   */\n      swap2\n      swap1\n      pop\n      jump\t// out\n\n    auxdata: 0xa2646970667358221220af8efcbd8b847122b1e7802e47f6c406bf213900dc89b7226bd4b388c5d2ab7464736f6c63430008070033\n}\n",
				"bytecode": {
					"linkReferences": {},
					"object": "60806040527f7fffffffffffffffffffffffffffffffffffffffffffffffffffffffffffffff6003557f800000000000000000000000000000000000000000000000000000000000000060045534801561005857600080fd5b506101ef806100686000396000f3fe608060405234801561001057600080fd5b50600436106100575760003560e01c80630dbe671f1461005c5780634df7e3d01461007a5780637a4c2571146100985780637e4e14cc146100b6578063c3da42b8146100d4575b600080fd5b6100646100f2565b6040516100719190610148565b60405180910390f35b610082610103565b60405161008f919061017e565b60405180910390f35b6100a0610109565b6040516100ad9190610163565b60405180910390f35b6100be61010f565b6040516100cb9190610163565b60405180910390f35b6100dc610115565b6040516100e99190610163565b60405180910390f35b60008054906101000a900460ff1681565b60015481565b60035481565b60045481565b60025481565b61012481610199565b82525050565b610133816101a5565b82525050565b610142816101af565b82525050565b600060208201905061015d600083018461011b565b92915050565b6000602082019050610178600083018461012a565b92915050565b60006020820190506101936000830184610139565b92915050565b60008115159050919050565b6000819050919050565b600081905091905056fea2646970667358221220af8efcbd8b847122b1e7802e47f6c406bf213900dc89b7226bd4b388c5d2ab7464736f6c63430008070033",
					"opcodes": "PUSH1 0x80 PUSH1 0x40 MSTORE PUSH32 0x7FFFFFFFFFFFFFFFFFFFFFFFFFFFFFFFFFFFFFFFFFFFFFFFFFFFFFFFFFFFFFFF PUSH1 0x3 SSTORE PUSH32 0x8000000000000000000000000000000000000000000000000000000000000000 PUSH1 0x4 SSTORE CALLVALUE DUP1 ISZERO PUSH2 0x58 JUMPI PUSH1 0x0 DUP1 REVERT JUMPDEST POP PUSH2 0x1EF DUP1 PUSH2 0x68 PUSH1 0x0 CODECOPY PUSH1 0x0 RETURN INVALID PUSH1 0x80 PUSH1 0x40 MSTORE CALLVALUE DUP1 ISZERO PUSH2 0x10 JUMPI PUSH1 0x0 DUP1 REVERT JUMPDEST POP PUSH1 0x4 CALLDATASIZE LT PUSH2 0x57 JUMPI PUSH1 0x0 CALLDATALOAD PUSH1 0xE0 SHR DUP1 PUSH4 0xDBE671F EQ PUSH2 0x5C JUMPI DUP1 PUSH4 0x4DF7E3D0 EQ PUSH2 0x7A JUMPI DUP1 PUSH4 0x7A4C2571 EQ PUSH2 0x98 JUMPI DUP1 PUSH4 0x7E4E14CC EQ PUSH2 0xB6 JUMPI DUP1 PUSH4 0xC3DA42B8 EQ PUSH2 0xD4 JUMPI JUMPDEST PUSH1 0x0 DUP1 REVERT JUMPDEST PUSH2 0x64 PUSH2 0xF2 JUMP JUMPDEST PUSH1 0x40 MLOAD PUSH2 0x71 SWAP2 SWAP1 PUSH2 0x148 JUMP JUMPDEST PUSH1 0x40 MLOAD DUP1 SWAP2 SUB SWAP1 RETURN JUMPDEST PUSH2 0x82 PUSH2 0x103 JUMP JUMPDEST PUSH1 0x40 MLOAD PUSH2 0x8F SWAP2 SWAP1 PUSH2 0x17E JUMP JUMPDEST PUSH1 0x40 MLOAD DUP1 SWAP2 SUB SWAP1 RETURN JUMPDEST PUSH2 0xA0 PUSH2 0x109 JUMP JUMPDEST PUSH1 0x40 MLOAD PUSH2 0xAD SWAP2 SWAP1 PUSH2 0x163 JUMP JUMPDEST PUSH1 0x40 MLOAD DUP1 SWAP2 SUB SWAP1 RETURN JUMPDEST PUSH2 0xBE PUSH2 0x10F JUMP JUMPDEST PUSH1 0x40 MLOAD PUSH2 0xCB SWAP2 SWAP1 PUSH2 0x163 JUMP JUMPDEST PUSH1 0x40 MLOAD DUP1 SWAP2 SUB SWAP1 RETURN JUMPDEST PUSH2 0xDC PUSH2 0x115 JUMP JUMPDEST PUSH1 0x40 MLOAD PUSH2 0xE9 SWAP2 SWAP1 PUSH2 0x163 JUMP JUMPDEST PUSH1 0x40 MLOAD DUP1 SWAP2 SUB SWAP1 RETURN JUMPDEST PUSH1 0x0 DUP1 SLOAD SWAP1 PUSH2 0x100 EXP SWAP1 DIV PUSH1 0xFF AND DUP2 JUMP JUMPDEST PUSH1 0x1 SLOAD DUP2 JUMP JUMPDEST PUSH1 0x3 SLOAD DUP2 JUMP JUMPDEST PUSH1 0x4 SLOAD DUP2 JUMP JUMPDEST PUSH1 0x2 SLOAD DUP2 JUMP JUMPDEST PUSH2 0x124 DUP2 PUSH2 0x199 JUMP JUMPDEST DUP3 MSTORE POP POP JUMP JUMPDEST PUSH2 0x133 DUP2 PUSH2 0x1A5 JUMP JUMPDEST DUP3 MSTORE POP POP JUMP JUMPDEST PUSH2 0x142 DUP2 PUSH2 0x1AF JUMP JUMPDEST DUP3 MSTORE POP POP JUMP JUMPDEST PUSH1 0x0 PUSH1 0x20 DUP3 ADD SWAP1 POP PUSH2 0x15D PUSH1 0x0 DUP4 ADD DUP5 PUSH2 0x11B JUMP JUMPDEST SWAP3 SWAP2 POP POP JUMP JUMPDEST PUSH1 0x0 PUSH1 0x20 DUP3 ADD SWAP1 POP PUSH2 0x178 PUSH1 0x0 DUP4 ADD DUP5 PUSH2 0x12A JUMP JUMPDEST SWAP3 SWAP2 POP POP JUMP JUMPDEST PUSH1 0x0 PUSH1 0x20 DUP3 ADD SWAP1 POP PUSH2 0x193 PUSH1 0x0 DUP4 ADD DUP5 PUSH2 0x139 JUMP JUMPDEST SWAP3 SWAP2 POP POP JUMP JUMPDEST PUSH1 0x0 DUP2 ISZERO ISZERO SWAP1 POP SWAP2 SWAP1 POP JUMP JUMPDEST PUSH1 0x0 DUP2 SWAP1 POP SWAP2 SWAP1 POP JUMP JUMPDEST PUSH1 0x0 DUP2 SWAP1 POP SWAP2 SWAP1 POP JUMP INVALID LOG2 PUSH5 0x6970667358 0x22 SLT KECCAK256 0xAF DUP15 0xFC 0xBD DUP12 DUP5 PUSH18 0x22B1E7802E47F6C406BF213900DC89B7226B 0xD4 0xB3 DUP9 0xC5 0xD2 0xAB PUSH21 0x64736F6C6343000807003300000000000000000000 "
				},
				"gasEstimates": {
					"creation": {
						"codeDepositCost": "99000",
						"executionCost": "44359",
						"totalCost": "143359"
					},
					"external": {
						"a()": "2446",
						"b()": "2429",
						"c()": "2495",
						"maxInt()": "2451",
						"minInt()": "2473"
					}
				},
				"methodIdentifiers": {
					"a()": "0dbe671f",
					"b()": "4df7e3d0",
					"c()": "c3da42b8",
					"maxInt()": "7a4c2571",
					"minInt()": "7e4e14cc"
				}
			},
			"storageLayout": {
				"storage": [
					{
						"astId": 3,
						"contract": "Day2_ValueTypes.sol:ValueTypes",
						"label": "a",
						"offset": 0,
						"slot": "0",
						"type": "t_bool"
					},
					{
						"astId": 5,
						"contract": "Day2_ValueTypes.sol:ValueTypes",
						"label": "b",
						"offset": 0,
						"slot": "1",
						"type": "t_uint256"
					},
					{
						"astId": 7,
						"contract": "Day2_ValueTypes.sol:ValueTypes",
						"label": "c",
						"offset": 0,
						"slot": "2",
						"type": "t_int256"
					},
					{
						"astId": 14,
						"contract": "Day2_ValueTypes.sol:ValueTypes",
						"label": "maxInt",
						"offset": 0,
						"slot": "3",
						"type": "t_int256"
					},
					{
						"astId": 21,
						"contract": "Day2_ValueTypes.sol:ValueTypes",
						"label": "minInt",
						"offset": 0,
						"slot": "4",
						"type": "t_int256"
					}
				],
				"types": {
					"t_bool": {
						"encoding": "inplace",
						"label": "bool",
						"numberOfBytes": "1"
					},
					"t_int256": {
						"encoding": "inplace",
						"label": "int256",
						"numberOfBytes": "32"
					},
					"t_uint256": {
						"encoding": "inplace",
						"label": "uint256",
						"numberOfBytes": "32"
					}
				}
			},
			"userdoc": {
				"kind": "user",
				"methods": {},
				"version": 1
			}
		}
	}
}