{
	"Day11_Modifier.sol": {
		"FunctionModifier": {
			"abi": [
				{
					"inputs": [],
					"name": "addCount",
					"outputs": [],
					"stateMutability": "nonpayable",
					"type": "function"
				},
				{
					"inputs": [],
					"name": "count",
					"outputs": [
						{
							"internalType": "uint256",
							"name": "",
							"type": "uint256"
						}
					],
					"stateMutability": "view",
					"type": "function"
				},
				{
					"inputs": [],
					"name": "foo",
					"outputs": [],
					"stateMutability": "nonpayable",
					"type": "function"
				},
				{
					"inputs": [
						{
							"internalType": "uint256",
							"name": "_x",
							"type": "uint256"
						}
					],
					"name": "inc",
					"outputs": [],
					"stateMutability": "nonpayable",
					"type": "function"
				},
				{
					"inputs": [],
					"name": "minCount",
					"outputs": [],
					"stateMutability": "nonpayable",
					"type": "function"
				},
				{
					"inputs": [],
					"name": "pause",
					"outputs": [
						{
							"internalType": "bool",
							"name": "",
							"type": "bool"
						}
					],
					"stateMutability": "view",
					"type": "function"
				},
				{
					"inputs": [
						{
							"internalType": "bool",
							"name": "_pause",
							"type": "bool"
						}
					],
					"name": "togglePause",
					"outputs": [],
					"stateMutability": "nonpayable",
					"type": "function"
				}
			],
			"devdoc": {
				"kind": "dev",
				"methods": {},
				"version": 1
			},
			"evm": {
				"assembly": "    /* \"Day11_Modifier.sol\":145:971  contract FunctionModifier {... */\n  mstore(0x40, 0x80)\n  callvalue\n  dup1\n  iszero\n  tag_1\n  jumpi\n  0x00\n  dup1\n  revert\ntag_1:\n  pop\n  dataSize(sub_0)\n  dup1\n  dataOffset(sub_0)\n  0x00\n  codecopy\n  0x00\n  return\nstop\n\nsub_0: assembly {\n        /* \"Day11_Modifier.sol\":145:971  contract FunctionModifier {... */\n      mstore(0x40, 0x80)\n      callvalue\n      dup1\n      iszero\n      tag_1\n      jumpi\n      0x00\n      dup1\n      revert\n    tag_1:\n      pop\n      jumpi(tag_2, lt(calldatasize, 0x04))\n      shr(0xe0, calldataload(0x00))\n      dup1\n      0x6cefce6e\n      gt\n      tag_10\n      jumpi\n      dup1\n      0x6cefce6e\n      eq\n      tag_6\n      jumpi\n      dup1\n      0x812600df\n      eq\n      tag_7\n      jumpi\n      dup1\n      0x8456cb59\n      eq\n      tag_8\n      jumpi\n      dup1\n      0xc2985578\n      eq\n      tag_9\n      jumpi\n      jump(tag_2)\n    tag_10:\n      dup1\n      0x06661abd\n      eq\n      tag_3\n      jumpi\n      dup1\n      0x0693b1ab\n      eq\n      tag_4\n      jumpi\n      dup1\n      0x57d159c6\n      eq\n      tag_5\n      jumpi\n    tag_2:\n      0x00\n      dup1\n      revert\n        /* \"Day11_Modifier.sol\":200:217  uint public count */\n    tag_3:\n      tag_11\n      tag_12\n      jump\t// in\n    tag_11:\n      mload(0x40)\n      tag_13\n      swap2\n      swap1\n      tag_14\n      jump\t// in\n    tag_13:\n      mload(0x40)\n      dup1\n      swap2\n      sub\n      swap1\n      return\n        /* \"Day11_Modifier.sol\":506:616  function minCount () external WhenNotPause {... */\n    tag_4:\n      tag_15\n      tag_16\n      jump\t// in\n    tag_15:\n      stop\n        /* \"Day11_Modifier.sol\":224:299  function togglePause (bool _pause) external {... */\n    tag_5:\n      tag_17\n      0x04\n      dup1\n      calldatasize\n      sub\n      dup2\n      add\n      swap1\n      tag_18\n      swap2\n      swap1\n      tag_19\n      jump\t// in\n    tag_18:\n      tag_20\n      jump\t// in\n    tag_17:\n      stop\n        /* \"Day11_Modifier.sol\":390:500  function addCount () external WhenNotPause {... */\n    tag_6:\n      tag_21\n      tag_22\n      jump\t// in\n    tag_21:\n      stop\n        /* \"Day11_Modifier.sol\":714:796  function inc (uint _x) external WhenNotPause cap(_x) {... */\n    tag_7:\n      tag_23\n      0x04\n      dup1\n      calldatasize\n      sub\n      dup2\n      add\n      swap1\n      tag_24\n      swap2\n      swap1\n      tag_25\n      jump\t// in\n    tag_24:\n      tag_26\n      jump\t// in\n    tag_23:\n      stop\n        /* \"Day11_Modifier.sol\":177:194  bool public pause */\n    tag_8:\n      tag_27\n      tag_28\n      jump\t// in\n    tag_27:\n      mload(0x40)\n      tag_29\n      swap2\n      swap1\n      tag_30\n      jump\t// in\n    tag_29:\n      mload(0x40)\n      dup1\n      swap2\n      sub\n      swap1\n      return\n        /* \"Day11_Modifier.sol\":909:969  function foo() external sandwith {... */\n    tag_9:\n      tag_31\n      tag_32\n      jump\t// in\n    tag_31:\n      stop\n        /* \"Day11_Modifier.sol\":200:217  uint public count */\n    tag_12:\n      sload(0x01)\n      dup2\n      jump\t// out\n        /* \"Day11_Modifier.sol\":506:616  function minCount () external WhenNotPause {... */\n    tag_16:\n        /* \"Day11_Modifier.sol\":350:355  pause */\n      0x00\n      dup1\n      sload\n      swap1\n      0x0100\n      exp\n      swap1\n      div\n      0xff\n      and\n        /* \"Day11_Modifier.sol\":349:355  !pause */\n      iszero\n        /* \"Day11_Modifier.sol\":340:366  require (!pause , \"pause\") */\n      tag_34\n      jumpi\n      mload(0x40)\n      0x08c379a000000000000000000000000000000000000000000000000000000000\n      dup2\n      mstore\n      0x04\n      add\n      tag_35\n      swap1\n      tag_36\n      jump\t// in\n    tag_35:\n      mload(0x40)\n      dup1\n      swap2\n      sub\n      swap1\n      revert\n    tag_34:\n        /* \"Day11_Modifier.sol\":607:608  1 */\n      0x01\n        /* \"Day11_Modifier.sol\":598:603  count */\n      dup1\n      0x00\n        /* \"Day11_Modifier.sol\":598:608  count -= 1 */\n      dup3\n      dup3\n      sload\n      tag_38\n      swap2\n      swap1\n      tag_39\n      jump\t// in\n    tag_38:\n      swap3\n      pop\n      pop\n      dup2\n      swap1\n      sstore\n      pop\n        /* \"Day11_Modifier.sol\":506:616  function minCount () external WhenNotPause {... */\n      jump\t// out\n        /* \"Day11_Modifier.sol\":224:299  function togglePause (bool _pause) external {... */\n    tag_20:\n        /* \"Day11_Modifier.sol\":286:292  _pause */\n      dup1\n        /* \"Day11_Modifier.sol\":278:283  pause */\n      0x00\n      dup1\n        /* \"Day11_Modifier.sol\":278:292  pause = _pause */\n      0x0100\n      exp\n      dup2\n      sload\n      dup2\n      0xff\n      mul\n      not\n      and\n      swap1\n      dup4\n      iszero\n      iszero\n      mul\n      or\n      swap1\n      sstore\n      pop\n        /* \"Day11_Modifier.sol\":224:299  function togglePause (bool _pause) external {... */\n      pop\n      jump\t// out\n        /* \"Day11_Modifier.sol\":390:500  function addCount () external WhenNotPause {... */\n    tag_22:\n        /* \"Day11_Modifier.sol\":350:355  pause */\n      0x00\n      dup1\n      sload\n      swap1\n      0x0100\n      exp\n      swap1\n      div\n      0xff\n      and\n        /* \"Day11_Modifier.sol\":349:355  !pause */\n      iszero\n        /* \"Day11_Modifier.sol\":340:366  require (!pause , \"pause\") */\n      tag_42\n      jumpi\n      mload(0x40)\n      0x08c379a000000000000000000000000000000000000000000000000000000000\n      dup2\n      mstore\n      0x04\n      add\n      tag_43\n      swap1\n      tag_36\n      jump\t// in\n    tag_43:\n      mload(0x40)\n      dup1\n      swap2\n      sub\n      swap1\n      revert\n    tag_42:\n        /* \"Day11_Modifier.sol\":491:492  1 */\n      0x01\n        /* \"Day11_Modifier.sol\":482:487  count */\n      dup1\n      0x00\n        /* \"Day11_Modifier.sol\":482:492  count += 1 */\n      dup3\n      dup3\n      sload\n      tag_45\n      swap2\n      swap1\n      tag_46\n      jump\t// in\n    tag_45:\n      swap3\n      pop\n      pop\n      dup2\n      swap1\n      sstore\n      pop\n        /* \"Day11_Modifier.sol\":390:500  function addCount () external WhenNotPause {... */\n      jump\t// out\n        /* \"Day11_Modifier.sol\":714:796  function inc (uint _x) external WhenNotPause cap(_x) {... */\n    tag_26:\n        /* \"Day11_Modifier.sol\":350:355  pause */\n      0x00\n      dup1\n      sload\n      swap1\n      0x0100\n      exp\n      swap1\n      div\n      0xff\n      and\n        /* \"Day11_Modifier.sol\":349:355  !pause */\n      iszero\n        /* \"Day11_Modifier.sol\":340:366  require (!pause , \"pause\") */\n      tag_48\n      jumpi\n      mload(0x40)\n      0x08c379a000000000000000000000000000000000000000000000000000000000\n      dup2\n      mstore\n      0x04\n      add\n      tag_49\n      swap1\n      tag_36\n      jump\t// in\n    tag_49:\n      mload(0x40)\n      dup1\n      swap2\n      sub\n      swap1\n      revert\n    tag_48:\n        /* \"Day11_Modifier.sol\":763:765  _x */\n      dup1\n        /* \"Day11_Modifier.sol\":674:677  100 */\n      0x64\n        /* \"Day11_Modifier.sol\":669:671  _x */\n      dup2\n        /* \"Day11_Modifier.sol\":669:677  _x < 100 */\n      lt\n        /* \"Day11_Modifier.sol\":660:690  require (_x < 100, \"x >= 100\") */\n      tag_51\n      jumpi\n      mload(0x40)\n      0x08c379a000000000000000000000000000000000000000000000000000000000\n      dup2\n      mstore\n      0x04\n      add\n      tag_52\n      swap1\n      tag_53\n      jump\t// in\n    tag_52:\n      mload(0x40)\n      dup1\n      swap2\n      sub\n      swap1\n      revert\n    tag_51:\n        /* \"Day11_Modifier.sol\":786:788  _x */\n      dup2\n        /* \"Day11_Modifier.sol\":777:782  count */\n      0x01\n      0x00\n        /* \"Day11_Modifier.sol\":777:788  count += _x */\n      dup3\n      dup3\n      sload\n      tag_55\n      swap2\n      swap1\n      tag_46\n      jump\t// in\n    tag_55:\n      swap3\n      pop\n      pop\n      dup2\n      swap1\n      sstore\n      pop\n        /* \"Day11_Modifier.sol\":376:377  _ */\n      pop\n        /* \"Day11_Modifier.sol\":714:796  function inc (uint _x) external WhenNotPause cap(_x) {... */\n      pop\n      jump\t// out\n        /* \"Day11_Modifier.sol\":177:194  bool public pause */\n    tag_28:\n      0x00\n      dup1\n      sload\n      swap1\n      0x0100\n      exp\n      swap1\n      div\n      0xff\n      and\n      dup2\n      jump\t// out\n        /* \"Day11_Modifier.sol\":909:969  function foo() external sandwith {... */\n    tag_32:\n        /* \"Day11_Modifier.sol\":862:864  10 */\n      0x0a\n        /* \"Day11_Modifier.sol\":853:858  count */\n      0x01\n      0x00\n        /* \"Day11_Modifier.sol\":853:864  count += 10 */\n      dup3\n      dup3\n      sload\n      tag_57\n      swap2\n      swap1\n      tag_46\n      jump\t// in\n    tag_57:\n      swap3\n      pop\n      pop\n      dup2\n      swap1\n      sstore\n      pop\n        /* \"Day11_Modifier.sol\":961:962  1 */\n      0x01\n        /* \"Day11_Modifier.sol\":952:957  count */\n      dup1\n      0x00\n        /* \"Day11_Modifier.sol\":952:962  count += 1 */\n      dup3\n      dup3\n      sload\n      tag_59\n      swap2\n      swap1\n      tag_46\n      jump\t// in\n    tag_59:\n      swap3\n      pop\n      pop\n      dup2\n      swap1\n      sstore\n      pop\n        /* \"Day11_Modifier.sol\":893:894  2 */\n      0x02\n        /* \"Day11_Modifier.sol\":885:890  count */\n      0x01\n      0x00\n        /* \"Day11_Modifier.sol\":885:894  count *=2 */\n      dup3\n      dup3\n      sload\n      tag_60\n      swap2\n      swap1\n      tag_61\n      jump\t// in\n    tag_60:\n      swap3\n      pop\n      pop\n      dup2\n      swap1\n      sstore\n      pop\n        /* \"Day11_Modifier.sol\":909:969  function foo() external sandwith {... */\n      jump\t// out\n        /* \"#utility.yul\":7:140   */\n    tag_63:\n        /* \"#utility.yul\":50:55   */\n      0x00\n        /* \"#utility.yul\":88:94   */\n      dup2\n        /* \"#utility.yul\":75:95   */\n      calldataload\n        /* \"#utility.yul\":66:95   */\n      swap1\n      pop\n        /* \"#utility.yul\":104:134   */\n      tag_65\n        /* \"#utility.yul\":128:133   */\n      dup2\n        /* \"#utility.yul\":104:134   */\n      tag_66\n      jump\t// in\n    tag_65:\n        /* \"#utility.yul\":7:140   */\n      swap3\n      swap2\n      pop\n      pop\n      jump\t// out\n        /* \"#utility.yul\":146:285   */\n    tag_67:\n        /* \"#utility.yul\":192:197   */\n      0x00\n        /* \"#utility.yul\":230:236   */\n      dup2\n        /* \"#utility.yul\":217:237   */\n      calldataload\n        /* \"#utility.yul\":208:237   */\n      swap1\n      pop\n        /* \"#utility.yul\":246:279   */\n      tag_69\n        /* \"#utility.yul\":273:278   */\n      dup2\n        /* \"#utility.yul\":246:279   */\n      tag_70\n      jump\t// in\n    tag_69:\n        /* \"#utility.yul\":146:285   */\n      swap3\n      swap2\n      pop\n      pop\n      jump\t// out\n        /* \"#utility.yul\":291:614   */\n    tag_19:\n        /* \"#utility.yul\":347:353   */\n      0x00\n        /* \"#utility.yul\":396:398   */\n      0x20\n        /* \"#utility.yul\":384:393   */\n      dup3\n        /* \"#utility.yul\":375:382   */\n      dup5\n        /* \"#utility.yul\":371:394   */\n      sub\n        /* \"#utility.yul\":367:399   */\n      slt\n        /* \"#utility.yul\":364:483   */\n      iszero\n      tag_72\n      jumpi\n        /* \"#utility.yul\":402:481   */\n      tag_73\n      tag_74\n      jump\t// in\n    tag_73:\n        /* \"#utility.yul\":364:483   */\n    tag_72:\n        /* \"#utility.yul\":522:523   */\n      0x00\n        /* \"#utility.yul\":547:597   */\n      tag_75\n        /* \"#utility.yul\":589:596   */\n      dup5\n        /* \"#utility.yul\":580:586   */\n      dup3\n        /* \"#utility.yul\":569:578   */\n      dup6\n        /* \"#utility.yul\":565:587   */\n      add\n        /* \"#utility.yul\":547:597   */\n      tag_63\n      jump\t// in\n    tag_75:\n        /* \"#utility.yul\":537:597   */\n      swap2\n      pop\n        /* \"#utility.yul\":493:607   */\n      pop\n        /* \"#utility.yul\":291:614   */\n      swap3\n      swap2\n      pop\n      pop\n      jump\t// out\n        /* \"#utility.yul\":620:949   */\n    tag_25:\n        /* \"#utility.yul\":679:685   */\n      0x00\n        /* \"#utility.yul\":728:730   */\n      0x20\n        /* \"#utility.yul\":716:725   */\n      dup3\n        /* \"#utility.yul\":707:714   */\n      dup5\n        /* \"#utility.yul\":703:726   */\n      sub\n        /* \"#utility.yul\":699:731   */\n      slt\n        /* \"#utility.yul\":696:815   */\n      iszero\n      tag_77\n      jumpi\n        /* \"#utility.yul\":734:813   */\n      tag_78\n      tag_74\n      jump\t// in\n    tag_78:\n        /* \"#utility.yul\":696:815   */\n    tag_77:\n        /* \"#utility.yul\":854:855   */\n      0x00\n        /* \"#utility.yul\":879:932   */\n      tag_79\n        /* \"#utility.yul\":924:931   */\n      dup5\n        /* \"#utility.yul\":915:921   */\n      dup3\n        /* \"#utility.yul\":904:913   */\n      dup6\n        /* \"#utility.yul\":900:922   */\n      add\n        /* \"#utility.yul\":879:932   */\n      tag_67\n      jump\t// in\n    tag_79:\n        /* \"#utility.yul\":869:932   */\n      swap2\n      pop\n        /* \"#utility.yul\":825:942   */\n      pop\n        /* \"#utility.yul\":620:949   */\n      swap3\n      swap2\n      pop\n      pop\n      jump\t// out\n        /* \"#utility.yul\":955:1064   */\n    tag_80:\n        /* \"#utility.yul\":1036:1057   */\n      tag_82\n        /* \"#utility.yul\":1051:1056   */\n      dup2\n        /* \"#utility.yul\":1036:1057   */\n      tag_83\n      jump\t// in\n    tag_82:\n        /* \"#utility.yul\":1031:1034   */\n      dup3\n        /* \"#utility.yul\":1024:1058   */\n      mstore\n        /* \"#utility.yul\":955:1064   */\n      pop\n      pop\n      jump\t// out\n        /* \"#utility.yul\":1070:1435   */\n    tag_84:\n        /* \"#utility.yul\":1212:1215   */\n      0x00\n        /* \"#utility.yul\":1233:1299   */\n      tag_86\n        /* \"#utility.yul\":1297:1298   */\n      0x08\n        /* \"#utility.yul\":1292:1295   */\n      dup4\n        /* \"#utility.yul\":1233:1299   */\n      tag_87\n      jump\t// in\n    tag_86:\n        /* \"#utility.yul\":1226:1299   */\n      swap2\n      pop\n        /* \"#utility.yul\":1308:1401   */\n      tag_88\n        /* \"#utility.yul\":1397:1400   */\n      dup3\n        /* \"#utility.yul\":1308:1401   */\n      tag_89\n      jump\t// in\n    tag_88:\n        /* \"#utility.yul\":1426:1428   */\n      0x20\n        /* \"#utility.yul\":1421:1424   */\n      dup3\n        /* \"#utility.yul\":1417:1429   */\n      add\n        /* \"#utility.yul\":1410:1429   */\n      swap1\n      pop\n        /* \"#utility.yul\":1070:1435   */\n      swap2\n      swap1\n      pop\n      jump\t// out\n        /* \"#utility.yul\":1441:1806   */\n    tag_90:\n        /* \"#utility.yul\":1583:1586   */\n      0x00\n        /* \"#utility.yul\":1604:1670   */\n      tag_92\n        /* \"#utility.yul\":1668:1669   */\n      0x05\n        /* \"#utility.yul\":1663:1666   */\n      dup4\n        /* \"#utility.yul\":1604:1670   */\n      tag_87\n      jump\t// in\n    tag_92:\n        /* \"#utility.yul\":1597:1670   */\n      swap2\n      pop\n        /* \"#utility.yul\":1679:1772   */\n      tag_93\n        /* \"#utility.yul\":1768:1771   */\n      dup3\n        /* \"#utility.yul\":1679:1772   */\n      tag_94\n      jump\t// in\n    tag_93:\n        /* \"#utility.yul\":1797:1799   */\n      0x20\n        /* \"#utility.yul\":1792:1795   */\n      dup3\n        /* \"#utility.yul\":1788:1800   */\n      add\n        /* \"#utility.yul\":1781:1800   */\n      swap1\n      pop\n        /* \"#utility.yul\":1441:1806   */\n      swap2\n      swap1\n      pop\n      jump\t// out\n        /* \"#utility.yul\":1812:1930   */\n    tag_95:\n        /* \"#utility.yul\":1899:1923   */\n      tag_97\n        /* \"#utility.yul\":1917:1922   */\n      dup2\n        /* \"#utility.yul\":1899:1923   */\n      tag_98\n      jump\t// in\n    tag_97:\n        /* \"#utility.yul\":1894:1897   */\n      dup3\n        /* \"#utility.yul\":1887:1924   */\n      mstore\n        /* \"#utility.yul\":1812:1930   */\n      pop\n      pop\n      jump\t// out\n        /* \"#utility.yul\":1936:2146   */\n    tag_30:\n        /* \"#utility.yul\":2023:2027   */\n      0x00\n        /* \"#utility.yul\":2061:2063   */\n      0x20\n        /* \"#utility.yul\":2050:2059   */\n      dup3\n        /* \"#utility.yul\":2046:2064   */\n      add\n        /* \"#utility.yul\":2038:2064   */\n      swap1\n      pop\n        /* \"#utility.yul\":2074:2139   */\n      tag_100\n        /* \"#utility.yul\":2136:2137   */\n      0x00\n        /* \"#utility.yul\":2125:2134   */\n      dup4\n        /* \"#utility.yul\":2121:2138   */\n      add\n        /* \"#utility.yul\":2112:2118   */\n      dup5\n        /* \"#utility.yul\":2074:2139   */\n      tag_80\n      jump\t// in\n    tag_100:\n        /* \"#utility.yul\":1936:2146   */\n      swap3\n      swap2\n      pop\n      pop\n      jump\t// out\n        /* \"#utility.yul\":2152:2571   */\n    tag_53:\n        /* \"#utility.yul\":2318:2322   */\n      0x00\n        /* \"#utility.yul\":2356:2358   */\n      0x20\n        /* \"#utility.yul\":2345:2354   */\n      dup3\n        /* \"#utility.yul\":2341:2359   */\n      add\n        /* \"#utility.yul\":2333:2359   */\n      swap1\n      pop\n        /* \"#utility.yul\":2405:2414   */\n      dup2\n        /* \"#utility.yul\":2399:2403   */\n      dup2\n        /* \"#utility.yul\":2395:2415   */\n      sub\n        /* \"#utility.yul\":2391:2392   */\n      0x00\n        /* \"#utility.yul\":2380:2389   */\n      dup4\n        /* \"#utility.yul\":2376:2393   */\n      add\n        /* \"#utility.yul\":2369:2416   */\n      mstore\n        /* \"#utility.yul\":2433:2564   */\n      tag_102\n        /* \"#utility.yul\":2559:2563   */\n      dup2\n        /* \"#utility.yul\":2433:2564   */\n      tag_84\n      jump\t// in\n    tag_102:\n        /* \"#utility.yul\":2425:2564   */\n      swap1\n      pop\n        /* \"#utility.yul\":2152:2571   */\n      swap2\n      swap1\n      pop\n      jump\t// out\n        /* \"#utility.yul\":2577:2996   */\n    tag_36:\n        /* \"#utility.yul\":2743:2747   */\n      0x00\n        /* \"#utility.yul\":2781:2783   */\n      0x20\n        /* \"#utility.yul\":2770:2779   */\n      dup3\n        /* \"#utility.yul\":2766:2784   */\n      add\n        /* \"#utility.yul\":2758:2784   */\n      swap1\n      pop\n        /* \"#utility.yul\":2830:2839   */\n      dup2\n        /* \"#utility.yul\":2824:2828   */\n      dup2\n        /* \"#utility.yul\":2820:2840   */\n      sub\n        /* \"#utility.yul\":2816:2817   */\n      0x00\n        /* \"#utility.yul\":2805:2814   */\n      dup4\n        /* \"#utility.yul\":2801:2818   */\n      add\n        /* \"#utility.yul\":2794:2841   */\n      mstore\n        /* \"#utility.yul\":2858:2989   */\n      tag_104\n        /* \"#utility.yul\":2984:2988   */\n      dup2\n        /* \"#utility.yul\":2858:2989   */\n      tag_90\n      jump\t// in\n    tag_104:\n        /* \"#utility.yul\":2850:2989   */\n      swap1\n      pop\n        /* \"#utility.yul\":2577:2996   */\n      swap2\n      swap1\n      pop\n      jump\t// out\n        /* \"#utility.yul\":3002:3224   */\n    tag_14:\n        /* \"#utility.yul\":3095:3099   */\n      0x00\n        /* \"#utility.yul\":3133:3135   */\n      0x20\n        /* \"#utility.yul\":3122:3131   */\n      dup3\n        /* \"#utility.yul\":3118:3136   */\n      add\n        /* \"#utility.yul\":3110:3136   */\n      swap1\n      pop\n        /* \"#utility.yul\":3146:3217   */\n      tag_106\n        /* \"#utility.yul\":3214:3215   */\n      0x00\n        /* \"#utility.yul\":3203:3212   */\n      dup4\n        /* \"#utility.yul\":3199:3216   */\n      add\n        /* \"#utility.yul\":3190:3196   */\n      dup5\n        /* \"#utility.yul\":3146:3217   */\n      tag_95\n      jump\t// in\n    tag_106:\n        /* \"#utility.yul\":3002:3224   */\n      swap3\n      swap2\n      pop\n      pop\n      jump\t// out\n        /* \"#utility.yul\":3311:3480   */\n    tag_87:\n        /* \"#utility.yul\":3395:3406   */\n      0x00\n        /* \"#utility.yul\":3429:3435   */\n      dup3\n        /* \"#utility.yul\":3424:3427   */\n      dup3\n        /* \"#utility.yul\":3417:3436   */\n      mstore\n        /* \"#utility.yul\":3469:3473   */\n      0x20\n        /* \"#utility.yul\":3464:3467   */\n      dup3\n        /* \"#utility.yul\":3460:3474   */\n      add\n        /* \"#utility.yul\":3445:3474   */\n      swap1\n      pop\n        /* \"#utility.yul\":3311:3480   */\n      swap3\n      swap2\n      pop\n      pop\n      jump\t// out\n        /* \"#utility.yul\":3486:3791   */\n    tag_46:\n        /* \"#utility.yul\":3526:3529   */\n      0x00\n        /* \"#utility.yul\":3545:3565   */\n      tag_111\n        /* \"#utility.yul\":3563:3564   */\n      dup3\n        /* \"#utility.yul\":3545:3565   */\n      tag_98\n      jump\t// in\n    tag_111:\n        /* \"#utility.yul\":3540:3565   */\n      swap2\n      pop\n        /* \"#utility.yul\":3579:3599   */\n      tag_112\n        /* \"#utility.yul\":3597:3598   */\n      dup4\n        /* \"#utility.yul\":3579:3599   */\n      tag_98\n      jump\t// in\n    tag_112:\n        /* \"#utility.yul\":3574:3599   */\n      swap3\n      pop\n        /* \"#utility.yul\":3733:3734   */\n      dup3\n        /* \"#utility.yul\":3665:3731   */\n      0xffffffffffffffffffffffffffffffffffffffffffffffffffffffffffffffff\n        /* \"#utility.yul\":3661:3735   */\n      sub\n        /* \"#utility.yul\":3658:3659   */\n      dup3\n        /* \"#utility.yul\":3655:3736   */\n      gt\n        /* \"#utility.yul\":3652:3759   */\n      iszero\n      tag_113\n      jumpi\n        /* \"#utility.yul\":3739:3757   */\n      tag_114\n      tag_115\n      jump\t// in\n    tag_114:\n        /* \"#utility.yul\":3652:3759   */\n    tag_113:\n        /* \"#utility.yul\":3783:3784   */\n      dup3\n        /* \"#utility.yul\":3780:3781   */\n      dup3\n        /* \"#utility.yul\":3776:3785   */\n      add\n        /* \"#utility.yul\":3769:3785   */\n      swap1\n      pop\n        /* \"#utility.yul\":3486:3791   */\n      swap3\n      swap2\n      pop\n      pop\n      jump\t// out\n        /* \"#utility.yul\":3797:4145   */\n    tag_61:\n        /* \"#utility.yul\":3837:3844   */\n      0x00\n        /* \"#utility.yul\":3860:3880   */\n      tag_117\n        /* \"#utility.yul\":3878:3879   */\n      dup3\n        /* \"#utility.yul\":3860:3880   */\n      tag_98\n      jump\t// in\n    tag_117:\n        /* \"#utility.yul\":3855:3880   */\n      swap2\n      pop\n        /* \"#utility.yul\":3894:3914   */\n      tag_118\n        /* \"#utility.yul\":3912:3913   */\n      dup4\n        /* \"#utility.yul\":3894:3914   */\n      tag_98\n      jump\t// in\n    tag_118:\n        /* \"#utility.yul\":3889:3914   */\n      swap3\n      pop\n        /* \"#utility.yul\":4082:4083   */\n      dup2\n        /* \"#utility.yul\":4014:4080   */\n      0xffffffffffffffffffffffffffffffffffffffffffffffffffffffffffffffff\n        /* \"#utility.yul\":4010:4084   */\n      div\n        /* \"#utility.yul\":4007:4008   */\n      dup4\n        /* \"#utility.yul\":4004:4085   */\n      gt\n        /* \"#utility.yul\":3999:4000   */\n      dup3\n        /* \"#utility.yul\":3992:4001   */\n      iszero\n        /* \"#utility.yul\":3985:4002   */\n      iszero\n        /* \"#utility.yul\":3981:4086   */\n      and\n        /* \"#utility.yul\":3978:4109   */\n      iszero\n      tag_119\n      jumpi\n        /* \"#utility.yul\":4089:4107   */\n      tag_120\n      tag_115\n      jump\t// in\n    tag_120:\n        /* \"#utility.yul\":3978:4109   */\n    tag_119:\n        /* \"#utility.yul\":4137:4138   */\n      dup3\n        /* \"#utility.yul\":4134:4135   */\n      dup3\n        /* \"#utility.yul\":4130:4139   */\n      mul\n        /* \"#utility.yul\":4119:4139   */\n      swap1\n      pop\n        /* \"#utility.yul\":3797:4145   */\n      swap3\n      swap2\n      pop\n      pop\n      jump\t// out\n        /* \"#utility.yul\":4151:4342   */\n    tag_39:\n        /* \"#utility.yul\":4191:4195   */\n      0x00\n        /* \"#utility.yul\":4211:4231   */\n      tag_122\n        /* \"#utility.yul\":4229:4230   */\n      dup3\n        /* \"#utility.yul\":4211:4231   */\n      tag_98\n      jump\t// in\n    tag_122:\n        /* \"#utility.yul\":4206:4231   */\n      swap2\n      pop\n        /* \"#utility.yul\":4245:4265   */\n      tag_123\n        /* \"#utility.yul\":4263:4264   */\n      dup4\n        /* \"#utility.yul\":4245:4265   */\n      tag_98\n      jump\t// in\n    tag_123:\n        /* \"#utility.yul\":4240:4265   */\n      swap3\n      pop\n        /* \"#utility.yul\":4284:4285   */\n      dup3\n        /* \"#utility.yul\":4281:4282   */\n      dup3\n        /* \"#utility.yul\":4278:4286   */\n      lt\n        /* \"#utility.yul\":4275:4309   */\n      iszero\n      tag_124\n      jumpi\n        /* \"#utility.yul\":4289:4307   */\n      tag_125\n      tag_115\n      jump\t// in\n    tag_125:\n        /* \"#utility.yul\":4275:4309   */\n    tag_124:\n        /* \"#utility.yul\":4334:4335   */\n      dup3\n        /* \"#utility.yul\":4331:4332   */\n      dup3\n        /* \"#utility.yul\":4327:4336   */\n      sub\n        /* \"#utility.yul\":4319:4336   */\n      swap1\n      pop\n        /* \"#utility.yul\":4151:4342   */\n      swap3\n      swap2\n      pop\n      pop\n      jump\t// out\n        /* \"#utility.yul\":4348:4438   */\n    tag_83:\n        /* \"#utility.yul\":4382:4389   */\n      0x00\n        /* \"#utility.yul\":4425:4430   */\n      dup2\n        /* \"#utility.yul\":4418:4431   */\n      iszero\n        /* \"#utility.yul\":4411:4432   */\n      iszero\n        /* \"#utility.yul\":4400:4432   */\n      swap1\n      pop\n        /* \"#utility.yul\":4348:4438   */\n      swap2\n      swap1\n      pop\n      jump\t// out\n        /* \"#utility.yul\":4444:4521   */\n    tag_98:\n        /* \"#utility.yul\":4481:4488   */\n      0x00\n        /* \"#utility.yul\":4510:4515   */\n      dup2\n        /* \"#utility.yul\":4499:4515   */\n      swap1\n      pop\n        /* \"#utility.yul\":4444:4521   */\n      swap2\n      swap1\n      pop\n      jump\t// out\n        /* \"#utility.yul\":4527:4707   */\n    tag_115:\n        /* \"#utility.yul\":4575:4652   */\n      0x4e487b7100000000000000000000000000000000000000000000000000000000\n        /* \"#utility.yul\":4572:4573   */\n      0x00\n        /* \"#utility.yul\":4565:4653   */\n      mstore\n        /* \"#utility.yul\":4672:4676   */\n      0x11\n        /* \"#utility.yul\":4669:4670   */\n      0x04\n        /* \"#utility.yul\":4662:4677   */\n      mstore\n        /* \"#utility.yul\":4696:4700   */\n      0x24\n        /* \"#utility.yul\":4693:4694   */\n      0x00\n        /* \"#utility.yul\":4686:4701   */\n      revert\n        /* \"#utility.yul\":4836:4953   */\n    tag_74:\n        /* \"#utility.yul\":4945:4946   */\n      0x00\n        /* \"#utility.yul\":4942:4943   */\n      dup1\n        /* \"#utility.yul\":4935:4947   */\n      revert\n        /* \"#utility.yul\":4959:5117   */\n    tag_89:\n        /* \"#utility.yul\":5099:5109   */\n      0x78203e3d20313030000000000000000000000000000000000000000000000000\n        /* \"#utility.yul\":5095:5096   */\n      0x00\n        /* \"#utility.yul\":5087:5093   */\n      dup3\n        /* \"#utility.yul\":5083:5097   */\n      add\n        /* \"#utility.yul\":5076:5110   */\n      mstore\n        /* \"#utility.yul\":4959:5117   */\n      pop\n      jump\t// out\n        /* \"#utility.yul\":5123:5278   */\n    tag_94:\n        /* \"#utility.yul\":5263:5270   */\n      0x7061757365000000000000000000000000000000000000000000000000000000\n        /* \"#utility.yul\":5259:5260   */\n      0x00\n        /* \"#utility.yul\":5251:5257   */\n      dup3\n        /* \"#utility.yul\":5247:5261   */\n      add\n        /* \"#utility.yul\":5240:5271   */\n      mstore\n        /* \"#utility.yul\":5123:5278   */\n      pop\n      jump\t// out\n        /* \"#utility.yul\":5284:5400   */\n    tag_66:\n        /* \"#utility.yul\":5354:5375   */\n      tag_135\n        /* \"#utility.yul\":5369:5374   */\n      dup2\n        /* \"#utility.yul\":5354:5375   */\n      tag_83\n      jump\t// in\n    tag_135:\n        /* \"#utility.yul\":5347:5352   */\n      dup2\n        /* \"#utility.yul\":5344:5376   */\n      eq\n        /* \"#utility.yul\":5334:5394   */\n      tag_136\n      jumpi\n        /* \"#utility.yul\":5390:5391   */\n      0x00\n        /* \"#utility.yul\":5387:5388   */\n      dup1\n        /* \"#utility.yul\":5380:5392   */\n      revert\n        /* \"#utility.yul\":5334:5394   */\n    tag_136:\n        /* \"#utility.yul\":5284:5400   */\n      pop\n      jump\t// out\n        /* \"#utility.yul\":5406:5528   */\n    tag_70:\n        /* \"#utility.yul\":5479:5503   */\n      tag_138\n        /* \"#utility.yul\":5497:5502   */\n      dup2\n        /* \"#utility.yul\":5479:5503   */\n      tag_98\n      jump\t// in\n    tag_138:\n        /* \"#utility.yul\":5472:5477   */\n      dup2\n        /* \"#utility.yul\":5469:5504   */\n      eq\n        /* \"#utility.yul\":5459:5522   */\n      tag_139\n      jumpi\n        /* \"#utility.yul\":5518:5519   */\n      0x00\n        /* \"#utility.yul\":5515:5516   */\n      dup1\n        /* \"#utility.yul\":5508:5520   */\n      revert\n        /* \"#utility.yul\":5459:5522   */\n    tag_139:\n        /* \"#utility.yul\":5406:5528   */\n      pop\n      jump\t// out\n\n    auxdata: 0xa264697066735822122087d13956ad7ca6c99826d0a26f6057374b3614bbe89f9bf4b6b888a68add3f0c64736f6c63430008070033\n}\n",
				"bytecode": {
					"linkReferences": {},
					"object": "608060405234801561001057600080fd5b5061066a806100206000396000f3fe608060405234801561001057600080fd5b506004361061007d5760003560e01c80636cefce6e1161005b5780636cefce6e146100c6578063812600df146100d05780638456cb59146100ec578063c29855781461010a5761007d565b806306661abd146100825780630693b1ab146100a057806357d159c6146100aa575b600080fd5b61008a610114565b604051610097919061045a565b60405180910390f35b6100a861011a565b005b6100c460048036038101906100bf9190610341565b610183565b005b6100ce61019f565b005b6100ea60048036038101906100e5919061036e565b610208565b005b6100f46102b7565b60405161010191906103ff565b60405180910390f35b6101126102c8565b005b60015481565b60008054906101000a900460ff1615610168576040517f08c379a000000000000000000000000000000000000000000000000000000000815260040161015f9061043a565b60405180910390fd5b600180600082825461017a9190610536565b92505081905550565b806000806101000a81548160ff02191690831515021790555050565b60008054906101000a900460ff16156101ed576040517f08c379a00000000000000000000000000000000000000000000000000000000081526004016101e49061043a565b60405180910390fd5b60018060008282546101ff9190610486565b92505081905550565b60008054906101000a900460ff1615610256576040517f08c379a000000000000000000000000000000000000000000000000000000000815260040161024d9061043a565b60405180910390fd5b806064811061029a576040517f08c379a00000000000000000000000000000000000000000000000000000000081526004016102919061041a565b60405180910390fd5b81600160008282546102ac9190610486565b925050819055505050565b60008054906101000a900460ff1681565b600a600160008282546102db9190610486565b9250508190555060018060008282546102f49190610486565b9250508190555060026001600082825461030e91906104dc565b92505081905550565b60008135905061032681610606565b92915050565b60008135905061033b8161061d565b92915050565b600060208284031215610357576103566105af565b5b600061036584828501610317565b91505092915050565b600060208284031215610384576103836105af565b5b60006103928482850161032c565b91505092915050565b6103a48161056a565b82525050565b60006103b7600883610475565b91506103c2826105b4565b602082019050919050565b60006103da600583610475565b91506103e5826105dd565b602082019050919050565b6103f981610576565b82525050565b6000602082019050610414600083018461039b565b92915050565b60006020820190508181036000830152610433816103aa565b9050919050565b60006020820190508181036000830152610453816103cd565b9050919050565b600060208201905061046f60008301846103f0565b92915050565b600082825260208201905092915050565b600061049182610576565b915061049c83610576565b9250827fffffffffffffffffffffffffffffffffffffffffffffffffffffffffffffffff038211156104d1576104d0610580565b5b828201905092915050565b60006104e782610576565b91506104f283610576565b9250817fffffffffffffffffffffffffffffffffffffffffffffffffffffffffffffffff048311821515161561052b5761052a610580565b5b828202905092915050565b600061054182610576565b915061054c83610576565b92508282101561055f5761055e610580565b5b828203905092915050565b60008115159050919050565b6000819050919050565b7f4e487b7100000000000000000000000000000000000000000000000000000000600052601160045260246000fd5b600080fd5b7f78203e3d20313030000000000000000000000000000000000000000000000000600082015250565b7f7061757365000000000000000000000000000000000000000000000000000000600082015250565b61060f8161056a565b811461061a57600080fd5b50565b61062681610576565b811461063157600080fd5b5056fea264697066735822122087d13956ad7ca6c99826d0a26f6057374b3614bbe89f9bf4b6b888a68add3f0c64736f6c63430008070033",
					"opcodes": "PUSH1 0x80 PUSH1 0x40 MSTORE CALLVALUE DUP1 ISZERO PUSH2 0x10 JUMPI PUSH1 0x0 DUP1 REVERT JUMPDEST POP PUSH2 0x66A DUP1 PUSH2 0x20 PUSH1 0x0 CODECOPY PUSH1 0x0 RETURN INVALID PUSH1 0x80 PUSH1 0x40 MSTORE CALLVALUE DUP1 ISZERO PUSH2 0x10 JUMPI PUSH1 0x0 DUP1 REVERT JUMPDEST POP PUSH1 0x4 CALLDATASIZE LT PUSH2 0x7D JUMPI PUSH1 0x0 CALLDATALOAD PUSH1 0xE0 SHR DUP1 PUSH4 0x6CEFCE6E GT PUSH2 0x5B JUMPI DUP1 PUSH4 0x6CEFCE6E EQ PUSH2 0xC6 JUMPI DUP1 PUSH4 0x812600DF EQ PUSH2 0xD0 JUMPI DUP1 PUSH4 0x8456CB59 EQ PUSH2 0xEC JUMPI DUP1 PUSH4 0xC2985578 EQ PUSH2 0x10A JUMPI PUSH2 0x7D JUMP JUMPDEST DUP1 PUSH4 0x6661ABD EQ PUSH2 0x82 JUMPI DUP1 PUSH4 0x693B1AB EQ PUSH2 0xA0 JUMPI DUP1 PUSH4 0x57D159C6 EQ PUSH2 0xAA JUMPI JUMPDEST PUSH1 0x0 DUP1 REVERT JUMPDEST PUSH2 0x8A PUSH2 0x114 JUMP JUMPDEST PUSH1 0x40 MLOAD PUSH2 0x97 SWAP2 SWAP1 PUSH2 0x45A JUMP JUMPDEST PUSH1 0x40 MLOAD DUP1 SWAP2 SUB SWAP1 RETURN JUMPDEST PUSH2 0xA8 PUSH2 0x11A JUMP JUMPDEST STOP JUMPDEST PUSH2 0xC4 PUSH1 0x4 DUP1 CALLDATASIZE SUB DUP2 ADD SWAP1 PUSH2 0xBF SWAP2 SWAP1 PUSH2 0x341 JUMP JUMPDEST PUSH2 0x183 JUMP JUMPDEST STOP JUMPDEST PUSH2 0xCE PUSH2 0x19F JUMP JUMPDEST STOP JUMPDEST PUSH2 0xEA PUSH1 0x4 DUP1 CALLDATASIZE SUB DUP2 ADD SWAP1 PUSH2 0xE5 SWAP2 SWAP1 PUSH2 0x36E JUMP JUMPDEST PUSH2 0x208 JUMP JUMPDEST STOP JUMPDEST PUSH2 0xF4 PUSH2 0x2B7 JUMP JUMPDEST PUSH1 0x40 MLOAD PUSH2 0x101 SWAP2 SWAP1 PUSH2 0x3FF JUMP JUMPDEST PUSH1 0x40 MLOAD DUP1 SWAP2 SUB SWAP1 RETURN JUMPDEST PUSH2 0x112 PUSH2 0x2C8 JUMP JUMPDEST STOP JUMPDEST PUSH1 0x1 SLOAD DUP2 JUMP JUMPDEST PUSH1 0x0 DUP1 SLOAD SWAP1 PUSH2 0x100 EXP SWAP1 DIV PUSH1 0xFF AND ISZERO PUSH2 0x168 JUMPI PUSH1 0x40 MLOAD PUSH32 0x8C379A000000000000000000000000000000000000000000000000000000000 DUP2 MSTORE PUSH1 0x4 ADD PUSH2 0x15F SWAP1 PUSH2 0x43A JUMP JUMPDEST PUSH1 0x40 MLOAD DUP1 SWAP2 SUB SWAP1 REVERT JUMPDEST PUSH1 0x1 DUP1 PUSH1 0x0 DUP3 DUP3 SLOAD PUSH2 0x17A SWAP2 SWAP1 PUSH2 0x536 JUMP JUMPDEST SWAP3 POP POP DUP2 SWAP1 SSTORE POP JUMP JUMPDEST DUP1 PUSH1 0x0 DUP1 PUSH2 0x100 EXP DUP2 SLOAD DUP2 PUSH1 0xFF MUL NOT AND SWAP1 DUP4 ISZERO ISZERO MUL OR SWAP1 SSTORE POP POP JUMP JUMPDEST PUSH1 0x0 DUP1 SLOAD SWAP1 PUSH2 0x100 EXP SWAP1 DIV PUSH1 0xFF AND ISZERO PUSH2 0x1ED JUMPI PUSH1 0x40 MLOAD PUSH32 0x8C379A000000000000000000000000000000000000000000000000000000000 DUP2 MSTORE PUSH1 0x4 ADD PUSH2 0x1E4 SWAP1 PUSH2 0x43A JUMP JUMPDEST PUSH1 0x40 MLOAD DUP1 SWAP2 SUB SWAP1 REVERT JUMPDEST PUSH1 0x1 DUP1 PUSH1 0x0 DUP3 DUP3 SLOAD PUSH2 0x1FF SWAP2 SWAP1 PUSH2 0x486 JUMP JUMPDEST SWAP3 POP POP DUP2 SWAP1 SSTORE POP JUMP JUMPDEST PUSH1 0x0 DUP1 SLOAD SWAP1 PUSH2 0x100 EXP SWAP1 DIV PUSH1 0xFF AND ISZERO PUSH2 0x256 JUMPI PUSH1 0x40 MLOAD PUSH32 0x8C379A000000000000000000000000000000000000000000000000000000000 DUP2 MSTORE PUSH1 0x4 ADD PUSH2 0x24D SWAP1 PUSH2 0x43A JUMP JUMPDEST PUSH1 0x40 MLOAD DUP1 SWAP2 SUB SWAP1 REVERT JUMPDEST DUP1 PUSH1 0x64 DUP2 LT PUSH2 0x29A JUMPI PUSH1 0x40 MLOAD PUSH32 0x8C379A000000000000000000000000000000000000000000000000000000000 DUP2 MSTORE PUSH1 0x4 ADD PUSH2 0x291 SWAP1 PUSH2 0x41A JUMP JUMPDEST PUSH1 0x40 MLOAD DUP1 SWAP2 SUB SWAP1 REVERT JUMPDEST DUP2 PUSH1 0x1 PUSH1 0x0 DUP3 DUP3 SLOAD PUSH2 0x2AC SWAP2 SWAP1 PUSH2 0x486 JUMP JUMPDEST SWAP3 POP POP DUP2 SWAP1 SSTORE POP POP POP JUMP JUMPDEST PUSH1 0x0 DUP1 SLOAD SWAP1 PUSH2 0x100 EXP SWAP1 DIV PUSH1 0xFF AND DUP2 JUMP JUMPDEST PUSH1 0xA PUSH1 0x1 PUSH1 0x0 DUP3 DUP3 SLOAD PUSH2 0x2DB SWAP2 SWAP1 PUSH2 0x486 JUMP JUMPDEST SWAP3 POP POP DUP2 SWAP1 SSTORE POP PUSH1 0x1 DUP1 PUSH1 0x0 DUP3 DUP3 SLOAD PUSH2 0x2F4 SWAP2 SWAP1 PUSH2 0x486 JUMP JUMPDEST SWAP3 POP POP DUP2 SWAP1 SSTORE POP PUSH1 0x2 PUSH1 0x1 PUSH1 0x0 DUP3 DUP3 SLOAD PUSH2 0x30E SWAP2 SWAP1 PUSH2 0x4DC JUMP JUMPDEST SWAP3 POP POP DUP2 SWAP1 SSTORE POP JUMP JUMPDEST PUSH1 0x0 DUP2 CALLDATALOAD SWAP1 POP PUSH2 0x326 DUP2 PUSH2 0x606 JUMP JUMPDEST SWAP3 SWAP2 POP POP JUMP JUMPDEST PUSH1 0x0 DUP2 CALLDATALOAD SWAP1 POP PUSH2 0x33B DUP2 PUSH2 0x61D JUMP JUMPDEST SWAP3 SWAP2 POP POP JUMP JUMPDEST PUSH1 0x0 PUSH1 0x20 DUP3 DUP5 SUB SLT ISZERO PUSH2 0x357 JUMPI PUSH2 0x356 PUSH2 0x5AF JUMP JUMPDEST JUMPDEST PUSH1 0x0 PUSH2 0x365 DUP5 DUP3 DUP6 ADD PUSH2 0x317 JUMP JUMPDEST SWAP2 POP POP SWAP3 SWAP2 POP POP JUMP JUMPDEST PUSH1 0x0 PUSH1 0x20 DUP3 DUP5 SUB SLT ISZERO PUSH2 0x384 JUMPI PUSH2 0x383 PUSH2 0x5AF JUMP JUMPDEST JUMPDEST PUSH1 0x0 PUSH2 0x392 DUP5 DUP3 DUP6 ADD PUSH2 0x32C JUMP JUMPDEST SWAP2 POP POP SWAP3 SWAP2 POP POP JUMP JUMPDEST PUSH2 0x3A4 DUP2 PUSH2 0x56A JUMP JUMPDEST DUP3 MSTORE POP POP JUMP JUMPDEST PUSH1 0x0 PUSH2 0x3B7 PUSH1 0x8 DUP4 PUSH2 0x475 JUMP JUMPDEST SWAP2 POP PUSH2 0x3C2 DUP3 PUSH2 0x5B4 JUMP JUMPDEST PUSH1 0x20 DUP3 ADD SWAP1 POP SWAP2 SWAP1 POP JUMP JUMPDEST PUSH1 0x0 PUSH2 0x3DA PUSH1 0x5 DUP4 PUSH2 0x475 JUMP JUMPDEST SWAP2 POP PUSH2 0x3E5 DUP3 PUSH2 0x5DD JUMP JUMPDEST PUSH1 0x20 DUP3 ADD SWAP1 POP SWAP2 SWAP1 POP JUMP JUMPDEST PUSH2 0x3F9 DUP2 PUSH2 0x576 JUMP JUMPDEST DUP3 MSTORE POP POP JUMP JUMPDEST PUSH1 0x0 PUSH1 0x20 DUP3 ADD SWAP1 POP PUSH2 0x414 PUSH1 0x0 DUP4 ADD DUP5 PUSH2 0x39B JUMP JUMPDEST SWAP3 SWAP2 POP POP JUMP JUMPDEST PUSH1 0x0 PUSH1 0x20 DUP3 ADD SWAP1 POP DUP2 DUP2 SUB PUSH1 0x0 DUP4 ADD MSTORE PUSH2 0x433 DUP2 PUSH2 0x3AA JUMP JUMPDEST SWAP1 POP SWAP2 SWAP1 POP JUMP JUMPDEST PUSH1 0x0 PUSH1 0x20 DUP3 ADD SWAP1 POP DUP2 DUP2 SUB PUSH1 0x0 DUP4 ADD MSTORE PUSH2 0x453 DUP2 PUSH2 0x3CD JUMP JUMPDEST SWAP1 POP SWAP2 SWAP1 POP JUMP JUMPDEST PUSH1 0x0 PUSH1 0x20 DUP3 ADD SWAP1 POP PUSH2 0x46F PUSH1 0x0 DUP4 ADD DUP5 PUSH2 0x3F0 JUMP JUMPDEST SWAP3 SWAP2 POP POP JUMP JUMPDEST PUSH1 0x0 DUP3 DUP3 MSTORE PUSH1 0x20 DUP3 ADD SWAP1 POP SWAP3 SWAP2 POP POP JUMP JUMPDEST PUSH1 0x0 PUSH2 0x491 DUP3 PUSH2 0x576 JUMP JUMPDEST SWAP2 POP PUSH2 0x49C DUP4 PUSH2 0x576 JUMP JUMPDEST SWAP3 POP DUP3 PUSH32 0xFFFFFFFFFFFFFFFFFFFFFFFFFFFFFFFFFFFFFFFFFFFFFFFFFFFFFFFFFFFFFFFF SUB DUP3 GT ISZERO PUSH2 0x4D1 JUMPI PUSH2 0x4D0 PUSH2 0x580 JUMP JUMPDEST JUMPDEST DUP3 DUP3 ADD SWAP1 POP SWAP3 SWAP2 POP POP JUMP JUMPDEST PUSH1 0x0 PUSH2 0x4E7 DUP3 PUSH2 0x576 JUMP JUMPDEST SWAP2 POP PUSH2 0x4F2 DUP4 PUSH2 0x576 JUMP JUMPDEST SWAP3 POP DUP2 PUSH32 0xFFFFFFFFFFFFFFFFFFFFFFFFFFFFFFFFFFFFFFFFFFFFFFFFFFFFFFFFFFFFFFFF DIV DUP4 GT DUP3 ISZERO ISZERO AND ISZERO PUSH2 0x52B JUMPI PUSH2 0x52A PUSH2 0x580 JUMP JUMPDEST JUMPDEST DUP3 DUP3 MUL SWAP1 POP SWAP3 SWAP2 POP POP JUMP JUMPDEST PUSH1 0x0 PUSH2 0x541 DUP3 PUSH2 0x576 JUMP JUMPDEST SWAP2 POP PUSH2 0x54C DUP4 PUSH2 0x576 JUMP JUMPDEST SWAP3 POP DUP3 DUP3 LT ISZERO PUSH2 0x55F JUMPI PUSH2 0x55E PUSH2 0x580 JUMP JUMPDEST JUMPDEST DUP3 DUP3 SUB SWAP1 POP SWAP3 SWAP2 POP POP JUMP JUMPDEST PUSH1 0x0 DUP2 ISZERO ISZERO SWAP1 POP SWAP2 SWAP1 POP JUMP JUMPDEST PUSH1 0x0 DUP2 SWAP1 POP SWAP2 SWAP1 POP JUMP JUMPDEST PUSH32 0x4E487B7100000000000000000000000000000000000000000000000000000000 PUSH1 0x0 MSTORE PUSH1 0x11 PUSH1 0x4 MSTORE PUSH1 0x24 PUSH1 0x0 REVERT JUMPDEST PUSH1 0x0 DUP1 REVERT JUMPDEST PUSH32 0x78203E3D20313030000000000000000000000000000000000000000000000000 PUSH1 0x0 DUP3 ADD MSTORE POP JUMP JUMPDEST PUSH32 0x7061757365000000000000000000000000000000000000000000000000000000 PUSH1 0x0 DUP3 ADD MSTORE POP JUMP JUMPDEST PUSH2 0x60F DUP2 PUSH2 0x56A JUMP JUMPDEST DUP2 EQ PUSH2 0x61A JUMPI PUSH1 0x0 DUP1 REVERT JUMPDEST POP JUMP JUMPDEST PUSH2 0x626 DUP2 PUSH2 0x576 JUMP JUMPDEST DUP2 EQ PUSH2 0x631 JUMPI PUSH1 0x0 DUP1 REVERT JUMPDEST POP JUMP INVALID LOG2 PUSH5 0x6970667358 0x22 SLT KECCAK256 DUP8 0xD1 CODECOPY JUMP 0xAD PUSH29 0xA6C99826D0A26F6057374B3614BBE89F9BF4B6B888A68ADD3F0C64736F PUSH13 0x63430008070033000000000000 "
				},
				"gasEstimates": {
					"creation": {
						"codeDepositCost": "328400",
						"executionCost": "368",
						"totalCost": "328768"
					},
					"external": {
						"addCount()": "infinite",
						"count()": "2430",
						"foo()": "infinite",
						"inc(uint256)": "infinite",
						"minCount()": "infinite",
						"pause()": "2512",
						"togglePause(bool)": "24724"
					}
				},
				"methodIdentifiers": {
					"addCount()": "6cefce6e",
					"count()": "06661abd",
					"foo()": "c2985578",
					"inc(uint256)": "812600df",
					"minCount()": "0693b1ab",
					"pause()": "8456cb59",
					"togglePause(bool)": "57d159c6"
				}
			},
			"storageLayout": {
				"storage": [
					{
						"astId": 3,
						"contract": "Day11_Modifier.sol:FunctionModifier",
						"label": "pause",
						"offset": 0,
						"slot": "0",
						"type": "t_bool"
					},
					{
						"astId": 5,
						"contract": "Day11_Modifier.sol:FunctionModifier",
						"label": "count",
						"offset": 0,
						"slot": "1",
						"type": "t_uint256"
					}
				],
				"types": {
					"t_bool": {
						"encoding": "inplace",
						"label": "bool",
						"numberOfBytes": "1"
					},
					"t_uint256": {
						"encoding": "inplace",
						"label": "uint256",
						"numberOfBytes": "32"
					}
				}
			},
			"userdoc": {
				"kind": "user",
				"methods": {},
				"version": 1
			}
		}
	}
}