{
	"Day11_Modifier.sol": {
		"FunctionModifier": {
			"abi": [
				{
					"inputs": [],
					"name": "addCount",
					"outputs": [],
					"stateMutability": "nonpayable",
					"type": "function"
				},
				{
					"inputs": [],
					"name": "count",
					"outputs": [
						{
							"internalType": "uint256",
							"name": "",
							"type": "uint256"
						}
					],
					"stateMutability": "view",
					"type": "function"
				},
				{
					"inputs": [],
					"name": "pause",
					"outputs": [
						{
							"internalType": "bool",
							"name": "",
							"type": "bool"
						}
					],
					"stateMutability": "view",
					"type": "function"
				},
				{
					"inputs": [
						{
							"internalType": "bool",
							"name": "_pause",
							"type": "bool"
						}
					],
					"name": "togglePause",
					"outputs": [],
					"stateMutability": "nonpayable",
					"type": "function"
				}
			],
			"devdoc": {
				"kind": "dev",
				"methods": {},
				"version": 1
			},
			"evm": {
				"assembly": "    /* \"Day11_Modifier.sol\":145:365  contract FunctionModifier {... */\n  mstore(0x40, 0x80)\n  callvalue\n  dup1\n  iszero\n  tag_1\n  jumpi\n  0x00\n  dup1\n  revert\ntag_1:\n  pop\n  dataSize(sub_0)\n  dup1\n  dataOffset(sub_0)\n  0x00\n  codecopy\n  0x00\n  return\nstop\n\nsub_0: assembly {\n        /* \"Day11_Modifier.sol\":145:365  contract FunctionModifier {... */\n      mstore(0x40, 0x80)\n      callvalue\n      dup1\n      iszero\n      tag_1\n      jumpi\n      0x00\n      dup1\n      revert\n    tag_1:\n      pop\n      jumpi(tag_2, lt(calldatasize, 0x04))\n      shr(0xe0, calldataload(0x00))\n      dup1\n      0x06661abd\n      eq\n      tag_3\n      jumpi\n      dup1\n      0x57d159c6\n      eq\n      tag_4\n      jumpi\n      dup1\n      0x6cefce6e\n      eq\n      tag_5\n      jumpi\n      dup1\n      0x8456cb59\n      eq\n      tag_6\n      jumpi\n    tag_2:\n      0x00\n      dup1\n      revert\n        /* \"Day11_Modifier.sol\":200:217  uint public count */\n    tag_3:\n      tag_7\n      tag_8\n      jump\t// in\n    tag_7:\n      mload(0x40)\n      tag_9\n      swap2\n      swap1\n      tag_10\n      jump\t// in\n    tag_9:\n      mload(0x40)\n      dup1\n      swap2\n      sub\n      swap1\n      return\n        /* \"Day11_Modifier.sol\":224:299  function togglePause (bool _pause) external {... */\n    tag_4:\n      tag_11\n      0x04\n      dup1\n      calldatasize\n      sub\n      dup2\n      add\n      swap1\n      tag_12\n      swap2\n      swap1\n      tag_13\n      jump\t// in\n    tag_12:\n      tag_14\n      jump\t// in\n    tag_11:\n      stop\n        /* \"Day11_Modifier.sol\":305:363  function addCount () external {... */\n    tag_5:\n      tag_15\n      tag_16\n      jump\t// in\n    tag_15:\n      stop\n        /* \"Day11_Modifier.sol\":177:194  bool public pause */\n    tag_6:\n      tag_17\n      tag_18\n      jump\t// in\n    tag_17:\n      mload(0x40)\n      tag_19\n      swap2\n      swap1\n      tag_20\n      jump\t// in\n    tag_19:\n      mload(0x40)\n      dup1\n      swap2\n      sub\n      swap1\n      return\n        /* \"Day11_Modifier.sol\":200:217  uint public count */\n    tag_8:\n      sload(0x01)\n      dup2\n      jump\t// out\n        /* \"Day11_Modifier.sol\":224:299  function togglePause (bool _pause) external {... */\n    tag_14:\n        /* \"Day11_Modifier.sol\":286:292  _pause */\n      dup1\n        /* \"Day11_Modifier.sol\":278:283  pause */\n      0x00\n      dup1\n        /* \"Day11_Modifier.sol\":278:292  pause = _pause */\n      0x0100\n      exp\n      dup2\n      sload\n      dup2\n      0xff\n      mul\n      not\n      and\n      swap1\n      dup4\n      iszero\n      iszero\n      mul\n      or\n      swap1\n      sstore\n      pop\n        /* \"Day11_Modifier.sol\":224:299  function togglePause (bool _pause) external {... */\n      pop\n      jump\t// out\n        /* \"Day11_Modifier.sol\":305:363  function addCount () external {... */\n    tag_16:\n        /* \"Day11_Modifier.sol\":354:355  1 */\n      0x01\n        /* \"Day11_Modifier.sol\":345:350  count */\n      dup1\n      0x00\n        /* \"Day11_Modifier.sol\":345:355  count += 1 */\n      dup3\n      dup3\n      sload\n      tag_23\n      swap2\n      swap1\n      tag_24\n      jump\t// in\n    tag_23:\n      swap3\n      pop\n      pop\n      dup2\n      swap1\n      sstore\n      pop\n        /* \"Day11_Modifier.sol\":305:363  function addCount () external {... */\n      jump\t// out\n        /* \"Day11_Modifier.sol\":177:194  bool public pause */\n    tag_18:\n      0x00\n      dup1\n      sload\n      swap1\n      0x0100\n      exp\n      swap1\n      div\n      0xff\n      and\n      dup2\n      jump\t// out\n        /* \"#utility.yul\":7:140   */\n    tag_26:\n        /* \"#utility.yul\":50:55   */\n      0x00\n        /* \"#utility.yul\":88:94   */\n      dup2\n        /* \"#utility.yul\":75:95   */\n      calldataload\n        /* \"#utility.yul\":66:95   */\n      swap1\n      pop\n        /* \"#utility.yul\":104:134   */\n      tag_28\n        /* \"#utility.yul\":128:133   */\n      dup2\n        /* \"#utility.yul\":104:134   */\n      tag_29\n      jump\t// in\n    tag_28:\n        /* \"#utility.yul\":7:140   */\n      swap3\n      swap2\n      pop\n      pop\n      jump\t// out\n        /* \"#utility.yul\":146:469   */\n    tag_13:\n        /* \"#utility.yul\":202:208   */\n      0x00\n        /* \"#utility.yul\":251:253   */\n      0x20\n        /* \"#utility.yul\":239:248   */\n      dup3\n        /* \"#utility.yul\":230:237   */\n      dup5\n        /* \"#utility.yul\":226:249   */\n      sub\n        /* \"#utility.yul\":222:254   */\n      slt\n        /* \"#utility.yul\":219:338   */\n      iszero\n      tag_31\n      jumpi\n        /* \"#utility.yul\":257:336   */\n      tag_32\n      tag_33\n      jump\t// in\n    tag_32:\n        /* \"#utility.yul\":219:338   */\n    tag_31:\n        /* \"#utility.yul\":377:378   */\n      0x00\n        /* \"#utility.yul\":402:452   */\n      tag_34\n        /* \"#utility.yul\":444:451   */\n      dup5\n        /* \"#utility.yul\":435:441   */\n      dup3\n        /* \"#utility.yul\":424:433   */\n      dup6\n        /* \"#utility.yul\":420:442   */\n      add\n        /* \"#utility.yul\":402:452   */\n      tag_26\n      jump\t// in\n    tag_34:\n        /* \"#utility.yul\":392:452   */\n      swap2\n      pop\n        /* \"#utility.yul\":348:462   */\n      pop\n        /* \"#utility.yul\":146:469   */\n      swap3\n      swap2\n      pop\n      pop\n      jump\t// out\n        /* \"#utility.yul\":475:584   */\n    tag_35:\n        /* \"#utility.yul\":556:577   */\n      tag_37\n        /* \"#utility.yul\":571:576   */\n      dup2\n        /* \"#utility.yul\":556:577   */\n      tag_38\n      jump\t// in\n    tag_37:\n        /* \"#utility.yul\":551:554   */\n      dup3\n        /* \"#utility.yul\":544:578   */\n      mstore\n        /* \"#utility.yul\":475:584   */\n      pop\n      pop\n      jump\t// out\n        /* \"#utility.yul\":590:708   */\n    tag_39:\n        /* \"#utility.yul\":677:701   */\n      tag_41\n        /* \"#utility.yul\":695:700   */\n      dup2\n        /* \"#utility.yul\":677:701   */\n      tag_42\n      jump\t// in\n    tag_41:\n        /* \"#utility.yul\":672:675   */\n      dup3\n        /* \"#utility.yul\":665:702   */\n      mstore\n        /* \"#utility.yul\":590:708   */\n      pop\n      pop\n      jump\t// out\n        /* \"#utility.yul\":714:924   */\n    tag_20:\n        /* \"#utility.yul\":801:805   */\n      0x00\n        /* \"#utility.yul\":839:841   */\n      0x20\n        /* \"#utility.yul\":828:837   */\n      dup3\n        /* \"#utility.yul\":824:842   */\n      add\n        /* \"#utility.yul\":816:842   */\n      swap1\n      pop\n        /* \"#utility.yul\":852:917   */\n      tag_44\n        /* \"#utility.yul\":914:915   */\n      0x00\n        /* \"#utility.yul\":903:912   */\n      dup4\n        /* \"#utility.yul\":899:916   */\n      add\n        /* \"#utility.yul\":890:896   */\n      dup5\n        /* \"#utility.yul\":852:917   */\n      tag_35\n      jump\t// in\n    tag_44:\n        /* \"#utility.yul\":714:924   */\n      swap3\n      swap2\n      pop\n      pop\n      jump\t// out\n        /* \"#utility.yul\":930:1152   */\n    tag_10:\n        /* \"#utility.yul\":1023:1027   */\n      0x00\n        /* \"#utility.yul\":1061:1063   */\n      0x20\n        /* \"#utility.yul\":1050:1059   */\n      dup3\n        /* \"#utility.yul\":1046:1064   */\n      add\n        /* \"#utility.yul\":1038:1064   */\n      swap1\n      pop\n        /* \"#utility.yul\":1074:1145   */\n      tag_46\n        /* \"#utility.yul\":1142:1143   */\n      0x00\n        /* \"#utility.yul\":1131:1140   */\n      dup4\n        /* \"#utility.yul\":1127:1144   */\n      add\n        /* \"#utility.yul\":1118:1124   */\n      dup5\n        /* \"#utility.yul\":1074:1145   */\n      tag_39\n      jump\t// in\n    tag_46:\n        /* \"#utility.yul\":930:1152   */\n      swap3\n      swap2\n      pop\n      pop\n      jump\t// out\n        /* \"#utility.yul\":1239:1544   */\n    tag_24:\n        /* \"#utility.yul\":1279:1282   */\n      0x00\n        /* \"#utility.yul\":1298:1318   */\n      tag_50\n        /* \"#utility.yul\":1316:1317   */\n      dup3\n        /* \"#utility.yul\":1298:1318   */\n      tag_42\n      jump\t// in\n    tag_50:\n        /* \"#utility.yul\":1293:1318   */\n      swap2\n      pop\n        /* \"#utility.yul\":1332:1352   */\n      tag_51\n        /* \"#utility.yul\":1350:1351   */\n      dup4\n        /* \"#utility.yul\":1332:1352   */\n      tag_42\n      jump\t// in\n    tag_51:\n        /* \"#utility.yul\":1327:1352   */\n      swap3\n      pop\n        /* \"#utility.yul\":1486:1487   */\n      dup3\n        /* \"#utility.yul\":1418:1484   */\n      0xffffffffffffffffffffffffffffffffffffffffffffffffffffffffffffffff\n        /* \"#utility.yul\":1414:1488   */\n      sub\n        /* \"#utility.yul\":1411:1412   */\n      dup3\n        /* \"#utility.yul\":1408:1489   */\n      gt\n        /* \"#utility.yul\":1405:1512   */\n      iszero\n      tag_52\n      jumpi\n        /* \"#utility.yul\":1492:1510   */\n      tag_53\n      tag_54\n      jump\t// in\n    tag_53:\n        /* \"#utility.yul\":1405:1512   */\n    tag_52:\n        /* \"#utility.yul\":1536:1537   */\n      dup3\n        /* \"#utility.yul\":1533:1534   */\n      dup3\n        /* \"#utility.yul\":1529:1538   */\n      add\n        /* \"#utility.yul\":1522:1538   */\n      swap1\n      pop\n        /* \"#utility.yul\":1239:1544   */\n      swap3\n      swap2\n      pop\n      pop\n      jump\t// out\n        /* \"#utility.yul\":1550:1640   */\n    tag_38:\n        /* \"#utility.yul\":1584:1591   */\n      0x00\n        /* \"#utility.yul\":1627:1632   */\n      dup2\n        /* \"#utility.yul\":1620:1633   */\n      iszero\n        /* \"#utility.yul\":1613:1634   */\n      iszero\n        /* \"#utility.yul\":1602:1634   */\n      swap1\n      pop\n        /* \"#utility.yul\":1550:1640   */\n      swap2\n      swap1\n      pop\n      jump\t// out\n        /* \"#utility.yul\":1646:1723   */\n    tag_42:\n        /* \"#utility.yul\":1683:1690   */\n      0x00\n        /* \"#utility.yul\":1712:1717   */\n      dup2\n        /* \"#utility.yul\":1701:1717   */\n      swap1\n      pop\n        /* \"#utility.yul\":1646:1723   */\n      swap2\n      swap1\n      pop\n      jump\t// out\n        /* \"#utility.yul\":1729:1909   */\n    tag_54:\n        /* \"#utility.yul\":1777:1854   */\n      0x4e487b7100000000000000000000000000000000000000000000000000000000\n        /* \"#utility.yul\":1774:1775   */\n      0x00\n        /* \"#utility.yul\":1767:1855   */\n      mstore\n        /* \"#utility.yul\":1874:1878   */\n      0x11\n        /* \"#utility.yul\":1871:1872   */\n      0x04\n        /* \"#utility.yul\":1864:1879   */\n      mstore\n        /* \"#utility.yul\":1898:1902   */\n      0x24\n        /* \"#utility.yul\":1895:1896   */\n      0x00\n        /* \"#utility.yul\":1888:1903   */\n      revert\n        /* \"#utility.yul\":2038:2155   */\n    tag_33:\n        /* \"#utility.yul\":2147:2148   */\n      0x00\n        /* \"#utility.yul\":2144:2145   */\n      dup1\n        /* \"#utility.yul\":2137:2149   */\n      revert\n        /* \"#utility.yul\":2161:2277   */\n    tag_29:\n        /* \"#utility.yul\":2231:2252   */\n      tag_62\n        /* \"#utility.yul\":2246:2251   */\n      dup2\n        /* \"#utility.yul\":2231:2252   */\n      tag_38\n      jump\t// in\n    tag_62:\n        /* \"#utility.yul\":2224:2229   */\n      dup2\n        /* \"#utility.yul\":2221:2253   */\n      eq\n        /* \"#utility.yul\":2211:2271   */\n      tag_63\n      jumpi\n        /* \"#utility.yul\":2267:2268   */\n      0x00\n        /* \"#utility.yul\":2264:2265   */\n      dup1\n        /* \"#utility.yul\":2257:2269   */\n      revert\n        /* \"#utility.yul\":2211:2271   */\n    tag_63:\n        /* \"#utility.yul\":2161:2277   */\n      pop\n      jump\t// out\n\n    auxdata: 0xa26469706673582212206d95857fe3cad17028c64edc03d9f2e7fbdfeca651ebf33561bd765b8e4e73a264736f6c63430008070033\n}\n",
				"bytecode": {
					"linkReferences": {},
					"object": "608060405234801561001057600080fd5b50610284806100206000396000f3fe608060405234801561001057600080fd5b506004361061004c5760003560e01c806306661abd1461005157806357d159c61461006f5780636cefce6e1461008b5780638456cb5914610095575b600080fd5b6100596100b3565b604051610066919061017c565b60405180910390f35b61008960048036038101906100849190610116565b6100b9565b005b6100936100d5565b005b61009d6100f0565b6040516100aa9190610161565b60405180910390f35b60015481565b806000806101000a81548160ff02191690831515021790555050565b60018060008282546100e79190610197565b92505081905550565b60008054906101000a900460ff1681565b60008135905061011081610237565b92915050565b60006020828403121561012c5761012b610232565b5b600061013a84828501610101565b91505092915050565b61014c816101ed565b82525050565b61015b816101f9565b82525050565b60006020820190506101766000830184610143565b92915050565b60006020820190506101916000830184610152565b92915050565b60006101a2826101f9565b91506101ad836101f9565b9250827fffffffffffffffffffffffffffffffffffffffffffffffffffffffffffffffff038211156101e2576101e1610203565b5b828201905092915050565b60008115159050919050565b6000819050919050565b7f4e487b7100000000000000000000000000000000000000000000000000000000600052601160045260246000fd5b600080fd5b610240816101ed565b811461024b57600080fd5b5056fea26469706673582212206d95857fe3cad17028c64edc03d9f2e7fbdfeca651ebf33561bd765b8e4e73a264736f6c63430008070033",
					"opcodes": "PUSH1 0x80 PUSH1 0x40 MSTORE CALLVALUE DUP1 ISZERO PUSH2 0x10 JUMPI PUSH1 0x0 DUP1 REVERT JUMPDEST POP PUSH2 0x284 DUP1 PUSH2 0x20 PUSH1 0x0 CODECOPY PUSH1 0x0 RETURN INVALID PUSH1 0x80 PUSH1 0x40 MSTORE CALLVALUE DUP1 ISZERO PUSH2 0x10 JUMPI PUSH1 0x0 DUP1 REVERT JUMPDEST POP PUSH1 0x4 CALLDATASIZE LT PUSH2 0x4C JUMPI PUSH1 0x0 CALLDATALOAD PUSH1 0xE0 SHR DUP1 PUSH4 0x6661ABD EQ PUSH2 0x51 JUMPI DUP1 PUSH4 0x57D159C6 EQ PUSH2 0x6F JUMPI DUP1 PUSH4 0x6CEFCE6E EQ PUSH2 0x8B JUMPI DUP1 PUSH4 0x8456CB59 EQ PUSH2 0x95 JUMPI JUMPDEST PUSH1 0x0 DUP1 REVERT JUMPDEST PUSH2 0x59 PUSH2 0xB3 JUMP JUMPDEST PUSH1 0x40 MLOAD PUSH2 0x66 SWAP2 SWAP1 PUSH2 0x17C JUMP JUMPDEST PUSH1 0x40 MLOAD DUP1 SWAP2 SUB SWAP1 RETURN JUMPDEST PUSH2 0x89 PUSH1 0x4 DUP1 CALLDATASIZE SUB DUP2 ADD SWAP1 PUSH2 0x84 SWAP2 SWAP1 PUSH2 0x116 JUMP JUMPDEST PUSH2 0xB9 JUMP JUMPDEST STOP JUMPDEST PUSH2 0x93 PUSH2 0xD5 JUMP JUMPDEST STOP JUMPDEST PUSH2 0x9D PUSH2 0xF0 JUMP JUMPDEST PUSH1 0x40 MLOAD PUSH2 0xAA SWAP2 SWAP1 PUSH2 0x161 JUMP JUMPDEST PUSH1 0x40 MLOAD DUP1 SWAP2 SUB SWAP1 RETURN JUMPDEST PUSH1 0x1 SLOAD DUP2 JUMP JUMPDEST DUP1 PUSH1 0x0 DUP1 PUSH2 0x100 EXP DUP2 SLOAD DUP2 PUSH1 0xFF MUL NOT AND SWAP1 DUP4 ISZERO ISZERO MUL OR SWAP1 SSTORE POP POP JUMP JUMPDEST PUSH1 0x1 DUP1 PUSH1 0x0 DUP3 DUP3 SLOAD PUSH2 0xE7 SWAP2 SWAP1 PUSH2 0x197 JUMP JUMPDEST SWAP3 POP POP DUP2 SWAP1 SSTORE POP JUMP JUMPDEST PUSH1 0x0 DUP1 SLOAD SWAP1 PUSH2 0x100 EXP SWAP1 DIV PUSH1 0xFF AND DUP2 JUMP JUMPDEST PUSH1 0x0 DUP2 CALLDATALOAD SWAP1 POP PUSH2 0x110 DUP2 PUSH2 0x237 JUMP JUMPDEST SWAP3 SWAP2 POP POP JUMP JUMPDEST PUSH1 0x0 PUSH1 0x20 DUP3 DUP5 SUB SLT ISZERO PUSH2 0x12C JUMPI PUSH2 0x12B PUSH2 0x232 JUMP JUMPDEST JUMPDEST PUSH1 0x0 PUSH2 0x13A DUP5 DUP3 DUP6 ADD PUSH2 0x101 JUMP JUMPDEST SWAP2 POP POP SWAP3 SWAP2 POP POP JUMP JUMPDEST PUSH2 0x14C DUP2 PUSH2 0x1ED JUMP JUMPDEST DUP3 MSTORE POP POP JUMP JUMPDEST PUSH2 0x15B DUP2 PUSH2 0x1F9 JUMP JUMPDEST DUP3 MSTORE POP POP JUMP JUMPDEST PUSH1 0x0 PUSH1 0x20 DUP3 ADD SWAP1 POP PUSH2 0x176 PUSH1 0x0 DUP4 ADD DUP5 PUSH2 0x143 JUMP JUMPDEST SWAP3 SWAP2 POP POP JUMP JUMPDEST PUSH1 0x0 PUSH1 0x20 DUP3 ADD SWAP1 POP PUSH2 0x191 PUSH1 0x0 DUP4 ADD DUP5 PUSH2 0x152 JUMP JUMPDEST SWAP3 SWAP2 POP POP JUMP JUMPDEST PUSH1 0x0 PUSH2 0x1A2 DUP3 PUSH2 0x1F9 JUMP JUMPDEST SWAP2 POP PUSH2 0x1AD DUP4 PUSH2 0x1F9 JUMP JUMPDEST SWAP3 POP DUP3 PUSH32 0xFFFFFFFFFFFFFFFFFFFFFFFFFFFFFFFFFFFFFFFFFFFFFFFFFFFFFFFFFFFFFFFF SUB DUP3 GT ISZERO PUSH2 0x1E2 JUMPI PUSH2 0x1E1 PUSH2 0x203 JUMP JUMPDEST JUMPDEST DUP3 DUP3 ADD SWAP1 POP SWAP3 SWAP2 POP POP JUMP JUMPDEST PUSH1 0x0 DUP2 ISZERO ISZERO SWAP1 POP SWAP2 SWAP1 POP JUMP JUMPDEST PUSH1 0x0 DUP2 SWAP1 POP SWAP2 SWAP1 POP JUMP JUMPDEST PUSH32 0x4E487B7100000000000000000000000000000000000000000000000000000000 PUSH1 0x0 MSTORE PUSH1 0x11 PUSH1 0x4 MSTORE PUSH1 0x24 PUSH1 0x0 REVERT JUMPDEST PUSH1 0x0 DUP1 REVERT JUMPDEST PUSH2 0x240 DUP2 PUSH2 0x1ED JUMP JUMPDEST DUP2 EQ PUSH2 0x24B JUMPI PUSH1 0x0 DUP1 REVERT JUMPDEST POP JUMP INVALID LOG2 PUSH5 0x6970667358 0x22 SLT KECCAK256 PUSH14 0x95857FE3CAD17028C64EDC03D9F2 0xE7 0xFB 0xDF 0xEC 0xA6 MLOAD 0xEB RETURN CALLDATALOAD PUSH2 0xBD76 JUMPDEST DUP15 0x4E PUSH20 0xA264736F6C634300080700330000000000000000 "
				},
				"gasEstimates": {
					"creation": {
						"codeDepositCost": "128800",
						"executionCost": "177",
						"totalCost": "128977"
					},
					"external": {
						"addCount()": "infinite",
						"count()": "2407",
						"pause()": "2512",
						"togglePause(bool)": "24679"
					}
				},
				"methodIdentifiers": {
					"addCount()": "6cefce6e",
					"count()": "06661abd",
					"pause()": "8456cb59",
					"togglePause(bool)": "57d159c6"
				}
			},
			"storageLayout": {
				"storage": [
					{
						"astId": 3,
						"contract": "Day11_Modifier.sol:FunctionModifier",
						"label": "pause",
						"offset": 0,
						"slot": "0",
						"type": "t_bool"
					},
					{
						"astId": 5,
						"contract": "Day11_Modifier.sol:FunctionModifier",
						"label": "count",
						"offset": 0,
						"slot": "1",
						"type": "t_uint256"
					}
				],
				"types": {
					"t_bool": {
						"encoding": "inplace",
						"label": "bool",
						"numberOfBytes": "1"
					},
					"t_uint256": {
						"encoding": "inplace",
						"label": "uint256",
						"numberOfBytes": "32"
					}
				}
			},
			"userdoc": {
				"kind": "user",
				"methods": {},
				"version": 1
			}
		}
	}
}