{
	"Day14_Outputs.sol": {
		"FunctionOutput": {
			"abi": [
				{
					"inputs": [],
					"name": "a",
					"outputs": [
						{
							"internalType": "uint256",
							"name": "",
							"type": "uint256"
						}
					],
					"stateMutability": "view",
					"type": "function"
				},
				{
					"inputs": [],
					"name": "assigned",
					"outputs": [
						{
							"internalType": "uint256",
							"name": "x",
							"type": "uint256"
						},
						{
							"internalType": "bool",
							"name": "b",
							"type": "bool"
						}
					],
					"stateMutability": "pure",
					"type": "function"
				},
				{
					"inputs": [],
					"name": "destructuringAssignments",
					"outputs": [],
					"stateMutability": "pure",
					"type": "function"
				},
				{
					"inputs": [],
					"name": "named",
					"outputs": [
						{
							"internalType": "uint256",
							"name": "x",
							"type": "uint256"
						},
						{
							"internalType": "bool",
							"name": "b",
							"type": "bool"
						}
					],
					"stateMutability": "pure",
					"type": "function"
				},
				{
					"inputs": [],
					"name": "returnMany",
					"outputs": [
						{
							"internalType": "uint256",
							"name": "",
							"type": "uint256"
						},
						{
							"internalType": "bool",
							"name": "",
							"type": "bool"
						}
					],
					"stateMutability": "pure",
					"type": "function"
				}
			],
			"devdoc": {
				"kind": "dev",
				"methods": {},
				"version": 1
			},
			"evm": {
				"assembly": "    /* \"Day14_Outputs.sol\":129:621  contract FunctionOutput {... */\n  mstore(0x40, 0x80)\n  callvalue\n  dup1\n  iszero\n  tag_1\n  jumpi\n  0x00\n  dup1\n  revert\ntag_1:\n  pop\n  dataSize(sub_0)\n  dup1\n  dataOffset(sub_0)\n  0x00\n  codecopy\n  0x00\n  return\nstop\n\nsub_0: assembly {\n        /* \"Day14_Outputs.sol\":129:621  contract FunctionOutput {... */\n      mstore(0x40, 0x80)\n      callvalue\n      dup1\n      iszero\n      tag_1\n      jumpi\n      0x00\n      dup1\n      revert\n    tag_1:\n      pop\n      jumpi(tag_2, lt(calldatasize, 0x04))\n      shr(0xe0, calldataload(0x00))\n      dup1\n      0x0dbe671f\n      eq\n      tag_3\n      jumpi\n      dup1\n      0x45f907a8\n      eq\n      tag_4\n      jumpi\n      dup1\n      0x68873440\n      eq\n      tag_5\n      jumpi\n      dup1\n      0x86887544\n      eq\n      tag_6\n      jumpi\n      dup1\n      0xadb4d990\n      eq\n      tag_7\n      jumpi\n    tag_2:\n      0x00\n      dup1\n      revert\n        /* \"Day14_Outputs.sol\":160:173  uint public a */\n    tag_3:\n      tag_8\n      tag_9\n      jump\t// in\n    tag_8:\n      mload(0x40)\n      tag_10\n      swap2\n      swap1\n      tag_11\n      jump\t// in\n    tag_10:\n      mload(0x40)\n      dup1\n      swap2\n      sub\n      swap1\n      return\n        /* \"Day14_Outputs.sol\":281:369  function named () public pure returns (uint x , bool b) {... */\n    tag_4:\n      tag_12\n      tag_13\n      jump\t// in\n    tag_12:\n      mload(0x40)\n      tag_14\n      swap3\n      swap2\n      swap1\n      tag_15\n      jump\t// in\n    tag_14:\n      mload(0x40)\n      dup1\n      swap2\n      sub\n      swap1\n      return\n        /* \"Day14_Outputs.sol\":480:619  function destructuringAssignments () public pure {... */\n    tag_5:\n      tag_16\n      tag_17\n      jump\t// in\n    tag_16:\n      stop\n        /* \"Day14_Outputs.sol\":186:275  function returnMany () public pure returns (uint , bool) {... */\n    tag_6:\n      tag_18\n      tag_19\n      jump\t// in\n    tag_18:\n      mload(0x40)\n      tag_20\n      swap3\n      swap2\n      swap1\n      tag_15\n      jump\t// in\n    tag_20:\n      mload(0x40)\n      dup1\n      swap2\n      sub\n      swap1\n      return\n        /* \"Day14_Outputs.sol\":375:474  function assigned () public pure returns (uint x , bool b) {... */\n    tag_7:\n      tag_21\n      tag_22\n      jump\t// in\n    tag_21:\n      mload(0x40)\n      tag_23\n      swap3\n      swap2\n      swap1\n      tag_15\n      jump\t// in\n    tag_23:\n      mload(0x40)\n      dup1\n      swap2\n      sub\n      swap1\n      return\n        /* \"Day14_Outputs.sol\":160:173  uint public a */\n    tag_9:\n      sload(0x00)\n      dup2\n      jump\t// out\n        /* \"Day14_Outputs.sol\":281:369  function named () public pure returns (uint x , bool b) {... */\n    tag_13:\n        /* \"Day14_Outputs.sol\":320:326  uint x */\n      0x00\n        /* \"Day14_Outputs.sol\":329:335  bool b */\n      dup1\n        /* \"Day14_Outputs.sol\":355:356  1 */\n      0x01\n        /* \"Day14_Outputs.sol\":357:361  true */\n      dup1\n        /* \"Day14_Outputs.sol\":347:362  return (1,true) */\n      swap2\n      pop\n      swap2\n      pop\n        /* \"Day14_Outputs.sol\":281:369  function named () public pure returns (uint x , bool b) {... */\n      swap1\n      swap2\n      jump\t// out\n        /* \"Day14_Outputs.sol\":480:619  function destructuringAssignments () public pure {... */\n    tag_17:\n      jump\t// out\n        /* \"Day14_Outputs.sol\":186:275  function returnMany () public pure returns (uint , bool) {... */\n    tag_19:\n        /* \"Day14_Outputs.sol\":230:234  uint */\n      0x00\n        /* \"Day14_Outputs.sol\":237:241  bool */\n      dup1\n        /* \"Day14_Outputs.sol\":261:262  1 */\n      0x01\n        /* \"Day14_Outputs.sol\":263:267  true */\n      dup1\n        /* \"Day14_Outputs.sol\":253:268  return (1,true) */\n      swap2\n      pop\n      swap2\n      pop\n        /* \"Day14_Outputs.sol\":186:275  function returnMany () public pure returns (uint , bool) {... */\n      swap1\n      swap2\n      jump\t// out\n        /* \"Day14_Outputs.sol\":375:474  function assigned () public pure returns (uint x , bool b) {... */\n    tag_22:\n        /* \"Day14_Outputs.sol\":417:423  uint x */\n      0x00\n        /* \"Day14_Outputs.sol\":426:432  bool b */\n      dup1\n        /* \"Day14_Outputs.sol\":448:449  1 */\n      0x01\n        /* \"Day14_Outputs.sol\":444:449  x = 1 */\n      swap2\n      pop\n        /* \"Day14_Outputs.sol\":463:467  true */\n      0x01\n        /* \"Day14_Outputs.sol\":459:467  b = true */\n      swap1\n      pop\n        /* \"Day14_Outputs.sol\":375:474  function assigned () public pure returns (uint x , bool b) {... */\n      swap1\n      swap2\n      jump\t// out\n        /* \"#utility.yul\":7:116   */\n    tag_29:\n        /* \"#utility.yul\":88:109   */\n      tag_31\n        /* \"#utility.yul\":103:108   */\n      dup2\n        /* \"#utility.yul\":88:109   */\n      tag_32\n      jump\t// in\n    tag_31:\n        /* \"#utility.yul\":83:86   */\n      dup3\n        /* \"#utility.yul\":76:110   */\n      mstore\n        /* \"#utility.yul\":7:116   */\n      pop\n      pop\n      jump\t// out\n        /* \"#utility.yul\":122:240   */\n    tag_33:\n        /* \"#utility.yul\":209:233   */\n      tag_35\n        /* \"#utility.yul\":227:232   */\n      dup2\n        /* \"#utility.yul\":209:233   */\n      tag_36\n      jump\t// in\n    tag_35:\n        /* \"#utility.yul\":204:207   */\n      dup3\n        /* \"#utility.yul\":197:234   */\n      mstore\n        /* \"#utility.yul\":122:240   */\n      pop\n      pop\n      jump\t// out\n        /* \"#utility.yul\":246:468   */\n    tag_11:\n        /* \"#utility.yul\":339:343   */\n      0x00\n        /* \"#utility.yul\":377:379   */\n      0x20\n        /* \"#utility.yul\":366:375   */\n      dup3\n        /* \"#utility.yul\":362:380   */\n      add\n        /* \"#utility.yul\":354:380   */\n      swap1\n      pop\n        /* \"#utility.yul\":390:461   */\n      tag_38\n        /* \"#utility.yul\":458:459   */\n      0x00\n        /* \"#utility.yul\":447:456   */\n      dup4\n        /* \"#utility.yul\":443:460   */\n      add\n        /* \"#utility.yul\":434:440   */\n      dup5\n        /* \"#utility.yul\":390:461   */\n      tag_33\n      jump\t// in\n    tag_38:\n        /* \"#utility.yul\":246:468   */\n      swap3\n      swap2\n      pop\n      pop\n      jump\t// out\n        /* \"#utility.yul\":474:794   */\n    tag_15:\n        /* \"#utility.yul\":589:593   */\n      0x00\n        /* \"#utility.yul\":627:629   */\n      0x40\n        /* \"#utility.yul\":616:625   */\n      dup3\n        /* \"#utility.yul\":612:630   */\n      add\n        /* \"#utility.yul\":604:630   */\n      swap1\n      pop\n        /* \"#utility.yul\":640:711   */\n      tag_40\n        /* \"#utility.yul\":708:709   */\n      0x00\n        /* \"#utility.yul\":697:706   */\n      dup4\n        /* \"#utility.yul\":693:710   */\n      add\n        /* \"#utility.yul\":684:690   */\n      dup6\n        /* \"#utility.yul\":640:711   */\n      tag_33\n      jump\t// in\n    tag_40:\n        /* \"#utility.yul\":721:787   */\n      tag_41\n        /* \"#utility.yul\":783:785   */\n      0x20\n        /* \"#utility.yul\":772:781   */\n      dup4\n        /* \"#utility.yul\":768:786   */\n      add\n        /* \"#utility.yul\":759:765   */\n      dup5\n        /* \"#utility.yul\":721:787   */\n      tag_29\n      jump\t// in\n    tag_41:\n        /* \"#utility.yul\":474:794   */\n      swap4\n      swap3\n      pop\n      pop\n      pop\n      jump\t// out\n        /* \"#utility.yul\":800:890   */\n    tag_32:\n        /* \"#utility.yul\":834:841   */\n      0x00\n        /* \"#utility.yul\":877:882   */\n      dup2\n        /* \"#utility.yul\":870:883   */\n      iszero\n        /* \"#utility.yul\":863:884   */\n      iszero\n        /* \"#utility.yul\":852:884   */\n      swap1\n      pop\n        /* \"#utility.yul\":800:890   */\n      swap2\n      swap1\n      pop\n      jump\t// out\n        /* \"#utility.yul\":896:973   */\n    tag_36:\n        /* \"#utility.yul\":933:940   */\n      0x00\n        /* \"#utility.yul\":962:967   */\n      dup2\n        /* \"#utility.yul\":951:967   */\n      swap1\n      pop\n        /* \"#utility.yul\":896:973   */\n      swap2\n      swap1\n      pop\n      jump\t// out\n\n    auxdata: 0xa264697066735822122068ea5bb7214c767ea0f7ff1f1de9bffb03a7b59cdfecd894951649fcc32201b264736f6c63430008070033\n}\n",
				"bytecode": {
					"linkReferences": {},
					"object": "608060405234801561001057600080fd5b506101c2806100206000396000f3fe608060405234801561001057600080fd5b50600436106100575760003560e01c80630dbe671f1461005c57806345f907a81461007a578063688734401461009957806386887544146100a3578063adb4d990146100c2575b600080fd5b6100646100e1565b6040516100719190610132565b60405180910390f35b6100826100e7565b60405161009092919061014d565b60405180910390f35b6100a16100f5565b005b6100ab6100f7565b6040516100b992919061014d565b60405180910390f35b6100ca610105565b6040516100d892919061014d565b60405180910390f35b60005481565b600080600180915091509091565b565b600080600180915091509091565b60008060019150600190509091565b61011d81610176565b82525050565b61012c81610182565b82525050565b60006020820190506101476000830184610123565b92915050565b60006040820190506101626000830185610123565b61016f6020830184610114565b9392505050565b60008115159050919050565b600081905091905056fea264697066735822122068ea5bb7214c767ea0f7ff1f1de9bffb03a7b59cdfecd894951649fcc32201b264736f6c63430008070033",
					"opcodes": "PUSH1 0x80 PUSH1 0x40 MSTORE CALLVALUE DUP1 ISZERO PUSH2 0x10 JUMPI PUSH1 0x0 DUP1 REVERT JUMPDEST POP PUSH2 0x1C2 DUP1 PUSH2 0x20 PUSH1 0x0 CODECOPY PUSH1 0x0 RETURN INVALID PUSH1 0x80 PUSH1 0x40 MSTORE CALLVALUE DUP1 ISZERO PUSH2 0x10 JUMPI PUSH1 0x0 DUP1 REVERT JUMPDEST POP PUSH1 0x4 CALLDATASIZE LT PUSH2 0x57 JUMPI PUSH1 0x0 CALLDATALOAD PUSH1 0xE0 SHR DUP1 PUSH4 0xDBE671F EQ PUSH2 0x5C JUMPI DUP1 PUSH4 0x45F907A8 EQ PUSH2 0x7A JUMPI DUP1 PUSH4 0x68873440 EQ PUSH2 0x99 JUMPI DUP1 PUSH4 0x86887544 EQ PUSH2 0xA3 JUMPI DUP1 PUSH4 0xADB4D990 EQ PUSH2 0xC2 JUMPI JUMPDEST PUSH1 0x0 DUP1 REVERT JUMPDEST PUSH2 0x64 PUSH2 0xE1 JUMP JUMPDEST PUSH1 0x40 MLOAD PUSH2 0x71 SWAP2 SWAP1 PUSH2 0x132 JUMP JUMPDEST PUSH1 0x40 MLOAD DUP1 SWAP2 SUB SWAP1 RETURN JUMPDEST PUSH2 0x82 PUSH2 0xE7 JUMP JUMPDEST PUSH1 0x40 MLOAD PUSH2 0x90 SWAP3 SWAP2 SWAP1 PUSH2 0x14D JUMP JUMPDEST PUSH1 0x40 MLOAD DUP1 SWAP2 SUB SWAP1 RETURN JUMPDEST PUSH2 0xA1 PUSH2 0xF5 JUMP JUMPDEST STOP JUMPDEST PUSH2 0xAB PUSH2 0xF7 JUMP JUMPDEST PUSH1 0x40 MLOAD PUSH2 0xB9 SWAP3 SWAP2 SWAP1 PUSH2 0x14D JUMP JUMPDEST PUSH1 0x40 MLOAD DUP1 SWAP2 SUB SWAP1 RETURN JUMPDEST PUSH2 0xCA PUSH2 0x105 JUMP JUMPDEST PUSH1 0x40 MLOAD PUSH2 0xD8 SWAP3 SWAP2 SWAP1 PUSH2 0x14D JUMP JUMPDEST PUSH1 0x40 MLOAD DUP1 SWAP2 SUB SWAP1 RETURN JUMPDEST PUSH1 0x0 SLOAD DUP2 JUMP JUMPDEST PUSH1 0x0 DUP1 PUSH1 0x1 DUP1 SWAP2 POP SWAP2 POP SWAP1 SWAP2 JUMP JUMPDEST JUMP JUMPDEST PUSH1 0x0 DUP1 PUSH1 0x1 DUP1 SWAP2 POP SWAP2 POP SWAP1 SWAP2 JUMP JUMPDEST PUSH1 0x0 DUP1 PUSH1 0x1 SWAP2 POP PUSH1 0x1 SWAP1 POP SWAP1 SWAP2 JUMP JUMPDEST PUSH2 0x11D DUP2 PUSH2 0x176 JUMP JUMPDEST DUP3 MSTORE POP POP JUMP JUMPDEST PUSH2 0x12C DUP2 PUSH2 0x182 JUMP JUMPDEST DUP3 MSTORE POP POP JUMP JUMPDEST PUSH1 0x0 PUSH1 0x20 DUP3 ADD SWAP1 POP PUSH2 0x147 PUSH1 0x0 DUP4 ADD DUP5 PUSH2 0x123 JUMP JUMPDEST SWAP3 SWAP2 POP POP JUMP JUMPDEST PUSH1 0x0 PUSH1 0x40 DUP3 ADD SWAP1 POP PUSH2 0x162 PUSH1 0x0 DUP4 ADD DUP6 PUSH2 0x123 JUMP JUMPDEST PUSH2 0x16F PUSH1 0x20 DUP4 ADD DUP5 PUSH2 0x114 JUMP JUMPDEST SWAP4 SWAP3 POP POP POP JUMP JUMPDEST PUSH1 0x0 DUP2 ISZERO ISZERO SWAP1 POP SWAP2 SWAP1 POP JUMP JUMPDEST PUSH1 0x0 DUP2 SWAP1 POP SWAP2 SWAP1 POP JUMP INVALID LOG2 PUSH5 0x6970667358 0x22 SLT KECCAK256 PUSH9 0xEA5BB7214C767EA0F7 SELFDESTRUCT 0x1F SAR 0xE9 0xBF 0xFB SUB 0xA7 0xB5 SWAP13 0xDF 0xEC 0xD8 SWAP5 SWAP6 AND 0x49 0xFC 0xC3 0x22 ADD 0xB2 PUSH5 0x736F6C6343 STOP ADDMOD SMOD STOP CALLER "
				},
				"gasEstimates": {
					"creation": {
						"codeDepositCost": "90000",
						"executionCost": "141",
						"totalCost": "90141"
					},
					"external": {
						"a()": "2407",
						"assigned()": "523",
						"destructuringAssignments()": "166",
						"named()": "457",
						"returnMany()": "501"
					}
				},
				"methodIdentifiers": {
					"a()": "0dbe671f",
					"assigned()": "adb4d990",
					"destructuringAssignments()": "68873440",
					"named()": "45f907a8",
					"returnMany()": "86887544"
				}
			},
			"storageLayout": {
				"storage": [
					{
						"astId": 3,
						"contract": "Day14_Outputs.sol:FunctionOutput",
						"label": "a",
						"offset": 0,
						"slot": "0",
						"type": "t_uint256"
					}
				],
				"types": {
					"t_uint256": {
						"encoding": "inplace",
						"label": "uint256",
						"numberOfBytes": "32"
					}
				}
			},
			"userdoc": {
				"kind": "user",
				"methods": {},
				"version": 1
			}
		}
	}
}