{
	"Day35_CallOtherContract.sol": {
		"CallTestContract": {
			"abi": [
				{
					"inputs": [
						{
							"internalType": "contract TestContract",
							"name": "_test",
							"type": "address"
						},
						{
							"internalType": "uint256",
							"name": "x",
							"type": "uint256"
						}
					],
					"name": "setX",
					"outputs": [],
					"stateMutability": "nonpayable",
					"type": "function"
				}
			],
			"devdoc": {
				"kind": "dev",
				"methods": {},
				"version": 1
			},
			"evm": {
				"assembly": "    /* \"Day35_CallOtherContract.sol\":58:159  contract CallTestContract {... */\n  mstore(0x40, 0x80)\n  callvalue\n  dup1\n  iszero\n  tag_1\n  jumpi\n  0x00\n  dup1\n  revert\ntag_1:\n  pop\n  dataSize(sub_0)\n  dup1\n  dataOffset(sub_0)\n  0x00\n  codecopy\n  0x00\n  return\nstop\n\nsub_0: assembly {\n        /* \"Day35_CallOtherContract.sol\":58:159  contract CallTestContract {... */\n      mstore(0x40, 0x80)\n      callvalue\n      dup1\n      iszero\n      tag_1\n      jumpi\n      0x00\n      dup1\n      revert\n    tag_1:\n      pop\n      jumpi(tag_2, lt(calldatasize, 0x04))\n      shr(0xe0, calldataload(0x00))\n      dup1\n      0x4a2ad99f\n      eq\n      tag_3\n      jumpi\n    tag_2:\n      0x00\n      dup1\n      revert\n        /* \"Day35_CallOtherContract.sol\":90:157  function setX(TestContract _test, uint x) external {... */\n    tag_3:\n      tag_4\n      0x04\n      dup1\n      calldatasize\n      sub\n      dup2\n      add\n      swap1\n      tag_5\n      swap2\n      swap1\n      tag_6\n      jump\t// in\n    tag_5:\n      tag_7\n      jump\t// in\n    tag_4:\n      stop\n    tag_7:\n      pop\n      pop\n      jump\t// out\n        /* \"#utility.yul\":7:184   */\n    tag_10:\n        /* \"#utility.yul\":72:77   */\n      0x00\n        /* \"#utility.yul\":110:116   */\n      dup2\n        /* \"#utility.yul\":97:117   */\n      calldataload\n        /* \"#utility.yul\":88:117   */\n      swap1\n      pop\n        /* \"#utility.yul\":126:178   */\n      tag_12\n        /* \"#utility.yul\":172:177   */\n      dup2\n        /* \"#utility.yul\":126:178   */\n      tag_13\n      jump\t// in\n    tag_12:\n        /* \"#utility.yul\":7:184   */\n      swap3\n      swap2\n      pop\n      pop\n      jump\t// out\n        /* \"#utility.yul\":190:329   */\n    tag_14:\n        /* \"#utility.yul\":236:241   */\n      0x00\n        /* \"#utility.yul\":274:280   */\n      dup2\n        /* \"#utility.yul\":261:281   */\n      calldataload\n        /* \"#utility.yul\":252:281   */\n      swap1\n      pop\n        /* \"#utility.yul\":290:323   */\n      tag_16\n        /* \"#utility.yul\":317:322   */\n      dup2\n        /* \"#utility.yul\":290:323   */\n      tag_17\n      jump\t// in\n    tag_16:\n        /* \"#utility.yul\":190:329   */\n      swap3\n      swap2\n      pop\n      pop\n      jump\t// out\n        /* \"#utility.yul\":335:847   */\n    tag_6:\n        /* \"#utility.yul\":422:428   */\n      0x00\n        /* \"#utility.yul\":430:436   */\n      dup1\n        /* \"#utility.yul\":479:481   */\n      0x40\n        /* \"#utility.yul\":467:476   */\n      dup4\n        /* \"#utility.yul\":458:465   */\n      dup6\n        /* \"#utility.yul\":454:477   */\n      sub\n        /* \"#utility.yul\":450:482   */\n      slt\n        /* \"#utility.yul\":447:566   */\n      iszero\n      tag_19\n      jumpi\n        /* \"#utility.yul\":485:564   */\n      tag_20\n      tag_21\n      jump\t// in\n    tag_20:\n        /* \"#utility.yul\":447:566   */\n    tag_19:\n        /* \"#utility.yul\":605:606   */\n      0x00\n        /* \"#utility.yul\":630:702   */\n      tag_22\n        /* \"#utility.yul\":694:701   */\n      dup6\n        /* \"#utility.yul\":685:691   */\n      dup3\n        /* \"#utility.yul\":674:683   */\n      dup7\n        /* \"#utility.yul\":670:692   */\n      add\n        /* \"#utility.yul\":630:702   */\n      tag_10\n      jump\t// in\n    tag_22:\n        /* \"#utility.yul\":620:702   */\n      swap3\n      pop\n        /* \"#utility.yul\":576:712   */\n      pop\n        /* \"#utility.yul\":751:753   */\n      0x20\n        /* \"#utility.yul\":777:830   */\n      tag_23\n        /* \"#utility.yul\":822:829   */\n      dup6\n        /* \"#utility.yul\":813:819   */\n      dup3\n        /* \"#utility.yul\":802:811   */\n      dup7\n        /* \"#utility.yul\":798:820   */\n      add\n        /* \"#utility.yul\":777:830   */\n      tag_14\n      jump\t// in\n    tag_23:\n        /* \"#utility.yul\":767:830   */\n      swap2\n      pop\n        /* \"#utility.yul\":722:840   */\n      pop\n        /* \"#utility.yul\":335:847   */\n      swap3\n      pop\n      swap3\n      swap1\n      pop\n      jump\t// out\n        /* \"#utility.yul\":934:1030   */\n    tag_26:\n        /* \"#utility.yul\":971:978   */\n      0x00\n        /* \"#utility.yul\":1000:1024   */\n      tag_28\n        /* \"#utility.yul\":1018:1023   */\n      dup3\n        /* \"#utility.yul\":1000:1024   */\n      tag_29\n      jump\t// in\n    tag_28:\n        /* \"#utility.yul\":989:1024   */\n      swap1\n      pop\n        /* \"#utility.yul\":934:1030   */\n      swap2\n      swap1\n      pop\n      jump\t// out\n        /* \"#utility.yul\":1036:1151   */\n    tag_30:\n        /* \"#utility.yul\":1092:1099   */\n      0x00\n        /* \"#utility.yul\":1121:1145   */\n      tag_32\n        /* \"#utility.yul\":1139:1144   */\n      dup3\n        /* \"#utility.yul\":1121:1145   */\n      tag_26\n      jump\t// in\n    tag_32:\n        /* \"#utility.yul\":1110:1145   */\n      swap1\n      pop\n        /* \"#utility.yul\":1036:1151   */\n      swap2\n      swap1\n      pop\n      jump\t// out\n        /* \"#utility.yul\":1157:1283   */\n    tag_29:\n        /* \"#utility.yul\":1194:1201   */\n      0x00\n        /* \"#utility.yul\":1234:1276   */\n      0xffffffffffffffffffffffffffffffffffffffff\n        /* \"#utility.yul\":1227:1232   */\n      dup3\n        /* \"#utility.yul\":1223:1277   */\n      and\n        /* \"#utility.yul\":1212:1277   */\n      swap1\n      pop\n        /* \"#utility.yul\":1157:1283   */\n      swap2\n      swap1\n      pop\n      jump\t// out\n        /* \"#utility.yul\":1289:1366   */\n    tag_34:\n        /* \"#utility.yul\":1326:1333   */\n      0x00\n        /* \"#utility.yul\":1355:1360   */\n      dup2\n        /* \"#utility.yul\":1344:1360   */\n      swap1\n      pop\n        /* \"#utility.yul\":1289:1366   */\n      swap2\n      swap1\n      pop\n      jump\t// out\n        /* \"#utility.yul\":1495:1612   */\n    tag_21:\n        /* \"#utility.yul\":1604:1605   */\n      0x00\n        /* \"#utility.yul\":1601:1602   */\n      dup1\n        /* \"#utility.yul\":1594:1606   */\n      revert\n        /* \"#utility.yul\":1618:1778   */\n    tag_13:\n        /* \"#utility.yul\":1710:1753   */\n      tag_40\n        /* \"#utility.yul\":1747:1752   */\n      dup2\n        /* \"#utility.yul\":1710:1753   */\n      tag_30\n      jump\t// in\n    tag_40:\n        /* \"#utility.yul\":1703:1708   */\n      dup2\n        /* \"#utility.yul\":1700:1754   */\n      eq\n        /* \"#utility.yul\":1690:1772   */\n      tag_41\n      jumpi\n        /* \"#utility.yul\":1768:1769   */\n      0x00\n        /* \"#utility.yul\":1765:1766   */\n      dup1\n        /* \"#utility.yul\":1758:1770   */\n      revert\n        /* \"#utility.yul\":1690:1772   */\n    tag_41:\n        /* \"#utility.yul\":1618:1778   */\n      pop\n      jump\t// out\n        /* \"#utility.yul\":1784:1906   */\n    tag_17:\n        /* \"#utility.yul\":1857:1881   */\n      tag_43\n        /* \"#utility.yul\":1875:1880   */\n      dup2\n        /* \"#utility.yul\":1857:1881   */\n      tag_34\n      jump\t// in\n    tag_43:\n        /* \"#utility.yul\":1850:1855   */\n      dup2\n        /* \"#utility.yul\":1847:1882   */\n      eq\n        /* \"#utility.yul\":1837:1900   */\n      tag_44\n      jumpi\n        /* \"#utility.yul\":1896:1897   */\n      0x00\n        /* \"#utility.yul\":1893:1894   */\n      dup1\n        /* \"#utility.yul\":1886:1898   */\n      revert\n        /* \"#utility.yul\":1837:1900   */\n    tag_44:\n        /* \"#utility.yul\":1784:1906   */\n      pop\n      jump\t// out\n\n    auxdata: 0xa2646970667358221220b126de56e27c8ede03e0370bc9a1701e87dd938069d449c0c38ae3bcc77ee92764736f6c63430008070033\n}\n",
				"bytecode": {
					"linkReferences": {},
					"object": "608060405234801561001057600080fd5b50610171806100206000396000f3fe608060405234801561001057600080fd5b506004361061002b5760003560e01c80634a2ad99f14610030575b600080fd5b61004a6004803603810190610045919061007a565b61004c565b005b5050565b60008135905061005f8161010d565b92915050565b60008135905061007481610124565b92915050565b6000806040838503121561009157610090610108565b5b600061009f85828601610050565b92505060206100b085828601610065565b9150509250929050565b60006100c5826100de565b9050919050565b60006100d7826100ba565b9050919050565b600073ffffffffffffffffffffffffffffffffffffffff82169050919050565b6000819050919050565b600080fd5b610116816100cc565b811461012157600080fd5b50565b61012d816100fe565b811461013857600080fd5b5056fea2646970667358221220b126de56e27c8ede03e0370bc9a1701e87dd938069d449c0c38ae3bcc77ee92764736f6c63430008070033",
					"opcodes": "PUSH1 0x80 PUSH1 0x40 MSTORE CALLVALUE DUP1 ISZERO PUSH2 0x10 JUMPI PUSH1 0x0 DUP1 REVERT JUMPDEST POP PUSH2 0x171 DUP1 PUSH2 0x20 PUSH1 0x0 CODECOPY PUSH1 0x0 RETURN INVALID PUSH1 0x80 PUSH1 0x40 MSTORE CALLVALUE DUP1 ISZERO PUSH2 0x10 JUMPI PUSH1 0x0 DUP1 REVERT JUMPDEST POP PUSH1 0x4 CALLDATASIZE LT PUSH2 0x2B JUMPI PUSH1 0x0 CALLDATALOAD PUSH1 0xE0 SHR DUP1 PUSH4 0x4A2AD99F EQ PUSH2 0x30 JUMPI JUMPDEST PUSH1 0x0 DUP1 REVERT JUMPDEST PUSH2 0x4A PUSH1 0x4 DUP1 CALLDATASIZE SUB DUP2 ADD SWAP1 PUSH2 0x45 SWAP2 SWAP1 PUSH2 0x7A JUMP JUMPDEST PUSH2 0x4C JUMP JUMPDEST STOP JUMPDEST POP POP JUMP JUMPDEST PUSH1 0x0 DUP2 CALLDATALOAD SWAP1 POP PUSH2 0x5F DUP2 PUSH2 0x10D JUMP JUMPDEST SWAP3 SWAP2 POP POP JUMP JUMPDEST PUSH1 0x0 DUP2 CALLDATALOAD SWAP1 POP PUSH2 0x74 DUP2 PUSH2 0x124 JUMP JUMPDEST SWAP3 SWAP2 POP POP JUMP JUMPDEST PUSH1 0x0 DUP1 PUSH1 0x40 DUP4 DUP6 SUB SLT ISZERO PUSH2 0x91 JUMPI PUSH2 0x90 PUSH2 0x108 JUMP JUMPDEST JUMPDEST PUSH1 0x0 PUSH2 0x9F DUP6 DUP3 DUP7 ADD PUSH2 0x50 JUMP JUMPDEST SWAP3 POP POP PUSH1 0x20 PUSH2 0xB0 DUP6 DUP3 DUP7 ADD PUSH2 0x65 JUMP JUMPDEST SWAP2 POP POP SWAP3 POP SWAP3 SWAP1 POP JUMP JUMPDEST PUSH1 0x0 PUSH2 0xC5 DUP3 PUSH2 0xDE JUMP JUMPDEST SWAP1 POP SWAP2 SWAP1 POP JUMP JUMPDEST PUSH1 0x0 PUSH2 0xD7 DUP3 PUSH2 0xBA JUMP JUMPDEST SWAP1 POP SWAP2 SWAP1 POP JUMP JUMPDEST PUSH1 0x0 PUSH20 0xFFFFFFFFFFFFFFFFFFFFFFFFFFFFFFFFFFFFFFFF DUP3 AND SWAP1 POP SWAP2 SWAP1 POP JUMP JUMPDEST PUSH1 0x0 DUP2 SWAP1 POP SWAP2 SWAP1 POP JUMP JUMPDEST PUSH1 0x0 DUP1 REVERT JUMPDEST PUSH2 0x116 DUP2 PUSH2 0xCC JUMP JUMPDEST DUP2 EQ PUSH2 0x121 JUMPI PUSH1 0x0 DUP1 REVERT JUMPDEST POP JUMP JUMPDEST PUSH2 0x12D DUP2 PUSH2 0xFE JUMP JUMPDEST DUP2 EQ PUSH2 0x138 JUMPI PUSH1 0x0 DUP1 REVERT JUMPDEST POP JUMP INVALID LOG2 PUSH5 0x6970667358 0x22 SLT KECCAK256 0xB1 0x26 0xDE JUMP 0xE2 PUSH29 0x8EDE03E0370BC9A1701E87DD938069D449C0C38AE3BCC77EE92764736F PUSH13 0x63430008070033000000000000 "
				},
				"gasEstimates": {
					"creation": {
						"codeDepositCost": "73800",
						"executionCost": "123",
						"totalCost": "73923"
					},
					"external": {
						"setX(address,uint256)": "649"
					}
				},
				"methodIdentifiers": {
					"setX(address,uint256)": "4a2ad99f"
				}
			},
			"storageLayout": {
				"storage": [],
				"types": null
			},
			"userdoc": {
				"kind": "user",
				"methods": {},
				"version": 1
			}
		}
	}
}