{
	"Day22_DeployAnyContract.sol": {
		"Helper": {
			"abi": [
				{
					"inputs": [],
					"name": "getBytecode1",
					"outputs": [
						{
							"internalType": "bytes",
							"name": "",
							"type": "bytes"
						}
					],
					"stateMutability": "pure",
					"type": "function"
				}
			],
			"devdoc": {
				"kind": "dev",
				"methods": {},
				"version": 1
			},
			"evm": {
				"assembly": "    /* \"Day22_DeployAnyContract.sol\":1025:1112  contract Helper {... */\n  mstore(0x40, 0x80)\n  callvalue\n  dup1\n  iszero\n  tag_1\n  jumpi\n  0x00\n  dup1\n  revert\ntag_1:\n  pop\n  dataSize(sub_0)\n  dup1\n  dataOffset(sub_0)\n  0x00\n  codecopy\n  0x00\n  return\nstop\n\nsub_0: assembly {\n        /* \"Day22_DeployAnyContract.sol\":1025:1112  contract Helper {... */\n      mstore(0x40, 0x80)\n      callvalue\n      dup1\n      iszero\n      tag_1\n      jumpi\n      0x00\n      dup1\n      revert\n    tag_1:\n      pop\n      jumpi(tag_2, lt(calldatasize, 0x04))\n      shr(0xe0, calldataload(0x00))\n      dup1\n      0xe68f92f1\n      eq\n      tag_3\n      jumpi\n    tag_2:\n      0x00\n      dup1\n      revert\n        /* \"Day22_DeployAnyContract.sol\":1047:1110  function getBytecode1() external pure returns (bytes memory) {} */\n    tag_3:\n      tag_4\n      tag_5\n      jump\t// in\n    tag_4:\n      mload(0x40)\n      tag_6\n      swap2\n      swap1\n      tag_7\n      jump\t// in\n    tag_6:\n      mload(0x40)\n      dup1\n      swap2\n      sub\n      swap1\n      return\n    tag_5:\n        /* \"Day22_DeployAnyContract.sol\":1094:1106  bytes memory */\n      0x60\n        /* \"Day22_DeployAnyContract.sol\":1047:1110  function getBytecode1() external pure returns (bytes memory) {} */\n      swap1\n      jump\t// out\n        /* \"#utility.yul\":7:367   */\n    tag_10:\n        /* \"#utility.yul\":93:96   */\n      0x00\n        /* \"#utility.yul\":121:159   */\n      tag_12\n        /* \"#utility.yul\":153:158   */\n      dup3\n        /* \"#utility.yul\":121:159   */\n      tag_13\n      jump\t// in\n    tag_12:\n        /* \"#utility.yul\":175:245   */\n      tag_14\n        /* \"#utility.yul\":238:244   */\n      dup2\n        /* \"#utility.yul\":233:236   */\n      dup6\n        /* \"#utility.yul\":175:245   */\n      tag_15\n      jump\t// in\n    tag_14:\n        /* \"#utility.yul\":168:245   */\n      swap4\n      pop\n        /* \"#utility.yul\":254:306   */\n      tag_16\n        /* \"#utility.yul\":299:305   */\n      dup2\n        /* \"#utility.yul\":294:297   */\n      dup6\n        /* \"#utility.yul\":287:291   */\n      0x20\n        /* \"#utility.yul\":280:285   */\n      dup7\n        /* \"#utility.yul\":276:292   */\n      add\n        /* \"#utility.yul\":254:306   */\n      tag_17\n      jump\t// in\n    tag_16:\n        /* \"#utility.yul\":331:360   */\n      tag_18\n        /* \"#utility.yul\":353:359   */\n      dup2\n        /* \"#utility.yul\":331:360   */\n      tag_19\n      jump\t// in\n    tag_18:\n        /* \"#utility.yul\":326:329   */\n      dup5\n        /* \"#utility.yul\":322:361   */\n      add\n        /* \"#utility.yul\":315:361   */\n      swap2\n      pop\n        /* \"#utility.yul\":97:367   */\n      pop\n        /* \"#utility.yul\":7:367   */\n      swap3\n      swap2\n      pop\n      pop\n      jump\t// out\n        /* \"#utility.yul\":373:682   */\n    tag_7:\n        /* \"#utility.yul\":484:488   */\n      0x00\n        /* \"#utility.yul\":522:524   */\n      0x20\n        /* \"#utility.yul\":511:520   */\n      dup3\n        /* \"#utility.yul\":507:525   */\n      add\n        /* \"#utility.yul\":499:525   */\n      swap1\n      pop\n        /* \"#utility.yul\":571:580   */\n      dup2\n        /* \"#utility.yul\":565:569   */\n      dup2\n        /* \"#utility.yul\":561:581   */\n      sub\n        /* \"#utility.yul\":557:558   */\n      0x00\n        /* \"#utility.yul\":546:555   */\n      dup4\n        /* \"#utility.yul\":542:559   */\n      add\n        /* \"#utility.yul\":535:582   */\n      mstore\n        /* \"#utility.yul\":599:675   */\n      tag_21\n        /* \"#utility.yul\":670:674   */\n      dup2\n        /* \"#utility.yul\":661:667   */\n      dup5\n        /* \"#utility.yul\":599:675   */\n      tag_10\n      jump\t// in\n    tag_21:\n        /* \"#utility.yul\":591:675   */\n      swap1\n      pop\n        /* \"#utility.yul\":373:682   */\n      swap3\n      swap2\n      pop\n      pop\n      jump\t// out\n        /* \"#utility.yul\":688:786   */\n    tag_13:\n        /* \"#utility.yul\":739:745   */\n      0x00\n        /* \"#utility.yul\":773:778   */\n      dup2\n        /* \"#utility.yul\":767:779   */\n      mload\n        /* \"#utility.yul\":757:779   */\n      swap1\n      pop\n        /* \"#utility.yul\":688:786   */\n      swap2\n      swap1\n      pop\n      jump\t// out\n        /* \"#utility.yul\":792:960   */\n    tag_15:\n        /* \"#utility.yul\":875:886   */\n      0x00\n        /* \"#utility.yul\":909:915   */\n      dup3\n        /* \"#utility.yul\":904:907   */\n      dup3\n        /* \"#utility.yul\":897:916   */\n      mstore\n        /* \"#utility.yul\":949:953   */\n      0x20\n        /* \"#utility.yul\":944:947   */\n      dup3\n        /* \"#utility.yul\":940:954   */\n      add\n        /* \"#utility.yul\":925:954   */\n      swap1\n      pop\n        /* \"#utility.yul\":792:960   */\n      swap3\n      swap2\n      pop\n      pop\n      jump\t// out\n        /* \"#utility.yul\":966:1273   */\n    tag_17:\n        /* \"#utility.yul\":1034:1035   */\n      0x00\n        /* \"#utility.yul\":1044:1157   */\n    tag_25:\n        /* \"#utility.yul\":1058:1064   */\n      dup4\n        /* \"#utility.yul\":1055:1056   */\n      dup2\n        /* \"#utility.yul\":1052:1065   */\n      lt\n        /* \"#utility.yul\":1044:1157   */\n      iszero\n      tag_27\n      jumpi\n        /* \"#utility.yul\":1143:1144   */\n      dup1\n        /* \"#utility.yul\":1138:1141   */\n      dup3\n        /* \"#utility.yul\":1134:1145   */\n      add\n        /* \"#utility.yul\":1128:1146   */\n      mload\n        /* \"#utility.yul\":1124:1125   */\n      dup2\n        /* \"#utility.yul\":1119:1122   */\n      dup5\n        /* \"#utility.yul\":1115:1126   */\n      add\n        /* \"#utility.yul\":1108:1147   */\n      mstore\n        /* \"#utility.yul\":1080:1082   */\n      0x20\n        /* \"#utility.yul\":1077:1078   */\n      dup2\n        /* \"#utility.yul\":1073:1083   */\n      add\n        /* \"#utility.yul\":1068:1083   */\n      swap1\n      pop\n        /* \"#utility.yul\":1044:1157   */\n      jump(tag_25)\n    tag_27:\n        /* \"#utility.yul\":1175:1181   */\n      dup4\n        /* \"#utility.yul\":1172:1173   */\n      dup2\n        /* \"#utility.yul\":1169:1182   */\n      gt\n        /* \"#utility.yul\":1166:1267   */\n      iszero\n      tag_28\n      jumpi\n        /* \"#utility.yul\":1255:1256   */\n      0x00\n        /* \"#utility.yul\":1246:1252   */\n      dup5\n        /* \"#utility.yul\":1241:1244   */\n      dup5\n        /* \"#utility.yul\":1237:1253   */\n      add\n        /* \"#utility.yul\":1230:1257   */\n      mstore\n        /* \"#utility.yul\":1166:1267   */\n    tag_28:\n        /* \"#utility.yul\":1015:1273   */\n      pop\n        /* \"#utility.yul\":966:1273   */\n      pop\n      pop\n      pop\n      jump\t// out\n        /* \"#utility.yul\":1279:1381   */\n    tag_19:\n        /* \"#utility.yul\":1320:1326   */\n      0x00\n        /* \"#utility.yul\":1371:1373   */\n      0x1f\n        /* \"#utility.yul\":1367:1374   */\n      not\n        /* \"#utility.yul\":1362:1364   */\n      0x1f\n        /* \"#utility.yul\":1355:1360   */\n      dup4\n        /* \"#utility.yul\":1351:1365   */\n      add\n        /* \"#utility.yul\":1347:1375   */\n      and\n        /* \"#utility.yul\":1337:1375   */\n      swap1\n      pop\n        /* \"#utility.yul\":1279:1381   */\n      swap2\n      swap1\n      pop\n      jump\t// out\n\n    auxdata: 0xa2646970667358221220a255b066f5b5d397109b65bcd5a55953c9b51ad867af54009ce94b46b665842064736f6c63430008070033\n}\n",
				"bytecode": {
					"linkReferences": {},
					"object": "608060405234801561001057600080fd5b50610130806100206000396000f3fe6080604052348015600f57600080fd5b506004361060285760003560e01c8063e68f92f114602d575b600080fd5b60336047565b604051603e9190607d565b60405180910390f35b606090565b6000605582609d565b605d818560a8565b9350606b81856020860160b9565b60728160e9565b840191505092915050565b6000602082019050818103600083015260958184604c565b905092915050565b600081519050919050565b600082825260208201905092915050565b60005b8381101560d557808201518184015260208101905060bc565b8381111560e3576000848401525b50505050565b6000601f19601f830116905091905056fea2646970667358221220a255b066f5b5d397109b65bcd5a55953c9b51ad867af54009ce94b46b665842064736f6c63430008070033",
					"opcodes": "PUSH1 0x80 PUSH1 0x40 MSTORE CALLVALUE DUP1 ISZERO PUSH2 0x10 JUMPI PUSH1 0x0 DUP1 REVERT JUMPDEST POP PUSH2 0x130 DUP1 PUSH2 0x20 PUSH1 0x0 CODECOPY PUSH1 0x0 RETURN INVALID PUSH1 0x80 PUSH1 0x40 MSTORE CALLVALUE DUP1 ISZERO PUSH1 0xF JUMPI PUSH1 0x0 DUP1 REVERT JUMPDEST POP PUSH1 0x4 CALLDATASIZE LT PUSH1 0x28 JUMPI PUSH1 0x0 CALLDATALOAD PUSH1 0xE0 SHR DUP1 PUSH4 0xE68F92F1 EQ PUSH1 0x2D JUMPI JUMPDEST PUSH1 0x0 DUP1 REVERT JUMPDEST PUSH1 0x33 PUSH1 0x47 JUMP JUMPDEST PUSH1 0x40 MLOAD PUSH1 0x3E SWAP2 SWAP1 PUSH1 0x7D JUMP JUMPDEST PUSH1 0x40 MLOAD DUP1 SWAP2 SUB SWAP1 RETURN JUMPDEST PUSH1 0x60 SWAP1 JUMP JUMPDEST PUSH1 0x0 PUSH1 0x55 DUP3 PUSH1 0x9D JUMP JUMPDEST PUSH1 0x5D DUP2 DUP6 PUSH1 0xA8 JUMP JUMPDEST SWAP4 POP PUSH1 0x6B DUP2 DUP6 PUSH1 0x20 DUP7 ADD PUSH1 0xB9 JUMP JUMPDEST PUSH1 0x72 DUP2 PUSH1 0xE9 JUMP JUMPDEST DUP5 ADD SWAP2 POP POP SWAP3 SWAP2 POP POP JUMP JUMPDEST PUSH1 0x0 PUSH1 0x20 DUP3 ADD SWAP1 POP DUP2 DUP2 SUB PUSH1 0x0 DUP4 ADD MSTORE PUSH1 0x95 DUP2 DUP5 PUSH1 0x4C JUMP JUMPDEST SWAP1 POP SWAP3 SWAP2 POP POP JUMP JUMPDEST PUSH1 0x0 DUP2 MLOAD SWAP1 POP SWAP2 SWAP1 POP JUMP JUMPDEST PUSH1 0x0 DUP3 DUP3 MSTORE PUSH1 0x20 DUP3 ADD SWAP1 POP SWAP3 SWAP2 POP POP JUMP JUMPDEST PUSH1 0x0 JUMPDEST DUP4 DUP2 LT ISZERO PUSH1 0xD5 JUMPI DUP1 DUP3 ADD MLOAD DUP2 DUP5 ADD MSTORE PUSH1 0x20 DUP2 ADD SWAP1 POP PUSH1 0xBC JUMP JUMPDEST DUP4 DUP2 GT ISZERO PUSH1 0xE3 JUMPI PUSH1 0x0 DUP5 DUP5 ADD MSTORE JUMPDEST POP POP POP POP JUMP JUMPDEST PUSH1 0x0 PUSH1 0x1F NOT PUSH1 0x1F DUP4 ADD AND SWAP1 POP SWAP2 SWAP1 POP JUMP INVALID LOG2 PUSH5 0x6970667358 0x22 SLT KECCAK256 LOG2 SSTORE 0xB0 PUSH7 0xF5B5D397109B65 0xBC 0xD5 0xA5 MSIZE MSTORE8 0xC9 0xB5 BYTE 0xD8 PUSH8 0xAF54009CE94B46B6 PUSH6 0x842064736F6C PUSH4 0x43000807 STOP CALLER "
				},
				"gasEstimates": {
					"creation": {
						"codeDepositCost": "60800",
						"executionCost": "111",
						"totalCost": "60911"
					},
					"external": {
						"getBytecode1()": "infinite"
					}
				},
				"methodIdentifiers": {
					"getBytecode1()": "e68f92f1"
				}
			},
			"storageLayout": {
				"storage": [],
				"types": null
			},
			"userdoc": {
				"kind": "user",
				"methods": {},
				"version": 1
			}
		}
	}
}