{
	"Day10_Error.sol": {
		"Errors": {
			"abi": [
				{
					"inputs": [
						{
							"internalType": "uint256",
							"name": "x",
							"type": "uint256"
						}
					],
					"name": "testRequire",
					"outputs": [],
					"stateMutability": "pure",
					"type": "function"
				},
				{
					"inputs": [
						{
							"internalType": "uint256",
							"name": "x",
							"type": "uint256"
						}
					],
					"name": "testRevert",
					"outputs": [],
					"stateMutability": "pure",
					"type": "function"
				}
			],
			"devdoc": {
				"kind": "dev",
				"methods": {},
				"version": 1
			},
			"evm": {
				"assembly": "    /* \"Day10_Error.sol\":308:540  contract Errors {... */\n  mstore(0x40, 0x80)\n  callvalue\n  dup1\n  iszero\n  tag_1\n  jumpi\n  0x00\n  dup1\n  revert\ntag_1:\n  pop\n  dataSize(sub_0)\n  dup1\n  dataOffset(sub_0)\n  0x00\n  codecopy\n  0x00\n  return\nstop\n\nsub_0: assembly {\n        /* \"Day10_Error.sol\":308:540  contract Errors {... */\n      mstore(0x40, 0x80)\n      callvalue\n      dup1\n      iszero\n      tag_1\n      jumpi\n      0x00\n      dup1\n      revert\n    tag_1:\n      pop\n      jumpi(tag_2, lt(calldatasize, 0x04))\n      shr(0xe0, calldataload(0x00))\n      dup1\n      0x20987767\n      eq\n      tag_3\n      jumpi\n      dup1\n      0xb8bd717f\n      eq\n      tag_4\n      jumpi\n    tag_2:\n      0x00\n      dup1\n      revert\n        /* \"Day10_Error.sol\":424:538  function testRevert (uint x) external pure {... */\n    tag_3:\n      tag_5\n      0x04\n      dup1\n      calldatasize\n      sub\n      dup2\n      add\n      swap1\n      tag_6\n      swap2\n      swap1\n      tag_7\n      jump\t// in\n    tag_6:\n      tag_8\n      jump\t// in\n    tag_5:\n      stop\n        /* \"Day10_Error.sol\":330:418  function testRequire (uint x) external pure {... */\n    tag_4:\n      tag_9\n      0x04\n      dup1\n      calldatasize\n      sub\n      dup2\n      add\n      swap1\n      tag_10\n      swap2\n      swap1\n      tag_7\n      jump\t// in\n    tag_10:\n      tag_11\n      jump\t// in\n    tag_9:\n      stop\n        /* \"Day10_Error.sol\":424:538  function testRevert (uint x) external pure {... */\n    tag_8:\n        /* \"Day10_Error.sol\":486:488  10 */\n      0x0a\n        /* \"Day10_Error.sol\":481:482  x */\n      dup2\n        /* \"Day10_Error.sol\":481:488  x <= 10 */\n      gt\n        /* \"Day10_Error.sol\":477:532  if (x <= 10) {... */\n      tag_13\n      jumpi\n        /* \"Day10_Error.sol\":504:521  revert (\"i > 10\") */\n      mload(0x40)\n      0x08c379a000000000000000000000000000000000000000000000000000000000\n      dup2\n      mstore\n      0x04\n      add\n      tag_14\n      swap1\n      tag_15\n      jump\t// in\n    tag_14:\n      mload(0x40)\n      dup1\n      swap2\n      sub\n      swap1\n      revert\n        /* \"Day10_Error.sol\":477:532  if (x <= 10) {... */\n    tag_13:\n        /* \"Day10_Error.sol\":424:538  function testRevert (uint x) external pure {... */\n      pop\n      jump\t// out\n        /* \"Day10_Error.sol\":330:418  function testRequire (uint x) external pure {... */\n    tag_11:\n        /* \"Day10_Error.sol\":398:400  10 */\n      0x0a\n        /* \"Day10_Error.sol\":393:394  x */\n      dup2\n        /* \"Day10_Error.sol\":393:400  x <= 10 */\n      gt\n      iszero\n        /* \"Day10_Error.sol\":384:411  require (x <= 10, \"x > 10\") */\n      tag_17\n      jumpi\n      mload(0x40)\n      0x08c379a000000000000000000000000000000000000000000000000000000000\n      dup2\n      mstore\n      0x04\n      add\n      tag_18\n      swap1\n      tag_19\n      jump\t// in\n    tag_18:\n      mload(0x40)\n      dup1\n      swap2\n      sub\n      swap1\n      revert\n    tag_17:\n        /* \"Day10_Error.sol\":330:418  function testRequire (uint x) external pure {... */\n      pop\n      jump\t// out\n        /* \"#utility.yul\":7:146   */\n    tag_21:\n        /* \"#utility.yul\":53:58   */\n      0x00\n        /* \"#utility.yul\":91:97   */\n      dup2\n        /* \"#utility.yul\":78:98   */\n      calldataload\n        /* \"#utility.yul\":69:98   */\n      swap1\n      pop\n        /* \"#utility.yul\":107:140   */\n      tag_23\n        /* \"#utility.yul\":134:139   */\n      dup2\n        /* \"#utility.yul\":107:140   */\n      tag_24\n      jump\t// in\n    tag_23:\n        /* \"#utility.yul\":7:146   */\n      swap3\n      swap2\n      pop\n      pop\n      jump\t// out\n        /* \"#utility.yul\":152:481   */\n    tag_7:\n        /* \"#utility.yul\":211:217   */\n      0x00\n        /* \"#utility.yul\":260:262   */\n      0x20\n        /* \"#utility.yul\":248:257   */\n      dup3\n        /* \"#utility.yul\":239:246   */\n      dup5\n        /* \"#utility.yul\":235:258   */\n      sub\n        /* \"#utility.yul\":231:263   */\n      slt\n        /* \"#utility.yul\":228:347   */\n      iszero\n      tag_26\n      jumpi\n        /* \"#utility.yul\":266:345   */\n      tag_27\n      tag_28\n      jump\t// in\n    tag_27:\n        /* \"#utility.yul\":228:347   */\n    tag_26:\n        /* \"#utility.yul\":386:387   */\n      0x00\n        /* \"#utility.yul\":411:464   */\n      tag_29\n        /* \"#utility.yul\":456:463   */\n      dup5\n        /* \"#utility.yul\":447:453   */\n      dup3\n        /* \"#utility.yul\":436:445   */\n      dup6\n        /* \"#utility.yul\":432:454   */\n      add\n        /* \"#utility.yul\":411:464   */\n      tag_21\n      jump\t// in\n    tag_29:\n        /* \"#utility.yul\":401:464   */\n      swap2\n      pop\n        /* \"#utility.yul\":357:474   */\n      pop\n        /* \"#utility.yul\":152:481   */\n      swap3\n      swap2\n      pop\n      pop\n      jump\t// out\n        /* \"#utility.yul\":487:852   */\n    tag_30:\n        /* \"#utility.yul\":629:632   */\n      0x00\n        /* \"#utility.yul\":650:716   */\n      tag_32\n        /* \"#utility.yul\":714:715   */\n      0x06\n        /* \"#utility.yul\":709:712   */\n      dup4\n        /* \"#utility.yul\":650:716   */\n      tag_33\n      jump\t// in\n    tag_32:\n        /* \"#utility.yul\":643:716   */\n      swap2\n      pop\n        /* \"#utility.yul\":725:818   */\n      tag_34\n        /* \"#utility.yul\":814:817   */\n      dup3\n        /* \"#utility.yul\":725:818   */\n      tag_35\n      jump\t// in\n    tag_34:\n        /* \"#utility.yul\":843:845   */\n      0x20\n        /* \"#utility.yul\":838:841   */\n      dup3\n        /* \"#utility.yul\":834:846   */\n      add\n        /* \"#utility.yul\":827:846   */\n      swap1\n      pop\n        /* \"#utility.yul\":487:852   */\n      swap2\n      swap1\n      pop\n      jump\t// out\n        /* \"#utility.yul\":858:1223   */\n    tag_36:\n        /* \"#utility.yul\":1000:1003   */\n      0x00\n        /* \"#utility.yul\":1021:1087   */\n      tag_38\n        /* \"#utility.yul\":1085:1086   */\n      0x06\n        /* \"#utility.yul\":1080:1083   */\n      dup4\n        /* \"#utility.yul\":1021:1087   */\n      tag_33\n      jump\t// in\n    tag_38:\n        /* \"#utility.yul\":1014:1087   */\n      swap2\n      pop\n        /* \"#utility.yul\":1096:1189   */\n      tag_39\n        /* \"#utility.yul\":1185:1188   */\n      dup3\n        /* \"#utility.yul\":1096:1189   */\n      tag_40\n      jump\t// in\n    tag_39:\n        /* \"#utility.yul\":1214:1216   */\n      0x20\n        /* \"#utility.yul\":1209:1212   */\n      dup3\n        /* \"#utility.yul\":1205:1217   */\n      add\n        /* \"#utility.yul\":1198:1217   */\n      swap1\n      pop\n        /* \"#utility.yul\":858:1223   */\n      swap2\n      swap1\n      pop\n      jump\t// out\n        /* \"#utility.yul\":1229:1648   */\n    tag_15:\n        /* \"#utility.yul\":1395:1399   */\n      0x00\n        /* \"#utility.yul\":1433:1435   */\n      0x20\n        /* \"#utility.yul\":1422:1431   */\n      dup3\n        /* \"#utility.yul\":1418:1436   */\n      add\n        /* \"#utility.yul\":1410:1436   */\n      swap1\n      pop\n        /* \"#utility.yul\":1482:1491   */\n      dup2\n        /* \"#utility.yul\":1476:1480   */\n      dup2\n        /* \"#utility.yul\":1472:1492   */\n      sub\n        /* \"#utility.yul\":1468:1469   */\n      0x00\n        /* \"#utility.yul\":1457:1466   */\n      dup4\n        /* \"#utility.yul\":1453:1470   */\n      add\n        /* \"#utility.yul\":1446:1493   */\n      mstore\n        /* \"#utility.yul\":1510:1641   */\n      tag_42\n        /* \"#utility.yul\":1636:1640   */\n      dup2\n        /* \"#utility.yul\":1510:1641   */\n      tag_30\n      jump\t// in\n    tag_42:\n        /* \"#utility.yul\":1502:1641   */\n      swap1\n      pop\n        /* \"#utility.yul\":1229:1648   */\n      swap2\n      swap1\n      pop\n      jump\t// out\n        /* \"#utility.yul\":1654:2073   */\n    tag_19:\n        /* \"#utility.yul\":1820:1824   */\n      0x00\n        /* \"#utility.yul\":1858:1860   */\n      0x20\n        /* \"#utility.yul\":1847:1856   */\n      dup3\n        /* \"#utility.yul\":1843:1861   */\n      add\n        /* \"#utility.yul\":1835:1861   */\n      swap1\n      pop\n        /* \"#utility.yul\":1907:1916   */\n      dup2\n        /* \"#utility.yul\":1901:1905   */\n      dup2\n        /* \"#utility.yul\":1897:1917   */\n      sub\n        /* \"#utility.yul\":1893:1894   */\n      0x00\n        /* \"#utility.yul\":1882:1891   */\n      dup4\n        /* \"#utility.yul\":1878:1895   */\n      add\n        /* \"#utility.yul\":1871:1918   */\n      mstore\n        /* \"#utility.yul\":1935:2066   */\n      tag_44\n        /* \"#utility.yul\":2061:2065   */\n      dup2\n        /* \"#utility.yul\":1935:2066   */\n      tag_36\n      jump\t// in\n    tag_44:\n        /* \"#utility.yul\":1927:2066   */\n      swap1\n      pop\n        /* \"#utility.yul\":1654:2073   */\n      swap2\n      swap1\n      pop\n      jump\t// out\n        /* \"#utility.yul\":2160:2329   */\n    tag_33:\n        /* \"#utility.yul\":2244:2255   */\n      0x00\n        /* \"#utility.yul\":2278:2284   */\n      dup3\n        /* \"#utility.yul\":2273:2276   */\n      dup3\n        /* \"#utility.yul\":2266:2285   */\n      mstore\n        /* \"#utility.yul\":2318:2322   */\n      0x20\n        /* \"#utility.yul\":2313:2316   */\n      dup3\n        /* \"#utility.yul\":2309:2323   */\n      add\n        /* \"#utility.yul\":2294:2323   */\n      swap1\n      pop\n        /* \"#utility.yul\":2160:2329   */\n      swap3\n      swap2\n      pop\n      pop\n      jump\t// out\n        /* \"#utility.yul\":2335:2412   */\n    tag_48:\n        /* \"#utility.yul\":2372:2379   */\n      0x00\n        /* \"#utility.yul\":2401:2406   */\n      dup2\n        /* \"#utility.yul\":2390:2406   */\n      swap1\n      pop\n        /* \"#utility.yul\":2335:2412   */\n      swap2\n      swap1\n      pop\n      jump\t// out\n        /* \"#utility.yul\":2541:2658   */\n    tag_28:\n        /* \"#utility.yul\":2650:2651   */\n      0x00\n        /* \"#utility.yul\":2647:2648   */\n      dup1\n        /* \"#utility.yul\":2640:2652   */\n      revert\n        /* \"#utility.yul\":2664:2820   */\n    tag_35:\n        /* \"#utility.yul\":2804:2812   */\n      0x69203e2031300000000000000000000000000000000000000000000000000000\n        /* \"#utility.yul\":2800:2801   */\n      0x00\n        /* \"#utility.yul\":2792:2798   */\n      dup3\n        /* \"#utility.yul\":2788:2802   */\n      add\n        /* \"#utility.yul\":2781:2813   */\n      mstore\n        /* \"#utility.yul\":2664:2820   */\n      pop\n      jump\t// out\n        /* \"#utility.yul\":2826:2982   */\n    tag_40:\n        /* \"#utility.yul\":2966:2974   */\n      0x78203e2031300000000000000000000000000000000000000000000000000000\n        /* \"#utility.yul\":2962:2963   */\n      0x00\n        /* \"#utility.yul\":2954:2960   */\n      dup3\n        /* \"#utility.yul\":2950:2964   */\n      add\n        /* \"#utility.yul\":2943:2975   */\n      mstore\n        /* \"#utility.yul\":2826:2982   */\n      pop\n      jump\t// out\n        /* \"#utility.yul\":2988:3110   */\n    tag_24:\n        /* \"#utility.yul\":3061:3085   */\n      tag_56\n        /* \"#utility.yul\":3079:3084   */\n      dup2\n        /* \"#utility.yul\":3061:3085   */\n      tag_48\n      jump\t// in\n    tag_56:\n        /* \"#utility.yul\":3054:3059   */\n      dup2\n        /* \"#utility.yul\":3051:3086   */\n      eq\n        /* \"#utility.yul\":3041:3104   */\n      tag_57\n      jumpi\n        /* \"#utility.yul\":3100:3101   */\n      0x00\n        /* \"#utility.yul\":3097:3098   */\n      dup1\n        /* \"#utility.yul\":3090:3102   */\n      revert\n        /* \"#utility.yul\":3041:3104   */\n    tag_57:\n        /* \"#utility.yul\":2988:3110   */\n      pop\n      jump\t// out\n\n    auxdata: 0xa264697066735822122092606d2384e5bc70417e9a85cecde4ab04de7521d7b4fc29bfde2fdc8c26903a64736f6c63430008070033\n}\n",
				"bytecode": {
					"linkReferences": {},
					"object": "608060405234801561001057600080fd5b50610287806100206000396000f3fe608060405234801561001057600080fd5b50600436106100365760003560e01c8063209877671461003b578063b8bd717f14610057575b600080fd5b61005560048036038101906100509190610115565b610073565b005b610071600480360381019061006c9190610115565b6100b9565b005b600a81116100b6576040517f08c379a00000000000000000000000000000000000000000000000000000000081526004016100ad90610188565b60405180910390fd5b50565b600a8111156100fd576040517f08c379a00000000000000000000000000000000000000000000000000000000081526004016100f4906101a8565b60405180910390fd5b50565b60008135905061010f8161023a565b92915050565b60006020828403121561012b5761012a6101e3565b5b600061013984828501610100565b91505092915050565b600061014f6006836101c8565b915061015a826101e8565b602082019050919050565b60006101726006836101c8565b915061017d82610211565b602082019050919050565b600060208201905081810360008301526101a181610142565b9050919050565b600060208201905081810360008301526101c181610165565b9050919050565b600082825260208201905092915050565b6000819050919050565b600080fd5b7f69203e2031300000000000000000000000000000000000000000000000000000600082015250565b7f78203e2031300000000000000000000000000000000000000000000000000000600082015250565b610243816101d9565b811461024e57600080fd5b5056fea264697066735822122092606d2384e5bc70417e9a85cecde4ab04de7521d7b4fc29bfde2fdc8c26903a64736f6c63430008070033",
					"opcodes": "PUSH1 0x80 PUSH1 0x40 MSTORE CALLVALUE DUP1 ISZERO PUSH2 0x10 JUMPI PUSH1 0x0 DUP1 REVERT JUMPDEST POP PUSH2 0x287 DUP1 PUSH2 0x20 PUSH1 0x0 CODECOPY PUSH1 0x0 RETURN INVALID PUSH1 0x80 PUSH1 0x40 MSTORE CALLVALUE DUP1 ISZERO PUSH2 0x10 JUMPI PUSH1 0x0 DUP1 REVERT JUMPDEST POP PUSH1 0x4 CALLDATASIZE LT PUSH2 0x36 JUMPI PUSH1 0x0 CALLDATALOAD PUSH1 0xE0 SHR DUP1 PUSH4 0x20987767 EQ PUSH2 0x3B JUMPI DUP1 PUSH4 0xB8BD717F EQ PUSH2 0x57 JUMPI JUMPDEST PUSH1 0x0 DUP1 REVERT JUMPDEST PUSH2 0x55 PUSH1 0x4 DUP1 CALLDATASIZE SUB DUP2 ADD SWAP1 PUSH2 0x50 SWAP2 SWAP1 PUSH2 0x115 JUMP JUMPDEST PUSH2 0x73 JUMP JUMPDEST STOP JUMPDEST PUSH2 0x71 PUSH1 0x4 DUP1 CALLDATASIZE SUB DUP2 ADD SWAP1 PUSH2 0x6C SWAP2 SWAP1 PUSH2 0x115 JUMP JUMPDEST PUSH2 0xB9 JUMP JUMPDEST STOP JUMPDEST PUSH1 0xA DUP2 GT PUSH2 0xB6 JUMPI PUSH1 0x40 MLOAD PUSH32 0x8C379A000000000000000000000000000000000000000000000000000000000 DUP2 MSTORE PUSH1 0x4 ADD PUSH2 0xAD SWAP1 PUSH2 0x188 JUMP JUMPDEST PUSH1 0x40 MLOAD DUP1 SWAP2 SUB SWAP1 REVERT JUMPDEST POP JUMP JUMPDEST PUSH1 0xA DUP2 GT ISZERO PUSH2 0xFD JUMPI PUSH1 0x40 MLOAD PUSH32 0x8C379A000000000000000000000000000000000000000000000000000000000 DUP2 MSTORE PUSH1 0x4 ADD PUSH2 0xF4 SWAP1 PUSH2 0x1A8 JUMP JUMPDEST PUSH1 0x40 MLOAD DUP1 SWAP2 SUB SWAP1 REVERT JUMPDEST POP JUMP JUMPDEST PUSH1 0x0 DUP2 CALLDATALOAD SWAP1 POP PUSH2 0x10F DUP2 PUSH2 0x23A JUMP JUMPDEST SWAP3 SWAP2 POP POP JUMP JUMPDEST PUSH1 0x0 PUSH1 0x20 DUP3 DUP5 SUB SLT ISZERO PUSH2 0x12B JUMPI PUSH2 0x12A PUSH2 0x1E3 JUMP JUMPDEST JUMPDEST PUSH1 0x0 PUSH2 0x139 DUP5 DUP3 DUP6 ADD PUSH2 0x100 JUMP JUMPDEST SWAP2 POP POP SWAP3 SWAP2 POP POP JUMP JUMPDEST PUSH1 0x0 PUSH2 0x14F PUSH1 0x6 DUP4 PUSH2 0x1C8 JUMP JUMPDEST SWAP2 POP PUSH2 0x15A DUP3 PUSH2 0x1E8 JUMP JUMPDEST PUSH1 0x20 DUP3 ADD SWAP1 POP SWAP2 SWAP1 POP JUMP JUMPDEST PUSH1 0x0 PUSH2 0x172 PUSH1 0x6 DUP4 PUSH2 0x1C8 JUMP JUMPDEST SWAP2 POP PUSH2 0x17D DUP3 PUSH2 0x211 JUMP JUMPDEST PUSH1 0x20 DUP3 ADD SWAP1 POP SWAP2 SWAP1 POP JUMP JUMPDEST PUSH1 0x0 PUSH1 0x20 DUP3 ADD SWAP1 POP DUP2 DUP2 SUB PUSH1 0x0 DUP4 ADD MSTORE PUSH2 0x1A1 DUP2 PUSH2 0x142 JUMP JUMPDEST SWAP1 POP SWAP2 SWAP1 POP JUMP JUMPDEST PUSH1 0x0 PUSH1 0x20 DUP3 ADD SWAP1 POP DUP2 DUP2 SUB PUSH1 0x0 DUP4 ADD MSTORE PUSH2 0x1C1 DUP2 PUSH2 0x165 JUMP JUMPDEST SWAP1 POP SWAP2 SWAP1 POP JUMP JUMPDEST PUSH1 0x0 DUP3 DUP3 MSTORE PUSH1 0x20 DUP3 ADD SWAP1 POP SWAP3 SWAP2 POP POP JUMP JUMPDEST PUSH1 0x0 DUP2 SWAP1 POP SWAP2 SWAP1 POP JUMP JUMPDEST PUSH1 0x0 DUP1 REVERT JUMPDEST PUSH32 0x69203E2031300000000000000000000000000000000000000000000000000000 PUSH1 0x0 DUP3 ADD MSTORE POP JUMP JUMPDEST PUSH32 0x78203E2031300000000000000000000000000000000000000000000000000000 PUSH1 0x0 DUP3 ADD MSTORE POP JUMP JUMPDEST PUSH2 0x243 DUP2 PUSH2 0x1D9 JUMP JUMPDEST DUP2 EQ PUSH2 0x24E JUMPI PUSH1 0x0 DUP1 REVERT JUMPDEST POP JUMP INVALID LOG2 PUSH5 0x6970667358 0x22 SLT KECCAK256 SWAP3 PUSH1 0x6D 0x23 DUP5 0xE5 0xBC PUSH17 0x417E9A85CECDE4AB04DE7521D7B4FC29BF 0xDE 0x2F 0xDC DUP13 0x26 SWAP1 GASPRICE PUSH5 0x736F6C6343 STOP ADDMOD SMOD STOP CALLER "
				},
				"gasEstimates": {
					"creation": {
						"codeDepositCost": "129400",
						"executionCost": "177",
						"totalCost": "129577"
					},
					"external": {
						"testRequire(uint256)": "719",
						"testRevert(uint256)": "694"
					}
				},
				"methodIdentifiers": {
					"testRequire(uint256)": "b8bd717f",
					"testRevert(uint256)": "20987767"
				}
			},
			"storageLayout": {
				"storage": [],
				"types": null
			},
			"userdoc": {
				"kind": "user",
				"methods": {},
				"version": 1
			}
		}
	}
}