{
	"Day41_keccak256.sol": {
		"HasFunc": {
			"abi": [
				{
					"inputs": [
						{
							"internalType": "string",
							"name": "text0",
							"type": "string"
						},
						{
							"internalType": "string",
							"name": "text1",
							"type": "string"
						}
					],
					"name": "encode",
					"outputs": [
						{
							"internalType": "bytes",
							"name": "",
							"type": "bytes"
						}
					],
					"stateMutability": "pure",
					"type": "function"
				},
				{
					"inputs": [
						{
							"internalType": "string",
							"name": "text",
							"type": "string"
						},
						{
							"internalType": "uint256",
							"name": "num",
							"type": "uint256"
						},
						{
							"internalType": "address",
							"name": "addr",
							"type": "address"
						}
					],
					"name": "hsah",
					"outputs": [
						{
							"internalType": "bytes32",
							"name": "",
							"type": "bytes32"
						}
					],
					"stateMutability": "pure",
					"type": "function"
				}
			],
			"devdoc": {
				"kind": "dev",
				"methods": {},
				"version": 1
			},
			"evm": {
				"assembly": "    /* \"Day41_keccak256.sol\":58:388  contract HasFunc {... */\n  mstore(0x40, 0x80)\n  callvalue\n  dup1\n  iszero\n  tag_1\n  jumpi\n  0x00\n  dup1\n  revert\ntag_1:\n  pop\n  dataSize(sub_0)\n  dup1\n  dataOffset(sub_0)\n  0x00\n  codecopy\n  0x00\n  return\nstop\n\nsub_0: assembly {\n        /* \"Day41_keccak256.sol\":58:388  contract HasFunc {... */\n      mstore(0x40, 0x80)\n      callvalue\n      dup1\n      iszero\n      tag_1\n      jumpi\n      0x00\n      dup1\n      revert\n    tag_1:\n      pop\n      jumpi(tag_2, lt(calldatasize, 0x04))\n      shr(0xe0, calldataload(0x00))\n      dup1\n      0x0573e536\n      eq\n      tag_3\n      jumpi\n      dup1\n      0x17fe2da2\n      eq\n      tag_4\n      jumpi\n    tag_2:\n      0x00\n      dup1\n      revert\n        /* \"Day41_keccak256.sol\":81:238  function hsah (string memory text, uint num, address addr) external pure returns (bytes32) {... */\n    tag_3:\n      tag_5\n      0x04\n      dup1\n      calldatasize\n      sub\n      dup2\n      add\n      swap1\n      tag_6\n      swap2\n      swap1\n      tag_7\n      jump\t// in\n    tag_6:\n      tag_8\n      jump\t// in\n    tag_5:\n      mload(0x40)\n      tag_9\n      swap2\n      swap1\n      tag_10\n      jump\t// in\n    tag_9:\n      mload(0x40)\n      dup1\n      swap2\n      sub\n      swap1\n      return\n        /* \"Day41_keccak256.sol\":244:386  function encode(string memory text0, string memory text1) external pure returns (bytes memory) {... */\n    tag_4:\n      tag_11\n      0x04\n      dup1\n      calldatasize\n      sub\n      dup2\n      add\n      swap1\n      tag_12\n      swap2\n      swap1\n      tag_13\n      jump\t// in\n    tag_12:\n      tag_14\n      jump\t// in\n    tag_11:\n      mload(0x40)\n      tag_15\n      swap2\n      swap1\n      tag_16\n      jump\t// in\n    tag_15:\n      mload(0x40)\n      dup1\n      swap2\n      sub\n      swap1\n      return\n        /* \"Day41_keccak256.sol\":81:238  function hsah (string memory text, uint num, address addr) external pure returns (bytes32) {... */\n    tag_8:\n        /* \"Day41_keccak256.sol\":163:170  bytes32 */\n      0x00\n        /* \"Day41_keccak256.sol\":216:220  text */\n      dup4\n        /* \"Day41_keccak256.sol\":221:224  num */\n      dup4\n        /* \"Day41_keccak256.sol\":225:229  addr */\n      dup4\n        /* \"Day41_keccak256.sol\":199:230  abi.encodePacked(text,num,addr) */\n      add(0x20, mload(0x40))\n      tag_18\n      swap4\n      swap3\n      swap2\n      swap1\n      tag_19\n      jump\t// in\n    tag_18:\n      mload(0x40)\n      0x20\n      dup2\n      dup4\n      sub\n      sub\n      dup2\n      mstore\n      swap1\n      0x40\n      mstore\n        /* \"Day41_keccak256.sol\":189:231  keccak256(abi.encodePacked(text,num,addr)) */\n      dup1\n      mload\n      swap1\n      0x20\n      add\n      keccak256\n        /* \"Day41_keccak256.sol\":182:231  return keccak256(abi.encodePacked(text,num,addr)) */\n      swap1\n      pop\n        /* \"Day41_keccak256.sol\":81:238  function hsah (string memory text, uint num, address addr) external pure returns (bytes32) {... */\n      swap4\n      swap3\n      pop\n      pop\n      pop\n      jump\t// out\n        /* \"Day41_keccak256.sol\":244:386  function encode(string memory text0, string memory text1) external pure returns (bytes memory) {... */\n    tag_14:\n        /* \"Day41_keccak256.sol\":325:337  bytes memory */\n      0x60\n        /* \"Day41_keccak256.sol\":367:372  text0 */\n      dup3\n        /* \"Day41_keccak256.sol\":373:378  text1 */\n      dup3\n        /* \"Day41_keccak256.sol\":356:379  abi.encode(text0,text1) */\n      add(0x20, mload(0x40))\n      tag_21\n      swap3\n      swap2\n      swap1\n      tag_22\n      jump\t// in\n    tag_21:\n      mload(0x40)\n      0x20\n      dup2\n      dup4\n      sub\n      sub\n      dup2\n      mstore\n      swap1\n      0x40\n      mstore\n        /* \"Day41_keccak256.sol\":349:379  return abi.encode(text0,text1) */\n      swap1\n      pop\n        /* \"Day41_keccak256.sol\":244:386  function encode(string memory text0, string memory text1) external pure returns (bytes memory) {... */\n      swap3\n      swap2\n      pop\n      pop\n      jump\t// out\n        /* \"#utility.yul\":7:419   */\n    tag_24:\n        /* \"#utility.yul\":85:90   */\n      0x00\n        /* \"#utility.yul\":110:176   */\n      tag_26\n        /* \"#utility.yul\":126:175   */\n      tag_27\n        /* \"#utility.yul\":168:174   */\n      dup5\n        /* \"#utility.yul\":126:175   */\n      tag_28\n      jump\t// in\n    tag_27:\n        /* \"#utility.yul\":110:176   */\n      tag_29\n      jump\t// in\n    tag_26:\n        /* \"#utility.yul\":101:176   */\n      swap1\n      pop\n        /* \"#utility.yul\":199:205   */\n      dup3\n        /* \"#utility.yul\":192:197   */\n      dup2\n        /* \"#utility.yul\":185:206   */\n      mstore\n        /* \"#utility.yul\":237:241   */\n      0x20\n        /* \"#utility.yul\":230:235   */\n      dup2\n        /* \"#utility.yul\":226:242   */\n      add\n        /* \"#utility.yul\":275:278   */\n      dup5\n        /* \"#utility.yul\":266:272   */\n      dup5\n        /* \"#utility.yul\":261:264   */\n      dup5\n        /* \"#utility.yul\":257:273   */\n      add\n        /* \"#utility.yul\":254:279   */\n      gt\n        /* \"#utility.yul\":251:363   */\n      iszero\n      tag_30\n      jumpi\n        /* \"#utility.yul\":282:361   */\n      tag_31\n      tag_32\n      jump\t// in\n    tag_31:\n        /* \"#utility.yul\":251:363   */\n    tag_30:\n        /* \"#utility.yul\":372:413   */\n      tag_33\n        /* \"#utility.yul\":406:412   */\n      dup5\n        /* \"#utility.yul\":401:404   */\n      dup3\n        /* \"#utility.yul\":396:399   */\n      dup6\n        /* \"#utility.yul\":372:413   */\n      tag_34\n      jump\t// in\n    tag_33:\n        /* \"#utility.yul\":91:419   */\n      pop\n        /* \"#utility.yul\":7:419   */\n      swap4\n      swap3\n      pop\n      pop\n      pop\n      jump\t// out\n        /* \"#utility.yul\":425:564   */\n    tag_35:\n        /* \"#utility.yul\":471:476   */\n      0x00\n        /* \"#utility.yul\":509:515   */\n      dup2\n        /* \"#utility.yul\":496:516   */\n      calldataload\n        /* \"#utility.yul\":487:516   */\n      swap1\n      pop\n        /* \"#utility.yul\":525:558   */\n      tag_37\n        /* \"#utility.yul\":552:557   */\n      dup2\n        /* \"#utility.yul\":525:558   */\n      tag_38\n      jump\t// in\n    tag_37:\n        /* \"#utility.yul\":425:564   */\n      swap3\n      swap2\n      pop\n      pop\n      jump\t// out\n        /* \"#utility.yul\":584:924   */\n    tag_39:\n        /* \"#utility.yul\":640:645   */\n      0x00\n        /* \"#utility.yul\":689:692   */\n      dup3\n        /* \"#utility.yul\":682:686   */\n      0x1f\n        /* \"#utility.yul\":674:680   */\n      dup4\n        /* \"#utility.yul\":670:687   */\n      add\n        /* \"#utility.yul\":666:693   */\n      slt\n        /* \"#utility.yul\":656:778   */\n      tag_41\n      jumpi\n        /* \"#utility.yul\":697:776   */\n      tag_42\n      tag_43\n      jump\t// in\n    tag_42:\n        /* \"#utility.yul\":656:778   */\n    tag_41:\n        /* \"#utility.yul\":814:820   */\n      dup2\n        /* \"#utility.yul\":801:821   */\n      calldataload\n        /* \"#utility.yul\":839:918   */\n      tag_44\n        /* \"#utility.yul\":914:917   */\n      dup5\n        /* \"#utility.yul\":906:912   */\n      dup3\n        /* \"#utility.yul\":899:903   */\n      0x20\n        /* \"#utility.yul\":891:897   */\n      dup7\n        /* \"#utility.yul\":887:904   */\n      add\n        /* \"#utility.yul\":839:918   */\n      tag_24\n      jump\t// in\n    tag_44:\n        /* \"#utility.yul\":830:918   */\n      swap2\n      pop\n        /* \"#utility.yul\":646:924   */\n      pop\n        /* \"#utility.yul\":584:924   */\n      swap3\n      swap2\n      pop\n      pop\n      jump\t// out\n        /* \"#utility.yul\":930:1069   */\n    tag_45:\n        /* \"#utility.yul\":976:981   */\n      0x00\n        /* \"#utility.yul\":1014:1020   */\n      dup2\n        /* \"#utility.yul\":1001:1021   */\n      calldataload\n        /* \"#utility.yul\":992:1021   */\n      swap1\n      pop\n        /* \"#utility.yul\":1030:1063   */\n      tag_47\n        /* \"#utility.yul\":1057:1062   */\n      dup2\n        /* \"#utility.yul\":1030:1063   */\n      tag_48\n      jump\t// in\n    tag_47:\n        /* \"#utility.yul\":930:1069   */\n      swap3\n      swap2\n      pop\n      pop\n      jump\t// out\n        /* \"#utility.yul\":1075:1909   */\n    tag_13:\n        /* \"#utility.yul\":1163:1169   */\n      0x00\n        /* \"#utility.yul\":1171:1177   */\n      dup1\n        /* \"#utility.yul\":1220:1222   */\n      0x40\n        /* \"#utility.yul\":1208:1217   */\n      dup4\n        /* \"#utility.yul\":1199:1206   */\n      dup6\n        /* \"#utility.yul\":1195:1218   */\n      sub\n        /* \"#utility.yul\":1191:1223   */\n      slt\n        /* \"#utility.yul\":1188:1307   */\n      iszero\n      tag_50\n      jumpi\n        /* \"#utility.yul\":1226:1305   */\n      tag_51\n      tag_52\n      jump\t// in\n    tag_51:\n        /* \"#utility.yul\":1188:1307   */\n    tag_50:\n        /* \"#utility.yul\":1374:1375   */\n      0x00\n        /* \"#utility.yul\":1363:1372   */\n      dup4\n        /* \"#utility.yul\":1359:1376   */\n      add\n        /* \"#utility.yul\":1346:1377   */\n      calldataload\n        /* \"#utility.yul\":1404:1422   */\n      0xffffffffffffffff\n        /* \"#utility.yul\":1396:1402   */\n      dup2\n        /* \"#utility.yul\":1393:1423   */\n      gt\n        /* \"#utility.yul\":1390:1507   */\n      iszero\n      tag_53\n      jumpi\n        /* \"#utility.yul\":1426:1505   */\n      tag_54\n      tag_55\n      jump\t// in\n    tag_54:\n        /* \"#utility.yul\":1390:1507   */\n    tag_53:\n        /* \"#utility.yul\":1531:1594   */\n      tag_56\n        /* \"#utility.yul\":1586:1593   */\n      dup6\n        /* \"#utility.yul\":1577:1583   */\n      dup3\n        /* \"#utility.yul\":1566:1575   */\n      dup7\n        /* \"#utility.yul\":1562:1584   */\n      add\n        /* \"#utility.yul\":1531:1594   */\n      tag_39\n      jump\t// in\n    tag_56:\n        /* \"#utility.yul\":1521:1594   */\n      swap3\n      pop\n        /* \"#utility.yul\":1317:1604   */\n      pop\n        /* \"#utility.yul\":1671:1673   */\n      0x20\n        /* \"#utility.yul\":1660:1669   */\n      dup4\n        /* \"#utility.yul\":1656:1674   */\n      add\n        /* \"#utility.yul\":1643:1675   */\n      calldataload\n        /* \"#utility.yul\":1702:1720   */\n      0xffffffffffffffff\n        /* \"#utility.yul\":1694:1700   */\n      dup2\n        /* \"#utility.yul\":1691:1721   */\n      gt\n        /* \"#utility.yul\":1688:1805   */\n      iszero\n      tag_57\n      jumpi\n        /* \"#utility.yul\":1724:1803   */\n      tag_58\n      tag_55\n      jump\t// in\n    tag_58:\n        /* \"#utility.yul\":1688:1805   */\n    tag_57:\n        /* \"#utility.yul\":1829:1892   */\n      tag_59\n        /* \"#utility.yul\":1884:1891   */\n      dup6\n        /* \"#utility.yul\":1875:1881   */\n      dup3\n        /* \"#utility.yul\":1864:1873   */\n      dup7\n        /* \"#utility.yul\":1860:1882   */\n      add\n        /* \"#utility.yul\":1829:1892   */\n      tag_39\n      jump\t// in\n    tag_59:\n        /* \"#utility.yul\":1819:1892   */\n      swap2\n      pop\n        /* \"#utility.yul\":1614:1902   */\n      pop\n        /* \"#utility.yul\":1075:1909   */\n      swap3\n      pop\n      swap3\n      swap1\n      pop\n      jump\t// out\n        /* \"#utility.yul\":1915:2714   */\n    tag_7:\n        /* \"#utility.yul\":2002:2008   */\n      0x00\n        /* \"#utility.yul\":2010:2016   */\n      dup1\n        /* \"#utility.yul\":2018:2024   */\n      0x00\n        /* \"#utility.yul\":2067:2069   */\n      0x60\n        /* \"#utility.yul\":2055:2064   */\n      dup5\n        /* \"#utility.yul\":2046:2053   */\n      dup7\n        /* \"#utility.yul\":2042:2065   */\n      sub\n        /* \"#utility.yul\":2038:2070   */\n      slt\n        /* \"#utility.yul\":2035:2154   */\n      iszero\n      tag_61\n      jumpi\n        /* \"#utility.yul\":2073:2152   */\n      tag_62\n      tag_52\n      jump\t// in\n    tag_62:\n        /* \"#utility.yul\":2035:2154   */\n    tag_61:\n        /* \"#utility.yul\":2221:2222   */\n      0x00\n        /* \"#utility.yul\":2210:2219   */\n      dup5\n        /* \"#utility.yul\":2206:2223   */\n      add\n        /* \"#utility.yul\":2193:2224   */\n      calldataload\n        /* \"#utility.yul\":2251:2269   */\n      0xffffffffffffffff\n        /* \"#utility.yul\":2243:2249   */\n      dup2\n        /* \"#utility.yul\":2240:2270   */\n      gt\n        /* \"#utility.yul\":2237:2354   */\n      iszero\n      tag_63\n      jumpi\n        /* \"#utility.yul\":2273:2352   */\n      tag_64\n      tag_55\n      jump\t// in\n    tag_64:\n        /* \"#utility.yul\":2237:2354   */\n    tag_63:\n        /* \"#utility.yul\":2378:2441   */\n      tag_65\n        /* \"#utility.yul\":2433:2440   */\n      dup7\n        /* \"#utility.yul\":2424:2430   */\n      dup3\n        /* \"#utility.yul\":2413:2422   */\n      dup8\n        /* \"#utility.yul\":2409:2431   */\n      add\n        /* \"#utility.yul\":2378:2441   */\n      tag_39\n      jump\t// in\n    tag_65:\n        /* \"#utility.yul\":2368:2441   */\n      swap4\n      pop\n        /* \"#utility.yul\":2164:2451   */\n      pop\n        /* \"#utility.yul\":2490:2492   */\n      0x20\n        /* \"#utility.yul\":2516:2569   */\n      tag_66\n        /* \"#utility.yul\":2561:2568   */\n      dup7\n        /* \"#utility.yul\":2552:2558   */\n      dup3\n        /* \"#utility.yul\":2541:2550   */\n      dup8\n        /* \"#utility.yul\":2537:2559   */\n      add\n        /* \"#utility.yul\":2516:2569   */\n      tag_45\n      jump\t// in\n    tag_66:\n        /* \"#utility.yul\":2506:2569   */\n      swap3\n      pop\n        /* \"#utility.yul\":2461:2579   */\n      pop\n        /* \"#utility.yul\":2618:2620   */\n      0x40\n        /* \"#utility.yul\":2644:2697   */\n      tag_67\n        /* \"#utility.yul\":2689:2696   */\n      dup7\n        /* \"#utility.yul\":2680:2686   */\n      dup3\n        /* \"#utility.yul\":2669:2678   */\n      dup8\n        /* \"#utility.yul\":2665:2687   */\n      add\n        /* \"#utility.yul\":2644:2697   */\n      tag_35\n      jump\t// in\n    tag_67:\n        /* \"#utility.yul\":2634:2697   */\n      swap2\n      pop\n        /* \"#utility.yul\":2589:2707   */\n      pop\n        /* \"#utility.yul\":1915:2714   */\n      swap3\n      pop\n      swap3\n      pop\n      swap3\n      jump\t// out\n        /* \"#utility.yul\":2720:2877   */\n    tag_68:\n        /* \"#utility.yul\":2825:2870   */\n      tag_70\n        /* \"#utility.yul\":2845:2869   */\n      tag_71\n        /* \"#utility.yul\":2863:2868   */\n      dup3\n        /* \"#utility.yul\":2845:2869   */\n      tag_72\n      jump\t// in\n    tag_71:\n        /* \"#utility.yul\":2825:2870   */\n      tag_73\n      jump\t// in\n    tag_70:\n        /* \"#utility.yul\":2820:2823   */\n      dup3\n        /* \"#utility.yul\":2813:2871   */\n      mstore\n        /* \"#utility.yul\":2720:2877   */\n      pop\n      pop\n      jump\t// out\n        /* \"#utility.yul\":2883:3001   */\n    tag_74:\n        /* \"#utility.yul\":2970:2994   */\n      tag_76\n        /* \"#utility.yul\":2988:2993   */\n      dup2\n        /* \"#utility.yul\":2970:2994   */\n      tag_77\n      jump\t// in\n    tag_76:\n        /* \"#utility.yul\":2965:2968   */\n      dup3\n        /* \"#utility.yul\":2958:2995   */\n      mstore\n        /* \"#utility.yul\":2883:3001   */\n      pop\n      pop\n      jump\t// out\n        /* \"#utility.yul\":3007:3367   */\n    tag_78:\n        /* \"#utility.yul\":3093:3096   */\n      0x00\n        /* \"#utility.yul\":3121:3159   */\n      tag_80\n        /* \"#utility.yul\":3153:3158   */\n      dup3\n        /* \"#utility.yul\":3121:3159   */\n      tag_81\n      jump\t// in\n    tag_80:\n        /* \"#utility.yul\":3175:3245   */\n      tag_82\n        /* \"#utility.yul\":3238:3244   */\n      dup2\n        /* \"#utility.yul\":3233:3236   */\n      dup6\n        /* \"#utility.yul\":3175:3245   */\n      tag_83\n      jump\t// in\n    tag_82:\n        /* \"#utility.yul\":3168:3245   */\n      swap4\n      pop\n        /* \"#utility.yul\":3254:3306   */\n      tag_84\n        /* \"#utility.yul\":3299:3305   */\n      dup2\n        /* \"#utility.yul\":3294:3297   */\n      dup6\n        /* \"#utility.yul\":3287:3291   */\n      0x20\n        /* \"#utility.yul\":3280:3285   */\n      dup7\n        /* \"#utility.yul\":3276:3292   */\n      add\n        /* \"#utility.yul\":3254:3306   */\n      tag_85\n      jump\t// in\n    tag_84:\n        /* \"#utility.yul\":3331:3360   */\n      tag_86\n        /* \"#utility.yul\":3353:3359   */\n      dup2\n        /* \"#utility.yul\":3331:3360   */\n      tag_87\n      jump\t// in\n    tag_86:\n        /* \"#utility.yul\":3326:3329   */\n      dup5\n        /* \"#utility.yul\":3322:3361   */\n      add\n        /* \"#utility.yul\":3315:3361   */\n      swap2\n      pop\n        /* \"#utility.yul\":3097:3367   */\n      pop\n        /* \"#utility.yul\":3007:3367   */\n      swap3\n      swap2\n      pop\n      pop\n      jump\t// out\n        /* \"#utility.yul\":3373:3737   */\n    tag_88:\n        /* \"#utility.yul\":3461:3464   */\n      0x00\n        /* \"#utility.yul\":3489:3528   */\n      tag_90\n        /* \"#utility.yul\":3522:3527   */\n      dup3\n        /* \"#utility.yul\":3489:3528   */\n      tag_91\n      jump\t// in\n    tag_90:\n        /* \"#utility.yul\":3544:3615   */\n      tag_92\n        /* \"#utility.yul\":3608:3614   */\n      dup2\n        /* \"#utility.yul\":3603:3606   */\n      dup6\n        /* \"#utility.yul\":3544:3615   */\n      tag_93\n      jump\t// in\n    tag_92:\n        /* \"#utility.yul\":3537:3615   */\n      swap4\n      pop\n        /* \"#utility.yul\":3624:3676   */\n      tag_94\n        /* \"#utility.yul\":3669:3675   */\n      dup2\n        /* \"#utility.yul\":3664:3667   */\n      dup6\n        /* \"#utility.yul\":3657:3661   */\n      0x20\n        /* \"#utility.yul\":3650:3655   */\n      dup7\n        /* \"#utility.yul\":3646:3662   */\n      add\n        /* \"#utility.yul\":3624:3676   */\n      tag_85\n      jump\t// in\n    tag_94:\n        /* \"#utility.yul\":3701:3730   */\n      tag_95\n        /* \"#utility.yul\":3723:3729   */\n      dup2\n        /* \"#utility.yul\":3701:3730   */\n      tag_87\n      jump\t// in\n    tag_95:\n        /* \"#utility.yul\":3696:3699   */\n      dup5\n        /* \"#utility.yul\":3692:3731   */\n      add\n        /* \"#utility.yul\":3685:3731   */\n      swap2\n      pop\n        /* \"#utility.yul\":3465:3737   */\n      pop\n        /* \"#utility.yul\":3373:3737   */\n      swap3\n      swap2\n      pop\n      pop\n      jump\t// out\n        /* \"#utility.yul\":3743:4120   */\n    tag_96:\n        /* \"#utility.yul\":3849:3852   */\n      0x00\n        /* \"#utility.yul\":3877:3916   */\n      tag_98\n        /* \"#utility.yul\":3910:3915   */\n      dup3\n        /* \"#utility.yul\":3877:3916   */\n      tag_91\n      jump\t// in\n    tag_98:\n        /* \"#utility.yul\":3932:4021   */\n      tag_99\n        /* \"#utility.yul\":4014:4020   */\n      dup2\n        /* \"#utility.yul\":4009:4012   */\n      dup6\n        /* \"#utility.yul\":3932:4021   */\n      tag_100\n      jump\t// in\n    tag_99:\n        /* \"#utility.yul\":3925:4021   */\n      swap4\n      pop\n        /* \"#utility.yul\":4030:4082   */\n      tag_101\n        /* \"#utility.yul\":4075:4081   */\n      dup2\n        /* \"#utility.yul\":4070:4073   */\n      dup6\n        /* \"#utility.yul\":4063:4067   */\n      0x20\n        /* \"#utility.yul\":4056:4061   */\n      dup7\n        /* \"#utility.yul\":4052:4068   */\n      add\n        /* \"#utility.yul\":4030:4082   */\n      tag_85\n      jump\t// in\n    tag_101:\n        /* \"#utility.yul\":4107:4113   */\n      dup1\n        /* \"#utility.yul\":4102:4105   */\n      dup5\n        /* \"#utility.yul\":4098:4114   */\n      add\n        /* \"#utility.yul\":4091:4114   */\n      swap2\n      pop\n        /* \"#utility.yul\":3853:4120   */\n      pop\n        /* \"#utility.yul\":3743:4120   */\n      swap3\n      swap2\n      pop\n      pop\n      jump\t// out\n        /* \"#utility.yul\":4126:4283   */\n    tag_102:\n        /* \"#utility.yul\":4231:4276   */\n      tag_104\n        /* \"#utility.yul\":4251:4275   */\n      tag_105\n        /* \"#utility.yul\":4269:4274   */\n      dup3\n        /* \"#utility.yul\":4251:4275   */\n      tag_106\n      jump\t// in\n    tag_105:\n        /* \"#utility.yul\":4231:4276   */\n      tag_107\n      jump\t// in\n    tag_104:\n        /* \"#utility.yul\":4226:4229   */\n      dup3\n        /* \"#utility.yul\":4219:4277   */\n      mstore\n        /* \"#utility.yul\":4126:4283   */\n      pop\n      pop\n      jump\t// out\n        /* \"#utility.yul\":4289:4846   */\n    tag_19:\n        /* \"#utility.yul\":4477:4480   */\n      0x00\n        /* \"#utility.yul\":4499:4594   */\n      tag_109\n        /* \"#utility.yul\":4590:4593   */\n      dup3\n        /* \"#utility.yul\":4581:4587   */\n      dup7\n        /* \"#utility.yul\":4499:4594   */\n      tag_96\n      jump\t// in\n    tag_109:\n        /* \"#utility.yul\":4492:4594   */\n      swap2\n      pop\n        /* \"#utility.yul\":4604:4679   */\n      tag_110\n        /* \"#utility.yul\":4675:4678   */\n      dup3\n        /* \"#utility.yul\":4666:4672   */\n      dup6\n        /* \"#utility.yul\":4604:4679   */\n      tag_102\n      jump\t// in\n    tag_110:\n        /* \"#utility.yul\":4704:4706   */\n      0x20\n        /* \"#utility.yul\":4699:4702   */\n      dup3\n        /* \"#utility.yul\":4695:4707   */\n      add\n        /* \"#utility.yul\":4688:4707   */\n      swap2\n      pop\n        /* \"#utility.yul\":4717:4792   */\n      tag_111\n        /* \"#utility.yul\":4788:4791   */\n      dup3\n        /* \"#utility.yul\":4779:4785   */\n      dup5\n        /* \"#utility.yul\":4717:4792   */\n      tag_68\n      jump\t// in\n    tag_111:\n        /* \"#utility.yul\":4817:4819   */\n      0x14\n        /* \"#utility.yul\":4812:4815   */\n      dup3\n        /* \"#utility.yul\":4808:4820   */\n      add\n        /* \"#utility.yul\":4801:4820   */\n      swap2\n      pop\n        /* \"#utility.yul\":4837:4840   */\n      dup2\n        /* \"#utility.yul\":4830:4840   */\n      swap1\n      pop\n        /* \"#utility.yul\":4289:4846   */\n      swap5\n      swap4\n      pop\n      pop\n      pop\n      pop\n      jump\t// out\n        /* \"#utility.yul\":4852:5074   */\n    tag_10:\n        /* \"#utility.yul\":4945:4949   */\n      0x00\n        /* \"#utility.yul\":4983:4985   */\n      0x20\n        /* \"#utility.yul\":4972:4981   */\n      dup3\n        /* \"#utility.yul\":4968:4986   */\n      add\n        /* \"#utility.yul\":4960:4986   */\n      swap1\n      pop\n        /* \"#utility.yul\":4996:5067   */\n      tag_113\n        /* \"#utility.yul\":5064:5065   */\n      0x00\n        /* \"#utility.yul\":5053:5062   */\n      dup4\n        /* \"#utility.yul\":5049:5066   */\n      add\n        /* \"#utility.yul\":5040:5046   */\n      dup5\n        /* \"#utility.yul\":4996:5067   */\n      tag_74\n      jump\t// in\n    tag_113:\n        /* \"#utility.yul\":4852:5074   */\n      swap3\n      swap2\n      pop\n      pop\n      jump\t// out\n        /* \"#utility.yul\":5080:5389   */\n    tag_16:\n        /* \"#utility.yul\":5191:5195   */\n      0x00\n        /* \"#utility.yul\":5229:5231   */\n      0x20\n        /* \"#utility.yul\":5218:5227   */\n      dup3\n        /* \"#utility.yul\":5214:5232   */\n      add\n        /* \"#utility.yul\":5206:5232   */\n      swap1\n      pop\n        /* \"#utility.yul\":5278:5287   */\n      dup2\n        /* \"#utility.yul\":5272:5276   */\n      dup2\n        /* \"#utility.yul\":5268:5288   */\n      sub\n        /* \"#utility.yul\":5264:5265   */\n      0x00\n        /* \"#utility.yul\":5253:5262   */\n      dup4\n        /* \"#utility.yul\":5249:5266   */\n      add\n        /* \"#utility.yul\":5242:5289   */\n      mstore\n        /* \"#utility.yul\":5306:5382   */\n      tag_115\n        /* \"#utility.yul\":5377:5381   */\n      dup2\n        /* \"#utility.yul\":5368:5374   */\n      dup5\n        /* \"#utility.yul\":5306:5382   */\n      tag_78\n      jump\t// in\n    tag_115:\n        /* \"#utility.yul\":5298:5382   */\n      swap1\n      pop\n        /* \"#utility.yul\":5080:5389   */\n      swap3\n      swap2\n      pop\n      pop\n      jump\t// out\n        /* \"#utility.yul\":5395:5909   */\n    tag_22:\n        /* \"#utility.yul\":5556:5560   */\n      0x00\n        /* \"#utility.yul\":5594:5596   */\n      0x40\n        /* \"#utility.yul\":5583:5592   */\n      dup3\n        /* \"#utility.yul\":5579:5597   */\n      add\n        /* \"#utility.yul\":5571:5597   */\n      swap1\n      pop\n        /* \"#utility.yul\":5643:5652   */\n      dup2\n        /* \"#utility.yul\":5637:5641   */\n      dup2\n        /* \"#utility.yul\":5633:5653   */\n      sub\n        /* \"#utility.yul\":5629:5630   */\n      0x00\n        /* \"#utility.yul\":5618:5627   */\n      dup4\n        /* \"#utility.yul\":5614:5631   */\n      add\n        /* \"#utility.yul\":5607:5654   */\n      mstore\n        /* \"#utility.yul\":5671:5749   */\n      tag_117\n        /* \"#utility.yul\":5744:5748   */\n      dup2\n        /* \"#utility.yul\":5735:5741   */\n      dup6\n        /* \"#utility.yul\":5671:5749   */\n      tag_88\n      jump\t// in\n    tag_117:\n        /* \"#utility.yul\":5663:5749   */\n      swap1\n      pop\n        /* \"#utility.yul\":5796:5805   */\n      dup2\n        /* \"#utility.yul\":5790:5794   */\n      dup2\n        /* \"#utility.yul\":5786:5806   */\n      sub\n        /* \"#utility.yul\":5781:5783   */\n      0x20\n        /* \"#utility.yul\":5770:5779   */\n      dup4\n        /* \"#utility.yul\":5766:5784   */\n      add\n        /* \"#utility.yul\":5759:5807   */\n      mstore\n        /* \"#utility.yul\":5824:5902   */\n      tag_118\n        /* \"#utility.yul\":5897:5901   */\n      dup2\n        /* \"#utility.yul\":5888:5894   */\n      dup5\n        /* \"#utility.yul\":5824:5902   */\n      tag_88\n      jump\t// in\n    tag_118:\n        /* \"#utility.yul\":5816:5902   */\n      swap1\n      pop\n        /* \"#utility.yul\":5395:5909   */\n      swap4\n      swap3\n      pop\n      pop\n      pop\n      jump\t// out\n        /* \"#utility.yul\":5915:6044   */\n    tag_29:\n        /* \"#utility.yul\":5949:5955   */\n      0x00\n        /* \"#utility.yul\":5976:5996   */\n      tag_120\n      tag_121\n      jump\t// in\n    tag_120:\n        /* \"#utility.yul\":5966:5996   */\n      swap1\n      pop\n        /* \"#utility.yul\":6005:6038   */\n      tag_122\n        /* \"#utility.yul\":6033:6037   */\n      dup3\n        /* \"#utility.yul\":6025:6031   */\n      dup3\n        /* \"#utility.yul\":6005:6038   */\n      tag_123\n      jump\t// in\n    tag_122:\n        /* \"#utility.yul\":5915:6044   */\n      swap2\n      swap1\n      pop\n      jump\t// out\n        /* \"#utility.yul\":6050:6125   */\n    tag_121:\n        /* \"#utility.yul\":6083:6089   */\n      0x00\n        /* \"#utility.yul\":6116:6118   */\n      0x40\n        /* \"#utility.yul\":6110:6119   */\n      mload\n        /* \"#utility.yul\":6100:6119   */\n      swap1\n      pop\n        /* \"#utility.yul\":6050:6125   */\n      swap1\n      jump\t// out\n        /* \"#utility.yul\":6131:6439   */\n    tag_28:\n        /* \"#utility.yul\":6193:6197   */\n      0x00\n        /* \"#utility.yul\":6283:6301   */\n      0xffffffffffffffff\n        /* \"#utility.yul\":6275:6281   */\n      dup3\n        /* \"#utility.yul\":6272:6302   */\n      gt\n        /* \"#utility.yul\":6269:6325   */\n      iszero\n      tag_126\n      jumpi\n        /* \"#utility.yul\":6305:6323   */\n      tag_127\n      tag_128\n      jump\t// in\n    tag_127:\n        /* \"#utility.yul\":6269:6325   */\n    tag_126:\n        /* \"#utility.yul\":6343:6372   */\n      tag_129\n        /* \"#utility.yul\":6365:6371   */\n      dup3\n        /* \"#utility.yul\":6343:6372   */\n      tag_87\n      jump\t// in\n    tag_129:\n        /* \"#utility.yul\":6335:6372   */\n      swap1\n      pop\n        /* \"#utility.yul\":6427:6431   */\n      0x20\n        /* \"#utility.yul\":6421:6425   */\n      dup2\n        /* \"#utility.yul\":6417:6432   */\n      add\n        /* \"#utility.yul\":6409:6432   */\n      swap1\n      pop\n        /* \"#utility.yul\":6131:6439   */\n      swap2\n      swap1\n      pop\n      jump\t// out\n        /* \"#utility.yul\":6445:6543   */\n    tag_81:\n        /* \"#utility.yul\":6496:6502   */\n      0x00\n        /* \"#utility.yul\":6530:6535   */\n      dup2\n        /* \"#utility.yul\":6524:6536   */\n      mload\n        /* \"#utility.yul\":6514:6536   */\n      swap1\n      pop\n        /* \"#utility.yul\":6445:6543   */\n      swap2\n      swap1\n      pop\n      jump\t// out\n        /* \"#utility.yul\":6549:6648   */\n    tag_91:\n        /* \"#utility.yul\":6601:6607   */\n      0x00\n        /* \"#utility.yul\":6635:6640   */\n      dup2\n        /* \"#utility.yul\":6629:6641   */\n      mload\n        /* \"#utility.yul\":6619:6641   */\n      swap1\n      pop\n        /* \"#utility.yul\":6549:6648   */\n      swap2\n      swap1\n      pop\n      jump\t// out\n        /* \"#utility.yul\":6654:6822   */\n    tag_83:\n        /* \"#utility.yul\":6737:6748   */\n      0x00\n        /* \"#utility.yul\":6771:6777   */\n      dup3\n        /* \"#utility.yul\":6766:6769   */\n      dup3\n        /* \"#utility.yul\":6759:6778   */\n      mstore\n        /* \"#utility.yul\":6811:6815   */\n      0x20\n        /* \"#utility.yul\":6806:6809   */\n      dup3\n        /* \"#utility.yul\":6802:6816   */\n      add\n        /* \"#utility.yul\":6787:6816   */\n      swap1\n      pop\n        /* \"#utility.yul\":6654:6822   */\n      swap3\n      swap2\n      pop\n      pop\n      jump\t// out\n        /* \"#utility.yul\":6828:6997   */\n    tag_93:\n        /* \"#utility.yul\":6912:6923   */\n      0x00\n        /* \"#utility.yul\":6946:6952   */\n      dup3\n        /* \"#utility.yul\":6941:6944   */\n      dup3\n        /* \"#utility.yul\":6934:6953   */\n      mstore\n        /* \"#utility.yul\":6986:6990   */\n      0x20\n        /* \"#utility.yul\":6981:6984   */\n      dup3\n        /* \"#utility.yul\":6977:6991   */\n      add\n        /* \"#utility.yul\":6962:6991   */\n      swap1\n      pop\n        /* \"#utility.yul\":6828:6997   */\n      swap3\n      swap2\n      pop\n      pop\n      jump\t// out\n        /* \"#utility.yul\":7003:7151   */\n    tag_100:\n        /* \"#utility.yul\":7105:7116   */\n      0x00\n        /* \"#utility.yul\":7142:7145   */\n      dup2\n        /* \"#utility.yul\":7127:7145   */\n      swap1\n      pop\n        /* \"#utility.yul\":7003:7151   */\n      swap3\n      swap2\n      pop\n      pop\n      jump\t// out\n        /* \"#utility.yul\":7157:7253   */\n    tag_72:\n        /* \"#utility.yul\":7194:7201   */\n      0x00\n        /* \"#utility.yul\":7223:7247   */\n      tag_136\n        /* \"#utility.yul\":7241:7246   */\n      dup3\n        /* \"#utility.yul\":7223:7247   */\n      tag_137\n      jump\t// in\n    tag_136:\n        /* \"#utility.yul\":7212:7247   */\n      swap1\n      pop\n        /* \"#utility.yul\":7157:7253   */\n      swap2\n      swap1\n      pop\n      jump\t// out\n        /* \"#utility.yul\":7259:7336   */\n    tag_77:\n        /* \"#utility.yul\":7296:7303   */\n      0x00\n        /* \"#utility.yul\":7325:7330   */\n      dup2\n        /* \"#utility.yul\":7314:7330   */\n      swap1\n      pop\n        /* \"#utility.yul\":7259:7336   */\n      swap2\n      swap1\n      pop\n      jump\t// out\n        /* \"#utility.yul\":7342:7468   */\n    tag_137:\n        /* \"#utility.yul\":7379:7386   */\n      0x00\n        /* \"#utility.yul\":7419:7461   */\n      0xffffffffffffffffffffffffffffffffffffffff\n        /* \"#utility.yul\":7412:7417   */\n      dup3\n        /* \"#utility.yul\":7408:7462   */\n      and\n        /* \"#utility.yul\":7397:7462   */\n      swap1\n      pop\n        /* \"#utility.yul\":7342:7468   */\n      swap2\n      swap1\n      pop\n      jump\t// out\n        /* \"#utility.yul\":7474:7551   */\n    tag_106:\n        /* \"#utility.yul\":7511:7518   */\n      0x00\n        /* \"#utility.yul\":7540:7545   */\n      dup2\n        /* \"#utility.yul\":7529:7545   */\n      swap1\n      pop\n        /* \"#utility.yul\":7474:7551   */\n      swap2\n      swap1\n      pop\n      jump\t// out\n        /* \"#utility.yul\":7557:7711   */\n    tag_34:\n        /* \"#utility.yul\":7641:7647   */\n      dup3\n        /* \"#utility.yul\":7636:7639   */\n      dup2\n        /* \"#utility.yul\":7631:7634   */\n      dup4\n        /* \"#utility.yul\":7618:7648   */\n      calldatacopy\n        /* \"#utility.yul\":7703:7704   */\n      0x00\n        /* \"#utility.yul\":7694:7700   */\n      dup4\n        /* \"#utility.yul\":7689:7692   */\n      dup4\n        /* \"#utility.yul\":7685:7701   */\n      add\n        /* \"#utility.yul\":7678:7705   */\n      mstore\n        /* \"#utility.yul\":7557:7711   */\n      pop\n      pop\n      pop\n      jump\t// out\n        /* \"#utility.yul\":7717:8024   */\n    tag_85:\n        /* \"#utility.yul\":7785:7786   */\n      0x00\n        /* \"#utility.yul\":7795:7908   */\n    tag_143:\n        /* \"#utility.yul\":7809:7815   */\n      dup4\n        /* \"#utility.yul\":7806:7807   */\n      dup2\n        /* \"#utility.yul\":7803:7816   */\n      lt\n        /* \"#utility.yul\":7795:7908   */\n      iszero\n      tag_145\n      jumpi\n        /* \"#utility.yul\":7894:7895   */\n      dup1\n        /* \"#utility.yul\":7889:7892   */\n      dup3\n        /* \"#utility.yul\":7885:7896   */\n      add\n        /* \"#utility.yul\":7879:7897   */\n      mload\n        /* \"#utility.yul\":7875:7876   */\n      dup2\n        /* \"#utility.yul\":7870:7873   */\n      dup5\n        /* \"#utility.yul\":7866:7877   */\n      add\n        /* \"#utility.yul\":7859:7898   */\n      mstore\n        /* \"#utility.yul\":7831:7833   */\n      0x20\n        /* \"#utility.yul\":7828:7829   */\n      dup2\n        /* \"#utility.yul\":7824:7834   */\n      add\n        /* \"#utility.yul\":7819:7834   */\n      swap1\n      pop\n        /* \"#utility.yul\":7795:7908   */\n      jump(tag_143)\n    tag_145:\n        /* \"#utility.yul\":7926:7932   */\n      dup4\n        /* \"#utility.yul\":7923:7924   */\n      dup2\n        /* \"#utility.yul\":7920:7933   */\n      gt\n        /* \"#utility.yul\":7917:8018   */\n      iszero\n      tag_146\n      jumpi\n        /* \"#utility.yul\":8006:8007   */\n      0x00\n        /* \"#utility.yul\":7997:8003   */\n      dup5\n        /* \"#utility.yul\":7992:7995   */\n      dup5\n        /* \"#utility.yul\":7988:8004   */\n      add\n        /* \"#utility.yul\":7981:8008   */\n      mstore\n        /* \"#utility.yul\":7917:8018   */\n    tag_146:\n        /* \"#utility.yul\":7766:8024   */\n      pop\n        /* \"#utility.yul\":7717:8024   */\n      pop\n      pop\n      pop\n      jump\t// out\n        /* \"#utility.yul\":8030:8311   */\n    tag_123:\n        /* \"#utility.yul\":8113:8140   */\n      tag_148\n        /* \"#utility.yul\":8135:8139   */\n      dup3\n        /* \"#utility.yul\":8113:8140   */\n      tag_87\n      jump\t// in\n    tag_148:\n        /* \"#utility.yul\":8105:8111   */\n      dup2\n        /* \"#utility.yul\":8101:8141   */\n      add\n        /* \"#utility.yul\":8243:8249   */\n      dup2\n        /* \"#utility.yul\":8231:8241   */\n      dup2\n        /* \"#utility.yul\":8228:8250   */\n      lt\n        /* \"#utility.yul\":8207:8225   */\n      0xffffffffffffffff\n        /* \"#utility.yul\":8195:8205   */\n      dup3\n        /* \"#utility.yul\":8192:8226   */\n      gt\n        /* \"#utility.yul\":8189:8251   */\n      or\n        /* \"#utility.yul\":8186:8274   */\n      iszero\n      tag_149\n      jumpi\n        /* \"#utility.yul\":8254:8272   */\n      tag_150\n      tag_128\n      jump\t// in\n    tag_150:\n        /* \"#utility.yul\":8186:8274   */\n    tag_149:\n        /* \"#utility.yul\":8294:8304   */\n      dup1\n        /* \"#utility.yul\":8290:8292   */\n      0x40\n        /* \"#utility.yul\":8283:8305   */\n      mstore\n        /* \"#utility.yul\":8073:8311   */\n      pop\n        /* \"#utility.yul\":8030:8311   */\n      pop\n      pop\n      jump\t// out\n        /* \"#utility.yul\":8317:8417   */\n    tag_73:\n        /* \"#utility.yul\":8356:8363   */\n      0x00\n        /* \"#utility.yul\":8385:8411   */\n      tag_152\n        /* \"#utility.yul\":8405:8410   */\n      dup3\n        /* \"#utility.yul\":8385:8411   */\n      tag_153\n      jump\t// in\n    tag_152:\n        /* \"#utility.yul\":8374:8411   */\n      swap1\n      pop\n        /* \"#utility.yul\":8317:8417   */\n      swap2\n      swap1\n      pop\n      jump\t// out\n        /* \"#utility.yul\":8423:8517   */\n    tag_153:\n        /* \"#utility.yul\":8462:8469   */\n      0x00\n        /* \"#utility.yul\":8491:8511   */\n      tag_155\n        /* \"#utility.yul\":8505:8510   */\n      dup3\n        /* \"#utility.yul\":8491:8511   */\n      tag_156\n      jump\t// in\n    tag_155:\n        /* \"#utility.yul\":8480:8511   */\n      swap1\n      pop\n        /* \"#utility.yul\":8423:8517   */\n      swap2\n      swap1\n      pop\n      jump\t// out\n        /* \"#utility.yul\":8523:8602   */\n    tag_107:\n        /* \"#utility.yul\":8562:8569   */\n      0x00\n        /* \"#utility.yul\":8591:8596   */\n      dup2\n        /* \"#utility.yul\":8580:8596   */\n      swap1\n      pop\n        /* \"#utility.yul\":8523:8602   */\n      swap2\n      swap1\n      pop\n      jump\t// out\n        /* \"#utility.yul\":8608:8788   */\n    tag_128:\n        /* \"#utility.yul\":8656:8733   */\n      0x4e487b7100000000000000000000000000000000000000000000000000000000\n        /* \"#utility.yul\":8653:8654   */\n      0x00\n        /* \"#utility.yul\":8646:8734   */\n      mstore\n        /* \"#utility.yul\":8753:8757   */\n      0x41\n        /* \"#utility.yul\":8750:8751   */\n      0x04\n        /* \"#utility.yul\":8743:8758   */\n      mstore\n        /* \"#utility.yul\":8777:8781   */\n      0x24\n        /* \"#utility.yul\":8774:8775   */\n      0x00\n        /* \"#utility.yul\":8767:8782   */\n      revert\n        /* \"#utility.yul\":8794:8911   */\n    tag_43:\n        /* \"#utility.yul\":8903:8904   */\n      0x00\n        /* \"#utility.yul\":8900:8901   */\n      dup1\n        /* \"#utility.yul\":8893:8905   */\n      revert\n        /* \"#utility.yul\":8917:9034   */\n    tag_32:\n        /* \"#utility.yul\":9026:9027   */\n      0x00\n        /* \"#utility.yul\":9023:9024   */\n      dup1\n        /* \"#utility.yul\":9016:9028   */\n      revert\n        /* \"#utility.yul\":9040:9157   */\n    tag_55:\n        /* \"#utility.yul\":9149:9150   */\n      0x00\n        /* \"#utility.yul\":9146:9147   */\n      dup1\n        /* \"#utility.yul\":9139:9151   */\n      revert\n        /* \"#utility.yul\":9163:9280   */\n    tag_52:\n        /* \"#utility.yul\":9272:9273   */\n      0x00\n        /* \"#utility.yul\":9269:9270   */\n      dup1\n        /* \"#utility.yul\":9262:9274   */\n      revert\n        /* \"#utility.yul\":9286:9388   */\n    tag_87:\n        /* \"#utility.yul\":9327:9333   */\n      0x00\n        /* \"#utility.yul\":9378:9380   */\n      0x1f\n        /* \"#utility.yul\":9374:9381   */\n      not\n        /* \"#utility.yul\":9369:9371   */\n      0x1f\n        /* \"#utility.yul\":9362:9367   */\n      dup4\n        /* \"#utility.yul\":9358:9372   */\n      add\n        /* \"#utility.yul\":9354:9382   */\n      and\n        /* \"#utility.yul\":9344:9382   */\n      swap1\n      pop\n        /* \"#utility.yul\":9286:9388   */\n      swap2\n      swap1\n      pop\n      jump\t// out\n        /* \"#utility.yul\":9394:9488   */\n    tag_156:\n        /* \"#utility.yul\":9427:9435   */\n      0x00\n        /* \"#utility.yul\":9475:9480   */\n      dup2\n        /* \"#utility.yul\":9471:9473   */\n      0x60\n        /* \"#utility.yul\":9467:9481   */\n      shl\n        /* \"#utility.yul\":9446:9481   */\n      swap1\n      pop\n        /* \"#utility.yul\":9394:9488   */\n      swap2\n      swap1\n      pop\n      jump\t// out\n        /* \"#utility.yul\":9494:9616   */\n    tag_38:\n        /* \"#utility.yul\":9567:9591   */\n      tag_166\n        /* \"#utility.yul\":9585:9590   */\n      dup2\n        /* \"#utility.yul\":9567:9591   */\n      tag_72\n      jump\t// in\n    tag_166:\n        /* \"#utility.yul\":9560:9565   */\n      dup2\n        /* \"#utility.yul\":9557:9592   */\n      eq\n        /* \"#utility.yul\":9547:9610   */\n      tag_167\n      jumpi\n        /* \"#utility.yul\":9606:9607   */\n      0x00\n        /* \"#utility.yul\":9603:9604   */\n      dup1\n        /* \"#utility.yul\":9596:9608   */\n      revert\n        /* \"#utility.yul\":9547:9610   */\n    tag_167:\n        /* \"#utility.yul\":9494:9616   */\n      pop\n      jump\t// out\n        /* \"#utility.yul\":9622:9744   */\n    tag_48:\n        /* \"#utility.yul\":9695:9719   */\n      tag_169\n        /* \"#utility.yul\":9713:9718   */\n      dup2\n        /* \"#utility.yul\":9695:9719   */\n      tag_106\n      jump\t// in\n    tag_169:\n        /* \"#utility.yul\":9688:9693   */\n      dup2\n        /* \"#utility.yul\":9685:9720   */\n      eq\n        /* \"#utility.yul\":9675:9738   */\n      tag_170\n      jumpi\n        /* \"#utility.yul\":9734:9735   */\n      0x00\n        /* \"#utility.yul\":9731:9732   */\n      dup1\n        /* \"#utility.yul\":9724:9736   */\n      revert\n        /* \"#utility.yul\":9675:9738   */\n    tag_170:\n        /* \"#utility.yul\":9622:9744   */\n      pop\n      jump\t// out\n\n    auxdata: 0xa26469706673582212208de5a8f36c7da6a5cb009a0e2bfe1328c9077624f998f3162272c4501fc66edf64736f6c63430008070033\n}\n",
				"bytecode": {
					"linkReferences": {},
					"object": "608060405234801561001057600080fd5b50610650806100206000396000f3fe608060405234801561001057600080fd5b50600436106100365760003560e01c80630573e5361461003b57806317fe2da21461006b575b600080fd5b6100556004803603810190610050919061020f565b61009b565b6040516100629190610397565b60405180910390f35b61008560048036038101906100809190610197565b6100d1565b60405161009291906103b2565b60405180910390f35b60008383836040516020016100b29392919061035e565b6040516020818303038152906040528051906020012090509392505050565b606082826040516020016100e69291906103d4565b604051602081830303815290604052905092915050565b600061011061010b84610430565b61040b565b90508281526020810184848401111561012c5761012b6105bf565b5b6101378482856104ea565b509392505050565b60008135905061014e816105ec565b92915050565b600082601f830112610169576101686105ba565b5b81356101798482602086016100fd565b91505092915050565b60008135905061019181610603565b92915050565b600080604083850312156101ae576101ad6105c9565b5b600083013567ffffffffffffffff8111156101cc576101cb6105c4565b5b6101d885828601610154565b925050602083013567ffffffffffffffff8111156101f9576101f86105c4565b5b61020585828601610154565b9150509250929050565b600080600060608486031215610228576102276105c9565b5b600084013567ffffffffffffffff811115610246576102456105c4565b5b61025286828701610154565b935050602061026386828701610182565b92505060406102748682870161013f565b9150509250925092565b61028f61028a826104a4565b61055d565b82525050565b61029e816104b6565b82525050565b60006102af82610461565b6102b98185610477565b93506102c98185602086016104f9565b6102d2816105ce565b840191505092915050565b60006102e88261046c565b6102f28185610488565b93506103028185602086016104f9565b61030b816105ce565b840191505092915050565b60006103218261046c565b61032b8185610499565b935061033b8185602086016104f9565b80840191505092915050565b610358610353826104e0565b610581565b82525050565b600061036a8286610316565b91506103768285610347565b602082019150610386828461027e565b601482019150819050949350505050565b60006020820190506103ac6000830184610295565b92915050565b600060208201905081810360008301526103cc81846102a4565b905092915050565b600060408201905081810360008301526103ee81856102dd565b9050818103602083015261040281846102dd565b90509392505050565b6000610415610426565b9050610421828261052c565b919050565b6000604051905090565b600067ffffffffffffffff82111561044b5761044a61058b565b5b610454826105ce565b9050602081019050919050565b600081519050919050565b600081519050919050565b600082825260208201905092915050565b600082825260208201905092915050565b600081905092915050565b60006104af826104c0565b9050919050565b6000819050919050565b600073ffffffffffffffffffffffffffffffffffffffff82169050919050565b6000819050919050565b82818337600083830152505050565b60005b838110156105175780820151818401526020810190506104fc565b83811115610526576000848401525b50505050565b610535826105ce565b810181811067ffffffffffffffff821117156105545761055361058b565b5b80604052505050565b60006105688261056f565b9050919050565b600061057a826105df565b9050919050565b6000819050919050565b7f4e487b7100000000000000000000000000000000000000000000000000000000600052604160045260246000fd5b600080fd5b600080fd5b600080fd5b600080fd5b6000601f19601f8301169050919050565b60008160601b9050919050565b6105f5816104a4565b811461060057600080fd5b50565b61060c816104e0565b811461061757600080fd5b5056fea26469706673582212208de5a8f36c7da6a5cb009a0e2bfe1328c9077624f998f3162272c4501fc66edf64736f6c63430008070033",
					"opcodes": "PUSH1 0x80 PUSH1 0x40 MSTORE CALLVALUE DUP1 ISZERO PUSH2 0x10 JUMPI PUSH1 0x0 DUP1 REVERT JUMPDEST POP PUSH2 0x650 DUP1 PUSH2 0x20 PUSH1 0x0 CODECOPY PUSH1 0x0 RETURN INVALID PUSH1 0x80 PUSH1 0x40 MSTORE CALLVALUE DUP1 ISZERO PUSH2 0x10 JUMPI PUSH1 0x0 DUP1 REVERT JUMPDEST POP PUSH1 0x4 CALLDATASIZE LT PUSH2 0x36 JUMPI PUSH1 0x0 CALLDATALOAD PUSH1 0xE0 SHR DUP1 PUSH4 0x573E536 EQ PUSH2 0x3B JUMPI DUP1 PUSH4 0x17FE2DA2 EQ PUSH2 0x6B JUMPI JUMPDEST PUSH1 0x0 DUP1 REVERT JUMPDEST PUSH2 0x55 PUSH1 0x4 DUP1 CALLDATASIZE SUB DUP2 ADD SWAP1 PUSH2 0x50 SWAP2 SWAP1 PUSH2 0x20F JUMP JUMPDEST PUSH2 0x9B JUMP JUMPDEST PUSH1 0x40 MLOAD PUSH2 0x62 SWAP2 SWAP1 PUSH2 0x397 JUMP JUMPDEST PUSH1 0x40 MLOAD DUP1 SWAP2 SUB SWAP1 RETURN JUMPDEST PUSH2 0x85 PUSH1 0x4 DUP1 CALLDATASIZE SUB DUP2 ADD SWAP1 PUSH2 0x80 SWAP2 SWAP1 PUSH2 0x197 JUMP JUMPDEST PUSH2 0xD1 JUMP JUMPDEST PUSH1 0x40 MLOAD PUSH2 0x92 SWAP2 SWAP1 PUSH2 0x3B2 JUMP JUMPDEST PUSH1 0x40 MLOAD DUP1 SWAP2 SUB SWAP1 RETURN JUMPDEST PUSH1 0x0 DUP4 DUP4 DUP4 PUSH1 0x40 MLOAD PUSH1 0x20 ADD PUSH2 0xB2 SWAP4 SWAP3 SWAP2 SWAP1 PUSH2 0x35E JUMP JUMPDEST PUSH1 0x40 MLOAD PUSH1 0x20 DUP2 DUP4 SUB SUB DUP2 MSTORE SWAP1 PUSH1 0x40 MSTORE DUP1 MLOAD SWAP1 PUSH1 0x20 ADD KECCAK256 SWAP1 POP SWAP4 SWAP3 POP POP POP JUMP JUMPDEST PUSH1 0x60 DUP3 DUP3 PUSH1 0x40 MLOAD PUSH1 0x20 ADD PUSH2 0xE6 SWAP3 SWAP2 SWAP1 PUSH2 0x3D4 JUMP JUMPDEST PUSH1 0x40 MLOAD PUSH1 0x20 DUP2 DUP4 SUB SUB DUP2 MSTORE SWAP1 PUSH1 0x40 MSTORE SWAP1 POP SWAP3 SWAP2 POP POP JUMP JUMPDEST PUSH1 0x0 PUSH2 0x110 PUSH2 0x10B DUP5 PUSH2 0x430 JUMP JUMPDEST PUSH2 0x40B JUMP JUMPDEST SWAP1 POP DUP3 DUP2 MSTORE PUSH1 0x20 DUP2 ADD DUP5 DUP5 DUP5 ADD GT ISZERO PUSH2 0x12C JUMPI PUSH2 0x12B PUSH2 0x5BF JUMP JUMPDEST JUMPDEST PUSH2 0x137 DUP5 DUP3 DUP6 PUSH2 0x4EA JUMP JUMPDEST POP SWAP4 SWAP3 POP POP POP JUMP JUMPDEST PUSH1 0x0 DUP2 CALLDATALOAD SWAP1 POP PUSH2 0x14E DUP2 PUSH2 0x5EC JUMP JUMPDEST SWAP3 SWAP2 POP POP JUMP JUMPDEST PUSH1 0x0 DUP3 PUSH1 0x1F DUP4 ADD SLT PUSH2 0x169 JUMPI PUSH2 0x168 PUSH2 0x5BA JUMP JUMPDEST JUMPDEST DUP2 CALLDATALOAD PUSH2 0x179 DUP5 DUP3 PUSH1 0x20 DUP7 ADD PUSH2 0xFD JUMP JUMPDEST SWAP2 POP POP SWAP3 SWAP2 POP POP JUMP JUMPDEST PUSH1 0x0 DUP2 CALLDATALOAD SWAP1 POP PUSH2 0x191 DUP2 PUSH2 0x603 JUMP JUMPDEST SWAP3 SWAP2 POP POP JUMP JUMPDEST PUSH1 0x0 DUP1 PUSH1 0x40 DUP4 DUP6 SUB SLT ISZERO PUSH2 0x1AE JUMPI PUSH2 0x1AD PUSH2 0x5C9 JUMP JUMPDEST JUMPDEST PUSH1 0x0 DUP4 ADD CALLDATALOAD PUSH8 0xFFFFFFFFFFFFFFFF DUP2 GT ISZERO PUSH2 0x1CC JUMPI PUSH2 0x1CB PUSH2 0x5C4 JUMP JUMPDEST JUMPDEST PUSH2 0x1D8 DUP6 DUP3 DUP7 ADD PUSH2 0x154 JUMP JUMPDEST SWAP3 POP POP PUSH1 0x20 DUP4 ADD CALLDATALOAD PUSH8 0xFFFFFFFFFFFFFFFF DUP2 GT ISZERO PUSH2 0x1F9 JUMPI PUSH2 0x1F8 PUSH2 0x5C4 JUMP JUMPDEST JUMPDEST PUSH2 0x205 DUP6 DUP3 DUP7 ADD PUSH2 0x154 JUMP JUMPDEST SWAP2 POP POP SWAP3 POP SWAP3 SWAP1 POP JUMP JUMPDEST PUSH1 0x0 DUP1 PUSH1 0x0 PUSH1 0x60 DUP5 DUP7 SUB SLT ISZERO PUSH2 0x228 JUMPI PUSH2 0x227 PUSH2 0x5C9 JUMP JUMPDEST JUMPDEST PUSH1 0x0 DUP5 ADD CALLDATALOAD PUSH8 0xFFFFFFFFFFFFFFFF DUP2 GT ISZERO PUSH2 0x246 JUMPI PUSH2 0x245 PUSH2 0x5C4 JUMP JUMPDEST JUMPDEST PUSH2 0x252 DUP7 DUP3 DUP8 ADD PUSH2 0x154 JUMP JUMPDEST SWAP4 POP POP PUSH1 0x20 PUSH2 0x263 DUP7 DUP3 DUP8 ADD PUSH2 0x182 JUMP JUMPDEST SWAP3 POP POP PUSH1 0x40 PUSH2 0x274 DUP7 DUP3 DUP8 ADD PUSH2 0x13F JUMP JUMPDEST SWAP2 POP POP SWAP3 POP SWAP3 POP SWAP3 JUMP JUMPDEST PUSH2 0x28F PUSH2 0x28A DUP3 PUSH2 0x4A4 JUMP JUMPDEST PUSH2 0x55D JUMP JUMPDEST DUP3 MSTORE POP POP JUMP JUMPDEST PUSH2 0x29E DUP2 PUSH2 0x4B6 JUMP JUMPDEST DUP3 MSTORE POP POP JUMP JUMPDEST PUSH1 0x0 PUSH2 0x2AF DUP3 PUSH2 0x461 JUMP JUMPDEST PUSH2 0x2B9 DUP2 DUP6 PUSH2 0x477 JUMP JUMPDEST SWAP4 POP PUSH2 0x2C9 DUP2 DUP6 PUSH1 0x20 DUP7 ADD PUSH2 0x4F9 JUMP JUMPDEST PUSH2 0x2D2 DUP2 PUSH2 0x5CE JUMP JUMPDEST DUP5 ADD SWAP2 POP POP SWAP3 SWAP2 POP POP JUMP JUMPDEST PUSH1 0x0 PUSH2 0x2E8 DUP3 PUSH2 0x46C JUMP JUMPDEST PUSH2 0x2F2 DUP2 DUP6 PUSH2 0x488 JUMP JUMPDEST SWAP4 POP PUSH2 0x302 DUP2 DUP6 PUSH1 0x20 DUP7 ADD PUSH2 0x4F9 JUMP JUMPDEST PUSH2 0x30B DUP2 PUSH2 0x5CE JUMP JUMPDEST DUP5 ADD SWAP2 POP POP SWAP3 SWAP2 POP POP JUMP JUMPDEST PUSH1 0x0 PUSH2 0x321 DUP3 PUSH2 0x46C JUMP JUMPDEST PUSH2 0x32B DUP2 DUP6 PUSH2 0x499 JUMP JUMPDEST SWAP4 POP PUSH2 0x33B DUP2 DUP6 PUSH1 0x20 DUP7 ADD PUSH2 0x4F9 JUMP JUMPDEST DUP1 DUP5 ADD SWAP2 POP POP SWAP3 SWAP2 POP POP JUMP JUMPDEST PUSH2 0x358 PUSH2 0x353 DUP3 PUSH2 0x4E0 JUMP JUMPDEST PUSH2 0x581 JUMP JUMPDEST DUP3 MSTORE POP POP JUMP JUMPDEST PUSH1 0x0 PUSH2 0x36A DUP3 DUP7 PUSH2 0x316 JUMP JUMPDEST SWAP2 POP PUSH2 0x376 DUP3 DUP6 PUSH2 0x347 JUMP JUMPDEST PUSH1 0x20 DUP3 ADD SWAP2 POP PUSH2 0x386 DUP3 DUP5 PUSH2 0x27E JUMP JUMPDEST PUSH1 0x14 DUP3 ADD SWAP2 POP DUP2 SWAP1 POP SWAP5 SWAP4 POP POP POP POP JUMP JUMPDEST PUSH1 0x0 PUSH1 0x20 DUP3 ADD SWAP1 POP PUSH2 0x3AC PUSH1 0x0 DUP4 ADD DUP5 PUSH2 0x295 JUMP JUMPDEST SWAP3 SWAP2 POP POP JUMP JUMPDEST PUSH1 0x0 PUSH1 0x20 DUP3 ADD SWAP1 POP DUP2 DUP2 SUB PUSH1 0x0 DUP4 ADD MSTORE PUSH2 0x3CC DUP2 DUP5 PUSH2 0x2A4 JUMP JUMPDEST SWAP1 POP SWAP3 SWAP2 POP POP JUMP JUMPDEST PUSH1 0x0 PUSH1 0x40 DUP3 ADD SWAP1 POP DUP2 DUP2 SUB PUSH1 0x0 DUP4 ADD MSTORE PUSH2 0x3EE DUP2 DUP6 PUSH2 0x2DD JUMP JUMPDEST SWAP1 POP DUP2 DUP2 SUB PUSH1 0x20 DUP4 ADD MSTORE PUSH2 0x402 DUP2 DUP5 PUSH2 0x2DD JUMP JUMPDEST SWAP1 POP SWAP4 SWAP3 POP POP POP JUMP JUMPDEST PUSH1 0x0 PUSH2 0x415 PUSH2 0x426 JUMP JUMPDEST SWAP1 POP PUSH2 0x421 DUP3 DUP3 PUSH2 0x52C JUMP JUMPDEST SWAP2 SWAP1 POP JUMP JUMPDEST PUSH1 0x0 PUSH1 0x40 MLOAD SWAP1 POP SWAP1 JUMP JUMPDEST PUSH1 0x0 PUSH8 0xFFFFFFFFFFFFFFFF DUP3 GT ISZERO PUSH2 0x44B JUMPI PUSH2 0x44A PUSH2 0x58B JUMP JUMPDEST JUMPDEST PUSH2 0x454 DUP3 PUSH2 0x5CE JUMP JUMPDEST SWAP1 POP PUSH1 0x20 DUP2 ADD SWAP1 POP SWAP2 SWAP1 POP JUMP JUMPDEST PUSH1 0x0 DUP2 MLOAD SWAP1 POP SWAP2 SWAP1 POP JUMP JUMPDEST PUSH1 0x0 DUP2 MLOAD SWAP1 POP SWAP2 SWAP1 POP JUMP JUMPDEST PUSH1 0x0 DUP3 DUP3 MSTORE PUSH1 0x20 DUP3 ADD SWAP1 POP SWAP3 SWAP2 POP POP JUMP JUMPDEST PUSH1 0x0 DUP3 DUP3 MSTORE PUSH1 0x20 DUP3 ADD SWAP1 POP SWAP3 SWAP2 POP POP JUMP JUMPDEST PUSH1 0x0 DUP2 SWAP1 POP SWAP3 SWAP2 POP POP JUMP JUMPDEST PUSH1 0x0 PUSH2 0x4AF DUP3 PUSH2 0x4C0 JUMP JUMPDEST SWAP1 POP SWAP2 SWAP1 POP JUMP JUMPDEST PUSH1 0x0 DUP2 SWAP1 POP SWAP2 SWAP1 POP JUMP JUMPDEST PUSH1 0x0 PUSH20 0xFFFFFFFFFFFFFFFFFFFFFFFFFFFFFFFFFFFFFFFF DUP3 AND SWAP1 POP SWAP2 SWAP1 POP JUMP JUMPDEST PUSH1 0x0 DUP2 SWAP1 POP SWAP2 SWAP1 POP JUMP JUMPDEST DUP3 DUP2 DUP4 CALLDATACOPY PUSH1 0x0 DUP4 DUP4 ADD MSTORE POP POP POP JUMP JUMPDEST PUSH1 0x0 JUMPDEST DUP4 DUP2 LT ISZERO PUSH2 0x517 JUMPI DUP1 DUP3 ADD MLOAD DUP2 DUP5 ADD MSTORE PUSH1 0x20 DUP2 ADD SWAP1 POP PUSH2 0x4FC JUMP JUMPDEST DUP4 DUP2 GT ISZERO PUSH2 0x526 JUMPI PUSH1 0x0 DUP5 DUP5 ADD MSTORE JUMPDEST POP POP POP POP JUMP JUMPDEST PUSH2 0x535 DUP3 PUSH2 0x5CE JUMP JUMPDEST DUP2 ADD DUP2 DUP2 LT PUSH8 0xFFFFFFFFFFFFFFFF DUP3 GT OR ISZERO PUSH2 0x554 JUMPI PUSH2 0x553 PUSH2 0x58B JUMP JUMPDEST JUMPDEST DUP1 PUSH1 0x40 MSTORE POP POP POP JUMP JUMPDEST PUSH1 0x0 PUSH2 0x568 DUP3 PUSH2 0x56F JUMP JUMPDEST SWAP1 POP SWAP2 SWAP1 POP JUMP JUMPDEST PUSH1 0x0 PUSH2 0x57A DUP3 PUSH2 0x5DF JUMP JUMPDEST SWAP1 POP SWAP2 SWAP1 POP JUMP JUMPDEST PUSH1 0x0 DUP2 SWAP1 POP SWAP2 SWAP1 POP JUMP JUMPDEST PUSH32 0x4E487B7100000000000000000000000000000000000000000000000000000000 PUSH1 0x0 MSTORE PUSH1 0x41 PUSH1 0x4 MSTORE PUSH1 0x24 PUSH1 0x0 REVERT JUMPDEST PUSH1 0x0 DUP1 REVERT JUMPDEST PUSH1 0x0 DUP1 REVERT JUMPDEST PUSH1 0x0 DUP1 REVERT JUMPDEST PUSH1 0x0 DUP1 REVERT JUMPDEST PUSH1 0x0 PUSH1 0x1F NOT PUSH1 0x1F DUP4 ADD AND SWAP1 POP SWAP2 SWAP1 POP JUMP JUMPDEST PUSH1 0x0 DUP2 PUSH1 0x60 SHL SWAP1 POP SWAP2 SWAP1 POP JUMP JUMPDEST PUSH2 0x5F5 DUP2 PUSH2 0x4A4 JUMP JUMPDEST DUP2 EQ PUSH2 0x600 JUMPI PUSH1 0x0 DUP1 REVERT JUMPDEST POP JUMP JUMPDEST PUSH2 0x60C DUP2 PUSH2 0x4E0 JUMP JUMPDEST DUP2 EQ PUSH2 0x617 JUMPI PUSH1 0x0 DUP1 REVERT JUMPDEST POP JUMP INVALID LOG2 PUSH5 0x6970667358 0x22 SLT KECCAK256 DUP14 0xE5 0xA8 RETURN PUSH13 0x7DA6A5CB009A0E2BFE1328C907 PUSH23 0x24F998F3162272C4501FC66EDF64736F6C634300080700 CALLER "
				},
				"gasEstimates": {
					"creation": {
						"codeDepositCost": "323200",
						"executionCost": "362",
						"totalCost": "323562"
					},
					"external": {
						"encode(string,string)": "infinite",
						"hsah(string,uint256,address)": "infinite"
					}
				},
				"methodIdentifiers": {
					"encode(string,string)": "17fe2da2",
					"hsah(string,uint256,address)": "0573e536"
				}
			},
			"storageLayout": {
				"storage": [],
				"types": null
			},
			"userdoc": {
				"kind": "user",
				"methods": {},
				"version": 1
			}
		}
	}
}