{
	"Day39_NewAccount.sol": {
		"AccountFactory": {
			"abi": [
				{
					"inputs": [
						{
							"internalType": "uint256",
							"name": "",
							"type": "uint256"
						}
					],
					"name": "accounts",
					"outputs": [
						{
							"internalType": "contract Account",
							"name": "",
							"type": "address"
						}
					],
					"stateMutability": "view",
					"type": "function"
				},
				{
					"inputs": [
						{
							"internalType": "address",
							"name": "_owner",
							"type": "address"
						}
					],
					"name": "createAccount",
					"outputs": [],
					"stateMutability": "payable",
					"type": "function"
				}
			],
			"devdoc": {
				"kind": "dev",
				"methods": {},
				"version": 1
			},
			"evm": {
				"assembly": "    /* \"Day39_NewAccount.sol\":241:463  contract AccountFactory{... */\n  mstore(0x40, 0x80)\n  callvalue\n  dup1\n  iszero\n  tag_1\n  jumpi\n  0x00\n  dup1\n  revert\ntag_1:\n  pop\n  dataSize(sub_0)\n  dup1\n  dataOffset(sub_0)\n  0x00\n  codecopy\n  0x00\n  return\nstop\n\nsub_0: assembly {\n        /* \"Day39_NewAccount.sol\":241:463  contract AccountFactory{... */\n      mstore(0x40, 0x80)\n      jumpi(tag_1, lt(calldatasize, 0x04))\n      shr(0xe0, calldataload(0x00))\n      dup1\n      0x9859387b\n      eq\n      tag_2\n      jumpi\n      dup1\n      0xf2a40db8\n      eq\n      tag_3\n      jumpi\n    tag_1:\n      0x00\n      dup1\n      revert\n        /* \"Day39_NewAccount.sol\":304:460  function createAccount(address _owner) external payable {... */\n    tag_2:\n      tag_4\n      0x04\n      dup1\n      calldatasize\n      sub\n      dup2\n      add\n      swap1\n      tag_5\n      swap2\n      swap1\n      tag_6\n      jump\t// in\n    tag_5:\n      tag_7\n      jump\t// in\n    tag_4:\n      stop\n        /* \"Day39_NewAccount.sol\":271:296  Account[] public accounts */\n    tag_3:\n      callvalue\n      dup1\n      iszero\n      tag_8\n      jumpi\n      0x00\n      dup1\n      revert\n    tag_8:\n      pop\n      tag_9\n      0x04\n      dup1\n      calldatasize\n      sub\n      dup2\n      add\n      swap1\n      tag_10\n      swap2\n      swap1\n      tag_11\n      jump\t// in\n    tag_10:\n      tag_12\n      jump\t// in\n    tag_9:\n      mload(0x40)\n      tag_13\n      swap2\n      swap1\n      tag_14\n      jump\t// in\n    tag_13:\n      mload(0x40)\n      dup1\n      swap2\n      sub\n      swap1\n      return\n        /* \"Day39_NewAccount.sol\":304:460  function createAccount(address _owner) external payable {... */\n    tag_7:\n        /* \"Day39_NewAccount.sol\":371:386  Account account */\n      0x00\n        /* \"Day39_NewAccount.sol\":407:410  111 */\n      0x6f\n        /* \"Day39_NewAccount.sol\":412:418  _owner */\n      dup3\n        /* \"Day39_NewAccount.sol\":389:419  new Account{value:111}(_owner) */\n      mload(0x40)\n      tag_16\n      swap1\n      tag_17\n      jump\t// in\n    tag_16:\n      tag_18\n      swap2\n      swap1\n      tag_19\n      jump\t// in\n    tag_18:\n      mload(0x40)\n      dup1\n      swap2\n      sub\n      swap1\n      dup3\n      create\n      swap1\n      pop\n      dup1\n      iszero\n      dup1\n      iszero\n      tag_20\n      jumpi\n      returndatasize\n      0x00\n      dup1\n      returndatacopy\n      revert(0x00, returndatasize)\n    tag_20:\n      pop\n        /* \"Day39_NewAccount.sol\":371:419  Account account = new Account{value:111}(_owner) */\n      swap1\n      pop\n        /* \"Day39_NewAccount.sol\":430:438  accounts */\n      0x00\n        /* \"Day39_NewAccount.sol\":444:451  account */\n      dup2\n        /* \"Day39_NewAccount.sol\":430:452  accounts.push(account) */\n      swap1\n      dup1\n      0x01\n      dup2\n      sload\n      add\n      dup1\n      dup3\n      sstore\n      dup1\n      swap2\n      pop\n      pop\n      0x01\n      swap1\n      sub\n      swap1\n      0x00\n      mstore\n      keccak256(0x00, 0x20)\n      add\n      0x00\n      swap1\n      swap2\n      swap1\n      swap2\n      swap1\n      swap2\n      0x0100\n      exp\n      dup2\n      sload\n      dup2\n      0xffffffffffffffffffffffffffffffffffffffff\n      mul\n      not\n      and\n      swap1\n      dup4\n      0xffffffffffffffffffffffffffffffffffffffff\n      and\n      mul\n      or\n      swap1\n      sstore\n      pop\n        /* \"Day39_NewAccount.sol\":360:460  {... */\n      pop\n        /* \"Day39_NewAccount.sol\":304:460  function createAccount(address _owner) external payable {... */\n      pop\n      jump\t// out\n        /* \"Day39_NewAccount.sol\":271:296  Account[] public accounts */\n    tag_12:\n      0x00\n      dup2\n      dup2\n      sload\n      dup2\n      lt\n      tag_22\n      jumpi\n      0x00\n      dup1\n      revert\n    tag_22:\n      swap1\n      0x00\n      mstore\n      keccak256(0x00, 0x20)\n      add\n      0x00\n      swap2\n      pop\n      sload\n      swap1\n      0x0100\n      exp\n      swap1\n      div\n      0xffffffffffffffffffffffffffffffffffffffff\n      and\n      dup2\n      jump\t// out\n    tag_17:\n      dataSize(sub_0)\n      dup1\n      dataOffset(sub_0)\n      dup4\n      codecopy\n      add\n      swap1\n      jump\t// out\n        /* \"#utility.yul\":7:146   */\n    tag_25:\n        /* \"#utility.yul\":53:58   */\n      0x00\n        /* \"#utility.yul\":91:97   */\n      dup2\n        /* \"#utility.yul\":78:98   */\n      calldataload\n        /* \"#utility.yul\":69:98   */\n      swap1\n      pop\n        /* \"#utility.yul\":107:140   */\n      tag_27\n        /* \"#utility.yul\":134:139   */\n      dup2\n        /* \"#utility.yul\":107:140   */\n      tag_28\n      jump\t// in\n    tag_27:\n        /* \"#utility.yul\":7:146   */\n      swap3\n      swap2\n      pop\n      pop\n      jump\t// out\n        /* \"#utility.yul\":152:291   */\n    tag_29:\n        /* \"#utility.yul\":198:203   */\n      0x00\n        /* \"#utility.yul\":236:242   */\n      dup2\n        /* \"#utility.yul\":223:243   */\n      calldataload\n        /* \"#utility.yul\":214:243   */\n      swap1\n      pop\n        /* \"#utility.yul\":252:285   */\n      tag_31\n        /* \"#utility.yul\":279:284   */\n      dup2\n        /* \"#utility.yul\":252:285   */\n      tag_32\n      jump\t// in\n    tag_31:\n        /* \"#utility.yul\":152:291   */\n      swap3\n      swap2\n      pop\n      pop\n      jump\t// out\n        /* \"#utility.yul\":297:626   */\n    tag_6:\n        /* \"#utility.yul\":356:362   */\n      0x00\n        /* \"#utility.yul\":405:407   */\n      0x20\n        /* \"#utility.yul\":393:402   */\n      dup3\n        /* \"#utility.yul\":384:391   */\n      dup5\n        /* \"#utility.yul\":380:403   */\n      sub\n        /* \"#utility.yul\":376:408   */\n      slt\n        /* \"#utility.yul\":373:492   */\n      iszero\n      tag_34\n      jumpi\n        /* \"#utility.yul\":411:490   */\n      tag_35\n      tag_36\n      jump\t// in\n    tag_35:\n        /* \"#utility.yul\":373:492   */\n    tag_34:\n        /* \"#utility.yul\":531:532   */\n      0x00\n        /* \"#utility.yul\":556:609   */\n      tag_37\n        /* \"#utility.yul\":601:608   */\n      dup5\n        /* \"#utility.yul\":592:598   */\n      dup3\n        /* \"#utility.yul\":581:590   */\n      dup6\n        /* \"#utility.yul\":577:599   */\n      add\n        /* \"#utility.yul\":556:609   */\n      tag_25\n      jump\t// in\n    tag_37:\n        /* \"#utility.yul\":546:609   */\n      swap2\n      pop\n        /* \"#utility.yul\":502:619   */\n      pop\n        /* \"#utility.yul\":297:626   */\n      swap3\n      swap2\n      pop\n      pop\n      jump\t// out\n        /* \"#utility.yul\":632:961   */\n    tag_11:\n        /* \"#utility.yul\":691:697   */\n      0x00\n        /* \"#utility.yul\":740:742   */\n      0x20\n        /* \"#utility.yul\":728:737   */\n      dup3\n        /* \"#utility.yul\":719:726   */\n      dup5\n        /* \"#utility.yul\":715:738   */\n      sub\n        /* \"#utility.yul\":711:743   */\n      slt\n        /* \"#utility.yul\":708:827   */\n      iszero\n      tag_39\n      jumpi\n        /* \"#utility.yul\":746:825   */\n      tag_40\n      tag_36\n      jump\t// in\n    tag_40:\n        /* \"#utility.yul\":708:827   */\n    tag_39:\n        /* \"#utility.yul\":866:867   */\n      0x00\n        /* \"#utility.yul\":891:944   */\n      tag_41\n        /* \"#utility.yul\":936:943   */\n      dup5\n        /* \"#utility.yul\":927:933   */\n      dup3\n        /* \"#utility.yul\":916:925   */\n      dup6\n        /* \"#utility.yul\":912:934   */\n      add\n        /* \"#utility.yul\":891:944   */\n      tag_29\n      jump\t// in\n    tag_41:\n        /* \"#utility.yul\":881:944   */\n      swap2\n      pop\n        /* \"#utility.yul\":837:954   */\n      pop\n        /* \"#utility.yul\":632:961   */\n      swap3\n      swap2\n      pop\n      pop\n      jump\t// out\n        /* \"#utility.yul\":967:1085   */\n    tag_42:\n        /* \"#utility.yul\":1054:1078   */\n      tag_44\n        /* \"#utility.yul\":1072:1077   */\n      dup2\n        /* \"#utility.yul\":1054:1078   */\n      tag_45\n      jump\t// in\n    tag_44:\n        /* \"#utility.yul\":1049:1052   */\n      dup3\n        /* \"#utility.yul\":1042:1079   */\n      mstore\n        /* \"#utility.yul\":967:1085   */\n      pop\n      pop\n      jump\t// out\n        /* \"#utility.yul\":1091:1250   */\n    tag_46:\n        /* \"#utility.yul\":1192:1243   */\n      tag_48\n        /* \"#utility.yul\":1237:1242   */\n      dup2\n        /* \"#utility.yul\":1192:1243   */\n      tag_49\n      jump\t// in\n    tag_48:\n        /* \"#utility.yul\":1187:1190   */\n      dup3\n        /* \"#utility.yul\":1180:1244   */\n      mstore\n        /* \"#utility.yul\":1091:1250   */\n      pop\n      pop\n      jump\t// out\n        /* \"#utility.yul\":1256:1478   */\n    tag_19:\n        /* \"#utility.yul\":1349:1353   */\n      0x00\n        /* \"#utility.yul\":1387:1389   */\n      0x20\n        /* \"#utility.yul\":1376:1385   */\n      dup3\n        /* \"#utility.yul\":1372:1390   */\n      add\n        /* \"#utility.yul\":1364:1390   */\n      swap1\n      pop\n        /* \"#utility.yul\":1400:1471   */\n      tag_51\n        /* \"#utility.yul\":1468:1469   */\n      0x00\n        /* \"#utility.yul\":1457:1466   */\n      dup4\n        /* \"#utility.yul\":1453:1470   */\n      add\n        /* \"#utility.yul\":1444:1450   */\n      dup5\n        /* \"#utility.yul\":1400:1471   */\n      tag_42\n      jump\t// in\n    tag_51:\n        /* \"#utility.yul\":1256:1478   */\n      swap3\n      swap2\n      pop\n      pop\n      jump\t// out\n        /* \"#utility.yul\":1484:1734   */\n    tag_14:\n        /* \"#utility.yul\":1591:1595   */\n      0x00\n        /* \"#utility.yul\":1629:1631   */\n      0x20\n        /* \"#utility.yul\":1618:1627   */\n      dup3\n        /* \"#utility.yul\":1614:1632   */\n      add\n        /* \"#utility.yul\":1606:1632   */\n      swap1\n      pop\n        /* \"#utility.yul\":1642:1727   */\n      tag_53\n        /* \"#utility.yul\":1724:1725   */\n      0x00\n        /* \"#utility.yul\":1713:1722   */\n      dup4\n        /* \"#utility.yul\":1709:1726   */\n      add\n        /* \"#utility.yul\":1700:1706   */\n      dup5\n        /* \"#utility.yul\":1642:1727   */\n      tag_46\n      jump\t// in\n    tag_53:\n        /* \"#utility.yul\":1484:1734   */\n      swap3\n      swap2\n      pop\n      pop\n      jump\t// out\n        /* \"#utility.yul\":1821:1917   */\n    tag_45:\n        /* \"#utility.yul\":1858:1865   */\n      0x00\n        /* \"#utility.yul\":1887:1911   */\n      tag_57\n        /* \"#utility.yul\":1905:1910   */\n      dup3\n        /* \"#utility.yul\":1887:1911   */\n      tag_58\n      jump\t// in\n    tag_57:\n        /* \"#utility.yul\":1876:1911   */\n      swap1\n      pop\n        /* \"#utility.yul\":1821:1917   */\n      swap2\n      swap1\n      pop\n      jump\t// out\n        /* \"#utility.yul\":1923:2049   */\n    tag_58:\n        /* \"#utility.yul\":1960:1967   */\n      0x00\n        /* \"#utility.yul\":2000:2042   */\n      0xffffffffffffffffffffffffffffffffffffffff\n        /* \"#utility.yul\":1993:1998   */\n      dup3\n        /* \"#utility.yul\":1989:2043   */\n      and\n        /* \"#utility.yul\":1978:2043   */\n      swap1\n      pop\n        /* \"#utility.yul\":1923:2049   */\n      swap2\n      swap1\n      pop\n      jump\t// out\n        /* \"#utility.yul\":2055:2132   */\n    tag_60:\n        /* \"#utility.yul\":2092:2099   */\n      0x00\n        /* \"#utility.yul\":2121:2126   */\n      dup2\n        /* \"#utility.yul\":2110:2126   */\n      swap1\n      pop\n        /* \"#utility.yul\":2055:2132   */\n      swap2\n      swap1\n      pop\n      jump\t// out\n        /* \"#utility.yul\":2138:2278   */\n    tag_49:\n        /* \"#utility.yul\":2202:2211   */\n      0x00\n        /* \"#utility.yul\":2235:2272   */\n      tag_63\n        /* \"#utility.yul\":2266:2271   */\n      dup3\n        /* \"#utility.yul\":2235:2272   */\n      tag_64\n      jump\t// in\n    tag_63:\n        /* \"#utility.yul\":2222:2272   */\n      swap1\n      pop\n        /* \"#utility.yul\":2138:2278   */\n      swap2\n      swap1\n      pop\n      jump\t// out\n        /* \"#utility.yul\":2284:2410   */\n    tag_64:\n        /* \"#utility.yul\":2334:2343   */\n      0x00\n        /* \"#utility.yul\":2367:2404   */\n      tag_66\n        /* \"#utility.yul\":2398:2403   */\n      dup3\n        /* \"#utility.yul\":2367:2404   */\n      tag_67\n      jump\t// in\n    tag_66:\n        /* \"#utility.yul\":2354:2404   */\n      swap1\n      pop\n        /* \"#utility.yul\":2284:2410   */\n      swap2\n      swap1\n      pop\n      jump\t// out\n        /* \"#utility.yul\":2416:2529   */\n    tag_67:\n        /* \"#utility.yul\":2466:2475   */\n      0x00\n        /* \"#utility.yul\":2499:2523   */\n      tag_69\n        /* \"#utility.yul\":2517:2522   */\n      dup3\n        /* \"#utility.yul\":2499:2523   */\n      tag_58\n      jump\t// in\n    tag_69:\n        /* \"#utility.yul\":2486:2523   */\n      swap1\n      pop\n        /* \"#utility.yul\":2416:2529   */\n      swap2\n      swap1\n      pop\n      jump\t// out\n        /* \"#utility.yul\":2658:2775   */\n    tag_36:\n        /* \"#utility.yul\":2767:2768   */\n      0x00\n        /* \"#utility.yul\":2764:2765   */\n      dup1\n        /* \"#utility.yul\":2757:2769   */\n      revert\n        /* \"#utility.yul\":2781:2903   */\n    tag_28:\n        /* \"#utility.yul\":2854:2878   */\n      tag_74\n        /* \"#utility.yul\":2872:2877   */\n      dup2\n        /* \"#utility.yul\":2854:2878   */\n      tag_45\n      jump\t// in\n    tag_74:\n        /* \"#utility.yul\":2847:2852   */\n      dup2\n        /* \"#utility.yul\":2844:2879   */\n      eq\n        /* \"#utility.yul\":2834:2897   */\n      tag_75\n      jumpi\n        /* \"#utility.yul\":2893:2894   */\n      0x00\n        /* \"#utility.yul\":2890:2891   */\n      dup1\n        /* \"#utility.yul\":2883:2895   */\n      revert\n        /* \"#utility.yul\":2834:2897   */\n    tag_75:\n        /* \"#utility.yul\":2781:2903   */\n      pop\n      jump\t// out\n        /* \"#utility.yul\":2909:3031   */\n    tag_32:\n        /* \"#utility.yul\":2982:3006   */\n      tag_77\n        /* \"#utility.yul\":3000:3005   */\n      dup2\n        /* \"#utility.yul\":2982:3006   */\n      tag_60\n      jump\t// in\n    tag_77:\n        /* \"#utility.yul\":2975:2980   */\n      dup2\n        /* \"#utility.yul\":2972:3007   */\n      eq\n        /* \"#utility.yul\":2962:3025   */\n      tag_78\n      jumpi\n        /* \"#utility.yul\":3021:3022   */\n      0x00\n        /* \"#utility.yul\":3018:3019   */\n      dup1\n        /* \"#utility.yul\":3011:3023   */\n      revert\n        /* \"#utility.yul\":2962:3025   */\n    tag_78:\n        /* \"#utility.yul\":2909:3031   */\n      pop\n      jump\t// out\n    stop\n\n    sub_0: assembly {\n            /* \"Day39_NewAccount.sol\":59:238  contract Account {... */\n          mstore(0x40, 0x80)\n            /* \"Day39_NewAccount.sol\":137:235  constructor (address _owner) payable {... */\n          mload(0x40)\n          sub(codesize, bytecodeSize)\n          dup1\n          bytecodeSize\n          dup4\n          codecopy\n          dup2\n          dup2\n          add\n          0x40\n          mstore\n          dup2\n          add\n          swap1\n          tag_1\n          swap2\n          swap1\n          tag_2\n          jump\t// in\n        tag_1:\n            /* \"Day39_NewAccount.sol\":192:202  msg.sender */\n          caller\n            /* \"Day39_NewAccount.sol\":185:189  bank */\n          0x00\n          dup1\n            /* \"Day39_NewAccount.sol\":185:202  bank = msg.sender */\n          0x0100\n          exp\n          dup2\n          sload\n          dup2\n          0xffffffffffffffffffffffffffffffffffffffff\n          mul\n          not\n          and\n          swap1\n          dup4\n          0xffffffffffffffffffffffffffffffffffffffff\n          and\n          mul\n          or\n          swap1\n          sstore\n          pop\n            /* \"Day39_NewAccount.sol\":221:227  _owner */\n          dup1\n            /* \"Day39_NewAccount.sol\":213:218  owner */\n          0x01\n          0x00\n            /* \"Day39_NewAccount.sol\":213:227  owner = _owner */\n          0x0100\n          exp\n          dup2\n          sload\n          dup2\n          0xffffffffffffffffffffffffffffffffffffffff\n          mul\n          not\n          and\n          swap1\n          dup4\n          0xffffffffffffffffffffffffffffffffffffffff\n          and\n          mul\n          or\n          swap1\n          sstore\n          pop\n            /* \"Day39_NewAccount.sol\":137:235  constructor (address _owner) payable {... */\n          pop\n            /* \"Day39_NewAccount.sol\":59:238  contract Account {... */\n          jump(tag_5)\n            /* \"#utility.yul\":7:150   */\n        tag_7:\n            /* \"#utility.yul\":64:69   */\n          0x00\n            /* \"#utility.yul\":95:101   */\n          dup2\n            /* \"#utility.yul\":89:102   */\n          mload\n            /* \"#utility.yul\":80:102   */\n          swap1\n          pop\n            /* \"#utility.yul\":111:144   */\n          tag_9\n            /* \"#utility.yul\":138:143   */\n          dup2\n            /* \"#utility.yul\":111:144   */\n          tag_10\n          jump\t// in\n        tag_9:\n            /* \"#utility.yul\":7:150   */\n          swap3\n          swap2\n          pop\n          pop\n          jump\t// out\n            /* \"#utility.yul\":156:507   */\n        tag_2:\n            /* \"#utility.yul\":226:232   */\n          0x00\n            /* \"#utility.yul\":275:277   */\n          0x20\n            /* \"#utility.yul\":263:272   */\n          dup3\n            /* \"#utility.yul\":254:261   */\n          dup5\n            /* \"#utility.yul\":250:273   */\n          sub\n            /* \"#utility.yul\":246:278   */\n          slt\n            /* \"#utility.yul\":243:362   */\n          iszero\n          tag_12\n          jumpi\n            /* \"#utility.yul\":281:360   */\n          tag_13\n          tag_14\n          jump\t// in\n        tag_13:\n            /* \"#utility.yul\":243:362   */\n        tag_12:\n            /* \"#utility.yul\":401:402   */\n          0x00\n            /* \"#utility.yul\":426:490   */\n          tag_15\n            /* \"#utility.yul\":482:489   */\n          dup5\n            /* \"#utility.yul\":473:479   */\n          dup3\n            /* \"#utility.yul\":462:471   */\n          dup6\n            /* \"#utility.yul\":458:480   */\n          add\n            /* \"#utility.yul\":426:490   */\n          tag_7\n          jump\t// in\n        tag_15:\n            /* \"#utility.yul\":416:490   */\n          swap2\n          pop\n            /* \"#utility.yul\":372:500   */\n          pop\n            /* \"#utility.yul\":156:507   */\n          swap3\n          swap2\n          pop\n          pop\n          jump\t// out\n            /* \"#utility.yul\":594:690   */\n        tag_18:\n            /* \"#utility.yul\":631:638   */\n          0x00\n            /* \"#utility.yul\":660:684   */\n          tag_20\n            /* \"#utility.yul\":678:683   */\n          dup3\n            /* \"#utility.yul\":660:684   */\n          tag_21\n          jump\t// in\n        tag_20:\n            /* \"#utility.yul\":649:684   */\n          swap1\n          pop\n            /* \"#utility.yul\":594:690   */\n          swap2\n          swap1\n          pop\n          jump\t// out\n            /* \"#utility.yul\":696:822   */\n        tag_21:\n            /* \"#utility.yul\":733:740   */\n          0x00\n            /* \"#utility.yul\":773:815   */\n          0xffffffffffffffffffffffffffffffffffffffff\n            /* \"#utility.yul\":766:771   */\n          dup3\n            /* \"#utility.yul\":762:816   */\n          and\n            /* \"#utility.yul\":751:816   */\n          swap1\n          pop\n            /* \"#utility.yul\":696:822   */\n          swap2\n          swap1\n          pop\n          jump\t// out\n            /* \"#utility.yul\":951:1068   */\n        tag_14:\n            /* \"#utility.yul\":1060:1061   */\n          0x00\n            /* \"#utility.yul\":1057:1058   */\n          dup1\n            /* \"#utility.yul\":1050:1062   */\n          revert\n            /* \"#utility.yul\":1074:1196   */\n        tag_10:\n            /* \"#utility.yul\":1147:1171   */\n          tag_27\n            /* \"#utility.yul\":1165:1170   */\n          dup2\n            /* \"#utility.yul\":1147:1171   */\n          tag_18\n          jump\t// in\n        tag_27:\n            /* \"#utility.yul\":1140:1145   */\n          dup2\n            /* \"#utility.yul\":1137:1172   */\n          eq\n            /* \"#utility.yul\":1127:1190   */\n          tag_28\n          jumpi\n            /* \"#utility.yul\":1186:1187   */\n          0x00\n            /* \"#utility.yul\":1183:1184   */\n          dup1\n            /* \"#utility.yul\":1176:1188   */\n          revert\n            /* \"#utility.yul\":1127:1190   */\n        tag_28:\n            /* \"#utility.yul\":1074:1196   */\n          pop\n          jump\t// out\n            /* \"Day39_NewAccount.sol\":59:238  contract Account {... */\n        tag_5:\n          dataSize(sub_0)\n          dup1\n          dataOffset(sub_0)\n          0x00\n          codecopy\n          0x00\n          return\n        stop\n\n        sub_0: assembly {\n                /* \"Day39_NewAccount.sol\":59:238  contract Account {... */\n              mstore(0x40, 0x80)\n              callvalue\n              dup1\n              iszero\n              tag_1\n              jumpi\n              0x00\n              dup1\n              revert\n            tag_1:\n              pop\n              jumpi(tag_2, lt(calldatasize, 0x04))\n              shr(0xe0, calldataload(0x00))\n              dup1\n              0x76cdb03b\n              eq\n              tag_3\n              jumpi\n              dup1\n              0x8da5cb5b\n              eq\n              tag_4\n              jumpi\n            tag_2:\n              0x00\n              dup1\n              revert\n                /* \"Day39_NewAccount.sol\":83:102  address public bank */\n            tag_3:\n              tag_5\n              tag_6\n              jump\t// in\n            tag_5:\n              mload(0x40)\n              tag_7\n              swap2\n              swap1\n              tag_8\n              jump\t// in\n            tag_7:\n              mload(0x40)\n              dup1\n              swap2\n              sub\n              swap1\n              return\n                /* \"Day39_NewAccount.sol\":109:129  address public owner */\n            tag_4:\n              tag_9\n              tag_10\n              jump\t// in\n            tag_9:\n              mload(0x40)\n              tag_11\n              swap2\n              swap1\n              tag_8\n              jump\t// in\n            tag_11:\n              mload(0x40)\n              dup1\n              swap2\n              sub\n              swap1\n              return\n                /* \"Day39_NewAccount.sol\":83:102  address public bank */\n            tag_6:\n              0x00\n              dup1\n              sload\n              swap1\n              0x0100\n              exp\n              swap1\n              div\n              0xffffffffffffffffffffffffffffffffffffffff\n              and\n              dup2\n              jump\t// out\n                /* \"Day39_NewAccount.sol\":109:129  address public owner */\n            tag_10:\n              0x01\n              0x00\n              swap1\n              sload\n              swap1\n              0x0100\n              exp\n              swap1\n              div\n              0xffffffffffffffffffffffffffffffffffffffff\n              and\n              dup2\n              jump\t// out\n                /* \"#utility.yul\":7:125   */\n            tag_13:\n                /* \"#utility.yul\":94:118   */\n              tag_15\n                /* \"#utility.yul\":112:117   */\n              dup2\n                /* \"#utility.yul\":94:118   */\n              tag_16\n              jump\t// in\n            tag_15:\n                /* \"#utility.yul\":89:92   */\n              dup3\n                /* \"#utility.yul\":82:119   */\n              mstore\n                /* \"#utility.yul\":7:125   */\n              pop\n              pop\n              jump\t// out\n                /* \"#utility.yul\":131:353   */\n            tag_8:\n                /* \"#utility.yul\":224:228   */\n              0x00\n                /* \"#utility.yul\":262:264   */\n              0x20\n                /* \"#utility.yul\":251:260   */\n              dup3\n                /* \"#utility.yul\":247:265   */\n              add\n                /* \"#utility.yul\":239:265   */\n              swap1\n              pop\n                /* \"#utility.yul\":275:346   */\n              tag_18\n                /* \"#utility.yul\":343:344   */\n              0x00\n                /* \"#utility.yul\":332:341   */\n              dup4\n                /* \"#utility.yul\":328:345   */\n              add\n                /* \"#utility.yul\":319:325   */\n              dup5\n                /* \"#utility.yul\":275:346   */\n              tag_13\n              jump\t// in\n            tag_18:\n                /* \"#utility.yul\":131:353   */\n              swap3\n              swap2\n              pop\n              pop\n              jump\t// out\n                /* \"#utility.yul\":359:455   */\n            tag_16:\n                /* \"#utility.yul\":396:403   */\n              0x00\n                /* \"#utility.yul\":425:449   */\n              tag_20\n                /* \"#utility.yul\":443:448   */\n              dup3\n                /* \"#utility.yul\":425:449   */\n              tag_21\n              jump\t// in\n            tag_20:\n                /* \"#utility.yul\":414:449   */\n              swap1\n              pop\n                /* \"#utility.yul\":359:455   */\n              swap2\n              swap1\n              pop\n              jump\t// out\n                /* \"#utility.yul\":461:587   */\n            tag_21:\n                /* \"#utility.yul\":498:505   */\n              0x00\n                /* \"#utility.yul\":538:580   */\n              0xffffffffffffffffffffffffffffffffffffffff\n                /* \"#utility.yul\":531:536   */\n              dup3\n                /* \"#utility.yul\":527:581   */\n              and\n                /* \"#utility.yul\":516:581   */\n              swap1\n              pop\n                /* \"#utility.yul\":461:587   */\n              swap2\n              swap1\n              pop\n              jump\t// out\n\n            auxdata: 0xa264697066735822122052a56f067d1b2ae13c01ecbe168a14b2867b2ea5ba54c4a720b538159409f29964736f6c63430008070033\n        }\n    }\n\n    auxdata: 0xa2646970667358221220d6ee4b49307c06fa26ca31c9a806c6bf2b7c3d993f0eba6fbcddb9033446bedd64736f6c63430008070033\n}\n",
				"bytecode": {
					"linkReferences": {},
					"object": "608060405234801561001057600080fd5b506105c6806100206000396000f3fe6080604052600436106100295760003560e01c80639859387b1461002e578063f2a40db81461004a575b600080fd5b6100486004803603810190610043919061019f565b610087565b005b34801561005657600080fd5b50610071600480360381019061006c91906101cc565b610129565b60405161007e9190610232565b60405180910390f35b6000606f8260405161009890610168565b6100a29190610217565b6040518091039082f09050801580156100bf573d6000803e3d6000fd5b5090506000819080600181540180825580915050600190039060005260206000200160009091909190916101000a81548173ffffffffffffffffffffffffffffffffffffffff021916908373ffffffffffffffffffffffffffffffffffffffff1602179055505050565b6000818154811061013957600080fd5b906000526020600020016000915054906101000a900473ffffffffffffffffffffffffffffffffffffffff1681565b61029e806102f383390190565b600081359050610184816102c4565b92915050565b600081359050610199816102db565b92915050565b6000602082840312156101b5576101b46102bf565b5b60006101c384828501610175565b91505092915050565b6000602082840312156101e2576101e16102bf565b5b60006101f08482850161018a565b91505092915050565b6102028161024d565b82525050565b61021181610289565b82525050565b600060208201905061022c60008301846101f9565b92915050565b60006020820190506102476000830184610208565b92915050565b60006102588261025f565b9050919050565b600073ffffffffffffffffffffffffffffffffffffffff82169050919050565b6000819050919050565b60006102948261029b565b9050919050565b60006102a6826102ad565b9050919050565b60006102b88261025f565b9050919050565b600080fd5b6102cd8161024d565b81146102d857600080fd5b50565b6102e48161027f565b81146102ef57600080fd5b5056fe608060405260405161029e38038061029e833981810160405281019061002591906100c1565b336000806101000a81548173ffffffffffffffffffffffffffffffffffffffff021916908373ffffffffffffffffffffffffffffffffffffffff16021790555080600160006101000a81548173ffffffffffffffffffffffffffffffffffffffff021916908373ffffffffffffffffffffffffffffffffffffffff1602179055505061013c565b6000815190506100bb81610125565b92915050565b6000602082840312156100d7576100d6610120565b5b60006100e5848285016100ac565b91505092915050565b60006100f982610100565b9050919050565b600073ffffffffffffffffffffffffffffffffffffffff82169050919050565b600080fd5b61012e816100ee565b811461013957600080fd5b50565b6101538061014b6000396000f3fe608060405234801561001057600080fd5b50600436106100365760003560e01c806376cdb03b1461003b5780638da5cb5b14610059575b600080fd5b610043610077565b60405161005091906100d0565b60405180910390f35b61006161009b565b60405161006e91906100d0565b60405180910390f35b60008054906101000a900473ffffffffffffffffffffffffffffffffffffffff1681565b600160009054906101000a900473ffffffffffffffffffffffffffffffffffffffff1681565b6100ca816100eb565b82525050565b60006020820190506100e560008301846100c1565b92915050565b60006100f6826100fd565b9050919050565b600073ffffffffffffffffffffffffffffffffffffffff8216905091905056fea264697066735822122052a56f067d1b2ae13c01ecbe168a14b2867b2ea5ba54c4a720b538159409f29964736f6c63430008070033a2646970667358221220d6ee4b49307c06fa26ca31c9a806c6bf2b7c3d993f0eba6fbcddb9033446bedd64736f6c63430008070033",
					"opcodes": "PUSH1 0x80 PUSH1 0x40 MSTORE CALLVALUE DUP1 ISZERO PUSH2 0x10 JUMPI PUSH1 0x0 DUP1 REVERT JUMPDEST POP PUSH2 0x5C6 DUP1 PUSH2 0x20 PUSH1 0x0 CODECOPY PUSH1 0x0 RETURN INVALID PUSH1 0x80 PUSH1 0x40 MSTORE PUSH1 0x4 CALLDATASIZE LT PUSH2 0x29 JUMPI PUSH1 0x0 CALLDATALOAD PUSH1 0xE0 SHR DUP1 PUSH4 0x9859387B EQ PUSH2 0x2E JUMPI DUP1 PUSH4 0xF2A40DB8 EQ PUSH2 0x4A JUMPI JUMPDEST PUSH1 0x0 DUP1 REVERT JUMPDEST PUSH2 0x48 PUSH1 0x4 DUP1 CALLDATASIZE SUB DUP2 ADD SWAP1 PUSH2 0x43 SWAP2 SWAP1 PUSH2 0x19F JUMP JUMPDEST PUSH2 0x87 JUMP JUMPDEST STOP JUMPDEST CALLVALUE DUP1 ISZERO PUSH2 0x56 JUMPI PUSH1 0x0 DUP1 REVERT JUMPDEST POP PUSH2 0x71 PUSH1 0x4 DUP1 CALLDATASIZE SUB DUP2 ADD SWAP1 PUSH2 0x6C SWAP2 SWAP1 PUSH2 0x1CC JUMP JUMPDEST PUSH2 0x129 JUMP JUMPDEST PUSH1 0x40 MLOAD PUSH2 0x7E SWAP2 SWAP1 PUSH2 0x232 JUMP JUMPDEST PUSH1 0x40 MLOAD DUP1 SWAP2 SUB SWAP1 RETURN JUMPDEST PUSH1 0x0 PUSH1 0x6F DUP3 PUSH1 0x40 MLOAD PUSH2 0x98 SWAP1 PUSH2 0x168 JUMP JUMPDEST PUSH2 0xA2 SWAP2 SWAP1 PUSH2 0x217 JUMP JUMPDEST PUSH1 0x40 MLOAD DUP1 SWAP2 SUB SWAP1 DUP3 CREATE SWAP1 POP DUP1 ISZERO DUP1 ISZERO PUSH2 0xBF JUMPI RETURNDATASIZE PUSH1 0x0 DUP1 RETURNDATACOPY RETURNDATASIZE PUSH1 0x0 REVERT JUMPDEST POP SWAP1 POP PUSH1 0x0 DUP2 SWAP1 DUP1 PUSH1 0x1 DUP2 SLOAD ADD DUP1 DUP3 SSTORE DUP1 SWAP2 POP POP PUSH1 0x1 SWAP1 SUB SWAP1 PUSH1 0x0 MSTORE PUSH1 0x20 PUSH1 0x0 KECCAK256 ADD PUSH1 0x0 SWAP1 SWAP2 SWAP1 SWAP2 SWAP1 SWAP2 PUSH2 0x100 EXP DUP2 SLOAD DUP2 PUSH20 0xFFFFFFFFFFFFFFFFFFFFFFFFFFFFFFFFFFFFFFFF MUL NOT AND SWAP1 DUP4 PUSH20 0xFFFFFFFFFFFFFFFFFFFFFFFFFFFFFFFFFFFFFFFF AND MUL OR SWAP1 SSTORE POP POP POP JUMP JUMPDEST PUSH1 0x0 DUP2 DUP2 SLOAD DUP2 LT PUSH2 0x139 JUMPI PUSH1 0x0 DUP1 REVERT JUMPDEST SWAP1 PUSH1 0x0 MSTORE PUSH1 0x20 PUSH1 0x0 KECCAK256 ADD PUSH1 0x0 SWAP2 POP SLOAD SWAP1 PUSH2 0x100 EXP SWAP1 DIV PUSH20 0xFFFFFFFFFFFFFFFFFFFFFFFFFFFFFFFFFFFFFFFF AND DUP2 JUMP JUMPDEST PUSH2 0x29E DUP1 PUSH2 0x2F3 DUP4 CODECOPY ADD SWAP1 JUMP JUMPDEST PUSH1 0x0 DUP2 CALLDATALOAD SWAP1 POP PUSH2 0x184 DUP2 PUSH2 0x2C4 JUMP JUMPDEST SWAP3 SWAP2 POP POP JUMP JUMPDEST PUSH1 0x0 DUP2 CALLDATALOAD SWAP1 POP PUSH2 0x199 DUP2 PUSH2 0x2DB JUMP JUMPDEST SWAP3 SWAP2 POP POP JUMP JUMPDEST PUSH1 0x0 PUSH1 0x20 DUP3 DUP5 SUB SLT ISZERO PUSH2 0x1B5 JUMPI PUSH2 0x1B4 PUSH2 0x2BF JUMP JUMPDEST JUMPDEST PUSH1 0x0 PUSH2 0x1C3 DUP5 DUP3 DUP6 ADD PUSH2 0x175 JUMP JUMPDEST SWAP2 POP POP SWAP3 SWAP2 POP POP JUMP JUMPDEST PUSH1 0x0 PUSH1 0x20 DUP3 DUP5 SUB SLT ISZERO PUSH2 0x1E2 JUMPI PUSH2 0x1E1 PUSH2 0x2BF JUMP JUMPDEST JUMPDEST PUSH1 0x0 PUSH2 0x1F0 DUP5 DUP3 DUP6 ADD PUSH2 0x18A JUMP JUMPDEST SWAP2 POP POP SWAP3 SWAP2 POP POP JUMP JUMPDEST PUSH2 0x202 DUP2 PUSH2 0x24D JUMP JUMPDEST DUP3 MSTORE POP POP JUMP JUMPDEST PUSH2 0x211 DUP2 PUSH2 0x289 JUMP JUMPDEST DUP3 MSTORE POP POP JUMP JUMPDEST PUSH1 0x0 PUSH1 0x20 DUP3 ADD SWAP1 POP PUSH2 0x22C PUSH1 0x0 DUP4 ADD DUP5 PUSH2 0x1F9 JUMP JUMPDEST SWAP3 SWAP2 POP POP JUMP JUMPDEST PUSH1 0x0 PUSH1 0x20 DUP3 ADD SWAP1 POP PUSH2 0x247 PUSH1 0x0 DUP4 ADD DUP5 PUSH2 0x208 JUMP JUMPDEST SWAP3 SWAP2 POP POP JUMP JUMPDEST PUSH1 0x0 PUSH2 0x258 DUP3 PUSH2 0x25F JUMP JUMPDEST SWAP1 POP SWAP2 SWAP1 POP JUMP JUMPDEST PUSH1 0x0 PUSH20 0xFFFFFFFFFFFFFFFFFFFFFFFFFFFFFFFFFFFFFFFF DUP3 AND SWAP1 POP SWAP2 SWAP1 POP JUMP JUMPDEST PUSH1 0x0 DUP2 SWAP1 POP SWAP2 SWAP1 POP JUMP JUMPDEST PUSH1 0x0 PUSH2 0x294 DUP3 PUSH2 0x29B JUMP JUMPDEST SWAP1 POP SWAP2 SWAP1 POP JUMP JUMPDEST PUSH1 0x0 PUSH2 0x2A6 DUP3 PUSH2 0x2AD JUMP JUMPDEST SWAP1 POP SWAP2 SWAP1 POP JUMP JUMPDEST PUSH1 0x0 PUSH2 0x2B8 DUP3 PUSH2 0x25F JUMP JUMPDEST SWAP1 POP SWAP2 SWAP1 POP JUMP JUMPDEST PUSH1 0x0 DUP1 REVERT JUMPDEST PUSH2 0x2CD DUP2 PUSH2 0x24D JUMP JUMPDEST DUP2 EQ PUSH2 0x2D8 JUMPI PUSH1 0x0 DUP1 REVERT JUMPDEST POP JUMP JUMPDEST PUSH2 0x2E4 DUP2 PUSH2 0x27F JUMP JUMPDEST DUP2 EQ PUSH2 0x2EF JUMPI PUSH1 0x0 DUP1 REVERT JUMPDEST POP JUMP INVALID PUSH1 0x80 PUSH1 0x40 MSTORE PUSH1 0x40 MLOAD PUSH2 0x29E CODESIZE SUB DUP1 PUSH2 0x29E DUP4 CODECOPY DUP2 DUP2 ADD PUSH1 0x40 MSTORE DUP2 ADD SWAP1 PUSH2 0x25 SWAP2 SWAP1 PUSH2 0xC1 JUMP JUMPDEST CALLER PUSH1 0x0 DUP1 PUSH2 0x100 EXP DUP2 SLOAD DUP2 PUSH20 0xFFFFFFFFFFFFFFFFFFFFFFFFFFFFFFFFFFFFFFFF MUL NOT AND SWAP1 DUP4 PUSH20 0xFFFFFFFFFFFFFFFFFFFFFFFFFFFFFFFFFFFFFFFF AND MUL OR SWAP1 SSTORE POP DUP1 PUSH1 0x1 PUSH1 0x0 PUSH2 0x100 EXP DUP2 SLOAD DUP2 PUSH20 0xFFFFFFFFFFFFFFFFFFFFFFFFFFFFFFFFFFFFFFFF MUL NOT AND SWAP1 DUP4 PUSH20 0xFFFFFFFFFFFFFFFFFFFFFFFFFFFFFFFFFFFFFFFF AND MUL OR SWAP1 SSTORE POP POP PUSH2 0x13C JUMP JUMPDEST PUSH1 0x0 DUP2 MLOAD SWAP1 POP PUSH2 0xBB DUP2 PUSH2 0x125 JUMP JUMPDEST SWAP3 SWAP2 POP POP JUMP JUMPDEST PUSH1 0x0 PUSH1 0x20 DUP3 DUP5 SUB SLT ISZERO PUSH2 0xD7 JUMPI PUSH2 0xD6 PUSH2 0x120 JUMP JUMPDEST JUMPDEST PUSH1 0x0 PUSH2 0xE5 DUP5 DUP3 DUP6 ADD PUSH2 0xAC JUMP JUMPDEST SWAP2 POP POP SWAP3 SWAP2 POP POP JUMP JUMPDEST PUSH1 0x0 PUSH2 0xF9 DUP3 PUSH2 0x100 JUMP JUMPDEST SWAP1 POP SWAP2 SWAP1 POP JUMP JUMPDEST PUSH1 0x0 PUSH20 0xFFFFFFFFFFFFFFFFFFFFFFFFFFFFFFFFFFFFFFFF DUP3 AND SWAP1 POP SWAP2 SWAP1 POP JUMP JUMPDEST PUSH1 0x0 DUP1 REVERT JUMPDEST PUSH2 0x12E DUP2 PUSH2 0xEE JUMP JUMPDEST DUP2 EQ PUSH2 0x139 JUMPI PUSH1 0x0 DUP1 REVERT JUMPDEST POP JUMP JUMPDEST PUSH2 0x153 DUP1 PUSH2 0x14B PUSH1 0x0 CODECOPY PUSH1 0x0 RETURN INVALID PUSH1 0x80 PUSH1 0x40 MSTORE CALLVALUE DUP1 ISZERO PUSH2 0x10 JUMPI PUSH1 0x0 DUP1 REVERT JUMPDEST POP PUSH1 0x4 CALLDATASIZE LT PUSH2 0x36 JUMPI PUSH1 0x0 CALLDATALOAD PUSH1 0xE0 SHR DUP1 PUSH4 0x76CDB03B EQ PUSH2 0x3B JUMPI DUP1 PUSH4 0x8DA5CB5B EQ PUSH2 0x59 JUMPI JUMPDEST PUSH1 0x0 DUP1 REVERT JUMPDEST PUSH2 0x43 PUSH2 0x77 JUMP JUMPDEST PUSH1 0x40 MLOAD PUSH2 0x50 SWAP2 SWAP1 PUSH2 0xD0 JUMP JUMPDEST PUSH1 0x40 MLOAD DUP1 SWAP2 SUB SWAP1 RETURN JUMPDEST PUSH2 0x61 PUSH2 0x9B JUMP JUMPDEST PUSH1 0x40 MLOAD PUSH2 0x6E SWAP2 SWAP1 PUSH2 0xD0 JUMP JUMPDEST PUSH1 0x40 MLOAD DUP1 SWAP2 SUB SWAP1 RETURN JUMPDEST PUSH1 0x0 DUP1 SLOAD SWAP1 PUSH2 0x100 EXP SWAP1 DIV PUSH20 0xFFFFFFFFFFFFFFFFFFFFFFFFFFFFFFFFFFFFFFFF AND DUP2 JUMP JUMPDEST PUSH1 0x1 PUSH1 0x0 SWAP1 SLOAD SWAP1 PUSH2 0x100 EXP SWAP1 DIV PUSH20 0xFFFFFFFFFFFFFFFFFFFFFFFFFFFFFFFFFFFFFFFF AND DUP2 JUMP JUMPDEST PUSH2 0xCA DUP2 PUSH2 0xEB JUMP JUMPDEST DUP3 MSTORE POP POP JUMP JUMPDEST PUSH1 0x0 PUSH1 0x20 DUP3 ADD SWAP1 POP PUSH2 0xE5 PUSH1 0x0 DUP4 ADD DUP5 PUSH2 0xC1 JUMP JUMPDEST SWAP3 SWAP2 POP POP JUMP JUMPDEST PUSH1 0x0 PUSH2 0xF6 DUP3 PUSH2 0xFD JUMP JUMPDEST SWAP1 POP SWAP2 SWAP1 POP JUMP JUMPDEST PUSH1 0x0 PUSH20 0xFFFFFFFFFFFFFFFFFFFFFFFFFFFFFFFFFFFFFFFF DUP3 AND SWAP1 POP SWAP2 SWAP1 POP JUMP INVALID LOG2 PUSH5 0x6970667358 0x22 SLT KECCAK256 MSTORE 0xA5 PUSH16 0x67D1B2AE13C01ECBE168A14B2867B2E 0xA5 0xBA SLOAD 0xC4 0xA7 KECCAK256 0xB5 CODESIZE ISZERO SWAP5 MULMOD CALLCODE SWAP10 PUSH5 0x736F6C6343 STOP ADDMOD SMOD STOP CALLER LOG2 PUSH5 0x6970667358 0x22 SLT KECCAK256 0xD6 0xEE 0x4B 0x49 ADDRESS PUSH29 0x6FA26CA31C9A806C6BF2B7C3D993F0EBA6FBCDDB9033446BEDD64736F PUSH13 0x63430008070033000000000000 "
				},
				"gasEstimates": {
					"creation": {
						"codeDepositCost": "295600",
						"executionCost": "337",
						"totalCost": "295937"
					},
					"external": {
						"accounts(uint256)": "5042",
						"createAccount(address)": "infinite"
					}
				},
				"methodIdentifiers": {
					"accounts(uint256)": "f2a40db8",
					"createAccount(address)": "9859387b"
				}
			},
			"storageLayout": {
				"storage": [
					{
						"astId": 25,
						"contract": "Day39_NewAccount.sol:AccountFactory",
						"label": "accounts",
						"offset": 0,
						"slot": "0",
						"type": "t_array(t_contract(Account)21)dyn_storage"
					}
				],
				"types": {
					"t_array(t_contract(Account)21)dyn_storage": {
						"base": "t_contract(Account)21",
						"encoding": "dynamic_array",
						"label": "contract Account[]",
						"numberOfBytes": "32"
					},
					"t_contract(Account)21": {
						"encoding": "inplace",
						"label": "contract Account",
						"numberOfBytes": "20"
					}
				}
			},
			"userdoc": {
				"kind": "user",
				"methods": {},
				"version": 1
			}
		}
	}
}