{
	"Day18_Mapping.sol": {
		"Mapping": {
			"abi": [
				{
					"inputs": [
						{
							"internalType": "address",
							"name": "",
							"type": "address"
						}
					],
					"name": "balances",
					"outputs": [
						{
							"internalType": "uint256",
							"name": "",
							"type": "uint256"
						}
					],
					"stateMutability": "view",
					"type": "function"
				},
				{
					"inputs": [
						{
							"internalType": "address",
							"name": "",
							"type": "address"
						},
						{
							"internalType": "address",
							"name": "",
							"type": "address"
						}
					],
					"name": "isFriend",
					"outputs": [
						{
							"internalType": "uint256",
							"name": "",
							"type": "uint256"
						}
					],
					"stateMutability": "view",
					"type": "function"
				}
			],
			"devdoc": {
				"kind": "dev",
				"methods": {},
				"version": 1
			},
			"evm": {
				"assembly": "    /* \"Day18_Mapping.sol\":58:197  contract Mapping {... */\n  mstore(0x40, 0x80)\n  callvalue\n  dup1\n  iszero\n  tag_1\n  jumpi\n  0x00\n  dup1\n  revert\ntag_1:\n  pop\n  dataSize(sub_0)\n  dup1\n  dataOffset(sub_0)\n  0x00\n  codecopy\n  0x00\n  return\nstop\n\nsub_0: assembly {\n        /* \"Day18_Mapping.sol\":58:197  contract Mapping {... */\n      mstore(0x40, 0x80)\n      callvalue\n      dup1\n      iszero\n      tag_1\n      jumpi\n      0x00\n      dup1\n      revert\n    tag_1:\n      pop\n      jumpi(tag_2, lt(calldatasize, 0x04))\n      shr(0xe0, calldataload(0x00))\n      dup1\n      0x27e235e3\n      eq\n      tag_3\n      jumpi\n      dup1\n      0x2da5d42e\n      eq\n      tag_4\n      jumpi\n    tag_2:\n      0x00\n      dup1\n      revert\n        /* \"Day18_Mapping.sol\":81:122  mapping (address => uint) public balances */\n    tag_3:\n      tag_5\n      0x04\n      dup1\n      calldatasize\n      sub\n      dup2\n      add\n      swap1\n      tag_6\n      swap2\n      swap1\n      tag_7\n      jump\t// in\n    tag_6:\n      tag_8\n      jump\t// in\n    tag_5:\n      mload(0x40)\n      tag_9\n      swap2\n      swap1\n      tag_10\n      jump\t// in\n    tag_9:\n      mload(0x40)\n      dup1\n      swap2\n      sub\n      swap1\n      return\n        /* \"Day18_Mapping.sol\":128:189  mapping (address => mapping(address => uint)) public isFriend */\n    tag_4:\n      tag_11\n      0x04\n      dup1\n      calldatasize\n      sub\n      dup2\n      add\n      swap1\n      tag_12\n      swap2\n      swap1\n      tag_13\n      jump\t// in\n    tag_12:\n      tag_14\n      jump\t// in\n    tag_11:\n      mload(0x40)\n      tag_15\n      swap2\n      swap1\n      tag_10\n      jump\t// in\n    tag_15:\n      mload(0x40)\n      dup1\n      swap2\n      sub\n      swap1\n      return\n        /* \"Day18_Mapping.sol\":81:122  mapping (address => uint) public balances */\n    tag_8:\n      mstore(0x20, 0x00)\n      dup1\n      0x00\n      mstore\n      keccak256(0x00, 0x40)\n      0x00\n      swap2\n      pop\n      swap1\n      pop\n      sload\n      dup2\n      jump\t// out\n        /* \"Day18_Mapping.sol\":128:189  mapping (address => mapping(address => uint)) public isFriend */\n    tag_14:\n      mstore(0x20, 0x01)\n      dup2\n      0x00\n      mstore\n      mstore(0x20, keccak256(0x00, 0x40))\n      dup1\n      0x00\n      mstore\n      keccak256(0x00, 0x40)\n      0x00\n      swap2\n      pop\n      swap2\n      pop\n      pop\n      sload\n      dup2\n      jump\t// out\n        /* \"#utility.yul\":7:146   */\n    tag_17:\n        /* \"#utility.yul\":53:58   */\n      0x00\n        /* \"#utility.yul\":91:97   */\n      dup2\n        /* \"#utility.yul\":78:98   */\n      calldataload\n        /* \"#utility.yul\":69:98   */\n      swap1\n      pop\n        /* \"#utility.yul\":107:140   */\n      tag_19\n        /* \"#utility.yul\":134:139   */\n      dup2\n        /* \"#utility.yul\":107:140   */\n      tag_20\n      jump\t// in\n    tag_19:\n        /* \"#utility.yul\":7:146   */\n      swap3\n      swap2\n      pop\n      pop\n      jump\t// out\n        /* \"#utility.yul\":152:481   */\n    tag_7:\n        /* \"#utility.yul\":211:217   */\n      0x00\n        /* \"#utility.yul\":260:262   */\n      0x20\n        /* \"#utility.yul\":248:257   */\n      dup3\n        /* \"#utility.yul\":239:246   */\n      dup5\n        /* \"#utility.yul\":235:258   */\n      sub\n        /* \"#utility.yul\":231:263   */\n      slt\n        /* \"#utility.yul\":228:347   */\n      iszero\n      tag_22\n      jumpi\n        /* \"#utility.yul\":266:345   */\n      tag_23\n      tag_24\n      jump\t// in\n    tag_23:\n        /* \"#utility.yul\":228:347   */\n    tag_22:\n        /* \"#utility.yul\":386:387   */\n      0x00\n        /* \"#utility.yul\":411:464   */\n      tag_25\n        /* \"#utility.yul\":456:463   */\n      dup5\n        /* \"#utility.yul\":447:453   */\n      dup3\n        /* \"#utility.yul\":436:445   */\n      dup6\n        /* \"#utility.yul\":432:454   */\n      add\n        /* \"#utility.yul\":411:464   */\n      tag_17\n      jump\t// in\n    tag_25:\n        /* \"#utility.yul\":401:464   */\n      swap2\n      pop\n        /* \"#utility.yul\":357:474   */\n      pop\n        /* \"#utility.yul\":152:481   */\n      swap3\n      swap2\n      pop\n      pop\n      jump\t// out\n        /* \"#utility.yul\":487:961   */\n    tag_13:\n        /* \"#utility.yul\":555:561   */\n      0x00\n        /* \"#utility.yul\":563:569   */\n      dup1\n        /* \"#utility.yul\":612:614   */\n      0x40\n        /* \"#utility.yul\":600:609   */\n      dup4\n        /* \"#utility.yul\":591:598   */\n      dup6\n        /* \"#utility.yul\":587:610   */\n      sub\n        /* \"#utility.yul\":583:615   */\n      slt\n        /* \"#utility.yul\":580:699   */\n      iszero\n      tag_27\n      jumpi\n        /* \"#utility.yul\":618:697   */\n      tag_28\n      tag_24\n      jump\t// in\n    tag_28:\n        /* \"#utility.yul\":580:699   */\n    tag_27:\n        /* \"#utility.yul\":738:739   */\n      0x00\n        /* \"#utility.yul\":763:816   */\n      tag_29\n        /* \"#utility.yul\":808:815   */\n      dup6\n        /* \"#utility.yul\":799:805   */\n      dup3\n        /* \"#utility.yul\":788:797   */\n      dup7\n        /* \"#utility.yul\":784:806   */\n      add\n        /* \"#utility.yul\":763:816   */\n      tag_17\n      jump\t// in\n    tag_29:\n        /* \"#utility.yul\":753:816   */\n      swap3\n      pop\n        /* \"#utility.yul\":709:826   */\n      pop\n        /* \"#utility.yul\":865:867   */\n      0x20\n        /* \"#utility.yul\":891:944   */\n      tag_30\n        /* \"#utility.yul\":936:943   */\n      dup6\n        /* \"#utility.yul\":927:933   */\n      dup3\n        /* \"#utility.yul\":916:925   */\n      dup7\n        /* \"#utility.yul\":912:934   */\n      add\n        /* \"#utility.yul\":891:944   */\n      tag_17\n      jump\t// in\n    tag_30:\n        /* \"#utility.yul\":881:944   */\n      swap2\n      pop\n        /* \"#utility.yul\":836:954   */\n      pop\n        /* \"#utility.yul\":487:961   */\n      swap3\n      pop\n      swap3\n      swap1\n      pop\n      jump\t// out\n        /* \"#utility.yul\":967:1085   */\n    tag_31:\n        /* \"#utility.yul\":1054:1078   */\n      tag_33\n        /* \"#utility.yul\":1072:1077   */\n      dup2\n        /* \"#utility.yul\":1054:1078   */\n      tag_34\n      jump\t// in\n    tag_33:\n        /* \"#utility.yul\":1049:1052   */\n      dup3\n        /* \"#utility.yul\":1042:1079   */\n      mstore\n        /* \"#utility.yul\":967:1085   */\n      pop\n      pop\n      jump\t// out\n        /* \"#utility.yul\":1091:1313   */\n    tag_10:\n        /* \"#utility.yul\":1184:1188   */\n      0x00\n        /* \"#utility.yul\":1222:1224   */\n      0x20\n        /* \"#utility.yul\":1211:1220   */\n      dup3\n        /* \"#utility.yul\":1207:1225   */\n      add\n        /* \"#utility.yul\":1199:1225   */\n      swap1\n      pop\n        /* \"#utility.yul\":1235:1306   */\n      tag_36\n        /* \"#utility.yul\":1303:1304   */\n      0x00\n        /* \"#utility.yul\":1292:1301   */\n      dup4\n        /* \"#utility.yul\":1288:1305   */\n      add\n        /* \"#utility.yul\":1279:1285   */\n      dup5\n        /* \"#utility.yul\":1235:1306   */\n      tag_31\n      jump\t// in\n    tag_36:\n        /* \"#utility.yul\":1091:1313   */\n      swap3\n      swap2\n      pop\n      pop\n      jump\t// out\n        /* \"#utility.yul\":1400:1496   */\n    tag_39:\n        /* \"#utility.yul\":1437:1444   */\n      0x00\n        /* \"#utility.yul\":1466:1490   */\n      tag_41\n        /* \"#utility.yul\":1484:1489   */\n      dup3\n        /* \"#utility.yul\":1466:1490   */\n      tag_42\n      jump\t// in\n    tag_41:\n        /* \"#utility.yul\":1455:1490   */\n      swap1\n      pop\n        /* \"#utility.yul\":1400:1496   */\n      swap2\n      swap1\n      pop\n      jump\t// out\n        /* \"#utility.yul\":1502:1628   */\n    tag_42:\n        /* \"#utility.yul\":1539:1546   */\n      0x00\n        /* \"#utility.yul\":1579:1621   */\n      0xffffffffffffffffffffffffffffffffffffffff\n        /* \"#utility.yul\":1572:1577   */\n      dup3\n        /* \"#utility.yul\":1568:1622   */\n      and\n        /* \"#utility.yul\":1557:1622   */\n      swap1\n      pop\n        /* \"#utility.yul\":1502:1628   */\n      swap2\n      swap1\n      pop\n      jump\t// out\n        /* \"#utility.yul\":1634:1711   */\n    tag_34:\n        /* \"#utility.yul\":1671:1678   */\n      0x00\n        /* \"#utility.yul\":1700:1705   */\n      dup2\n        /* \"#utility.yul\":1689:1705   */\n      swap1\n      pop\n        /* \"#utility.yul\":1634:1711   */\n      swap2\n      swap1\n      pop\n      jump\t// out\n        /* \"#utility.yul\":1840:1957   */\n    tag_24:\n        /* \"#utility.yul\":1949:1950   */\n      0x00\n        /* \"#utility.yul\":1946:1947   */\n      dup1\n        /* \"#utility.yul\":1939:1951   */\n      revert\n        /* \"#utility.yul\":1963:2085   */\n    tag_20:\n        /* \"#utility.yul\":2036:2060   */\n      tag_49\n        /* \"#utility.yul\":2054:2059   */\n      dup2\n        /* \"#utility.yul\":2036:2060   */\n      tag_39\n      jump\t// in\n    tag_49:\n        /* \"#utility.yul\":2029:2034   */\n      dup2\n        /* \"#utility.yul\":2026:2061   */\n      eq\n        /* \"#utility.yul\":2016:2079   */\n      tag_50\n      jumpi\n        /* \"#utility.yul\":2075:2076   */\n      0x00\n        /* \"#utility.yul\":2072:2073   */\n      dup1\n        /* \"#utility.yul\":2065:2077   */\n      revert\n        /* \"#utility.yul\":2016:2079   */\n    tag_50:\n        /* \"#utility.yul\":1963:2085   */\n      pop\n      jump\t// out\n\n    auxdata: 0xa2646970667358221220c31d0bec4d400abe1145b0c90e0ba1de0a86f5a5c84e4577393a9015864f432164736f6c63430008070033\n}\n",
				"bytecode": {
					"linkReferences": {},
					"object": "608060405234801561001057600080fd5b50610212806100206000396000f3fe608060405234801561001057600080fd5b50600436106100365760003560e01c806327e235e31461003b5780632da5d42e1461006b575b600080fd5b610055600480360381019061005091906100ed565b61009b565b6040516100629190610169565b60405180910390f35b6100856004803603810190610080919061011a565b6100b3565b6040516100929190610169565b60405180910390f35b60006020528060005260406000206000915090505481565b6001602052816000526040600020602052806000526040600020600091509150505481565b6000813590506100e7816101c5565b92915050565b600060208284031215610103576101026101c0565b5b6000610111848285016100d8565b91505092915050565b60008060408385031215610131576101306101c0565b5b600061013f858286016100d8565b9250506020610150858286016100d8565b9150509250929050565b610163816101b6565b82525050565b600060208201905061017e600083018461015a565b92915050565b600061018f82610196565b9050919050565b600073ffffffffffffffffffffffffffffffffffffffff82169050919050565b6000819050919050565b600080fd5b6101ce81610184565b81146101d957600080fd5b5056fea2646970667358221220c31d0bec4d400abe1145b0c90e0ba1de0a86f5a5c84e4577393a9015864f432164736f6c63430008070033",
					"opcodes": "PUSH1 0x80 PUSH1 0x40 MSTORE CALLVALUE DUP1 ISZERO PUSH2 0x10 JUMPI PUSH1 0x0 DUP1 REVERT JUMPDEST POP PUSH2 0x212 DUP1 PUSH2 0x20 PUSH1 0x0 CODECOPY PUSH1 0x0 RETURN INVALID PUSH1 0x80 PUSH1 0x40 MSTORE CALLVALUE DUP1 ISZERO PUSH2 0x10 JUMPI PUSH1 0x0 DUP1 REVERT JUMPDEST POP PUSH1 0x4 CALLDATASIZE LT PUSH2 0x36 JUMPI PUSH1 0x0 CALLDATALOAD PUSH1 0xE0 SHR DUP1 PUSH4 0x27E235E3 EQ PUSH2 0x3B JUMPI DUP1 PUSH4 0x2DA5D42E EQ PUSH2 0x6B JUMPI JUMPDEST PUSH1 0x0 DUP1 REVERT JUMPDEST PUSH2 0x55 PUSH1 0x4 DUP1 CALLDATASIZE SUB DUP2 ADD SWAP1 PUSH2 0x50 SWAP2 SWAP1 PUSH2 0xED JUMP JUMPDEST PUSH2 0x9B JUMP JUMPDEST PUSH1 0x40 MLOAD PUSH2 0x62 SWAP2 SWAP1 PUSH2 0x169 JUMP JUMPDEST PUSH1 0x40 MLOAD DUP1 SWAP2 SUB SWAP1 RETURN JUMPDEST PUSH2 0x85 PUSH1 0x4 DUP1 CALLDATASIZE SUB DUP2 ADD SWAP1 PUSH2 0x80 SWAP2 SWAP1 PUSH2 0x11A JUMP JUMPDEST PUSH2 0xB3 JUMP JUMPDEST PUSH1 0x40 MLOAD PUSH2 0x92 SWAP2 SWAP1 PUSH2 0x169 JUMP JUMPDEST PUSH1 0x40 MLOAD DUP1 SWAP2 SUB SWAP1 RETURN JUMPDEST PUSH1 0x0 PUSH1 0x20 MSTORE DUP1 PUSH1 0x0 MSTORE PUSH1 0x40 PUSH1 0x0 KECCAK256 PUSH1 0x0 SWAP2 POP SWAP1 POP SLOAD DUP2 JUMP JUMPDEST PUSH1 0x1 PUSH1 0x20 MSTORE DUP2 PUSH1 0x0 MSTORE PUSH1 0x40 PUSH1 0x0 KECCAK256 PUSH1 0x20 MSTORE DUP1 PUSH1 0x0 MSTORE PUSH1 0x40 PUSH1 0x0 KECCAK256 PUSH1 0x0 SWAP2 POP SWAP2 POP POP SLOAD DUP2 JUMP JUMPDEST PUSH1 0x0 DUP2 CALLDATALOAD SWAP1 POP PUSH2 0xE7 DUP2 PUSH2 0x1C5 JUMP JUMPDEST SWAP3 SWAP2 POP POP JUMP JUMPDEST PUSH1 0x0 PUSH1 0x20 DUP3 DUP5 SUB SLT ISZERO PUSH2 0x103 JUMPI PUSH2 0x102 PUSH2 0x1C0 JUMP JUMPDEST JUMPDEST PUSH1 0x0 PUSH2 0x111 DUP5 DUP3 DUP6 ADD PUSH2 0xD8 JUMP JUMPDEST SWAP2 POP POP SWAP3 SWAP2 POP POP JUMP JUMPDEST PUSH1 0x0 DUP1 PUSH1 0x40 DUP4 DUP6 SUB SLT ISZERO PUSH2 0x131 JUMPI PUSH2 0x130 PUSH2 0x1C0 JUMP JUMPDEST JUMPDEST PUSH1 0x0 PUSH2 0x13F DUP6 DUP3 DUP7 ADD PUSH2 0xD8 JUMP JUMPDEST SWAP3 POP POP PUSH1 0x20 PUSH2 0x150 DUP6 DUP3 DUP7 ADD PUSH2 0xD8 JUMP JUMPDEST SWAP2 POP POP SWAP3 POP SWAP3 SWAP1 POP JUMP JUMPDEST PUSH2 0x163 DUP2 PUSH2 0x1B6 JUMP JUMPDEST DUP3 MSTORE POP POP JUMP JUMPDEST PUSH1 0x0 PUSH1 0x20 DUP3 ADD SWAP1 POP PUSH2 0x17E PUSH1 0x0 DUP4 ADD DUP5 PUSH2 0x15A JUMP JUMPDEST SWAP3 SWAP2 POP POP JUMP JUMPDEST PUSH1 0x0 PUSH2 0x18F DUP3 PUSH2 0x196 JUMP JUMPDEST SWAP1 POP SWAP2 SWAP1 POP JUMP JUMPDEST PUSH1 0x0 PUSH20 0xFFFFFFFFFFFFFFFFFFFFFFFFFFFFFFFFFFFFFFFF DUP3 AND SWAP1 POP SWAP2 SWAP1 POP JUMP JUMPDEST PUSH1 0x0 DUP2 SWAP1 POP SWAP2 SWAP1 POP JUMP JUMPDEST PUSH1 0x0 DUP1 REVERT JUMPDEST PUSH2 0x1CE DUP2 PUSH2 0x184 JUMP JUMPDEST DUP2 EQ PUSH2 0x1D9 JUMPI PUSH1 0x0 DUP1 REVERT JUMPDEST POP JUMP INVALID LOG2 PUSH5 0x6970667358 0x22 SLT KECCAK256 0xC3 SAR SIGNEXTEND 0xEC 0x4D BLOCKHASH EXP 0xBE GT GASLIMIT 0xB0 0xC9 0xE SIGNEXTEND LOG1 0xDE EXP DUP7 CREATE2 0xA5 0xC8 0x4E GASLIMIT PUSH24 0x393A9015864F432164736F6C634300080700330000000000 "
				},
				"gasEstimates": {
					"creation": {
						"codeDepositCost": "106000",
						"executionCost": "153",
						"totalCost": "106153"
					},
					"external": {
						"balances(address)": "2792",
						"isFriend(address,address)": "infinite"
					}
				},
				"methodIdentifiers": {
					"balances(address)": "27e235e3",
					"isFriend(address,address)": "2da5d42e"
				}
			},
			"storageLayout": {
				"storage": [
					{
						"astId": 5,
						"contract": "Day18_Mapping.sol:Mapping",
						"label": "balances",
						"offset": 0,
						"slot": "0",
						"type": "t_mapping(t_address,t_uint256)"
					},
					{
						"astId": 11,
						"contract": "Day18_Mapping.sol:Mapping",
						"label": "isFriend",
						"offset": 0,
						"slot": "1",
						"type": "t_mapping(t_address,t_mapping(t_address,t_uint256))"
					}
				],
				"types": {
					"t_address": {
						"encoding": "inplace",
						"label": "address",
						"numberOfBytes": "20"
					},
					"t_mapping(t_address,t_mapping(t_address,t_uint256))": {
						"encoding": "mapping",
						"key": "t_address",
						"label": "mapping(address => mapping(address => uint256))",
						"numberOfBytes": "32",
						"value": "t_mapping(t_address,t_uint256)"
					},
					"t_mapping(t_address,t_uint256)": {
						"encoding": "mapping",
						"key": "t_address",
						"label": "mapping(address => uint256)",
						"numberOfBytes": "32",
						"value": "t_uint256"
					},
					"t_uint256": {
						"encoding": "inplace",
						"label": "uint256",
						"numberOfBytes": "32"
					}
				}
			},
			"userdoc": {
				"kind": "user",
				"methods": {},
				"version": 1
			}
		}
	}
}