{
	"Day9_ForWhile.sol": {
		"ForWhile": {
			"abi": [
				{
					"inputs": [],
					"name": "Loops",
					"outputs": [],
					"stateMutability": "nonpayable",
					"type": "function"
				}
			],
			"devdoc": {
				"kind": "dev",
				"methods": {},
				"version": 1
			},
			"evm": {
				"assembly": "    /* \"Day9_ForWhile.sol\":58:261  contract ForWhile {... */\n  mstore(0x40, 0x80)\n  callvalue\n  dup1\n  iszero\n  tag_1\n  jumpi\n  0x00\n  dup1\n  revert\ntag_1:\n  pop\n  dataSize(sub_0)\n  dup1\n  dataOffset(sub_0)\n  0x00\n  codecopy\n  0x00\n  return\nstop\n\nsub_0: assembly {\n        /* \"Day9_ForWhile.sol\":58:261  contract ForWhile {... */\n      mstore(0x40, 0x80)\n      callvalue\n      dup1\n      iszero\n      tag_1\n      jumpi\n      0x00\n      dup1\n      revert\n    tag_1:\n      pop\n      jumpi(tag_2, lt(calldatasize, 0x04))\n      shr(0xe0, calldataload(0x00))\n      dup1\n      0xfaee1d3a\n      eq\n      tag_3\n      jumpi\n    tag_2:\n      0x00\n      dup1\n      revert\n        /* \"Day9_ForWhile.sol\":82:259  function Loops () external {... */\n    tag_3:\n      tag_4\n      tag_5\n      jump\t// in\n    tag_4:\n      stop\n    tag_5:\n        /* \"Day9_ForWhile.sol\":124:130  uint i */\n      0x00\n        /* \"Day9_ForWhile.sol\":133:134  1 */\n      0x01\n        /* \"Day9_ForWhile.sol\":124:134  uint i = 1 */\n      swap1\n      pop\n        /* \"Day9_ForWhile.sol\":119:253  for (uint i = 1; i < 10; i++){... */\n    tag_7:\n        /* \"Day9_ForWhile.sol\":140:142  10 */\n      0x0a\n        /* \"Day9_ForWhile.sol\":136:137  i */\n      dup2\n        /* \"Day9_ForWhile.sol\":136:142  i < 10 */\n      lt\n        /* \"Day9_ForWhile.sol\":119:253  for (uint i = 1; i < 10; i++){... */\n      iszero\n      tag_8\n      jumpi\n        /* \"Day9_ForWhile.sol\":171:172  3 */\n      0x03\n        /* \"Day9_ForWhile.sol\":166:167  i */\n      dup2\n        /* \"Day9_ForWhile.sol\":166:172  i == 3 */\n      eq\n        /* \"Day9_ForWhile.sol\":162:215  if (i == 3) {... */\n      iszero\n      tag_10\n      jumpi\n        /* \"Day9_ForWhile.sol\":192:200  continue */\n      jump(tag_9)\n        /* \"Day9_ForWhile.sol\":162:215  if (i == 3) {... */\n    tag_10:\n        /* \"Day9_ForWhile.sol\":119:253  for (uint i = 1; i < 10; i++){... */\n    tag_9:\n        /* \"Day9_ForWhile.sol\":144:147  i++ */\n      dup1\n      dup1\n      tag_12\n      swap1\n      tag_13\n      jump\t// in\n    tag_12:\n      swap2\n      pop\n      pop\n        /* \"Day9_ForWhile.sol\":119:253  for (uint i = 1; i < 10; i++){... */\n      jump(tag_7)\n    tag_8:\n      pop\n        /* \"Day9_ForWhile.sol\":82:259  function Loops () external {... */\n      jump\t// out\n        /* \"#utility.yul\":7:84   */\n    tag_15:\n        /* \"#utility.yul\":44:51   */\n      0x00\n        /* \"#utility.yul\":73:78   */\n      dup2\n        /* \"#utility.yul\":62:78   */\n      swap1\n      pop\n        /* \"#utility.yul\":7:84   */\n      swap2\n      swap1\n      pop\n      jump\t// out\n        /* \"#utility.yul\":90:323   */\n    tag_13:\n        /* \"#utility.yul\":129:132   */\n      0x00\n        /* \"#utility.yul\":152:176   */\n      tag_18\n        /* \"#utility.yul\":170:175   */\n      dup3\n        /* \"#utility.yul\":152:176   */\n      tag_15\n      jump\t// in\n    tag_18:\n        /* \"#utility.yul\":143:176   */\n      swap2\n      pop\n        /* \"#utility.yul\":198:264   */\n      0xffffffffffffffffffffffffffffffffffffffffffffffffffffffffffffffff\n        /* \"#utility.yul\":191:196   */\n      dup3\n        /* \"#utility.yul\":188:265   */\n      eq\n        /* \"#utility.yul\":185:288   */\n      iszero\n      tag_19\n      jumpi\n        /* \"#utility.yul\":268:286   */\n      tag_20\n      tag_21\n      jump\t// in\n    tag_20:\n        /* \"#utility.yul\":185:288   */\n    tag_19:\n        /* \"#utility.yul\":315:316   */\n      0x01\n        /* \"#utility.yul\":308:313   */\n      dup3\n        /* \"#utility.yul\":304:317   */\n      add\n        /* \"#utility.yul\":297:317   */\n      swap1\n      pop\n        /* \"#utility.yul\":90:323   */\n      swap2\n      swap1\n      pop\n      jump\t// out\n        /* \"#utility.yul\":329:509   */\n    tag_21:\n        /* \"#utility.yul\":377:454   */\n      0x4e487b7100000000000000000000000000000000000000000000000000000000\n        /* \"#utility.yul\":374:375   */\n      0x00\n        /* \"#utility.yul\":367:455   */\n      mstore\n        /* \"#utility.yul\":474:478   */\n      0x11\n        /* \"#utility.yul\":471:472   */\n      0x04\n        /* \"#utility.yul\":464:479   */\n      mstore\n        /* \"#utility.yul\":498:502   */\n      0x24\n        /* \"#utility.yul\":495:496   */\n      0x00\n        /* \"#utility.yul\":488:503   */\n      revert\n\n    auxdata: 0xa26469706673582212205444cc0ecf9675d9e366388f46ad668f9c16c893142dd0429018b75088a80e2d64736f6c63430008070033\n}\n",
				"bytecode": {
					"linkReferences": {},
					"object": "608060405234801561001057600080fd5b50610117806100206000396000f3fe6080604052348015600f57600080fd5b506004361060285760003560e01c8063faee1d3a14602d575b600080fd5b60336035565b005b6000600190505b600a81101560615760038114156050576051565b5b8080605a90606e565b915050603c565b50565b6000819050919050565b60006077826064565b91507fffffffffffffffffffffffffffffffffffffffffffffffffffffffffffffffff82141560a75760a660b2565b5b600182019050919050565b7f4e487b7100000000000000000000000000000000000000000000000000000000600052601160045260246000fdfea26469706673582212205444cc0ecf9675d9e366388f46ad668f9c16c893142dd0429018b75088a80e2d64736f6c63430008070033",
					"opcodes": "PUSH1 0x80 PUSH1 0x40 MSTORE CALLVALUE DUP1 ISZERO PUSH2 0x10 JUMPI PUSH1 0x0 DUP1 REVERT JUMPDEST POP PUSH2 0x117 DUP1 PUSH2 0x20 PUSH1 0x0 CODECOPY PUSH1 0x0 RETURN INVALID PUSH1 0x80 PUSH1 0x40 MSTORE CALLVALUE DUP1 ISZERO PUSH1 0xF JUMPI PUSH1 0x0 DUP1 REVERT JUMPDEST POP PUSH1 0x4 CALLDATASIZE LT PUSH1 0x28 JUMPI PUSH1 0x0 CALLDATALOAD PUSH1 0xE0 SHR DUP1 PUSH4 0xFAEE1D3A EQ PUSH1 0x2D JUMPI JUMPDEST PUSH1 0x0 DUP1 REVERT JUMPDEST PUSH1 0x33 PUSH1 0x35 JUMP JUMPDEST STOP JUMPDEST PUSH1 0x0 PUSH1 0x1 SWAP1 POP JUMPDEST PUSH1 0xA DUP2 LT ISZERO PUSH1 0x61 JUMPI PUSH1 0x3 DUP2 EQ ISZERO PUSH1 0x50 JUMPI PUSH1 0x51 JUMP JUMPDEST JUMPDEST DUP1 DUP1 PUSH1 0x5A SWAP1 PUSH1 0x6E JUMP JUMPDEST SWAP2 POP POP PUSH1 0x3C JUMP JUMPDEST POP JUMP JUMPDEST PUSH1 0x0 DUP2 SWAP1 POP SWAP2 SWAP1 POP JUMP JUMPDEST PUSH1 0x0 PUSH1 0x77 DUP3 PUSH1 0x64 JUMP JUMPDEST SWAP2 POP PUSH32 0xFFFFFFFFFFFFFFFFFFFFFFFFFFFFFFFFFFFFFFFFFFFFFFFFFFFFFFFFFFFFFFFF DUP3 EQ ISZERO PUSH1 0xA7 JUMPI PUSH1 0xA6 PUSH1 0xB2 JUMP JUMPDEST JUMPDEST PUSH1 0x1 DUP3 ADD SWAP1 POP SWAP2 SWAP1 POP JUMP JUMPDEST PUSH32 0x4E487B7100000000000000000000000000000000000000000000000000000000 PUSH1 0x0 MSTORE PUSH1 0x11 PUSH1 0x4 MSTORE PUSH1 0x24 PUSH1 0x0 REVERT INVALID LOG2 PUSH5 0x6970667358 0x22 SLT KECCAK256 SLOAD DIFFICULTY 0xCC 0xE 0xCF SWAP7 PUSH22 0xD9E366388F46AD668F9C16C893142DD0429018B75088 0xA8 0xE 0x2D PUSH5 0x736F6C6343 STOP ADDMOD SMOD STOP CALLER "
				},
				"gasEstimates": {
					"creation": {
						"codeDepositCost": "55800",
						"executionCost": "105",
						"totalCost": "55905"
					},
					"external": {
						"Loops()": "infinite"
					}
				},
				"methodIdentifiers": {
					"Loops()": "faee1d3a"
				}
			},
			"storageLayout": {
				"storage": [],
				"types": null
			},
			"userdoc": {
				"kind": "user",
				"methods": {},
				"version": 1
			}
		}
	}
}