{
	"Day55_Reentracy.sol": {
		"EtherStore": {
			"abi": [
				{
					"inputs": [
						{
							"internalType": "address",
							"name": "",
							"type": "address"
						}
					],
					"name": "balances",
					"outputs": [
						{
							"internalType": "uint256",
							"name": "",
							"type": "uint256"
						}
					],
					"stateMutability": "view",
					"type": "function"
				},
				{
					"inputs": [
						{
							"internalType": "uint256",
							"name": "_amount",
							"type": "uint256"
						}
					],
					"name": "deposit",
					"outputs": [],
					"stateMutability": "payable",
					"type": "function"
				}
			],
			"devdoc": {
				"kind": "dev",
				"methods": {},
				"version": 1
			},
			"evm": {
				"assembly": "    /* \"Day55_Reentracy.sol\":58:234  contract EtherStore {... */\n  mstore(0x40, 0x80)\n  callvalue\n  dup1\n  iszero\n  tag_1\n  jumpi\n  0x00\n  dup1\n  revert\ntag_1:\n  pop\n  dataSize(sub_0)\n  dup1\n  dataOffset(sub_0)\n  0x00\n  codecopy\n  0x00\n  return\nstop\n\nsub_0: assembly {\n        /* \"Day55_Reentracy.sol\":58:234  contract EtherStore {... */\n      mstore(0x40, 0x80)\n      jumpi(tag_1, lt(calldatasize, 0x04))\n      shr(0xe0, calldataload(0x00))\n      dup1\n      0x27e235e3\n      eq\n      tag_2\n      jumpi\n      dup1\n      0xb6b55f25\n      eq\n      tag_3\n      jumpi\n    tag_1:\n      0x00\n      dup1\n      revert\n        /* \"Day55_Reentracy.sol\":84:124  mapping(address => uint) public balances */\n    tag_2:\n      callvalue\n      dup1\n      iszero\n      tag_4\n      jumpi\n      0x00\n      dup1\n      revert\n    tag_4:\n      pop\n      tag_5\n      0x04\n      dup1\n      calldatasize\n      sub\n      dup2\n      add\n      swap1\n      tag_6\n      swap2\n      swap1\n      tag_7\n      jump\t// in\n    tag_6:\n      tag_8\n      jump\t// in\n    tag_5:\n      mload(0x40)\n      tag_9\n      swap2\n      swap1\n      tag_10\n      jump\t// in\n    tag_9:\n      mload(0x40)\n      dup1\n      swap2\n      sub\n      swap1\n      return\n        /* \"Day55_Reentracy.sol\":131:226  function deposit(uint _amount) public payable {... */\n    tag_3:\n      tag_11\n      0x04\n      dup1\n      calldatasize\n      sub\n      dup2\n      add\n      swap1\n      tag_12\n      swap2\n      swap1\n      tag_13\n      jump\t// in\n    tag_12:\n      tag_14\n      jump\t// in\n    tag_11:\n      stop\n        /* \"Day55_Reentracy.sol\":84:124  mapping(address => uint) public balances */\n    tag_8:\n      mstore(0x20, 0x00)\n      dup1\n      0x00\n      mstore\n      keccak256(0x00, 0x40)\n      0x00\n      swap2\n      pop\n      swap1\n      pop\n      sload\n      dup2\n      jump\t// out\n        /* \"Day55_Reentracy.sol\":131:226  function deposit(uint _amount) public payable {... */\n    tag_14:\n        /* \"Day55_Reentracy.sol\":210:219  msg.value */\n      callvalue\n        /* \"Day55_Reentracy.sol\":187:195  balances */\n      0x00\n        /* \"Day55_Reentracy.sol\":187:207  balances[msg.sender] */\n      dup1\n        /* \"Day55_Reentracy.sol\":196:206  msg.sender */\n      caller\n        /* \"Day55_Reentracy.sol\":187:207  balances[msg.sender] */\n      0xffffffffffffffffffffffffffffffffffffffff\n      and\n      0xffffffffffffffffffffffffffffffffffffffff\n      and\n      dup2\n      mstore\n      0x20\n      add\n      swap1\n      dup2\n      mstore\n      0x20\n      add\n      0x00\n      keccak256\n        /* \"Day55_Reentracy.sol\":187:219  balances[msg.sender] = msg.value */\n      dup2\n      swap1\n      sstore\n      pop\n        /* \"Day55_Reentracy.sol\":131:226  function deposit(uint _amount) public payable {... */\n      pop\n      jump\t// out\n        /* \"#utility.yul\":7:146   */\n    tag_17:\n        /* \"#utility.yul\":53:58   */\n      0x00\n        /* \"#utility.yul\":91:97   */\n      dup2\n        /* \"#utility.yul\":78:98   */\n      calldataload\n        /* \"#utility.yul\":69:98   */\n      swap1\n      pop\n        /* \"#utility.yul\":107:140   */\n      tag_19\n        /* \"#utility.yul\":134:139   */\n      dup2\n        /* \"#utility.yul\":107:140   */\n      tag_20\n      jump\t// in\n    tag_19:\n        /* \"#utility.yul\":7:146   */\n      swap3\n      swap2\n      pop\n      pop\n      jump\t// out\n        /* \"#utility.yul\":152:291   */\n    tag_21:\n        /* \"#utility.yul\":198:203   */\n      0x00\n        /* \"#utility.yul\":236:242   */\n      dup2\n        /* \"#utility.yul\":223:243   */\n      calldataload\n        /* \"#utility.yul\":214:243   */\n      swap1\n      pop\n        /* \"#utility.yul\":252:285   */\n      tag_23\n        /* \"#utility.yul\":279:284   */\n      dup2\n        /* \"#utility.yul\":252:285   */\n      tag_24\n      jump\t// in\n    tag_23:\n        /* \"#utility.yul\":152:291   */\n      swap3\n      swap2\n      pop\n      pop\n      jump\t// out\n        /* \"#utility.yul\":297:626   */\n    tag_7:\n        /* \"#utility.yul\":356:362   */\n      0x00\n        /* \"#utility.yul\":405:407   */\n      0x20\n        /* \"#utility.yul\":393:402   */\n      dup3\n        /* \"#utility.yul\":384:391   */\n      dup5\n        /* \"#utility.yul\":380:403   */\n      sub\n        /* \"#utility.yul\":376:408   */\n      slt\n        /* \"#utility.yul\":373:492   */\n      iszero\n      tag_26\n      jumpi\n        /* \"#utility.yul\":411:490   */\n      tag_27\n      tag_28\n      jump\t// in\n    tag_27:\n        /* \"#utility.yul\":373:492   */\n    tag_26:\n        /* \"#utility.yul\":531:532   */\n      0x00\n        /* \"#utility.yul\":556:609   */\n      tag_29\n        /* \"#utility.yul\":601:608   */\n      dup5\n        /* \"#utility.yul\":592:598   */\n      dup3\n        /* \"#utility.yul\":581:590   */\n      dup6\n        /* \"#utility.yul\":577:599   */\n      add\n        /* \"#utility.yul\":556:609   */\n      tag_17\n      jump\t// in\n    tag_29:\n        /* \"#utility.yul\":546:609   */\n      swap2\n      pop\n        /* \"#utility.yul\":502:619   */\n      pop\n        /* \"#utility.yul\":297:626   */\n      swap3\n      swap2\n      pop\n      pop\n      jump\t// out\n        /* \"#utility.yul\":632:961   */\n    tag_13:\n        /* \"#utility.yul\":691:697   */\n      0x00\n        /* \"#utility.yul\":740:742   */\n      0x20\n        /* \"#utility.yul\":728:737   */\n      dup3\n        /* \"#utility.yul\":719:726   */\n      dup5\n        /* \"#utility.yul\":715:738   */\n      sub\n        /* \"#utility.yul\":711:743   */\n      slt\n        /* \"#utility.yul\":708:827   */\n      iszero\n      tag_31\n      jumpi\n        /* \"#utility.yul\":746:825   */\n      tag_32\n      tag_28\n      jump\t// in\n    tag_32:\n        /* \"#utility.yul\":708:827   */\n    tag_31:\n        /* \"#utility.yul\":866:867   */\n      0x00\n        /* \"#utility.yul\":891:944   */\n      tag_33\n        /* \"#utility.yul\":936:943   */\n      dup5\n        /* \"#utility.yul\":927:933   */\n      dup3\n        /* \"#utility.yul\":916:925   */\n      dup6\n        /* \"#utility.yul\":912:934   */\n      add\n        /* \"#utility.yul\":891:944   */\n      tag_21\n      jump\t// in\n    tag_33:\n        /* \"#utility.yul\":881:944   */\n      swap2\n      pop\n        /* \"#utility.yul\":837:954   */\n      pop\n        /* \"#utility.yul\":632:961   */\n      swap3\n      swap2\n      pop\n      pop\n      jump\t// out\n        /* \"#utility.yul\":967:1085   */\n    tag_34:\n        /* \"#utility.yul\":1054:1078   */\n      tag_36\n        /* \"#utility.yul\":1072:1077   */\n      dup2\n        /* \"#utility.yul\":1054:1078   */\n      tag_37\n      jump\t// in\n    tag_36:\n        /* \"#utility.yul\":1049:1052   */\n      dup3\n        /* \"#utility.yul\":1042:1079   */\n      mstore\n        /* \"#utility.yul\":967:1085   */\n      pop\n      pop\n      jump\t// out\n        /* \"#utility.yul\":1091:1313   */\n    tag_10:\n        /* \"#utility.yul\":1184:1188   */\n      0x00\n        /* \"#utility.yul\":1222:1224   */\n      0x20\n        /* \"#utility.yul\":1211:1220   */\n      dup3\n        /* \"#utility.yul\":1207:1225   */\n      add\n        /* \"#utility.yul\":1199:1225   */\n      swap1\n      pop\n        /* \"#utility.yul\":1235:1306   */\n      tag_39\n        /* \"#utility.yul\":1303:1304   */\n      0x00\n        /* \"#utility.yul\":1292:1301   */\n      dup4\n        /* \"#utility.yul\":1288:1305   */\n      add\n        /* \"#utility.yul\":1279:1285   */\n      dup5\n        /* \"#utility.yul\":1235:1306   */\n      tag_34\n      jump\t// in\n    tag_39:\n        /* \"#utility.yul\":1091:1313   */\n      swap3\n      swap2\n      pop\n      pop\n      jump\t// out\n        /* \"#utility.yul\":1400:1496   */\n    tag_42:\n        /* \"#utility.yul\":1437:1444   */\n      0x00\n        /* \"#utility.yul\":1466:1490   */\n      tag_44\n        /* \"#utility.yul\":1484:1489   */\n      dup3\n        /* \"#utility.yul\":1466:1490   */\n      tag_45\n      jump\t// in\n    tag_44:\n        /* \"#utility.yul\":1455:1490   */\n      swap1\n      pop\n        /* \"#utility.yul\":1400:1496   */\n      swap2\n      swap1\n      pop\n      jump\t// out\n        /* \"#utility.yul\":1502:1628   */\n    tag_45:\n        /* \"#utility.yul\":1539:1546   */\n      0x00\n        /* \"#utility.yul\":1579:1621   */\n      0xffffffffffffffffffffffffffffffffffffffff\n        /* \"#utility.yul\":1572:1577   */\n      dup3\n        /* \"#utility.yul\":1568:1622   */\n      and\n        /* \"#utility.yul\":1557:1622   */\n      swap1\n      pop\n        /* \"#utility.yul\":1502:1628   */\n      swap2\n      swap1\n      pop\n      jump\t// out\n        /* \"#utility.yul\":1634:1711   */\n    tag_37:\n        /* \"#utility.yul\":1671:1678   */\n      0x00\n        /* \"#utility.yul\":1700:1705   */\n      dup2\n        /* \"#utility.yul\":1689:1705   */\n      swap1\n      pop\n        /* \"#utility.yul\":1634:1711   */\n      swap2\n      swap1\n      pop\n      jump\t// out\n        /* \"#utility.yul\":1840:1957   */\n    tag_28:\n        /* \"#utility.yul\":1949:1950   */\n      0x00\n        /* \"#utility.yul\":1946:1947   */\n      dup1\n        /* \"#utility.yul\":1939:1951   */\n      revert\n        /* \"#utility.yul\":1963:2085   */\n    tag_20:\n        /* \"#utility.yul\":2036:2060   */\n      tag_52\n        /* \"#utility.yul\":2054:2059   */\n      dup2\n        /* \"#utility.yul\":2036:2060   */\n      tag_42\n      jump\t// in\n    tag_52:\n        /* \"#utility.yul\":2029:2034   */\n      dup2\n        /* \"#utility.yul\":2026:2061   */\n      eq\n        /* \"#utility.yul\":2016:2079   */\n      tag_53\n      jumpi\n        /* \"#utility.yul\":2075:2076   */\n      0x00\n        /* \"#utility.yul\":2072:2073   */\n      dup1\n        /* \"#utility.yul\":2065:2077   */\n      revert\n        /* \"#utility.yul\":2016:2079   */\n    tag_53:\n        /* \"#utility.yul\":1963:2085   */\n      pop\n      jump\t// out\n        /* \"#utility.yul\":2091:2213   */\n    tag_24:\n        /* \"#utility.yul\":2164:2188   */\n      tag_55\n        /* \"#utility.yul\":2182:2187   */\n      dup2\n        /* \"#utility.yul\":2164:2188   */\n      tag_37\n      jump\t// in\n    tag_55:\n        /* \"#utility.yul\":2157:2162   */\n      dup2\n        /* \"#utility.yul\":2154:2189   */\n      eq\n        /* \"#utility.yul\":2144:2207   */\n      tag_56\n      jumpi\n        /* \"#utility.yul\":2203:2204   */\n      0x00\n        /* \"#utility.yul\":2200:2201   */\n      dup1\n        /* \"#utility.yul\":2193:2205   */\n      revert\n        /* \"#utility.yul\":2144:2207   */\n    tag_56:\n        /* \"#utility.yul\":2091:2213   */\n      pop\n      jump\t// out\n\n    auxdata: 0xa2646970667358221220295f48a88eb350c4c0ba0c2a5b30f0cdfa0d1260c647e7c3a685bbd9a3ed276064736f6c63430008070033\n}\n",
				"bytecode": {
					"linkReferences": {},
					"object": "608060405234801561001057600080fd5b50610238806100206000396000f3fe6080604052600436106100295760003560e01c806327e235e31461002e578063b6b55f251461006b575b600080fd5b34801561003a57600080fd5b506100556004803603810190610050919061010f565b610087565b6040516100629190610178565b60405180910390f35b6100856004803603810190610080919061013c565b61009f565b005b60006020528060005260406000206000915090505481565b346000803373ffffffffffffffffffffffffffffffffffffffff1673ffffffffffffffffffffffffffffffffffffffff1681526020019081526020016000208190555050565b6000813590506100f4816101d4565b92915050565b600081359050610109816101eb565b92915050565b600060208284031215610125576101246101cf565b5b6000610133848285016100e5565b91505092915050565b600060208284031215610152576101516101cf565b5b6000610160848285016100fa565b91505092915050565b610172816101c5565b82525050565b600060208201905061018d6000830184610169565b92915050565b600061019e826101a5565b9050919050565b600073ffffffffffffffffffffffffffffffffffffffff82169050919050565b6000819050919050565b600080fd5b6101dd81610193565b81146101e857600080fd5b50565b6101f4816101c5565b81146101ff57600080fd5b5056fea2646970667358221220295f48a88eb350c4c0ba0c2a5b30f0cdfa0d1260c647e7c3a685bbd9a3ed276064736f6c63430008070033",
					"opcodes": "PUSH1 0x80 PUSH1 0x40 MSTORE CALLVALUE DUP1 ISZERO PUSH2 0x10 JUMPI PUSH1 0x0 DUP1 REVERT JUMPDEST POP PUSH2 0x238 DUP1 PUSH2 0x20 PUSH1 0x0 CODECOPY PUSH1 0x0 RETURN INVALID PUSH1 0x80 PUSH1 0x40 MSTORE PUSH1 0x4 CALLDATASIZE LT PUSH2 0x29 JUMPI PUSH1 0x0 CALLDATALOAD PUSH1 0xE0 SHR DUP1 PUSH4 0x27E235E3 EQ PUSH2 0x2E JUMPI DUP1 PUSH4 0xB6B55F25 EQ PUSH2 0x6B JUMPI JUMPDEST PUSH1 0x0 DUP1 REVERT JUMPDEST CALLVALUE DUP1 ISZERO PUSH2 0x3A JUMPI PUSH1 0x0 DUP1 REVERT JUMPDEST POP PUSH2 0x55 PUSH1 0x4 DUP1 CALLDATASIZE SUB DUP2 ADD SWAP1 PUSH2 0x50 SWAP2 SWAP1 PUSH2 0x10F JUMP JUMPDEST PUSH2 0x87 JUMP JUMPDEST PUSH1 0x40 MLOAD PUSH2 0x62 SWAP2 SWAP1 PUSH2 0x178 JUMP JUMPDEST PUSH1 0x40 MLOAD DUP1 SWAP2 SUB SWAP1 RETURN JUMPDEST PUSH2 0x85 PUSH1 0x4 DUP1 CALLDATASIZE SUB DUP2 ADD SWAP1 PUSH2 0x80 SWAP2 SWAP1 PUSH2 0x13C JUMP JUMPDEST PUSH2 0x9F JUMP JUMPDEST STOP JUMPDEST PUSH1 0x0 PUSH1 0x20 MSTORE DUP1 PUSH1 0x0 MSTORE PUSH1 0x40 PUSH1 0x0 KECCAK256 PUSH1 0x0 SWAP2 POP SWAP1 POP SLOAD DUP2 JUMP JUMPDEST CALLVALUE PUSH1 0x0 DUP1 CALLER PUSH20 0xFFFFFFFFFFFFFFFFFFFFFFFFFFFFFFFFFFFFFFFF AND PUSH20 0xFFFFFFFFFFFFFFFFFFFFFFFFFFFFFFFFFFFFFFFF AND DUP2 MSTORE PUSH1 0x20 ADD SWAP1 DUP2 MSTORE PUSH1 0x20 ADD PUSH1 0x0 KECCAK256 DUP2 SWAP1 SSTORE POP POP JUMP JUMPDEST PUSH1 0x0 DUP2 CALLDATALOAD SWAP1 POP PUSH2 0xF4 DUP2 PUSH2 0x1D4 JUMP JUMPDEST SWAP3 SWAP2 POP POP JUMP JUMPDEST PUSH1 0x0 DUP2 CALLDATALOAD SWAP1 POP PUSH2 0x109 DUP2 PUSH2 0x1EB JUMP JUMPDEST SWAP3 SWAP2 POP POP JUMP JUMPDEST PUSH1 0x0 PUSH1 0x20 DUP3 DUP5 SUB SLT ISZERO PUSH2 0x125 JUMPI PUSH2 0x124 PUSH2 0x1CF JUMP JUMPDEST JUMPDEST PUSH1 0x0 PUSH2 0x133 DUP5 DUP3 DUP6 ADD PUSH2 0xE5 JUMP JUMPDEST SWAP2 POP POP SWAP3 SWAP2 POP POP JUMP JUMPDEST PUSH1 0x0 PUSH1 0x20 DUP3 DUP5 SUB SLT ISZERO PUSH2 0x152 JUMPI PUSH2 0x151 PUSH2 0x1CF JUMP JUMPDEST JUMPDEST PUSH1 0x0 PUSH2 0x160 DUP5 DUP3 DUP6 ADD PUSH2 0xFA JUMP JUMPDEST SWAP2 POP POP SWAP3 SWAP2 POP POP JUMP JUMPDEST PUSH2 0x172 DUP2 PUSH2 0x1C5 JUMP JUMPDEST DUP3 MSTORE POP POP JUMP JUMPDEST PUSH1 0x0 PUSH1 0x20 DUP3 ADD SWAP1 POP PUSH2 0x18D PUSH1 0x0 DUP4 ADD DUP5 PUSH2 0x169 JUMP JUMPDEST SWAP3 SWAP2 POP POP JUMP JUMPDEST PUSH1 0x0 PUSH2 0x19E DUP3 PUSH2 0x1A5 JUMP JUMPDEST SWAP1 POP SWAP2 SWAP1 POP JUMP JUMPDEST PUSH1 0x0 PUSH20 0xFFFFFFFFFFFFFFFFFFFFFFFFFFFFFFFFFFFFFFFF DUP3 AND SWAP1 POP SWAP2 SWAP1 POP JUMP JUMPDEST PUSH1 0x0 DUP2 SWAP1 POP SWAP2 SWAP1 POP JUMP JUMPDEST PUSH1 0x0 DUP1 REVERT JUMPDEST PUSH2 0x1DD DUP2 PUSH2 0x193 JUMP JUMPDEST DUP2 EQ PUSH2 0x1E8 JUMPI PUSH1 0x0 DUP1 REVERT JUMPDEST POP JUMP JUMPDEST PUSH2 0x1F4 DUP2 PUSH2 0x1C5 JUMP JUMPDEST DUP2 EQ PUSH2 0x1FF JUMPI PUSH1 0x0 DUP1 REVERT JUMPDEST POP JUMP INVALID LOG2 PUSH5 0x6970667358 0x22 SLT KECCAK256 0x29 0x5F BASEFEE 0xA8 DUP15 0xB3 POP 0xC4 0xC0 0xBA 0xC 0x2A JUMPDEST ADDRESS CREATE 0xCD STATICCALL 0xD SLT PUSH1 0xC6 SELFBALANCE 0xE7 0xC3 0xA6 DUP6 0xBB 0xD9 LOG3 0xED 0x27 PUSH1 0x64 PUSH20 0x6F6C634300080700330000000000000000000000 "
				},
				"gasEstimates": {
					"creation": {
						"codeDepositCost": "113600",
						"executionCost": "159",
						"totalCost": "113759"
					},
					"external": {
						"balances(address)": "2792",
						"deposit(uint256)": "22584"
					}
				},
				"methodIdentifiers": {
					"balances(address)": "27e235e3",
					"deposit(uint256)": "b6b55f25"
				}
			},
			"storageLayout": {
				"storage": [
					{
						"astId": 5,
						"contract": "Day55_Reentracy.sol:EtherStore",
						"label": "balances",
						"offset": 0,
						"slot": "0",
						"type": "t_mapping(t_address,t_uint256)"
					}
				],
				"types": {
					"t_address": {
						"encoding": "inplace",
						"label": "address",
						"numberOfBytes": "20"
					},
					"t_mapping(t_address,t_uint256)": {
						"encoding": "mapping",
						"key": "t_address",
						"label": "mapping(address => uint256)",
						"numberOfBytes": "32",
						"value": "t_uint256"
					},
					"t_uint256": {
						"encoding": "inplace",
						"label": "uint256",
						"numberOfBytes": "32"
					}
				}
			},
			"userdoc": {
				"kind": "user",
				"methods": {},
				"version": 1
			}
		}
	}
}