{
	"Day42_Sig.sol": {
		"VerifySig": {
			"abi": [
				{
					"inputs": [
						{
							"internalType": "bytes32",
							"name": "_messageHash",
							"type": "bytes32"
						}
					],
					"name": "getEthSignMessageHash",
					"outputs": [
						{
							"internalType": "bytes32",
							"name": "",
							"type": "bytes32"
						}
					],
					"stateMutability": "pure",
					"type": "function"
				},
				{
					"inputs": [
						{
							"internalType": "string",
							"name": "_message",
							"type": "string"
						}
					],
					"name": "getMessageHash",
					"outputs": [
						{
							"internalType": "bytes32",
							"name": "",
							"type": "bytes32"
						}
					],
					"stateMutability": "pure",
					"type": "function"
				},
				{
					"inputs": [
						{
							"internalType": "bytes32",
							"name": "_ethSignedMessageHash",
							"type": "bytes32"
						},
						{
							"internalType": "bytes",
							"name": "_sig",
							"type": "bytes"
						}
					],
					"name": "recover",
					"outputs": [
						{
							"internalType": "address",
							"name": "",
							"type": "address"
						}
					],
					"stateMutability": "pure",
					"type": "function"
				},
				{
					"inputs": [
						{
							"internalType": "address",
							"name": "_signer",
							"type": "address"
						},
						{
							"internalType": "string",
							"name": "_message",
							"type": "string"
						},
						{
							"internalType": "bytes",
							"name": "_sig",
							"type": "bytes"
						}
					],
					"name": "verify",
					"outputs": [
						{
							"internalType": "bool",
							"name": "",
							"type": "bool"
						}
					],
					"stateMutability": "pure",
					"type": "function"
				}
			],
			"devdoc": {
				"kind": "dev",
				"methods": {},
				"version": 1
			},
			"evm": {
				"assembly": "    /* \"Day42_Sig.sol\":58:1119  contract VerifySig {... */\n  mstore(0x40, 0x80)\n  callvalue\n  dup1\n  iszero\n  tag_1\n  jumpi\n  0x00\n  dup1\n  revert\ntag_1:\n  pop\n  dataSize(sub_0)\n  dup1\n  dataOffset(sub_0)\n  0x00\n  codecopy\n  0x00\n  return\nstop\n\nsub_0: assembly {\n        /* \"Day42_Sig.sol\":58:1119  contract VerifySig {... */\n      mstore(0x40, 0x80)\n      callvalue\n      dup1\n      iszero\n      tag_1\n      jumpi\n      0x00\n      dup1\n      revert\n    tag_1:\n      pop\n      jumpi(tag_2, lt(calldatasize, 0x04))\n      shr(0xe0, calldataload(0x00))\n      dup1\n      0x19045a25\n      eq\n      tag_3\n      jumpi\n      dup1\n      0x2dd34f0f\n      eq\n      tag_4\n      jumpi\n      dup1\n      0x3f63bc39\n      eq\n      tag_5\n      jumpi\n      dup1\n      0xb446f3b2\n      eq\n      tag_6\n      jumpi\n    tag_2:\n      0x00\n      dup1\n      revert\n        /* \"Day42_Sig.sol\":732:951  function recover (bytes32 _ethSignedMessageHash, bytes memory _sig) public pure returns (address) {... */\n    tag_3:\n      tag_7\n      0x04\n      dup1\n      calldatasize\n      sub\n      dup2\n      add\n      swap1\n      tag_8\n      swap2\n      swap1\n      tag_9\n      jump\t// in\n    tag_8:\n      tag_10\n      jump\t// in\n    tag_7:\n      mload(0x40)\n      tag_11\n      swap2\n      swap1\n      tag_12\n      jump\t// in\n    tag_11:\n      mload(0x40)\n      dup1\n      swap2\n      sub\n      swap1\n      return\n        /* \"Day42_Sig.sol\":83:390  function verify(address _signer, string memory _message, bytes memory _sig) external pure returns (bool) {... */\n    tag_4:\n      tag_13\n      0x04\n      dup1\n      calldatasize\n      sub\n      dup2\n      add\n      swap1\n      tag_14\n      swap2\n      swap1\n      tag_15\n      jump\t// in\n    tag_14:\n      tag_16\n      jump\t// in\n    tag_13:\n      mload(0x40)\n      tag_17\n      swap2\n      swap1\n      tag_18\n      jump\t// in\n    tag_17:\n      mload(0x40)\n      dup1\n      swap2\n      sub\n      swap1\n      return\n        /* \"Day42_Sig.sol\":541:726  function getEthSignMessageHash (bytes32 _messageHash) public pure returns (bytes32) {... */\n    tag_5:\n      tag_19\n      0x04\n      dup1\n      calldatasize\n      sub\n      dup2\n      add\n      swap1\n      tag_20\n      swap2\n      swap1\n      tag_21\n      jump\t// in\n    tag_20:\n      tag_22\n      jump\t// in\n    tag_19:\n      mload(0x40)\n      tag_23\n      swap2\n      swap1\n      tag_24\n      jump\t// in\n    tag_23:\n      mload(0x40)\n      dup1\n      swap2\n      sub\n      swap1\n      return\n        /* \"Day42_Sig.sol\":396:535  function getMessageHash(string memory _message) public pure returns (bytes32) {... */\n    tag_6:\n      tag_25\n      0x04\n      dup1\n      calldatasize\n      sub\n      dup2\n      add\n      swap1\n      tag_26\n      swap2\n      swap1\n      tag_27\n      jump\t// in\n    tag_26:\n      tag_28\n      jump\t// in\n    tag_25:\n      mload(0x40)\n      tag_29\n      swap2\n      swap1\n      tag_24\n      jump\t// in\n    tag_29:\n      mload(0x40)\n      dup1\n      swap2\n      sub\n      swap1\n      return\n        /* \"Day42_Sig.sol\":732:951  function recover (bytes32 _ethSignedMessageHash, bytes memory _sig) public pure returns (address) {... */\n    tag_10:\n        /* \"Day42_Sig.sol\":821:828  address */\n      0x00\n        /* \"Day42_Sig.sol\":841:850  bytes32 r */\n      dup1\n        /* \"Day42_Sig.sol\":852:861  bytes32 s */\n      0x00\n        /* \"Day42_Sig.sol\":864:871  uint8 v */\n      dup1\n        /* \"Day42_Sig.sol\":875:887  _split(_sig) */\n      tag_31\n        /* \"Day42_Sig.sol\":882:886  _sig */\n      dup6\n        /* \"Day42_Sig.sol\":875:881  _split */\n      tag_32\n        /* \"Day42_Sig.sol\":875:887  _split(_sig) */\n      jump\t// in\n    tag_31:\n        /* \"Day42_Sig.sol\":840:887  (bytes32 r, bytes32 s , uint8 v) = _split(_sig) */\n      swap3\n      pop\n      swap3\n      pop\n      swap3\n      pop\n        /* \"Day42_Sig.sol\":905:944  ecrecover(_ethSignedMessageHash, v,r,s) */\n      0x01\n        /* \"Day42_Sig.sol\":915:936  _ethSignedMessageHash */\n      dup7\n        /* \"Day42_Sig.sol\":938:939  v */\n      dup3\n        /* \"Day42_Sig.sol\":940:941  r */\n      dup6\n        /* \"Day42_Sig.sol\":942:943  s */\n      dup6\n        /* \"Day42_Sig.sol\":905:944  ecrecover(_ethSignedMessageHash, v,r,s) */\n      mload(0x40)\n      0x00\n      dup2\n      mstore\n      0x20\n      add\n      0x40\n      mstore\n      mload(0x40)\n      tag_33\n      swap5\n      swap4\n      swap3\n      swap2\n      swap1\n      tag_34\n      jump\t// in\n    tag_33:\n      0x20\n      mload(0x40)\n      0x20\n      dup2\n      sub\n      swap1\n      dup1\n      dup5\n      sub\n      swap1\n      dup6\n      gas\n      staticcall\n      iszero\n      dup1\n      iszero\n      tag_36\n      jumpi\n      returndatasize\n      0x00\n      dup1\n      returndatacopy\n      revert(0x00, returndatasize)\n    tag_36:\n      pop\n      pop\n      pop\n      mload(sub(mload(0x40), 0x20))\n        /* \"Day42_Sig.sol\":897:944  return  ecrecover(_ethSignedMessageHash, v,r,s) */\n      swap4\n      pop\n      pop\n      pop\n      pop\n        /* \"Day42_Sig.sol\":732:951  function recover (bytes32 _ethSignedMessageHash, bytes memory _sig) public pure returns (address) {... */\n      swap3\n      swap2\n      pop\n      pop\n      jump\t// out\n        /* \"Day42_Sig.sol\":83:390  function verify(address _signer, string memory _message, bytes memory _sig) external pure returns (bool) {... */\n    tag_16:\n        /* \"Day42_Sig.sol\":182:186  bool */\n      0x00\n        /* \"Day42_Sig.sol\":198:217  bytes32 messageHash */\n      dup1\n        /* \"Day42_Sig.sol\":220:244  getMessageHash(_message) */\n      tag_38\n        /* \"Day42_Sig.sol\":235:243  _message */\n      dup5\n        /* \"Day42_Sig.sol\":220:234  getMessageHash */\n      tag_28\n        /* \"Day42_Sig.sol\":220:244  getMessageHash(_message) */\n      jump\t// in\n    tag_38:\n        /* \"Day42_Sig.sol\":198:244  bytes32 messageHash = getMessageHash(_message) */\n      swap1\n      pop\n        /* \"Day42_Sig.sol\":254:282  bytes32 ethSignedMessageHash */\n      0x00\n        /* \"Day42_Sig.sol\":285:319  getEthSignMessageHash(messageHash) */\n      tag_39\n        /* \"Day42_Sig.sol\":307:318  messageHash */\n      dup3\n        /* \"Day42_Sig.sol\":285:306  getEthSignMessageHash */\n      tag_22\n        /* \"Day42_Sig.sol\":285:319  getEthSignMessageHash(messageHash) */\n      jump\t// in\n    tag_39:\n        /* \"Day42_Sig.sol\":254:319  bytes32 ethSignedMessageHash = getEthSignMessageHash(messageHash) */\n      swap1\n      pop\n        /* \"Day42_Sig.sol\":376:383  _signer */\n      dup6\n        /* \"Day42_Sig.sol\":337:383  recover(ethSignedMessageHash, _sig) == _signer */\n      0xffffffffffffffffffffffffffffffffffffffff\n      and\n        /* \"Day42_Sig.sol\":337:372  recover(ethSignedMessageHash, _sig) */\n      tag_40\n        /* \"Day42_Sig.sol\":345:365  ethSignedMessageHash */\n      dup3\n        /* \"Day42_Sig.sol\":367:371  _sig */\n      dup7\n        /* \"Day42_Sig.sol\":337:344  recover */\n      tag_10\n        /* \"Day42_Sig.sol\":337:372  recover(ethSignedMessageHash, _sig) */\n      jump\t// in\n    tag_40:\n        /* \"Day42_Sig.sol\":337:383  recover(ethSignedMessageHash, _sig) == _signer */\n      0xffffffffffffffffffffffffffffffffffffffff\n      and\n      eq\n        /* \"Day42_Sig.sol\":330:383  return recover(ethSignedMessageHash, _sig) == _signer */\n      swap3\n      pop\n      pop\n      pop\n        /* \"Day42_Sig.sol\":83:390  function verify(address _signer, string memory _message, bytes memory _sig) external pure returns (bool) {... */\n      swap4\n      swap3\n      pop\n      pop\n      pop\n      jump\t// out\n        /* \"Day42_Sig.sol\":541:726  function getEthSignMessageHash (bytes32 _messageHash) public pure returns (bytes32) {... */\n    tag_22:\n        /* \"Day42_Sig.sol\":616:623  bytes32 */\n      0x00\n        /* \"Day42_Sig.sol\":705:717  _messageHash */\n      dup2\n        /* \"Day42_Sig.sol\":652:718  abi.encodePacked(\"\\x19Ethereum Signed Message:\\n32\", _messageHash) */\n      add(0x20, mload(0x40))\n      tag_42\n      swap2\n      swap1\n      tag_43\n      jump\t// in\n    tag_42:\n      mload(0x40)\n      0x20\n      dup2\n      dup4\n      sub\n      sub\n      dup2\n      mstore\n      swap1\n      0x40\n      mstore\n        /* \"Day42_Sig.sol\":642:719  keccak256(abi.encodePacked(\"\\x19Ethereum Signed Message:\\n32\", _messageHash)) */\n      dup1\n      mload\n      swap1\n      0x20\n      add\n      keccak256\n        /* \"Day42_Sig.sol\":635:719  return keccak256(abi.encodePacked(\"\\x19Ethereum Signed Message:\\n32\", _messageHash)) */\n      swap1\n      pop\n        /* \"Day42_Sig.sol\":541:726  function getEthSignMessageHash (bytes32 _messageHash) public pure returns (bytes32) {... */\n      swap2\n      swap1\n      pop\n      jump\t// out\n        /* \"Day42_Sig.sol\":396:535  function getMessageHash(string memory _message) public pure returns (bytes32) {... */\n    tag_28:\n        /* \"Day42_Sig.sol\":465:472  bytes32 */\n      0x00\n        /* \"Day42_Sig.sol\":518:526  _message */\n      dup2\n        /* \"Day42_Sig.sol\":501:527  abi.encodePacked(_message) */\n      add(0x20, mload(0x40))\n      tag_45\n      swap2\n      swap1\n      tag_46\n      jump\t// in\n    tag_45:\n      mload(0x40)\n      0x20\n      dup2\n      dup4\n      sub\n      sub\n      dup2\n      mstore\n      swap1\n      0x40\n      mstore\n        /* \"Day42_Sig.sol\":491:528  keccak256(abi.encodePacked(_message)) */\n      dup1\n      mload\n      swap1\n      0x20\n      add\n      keccak256\n        /* \"Day42_Sig.sol\":484:528  return keccak256(abi.encodePacked(_message)) */\n      swap1\n      pop\n        /* \"Day42_Sig.sol\":396:535  function getMessageHash(string memory _message) public pure returns (bytes32) {... */\n      swap2\n      swap1\n      pop\n      jump\t// out\n        /* \"Day42_Sig.sol\":957:1117  function _split(bytes memory _sig) internal pure returns (bytes32 r, bytes32 s, uint8 v) {... */\n    tag_32:\n        /* \"Day42_Sig.sol\":1015:1024  bytes32 r */\n      0x00\n        /* \"Day42_Sig.sol\":1026:1035  bytes32 s */\n      dup1\n        /* \"Day42_Sig.sol\":1037:1044  uint8 v */\n      0x00\n        /* \"Day42_Sig.sol\":1079:1081  65 */\n      0x41\n        /* \"Day42_Sig.sol\":1064:1068  _sig */\n      dup5\n        /* \"Day42_Sig.sol\":1064:1075  _sig.length */\n      mload\n        /* \"Day42_Sig.sol\":1064:1081  _sig.length == 65 */\n      eq\n        /* \"Day42_Sig.sol\":1056:1110  require(_sig.length == 65, \"invalid signature length\") */\n      tag_48\n      jumpi\n      mload(0x40)\n      0x08c379a000000000000000000000000000000000000000000000000000000000\n      dup2\n      mstore\n      0x04\n      add\n      tag_49\n      swap1\n      tag_50\n      jump\t// in\n    tag_49:\n      mload(0x40)\n      dup1\n      swap2\n      sub\n      swap1\n      revert\n    tag_48:\n        /* \"Day42_Sig.sol\":957:1117  function _split(bytes memory _sig) internal pure returns (bytes32 r, bytes32 s, uint8 v) {... */\n      swap2\n      swap4\n      swap1\n      swap3\n      pop\n      jump\t// out\n        /* \"#utility.yul\":7:417   */\n    tag_52:\n        /* \"#utility.yul\":84:89   */\n      0x00\n        /* \"#utility.yul\":109:174   */\n      tag_54\n        /* \"#utility.yul\":125:173   */\n      tag_55\n        /* \"#utility.yul\":166:172   */\n      dup5\n        /* \"#utility.yul\":125:173   */\n      tag_56\n      jump\t// in\n    tag_55:\n        /* \"#utility.yul\":109:174   */\n      tag_57\n      jump\t// in\n    tag_54:\n        /* \"#utility.yul\":100:174   */\n      swap1\n      pop\n        /* \"#utility.yul\":197:203   */\n      dup3\n        /* \"#utility.yul\":190:195   */\n      dup2\n        /* \"#utility.yul\":183:204   */\n      mstore\n        /* \"#utility.yul\":235:239   */\n      0x20\n        /* \"#utility.yul\":228:233   */\n      dup2\n        /* \"#utility.yul\":224:240   */\n      add\n        /* \"#utility.yul\":273:276   */\n      dup5\n        /* \"#utility.yul\":264:270   */\n      dup5\n        /* \"#utility.yul\":259:262   */\n      dup5\n        /* \"#utility.yul\":255:271   */\n      add\n        /* \"#utility.yul\":252:277   */\n      gt\n        /* \"#utility.yul\":249:361   */\n      iszero\n      tag_58\n      jumpi\n        /* \"#utility.yul\":280:359   */\n      tag_59\n      tag_60\n      jump\t// in\n    tag_59:\n        /* \"#utility.yul\":249:361   */\n    tag_58:\n        /* \"#utility.yul\":370:411   */\n      tag_61\n        /* \"#utility.yul\":404:410   */\n      dup5\n        /* \"#utility.yul\":399:402   */\n      dup3\n        /* \"#utility.yul\":394:397   */\n      dup6\n        /* \"#utility.yul\":370:411   */\n      tag_62\n      jump\t// in\n    tag_61:\n        /* \"#utility.yul\":90:417   */\n      pop\n        /* \"#utility.yul\":7:417   */\n      swap4\n      swap3\n      pop\n      pop\n      pop\n      jump\t// out\n        /* \"#utility.yul\":423:835   */\n    tag_63:\n        /* \"#utility.yul\":501:506   */\n      0x00\n        /* \"#utility.yul\":526:592   */\n      tag_65\n        /* \"#utility.yul\":542:591   */\n      tag_66\n        /* \"#utility.yul\":584:590   */\n      dup5\n        /* \"#utility.yul\":542:591   */\n      tag_67\n      jump\t// in\n    tag_66:\n        /* \"#utility.yul\":526:592   */\n      tag_57\n      jump\t// in\n    tag_65:\n        /* \"#utility.yul\":517:592   */\n      swap1\n      pop\n        /* \"#utility.yul\":615:621   */\n      dup3\n        /* \"#utility.yul\":608:613   */\n      dup2\n        /* \"#utility.yul\":601:622   */\n      mstore\n        /* \"#utility.yul\":653:657   */\n      0x20\n        /* \"#utility.yul\":646:651   */\n      dup2\n        /* \"#utility.yul\":642:658   */\n      add\n        /* \"#utility.yul\":691:694   */\n      dup5\n        /* \"#utility.yul\":682:688   */\n      dup5\n        /* \"#utility.yul\":677:680   */\n      dup5\n        /* \"#utility.yul\":673:689   */\n      add\n        /* \"#utility.yul\":670:695   */\n      gt\n        /* \"#utility.yul\":667:779   */\n      iszero\n      tag_68\n      jumpi\n        /* \"#utility.yul\":698:777   */\n      tag_69\n      tag_60\n      jump\t// in\n    tag_69:\n        /* \"#utility.yul\":667:779   */\n    tag_68:\n        /* \"#utility.yul\":788:829   */\n      tag_70\n        /* \"#utility.yul\":822:828   */\n      dup5\n        /* \"#utility.yul\":817:820   */\n      dup3\n        /* \"#utility.yul\":812:815   */\n      dup6\n        /* \"#utility.yul\":788:829   */\n      tag_62\n      jump\t// in\n    tag_70:\n        /* \"#utility.yul\":507:835   */\n      pop\n        /* \"#utility.yul\":423:835   */\n      swap4\n      swap3\n      pop\n      pop\n      pop\n      jump\t// out\n        /* \"#utility.yul\":841:980   */\n    tag_71:\n        /* \"#utility.yul\":887:892   */\n      0x00\n        /* \"#utility.yul\":925:931   */\n      dup2\n        /* \"#utility.yul\":912:932   */\n      calldataload\n        /* \"#utility.yul\":903:932   */\n      swap1\n      pop\n        /* \"#utility.yul\":941:974   */\n      tag_73\n        /* \"#utility.yul\":968:973   */\n      dup2\n        /* \"#utility.yul\":941:974   */\n      tag_74\n      jump\t// in\n    tag_73:\n        /* \"#utility.yul\":841:980   */\n      swap3\n      swap2\n      pop\n      pop\n      jump\t// out\n        /* \"#utility.yul\":986:1125   */\n    tag_75:\n        /* \"#utility.yul\":1032:1037   */\n      0x00\n        /* \"#utility.yul\":1070:1076   */\n      dup2\n        /* \"#utility.yul\":1057:1077   */\n      calldataload\n        /* \"#utility.yul\":1048:1077   */\n      swap1\n      pop\n        /* \"#utility.yul\":1086:1119   */\n      tag_77\n        /* \"#utility.yul\":1113:1118   */\n      dup2\n        /* \"#utility.yul\":1086:1119   */\n      tag_78\n      jump\t// in\n    tag_77:\n        /* \"#utility.yul\":986:1125   */\n      swap3\n      swap2\n      pop\n      pop\n      jump\t// out\n        /* \"#utility.yul\":1144:1482   */\n    tag_79:\n        /* \"#utility.yul\":1199:1204   */\n      0x00\n        /* \"#utility.yul\":1248:1251   */\n      dup3\n        /* \"#utility.yul\":1241:1245   */\n      0x1f\n        /* \"#utility.yul\":1233:1239   */\n      dup4\n        /* \"#utility.yul\":1229:1246   */\n      add\n        /* \"#utility.yul\":1225:1252   */\n      slt\n        /* \"#utility.yul\":1215:1337   */\n      tag_81\n      jumpi\n        /* \"#utility.yul\":1256:1335   */\n      tag_82\n      tag_83\n      jump\t// in\n    tag_82:\n        /* \"#utility.yul\":1215:1337   */\n    tag_81:\n        /* \"#utility.yul\":1373:1379   */\n      dup2\n        /* \"#utility.yul\":1360:1380   */\n      calldataload\n        /* \"#utility.yul\":1398:1476   */\n      tag_84\n        /* \"#utility.yul\":1472:1475   */\n      dup5\n        /* \"#utility.yul\":1464:1470   */\n      dup3\n        /* \"#utility.yul\":1457:1461   */\n      0x20\n        /* \"#utility.yul\":1449:1455   */\n      dup7\n        /* \"#utility.yul\":1445:1462   */\n      add\n        /* \"#utility.yul\":1398:1476   */\n      tag_52\n      jump\t// in\n    tag_84:\n        /* \"#utility.yul\":1389:1476   */\n      swap2\n      pop\n        /* \"#utility.yul\":1205:1482   */\n      pop\n        /* \"#utility.yul\":1144:1482   */\n      swap3\n      swap2\n      pop\n      pop\n      jump\t// out\n        /* \"#utility.yul\":1502:1842   */\n    tag_85:\n        /* \"#utility.yul\":1558:1563   */\n      0x00\n        /* \"#utility.yul\":1607:1610   */\n      dup3\n        /* \"#utility.yul\":1600:1604   */\n      0x1f\n        /* \"#utility.yul\":1592:1598   */\n      dup4\n        /* \"#utility.yul\":1588:1605   */\n      add\n        /* \"#utility.yul\":1584:1611   */\n      slt\n        /* \"#utility.yul\":1574:1696   */\n      tag_87\n      jumpi\n        /* \"#utility.yul\":1615:1694   */\n      tag_88\n      tag_83\n      jump\t// in\n    tag_88:\n        /* \"#utility.yul\":1574:1696   */\n    tag_87:\n        /* \"#utility.yul\":1732:1738   */\n      dup2\n        /* \"#utility.yul\":1719:1739   */\n      calldataload\n        /* \"#utility.yul\":1757:1836   */\n      tag_89\n        /* \"#utility.yul\":1832:1835   */\n      dup5\n        /* \"#utility.yul\":1824:1830   */\n      dup3\n        /* \"#utility.yul\":1817:1821   */\n      0x20\n        /* \"#utility.yul\":1809:1815   */\n      dup7\n        /* \"#utility.yul\":1805:1822   */\n      add\n        /* \"#utility.yul\":1757:1836   */\n      tag_63\n      jump\t// in\n    tag_89:\n        /* \"#utility.yul\":1748:1836   */\n      swap2\n      pop\n        /* \"#utility.yul\":1564:1842   */\n      pop\n        /* \"#utility.yul\":1502:1842   */\n      swap3\n      swap2\n      pop\n      pop\n      jump\t// out\n        /* \"#utility.yul\":1848:2825   */\n    tag_15:\n        /* \"#utility.yul\":1944:1950   */\n      0x00\n        /* \"#utility.yul\":1952:1958   */\n      dup1\n        /* \"#utility.yul\":1960:1966   */\n      0x00\n        /* \"#utility.yul\":2009:2011   */\n      0x60\n        /* \"#utility.yul\":1997:2006   */\n      dup5\n        /* \"#utility.yul\":1988:1995   */\n      dup7\n        /* \"#utility.yul\":1984:2007   */\n      sub\n        /* \"#utility.yul\":1980:2012   */\n      slt\n        /* \"#utility.yul\":1977:2096   */\n      iszero\n      tag_91\n      jumpi\n        /* \"#utility.yul\":2015:2094   */\n      tag_92\n      tag_93\n      jump\t// in\n    tag_92:\n        /* \"#utility.yul\":1977:2096   */\n    tag_91:\n        /* \"#utility.yul\":2135:2136   */\n      0x00\n        /* \"#utility.yul\":2160:2213   */\n      tag_94\n        /* \"#utility.yul\":2205:2212   */\n      dup7\n        /* \"#utility.yul\":2196:2202   */\n      dup3\n        /* \"#utility.yul\":2185:2194   */\n      dup8\n        /* \"#utility.yul\":2181:2203   */\n      add\n        /* \"#utility.yul\":2160:2213   */\n      tag_71\n      jump\t// in\n    tag_94:\n        /* \"#utility.yul\":2150:2213   */\n      swap4\n      pop\n        /* \"#utility.yul\":2106:2223   */\n      pop\n        /* \"#utility.yul\":2290:2292   */\n      0x20\n        /* \"#utility.yul\":2279:2288   */\n      dup5\n        /* \"#utility.yul\":2275:2293   */\n      add\n        /* \"#utility.yul\":2262:2294   */\n      calldataload\n        /* \"#utility.yul\":2321:2339   */\n      0xffffffffffffffff\n        /* \"#utility.yul\":2313:2319   */\n      dup2\n        /* \"#utility.yul\":2310:2340   */\n      gt\n        /* \"#utility.yul\":2307:2424   */\n      iszero\n      tag_95\n      jumpi\n        /* \"#utility.yul\":2343:2422   */\n      tag_96\n      tag_97\n      jump\t// in\n    tag_96:\n        /* \"#utility.yul\":2307:2424   */\n    tag_95:\n        /* \"#utility.yul\":2448:2511   */\n      tag_98\n        /* \"#utility.yul\":2503:2510   */\n      dup7\n        /* \"#utility.yul\":2494:2500   */\n      dup3\n        /* \"#utility.yul\":2483:2492   */\n      dup8\n        /* \"#utility.yul\":2479:2501   */\n      add\n        /* \"#utility.yul\":2448:2511   */\n      tag_85\n      jump\t// in\n    tag_98:\n        /* \"#utility.yul\":2438:2511   */\n      swap3\n      pop\n        /* \"#utility.yul\":2233:2521   */\n      pop\n        /* \"#utility.yul\":2588:2590   */\n      0x40\n        /* \"#utility.yul\":2577:2586   */\n      dup5\n        /* \"#utility.yul\":2573:2591   */\n      add\n        /* \"#utility.yul\":2560:2592   */\n      calldataload\n        /* \"#utility.yul\":2619:2637   */\n      0xffffffffffffffff\n        /* \"#utility.yul\":2611:2617   */\n      dup2\n        /* \"#utility.yul\":2608:2638   */\n      gt\n        /* \"#utility.yul\":2605:2722   */\n      iszero\n      tag_99\n      jumpi\n        /* \"#utility.yul\":2641:2720   */\n      tag_100\n      tag_97\n      jump\t// in\n    tag_100:\n        /* \"#utility.yul\":2605:2722   */\n    tag_99:\n        /* \"#utility.yul\":2746:2808   */\n      tag_101\n        /* \"#utility.yul\":2800:2807   */\n      dup7\n        /* \"#utility.yul\":2791:2797   */\n      dup3\n        /* \"#utility.yul\":2780:2789   */\n      dup8\n        /* \"#utility.yul\":2776:2798   */\n      add\n        /* \"#utility.yul\":2746:2808   */\n      tag_79\n      jump\t// in\n    tag_101:\n        /* \"#utility.yul\":2736:2808   */\n      swap2\n      pop\n        /* \"#utility.yul\":2531:2818   */\n      pop\n        /* \"#utility.yul\":1848:2825   */\n      swap3\n      pop\n      swap3\n      pop\n      swap3\n      jump\t// out\n        /* \"#utility.yul\":2831:3160   */\n    tag_21:\n        /* \"#utility.yul\":2890:2896   */\n      0x00\n        /* \"#utility.yul\":2939:2941   */\n      0x20\n        /* \"#utility.yul\":2927:2936   */\n      dup3\n        /* \"#utility.yul\":2918:2925   */\n      dup5\n        /* \"#utility.yul\":2914:2937   */\n      sub\n        /* \"#utility.yul\":2910:2942   */\n      slt\n        /* \"#utility.yul\":2907:3026   */\n      iszero\n      tag_103\n      jumpi\n        /* \"#utility.yul\":2945:3024   */\n      tag_104\n      tag_93\n      jump\t// in\n    tag_104:\n        /* \"#utility.yul\":2907:3026   */\n    tag_103:\n        /* \"#utility.yul\":3065:3066   */\n      0x00\n        /* \"#utility.yul\":3090:3143   */\n      tag_105\n        /* \"#utility.yul\":3135:3142   */\n      dup5\n        /* \"#utility.yul\":3126:3132   */\n      dup3\n        /* \"#utility.yul\":3115:3124   */\n      dup6\n        /* \"#utility.yul\":3111:3133   */\n      add\n        /* \"#utility.yul\":3090:3143   */\n      tag_75\n      jump\t// in\n    tag_105:\n        /* \"#utility.yul\":3080:3143   */\n      swap2\n      pop\n        /* \"#utility.yul\":3036:3153   */\n      pop\n        /* \"#utility.yul\":2831:3160   */\n      swap3\n      swap2\n      pop\n      pop\n      jump\t// out\n        /* \"#utility.yul\":3166:3818   */\n    tag_9:\n        /* \"#utility.yul\":3243:3249   */\n      0x00\n        /* \"#utility.yul\":3251:3257   */\n      dup1\n        /* \"#utility.yul\":3300:3302   */\n      0x40\n        /* \"#utility.yul\":3288:3297   */\n      dup4\n        /* \"#utility.yul\":3279:3286   */\n      dup6\n        /* \"#utility.yul\":3275:3298   */\n      sub\n        /* \"#utility.yul\":3271:3303   */\n      slt\n        /* \"#utility.yul\":3268:3387   */\n      iszero\n      tag_107\n      jumpi\n        /* \"#utility.yul\":3306:3385   */\n      tag_108\n      tag_93\n      jump\t// in\n    tag_108:\n        /* \"#utility.yul\":3268:3387   */\n    tag_107:\n        /* \"#utility.yul\":3426:3427   */\n      0x00\n        /* \"#utility.yul\":3451:3504   */\n      tag_109\n        /* \"#utility.yul\":3496:3503   */\n      dup6\n        /* \"#utility.yul\":3487:3493   */\n      dup3\n        /* \"#utility.yul\":3476:3485   */\n      dup7\n        /* \"#utility.yul\":3472:3494   */\n      add\n        /* \"#utility.yul\":3451:3504   */\n      tag_75\n      jump\t// in\n    tag_109:\n        /* \"#utility.yul\":3441:3504   */\n      swap3\n      pop\n        /* \"#utility.yul\":3397:3514   */\n      pop\n        /* \"#utility.yul\":3581:3583   */\n      0x20\n        /* \"#utility.yul\":3570:3579   */\n      dup4\n        /* \"#utility.yul\":3566:3584   */\n      add\n        /* \"#utility.yul\":3553:3585   */\n      calldataload\n        /* \"#utility.yul\":3612:3630   */\n      0xffffffffffffffff\n        /* \"#utility.yul\":3604:3610   */\n      dup2\n        /* \"#utility.yul\":3601:3631   */\n      gt\n        /* \"#utility.yul\":3598:3715   */\n      iszero\n      tag_110\n      jumpi\n        /* \"#utility.yul\":3634:3713   */\n      tag_111\n      tag_97\n      jump\t// in\n    tag_111:\n        /* \"#utility.yul\":3598:3715   */\n    tag_110:\n        /* \"#utility.yul\":3739:3801   */\n      tag_112\n        /* \"#utility.yul\":3793:3800   */\n      dup6\n        /* \"#utility.yul\":3784:3790   */\n      dup3\n        /* \"#utility.yul\":3773:3782   */\n      dup7\n        /* \"#utility.yul\":3769:3791   */\n      add\n        /* \"#utility.yul\":3739:3801   */\n      tag_79\n      jump\t// in\n    tag_112:\n        /* \"#utility.yul\":3729:3801   */\n      swap2\n      pop\n        /* \"#utility.yul\":3524:3811   */\n      pop\n        /* \"#utility.yul\":3166:3818   */\n      swap3\n      pop\n      swap3\n      swap1\n      pop\n      jump\t// out\n        /* \"#utility.yul\":3824:4333   */\n    tag_27:\n        /* \"#utility.yul\":3893:3899   */\n      0x00\n        /* \"#utility.yul\":3942:3944   */\n      0x20\n        /* \"#utility.yul\":3930:3939   */\n      dup3\n        /* \"#utility.yul\":3921:3928   */\n      dup5\n        /* \"#utility.yul\":3917:3940   */\n      sub\n        /* \"#utility.yul\":3913:3945   */\n      slt\n        /* \"#utility.yul\":3910:4029   */\n      iszero\n      tag_114\n      jumpi\n        /* \"#utility.yul\":3948:4027   */\n      tag_115\n      tag_93\n      jump\t// in\n    tag_115:\n        /* \"#utility.yul\":3910:4029   */\n    tag_114:\n        /* \"#utility.yul\":4096:4097   */\n      0x00\n        /* \"#utility.yul\":4085:4094   */\n      dup3\n        /* \"#utility.yul\":4081:4098   */\n      add\n        /* \"#utility.yul\":4068:4099   */\n      calldataload\n        /* \"#utility.yul\":4126:4144   */\n      0xffffffffffffffff\n        /* \"#utility.yul\":4118:4124   */\n      dup2\n        /* \"#utility.yul\":4115:4145   */\n      gt\n        /* \"#utility.yul\":4112:4229   */\n      iszero\n      tag_116\n      jumpi\n        /* \"#utility.yul\":4148:4227   */\n      tag_117\n      tag_97\n      jump\t// in\n    tag_117:\n        /* \"#utility.yul\":4112:4229   */\n    tag_116:\n        /* \"#utility.yul\":4253:4316   */\n      tag_118\n        /* \"#utility.yul\":4308:4315   */\n      dup5\n        /* \"#utility.yul\":4299:4305   */\n      dup3\n        /* \"#utility.yul\":4288:4297   */\n      dup6\n        /* \"#utility.yul\":4284:4306   */\n      add\n        /* \"#utility.yul\":4253:4316   */\n      tag_85\n      jump\t// in\n    tag_118:\n        /* \"#utility.yul\":4243:4316   */\n      swap2\n      pop\n        /* \"#utility.yul\":4039:4326   */\n      pop\n        /* \"#utility.yul\":3824:4333   */\n      swap3\n      swap2\n      pop\n      pop\n      jump\t// out\n        /* \"#utility.yul\":4339:4457   */\n    tag_119:\n        /* \"#utility.yul\":4426:4450   */\n      tag_121\n        /* \"#utility.yul\":4444:4449   */\n      dup2\n        /* \"#utility.yul\":4426:4450   */\n      tag_122\n      jump\t// in\n    tag_121:\n        /* \"#utility.yul\":4421:4424   */\n      dup3\n        /* \"#utility.yul\":4414:4451   */\n      mstore\n        /* \"#utility.yul\":4339:4457   */\n      pop\n      pop\n      jump\t// out\n        /* \"#utility.yul\":4463:4572   */\n    tag_123:\n        /* \"#utility.yul\":4544:4565   */\n      tag_125\n        /* \"#utility.yul\":4559:4564   */\n      dup2\n        /* \"#utility.yul\":4544:4565   */\n      tag_126\n      jump\t// in\n    tag_125:\n        /* \"#utility.yul\":4539:4542   */\n      dup3\n        /* \"#utility.yul\":4532:4566   */\n      mstore\n        /* \"#utility.yul\":4463:4572   */\n      pop\n      pop\n      jump\t// out\n        /* \"#utility.yul\":4578:4696   */\n    tag_127:\n        /* \"#utility.yul\":4665:4689   */\n      tag_129\n        /* \"#utility.yul\":4683:4688   */\n      dup2\n        /* \"#utility.yul\":4665:4689   */\n      tag_130\n      jump\t// in\n    tag_129:\n        /* \"#utility.yul\":4660:4663   */\n      dup3\n        /* \"#utility.yul\":4653:4690   */\n      mstore\n        /* \"#utility.yul\":4578:4696   */\n      pop\n      pop\n      jump\t// out\n        /* \"#utility.yul\":4702:4859   */\n    tag_131:\n        /* \"#utility.yul\":4807:4852   */\n      tag_133\n        /* \"#utility.yul\":4827:4851   */\n      tag_134\n        /* \"#utility.yul\":4845:4850   */\n      dup3\n        /* \"#utility.yul\":4827:4851   */\n      tag_130\n      jump\t// in\n    tag_134:\n        /* \"#utility.yul\":4807:4852   */\n      tag_135\n      jump\t// in\n    tag_133:\n        /* \"#utility.yul\":4802:4805   */\n      dup3\n        /* \"#utility.yul\":4795:4853   */\n      mstore\n        /* \"#utility.yul\":4702:4859   */\n      pop\n      pop\n      jump\t// out\n        /* \"#utility.yul\":4865:5242   */\n    tag_136:\n        /* \"#utility.yul\":4971:4974   */\n      0x00\n        /* \"#utility.yul\":4999:5038   */\n      tag_138\n        /* \"#utility.yul\":5032:5037   */\n      dup3\n        /* \"#utility.yul\":4999:5038   */\n      tag_139\n      jump\t// in\n    tag_138:\n        /* \"#utility.yul\":5054:5143   */\n      tag_140\n        /* \"#utility.yul\":5136:5142   */\n      dup2\n        /* \"#utility.yul\":5131:5134   */\n      dup6\n        /* \"#utility.yul\":5054:5143   */\n      tag_141\n      jump\t// in\n    tag_140:\n        /* \"#utility.yul\":5047:5143   */\n      swap4\n      pop\n        /* \"#utility.yul\":5152:5204   */\n      tag_142\n        /* \"#utility.yul\":5197:5203   */\n      dup2\n        /* \"#utility.yul\":5192:5195   */\n      dup6\n        /* \"#utility.yul\":5185:5189   */\n      0x20\n        /* \"#utility.yul\":5178:5183   */\n      dup7\n        /* \"#utility.yul\":5174:5190   */\n      add\n        /* \"#utility.yul\":5152:5204   */\n      tag_143\n      jump\t// in\n    tag_142:\n        /* \"#utility.yul\":5229:5235   */\n      dup1\n        /* \"#utility.yul\":5224:5227   */\n      dup5\n        /* \"#utility.yul\":5220:5236   */\n      add\n        /* \"#utility.yul\":5213:5236   */\n      swap2\n      pop\n        /* \"#utility.yul\":4975:5242   */\n      pop\n        /* \"#utility.yul\":4865:5242   */\n      swap3\n      swap2\n      pop\n      pop\n      jump\t// out\n        /* \"#utility.yul\":5248:5650   */\n    tag_144:\n        /* \"#utility.yul\":5408:5411   */\n      0x00\n        /* \"#utility.yul\":5429:5514   */\n      tag_146\n        /* \"#utility.yul\":5511:5513   */\n      0x1c\n        /* \"#utility.yul\":5506:5509   */\n      dup4\n        /* \"#utility.yul\":5429:5514   */\n      tag_141\n      jump\t// in\n    tag_146:\n        /* \"#utility.yul\":5422:5514   */\n      swap2\n      pop\n        /* \"#utility.yul\":5523:5616   */\n      tag_147\n        /* \"#utility.yul\":5612:5615   */\n      dup3\n        /* \"#utility.yul\":5523:5616   */\n      tag_148\n      jump\t// in\n    tag_147:\n        /* \"#utility.yul\":5641:5643   */\n      0x1c\n        /* \"#utility.yul\":5636:5639   */\n      dup3\n        /* \"#utility.yul\":5632:5644   */\n      add\n        /* \"#utility.yul\":5625:5644   */\n      swap1\n      pop\n        /* \"#utility.yul\":5248:5650   */\n      swap2\n      swap1\n      pop\n      jump\t// out\n        /* \"#utility.yul\":5656:6022   */\n    tag_149:\n        /* \"#utility.yul\":5798:5801   */\n      0x00\n        /* \"#utility.yul\":5819:5886   */\n      tag_151\n        /* \"#utility.yul\":5883:5885   */\n      0x18\n        /* \"#utility.yul\":5878:5881   */\n      dup4\n        /* \"#utility.yul\":5819:5886   */\n      tag_152\n      jump\t// in\n    tag_151:\n        /* \"#utility.yul\":5812:5886   */\n      swap2\n      pop\n        /* \"#utility.yul\":5895:5988   */\n      tag_153\n        /* \"#utility.yul\":5984:5987   */\n      dup3\n        /* \"#utility.yul\":5895:5988   */\n      tag_154\n      jump\t// in\n    tag_153:\n        /* \"#utility.yul\":6013:6015   */\n      0x20\n        /* \"#utility.yul\":6008:6011   */\n      dup3\n        /* \"#utility.yul\":6004:6016   */\n      add\n        /* \"#utility.yul\":5997:6016   */\n      swap1\n      pop\n        /* \"#utility.yul\":5656:6022   */\n      swap2\n      swap1\n      pop\n      jump\t// out\n        /* \"#utility.yul\":6028:6140   */\n    tag_155:\n        /* \"#utility.yul\":6111:6133   */\n      tag_157\n        /* \"#utility.yul\":6127:6132   */\n      dup2\n        /* \"#utility.yul\":6111:6133   */\n      tag_158\n      jump\t// in\n    tag_157:\n        /* \"#utility.yul\":6106:6109   */\n      dup3\n        /* \"#utility.yul\":6099:6134   */\n      mstore\n        /* \"#utility.yul\":6028:6140   */\n      pop\n      pop\n      jump\t// out\n        /* \"#utility.yul\":6146:6421   */\n    tag_46:\n        /* \"#utility.yul\":6278:6281   */\n      0x00\n        /* \"#utility.yul\":6300:6395   */\n      tag_160\n        /* \"#utility.yul\":6391:6394   */\n      dup3\n        /* \"#utility.yul\":6382:6388   */\n      dup5\n        /* \"#utility.yul\":6300:6395   */\n      tag_136\n      jump\t// in\n    tag_160:\n        /* \"#utility.yul\":6293:6395   */\n      swap2\n      pop\n        /* \"#utility.yul\":6412:6415   */\n      dup2\n        /* \"#utility.yul\":6405:6415   */\n      swap1\n      pop\n        /* \"#utility.yul\":6146:6421   */\n      swap3\n      swap2\n      pop\n      pop\n      jump\t// out\n        /* \"#utility.yul\":6427:6949   */\n    tag_43:\n        /* \"#utility.yul\":6640:6643   */\n      0x00\n        /* \"#utility.yul\":6662:6810   */\n      tag_162\n        /* \"#utility.yul\":6806:6809   */\n      dup3\n        /* \"#utility.yul\":6662:6810   */\n      tag_144\n      jump\t// in\n    tag_162:\n        /* \"#utility.yul\":6655:6810   */\n      swap2\n      pop\n        /* \"#utility.yul\":6820:6895   */\n      tag_163\n        /* \"#utility.yul\":6891:6894   */\n      dup3\n        /* \"#utility.yul\":6882:6888   */\n      dup5\n        /* \"#utility.yul\":6820:6895   */\n      tag_131\n      jump\t// in\n    tag_163:\n        /* \"#utility.yul\":6920:6922   */\n      0x20\n        /* \"#utility.yul\":6915:6918   */\n      dup3\n        /* \"#utility.yul\":6911:6923   */\n      add\n        /* \"#utility.yul\":6904:6923   */\n      swap2\n      pop\n        /* \"#utility.yul\":6940:6943   */\n      dup2\n        /* \"#utility.yul\":6933:6943   */\n      swap1\n      pop\n        /* \"#utility.yul\":6427:6949   */\n      swap3\n      swap2\n      pop\n      pop\n      jump\t// out\n        /* \"#utility.yul\":6955:7177   */\n    tag_12:\n        /* \"#utility.yul\":7048:7052   */\n      0x00\n        /* \"#utility.yul\":7086:7088   */\n      0x20\n        /* \"#utility.yul\":7075:7084   */\n      dup3\n        /* \"#utility.yul\":7071:7089   */\n      add\n        /* \"#utility.yul\":7063:7089   */\n      swap1\n      pop\n        /* \"#utility.yul\":7099:7170   */\n      tag_165\n        /* \"#utility.yul\":7167:7168   */\n      0x00\n        /* \"#utility.yul\":7156:7165   */\n      dup4\n        /* \"#utility.yul\":7152:7169   */\n      add\n        /* \"#utility.yul\":7143:7149   */\n      dup5\n        /* \"#utility.yul\":7099:7170   */\n      tag_119\n      jump\t// in\n    tag_165:\n        /* \"#utility.yul\":6955:7177   */\n      swap3\n      swap2\n      pop\n      pop\n      jump\t// out\n        /* \"#utility.yul\":7183:7393   */\n    tag_18:\n        /* \"#utility.yul\":7270:7274   */\n      0x00\n        /* \"#utility.yul\":7308:7310   */\n      0x20\n        /* \"#utility.yul\":7297:7306   */\n      dup3\n        /* \"#utility.yul\":7293:7311   */\n      add\n        /* \"#utility.yul\":7285:7311   */\n      swap1\n      pop\n        /* \"#utility.yul\":7321:7386   */\n      tag_167\n        /* \"#utility.yul\":7383:7384   */\n      0x00\n        /* \"#utility.yul\":7372:7381   */\n      dup4\n        /* \"#utility.yul\":7368:7385   */\n      add\n        /* \"#utility.yul\":7359:7365   */\n      dup5\n        /* \"#utility.yul\":7321:7386   */\n      tag_123\n      jump\t// in\n    tag_167:\n        /* \"#utility.yul\":7183:7393   */\n      swap3\n      swap2\n      pop\n      pop\n      jump\t// out\n        /* \"#utility.yul\":7399:7621   */\n    tag_24:\n        /* \"#utility.yul\":7492:7496   */\n      0x00\n        /* \"#utility.yul\":7530:7532   */\n      0x20\n        /* \"#utility.yul\":7519:7528   */\n      dup3\n        /* \"#utility.yul\":7515:7533   */\n      add\n        /* \"#utility.yul\":7507:7533   */\n      swap1\n      pop\n        /* \"#utility.yul\":7543:7614   */\n      tag_169\n        /* \"#utility.yul\":7611:7612   */\n      0x00\n        /* \"#utility.yul\":7600:7609   */\n      dup4\n        /* \"#utility.yul\":7596:7613   */\n      add\n        /* \"#utility.yul\":7587:7593   */\n      dup5\n        /* \"#utility.yul\":7543:7614   */\n      tag_127\n      jump\t// in\n    tag_169:\n        /* \"#utility.yul\":7399:7621   */\n      swap3\n      swap2\n      pop\n      pop\n      jump\t// out\n        /* \"#utility.yul\":7627:8172   */\n    tag_34:\n        /* \"#utility.yul\":7800:7804   */\n      0x00\n        /* \"#utility.yul\":7838:7841   */\n      0x80\n        /* \"#utility.yul\":7827:7836   */\n      dup3\n        /* \"#utility.yul\":7823:7842   */\n      add\n        /* \"#utility.yul\":7815:7842   */\n      swap1\n      pop\n        /* \"#utility.yul\":7852:7923   */\n      tag_171\n        /* \"#utility.yul\":7920:7921   */\n      0x00\n        /* \"#utility.yul\":7909:7918   */\n      dup4\n        /* \"#utility.yul\":7905:7922   */\n      add\n        /* \"#utility.yul\":7896:7902   */\n      dup8\n        /* \"#utility.yul\":7852:7923   */\n      tag_127\n      jump\t// in\n    tag_171:\n        /* \"#utility.yul\":7933:8001   */\n      tag_172\n        /* \"#utility.yul\":7997:7999   */\n      0x20\n        /* \"#utility.yul\":7986:7995   */\n      dup4\n        /* \"#utility.yul\":7982:8000   */\n      add\n        /* \"#utility.yul\":7973:7979   */\n      dup7\n        /* \"#utility.yul\":7933:8001   */\n      tag_155\n      jump\t// in\n    tag_172:\n        /* \"#utility.yul\":8011:8083   */\n      tag_173\n        /* \"#utility.yul\":8079:8081   */\n      0x40\n        /* \"#utility.yul\":8068:8077   */\n      dup4\n        /* \"#utility.yul\":8064:8082   */\n      add\n        /* \"#utility.yul\":8055:8061   */\n      dup6\n        /* \"#utility.yul\":8011:8083   */\n      tag_127\n      jump\t// in\n    tag_173:\n        /* \"#utility.yul\":8093:8165   */\n      tag_174\n        /* \"#utility.yul\":8161:8163   */\n      0x60\n        /* \"#utility.yul\":8150:8159   */\n      dup4\n        /* \"#utility.yul\":8146:8164   */\n      add\n        /* \"#utility.yul\":8137:8143   */\n      dup5\n        /* \"#utility.yul\":8093:8165   */\n      tag_127\n      jump\t// in\n    tag_174:\n        /* \"#utility.yul\":7627:8172   */\n      swap6\n      swap5\n      pop\n      pop\n      pop\n      pop\n      pop\n      jump\t// out\n        /* \"#utility.yul\":8178:8597   */\n    tag_50:\n        /* \"#utility.yul\":8344:8348   */\n      0x00\n        /* \"#utility.yul\":8382:8384   */\n      0x20\n        /* \"#utility.yul\":8371:8380   */\n      dup3\n        /* \"#utility.yul\":8367:8385   */\n      add\n        /* \"#utility.yul\":8359:8385   */\n      swap1\n      pop\n        /* \"#utility.yul\":8431:8440   */\n      dup2\n        /* \"#utility.yul\":8425:8429   */\n      dup2\n        /* \"#utility.yul\":8421:8441   */\n      sub\n        /* \"#utility.yul\":8417:8418   */\n      0x00\n        /* \"#utility.yul\":8406:8415   */\n      dup4\n        /* \"#utility.yul\":8402:8419   */\n      add\n        /* \"#utility.yul\":8395:8442   */\n      mstore\n        /* \"#utility.yul\":8459:8590   */\n      tag_176\n        /* \"#utility.yul\":8585:8589   */\n      dup2\n        /* \"#utility.yul\":8459:8590   */\n      tag_149\n      jump\t// in\n    tag_176:\n        /* \"#utility.yul\":8451:8590   */\n      swap1\n      pop\n        /* \"#utility.yul\":8178:8597   */\n      swap2\n      swap1\n      pop\n      jump\t// out\n        /* \"#utility.yul\":8603:8732   */\n    tag_57:\n        /* \"#utility.yul\":8637:8643   */\n      0x00\n        /* \"#utility.yul\":8664:8684   */\n      tag_178\n      tag_179\n      jump\t// in\n    tag_178:\n        /* \"#utility.yul\":8654:8684   */\n      swap1\n      pop\n        /* \"#utility.yul\":8693:8726   */\n      tag_180\n        /* \"#utility.yul\":8721:8725   */\n      dup3\n        /* \"#utility.yul\":8713:8719   */\n      dup3\n        /* \"#utility.yul\":8693:8726   */\n      tag_181\n      jump\t// in\n    tag_180:\n        /* \"#utility.yul\":8603:8732   */\n      swap2\n      swap1\n      pop\n      jump\t// out\n        /* \"#utility.yul\":8738:8813   */\n    tag_179:\n        /* \"#utility.yul\":8771:8777   */\n      0x00\n        /* \"#utility.yul\":8804:8806   */\n      0x40\n        /* \"#utility.yul\":8798:8807   */\n      mload\n        /* \"#utility.yul\":8788:8807   */\n      swap1\n      pop\n        /* \"#utility.yul\":8738:8813   */\n      swap1\n      jump\t// out\n        /* \"#utility.yul\":8819:9126   */\n    tag_56:\n        /* \"#utility.yul\":8880:8884   */\n      0x00\n        /* \"#utility.yul\":8970:8988   */\n      0xffffffffffffffff\n        /* \"#utility.yul\":8962:8968   */\n      dup3\n        /* \"#utility.yul\":8959:8989   */\n      gt\n        /* \"#utility.yul\":8956:9012   */\n      iszero\n      tag_184\n      jumpi\n        /* \"#utility.yul\":8992:9010   */\n      tag_185\n      tag_186\n      jump\t// in\n    tag_185:\n        /* \"#utility.yul\":8956:9012   */\n    tag_184:\n        /* \"#utility.yul\":9030:9059   */\n      tag_187\n        /* \"#utility.yul\":9052:9058   */\n      dup3\n        /* \"#utility.yul\":9030:9059   */\n      tag_188\n      jump\t// in\n    tag_187:\n        /* \"#utility.yul\":9022:9059   */\n      swap1\n      pop\n        /* \"#utility.yul\":9114:9118   */\n      0x20\n        /* \"#utility.yul\":9108:9112   */\n      dup2\n        /* \"#utility.yul\":9104:9119   */\n      add\n        /* \"#utility.yul\":9096:9119   */\n      swap1\n      pop\n        /* \"#utility.yul\":8819:9126   */\n      swap2\n      swap1\n      pop\n      jump\t// out\n        /* \"#utility.yul\":9132:9440   */\n    tag_67:\n        /* \"#utility.yul\":9194:9198   */\n      0x00\n        /* \"#utility.yul\":9284:9302   */\n      0xffffffffffffffff\n        /* \"#utility.yul\":9276:9282   */\n      dup3\n        /* \"#utility.yul\":9273:9303   */\n      gt\n        /* \"#utility.yul\":9270:9326   */\n      iszero\n      tag_190\n      jumpi\n        /* \"#utility.yul\":9306:9324   */\n      tag_191\n      tag_186\n      jump\t// in\n    tag_191:\n        /* \"#utility.yul\":9270:9326   */\n    tag_190:\n        /* \"#utility.yul\":9344:9373   */\n      tag_192\n        /* \"#utility.yul\":9366:9372   */\n      dup3\n        /* \"#utility.yul\":9344:9373   */\n      tag_188\n      jump\t// in\n    tag_192:\n        /* \"#utility.yul\":9336:9373   */\n      swap1\n      pop\n        /* \"#utility.yul\":9428:9432   */\n      0x20\n        /* \"#utility.yul\":9422:9426   */\n      dup2\n        /* \"#utility.yul\":9418:9433   */\n      add\n        /* \"#utility.yul\":9410:9433   */\n      swap1\n      pop\n        /* \"#utility.yul\":9132:9440   */\n      swap2\n      swap1\n      pop\n      jump\t// out\n        /* \"#utility.yul\":9446:9545   */\n    tag_139:\n        /* \"#utility.yul\":9498:9504   */\n      0x00\n        /* \"#utility.yul\":9532:9537   */\n      dup2\n        /* \"#utility.yul\":9526:9538   */\n      mload\n        /* \"#utility.yul\":9516:9538   */\n      swap1\n      pop\n        /* \"#utility.yul\":9446:9545   */\n      swap2\n      swap1\n      pop\n      jump\t// out\n        /* \"#utility.yul\":9551:9720   */\n    tag_152:\n        /* \"#utility.yul\":9635:9646   */\n      0x00\n        /* \"#utility.yul\":9669:9675   */\n      dup3\n        /* \"#utility.yul\":9664:9667   */\n      dup3\n        /* \"#utility.yul\":9657:9676   */\n      mstore\n        /* \"#utility.yul\":9709:9713   */\n      0x20\n        /* \"#utility.yul\":9704:9707   */\n      dup3\n        /* \"#utility.yul\":9700:9714   */\n      add\n        /* \"#utility.yul\":9685:9714   */\n      swap1\n      pop\n        /* \"#utility.yul\":9551:9720   */\n      swap3\n      swap2\n      pop\n      pop\n      jump\t// out\n        /* \"#utility.yul\":9726:9874   */\n    tag_141:\n        /* \"#utility.yul\":9828:9839   */\n      0x00\n        /* \"#utility.yul\":9865:9868   */\n      dup2\n        /* \"#utility.yul\":9850:9868   */\n      swap1\n      pop\n        /* \"#utility.yul\":9726:9874   */\n      swap3\n      swap2\n      pop\n      pop\n      jump\t// out\n        /* \"#utility.yul\":9880:9976   */\n    tag_122:\n        /* \"#utility.yul\":9917:9924   */\n      0x00\n        /* \"#utility.yul\":9946:9970   */\n      tag_197\n        /* \"#utility.yul\":9964:9969   */\n      dup3\n        /* \"#utility.yul\":9946:9970   */\n      tag_198\n      jump\t// in\n    tag_197:\n        /* \"#utility.yul\":9935:9970   */\n      swap1\n      pop\n        /* \"#utility.yul\":9880:9976   */\n      swap2\n      swap1\n      pop\n      jump\t// out\n        /* \"#utility.yul\":9982:10072   */\n    tag_126:\n        /* \"#utility.yul\":10016:10023   */\n      0x00\n        /* \"#utility.yul\":10059:10064   */\n      dup2\n        /* \"#utility.yul\":10052:10065   */\n      iszero\n        /* \"#utility.yul\":10045:10066   */\n      iszero\n        /* \"#utility.yul\":10034:10066   */\n      swap1\n      pop\n        /* \"#utility.yul\":9982:10072   */\n      swap2\n      swap1\n      pop\n      jump\t// out\n        /* \"#utility.yul\":10078:10155   */\n    tag_130:\n        /* \"#utility.yul\":10115:10122   */\n      0x00\n        /* \"#utility.yul\":10144:10149   */\n      dup2\n        /* \"#utility.yul\":10133:10149   */\n      swap1\n      pop\n        /* \"#utility.yul\":10078:10155   */\n      swap2\n      swap1\n      pop\n      jump\t// out\n        /* \"#utility.yul\":10161:10287   */\n    tag_198:\n        /* \"#utility.yul\":10198:10205   */\n      0x00\n        /* \"#utility.yul\":10238:10280   */\n      0xffffffffffffffffffffffffffffffffffffffff\n        /* \"#utility.yul\":10231:10236   */\n      dup3\n        /* \"#utility.yul\":10227:10281   */\n      and\n        /* \"#utility.yul\":10216:10281   */\n      swap1\n      pop\n        /* \"#utility.yul\":10161:10287   */\n      swap2\n      swap1\n      pop\n      jump\t// out\n        /* \"#utility.yul\":10293:10379   */\n    tag_158:\n        /* \"#utility.yul\":10328:10335   */\n      0x00\n        /* \"#utility.yul\":10368:10372   */\n      0xff\n        /* \"#utility.yul\":10361:10366   */\n      dup3\n        /* \"#utility.yul\":10357:10373   */\n      and\n        /* \"#utility.yul\":10346:10373   */\n      swap1\n      pop\n        /* \"#utility.yul\":10293:10379   */\n      swap2\n      swap1\n      pop\n      jump\t// out\n        /* \"#utility.yul\":10385:10539   */\n    tag_62:\n        /* \"#utility.yul\":10469:10475   */\n      dup3\n        /* \"#utility.yul\":10464:10467   */\n      dup2\n        /* \"#utility.yul\":10459:10462   */\n      dup4\n        /* \"#utility.yul\":10446:10476   */\n      calldatacopy\n        /* \"#utility.yul\":10531:10532   */\n      0x00\n        /* \"#utility.yul\":10522:10528   */\n      dup4\n        /* \"#utility.yul\":10517:10520   */\n      dup4\n        /* \"#utility.yul\":10513:10529   */\n      add\n        /* \"#utility.yul\":10506:10533   */\n      mstore\n        /* \"#utility.yul\":10385:10539   */\n      pop\n      pop\n      pop\n      jump\t// out\n        /* \"#utility.yul\":10545:10852   */\n    tag_143:\n        /* \"#utility.yul\":10613:10614   */\n      0x00\n        /* \"#utility.yul\":10623:10736   */\n    tag_205:\n        /* \"#utility.yul\":10637:10643   */\n      dup4\n        /* \"#utility.yul\":10634:10635   */\n      dup2\n        /* \"#utility.yul\":10631:10644   */\n      lt\n        /* \"#utility.yul\":10623:10736   */\n      iszero\n      tag_207\n      jumpi\n        /* \"#utility.yul\":10722:10723   */\n      dup1\n        /* \"#utility.yul\":10717:10720   */\n      dup3\n        /* \"#utility.yul\":10713:10724   */\n      add\n        /* \"#utility.yul\":10707:10725   */\n      mload\n        /* \"#utility.yul\":10703:10704   */\n      dup2\n        /* \"#utility.yul\":10698:10701   */\n      dup5\n        /* \"#utility.yul\":10694:10705   */\n      add\n        /* \"#utility.yul\":10687:10726   */\n      mstore\n        /* \"#utility.yul\":10659:10661   */\n      0x20\n        /* \"#utility.yul\":10656:10657   */\n      dup2\n        /* \"#utility.yul\":10652:10662   */\n      add\n        /* \"#utility.yul\":10647:10662   */\n      swap1\n      pop\n        /* \"#utility.yul\":10623:10736   */\n      jump(tag_205)\n    tag_207:\n        /* \"#utility.yul\":10754:10760   */\n      dup4\n        /* \"#utility.yul\":10751:10752   */\n      dup2\n        /* \"#utility.yul\":10748:10761   */\n      gt\n        /* \"#utility.yul\":10745:10846   */\n      iszero\n      tag_208\n      jumpi\n        /* \"#utility.yul\":10834:10835   */\n      0x00\n        /* \"#utility.yul\":10825:10831   */\n      dup5\n        /* \"#utility.yul\":10820:10823   */\n      dup5\n        /* \"#utility.yul\":10816:10832   */\n      add\n        /* \"#utility.yul\":10809:10836   */\n      mstore\n        /* \"#utility.yul\":10745:10846   */\n    tag_208:\n        /* \"#utility.yul\":10594:10852   */\n      pop\n        /* \"#utility.yul\":10545:10852   */\n      pop\n      pop\n      pop\n      jump\t// out\n        /* \"#utility.yul\":10858:11139   */\n    tag_181:\n        /* \"#utility.yul\":10941:10968   */\n      tag_210\n        /* \"#utility.yul\":10963:10967   */\n      dup3\n        /* \"#utility.yul\":10941:10968   */\n      tag_188\n      jump\t// in\n    tag_210:\n        /* \"#utility.yul\":10933:10939   */\n      dup2\n        /* \"#utility.yul\":10929:10969   */\n      add\n        /* \"#utility.yul\":11071:11077   */\n      dup2\n        /* \"#utility.yul\":11059:11069   */\n      dup2\n        /* \"#utility.yul\":11056:11078   */\n      lt\n        /* \"#utility.yul\":11035:11053   */\n      0xffffffffffffffff\n        /* \"#utility.yul\":11023:11033   */\n      dup3\n        /* \"#utility.yul\":11020:11054   */\n      gt\n        /* \"#utility.yul\":11017:11079   */\n      or\n        /* \"#utility.yul\":11014:11102   */\n      iszero\n      tag_211\n      jumpi\n        /* \"#utility.yul\":11082:11100   */\n      tag_212\n      tag_186\n      jump\t// in\n    tag_212:\n        /* \"#utility.yul\":11014:11102   */\n    tag_211:\n        /* \"#utility.yul\":11122:11132   */\n      dup1\n        /* \"#utility.yul\":11118:11120   */\n      0x40\n        /* \"#utility.yul\":11111:11133   */\n      mstore\n        /* \"#utility.yul\":10901:11139   */\n      pop\n        /* \"#utility.yul\":10858:11139   */\n      pop\n      pop\n      jump\t// out\n        /* \"#utility.yul\":11145:11224   */\n    tag_135:\n        /* \"#utility.yul\":11184:11191   */\n      0x00\n        /* \"#utility.yul\":11213:11218   */\n      dup2\n        /* \"#utility.yul\":11202:11218   */\n      swap1\n      pop\n        /* \"#utility.yul\":11145:11224   */\n      swap2\n      swap1\n      pop\n      jump\t// out\n        /* \"#utility.yul\":11230:11410   */\n    tag_186:\n        /* \"#utility.yul\":11278:11355   */\n      0x4e487b7100000000000000000000000000000000000000000000000000000000\n        /* \"#utility.yul\":11275:11276   */\n      0x00\n        /* \"#utility.yul\":11268:11356   */\n      mstore\n        /* \"#utility.yul\":11375:11379   */\n      0x41\n        /* \"#utility.yul\":11372:11373   */\n      0x04\n        /* \"#utility.yul\":11365:11380   */\n      mstore\n        /* \"#utility.yul\":11399:11403   */\n      0x24\n        /* \"#utility.yul\":11396:11397   */\n      0x00\n        /* \"#utility.yul\":11389:11404   */\n      revert\n        /* \"#utility.yul\":11416:11533   */\n    tag_83:\n        /* \"#utility.yul\":11525:11526   */\n      0x00\n        /* \"#utility.yul\":11522:11523   */\n      dup1\n        /* \"#utility.yul\":11515:11527   */\n      revert\n        /* \"#utility.yul\":11539:11656   */\n    tag_60:\n        /* \"#utility.yul\":11648:11649   */\n      0x00\n        /* \"#utility.yul\":11645:11646   */\n      dup1\n        /* \"#utility.yul\":11638:11650   */\n      revert\n        /* \"#utility.yul\":11662:11779   */\n    tag_97:\n        /* \"#utility.yul\":11771:11772   */\n      0x00\n        /* \"#utility.yul\":11768:11769   */\n      dup1\n        /* \"#utility.yul\":11761:11773   */\n      revert\n        /* \"#utility.yul\":11785:11902   */\n    tag_93:\n        /* \"#utility.yul\":11894:11895   */\n      0x00\n        /* \"#utility.yul\":11891:11892   */\n      dup1\n        /* \"#utility.yul\":11884:11896   */\n      revert\n        /* \"#utility.yul\":11908:12010   */\n    tag_188:\n        /* \"#utility.yul\":11949:11955   */\n      0x00\n        /* \"#utility.yul\":12000:12002   */\n      0x1f\n        /* \"#utility.yul\":11996:12003   */\n      not\n        /* \"#utility.yul\":11991:11993   */\n      0x1f\n        /* \"#utility.yul\":11984:11989   */\n      dup4\n        /* \"#utility.yul\":11980:11994   */\n      add\n        /* \"#utility.yul\":11976:12004   */\n      and\n        /* \"#utility.yul\":11966:12004   */\n      swap1\n      pop\n        /* \"#utility.yul\":11908:12010   */\n      swap2\n      swap1\n      pop\n      jump\t// out\n        /* \"#utility.yul\":12016:12230   */\n    tag_148:\n        /* \"#utility.yul\":12156:12222   */\n      0x19457468657265756d205369676e6564204d6573736167653a0a333200000000\n        /* \"#utility.yul\":12152:12153   */\n      0x00\n        /* \"#utility.yul\":12144:12150   */\n      dup3\n        /* \"#utility.yul\":12140:12154   */\n      add\n        /* \"#utility.yul\":12133:12223   */\n      mstore\n        /* \"#utility.yul\":12016:12230   */\n      pop\n      jump\t// out\n        /* \"#utility.yul\":12236:12410   */\n    tag_154:\n        /* \"#utility.yul\":12376:12402   */\n      0x696e76616c6964207369676e6174757265206c656e6774680000000000000000\n        /* \"#utility.yul\":12372:12373   */\n      0x00\n        /* \"#utility.yul\":12364:12370   */\n      dup3\n        /* \"#utility.yul\":12360:12374   */\n      add\n        /* \"#utility.yul\":12353:12403   */\n      mstore\n        /* \"#utility.yul\":12236:12410   */\n      pop\n      jump\t// out\n        /* \"#utility.yul\":12416:12538   */\n    tag_74:\n        /* \"#utility.yul\":12489:12513   */\n      tag_223\n        /* \"#utility.yul\":12507:12512   */\n      dup2\n        /* \"#utility.yul\":12489:12513   */\n      tag_122\n      jump\t// in\n    tag_223:\n        /* \"#utility.yul\":12482:12487   */\n      dup2\n        /* \"#utility.yul\":12479:12514   */\n      eq\n        /* \"#utility.yul\":12469:12532   */\n      tag_224\n      jumpi\n        /* \"#utility.yul\":12528:12529   */\n      0x00\n        /* \"#utility.yul\":12525:12526   */\n      dup1\n        /* \"#utility.yul\":12518:12530   */\n      revert\n        /* \"#utility.yul\":12469:12532   */\n    tag_224:\n        /* \"#utility.yul\":12416:12538   */\n      pop\n      jump\t// out\n        /* \"#utility.yul\":12544:12666   */\n    tag_78:\n        /* \"#utility.yul\":12617:12641   */\n      tag_226\n        /* \"#utility.yul\":12635:12640   */\n      dup2\n        /* \"#utility.yul\":12617:12641   */\n      tag_130\n      jump\t// in\n    tag_226:\n        /* \"#utility.yul\":12610:12615   */\n      dup2\n        /* \"#utility.yul\":12607:12642   */\n      eq\n        /* \"#utility.yul\":12597:12660   */\n      tag_227\n      jumpi\n        /* \"#utility.yul\":12656:12657   */\n      0x00\n        /* \"#utility.yul\":12653:12654   */\n      dup1\n        /* \"#utility.yul\":12646:12658   */\n      revert\n        /* \"#utility.yul\":12597:12660   */\n    tag_227:\n        /* \"#utility.yul\":12544:12666   */\n      pop\n      jump\t// out\n\n    auxdata: 0xa2646970667358221220ee3190a2d54333318661c4532875858f02bd728376e48374c1e77a28a03b172f64736f6c63430008070033\n}\n",
				"bytecode": {
					"linkReferences": {},
					"object": "608060405234801561001057600080fd5b5061093c806100206000396000f3fe608060405234801561001057600080fd5b506004361061004c5760003560e01c806319045a25146100515780632dd34f0f146100815780633f63bc39146100b1578063b446f3b2146100e1575b600080fd5b61006b60048036038101906100669190610450565b610111565b60405161007891906105fc565b60405180910390f35b61009b60048036038101906100969190610398565b610180565b6040516100a89190610617565b60405180910390f35b6100cb60048036038101906100c69190610423565b6101de565b6040516100d89190610632565b60405180910390f35b6100fb60048036038101906100f691906104ac565b61020e565b6040516101089190610632565b60405180910390f35b6000806000806101208561023e565b92509250925060018682858560405160008152602001604052604051610149949392919061064d565b6020604051602081039080840390855afa15801561016b573d6000803e3d6000fd5b50505060206040510351935050505092915050565b60008061018c8461020e565b90506000610199826101de565b90508573ffffffffffffffffffffffffffffffffffffffff166101bc8286610111565b73ffffffffffffffffffffffffffffffffffffffff1614925050509392505050565b6000816040516020016101f191906105d6565b604051602081830303815290604052805190602001209050919050565b60008160405160200161022191906105bf565b604051602081830303815290604052805190602001209050919050565b60008060006041845114610287576040517f08c379a000000000000000000000000000000000000000000000000000000000815260040161027e90610692565b60405180910390fd5b9193909250565b60006102a161029c846106d7565b6106b2565b9050828152602081018484840111156102bd576102bc610866565b5b6102c88482856107b5565b509392505050565b60006102e36102de84610708565b6106b2565b9050828152602081018484840111156102ff576102fe610866565b5b61030a8482856107b5565b509392505050565b600081359050610321816108d8565b92915050565b600081359050610336816108ef565b92915050565b600082601f83011261035157610350610861565b5b813561036184826020860161028e565b91505092915050565b600082601f83011261037f5761037e610861565b5b813561038f8482602086016102d0565b91505092915050565b6000806000606084860312156103b1576103b0610870565b5b60006103bf86828701610312565b935050602084013567ffffffffffffffff8111156103e0576103df61086b565b5b6103ec8682870161036a565b925050604084013567ffffffffffffffff81111561040d5761040c61086b565b5b6104198682870161033c565b9150509250925092565b60006020828403121561043957610438610870565b5b600061044784828501610327565b91505092915050565b6000806040838503121561046757610466610870565b5b600061047585828601610327565b925050602083013567ffffffffffffffff8111156104965761049561086b565b5b6104a28582860161033c565b9150509250929050565b6000602082840312156104c2576104c1610870565b5b600082013567ffffffffffffffff8111156104e0576104df61086b565b5b6104ec8482850161036a565b91505092915050565b6104fe81610760565b82525050565b61050d81610772565b82525050565b61051c8161077e565b82525050565b61053361052e8261077e565b610828565b82525050565b600061054482610739565b61054e8185610755565b935061055e8185602086016107c4565b80840191505092915050565b6000610577601c83610755565b915061058282610886565b601c82019050919050565b600061059a601883610744565b91506105a5826108af565b602082019050919050565b6105b9816107a8565b82525050565b60006105cb8284610539565b915081905092915050565b60006105e18261056a565b91506105ed8284610522565b60208201915081905092915050565b600060208201905061061160008301846104f5565b92915050565b600060208201905061062c6000830184610504565b92915050565b60006020820190506106476000830184610513565b92915050565b60006080820190506106626000830187610513565b61066f60208301866105b0565b61067c6040830185610513565b6106896060830184610513565b95945050505050565b600060208201905081810360008301526106ab8161058d565b9050919050565b60006106bc6106cd565b90506106c882826107f7565b919050565b6000604051905090565b600067ffffffffffffffff8211156106f2576106f1610832565b5b6106fb82610875565b9050602081019050919050565b600067ffffffffffffffff82111561072357610722610832565b5b61072c82610875565b9050602081019050919050565b600081519050919050565b600082825260208201905092915050565b600081905092915050565b600061076b82610788565b9050919050565b60008115159050919050565b6000819050919050565b600073ffffffffffffffffffffffffffffffffffffffff82169050919050565b600060ff82169050919050565b82818337600083830152505050565b60005b838110156107e25780820151818401526020810190506107c7565b838111156107f1576000848401525b50505050565b61080082610875565b810181811067ffffffffffffffff8211171561081f5761081e610832565b5b80604052505050565b6000819050919050565b7f4e487b7100000000000000000000000000000000000000000000000000000000600052604160045260246000fd5b600080fd5b600080fd5b600080fd5b600080fd5b6000601f19601f8301169050919050565b7f19457468657265756d205369676e6564204d6573736167653a0a333200000000600082015250565b7f696e76616c6964207369676e6174757265206c656e6774680000000000000000600082015250565b6108e181610760565b81146108ec57600080fd5b50565b6108f88161077e565b811461090357600080fd5b5056fea2646970667358221220ee3190a2d54333318661c4532875858f02bd728376e48374c1e77a28a03b172f64736f6c63430008070033",
					"opcodes": "PUSH1 0x80 PUSH1 0x40 MSTORE CALLVALUE DUP1 ISZERO PUSH2 0x10 JUMPI PUSH1 0x0 DUP1 REVERT JUMPDEST POP PUSH2 0x93C DUP1 PUSH2 0x20 PUSH1 0x0 CODECOPY PUSH1 0x0 RETURN INVALID PUSH1 0x80 PUSH1 0x40 MSTORE CALLVALUE DUP1 ISZERO PUSH2 0x10 JUMPI PUSH1 0x0 DUP1 REVERT JUMPDEST POP PUSH1 0x4 CALLDATASIZE LT PUSH2 0x4C JUMPI PUSH1 0x0 CALLDATALOAD PUSH1 0xE0 SHR DUP1 PUSH4 0x19045A25 EQ PUSH2 0x51 JUMPI DUP1 PUSH4 0x2DD34F0F EQ PUSH2 0x81 JUMPI DUP1 PUSH4 0x3F63BC39 EQ PUSH2 0xB1 JUMPI DUP1 PUSH4 0xB446F3B2 EQ PUSH2 0xE1 JUMPI JUMPDEST PUSH1 0x0 DUP1 REVERT JUMPDEST PUSH2 0x6B PUSH1 0x4 DUP1 CALLDATASIZE SUB DUP2 ADD SWAP1 PUSH2 0x66 SWAP2 SWAP1 PUSH2 0x450 JUMP JUMPDEST PUSH2 0x111 JUMP JUMPDEST PUSH1 0x40 MLOAD PUSH2 0x78 SWAP2 SWAP1 PUSH2 0x5FC JUMP JUMPDEST PUSH1 0x40 MLOAD DUP1 SWAP2 SUB SWAP1 RETURN JUMPDEST PUSH2 0x9B PUSH1 0x4 DUP1 CALLDATASIZE SUB DUP2 ADD SWAP1 PUSH2 0x96 SWAP2 SWAP1 PUSH2 0x398 JUMP JUMPDEST PUSH2 0x180 JUMP JUMPDEST PUSH1 0x40 MLOAD PUSH2 0xA8 SWAP2 SWAP1 PUSH2 0x617 JUMP JUMPDEST PUSH1 0x40 MLOAD DUP1 SWAP2 SUB SWAP1 RETURN JUMPDEST PUSH2 0xCB PUSH1 0x4 DUP1 CALLDATASIZE SUB DUP2 ADD SWAP1 PUSH2 0xC6 SWAP2 SWAP1 PUSH2 0x423 JUMP JUMPDEST PUSH2 0x1DE JUMP JUMPDEST PUSH1 0x40 MLOAD PUSH2 0xD8 SWAP2 SWAP1 PUSH2 0x632 JUMP JUMPDEST PUSH1 0x40 MLOAD DUP1 SWAP2 SUB SWAP1 RETURN JUMPDEST PUSH2 0xFB PUSH1 0x4 DUP1 CALLDATASIZE SUB DUP2 ADD SWAP1 PUSH2 0xF6 SWAP2 SWAP1 PUSH2 0x4AC JUMP JUMPDEST PUSH2 0x20E JUMP JUMPDEST PUSH1 0x40 MLOAD PUSH2 0x108 SWAP2 SWAP1 PUSH2 0x632 JUMP JUMPDEST PUSH1 0x40 MLOAD DUP1 SWAP2 SUB SWAP1 RETURN JUMPDEST PUSH1 0x0 DUP1 PUSH1 0x0 DUP1 PUSH2 0x120 DUP6 PUSH2 0x23E JUMP JUMPDEST SWAP3 POP SWAP3 POP SWAP3 POP PUSH1 0x1 DUP7 DUP3 DUP6 DUP6 PUSH1 0x40 MLOAD PUSH1 0x0 DUP2 MSTORE PUSH1 0x20 ADD PUSH1 0x40 MSTORE PUSH1 0x40 MLOAD PUSH2 0x149 SWAP5 SWAP4 SWAP3 SWAP2 SWAP1 PUSH2 0x64D JUMP JUMPDEST PUSH1 0x20 PUSH1 0x40 MLOAD PUSH1 0x20 DUP2 SUB SWAP1 DUP1 DUP5 SUB SWAP1 DUP6 GAS STATICCALL ISZERO DUP1 ISZERO PUSH2 0x16B JUMPI RETURNDATASIZE PUSH1 0x0 DUP1 RETURNDATACOPY RETURNDATASIZE PUSH1 0x0 REVERT JUMPDEST POP POP POP PUSH1 0x20 PUSH1 0x40 MLOAD SUB MLOAD SWAP4 POP POP POP POP SWAP3 SWAP2 POP POP JUMP JUMPDEST PUSH1 0x0 DUP1 PUSH2 0x18C DUP5 PUSH2 0x20E JUMP JUMPDEST SWAP1 POP PUSH1 0x0 PUSH2 0x199 DUP3 PUSH2 0x1DE JUMP JUMPDEST SWAP1 POP DUP6 PUSH20 0xFFFFFFFFFFFFFFFFFFFFFFFFFFFFFFFFFFFFFFFF AND PUSH2 0x1BC DUP3 DUP7 PUSH2 0x111 JUMP JUMPDEST PUSH20 0xFFFFFFFFFFFFFFFFFFFFFFFFFFFFFFFFFFFFFFFF AND EQ SWAP3 POP POP POP SWAP4 SWAP3 POP POP POP JUMP JUMPDEST PUSH1 0x0 DUP2 PUSH1 0x40 MLOAD PUSH1 0x20 ADD PUSH2 0x1F1 SWAP2 SWAP1 PUSH2 0x5D6 JUMP JUMPDEST PUSH1 0x40 MLOAD PUSH1 0x20 DUP2 DUP4 SUB SUB DUP2 MSTORE SWAP1 PUSH1 0x40 MSTORE DUP1 MLOAD SWAP1 PUSH1 0x20 ADD KECCAK256 SWAP1 POP SWAP2 SWAP1 POP JUMP JUMPDEST PUSH1 0x0 DUP2 PUSH1 0x40 MLOAD PUSH1 0x20 ADD PUSH2 0x221 SWAP2 SWAP1 PUSH2 0x5BF JUMP JUMPDEST PUSH1 0x40 MLOAD PUSH1 0x20 DUP2 DUP4 SUB SUB DUP2 MSTORE SWAP1 PUSH1 0x40 MSTORE DUP1 MLOAD SWAP1 PUSH1 0x20 ADD KECCAK256 SWAP1 POP SWAP2 SWAP1 POP JUMP JUMPDEST PUSH1 0x0 DUP1 PUSH1 0x0 PUSH1 0x41 DUP5 MLOAD EQ PUSH2 0x287 JUMPI PUSH1 0x40 MLOAD PUSH32 0x8C379A000000000000000000000000000000000000000000000000000000000 DUP2 MSTORE PUSH1 0x4 ADD PUSH2 0x27E SWAP1 PUSH2 0x692 JUMP JUMPDEST PUSH1 0x40 MLOAD DUP1 SWAP2 SUB SWAP1 REVERT JUMPDEST SWAP2 SWAP4 SWAP1 SWAP3 POP JUMP JUMPDEST PUSH1 0x0 PUSH2 0x2A1 PUSH2 0x29C DUP5 PUSH2 0x6D7 JUMP JUMPDEST PUSH2 0x6B2 JUMP JUMPDEST SWAP1 POP DUP3 DUP2 MSTORE PUSH1 0x20 DUP2 ADD DUP5 DUP5 DUP5 ADD GT ISZERO PUSH2 0x2BD JUMPI PUSH2 0x2BC PUSH2 0x866 JUMP JUMPDEST JUMPDEST PUSH2 0x2C8 DUP5 DUP3 DUP6 PUSH2 0x7B5 JUMP JUMPDEST POP SWAP4 SWAP3 POP POP POP JUMP JUMPDEST PUSH1 0x0 PUSH2 0x2E3 PUSH2 0x2DE DUP5 PUSH2 0x708 JUMP JUMPDEST PUSH2 0x6B2 JUMP JUMPDEST SWAP1 POP DUP3 DUP2 MSTORE PUSH1 0x20 DUP2 ADD DUP5 DUP5 DUP5 ADD GT ISZERO PUSH2 0x2FF JUMPI PUSH2 0x2FE PUSH2 0x866 JUMP JUMPDEST JUMPDEST PUSH2 0x30A DUP5 DUP3 DUP6 PUSH2 0x7B5 JUMP JUMPDEST POP SWAP4 SWAP3 POP POP POP JUMP JUMPDEST PUSH1 0x0 DUP2 CALLDATALOAD SWAP1 POP PUSH2 0x321 DUP2 PUSH2 0x8D8 JUMP JUMPDEST SWAP3 SWAP2 POP POP JUMP JUMPDEST PUSH1 0x0 DUP2 CALLDATALOAD SWAP1 POP PUSH2 0x336 DUP2 PUSH2 0x8EF JUMP JUMPDEST SWAP3 SWAP2 POP POP JUMP JUMPDEST PUSH1 0x0 DUP3 PUSH1 0x1F DUP4 ADD SLT PUSH2 0x351 JUMPI PUSH2 0x350 PUSH2 0x861 JUMP JUMPDEST JUMPDEST DUP2 CALLDATALOAD PUSH2 0x361 DUP5 DUP3 PUSH1 0x20 DUP7 ADD PUSH2 0x28E JUMP JUMPDEST SWAP2 POP POP SWAP3 SWAP2 POP POP JUMP JUMPDEST PUSH1 0x0 DUP3 PUSH1 0x1F DUP4 ADD SLT PUSH2 0x37F JUMPI PUSH2 0x37E PUSH2 0x861 JUMP JUMPDEST JUMPDEST DUP2 CALLDATALOAD PUSH2 0x38F DUP5 DUP3 PUSH1 0x20 DUP7 ADD PUSH2 0x2D0 JUMP JUMPDEST SWAP2 POP POP SWAP3 SWAP2 POP POP JUMP JUMPDEST PUSH1 0x0 DUP1 PUSH1 0x0 PUSH1 0x60 DUP5 DUP7 SUB SLT ISZERO PUSH2 0x3B1 JUMPI PUSH2 0x3B0 PUSH2 0x870 JUMP JUMPDEST JUMPDEST PUSH1 0x0 PUSH2 0x3BF DUP7 DUP3 DUP8 ADD PUSH2 0x312 JUMP JUMPDEST SWAP4 POP POP PUSH1 0x20 DUP5 ADD CALLDATALOAD PUSH8 0xFFFFFFFFFFFFFFFF DUP2 GT ISZERO PUSH2 0x3E0 JUMPI PUSH2 0x3DF PUSH2 0x86B JUMP JUMPDEST JUMPDEST PUSH2 0x3EC DUP7 DUP3 DUP8 ADD PUSH2 0x36A JUMP JUMPDEST SWAP3 POP POP PUSH1 0x40 DUP5 ADD CALLDATALOAD PUSH8 0xFFFFFFFFFFFFFFFF DUP2 GT ISZERO PUSH2 0x40D JUMPI PUSH2 0x40C PUSH2 0x86B JUMP JUMPDEST JUMPDEST PUSH2 0x419 DUP7 DUP3 DUP8 ADD PUSH2 0x33C JUMP JUMPDEST SWAP2 POP POP SWAP3 POP SWAP3 POP SWAP3 JUMP JUMPDEST PUSH1 0x0 PUSH1 0x20 DUP3 DUP5 SUB SLT ISZERO PUSH2 0x439 JUMPI PUSH2 0x438 PUSH2 0x870 JUMP JUMPDEST JUMPDEST PUSH1 0x0 PUSH2 0x447 DUP5 DUP3 DUP6 ADD PUSH2 0x327 JUMP JUMPDEST SWAP2 POP POP SWAP3 SWAP2 POP POP JUMP JUMPDEST PUSH1 0x0 DUP1 PUSH1 0x40 DUP4 DUP6 SUB SLT ISZERO PUSH2 0x467 JUMPI PUSH2 0x466 PUSH2 0x870 JUMP JUMPDEST JUMPDEST PUSH1 0x0 PUSH2 0x475 DUP6 DUP3 DUP7 ADD PUSH2 0x327 JUMP JUMPDEST SWAP3 POP POP PUSH1 0x20 DUP4 ADD CALLDATALOAD PUSH8 0xFFFFFFFFFFFFFFFF DUP2 GT ISZERO PUSH2 0x496 JUMPI PUSH2 0x495 PUSH2 0x86B JUMP JUMPDEST JUMPDEST PUSH2 0x4A2 DUP6 DUP3 DUP7 ADD PUSH2 0x33C JUMP JUMPDEST SWAP2 POP POP SWAP3 POP SWAP3 SWAP1 POP JUMP JUMPDEST PUSH1 0x0 PUSH1 0x20 DUP3 DUP5 SUB SLT ISZERO PUSH2 0x4C2 JUMPI PUSH2 0x4C1 PUSH2 0x870 JUMP JUMPDEST JUMPDEST PUSH1 0x0 DUP3 ADD CALLDATALOAD PUSH8 0xFFFFFFFFFFFFFFFF DUP2 GT ISZERO PUSH2 0x4E0 JUMPI PUSH2 0x4DF PUSH2 0x86B JUMP JUMPDEST JUMPDEST PUSH2 0x4EC DUP5 DUP3 DUP6 ADD PUSH2 0x36A JUMP JUMPDEST SWAP2 POP POP SWAP3 SWAP2 POP POP JUMP JUMPDEST PUSH2 0x4FE DUP2 PUSH2 0x760 JUMP JUMPDEST DUP3 MSTORE POP POP JUMP JUMPDEST PUSH2 0x50D DUP2 PUSH2 0x772 JUMP JUMPDEST DUP3 MSTORE POP POP JUMP JUMPDEST PUSH2 0x51C DUP2 PUSH2 0x77E JUMP JUMPDEST DUP3 MSTORE POP POP JUMP JUMPDEST PUSH2 0x533 PUSH2 0x52E DUP3 PUSH2 0x77E JUMP JUMPDEST PUSH2 0x828 JUMP JUMPDEST DUP3 MSTORE POP POP JUMP JUMPDEST PUSH1 0x0 PUSH2 0x544 DUP3 PUSH2 0x739 JUMP JUMPDEST PUSH2 0x54E DUP2 DUP6 PUSH2 0x755 JUMP JUMPDEST SWAP4 POP PUSH2 0x55E DUP2 DUP6 PUSH1 0x20 DUP7 ADD PUSH2 0x7C4 JUMP JUMPDEST DUP1 DUP5 ADD SWAP2 POP POP SWAP3 SWAP2 POP POP JUMP JUMPDEST PUSH1 0x0 PUSH2 0x577 PUSH1 0x1C DUP4 PUSH2 0x755 JUMP JUMPDEST SWAP2 POP PUSH2 0x582 DUP3 PUSH2 0x886 JUMP JUMPDEST PUSH1 0x1C DUP3 ADD SWAP1 POP SWAP2 SWAP1 POP JUMP JUMPDEST PUSH1 0x0 PUSH2 0x59A PUSH1 0x18 DUP4 PUSH2 0x744 JUMP JUMPDEST SWAP2 POP PUSH2 0x5A5 DUP3 PUSH2 0x8AF JUMP JUMPDEST PUSH1 0x20 DUP3 ADD SWAP1 POP SWAP2 SWAP1 POP JUMP JUMPDEST PUSH2 0x5B9 DUP2 PUSH2 0x7A8 JUMP JUMPDEST DUP3 MSTORE POP POP JUMP JUMPDEST PUSH1 0x0 PUSH2 0x5CB DUP3 DUP5 PUSH2 0x539 JUMP JUMPDEST SWAP2 POP DUP2 SWAP1 POP SWAP3 SWAP2 POP POP JUMP JUMPDEST PUSH1 0x0 PUSH2 0x5E1 DUP3 PUSH2 0x56A JUMP JUMPDEST SWAP2 POP PUSH2 0x5ED DUP3 DUP5 PUSH2 0x522 JUMP JUMPDEST PUSH1 0x20 DUP3 ADD SWAP2 POP DUP2 SWAP1 POP SWAP3 SWAP2 POP POP JUMP JUMPDEST PUSH1 0x0 PUSH1 0x20 DUP3 ADD SWAP1 POP PUSH2 0x611 PUSH1 0x0 DUP4 ADD DUP5 PUSH2 0x4F5 JUMP JUMPDEST SWAP3 SWAP2 POP POP JUMP JUMPDEST PUSH1 0x0 PUSH1 0x20 DUP3 ADD SWAP1 POP PUSH2 0x62C PUSH1 0x0 DUP4 ADD DUP5 PUSH2 0x504 JUMP JUMPDEST SWAP3 SWAP2 POP POP JUMP JUMPDEST PUSH1 0x0 PUSH1 0x20 DUP3 ADD SWAP1 POP PUSH2 0x647 PUSH1 0x0 DUP4 ADD DUP5 PUSH2 0x513 JUMP JUMPDEST SWAP3 SWAP2 POP POP JUMP JUMPDEST PUSH1 0x0 PUSH1 0x80 DUP3 ADD SWAP1 POP PUSH2 0x662 PUSH1 0x0 DUP4 ADD DUP8 PUSH2 0x513 JUMP JUMPDEST PUSH2 0x66F PUSH1 0x20 DUP4 ADD DUP7 PUSH2 0x5B0 JUMP JUMPDEST PUSH2 0x67C PUSH1 0x40 DUP4 ADD DUP6 PUSH2 0x513 JUMP JUMPDEST PUSH2 0x689 PUSH1 0x60 DUP4 ADD DUP5 PUSH2 0x513 JUMP JUMPDEST SWAP6 SWAP5 POP POP POP POP POP JUMP JUMPDEST PUSH1 0x0 PUSH1 0x20 DUP3 ADD SWAP1 POP DUP2 DUP2 SUB PUSH1 0x0 DUP4 ADD MSTORE PUSH2 0x6AB DUP2 PUSH2 0x58D JUMP JUMPDEST SWAP1 POP SWAP2 SWAP1 POP JUMP JUMPDEST PUSH1 0x0 PUSH2 0x6BC PUSH2 0x6CD JUMP JUMPDEST SWAP1 POP PUSH2 0x6C8 DUP3 DUP3 PUSH2 0x7F7 JUMP JUMPDEST SWAP2 SWAP1 POP JUMP JUMPDEST PUSH1 0x0 PUSH1 0x40 MLOAD SWAP1 POP SWAP1 JUMP JUMPDEST PUSH1 0x0 PUSH8 0xFFFFFFFFFFFFFFFF DUP3 GT ISZERO PUSH2 0x6F2 JUMPI PUSH2 0x6F1 PUSH2 0x832 JUMP JUMPDEST JUMPDEST PUSH2 0x6FB DUP3 PUSH2 0x875 JUMP JUMPDEST SWAP1 POP PUSH1 0x20 DUP2 ADD SWAP1 POP SWAP2 SWAP1 POP JUMP JUMPDEST PUSH1 0x0 PUSH8 0xFFFFFFFFFFFFFFFF DUP3 GT ISZERO PUSH2 0x723 JUMPI PUSH2 0x722 PUSH2 0x832 JUMP JUMPDEST JUMPDEST PUSH2 0x72C DUP3 PUSH2 0x875 JUMP JUMPDEST SWAP1 POP PUSH1 0x20 DUP2 ADD SWAP1 POP SWAP2 SWAP1 POP JUMP JUMPDEST PUSH1 0x0 DUP2 MLOAD SWAP1 POP SWAP2 SWAP1 POP JUMP JUMPDEST PUSH1 0x0 DUP3 DUP3 MSTORE PUSH1 0x20 DUP3 ADD SWAP1 POP SWAP3 SWAP2 POP POP JUMP JUMPDEST PUSH1 0x0 DUP2 SWAP1 POP SWAP3 SWAP2 POP POP JUMP JUMPDEST PUSH1 0x0 PUSH2 0x76B DUP3 PUSH2 0x788 JUMP JUMPDEST SWAP1 POP SWAP2 SWAP1 POP JUMP JUMPDEST PUSH1 0x0 DUP2 ISZERO ISZERO SWAP1 POP SWAP2 SWAP1 POP JUMP JUMPDEST PUSH1 0x0 DUP2 SWAP1 POP SWAP2 SWAP1 POP JUMP JUMPDEST PUSH1 0x0 PUSH20 0xFFFFFFFFFFFFFFFFFFFFFFFFFFFFFFFFFFFFFFFF DUP3 AND SWAP1 POP SWAP2 SWAP1 POP JUMP JUMPDEST PUSH1 0x0 PUSH1 0xFF DUP3 AND SWAP1 POP SWAP2 SWAP1 POP JUMP JUMPDEST DUP3 DUP2 DUP4 CALLDATACOPY PUSH1 0x0 DUP4 DUP4 ADD MSTORE POP POP POP JUMP JUMPDEST PUSH1 0x0 JUMPDEST DUP4 DUP2 LT ISZERO PUSH2 0x7E2 JUMPI DUP1 DUP3 ADD MLOAD DUP2 DUP5 ADD MSTORE PUSH1 0x20 DUP2 ADD SWAP1 POP PUSH2 0x7C7 JUMP JUMPDEST DUP4 DUP2 GT ISZERO PUSH2 0x7F1 JUMPI PUSH1 0x0 DUP5 DUP5 ADD MSTORE JUMPDEST POP POP POP POP JUMP JUMPDEST PUSH2 0x800 DUP3 PUSH2 0x875 JUMP JUMPDEST DUP2 ADD DUP2 DUP2 LT PUSH8 0xFFFFFFFFFFFFFFFF DUP3 GT OR ISZERO PUSH2 0x81F JUMPI PUSH2 0x81E PUSH2 0x832 JUMP JUMPDEST JUMPDEST DUP1 PUSH1 0x40 MSTORE POP POP POP JUMP JUMPDEST PUSH1 0x0 DUP2 SWAP1 POP SWAP2 SWAP1 POP JUMP JUMPDEST PUSH32 0x4E487B7100000000000000000000000000000000000000000000000000000000 PUSH1 0x0 MSTORE PUSH1 0x41 PUSH1 0x4 MSTORE PUSH1 0x24 PUSH1 0x0 REVERT JUMPDEST PUSH1 0x0 DUP1 REVERT JUMPDEST PUSH1 0x0 DUP1 REVERT JUMPDEST PUSH1 0x0 DUP1 REVERT JUMPDEST PUSH1 0x0 DUP1 REVERT JUMPDEST PUSH1 0x0 PUSH1 0x1F NOT PUSH1 0x1F DUP4 ADD AND SWAP1 POP SWAP2 SWAP1 POP JUMP JUMPDEST PUSH32 0x19457468657265756D205369676E6564204D6573736167653A0A333200000000 PUSH1 0x0 DUP3 ADD MSTORE POP JUMP JUMPDEST PUSH32 0x696E76616C6964207369676E6174757265206C656E6774680000000000000000 PUSH1 0x0 DUP3 ADD MSTORE POP JUMP JUMPDEST PUSH2 0x8E1 DUP2 PUSH2 0x760 JUMP JUMPDEST DUP2 EQ PUSH2 0x8EC JUMPI PUSH1 0x0 DUP1 REVERT JUMPDEST POP JUMP JUMPDEST PUSH2 0x8F8 DUP2 PUSH2 0x77E JUMP JUMPDEST DUP2 EQ PUSH2 0x903 JUMPI PUSH1 0x0 DUP1 REVERT JUMPDEST POP JUMP INVALID LOG2 PUSH5 0x6970667358 0x22 SLT KECCAK256 0xEE BALANCE SWAP1 LOG2 0xD5 NUMBER CALLER BALANCE DUP7 PUSH2 0xC453 0x28 PUSH22 0x858F02BD728376E48374C1E77A28A03B172F64736F6C PUSH4 0x43000807 STOP CALLER "
				},
				"gasEstimates": {
					"creation": {
						"codeDepositCost": "472800",
						"executionCost": "505",
						"totalCost": "473305"
					},
					"external": {
						"getEthSignMessageHash(bytes32)": "infinite",
						"getMessageHash(string)": "infinite",
						"recover(bytes32,bytes)": "infinite",
						"verify(address,string,bytes)": "infinite"
					},
					"internal": {
						"_split(bytes memory)": "infinite"
					}
				},
				"methodIdentifiers": {
					"getEthSignMessageHash(bytes32)": "3f63bc39",
					"getMessageHash(string)": "b446f3b2",
					"recover(bytes32,bytes)": "19045a25",
					"verify(address,string,bytes)": "2dd34f0f"
				}
			},
			"storageLayout": {
				"storage": [],
				"types": null
			},
			"userdoc": {
				"kind": "user",
				"methods": {},
				"version": 1
			}
		}
	}
}