{
	"Day20_Struct.sol": {
		"Struct": {
			"abi": [
				{
					"inputs": [],
					"name": "car",
					"outputs": [
						{
							"internalType": "string",
							"name": "model",
							"type": "string"
						},
						{
							"internalType": "bool",
							"name": "year",
							"type": "bool"
						},
						{
							"internalType": "address",
							"name": "owner",
							"type": "address"
						}
					],
					"stateMutability": "view",
					"type": "function"
				}
			],
			"devdoc": {
				"kind": "dev",
				"methods": {},
				"version": 1
			},
			"evm": {
				"assembly": "    /* \"Day20_Struct.sol\":58:190  contract Struct {... */\n  mstore(0x40, 0x80)\n  callvalue\n  dup1\n  iszero\n  tag_1\n  jumpi\n  0x00\n  dup1\n  revert\ntag_1:\n  pop\n  dataSize(sub_0)\n  dup1\n  dataOffset(sub_0)\n  0x00\n  codecopy\n  0x00\n  return\nstop\n\nsub_0: assembly {\n        /* \"Day20_Struct.sol\":58:190  contract Struct {... */\n      mstore(0x40, 0x80)\n      callvalue\n      dup1\n      iszero\n      tag_1\n      jumpi\n      0x00\n      dup1\n      revert\n    tag_1:\n      pop\n      jumpi(tag_2, lt(calldatasize, 0x04))\n      shr(0xe0, calldataload(0x00))\n      dup1\n      0xee26fac3\n      eq\n      tag_3\n      jumpi\n    tag_2:\n      0x00\n      dup1\n      revert\n        /* \"Day20_Struct.sol\":168:182  Car public car */\n    tag_3:\n      tag_4\n      tag_5\n      jump\t// in\n    tag_4:\n      mload(0x40)\n      tag_6\n      swap4\n      swap3\n      swap2\n      swap1\n      tag_7\n      jump\t// in\n    tag_6:\n      mload(0x40)\n      dup1\n      swap2\n      sub\n      swap1\n      return\n    tag_5:\n      0x00\n      dup1\n      0x00\n      add\n      dup1\n      sload\n      tag_8\n      swap1\n      tag_9\n      jump\t// in\n    tag_8:\n      dup1\n      0x1f\n      add\n      0x20\n      dup1\n      swap2\n      div\n      mul\n      0x20\n      add\n      mload(0x40)\n      swap1\n      dup2\n      add\n      0x40\n      mstore\n      dup1\n      swap3\n      swap2\n      swap1\n      dup2\n      dup2\n      mstore\n      0x20\n      add\n      dup3\n      dup1\n      sload\n      tag_10\n      swap1\n      tag_9\n      jump\t// in\n    tag_10:\n      dup1\n      iszero\n      tag_11\n      jumpi\n      dup1\n      0x1f\n      lt\n      tag_12\n      jumpi\n      0x0100\n      dup1\n      dup4\n      sload\n      div\n      mul\n      dup4\n      mstore\n      swap2\n      0x20\n      add\n      swap2\n      jump(tag_11)\n    tag_12:\n      dup3\n      add\n      swap2\n      swap1\n      0x00\n      mstore\n      keccak256(0x00, 0x20)\n      swap1\n    tag_13:\n      dup2\n      sload\n      dup2\n      mstore\n      swap1\n      0x01\n      add\n      swap1\n      0x20\n      add\n      dup1\n      dup4\n      gt\n      tag_13\n      jumpi\n      dup3\n      swap1\n      sub\n      0x1f\n      and\n      dup3\n      add\n      swap2\n    tag_11:\n      pop\n      pop\n      pop\n      pop\n      pop\n      swap1\n      dup1\n      0x01\n      add\n      0x00\n      swap1\n      sload\n      swap1\n      0x0100\n      exp\n      swap1\n      div\n      0xff\n      and\n      swap1\n      dup1\n      0x01\n      add\n      0x01\n      swap1\n      sload\n      swap1\n      0x0100\n      exp\n      swap1\n      div\n      0xffffffffffffffffffffffffffffffffffffffff\n      and\n      swap1\n      pop\n      dup4\n      jump\t// out\n        /* \"#utility.yul\":7:125   */\n    tag_15:\n        /* \"#utility.yul\":94:118   */\n      tag_17\n        /* \"#utility.yul\":112:117   */\n      dup2\n        /* \"#utility.yul\":94:118   */\n      tag_18\n      jump\t// in\n    tag_17:\n        /* \"#utility.yul\":89:92   */\n      dup3\n        /* \"#utility.yul\":82:119   */\n      mstore\n        /* \"#utility.yul\":7:125   */\n      pop\n      pop\n      jump\t// out\n        /* \"#utility.yul\":131:240   */\n    tag_19:\n        /* \"#utility.yul\":212:233   */\n      tag_21\n        /* \"#utility.yul\":227:232   */\n      dup2\n        /* \"#utility.yul\":212:233   */\n      tag_22\n      jump\t// in\n    tag_21:\n        /* \"#utility.yul\":207:210   */\n      dup3\n        /* \"#utility.yul\":200:234   */\n      mstore\n        /* \"#utility.yul\":131:240   */\n      pop\n      pop\n      jump\t// out\n        /* \"#utility.yul\":246:610   */\n    tag_23:\n        /* \"#utility.yul\":334:337   */\n      0x00\n        /* \"#utility.yul\":362:401   */\n      tag_25\n        /* \"#utility.yul\":395:400   */\n      dup3\n        /* \"#utility.yul\":362:401   */\n      tag_26\n      jump\t// in\n    tag_25:\n        /* \"#utility.yul\":417:488   */\n      tag_27\n        /* \"#utility.yul\":481:487   */\n      dup2\n        /* \"#utility.yul\":476:479   */\n      dup6\n        /* \"#utility.yul\":417:488   */\n      tag_28\n      jump\t// in\n    tag_27:\n        /* \"#utility.yul\":410:488   */\n      swap4\n      pop\n        /* \"#utility.yul\":497:549   */\n      tag_29\n        /* \"#utility.yul\":542:548   */\n      dup2\n        /* \"#utility.yul\":537:540   */\n      dup6\n        /* \"#utility.yul\":530:534   */\n      0x20\n        /* \"#utility.yul\":523:528   */\n      dup7\n        /* \"#utility.yul\":519:535   */\n      add\n        /* \"#utility.yul\":497:549   */\n      tag_30\n      jump\t// in\n    tag_29:\n        /* \"#utility.yul\":574:603   */\n      tag_31\n        /* \"#utility.yul\":596:602   */\n      dup2\n        /* \"#utility.yul\":574:603   */\n      tag_32\n      jump\t// in\n    tag_31:\n        /* \"#utility.yul\":569:572   */\n      dup5\n        /* \"#utility.yul\":565:604   */\n      add\n        /* \"#utility.yul\":558:604   */\n      swap2\n      pop\n        /* \"#utility.yul\":338:610   */\n      pop\n        /* \"#utility.yul\":246:610   */\n      swap3\n      swap2\n      pop\n      pop\n      jump\t// out\n        /* \"#utility.yul\":616:1137   */\n    tag_7:\n        /* \"#utility.yul\":779:783   */\n      0x00\n        /* \"#utility.yul\":817:819   */\n      0x60\n        /* \"#utility.yul\":806:815   */\n      dup3\n        /* \"#utility.yul\":802:820   */\n      add\n        /* \"#utility.yul\":794:820   */\n      swap1\n      pop\n        /* \"#utility.yul\":866:875   */\n      dup2\n        /* \"#utility.yul\":860:864   */\n      dup2\n        /* \"#utility.yul\":856:876   */\n      sub\n        /* \"#utility.yul\":852:853   */\n      0x00\n        /* \"#utility.yul\":841:850   */\n      dup4\n        /* \"#utility.yul\":837:854   */\n      add\n        /* \"#utility.yul\":830:877   */\n      mstore\n        /* \"#utility.yul\":894:972   */\n      tag_34\n        /* \"#utility.yul\":967:971   */\n      dup2\n        /* \"#utility.yul\":958:964   */\n      dup7\n        /* \"#utility.yul\":894:972   */\n      tag_23\n      jump\t// in\n    tag_34:\n        /* \"#utility.yul\":886:972   */\n      swap1\n      pop\n        /* \"#utility.yul\":982:1048   */\n      tag_35\n        /* \"#utility.yul\":1044:1046   */\n      0x20\n        /* \"#utility.yul\":1033:1042   */\n      dup4\n        /* \"#utility.yul\":1029:1047   */\n      add\n        /* \"#utility.yul\":1020:1026   */\n      dup6\n        /* \"#utility.yul\":982:1048   */\n      tag_19\n      jump\t// in\n    tag_35:\n        /* \"#utility.yul\":1058:1130   */\n      tag_36\n        /* \"#utility.yul\":1126:1128   */\n      0x40\n        /* \"#utility.yul\":1115:1124   */\n      dup4\n        /* \"#utility.yul\":1111:1129   */\n      add\n        /* \"#utility.yul\":1102:1108   */\n      dup5\n        /* \"#utility.yul\":1058:1130   */\n      tag_15\n      jump\t// in\n    tag_36:\n        /* \"#utility.yul\":616:1137   */\n      swap5\n      swap4\n      pop\n      pop\n      pop\n      pop\n      jump\t// out\n        /* \"#utility.yul\":1143:1242   */\n    tag_26:\n        /* \"#utility.yul\":1195:1201   */\n      0x00\n        /* \"#utility.yul\":1229:1234   */\n      dup2\n        /* \"#utility.yul\":1223:1235   */\n      mload\n        /* \"#utility.yul\":1213:1235   */\n      swap1\n      pop\n        /* \"#utility.yul\":1143:1242   */\n      swap2\n      swap1\n      pop\n      jump\t// out\n        /* \"#utility.yul\":1248:1417   */\n    tag_28:\n        /* \"#utility.yul\":1332:1343   */\n      0x00\n        /* \"#utility.yul\":1366:1372   */\n      dup3\n        /* \"#utility.yul\":1361:1364   */\n      dup3\n        /* \"#utility.yul\":1354:1373   */\n      mstore\n        /* \"#utility.yul\":1406:1410   */\n      0x20\n        /* \"#utility.yul\":1401:1404   */\n      dup3\n        /* \"#utility.yul\":1397:1411   */\n      add\n        /* \"#utility.yul\":1382:1411   */\n      swap1\n      pop\n        /* \"#utility.yul\":1248:1417   */\n      swap3\n      swap2\n      pop\n      pop\n      jump\t// out\n        /* \"#utility.yul\":1423:1519   */\n    tag_18:\n        /* \"#utility.yul\":1460:1467   */\n      0x00\n        /* \"#utility.yul\":1489:1513   */\n      tag_40\n        /* \"#utility.yul\":1507:1512   */\n      dup3\n        /* \"#utility.yul\":1489:1513   */\n      tag_41\n      jump\t// in\n    tag_40:\n        /* \"#utility.yul\":1478:1513   */\n      swap1\n      pop\n        /* \"#utility.yul\":1423:1519   */\n      swap2\n      swap1\n      pop\n      jump\t// out\n        /* \"#utility.yul\":1525:1615   */\n    tag_22:\n        /* \"#utility.yul\":1559:1566   */\n      0x00\n        /* \"#utility.yul\":1602:1607   */\n      dup2\n        /* \"#utility.yul\":1595:1608   */\n      iszero\n        /* \"#utility.yul\":1588:1609   */\n      iszero\n        /* \"#utility.yul\":1577:1609   */\n      swap1\n      pop\n        /* \"#utility.yul\":1525:1615   */\n      swap2\n      swap1\n      pop\n      jump\t// out\n        /* \"#utility.yul\":1621:1747   */\n    tag_41:\n        /* \"#utility.yul\":1658:1665   */\n      0x00\n        /* \"#utility.yul\":1698:1740   */\n      0xffffffffffffffffffffffffffffffffffffffff\n        /* \"#utility.yul\":1691:1696   */\n      dup3\n        /* \"#utility.yul\":1687:1741   */\n      and\n        /* \"#utility.yul\":1676:1741   */\n      swap1\n      pop\n        /* \"#utility.yul\":1621:1747   */\n      swap2\n      swap1\n      pop\n      jump\t// out\n        /* \"#utility.yul\":1753:2060   */\n    tag_30:\n        /* \"#utility.yul\":1821:1822   */\n      0x00\n        /* \"#utility.yul\":1831:1944   */\n    tag_45:\n        /* \"#utility.yul\":1845:1851   */\n      dup4\n        /* \"#utility.yul\":1842:1843   */\n      dup2\n        /* \"#utility.yul\":1839:1852   */\n      lt\n        /* \"#utility.yul\":1831:1944   */\n      iszero\n      tag_47\n      jumpi\n        /* \"#utility.yul\":1930:1931   */\n      dup1\n        /* \"#utility.yul\":1925:1928   */\n      dup3\n        /* \"#utility.yul\":1921:1932   */\n      add\n        /* \"#utility.yul\":1915:1933   */\n      mload\n        /* \"#utility.yul\":1911:1912   */\n      dup2\n        /* \"#utility.yul\":1906:1909   */\n      dup5\n        /* \"#utility.yul\":1902:1913   */\n      add\n        /* \"#utility.yul\":1895:1934   */\n      mstore\n        /* \"#utility.yul\":1867:1869   */\n      0x20\n        /* \"#utility.yul\":1864:1865   */\n      dup2\n        /* \"#utility.yul\":1860:1870   */\n      add\n        /* \"#utility.yul\":1855:1870   */\n      swap1\n      pop\n        /* \"#utility.yul\":1831:1944   */\n      jump(tag_45)\n    tag_47:\n        /* \"#utility.yul\":1962:1968   */\n      dup4\n        /* \"#utility.yul\":1959:1960   */\n      dup2\n        /* \"#utility.yul\":1956:1969   */\n      gt\n        /* \"#utility.yul\":1953:2054   */\n      iszero\n      tag_48\n      jumpi\n        /* \"#utility.yul\":2042:2043   */\n      0x00\n        /* \"#utility.yul\":2033:2039   */\n      dup5\n        /* \"#utility.yul\":2028:2031   */\n      dup5\n        /* \"#utility.yul\":2024:2040   */\n      add\n        /* \"#utility.yul\":2017:2044   */\n      mstore\n        /* \"#utility.yul\":1953:2054   */\n    tag_48:\n        /* \"#utility.yul\":1802:2060   */\n      pop\n        /* \"#utility.yul\":1753:2060   */\n      pop\n      pop\n      pop\n      jump\t// out\n        /* \"#utility.yul\":2066:2386   */\n    tag_9:\n        /* \"#utility.yul\":2110:2116   */\n      0x00\n        /* \"#utility.yul\":2147:2148   */\n      0x02\n        /* \"#utility.yul\":2141:2145   */\n      dup3\n        /* \"#utility.yul\":2137:2149   */\n      div\n        /* \"#utility.yul\":2127:2149   */\n      swap1\n      pop\n        /* \"#utility.yul\":2194:2195   */\n      0x01\n        /* \"#utility.yul\":2188:2192   */\n      dup3\n        /* \"#utility.yul\":2184:2196   */\n      and\n        /* \"#utility.yul\":2215:2233   */\n      dup1\n        /* \"#utility.yul\":2205:2286   */\n      tag_50\n      jumpi\n        /* \"#utility.yul\":2271:2275   */\n      0x7f\n        /* \"#utility.yul\":2263:2269   */\n      dup3\n        /* \"#utility.yul\":2259:2276   */\n      and\n        /* \"#utility.yul\":2249:2276   */\n      swap2\n      pop\n        /* \"#utility.yul\":2205:2286   */\n    tag_50:\n        /* \"#utility.yul\":2333:2335   */\n      0x20\n        /* \"#utility.yul\":2325:2331   */\n      dup3\n        /* \"#utility.yul\":2322:2336   */\n      lt\n        /* \"#utility.yul\":2302:2320   */\n      dup2\n        /* \"#utility.yul\":2299:2337   */\n      eq\n        /* \"#utility.yul\":2296:2380   */\n      iszero\n      tag_51\n      jumpi\n        /* \"#utility.yul\":2352:2370   */\n      tag_52\n      tag_53\n      jump\t// in\n    tag_52:\n        /* \"#utility.yul\":2296:2380   */\n    tag_51:\n        /* \"#utility.yul\":2117:2386   */\n      pop\n        /* \"#utility.yul\":2066:2386   */\n      swap2\n      swap1\n      pop\n      jump\t// out\n        /* \"#utility.yul\":2392:2572   */\n    tag_53:\n        /* \"#utility.yul\":2440:2517   */\n      0x4e487b7100000000000000000000000000000000000000000000000000000000\n        /* \"#utility.yul\":2437:2438   */\n      0x00\n        /* \"#utility.yul\":2430:2518   */\n      mstore\n        /* \"#utility.yul\":2537:2541   */\n      0x22\n        /* \"#utility.yul\":2534:2535   */\n      0x04\n        /* \"#utility.yul\":2527:2542   */\n      mstore\n        /* \"#utility.yul\":2561:2565   */\n      0x24\n        /* \"#utility.yul\":2558:2559   */\n      0x00\n        /* \"#utility.yul\":2551:2566   */\n      revert\n        /* \"#utility.yul\":2578:2680   */\n    tag_32:\n        /* \"#utility.yul\":2619:2625   */\n      0x00\n        /* \"#utility.yul\":2670:2672   */\n      0x1f\n        /* \"#utility.yul\":2666:2673   */\n      not\n        /* \"#utility.yul\":2661:2663   */\n      0x1f\n        /* \"#utility.yul\":2654:2659   */\n      dup4\n        /* \"#utility.yul\":2650:2664   */\n      add\n        /* \"#utility.yul\":2646:2674   */\n      and\n        /* \"#utility.yul\":2636:2674   */\n      swap1\n      pop\n        /* \"#utility.yul\":2578:2680   */\n      swap2\n      swap1\n      pop\n      jump\t// out\n\n    auxdata: 0xa2646970667358221220e9a1f9e87d1d9bf68f89f5994aed04ee1ad30cf174712447049a626b8cd0513964736f6c63430008070033\n}\n",
				"bytecode": {
					"linkReferences": {},
					"object": "608060405234801561001057600080fd5b506102e7806100206000396000f3fe608060405234801561001057600080fd5b506004361061002b5760003560e01c8063ee26fac314610030575b600080fd5b610038610050565b60405161004793929190610174565b60405180910390f35b60008060000180546100619061023f565b80601f016020809104026020016040519081016040528092919081815260200182805461008d9061023f565b80156100da5780601f106100af576101008083540402835291602001916100da565b820191906000526020600020905b8154815290600101906020018083116100bd57829003601f168201915b5050505050908060010160009054906101000a900460ff16908060010160019054906101000a900473ffffffffffffffffffffffffffffffffffffffff16905083565b610126816101ce565b82525050565b610135816101e0565b82525050565b6000610146826101b2565b61015081856101bd565b935061016081856020860161020c565b610169816102a0565b840191505092915050565b6000606082019050818103600083015261018e818661013b565b905061019d602083018561012c565b6101aa604083018461011d565b949350505050565b600081519050919050565b600082825260208201905092915050565b60006101d9826101ec565b9050919050565b60008115159050919050565b600073ffffffffffffffffffffffffffffffffffffffff82169050919050565b60005b8381101561022a57808201518184015260208101905061020f565b83811115610239576000848401525b50505050565b6000600282049050600182168061025757607f821691505b6020821081141561026b5761026a610271565b5b50919050565b7f4e487b7100000000000000000000000000000000000000000000000000000000600052602260045260246000fd5b6000601f19601f830116905091905056fea2646970667358221220e9a1f9e87d1d9bf68f89f5994aed04ee1ad30cf174712447049a626b8cd0513964736f6c63430008070033",
					"opcodes": "PUSH1 0x80 PUSH1 0x40 MSTORE CALLVALUE DUP1 ISZERO PUSH2 0x10 JUMPI PUSH1 0x0 DUP1 REVERT JUMPDEST POP PUSH2 0x2E7 DUP1 PUSH2 0x20 PUSH1 0x0 CODECOPY PUSH1 0x0 RETURN INVALID PUSH1 0x80 PUSH1 0x40 MSTORE CALLVALUE DUP1 ISZERO PUSH2 0x10 JUMPI PUSH1 0x0 DUP1 REVERT JUMPDEST POP PUSH1 0x4 CALLDATASIZE LT PUSH2 0x2B JUMPI PUSH1 0x0 CALLDATALOAD PUSH1 0xE0 SHR DUP1 PUSH4 0xEE26FAC3 EQ PUSH2 0x30 JUMPI JUMPDEST PUSH1 0x0 DUP1 REVERT JUMPDEST PUSH2 0x38 PUSH2 0x50 JUMP JUMPDEST PUSH1 0x40 MLOAD PUSH2 0x47 SWAP4 SWAP3 SWAP2 SWAP1 PUSH2 0x174 JUMP JUMPDEST PUSH1 0x40 MLOAD DUP1 SWAP2 SUB SWAP1 RETURN JUMPDEST PUSH1 0x0 DUP1 PUSH1 0x0 ADD DUP1 SLOAD PUSH2 0x61 SWAP1 PUSH2 0x23F JUMP JUMPDEST DUP1 PUSH1 0x1F ADD PUSH1 0x20 DUP1 SWAP2 DIV MUL PUSH1 0x20 ADD PUSH1 0x40 MLOAD SWAP1 DUP2 ADD PUSH1 0x40 MSTORE DUP1 SWAP3 SWAP2 SWAP1 DUP2 DUP2 MSTORE PUSH1 0x20 ADD DUP3 DUP1 SLOAD PUSH2 0x8D SWAP1 PUSH2 0x23F JUMP JUMPDEST DUP1 ISZERO PUSH2 0xDA JUMPI DUP1 PUSH1 0x1F LT PUSH2 0xAF JUMPI PUSH2 0x100 DUP1 DUP4 SLOAD DIV MUL DUP4 MSTORE SWAP2 PUSH1 0x20 ADD SWAP2 PUSH2 0xDA JUMP JUMPDEST DUP3 ADD SWAP2 SWAP1 PUSH1 0x0 MSTORE PUSH1 0x20 PUSH1 0x0 KECCAK256 SWAP1 JUMPDEST DUP2 SLOAD DUP2 MSTORE SWAP1 PUSH1 0x1 ADD SWAP1 PUSH1 0x20 ADD DUP1 DUP4 GT PUSH2 0xBD JUMPI DUP3 SWAP1 SUB PUSH1 0x1F AND DUP3 ADD SWAP2 JUMPDEST POP POP POP POP POP SWAP1 DUP1 PUSH1 0x1 ADD PUSH1 0x0 SWAP1 SLOAD SWAP1 PUSH2 0x100 EXP SWAP1 DIV PUSH1 0xFF AND SWAP1 DUP1 PUSH1 0x1 ADD PUSH1 0x1 SWAP1 SLOAD SWAP1 PUSH2 0x100 EXP SWAP1 DIV PUSH20 0xFFFFFFFFFFFFFFFFFFFFFFFFFFFFFFFFFFFFFFFF AND SWAP1 POP DUP4 JUMP JUMPDEST PUSH2 0x126 DUP2 PUSH2 0x1CE JUMP JUMPDEST DUP3 MSTORE POP POP JUMP JUMPDEST PUSH2 0x135 DUP2 PUSH2 0x1E0 JUMP JUMPDEST DUP3 MSTORE POP POP JUMP JUMPDEST PUSH1 0x0 PUSH2 0x146 DUP3 PUSH2 0x1B2 JUMP JUMPDEST PUSH2 0x150 DUP2 DUP6 PUSH2 0x1BD JUMP JUMPDEST SWAP4 POP PUSH2 0x160 DUP2 DUP6 PUSH1 0x20 DUP7 ADD PUSH2 0x20C JUMP JUMPDEST PUSH2 0x169 DUP2 PUSH2 0x2A0 JUMP JUMPDEST DUP5 ADD SWAP2 POP POP SWAP3 SWAP2 POP POP JUMP JUMPDEST PUSH1 0x0 PUSH1 0x60 DUP3 ADD SWAP1 POP DUP2 DUP2 SUB PUSH1 0x0 DUP4 ADD MSTORE PUSH2 0x18E DUP2 DUP7 PUSH2 0x13B JUMP JUMPDEST SWAP1 POP PUSH2 0x19D PUSH1 0x20 DUP4 ADD DUP6 PUSH2 0x12C JUMP JUMPDEST PUSH2 0x1AA PUSH1 0x40 DUP4 ADD DUP5 PUSH2 0x11D JUMP JUMPDEST SWAP5 SWAP4 POP POP POP POP JUMP JUMPDEST PUSH1 0x0 DUP2 MLOAD SWAP1 POP SWAP2 SWAP1 POP JUMP JUMPDEST PUSH1 0x0 DUP3 DUP3 MSTORE PUSH1 0x20 DUP3 ADD SWAP1 POP SWAP3 SWAP2 POP POP JUMP JUMPDEST PUSH1 0x0 PUSH2 0x1D9 DUP3 PUSH2 0x1EC JUMP JUMPDEST SWAP1 POP SWAP2 SWAP1 POP JUMP JUMPDEST PUSH1 0x0 DUP2 ISZERO ISZERO SWAP1 POP SWAP2 SWAP1 POP JUMP JUMPDEST PUSH1 0x0 PUSH20 0xFFFFFFFFFFFFFFFFFFFFFFFFFFFFFFFFFFFFFFFF DUP3 AND SWAP1 POP SWAP2 SWAP1 POP JUMP JUMPDEST PUSH1 0x0 JUMPDEST DUP4 DUP2 LT ISZERO PUSH2 0x22A JUMPI DUP1 DUP3 ADD MLOAD DUP2 DUP5 ADD MSTORE PUSH1 0x20 DUP2 ADD SWAP1 POP PUSH2 0x20F JUMP JUMPDEST DUP4 DUP2 GT ISZERO PUSH2 0x239 JUMPI PUSH1 0x0 DUP5 DUP5 ADD MSTORE JUMPDEST POP POP POP POP JUMP JUMPDEST PUSH1 0x0 PUSH1 0x2 DUP3 DIV SWAP1 POP PUSH1 0x1 DUP3 AND DUP1 PUSH2 0x257 JUMPI PUSH1 0x7F DUP3 AND SWAP2 POP JUMPDEST PUSH1 0x20 DUP3 LT DUP2 EQ ISZERO PUSH2 0x26B JUMPI PUSH2 0x26A PUSH2 0x271 JUMP JUMPDEST JUMPDEST POP SWAP2 SWAP1 POP JUMP JUMPDEST PUSH32 0x4E487B7100000000000000000000000000000000000000000000000000000000 PUSH1 0x0 MSTORE PUSH1 0x22 PUSH1 0x4 MSTORE PUSH1 0x24 PUSH1 0x0 REVERT JUMPDEST PUSH1 0x0 PUSH1 0x1F NOT PUSH1 0x1F DUP4 ADD AND SWAP1 POP SWAP2 SWAP1 POP JUMP INVALID LOG2 PUSH5 0x6970667358 0x22 SLT KECCAK256 0xE9 LOG1 0xF9 0xE8 PUSH30 0x1D9BF68F89F5994AED04EE1AD30CF174712447049A626B8CD0513964736F PUSH13 0x63430008070033000000000000 "
				},
				"gasEstimates": {
					"creation": {
						"codeDepositCost": "148600",
						"executionCost": "196",
						"totalCost": "148796"
					},
					"external": {
						"car()": "infinite"
					}
				},
				"methodIdentifiers": {
					"car()": "ee26fac3"
				}
			},
			"storageLayout": {
				"storage": [
					{
						"astId": 11,
						"contract": "Day20_Struct.sol:Struct",
						"label": "car",
						"offset": 0,
						"slot": "0",
						"type": "t_struct(Car)8_storage"
					}
				],
				"types": {
					"t_address": {
						"encoding": "inplace",
						"label": "address",
						"numberOfBytes": "20"
					},
					"t_bool": {
						"encoding": "inplace",
						"label": "bool",
						"numberOfBytes": "1"
					},
					"t_string_storage": {
						"encoding": "bytes",
						"label": "string",
						"numberOfBytes": "32"
					},
					"t_struct(Car)8_storage": {
						"encoding": "inplace",
						"label": "struct Struct.Car",
						"members": [
							{
								"astId": 3,
								"contract": "Day20_Struct.sol:Struct",
								"label": "model",
								"offset": 0,
								"slot": "0",
								"type": "t_string_storage"
							},
							{
								"astId": 5,
								"contract": "Day20_Struct.sol:Struct",
								"label": "year",
								"offset": 0,
								"slot": "1",
								"type": "t_bool"
							},
							{
								"astId": 7,
								"contract": "Day20_Struct.sol:Struct",
								"label": "owner",
								"offset": 1,
								"slot": "1",
								"type": "t_address"
							}
						],
						"numberOfBytes": "64"
					}
				}
			},
			"userdoc": {
				"kind": "user",
				"methods": {},
				"version": 1
			}
		}
	}
}