{
	"Day56_Gas_Golf.sol": {
		"GasGolf": {
			"abi": [
				{
					"inputs": [
						{
							"internalType": "uint256[]",
							"name": "nums",
							"type": "uint256[]"
						}
					],
					"name": "sumIfEvenAndLessThan99",
					"outputs": [],
					"stateMutability": "nonpayable",
					"type": "function"
				},
				{
					"inputs": [],
					"name": "total",
					"outputs": [
						{
							"internalType": "uint256",
							"name": "",
							"type": "uint256"
						}
					],
					"stateMutability": "view",
					"type": "function"
				}
			],
			"devdoc": {
				"kind": "dev",
				"methods": {},
				"version": 1
			},
			"evm": {
				"assembly": "    /* \"Day56_Gas_Golf.sol\":70:1327  contract GasGolf {... */\n  mstore(0x40, 0x80)\n  callvalue\n  dup1\n  iszero\n  tag_1\n  jumpi\n  0x00\n  dup1\n  revert\ntag_1:\n  pop\n  dataSize(sub_0)\n  dup1\n  dataOffset(sub_0)\n  0x00\n  codecopy\n  0x00\n  return\nstop\n\nsub_0: assembly {\n        /* \"Day56_Gas_Golf.sol\":70:1327  contract GasGolf {... */\n      mstore(0x40, 0x80)\n      callvalue\n      dup1\n      iszero\n      tag_1\n      jumpi\n      0x00\n      dup1\n      revert\n    tag_1:\n      pop\n      jumpi(tag_2, lt(calldatasize, 0x04))\n      shr(0xe0, calldataload(0x00))\n      dup1\n      0x2ddbd13a\n      eq\n      tag_3\n      jumpi\n      dup1\n      0xc9762ec2\n      eq\n      tag_4\n      jumpi\n    tag_2:\n      0x00\n      dup1\n      revert\n        /* \"Day56_Gas_Golf.sol\":406:423  uint public total */\n    tag_3:\n      tag_5\n      tag_6\n      jump\t// in\n    tag_5:\n      mload(0x40)\n      tag_7\n      swap2\n      swap1\n      tag_8\n      jump\t// in\n    tag_7:\n      mload(0x40)\n      dup1\n      swap2\n      sub\n      swap1\n      return\n        /* \"Day56_Gas_Golf.sol\":855:1199  function sumIfEvenAndLessThan99(uint[] calldata nums) external {... */\n    tag_4:\n      tag_9\n      0x04\n      dup1\n      calldatasize\n      sub\n      dup2\n      add\n      swap1\n      tag_10\n      swap2\n      swap1\n      tag_11\n      jump\t// in\n    tag_10:\n      tag_12\n      jump\t// in\n    tag_9:\n      stop\n        /* \"Day56_Gas_Golf.sol\":406:423  uint public total */\n    tag_6:\n      sload(0x00)\n      dup2\n      jump\t// out\n        /* \"Day56_Gas_Golf.sol\":855:1199  function sumIfEvenAndLessThan99(uint[] calldata nums) external {... */\n    tag_12:\n        /* \"Day56_Gas_Golf.sol\":928:939  uint _total */\n      0x00\n        /* \"Day56_Gas_Golf.sol\":942:947  total */\n      dup1\n      sload\n        /* \"Day56_Gas_Golf.sol\":928:947  uint _total = total */\n      swap1\n      pop\n        /* \"Day56_Gas_Golf.sol\":957:965  uint len */\n      0x00\n        /* \"Day56_Gas_Golf.sol\":968:972  nums */\n      dup4\n      dup4\n        /* \"Day56_Gas_Golf.sol\":968:979  nums.length */\n      swap1\n      pop\n        /* \"Day56_Gas_Golf.sol\":957:979  uint len = nums.length */\n      swap1\n      pop\n        /* \"Day56_Gas_Golf.sol\":995:1001  uint i */\n      0x00\n        /* \"Day56_Gas_Golf.sol\":990:1168  for (uint i = 0; i < len; i=unchecked_inc(i)) {... */\n    tag_14:\n        /* \"Day56_Gas_Golf.sol\":1011:1014  len */\n      dup2\n        /* \"Day56_Gas_Golf.sol\":1007:1008  i */\n      dup2\n        /* \"Day56_Gas_Golf.sol\":1007:1014  i < len */\n      lt\n        /* \"Day56_Gas_Golf.sol\":990:1168  for (uint i = 0; i < len; i=unchecked_inc(i)) {... */\n      iszero\n      tag_15\n      jumpi\n        /* \"Day56_Gas_Golf.sol\":1050:1058  uint num */\n      0x00\n        /* \"Day56_Gas_Golf.sol\":1061:1065  nums */\n      dup6\n      dup6\n        /* \"Day56_Gas_Golf.sol\":1066:1067  i */\n      dup4\n        /* \"Day56_Gas_Golf.sol\":1061:1068  nums[i] */\n      dup2\n      dup2\n      lt\n      tag_17\n      jumpi\n      tag_18\n      tag_19\n      jump\t// in\n    tag_18:\n    tag_17:\n      swap1\n      pop\n      0x20\n      mul\n      add\n      calldataload\n        /* \"Day56_Gas_Golf.sol\":1050:1068  uint num = nums[i] */\n      swap1\n      pop\n        /* \"Day56_Gas_Golf.sol\":1097:1098  0 */\n      0x00\n        /* \"Day56_Gas_Golf.sol\":1092:1093  2 */\n      0x02\n        /* \"Day56_Gas_Golf.sol\":1086:1089  num */\n      dup3\n        /* \"Day56_Gas_Golf.sol\":1086:1093  num % 2 */\n      tag_20\n      swap2\n      swap1\n      tag_21\n      jump\t// in\n    tag_20:\n        /* \"Day56_Gas_Golf.sol\":1086:1098  num % 2 == 0 */\n      eq\n        /* \"Day56_Gas_Golf.sol\":1086:1110  num % 2 == 0 && num < 99 */\n      dup1\n      iszero\n      tag_22\n      jumpi\n      pop\n        /* \"Day56_Gas_Golf.sol\":1108:1110  99 */\n      0x63\n        /* \"Day56_Gas_Golf.sol\":1102:1105  num */\n      dup2\n        /* \"Day56_Gas_Golf.sol\":1102:1110  num < 99 */\n      lt\n        /* \"Day56_Gas_Golf.sol\":1086:1110  num % 2 == 0 && num < 99 */\n    tag_22:\n        /* \"Day56_Gas_Golf.sol\":1082:1158  if (num % 2 == 0 && num < 99) {... */\n      iszero\n      tag_23\n      jumpi\n        /* \"Day56_Gas_Golf.sol\":1140:1143  num */\n      dup1\n        /* \"Day56_Gas_Golf.sol\":1130:1143  _total += num */\n      dup5\n      tag_24\n      swap2\n      swap1\n      tag_25\n      jump\t// in\n    tag_24:\n      swap4\n      pop\n        /* \"Day56_Gas_Golf.sol\":1082:1158  if (num % 2 == 0 && num < 99) {... */\n    tag_23:\n        /* \"Day56_Gas_Golf.sol\":1036:1168  {... */\n      pop\n        /* \"Day56_Gas_Golf.sol\":1018:1034  unchecked_inc(i) */\n      tag_26\n        /* \"Day56_Gas_Golf.sol\":1032:1033  i */\n      dup2\n        /* \"Day56_Gas_Golf.sol\":1018:1031  unchecked_inc */\n      tag_27\n        /* \"Day56_Gas_Golf.sol\":1018:1034  unchecked_inc(i) */\n      jump\t// in\n    tag_26:\n        /* \"Day56_Gas_Golf.sol\":1016:1034  i=unchecked_inc(i) */\n      swap1\n      pop\n        /* \"Day56_Gas_Golf.sol\":990:1168  for (uint i = 0; i < len; i=unchecked_inc(i)) {... */\n      jump(tag_14)\n    tag_15:\n      pop\n        /* \"Day56_Gas_Golf.sol\":1186:1192  _total */\n      dup2\n        /* \"Day56_Gas_Golf.sol\":1178:1183  total */\n      0x00\n        /* \"Day56_Gas_Golf.sol\":1178:1192  total = _total */\n      dup2\n      swap1\n      sstore\n      pop\n        /* \"Day56_Gas_Golf.sol\":918:1199  {... */\n      pop\n      pop\n        /* \"Day56_Gas_Golf.sol\":855:1199  function sumIfEvenAndLessThan99(uint[] calldata nums) external {... */\n      pop\n      pop\n      jump\t// out\n        /* \"Day56_Gas_Golf.sol\":1205:1325  function unchecked_inc(uint i) internal pure returns(uint){... */\n    tag_27:\n        /* \"Day56_Gas_Golf.sol\":1258:1262  uint */\n      0x00\n        /* \"Day56_Gas_Golf.sol\":1291:1294  i++ */\n      dup2\n      dup1\n      0x01\n      add\n      swap3\n      pop\n      pop\n        /* \"Day56_Gas_Golf.sol\":1317:1318  i */\n      dup2\n        /* \"Day56_Gas_Golf.sol\":1310:1318  return i */\n      swap1\n      pop\n        /* \"Day56_Gas_Golf.sol\":1205:1325  function unchecked_inc(uint i) internal pure returns(uint){... */\n      swap2\n      swap1\n      pop\n      jump\t// out\n        /* \"#utility.yul\":7:84   */\n    tag_29:\n        /* \"#utility.yul\":44:51   */\n      0x00\n        /* \"#utility.yul\":73:78   */\n      dup2\n        /* \"#utility.yul\":62:78   */\n      swap1\n      pop\n        /* \"#utility.yul\":7:84   */\n      swap2\n      swap1\n      pop\n      jump\t// out\n        /* \"#utility.yul\":90:208   */\n    tag_30:\n        /* \"#utility.yul\":177:201   */\n      tag_43\n        /* \"#utility.yul\":195:200   */\n      dup2\n        /* \"#utility.yul\":177:201   */\n      tag_29\n      jump\t// in\n    tag_43:\n        /* \"#utility.yul\":172:175   */\n      dup3\n        /* \"#utility.yul\":165:202   */\n      mstore\n        /* \"#utility.yul\":90:208   */\n      pop\n      pop\n      jump\t// out\n        /* \"#utility.yul\":214:436   */\n    tag_8:\n        /* \"#utility.yul\":307:311   */\n      0x00\n        /* \"#utility.yul\":345:347   */\n      0x20\n        /* \"#utility.yul\":334:343   */\n      dup3\n        /* \"#utility.yul\":330:348   */\n      add\n        /* \"#utility.yul\":322:348   */\n      swap1\n      pop\n        /* \"#utility.yul\":358:429   */\n      tag_45\n        /* \"#utility.yul\":426:427   */\n      0x00\n        /* \"#utility.yul\":415:424   */\n      dup4\n        /* \"#utility.yul\":411:428   */\n      add\n        /* \"#utility.yul\":402:408   */\n      dup5\n        /* \"#utility.yul\":358:429   */\n      tag_30\n      jump\t// in\n    tag_45:\n        /* \"#utility.yul\":214:436   */\n      swap3\n      swap2\n      pop\n      pop\n      jump\t// out\n        /* \"#utility.yul\":523:640   */\n    tag_32:\n        /* \"#utility.yul\":632:633   */\n      0x00\n        /* \"#utility.yul\":629:630   */\n      dup1\n        /* \"#utility.yul\":622:634   */\n      revert\n        /* \"#utility.yul\":646:763   */\n    tag_33:\n        /* \"#utility.yul\":755:756   */\n      0x00\n        /* \"#utility.yul\":752:753   */\n      dup1\n        /* \"#utility.yul\":745:757   */\n      revert\n        /* \"#utility.yul\":769:886   */\n    tag_34:\n        /* \"#utility.yul\":878:879   */\n      0x00\n        /* \"#utility.yul\":875:876   */\n      dup1\n        /* \"#utility.yul\":868:880   */\n      revert\n        /* \"#utility.yul\":892:1009   */\n    tag_35:\n        /* \"#utility.yul\":1001:1002   */\n      0x00\n        /* \"#utility.yul\":998:999   */\n      dup1\n        /* \"#utility.yul\":991:1003   */\n      revert\n        /* \"#utility.yul\":1015:1132   */\n    tag_36:\n        /* \"#utility.yul\":1124:1125   */\n      0x00\n        /* \"#utility.yul\":1121:1122   */\n      dup1\n        /* \"#utility.yul\":1114:1126   */\n      revert\n        /* \"#utility.yul\":1155:1723   */\n    tag_37:\n        /* \"#utility.yul\":1228:1236   */\n      0x00\n        /* \"#utility.yul\":1238:1244   */\n      dup1\n        /* \"#utility.yul\":1288:1291   */\n      dup4\n        /* \"#utility.yul\":1281:1285   */\n      0x1f\n        /* \"#utility.yul\":1273:1279   */\n      dup5\n        /* \"#utility.yul\":1269:1286   */\n      add\n        /* \"#utility.yul\":1265:1292   */\n      slt\n        /* \"#utility.yul\":1255:1377   */\n      tag_53\n      jumpi\n        /* \"#utility.yul\":1296:1375   */\n      tag_54\n      tag_34\n      jump\t// in\n    tag_54:\n        /* \"#utility.yul\":1255:1377   */\n    tag_53:\n        /* \"#utility.yul\":1409:1415   */\n      dup3\n        /* \"#utility.yul\":1396:1416   */\n      calldataload\n        /* \"#utility.yul\":1386:1416   */\n      swap1\n      pop\n        /* \"#utility.yul\":1439:1457   */\n      0xffffffffffffffff\n        /* \"#utility.yul\":1431:1437   */\n      dup2\n        /* \"#utility.yul\":1428:1458   */\n      gt\n        /* \"#utility.yul\":1425:1542   */\n      iszero\n      tag_55\n      jumpi\n        /* \"#utility.yul\":1461:1540   */\n      tag_56\n      tag_35\n      jump\t// in\n    tag_56:\n        /* \"#utility.yul\":1425:1542   */\n    tag_55:\n        /* \"#utility.yul\":1575:1579   */\n      0x20\n        /* \"#utility.yul\":1567:1573   */\n      dup4\n        /* \"#utility.yul\":1563:1580   */\n      add\n        /* \"#utility.yul\":1551:1580   */\n      swap2\n      pop\n        /* \"#utility.yul\":1629:1632   */\n      dup4\n        /* \"#utility.yul\":1621:1625   */\n      0x20\n        /* \"#utility.yul\":1613:1619   */\n      dup3\n        /* \"#utility.yul\":1609:1626   */\n      mul\n        /* \"#utility.yul\":1599:1607   */\n      dup4\n        /* \"#utility.yul\":1595:1627   */\n      add\n        /* \"#utility.yul\":1592:1633   */\n      gt\n        /* \"#utility.yul\":1589:1717   */\n      iszero\n      tag_57\n      jumpi\n        /* \"#utility.yul\":1636:1715   */\n      tag_58\n      tag_36\n      jump\t// in\n    tag_58:\n        /* \"#utility.yul\":1589:1717   */\n    tag_57:\n        /* \"#utility.yul\":1155:1723   */\n      swap3\n      pop\n      swap3\n      swap1\n      pop\n      jump\t// out\n        /* \"#utility.yul\":1729:2288   */\n    tag_11:\n        /* \"#utility.yul\":1815:1821   */\n      0x00\n        /* \"#utility.yul\":1823:1829   */\n      dup1\n        /* \"#utility.yul\":1872:1874   */\n      0x20\n        /* \"#utility.yul\":1860:1869   */\n      dup4\n        /* \"#utility.yul\":1851:1858   */\n      dup6\n        /* \"#utility.yul\":1847:1870   */\n      sub\n        /* \"#utility.yul\":1843:1875   */\n      slt\n        /* \"#utility.yul\":1840:1959   */\n      iszero\n      tag_60\n      jumpi\n        /* \"#utility.yul\":1878:1957   */\n      tag_61\n      tag_32\n      jump\t// in\n    tag_61:\n        /* \"#utility.yul\":1840:1959   */\n    tag_60:\n        /* \"#utility.yul\":2026:2027   */\n      0x00\n        /* \"#utility.yul\":2015:2024   */\n      dup4\n        /* \"#utility.yul\":2011:2028   */\n      add\n        /* \"#utility.yul\":1998:2029   */\n      calldataload\n        /* \"#utility.yul\":2056:2074   */\n      0xffffffffffffffff\n        /* \"#utility.yul\":2048:2054   */\n      dup2\n        /* \"#utility.yul\":2045:2075   */\n      gt\n        /* \"#utility.yul\":2042:2159   */\n      iszero\n      tag_62\n      jumpi\n        /* \"#utility.yul\":2078:2157   */\n      tag_63\n      tag_33\n      jump\t// in\n    tag_63:\n        /* \"#utility.yul\":2042:2159   */\n    tag_62:\n        /* \"#utility.yul\":2191:2271   */\n      tag_64\n        /* \"#utility.yul\":2263:2270   */\n      dup6\n        /* \"#utility.yul\":2254:2260   */\n      dup3\n        /* \"#utility.yul\":2243:2252   */\n      dup7\n        /* \"#utility.yul\":2239:2261   */\n      add\n        /* \"#utility.yul\":2191:2271   */\n      tag_37\n      jump\t// in\n    tag_64:\n        /* \"#utility.yul\":2173:2271   */\n      swap3\n      pop\n      swap3\n      pop\n        /* \"#utility.yul\":1969:2281   */\n      pop\n        /* \"#utility.yul\":1729:2288   */\n      swap3\n      pop\n      swap3\n      swap1\n      pop\n      jump\t// out\n        /* \"#utility.yul\":2294:2474   */\n    tag_19:\n        /* \"#utility.yul\":2342:2419   */\n      0x4e487b7100000000000000000000000000000000000000000000000000000000\n        /* \"#utility.yul\":2339:2340   */\n      0x00\n        /* \"#utility.yul\":2332:2420   */\n      mstore\n        /* \"#utility.yul\":2439:2443   */\n      0x32\n        /* \"#utility.yul\":2436:2437   */\n      0x04\n        /* \"#utility.yul\":2429:2444   */\n      mstore\n        /* \"#utility.yul\":2463:2467   */\n      0x24\n        /* \"#utility.yul\":2460:2461   */\n      0x00\n        /* \"#utility.yul\":2453:2468   */\n      revert\n        /* \"#utility.yul\":2480:2660   */\n    tag_38:\n        /* \"#utility.yul\":2528:2605   */\n      0x4e487b7100000000000000000000000000000000000000000000000000000000\n        /* \"#utility.yul\":2525:2526   */\n      0x00\n        /* \"#utility.yul\":2518:2606   */\n      mstore\n        /* \"#utility.yul\":2625:2629   */\n      0x12\n        /* \"#utility.yul\":2622:2623   */\n      0x04\n        /* \"#utility.yul\":2615:2630   */\n      mstore\n        /* \"#utility.yul\":2649:2653   */\n      0x24\n        /* \"#utility.yul\":2646:2647   */\n      0x00\n        /* \"#utility.yul\":2639:2654   */\n      revert\n        /* \"#utility.yul\":2666:2842   */\n    tag_21:\n        /* \"#utility.yul\":2698:2699   */\n      0x00\n        /* \"#utility.yul\":2715:2735   */\n      tag_68\n        /* \"#utility.yul\":2733:2734   */\n      dup3\n        /* \"#utility.yul\":2715:2735   */\n      tag_29\n      jump\t// in\n    tag_68:\n        /* \"#utility.yul\":2710:2735   */\n      swap2\n      pop\n        /* \"#utility.yul\":2749:2769   */\n      tag_69\n        /* \"#utility.yul\":2767:2768   */\n      dup4\n        /* \"#utility.yul\":2749:2769   */\n      tag_29\n      jump\t// in\n    tag_69:\n        /* \"#utility.yul\":2744:2769   */\n      swap3\n      pop\n        /* \"#utility.yul\":2788:2789   */\n      dup3\n        /* \"#utility.yul\":2778:2813   */\n      tag_70\n      jumpi\n        /* \"#utility.yul\":2793:2811   */\n      tag_71\n      tag_38\n      jump\t// in\n    tag_71:\n        /* \"#utility.yul\":2778:2813   */\n    tag_70:\n        /* \"#utility.yul\":2834:2835   */\n      dup3\n        /* \"#utility.yul\":2831:2832   */\n      dup3\n        /* \"#utility.yul\":2827:2836   */\n      mod\n        /* \"#utility.yul\":2822:2836   */\n      swap1\n      pop\n        /* \"#utility.yul\":2666:2842   */\n      swap3\n      swap2\n      pop\n      pop\n      jump\t// out\n        /* \"#utility.yul\":2848:3028   */\n    tag_39:\n        /* \"#utility.yul\":2896:2973   */\n      0x4e487b7100000000000000000000000000000000000000000000000000000000\n        /* \"#utility.yul\":2893:2894   */\n      0x00\n        /* \"#utility.yul\":2886:2974   */\n      mstore\n        /* \"#utility.yul\":2993:2997   */\n      0x11\n        /* \"#utility.yul\":2990:2991   */\n      0x04\n        /* \"#utility.yul\":2983:2998   */\n      mstore\n        /* \"#utility.yul\":3017:3021   */\n      0x24\n        /* \"#utility.yul\":3014:3015   */\n      0x00\n        /* \"#utility.yul\":3007:3022   */\n      revert\n        /* \"#utility.yul\":3034:3339   */\n    tag_25:\n        /* \"#utility.yul\":3074:3077   */\n      0x00\n        /* \"#utility.yul\":3093:3113   */\n      tag_74\n        /* \"#utility.yul\":3111:3112   */\n      dup3\n        /* \"#utility.yul\":3093:3113   */\n      tag_29\n      jump\t// in\n    tag_74:\n        /* \"#utility.yul\":3088:3113   */\n      swap2\n      pop\n        /* \"#utility.yul\":3127:3147   */\n      tag_75\n        /* \"#utility.yul\":3145:3146   */\n      dup4\n        /* \"#utility.yul\":3127:3147   */\n      tag_29\n      jump\t// in\n    tag_75:\n        /* \"#utility.yul\":3122:3147   */\n      swap3\n      pop\n        /* \"#utility.yul\":3281:3282   */\n      dup3\n        /* \"#utility.yul\":3213:3279   */\n      0xffffffffffffffffffffffffffffffffffffffffffffffffffffffffffffffff\n        /* \"#utility.yul\":3209:3283   */\n      sub\n        /* \"#utility.yul\":3206:3207   */\n      dup3\n        /* \"#utility.yul\":3203:3284   */\n      gt\n        /* \"#utility.yul\":3200:3307   */\n      iszero\n      tag_76\n      jumpi\n        /* \"#utility.yul\":3287:3305   */\n      tag_77\n      tag_39\n      jump\t// in\n    tag_77:\n        /* \"#utility.yul\":3200:3307   */\n    tag_76:\n        /* \"#utility.yul\":3331:3332   */\n      dup3\n        /* \"#utility.yul\":3328:3329   */\n      dup3\n        /* \"#utility.yul\":3324:3333   */\n      add\n        /* \"#utility.yul\":3317:3333   */\n      swap1\n      pop\n        /* \"#utility.yul\":3034:3339   */\n      swap3\n      swap2\n      pop\n      pop\n      jump\t// out\n\n    auxdata: 0xa264697066735822122008224bcdf1a23816ec4532566d3a4a132265a6b526329075008c59b05a7a08a964736f6c634300080f0033\n}\n",
				"bytecode": {
					"linkReferences": {},
					"object": "608060405234801561001057600080fd5b5061034d806100206000396000f3fe608060405234801561001057600080fd5b50600436106100365760003560e01c80632ddbd13a1461003b578063c9762ec214610059575b600080fd5b610043610075565b604051610050919061012c565b60405180910390f35b610073600480360381019061006e91906101b6565b61007b565b005b60005481565b600080549050600083839050905060005b818110156100f35760008585838181106100a9576100a8610203565b5b90506020020135905060006002826100c19190610261565b1480156100ce5750606381105b156100e25780846100df91906102c1565b93505b506100ec81610101565b905061008c565b508160008190555050505050565b60008180600101925050819050919050565b6000819050919050565b61012681610113565b82525050565b6000602082019050610141600083018461011d565b92915050565b600080fd5b600080fd5b600080fd5b600080fd5b600080fd5b60008083601f84011261017657610175610151565b5b8235905067ffffffffffffffff81111561019357610192610156565b5b6020830191508360208202830111156101af576101ae61015b565b5b9250929050565b600080602083850312156101cd576101cc610147565b5b600083013567ffffffffffffffff8111156101eb576101ea61014c565b5b6101f785828601610160565b92509250509250929050565b7f4e487b7100000000000000000000000000000000000000000000000000000000600052603260045260246000fd5b7f4e487b7100000000000000000000000000000000000000000000000000000000600052601260045260246000fd5b600061026c82610113565b915061027783610113565b92508261028757610286610232565b5b828206905092915050565b7f4e487b7100000000000000000000000000000000000000000000000000000000600052601160045260246000fd5b60006102cc82610113565b91506102d783610113565b9250827fffffffffffffffffffffffffffffffffffffffffffffffffffffffffffffffff0382111561030c5761030b610292565b5b82820190509291505056fea264697066735822122008224bcdf1a23816ec4532566d3a4a132265a6b526329075008c59b05a7a08a964736f6c634300080f0033",
					"opcodes": "PUSH1 0x80 PUSH1 0x40 MSTORE CALLVALUE DUP1 ISZERO PUSH2 0x10 JUMPI PUSH1 0x0 DUP1 REVERT JUMPDEST POP PUSH2 0x34D DUP1 PUSH2 0x20 PUSH1 0x0 CODECOPY PUSH1 0x0 RETURN INVALID PUSH1 0x80 PUSH1 0x40 MSTORE CALLVALUE DUP1 ISZERO PUSH2 0x10 JUMPI PUSH1 0x0 DUP1 REVERT JUMPDEST POP PUSH1 0x4 CALLDATASIZE LT PUSH2 0x36 JUMPI PUSH1 0x0 CALLDATALOAD PUSH1 0xE0 SHR DUP1 PUSH4 0x2DDBD13A EQ PUSH2 0x3B JUMPI DUP1 PUSH4 0xC9762EC2 EQ PUSH2 0x59 JUMPI JUMPDEST PUSH1 0x0 DUP1 REVERT JUMPDEST PUSH2 0x43 PUSH2 0x75 JUMP JUMPDEST PUSH1 0x40 MLOAD PUSH2 0x50 SWAP2 SWAP1 PUSH2 0x12C JUMP JUMPDEST PUSH1 0x40 MLOAD DUP1 SWAP2 SUB SWAP1 RETURN JUMPDEST PUSH2 0x73 PUSH1 0x4 DUP1 CALLDATASIZE SUB DUP2 ADD SWAP1 PUSH2 0x6E SWAP2 SWAP1 PUSH2 0x1B6 JUMP JUMPDEST PUSH2 0x7B JUMP JUMPDEST STOP JUMPDEST PUSH1 0x0 SLOAD DUP2 JUMP JUMPDEST PUSH1 0x0 DUP1 SLOAD SWAP1 POP PUSH1 0x0 DUP4 DUP4 SWAP1 POP SWAP1 POP PUSH1 0x0 JUMPDEST DUP2 DUP2 LT ISZERO PUSH2 0xF3 JUMPI PUSH1 0x0 DUP6 DUP6 DUP4 DUP2 DUP2 LT PUSH2 0xA9 JUMPI PUSH2 0xA8 PUSH2 0x203 JUMP JUMPDEST JUMPDEST SWAP1 POP PUSH1 0x20 MUL ADD CALLDATALOAD SWAP1 POP PUSH1 0x0 PUSH1 0x2 DUP3 PUSH2 0xC1 SWAP2 SWAP1 PUSH2 0x261 JUMP JUMPDEST EQ DUP1 ISZERO PUSH2 0xCE JUMPI POP PUSH1 0x63 DUP2 LT JUMPDEST ISZERO PUSH2 0xE2 JUMPI DUP1 DUP5 PUSH2 0xDF SWAP2 SWAP1 PUSH2 0x2C1 JUMP JUMPDEST SWAP4 POP JUMPDEST POP PUSH2 0xEC DUP2 PUSH2 0x101 JUMP JUMPDEST SWAP1 POP PUSH2 0x8C JUMP JUMPDEST POP DUP2 PUSH1 0x0 DUP2 SWAP1 SSTORE POP POP POP POP POP JUMP JUMPDEST PUSH1 0x0 DUP2 DUP1 PUSH1 0x1 ADD SWAP3 POP POP DUP2 SWAP1 POP SWAP2 SWAP1 POP JUMP JUMPDEST PUSH1 0x0 DUP2 SWAP1 POP SWAP2 SWAP1 POP JUMP JUMPDEST PUSH2 0x126 DUP2 PUSH2 0x113 JUMP JUMPDEST DUP3 MSTORE POP POP JUMP JUMPDEST PUSH1 0x0 PUSH1 0x20 DUP3 ADD SWAP1 POP PUSH2 0x141 PUSH1 0x0 DUP4 ADD DUP5 PUSH2 0x11D JUMP JUMPDEST SWAP3 SWAP2 POP POP JUMP JUMPDEST PUSH1 0x0 DUP1 REVERT JUMPDEST PUSH1 0x0 DUP1 REVERT JUMPDEST PUSH1 0x0 DUP1 REVERT JUMPDEST PUSH1 0x0 DUP1 REVERT JUMPDEST PUSH1 0x0 DUP1 REVERT JUMPDEST PUSH1 0x0 DUP1 DUP4 PUSH1 0x1F DUP5 ADD SLT PUSH2 0x176 JUMPI PUSH2 0x175 PUSH2 0x151 JUMP JUMPDEST JUMPDEST DUP3 CALLDATALOAD SWAP1 POP PUSH8 0xFFFFFFFFFFFFFFFF DUP2 GT ISZERO PUSH2 0x193 JUMPI PUSH2 0x192 PUSH2 0x156 JUMP JUMPDEST JUMPDEST PUSH1 0x20 DUP4 ADD SWAP2 POP DUP4 PUSH1 0x20 DUP3 MUL DUP4 ADD GT ISZERO PUSH2 0x1AF JUMPI PUSH2 0x1AE PUSH2 0x15B JUMP JUMPDEST JUMPDEST SWAP3 POP SWAP3 SWAP1 POP JUMP JUMPDEST PUSH1 0x0 DUP1 PUSH1 0x20 DUP4 DUP6 SUB SLT ISZERO PUSH2 0x1CD JUMPI PUSH2 0x1CC PUSH2 0x147 JUMP JUMPDEST JUMPDEST PUSH1 0x0 DUP4 ADD CALLDATALOAD PUSH8 0xFFFFFFFFFFFFFFFF DUP2 GT ISZERO PUSH2 0x1EB JUMPI PUSH2 0x1EA PUSH2 0x14C JUMP JUMPDEST JUMPDEST PUSH2 0x1F7 DUP6 DUP3 DUP7 ADD PUSH2 0x160 JUMP JUMPDEST SWAP3 POP SWAP3 POP POP SWAP3 POP SWAP3 SWAP1 POP JUMP JUMPDEST PUSH32 0x4E487B7100000000000000000000000000000000000000000000000000000000 PUSH1 0x0 MSTORE PUSH1 0x32 PUSH1 0x4 MSTORE PUSH1 0x24 PUSH1 0x0 REVERT JUMPDEST PUSH32 0x4E487B7100000000000000000000000000000000000000000000000000000000 PUSH1 0x0 MSTORE PUSH1 0x12 PUSH1 0x4 MSTORE PUSH1 0x24 PUSH1 0x0 REVERT JUMPDEST PUSH1 0x0 PUSH2 0x26C DUP3 PUSH2 0x113 JUMP JUMPDEST SWAP2 POP PUSH2 0x277 DUP4 PUSH2 0x113 JUMP JUMPDEST SWAP3 POP DUP3 PUSH2 0x287 JUMPI PUSH2 0x286 PUSH2 0x232 JUMP JUMPDEST JUMPDEST DUP3 DUP3 MOD SWAP1 POP SWAP3 SWAP2 POP POP JUMP JUMPDEST PUSH32 0x4E487B7100000000000000000000000000000000000000000000000000000000 PUSH1 0x0 MSTORE PUSH1 0x11 PUSH1 0x4 MSTORE PUSH1 0x24 PUSH1 0x0 REVERT JUMPDEST PUSH1 0x0 PUSH2 0x2CC DUP3 PUSH2 0x113 JUMP JUMPDEST SWAP2 POP PUSH2 0x2D7 DUP4 PUSH2 0x113 JUMP JUMPDEST SWAP3 POP DUP3 PUSH32 0xFFFFFFFFFFFFFFFFFFFFFFFFFFFFFFFFFFFFFFFFFFFFFFFFFFFFFFFFFFFFFFFF SUB DUP3 GT ISZERO PUSH2 0x30C JUMPI PUSH2 0x30B PUSH2 0x292 JUMP JUMPDEST JUMPDEST DUP3 DUP3 ADD SWAP1 POP SWAP3 SWAP2 POP POP JUMP INVALID LOG2 PUSH5 0x6970667358 0x22 SLT KECCAK256 ADDMOD 0x22 0x4B 0xCD CALL LOG2 CODESIZE AND 0xEC GASLIMIT ORIGIN JUMP PUSH14 0x3A4A132265A6B526329075008C59 0xB0 GAS PUSH27 0x8A964736F6C634300080F00330000000000000000000000000000 "
				},
				"gasEstimates": {
					"creation": {
						"codeDepositCost": "169000",
						"executionCost": "214",
						"totalCost": "169214"
					},
					"external": {
						"sumIfEvenAndLessThan99(uint256[])": "infinite",
						"total()": "2407"
					},
					"internal": {
						"unchecked_inc(uint256)": "47"
					}
				},
				"methodIdentifiers": {
					"sumIfEvenAndLessThan99(uint256[])": "c9762ec2",
					"total()": "2ddbd13a"
				}
			},
			"storageLayout": {
				"storage": [
					{
						"astId": 3,
						"contract": "Day56_Gas_Golf.sol:GasGolf",
						"label": "total",
						"offset": 0,
						"slot": "0",
						"type": "t_uint256"
					}
				],
				"types": {
					"t_uint256": {
						"encoding": "inplace",
						"label": "uint256",
						"numberOfBytes": "32"
					}
				}
			},
			"userdoc": {
				"kind": "user",
				"methods": {},
				"version": 1
			}
		}
	}
}