{
	"Day34_EthWallet.sol": {
		"EtherWallet": {
			"abi": [
				{
					"inputs": [],
					"stateMutability": "nonpayable",
					"type": "constructor"
				},
				{
					"inputs": [],
					"name": "owner",
					"outputs": [
						{
							"internalType": "address payable",
							"name": "",
							"type": "address"
						}
					],
					"stateMutability": "view",
					"type": "function"
				},
				{
					"inputs": [
						{
							"internalType": "uint256",
							"name": "_amount",
							"type": "uint256"
						}
					],
					"name": "withdraw",
					"outputs": [],
					"stateMutability": "nonpayable",
					"type": "function"
				},
				{
					"stateMutability": "payable",
					"type": "receive"
				}
			],
			"devdoc": {
				"kind": "dev",
				"methods": {},
				"version": 1
			},
			"evm": {
				"assembly": "    /* \"Day34_EthWallet.sol\":58:340  contract EtherWallet {... */\n  mstore(0x40, 0x80)\n    /* \"Day34_EthWallet.sol\":120:178  constructor() {... */\n  callvalue\n  dup1\n  iszero\n  tag_1\n  jumpi\n  0x00\n  dup1\n  revert\ntag_1:\n  pop\n    /* \"Day34_EthWallet.sol\":160:170  msg.sender */\n  caller\n    /* \"Day34_EthWallet.sol\":144:149  owner */\n  0x00\n  dup1\n    /* \"Day34_EthWallet.sol\":144:171  owner = payable(msg.sender) */\n  0x0100\n  exp\n  dup2\n  sload\n  dup2\n  0xffffffffffffffffffffffffffffffffffffffff\n  mul\n  not\n  and\n  swap1\n  dup4\n  0xffffffffffffffffffffffffffffffffffffffff\n  and\n  mul\n  or\n  swap1\n  sstore\n  pop\n    /* \"Day34_EthWallet.sol\":58:340  contract EtherWallet {... */\n  dataSize(sub_0)\n  dup1\n  dataOffset(sub_0)\n  0x00\n  codecopy\n  0x00\n  return\nstop\n\nsub_0: assembly {\n        /* \"Day34_EthWallet.sol\":58:340  contract EtherWallet {... */\n      mstore(0x40, 0x80)\n      jumpi(tag_1, lt(calldatasize, 0x04))\n      shr(0xe0, calldataload(0x00))\n      dup1\n      0x2e1a7d4d\n      eq\n      tag_3\n      jumpi\n      dup1\n      0x8da5cb5b\n      eq\n      tag_4\n      jumpi\n      jump(tag_2)\n    tag_1:\n      jumpi(tag_2, calldatasize)\n      stop\n    tag_2:\n      0x00\n      dup1\n      revert\n        /* \"Day34_EthWallet.sol\":219:338  function withdraw (uint _amount) external {... */\n    tag_3:\n      callvalue\n      dup1\n      iszero\n      tag_7\n      jumpi\n      0x00\n      dup1\n      revert\n    tag_7:\n      pop\n      tag_8\n      0x04\n      dup1\n      calldatasize\n      sub\n      dup2\n      add\n      swap1\n      tag_9\n      swap2\n      swap1\n      tag_10\n      jump\t// in\n    tag_9:\n      tag_11\n      jump\t// in\n    tag_8:\n      stop\n        /* \"Day34_EthWallet.sol\":85:113  address payable public owner */\n    tag_4:\n      callvalue\n      dup1\n      iszero\n      tag_12\n      jumpi\n      0x00\n      dup1\n      revert\n    tag_12:\n      pop\n      tag_13\n      tag_14\n      jump\t// in\n    tag_13:\n      mload(0x40)\n      tag_15\n      swap2\n      swap1\n      tag_16\n      jump\t// in\n    tag_15:\n      mload(0x40)\n      dup1\n      swap2\n      sub\n      swap1\n      return\n        /* \"Day34_EthWallet.sol\":219:338  function withdraw (uint _amount) external {... */\n    tag_11:\n        /* \"Day34_EthWallet.sol\":293:298  owner */\n      0x00\n      dup1\n      sload\n      swap1\n      0x0100\n      exp\n      swap1\n      div\n      0xffffffffffffffffffffffffffffffffffffffff\n      and\n        /* \"Day34_EthWallet.sol\":279:298  msg.sender == owner */\n      0xffffffffffffffffffffffffffffffffffffffff\n      and\n        /* \"Day34_EthWallet.sol\":279:289  msg.sender */\n      caller\n        /* \"Day34_EthWallet.sol\":279:298  msg.sender == owner */\n      0xffffffffffffffffffffffffffffffffffffffff\n      and\n      eq\n        /* \"Day34_EthWallet.sol\":271:322  require(msg.sender == owner, \"caller is not owner\") */\n      tag_18\n      jumpi\n      mload(0x40)\n      0x08c379a000000000000000000000000000000000000000000000000000000000\n      dup2\n      mstore\n      0x04\n      add\n      tag_19\n      swap1\n      tag_20\n      jump\t// in\n    tag_19:\n      mload(0x40)\n      dup1\n      swap2\n      sub\n      swap1\n      revert\n    tag_18:\n        /* \"Day34_EthWallet.sol\":219:338  function withdraw (uint _amount) external {... */\n      pop\n      jump\t// out\n        /* \"Day34_EthWallet.sol\":85:113  address payable public owner */\n    tag_14:\n      0x00\n      dup1\n      sload\n      swap1\n      0x0100\n      exp\n      swap1\n      div\n      0xffffffffffffffffffffffffffffffffffffffff\n      and\n      dup2\n      jump\t// out\n        /* \"#utility.yul\":7:146   */\n    tag_22:\n        /* \"#utility.yul\":53:58   */\n      0x00\n        /* \"#utility.yul\":91:97   */\n      dup2\n        /* \"#utility.yul\":78:98   */\n      calldataload\n        /* \"#utility.yul\":69:98   */\n      swap1\n      pop\n        /* \"#utility.yul\":107:140   */\n      tag_24\n        /* \"#utility.yul\":134:139   */\n      dup2\n        /* \"#utility.yul\":107:140   */\n      tag_25\n      jump\t// in\n    tag_24:\n        /* \"#utility.yul\":7:146   */\n      swap3\n      swap2\n      pop\n      pop\n      jump\t// out\n        /* \"#utility.yul\":152:481   */\n    tag_10:\n        /* \"#utility.yul\":211:217   */\n      0x00\n        /* \"#utility.yul\":260:262   */\n      0x20\n        /* \"#utility.yul\":248:257   */\n      dup3\n        /* \"#utility.yul\":239:246   */\n      dup5\n        /* \"#utility.yul\":235:258   */\n      sub\n        /* \"#utility.yul\":231:263   */\n      slt\n        /* \"#utility.yul\":228:347   */\n      iszero\n      tag_27\n      jumpi\n        /* \"#utility.yul\":266:345   */\n      tag_28\n      tag_29\n      jump\t// in\n    tag_28:\n        /* \"#utility.yul\":228:347   */\n    tag_27:\n        /* \"#utility.yul\":386:387   */\n      0x00\n        /* \"#utility.yul\":411:464   */\n      tag_30\n        /* \"#utility.yul\":456:463   */\n      dup5\n        /* \"#utility.yul\":447:453   */\n      dup3\n        /* \"#utility.yul\":436:445   */\n      dup6\n        /* \"#utility.yul\":432:454   */\n      add\n        /* \"#utility.yul\":411:464   */\n      tag_22\n      jump\t// in\n    tag_30:\n        /* \"#utility.yul\":401:464   */\n      swap2\n      pop\n        /* \"#utility.yul\":357:474   */\n      pop\n        /* \"#utility.yul\":152:481   */\n      swap3\n      swap2\n      pop\n      pop\n      jump\t// out\n        /* \"#utility.yul\":487:629   */\n    tag_31:\n        /* \"#utility.yul\":590:622   */\n      tag_33\n        /* \"#utility.yul\":616:621   */\n      dup2\n        /* \"#utility.yul\":590:622   */\n      tag_34\n      jump\t// in\n    tag_33:\n        /* \"#utility.yul\":585:588   */\n      dup3\n        /* \"#utility.yul\":578:623   */\n      mstore\n        /* \"#utility.yul\":487:629   */\n      pop\n      pop\n      jump\t// out\n        /* \"#utility.yul\":635:1001   */\n    tag_35:\n        /* \"#utility.yul\":777:780   */\n      0x00\n        /* \"#utility.yul\":798:865   */\n      tag_37\n        /* \"#utility.yul\":862:864   */\n      0x13\n        /* \"#utility.yul\":857:860   */\n      dup4\n        /* \"#utility.yul\":798:865   */\n      tag_38\n      jump\t// in\n    tag_37:\n        /* \"#utility.yul\":791:865   */\n      swap2\n      pop\n        /* \"#utility.yul\":874:967   */\n      tag_39\n        /* \"#utility.yul\":963:966   */\n      dup3\n        /* \"#utility.yul\":874:967   */\n      tag_40\n      jump\t// in\n    tag_39:\n        /* \"#utility.yul\":992:994   */\n      0x20\n        /* \"#utility.yul\":987:990   */\n      dup3\n        /* \"#utility.yul\":983:995   */\n      add\n        /* \"#utility.yul\":976:995   */\n      swap1\n      pop\n        /* \"#utility.yul\":635:1001   */\n      swap2\n      swap1\n      pop\n      jump\t// out\n        /* \"#utility.yul\":1007:1261   */\n    tag_16:\n        /* \"#utility.yul\":1116:1120   */\n      0x00\n        /* \"#utility.yul\":1154:1156   */\n      0x20\n        /* \"#utility.yul\":1143:1152   */\n      dup3\n        /* \"#utility.yul\":1139:1157   */\n      add\n        /* \"#utility.yul\":1131:1157   */\n      swap1\n      pop\n        /* \"#utility.yul\":1167:1254   */\n      tag_42\n        /* \"#utility.yul\":1251:1252   */\n      0x00\n        /* \"#utility.yul\":1240:1249   */\n      dup4\n        /* \"#utility.yul\":1236:1253   */\n      add\n        /* \"#utility.yul\":1227:1233   */\n      dup5\n        /* \"#utility.yul\":1167:1254   */\n      tag_31\n      jump\t// in\n    tag_42:\n        /* \"#utility.yul\":1007:1261   */\n      swap3\n      swap2\n      pop\n      pop\n      jump\t// out\n        /* \"#utility.yul\":1267:1686   */\n    tag_20:\n        /* \"#utility.yul\":1433:1437   */\n      0x00\n        /* \"#utility.yul\":1471:1473   */\n      0x20\n        /* \"#utility.yul\":1460:1469   */\n      dup3\n        /* \"#utility.yul\":1456:1474   */\n      add\n        /* \"#utility.yul\":1448:1474   */\n      swap1\n      pop\n        /* \"#utility.yul\":1520:1529   */\n      dup2\n        /* \"#utility.yul\":1514:1518   */\n      dup2\n        /* \"#utility.yul\":1510:1530   */\n      sub\n        /* \"#utility.yul\":1506:1507   */\n      0x00\n        /* \"#utility.yul\":1495:1504   */\n      dup4\n        /* \"#utility.yul\":1491:1508   */\n      add\n        /* \"#utility.yul\":1484:1531   */\n      mstore\n        /* \"#utility.yul\":1548:1679   */\n      tag_44\n        /* \"#utility.yul\":1674:1678   */\n      dup2\n        /* \"#utility.yul\":1548:1679   */\n      tag_35\n      jump\t// in\n    tag_44:\n        /* \"#utility.yul\":1540:1679   */\n      swap1\n      pop\n        /* \"#utility.yul\":1267:1686   */\n      swap2\n      swap1\n      pop\n      jump\t// out\n        /* \"#utility.yul\":1773:1942   */\n    tag_38:\n        /* \"#utility.yul\":1857:1868   */\n      0x00\n        /* \"#utility.yul\":1891:1897   */\n      dup3\n        /* \"#utility.yul\":1886:1889   */\n      dup3\n        /* \"#utility.yul\":1879:1898   */\n      mstore\n        /* \"#utility.yul\":1931:1935   */\n      0x20\n        /* \"#utility.yul\":1926:1929   */\n      dup3\n        /* \"#utility.yul\":1922:1936   */\n      add\n        /* \"#utility.yul\":1907:1936   */\n      swap1\n      pop\n        /* \"#utility.yul\":1773:1942   */\n      swap3\n      swap2\n      pop\n      pop\n      jump\t// out\n        /* \"#utility.yul\":1948:2052   */\n    tag_34:\n        /* \"#utility.yul\":1993:2000   */\n      0x00\n        /* \"#utility.yul\":2022:2046   */\n      tag_49\n        /* \"#utility.yul\":2040:2045   */\n      dup3\n        /* \"#utility.yul\":2022:2046   */\n      tag_50\n      jump\t// in\n    tag_49:\n        /* \"#utility.yul\":2011:2046   */\n      swap1\n      pop\n        /* \"#utility.yul\":1948:2052   */\n      swap2\n      swap1\n      pop\n      jump\t// out\n        /* \"#utility.yul\":2058:2184   */\n    tag_50:\n        /* \"#utility.yul\":2095:2102   */\n      0x00\n        /* \"#utility.yul\":2135:2177   */\n      0xffffffffffffffffffffffffffffffffffffffff\n        /* \"#utility.yul\":2128:2133   */\n      dup3\n        /* \"#utility.yul\":2124:2178   */\n      and\n        /* \"#utility.yul\":2113:2178   */\n      swap1\n      pop\n        /* \"#utility.yul\":2058:2184   */\n      swap2\n      swap1\n      pop\n      jump\t// out\n        /* \"#utility.yul\":2190:2267   */\n    tag_52:\n        /* \"#utility.yul\":2227:2234   */\n      0x00\n        /* \"#utility.yul\":2256:2261   */\n      dup2\n        /* \"#utility.yul\":2245:2261   */\n      swap1\n      pop\n        /* \"#utility.yul\":2190:2267   */\n      swap2\n      swap1\n      pop\n      jump\t// out\n        /* \"#utility.yul\":2396:2513   */\n    tag_29:\n        /* \"#utility.yul\":2505:2506   */\n      0x00\n        /* \"#utility.yul\":2502:2503   */\n      dup1\n        /* \"#utility.yul\":2495:2507   */\n      revert\n        /* \"#utility.yul\":2519:2688   */\n    tag_40:\n        /* \"#utility.yul\":2659:2680   */\n      0x63616c6c6572206973206e6f74206f776e657200000000000000000000000000\n        /* \"#utility.yul\":2655:2656   */\n      0x00\n        /* \"#utility.yul\":2647:2653   */\n      dup3\n        /* \"#utility.yul\":2643:2657   */\n      add\n        /* \"#utility.yul\":2636:2681   */\n      mstore\n        /* \"#utility.yul\":2519:2688   */\n      pop\n      jump\t// out\n        /* \"#utility.yul\":2694:2816   */\n    tag_25:\n        /* \"#utility.yul\":2767:2791   */\n      tag_59\n        /* \"#utility.yul\":2785:2790   */\n      dup2\n        /* \"#utility.yul\":2767:2791   */\n      tag_52\n      jump\t// in\n    tag_59:\n        /* \"#utility.yul\":2760:2765   */\n      dup2\n        /* \"#utility.yul\":2757:2792   */\n      eq\n        /* \"#utility.yul\":2747:2810   */\n      tag_60\n      jumpi\n        /* \"#utility.yul\":2806:2807   */\n      0x00\n        /* \"#utility.yul\":2803:2804   */\n      dup1\n        /* \"#utility.yul\":2796:2808   */\n      revert\n        /* \"#utility.yul\":2747:2810   */\n    tag_60:\n        /* \"#utility.yul\":2694:2816   */\n      pop\n      jump\t// out\n\n    auxdata: 0xa2646970667358221220cd5c903e17ad58b36fb81fc9bfe08378245d343f33ac86981c3019df99a38e8c64736f6c63430008070033\n}\n",
				"bytecode": {
					"linkReferences": {},
					"object": "608060405234801561001057600080fd5b50336000806101000a81548173ffffffffffffffffffffffffffffffffffffffff021916908373ffffffffffffffffffffffffffffffffffffffff1602179055506102b9806100606000396000f3fe60806040526004361061002d5760003560e01c80632e1a7d4d146100395780638da5cb5b1461006257610034565b3661003457005b600080fd5b34801561004557600080fd5b50610060600480360381019061005b9190610157565b61008d565b005b34801561006e57600080fd5b5061007761011e565b60405161008491906101b6565b60405180910390f35b60008054906101000a900473ffffffffffffffffffffffffffffffffffffffff1673ffffffffffffffffffffffffffffffffffffffff163373ffffffffffffffffffffffffffffffffffffffff161461011b576040517f08c379a0000000000000000000000000000000000000000000000000000000008152600401610112906101d1565b60405180910390fd5b50565b60008054906101000a900473ffffffffffffffffffffffffffffffffffffffff1681565b6000813590506101518161026c565b92915050565b60006020828403121561016d5761016c61023e565b5b600061017b84828501610142565b91505092915050565b61018d81610202565b82525050565b60006101a06013836101f1565b91506101ab82610243565b602082019050919050565b60006020820190506101cb6000830184610184565b92915050565b600060208201905081810360008301526101ea81610193565b9050919050565b600082825260208201905092915050565b600061020d82610214565b9050919050565b600073ffffffffffffffffffffffffffffffffffffffff82169050919050565b6000819050919050565b600080fd5b7f63616c6c6572206973206e6f74206f776e657200000000000000000000000000600082015250565b61027581610234565b811461028057600080fd5b5056fea2646970667358221220cd5c903e17ad58b36fb81fc9bfe08378245d343f33ac86981c3019df99a38e8c64736f6c63430008070033",
					"opcodes": "PUSH1 0x80 PUSH1 0x40 MSTORE CALLVALUE DUP1 ISZERO PUSH2 0x10 JUMPI PUSH1 0x0 DUP1 REVERT JUMPDEST POP CALLER PUSH1 0x0 DUP1 PUSH2 0x100 EXP DUP2 SLOAD DUP2 PUSH20 0xFFFFFFFFFFFFFFFFFFFFFFFFFFFFFFFFFFFFFFFF MUL NOT AND SWAP1 DUP4 PUSH20 0xFFFFFFFFFFFFFFFFFFFFFFFFFFFFFFFFFFFFFFFF AND MUL OR SWAP1 SSTORE POP PUSH2 0x2B9 DUP1 PUSH2 0x60 PUSH1 0x0 CODECOPY PUSH1 0x0 RETURN INVALID PUSH1 0x80 PUSH1 0x40 MSTORE PUSH1 0x4 CALLDATASIZE LT PUSH2 0x2D JUMPI PUSH1 0x0 CALLDATALOAD PUSH1 0xE0 SHR DUP1 PUSH4 0x2E1A7D4D EQ PUSH2 0x39 JUMPI DUP1 PUSH4 0x8DA5CB5B EQ PUSH2 0x62 JUMPI PUSH2 0x34 JUMP JUMPDEST CALLDATASIZE PUSH2 0x34 JUMPI STOP JUMPDEST PUSH1 0x0 DUP1 REVERT JUMPDEST CALLVALUE DUP1 ISZERO PUSH2 0x45 JUMPI PUSH1 0x0 DUP1 REVERT JUMPDEST POP PUSH2 0x60 PUSH1 0x4 DUP1 CALLDATASIZE SUB DUP2 ADD SWAP1 PUSH2 0x5B SWAP2 SWAP1 PUSH2 0x157 JUMP JUMPDEST PUSH2 0x8D JUMP JUMPDEST STOP JUMPDEST CALLVALUE DUP1 ISZERO PUSH2 0x6E JUMPI PUSH1 0x0 DUP1 REVERT JUMPDEST POP PUSH2 0x77 PUSH2 0x11E JUMP JUMPDEST PUSH1 0x40 MLOAD PUSH2 0x84 SWAP2 SWAP1 PUSH2 0x1B6 JUMP JUMPDEST PUSH1 0x40 MLOAD DUP1 SWAP2 SUB SWAP1 RETURN JUMPDEST PUSH1 0x0 DUP1 SLOAD SWAP1 PUSH2 0x100 EXP SWAP1 DIV PUSH20 0xFFFFFFFFFFFFFFFFFFFFFFFFFFFFFFFFFFFFFFFF AND PUSH20 0xFFFFFFFFFFFFFFFFFFFFFFFFFFFFFFFFFFFFFFFF AND CALLER PUSH20 0xFFFFFFFFFFFFFFFFFFFFFFFFFFFFFFFFFFFFFFFF AND EQ PUSH2 0x11B JUMPI PUSH1 0x40 MLOAD PUSH32 0x8C379A000000000000000000000000000000000000000000000000000000000 DUP2 MSTORE PUSH1 0x4 ADD PUSH2 0x112 SWAP1 PUSH2 0x1D1 JUMP JUMPDEST PUSH1 0x40 MLOAD DUP1 SWAP2 SUB SWAP1 REVERT JUMPDEST POP JUMP JUMPDEST PUSH1 0x0 DUP1 SLOAD SWAP1 PUSH2 0x100 EXP SWAP1 DIV PUSH20 0xFFFFFFFFFFFFFFFFFFFFFFFFFFFFFFFFFFFFFFFF AND DUP2 JUMP JUMPDEST PUSH1 0x0 DUP2 CALLDATALOAD SWAP1 POP PUSH2 0x151 DUP2 PUSH2 0x26C JUMP JUMPDEST SWAP3 SWAP2 POP POP JUMP JUMPDEST PUSH1 0x0 PUSH1 0x20 DUP3 DUP5 SUB SLT ISZERO PUSH2 0x16D JUMPI PUSH2 0x16C PUSH2 0x23E JUMP JUMPDEST JUMPDEST PUSH1 0x0 PUSH2 0x17B DUP5 DUP3 DUP6 ADD PUSH2 0x142 JUMP JUMPDEST SWAP2 POP POP SWAP3 SWAP2 POP POP JUMP JUMPDEST PUSH2 0x18D DUP2 PUSH2 0x202 JUMP JUMPDEST DUP3 MSTORE POP POP JUMP JUMPDEST PUSH1 0x0 PUSH2 0x1A0 PUSH1 0x13 DUP4 PUSH2 0x1F1 JUMP JUMPDEST SWAP2 POP PUSH2 0x1AB DUP3 PUSH2 0x243 JUMP JUMPDEST PUSH1 0x20 DUP3 ADD SWAP1 POP SWAP2 SWAP1 POP JUMP JUMPDEST PUSH1 0x0 PUSH1 0x20 DUP3 ADD SWAP1 POP PUSH2 0x1CB PUSH1 0x0 DUP4 ADD DUP5 PUSH2 0x184 JUMP JUMPDEST SWAP3 SWAP2 POP POP JUMP JUMPDEST PUSH1 0x0 PUSH1 0x20 DUP3 ADD SWAP1 POP DUP2 DUP2 SUB PUSH1 0x0 DUP4 ADD MSTORE PUSH2 0x1EA DUP2 PUSH2 0x193 JUMP JUMPDEST SWAP1 POP SWAP2 SWAP1 POP JUMP JUMPDEST PUSH1 0x0 DUP3 DUP3 MSTORE PUSH1 0x20 DUP3 ADD SWAP1 POP SWAP3 SWAP2 POP POP JUMP JUMPDEST PUSH1 0x0 PUSH2 0x20D DUP3 PUSH2 0x214 JUMP JUMPDEST SWAP1 POP SWAP2 SWAP1 POP JUMP JUMPDEST PUSH1 0x0 PUSH20 0xFFFFFFFFFFFFFFFFFFFFFFFFFFFFFFFFFFFFFFFF DUP3 AND SWAP1 POP SWAP2 SWAP1 POP JUMP JUMPDEST PUSH1 0x0 DUP2 SWAP1 POP SWAP2 SWAP1 POP JUMP JUMPDEST PUSH1 0x0 DUP1 REVERT JUMPDEST PUSH32 0x63616C6C6572206973206E6F74206F776E657200000000000000000000000000 PUSH1 0x0 DUP3 ADD MSTORE POP JUMP JUMPDEST PUSH2 0x275 DUP2 PUSH2 0x234 JUMP JUMPDEST DUP2 EQ PUSH2 0x280 JUMPI PUSH1 0x0 DUP1 REVERT JUMPDEST POP JUMP INVALID LOG2 PUSH5 0x6970667358 0x22 SLT KECCAK256 0xCD 0x5C SWAP1 RETURNDATACOPY OR 0xAD PC 0xB3 PUSH16 0xB81FC9BFE08378245D343F33AC86981C ADDRESS NOT 0xDF SWAP10 LOG3 DUP15 DUP13 PUSH5 0x736F6C6343 STOP ADDMOD SMOD STOP CALLER "
				},
				"gasEstimates": {
					"creation": {
						"codeDepositCost": "139400",
						"executionCost": "24449",
						"totalCost": "163849"
					},
					"external": {
						"owner()": "2511",
						"withdraw(uint256)": "2838"
					}
				},
				"methodIdentifiers": {
					"owner()": "8da5cb5b",
					"withdraw(uint256)": "2e1a7d4d"
				}
			},
			"storageLayout": {
				"storage": [
					{
						"astId": 3,
						"contract": "Day34_EthWallet.sol:EtherWallet",
						"label": "owner",
						"offset": 0,
						"slot": "0",
						"type": "t_address_payable"
					}
				],
				"types": {
					"t_address_payable": {
						"encoding": "inplace",
						"label": "address payable",
						"numberOfBytes": "20"
					}
				}
			},
			"userdoc": {
				"kind": "user",
				"methods": {},
				"version": 1
			}
		}
	}
}