{
	"Day21_Enum.sol": {
		"Enum": {
			"abi": [
				{
					"inputs": [
						{
							"internalType": "enum Enum.Status",
							"name": "_status",
							"type": "uint8"
						}
					],
					"name": "get",
					"outputs": [
						{
							"internalType": "enum Enum.Status",
							"name": "",
							"type": "uint8"
						}
					],
					"stateMutability": "nonpayable",
					"type": "function"
				},
				{
					"inputs": [
						{
							"internalType": "uint256",
							"name": "",
							"type": "uint256"
						}
					],
					"name": "order",
					"outputs": [
						{
							"internalType": "address",
							"name": "buyer",
							"type": "address"
						},
						{
							"internalType": "enum Enum.Status",
							"name": "status",
							"type": "uint8"
						}
					],
					"stateMutability": "view",
					"type": "function"
				},
				{
					"inputs": [
						{
							"internalType": "enum Enum.Status",
							"name": "_status",
							"type": "uint8"
						}
					],
					"name": "set",
					"outputs": [
						{
							"internalType": "enum Enum.Status",
							"name": "",
							"type": "uint8"
						}
					],
					"stateMutability": "nonpayable",
					"type": "function"
				},
				{
					"inputs": [],
					"name": "status",
					"outputs": [
						{
							"internalType": "enum Enum.Status",
							"name": "",
							"type": "uint8"
						}
					],
					"stateMutability": "view",
					"type": "function"
				}
			],
			"devdoc": {
				"kind": "dev",
				"methods": {},
				"version": 1
			},
			"evm": {
				"assembly": "    /* \"Day21_Enum.sol\":58:503  contract Enum {... */\n  mstore(0x40, 0x80)\n  callvalue\n  dup1\n  iszero\n  tag_1\n  jumpi\n  0x00\n  dup1\n  revert\ntag_1:\n  pop\n  dataSize(sub_0)\n  dup1\n  dataOffset(sub_0)\n  0x00\n  codecopy\n  0x00\n  return\nstop\n\nsub_0: assembly {\n        /* \"Day21_Enum.sol\":58:503  contract Enum {... */\n      mstore(0x40, 0x80)\n      callvalue\n      dup1\n      iszero\n      tag_1\n      jumpi\n      0x00\n      dup1\n      revert\n    tag_1:\n      pop\n      jumpi(tag_2, lt(calldatasize, 0x04))\n      shr(0xe0, calldataload(0x00))\n      dup1\n      0x200d2ed2\n      eq\n      tag_3\n      jumpi\n      dup1\n      0x21603f43\n      eq\n      tag_4\n      jumpi\n      dup1\n      0x24b8ba5f\n      eq\n      tag_5\n      jumpi\n      dup1\n      0xf72d0b3b\n      eq\n      tag_6\n      jumpi\n    tag_2:\n      0x00\n      dup1\n      revert\n        /* \"Day21_Enum.sol\":188:208  Status public status */\n    tag_3:\n      tag_7\n      tag_8\n      jump\t// in\n    tag_7:\n      mload(0x40)\n      tag_9\n      swap2\n      swap1\n      tag_10\n      jump\t// in\n    tag_9:\n      mload(0x40)\n      dup1\n      swap2\n      sub\n      swap1\n      return\n        /* \"Day21_Enum.sol\":287:307  Order[] public order */\n    tag_4:\n      tag_11\n      0x04\n      dup1\n      calldatasize\n      sub\n      dup2\n      add\n      swap1\n      tag_12\n      swap2\n      swap1\n      tag_13\n      jump\t// in\n    tag_12:\n      tag_14\n      jump\t// in\n    tag_11:\n      mload(0x40)\n      tag_15\n      swap3\n      swap2\n      swap1\n      tag_16\n      jump\t// in\n    tag_15:\n      mload(0x40)\n      dup1\n      swap2\n      sub\n      swap1\n      return\n        /* \"Day21_Enum.sol\":314:409  function set(Status _status) external returns (Status) {... */\n    tag_5:\n      tag_17\n      0x04\n      dup1\n      calldatasize\n      sub\n      dup2\n      add\n      swap1\n      tag_18\n      swap2\n      swap1\n      tag_19\n      jump\t// in\n    tag_18:\n      tag_20\n      jump\t// in\n    tag_17:\n      mload(0x40)\n      tag_21\n      swap2\n      swap1\n      tag_10\n      jump\t// in\n    tag_21:\n      mload(0x40)\n      dup1\n      swap2\n      sub\n      swap1\n      return\n        /* \"Day21_Enum.sol\":415:501  function get (Status _status) external returns (Status) {... */\n    tag_6:\n      tag_22\n      0x04\n      dup1\n      calldatasize\n      sub\n      dup2\n      add\n      swap1\n      tag_23\n      swap2\n      swap1\n      tag_19\n      jump\t// in\n    tag_23:\n      tag_24\n      jump\t// in\n    tag_22:\n      mload(0x40)\n      tag_25\n      swap2\n      swap1\n      tag_10\n      jump\t// in\n    tag_25:\n      mload(0x40)\n      dup1\n      swap2\n      sub\n      swap1\n      return\n        /* \"Day21_Enum.sol\":188:208  Status public status */\n    tag_8:\n      0x00\n      dup1\n      sload\n      swap1\n      0x0100\n      exp\n      swap1\n      div\n      0xff\n      and\n      dup2\n      jump\t// out\n        /* \"Day21_Enum.sol\":287:307  Order[] public order */\n    tag_14:\n      0x01\n      dup2\n      dup2\n      sload\n      dup2\n      lt\n      tag_26\n      jumpi\n      0x00\n      dup1\n      revert\n    tag_26:\n      swap1\n      0x00\n      mstore\n      keccak256(0x00, 0x20)\n      add\n      0x00\n      swap2\n      pop\n      swap1\n      pop\n      dup1\n      0x00\n      add\n      0x00\n      swap1\n      sload\n      swap1\n      0x0100\n      exp\n      swap1\n      div\n      0xffffffffffffffffffffffffffffffffffffffff\n      and\n      swap1\n      dup1\n      0x00\n      add\n      0x14\n      swap1\n      sload\n      swap1\n      0x0100\n      exp\n      swap1\n      div\n      0xff\n      and\n      swap1\n      pop\n      dup3\n      jump\t// out\n        /* \"Day21_Enum.sol\":314:409  function set(Status _status) external returns (Status) {... */\n    tag_20:\n        /* \"Day21_Enum.sol\":361:367  Status */\n      0x00\n        /* \"Day21_Enum.sol\":395:402  _status */\n      dup2\n        /* \"Day21_Enum.sol\":386:392  status */\n      0x00\n      dup1\n        /* \"Day21_Enum.sol\":386:402  status = _status */\n      0x0100\n      exp\n      dup2\n      sload\n      dup2\n      0xff\n      mul\n      not\n      and\n      swap1\n      dup4\n      0x04\n      dup2\n      gt\n      iszero\n      tag_29\n      jumpi\n      tag_30\n      tag_31\n      jump\t// in\n    tag_30:\n    tag_29:\n      mul\n      or\n      swap1\n      sstore\n        /* \"Day21_Enum.sol\":379:402  return status = _status */\n      swap1\n      pop\n        /* \"Day21_Enum.sol\":314:409  function set(Status _status) external returns (Status) {... */\n      swap2\n      swap1\n      pop\n      jump\t// out\n        /* \"Day21_Enum.sol\":415:501  function get (Status _status) external returns (Status) {... */\n    tag_24:\n        /* \"Day21_Enum.sol\":463:469  Status */\n      0x00\n        /* \"Day21_Enum.sol\":488:494  status */\n      dup1\n      0x00\n      swap1\n      sload\n      swap1\n      0x0100\n      exp\n      swap1\n      div\n      0xff\n      and\n        /* \"Day21_Enum.sol\":481:494  return status */\n      swap1\n      pop\n        /* \"Day21_Enum.sol\":415:501  function get (Status _status) external returns (Status) {... */\n      swap2\n      swap1\n      pop\n      jump\t// out\n        /* \"#utility.yul\":7:162   */\n    tag_34:\n        /* \"#utility.yul\":61:66   */\n      0x00\n        /* \"#utility.yul\":99:105   */\n      dup2\n        /* \"#utility.yul\":86:106   */\n      calldataload\n        /* \"#utility.yul\":77:106   */\n      swap1\n      pop\n        /* \"#utility.yul\":115:156   */\n      tag_36\n        /* \"#utility.yul\":150:155   */\n      dup2\n        /* \"#utility.yul\":115:156   */\n      tag_37\n      jump\t// in\n    tag_36:\n        /* \"#utility.yul\":7:162   */\n      swap3\n      swap2\n      pop\n      pop\n      jump\t// out\n        /* \"#utility.yul\":168:307   */\n    tag_38:\n        /* \"#utility.yul\":214:219   */\n      0x00\n        /* \"#utility.yul\":252:258   */\n      dup2\n        /* \"#utility.yul\":239:259   */\n      calldataload\n        /* \"#utility.yul\":230:259   */\n      swap1\n      pop\n        /* \"#utility.yul\":268:301   */\n      tag_40\n        /* \"#utility.yul\":295:300   */\n      dup2\n        /* \"#utility.yul\":268:301   */\n      tag_41\n      jump\t// in\n    tag_40:\n        /* \"#utility.yul\":168:307   */\n      swap3\n      swap2\n      pop\n      pop\n      jump\t// out\n        /* \"#utility.yul\":313:658   */\n    tag_19:\n        /* \"#utility.yul\":380:386   */\n      0x00\n        /* \"#utility.yul\":429:431   */\n      0x20\n        /* \"#utility.yul\":417:426   */\n      dup3\n        /* \"#utility.yul\":408:415   */\n      dup5\n        /* \"#utility.yul\":404:427   */\n      sub\n        /* \"#utility.yul\":400:432   */\n      slt\n        /* \"#utility.yul\":397:516   */\n      iszero\n      tag_43\n      jumpi\n        /* \"#utility.yul\":435:514   */\n      tag_44\n      tag_45\n      jump\t// in\n    tag_44:\n        /* \"#utility.yul\":397:516   */\n    tag_43:\n        /* \"#utility.yul\":555:556   */\n      0x00\n        /* \"#utility.yul\":580:641   */\n      tag_46\n        /* \"#utility.yul\":633:640   */\n      dup5\n        /* \"#utility.yul\":624:630   */\n      dup3\n        /* \"#utility.yul\":613:622   */\n      dup6\n        /* \"#utility.yul\":609:631   */\n      add\n        /* \"#utility.yul\":580:641   */\n      tag_34\n      jump\t// in\n    tag_46:\n        /* \"#utility.yul\":570:641   */\n      swap2\n      pop\n        /* \"#utility.yul\":526:651   */\n      pop\n        /* \"#utility.yul\":313:658   */\n      swap3\n      swap2\n      pop\n      pop\n      jump\t// out\n        /* \"#utility.yul\":664:993   */\n    tag_13:\n        /* \"#utility.yul\":723:729   */\n      0x00\n        /* \"#utility.yul\":772:774   */\n      0x20\n        /* \"#utility.yul\":760:769   */\n      dup3\n        /* \"#utility.yul\":751:758   */\n      dup5\n        /* \"#utility.yul\":747:770   */\n      sub\n        /* \"#utility.yul\":743:775   */\n      slt\n        /* \"#utility.yul\":740:859   */\n      iszero\n      tag_48\n      jumpi\n        /* \"#utility.yul\":778:857   */\n      tag_49\n      tag_45\n      jump\t// in\n    tag_49:\n        /* \"#utility.yul\":740:859   */\n    tag_48:\n        /* \"#utility.yul\":898:899   */\n      0x00\n        /* \"#utility.yul\":923:976   */\n      tag_50\n        /* \"#utility.yul\":968:975   */\n      dup5\n        /* \"#utility.yul\":959:965   */\n      dup3\n        /* \"#utility.yul\":948:957   */\n      dup6\n        /* \"#utility.yul\":944:966   */\n      add\n        /* \"#utility.yul\":923:976   */\n      tag_38\n      jump\t// in\n    tag_50:\n        /* \"#utility.yul\":913:976   */\n      swap2\n      pop\n        /* \"#utility.yul\":869:986   */\n      pop\n        /* \"#utility.yul\":664:993   */\n      swap3\n      swap2\n      pop\n      pop\n      jump\t// out\n        /* \"#utility.yul\":999:1117   */\n    tag_51:\n        /* \"#utility.yul\":1086:1110   */\n      tag_53\n        /* \"#utility.yul\":1104:1109   */\n      dup2\n        /* \"#utility.yul\":1086:1110   */\n      tag_54\n      jump\t// in\n    tag_53:\n        /* \"#utility.yul\":1081:1084   */\n      dup3\n        /* \"#utility.yul\":1074:1111   */\n      mstore\n        /* \"#utility.yul\":999:1117   */\n      pop\n      pop\n      jump\t// out\n        /* \"#utility.yul\":1123:1266   */\n    tag_55:\n        /* \"#utility.yul\":1216:1259   */\n      tag_57\n        /* \"#utility.yul\":1253:1258   */\n      dup2\n        /* \"#utility.yul\":1216:1259   */\n      tag_58\n      jump\t// in\n    tag_57:\n        /* \"#utility.yul\":1211:1214   */\n      dup3\n        /* \"#utility.yul\":1204:1260   */\n      mstore\n        /* \"#utility.yul\":1123:1266   */\n      pop\n      pop\n      jump\t// out\n        /* \"#utility.yul\":1272:1616   */\n    tag_16:\n        /* \"#utility.yul\":1399:1403   */\n      0x00\n        /* \"#utility.yul\":1437:1439   */\n      0x40\n        /* \"#utility.yul\":1426:1435   */\n      dup3\n        /* \"#utility.yul\":1422:1440   */\n      add\n        /* \"#utility.yul\":1414:1440   */\n      swap1\n      pop\n        /* \"#utility.yul\":1450:1521   */\n      tag_60\n        /* \"#utility.yul\":1518:1519   */\n      0x00\n        /* \"#utility.yul\":1507:1516   */\n      dup4\n        /* \"#utility.yul\":1503:1520   */\n      add\n        /* \"#utility.yul\":1494:1500   */\n      dup6\n        /* \"#utility.yul\":1450:1521   */\n      tag_51\n      jump\t// in\n    tag_60:\n        /* \"#utility.yul\":1531:1609   */\n      tag_61\n        /* \"#utility.yul\":1605:1607   */\n      0x20\n        /* \"#utility.yul\":1594:1603   */\n      dup4\n        /* \"#utility.yul\":1590:1608   */\n      add\n        /* \"#utility.yul\":1581:1587   */\n      dup5\n        /* \"#utility.yul\":1531:1609   */\n      tag_55\n      jump\t// in\n    tag_61:\n        /* \"#utility.yul\":1272:1616   */\n      swap4\n      swap3\n      pop\n      pop\n      pop\n      jump\t// out\n        /* \"#utility.yul\":1622:1856   */\n    tag_10:\n        /* \"#utility.yul\":1721:1725   */\n      0x00\n        /* \"#utility.yul\":1759:1761   */\n      0x20\n        /* \"#utility.yul\":1748:1757   */\n      dup3\n        /* \"#utility.yul\":1744:1762   */\n      add\n        /* \"#utility.yul\":1736:1762   */\n      swap1\n      pop\n        /* \"#utility.yul\":1772:1849   */\n      tag_63\n        /* \"#utility.yul\":1846:1847   */\n      0x00\n        /* \"#utility.yul\":1835:1844   */\n      dup4\n        /* \"#utility.yul\":1831:1848   */\n      add\n        /* \"#utility.yul\":1822:1828   */\n      dup5\n        /* \"#utility.yul\":1772:1849   */\n      tag_55\n      jump\t// in\n    tag_63:\n        /* \"#utility.yul\":1622:1856   */\n      swap3\n      swap2\n      pop\n      pop\n      jump\t// out\n        /* \"#utility.yul\":1943:2039   */\n    tag_54:\n        /* \"#utility.yul\":1980:1987   */\n      0x00\n        /* \"#utility.yul\":2009:2033   */\n      tag_67\n        /* \"#utility.yul\":2027:2032   */\n      dup3\n        /* \"#utility.yul\":2009:2033   */\n      tag_68\n      jump\t// in\n    tag_67:\n        /* \"#utility.yul\":1998:2033   */\n      swap1\n      pop\n        /* \"#utility.yul\":1943:2039   */\n      swap2\n      swap1\n      pop\n      jump\t// out\n        /* \"#utility.yul\":2045:2172   */\n    tag_69:\n        /* \"#utility.yul\":2090:2097   */\n      0x00\n        /* \"#utility.yul\":2119:2124   */\n      dup2\n        /* \"#utility.yul\":2108:2124   */\n      swap1\n      pop\n        /* \"#utility.yul\":2125:2166   */\n      tag_71\n        /* \"#utility.yul\":2160:2165   */\n      dup3\n        /* \"#utility.yul\":2125:2166   */\n      tag_72\n      jump\t// in\n    tag_71:\n        /* \"#utility.yul\":2045:2172   */\n      swap2\n      swap1\n      pop\n      jump\t// out\n        /* \"#utility.yul\":2178:2304   */\n    tag_68:\n        /* \"#utility.yul\":2215:2222   */\n      0x00\n        /* \"#utility.yul\":2255:2297   */\n      0xffffffffffffffffffffffffffffffffffffffff\n        /* \"#utility.yul\":2248:2253   */\n      dup3\n        /* \"#utility.yul\":2244:2298   */\n      and\n        /* \"#utility.yul\":2233:2298   */\n      swap1\n      pop\n        /* \"#utility.yul\":2178:2304   */\n      swap2\n      swap1\n      pop\n      jump\t// out\n        /* \"#utility.yul\":2310:2387   */\n    tag_74:\n        /* \"#utility.yul\":2347:2354   */\n      0x00\n        /* \"#utility.yul\":2376:2381   */\n      dup2\n        /* \"#utility.yul\":2365:2381   */\n      swap1\n      pop\n        /* \"#utility.yul\":2310:2387   */\n      swap2\n      swap1\n      pop\n      jump\t// out\n        /* \"#utility.yul\":2393:2520   */\n    tag_58:\n        /* \"#utility.yul\":2449:2458   */\n      0x00\n        /* \"#utility.yul\":2482:2514   */\n      tag_77\n        /* \"#utility.yul\":2508:2513   */\n      dup3\n        /* \"#utility.yul\":2482:2514   */\n      tag_69\n      jump\t// in\n    tag_77:\n        /* \"#utility.yul\":2469:2514   */\n      swap1\n      pop\n        /* \"#utility.yul\":2393:2520   */\n      swap2\n      swap1\n      pop\n      jump\t// out\n        /* \"#utility.yul\":2526:2706   */\n    tag_31:\n        /* \"#utility.yul\":2574:2651   */\n      0x4e487b7100000000000000000000000000000000000000000000000000000000\n        /* \"#utility.yul\":2571:2572   */\n      0x00\n        /* \"#utility.yul\":2564:2652   */\n      mstore\n        /* \"#utility.yul\":2671:2675   */\n      0x21\n        /* \"#utility.yul\":2668:2669   */\n      0x04\n        /* \"#utility.yul\":2661:2676   */\n      mstore\n        /* \"#utility.yul\":2695:2699   */\n      0x24\n        /* \"#utility.yul\":2692:2693   */\n      0x00\n        /* \"#utility.yul\":2685:2700   */\n      revert\n        /* \"#utility.yul\":2835:2952   */\n    tag_45:\n        /* \"#utility.yul\":2944:2945   */\n      0x00\n        /* \"#utility.yul\":2941:2942   */\n      dup1\n        /* \"#utility.yul\":2934:2946   */\n      revert\n        /* \"#utility.yul\":2958:3071   */\n    tag_72:\n        /* \"#utility.yul\":3039:3040   */\n      0x05\n        /* \"#utility.yul\":3032:3037   */\n      dup2\n        /* \"#utility.yul\":3029:3041   */\n      lt\n        /* \"#utility.yul\":3019:3065   */\n      tag_83\n      jumpi\n        /* \"#utility.yul\":3045:3063   */\n      tag_84\n      tag_31\n      jump\t// in\n    tag_84:\n        /* \"#utility.yul\":3019:3065   */\n    tag_83:\n        /* \"#utility.yul\":2958:3071   */\n      pop\n      jump\t// out\n        /* \"#utility.yul\":3077:3184   */\n    tag_37:\n        /* \"#utility.yul\":3158:3159   */\n      0x05\n        /* \"#utility.yul\":3151:3156   */\n      dup2\n        /* \"#utility.yul\":3148:3160   */\n      lt\n        /* \"#utility.yul\":3138:3178   */\n      tag_86\n      jumpi\n        /* \"#utility.yul\":3174:3175   */\n      0x00\n        /* \"#utility.yul\":3171:3172   */\n      dup1\n        /* \"#utility.yul\":3164:3176   */\n      revert\n        /* \"#utility.yul\":3138:3178   */\n    tag_86:\n        /* \"#utility.yul\":3077:3184   */\n      pop\n      jump\t// out\n        /* \"#utility.yul\":3190:3312   */\n    tag_41:\n        /* \"#utility.yul\":3263:3287   */\n      tag_88\n        /* \"#utility.yul\":3281:3286   */\n      dup2\n        /* \"#utility.yul\":3263:3287   */\n      tag_74\n      jump\t// in\n    tag_88:\n        /* \"#utility.yul\":3256:3261   */\n      dup2\n        /* \"#utility.yul\":3253:3288   */\n      eq\n        /* \"#utility.yul\":3243:3306   */\n      tag_89\n      jumpi\n        /* \"#utility.yul\":3302:3303   */\n      0x00\n        /* \"#utility.yul\":3299:3300   */\n      dup1\n        /* \"#utility.yul\":3292:3304   */\n      revert\n        /* \"#utility.yul\":3243:3306   */\n    tag_89:\n        /* \"#utility.yul\":3190:3312   */\n      pop\n      jump\t// out\n\n    auxdata: 0xa264697066735822122070b25595831a40f5738f573ba037cdd0a229c91175e19657f165d20cf7512f4264736f6c63430008070033\n}\n",
				"bytecode": {
					"linkReferences": {},
					"object": "608060405234801561001057600080fd5b506103a3806100206000396000f3fe608060405234801561001057600080fd5b506004361061004c5760003560e01c8063200d2ed21461005157806321603f431461006f57806324b8ba5f146100a0578063f72d0b3b146100d0575b600080fd5b610059610100565b6040516100669190610282565b60405180910390f35b6100896004803603810190610084919061020e565b610111565b604051610097929190610259565b60405180910390f35b6100ba60048036038101906100b591906101e1565b61016e565b6040516100c79190610282565b60405180910390f35b6100ea60048036038101906100e591906101e1565b61019f565b6040516100f79190610282565b60405180910390f35b60008054906101000a900460ff1681565b6001818154811061012157600080fd5b906000526020600020016000915090508060000160009054906101000a900473ffffffffffffffffffffffffffffffffffffffff16908060000160149054906101000a900460ff16905082565b6000816000806101000a81548160ff02191690836004811115610194576101936102fe565b5b021790559050919050565b60008060009054906101000a900460ff169050919050565b6000813590506101c681610346565b92915050565b6000813590506101db81610356565b92915050565b6000602082840312156101f7576101f661032d565b5b6000610205848285016101b7565b91505092915050565b6000602082840312156102245761022361032d565b5b6000610232848285016101cc565b91505092915050565b6102448161029d565b82525050565b610253816102ec565b82525050565b600060408201905061026e600083018561023b565b61027b602083018461024a565b9392505050565b6000602082019050610297600083018461024a565b92915050565b60006102a8826102c2565b9050919050565b60008190506102bd82610332565b919050565b600073ffffffffffffffffffffffffffffffffffffffff82169050919050565b6000819050919050565b60006102f7826102af565b9050919050565b7f4e487b7100000000000000000000000000000000000000000000000000000000600052602160045260246000fd5b600080fd5b60058110610343576103426102fe565b5b50565b6005811061035357600080fd5b50565b61035f816102e2565b811461036a57600080fd5b5056fea264697066735822122070b25595831a40f5738f573ba037cdd0a229c91175e19657f165d20cf7512f4264736f6c63430008070033",
					"opcodes": "PUSH1 0x80 PUSH1 0x40 MSTORE CALLVALUE DUP1 ISZERO PUSH2 0x10 JUMPI PUSH1 0x0 DUP1 REVERT JUMPDEST POP PUSH2 0x3A3 DUP1 PUSH2 0x20 PUSH1 0x0 CODECOPY PUSH1 0x0 RETURN INVALID PUSH1 0x80 PUSH1 0x40 MSTORE CALLVALUE DUP1 ISZERO PUSH2 0x10 JUMPI PUSH1 0x0 DUP1 REVERT JUMPDEST POP PUSH1 0x4 CALLDATASIZE LT PUSH2 0x4C JUMPI PUSH1 0x0 CALLDATALOAD PUSH1 0xE0 SHR DUP1 PUSH4 0x200D2ED2 EQ PUSH2 0x51 JUMPI DUP1 PUSH4 0x21603F43 EQ PUSH2 0x6F JUMPI DUP1 PUSH4 0x24B8BA5F EQ PUSH2 0xA0 JUMPI DUP1 PUSH4 0xF72D0B3B EQ PUSH2 0xD0 JUMPI JUMPDEST PUSH1 0x0 DUP1 REVERT JUMPDEST PUSH2 0x59 PUSH2 0x100 JUMP JUMPDEST PUSH1 0x40 MLOAD PUSH2 0x66 SWAP2 SWAP1 PUSH2 0x282 JUMP JUMPDEST PUSH1 0x40 MLOAD DUP1 SWAP2 SUB SWAP1 RETURN JUMPDEST PUSH2 0x89 PUSH1 0x4 DUP1 CALLDATASIZE SUB DUP2 ADD SWAP1 PUSH2 0x84 SWAP2 SWAP1 PUSH2 0x20E JUMP JUMPDEST PUSH2 0x111 JUMP JUMPDEST PUSH1 0x40 MLOAD PUSH2 0x97 SWAP3 SWAP2 SWAP1 PUSH2 0x259 JUMP JUMPDEST PUSH1 0x40 MLOAD DUP1 SWAP2 SUB SWAP1 RETURN JUMPDEST PUSH2 0xBA PUSH1 0x4 DUP1 CALLDATASIZE SUB DUP2 ADD SWAP1 PUSH2 0xB5 SWAP2 SWAP1 PUSH2 0x1E1 JUMP JUMPDEST PUSH2 0x16E JUMP JUMPDEST PUSH1 0x40 MLOAD PUSH2 0xC7 SWAP2 SWAP1 PUSH2 0x282 JUMP JUMPDEST PUSH1 0x40 MLOAD DUP1 SWAP2 SUB SWAP1 RETURN JUMPDEST PUSH2 0xEA PUSH1 0x4 DUP1 CALLDATASIZE SUB DUP2 ADD SWAP1 PUSH2 0xE5 SWAP2 SWAP1 PUSH2 0x1E1 JUMP JUMPDEST PUSH2 0x19F JUMP JUMPDEST PUSH1 0x40 MLOAD PUSH2 0xF7 SWAP2 SWAP1 PUSH2 0x282 JUMP JUMPDEST PUSH1 0x40 MLOAD DUP1 SWAP2 SUB SWAP1 RETURN JUMPDEST PUSH1 0x0 DUP1 SLOAD SWAP1 PUSH2 0x100 EXP SWAP1 DIV PUSH1 0xFF AND DUP2 JUMP JUMPDEST PUSH1 0x1 DUP2 DUP2 SLOAD DUP2 LT PUSH2 0x121 JUMPI PUSH1 0x0 DUP1 REVERT JUMPDEST SWAP1 PUSH1 0x0 MSTORE PUSH1 0x20 PUSH1 0x0 KECCAK256 ADD PUSH1 0x0 SWAP2 POP SWAP1 POP DUP1 PUSH1 0x0 ADD PUSH1 0x0 SWAP1 SLOAD SWAP1 PUSH2 0x100 EXP SWAP1 DIV PUSH20 0xFFFFFFFFFFFFFFFFFFFFFFFFFFFFFFFFFFFFFFFF AND SWAP1 DUP1 PUSH1 0x0 ADD PUSH1 0x14 SWAP1 SLOAD SWAP1 PUSH2 0x100 EXP SWAP1 DIV PUSH1 0xFF AND SWAP1 POP DUP3 JUMP JUMPDEST PUSH1 0x0 DUP2 PUSH1 0x0 DUP1 PUSH2 0x100 EXP DUP2 SLOAD DUP2 PUSH1 0xFF MUL NOT AND SWAP1 DUP4 PUSH1 0x4 DUP2 GT ISZERO PUSH2 0x194 JUMPI PUSH2 0x193 PUSH2 0x2FE JUMP JUMPDEST JUMPDEST MUL OR SWAP1 SSTORE SWAP1 POP SWAP2 SWAP1 POP JUMP JUMPDEST PUSH1 0x0 DUP1 PUSH1 0x0 SWAP1 SLOAD SWAP1 PUSH2 0x100 EXP SWAP1 DIV PUSH1 0xFF AND SWAP1 POP SWAP2 SWAP1 POP JUMP JUMPDEST PUSH1 0x0 DUP2 CALLDATALOAD SWAP1 POP PUSH2 0x1C6 DUP2 PUSH2 0x346 JUMP JUMPDEST SWAP3 SWAP2 POP POP JUMP JUMPDEST PUSH1 0x0 DUP2 CALLDATALOAD SWAP1 POP PUSH2 0x1DB DUP2 PUSH2 0x356 JUMP JUMPDEST SWAP3 SWAP2 POP POP JUMP JUMPDEST PUSH1 0x0 PUSH1 0x20 DUP3 DUP5 SUB SLT ISZERO PUSH2 0x1F7 JUMPI PUSH2 0x1F6 PUSH2 0x32D JUMP JUMPDEST JUMPDEST PUSH1 0x0 PUSH2 0x205 DUP5 DUP3 DUP6 ADD PUSH2 0x1B7 JUMP JUMPDEST SWAP2 POP POP SWAP3 SWAP2 POP POP JUMP JUMPDEST PUSH1 0x0 PUSH1 0x20 DUP3 DUP5 SUB SLT ISZERO PUSH2 0x224 JUMPI PUSH2 0x223 PUSH2 0x32D JUMP JUMPDEST JUMPDEST PUSH1 0x0 PUSH2 0x232 DUP5 DUP3 DUP6 ADD PUSH2 0x1CC JUMP JUMPDEST SWAP2 POP POP SWAP3 SWAP2 POP POP JUMP JUMPDEST PUSH2 0x244 DUP2 PUSH2 0x29D JUMP JUMPDEST DUP3 MSTORE POP POP JUMP JUMPDEST PUSH2 0x253 DUP2 PUSH2 0x2EC JUMP JUMPDEST DUP3 MSTORE POP POP JUMP JUMPDEST PUSH1 0x0 PUSH1 0x40 DUP3 ADD SWAP1 POP PUSH2 0x26E PUSH1 0x0 DUP4 ADD DUP6 PUSH2 0x23B JUMP JUMPDEST PUSH2 0x27B PUSH1 0x20 DUP4 ADD DUP5 PUSH2 0x24A JUMP JUMPDEST SWAP4 SWAP3 POP POP POP JUMP JUMPDEST PUSH1 0x0 PUSH1 0x20 DUP3 ADD SWAP1 POP PUSH2 0x297 PUSH1 0x0 DUP4 ADD DUP5 PUSH2 0x24A JUMP JUMPDEST SWAP3 SWAP2 POP POP JUMP JUMPDEST PUSH1 0x0 PUSH2 0x2A8 DUP3 PUSH2 0x2C2 JUMP JUMPDEST SWAP1 POP SWAP2 SWAP1 POP JUMP JUMPDEST PUSH1 0x0 DUP2 SWAP1 POP PUSH2 0x2BD DUP3 PUSH2 0x332 JUMP JUMPDEST SWAP2 SWAP1 POP JUMP JUMPDEST PUSH1 0x0 PUSH20 0xFFFFFFFFFFFFFFFFFFFFFFFFFFFFFFFFFFFFFFFF DUP3 AND SWAP1 POP SWAP2 SWAP1 POP JUMP JUMPDEST PUSH1 0x0 DUP2 SWAP1 POP SWAP2 SWAP1 POP JUMP JUMPDEST PUSH1 0x0 PUSH2 0x2F7 DUP3 PUSH2 0x2AF JUMP JUMPDEST SWAP1 POP SWAP2 SWAP1 POP JUMP JUMPDEST PUSH32 0x4E487B7100000000000000000000000000000000000000000000000000000000 PUSH1 0x0 MSTORE PUSH1 0x21 PUSH1 0x4 MSTORE PUSH1 0x24 PUSH1 0x0 REVERT JUMPDEST PUSH1 0x0 DUP1 REVERT JUMPDEST PUSH1 0x5 DUP2 LT PUSH2 0x343 JUMPI PUSH2 0x342 PUSH2 0x2FE JUMP JUMPDEST JUMPDEST POP JUMP JUMPDEST PUSH1 0x5 DUP2 LT PUSH2 0x353 JUMPI PUSH1 0x0 DUP1 REVERT JUMPDEST POP JUMP JUMPDEST PUSH2 0x35F DUP2 PUSH2 0x2E2 JUMP JUMPDEST DUP2 EQ PUSH2 0x36A JUMPI PUSH1 0x0 DUP1 REVERT JUMPDEST POP JUMP INVALID LOG2 PUSH5 0x6970667358 0x22 SLT KECCAK256 PUSH17 0xB25595831A40F5738F573BA037CDD0A229 0xC9 GT PUSH22 0xE19657F165D20CF7512F4264736F6C63430008070033 "
				},
				"gasEstimates": {
					"creation": {
						"codeDepositCost": "186200",
						"executionCost": "232",
						"totalCost": "186432"
					},
					"external": {
						"get(uint8)": "2834",
						"order(uint256)": "7374",
						"set(uint8)": "24958",
						"status()": "2535"
					}
				},
				"methodIdentifiers": {
					"get(uint8)": "f72d0b3b",
					"order(uint256)": "21603f43",
					"set(uint8)": "24b8ba5f",
					"status()": "200d2ed2"
				}
			},
			"storageLayout": {
				"storage": [
					{
						"astId": 10,
						"contract": "Day21_Enum.sol:Enum",
						"label": "status",
						"offset": 0,
						"slot": "0",
						"type": "t_enum(Status)7"
					},
					{
						"astId": 20,
						"contract": "Day21_Enum.sol:Enum",
						"label": "order",
						"offset": 0,
						"slot": "1",
						"type": "t_array(t_struct(Order)16_storage)dyn_storage"
					}
				],
				"types": {
					"t_address": {
						"encoding": "inplace",
						"label": "address",
						"numberOfBytes": "20"
					},
					"t_array(t_struct(Order)16_storage)dyn_storage": {
						"base": "t_struct(Order)16_storage",
						"encoding": "dynamic_array",
						"label": "struct Enum.Order[]",
						"numberOfBytes": "32"
					},
					"t_enum(Status)7": {
						"encoding": "inplace",
						"label": "enum Enum.Status",
						"numberOfBytes": "1"
					},
					"t_struct(Order)16_storage": {
						"encoding": "inplace",
						"label": "struct Enum.Order",
						"members": [
							{
								"astId": 12,
								"contract": "Day21_Enum.sol:Enum",
								"label": "buyer",
								"offset": 0,
								"slot": "0",
								"type": "t_address"
							},
							{
								"astId": 15,
								"contract": "Day21_Enum.sol:Enum",
								"label": "status",
								"offset": 20,
								"slot": "0",
								"type": "t_enum(Status)7"
							}
						],
						"numberOfBytes": "32"
					}
				}
			},
			"userdoc": {
				"kind": "user",
				"methods": {},
				"version": 1
			}
		}
	}
}