{
	"Day50_ERC721A.sol": {
		"Azuki": {
			"abi": [
				{
					"inputs": [],
					"stateMutability": "nonpayable",
					"type": "constructor"
				},
				{
					"inputs": [],
					"name": "ApprovalCallerNotOwnerNorApproved",
					"type": "error"
				},
				{
					"inputs": [],
					"name": "ApprovalQueryForNonexistentToken",
					"type": "error"
				},
				{
					"inputs": [],
					"name": "ApproveToCaller",
					"type": "error"
				},
				{
					"inputs": [],
					"name": "BalanceQueryForZeroAddress",
					"type": "error"
				},
				{
					"inputs": [],
					"name": "MintERC2309QuantityExceedsLimit",
					"type": "error"
				},
				{
					"inputs": [],
					"name": "MintToZeroAddress",
					"type": "error"
				},
				{
					"inputs": [],
					"name": "MintZeroQuantity",
					"type": "error"
				},
				{
					"inputs": [],
					"name": "OwnerQueryForNonexistentToken",
					"type": "error"
				},
				{
					"inputs": [],
					"name": "OwnershipNotInitializedForExtraData",
					"type": "error"
				},
				{
					"inputs": [],
					"name": "TransferCallerNotOwnerNorApproved",
					"type": "error"
				},
				{
					"inputs": [],
					"name": "TransferFromIncorrectOwner",
					"type": "error"
				},
				{
					"inputs": [],
					"name": "TransferToNonERC721ReceiverImplementer",
					"type": "error"
				},
				{
					"inputs": [],
					"name": "TransferToZeroAddress",
					"type": "error"
				},
				{
					"inputs": [],
					"name": "URIQueryForNonexistentToken",
					"type": "error"
				},
				{
					"anonymous": false,
					"inputs": [
						{
							"indexed": true,
							"internalType": "address",
							"name": "owner",
							"type": "address"
						},
						{
							"indexed": true,
							"internalType": "address",
							"name": "approved",
							"type": "address"
						},
						{
							"indexed": true,
							"internalType": "uint256",
							"name": "tokenId",
							"type": "uint256"
						}
					],
					"name": "Approval",
					"type": "event"
				},
				{
					"anonymous": false,
					"inputs": [
						{
							"indexed": true,
							"internalType": "address",
							"name": "owner",
							"type": "address"
						},
						{
							"indexed": true,
							"internalType": "address",
							"name": "operator",
							"type": "address"
						},
						{
							"indexed": false,
							"internalType": "bool",
							"name": "approved",
							"type": "bool"
						}
					],
					"name": "ApprovalForAll",
					"type": "event"
				},
				{
					"anonymous": false,
					"inputs": [
						{
							"indexed": true,
							"internalType": "uint256",
							"name": "fromTokenId",
							"type": "uint256"
						},
						{
							"indexed": false,
							"internalType": "uint256",
							"name": "toTokenId",
							"type": "uint256"
						},
						{
							"indexed": true,
							"internalType": "address",
							"name": "from",
							"type": "address"
						},
						{
							"indexed": true,
							"internalType": "address",
							"name": "to",
							"type": "address"
						}
					],
					"name": "ConsecutiveTransfer",
					"type": "event"
				},
				{
					"anonymous": false,
					"inputs": [
						{
							"indexed": true,
							"internalType": "address",
							"name": "from",
							"type": "address"
						},
						{
							"indexed": true,
							"internalType": "address",
							"name": "to",
							"type": "address"
						},
						{
							"indexed": true,
							"internalType": "uint256",
							"name": "tokenId",
							"type": "uint256"
						}
					],
					"name": "Transfer",
					"type": "event"
				},
				{
					"inputs": [
						{
							"internalType": "address",
							"name": "to",
							"type": "address"
						},
						{
							"internalType": "uint256",
							"name": "tokenId",
							"type": "uint256"
						}
					],
					"name": "approve",
					"outputs": [],
					"stateMutability": "nonpayable",
					"type": "function"
				},
				{
					"inputs": [
						{
							"internalType": "address",
							"name": "owner",
							"type": "address"
						}
					],
					"name": "balanceOf",
					"outputs": [
						{
							"internalType": "uint256",
							"name": "",
							"type": "uint256"
						}
					],
					"stateMutability": "view",
					"type": "function"
				},
				{
					"inputs": [
						{
							"internalType": "uint256",
							"name": "tokenId",
							"type": "uint256"
						}
					],
					"name": "getApproved",
					"outputs": [
						{
							"internalType": "address",
							"name": "",
							"type": "address"
						}
					],
					"stateMutability": "view",
					"type": "function"
				},
				{
					"inputs": [
						{
							"internalType": "address",
							"name": "owner",
							"type": "address"
						},
						{
							"internalType": "address",
							"name": "operator",
							"type": "address"
						}
					],
					"name": "isApprovedForAll",
					"outputs": [
						{
							"internalType": "bool",
							"name": "",
							"type": "bool"
						}
					],
					"stateMutability": "view",
					"type": "function"
				},
				{
					"inputs": [
						{
							"internalType": "uint256",
							"name": "quantity",
							"type": "uint256"
						}
					],
					"name": "mint",
					"outputs": [],
					"stateMutability": "payable",
					"type": "function"
				},
				{
					"inputs": [],
					"name": "name",
					"outputs": [
						{
							"internalType": "string",
							"name": "",
							"type": "string"
						}
					],
					"stateMutability": "view",
					"type": "function"
				},
				{
					"inputs": [
						{
							"internalType": "uint256",
							"name": "tokenId",
							"type": "uint256"
						}
					],
					"name": "ownerOf",
					"outputs": [
						{
							"internalType": "address",
							"name": "",
							"type": "address"
						}
					],
					"stateMutability": "view",
					"type": "function"
				},
				{
					"inputs": [
						{
							"internalType": "address",
							"name": "from",
							"type": "address"
						},
						{
							"internalType": "address",
							"name": "to",
							"type": "address"
						},
						{
							"internalType": "uint256",
							"name": "tokenId",
							"type": "uint256"
						}
					],
					"name": "safeTransferFrom",
					"outputs": [],
					"stateMutability": "nonpayable",
					"type": "function"
				},
				{
					"inputs": [
						{
							"internalType": "address",
							"name": "from",
							"type": "address"
						},
						{
							"internalType": "address",
							"name": "to",
							"type": "address"
						},
						{
							"internalType": "uint256",
							"name": "tokenId",
							"type": "uint256"
						},
						{
							"internalType": "bytes",
							"name": "_data",
							"type": "bytes"
						}
					],
					"name": "safeTransferFrom",
					"outputs": [],
					"stateMutability": "nonpayable",
					"type": "function"
				},
				{
					"inputs": [
						{
							"internalType": "address",
							"name": "operator",
							"type": "address"
						},
						{
							"internalType": "bool",
							"name": "approved",
							"type": "bool"
						}
					],
					"name": "setApprovalForAll",
					"outputs": [],
					"stateMutability": "nonpayable",
					"type": "function"
				},
				{
					"inputs": [
						{
							"internalType": "bytes4",
							"name": "interfaceId",
							"type": "bytes4"
						}
					],
					"name": "supportsInterface",
					"outputs": [
						{
							"internalType": "bool",
							"name": "",
							"type": "bool"
						}
					],
					"stateMutability": "view",
					"type": "function"
				},
				{
					"inputs": [],
					"name": "symbol",
					"outputs": [
						{
							"internalType": "string",
							"name": "",
							"type": "string"
						}
					],
					"stateMutability": "view",
					"type": "function"
				},
				{
					"inputs": [
						{
							"internalType": "uint256",
							"name": "tokenId",
							"type": "uint256"
						}
					],
					"name": "tokenURI",
					"outputs": [
						{
							"internalType": "string",
							"name": "",
							"type": "string"
						}
					],
					"stateMutability": "view",
					"type": "function"
				},
				{
					"inputs": [],
					"name": "totalSupply",
					"outputs": [
						{
							"internalType": "uint256",
							"name": "",
							"type": "uint256"
						}
					],
					"stateMutability": "view",
					"type": "function"
				},
				{
					"inputs": [
						{
							"internalType": "address",
							"name": "from",
							"type": "address"
						},
						{
							"internalType": "address",
							"name": "to",
							"type": "address"
						},
						{
							"internalType": "uint256",
							"name": "tokenId",
							"type": "uint256"
						}
					],
					"name": "transferFrom",
					"outputs": [],
					"stateMutability": "nonpayable",
					"type": "function"
				}
			],
			"devdoc": {
				"kind": "dev",
				"methods": {
					"approve(address,uint256)": {
						"details": "See {IERC721-approve}."
					},
					"balanceOf(address)": {
						"details": "See {IERC721-balanceOf}."
					},
					"getApproved(uint256)": {
						"details": "See {IERC721-getApproved}."
					},
					"isApprovedForAll(address,address)": {
						"details": "See {IERC721-isApprovedForAll}."
					},
					"name()": {
						"details": "See {IERC721Metadata-name}."
					},
					"ownerOf(uint256)": {
						"details": "See {IERC721-ownerOf}."
					},
					"safeTransferFrom(address,address,uint256)": {
						"details": "See {IERC721-safeTransferFrom}."
					},
					"safeTransferFrom(address,address,uint256,bytes)": {
						"details": "See {IERC721-safeTransferFrom}."
					},
					"setApprovalForAll(address,bool)": {
						"details": "See {IERC721-setApprovalForAll}."
					},
					"supportsInterface(bytes4)": {
						"details": "See {IERC165-supportsInterface}."
					},
					"symbol()": {
						"details": "See {IERC721Metadata-symbol}."
					},
					"tokenURI(uint256)": {
						"details": "See {IERC721Metadata-tokenURI}."
					},
					"totalSupply()": {
						"details": "Returns the total number of tokens in existence. Burned tokens will reduce the count. To get the total number of tokens minted, please see `_totalMinted`."
					},
					"transferFrom(address,address,uint256)": {
						"details": "Transfers `tokenId` from `from` to `to`. Requirements: - `to` cannot be the zero address. - `tokenId` token must be owned by `from`. Emits a {Transfer} event."
					}
				},
				"version": 1
			},
			"evm": {
				"assembly": "    /* \"Day50_ERC721A.sol\":66:310  contract Azuki is ERC721A {... */\n  mstore(0x40, 0x80)\n    /* \"Day50_ERC721A.sol\":96:138  constructor() ERC721A(\"Azuki\", \"AZUKI\") {} */\n  callvalue\n  dup1\n  iszero\n  tag_1\n  jumpi\n  0x00\n  dup1\n  revert\ntag_1:\n  pop\n    /* \"erc721a/contracts/ERC721A.sol\":3986:4140  constructor(string memory name_, string memory symbol_) {... */\n  mload(0x40)\n  dup1\n  0x40\n  add\n  0x40\n  mstore\n  dup1\n  0x05\n  dup2\n  mstore\n  0x20\n  add\n  0x417a756b69000000000000000000000000000000000000000000000000000000\n  dup2\n  mstore\n  pop\n  mload(0x40)\n  dup1\n  0x40\n  add\n  0x40\n  mstore\n  dup1\n  0x05\n  dup2\n  mstore\n  0x20\n  add\n  0x415a554b49000000000000000000000000000000000000000000000000000000\n  dup2\n  mstore\n  pop\n    /* \"erc721a/contracts/ERC721A.sol\":4060:4065  name_ */\n  dup2\n    /* \"erc721a/contracts/ERC721A.sol\":4052:4057  _name */\n  0x02\n    /* \"erc721a/contracts/ERC721A.sol\":4052:4065  _name = name_ */\n  swap1\n  dup2\n  tag_5\n  swap2\n  swap1\n  tag_6\n  jump\t// in\ntag_5:\n  pop\n    /* \"erc721a/contracts/ERC721A.sol\":4085:4092  symbol_ */\n  dup1\n    /* \"erc721a/contracts/ERC721A.sol\":4075:4082  _symbol */\n  0x03\n    /* \"erc721a/contracts/ERC721A.sol\":4075:4092  _symbol = symbol_ */\n  swap1\n  dup2\n  tag_7\n  swap2\n  swap1\n  tag_6\n  jump\t// in\ntag_7:\n  pop\n    /* \"erc721a/contracts/ERC721A.sol\":4118:4133  _startTokenId() */\n  tag_8\n    /* \"erc721a/contracts/ERC721A.sol\":4118:4131  _startTokenId */\n  shl(0x20, tag_9)\n    /* \"erc721a/contracts/ERC721A.sol\":4118:4133  _startTokenId() */\n  0x20\n  shr\n  jump\t// in\ntag_8:\n    /* \"erc721a/contracts/ERC721A.sol\":4102:4115  _currentIndex */\n  0x00\n    /* \"erc721a/contracts/ERC721A.sol\":4102:4133  _currentIndex = _startTokenId() */\n  dup2\n  swap1\n  sstore\n  pop\n    /* \"erc721a/contracts/ERC721A.sol\":3986:4140  constructor(string memory name_, string memory symbol_) {... */\n  pop\n  pop\n    /* \"Day50_ERC721A.sol\":66:310  contract Azuki is ERC721A {... */\n  jump(tag_11)\n    /* \"erc721a/contracts/ERC721A.sol\":4276:4366  function _startTokenId() internal view virtual returns (uint256) {... */\ntag_9:\n    /* \"erc721a/contracts/ERC721A.sol\":4332:4339  uint256 */\n  0x00\n    /* \"erc721a/contracts/ERC721A.sol\":4276:4366  function _startTokenId() internal view virtual returns (uint256) {... */\n  swap1\n  jump\t// out\n    /* \"#utility.yul\":7:106   */\ntag_13:\n    /* \"#utility.yul\":59:65   */\n  0x00\n    /* \"#utility.yul\":93:98   */\n  dup2\n    /* \"#utility.yul\":87:99   */\n  mload\n    /* \"#utility.yul\":77:99   */\n  swap1\n  pop\n    /* \"#utility.yul\":7:106   */\n  swap2\n  swap1\n  pop\n  jump\t// out\n    /* \"#utility.yul\":112:292   */\ntag_14:\n    /* \"#utility.yul\":160:237   */\n  0x4e487b7100000000000000000000000000000000000000000000000000000000\n    /* \"#utility.yul\":157:158   */\n  0x00\n    /* \"#utility.yul\":150:238   */\n  mstore\n    /* \"#utility.yul\":257:261   */\n  0x41\n    /* \"#utility.yul\":254:255   */\n  0x04\n    /* \"#utility.yul\":247:262   */\n  mstore\n    /* \"#utility.yul\":281:285   */\n  0x24\n    /* \"#utility.yul\":278:279   */\n  0x00\n    /* \"#utility.yul\":271:286   */\n  revert\n    /* \"#utility.yul\":298:478   */\ntag_15:\n    /* \"#utility.yul\":346:423   */\n  0x4e487b7100000000000000000000000000000000000000000000000000000000\n    /* \"#utility.yul\":343:344   */\n  0x00\n    /* \"#utility.yul\":336:424   */\n  mstore\n    /* \"#utility.yul\":443:447   */\n  0x22\n    /* \"#utility.yul\":440:441   */\n  0x04\n    /* \"#utility.yul\":433:448   */\n  mstore\n    /* \"#utility.yul\":467:471   */\n  0x24\n    /* \"#utility.yul\":464:465   */\n  0x00\n    /* \"#utility.yul\":457:472   */\n  revert\n    /* \"#utility.yul\":484:804   */\ntag_16:\n    /* \"#utility.yul\":528:534   */\n  0x00\n    /* \"#utility.yul\":565:566   */\n  0x02\n    /* \"#utility.yul\":559:563   */\n  dup3\n    /* \"#utility.yul\":555:567   */\n  div\n    /* \"#utility.yul\":545:567   */\n  swap1\n  pop\n    /* \"#utility.yul\":612:613   */\n  0x01\n    /* \"#utility.yul\":606:610   */\n  dup3\n    /* \"#utility.yul\":602:614   */\n  and\n    /* \"#utility.yul\":633:651   */\n  dup1\n    /* \"#utility.yul\":623:704   */\n  tag_38\n  jumpi\n    /* \"#utility.yul\":689:693   */\n  0x7f\n    /* \"#utility.yul\":681:687   */\n  dup3\n    /* \"#utility.yul\":677:694   */\n  and\n    /* \"#utility.yul\":667:694   */\n  swap2\n  pop\n    /* \"#utility.yul\":623:704   */\ntag_38:\n    /* \"#utility.yul\":751:753   */\n  0x20\n    /* \"#utility.yul\":743:749   */\n  dup3\n    /* \"#utility.yul\":740:754   */\n  lt\n    /* \"#utility.yul\":720:738   */\n  dup2\n    /* \"#utility.yul\":717:755   */\n  sub\n    /* \"#utility.yul\":714:798   */\n  tag_39\n  jumpi\n    /* \"#utility.yul\":770:788   */\n  tag_40\n  tag_15\n  jump\t// in\ntag_40:\n    /* \"#utility.yul\":714:798   */\ntag_39:\n    /* \"#utility.yul\":535:804   */\n  pop\n    /* \"#utility.yul\":484:804   */\n  swap2\n  swap1\n  pop\n  jump\t// out\n    /* \"#utility.yul\":810:951   */\ntag_17:\n    /* \"#utility.yul\":859:863   */\n  0x00\n    /* \"#utility.yul\":882:885   */\n  dup2\n    /* \"#utility.yul\":874:885   */\n  swap1\n  pop\n    /* \"#utility.yul\":905:908   */\n  dup2\n    /* \"#utility.yul\":902:903   */\n  0x00\n    /* \"#utility.yul\":895:909   */\n  mstore\n    /* \"#utility.yul\":939:943   */\n  0x20\n    /* \"#utility.yul\":936:937   */\n  0x00\n    /* \"#utility.yul\":926:944   */\n  keccak256\n    /* \"#utility.yul\":918:944   */\n  swap1\n  pop\n    /* \"#utility.yul\":810:951   */\n  swap2\n  swap1\n  pop\n  jump\t// out\n    /* \"#utility.yul\":957:1050   */\ntag_18:\n    /* \"#utility.yul\":994:1000   */\n  0x00\n    /* \"#utility.yul\":1041:1043   */\n  0x20\n    /* \"#utility.yul\":1036:1038   */\n  0x1f\n    /* \"#utility.yul\":1029:1034   */\n  dup4\n    /* \"#utility.yul\":1025:1039   */\n  add\n    /* \"#utility.yul\":1021:1044   */\n  div\n    /* \"#utility.yul\":1011:1044   */\n  swap1\n  pop\n    /* \"#utility.yul\":957:1050   */\n  swap2\n  swap1\n  pop\n  jump\t// out\n    /* \"#utility.yul\":1056:1163   */\ntag_19:\n    /* \"#utility.yul\":1100:1108   */\n  0x00\n    /* \"#utility.yul\":1150:1155   */\n  dup3\n    /* \"#utility.yul\":1144:1148   */\n  dup3\n    /* \"#utility.yul\":1140:1156   */\n  shl\n    /* \"#utility.yul\":1119:1156   */\n  swap1\n  pop\n    /* \"#utility.yul\":1056:1163   */\n  swap3\n  swap2\n  pop\n  pop\n  jump\t// out\n    /* \"#utility.yul\":1169:1562   */\ntag_20:\n    /* \"#utility.yul\":1238:1244   */\n  0x00\n    /* \"#utility.yul\":1288:1289   */\n  0x08\n    /* \"#utility.yul\":1276:1286   */\n  dup4\n    /* \"#utility.yul\":1272:1290   */\n  mul\n    /* \"#utility.yul\":1311:1408   */\n  tag_45\n    /* \"#utility.yul\":1341:1407   */\n  0xffffffffffffffffffffffffffffffffffffffffffffffffffffffffffffffff\n    /* \"#utility.yul\":1330:1339   */\n  dup3\n    /* \"#utility.yul\":1311:1408   */\n  tag_19\n  jump\t// in\ntag_45:\n    /* \"#utility.yul\":1429:1468   */\n  tag_46\n    /* \"#utility.yul\":1459:1467   */\n  dup7\n    /* \"#utility.yul\":1448:1457   */\n  dup4\n    /* \"#utility.yul\":1429:1468   */\n  tag_19\n  jump\t// in\ntag_46:\n    /* \"#utility.yul\":1417:1468   */\n  swap6\n  pop\n    /* \"#utility.yul\":1501:1505   */\n  dup1\n    /* \"#utility.yul\":1497:1506   */\n  not\n    /* \"#utility.yul\":1490:1495   */\n  dup5\n    /* \"#utility.yul\":1486:1507   */\n  and\n    /* \"#utility.yul\":1477:1507   */\n  swap4\n  pop\n    /* \"#utility.yul\":1550:1554   */\n  dup1\n    /* \"#utility.yul\":1540:1548   */\n  dup7\n    /* \"#utility.yul\":1536:1555   */\n  and\n    /* \"#utility.yul\":1529:1534   */\n  dup5\n    /* \"#utility.yul\":1526:1556   */\n  or\n    /* \"#utility.yul\":1516:1556   */\n  swap3\n  pop\n    /* \"#utility.yul\":1245:1562   */\n  pop\n  pop\n    /* \"#utility.yul\":1169:1562   */\n  swap4\n  swap3\n  pop\n  pop\n  pop\n  jump\t// out\n    /* \"#utility.yul\":1568:1645   */\ntag_21:\n    /* \"#utility.yul\":1605:1612   */\n  0x00\n    /* \"#utility.yul\":1634:1639   */\n  dup2\n    /* \"#utility.yul\":1623:1639   */\n  swap1\n  pop\n    /* \"#utility.yul\":1568:1645   */\n  swap2\n  swap1\n  pop\n  jump\t// out\n    /* \"#utility.yul\":1651:1711   */\ntag_22:\n    /* \"#utility.yul\":1679:1682   */\n  0x00\n    /* \"#utility.yul\":1700:1705   */\n  dup2\n    /* \"#utility.yul\":1693:1705   */\n  swap1\n  pop\n    /* \"#utility.yul\":1651:1711   */\n  swap2\n  swap1\n  pop\n  jump\t// out\n    /* \"#utility.yul\":1717:1859   */\ntag_23:\n    /* \"#utility.yul\":1767:1776   */\n  0x00\n    /* \"#utility.yul\":1800:1853   */\n  tag_50\n    /* \"#utility.yul\":1818:1852   */\n  tag_51\n    /* \"#utility.yul\":1827:1851   */\n  tag_52\n    /* \"#utility.yul\":1845:1850   */\n  dup5\n    /* \"#utility.yul\":1827:1851   */\n  tag_21\n  jump\t// in\ntag_52:\n    /* \"#utility.yul\":1818:1852   */\n  tag_22\n  jump\t// in\ntag_51:\n    /* \"#utility.yul\":1800:1853   */\n  tag_21\n  jump\t// in\ntag_50:\n    /* \"#utility.yul\":1787:1853   */\n  swap1\n  pop\n    /* \"#utility.yul\":1717:1859   */\n  swap2\n  swap1\n  pop\n  jump\t// out\n    /* \"#utility.yul\":1865:1940   */\ntag_24:\n    /* \"#utility.yul\":1908:1911   */\n  0x00\n    /* \"#utility.yul\":1929:1934   */\n  dup2\n    /* \"#utility.yul\":1922:1934   */\n  swap1\n  pop\n    /* \"#utility.yul\":1865:1940   */\n  swap2\n  swap1\n  pop\n  jump\t// out\n    /* \"#utility.yul\":1946:2215   */\ntag_25:\n    /* \"#utility.yul\":2056:2095   */\n  tag_55\n    /* \"#utility.yul\":2087:2094   */\n  dup4\n    /* \"#utility.yul\":2056:2095   */\n  tag_23\n  jump\t// in\ntag_55:\n    /* \"#utility.yul\":2117:2208   */\n  tag_56\n    /* \"#utility.yul\":2166:2207   */\n  tag_57\n    /* \"#utility.yul\":2190:2206   */\n  dup3\n    /* \"#utility.yul\":2166:2207   */\n  tag_24\n  jump\t// in\ntag_57:\n    /* \"#utility.yul\":2158:2164   */\n  dup5\n    /* \"#utility.yul\":2151:2155   */\n  dup5\n    /* \"#utility.yul\":2145:2156   */\n  sload\n    /* \"#utility.yul\":2117:2208   */\n  tag_20\n  jump\t// in\ntag_56:\n    /* \"#utility.yul\":2111:2115   */\n  dup3\n    /* \"#utility.yul\":2104:2209   */\n  sstore\n    /* \"#utility.yul\":2022:2215   */\n  pop\n    /* \"#utility.yul\":1946:2215   */\n  pop\n  pop\n  pop\n  jump\t// out\n    /* \"#utility.yul\":2221:2294   */\ntag_26:\n    /* \"#utility.yul\":2266:2269   */\n  0x00\n    /* \"#utility.yul\":2221:2294   */\n  swap1\n  jump\t// out\n    /* \"#utility.yul\":2300:2489   */\ntag_27:\n    /* \"#utility.yul\":2377:2409   */\n  tag_60\n  tag_26\n  jump\t// in\ntag_60:\n    /* \"#utility.yul\":2418:2483   */\n  tag_61\n    /* \"#utility.yul\":2476:2482   */\n  dup2\n    /* \"#utility.yul\":2468:2474   */\n  dup5\n    /* \"#utility.yul\":2462:2466   */\n  dup5\n    /* \"#utility.yul\":2418:2483   */\n  tag_25\n  jump\t// in\ntag_61:\n    /* \"#utility.yul\":2353:2489   */\n  pop\n    /* \"#utility.yul\":2300:2489   */\n  pop\n  pop\n  jump\t// out\n    /* \"#utility.yul\":2495:2681   */\ntag_28:\n    /* \"#utility.yul\":2555:2675   */\ntag_63:\n    /* \"#utility.yul\":2572:2575   */\n  dup2\n    /* \"#utility.yul\":2565:2570   */\n  dup2\n    /* \"#utility.yul\":2562:2576   */\n  lt\n    /* \"#utility.yul\":2555:2675   */\n  iszero\n  tag_65\n  jumpi\n    /* \"#utility.yul\":2626:2665   */\n  tag_66\n    /* \"#utility.yul\":2663:2664   */\n  0x00\n    /* \"#utility.yul\":2656:2661   */\n  dup3\n    /* \"#utility.yul\":2626:2665   */\n  tag_27\n  jump\t// in\ntag_66:\n    /* \"#utility.yul\":2599:2600   */\n  0x01\n    /* \"#utility.yul\":2592:2597   */\n  dup2\n    /* \"#utility.yul\":2588:2601   */\n  add\n    /* \"#utility.yul\":2579:2601   */\n  swap1\n  pop\n    /* \"#utility.yul\":2555:2675   */\n  jump(tag_63)\ntag_65:\n    /* \"#utility.yul\":2495:2681   */\n  pop\n  pop\n  jump\t// out\n    /* \"#utility.yul\":2687:3230   */\ntag_29:\n    /* \"#utility.yul\":2788:2790   */\n  0x1f\n    /* \"#utility.yul\":2783:2786   */\n  dup3\n    /* \"#utility.yul\":2780:2791   */\n  gt\n    /* \"#utility.yul\":2777:3223   */\n  iszero\n  tag_68\n  jumpi\n    /* \"#utility.yul\":2822:2860   */\n  tag_69\n    /* \"#utility.yul\":2854:2859   */\n  dup2\n    /* \"#utility.yul\":2822:2860   */\n  tag_17\n  jump\t// in\ntag_69:\n    /* \"#utility.yul\":2906:2935   */\n  tag_70\n    /* \"#utility.yul\":2924:2934   */\n  dup5\n    /* \"#utility.yul\":2906:2935   */\n  tag_18\n  jump\t// in\ntag_70:\n    /* \"#utility.yul\":2896:2904   */\n  dup2\n    /* \"#utility.yul\":2892:2936   */\n  add\n    /* \"#utility.yul\":3089:3091   */\n  0x20\n    /* \"#utility.yul\":3077:3087   */\n  dup6\n    /* \"#utility.yul\":3074:3092   */\n  lt\n    /* \"#utility.yul\":3071:3120   */\n  iszero\n  tag_71\n  jumpi\n    /* \"#utility.yul\":3110:3118   */\n  dup2\n    /* \"#utility.yul\":3095:3118   */\n  swap1\n  pop\n    /* \"#utility.yul\":3071:3120   */\ntag_71:\n    /* \"#utility.yul\":3133:3213   */\n  tag_72\n    /* \"#utility.yul\":3189:3211   */\n  tag_73\n    /* \"#utility.yul\":3207:3210   */\n  dup6\n    /* \"#utility.yul\":3189:3211   */\n  tag_18\n  jump\t// in\ntag_73:\n    /* \"#utility.yul\":3179:3187   */\n  dup4\n    /* \"#utility.yul\":3175:3212   */\n  add\n    /* \"#utility.yul\":3162:3173   */\n  dup3\n    /* \"#utility.yul\":3133:3213   */\n  tag_28\n  jump\t// in\ntag_72:\n    /* \"#utility.yul\":2792:3223   */\n  pop\n  pop\n    /* \"#utility.yul\":2777:3223   */\ntag_68:\n    /* \"#utility.yul\":2687:3230   */\n  pop\n  pop\n  pop\n  jump\t// out\n    /* \"#utility.yul\":3236:3353   */\ntag_30:\n    /* \"#utility.yul\":3290:3298   */\n  0x00\n    /* \"#utility.yul\":3340:3345   */\n  dup3\n    /* \"#utility.yul\":3334:3338   */\n  dup3\n    /* \"#utility.yul\":3330:3346   */\n  shr\n    /* \"#utility.yul\":3309:3346   */\n  swap1\n  pop\n    /* \"#utility.yul\":3236:3353   */\n  swap3\n  swap2\n  pop\n  pop\n  jump\t// out\n    /* \"#utility.yul\":3359:3528   */\ntag_31:\n    /* \"#utility.yul\":3403:3409   */\n  0x00\n    /* \"#utility.yul\":3436:3487   */\n  tag_76\n    /* \"#utility.yul\":3484:3485   */\n  0x00\n    /* \"#utility.yul\":3480:3486   */\n  not\n    /* \"#utility.yul\":3472:3477   */\n  dup5\n    /* \"#utility.yul\":3469:3470   */\n  0x08\n    /* \"#utility.yul\":3465:3478   */\n  mul\n    /* \"#utility.yul\":3436:3487   */\n  tag_30\n  jump\t// in\ntag_76:\n    /* \"#utility.yul\":3432:3488   */\n  not\n    /* \"#utility.yul\":3517:3521   */\n  dup1\n    /* \"#utility.yul\":3511:3515   */\n  dup4\n    /* \"#utility.yul\":3507:3522   */\n  and\n    /* \"#utility.yul\":3497:3522   */\n  swap2\n  pop\n    /* \"#utility.yul\":3410:3528   */\n  pop\n    /* \"#utility.yul\":3359:3528   */\n  swap3\n  swap2\n  pop\n  pop\n  jump\t// out\n    /* \"#utility.yul\":3533:3828   */\ntag_32:\n    /* \"#utility.yul\":3609:3613   */\n  0x00\n    /* \"#utility.yul\":3755:3784   */\n  tag_78\n    /* \"#utility.yul\":3780:3783   */\n  dup4\n    /* \"#utility.yul\":3774:3778   */\n  dup4\n    /* \"#utility.yul\":3755:3784   */\n  tag_31\n  jump\t// in\ntag_78:\n    /* \"#utility.yul\":3747:3784   */\n  swap2\n  pop\n    /* \"#utility.yul\":3817:3820   */\n  dup3\n    /* \"#utility.yul\":3814:3815   */\n  0x02\n    /* \"#utility.yul\":3810:3821   */\n  mul\n    /* \"#utility.yul\":3804:3808   */\n  dup3\n    /* \"#utility.yul\":3801:3822   */\n  or\n    /* \"#utility.yul\":3793:3822   */\n  swap1\n  pop\n    /* \"#utility.yul\":3533:3828   */\n  swap3\n  swap2\n  pop\n  pop\n  jump\t// out\n    /* \"#utility.yul\":3833:5228   */\ntag_6:\n    /* \"#utility.yul\":3950:3987   */\n  tag_80\n    /* \"#utility.yul\":3983:3986   */\n  dup3\n    /* \"#utility.yul\":3950:3987   */\n  tag_13\n  jump\t// in\ntag_80:\n    /* \"#utility.yul\":4052:4070   */\n  0xffffffffffffffff\n    /* \"#utility.yul\":4044:4050   */\n  dup2\n    /* \"#utility.yul\":4041:4071   */\n  gt\n    /* \"#utility.yul\":4038:4094   */\n  iszero\n  tag_81\n  jumpi\n    /* \"#utility.yul\":4074:4092   */\n  tag_82\n  tag_14\n  jump\t// in\ntag_82:\n    /* \"#utility.yul\":4038:4094   */\ntag_81:\n    /* \"#utility.yul\":4118:4156   */\n  tag_83\n    /* \"#utility.yul\":4150:4154   */\n  dup3\n    /* \"#utility.yul\":4144:4155   */\n  sload\n    /* \"#utility.yul\":4118:4156   */\n  tag_16\n  jump\t// in\ntag_83:\n    /* \"#utility.yul\":4203:4270   */\n  tag_84\n    /* \"#utility.yul\":4263:4269   */\n  dup3\n    /* \"#utility.yul\":4255:4261   */\n  dup3\n    /* \"#utility.yul\":4249:4253   */\n  dup6\n    /* \"#utility.yul\":4203:4270   */\n  tag_29\n  jump\t// in\ntag_84:\n    /* \"#utility.yul\":4297:4298   */\n  0x00\n    /* \"#utility.yul\":4321:4325   */\n  0x20\n    /* \"#utility.yul\":4308:4325   */\n  swap1\n  pop\n    /* \"#utility.yul\":4353:4355   */\n  0x1f\n    /* \"#utility.yul\":4345:4351   */\n  dup4\n    /* \"#utility.yul\":4342:4356   */\n  gt\n    /* \"#utility.yul\":4370:4371   */\n  0x01\n    /* \"#utility.yul\":4365:4983   */\n  dup2\n  eq\n  tag_86\n  jumpi\n    /* \"#utility.yul\":5027:5028   */\n  0x00\n    /* \"#utility.yul\":5044:5050   */\n  dup5\n    /* \"#utility.yul\":5041:5118   */\n  iszero\n  tag_87\n  jumpi\n    /* \"#utility.yul\":5093:5102   */\n  dup3\n    /* \"#utility.yul\":5088:5091   */\n  dup8\n    /* \"#utility.yul\":5084:5103   */\n  add\n    /* \"#utility.yul\":5078:5104   */\n  mload\n    /* \"#utility.yul\":5069:5104   */\n  swap1\n  pop\n    /* \"#utility.yul\":5041:5118   */\ntag_87:\n    /* \"#utility.yul\":5144:5211   */\n  tag_88\n    /* \"#utility.yul\":5204:5210   */\n  dup6\n    /* \"#utility.yul\":5197:5202   */\n  dup3\n    /* \"#utility.yul\":5144:5211   */\n  tag_32\n  jump\t// in\ntag_88:\n    /* \"#utility.yul\":5138:5142   */\n  dup7\n    /* \"#utility.yul\":5131:5212   */\n  sstore\n    /* \"#utility.yul\":5000:5222   */\n  pop\n    /* \"#utility.yul\":4335:5222   */\n  jump(tag_85)\n    /* \"#utility.yul\":4365:4983   */\ntag_86:\n    /* \"#utility.yul\":4417:4421   */\n  0x1f\n    /* \"#utility.yul\":4413:4422   */\n  not\n    /* \"#utility.yul\":4405:4411   */\n  dup5\n    /* \"#utility.yul\":4401:4423   */\n  and\n    /* \"#utility.yul\":4451:4488   */\n  tag_89\n    /* \"#utility.yul\":4483:4487   */\n  dup7\n    /* \"#utility.yul\":4451:4488   */\n  tag_17\n  jump\t// in\ntag_89:\n    /* \"#utility.yul\":4510:4511   */\n  0x00\n    /* \"#utility.yul\":4524:4732   */\ntag_90:\n    /* \"#utility.yul\":4538:4545   */\n  dup3\n    /* \"#utility.yul\":4535:4536   */\n  dup2\n    /* \"#utility.yul\":4532:4546   */\n  lt\n    /* \"#utility.yul\":4524:4732   */\n  iszero\n  tag_92\n  jumpi\n    /* \"#utility.yul\":4617:4626   */\n  dup5\n    /* \"#utility.yul\":4612:4615   */\n  dup10\n    /* \"#utility.yul\":4608:4627   */\n  add\n    /* \"#utility.yul\":4602:4628   */\n  mload\n    /* \"#utility.yul\":4594:4600   */\n  dup3\n    /* \"#utility.yul\":4587:4629   */\n  sstore\n    /* \"#utility.yul\":4668:4669   */\n  0x01\n    /* \"#utility.yul\":4660:4666   */\n  dup3\n    /* \"#utility.yul\":4656:4670   */\n  add\n    /* \"#utility.yul\":4646:4670   */\n  swap2\n  pop\n    /* \"#utility.yul\":4715:4717   */\n  0x20\n    /* \"#utility.yul\":4704:4713   */\n  dup6\n    /* \"#utility.yul\":4700:4718   */\n  add\n    /* \"#utility.yul\":4687:4718   */\n  swap5\n  pop\n    /* \"#utility.yul\":4561:4565   */\n  0x20\n    /* \"#utility.yul\":4558:4559   */\n  dup2\n    /* \"#utility.yul\":4554:4566   */\n  add\n    /* \"#utility.yul\":4549:4566   */\n  swap1\n  pop\n    /* \"#utility.yul\":4524:4732   */\n  jump(tag_90)\ntag_92:\n    /* \"#utility.yul\":4760:4766   */\n  dup7\n    /* \"#utility.yul\":4751:4758   */\n  dup4\n    /* \"#utility.yul\":4748:4767   */\n  lt\n    /* \"#utility.yul\":4745:4924   */\n  iszero\n  tag_93\n  jumpi\n    /* \"#utility.yul\":4818:4827   */\n  dup5\n    /* \"#utility.yul\":4813:4816   */\n  dup10\n    /* \"#utility.yul\":4809:4828   */\n  add\n    /* \"#utility.yul\":4803:4829   */\n  mload\n    /* \"#utility.yul\":4861:4909   */\n  tag_94\n    /* \"#utility.yul\":4903:4907   */\n  0x1f\n    /* \"#utility.yul\":4895:4901   */\n  dup10\n    /* \"#utility.yul\":4891:4908   */\n  and\n    /* \"#utility.yul\":4880:4889   */\n  dup3\n    /* \"#utility.yul\":4861:4909   */\n  tag_31\n  jump\t// in\ntag_94:\n    /* \"#utility.yul\":4853:4859   */\n  dup4\n    /* \"#utility.yul\":4846:4910   */\n  sstore\n    /* \"#utility.yul\":4768:4924   */\n  pop\n    /* \"#utility.yul\":4745:4924   */\ntag_93:\n    /* \"#utility.yul\":4970:4971   */\n  0x01\n    /* \"#utility.yul\":4966:4967   */\n  0x02\n    /* \"#utility.yul\":4958:4964   */\n  dup9\n    /* \"#utility.yul\":4954:4968   */\n  mul\n    /* \"#utility.yul\":4950:4972   */\n  add\n    /* \"#utility.yul\":4944:4948   */\n  dup9\n    /* \"#utility.yul\":4937:4973   */\n  sstore\n    /* \"#utility.yul\":4372:4983   */\n  pop\n  pop\n  pop\n    /* \"#utility.yul\":4335:5222   */\ntag_85:\n  pop\n    /* \"#utility.yul\":3925:5228   */\n  pop\n  pop\n  pop\n    /* \"#utility.yul\":3833:5228   */\n  pop\n  pop\n  jump\t// out\n    /* \"Day50_ERC721A.sol\":66:310  contract Azuki is ERC721A {... */\ntag_11:\n  dataSize(sub_0)\n  dup1\n  dataOffset(sub_0)\n  0x00\n  codecopy\n  0x00\n  return\nstop\n\nsub_0: assembly {\n        /* \"Day50_ERC721A.sol\":66:310  contract Azuki is ERC721A {... */\n      mstore(0x40, 0x80)\n      jumpi(tag_1, lt(calldatasize, 0x04))\n      shr(0xe0, calldataload(0x00))\n      dup1\n      0x6352211e\n      gt\n      tag_17\n      jumpi\n      dup1\n      0xa22cb465\n      gt\n      tag_18\n      jumpi\n      dup1\n      0xa22cb465\n      eq\n      tag_13\n      jumpi\n      dup1\n      0xb88d4fde\n      eq\n      tag_14\n      jumpi\n      dup1\n      0xc87b56dd\n      eq\n      tag_15\n      jumpi\n      dup1\n      0xe985e9c5\n      eq\n      tag_16\n      jumpi\n      jump(tag_1)\n    tag_18:\n      dup1\n      0x6352211e\n      eq\n      tag_9\n      jumpi\n      dup1\n      0x70a08231\n      eq\n      tag_10\n      jumpi\n      dup1\n      0x95d89b41\n      eq\n      tag_11\n      jumpi\n      dup1\n      0xa0712d68\n      eq\n      tag_12\n      jumpi\n      jump(tag_1)\n    tag_17:\n      dup1\n      0x095ea7b3\n      gt\n      tag_19\n      jumpi\n      dup1\n      0x095ea7b3\n      eq\n      tag_5\n      jumpi\n      dup1\n      0x18160ddd\n      eq\n      tag_6\n      jumpi\n      dup1\n      0x23b872dd\n      eq\n      tag_7\n      jumpi\n      dup1\n      0x42842e0e\n      eq\n      tag_8\n      jumpi\n      jump(tag_1)\n    tag_19:\n      dup1\n      0x01ffc9a7\n      eq\n      tag_2\n      jumpi\n      dup1\n      0x06fdde03\n      eq\n      tag_3\n      jumpi\n      dup1\n      0x081812fc\n      eq\n      tag_4\n      jumpi\n    tag_1:\n      0x00\n      dup1\n      revert\n        /* \"erc721a/contracts/ERC721A.sol\":5653:6260  function supportsInterface(bytes4 interfaceId) public view virtual override returns (bool) {... */\n    tag_2:\n      callvalue\n      dup1\n      iszero\n      tag_20\n      jumpi\n      0x00\n      dup1\n      revert\n    tag_20:\n      pop\n      tag_21\n      0x04\n      dup1\n      calldatasize\n      sub\n      dup2\n      add\n      swap1\n      tag_22\n      swap2\n      swap1\n      tag_23\n      jump\t// in\n    tag_22:\n      tag_24\n      jump\t// in\n    tag_21:\n      mload(0x40)\n      tag_25\n      swap2\n      swap1\n      tag_26\n      jump\t// in\n    tag_25:\n      mload(0x40)\n      dup1\n      swap2\n      sub\n      swap1\n      return\n        /* \"erc721a/contracts/ERC721A.sol\":11161:11259  function name() public view virtual override returns (string memory) {... */\n    tag_3:\n      callvalue\n      dup1\n      iszero\n      tag_27\n      jumpi\n      0x00\n      dup1\n      revert\n    tag_27:\n      pop\n      tag_28\n      tag_29\n      jump\t// in\n    tag_28:\n      mload(0x40)\n      tag_30\n      swap2\n      swap1\n      tag_31\n      jump\t// in\n    tag_30:\n      mload(0x40)\n      dup1\n      swap2\n      sub\n      swap1\n      return\n        /* \"erc721a/contracts/ERC721A.sol\":13048:13248  function getApproved(uint256 tokenId) public view override returns (address) {... */\n    tag_4:\n      callvalue\n      dup1\n      iszero\n      tag_32\n      jumpi\n      0x00\n      dup1\n      revert\n    tag_32:\n      pop\n      tag_33\n      0x04\n      dup1\n      calldatasize\n      sub\n      dup2\n      add\n      swap1\n      tag_34\n      swap2\n      swap1\n      tag_35\n      jump\t// in\n    tag_34:\n      tag_36\n      jump\t// in\n    tag_33:\n      mload(0x40)\n      tag_37\n      swap2\n      swap1\n      tag_38\n      jump\t// in\n    tag_37:\n      mload(0x40)\n      dup1\n      swap2\n      sub\n      swap1\n      return\n        /* \"erc721a/contracts/ERC721A.sol\":12611:12987  function approve(address to, uint256 tokenId) public override {... */\n    tag_5:\n      callvalue\n      dup1\n      iszero\n      tag_39\n      jumpi\n      0x00\n      dup1\n      revert\n    tag_39:\n      pop\n      tag_40\n      0x04\n      dup1\n      calldatasize\n      sub\n      dup2\n      add\n      swap1\n      tag_41\n      swap2\n      swap1\n      tag_42\n      jump\t// in\n    tag_41:\n      tag_43\n      jump\t// in\n    tag_40:\n      stop\n        /* \"erc721a/contracts/ERC721A.sol\":4736:5045  function totalSupply() public view override returns (uint256) {... */\n    tag_6:\n      callvalue\n      dup1\n      iszero\n      tag_44\n      jumpi\n      0x00\n      dup1\n      revert\n    tag_44:\n      pop\n      tag_45\n      tag_46\n      jump\t// in\n    tag_45:\n      mload(0x40)\n      tag_47\n      swap2\n      swap1\n      tag_48\n      jump\t// in\n    tag_47:\n      mload(0x40)\n      dup1\n      swap2\n      sub\n      swap1\n      return\n        /* \"erc721a/contracts/ERC721A.sol\":22055:24794  function transferFrom(... */\n    tag_7:\n      callvalue\n      dup1\n      iszero\n      tag_49\n      jumpi\n      0x00\n      dup1\n      revert\n    tag_49:\n      pop\n      tag_50\n      0x04\n      dup1\n      calldatasize\n      sub\n      dup2\n      add\n      swap1\n      tag_51\n      swap2\n      swap1\n      tag_52\n      jump\t// in\n    tag_51:\n      tag_53\n      jump\t// in\n    tag_50:\n      stop\n        /* \"erc721a/contracts/ERC721A.sol\":13912:14091  function safeTransferFrom(... */\n    tag_8:\n      callvalue\n      dup1\n      iszero\n      tag_54\n      jumpi\n      0x00\n      dup1\n      revert\n    tag_54:\n      pop\n      tag_55\n      0x04\n      dup1\n      calldatasize\n      sub\n      dup2\n      add\n      swap1\n      tag_56\n      swap2\n      swap1\n      tag_52\n      jump\t// in\n    tag_56:\n      tag_57\n      jump\t// in\n    tag_55:\n      stop\n        /* \"erc721a/contracts/ERC721A.sol\":10957:11099  function ownerOf(uint256 tokenId) public view override returns (address) {... */\n    tag_9:\n      callvalue\n      dup1\n      iszero\n      tag_58\n      jumpi\n      0x00\n      dup1\n      revert\n    tag_58:\n      pop\n      tag_59\n      0x04\n      dup1\n      calldatasize\n      sub\n      dup2\n      add\n      swap1\n      tag_60\n      swap2\n      swap1\n      tag_35\n      jump\t// in\n    tag_60:\n      tag_61\n      jump\t// in\n    tag_59:\n      mload(0x40)\n      tag_62\n      swap2\n      swap1\n      tag_38\n      jump\t// in\n    tag_62:\n      mload(0x40)\n      dup1\n      swap2\n      sub\n      swap1\n      return\n        /* \"erc721a/contracts/ERC721A.sol\":6319:6540  function balanceOf(address owner) public view override returns (uint256) {... */\n    tag_10:\n      callvalue\n      dup1\n      iszero\n      tag_63\n      jumpi\n      0x00\n      dup1\n      revert\n    tag_63:\n      pop\n      tag_64\n      0x04\n      dup1\n      calldatasize\n      sub\n      dup2\n      add\n      swap1\n      tag_65\n      swap2\n      swap1\n      tag_66\n      jump\t// in\n    tag_65:\n      tag_67\n      jump\t// in\n    tag_64:\n      mload(0x40)\n      tag_68\n      swap2\n      swap1\n      tag_48\n      jump\t// in\n    tag_68:\n      mload(0x40)\n      dup1\n      swap2\n      sub\n      swap1\n      return\n        /* \"erc721a/contracts/ERC721A.sol\":11323:11425  function symbol() public view virtual override returns (string memory) {... */\n    tag_11:\n      callvalue\n      dup1\n      iszero\n      tag_69\n      jumpi\n      0x00\n      dup1\n      revert\n    tag_69:\n      pop\n      tag_70\n      tag_71\n      jump\t// in\n    tag_70:\n      mload(0x40)\n      tag_72\n      swap2\n      swap1\n      tag_31\n      jump\t// in\n    tag_72:\n      mload(0x40)\n      dup1\n      swap2\n      sub\n      swap1\n      return\n        /* \"Day50_ERC721A.sol\":142:308  function mint(uint256 quantity) external payable {... */\n    tag_12:\n      tag_73\n      0x04\n      dup1\n      calldatasize\n      sub\n      dup2\n      add\n      swap1\n      tag_74\n      swap2\n      swap1\n      tag_35\n      jump\t// in\n    tag_74:\n      tag_75\n      jump\t// in\n    tag_73:\n      stop\n        /* \"erc721a/contracts/ERC721A.sol\":13315:13618  function setApprovalForAll(address operator, bool approved) public virtual override {... */\n    tag_13:\n      callvalue\n      dup1\n      iszero\n      tag_76\n      jumpi\n      0x00\n      dup1\n      revert\n    tag_76:\n      pop\n      tag_77\n      0x04\n      dup1\n      calldatasize\n      sub\n      dup2\n      add\n      swap1\n      tag_78\n      swap2\n      swap1\n      tag_79\n      jump\t// in\n    tag_78:\n      tag_80\n      jump\t// in\n    tag_77:\n      stop\n        /* \"erc721a/contracts/ERC721A.sol\":14157:14545  function safeTransferFrom(... */\n    tag_14:\n      callvalue\n      dup1\n      iszero\n      tag_81\n      jumpi\n      0x00\n      dup1\n      revert\n    tag_81:\n      pop\n      tag_82\n      0x04\n      dup1\n      calldatasize\n      sub\n      dup2\n      add\n      swap1\n      tag_83\n      swap2\n      swap1\n      tag_84\n      jump\t// in\n    tag_83:\n      tag_85\n      jump\t// in\n    tag_82:\n      stop\n        /* \"erc721a/contracts/ERC721A.sol\":11491:11804  function tokenURI(uint256 tokenId) public view virtual override returns (string memory) {... */\n    tag_15:\n      callvalue\n      dup1\n      iszero\n      tag_86\n      jumpi\n      0x00\n      dup1\n      revert\n    tag_86:\n      pop\n      tag_87\n      0x04\n      dup1\n      calldatasize\n      sub\n      dup2\n      add\n      swap1\n      tag_88\n      swap2\n      swap1\n      tag_35\n      jump\t// in\n    tag_88:\n      tag_89\n      jump\t// in\n    tag_87:\n      mload(0x40)\n      tag_90\n      swap2\n      swap1\n      tag_31\n      jump\t// in\n    tag_90:\n      mload(0x40)\n      dup1\n      swap2\n      sub\n      swap1\n      return\n        /* \"erc721a/contracts/ERC721A.sol\":13684:13846  function isApprovedForAll(address owner, address operator) public view virtual override returns (bool) {... */\n    tag_16:\n      callvalue\n      dup1\n      iszero\n      tag_91\n      jumpi\n      0x00\n      dup1\n      revert\n    tag_91:\n      pop\n      tag_92\n      0x04\n      dup1\n      calldatasize\n      sub\n      dup2\n      add\n      swap1\n      tag_93\n      swap2\n      swap1\n      tag_94\n      jump\t// in\n    tag_93:\n      tag_95\n      jump\t// in\n    tag_92:\n      mload(0x40)\n      tag_96\n      swap2\n      swap1\n      tag_26\n      jump\t// in\n    tag_96:\n      mload(0x40)\n      dup1\n      swap2\n      sub\n      swap1\n      return\n        /* \"erc721a/contracts/ERC721A.sol\":5653:6260  function supportsInterface(bytes4 interfaceId) public view virtual override returns (bool) {... */\n    tag_24:\n        /* \"erc721a/contracts/ERC721A.sol\":5738:5742  bool */\n      0x00\n        /* \"erc721a/contracts/ERC721A.sol\":6048:6058  0x01ffc9a7 */\n      0x01ffc9a7\n        /* \"erc721a/contracts/ERC721A.sol\":6033:6058  interfaceId == 0x01ffc9a7 */\n      0xe0\n      shl\n        /* \"erc721a/contracts/ERC721A.sol\":6033:6044  interfaceId */\n      dup3\n        /* \"erc721a/contracts/ERC721A.sol\":6033:6058  interfaceId == 0x01ffc9a7 */\n      not(0xffffffffffffffffffffffffffffffffffffffffffffffffffffffff)\n      and\n      eq\n        /* \"erc721a/contracts/ERC721A.sol\":6033:6134  interfaceId == 0x01ffc9a7 || // ERC165 interface ID for ERC165.... */\n      dup1\n      tag_98\n      jumpi\n      pop\n        /* \"erc721a/contracts/ERC721A.sol\":6124:6134  0x80ac58cd */\n      0x80ac58cd\n        /* \"erc721a/contracts/ERC721A.sol\":6109:6134  interfaceId == 0x80ac58cd */\n      0xe0\n      shl\n        /* \"erc721a/contracts/ERC721A.sol\":6109:6120  interfaceId */\n      dup3\n        /* \"erc721a/contracts/ERC721A.sol\":6109:6134  interfaceId == 0x80ac58cd */\n      not(0xffffffffffffffffffffffffffffffffffffffffffffffffffffffff)\n      and\n      eq\n        /* \"erc721a/contracts/ERC721A.sol\":6033:6134  interfaceId == 0x01ffc9a7 || // ERC165 interface ID for ERC165.... */\n    tag_98:\n        /* \"erc721a/contracts/ERC721A.sol\":6033:6210  interfaceId == 0x01ffc9a7 || // ERC165 interface ID for ERC165.... */\n      dup1\n      tag_99\n      jumpi\n      pop\n        /* \"erc721a/contracts/ERC721A.sol\":6200:6210  0x5b5e139f */\n      0x5b5e139f\n        /* \"erc721a/contracts/ERC721A.sol\":6185:6210  interfaceId == 0x5b5e139f */\n      0xe0\n      shl\n        /* \"erc721a/contracts/ERC721A.sol\":6185:6196  interfaceId */\n      dup3\n        /* \"erc721a/contracts/ERC721A.sol\":6185:6210  interfaceId == 0x5b5e139f */\n      not(0xffffffffffffffffffffffffffffffffffffffffffffffffffffffff)\n      and\n      eq\n        /* \"erc721a/contracts/ERC721A.sol\":6033:6210  interfaceId == 0x01ffc9a7 || // ERC165 interface ID for ERC165.... */\n    tag_99:\n        /* \"erc721a/contracts/ERC721A.sol\":6014:6210  return... */\n      swap1\n      pop\n        /* \"erc721a/contracts/ERC721A.sol\":5653:6260  function supportsInterface(bytes4 interfaceId) public view virtual override returns (bool) {... */\n      swap2\n      swap1\n      pop\n      jump\t// out\n        /* \"erc721a/contracts/ERC721A.sol\":11161:11259  function name() public view virtual override returns (string memory) {... */\n    tag_29:\n        /* \"erc721a/contracts/ERC721A.sol\":11215:11228  string memory */\n      0x60\n        /* \"erc721a/contracts/ERC721A.sol\":11247:11252  _name */\n      0x02\n        /* \"erc721a/contracts/ERC721A.sol\":11240:11252  return _name */\n      dup1\n      sload\n      tag_101\n      swap1\n      tag_102\n      jump\t// in\n    tag_101:\n      dup1\n      0x1f\n      add\n      0x20\n      dup1\n      swap2\n      div\n      mul\n      0x20\n      add\n      mload(0x40)\n      swap1\n      dup2\n      add\n      0x40\n      mstore\n      dup1\n      swap3\n      swap2\n      swap1\n      dup2\n      dup2\n      mstore\n      0x20\n      add\n      dup3\n      dup1\n      sload\n      tag_103\n      swap1\n      tag_102\n      jump\t// in\n    tag_103:\n      dup1\n      iszero\n      tag_104\n      jumpi\n      dup1\n      0x1f\n      lt\n      tag_105\n      jumpi\n      0x0100\n      dup1\n      dup4\n      sload\n      div\n      mul\n      dup4\n      mstore\n      swap2\n      0x20\n      add\n      swap2\n      jump(tag_104)\n    tag_105:\n      dup3\n      add\n      swap2\n      swap1\n      0x00\n      mstore\n      keccak256(0x00, 0x20)\n      swap1\n    tag_106:\n      dup2\n      sload\n      dup2\n      mstore\n      swap1\n      0x01\n      add\n      swap1\n      0x20\n      add\n      dup1\n      dup4\n      gt\n      tag_106\n      jumpi\n      dup3\n      swap1\n      sub\n      0x1f\n      and\n      dup3\n      add\n      swap2\n    tag_104:\n      pop\n      pop\n      pop\n      pop\n      pop\n      swap1\n      pop\n        /* \"erc721a/contracts/ERC721A.sol\":11161:11259  function name() public view virtual override returns (string memory) {... */\n      swap1\n      jump\t// out\n        /* \"erc721a/contracts/ERC721A.sol\":13048:13248  function getApproved(uint256 tokenId) public view override returns (address) {... */\n    tag_36:\n        /* \"erc721a/contracts/ERC721A.sol\":13116:13123  address */\n      0x00\n        /* \"erc721a/contracts/ERC721A.sol\":13140:13156  _exists(tokenId) */\n      tag_108\n        /* \"erc721a/contracts/ERC721A.sol\":13148:13155  tokenId */\n      dup3\n        /* \"erc721a/contracts/ERC721A.sol\":13140:13147  _exists */\n      tag_109\n        /* \"erc721a/contracts/ERC721A.sol\":13140:13156  _exists(tokenId) */\n      jump\t// in\n    tag_108:\n        /* \"erc721a/contracts/ERC721A.sol\":13135:13199  if (!_exists(tokenId)) revert ApprovalQueryForNonexistentToken() */\n      tag_110\n      jumpi\n        /* \"erc721a/contracts/ERC721A.sol\":13165:13199  ApprovalQueryForNonexistentToken() */\n      mload(0x40)\n      0xcf4700e400000000000000000000000000000000000000000000000000000000\n      dup2\n      mstore\n      0x04\n      add\n      mload(0x40)\n      dup1\n      swap2\n      sub\n      swap1\n      revert\n        /* \"erc721a/contracts/ERC721A.sol\":13135:13199  if (!_exists(tokenId)) revert ApprovalQueryForNonexistentToken() */\n    tag_110:\n        /* \"erc721a/contracts/ERC721A.sol\":13217:13232  _tokenApprovals */\n      0x06\n        /* \"erc721a/contracts/ERC721A.sol\":13217:13241  _tokenApprovals[tokenId] */\n      0x00\n        /* \"erc721a/contracts/ERC721A.sol\":13233:13240  tokenId */\n      dup4\n        /* \"erc721a/contracts/ERC721A.sol\":13217:13241  _tokenApprovals[tokenId] */\n      dup2\n      mstore\n      0x20\n      add\n      swap1\n      dup2\n      mstore\n      0x20\n      add\n      0x00\n      keccak256\n      0x00\n      swap1\n      sload\n      swap1\n      0x0100\n      exp\n      swap1\n      div\n      0xffffffffffffffffffffffffffffffffffffffff\n      and\n        /* \"erc721a/contracts/ERC721A.sol\":13210:13241  return _tokenApprovals[tokenId] */\n      swap1\n      pop\n        /* \"erc721a/contracts/ERC721A.sol\":13048:13248  function getApproved(uint256 tokenId) public view override returns (address) {... */\n      swap2\n      swap1\n      pop\n      jump\t// out\n        /* \"erc721a/contracts/ERC721A.sol\":12611:12987  function approve(address to, uint256 tokenId) public override {... */\n    tag_43:\n        /* \"erc721a/contracts/ERC721A.sol\":12683:12696  address owner */\n      0x00\n        /* \"erc721a/contracts/ERC721A.sol\":12699:12715  ownerOf(tokenId) */\n      tag_112\n        /* \"erc721a/contracts/ERC721A.sol\":12707:12714  tokenId */\n      dup3\n        /* \"erc721a/contracts/ERC721A.sol\":12699:12706  ownerOf */\n      tag_61\n        /* \"erc721a/contracts/ERC721A.sol\":12699:12715  ownerOf(tokenId) */\n      jump\t// in\n    tag_112:\n        /* \"erc721a/contracts/ERC721A.sol\":12683:12715  address owner = ownerOf(tokenId) */\n      swap1\n      pop\n        /* \"erc721a/contracts/ERC721A.sol\":12753:12758  owner */\n      dup1\n        /* \"erc721a/contracts/ERC721A.sol\":12730:12758  _msgSenderERC721A() != owner */\n      0xffffffffffffffffffffffffffffffffffffffff\n      and\n        /* \"erc721a/contracts/ERC721A.sol\":12730:12749  _msgSenderERC721A() */\n      tag_113\n        /* \"erc721a/contracts/ERC721A.sol\":12730:12747  _msgSenderERC721A */\n      tag_114\n        /* \"erc721a/contracts/ERC721A.sol\":12730:12749  _msgSenderERC721A() */\n      jump\t// in\n    tag_113:\n        /* \"erc721a/contracts/ERC721A.sol\":12730:12758  _msgSenderERC721A() != owner */\n      0xffffffffffffffffffffffffffffffffffffffff\n      and\n      eq\n        /* \"erc721a/contracts/ERC721A.sol\":12726:12898  if (_msgSenderERC721A() != owner)... */\n      tag_115\n      jumpi\n        /* \"erc721a/contracts/ERC721A.sol\":12777:12821  isApprovedForAll(owner, _msgSenderERC721A()) */\n      tag_116\n        /* \"erc721a/contracts/ERC721A.sol\":12794:12799  owner */\n      dup2\n        /* \"erc721a/contracts/ERC721A.sol\":12801:12820  _msgSenderERC721A() */\n      tag_117\n        /* \"erc721a/contracts/ERC721A.sol\":12801:12818  _msgSenderERC721A */\n      tag_114\n        /* \"erc721a/contracts/ERC721A.sol\":12801:12820  _msgSenderERC721A() */\n      jump\t// in\n    tag_117:\n        /* \"erc721a/contracts/ERC721A.sol\":12777:12793  isApprovedForAll */\n      tag_95\n        /* \"erc721a/contracts/ERC721A.sol\":12777:12821  isApprovedForAll(owner, _msgSenderERC721A()) */\n      jump\t// in\n    tag_116:\n        /* \"erc721a/contracts/ERC721A.sol\":12772:12898  if (!isApprovedForAll(owner, _msgSenderERC721A())) {... */\n      tag_118\n      jumpi\n        /* \"erc721a/contracts/ERC721A.sol\":12848:12883  ApprovalCallerNotOwnerNorApproved() */\n      mload(0x40)\n      0xcfb3b94200000000000000000000000000000000000000000000000000000000\n      dup2\n      mstore\n      0x04\n      add\n      mload(0x40)\n      dup1\n      swap2\n      sub\n      swap1\n      revert\n        /* \"erc721a/contracts/ERC721A.sol\":12772:12898  if (!isApprovedForAll(owner, _msgSenderERC721A())) {... */\n    tag_118:\n        /* \"erc721a/contracts/ERC721A.sol\":12726:12898  if (_msgSenderERC721A() != owner)... */\n    tag_115:\n        /* \"erc721a/contracts/ERC721A.sol\":12935:12937  to */\n      dup3\n        /* \"erc721a/contracts/ERC721A.sol\":12908:12923  _tokenApprovals */\n      0x06\n        /* \"erc721a/contracts/ERC721A.sol\":12908:12932  _tokenApprovals[tokenId] */\n      0x00\n        /* \"erc721a/contracts/ERC721A.sol\":12924:12931  tokenId */\n      dup5\n        /* \"erc721a/contracts/ERC721A.sol\":12908:12932  _tokenApprovals[tokenId] */\n      dup2\n      mstore\n      0x20\n      add\n      swap1\n      dup2\n      mstore\n      0x20\n      add\n      0x00\n      keccak256\n      0x00\n        /* \"erc721a/contracts/ERC721A.sol\":12908:12937  _tokenApprovals[tokenId] = to */\n      0x0100\n      exp\n      dup2\n      sload\n      dup2\n      0xffffffffffffffffffffffffffffffffffffffff\n      mul\n      not\n      and\n      swap1\n      dup4\n      0xffffffffffffffffffffffffffffffffffffffff\n      and\n      mul\n      or\n      swap1\n      sstore\n      pop\n        /* \"erc721a/contracts/ERC721A.sol\":12972:12979  tokenId */\n      dup2\n        /* \"erc721a/contracts/ERC721A.sol\":12968:12970  to */\n      dup4\n        /* \"erc721a/contracts/ERC721A.sol\":12952:12980  Approval(owner, to, tokenId) */\n      0xffffffffffffffffffffffffffffffffffffffff\n      and\n        /* \"erc721a/contracts/ERC721A.sol\":12961:12966  owner */\n      dup3\n        /* \"erc721a/contracts/ERC721A.sol\":12952:12980  Approval(owner, to, tokenId) */\n      0xffffffffffffffffffffffffffffffffffffffff\n      and\n      0x8c5be1e5ebec7d5bd14f71427d1e84f3dd0314c0f7b2291e5b200ac8c7c3b925\n      mload(0x40)\n      mload(0x40)\n      dup1\n      swap2\n      sub\n      swap1\n      log4\n        /* \"erc721a/contracts/ERC721A.sol\":12673:12987  {... */\n      pop\n        /* \"erc721a/contracts/ERC721A.sol\":12611:12987  function approve(address to, uint256 tokenId) public override {... */\n      pop\n      pop\n      jump\t// out\n        /* \"erc721a/contracts/ERC721A.sol\":4736:5045  function totalSupply() public view override returns (uint256) {... */\n    tag_46:\n        /* \"erc721a/contracts/ERC721A.sol\":4789:4796  uint256 */\n      0x00\n        /* \"erc721a/contracts/ERC721A.sol\":5013:5028  _startTokenId() */\n      tag_120\n        /* \"erc721a/contracts/ERC721A.sol\":5013:5026  _startTokenId */\n      tag_121\n        /* \"erc721a/contracts/ERC721A.sol\":5013:5028  _startTokenId() */\n      jump\t// in\n    tag_120:\n        /* \"erc721a/contracts/ERC721A.sol\":4998:5010  _burnCounter */\n      sload(0x01)\n        /* \"erc721a/contracts/ERC721A.sol\":4982:4995  _currentIndex */\n      sload(0x00)\n        /* \"erc721a/contracts/ERC721A.sol\":4982:5010  _currentIndex - _burnCounter */\n      sub\n        /* \"erc721a/contracts/ERC721A.sol\":4982:5028  _currentIndex - _burnCounter - _startTokenId() */\n      sub\n        /* \"erc721a/contracts/ERC721A.sol\":4975:5028  return _currentIndex - _burnCounter - _startTokenId() */\n      swap1\n      pop\n        /* \"erc721a/contracts/ERC721A.sol\":4736:5045  function totalSupply() public view override returns (uint256) {... */\n      swap1\n      jump\t// out\n        /* \"erc721a/contracts/ERC721A.sol\":22055:24794  function transferFrom(... */\n    tag_53:\n        /* \"erc721a/contracts/ERC721A.sol\":22184:22211  uint256 prevOwnershipPacked */\n      0x00\n        /* \"erc721a/contracts/ERC721A.sol\":22214:22241  _packedOwnershipOf(tokenId) */\n      tag_123\n        /* \"erc721a/contracts/ERC721A.sol\":22233:22240  tokenId */\n      dup3\n        /* \"erc721a/contracts/ERC721A.sol\":22214:22232  _packedOwnershipOf */\n      tag_124\n        /* \"erc721a/contracts/ERC721A.sol\":22214:22241  _packedOwnershipOf(tokenId) */\n      jump\t// in\n    tag_123:\n        /* \"erc721a/contracts/ERC721A.sol\":22184:22241  uint256 prevOwnershipPacked = _packedOwnershipOf(tokenId) */\n      swap1\n      pop\n        /* \"erc721a/contracts/ERC721A.sol\":22297:22301  from */\n      dup4\n        /* \"erc721a/contracts/ERC721A.sol\":22256:22301  address(uint160(prevOwnershipPacked)) != from */\n      0xffffffffffffffffffffffffffffffffffffffff\n      and\n        /* \"erc721a/contracts/ERC721A.sol\":22272:22291  prevOwnershipPacked */\n      dup2\n        /* \"erc721a/contracts/ERC721A.sol\":22256:22301  address(uint160(prevOwnershipPacked)) != from */\n      0xffffffffffffffffffffffffffffffffffffffff\n      and\n      eq\n        /* \"erc721a/contracts/ERC721A.sol\":22252:22338  if (address(uint160(prevOwnershipPacked)) != from) revert TransferFromIncorrectOwner() */\n      tag_125\n      jumpi\n        /* \"erc721a/contracts/ERC721A.sol\":22310:22338  TransferFromIncorrectOwner() */\n      mload(0x40)\n      0xa114810000000000000000000000000000000000000000000000000000000000\n      dup2\n      mstore\n      0x04\n      add\n      mload(0x40)\n      dup1\n      swap2\n      sub\n      swap1\n      revert\n        /* \"erc721a/contracts/ERC721A.sol\":22252:22338  if (address(uint160(prevOwnershipPacked)) != from) revert TransferFromIncorrectOwner() */\n    tag_125:\n        /* \"erc721a/contracts/ERC721A.sol\":22350:22377  uint256 approvedAddressSlot */\n      0x00\n        /* \"erc721a/contracts/ERC721A.sol\":22379:22402  address approvedAddress */\n      dup1\n        /* \"erc721a/contracts/ERC721A.sol\":22406:22434  _getApprovedAddress(tokenId) */\n      tag_126\n        /* \"erc721a/contracts/ERC721A.sol\":22426:22433  tokenId */\n      dup5\n        /* \"erc721a/contracts/ERC721A.sol\":22406:22425  _getApprovedAddress */\n      tag_127\n        /* \"erc721a/contracts/ERC721A.sol\":22406:22434  _getApprovedAddress(tokenId) */\n      jump\t// in\n    tag_126:\n        /* \"erc721a/contracts/ERC721A.sol\":22349:22434  (uint256 approvedAddressSlot, address approvedAddress) = _getApprovedAddress(tokenId) */\n      swap2\n      pop\n      swap2\n      pop\n        /* \"erc721a/contracts/ERC721A.sol\":22531:22593  _isOwnerOrApproved(approvedAddress, from, _msgSenderERC721A()) */\n      tag_128\n        /* \"erc721a/contracts/ERC721A.sol\":22550:22565  approvedAddress */\n      dup2\n        /* \"erc721a/contracts/ERC721A.sol\":22567:22571  from */\n      dup8\n        /* \"erc721a/contracts/ERC721A.sol\":22573:22592  _msgSenderERC721A() */\n      tag_129\n        /* \"erc721a/contracts/ERC721A.sol\":22573:22590  _msgSenderERC721A */\n      tag_114\n        /* \"erc721a/contracts/ERC721A.sol\":22573:22592  _msgSenderERC721A() */\n      jump\t// in\n    tag_129:\n        /* \"erc721a/contracts/ERC721A.sol\":22531:22549  _isOwnerOrApproved */\n      tag_130\n        /* \"erc721a/contracts/ERC721A.sol\":22531:22593  _isOwnerOrApproved(approvedAddress, from, _msgSenderERC721A()) */\n      jump\t// in\n    tag_128:\n        /* \"erc721a/contracts/ERC721A.sol\":22526:22699  if (!_isOwnerOrApproved(approvedAddress, from, _msgSenderERC721A()))... */\n      tag_131\n      jumpi\n        /* \"erc721a/contracts/ERC721A.sol\":22612:22655  isApprovedForAll(from, _msgSenderERC721A()) */\n      tag_132\n        /* \"erc721a/contracts/ERC721A.sol\":22629:22633  from */\n      dup7\n        /* \"erc721a/contracts/ERC721A.sol\":22635:22654  _msgSenderERC721A() */\n      tag_133\n        /* \"erc721a/contracts/ERC721A.sol\":22635:22652  _msgSenderERC721A */\n      tag_114\n        /* \"erc721a/contracts/ERC721A.sol\":22635:22654  _msgSenderERC721A() */\n      jump\t// in\n    tag_133:\n        /* \"erc721a/contracts/ERC721A.sol\":22612:22628  isApprovedForAll */\n      tag_95\n        /* \"erc721a/contracts/ERC721A.sol\":22612:22655  isApprovedForAll(from, _msgSenderERC721A()) */\n      jump\t// in\n    tag_132:\n        /* \"erc721a/contracts/ERC721A.sol\":22607:22699  if (!isApprovedForAll(from, _msgSenderERC721A())) revert TransferCallerNotOwnerNorApproved() */\n      tag_134\n      jumpi\n        /* \"erc721a/contracts/ERC721A.sol\":22664:22699  TransferCallerNotOwnerNorApproved() */\n      mload(0x40)\n      0x59c896be00000000000000000000000000000000000000000000000000000000\n      dup2\n      mstore\n      0x04\n      add\n      mload(0x40)\n      dup1\n      swap2\n      sub\n      swap1\n      revert\n        /* \"erc721a/contracts/ERC721A.sol\":22607:22699  if (!isApprovedForAll(from, _msgSenderERC721A())) revert TransferCallerNotOwnerNorApproved() */\n    tag_134:\n        /* \"erc721a/contracts/ERC721A.sol\":22526:22699  if (!_isOwnerOrApproved(approvedAddress, from, _msgSenderERC721A()))... */\n    tag_131:\n        /* \"erc721a/contracts/ERC721A.sol\":22728:22729  0 */\n      0x00\n        /* \"erc721a/contracts/ERC721A.sol\":22714:22730  to == address(0) */\n      0xffffffffffffffffffffffffffffffffffffffff\n      and\n        /* \"erc721a/contracts/ERC721A.sol\":22714:22716  to */\n      dup6\n        /* \"erc721a/contracts/ERC721A.sol\":22714:22730  to == address(0) */\n      0xffffffffffffffffffffffffffffffffffffffff\n      and\n      sub\n        /* \"erc721a/contracts/ERC721A.sol\":22710:22762  if (to == address(0)) revert TransferToZeroAddress() */\n      tag_135\n      jumpi\n        /* \"erc721a/contracts/ERC721A.sol\":22739:22762  TransferToZeroAddress() */\n      mload(0x40)\n      0xea553b3400000000000000000000000000000000000000000000000000000000\n      dup2\n      mstore\n      0x04\n      add\n      mload(0x40)\n      dup1\n      swap2\n      sub\n      swap1\n      revert\n        /* \"erc721a/contracts/ERC721A.sol\":22710:22762  if (to == address(0)) revert TransferToZeroAddress() */\n    tag_135:\n        /* \"erc721a/contracts/ERC721A.sol\":22773:22816  _beforeTokenTransfers(from, to, tokenId, 1) */\n      tag_136\n        /* \"erc721a/contracts/ERC721A.sol\":22795:22799  from */\n      dup7\n        /* \"erc721a/contracts/ERC721A.sol\":22801:22803  to */\n      dup7\n        /* \"erc721a/contracts/ERC721A.sol\":22805:22812  tokenId */\n      dup7\n        /* \"erc721a/contracts/ERC721A.sol\":22814:22815  1 */\n      0x01\n        /* \"erc721a/contracts/ERC721A.sol\":22773:22794  _beforeTokenTransfers */\n      tag_137\n        /* \"erc721a/contracts/ERC721A.sol\":22773:22816  _beforeTokenTransfers(from, to, tokenId, 1) */\n      jump\t// in\n    tag_136:\n        /* \"erc721a/contracts/ERC721A.sol\":22905:22920  approvedAddress */\n      dup1\n        /* \"erc721a/contracts/ERC721A.sol\":22902:23059  if approvedAddress {... */\n      iszero\n      tag_138\n      jumpi\n        /* \"erc721a/contracts/ERC721A.sol\":23043:23044  0 */\n      0x00\n        /* \"erc721a/contracts/ERC721A.sol\":23022:23041  approvedAddressSlot */\n      dup3\n        /* \"erc721a/contracts/ERC721A.sol\":23015:23045  sstore(approvedAddressSlot, 0) */\n      sstore\n        /* \"erc721a/contracts/ERC721A.sol\":22902:23059  if approvedAddress {... */\n    tag_138:\n        /* \"erc721a/contracts/ERC721A.sol\":23429:23447  _packedAddressData */\n      0x05\n        /* \"erc721a/contracts/ERC721A.sol\":23429:23453  _packedAddressData[from] */\n      0x00\n        /* \"erc721a/contracts/ERC721A.sol\":23448:23452  from */\n      dup8\n        /* \"erc721a/contracts/ERC721A.sol\":23429:23453  _packedAddressData[from] */\n      0xffffffffffffffffffffffffffffffffffffffff\n      and\n      0xffffffffffffffffffffffffffffffffffffffff\n      and\n      dup2\n      mstore\n      0x20\n      add\n      swap1\n      dup2\n      mstore\n      0x20\n      add\n      0x00\n      keccak256\n      0x00\n        /* \"erc721a/contracts/ERC721A.sol\":23427:23453  --_packedAddressData[from] */\n      dup2\n      sload\n      0x01\n      swap1\n      sub\n      swap2\n      swap1\n      pop\n      dup2\n      swap1\n      sstore\n      pop\n        /* \"erc721a/contracts/ERC721A.sol\":23497:23515  _packedAddressData */\n      0x05\n        /* \"erc721a/contracts/ERC721A.sol\":23497:23519  _packedAddressData[to] */\n      0x00\n        /* \"erc721a/contracts/ERC721A.sol\":23516:23518  to */\n      dup7\n        /* \"erc721a/contracts/ERC721A.sol\":23497:23519  _packedAddressData[to] */\n      0xffffffffffffffffffffffffffffffffffffffff\n      and\n      0xffffffffffffffffffffffffffffffffffffffff\n      and\n      dup2\n      mstore\n      0x20\n      add\n      swap1\n      dup2\n      mstore\n      0x20\n      add\n      0x00\n      keccak256\n      0x00\n        /* \"erc721a/contracts/ERC721A.sol\":23495:23519  ++_packedAddressData[to] */\n      dup2\n      sload\n      0x01\n      add\n      swap2\n      swap1\n      pop\n      dup2\n      swap1\n      sstore\n      pop\n        /* \"erc721a/contracts/ERC721A.sol\":23812:23954  _packOwnershipData(... */\n      tag_139\n        /* \"erc721a/contracts/ERC721A.sol\":23848:23850  to */\n      dup6\n        /* \"erc721a/contracts/ERC721A.sol\":23895:23940  _nextExtraData(from, to, prevOwnershipPacked) */\n      tag_140\n        /* \"erc721a/contracts/ERC721A.sol\":23910:23914  from */\n      dup9\n        /* \"erc721a/contracts/ERC721A.sol\":23916:23918  to */\n      dup9\n        /* \"erc721a/contracts/ERC721A.sol\":23920:23939  prevOwnershipPacked */\n      dup8\n        /* \"erc721a/contracts/ERC721A.sol\":23895:23909  _nextExtraData */\n      tag_141\n        /* \"erc721a/contracts/ERC721A.sol\":23895:23940  _nextExtraData(from, to, prevOwnershipPacked) */\n      jump\t// in\n    tag_140:\n        /* \"erc721a/contracts/ERC721A.sol\":2046:2054  1 << 225 */\n      0x0200000000000000000000000000000000000000000000000000000000\n        /* \"erc721a/contracts/ERC721A.sol\":23868:23940  BITMASK_NEXT_INITIALIZED | _nextExtraData(from, to, prevOwnershipPacked) */\n      or\n        /* \"erc721a/contracts/ERC721A.sol\":23812:23830  _packOwnershipData */\n      tag_142\n        /* \"erc721a/contracts/ERC721A.sol\":23812:23954  _packOwnershipData(... */\n      jump\t// in\n    tag_139:\n        /* \"erc721a/contracts/ERC721A.sol\":23783:23800  _packedOwnerships */\n      0x04\n        /* \"erc721a/contracts/ERC721A.sol\":23783:23809  _packedOwnerships[tokenId] */\n      0x00\n        /* \"erc721a/contracts/ERC721A.sol\":23801:23808  tokenId */\n      dup7\n        /* \"erc721a/contracts/ERC721A.sol\":23783:23809  _packedOwnerships[tokenId] */\n      dup2\n      mstore\n      0x20\n      add\n      swap1\n      dup2\n      mstore\n      0x20\n      add\n      0x00\n      keccak256\n        /* \"erc721a/contracts/ERC721A.sol\":23783:23954  _packedOwnerships[tokenId] = _packOwnershipData(... */\n      dup2\n      swap1\n      sstore\n      pop\n        /* \"erc721a/contracts/ERC721A.sol\":24121:24122  0 */\n      0x00\n        /* \"erc721a/contracts/ERC721A.sol\":2046:2054  1 << 225 */\n      0x0200000000000000000000000000000000000000000000000000000000\n        /* \"erc721a/contracts/ERC721A.sol\":24071:24090  prevOwnershipPacked */\n      dup5\n        /* \"erc721a/contracts/ERC721A.sol\":24071:24117  prevOwnershipPacked & BITMASK_NEXT_INITIALIZED */\n      and\n        /* \"erc721a/contracts/ERC721A.sol\":24071:24122  prevOwnershipPacked & BITMASK_NEXT_INITIALIZED == 0 */\n      sub\n        /* \"erc721a/contracts/ERC721A.sol\":24067:24683  if (prevOwnershipPacked & BITMASK_NEXT_INITIALIZED == 0) {... */\n      tag_143\n      jumpi\n        /* \"erc721a/contracts/ERC721A.sol\":24142:24161  uint256 nextTokenId */\n      0x00\n        /* \"erc721a/contracts/ERC721A.sol\":24174:24175  1 */\n      0x01\n        /* \"erc721a/contracts/ERC721A.sol\":24164:24171  tokenId */\n      dup6\n        /* \"erc721a/contracts/ERC721A.sol\":24164:24175  tokenId + 1 */\n      add\n        /* \"erc721a/contracts/ERC721A.sol\":24142:24175  uint256 nextTokenId = tokenId + 1 */\n      swap1\n      pop\n        /* \"erc721a/contracts/ERC721A.sol\":24329:24330  0 */\n      0x00\n        /* \"erc721a/contracts/ERC721A.sol\":24295:24312  _packedOwnerships */\n      0x04\n        /* \"erc721a/contracts/ERC721A.sol\":24295:24325  _packedOwnerships[nextTokenId] */\n      0x00\n        /* \"erc721a/contracts/ERC721A.sol\":24313:24324  nextTokenId */\n      dup4\n        /* \"erc721a/contracts/ERC721A.sol\":24295:24325  _packedOwnerships[nextTokenId] */\n      dup2\n      mstore\n      0x20\n      add\n      swap1\n      dup2\n      mstore\n      0x20\n      add\n      0x00\n      keccak256\n      sload\n        /* \"erc721a/contracts/ERC721A.sol\":24295:24330  _packedOwnerships[nextTokenId] == 0 */\n      sub\n        /* \"erc721a/contracts/ERC721A.sol\":24291:24669  if (_packedOwnerships[nextTokenId] == 0) {... */\n      tag_144\n      jumpi\n        /* \"erc721a/contracts/ERC721A.sol\":24431:24444  _currentIndex */\n      sload(0x00)\n        /* \"erc721a/contracts/ERC721A.sol\":24416:24427  nextTokenId */\n      dup2\n        /* \"erc721a/contracts/ERC721A.sol\":24416:24444  nextTokenId != _currentIndex */\n      eq\n        /* \"erc721a/contracts/ERC721A.sol\":24412:24651  if (nextTokenId != _currentIndex) {... */\n      tag_145\n      jumpi\n        /* \"erc721a/contracts/ERC721A.sol\":24609:24628  prevOwnershipPacked */\n      dup4\n        /* \"erc721a/contracts/ERC721A.sol\":24576:24593  _packedOwnerships */\n      0x04\n        /* \"erc721a/contracts/ERC721A.sol\":24576:24606  _packedOwnerships[nextTokenId] */\n      0x00\n        /* \"erc721a/contracts/ERC721A.sol\":24594:24605  nextTokenId */\n      dup4\n        /* \"erc721a/contracts/ERC721A.sol\":24576:24606  _packedOwnerships[nextTokenId] */\n      dup2\n      mstore\n      0x20\n      add\n      swap1\n      dup2\n      mstore\n      0x20\n      add\n      0x00\n      keccak256\n        /* \"erc721a/contracts/ERC721A.sol\":24576:24628  _packedOwnerships[nextTokenId] = prevOwnershipPacked */\n      dup2\n      swap1\n      sstore\n      pop\n        /* \"erc721a/contracts/ERC721A.sol\":24412:24651  if (nextTokenId != _currentIndex) {... */\n    tag_145:\n        /* \"erc721a/contracts/ERC721A.sol\":24291:24669  if (_packedOwnerships[nextTokenId] == 0) {... */\n    tag_144:\n        /* \"erc721a/contracts/ERC721A.sol\":24124:24683  {... */\n      pop\n        /* \"erc721a/contracts/ERC721A.sol\":24067:24683  if (prevOwnershipPacked & BITMASK_NEXT_INITIALIZED == 0) {... */\n    tag_143:\n        /* \"erc721a/contracts/ERC721A.sol\":24727:24734  tokenId */\n      dup4\n        /* \"erc721a/contracts/ERC721A.sol\":24723:24725  to */\n      dup6\n        /* \"erc721a/contracts/ERC721A.sol\":24708:24735  Transfer(from, to, tokenId) */\n      0xffffffffffffffffffffffffffffffffffffffff\n      and\n        /* \"erc721a/contracts/ERC721A.sol\":24717:24721  from */\n      dup8\n        /* \"erc721a/contracts/ERC721A.sol\":24708:24735  Transfer(from, to, tokenId) */\n      0xffffffffffffffffffffffffffffffffffffffff\n      and\n      0xddf252ad1be2c89b69c2b068fc378daa952ba7f163c4a11628f55a4df523b3ef\n      mload(0x40)\n      mload(0x40)\n      dup1\n      swap2\n      sub\n      swap1\n      log4\n        /* \"erc721a/contracts/ERC721A.sol\":24745:24787  _afterTokenTransfers(from, to, tokenId, 1) */\n      tag_146\n        /* \"erc721a/contracts/ERC721A.sol\":24766:24770  from */\n      dup7\n        /* \"erc721a/contracts/ERC721A.sol\":24772:24774  to */\n      dup7\n        /* \"erc721a/contracts/ERC721A.sol\":24776:24783  tokenId */\n      dup7\n        /* \"erc721a/contracts/ERC721A.sol\":24785:24786  1 */\n      0x01\n        /* \"erc721a/contracts/ERC721A.sol\":24745:24765  _afterTokenTransfers */\n      tag_147\n        /* \"erc721a/contracts/ERC721A.sol\":24745:24787  _afterTokenTransfers(from, to, tokenId, 1) */\n      jump\t// in\n    tag_146:\n        /* \"erc721a/contracts/ERC721A.sol\":22174:24794  {... */\n      pop\n      pop\n      pop\n        /* \"erc721a/contracts/ERC721A.sol\":22055:24794  function transferFrom(... */\n      pop\n      pop\n      pop\n      jump\t// out\n        /* \"erc721a/contracts/ERC721A.sol\":13912:14091  function safeTransferFrom(... */\n    tag_57:\n        /* \"erc721a/contracts/ERC721A.sol\":14045:14084  safeTransferFrom(from, to, tokenId, '') */\n      tag_149\n        /* \"erc721a/contracts/ERC721A.sol\":14062:14066  from */\n      dup4\n        /* \"erc721a/contracts/ERC721A.sol\":14068:14070  to */\n      dup4\n        /* \"erc721a/contracts/ERC721A.sol\":14072:14079  tokenId */\n      dup4\n        /* \"erc721a/contracts/ERC721A.sol\":14045:14084  safeTransferFrom(from, to, tokenId, '') */\n      mload(0x40)\n      dup1\n      0x20\n      add\n      0x40\n      mstore\n      dup1\n      0x00\n      dup2\n      mstore\n      pop\n        /* \"erc721a/contracts/ERC721A.sol\":14045:14061  safeTransferFrom */\n      tag_85\n        /* \"erc721a/contracts/ERC721A.sol\":14045:14084  safeTransferFrom(from, to, tokenId, '') */\n      jump\t// in\n    tag_149:\n        /* \"erc721a/contracts/ERC721A.sol\":13912:14091  function safeTransferFrom(... */\n      pop\n      pop\n      pop\n      jump\t// out\n        /* \"erc721a/contracts/ERC721A.sol\":10957:11099  function ownerOf(uint256 tokenId) public view override returns (address) {... */\n    tag_61:\n        /* \"erc721a/contracts/ERC721A.sol\":11021:11028  address */\n      0x00\n        /* \"erc721a/contracts/ERC721A.sol\":11063:11090  _packedOwnershipOf(tokenId) */\n      tag_151\n        /* \"erc721a/contracts/ERC721A.sol\":11082:11089  tokenId */\n      dup3\n        /* \"erc721a/contracts/ERC721A.sol\":11063:11081  _packedOwnershipOf */\n      tag_124\n        /* \"erc721a/contracts/ERC721A.sol\":11063:11090  _packedOwnershipOf(tokenId) */\n      jump\t// in\n    tag_151:\n        /* \"erc721a/contracts/ERC721A.sol\":11040:11092  return address(uint160(_packedOwnershipOf(tokenId))) */\n      swap1\n      pop\n        /* \"erc721a/contracts/ERC721A.sol\":10957:11099  function ownerOf(uint256 tokenId) public view override returns (address) {... */\n      swap2\n      swap1\n      pop\n      jump\t// out\n        /* \"erc721a/contracts/ERC721A.sol\":6319:6540  function balanceOf(address owner) public view override returns (uint256) {... */\n    tag_67:\n        /* \"erc721a/contracts/ERC721A.sol\":6383:6390  uint256 */\n      0x00\n        /* \"erc721a/contracts/ERC721A.sol\":6423:6424  0 */\n      dup1\n        /* \"erc721a/contracts/ERC721A.sol\":6406:6425  owner == address(0) */\n      0xffffffffffffffffffffffffffffffffffffffff\n      and\n        /* \"erc721a/contracts/ERC721A.sol\":6406:6411  owner */\n      dup3\n        /* \"erc721a/contracts/ERC721A.sol\":6406:6425  owner == address(0) */\n      0xffffffffffffffffffffffffffffffffffffffff\n      and\n      sub\n        /* \"erc721a/contracts/ERC721A.sol\":6402:6462  if (owner == address(0)) revert BalanceQueryForZeroAddress() */\n      tag_153\n      jumpi\n        /* \"erc721a/contracts/ERC721A.sol\":6434:6462  BalanceQueryForZeroAddress() */\n      mload(0x40)\n      0x8f4eb60400000000000000000000000000000000000000000000000000000000\n      dup2\n      mstore\n      0x04\n      add\n      mload(0x40)\n      dup1\n      swap2\n      sub\n      swap1\n      revert\n        /* \"erc721a/contracts/ERC721A.sol\":6402:6462  if (owner == address(0)) revert BalanceQueryForZeroAddress() */\n    tag_153:\n        /* \"erc721a/contracts/ERC721A.sol\":1022:1035  (1 << 64) - 1 */\n      0xffffffffffffffff\n        /* \"erc721a/contracts/ERC721A.sol\":6479:6497  _packedAddressData */\n      0x05\n        /* \"erc721a/contracts/ERC721A.sol\":6479:6504  _packedAddressData[owner] */\n      0x00\n        /* \"erc721a/contracts/ERC721A.sol\":6498:6503  owner */\n      dup5\n        /* \"erc721a/contracts/ERC721A.sol\":6479:6504  _packedAddressData[owner] */\n      0xffffffffffffffffffffffffffffffffffffffff\n      and\n      0xffffffffffffffffffffffffffffffffffffffff\n      and\n      dup2\n      mstore\n      0x20\n      add\n      swap1\n      dup2\n      mstore\n      0x20\n      add\n      0x00\n      keccak256\n      sload\n        /* \"erc721a/contracts/ERC721A.sol\":6479:6533  _packedAddressData[owner] & BITMASK_ADDRESS_DATA_ENTRY */\n      and\n        /* \"erc721a/contracts/ERC721A.sol\":6472:6533  return _packedAddressData[owner] & BITMASK_ADDRESS_DATA_ENTRY */\n      swap1\n      pop\n        /* \"erc721a/contracts/ERC721A.sol\":6319:6540  function balanceOf(address owner) public view override returns (uint256) {... */\n      swap2\n      swap1\n      pop\n      jump\t// out\n        /* \"erc721a/contracts/ERC721A.sol\":11323:11425  function symbol() public view virtual override returns (string memory) {... */\n    tag_71:\n        /* \"erc721a/contracts/ERC721A.sol\":11379:11392  string memory */\n      0x60\n        /* \"erc721a/contracts/ERC721A.sol\":11411:11418  _symbol */\n      0x03\n        /* \"erc721a/contracts/ERC721A.sol\":11404:11418  return _symbol */\n      dup1\n      sload\n      tag_155\n      swap1\n      tag_102\n      jump\t// in\n    tag_155:\n      dup1\n      0x1f\n      add\n      0x20\n      dup1\n      swap2\n      div\n      mul\n      0x20\n      add\n      mload(0x40)\n      swap1\n      dup2\n      add\n      0x40\n      mstore\n      dup1\n      swap3\n      swap2\n      swap1\n      dup2\n      dup2\n      mstore\n      0x20\n      add\n      dup3\n      dup1\n      sload\n      tag_156\n      swap1\n      tag_102\n      jump\t// in\n    tag_156:\n      dup1\n      iszero\n      tag_157\n      jumpi\n      dup1\n      0x1f\n      lt\n      tag_158\n      jumpi\n      0x0100\n      dup1\n      dup4\n      sload\n      div\n      mul\n      dup4\n      mstore\n      swap2\n      0x20\n      add\n      swap2\n      jump(tag_157)\n    tag_158:\n      dup3\n      add\n      swap2\n      swap1\n      0x00\n      mstore\n      keccak256(0x00, 0x20)\n      swap1\n    tag_159:\n      dup2\n      sload\n      dup2\n      mstore\n      swap1\n      0x01\n      add\n      swap1\n      0x20\n      add\n      dup1\n      dup4\n      gt\n      tag_159\n      jumpi\n      dup3\n      swap1\n      sub\n      0x1f\n      and\n      dup3\n      add\n      swap2\n    tag_157:\n      pop\n      pop\n      pop\n      pop\n      pop\n      swap1\n      pop\n        /* \"erc721a/contracts/ERC721A.sol\":11323:11425  function symbol() public view virtual override returns (string memory) {... */\n      swap1\n      jump\t// out\n        /* \"Day50_ERC721A.sol\":142:308  function mint(uint256 quantity) external payable {... */\n    tag_75:\n        /* \"Day50_ERC721A.sol\":272:303  _safeMint(msg.sender, quantity) */\n      tag_161\n        /* \"Day50_ERC721A.sol\":282:292  msg.sender */\n      caller\n        /* \"Day50_ERC721A.sol\":294:302  quantity */\n      dup3\n        /* \"Day50_ERC721A.sol\":272:281  _safeMint */\n      tag_162\n        /* \"Day50_ERC721A.sol\":272:303  _safeMint(msg.sender, quantity) */\n      jump\t// in\n    tag_161:\n        /* \"Day50_ERC721A.sol\":142:308  function mint(uint256 quantity) external payable {... */\n      pop\n      jump\t// out\n        /* \"erc721a/contracts/ERC721A.sol\":13315:13618  function setApprovalForAll(address operator, bool approved) public virtual override {... */\n    tag_80:\n        /* \"erc721a/contracts/ERC721A.sol\":13425:13444  _msgSenderERC721A() */\n      tag_164\n        /* \"erc721a/contracts/ERC721A.sol\":13425:13442  _msgSenderERC721A */\n      tag_114\n        /* \"erc721a/contracts/ERC721A.sol\":13425:13444  _msgSenderERC721A() */\n      jump\t// in\n    tag_164:\n        /* \"erc721a/contracts/ERC721A.sol\":13413:13444  operator == _msgSenderERC721A() */\n      0xffffffffffffffffffffffffffffffffffffffff\n      and\n        /* \"erc721a/contracts/ERC721A.sol\":13413:13421  operator */\n      dup3\n        /* \"erc721a/contracts/ERC721A.sol\":13413:13444  operator == _msgSenderERC721A() */\n      0xffffffffffffffffffffffffffffffffffffffff\n      and\n      sub\n        /* \"erc721a/contracts/ERC721A.sol\":13409:13470  if (operator == _msgSenderERC721A()) revert ApproveToCaller() */\n      tag_165\n      jumpi\n        /* \"erc721a/contracts/ERC721A.sol\":13453:13470  ApproveToCaller() */\n      mload(0x40)\n      0xb06307db00000000000000000000000000000000000000000000000000000000\n      dup2\n      mstore\n      0x04\n      add\n      mload(0x40)\n      dup1\n      swap2\n      sub\n      swap1\n      revert\n        /* \"erc721a/contracts/ERC721A.sol\":13409:13470  if (operator == _msgSenderERC721A()) revert ApproveToCaller() */\n    tag_165:\n        /* \"erc721a/contracts/ERC721A.sol\":13533:13541  approved */\n      dup1\n        /* \"erc721a/contracts/ERC721A.sol\":13481:13499  _operatorApprovals */\n      0x07\n        /* \"erc721a/contracts/ERC721A.sol\":13481:13520  _operatorApprovals[_msgSenderERC721A()] */\n      0x00\n        /* \"erc721a/contracts/ERC721A.sol\":13500:13519  _msgSenderERC721A() */\n      tag_166\n        /* \"erc721a/contracts/ERC721A.sol\":13500:13517  _msgSenderERC721A */\n      tag_114\n        /* \"erc721a/contracts/ERC721A.sol\":13500:13519  _msgSenderERC721A() */\n      jump\t// in\n    tag_166:\n        /* \"erc721a/contracts/ERC721A.sol\":13481:13520  _operatorApprovals[_msgSenderERC721A()] */\n      0xffffffffffffffffffffffffffffffffffffffff\n      and\n      0xffffffffffffffffffffffffffffffffffffffff\n      and\n      dup2\n      mstore\n      0x20\n      add\n      swap1\n      dup2\n      mstore\n      0x20\n      add\n      0x00\n      keccak256\n        /* \"erc721a/contracts/ERC721A.sol\":13481:13530  _operatorApprovals[_msgSenderERC721A()][operator] */\n      0x00\n        /* \"erc721a/contracts/ERC721A.sol\":13521:13529  operator */\n      dup5\n        /* \"erc721a/contracts/ERC721A.sol\":13481:13530  _operatorApprovals[_msgSenderERC721A()][operator] */\n      0xffffffffffffffffffffffffffffffffffffffff\n      and\n      0xffffffffffffffffffffffffffffffffffffffff\n      and\n      dup2\n      mstore\n      0x20\n      add\n      swap1\n      dup2\n      mstore\n      0x20\n      add\n      0x00\n      keccak256\n      0x00\n        /* \"erc721a/contracts/ERC721A.sol\":13481:13541  _operatorApprovals[_msgSenderERC721A()][operator] = approved */\n      0x0100\n      exp\n      dup2\n      sload\n      dup2\n      0xff\n      mul\n      not\n      and\n      swap1\n      dup4\n      iszero\n      iszero\n      mul\n      or\n      swap1\n      sstore\n      pop\n        /* \"erc721a/contracts/ERC721A.sol\":13592:13600  operator */\n      dup2\n        /* \"erc721a/contracts/ERC721A.sol\":13556:13611  ApprovalForAll(_msgSenderERC721A(), operator, approved) */\n      0xffffffffffffffffffffffffffffffffffffffff\n      and\n        /* \"erc721a/contracts/ERC721A.sol\":13571:13590  _msgSenderERC721A() */\n      tag_167\n        /* \"erc721a/contracts/ERC721A.sol\":13571:13588  _msgSenderERC721A */\n      tag_114\n        /* \"erc721a/contracts/ERC721A.sol\":13571:13590  _msgSenderERC721A() */\n      jump\t// in\n    tag_167:\n        /* \"erc721a/contracts/ERC721A.sol\":13556:13611  ApprovalForAll(_msgSenderERC721A(), operator, approved) */\n      0xffffffffffffffffffffffffffffffffffffffff\n      and\n      0x17307eab39ab6107e8899845ad3d59bd9653f200f220920489ca2b5937696c31\n        /* \"erc721a/contracts/ERC721A.sol\":13602:13610  approved */\n      dup4\n        /* \"erc721a/contracts/ERC721A.sol\":13556:13611  ApprovalForAll(_msgSenderERC721A(), operator, approved) */\n      mload(0x40)\n      tag_168\n      swap2\n      swap1\n      tag_26\n      jump\t// in\n    tag_168:\n      mload(0x40)\n      dup1\n      swap2\n      sub\n      swap1\n      log3\n        /* \"erc721a/contracts/ERC721A.sol\":13315:13618  function setApprovalForAll(address operator, bool approved) public virtual override {... */\n      pop\n      pop\n      jump\t// out\n        /* \"erc721a/contracts/ERC721A.sol\":14157:14545  function safeTransferFrom(... */\n    tag_85:\n        /* \"erc721a/contracts/ERC721A.sol\":14318:14349  transferFrom(from, to, tokenId) */\n      tag_170\n        /* \"erc721a/contracts/ERC721A.sol\":14331:14335  from */\n      dup5\n        /* \"erc721a/contracts/ERC721A.sol\":14337:14339  to */\n      dup5\n        /* \"erc721a/contracts/ERC721A.sol\":14341:14348  tokenId */\n      dup5\n        /* \"erc721a/contracts/ERC721A.sol\":14318:14330  transferFrom */\n      tag_53\n        /* \"erc721a/contracts/ERC721A.sol\":14318:14349  transferFrom(from, to, tokenId) */\n      jump\t// in\n    tag_170:\n        /* \"erc721a/contracts/ERC721A.sol\":14381:14382  0 */\n      0x00\n        /* \"erc721a/contracts/ERC721A.sol\":14363:14365  to */\n      dup4\n        /* \"erc721a/contracts/ERC721A.sol\":14363:14377  to.code.length */\n      0xffffffffffffffffffffffffffffffffffffffff\n      and\n      extcodesize\n        /* \"erc721a/contracts/ERC721A.sol\":14363:14382  to.code.length != 0 */\n      eq\n        /* \"erc721a/contracts/ERC721A.sol\":14359:14539  if (to.code.length != 0)... */\n      tag_171\n      jumpi\n        /* \"erc721a/contracts/ERC721A.sol\":14401:14457  _checkContractOnERC721Received(from, to, tokenId, _data) */\n      tag_172\n        /* \"erc721a/contracts/ERC721A.sol\":14432:14436  from */\n      dup5\n        /* \"erc721a/contracts/ERC721A.sol\":14438:14440  to */\n      dup5\n        /* \"erc721a/contracts/ERC721A.sol\":14442:14449  tokenId */\n      dup5\n        /* \"erc721a/contracts/ERC721A.sol\":14451:14456  _data */\n      dup5\n        /* \"erc721a/contracts/ERC721A.sol\":14401:14431  _checkContractOnERC721Received */\n      tag_173\n        /* \"erc721a/contracts/ERC721A.sol\":14401:14457  _checkContractOnERC721Received(from, to, tokenId, _data) */\n      jump\t// in\n    tag_172:\n        /* \"erc721a/contracts/ERC721A.sol\":14396:14539  if (!_checkContractOnERC721Received(from, to, tokenId, _data)) {... */\n      tag_174\n      jumpi\n        /* \"erc721a/contracts/ERC721A.sol\":14484:14524  TransferToNonERC721ReceiverImplementer() */\n      mload(0x40)\n      0xd1a57ed600000000000000000000000000000000000000000000000000000000\n      dup2\n      mstore\n      0x04\n      add\n      mload(0x40)\n      dup1\n      swap2\n      sub\n      swap1\n      revert\n        /* \"erc721a/contracts/ERC721A.sol\":14396:14539  if (!_checkContractOnERC721Received(from, to, tokenId, _data)) {... */\n    tag_174:\n        /* \"erc721a/contracts/ERC721A.sol\":14359:14539  if (to.code.length != 0)... */\n    tag_171:\n        /* \"erc721a/contracts/ERC721A.sol\":14157:14545  function safeTransferFrom(... */\n      pop\n      pop\n      pop\n      pop\n      jump\t// out\n        /* \"erc721a/contracts/ERC721A.sol\":11491:11804  function tokenURI(uint256 tokenId) public view virtual override returns (string memory) {... */\n    tag_89:\n        /* \"erc721a/contracts/ERC721A.sol\":11564:11577  string memory */\n      0x60\n        /* \"erc721a/contracts/ERC721A.sol\":11594:11610  _exists(tokenId) */\n      tag_176\n        /* \"erc721a/contracts/ERC721A.sol\":11602:11609  tokenId */\n      dup3\n        /* \"erc721a/contracts/ERC721A.sol\":11594:11601  _exists */\n      tag_109\n        /* \"erc721a/contracts/ERC721A.sol\":11594:11610  _exists(tokenId) */\n      jump\t// in\n    tag_176:\n        /* \"erc721a/contracts/ERC721A.sol\":11589:11648  if (!_exists(tokenId)) revert URIQueryForNonexistentToken() */\n      tag_177\n      jumpi\n        /* \"erc721a/contracts/ERC721A.sol\":11619:11648  URIQueryForNonexistentToken() */\n      mload(0x40)\n      0xa14c4b5000000000000000000000000000000000000000000000000000000000\n      dup2\n      mstore\n      0x04\n      add\n      mload(0x40)\n      dup1\n      swap2\n      sub\n      swap1\n      revert\n        /* \"erc721a/contracts/ERC721A.sol\":11589:11648  if (!_exists(tokenId)) revert URIQueryForNonexistentToken() */\n    tag_177:\n        /* \"erc721a/contracts/ERC721A.sol\":11659:11680  string memory baseURI */\n      0x00\n        /* \"erc721a/contracts/ERC721A.sol\":11683:11693  _baseURI() */\n      tag_178\n        /* \"erc721a/contracts/ERC721A.sol\":11683:11691  _baseURI */\n      tag_179\n        /* \"erc721a/contracts/ERC721A.sol\":11683:11693  _baseURI() */\n      jump\t// in\n    tag_178:\n        /* \"erc721a/contracts/ERC721A.sol\":11659:11693  string memory baseURI = _baseURI() */\n      swap1\n      pop\n        /* \"erc721a/contracts/ERC721A.sol\":11735:11736  0 */\n      0x00\n        /* \"erc721a/contracts/ERC721A.sol\":11716:11723  baseURI */\n      dup2\n        /* \"erc721a/contracts/ERC721A.sol\":11710:11731  bytes(baseURI).length */\n      mload\n        /* \"erc721a/contracts/ERC721A.sol\":11710:11736  bytes(baseURI).length != 0 */\n      sub\n        /* \"erc721a/contracts/ERC721A.sol\":11710:11797  bytes(baseURI).length != 0 ? string(abi.encodePacked(baseURI, _toString(tokenId))) : '' */\n      tag_180\n      jumpi\n      mload(0x40)\n      dup1\n      0x20\n      add\n      0x40\n      mstore\n      dup1\n      0x00\n      dup2\n      mstore\n      pop\n      jump(tag_181)\n    tag_180:\n        /* \"erc721a/contracts/ERC721A.sol\":11763:11770  baseURI */\n      dup1\n        /* \"erc721a/contracts/ERC721A.sol\":11772:11790  _toString(tokenId) */\n      tag_182\n        /* \"erc721a/contracts/ERC721A.sol\":11782:11789  tokenId */\n      dup5\n        /* \"erc721a/contracts/ERC721A.sol\":11772:11781  _toString */\n      tag_183\n        /* \"erc721a/contracts/ERC721A.sol\":11772:11790  _toString(tokenId) */\n      jump\t// in\n    tag_182:\n        /* \"erc721a/contracts/ERC721A.sol\":11746:11791  abi.encodePacked(baseURI, _toString(tokenId)) */\n      add(0x20, mload(0x40))\n      tag_184\n      swap3\n      swap2\n      swap1\n      tag_185\n      jump\t// in\n    tag_184:\n      mload(0x40)\n      0x20\n      dup2\n      dup4\n      sub\n      sub\n      dup2\n      mstore\n      swap1\n      0x40\n      mstore\n        /* \"erc721a/contracts/ERC721A.sol\":11710:11797  bytes(baseURI).length != 0 ? string(abi.encodePacked(baseURI, _toString(tokenId))) : '' */\n    tag_181:\n        /* \"erc721a/contracts/ERC721A.sol\":11703:11797  return bytes(baseURI).length != 0 ? string(abi.encodePacked(baseURI, _toString(tokenId))) : '' */\n      swap2\n      pop\n      pop\n        /* \"erc721a/contracts/ERC721A.sol\":11491:11804  function tokenURI(uint256 tokenId) public view virtual override returns (string memory) {... */\n      swap2\n      swap1\n      pop\n      jump\t// out\n        /* \"erc721a/contracts/ERC721A.sol\":13684:13846  function isApprovedForAll(address owner, address operator) public view virtual override returns (bool) {... */\n    tag_95:\n        /* \"erc721a/contracts/ERC721A.sol\":13781:13785  bool */\n      0x00\n        /* \"erc721a/contracts/ERC721A.sol\":13804:13822  _operatorApprovals */\n      0x07\n        /* \"erc721a/contracts/ERC721A.sol\":13804:13829  _operatorApprovals[owner] */\n      0x00\n        /* \"erc721a/contracts/ERC721A.sol\":13823:13828  owner */\n      dup5\n        /* \"erc721a/contracts/ERC721A.sol\":13804:13829  _operatorApprovals[owner] */\n      0xffffffffffffffffffffffffffffffffffffffff\n      and\n      0xffffffffffffffffffffffffffffffffffffffff\n      and\n      dup2\n      mstore\n      0x20\n      add\n      swap1\n      dup2\n      mstore\n      0x20\n      add\n      0x00\n      keccak256\n        /* \"erc721a/contracts/ERC721A.sol\":13804:13839  _operatorApprovals[owner][operator] */\n      0x00\n        /* \"erc721a/contracts/ERC721A.sol\":13830:13838  operator */\n      dup4\n        /* \"erc721a/contracts/ERC721A.sol\":13804:13839  _operatorApprovals[owner][operator] */\n      0xffffffffffffffffffffffffffffffffffffffff\n      and\n      0xffffffffffffffffffffffffffffffffffffffff\n      and\n      dup2\n      mstore\n      0x20\n      add\n      swap1\n      dup2\n      mstore\n      0x20\n      add\n      0x00\n      keccak256\n      0x00\n      swap1\n      sload\n      swap1\n      0x0100\n      exp\n      swap1\n      div\n      0xff\n      and\n        /* \"erc721a/contracts/ERC721A.sol\":13797:13839  return _operatorApprovals[owner][operator] */\n      swap1\n      pop\n        /* \"erc721a/contracts/ERC721A.sol\":13684:13846  function isApprovedForAll(address owner, address operator) public view virtual override returns (bool) {... */\n      swap3\n      swap2\n      pop\n      pop\n      jump\t// out\n        /* \"erc721a/contracts/ERC721A.sol\":14791:15059  function _exists(uint256 tokenId) internal view returns (bool) {... */\n    tag_109:\n        /* \"erc721a/contracts/ERC721A.sol\":14848:14852  bool */\n      0x00\n        /* \"erc721a/contracts/ERC721A.sol\":14902:14909  tokenId */\n      dup2\n        /* \"erc721a/contracts/ERC721A.sol\":14883:14898  _startTokenId() */\n      tag_188\n        /* \"erc721a/contracts/ERC721A.sol\":14883:14896  _startTokenId */\n      tag_121\n        /* \"erc721a/contracts/ERC721A.sol\":14883:14898  _startTokenId() */\n      jump\t// in\n    tag_188:\n        /* \"erc721a/contracts/ERC721A.sol\":14883:14909  _startTokenId() <= tokenId */\n      gt\n      iszero\n        /* \"erc721a/contracts/ERC721A.sol\":14883:14948  _startTokenId() <= tokenId &&... */\n      dup1\n      iszero\n      tag_189\n      jumpi\n      pop\n        /* \"erc721a/contracts/ERC721A.sol\":14935:14948  _currentIndex */\n      sload(0x00)\n        /* \"erc721a/contracts/ERC721A.sol\":14925:14932  tokenId */\n      dup3\n        /* \"erc721a/contracts/ERC721A.sol\":14925:14948  tokenId < _currentIndex */\n      lt\n        /* \"erc721a/contracts/ERC721A.sol\":14883:14948  _startTokenId() <= tokenId &&... */\n    tag_189:\n        /* \"erc721a/contracts/ERC721A.sol\":14883:15033  _startTokenId() <= tokenId &&... */\n      dup1\n      iszero\n      tag_190\n      jumpi\n      pop\n        /* \"erc721a/contracts/ERC721A.sol\":15032:15033  0 */\n      0x00\n        /* \"erc721a/contracts/ERC721A.sol\":1774:1782  1 << 224 */\n      0x0100000000000000000000000000000000000000000000000000000000\n        /* \"erc721a/contracts/ERC721A.sol\":14985:15002  _packedOwnerships */\n      0x04\n        /* \"erc721a/contracts/ERC721A.sol\":14985:15011  _packedOwnerships[tokenId] */\n      0x00\n        /* \"erc721a/contracts/ERC721A.sol\":15003:15010  tokenId */\n      dup6\n        /* \"erc721a/contracts/ERC721A.sol\":14985:15011  _packedOwnerships[tokenId] */\n      dup2\n      mstore\n      0x20\n      add\n      swap1\n      dup2\n      mstore\n      0x20\n      add\n      0x00\n      keccak256\n      sload\n        /* \"erc721a/contracts/ERC721A.sol\":14985:15028  _packedOwnerships[tokenId] & BITMASK_BURNED */\n      and\n        /* \"erc721a/contracts/ERC721A.sol\":14985:15033  _packedOwnerships[tokenId] & BITMASK_BURNED == 0 */\n      eq\n        /* \"erc721a/contracts/ERC721A.sol\":14883:15033  _startTokenId() <= tokenId &&... */\n    tag_190:\n        /* \"erc721a/contracts/ERC721A.sol\":14864:15033  return... */\n      swap1\n      pop\n        /* \"erc721a/contracts/ERC721A.sol\":14791:15059  function _exists(uint256 tokenId) internal view returns (bool) {... */\n      swap2\n      swap1\n      pop\n      jump\t// out\n        /* \"erc721a/contracts/ERC721A.sol\":32874:32977  function _msgSenderERC721A() internal view virtual returns (address) {... */\n    tag_114:\n        /* \"erc721a/contracts/ERC721A.sol\":32934:32941  address */\n      0x00\n        /* \"erc721a/contracts/ERC721A.sol\":32960:32970  msg.sender */\n      caller\n        /* \"erc721a/contracts/ERC721A.sol\":32953:32970  return msg.sender */\n      swap1\n      pop\n        /* \"erc721a/contracts/ERC721A.sol\":32874:32977  function _msgSenderERC721A() internal view virtual returns (address) {... */\n      swap1\n      jump\t// out\n        /* \"erc721a/contracts/ERC721A.sol\":4276:4366  function _startTokenId() internal view virtual returns (uint256) {... */\n    tag_121:\n        /* \"erc721a/contracts/ERC721A.sol\":4332:4339  uint256 */\n      0x00\n        /* \"erc721a/contracts/ERC721A.sol\":4276:4366  function _startTokenId() internal view virtual returns (uint256) {... */\n      swap1\n      jump\t// out\n        /* \"erc721a/contracts/ERC721A.sol\":7949:9054  function _packedOwnershipOf(uint256 tokenId) private view returns (uint256) {... */\n    tag_124:\n        /* \"erc721a/contracts/ERC721A.sol\":8016:8023  uint256 */\n      0x00\n        /* \"erc721a/contracts/ERC721A.sol\":8035:8047  uint256 curr */\n      dup1\n        /* \"erc721a/contracts/ERC721A.sol\":8050:8057  tokenId */\n      dup3\n        /* \"erc721a/contracts/ERC721A.sol\":8035:8057  uint256 curr = tokenId */\n      swap1\n      pop\n        /* \"erc721a/contracts/ERC721A.sol\":8115:8119  curr */\n      dup1\n        /* \"erc721a/contracts/ERC721A.sol\":8096:8111  _startTokenId() */\n      tag_194\n        /* \"erc721a/contracts/ERC721A.sol\":8096:8109  _startTokenId */\n      tag_121\n        /* \"erc721a/contracts/ERC721A.sol\":8096:8111  _startTokenId() */\n      jump\t// in\n    tag_194:\n        /* \"erc721a/contracts/ERC721A.sol\":8096:8119  _startTokenId() <= curr */\n      gt\n        /* \"erc721a/contracts/ERC721A.sol\":8092:8990  if (_startTokenId() <= curr)... */\n      tag_195\n      jumpi\n        /* \"erc721a/contracts/ERC721A.sol\":8148:8161  _currentIndex */\n      sload(0x00)\n        /* \"erc721a/contracts/ERC721A.sol\":8141:8145  curr */\n      dup2\n        /* \"erc721a/contracts/ERC721A.sol\":8141:8161  curr < _currentIndex */\n      lt\n        /* \"erc721a/contracts/ERC721A.sol\":8137:8990  if (curr < _currentIndex) {... */\n      iszero\n      tag_196\n      jumpi\n        /* \"erc721a/contracts/ERC721A.sol\":8185:8199  uint256 packed */\n      0x00\n        /* \"erc721a/contracts/ERC721A.sol\":8202:8219  _packedOwnerships */\n      0x04\n        /* \"erc721a/contracts/ERC721A.sol\":8202:8225  _packedOwnerships[curr] */\n      0x00\n        /* \"erc721a/contracts/ERC721A.sol\":8220:8224  curr */\n      dup4\n        /* \"erc721a/contracts/ERC721A.sol\":8202:8225  _packedOwnerships[curr] */\n      dup2\n      mstore\n      0x20\n      add\n      swap1\n      dup2\n      mstore\n      0x20\n      add\n      0x00\n      keccak256\n      sload\n        /* \"erc721a/contracts/ERC721A.sol\":8185:8225  uint256 packed = _packedOwnerships[curr] */\n      swap1\n      pop\n        /* \"erc721a/contracts/ERC721A.sol\":8316:8317  0 */\n      0x00\n        /* \"erc721a/contracts/ERC721A.sol\":1774:1782  1 << 224 */\n      0x0100000000000000000000000000000000000000000000000000000000\n        /* \"erc721a/contracts/ERC721A.sol\":8289:8295  packed */\n      dup3\n        /* \"erc721a/contracts/ERC721A.sol\":8289:8312  packed & BITMASK_BURNED */\n      and\n        /* \"erc721a/contracts/ERC721A.sol\":8289:8317  packed & BITMASK_BURNED == 0 */\n      sub\n        /* \"erc721a/contracts/ERC721A.sol\":8285:8972  if (packed & BITMASK_BURNED == 0) {... */\n      tag_197\n      jumpi\n        /* \"erc721a/contracts/ERC721A.sol\":8800:8911  while (packed == 0) {... */\n    tag_198:\n        /* \"erc721a/contracts/ERC721A.sol\":8817:8818  0 */\n      0x00\n        /* \"erc721a/contracts/ERC721A.sol\":8807:8813  packed */\n      dup2\n        /* \"erc721a/contracts/ERC721A.sol\":8807:8818  packed == 0 */\n      sub\n        /* \"erc721a/contracts/ERC721A.sol\":8800:8911  while (packed == 0) {... */\n      tag_199\n      jumpi\n        /* \"erc721a/contracts/ERC721A.sol\":8859:8876  _packedOwnerships */\n      0x04\n        /* \"erc721a/contracts/ERC721A.sol\":8859:8884  _packedOwnerships[--curr] */\n      0x00\n        /* \"erc721a/contracts/ERC721A.sol\":8877:8883  --curr */\n      dup4\n      0x01\n      swap1\n      sub\n      swap4\n      pop\n      dup4\n        /* \"erc721a/contracts/ERC721A.sol\":8859:8884  _packedOwnerships[--curr] */\n      dup2\n      mstore\n      0x20\n      add\n      swap1\n      dup2\n      mstore\n      0x20\n      add\n      0x00\n      keccak256\n      sload\n        /* \"erc721a/contracts/ERC721A.sol\":8850:8884  packed = _packedOwnerships[--curr] */\n      swap1\n      pop\n        /* \"erc721a/contracts/ERC721A.sol\":8800:8911  while (packed == 0) {... */\n      jump(tag_198)\n    tag_199:\n        /* \"erc721a/contracts/ERC721A.sol\":8943:8949  packed */\n      dup1\n        /* \"erc721a/contracts/ERC721A.sol\":8936:8949  return packed */\n      swap3\n      pop\n      pop\n      pop\n      jump(tag_193)\n        /* \"erc721a/contracts/ERC721A.sol\":8285:8972  if (packed & BITMASK_BURNED == 0) {... */\n    tag_197:\n        /* \"erc721a/contracts/ERC721A.sol\":8163:8990  {... */\n      pop\n        /* \"erc721a/contracts/ERC721A.sol\":8137:8990  if (curr < _currentIndex) {... */\n    tag_196:\n        /* \"erc721a/contracts/ERC721A.sol\":8092:8990  if (_startTokenId() <= curr)... */\n    tag_195:\n        /* \"erc721a/contracts/ERC721A.sol\":9016:9047  OwnerQueryForNonexistentToken() */\n      mload(0x40)\n      0xdf2d9b4200000000000000000000000000000000000000000000000000000000\n      dup2\n      mstore\n      0x04\n      add\n      mload(0x40)\n      dup1\n      swap2\n      sub\n      swap1\n      revert\n        /* \"erc721a/contracts/ERC721A.sol\":7949:9054  function _packedOwnershipOf(uint256 tokenId) private view returns (uint256) {... */\n    tag_193:\n      swap2\n      swap1\n      pop\n      jump\t// out\n        /* \"erc721a/contracts/ERC721A.sol\":20436:21073  function _getApprovedAddress(uint256 tokenId)... */\n    tag_127:\n        /* \"erc721a/contracts/ERC721A.sol\":20528:20555  uint256 approvedAddressSlot */\n      0x00\n        /* \"erc721a/contracts/ERC721A.sol\":20557:20580  address approvedAddress */\n      dup1\n        /* \"erc721a/contracts/ERC721A.sol\":20596:20649  mapping(uint256 => address) storage tokenApprovalsPtr */\n      0x00\n        /* \"erc721a/contracts/ERC721A.sol\":20652:20667  _tokenApprovals */\n      0x06\n        /* \"erc721a/contracts/ERC721A.sol\":20596:20667  mapping(uint256 => address) storage tokenApprovalsPtr = _tokenApprovals */\n      swap1\n      pop\n        /* \"erc721a/contracts/ERC721A.sol\":20834:20841  tokenId */\n      dup4\n        /* \"erc721a/contracts/ERC721A.sol\":20828:20832  0x00 */\n      0x00\n        /* \"erc721a/contracts/ERC721A.sol\":20821:20842  mstore(0x00, tokenId) */\n      mstore\n        /* \"erc721a/contracts/ERC721A.sol\":20868:20890  tokenApprovalsPtr.slot */\n      dup1\n        /* \"erc721a/contracts/ERC721A.sol\":20862:20866  0x20 */\n      0x20\n        /* \"erc721a/contracts/ERC721A.sol\":20855:20891  mstore(0x20, tokenApprovalsPtr.slot) */\n      mstore\n        /* \"erc721a/contracts/ERC721A.sol\":20943:20947  0x40 */\n      0x40\n        /* \"erc721a/contracts/ERC721A.sol\":20937:20941  0x00 */\n      0x00\n        /* \"erc721a/contracts/ERC721A.sol\":20927:20948  keccak256(0x00, 0x40) */\n      keccak256\n        /* \"erc721a/contracts/ERC721A.sol\":20904:20948  approvedAddressSlot := keccak256(0x00, 0x40) */\n      swap3\n      pop\n        /* \"erc721a/contracts/ERC721A.sol\":21037:21056  approvedAddressSlot */\n      dup3\n        /* \"erc721a/contracts/ERC721A.sol\":21031:21057  sload(approvedAddressSlot) */\n      sload\n        /* \"erc721a/contracts/ERC721A.sol\":21012:21057  approvedAddress := sload(approvedAddressSlot) */\n      swap2\n      pop\n        /* \"erc721a/contracts/ERC721A.sol\":20774:21067  {... */\n      pop\n        /* \"erc721a/contracts/ERC721A.sol\":20436:21073  function _getApprovedAddress(uint256 tokenId)... */\n      swap2\n      pop\n      swap2\n      jump\t// out\n        /* \"erc721a/contracts/ERC721A.sol\":21181:21813  function _isOwnerOrApproved(... */\n    tag_130:\n        /* \"erc721a/contracts/ERC721A.sol\":21319:21330  bool result */\n      0x00\n        /* \"erc721a/contracts/ERC721A.sol\":21478:21493  BITMASK_ADDRESS */\n      0xffffffffffffffffffffffffffffffffffffffff\n        /* \"erc721a/contracts/ERC721A.sol\":21472:21476  from */\n      dup4\n        /* \"erc721a/contracts/ERC721A.sol\":21468:21494  and(from, BITMASK_ADDRESS) */\n      and\n        /* \"erc721a/contracts/ERC721A.sol\":21460:21494  from := and(from, BITMASK_ADDRESS) */\n      swap3\n      pop\n        /* \"erc721a/contracts/ERC721A.sol\":21635:21650  BITMASK_ADDRESS */\n      0xffffffffffffffffffffffffffffffffffffffff\n        /* \"erc721a/contracts/ERC721A.sol\":21624:21633  msgSender */\n      dup3\n        /* \"erc721a/contracts/ERC721A.sol\":21620:21651  and(msgSender, BITMASK_ADDRESS) */\n      and\n        /* \"erc721a/contracts/ERC721A.sol\":21607:21651  msgSender := and(msgSender, BITMASK_ADDRESS) */\n      swap2\n      pop\n        /* \"erc721a/contracts/ERC721A.sol\":21780:21795  approvedAddress */\n      dup4\n        /* \"erc721a/contracts/ERC721A.sol\":21769:21778  msgSender */\n      dup3\n        /* \"erc721a/contracts/ERC721A.sol\":21766:21796  eq(msgSender, approvedAddress) */\n      eq\n        /* \"erc721a/contracts/ERC721A.sol\":21759:21763  from */\n      dup4\n        /* \"erc721a/contracts/ERC721A.sol\":21748:21757  msgSender */\n      dup4\n        /* \"erc721a/contracts/ERC721A.sol\":21745:21764  eq(msgSender, from) */\n      eq\n        /* \"erc721a/contracts/ERC721A.sol\":21742:21797  or(eq(msgSender, from), eq(msgSender, approvedAddress)) */\n      or\n        /* \"erc721a/contracts/ERC721A.sol\":21732:21797  result := or(eq(msgSender, from), eq(msgSender, approvedAddress)) */\n      swap1\n      pop\n        /* \"erc721a/contracts/ERC721A.sol\":21181:21813  function _isOwnerOrApproved(... */\n      swap4\n      swap3\n      pop\n      pop\n      pop\n      jump\t// out\n        /* \"erc721a/contracts/ERC721A.sol\":31742:31896  function _beforeTokenTransfers(... */\n    tag_137:\n      pop\n      pop\n      pop\n      pop\n      jump\t// out\n        /* \"erc721a/contracts/ERC721A.sol\":30099:30401  function _nextExtraData(... */\n    tag_141:\n        /* \"erc721a/contracts/ERC721A.sol\":30230:30237  uint256 */\n      0x00\n        /* \"erc721a/contracts/ERC721A.sol\":30249:30265  uint24 extraData */\n      dup1\n        /* \"erc721a/contracts/ERC721A.sol\":2166:2169  232 */\n      0xe8\n        /* \"erc721a/contracts/ERC721A.sol\":30275:30294  prevOwnershipPacked */\n      dup4\n        /* \"erc721a/contracts/ERC721A.sol\":30275:30315  prevOwnershipPacked >> BITPOS_EXTRA_DATA */\n      swap1\n      shr\n        /* \"erc721a/contracts/ERC721A.sol\":30249:30316  uint24 extraData = uint24(prevOwnershipPacked >> BITPOS_EXTRA_DATA) */\n      swap1\n      pop\n        /* \"erc721a/contracts/ERC721A.sol\":2166:2169  232 */\n      0xe8\n        /* \"erc721a/contracts/ERC721A.sol\":30341:30372  _extraData(from, to, extraData) */\n      tag_204\n        /* \"erc721a/contracts/ERC721A.sol\":30352:30356  from */\n      dup7\n        /* \"erc721a/contracts/ERC721A.sol\":30358:30360  to */\n      dup7\n        /* \"erc721a/contracts/ERC721A.sol\":30362:30371  extraData */\n      dup5\n        /* \"erc721a/contracts/ERC721A.sol\":30341:30351  _extraData */\n      tag_205\n        /* \"erc721a/contracts/ERC721A.sol\":30341:30372  _extraData(from, to, extraData) */\n      jump\t// in\n    tag_204:\n        /* \"erc721a/contracts/ERC721A.sol\":30333:30373  uint256(_extraData(from, to, extraData)) */\n      0xffffff\n      and\n        /* \"erc721a/contracts/ERC721A.sol\":30333:30394  uint256(_extraData(from, to, extraData)) << BITPOS_EXTRA_DATA */\n      swap1\n      shl\n        /* \"erc721a/contracts/ERC721A.sol\":30326:30394  return uint256(_extraData(from, to, extraData)) << BITPOS_EXTRA_DATA */\n      swap2\n      pop\n      pop\n        /* \"erc721a/contracts/ERC721A.sol\":30099:30401  function _nextExtraData(... */\n      swap4\n      swap3\n      pop\n      pop\n      pop\n      jump\t// out\n        /* \"erc721a/contracts/ERC721A.sol\":10460:10900  function _packOwnershipData(address owner, uint256 flags) private view returns (uint256 result) {... */\n    tag_142:\n        /* \"erc721a/contracts/ERC721A.sol\":10540:10554  uint256 result */\n      0x00\n        /* \"erc721a/contracts/ERC721A.sol\":10705:10720  BITMASK_ADDRESS */\n      0xffffffffffffffffffffffffffffffffffffffff\n        /* \"erc721a/contracts/ERC721A.sol\":10698:10703  owner */\n      dup4\n        /* \"erc721a/contracts/ERC721A.sol\":10694:10721  and(owner, BITMASK_ADDRESS) */\n      and\n        /* \"erc721a/contracts/ERC721A.sol\":10685:10721  owner := and(owner, BITMASK_ADDRESS) */\n      swap3\n      pop\n        /* \"erc721a/contracts/ERC721A.sol\":10877:10882  flags */\n      dup2\n        /* \"erc721a/contracts/ERC721A.sol\":10863:10874  timestamp() */\n      timestamp\n        /* \"erc721a/contracts/ERC721A.sol\":10839:10861  BITPOS_START_TIMESTAMP */\n      0xa0\n        /* \"erc721a/contracts/ERC721A.sol\":10835:10875  shl(BITPOS_START_TIMESTAMP, timestamp()) */\n      shl\n        /* \"erc721a/contracts/ERC721A.sol\":10832:10883  or(shl(BITPOS_START_TIMESTAMP, timestamp()), flags) */\n      or\n        /* \"erc721a/contracts/ERC721A.sol\":10825:10830  owner */\n      dup4\n        /* \"erc721a/contracts/ERC721A.sol\":10822:10884  or(owner, or(shl(BITPOS_START_TIMESTAMP, timestamp()), flags)) */\n      or\n        /* \"erc721a/contracts/ERC721A.sol\":10812:10884  result := or(owner, or(shl(BITPOS_START_TIMESTAMP, timestamp()), flags)) */\n      swap1\n      pop\n        /* \"erc721a/contracts/ERC721A.sol\":10460:10900  function _packOwnershipData(address owner, uint256 flags) private view returns (uint256 result) {... */\n      swap3\n      swap2\n      pop\n      pop\n      jump\t// out\n        /* \"erc721a/contracts/ERC721A.sol\":32537:32690  function _afterTokenTransfers(... */\n    tag_147:\n      pop\n      pop\n      pop\n      pop\n      jump\t// out\n        /* \"erc721a/contracts/ERC721A.sol\":15138:15240  function _safeMint(address to, uint256 quantity) internal {... */\n    tag_162:\n        /* \"erc721a/contracts/ERC721A.sol\":15206:15233  _safeMint(to, quantity, '') */\n      tag_209\n        /* \"erc721a/contracts/ERC721A.sol\":15216:15218  to */\n      dup3\n        /* \"erc721a/contracts/ERC721A.sol\":15220:15228  quantity */\n      dup3\n        /* \"erc721a/contracts/ERC721A.sol\":15206:15233  _safeMint(to, quantity, '') */\n      mload(0x40)\n      dup1\n      0x20\n      add\n      0x40\n      mstore\n      dup1\n      0x00\n      dup2\n      mstore\n      pop\n        /* \"erc721a/contracts/ERC721A.sol\":15206:15215  _safeMint */\n      tag_210\n        /* \"erc721a/contracts/ERC721A.sol\":15206:15233  _safeMint(to, quantity, '') */\n      jump\t// in\n    tag_209:\n        /* \"erc721a/contracts/ERC721A.sol\":15138:15240  function _safeMint(address to, uint256 quantity) internal {... */\n      pop\n      pop\n      jump\t// out\n        /* \"erc721a/contracts/ERC721A.sol\":28649:29346  function _checkContractOnERC721Received(... */\n    tag_173:\n        /* \"erc721a/contracts/ERC721A.sol\":28807:28811  bool */\n      0x00\n        /* \"erc721a/contracts/ERC721A.sol\":28852:28854  to */\n      dup4\n        /* \"erc721a/contracts/ERC721A.sol\":28827:28872  ERC721A__IERC721Receiver(to).onERC721Received */\n      0xffffffffffffffffffffffffffffffffffffffff\n      and\n      0x150b7a02\n        /* \"erc721a/contracts/ERC721A.sol\":28873:28892  _msgSenderERC721A() */\n      tag_212\n        /* \"erc721a/contracts/ERC721A.sol\":28873:28890  _msgSenderERC721A */\n      tag_114\n        /* \"erc721a/contracts/ERC721A.sol\":28873:28892  _msgSenderERC721A() */\n      jump\t// in\n    tag_212:\n        /* \"erc721a/contracts/ERC721A.sol\":28894:28898  from */\n      dup8\n        /* \"erc721a/contracts/ERC721A.sol\":28900:28907  tokenId */\n      dup7\n        /* \"erc721a/contracts/ERC721A.sol\":28909:28914  _data */\n      dup7\n        /* \"erc721a/contracts/ERC721A.sol\":28827:28915  ERC721A__IERC721Receiver(to).onERC721Received(_msgSenderERC721A(), from, tokenId, _data) */\n      mload(0x40)\n      dup6\n      0xffffffff\n      and\n      0xe0\n      shl\n      dup2\n      mstore\n      0x04\n      add\n      tag_213\n      swap5\n      swap4\n      swap3\n      swap2\n      swap1\n      tag_214\n      jump\t// in\n    tag_213:\n      0x20\n      mload(0x40)\n      dup1\n      dup4\n      sub\n      dup2\n      0x00\n      dup8\n      gas\n      call\n      swap3\n      pop\n      pop\n      pop\n      dup1\n      iszero\n      tag_215\n      jumpi\n      pop\n      mload(0x40)\n      returndatasize\n      not(0x1f)\n      0x1f\n      dup3\n      add\n      and\n      dup3\n      add\n      dup1\n      0x40\n      mstore\n      pop\n      dup2\n      add\n      swap1\n      tag_216\n      swap2\n      swap1\n      tag_217\n      jump\t// in\n    tag_216:\n      0x01\n    tag_215:\n        /* \"erc721a/contracts/ERC721A.sol\":28823:29340  try ERC721A__IERC721Receiver(to).onERC721Received(_msgSenderERC721A(), from, tokenId, _data) returns (... */\n      tag_218\n      jumpi\n      returndatasize\n      dup1\n      0x00\n      dup2\n      eq\n      tag_223\n      jumpi\n      mload(0x40)\n      swap2\n      pop\n      and(add(returndatasize, 0x3f), not(0x1f))\n      dup3\n      add\n      0x40\n      mstore\n      returndatasize\n      dup3\n      mstore\n      returndatasize\n      0x00\n      0x20\n      dup5\n      add\n      returndatacopy\n      jump(tag_222)\n    tag_223:\n      0x60\n      swap2\n      pop\n    tag_222:\n      pop\n        /* \"erc721a/contracts/ERC721A.sol\":29122:29123  0 */\n      0x00\n        /* \"erc721a/contracts/ERC721A.sol\":29105:29111  reason */\n      dup2\n        /* \"erc721a/contracts/ERC721A.sol\":29105:29118  reason.length */\n      mload\n        /* \"erc721a/contracts/ERC721A.sol\":29105:29123  reason.length == 0 */\n      sub\n        /* \"erc721a/contracts/ERC721A.sol\":29101:29330  if (reason.length == 0) {... */\n      tag_224\n      jumpi\n        /* \"erc721a/contracts/ERC721A.sol\":29150:29190  TransferToNonERC721ReceiverImplementer() */\n      mload(0x40)\n      0xd1a57ed600000000000000000000000000000000000000000000000000000000\n      dup2\n      mstore\n      0x04\n      add\n      mload(0x40)\n      dup1\n      swap2\n      sub\n      swap1\n      revert\n        /* \"erc721a/contracts/ERC721A.sol\":29101:29330  if (reason.length == 0) {... */\n    tag_224:\n        /* \"erc721a/contracts/ERC721A.sol\":29290:29296  reason */\n      dup1\n        /* \"erc721a/contracts/ERC721A.sol\":29284:29297  mload(reason) */\n      mload\n        /* \"erc721a/contracts/ERC721A.sol\":29275:29281  reason */\n      dup2\n        /* \"erc721a/contracts/ERC721A.sol\":29271:29273  32 */\n      0x20\n        /* \"erc721a/contracts/ERC721A.sol\":29267:29282  add(32, reason) */\n      add\n        /* \"erc721a/contracts/ERC721A.sol\":29260:29298  revert(add(32, reason), mload(reason)) */\n      revert\n        /* \"erc721a/contracts/ERC721A.sol\":28823:29340  try ERC721A__IERC721Receiver(to).onERC721Received(_msgSenderERC721A(), from, tokenId, _data) returns (... */\n    tag_218:\n        /* \"erc721a/contracts/ERC721A.sol\":28993:29047  ERC721A__IERC721Receiver(to).onERC721Received.selector */\n      shl(0xe0, 0x150b7a02)\n        /* \"erc721a/contracts/ERC721A.sol\":28983:29047  retval == ERC721A__IERC721Receiver(to).onERC721Received.selector */\n      not(0xffffffffffffffffffffffffffffffffffffffffffffffffffffffff)\n      and\n        /* \"erc721a/contracts/ERC721A.sol\":28983:28989  retval */\n      dup2\n        /* \"erc721a/contracts/ERC721A.sol\":28983:29047  retval == ERC721A__IERC721Receiver(to).onERC721Received.selector */\n      not(0xffffffffffffffffffffffffffffffffffffffffffffffffffffffff)\n      and\n      eq\n        /* \"erc721a/contracts/ERC721A.sol\":28976:29047  return retval == ERC721A__IERC721Receiver(to).onERC721Received.selector */\n      swap2\n      pop\n      pop\n        /* \"erc721a/contracts/ERC721A.sol\":28649:29346  function _checkContractOnERC721Received(... */\n      swap5\n      swap4\n      pop\n      pop\n      pop\n      pop\n      jump\t// out\n        /* \"erc721a/contracts/ERC721A.sol\":12049:12141  function _baseURI() internal view virtual returns (string memory) {... */\n    tag_179:\n        /* \"erc721a/contracts/ERC721A.sol\":12100:12113  string memory */\n      0x60\n        /* \"erc721a/contracts/ERC721A.sol\":12125:12134  return '' */\n      mload(0x40)\n      dup1\n      0x20\n      add\n      0x40\n      mstore\n      dup1\n      0x00\n      dup2\n      mstore\n      pop\n      swap1\n      pop\n        /* \"erc721a/contracts/ERC721A.sol\":12049:12141  function _baseURI() internal view virtual returns (string memory) {... */\n      swap1\n      jump\t// out\n        /* \"erc721a/contracts/ERC721A.sol\":33078:34998  function _toString(uint256 value) internal pure returns (string memory ptr) {... */\n    tag_183:\n        /* \"erc721a/contracts/ERC721A.sol\":33135:33152  string memory ptr */\n      0x60\n        /* \"erc721a/contracts/ERC721A.sol\":33548:33551  128 */\n      0x80\n        /* \"erc721a/contracts/ERC721A.sol\":33541:33545  0x40 */\n      0x40\n        /* \"erc721a/contracts/ERC721A.sol\":33535:33546  mload(0x40) */\n      mload\n        /* \"erc721a/contracts/ERC721A.sol\":33531:33552  add(mload(0x40), 128) */\n      add\n        /* \"erc721a/contracts/ERC721A.sol\":33524:33552  ptr := add(mload(0x40), 128) */\n      swap1\n      pop\n        /* \"erc721a/contracts/ERC721A.sol\":33637:33640  ptr */\n      dup1\n        /* \"erc721a/contracts/ERC721A.sol\":33631:33635  0x40 */\n      0x40\n        /* \"erc721a/contracts/ERC721A.sol\":33624:33641  mstore(0x40, ptr) */\n      mstore\n        /* \"erc721a/contracts/ERC721A.sol\":33740:33743  ptr */\n      dup1\n        /* \"erc721a/contracts/ERC721A.sol\":34188:34193  value */\n      dup3\n        /* \"erc721a/contracts/ERC721A.sol\":34316:34317  1 */\n      0x01\n        /* \"erc721a/contracts/ERC721A.sol\":34311:34314  ptr */\n      dup4\n        /* \"erc721a/contracts/ERC721A.sol\":34307:34318  sub(ptr, 1) */\n      sub\n        /* \"erc721a/contracts/ERC721A.sol\":34300:34318  ptr := sub(ptr, 1) */\n      swap3\n      pop\n        /* \"erc721a/contracts/ERC721A.sol\":34451:34453  10 */\n      0x0a\n        /* \"erc721a/contracts/ERC721A.sol\":34445:34449  temp */\n      dup2\n        /* \"erc721a/contracts/ERC721A.sol\":34441:34454  mod(temp, 10) */\n      mod\n        /* \"erc721a/contracts/ERC721A.sol\":34437:34439  48 */\n      0x30\n        /* \"erc721a/contracts/ERC721A.sol\":34433:34455  add(48, mod(temp, 10)) */\n      add\n        /* \"erc721a/contracts/ERC721A.sol\":34428:34431  ptr */\n      dup4\n        /* \"erc721a/contracts/ERC721A.sol\":34420:34456  mstore8(ptr, add(48, mod(temp, 10))) */\n      mstore8\n        /* \"erc721a/contracts/ERC721A.sol\":34491:34493  10 */\n      0x0a\n        /* \"erc721a/contracts/ERC721A.sol\":34485:34489  temp */\n      dup2\n        /* \"erc721a/contracts/ERC721A.sol\":34481:34494  div(temp, 10) */\n      div\n        /* \"erc721a/contracts/ERC721A.sol\":34473:34494  temp := div(temp, 10) */\n      swap1\n      pop\n        /* \"erc721a/contracts/ERC721A.sol\":34082:34764  for {... */\n    tag_229:\n        /* \"erc721a/contracts/ERC721A.sol\":34509:34513  temp */\n      dup1\n        /* \"erc721a/contracts/ERC721A.sol\":34082:34764  for {... */\n      iszero\n      tag_231\n      jumpi\n        /* \"erc721a/contracts/ERC721A.sol\":34695:34696  1 */\n      0x01\n        /* \"erc721a/contracts/ERC721A.sol\":34690:34693  ptr */\n      dup4\n        /* \"erc721a/contracts/ERC721A.sol\":34686:34697  sub(ptr, 1) */\n      sub\n        /* \"erc721a/contracts/ERC721A.sol\":34679:34697  ptr := sub(ptr, 1) */\n      swap3\n      pop\n        /* \"erc721a/contracts/ERC721A.sol\":34745:34747  10 */\n      0x0a\n        /* \"erc721a/contracts/ERC721A.sol\":34739:34743  temp */\n      dup2\n        /* \"erc721a/contracts/ERC721A.sol\":34735:34748  mod(temp, 10) */\n      mod\n        /* \"erc721a/contracts/ERC721A.sol\":34731:34733  48 */\n      0x30\n        /* \"erc721a/contracts/ERC721A.sol\":34727:34749  add(48, mod(temp, 10)) */\n      add\n        /* \"erc721a/contracts/ERC721A.sol\":34722:34725  ptr */\n      dup4\n        /* \"erc721a/contracts/ERC721A.sol\":34714:34750  mstore8(ptr, add(48, mod(temp, 10))) */\n      mstore8\n        /* \"erc721a/contracts/ERC721A.sol\":34602:34604  10 */\n      0x0a\n        /* \"erc721a/contracts/ERC721A.sol\":34596:34600  temp */\n      dup2\n        /* \"erc721a/contracts/ERC721A.sol\":34592:34605  div(temp, 10) */\n      div\n        /* \"erc721a/contracts/ERC721A.sol\":34584:34605  temp := div(temp, 10) */\n      swap1\n      pop\n        /* \"erc721a/contracts/ERC721A.sol\":34082:34764  for {... */\n      jump(tag_229)\n    tag_231:\n        /* \"erc721a/contracts/ERC721A.sol\":34086:34508  {... */\n      pop\n        /* \"erc721a/contracts/ERC721A.sol\":34801:34804  ptr */\n      dup2\n        /* \"erc721a/contracts/ERC721A.sol\":34796:34799  end */\n      dup2\n        /* \"erc721a/contracts/ERC721A.sol\":34792:34805  sub(end, ptr) */\n      sub\n        /* \"erc721a/contracts/ERC721A.sol\":34914:34916  32 */\n      0x20\n        /* \"erc721a/contracts/ERC721A.sol\":34909:34912  ptr */\n      dup4\n        /* \"erc721a/contracts/ERC721A.sol\":34905:34917  sub(ptr, 32) */\n      sub\n        /* \"erc721a/contracts/ERC721A.sol\":34898:34917  ptr := sub(ptr, 32) */\n      swap3\n      pop\n        /* \"erc721a/contracts/ERC721A.sol\":34975:34981  length */\n      dup1\n        /* \"erc721a/contracts/ERC721A.sol\":34970:34973  ptr */\n      dup4\n        /* \"erc721a/contracts/ERC721A.sol\":34963:34982  mstore(ptr, length) */\n      mstore\n        /* \"erc721a/contracts/ERC721A.sol\":33173:34992  {... */\n      pop\n      pop\n        /* \"erc721a/contracts/ERC721A.sol\":33078:34998  function _toString(uint256 value) internal pure returns (string memory ptr) {... */\n      swap2\n      swap1\n      pop\n      jump\t// out\n        /* \"erc721a/contracts/ERC721A.sol\":30961:31104  function _extraData(... */\n    tag_205:\n        /* \"erc721a/contracts/ERC721A.sol\":31094:31100  uint24 */\n      0x00\n        /* \"erc721a/contracts/ERC721A.sol\":30961:31104  function _extraData(... */\n      swap4\n      swap3\n      pop\n      pop\n      pop\n      jump\t// out\n        /* \"erc721a/contracts/ERC721A.sol\":15641:16302  function _safeMint(... */\n    tag_210:\n        /* \"erc721a/contracts/ERC721A.sol\":15759:15778  _mint(to, quantity) */\n      tag_234\n        /* \"erc721a/contracts/ERC721A.sol\":15765:15767  to */\n      dup4\n        /* \"erc721a/contracts/ERC721A.sol\":15769:15777  quantity */\n      dup4\n        /* \"erc721a/contracts/ERC721A.sol\":15759:15764  _mint */\n      tag_235\n        /* \"erc721a/contracts/ERC721A.sol\":15759:15778  _mint(to, quantity) */\n      jump\t// in\n    tag_234:\n        /* \"erc721a/contracts/ERC721A.sol\":15835:15836  0 */\n      0x00\n        /* \"erc721a/contracts/ERC721A.sol\":15817:15819  to */\n      dup4\n        /* \"erc721a/contracts/ERC721A.sol\":15817:15831  to.code.length */\n      0xffffffffffffffffffffffffffffffffffffffff\n      and\n      extcodesize\n        /* \"erc721a/contracts/ERC721A.sol\":15817:15836  to.code.length != 0 */\n      eq\n        /* \"erc721a/contracts/ERC721A.sol\":15813:16286  if (to.code.length != 0) {... */\n      tag_236\n      jumpi\n        /* \"erc721a/contracts/ERC721A.sol\":15856:15867  uint256 end */\n      0x00\n        /* \"erc721a/contracts/ERC721A.sol\":15870:15883  _currentIndex */\n      dup1\n      sload\n        /* \"erc721a/contracts/ERC721A.sol\":15856:15883  uint256 end = _currentIndex */\n      swap1\n      pop\n        /* \"erc721a/contracts/ERC721A.sol\":15901:15914  uint256 index */\n      0x00\n        /* \"erc721a/contracts/ERC721A.sol\":15923:15931  quantity */\n      dup4\n        /* \"erc721a/contracts/ERC721A.sol\":15917:15920  end */\n      dup3\n        /* \"erc721a/contracts/ERC721A.sol\":15917:15931  end - quantity */\n      sub\n        /* \"erc721a/contracts/ERC721A.sol\":15901:15931  uint256 index = end - quantity */\n      swap1\n      pop\n        /* \"erc721a/contracts/ERC721A.sol\":15949:16178  do {... */\n    tag_237:\n        /* \"erc721a/contracts/ERC721A.sol\":15979:16041  _checkContractOnERC721Received(address(0), to, index++, _data) */\n      tag_240\n        /* \"erc721a/contracts/ERC721A.sol\":16018:16019  0 */\n      0x00\n        /* \"erc721a/contracts/ERC721A.sol\":16022:16024  to */\n      dup7\n        /* \"erc721a/contracts/ERC721A.sol\":16026:16033  index++ */\n      dup4\n      dup1\n      0x01\n      add\n      swap5\n      pop\n        /* \"erc721a/contracts/ERC721A.sol\":16035:16040  _data */\n      dup7\n        /* \"erc721a/contracts/ERC721A.sol\":15979:16009  _checkContractOnERC721Received */\n      tag_173\n        /* \"erc721a/contracts/ERC721A.sol\":15979:16041  _checkContractOnERC721Received(address(0), to, index++, _data) */\n      jump\t// in\n    tag_240:\n        /* \"erc721a/contracts/ERC721A.sol\":15974:16139  if (!_checkContractOnERC721Received(address(0), to, index++, _data)) {... */\n      tag_241\n      jumpi\n        /* \"erc721a/contracts/ERC721A.sol\":16076:16116  TransferToNonERC721ReceiverImplementer() */\n      mload(0x40)\n      0xd1a57ed600000000000000000000000000000000000000000000000000000000\n      dup2\n      mstore\n      0x04\n      add\n      mload(0x40)\n      dup1\n      swap2\n      sub\n      swap1\n      revert\n        /* \"erc721a/contracts/ERC721A.sol\":15974:16139  if (!_checkContractOnERC721Received(address(0), to, index++, _data)) {... */\n    tag_241:\n        /* \"erc721a/contracts/ERC721A.sol\":16173:16176  end */\n      dup2\n        /* \"erc721a/contracts/ERC721A.sol\":16165:16170  index */\n      dup2\n        /* \"erc721a/contracts/ERC721A.sol\":16165:16176  index < end */\n      lt\n        /* \"erc721a/contracts/ERC721A.sol\":15949:16178  do {... */\n      tag_237\n      jumpi\n        /* \"erc721a/contracts/ERC721A.sol\":16258:16261  end */\n      dup2\n        /* \"erc721a/contracts/ERC721A.sol\":16241:16254  _currentIndex */\n      sload(0x00)\n        /* \"erc721a/contracts/ERC721A.sol\":16241:16261  _currentIndex != end */\n      eq\n        /* \"erc721a/contracts/ERC721A.sol\":16237:16271  if (_currentIndex != end) revert() */\n      tag_242\n      jumpi\n        /* \"erc721a/contracts/ERC721A.sol\":16263:16271  revert() */\n      0x00\n      dup1\n      revert\n        /* \"erc721a/contracts/ERC721A.sol\":16237:16271  if (_currentIndex != end) revert() */\n    tag_242:\n        /* \"erc721a/contracts/ERC721A.sol\":15838:16286  {... */\n      pop\n      pop\n        /* \"erc721a/contracts/ERC721A.sol\":15813:16286  if (to.code.length != 0) {... */\n    tag_236:\n        /* \"erc721a/contracts/ERC721A.sol\":15641:16302  function _safeMint(... */\n      pop\n      pop\n      pop\n      jump\t// out\n        /* \"erc721a/contracts/ERC721A.sol\":16563:18055  function _mint(address to, uint256 quantity) internal {... */\n    tag_235:\n        /* \"erc721a/contracts/ERC721A.sol\":16627:16647  uint256 startTokenId */\n      0x00\n        /* \"erc721a/contracts/ERC721A.sol\":16650:16663  _currentIndex */\n      dup1\n      sload\n        /* \"erc721a/contracts/ERC721A.sol\":16627:16663  uint256 startTokenId = _currentIndex */\n      swap1\n      pop\n        /* \"erc721a/contracts/ERC721A.sol\":16691:16692  0 */\n      0x00\n        /* \"erc721a/contracts/ERC721A.sol\":16677:16693  to == address(0) */\n      0xffffffffffffffffffffffffffffffffffffffff\n      and\n        /* \"erc721a/contracts/ERC721A.sol\":16677:16679  to */\n      dup4\n        /* \"erc721a/contracts/ERC721A.sol\":16677:16693  to == address(0) */\n      0xffffffffffffffffffffffffffffffffffffffff\n      and\n      sub\n        /* \"erc721a/contracts/ERC721A.sol\":16673:16721  if (to == address(0)) revert MintToZeroAddress() */\n      tag_244\n      jumpi\n        /* \"erc721a/contracts/ERC721A.sol\":16702:16721  MintToZeroAddress() */\n      mload(0x40)\n      0x2e07630000000000000000000000000000000000000000000000000000000000\n      dup2\n      mstore\n      0x04\n      add\n      mload(0x40)\n      dup1\n      swap2\n      sub\n      swap1\n      revert\n        /* \"erc721a/contracts/ERC721A.sol\":16673:16721  if (to == address(0)) revert MintToZeroAddress() */\n    tag_244:\n        /* \"erc721a/contracts/ERC721A.sol\":16747:16748  0 */\n      0x00\n        /* \"erc721a/contracts/ERC721A.sol\":16735:16743  quantity */\n      dup3\n        /* \"erc721a/contracts/ERC721A.sol\":16735:16748  quantity == 0 */\n      sub\n        /* \"erc721a/contracts/ERC721A.sol\":16731:16775  if (quantity == 0) revert MintZeroQuantity() */\n      tag_245\n      jumpi\n        /* \"erc721a/contracts/ERC721A.sol\":16757:16775  MintZeroQuantity() */\n      mload(0x40)\n      0xb562e8dd00000000000000000000000000000000000000000000000000000000\n      dup2\n      mstore\n      0x04\n      add\n      mload(0x40)\n      dup1\n      swap2\n      sub\n      swap1\n      revert\n        /* \"erc721a/contracts/ERC721A.sol\":16731:16775  if (quantity == 0) revert MintZeroQuantity() */\n    tag_245:\n        /* \"erc721a/contracts/ERC721A.sol\":16786:16847  _beforeTokenTransfers(address(0), to, startTokenId, quantity) */\n      tag_246\n        /* \"erc721a/contracts/ERC721A.sol\":16816:16817  0 */\n      0x00\n        /* \"erc721a/contracts/ERC721A.sol\":16820:16822  to */\n      dup5\n        /* \"erc721a/contracts/ERC721A.sol\":16824:16836  startTokenId */\n      dup4\n        /* \"erc721a/contracts/ERC721A.sol\":16838:16846  quantity */\n      dup6\n        /* \"erc721a/contracts/ERC721A.sol\":16786:16807  _beforeTokenTransfers */\n      tag_137\n        /* \"erc721a/contracts/ERC721A.sol\":16786:16847  _beforeTokenTransfers(address(0), to, startTokenId, quantity) */\n      jump\t// in\n    tag_246:\n        /* \"erc721a/contracts/ERC721A.sol\":17318:17319  1 */\n      0x01\n        /* \"erc721a/contracts/ERC721A.sol\":1156:1158  64 */\n      0x40\n        /* \"erc721a/contracts/ERC721A.sol\":17289:17290  1 */\n      0x01\n        /* \"erc721a/contracts/ERC721A.sol\":17289:17314  1 << BITPOS_NUMBER_MINTED */\n      swap1\n      shl\n        /* \"erc721a/contracts/ERC721A.sol\":17288:17319  (1 << BITPOS_NUMBER_MINTED) | 1 */\n      or\n        /* \"erc721a/contracts/ERC721A.sol\":17276:17284  quantity */\n      dup3\n        /* \"erc721a/contracts/ERC721A.sol\":17276:17320  quantity * ((1 << BITPOS_NUMBER_MINTED) | 1) */\n      mul\n        /* \"erc721a/contracts/ERC721A.sol\":17250:17268  _packedAddressData */\n      0x05\n        /* \"erc721a/contracts/ERC721A.sol\":17250:17272  _packedAddressData[to] */\n      0x00\n        /* \"erc721a/contracts/ERC721A.sol\":17269:17271  to */\n      dup6\n        /* \"erc721a/contracts/ERC721A.sol\":17250:17272  _packedAddressData[to] */\n      0xffffffffffffffffffffffffffffffffffffffff\n      and\n      0xffffffffffffffffffffffffffffffffffffffff\n      and\n      dup2\n      mstore\n      0x20\n      add\n      swap1\n      dup2\n      mstore\n      0x20\n      add\n      0x00\n      keccak256\n      0x00\n        /* \"erc721a/contracts/ERC721A.sol\":17250:17320  _packedAddressData[to] += quantity * ((1 << BITPOS_NUMBER_MINTED) | 1) */\n      dup3\n      dup3\n      sload\n      add\n      swap3\n      pop\n      pop\n      dup2\n      swap1\n      sstore\n      pop\n        /* \"erc721a/contracts/ERC721A.sol\":17590:17726  _packOwnershipData(... */\n      tag_247\n        /* \"erc721a/contracts/ERC721A.sol\":17626:17628  to */\n      dup4\n        /* \"erc721a/contracts/ERC721A.sol\":17679:17712  _nextExtraData(address(0), to, 0) */\n      tag_248\n        /* \"erc721a/contracts/ERC721A.sol\":17702:17703  0 */\n      0x00\n        /* \"erc721a/contracts/ERC721A.sol\":17706:17708  to */\n      dup7\n        /* \"erc721a/contracts/ERC721A.sol\":17710:17711  0 */\n      0x00\n        /* \"erc721a/contracts/ERC721A.sol\":17679:17693  _nextExtraData */\n      tag_141\n        /* \"erc721a/contracts/ERC721A.sol\":17679:17712  _nextExtraData(address(0), to, 0) */\n      jump\t// in\n    tag_248:\n        /* \"erc721a/contracts/ERC721A.sol\":17646:17676  _nextInitializedFlag(quantity) */\n      tag_249\n        /* \"erc721a/contracts/ERC721A.sol\":17667:17675  quantity */\n      dup6\n        /* \"erc721a/contracts/ERC721A.sol\":17646:17666  _nextInitializedFlag */\n      tag_250\n        /* \"erc721a/contracts/ERC721A.sol\":17646:17676  _nextInitializedFlag(quantity) */\n      jump\t// in\n    tag_249:\n        /* \"erc721a/contracts/ERC721A.sol\":17646:17712  _nextInitializedFlag(quantity) | _nextExtraData(address(0), to, 0) */\n      or\n        /* \"erc721a/contracts/ERC721A.sol\":17590:17608  _packOwnershipData */\n      tag_142\n        /* \"erc721a/contracts/ERC721A.sol\":17590:17726  _packOwnershipData(... */\n      jump\t// in\n    tag_247:\n        /* \"erc721a/contracts/ERC721A.sol\":17556:17573  _packedOwnerships */\n      0x04\n        /* \"erc721a/contracts/ERC721A.sol\":17556:17587  _packedOwnerships[startTokenId] */\n      0x00\n        /* \"erc721a/contracts/ERC721A.sol\":17574:17586  startTokenId */\n      dup4\n        /* \"erc721a/contracts/ERC721A.sol\":17556:17587  _packedOwnerships[startTokenId] */\n      dup2\n      mstore\n      0x20\n      add\n      swap1\n      dup2\n      mstore\n      0x20\n      add\n      0x00\n      keccak256\n        /* \"erc721a/contracts/ERC721A.sol\":17556:17726  _packedOwnerships[startTokenId] = _packOwnershipData(... */\n      dup2\n      swap1\n      sstore\n      pop\n        /* \"erc721a/contracts/ERC721A.sol\":17741:17756  uint256 tokenId */\n      0x00\n        /* \"erc721a/contracts/ERC721A.sol\":17759:17771  startTokenId */\n      dup2\n        /* \"erc721a/contracts/ERC721A.sol\":17741:17771  uint256 tokenId = startTokenId */\n      swap1\n      pop\n        /* \"erc721a/contracts/ERC721A.sol\":17785:17796  uint256 end */\n      0x00\n        /* \"erc721a/contracts/ERC721A.sol\":17814:17822  quantity */\n      dup4\n        /* \"erc721a/contracts/ERC721A.sol\":17799:17811  startTokenId */\n      dup4\n        /* \"erc721a/contracts/ERC721A.sol\":17799:17822  startTokenId + quantity */\n      add\n        /* \"erc721a/contracts/ERC721A.sol\":17785:17822  uint256 end = startTokenId + quantity */\n      swap1\n      pop\n        /* \"erc721a/contracts/ERC721A.sol\":17836:17935  do {... */\n    tag_251:\n        /* \"erc721a/contracts/ERC721A.sol\":17887:17896  tokenId++ */\n      dup2\n      dup1\n      0x01\n      add\n      swap3\n      pop\n        /* \"erc721a/contracts/ERC721A.sol\":17883:17885  to */\n      dup6\n        /* \"erc721a/contracts/ERC721A.sol\":17862:17897  Transfer(address(0), to, tokenId++) */\n      0xffffffffffffffffffffffffffffffffffffffff\n      and\n        /* \"erc721a/contracts/ERC721A.sol\":17879:17880  0 */\n      0x00\n        /* \"erc721a/contracts/ERC721A.sol\":17862:17897  Transfer(address(0), to, tokenId++) */\n      0xffffffffffffffffffffffffffffffffffffffff\n      and\n      0xddf252ad1be2c89b69c2b068fc378daa952ba7f163c4a11628f55a4df523b3ef\n      mload(0x40)\n      mload(0x40)\n      dup1\n      swap2\n      sub\n      swap1\n      log4\n        /* \"erc721a/contracts/ERC721A.sol\":17930:17933  end */\n      dup1\n        /* \"erc721a/contracts/ERC721A.sol\":17920:17927  tokenId */\n      dup3\n        /* \"erc721a/contracts/ERC721A.sol\":17920:17933  tokenId < end */\n      lt\n        /* \"erc721a/contracts/ERC721A.sol\":17836:17935  do {... */\n      tag_251\n      jumpi\n        /* \"erc721a/contracts/ERC721A.sol\":17965:17968  end */\n      dup1\n        /* \"erc721a/contracts/ERC721A.sol\":17949:17962  _currentIndex */\n      0x00\n        /* \"erc721a/contracts/ERC721A.sol\":17949:17968  _currentIndex = end */\n      dup2\n      swap1\n      sstore\n      pop\n        /* \"erc721a/contracts/ERC721A.sol\":17030:17979  unchecked {... */\n      pop\n      pop\n        /* \"erc721a/contracts/ERC721A.sol\":17988:18048  _afterTokenTransfers(address(0), to, startTokenId, quantity) */\n      tag_254\n        /* \"erc721a/contracts/ERC721A.sol\":18017:18018  0 */\n      0x00\n        /* \"erc721a/contracts/ERC721A.sol\":18021:18023  to */\n      dup5\n        /* \"erc721a/contracts/ERC721A.sol\":18025:18037  startTokenId */\n      dup4\n        /* \"erc721a/contracts/ERC721A.sol\":18039:18047  quantity */\n      dup6\n        /* \"erc721a/contracts/ERC721A.sol\":17988:18008  _afterTokenTransfers */\n      tag_147\n        /* \"erc721a/contracts/ERC721A.sol\":17988:18048  _afterTokenTransfers(address(0), to, startTokenId, quantity) */\n      jump\t// in\n    tag_254:\n        /* \"erc721a/contracts/ERC721A.sol\":16617:18055  {... */\n      pop\n        /* \"erc721a/contracts/ERC721A.sol\":16563:18055  function _mint(address to, uint256 quantity) internal {... */\n      pop\n      pop\n      jump\t// out\n        /* \"erc721a/contracts/ERC721A.sol\":12238:12554  function _nextInitializedFlag(uint256 quantity) private pure returns (uint256 result) {... */\n    tag_250:\n        /* \"erc721a/contracts/ERC721A.sol\":12308:12322  uint256 result */\n      0x00\n        /* \"erc721a/contracts/ERC721A.sol\":12535:12536  1 */\n      0x01\n        /* \"erc721a/contracts/ERC721A.sol\":12525:12533  quantity */\n      dup3\n        /* \"erc721a/contracts/ERC721A.sol\":12522:12537  eq(quantity, 1) */\n      eq\n        /* \"erc721a/contracts/ERC721A.sol\":12497:12520  BITPOS_NEXT_INITIALIZED */\n      0xe1\n        /* \"erc721a/contracts/ERC721A.sol\":12493:12538  shl(BITPOS_NEXT_INITIALIZED, eq(quantity, 1)) */\n      shl\n        /* \"erc721a/contracts/ERC721A.sol\":12483:12538  result := shl(BITPOS_NEXT_INITIALIZED, eq(quantity, 1)) */\n      swap1\n      pop\n        /* \"erc721a/contracts/ERC721A.sol\":12238:12554  function _nextInitializedFlag(uint256 quantity) private pure returns (uint256 result) {... */\n      swap2\n      swap1\n      pop\n      jump\t// out\n        /* \"#utility.yul\":7:82   */\n    tag_256:\n        /* \"#utility.yul\":40:46   */\n      0x00\n        /* \"#utility.yul\":73:75   */\n      0x40\n        /* \"#utility.yul\":67:76   */\n      mload\n        /* \"#utility.yul\":57:76   */\n      swap1\n      pop\n        /* \"#utility.yul\":7:82   */\n      swap1\n      jump\t// out\n        /* \"#utility.yul\":88:205   */\n    tag_257:\n        /* \"#utility.yul\":197:198   */\n      0x00\n        /* \"#utility.yul\":194:195   */\n      dup1\n        /* \"#utility.yul\":187:199   */\n      revert\n        /* \"#utility.yul\":211:328   */\n    tag_258:\n        /* \"#utility.yul\":320:321   */\n      0x00\n        /* \"#utility.yul\":317:318   */\n      dup1\n        /* \"#utility.yul\":310:322   */\n      revert\n        /* \"#utility.yul\":334:483   */\n    tag_259:\n        /* \"#utility.yul\":370:377   */\n      0x00\n        /* \"#utility.yul\":410:476   */\n      0xffffffff00000000000000000000000000000000000000000000000000000000\n        /* \"#utility.yul\":403:408   */\n      dup3\n        /* \"#utility.yul\":399:477   */\n      and\n        /* \"#utility.yul\":388:477   */\n      swap1\n      pop\n        /* \"#utility.yul\":334:483   */\n      swap2\n      swap1\n      pop\n      jump\t// out\n        /* \"#utility.yul\":489:609   */\n    tag_260:\n        /* \"#utility.yul\":561:584   */\n      tag_302\n        /* \"#utility.yul\":578:583   */\n      dup2\n        /* \"#utility.yul\":561:584   */\n      tag_259\n      jump\t// in\n    tag_302:\n        /* \"#utility.yul\":554:559   */\n      dup2\n        /* \"#utility.yul\":551:585   */\n      eq\n        /* \"#utility.yul\":541:603   */\n      tag_303\n      jumpi\n        /* \"#utility.yul\":599:600   */\n      0x00\n        /* \"#utility.yul\":596:597   */\n      dup1\n        /* \"#utility.yul\":589:601   */\n      revert\n        /* \"#utility.yul\":541:603   */\n    tag_303:\n        /* \"#utility.yul\":489:609   */\n      pop\n      jump\t// out\n        /* \"#utility.yul\":615:752   */\n    tag_261:\n        /* \"#utility.yul\":660:665   */\n      0x00\n        /* \"#utility.yul\":698:704   */\n      dup2\n        /* \"#utility.yul\":685:705   */\n      calldataload\n        /* \"#utility.yul\":676:705   */\n      swap1\n      pop\n        /* \"#utility.yul\":714:746   */\n      tag_305\n        /* \"#utility.yul\":740:745   */\n      dup2\n        /* \"#utility.yul\":714:746   */\n      tag_260\n      jump\t// in\n    tag_305:\n        /* \"#utility.yul\":615:752   */\n      swap3\n      swap2\n      pop\n      pop\n      jump\t// out\n        /* \"#utility.yul\":758:1085   */\n    tag_23:\n        /* \"#utility.yul\":816:822   */\n      0x00\n        /* \"#utility.yul\":865:867   */\n      0x20\n        /* \"#utility.yul\":853:862   */\n      dup3\n        /* \"#utility.yul\":844:851   */\n      dup5\n        /* \"#utility.yul\":840:863   */\n      sub\n        /* \"#utility.yul\":836:868   */\n      slt\n        /* \"#utility.yul\":833:952   */\n      iszero\n      tag_307\n      jumpi\n        /* \"#utility.yul\":871:950   */\n      tag_308\n      tag_257\n      jump\t// in\n    tag_308:\n        /* \"#utility.yul\":833:952   */\n    tag_307:\n        /* \"#utility.yul\":991:992   */\n      0x00\n        /* \"#utility.yul\":1016:1068   */\n      tag_309\n        /* \"#utility.yul\":1060:1067   */\n      dup5\n        /* \"#utility.yul\":1051:1057   */\n      dup3\n        /* \"#utility.yul\":1040:1049   */\n      dup6\n        /* \"#utility.yul\":1036:1058   */\n      add\n        /* \"#utility.yul\":1016:1068   */\n      tag_261\n      jump\t// in\n    tag_309:\n        /* \"#utility.yul\":1006:1068   */\n      swap2\n      pop\n        /* \"#utility.yul\":962:1078   */\n      pop\n        /* \"#utility.yul\":758:1085   */\n      swap3\n      swap2\n      pop\n      pop\n      jump\t// out\n        /* \"#utility.yul\":1091:1181   */\n    tag_262:\n        /* \"#utility.yul\":1125:1132   */\n      0x00\n        /* \"#utility.yul\":1168:1173   */\n      dup2\n        /* \"#utility.yul\":1161:1174   */\n      iszero\n        /* \"#utility.yul\":1154:1175   */\n      iszero\n        /* \"#utility.yul\":1143:1175   */\n      swap1\n      pop\n        /* \"#utility.yul\":1091:1181   */\n      swap2\n      swap1\n      pop\n      jump\t// out\n        /* \"#utility.yul\":1187:1296   */\n    tag_263:\n        /* \"#utility.yul\":1268:1289   */\n      tag_312\n        /* \"#utility.yul\":1283:1288   */\n      dup2\n        /* \"#utility.yul\":1268:1289   */\n      tag_262\n      jump\t// in\n    tag_312:\n        /* \"#utility.yul\":1263:1266   */\n      dup3\n        /* \"#utility.yul\":1256:1290   */\n      mstore\n        /* \"#utility.yul\":1187:1296   */\n      pop\n      pop\n      jump\t// out\n        /* \"#utility.yul\":1302:1512   */\n    tag_26:\n        /* \"#utility.yul\":1389:1393   */\n      0x00\n        /* \"#utility.yul\":1427:1429   */\n      0x20\n        /* \"#utility.yul\":1416:1425   */\n      dup3\n        /* \"#utility.yul\":1412:1430   */\n      add\n        /* \"#utility.yul\":1404:1430   */\n      swap1\n      pop\n        /* \"#utility.yul\":1440:1505   */\n      tag_314\n        /* \"#utility.yul\":1502:1503   */\n      0x00\n        /* \"#utility.yul\":1491:1500   */\n      dup4\n        /* \"#utility.yul\":1487:1504   */\n      add\n        /* \"#utility.yul\":1478:1484   */\n      dup5\n        /* \"#utility.yul\":1440:1505   */\n      tag_263\n      jump\t// in\n    tag_314:\n        /* \"#utility.yul\":1302:1512   */\n      swap3\n      swap2\n      pop\n      pop\n      jump\t// out\n        /* \"#utility.yul\":1518:1617   */\n    tag_264:\n        /* \"#utility.yul\":1570:1576   */\n      0x00\n        /* \"#utility.yul\":1604:1609   */\n      dup2\n        /* \"#utility.yul\":1598:1610   */\n      mload\n        /* \"#utility.yul\":1588:1610   */\n      swap1\n      pop\n        /* \"#utility.yul\":1518:1617   */\n      swap2\n      swap1\n      pop\n      jump\t// out\n        /* \"#utility.yul\":1623:1792   */\n    tag_265:\n        /* \"#utility.yul\":1707:1718   */\n      0x00\n        /* \"#utility.yul\":1741:1747   */\n      dup3\n        /* \"#utility.yul\":1736:1739   */\n      dup3\n        /* \"#utility.yul\":1729:1748   */\n      mstore\n        /* \"#utility.yul\":1781:1785   */\n      0x20\n        /* \"#utility.yul\":1776:1779   */\n      dup3\n        /* \"#utility.yul\":1772:1786   */\n      add\n        /* \"#utility.yul\":1757:1786   */\n      swap1\n      pop\n        /* \"#utility.yul\":1623:1792   */\n      swap3\n      swap2\n      pop\n      pop\n      jump\t// out\n        /* \"#utility.yul\":1798:2105   */\n    tag_266:\n        /* \"#utility.yul\":1866:1867   */\n      0x00\n        /* \"#utility.yul\":1876:1989   */\n    tag_318:\n        /* \"#utility.yul\":1890:1896   */\n      dup4\n        /* \"#utility.yul\":1887:1888   */\n      dup2\n        /* \"#utility.yul\":1884:1897   */\n      lt\n        /* \"#utility.yul\":1876:1989   */\n      iszero\n      tag_320\n      jumpi\n        /* \"#utility.yul\":1975:1976   */\n      dup1\n        /* \"#utility.yul\":1970:1973   */\n      dup3\n        /* \"#utility.yul\":1966:1977   */\n      add\n        /* \"#utility.yul\":1960:1978   */\n      mload\n        /* \"#utility.yul\":1956:1957   */\n      dup2\n        /* \"#utility.yul\":1951:1954   */\n      dup5\n        /* \"#utility.yul\":1947:1958   */\n      add\n        /* \"#utility.yul\":1940:1979   */\n      mstore\n        /* \"#utility.yul\":1912:1914   */\n      0x20\n        /* \"#utility.yul\":1909:1910   */\n      dup2\n        /* \"#utility.yul\":1905:1915   */\n      add\n        /* \"#utility.yul\":1900:1915   */\n      swap1\n      pop\n        /* \"#utility.yul\":1876:1989   */\n      jump(tag_318)\n    tag_320:\n        /* \"#utility.yul\":2007:2013   */\n      dup4\n        /* \"#utility.yul\":2004:2005   */\n      dup2\n        /* \"#utility.yul\":2001:2014   */\n      gt\n        /* \"#utility.yul\":1998:2099   */\n      iszero\n      tag_321\n      jumpi\n        /* \"#utility.yul\":2087:2088   */\n      0x00\n        /* \"#utility.yul\":2078:2084   */\n      dup5\n        /* \"#utility.yul\":2073:2076   */\n      dup5\n        /* \"#utility.yul\":2069:2085   */\n      add\n        /* \"#utility.yul\":2062:2089   */\n      mstore\n        /* \"#utility.yul\":1998:2099   */\n    tag_321:\n        /* \"#utility.yul\":1847:2105   */\n      pop\n        /* \"#utility.yul\":1798:2105   */\n      pop\n      pop\n      pop\n      jump\t// out\n        /* \"#utility.yul\":2111:2213   */\n    tag_267:\n        /* \"#utility.yul\":2152:2158   */\n      0x00\n        /* \"#utility.yul\":2203:2205   */\n      0x1f\n        /* \"#utility.yul\":2199:2206   */\n      not\n        /* \"#utility.yul\":2194:2196   */\n      0x1f\n        /* \"#utility.yul\":2187:2192   */\n      dup4\n        /* \"#utility.yul\":2183:2197   */\n      add\n        /* \"#utility.yul\":2179:2207   */\n      and\n        /* \"#utility.yul\":2169:2207   */\n      swap1\n      pop\n        /* \"#utility.yul\":2111:2213   */\n      swap2\n      swap1\n      pop\n      jump\t// out\n        /* \"#utility.yul\":2219:2583   */\n    tag_268:\n        /* \"#utility.yul\":2307:2310   */\n      0x00\n        /* \"#utility.yul\":2335:2374   */\n      tag_324\n        /* \"#utility.yul\":2368:2373   */\n      dup3\n        /* \"#utility.yul\":2335:2374   */\n      tag_264\n      jump\t// in\n    tag_324:\n        /* \"#utility.yul\":2390:2461   */\n      tag_325\n        /* \"#utility.yul\":2454:2460   */\n      dup2\n        /* \"#utility.yul\":2449:2452   */\n      dup6\n        /* \"#utility.yul\":2390:2461   */\n      tag_265\n      jump\t// in\n    tag_325:\n        /* \"#utility.yul\":2383:2461   */\n      swap4\n      pop\n        /* \"#utility.yul\":2470:2522   */\n      tag_326\n        /* \"#utility.yul\":2515:2521   */\n      dup2\n        /* \"#utility.yul\":2510:2513   */\n      dup6\n        /* \"#utility.yul\":2503:2507   */\n      0x20\n        /* \"#utility.yul\":2496:2501   */\n      dup7\n        /* \"#utility.yul\":2492:2508   */\n      add\n        /* \"#utility.yul\":2470:2522   */\n      tag_266\n      jump\t// in\n    tag_326:\n        /* \"#utility.yul\":2547:2576   */\n      tag_327\n        /* \"#utility.yul\":2569:2575   */\n      dup2\n        /* \"#utility.yul\":2547:2576   */\n      tag_267\n      jump\t// in\n    tag_327:\n        /* \"#utility.yul\":2542:2545   */\n      dup5\n        /* \"#utility.yul\":2538:2577   */\n      add\n        /* \"#utility.yul\":2531:2577   */\n      swap2\n      pop\n        /* \"#utility.yul\":2311:2583   */\n      pop\n        /* \"#utility.yul\":2219:2583   */\n      swap3\n      swap2\n      pop\n      pop\n      jump\t// out\n        /* \"#utility.yul\":2589:2902   */\n    tag_31:\n        /* \"#utility.yul\":2702:2706   */\n      0x00\n        /* \"#utility.yul\":2740:2742   */\n      0x20\n        /* \"#utility.yul\":2729:2738   */\n      dup3\n        /* \"#utility.yul\":2725:2743   */\n      add\n        /* \"#utility.yul\":2717:2743   */\n      swap1\n      pop\n        /* \"#utility.yul\":2789:2798   */\n      dup2\n        /* \"#utility.yul\":2783:2787   */\n      dup2\n        /* \"#utility.yul\":2779:2799   */\n      sub\n        /* \"#utility.yul\":2775:2776   */\n      0x00\n        /* \"#utility.yul\":2764:2773   */\n      dup4\n        /* \"#utility.yul\":2760:2777   */\n      add\n        /* \"#utility.yul\":2753:2800   */\n      mstore\n        /* \"#utility.yul\":2817:2895   */\n      tag_329\n        /* \"#utility.yul\":2890:2894   */\n      dup2\n        /* \"#utility.yul\":2881:2887   */\n      dup5\n        /* \"#utility.yul\":2817:2895   */\n      tag_268\n      jump\t// in\n    tag_329:\n        /* \"#utility.yul\":2809:2895   */\n      swap1\n      pop\n        /* \"#utility.yul\":2589:2902   */\n      swap3\n      swap2\n      pop\n      pop\n      jump\t// out\n        /* \"#utility.yul\":2908:2985   */\n    tag_269:\n        /* \"#utility.yul\":2945:2952   */\n      0x00\n        /* \"#utility.yul\":2974:2979   */\n      dup2\n        /* \"#utility.yul\":2963:2979   */\n      swap1\n      pop\n        /* \"#utility.yul\":2908:2985   */\n      swap2\n      swap1\n      pop\n      jump\t// out\n        /* \"#utility.yul\":2991:3113   */\n    tag_270:\n        /* \"#utility.yul\":3064:3088   */\n      tag_332\n        /* \"#utility.yul\":3082:3087   */\n      dup2\n        /* \"#utility.yul\":3064:3088   */\n      tag_269\n      jump\t// in\n    tag_332:\n        /* \"#utility.yul\":3057:3062   */\n      dup2\n        /* \"#utility.yul\":3054:3089   */\n      eq\n        /* \"#utility.yul\":3044:3107   */\n      tag_333\n      jumpi\n        /* \"#utility.yul\":3103:3104   */\n      0x00\n        /* \"#utility.yul\":3100:3101   */\n      dup1\n        /* \"#utility.yul\":3093:3105   */\n      revert\n        /* \"#utility.yul\":3044:3107   */\n    tag_333:\n        /* \"#utility.yul\":2991:3113   */\n      pop\n      jump\t// out\n        /* \"#utility.yul\":3119:3258   */\n    tag_271:\n        /* \"#utility.yul\":3165:3170   */\n      0x00\n        /* \"#utility.yul\":3203:3209   */\n      dup2\n        /* \"#utility.yul\":3190:3210   */\n      calldataload\n        /* \"#utility.yul\":3181:3210   */\n      swap1\n      pop\n        /* \"#utility.yul\":3219:3252   */\n      tag_335\n        /* \"#utility.yul\":3246:3251   */\n      dup2\n        /* \"#utility.yul\":3219:3252   */\n      tag_270\n      jump\t// in\n    tag_335:\n        /* \"#utility.yul\":3119:3258   */\n      swap3\n      swap2\n      pop\n      pop\n      jump\t// out\n        /* \"#utility.yul\":3264:3593   */\n    tag_35:\n        /* \"#utility.yul\":3323:3329   */\n      0x00\n        /* \"#utility.yul\":3372:3374   */\n      0x20\n        /* \"#utility.yul\":3360:3369   */\n      dup3\n        /* \"#utility.yul\":3351:3358   */\n      dup5\n        /* \"#utility.yul\":3347:3370   */\n      sub\n        /* \"#utility.yul\":3343:3375   */\n      slt\n        /* \"#utility.yul\":3340:3459   */\n      iszero\n      tag_337\n      jumpi\n        /* \"#utility.yul\":3378:3457   */\n      tag_338\n      tag_257\n      jump\t// in\n    tag_338:\n        /* \"#utility.yul\":3340:3459   */\n    tag_337:\n        /* \"#utility.yul\":3498:3499   */\n      0x00\n        /* \"#utility.yul\":3523:3576   */\n      tag_339\n        /* \"#utility.yul\":3568:3575   */\n      dup5\n        /* \"#utility.yul\":3559:3565   */\n      dup3\n        /* \"#utility.yul\":3548:3557   */\n      dup6\n        /* \"#utility.yul\":3544:3566   */\n      add\n        /* \"#utility.yul\":3523:3576   */\n      tag_271\n      jump\t// in\n    tag_339:\n        /* \"#utility.yul\":3513:3576   */\n      swap2\n      pop\n        /* \"#utility.yul\":3469:3586   */\n      pop\n        /* \"#utility.yul\":3264:3593   */\n      swap3\n      swap2\n      pop\n      pop\n      jump\t// out\n        /* \"#utility.yul\":3599:3725   */\n    tag_272:\n        /* \"#utility.yul\":3636:3643   */\n      0x00\n        /* \"#utility.yul\":3676:3718   */\n      0xffffffffffffffffffffffffffffffffffffffff\n        /* \"#utility.yul\":3669:3674   */\n      dup3\n        /* \"#utility.yul\":3665:3719   */\n      and\n        /* \"#utility.yul\":3654:3719   */\n      swap1\n      pop\n        /* \"#utility.yul\":3599:3725   */\n      swap2\n      swap1\n      pop\n      jump\t// out\n        /* \"#utility.yul\":3731:3827   */\n    tag_273:\n        /* \"#utility.yul\":3768:3775   */\n      0x00\n        /* \"#utility.yul\":3797:3821   */\n      tag_342\n        /* \"#utility.yul\":3815:3820   */\n      dup3\n        /* \"#utility.yul\":3797:3821   */\n      tag_272\n      jump\t// in\n    tag_342:\n        /* \"#utility.yul\":3786:3821   */\n      swap1\n      pop\n        /* \"#utility.yul\":3731:3827   */\n      swap2\n      swap1\n      pop\n      jump\t// out\n        /* \"#utility.yul\":3833:3951   */\n    tag_274:\n        /* \"#utility.yul\":3920:3944   */\n      tag_344\n        /* \"#utility.yul\":3938:3943   */\n      dup2\n        /* \"#utility.yul\":3920:3944   */\n      tag_273\n      jump\t// in\n    tag_344:\n        /* \"#utility.yul\":3915:3918   */\n      dup3\n        /* \"#utility.yul\":3908:3945   */\n      mstore\n        /* \"#utility.yul\":3833:3951   */\n      pop\n      pop\n      jump\t// out\n        /* \"#utility.yul\":3957:4179   */\n    tag_38:\n        /* \"#utility.yul\":4050:4054   */\n      0x00\n        /* \"#utility.yul\":4088:4090   */\n      0x20\n        /* \"#utility.yul\":4077:4086   */\n      dup3\n        /* \"#utility.yul\":4073:4091   */\n      add\n        /* \"#utility.yul\":4065:4091   */\n      swap1\n      pop\n        /* \"#utility.yul\":4101:4172   */\n      tag_346\n        /* \"#utility.yul\":4169:4170   */\n      0x00\n        /* \"#utility.yul\":4158:4167   */\n      dup4\n        /* \"#utility.yul\":4154:4171   */\n      add\n        /* \"#utility.yul\":4145:4151   */\n      dup5\n        /* \"#utility.yul\":4101:4172   */\n      tag_274\n      jump\t// in\n    tag_346:\n        /* \"#utility.yul\":3957:4179   */\n      swap3\n      swap2\n      pop\n      pop\n      jump\t// out\n        /* \"#utility.yul\":4185:4307   */\n    tag_275:\n        /* \"#utility.yul\":4258:4282   */\n      tag_348\n        /* \"#utility.yul\":4276:4281   */\n      dup2\n        /* \"#utility.yul\":4258:4282   */\n      tag_273\n      jump\t// in\n    tag_348:\n        /* \"#utility.yul\":4251:4256   */\n      dup2\n        /* \"#utility.yul\":4248:4283   */\n      eq\n        /* \"#utility.yul\":4238:4301   */\n      tag_349\n      jumpi\n        /* \"#utility.yul\":4297:4298   */\n      0x00\n        /* \"#utility.yul\":4294:4295   */\n      dup1\n        /* \"#utility.yul\":4287:4299   */\n      revert\n        /* \"#utility.yul\":4238:4301   */\n    tag_349:\n        /* \"#utility.yul\":4185:4307   */\n      pop\n      jump\t// out\n        /* \"#utility.yul\":4313:4452   */\n    tag_276:\n        /* \"#utility.yul\":4359:4364   */\n      0x00\n        /* \"#utility.yul\":4397:4403   */\n      dup2\n        /* \"#utility.yul\":4384:4404   */\n      calldataload\n        /* \"#utility.yul\":4375:4404   */\n      swap1\n      pop\n        /* \"#utility.yul\":4413:4446   */\n      tag_351\n        /* \"#utility.yul\":4440:4445   */\n      dup2\n        /* \"#utility.yul\":4413:4446   */\n      tag_275\n      jump\t// in\n    tag_351:\n        /* \"#utility.yul\":4313:4452   */\n      swap3\n      swap2\n      pop\n      pop\n      jump\t// out\n        /* \"#utility.yul\":4458:4932   */\n    tag_42:\n        /* \"#utility.yul\":4526:4532   */\n      0x00\n        /* \"#utility.yul\":4534:4540   */\n      dup1\n        /* \"#utility.yul\":4583:4585   */\n      0x40\n        /* \"#utility.yul\":4571:4580   */\n      dup4\n        /* \"#utility.yul\":4562:4569   */\n      dup6\n        /* \"#utility.yul\":4558:4581   */\n      sub\n        /* \"#utility.yul\":4554:4586   */\n      slt\n        /* \"#utility.yul\":4551:4670   */\n      iszero\n      tag_353\n      jumpi\n        /* \"#utility.yul\":4589:4668   */\n      tag_354\n      tag_257\n      jump\t// in\n    tag_354:\n        /* \"#utility.yul\":4551:4670   */\n    tag_353:\n        /* \"#utility.yul\":4709:4710   */\n      0x00\n        /* \"#utility.yul\":4734:4787   */\n      tag_355\n        /* \"#utility.yul\":4779:4786   */\n      dup6\n        /* \"#utility.yul\":4770:4776   */\n      dup3\n        /* \"#utility.yul\":4759:4768   */\n      dup7\n        /* \"#utility.yul\":4755:4777   */\n      add\n        /* \"#utility.yul\":4734:4787   */\n      tag_276\n      jump\t// in\n    tag_355:\n        /* \"#utility.yul\":4724:4787   */\n      swap3\n      pop\n        /* \"#utility.yul\":4680:4797   */\n      pop\n        /* \"#utility.yul\":4836:4838   */\n      0x20\n        /* \"#utility.yul\":4862:4915   */\n      tag_356\n        /* \"#utility.yul\":4907:4914   */\n      dup6\n        /* \"#utility.yul\":4898:4904   */\n      dup3\n        /* \"#utility.yul\":4887:4896   */\n      dup7\n        /* \"#utility.yul\":4883:4905   */\n      add\n        /* \"#utility.yul\":4862:4915   */\n      tag_271\n      jump\t// in\n    tag_356:\n        /* \"#utility.yul\":4852:4915   */\n      swap2\n      pop\n        /* \"#utility.yul\":4807:4925   */\n      pop\n        /* \"#utility.yul\":4458:4932   */\n      swap3\n      pop\n      swap3\n      swap1\n      pop\n      jump\t// out\n        /* \"#utility.yul\":4938:5056   */\n    tag_277:\n        /* \"#utility.yul\":5025:5049   */\n      tag_358\n        /* \"#utility.yul\":5043:5048   */\n      dup2\n        /* \"#utility.yul\":5025:5049   */\n      tag_269\n      jump\t// in\n    tag_358:\n        /* \"#utility.yul\":5020:5023   */\n      dup3\n        /* \"#utility.yul\":5013:5050   */\n      mstore\n        /* \"#utility.yul\":4938:5056   */\n      pop\n      pop\n      jump\t// out\n        /* \"#utility.yul\":5062:5284   */\n    tag_48:\n        /* \"#utility.yul\":5155:5159   */\n      0x00\n        /* \"#utility.yul\":5193:5195   */\n      0x20\n        /* \"#utility.yul\":5182:5191   */\n      dup3\n        /* \"#utility.yul\":5178:5196   */\n      add\n        /* \"#utility.yul\":5170:5196   */\n      swap1\n      pop\n        /* \"#utility.yul\":5206:5277   */\n      tag_360\n        /* \"#utility.yul\":5274:5275   */\n      0x00\n        /* \"#utility.yul\":5263:5272   */\n      dup4\n        /* \"#utility.yul\":5259:5276   */\n      add\n        /* \"#utility.yul\":5250:5256   */\n      dup5\n        /* \"#utility.yul\":5206:5277   */\n      tag_277\n      jump\t// in\n    tag_360:\n        /* \"#utility.yul\":5062:5284   */\n      swap3\n      swap2\n      pop\n      pop\n      jump\t// out\n        /* \"#utility.yul\":5290:5909   */\n    tag_52:\n        /* \"#utility.yul\":5367:5373   */\n      0x00\n        /* \"#utility.yul\":5375:5381   */\n      dup1\n        /* \"#utility.yul\":5383:5389   */\n      0x00\n        /* \"#utility.yul\":5432:5434   */\n      0x60\n        /* \"#utility.yul\":5420:5429   */\n      dup5\n        /* \"#utility.yul\":5411:5418   */\n      dup7\n        /* \"#utility.yul\":5407:5430   */\n      sub\n        /* \"#utility.yul\":5403:5435   */\n      slt\n        /* \"#utility.yul\":5400:5519   */\n      iszero\n      tag_362\n      jumpi\n        /* \"#utility.yul\":5438:5517   */\n      tag_363\n      tag_257\n      jump\t// in\n    tag_363:\n        /* \"#utility.yul\":5400:5519   */\n    tag_362:\n        /* \"#utility.yul\":5558:5559   */\n      0x00\n        /* \"#utility.yul\":5583:5636   */\n      tag_364\n        /* \"#utility.yul\":5628:5635   */\n      dup7\n        /* \"#utility.yul\":5619:5625   */\n      dup3\n        /* \"#utility.yul\":5608:5617   */\n      dup8\n        /* \"#utility.yul\":5604:5626   */\n      add\n        /* \"#utility.yul\":5583:5636   */\n      tag_276\n      jump\t// in\n    tag_364:\n        /* \"#utility.yul\":5573:5636   */\n      swap4\n      pop\n        /* \"#utility.yul\":5529:5646   */\n      pop\n        /* \"#utility.yul\":5685:5687   */\n      0x20\n        /* \"#utility.yul\":5711:5764   */\n      tag_365\n        /* \"#utility.yul\":5756:5763   */\n      dup7\n        /* \"#utility.yul\":5747:5753   */\n      dup3\n        /* \"#utility.yul\":5736:5745   */\n      dup8\n        /* \"#utility.yul\":5732:5754   */\n      add\n        /* \"#utility.yul\":5711:5764   */\n      tag_276\n      jump\t// in\n    tag_365:\n        /* \"#utility.yul\":5701:5764   */\n      swap3\n      pop\n        /* \"#utility.yul\":5656:5774   */\n      pop\n        /* \"#utility.yul\":5813:5815   */\n      0x40\n        /* \"#utility.yul\":5839:5892   */\n      tag_366\n        /* \"#utility.yul\":5884:5891   */\n      dup7\n        /* \"#utility.yul\":5875:5881   */\n      dup3\n        /* \"#utility.yul\":5864:5873   */\n      dup8\n        /* \"#utility.yul\":5860:5882   */\n      add\n        /* \"#utility.yul\":5839:5892   */\n      tag_271\n      jump\t// in\n    tag_366:\n        /* \"#utility.yul\":5829:5892   */\n      swap2\n      pop\n        /* \"#utility.yul\":5784:5902   */\n      pop\n        /* \"#utility.yul\":5290:5909   */\n      swap3\n      pop\n      swap3\n      pop\n      swap3\n      jump\t// out\n        /* \"#utility.yul\":5915:6244   */\n    tag_66:\n        /* \"#utility.yul\":5974:5980   */\n      0x00\n        /* \"#utility.yul\":6023:6025   */\n      0x20\n        /* \"#utility.yul\":6011:6020   */\n      dup3\n        /* \"#utility.yul\":6002:6009   */\n      dup5\n        /* \"#utility.yul\":5998:6021   */\n      sub\n        /* \"#utility.yul\":5994:6026   */\n      slt\n        /* \"#utility.yul\":5991:6110   */\n      iszero\n      tag_368\n      jumpi\n        /* \"#utility.yul\":6029:6108   */\n      tag_369\n      tag_257\n      jump\t// in\n    tag_369:\n        /* \"#utility.yul\":5991:6110   */\n    tag_368:\n        /* \"#utility.yul\":6149:6150   */\n      0x00\n        /* \"#utility.yul\":6174:6227   */\n      tag_370\n        /* \"#utility.yul\":6219:6226   */\n      dup5\n        /* \"#utility.yul\":6210:6216   */\n      dup3\n        /* \"#utility.yul\":6199:6208   */\n      dup6\n        /* \"#utility.yul\":6195:6217   */\n      add\n        /* \"#utility.yul\":6174:6227   */\n      tag_276\n      jump\t// in\n    tag_370:\n        /* \"#utility.yul\":6164:6227   */\n      swap2\n      pop\n        /* \"#utility.yul\":6120:6237   */\n      pop\n        /* \"#utility.yul\":5915:6244   */\n      swap3\n      swap2\n      pop\n      pop\n      jump\t// out\n        /* \"#utility.yul\":6250:6366   */\n    tag_278:\n        /* \"#utility.yul\":6320:6341   */\n      tag_372\n        /* \"#utility.yul\":6335:6340   */\n      dup2\n        /* \"#utility.yul\":6320:6341   */\n      tag_262\n      jump\t// in\n    tag_372:\n        /* \"#utility.yul\":6313:6318   */\n      dup2\n        /* \"#utility.yul\":6310:6342   */\n      eq\n        /* \"#utility.yul\":6300:6360   */\n      tag_373\n      jumpi\n        /* \"#utility.yul\":6356:6357   */\n      0x00\n        /* \"#utility.yul\":6353:6354   */\n      dup1\n        /* \"#utility.yul\":6346:6358   */\n      revert\n        /* \"#utility.yul\":6300:6360   */\n    tag_373:\n        /* \"#utility.yul\":6250:6366   */\n      pop\n      jump\t// out\n        /* \"#utility.yul\":6372:6505   */\n    tag_279:\n        /* \"#utility.yul\":6415:6420   */\n      0x00\n        /* \"#utility.yul\":6453:6459   */\n      dup2\n        /* \"#utility.yul\":6440:6460   */\n      calldataload\n        /* \"#utility.yul\":6431:6460   */\n      swap1\n      pop\n        /* \"#utility.yul\":6469:6499   */\n      tag_375\n        /* \"#utility.yul\":6493:6498   */\n      dup2\n        /* \"#utility.yul\":6469:6499   */\n      tag_278\n      jump\t// in\n    tag_375:\n        /* \"#utility.yul\":6372:6505   */\n      swap3\n      swap2\n      pop\n      pop\n      jump\t// out\n        /* \"#utility.yul\":6511:6979   */\n    tag_79:\n        /* \"#utility.yul\":6576:6582   */\n      0x00\n        /* \"#utility.yul\":6584:6590   */\n      dup1\n        /* \"#utility.yul\":6633:6635   */\n      0x40\n        /* \"#utility.yul\":6621:6630   */\n      dup4\n        /* \"#utility.yul\":6612:6619   */\n      dup6\n        /* \"#utility.yul\":6608:6631   */\n      sub\n        /* \"#utility.yul\":6604:6636   */\n      slt\n        /* \"#utility.yul\":6601:6720   */\n      iszero\n      tag_377\n      jumpi\n        /* \"#utility.yul\":6639:6718   */\n      tag_378\n      tag_257\n      jump\t// in\n    tag_378:\n        /* \"#utility.yul\":6601:6720   */\n    tag_377:\n        /* \"#utility.yul\":6759:6760   */\n      0x00\n        /* \"#utility.yul\":6784:6837   */\n      tag_379\n        /* \"#utility.yul\":6829:6836   */\n      dup6\n        /* \"#utility.yul\":6820:6826   */\n      dup3\n        /* \"#utility.yul\":6809:6818   */\n      dup7\n        /* \"#utility.yul\":6805:6827   */\n      add\n        /* \"#utility.yul\":6784:6837   */\n      tag_276\n      jump\t// in\n    tag_379:\n        /* \"#utility.yul\":6774:6837   */\n      swap3\n      pop\n        /* \"#utility.yul\":6730:6847   */\n      pop\n        /* \"#utility.yul\":6886:6888   */\n      0x20\n        /* \"#utility.yul\":6912:6962   */\n      tag_380\n        /* \"#utility.yul\":6954:6961   */\n      dup6\n        /* \"#utility.yul\":6945:6951   */\n      dup3\n        /* \"#utility.yul\":6934:6943   */\n      dup7\n        /* \"#utility.yul\":6930:6952   */\n      add\n        /* \"#utility.yul\":6912:6962   */\n      tag_279\n      jump\t// in\n    tag_380:\n        /* \"#utility.yul\":6902:6962   */\n      swap2\n      pop\n        /* \"#utility.yul\":6857:6972   */\n      pop\n        /* \"#utility.yul\":6511:6979   */\n      swap3\n      pop\n      swap3\n      swap1\n      pop\n      jump\t// out\n        /* \"#utility.yul\":6985:7102   */\n    tag_280:\n        /* \"#utility.yul\":7094:7095   */\n      0x00\n        /* \"#utility.yul\":7091:7092   */\n      dup1\n        /* \"#utility.yul\":7084:7096   */\n      revert\n        /* \"#utility.yul\":7108:7225   */\n    tag_281:\n        /* \"#utility.yul\":7217:7218   */\n      0x00\n        /* \"#utility.yul\":7214:7215   */\n      dup1\n        /* \"#utility.yul\":7207:7219   */\n      revert\n        /* \"#utility.yul\":7231:7411   */\n    tag_282:\n        /* \"#utility.yul\":7279:7356   */\n      0x4e487b7100000000000000000000000000000000000000000000000000000000\n        /* \"#utility.yul\":7276:7277   */\n      0x00\n        /* \"#utility.yul\":7269:7357   */\n      mstore\n        /* \"#utility.yul\":7376:7380   */\n      0x41\n        /* \"#utility.yul\":7373:7374   */\n      0x04\n        /* \"#utility.yul\":7366:7381   */\n      mstore\n        /* \"#utility.yul\":7400:7404   */\n      0x24\n        /* \"#utility.yul\":7397:7398   */\n      0x00\n        /* \"#utility.yul\":7390:7405   */\n      revert\n        /* \"#utility.yul\":7417:7698   */\n    tag_283:\n        /* \"#utility.yul\":7500:7527   */\n      tag_385\n        /* \"#utility.yul\":7522:7526   */\n      dup3\n        /* \"#utility.yul\":7500:7527   */\n      tag_267\n      jump\t// in\n    tag_385:\n        /* \"#utility.yul\":7492:7498   */\n      dup2\n        /* \"#utility.yul\":7488:7528   */\n      add\n        /* \"#utility.yul\":7630:7636   */\n      dup2\n        /* \"#utility.yul\":7618:7628   */\n      dup2\n        /* \"#utility.yul\":7615:7637   */\n      lt\n        /* \"#utility.yul\":7594:7612   */\n      0xffffffffffffffff\n        /* \"#utility.yul\":7582:7592   */\n      dup3\n        /* \"#utility.yul\":7579:7613   */\n      gt\n        /* \"#utility.yul\":7576:7638   */\n      or\n        /* \"#utility.yul\":7573:7661   */\n      iszero\n      tag_386\n      jumpi\n        /* \"#utility.yul\":7641:7659   */\n      tag_387\n      tag_282\n      jump\t// in\n    tag_387:\n        /* \"#utility.yul\":7573:7661   */\n    tag_386:\n        /* \"#utility.yul\":7681:7691   */\n      dup1\n        /* \"#utility.yul\":7677:7679   */\n      0x40\n        /* \"#utility.yul\":7670:7692   */\n      mstore\n        /* \"#utility.yul\":7460:7698   */\n      pop\n        /* \"#utility.yul\":7417:7698   */\n      pop\n      pop\n      jump\t// out\n        /* \"#utility.yul\":7704:7833   */\n    tag_284:\n        /* \"#utility.yul\":7738:7744   */\n      0x00\n        /* \"#utility.yul\":7765:7785   */\n      tag_389\n      tag_256\n      jump\t// in\n    tag_389:\n        /* \"#utility.yul\":7755:7785   */\n      swap1\n      pop\n        /* \"#utility.yul\":7794:7827   */\n      tag_390\n        /* \"#utility.yul\":7822:7826   */\n      dup3\n        /* \"#utility.yul\":7814:7820   */\n      dup3\n        /* \"#utility.yul\":7794:7827   */\n      tag_283\n      jump\t// in\n    tag_390:\n        /* \"#utility.yul\":7704:7833   */\n      swap2\n      swap1\n      pop\n      jump\t// out\n        /* \"#utility.yul\":7839:8146   */\n    tag_285:\n        /* \"#utility.yul\":7900:7904   */\n      0x00\n        /* \"#utility.yul\":7990:8008   */\n      0xffffffffffffffff\n        /* \"#utility.yul\":7982:7988   */\n      dup3\n        /* \"#utility.yul\":7979:8009   */\n      gt\n        /* \"#utility.yul\":7976:8032   */\n      iszero\n      tag_392\n      jumpi\n        /* \"#utility.yul\":8012:8030   */\n      tag_393\n      tag_282\n      jump\t// in\n    tag_393:\n        /* \"#utility.yul\":7976:8032   */\n    tag_392:\n        /* \"#utility.yul\":8050:8079   */\n      tag_394\n        /* \"#utility.yul\":8072:8078   */\n      dup3\n        /* \"#utility.yul\":8050:8079   */\n      tag_267\n      jump\t// in\n    tag_394:\n        /* \"#utility.yul\":8042:8079   */\n      swap1\n      pop\n        /* \"#utility.yul\":8134:8138   */\n      0x20\n        /* \"#utility.yul\":8128:8132   */\n      dup2\n        /* \"#utility.yul\":8124:8139   */\n      add\n        /* \"#utility.yul\":8116:8139   */\n      swap1\n      pop\n        /* \"#utility.yul\":7839:8146   */\n      swap2\n      swap1\n      pop\n      jump\t// out\n        /* \"#utility.yul\":8152:8306   */\n    tag_286:\n        /* \"#utility.yul\":8236:8242   */\n      dup3\n        /* \"#utility.yul\":8231:8234   */\n      dup2\n        /* \"#utility.yul\":8226:8229   */\n      dup4\n        /* \"#utility.yul\":8213:8243   */\n      calldatacopy\n        /* \"#utility.yul\":8298:8299   */\n      0x00\n        /* \"#utility.yul\":8289:8295   */\n      dup4\n        /* \"#utility.yul\":8284:8287   */\n      dup4\n        /* \"#utility.yul\":8280:8296   */\n      add\n        /* \"#utility.yul\":8273:8300   */\n      mstore\n        /* \"#utility.yul\":8152:8306   */\n      pop\n      pop\n      pop\n      jump\t// out\n        /* \"#utility.yul\":8312:8722   */\n    tag_287:\n        /* \"#utility.yul\":8389:8394   */\n      0x00\n        /* \"#utility.yul\":8414:8479   */\n      tag_397\n        /* \"#utility.yul\":8430:8478   */\n      tag_398\n        /* \"#utility.yul\":8471:8477   */\n      dup5\n        /* \"#utility.yul\":8430:8478   */\n      tag_285\n      jump\t// in\n    tag_398:\n        /* \"#utility.yul\":8414:8479   */\n      tag_284\n      jump\t// in\n    tag_397:\n        /* \"#utility.yul\":8405:8479   */\n      swap1\n      pop\n        /* \"#utility.yul\":8502:8508   */\n      dup3\n        /* \"#utility.yul\":8495:8500   */\n      dup2\n        /* \"#utility.yul\":8488:8509   */\n      mstore\n        /* \"#utility.yul\":8540:8544   */\n      0x20\n        /* \"#utility.yul\":8533:8538   */\n      dup2\n        /* \"#utility.yul\":8529:8545   */\n      add\n        /* \"#utility.yul\":8578:8581   */\n      dup5\n        /* \"#utility.yul\":8569:8575   */\n      dup5\n        /* \"#utility.yul\":8564:8567   */\n      dup5\n        /* \"#utility.yul\":8560:8576   */\n      add\n        /* \"#utility.yul\":8557:8582   */\n      gt\n        /* \"#utility.yul\":8554:8666   */\n      iszero\n      tag_399\n      jumpi\n        /* \"#utility.yul\":8585:8664   */\n      tag_400\n      tag_281\n      jump\t// in\n    tag_400:\n        /* \"#utility.yul\":8554:8666   */\n    tag_399:\n        /* \"#utility.yul\":8675:8716   */\n      tag_401\n        /* \"#utility.yul\":8709:8715   */\n      dup5\n        /* \"#utility.yul\":8704:8707   */\n      dup3\n        /* \"#utility.yul\":8699:8702   */\n      dup6\n        /* \"#utility.yul\":8675:8716   */\n      tag_286\n      jump\t// in\n    tag_401:\n        /* \"#utility.yul\":8395:8722   */\n      pop\n        /* \"#utility.yul\":8312:8722   */\n      swap4\n      swap3\n      pop\n      pop\n      pop\n      jump\t// out\n        /* \"#utility.yul\":8741:9079   */\n    tag_288:\n        /* \"#utility.yul\":8796:8801   */\n      0x00\n        /* \"#utility.yul\":8845:8848   */\n      dup3\n        /* \"#utility.yul\":8838:8842   */\n      0x1f\n        /* \"#utility.yul\":8830:8836   */\n      dup4\n        /* \"#utility.yul\":8826:8843   */\n      add\n        /* \"#utility.yul\":8822:8849   */\n      slt\n        /* \"#utility.yul\":8812:8934   */\n      tag_403\n      jumpi\n        /* \"#utility.yul\":8853:8932   */\n      tag_404\n      tag_280\n      jump\t// in\n    tag_404:\n        /* \"#utility.yul\":8812:8934   */\n    tag_403:\n        /* \"#utility.yul\":8970:8976   */\n      dup2\n        /* \"#utility.yul\":8957:8977   */\n      calldataload\n        /* \"#utility.yul\":8995:9073   */\n      tag_405\n        /* \"#utility.yul\":9069:9072   */\n      dup5\n        /* \"#utility.yul\":9061:9067   */\n      dup3\n        /* \"#utility.yul\":9054:9058   */\n      0x20\n        /* \"#utility.yul\":9046:9052   */\n      dup7\n        /* \"#utility.yul\":9042:9059   */\n      add\n        /* \"#utility.yul\":8995:9073   */\n      tag_287\n      jump\t// in\n    tag_405:\n        /* \"#utility.yul\":8986:9073   */\n      swap2\n      pop\n        /* \"#utility.yul\":8802:9079   */\n      pop\n        /* \"#utility.yul\":8741:9079   */\n      swap3\n      swap2\n      pop\n      pop\n      jump\t// out\n        /* \"#utility.yul\":9085:10028   */\n    tag_84:\n        /* \"#utility.yul\":9180:9186   */\n      0x00\n        /* \"#utility.yul\":9188:9194   */\n      dup1\n        /* \"#utility.yul\":9196:9202   */\n      0x00\n        /* \"#utility.yul\":9204:9210   */\n      dup1\n        /* \"#utility.yul\":9253:9256   */\n      0x80\n        /* \"#utility.yul\":9241:9250   */\n      dup6\n        /* \"#utility.yul\":9232:9239   */\n      dup8\n        /* \"#utility.yul\":9228:9251   */\n      sub\n        /* \"#utility.yul\":9224:9257   */\n      slt\n        /* \"#utility.yul\":9221:9341   */\n      iszero\n      tag_407\n      jumpi\n        /* \"#utility.yul\":9260:9339   */\n      tag_408\n      tag_257\n      jump\t// in\n    tag_408:\n        /* \"#utility.yul\":9221:9341   */\n    tag_407:\n        /* \"#utility.yul\":9380:9381   */\n      0x00\n        /* \"#utility.yul\":9405:9458   */\n      tag_409\n        /* \"#utility.yul\":9450:9457   */\n      dup8\n        /* \"#utility.yul\":9441:9447   */\n      dup3\n        /* \"#utility.yul\":9430:9439   */\n      dup9\n        /* \"#utility.yul\":9426:9448   */\n      add\n        /* \"#utility.yul\":9405:9458   */\n      tag_276\n      jump\t// in\n    tag_409:\n        /* \"#utility.yul\":9395:9458   */\n      swap5\n      pop\n        /* \"#utility.yul\":9351:9468   */\n      pop\n        /* \"#utility.yul\":9507:9509   */\n      0x20\n        /* \"#utility.yul\":9533:9586   */\n      tag_410\n        /* \"#utility.yul\":9578:9585   */\n      dup8\n        /* \"#utility.yul\":9569:9575   */\n      dup3\n        /* \"#utility.yul\":9558:9567   */\n      dup9\n        /* \"#utility.yul\":9554:9576   */\n      add\n        /* \"#utility.yul\":9533:9586   */\n      tag_276\n      jump\t// in\n    tag_410:\n        /* \"#utility.yul\":9523:9586   */\n      swap4\n      pop\n        /* \"#utility.yul\":9478:9596   */\n      pop\n        /* \"#utility.yul\":9635:9637   */\n      0x40\n        /* \"#utility.yul\":9661:9714   */\n      tag_411\n        /* \"#utility.yul\":9706:9713   */\n      dup8\n        /* \"#utility.yul\":9697:9703   */\n      dup3\n        /* \"#utility.yul\":9686:9695   */\n      dup9\n        /* \"#utility.yul\":9682:9704   */\n      add\n        /* \"#utility.yul\":9661:9714   */\n      tag_271\n      jump\t// in\n    tag_411:\n        /* \"#utility.yul\":9651:9714   */\n      swap3\n      pop\n        /* \"#utility.yul\":9606:9724   */\n      pop\n        /* \"#utility.yul\":9791:9793   */\n      0x60\n        /* \"#utility.yul\":9780:9789   */\n      dup6\n        /* \"#utility.yul\":9776:9794   */\n      add\n        /* \"#utility.yul\":9763:9795   */\n      calldataload\n        /* \"#utility.yul\":9822:9840   */\n      0xffffffffffffffff\n        /* \"#utility.yul\":9814:9820   */\n      dup2\n        /* \"#utility.yul\":9811:9841   */\n      gt\n        /* \"#utility.yul\":9808:9925   */\n      iszero\n      tag_412\n      jumpi\n        /* \"#utility.yul\":9844:9923   */\n      tag_413\n      tag_258\n      jump\t// in\n    tag_413:\n        /* \"#utility.yul\":9808:9925   */\n    tag_412:\n        /* \"#utility.yul\":9949:10011   */\n      tag_414\n        /* \"#utility.yul\":10003:10010   */\n      dup8\n        /* \"#utility.yul\":9994:10000   */\n      dup3\n        /* \"#utility.yul\":9983:9992   */\n      dup9\n        /* \"#utility.yul\":9979:10001   */\n      add\n        /* \"#utility.yul\":9949:10011   */\n      tag_288\n      jump\t// in\n    tag_414:\n        /* \"#utility.yul\":9939:10011   */\n      swap2\n      pop\n        /* \"#utility.yul\":9734:10021   */\n      pop\n        /* \"#utility.yul\":9085:10028   */\n      swap3\n      swap6\n      swap2\n      swap5\n      pop\n      swap3\n      pop\n      jump\t// out\n        /* \"#utility.yul\":10034:10508   */\n    tag_94:\n        /* \"#utility.yul\":10102:10108   */\n      0x00\n        /* \"#utility.yul\":10110:10116   */\n      dup1\n        /* \"#utility.yul\":10159:10161   */\n      0x40\n        /* \"#utility.yul\":10147:10156   */\n      dup4\n        /* \"#utility.yul\":10138:10145   */\n      dup6\n        /* \"#utility.yul\":10134:10157   */\n      sub\n        /* \"#utility.yul\":10130:10162   */\n      slt\n        /* \"#utility.yul\":10127:10246   */\n      iszero\n      tag_416\n      jumpi\n        /* \"#utility.yul\":10165:10244   */\n      tag_417\n      tag_257\n      jump\t// in\n    tag_417:\n        /* \"#utility.yul\":10127:10246   */\n    tag_416:\n        /* \"#utility.yul\":10285:10286   */\n      0x00\n        /* \"#utility.yul\":10310:10363   */\n      tag_418\n        /* \"#utility.yul\":10355:10362   */\n      dup6\n        /* \"#utility.yul\":10346:10352   */\n      dup3\n        /* \"#utility.yul\":10335:10344   */\n      dup7\n        /* \"#utility.yul\":10331:10353   */\n      add\n        /* \"#utility.yul\":10310:10363   */\n      tag_276\n      jump\t// in\n    tag_418:\n        /* \"#utility.yul\":10300:10363   */\n      swap3\n      pop\n        /* \"#utility.yul\":10256:10373   */\n      pop\n        /* \"#utility.yul\":10412:10414   */\n      0x20\n        /* \"#utility.yul\":10438:10491   */\n      tag_419\n        /* \"#utility.yul\":10483:10490   */\n      dup6\n        /* \"#utility.yul\":10474:10480   */\n      dup3\n        /* \"#utility.yul\":10463:10472   */\n      dup7\n        /* \"#utility.yul\":10459:10481   */\n      add\n        /* \"#utility.yul\":10438:10491   */\n      tag_276\n      jump\t// in\n    tag_419:\n        /* \"#utility.yul\":10428:10491   */\n      swap2\n      pop\n        /* \"#utility.yul\":10383:10501   */\n      pop\n        /* \"#utility.yul\":10034:10508   */\n      swap3\n      pop\n      swap3\n      swap1\n      pop\n      jump\t// out\n        /* \"#utility.yul\":10514:10694   */\n    tag_289:\n        /* \"#utility.yul\":10562:10639   */\n      0x4e487b7100000000000000000000000000000000000000000000000000000000\n        /* \"#utility.yul\":10559:10560   */\n      0x00\n        /* \"#utility.yul\":10552:10640   */\n      mstore\n        /* \"#utility.yul\":10659:10663   */\n      0x22\n        /* \"#utility.yul\":10656:10657   */\n      0x04\n        /* \"#utility.yul\":10649:10664   */\n      mstore\n        /* \"#utility.yul\":10683:10687   */\n      0x24\n        /* \"#utility.yul\":10680:10681   */\n      0x00\n        /* \"#utility.yul\":10673:10688   */\n      revert\n        /* \"#utility.yul\":10700:11020   */\n    tag_102:\n        /* \"#utility.yul\":10744:10750   */\n      0x00\n        /* \"#utility.yul\":10781:10782   */\n      0x02\n        /* \"#utility.yul\":10775:10779   */\n      dup3\n        /* \"#utility.yul\":10771:10783   */\n      div\n        /* \"#utility.yul\":10761:10783   */\n      swap1\n      pop\n        /* \"#utility.yul\":10828:10829   */\n      0x01\n        /* \"#utility.yul\":10822:10826   */\n      dup3\n        /* \"#utility.yul\":10818:10830   */\n      and\n        /* \"#utility.yul\":10849:10867   */\n      dup1\n        /* \"#utility.yul\":10839:10920   */\n      tag_422\n      jumpi\n        /* \"#utility.yul\":10905:10909   */\n      0x7f\n        /* \"#utility.yul\":10897:10903   */\n      dup3\n        /* \"#utility.yul\":10893:10910   */\n      and\n        /* \"#utility.yul\":10883:10910   */\n      swap2\n      pop\n        /* \"#utility.yul\":10839:10920   */\n    tag_422:\n        /* \"#utility.yul\":10967:10969   */\n      0x20\n        /* \"#utility.yul\":10959:10965   */\n      dup3\n        /* \"#utility.yul\":10956:10970   */\n      lt\n        /* \"#utility.yul\":10936:10954   */\n      dup2\n        /* \"#utility.yul\":10933:10971   */\n      sub\n        /* \"#utility.yul\":10930:11014   */\n      tag_423\n      jumpi\n        /* \"#utility.yul\":10986:11004   */\n      tag_424\n      tag_289\n      jump\t// in\n    tag_424:\n        /* \"#utility.yul\":10930:11014   */\n    tag_423:\n        /* \"#utility.yul\":10751:11020   */\n      pop\n        /* \"#utility.yul\":10700:11020   */\n      swap2\n      swap1\n      pop\n      jump\t// out\n        /* \"#utility.yul\":11026:11174   */\n    tag_290:\n        /* \"#utility.yul\":11128:11139   */\n      0x00\n        /* \"#utility.yul\":11165:11168   */\n      dup2\n        /* \"#utility.yul\":11150:11168   */\n      swap1\n      pop\n        /* \"#utility.yul\":11026:11174   */\n      swap3\n      swap2\n      pop\n      pop\n      jump\t// out\n        /* \"#utility.yul\":11180:11557   */\n    tag_291:\n        /* \"#utility.yul\":11286:11289   */\n      0x00\n        /* \"#utility.yul\":11314:11353   */\n      tag_427\n        /* \"#utility.yul\":11347:11352   */\n      dup3\n        /* \"#utility.yul\":11314:11353   */\n      tag_264\n      jump\t// in\n    tag_427:\n        /* \"#utility.yul\":11369:11458   */\n      tag_428\n        /* \"#utility.yul\":11451:11457   */\n      dup2\n        /* \"#utility.yul\":11446:11449   */\n      dup6\n        /* \"#utility.yul\":11369:11458   */\n      tag_290\n      jump\t// in\n    tag_428:\n        /* \"#utility.yul\":11362:11458   */\n      swap4\n      pop\n        /* \"#utility.yul\":11467:11519   */\n      tag_429\n        /* \"#utility.yul\":11512:11518   */\n      dup2\n        /* \"#utility.yul\":11507:11510   */\n      dup6\n        /* \"#utility.yul\":11500:11504   */\n      0x20\n        /* \"#utility.yul\":11493:11498   */\n      dup7\n        /* \"#utility.yul\":11489:11505   */\n      add\n        /* \"#utility.yul\":11467:11519   */\n      tag_266\n      jump\t// in\n    tag_429:\n        /* \"#utility.yul\":11544:11550   */\n      dup1\n        /* \"#utility.yul\":11539:11542   */\n      dup5\n        /* \"#utility.yul\":11535:11551   */\n      add\n        /* \"#utility.yul\":11528:11551   */\n      swap2\n      pop\n        /* \"#utility.yul\":11290:11557   */\n      pop\n        /* \"#utility.yul\":11180:11557   */\n      swap3\n      swap2\n      pop\n      pop\n      jump\t// out\n        /* \"#utility.yul\":11563:11998   */\n    tag_185:\n        /* \"#utility.yul\":11743:11746   */\n      0x00\n        /* \"#utility.yul\":11765:11860   */\n      tag_431\n        /* \"#utility.yul\":11856:11859   */\n      dup3\n        /* \"#utility.yul\":11847:11853   */\n      dup6\n        /* \"#utility.yul\":11765:11860   */\n      tag_291\n      jump\t// in\n    tag_431:\n        /* \"#utility.yul\":11758:11860   */\n      swap2\n      pop\n        /* \"#utility.yul\":11877:11972   */\n      tag_432\n        /* \"#utility.yul\":11968:11971   */\n      dup3\n        /* \"#utility.yul\":11959:11965   */\n      dup5\n        /* \"#utility.yul\":11877:11972   */\n      tag_291\n      jump\t// in\n    tag_432:\n        /* \"#utility.yul\":11870:11972   */\n      swap2\n      pop\n        /* \"#utility.yul\":11989:11992   */\n      dup2\n        /* \"#utility.yul\":11982:11992   */\n      swap1\n      pop\n        /* \"#utility.yul\":11563:11998   */\n      swap4\n      swap3\n      pop\n      pop\n      pop\n      jump\t// out\n        /* \"#utility.yul\":12004:12102   */\n    tag_292:\n        /* \"#utility.yul\":12055:12061   */\n      0x00\n        /* \"#utility.yul\":12089:12094   */\n      dup2\n        /* \"#utility.yul\":12083:12095   */\n      mload\n        /* \"#utility.yul\":12073:12095   */\n      swap1\n      pop\n        /* \"#utility.yul\":12004:12102   */\n      swap2\n      swap1\n      pop\n      jump\t// out\n        /* \"#utility.yul\":12108:12276   */\n    tag_293:\n        /* \"#utility.yul\":12191:12202   */\n      0x00\n        /* \"#utility.yul\":12225:12231   */\n      dup3\n        /* \"#utility.yul\":12220:12223   */\n      dup3\n        /* \"#utility.yul\":12213:12232   */\n      mstore\n        /* \"#utility.yul\":12265:12269   */\n      0x20\n        /* \"#utility.yul\":12260:12263   */\n      dup3\n        /* \"#utility.yul\":12256:12270   */\n      add\n        /* \"#utility.yul\":12241:12270   */\n      swap1\n      pop\n        /* \"#utility.yul\":12108:12276   */\n      swap3\n      swap2\n      pop\n      pop\n      jump\t// out\n        /* \"#utility.yul\":12282:12642   */\n    tag_294:\n        /* \"#utility.yul\":12368:12371   */\n      0x00\n        /* \"#utility.yul\":12396:12434   */\n      tag_436\n        /* \"#utility.yul\":12428:12433   */\n      dup3\n        /* \"#utility.yul\":12396:12434   */\n      tag_292\n      jump\t// in\n    tag_436:\n        /* \"#utility.yul\":12450:12520   */\n      tag_437\n        /* \"#utility.yul\":12513:12519   */\n      dup2\n        /* \"#utility.yul\":12508:12511   */\n      dup6\n        /* \"#utility.yul\":12450:12520   */\n      tag_293\n      jump\t// in\n    tag_437:\n        /* \"#utility.yul\":12443:12520   */\n      swap4\n      pop\n        /* \"#utility.yul\":12529:12581   */\n      tag_438\n        /* \"#utility.yul\":12574:12580   */\n      dup2\n        /* \"#utility.yul\":12569:12572   */\n      dup6\n        /* \"#utility.yul\":12562:12566   */\n      0x20\n        /* \"#utility.yul\":12555:12560   */\n      dup7\n        /* \"#utility.yul\":12551:12567   */\n      add\n        /* \"#utility.yul\":12529:12581   */\n      tag_266\n      jump\t// in\n    tag_438:\n        /* \"#utility.yul\":12606:12635   */\n      tag_439\n        /* \"#utility.yul\":12628:12634   */\n      dup2\n        /* \"#utility.yul\":12606:12635   */\n      tag_267\n      jump\t// in\n    tag_439:\n        /* \"#utility.yul\":12601:12604   */\n      dup5\n        /* \"#utility.yul\":12597:12636   */\n      add\n        /* \"#utility.yul\":12590:12636   */\n      swap2\n      pop\n        /* \"#utility.yul\":12372:12642   */\n      pop\n        /* \"#utility.yul\":12282:12642   */\n      swap3\n      swap2\n      pop\n      pop\n      jump\t// out\n        /* \"#utility.yul\":12648:13288   */\n    tag_214:\n        /* \"#utility.yul\":12843:12847   */\n      0x00\n        /* \"#utility.yul\":12881:12884   */\n      0x80\n        /* \"#utility.yul\":12870:12879   */\n      dup3\n        /* \"#utility.yul\":12866:12885   */\n      add\n        /* \"#utility.yul\":12858:12885   */\n      swap1\n      pop\n        /* \"#utility.yul\":12895:12966   */\n      tag_441\n        /* \"#utility.yul\":12963:12964   */\n      0x00\n        /* \"#utility.yul\":12952:12961   */\n      dup4\n        /* \"#utility.yul\":12948:12965   */\n      add\n        /* \"#utility.yul\":12939:12945   */\n      dup8\n        /* \"#utility.yul\":12895:12966   */\n      tag_274\n      jump\t// in\n    tag_441:\n        /* \"#utility.yul\":12976:13048   */\n      tag_442\n        /* \"#utility.yul\":13044:13046   */\n      0x20\n        /* \"#utility.yul\":13033:13042   */\n      dup4\n        /* \"#utility.yul\":13029:13047   */\n      add\n        /* \"#utility.yul\":13020:13026   */\n      dup7\n        /* \"#utility.yul\":12976:13048   */\n      tag_274\n      jump\t// in\n    tag_442:\n        /* \"#utility.yul\":13058:13130   */\n      tag_443\n        /* \"#utility.yul\":13126:13128   */\n      0x40\n        /* \"#utility.yul\":13115:13124   */\n      dup4\n        /* \"#utility.yul\":13111:13129   */\n      add\n        /* \"#utility.yul\":13102:13108   */\n      dup6\n        /* \"#utility.yul\":13058:13130   */\n      tag_277\n      jump\t// in\n    tag_443:\n        /* \"#utility.yul\":13177:13186   */\n      dup2\n        /* \"#utility.yul\":13171:13175   */\n      dup2\n        /* \"#utility.yul\":13167:13187   */\n      sub\n        /* \"#utility.yul\":13162:13164   */\n      0x60\n        /* \"#utility.yul\":13151:13160   */\n      dup4\n        /* \"#utility.yul\":13147:13165   */\n      add\n        /* \"#utility.yul\":13140:13188   */\n      mstore\n        /* \"#utility.yul\":13205:13281   */\n      tag_444\n        /* \"#utility.yul\":13276:13280   */\n      dup2\n        /* \"#utility.yul\":13267:13273   */\n      dup5\n        /* \"#utility.yul\":13205:13281   */\n      tag_294\n      jump\t// in\n    tag_444:\n        /* \"#utility.yul\":13197:13281   */\n      swap1\n      pop\n        /* \"#utility.yul\":12648:13288   */\n      swap6\n      swap5\n      pop\n      pop\n      pop\n      pop\n      pop\n      jump\t// out\n        /* \"#utility.yul\":13294:13435   */\n    tag_295:\n        /* \"#utility.yul\":13350:13355   */\n      0x00\n        /* \"#utility.yul\":13381:13387   */\n      dup2\n        /* \"#utility.yul\":13375:13388   */\n      mload\n        /* \"#utility.yul\":13366:13388   */\n      swap1\n      pop\n        /* \"#utility.yul\":13397:13429   */\n      tag_446\n        /* \"#utility.yul\":13423:13428   */\n      dup2\n        /* \"#utility.yul\":13397:13429   */\n      tag_260\n      jump\t// in\n    tag_446:\n        /* \"#utility.yul\":13294:13435   */\n      swap3\n      swap2\n      pop\n      pop\n      jump\t// out\n        /* \"#utility.yul\":13441:13790   */\n    tag_217:\n        /* \"#utility.yul\":13510:13516   */\n      0x00\n        /* \"#utility.yul\":13559:13561   */\n      0x20\n        /* \"#utility.yul\":13547:13556   */\n      dup3\n        /* \"#utility.yul\":13538:13545   */\n      dup5\n        /* \"#utility.yul\":13534:13557   */\n      sub\n        /* \"#utility.yul\":13530:13562   */\n      slt\n        /* \"#utility.yul\":13527:13646   */\n      iszero\n      tag_448\n      jumpi\n        /* \"#utility.yul\":13565:13644   */\n      tag_449\n      tag_257\n      jump\t// in\n    tag_449:\n        /* \"#utility.yul\":13527:13646   */\n    tag_448:\n        /* \"#utility.yul\":13685:13686   */\n      0x00\n        /* \"#utility.yul\":13710:13773   */\n      tag_450\n        /* \"#utility.yul\":13765:13772   */\n      dup5\n        /* \"#utility.yul\":13756:13762   */\n      dup3\n        /* \"#utility.yul\":13745:13754   */\n      dup6\n        /* \"#utility.yul\":13741:13763   */\n      add\n        /* \"#utility.yul\":13710:13773   */\n      tag_295\n      jump\t// in\n    tag_450:\n        /* \"#utility.yul\":13700:13773   */\n      swap2\n      pop\n        /* \"#utility.yul\":13656:13783   */\n      pop\n        /* \"#utility.yul\":13441:13790   */\n      swap3\n      swap2\n      pop\n      pop\n      jump\t// out\n\n    auxdata: 0xa2646970667358221220ff8f2194903594cb3b298e83eaff81e1ba12adb2b9ad01fb778847acc07f8ce064736f6c634300080f0033\n}\n",
				"bytecode": {
					"linkReferences": {},
					"object": "60806040523480156200001157600080fd5b506040518060400160405280600581526020017f417a756b690000000000000000000000000000000000000000000000000000008152506040518060400160405280600581526020017f415a554b4900000000000000000000000000000000000000000000000000000081525081600290816200008f91906200033f565b508060039081620000a191906200033f565b50620000b2620000c060201b60201c565b600081905550505062000426565b600090565b600081519050919050565b7f4e487b7100000000000000000000000000000000000000000000000000000000600052604160045260246000fd5b7f4e487b7100000000000000000000000000000000000000000000000000000000600052602260045260246000fd5b600060028204905060018216806200014757607f821691505b6020821081036200015d576200015c620000ff565b5b50919050565b60008190508160005260206000209050919050565b60006020601f8301049050919050565b600082821b905092915050565b600060088302620001c77fffffffffffffffffffffffffffffffffffffffffffffffffffffffffffffffff8262000188565b620001d3868362000188565b95508019841693508086168417925050509392505050565b6000819050919050565b6000819050919050565b6000620002206200021a6200021484620001eb565b620001f5565b620001eb565b9050919050565b6000819050919050565b6200023c83620001ff565b620002546200024b8262000227565b84845462000195565b825550505050565b600090565b6200026b6200025c565b6200027881848462000231565b505050565b5b81811015620002a0576200029460008262000261565b6001810190506200027e565b5050565b601f821115620002ef57620002b98162000163565b620002c48462000178565b81016020851015620002d4578190505b620002ec620002e38562000178565b8301826200027d565b50505b505050565b600082821c905092915050565b60006200031460001984600802620002f4565b1980831691505092915050565b60006200032f838362000301565b9150826002028217905092915050565b6200034a82620000c5565b67ffffffffffffffff811115620003665762000365620000d0565b5b6200037282546200012e565b6200037f828285620002a4565b600060209050601f831160018114620003b75760008415620003a2578287015190505b620003ae858262000321565b8655506200041e565b601f198416620003c78662000163565b60005b82811015620003f157848901518255600182019150602085019450602081019050620003ca565b868310156200041157848901516200040d601f89168262000301565b8355505b6001600288020188555050505b505050505050565b611c8480620004366000396000f3fe6080604052600436106100e85760003560e01c80636352211e1161008a578063a22cb46511610059578063a22cb465146102f9578063b88d4fde14610322578063c87b56dd1461034b578063e985e9c514610388576100e8565b80636352211e1461023857806370a082311461027557806395d89b41146102b2578063a0712d68146102dd576100e8565b8063095ea7b3116100c6578063095ea7b31461019257806318160ddd146101bb57806323b872dd146101e657806342842e0e1461020f576100e8565b806301ffc9a7146100ed57806306fdde031461012a578063081812fc14610155575b600080fd5b3480156100f957600080fd5b50610114600480360381019061010f9190611554565b6103c5565b604051610121919061159c565b60405180910390f35b34801561013657600080fd5b5061013f610457565b60405161014c9190611650565b60405180910390f35b34801561016157600080fd5b5061017c600480360381019061017791906116a8565b6104e9565b6040516101899190611716565b60405180910390f35b34801561019e57600080fd5b506101b960048036038101906101b4919061175d565b610565565b005b3480156101c757600080fd5b506101d06106a6565b6040516101dd91906117ac565b60405180910390f35b3480156101f257600080fd5b5061020d600480360381019061020891906117c7565b6106bd565b005b34801561021b57600080fd5b50610236600480360381019061023191906117c7565b6109df565b005b34801561024457600080fd5b5061025f600480360381019061025a91906116a8565b6109ff565b60405161026c9190611716565b60405180910390f35b34801561028157600080fd5b5061029c6004803603810190610297919061181a565b610a11565b6040516102a991906117ac565b60405180910390f35b3480156102be57600080fd5b506102c7610ac9565b6040516102d49190611650565b60405180910390f35b6102f760048036038101906102f291906116a8565b610b5b565b005b34801561030557600080fd5b50610320600480360381019061031b9190611873565b610b68565b005b34801561032e57600080fd5b50610349600480360381019061034491906119e8565b610cdf565b005b34801561035757600080fd5b50610372600480360381019061036d91906116a8565b610d52565b60405161037f9190611650565b60405180910390f35b34801561039457600080fd5b506103af60048036038101906103aa9190611a6b565b610df0565b6040516103bc919061159c565b60405180910390f35b60006301ffc9a760e01b827bffffffffffffffffffffffffffffffffffffffffffffffffffffffff1916148061042057506380ac58cd60e01b827bffffffffffffffffffffffffffffffffffffffffffffffffffffffff1916145b806104505750635b5e139f60e01b827bffffffffffffffffffffffffffffffffffffffffffffffffffffffff1916145b9050919050565b60606002805461046690611ada565b80601f016020809104026020016040519081016040528092919081815260200182805461049290611ada565b80156104df5780601f106104b4576101008083540402835291602001916104df565b820191906000526020600020905b8154815290600101906020018083116104c257829003601f168201915b5050505050905090565b60006104f482610e84565b61052a576040517fcf4700e400000000000000000000000000000000000000000000000000000000815260040160405180910390fd5b6006600083815260200190815260200160002060009054906101000a900473ffffffffffffffffffffffffffffffffffffffff169050919050565b6000610570826109ff565b90508073ffffffffffffffffffffffffffffffffffffffff16610591610ee3565b73ffffffffffffffffffffffffffffffffffffffff16146105f4576105bd816105b8610ee3565b610df0565b6105f3576040517fcfb3b94200000000000000000000000000000000000000000000000000000000815260040160405180910390fd5b5b826006600084815260200190815260200160002060006101000a81548173ffffffffffffffffffffffffffffffffffffffff021916908373ffffffffffffffffffffffffffffffffffffffff160217905550818373ffffffffffffffffffffffffffffffffffffffff168273ffffffffffffffffffffffffffffffffffffffff167f8c5be1e5ebec7d5bd14f71427d1e84f3dd0314c0f7b2291e5b200ac8c7c3b92560405160405180910390a4505050565b60006106b0610eeb565b6001546000540303905090565b60006106c882610ef0565b90508373ffffffffffffffffffffffffffffffffffffffff168173ffffffffffffffffffffffffffffffffffffffff161461072f576040517fa114810000000000000000000000000000000000000000000000000000000000815260040160405180910390fd5b60008061073b84610fbc565b91509150610751818761074c610ee3565b610fde565b61079d5761076686610761610ee3565b610df0565b61079c576040517f59c896be00000000000000000000000000000000000000000000000000000000815260040160405180910390fd5b5b600073ffffffffffffffffffffffffffffffffffffffff168573ffffffffffffffffffffffffffffffffffffffff1603610803576040517fea553b3400000000000000000000000000000000000000000000000000000000815260040160405180910390fd5b6108108686866001611022565b801561081b57600082555b600560008773ffffffffffffffffffffffffffffffffffffffff1673ffffffffffffffffffffffffffffffffffffffff168152602001908152602001600020600081546001900391905081905550600560008673ffffffffffffffffffffffffffffffffffffffff1673ffffffffffffffffffffffffffffffffffffffff16815260200190815260200160002060008154600101919050819055506108e9856108c5888887611028565b7c020000000000000000000000000000000000000000000000000000000017611050565b600460008681526020019081526020016000208190555060007c020000000000000000000000000000000000000000000000000000000084160361096f576000600185019050600060046000838152602001908152602001600020540361096d57600054811461096c578360046000838152602001908152602001600020819055505b5b505b838573ffffffffffffffffffffffffffffffffffffffff168773ffffffffffffffffffffffffffffffffffffffff167fddf252ad1be2c89b69c2b068fc378daa952ba7f163c4a11628f55a4df523b3ef60405160405180910390a46109d7868686600161107b565b505050505050565b6109fa83838360405180602001604052806000815250610cdf565b505050565b6000610a0a82610ef0565b9050919050565b60008073ffffffffffffffffffffffffffffffffffffffff168273ffffffffffffffffffffffffffffffffffffffff1603610a78576040517f8f4eb60400000000000000000000000000000000000000000000000000000000815260040160405180910390fd5b67ffffffffffffffff600560008473ffffffffffffffffffffffffffffffffffffffff1673ffffffffffffffffffffffffffffffffffffffff16815260200190815260200160002054169050919050565b606060038054610ad890611ada565b80601f0160208091040260200160405190810160405280929190818152602001828054610b0490611ada565b8015610b515780601f10610b2657610100808354040283529160200191610b51565b820191906000526020600020905b815481529060010190602001808311610b3457829003601f168201915b5050505050905090565b610b653382611081565b50565b610b70610ee3565b73ffffffffffffffffffffffffffffffffffffffff168273ffffffffffffffffffffffffffffffffffffffff1603610bd4576040517fb06307db00000000000000000000000000000000000000000000000000000000815260040160405180910390fd5b8060076000610be1610ee3565b73ffffffffffffffffffffffffffffffffffffffff1673ffffffffffffffffffffffffffffffffffffffff16815260200190815260200160002060008473ffffffffffffffffffffffffffffffffffffffff1673ffffffffffffffffffffffffffffffffffffffff16815260200190815260200160002060006101000a81548160ff0219169083151502179055508173ffffffffffffffffffffffffffffffffffffffff16610c8e610ee3565b73ffffffffffffffffffffffffffffffffffffffff167f17307eab39ab6107e8899845ad3d59bd9653f200f220920489ca2b5937696c3183604051610cd3919061159c565b60405180910390a35050565b610cea8484846106bd565b60008373ffffffffffffffffffffffffffffffffffffffff163b14610d4c57610d158484848461109f565b610d4b576040517fd1a57ed600000000000000000000000000000000000000000000000000000000815260040160405180910390fd5b5b50505050565b6060610d5d82610e84565b610d93576040517fa14c4b5000000000000000000000000000000000000000000000000000000000815260040160405180910390fd5b6000610d9d6111ef565b90506000815103610dbd5760405180602001604052806000815250610de8565b80610dc784611206565b604051602001610dd8929190611b47565b6040516020818303038152906040525b915050919050565b6000600760008473ffffffffffffffffffffffffffffffffffffffff1673ffffffffffffffffffffffffffffffffffffffff16815260200190815260200160002060008373ffffffffffffffffffffffffffffffffffffffff1673ffffffffffffffffffffffffffffffffffffffff16815260200190815260200160002060009054906101000a900460ff16905092915050565b600081610e8f610eeb565b11158015610e9e575060005482105b8015610edc575060007c0100000000000000000000000000000000000000000000000000000000600460008581526020019081526020016000205416145b9050919050565b600033905090565b600090565b60008082905080610eff610eeb565b11610f8557600054811015610f845760006004600083815260200190815260200160002054905060007c0100000000000000000000000000000000000000000000000000000000821603610f82575b60008103610f78576004600083600190039350838152602001908152602001600020549050610f4e565b8092505050610fb7565b505b5b6040517fdf2d9b4200000000000000000000000000000000000000000000000000000000815260040160405180910390fd5b919050565b6000806000600690508360005280602052604060002092508254915050915091565b600073ffffffffffffffffffffffffffffffffffffffff8316925073ffffffffffffffffffffffffffffffffffffffff821691508382148383141790509392505050565b50505050565b60008060e883901c905060e861103f868684611260565b62ffffff16901b9150509392505050565b600073ffffffffffffffffffffffffffffffffffffffff83169250814260a01b178317905092915050565b50505050565b61109b828260405180602001604052806000815250611269565b5050565b60008373ffffffffffffffffffffffffffffffffffffffff1663150b7a026110c5610ee3565b8786866040518563ffffffff1660e01b81526004016110e79493929190611bc0565b6020604051808303816000875af192505050801561112357506040513d601f19601f820116820180604052508101906111209190611c21565b60015b61119c573d8060008114611153576040519150601f19603f3d011682016040523d82523d6000602084013e611158565b606091505b506000815103611194576040517fd1a57ed600000000000000000000000000000000000000000000000000000000815260040160405180910390fd5b805181602001fd5b63150b7a0260e01b7bffffffffffffffffffffffffffffffffffffffffffffffffffffffff1916817bffffffffffffffffffffffffffffffffffffffffffffffffffffffff191614915050949350505050565b606060405180602001604052806000815250905090565b60606080604051019050806040528082600183039250600a81066030018353600a810490505b801561124c57600183039250600a81066030018353600a8104905061122c565b508181036020830392508083525050919050565b60009392505050565b6112738383611306565b60008373ffffffffffffffffffffffffffffffffffffffff163b1461130157600080549050600083820390505b6112b3600086838060010194508661109f565b6112e9576040517fd1a57ed600000000000000000000000000000000000000000000000000000000815260040160405180910390fd5b8181106112a05781600054146112fe57600080fd5b50505b505050565b600080549050600073ffffffffffffffffffffffffffffffffffffffff168373ffffffffffffffffffffffffffffffffffffffff1603611372576040517f2e07630000000000000000000000000000000000000000000000000000000000815260040160405180910390fd5b600082036113ac576040517fb562e8dd00000000000000000000000000000000000000000000000000000000815260040160405180910390fd5b6113b96000848385611022565b600160406001901b178202600560008573ffffffffffffffffffffffffffffffffffffffff1673ffffffffffffffffffffffffffffffffffffffff16815260200190815260200160002060008282540192505081905550611430836114216000866000611028565b61142a856114d8565b17611050565b60046000838152602001908152602001600020819055506000819050600083830190505b818060010192508573ffffffffffffffffffffffffffffffffffffffff16600073ffffffffffffffffffffffffffffffffffffffff167fddf252ad1be2c89b69c2b068fc378daa952ba7f163c4a11628f55a4df523b3ef60405160405180910390a4808210611454578060008190555050506114d3600084838561107b565b505050565b60006001821460e11b9050919050565b6000604051905090565b600080fd5b600080fd5b60007fffffffff0000000000000000000000000000000000000000000000000000000082169050919050565b611531816114fc565b811461153c57600080fd5b50565b60008135905061154e81611528565b92915050565b60006020828403121561156a576115696114f2565b5b60006115788482850161153f565b91505092915050565b60008115159050919050565b61159681611581565b82525050565b60006020820190506115b1600083018461158d565b92915050565b600081519050919050565b600082825260208201905092915050565b60005b838110156115f15780820151818401526020810190506115d6565b83811115611600576000848401525b50505050565b6000601f19601f8301169050919050565b6000611622826115b7565b61162c81856115c2565b935061163c8185602086016115d3565b61164581611606565b840191505092915050565b6000602082019050818103600083015261166a8184611617565b905092915050565b6000819050919050565b61168581611672565b811461169057600080fd5b50565b6000813590506116a28161167c565b92915050565b6000602082840312156116be576116bd6114f2565b5b60006116cc84828501611693565b91505092915050565b600073ffffffffffffffffffffffffffffffffffffffff82169050919050565b6000611700826116d5565b9050919050565b611710816116f5565b82525050565b600060208201905061172b6000830184611707565b92915050565b61173a816116f5565b811461174557600080fd5b50565b60008135905061175781611731565b92915050565b60008060408385031215611774576117736114f2565b5b600061178285828601611748565b925050602061179385828601611693565b9150509250929050565b6117a681611672565b82525050565b60006020820190506117c1600083018461179d565b92915050565b6000806000606084860312156117e0576117df6114f2565b5b60006117ee86828701611748565b93505060206117ff86828701611748565b925050604061181086828701611693565b9150509250925092565b6000602082840312156118305761182f6114f2565b5b600061183e84828501611748565b91505092915050565b61185081611581565b811461185b57600080fd5b50565b60008135905061186d81611847565b92915050565b6000806040838503121561188a576118896114f2565b5b600061189885828601611748565b92505060206118a98582860161185e565b9150509250929050565b600080fd5b600080fd5b7f4e487b7100000000000000000000000000000000000000000000000000000000600052604160045260246000fd5b6118f582611606565b810181811067ffffffffffffffff82111715611914576119136118bd565b5b80604052505050565b60006119276114e8565b905061193382826118ec565b919050565b600067ffffffffffffffff821115611953576119526118bd565b5b61195c82611606565b9050602081019050919050565b82818337600083830152505050565b600061198b61198684611938565b61191d565b9050828152602081018484840111156119a7576119a66118b8565b5b6119b2848285611969565b509392505050565b600082601f8301126119cf576119ce6118b3565b5b81356119df848260208601611978565b91505092915050565b60008060008060808587031215611a0257611a016114f2565b5b6000611a1087828801611748565b9450506020611a2187828801611748565b9350506040611a3287828801611693565b925050606085013567ffffffffffffffff811115611a5357611a526114f7565b5b611a5f878288016119ba565b91505092959194509250565b60008060408385031215611a8257611a816114f2565b5b6000611a9085828601611748565b9250506020611aa185828601611748565b9150509250929050565b7f4e487b7100000000000000000000000000000000000000000000000000000000600052602260045260246000fd5b60006002820490506001821680611af257607f821691505b602082108103611b0557611b04611aab565b5b50919050565b600081905092915050565b6000611b21826115b7565b611b2b8185611b0b565b9350611b3b8185602086016115d3565b80840191505092915050565b6000611b538285611b16565b9150611b5f8284611b16565b91508190509392505050565b600081519050919050565b600082825260208201905092915050565b6000611b9282611b6b565b611b9c8185611b76565b9350611bac8185602086016115d3565b611bb581611606565b840191505092915050565b6000608082019050611bd56000830187611707565b611be26020830186611707565b611bef604083018561179d565b8181036060830152611c018184611b87565b905095945050505050565b600081519050611c1b81611528565b92915050565b600060208284031215611c3757611c366114f2565b5b6000611c4584828501611c0c565b9150509291505056fea2646970667358221220ff8f2194903594cb3b298e83eaff81e1ba12adb2b9ad01fb778847acc07f8ce064736f6c634300080f0033",
					"opcodes": "PUSH1 0x80 PUSH1 0x40 MSTORE CALLVALUE DUP1 ISZERO PUSH3 0x11 JUMPI PUSH1 0x0 DUP1 REVERT JUMPDEST POP PUSH1 0x40 MLOAD DUP1 PUSH1 0x40 ADD PUSH1 0x40 MSTORE DUP1 PUSH1 0x5 DUP2 MSTORE PUSH1 0x20 ADD PUSH32 0x417A756B69000000000000000000000000000000000000000000000000000000 DUP2 MSTORE POP PUSH1 0x40 MLOAD DUP1 PUSH1 0x40 ADD PUSH1 0x40 MSTORE DUP1 PUSH1 0x5 DUP2 MSTORE PUSH1 0x20 ADD PUSH32 0x415A554B49000000000000000000000000000000000000000000000000000000 DUP2 MSTORE POP DUP2 PUSH1 0x2 SWAP1 DUP2 PUSH3 0x8F SWAP2 SWAP1 PUSH3 0x33F JUMP JUMPDEST POP DUP1 PUSH1 0x3 SWAP1 DUP2 PUSH3 0xA1 SWAP2 SWAP1 PUSH3 0x33F JUMP JUMPDEST POP PUSH3 0xB2 PUSH3 0xC0 PUSH1 0x20 SHL PUSH1 0x20 SHR JUMP JUMPDEST PUSH1 0x0 DUP2 SWAP1 SSTORE POP POP POP PUSH3 0x426 JUMP JUMPDEST PUSH1 0x0 SWAP1 JUMP JUMPDEST PUSH1 0x0 DUP2 MLOAD SWAP1 POP SWAP2 SWAP1 POP JUMP JUMPDEST PUSH32 0x4E487B7100000000000000000000000000000000000000000000000000000000 PUSH1 0x0 MSTORE PUSH1 0x41 PUSH1 0x4 MSTORE PUSH1 0x24 PUSH1 0x0 REVERT JUMPDEST PUSH32 0x4E487B7100000000000000000000000000000000000000000000000000000000 PUSH1 0x0 MSTORE PUSH1 0x22 PUSH1 0x4 MSTORE PUSH1 0x24 PUSH1 0x0 REVERT JUMPDEST PUSH1 0x0 PUSH1 0x2 DUP3 DIV SWAP1 POP PUSH1 0x1 DUP3 AND DUP1 PUSH3 0x147 JUMPI PUSH1 0x7F DUP3 AND SWAP2 POP JUMPDEST PUSH1 0x20 DUP3 LT DUP2 SUB PUSH3 0x15D JUMPI PUSH3 0x15C PUSH3 0xFF JUMP JUMPDEST JUMPDEST POP SWAP2 SWAP1 POP JUMP JUMPDEST PUSH1 0x0 DUP2 SWAP1 POP DUP2 PUSH1 0x0 MSTORE PUSH1 0x20 PUSH1 0x0 KECCAK256 SWAP1 POP SWAP2 SWAP1 POP JUMP JUMPDEST PUSH1 0x0 PUSH1 0x20 PUSH1 0x1F DUP4 ADD DIV SWAP1 POP SWAP2 SWAP1 POP JUMP JUMPDEST PUSH1 0x0 DUP3 DUP3 SHL SWAP1 POP SWAP3 SWAP2 POP POP JUMP JUMPDEST PUSH1 0x0 PUSH1 0x8 DUP4 MUL PUSH3 0x1C7 PUSH32 0xFFFFFFFFFFFFFFFFFFFFFFFFFFFFFFFFFFFFFFFFFFFFFFFFFFFFFFFFFFFFFFFF DUP3 PUSH3 0x188 JUMP JUMPDEST PUSH3 0x1D3 DUP7 DUP4 PUSH3 0x188 JUMP JUMPDEST SWAP6 POP DUP1 NOT DUP5 AND SWAP4 POP DUP1 DUP7 AND DUP5 OR SWAP3 POP POP POP SWAP4 SWAP3 POP POP POP JUMP JUMPDEST PUSH1 0x0 DUP2 SWAP1 POP SWAP2 SWAP1 POP JUMP JUMPDEST PUSH1 0x0 DUP2 SWAP1 POP SWAP2 SWAP1 POP JUMP JUMPDEST PUSH1 0x0 PUSH3 0x220 PUSH3 0x21A PUSH3 0x214 DUP5 PUSH3 0x1EB JUMP JUMPDEST PUSH3 0x1F5 JUMP JUMPDEST PUSH3 0x1EB JUMP JUMPDEST SWAP1 POP SWAP2 SWAP1 POP JUMP JUMPDEST PUSH1 0x0 DUP2 SWAP1 POP SWAP2 SWAP1 POP JUMP JUMPDEST PUSH3 0x23C DUP4 PUSH3 0x1FF JUMP JUMPDEST PUSH3 0x254 PUSH3 0x24B DUP3 PUSH3 0x227 JUMP JUMPDEST DUP5 DUP5 SLOAD PUSH3 0x195 JUMP JUMPDEST DUP3 SSTORE POP POP POP POP JUMP JUMPDEST PUSH1 0x0 SWAP1 JUMP JUMPDEST PUSH3 0x26B PUSH3 0x25C JUMP JUMPDEST PUSH3 0x278 DUP2 DUP5 DUP5 PUSH3 0x231 JUMP JUMPDEST POP POP POP JUMP JUMPDEST JUMPDEST DUP2 DUP2 LT ISZERO PUSH3 0x2A0 JUMPI PUSH3 0x294 PUSH1 0x0 DUP3 PUSH3 0x261 JUMP JUMPDEST PUSH1 0x1 DUP2 ADD SWAP1 POP PUSH3 0x27E JUMP JUMPDEST POP POP JUMP JUMPDEST PUSH1 0x1F DUP3 GT ISZERO PUSH3 0x2EF JUMPI PUSH3 0x2B9 DUP2 PUSH3 0x163 JUMP JUMPDEST PUSH3 0x2C4 DUP5 PUSH3 0x178 JUMP JUMPDEST DUP2 ADD PUSH1 0x20 DUP6 LT ISZERO PUSH3 0x2D4 JUMPI DUP2 SWAP1 POP JUMPDEST PUSH3 0x2EC PUSH3 0x2E3 DUP6 PUSH3 0x178 JUMP JUMPDEST DUP4 ADD DUP3 PUSH3 0x27D JUMP JUMPDEST POP POP JUMPDEST POP POP POP JUMP JUMPDEST PUSH1 0x0 DUP3 DUP3 SHR SWAP1 POP SWAP3 SWAP2 POP POP JUMP JUMPDEST PUSH1 0x0 PUSH3 0x314 PUSH1 0x0 NOT DUP5 PUSH1 0x8 MUL PUSH3 0x2F4 JUMP JUMPDEST NOT DUP1 DUP4 AND SWAP2 POP POP SWAP3 SWAP2 POP POP JUMP JUMPDEST PUSH1 0x0 PUSH3 0x32F DUP4 DUP4 PUSH3 0x301 JUMP JUMPDEST SWAP2 POP DUP3 PUSH1 0x2 MUL DUP3 OR SWAP1 POP SWAP3 SWAP2 POP POP JUMP JUMPDEST PUSH3 0x34A DUP3 PUSH3 0xC5 JUMP JUMPDEST PUSH8 0xFFFFFFFFFFFFFFFF DUP2 GT ISZERO PUSH3 0x366 JUMPI PUSH3 0x365 PUSH3 0xD0 JUMP JUMPDEST JUMPDEST PUSH3 0x372 DUP3 SLOAD PUSH3 0x12E JUMP JUMPDEST PUSH3 0x37F DUP3 DUP3 DUP6 PUSH3 0x2A4 JUMP JUMPDEST PUSH1 0x0 PUSH1 0x20 SWAP1 POP PUSH1 0x1F DUP4 GT PUSH1 0x1 DUP2 EQ PUSH3 0x3B7 JUMPI PUSH1 0x0 DUP5 ISZERO PUSH3 0x3A2 JUMPI DUP3 DUP8 ADD MLOAD SWAP1 POP JUMPDEST PUSH3 0x3AE DUP6 DUP3 PUSH3 0x321 JUMP JUMPDEST DUP7 SSTORE POP PUSH3 0x41E JUMP JUMPDEST PUSH1 0x1F NOT DUP5 AND PUSH3 0x3C7 DUP7 PUSH3 0x163 JUMP JUMPDEST PUSH1 0x0 JUMPDEST DUP3 DUP2 LT ISZERO PUSH3 0x3F1 JUMPI DUP5 DUP10 ADD MLOAD DUP3 SSTORE PUSH1 0x1 DUP3 ADD SWAP2 POP PUSH1 0x20 DUP6 ADD SWAP5 POP PUSH1 0x20 DUP2 ADD SWAP1 POP PUSH3 0x3CA JUMP JUMPDEST DUP7 DUP4 LT ISZERO PUSH3 0x411 JUMPI DUP5 DUP10 ADD MLOAD PUSH3 0x40D PUSH1 0x1F DUP10 AND DUP3 PUSH3 0x301 JUMP JUMPDEST DUP4 SSTORE POP JUMPDEST PUSH1 0x1 PUSH1 0x2 DUP9 MUL ADD DUP9 SSTORE POP POP POP JUMPDEST POP POP POP POP POP POP JUMP JUMPDEST PUSH2 0x1C84 DUP1 PUSH3 0x436 PUSH1 0x0 CODECOPY PUSH1 0x0 RETURN INVALID PUSH1 0x80 PUSH1 0x40 MSTORE PUSH1 0x4 CALLDATASIZE LT PUSH2 0xE8 JUMPI PUSH1 0x0 CALLDATALOAD PUSH1 0xE0 SHR DUP1 PUSH4 0x6352211E GT PUSH2 0x8A JUMPI DUP1 PUSH4 0xA22CB465 GT PUSH2 0x59 JUMPI DUP1 PUSH4 0xA22CB465 EQ PUSH2 0x2F9 JUMPI DUP1 PUSH4 0xB88D4FDE EQ PUSH2 0x322 JUMPI DUP1 PUSH4 0xC87B56DD EQ PUSH2 0x34B JUMPI DUP1 PUSH4 0xE985E9C5 EQ PUSH2 0x388 JUMPI PUSH2 0xE8 JUMP JUMPDEST DUP1 PUSH4 0x6352211E EQ PUSH2 0x238 JUMPI DUP1 PUSH4 0x70A08231 EQ PUSH2 0x275 JUMPI DUP1 PUSH4 0x95D89B41 EQ PUSH2 0x2B2 JUMPI DUP1 PUSH4 0xA0712D68 EQ PUSH2 0x2DD JUMPI PUSH2 0xE8 JUMP JUMPDEST DUP1 PUSH4 0x95EA7B3 GT PUSH2 0xC6 JUMPI DUP1 PUSH4 0x95EA7B3 EQ PUSH2 0x192 JUMPI DUP1 PUSH4 0x18160DDD EQ PUSH2 0x1BB JUMPI DUP1 PUSH4 0x23B872DD EQ PUSH2 0x1E6 JUMPI DUP1 PUSH4 0x42842E0E EQ PUSH2 0x20F JUMPI PUSH2 0xE8 JUMP JUMPDEST DUP1 PUSH4 0x1FFC9A7 EQ PUSH2 0xED JUMPI DUP1 PUSH4 0x6FDDE03 EQ PUSH2 0x12A JUMPI DUP1 PUSH4 0x81812FC EQ PUSH2 0x155 JUMPI JUMPDEST PUSH1 0x0 DUP1 REVERT JUMPDEST CALLVALUE DUP1 ISZERO PUSH2 0xF9 JUMPI PUSH1 0x0 DUP1 REVERT JUMPDEST POP PUSH2 0x114 PUSH1 0x4 DUP1 CALLDATASIZE SUB DUP2 ADD SWAP1 PUSH2 0x10F SWAP2 SWAP1 PUSH2 0x1554 JUMP JUMPDEST PUSH2 0x3C5 JUMP JUMPDEST PUSH1 0x40 MLOAD PUSH2 0x121 SWAP2 SWAP1 PUSH2 0x159C JUMP JUMPDEST PUSH1 0x40 MLOAD DUP1 SWAP2 SUB SWAP1 RETURN JUMPDEST CALLVALUE DUP1 ISZERO PUSH2 0x136 JUMPI PUSH1 0x0 DUP1 REVERT JUMPDEST POP PUSH2 0x13F PUSH2 0x457 JUMP JUMPDEST PUSH1 0x40 MLOAD PUSH2 0x14C SWAP2 SWAP1 PUSH2 0x1650 JUMP JUMPDEST PUSH1 0x40 MLOAD DUP1 SWAP2 SUB SWAP1 RETURN JUMPDEST CALLVALUE DUP1 ISZERO PUSH2 0x161 JUMPI PUSH1 0x0 DUP1 REVERT JUMPDEST POP PUSH2 0x17C PUSH1 0x4 DUP1 CALLDATASIZE SUB DUP2 ADD SWAP1 PUSH2 0x177 SWAP2 SWAP1 PUSH2 0x16A8 JUMP JUMPDEST PUSH2 0x4E9 JUMP JUMPDEST PUSH1 0x40 MLOAD PUSH2 0x189 SWAP2 SWAP1 PUSH2 0x1716 JUMP JUMPDEST PUSH1 0x40 MLOAD DUP1 SWAP2 SUB SWAP1 RETURN JUMPDEST CALLVALUE DUP1 ISZERO PUSH2 0x19E JUMPI PUSH1 0x0 DUP1 REVERT JUMPDEST POP PUSH2 0x1B9 PUSH1 0x4 DUP1 CALLDATASIZE SUB DUP2 ADD SWAP1 PUSH2 0x1B4 SWAP2 SWAP1 PUSH2 0x175D JUMP JUMPDEST PUSH2 0x565 JUMP JUMPDEST STOP JUMPDEST CALLVALUE DUP1 ISZERO PUSH2 0x1C7 JUMPI PUSH1 0x0 DUP1 REVERT JUMPDEST POP PUSH2 0x1D0 PUSH2 0x6A6 JUMP JUMPDEST PUSH1 0x40 MLOAD PUSH2 0x1DD SWAP2 SWAP1 PUSH2 0x17AC JUMP JUMPDEST PUSH1 0x40 MLOAD DUP1 SWAP2 SUB SWAP1 RETURN JUMPDEST CALLVALUE DUP1 ISZERO PUSH2 0x1F2 JUMPI PUSH1 0x0 DUP1 REVERT JUMPDEST POP PUSH2 0x20D PUSH1 0x4 DUP1 CALLDATASIZE SUB DUP2 ADD SWAP1 PUSH2 0x208 SWAP2 SWAP1 PUSH2 0x17C7 JUMP JUMPDEST PUSH2 0x6BD JUMP JUMPDEST STOP JUMPDEST CALLVALUE DUP1 ISZERO PUSH2 0x21B JUMPI PUSH1 0x0 DUP1 REVERT JUMPDEST POP PUSH2 0x236 PUSH1 0x4 DUP1 CALLDATASIZE SUB DUP2 ADD SWAP1 PUSH2 0x231 SWAP2 SWAP1 PUSH2 0x17C7 JUMP JUMPDEST PUSH2 0x9DF JUMP JUMPDEST STOP JUMPDEST CALLVALUE DUP1 ISZERO PUSH2 0x244 JUMPI PUSH1 0x0 DUP1 REVERT JUMPDEST POP PUSH2 0x25F PUSH1 0x4 DUP1 CALLDATASIZE SUB DUP2 ADD SWAP1 PUSH2 0x25A SWAP2 SWAP1 PUSH2 0x16A8 JUMP JUMPDEST PUSH2 0x9FF JUMP JUMPDEST PUSH1 0x40 MLOAD PUSH2 0x26C SWAP2 SWAP1 PUSH2 0x1716 JUMP JUMPDEST PUSH1 0x40 MLOAD DUP1 SWAP2 SUB SWAP1 RETURN JUMPDEST CALLVALUE DUP1 ISZERO PUSH2 0x281 JUMPI PUSH1 0x0 DUP1 REVERT JUMPDEST POP PUSH2 0x29C PUSH1 0x4 DUP1 CALLDATASIZE SUB DUP2 ADD SWAP1 PUSH2 0x297 SWAP2 SWAP1 PUSH2 0x181A JUMP JUMPDEST PUSH2 0xA11 JUMP JUMPDEST PUSH1 0x40 MLOAD PUSH2 0x2A9 SWAP2 SWAP1 PUSH2 0x17AC JUMP JUMPDEST PUSH1 0x40 MLOAD DUP1 SWAP2 SUB SWAP1 RETURN JUMPDEST CALLVALUE DUP1 ISZERO PUSH2 0x2BE JUMPI PUSH1 0x0 DUP1 REVERT JUMPDEST POP PUSH2 0x2C7 PUSH2 0xAC9 JUMP JUMPDEST PUSH1 0x40 MLOAD PUSH2 0x2D4 SWAP2 SWAP1 PUSH2 0x1650 JUMP JUMPDEST PUSH1 0x40 MLOAD DUP1 SWAP2 SUB SWAP1 RETURN JUMPDEST PUSH2 0x2F7 PUSH1 0x4 DUP1 CALLDATASIZE SUB DUP2 ADD SWAP1 PUSH2 0x2F2 SWAP2 SWAP1 PUSH2 0x16A8 JUMP JUMPDEST PUSH2 0xB5B JUMP JUMPDEST STOP JUMPDEST CALLVALUE DUP1 ISZERO PUSH2 0x305 JUMPI PUSH1 0x0 DUP1 REVERT JUMPDEST POP PUSH2 0x320 PUSH1 0x4 DUP1 CALLDATASIZE SUB DUP2 ADD SWAP1 PUSH2 0x31B SWAP2 SWAP1 PUSH2 0x1873 JUMP JUMPDEST PUSH2 0xB68 JUMP JUMPDEST STOP JUMPDEST CALLVALUE DUP1 ISZERO PUSH2 0x32E JUMPI PUSH1 0x0 DUP1 REVERT JUMPDEST POP PUSH2 0x349 PUSH1 0x4 DUP1 CALLDATASIZE SUB DUP2 ADD SWAP1 PUSH2 0x344 SWAP2 SWAP1 PUSH2 0x19E8 JUMP JUMPDEST PUSH2 0xCDF JUMP JUMPDEST STOP JUMPDEST CALLVALUE DUP1 ISZERO PUSH2 0x357 JUMPI PUSH1 0x0 DUP1 REVERT JUMPDEST POP PUSH2 0x372 PUSH1 0x4 DUP1 CALLDATASIZE SUB DUP2 ADD SWAP1 PUSH2 0x36D SWAP2 SWAP1 PUSH2 0x16A8 JUMP JUMPDEST PUSH2 0xD52 JUMP JUMPDEST PUSH1 0x40 MLOAD PUSH2 0x37F SWAP2 SWAP1 PUSH2 0x1650 JUMP JUMPDEST PUSH1 0x40 MLOAD DUP1 SWAP2 SUB SWAP1 RETURN JUMPDEST CALLVALUE DUP1 ISZERO PUSH2 0x394 JUMPI PUSH1 0x0 DUP1 REVERT JUMPDEST POP PUSH2 0x3AF PUSH1 0x4 DUP1 CALLDATASIZE SUB DUP2 ADD SWAP1 PUSH2 0x3AA SWAP2 SWAP1 PUSH2 0x1A6B JUMP JUMPDEST PUSH2 0xDF0 JUMP JUMPDEST PUSH1 0x40 MLOAD PUSH2 0x3BC SWAP2 SWAP1 PUSH2 0x159C JUMP JUMPDEST PUSH1 0x40 MLOAD DUP1 SWAP2 SUB SWAP1 RETURN JUMPDEST PUSH1 0x0 PUSH4 0x1FFC9A7 PUSH1 0xE0 SHL DUP3 PUSH28 0xFFFFFFFFFFFFFFFFFFFFFFFFFFFFFFFFFFFFFFFFFFFFFFFFFFFFFFFF NOT AND EQ DUP1 PUSH2 0x420 JUMPI POP PUSH4 0x80AC58CD PUSH1 0xE0 SHL DUP3 PUSH28 0xFFFFFFFFFFFFFFFFFFFFFFFFFFFFFFFFFFFFFFFFFFFFFFFFFFFFFFFF NOT AND EQ JUMPDEST DUP1 PUSH2 0x450 JUMPI POP PUSH4 0x5B5E139F PUSH1 0xE0 SHL DUP3 PUSH28 0xFFFFFFFFFFFFFFFFFFFFFFFFFFFFFFFFFFFFFFFFFFFFFFFFFFFFFFFF NOT AND EQ JUMPDEST SWAP1 POP SWAP2 SWAP1 POP JUMP JUMPDEST PUSH1 0x60 PUSH1 0x2 DUP1 SLOAD PUSH2 0x466 SWAP1 PUSH2 0x1ADA JUMP JUMPDEST DUP1 PUSH1 0x1F ADD PUSH1 0x20 DUP1 SWAP2 DIV MUL PUSH1 0x20 ADD PUSH1 0x40 MLOAD SWAP1 DUP2 ADD PUSH1 0x40 MSTORE DUP1 SWAP3 SWAP2 SWAP1 DUP2 DUP2 MSTORE PUSH1 0x20 ADD DUP3 DUP1 SLOAD PUSH2 0x492 SWAP1 PUSH2 0x1ADA JUMP JUMPDEST DUP1 ISZERO PUSH2 0x4DF JUMPI DUP1 PUSH1 0x1F LT PUSH2 0x4B4 JUMPI PUSH2 0x100 DUP1 DUP4 SLOAD DIV MUL DUP4 MSTORE SWAP2 PUSH1 0x20 ADD SWAP2 PUSH2 0x4DF JUMP JUMPDEST DUP3 ADD SWAP2 SWAP1 PUSH1 0x0 MSTORE PUSH1 0x20 PUSH1 0x0 KECCAK256 SWAP1 JUMPDEST DUP2 SLOAD DUP2 MSTORE SWAP1 PUSH1 0x1 ADD SWAP1 PUSH1 0x20 ADD DUP1 DUP4 GT PUSH2 0x4C2 JUMPI DUP3 SWAP1 SUB PUSH1 0x1F AND DUP3 ADD SWAP2 JUMPDEST POP POP POP POP POP SWAP1 POP SWAP1 JUMP JUMPDEST PUSH1 0x0 PUSH2 0x4F4 DUP3 PUSH2 0xE84 JUMP JUMPDEST PUSH2 0x52A JUMPI PUSH1 0x40 MLOAD PUSH32 0xCF4700E400000000000000000000000000000000000000000000000000000000 DUP2 MSTORE PUSH1 0x4 ADD PUSH1 0x40 MLOAD DUP1 SWAP2 SUB SWAP1 REVERT JUMPDEST PUSH1 0x6 PUSH1 0x0 DUP4 DUP2 MSTORE PUSH1 0x20 ADD SWAP1 DUP2 MSTORE PUSH1 0x20 ADD PUSH1 0x0 KECCAK256 PUSH1 0x0 SWAP1 SLOAD SWAP1 PUSH2 0x100 EXP SWAP1 DIV PUSH20 0xFFFFFFFFFFFFFFFFFFFFFFFFFFFFFFFFFFFFFFFF AND SWAP1 POP SWAP2 SWAP1 POP JUMP JUMPDEST PUSH1 0x0 PUSH2 0x570 DUP3 PUSH2 0x9FF JUMP JUMPDEST SWAP1 POP DUP1 PUSH20 0xFFFFFFFFFFFFFFFFFFFFFFFFFFFFFFFFFFFFFFFF AND PUSH2 0x591 PUSH2 0xEE3 JUMP JUMPDEST PUSH20 0xFFFFFFFFFFFFFFFFFFFFFFFFFFFFFFFFFFFFFFFF AND EQ PUSH2 0x5F4 JUMPI PUSH2 0x5BD DUP2 PUSH2 0x5B8 PUSH2 0xEE3 JUMP JUMPDEST PUSH2 0xDF0 JUMP JUMPDEST PUSH2 0x5F3 JUMPI PUSH1 0x40 MLOAD PUSH32 0xCFB3B94200000000000000000000000000000000000000000000000000000000 DUP2 MSTORE PUSH1 0x4 ADD PUSH1 0x40 MLOAD DUP1 SWAP2 SUB SWAP1 REVERT JUMPDEST JUMPDEST DUP3 PUSH1 0x6 PUSH1 0x0 DUP5 DUP2 MSTORE PUSH1 0x20 ADD SWAP1 DUP2 MSTORE PUSH1 0x20 ADD PUSH1 0x0 KECCAK256 PUSH1 0x0 PUSH2 0x100 EXP DUP2 SLOAD DUP2 PUSH20 0xFFFFFFFFFFFFFFFFFFFFFFFFFFFFFFFFFFFFFFFF MUL NOT AND SWAP1 DUP4 PUSH20 0xFFFFFFFFFFFFFFFFFFFFFFFFFFFFFFFFFFFFFFFF AND MUL OR SWAP1 SSTORE POP DUP2 DUP4 PUSH20 0xFFFFFFFFFFFFFFFFFFFFFFFFFFFFFFFFFFFFFFFF AND DUP3 PUSH20 0xFFFFFFFFFFFFFFFFFFFFFFFFFFFFFFFFFFFFFFFF AND PUSH32 0x8C5BE1E5EBEC7D5BD14F71427D1E84F3DD0314C0F7B2291E5B200AC8C7C3B925 PUSH1 0x40 MLOAD PUSH1 0x40 MLOAD DUP1 SWAP2 SUB SWAP1 LOG4 POP POP POP JUMP JUMPDEST PUSH1 0x0 PUSH2 0x6B0 PUSH2 0xEEB JUMP JUMPDEST PUSH1 0x1 SLOAD PUSH1 0x0 SLOAD SUB SUB SWAP1 POP SWAP1 JUMP JUMPDEST PUSH1 0x0 PUSH2 0x6C8 DUP3 PUSH2 0xEF0 JUMP JUMPDEST SWAP1 POP DUP4 PUSH20 0xFFFFFFFFFFFFFFFFFFFFFFFFFFFFFFFFFFFFFFFF AND DUP2 PUSH20 0xFFFFFFFFFFFFFFFFFFFFFFFFFFFFFFFFFFFFFFFF AND EQ PUSH2 0x72F JUMPI PUSH1 0x40 MLOAD PUSH32 0xA114810000000000000000000000000000000000000000000000000000000000 DUP2 MSTORE PUSH1 0x4 ADD PUSH1 0x40 MLOAD DUP1 SWAP2 SUB SWAP1 REVERT JUMPDEST PUSH1 0x0 DUP1 PUSH2 0x73B DUP5 PUSH2 0xFBC JUMP JUMPDEST SWAP2 POP SWAP2 POP PUSH2 0x751 DUP2 DUP8 PUSH2 0x74C PUSH2 0xEE3 JUMP JUMPDEST PUSH2 0xFDE JUMP JUMPDEST PUSH2 0x79D JUMPI PUSH2 0x766 DUP7 PUSH2 0x761 PUSH2 0xEE3 JUMP JUMPDEST PUSH2 0xDF0 JUMP JUMPDEST PUSH2 0x79C JUMPI PUSH1 0x40 MLOAD PUSH32 0x59C896BE00000000000000000000000000000000000000000000000000000000 DUP2 MSTORE PUSH1 0x4 ADD PUSH1 0x40 MLOAD DUP1 SWAP2 SUB SWAP1 REVERT JUMPDEST JUMPDEST PUSH1 0x0 PUSH20 0xFFFFFFFFFFFFFFFFFFFFFFFFFFFFFFFFFFFFFFFF AND DUP6 PUSH20 0xFFFFFFFFFFFFFFFFFFFFFFFFFFFFFFFFFFFFFFFF AND SUB PUSH2 0x803 JUMPI PUSH1 0x40 MLOAD PUSH32 0xEA553B3400000000000000000000000000000000000000000000000000000000 DUP2 MSTORE PUSH1 0x4 ADD PUSH1 0x40 MLOAD DUP1 SWAP2 SUB SWAP1 REVERT JUMPDEST PUSH2 0x810 DUP7 DUP7 DUP7 PUSH1 0x1 PUSH2 0x1022 JUMP JUMPDEST DUP1 ISZERO PUSH2 0x81B JUMPI PUSH1 0x0 DUP3 SSTORE JUMPDEST PUSH1 0x5 PUSH1 0x0 DUP8 PUSH20 0xFFFFFFFFFFFFFFFFFFFFFFFFFFFFFFFFFFFFFFFF AND PUSH20 0xFFFFFFFFFFFFFFFFFFFFFFFFFFFFFFFFFFFFFFFF AND DUP2 MSTORE PUSH1 0x20 ADD SWAP1 DUP2 MSTORE PUSH1 0x20 ADD PUSH1 0x0 KECCAK256 PUSH1 0x0 DUP2 SLOAD PUSH1 0x1 SWAP1 SUB SWAP2 SWAP1 POP DUP2 SWAP1 SSTORE POP PUSH1 0x5 PUSH1 0x0 DUP7 PUSH20 0xFFFFFFFFFFFFFFFFFFFFFFFFFFFFFFFFFFFFFFFF AND PUSH20 0xFFFFFFFFFFFFFFFFFFFFFFFFFFFFFFFFFFFFFFFF AND DUP2 MSTORE PUSH1 0x20 ADD SWAP1 DUP2 MSTORE PUSH1 0x20 ADD PUSH1 0x0 KECCAK256 PUSH1 0x0 DUP2 SLOAD PUSH1 0x1 ADD SWAP2 SWAP1 POP DUP2 SWAP1 SSTORE POP PUSH2 0x8E9 DUP6 PUSH2 0x8C5 DUP9 DUP9 DUP8 PUSH2 0x1028 JUMP JUMPDEST PUSH29 0x200000000000000000000000000000000000000000000000000000000 OR PUSH2 0x1050 JUMP JUMPDEST PUSH1 0x4 PUSH1 0x0 DUP7 DUP2 MSTORE PUSH1 0x20 ADD SWAP1 DUP2 MSTORE PUSH1 0x20 ADD PUSH1 0x0 KECCAK256 DUP2 SWAP1 SSTORE POP PUSH1 0x0 PUSH29 0x200000000000000000000000000000000000000000000000000000000 DUP5 AND SUB PUSH2 0x96F JUMPI PUSH1 0x0 PUSH1 0x1 DUP6 ADD SWAP1 POP PUSH1 0x0 PUSH1 0x4 PUSH1 0x0 DUP4 DUP2 MSTORE PUSH1 0x20 ADD SWAP1 DUP2 MSTORE PUSH1 0x20 ADD PUSH1 0x0 KECCAK256 SLOAD SUB PUSH2 0x96D JUMPI PUSH1 0x0 SLOAD DUP2 EQ PUSH2 0x96C JUMPI DUP4 PUSH1 0x4 PUSH1 0x0 DUP4 DUP2 MSTORE PUSH1 0x20 ADD SWAP1 DUP2 MSTORE PUSH1 0x20 ADD PUSH1 0x0 KECCAK256 DUP2 SWAP1 SSTORE POP JUMPDEST JUMPDEST POP JUMPDEST DUP4 DUP6 PUSH20 0xFFFFFFFFFFFFFFFFFFFFFFFFFFFFFFFFFFFFFFFF AND DUP8 PUSH20 0xFFFFFFFFFFFFFFFFFFFFFFFFFFFFFFFFFFFFFFFF AND PUSH32 0xDDF252AD1BE2C89B69C2B068FC378DAA952BA7F163C4A11628F55A4DF523B3EF PUSH1 0x40 MLOAD PUSH1 0x40 MLOAD DUP1 SWAP2 SUB SWAP1 LOG4 PUSH2 0x9D7 DUP7 DUP7 DUP7 PUSH1 0x1 PUSH2 0x107B JUMP JUMPDEST POP POP POP POP POP POP JUMP JUMPDEST PUSH2 0x9FA DUP4 DUP4 DUP4 PUSH1 0x40 MLOAD DUP1 PUSH1 0x20 ADD PUSH1 0x40 MSTORE DUP1 PUSH1 0x0 DUP2 MSTORE POP PUSH2 0xCDF JUMP JUMPDEST POP POP POP JUMP JUMPDEST PUSH1 0x0 PUSH2 0xA0A DUP3 PUSH2 0xEF0 JUMP JUMPDEST SWAP1 POP SWAP2 SWAP1 POP JUMP JUMPDEST PUSH1 0x0 DUP1 PUSH20 0xFFFFFFFFFFFFFFFFFFFFFFFFFFFFFFFFFFFFFFFF AND DUP3 PUSH20 0xFFFFFFFFFFFFFFFFFFFFFFFFFFFFFFFFFFFFFFFF AND SUB PUSH2 0xA78 JUMPI PUSH1 0x40 MLOAD PUSH32 0x8F4EB60400000000000000000000000000000000000000000000000000000000 DUP2 MSTORE PUSH1 0x4 ADD PUSH1 0x40 MLOAD DUP1 SWAP2 SUB SWAP1 REVERT JUMPDEST PUSH8 0xFFFFFFFFFFFFFFFF PUSH1 0x5 PUSH1 0x0 DUP5 PUSH20 0xFFFFFFFFFFFFFFFFFFFFFFFFFFFFFFFFFFFFFFFF AND PUSH20 0xFFFFFFFFFFFFFFFFFFFFFFFFFFFFFFFFFFFFFFFF AND DUP2 MSTORE PUSH1 0x20 ADD SWAP1 DUP2 MSTORE PUSH1 0x20 ADD PUSH1 0x0 KECCAK256 SLOAD AND SWAP1 POP SWAP2 SWAP1 POP JUMP JUMPDEST PUSH1 0x60 PUSH1 0x3 DUP1 SLOAD PUSH2 0xAD8 SWAP1 PUSH2 0x1ADA JUMP JUMPDEST DUP1 PUSH1 0x1F ADD PUSH1 0x20 DUP1 SWAP2 DIV MUL PUSH1 0x20 ADD PUSH1 0x40 MLOAD SWAP1 DUP2 ADD PUSH1 0x40 MSTORE DUP1 SWAP3 SWAP2 SWAP1 DUP2 DUP2 MSTORE PUSH1 0x20 ADD DUP3 DUP1 SLOAD PUSH2 0xB04 SWAP1 PUSH2 0x1ADA JUMP JUMPDEST DUP1 ISZERO PUSH2 0xB51 JUMPI DUP1 PUSH1 0x1F LT PUSH2 0xB26 JUMPI PUSH2 0x100 DUP1 DUP4 SLOAD DIV MUL DUP4 MSTORE SWAP2 PUSH1 0x20 ADD SWAP2 PUSH2 0xB51 JUMP JUMPDEST DUP3 ADD SWAP2 SWAP1 PUSH1 0x0 MSTORE PUSH1 0x20 PUSH1 0x0 KECCAK256 SWAP1 JUMPDEST DUP2 SLOAD DUP2 MSTORE SWAP1 PUSH1 0x1 ADD SWAP1 PUSH1 0x20 ADD DUP1 DUP4 GT PUSH2 0xB34 JUMPI DUP3 SWAP1 SUB PUSH1 0x1F AND DUP3 ADD SWAP2 JUMPDEST POP POP POP POP POP SWAP1 POP SWAP1 JUMP JUMPDEST PUSH2 0xB65 CALLER DUP3 PUSH2 0x1081 JUMP JUMPDEST POP JUMP JUMPDEST PUSH2 0xB70 PUSH2 0xEE3 JUMP JUMPDEST PUSH20 0xFFFFFFFFFFFFFFFFFFFFFFFFFFFFFFFFFFFFFFFF AND DUP3 PUSH20 0xFFFFFFFFFFFFFFFFFFFFFFFFFFFFFFFFFFFFFFFF AND SUB PUSH2 0xBD4 JUMPI PUSH1 0x40 MLOAD PUSH32 0xB06307DB00000000000000000000000000000000000000000000000000000000 DUP2 MSTORE PUSH1 0x4 ADD PUSH1 0x40 MLOAD DUP1 SWAP2 SUB SWAP1 REVERT JUMPDEST DUP1 PUSH1 0x7 PUSH1 0x0 PUSH2 0xBE1 PUSH2 0xEE3 JUMP JUMPDEST PUSH20 0xFFFFFFFFFFFFFFFFFFFFFFFFFFFFFFFFFFFFFFFF AND PUSH20 0xFFFFFFFFFFFFFFFFFFFFFFFFFFFFFFFFFFFFFFFF AND DUP2 MSTORE PUSH1 0x20 ADD SWAP1 DUP2 MSTORE PUSH1 0x20 ADD PUSH1 0x0 KECCAK256 PUSH1 0x0 DUP5 PUSH20 0xFFFFFFFFFFFFFFFFFFFFFFFFFFFFFFFFFFFFFFFF AND PUSH20 0xFFFFFFFFFFFFFFFFFFFFFFFFFFFFFFFFFFFFFFFF AND DUP2 MSTORE PUSH1 0x20 ADD SWAP1 DUP2 MSTORE PUSH1 0x20 ADD PUSH1 0x0 KECCAK256 PUSH1 0x0 PUSH2 0x100 EXP DUP2 SLOAD DUP2 PUSH1 0xFF MUL NOT AND SWAP1 DUP4 ISZERO ISZERO MUL OR SWAP1 SSTORE POP DUP2 PUSH20 0xFFFFFFFFFFFFFFFFFFFFFFFFFFFFFFFFFFFFFFFF AND PUSH2 0xC8E PUSH2 0xEE3 JUMP JUMPDEST PUSH20 0xFFFFFFFFFFFFFFFFFFFFFFFFFFFFFFFFFFFFFFFF AND PUSH32 0x17307EAB39AB6107E8899845AD3D59BD9653F200F220920489CA2B5937696C31 DUP4 PUSH1 0x40 MLOAD PUSH2 0xCD3 SWAP2 SWAP1 PUSH2 0x159C JUMP JUMPDEST PUSH1 0x40 MLOAD DUP1 SWAP2 SUB SWAP1 LOG3 POP POP JUMP JUMPDEST PUSH2 0xCEA DUP5 DUP5 DUP5 PUSH2 0x6BD JUMP JUMPDEST PUSH1 0x0 DUP4 PUSH20 0xFFFFFFFFFFFFFFFFFFFFFFFFFFFFFFFFFFFFFFFF AND EXTCODESIZE EQ PUSH2 0xD4C JUMPI PUSH2 0xD15 DUP5 DUP5 DUP5 DUP5 PUSH2 0x109F JUMP JUMPDEST PUSH2 0xD4B JUMPI PUSH1 0x40 MLOAD PUSH32 0xD1A57ED600000000000000000000000000000000000000000000000000000000 DUP2 MSTORE PUSH1 0x4 ADD PUSH1 0x40 MLOAD DUP1 SWAP2 SUB SWAP1 REVERT JUMPDEST JUMPDEST POP POP POP POP JUMP JUMPDEST PUSH1 0x60 PUSH2 0xD5D DUP3 PUSH2 0xE84 JUMP JUMPDEST PUSH2 0xD93 JUMPI PUSH1 0x40 MLOAD PUSH32 0xA14C4B5000000000000000000000000000000000000000000000000000000000 DUP2 MSTORE PUSH1 0x4 ADD PUSH1 0x40 MLOAD DUP1 SWAP2 SUB SWAP1 REVERT JUMPDEST PUSH1 0x0 PUSH2 0xD9D PUSH2 0x11EF JUMP JUMPDEST SWAP1 POP PUSH1 0x0 DUP2 MLOAD SUB PUSH2 0xDBD JUMPI PUSH1 0x40 MLOAD DUP1 PUSH1 0x20 ADD PUSH1 0x40 MSTORE DUP1 PUSH1 0x0 DUP2 MSTORE POP PUSH2 0xDE8 JUMP JUMPDEST DUP1 PUSH2 0xDC7 DUP5 PUSH2 0x1206 JUMP JUMPDEST PUSH1 0x40 MLOAD PUSH1 0x20 ADD PUSH2 0xDD8 SWAP3 SWAP2 SWAP1 PUSH2 0x1B47 JUMP JUMPDEST PUSH1 0x40 MLOAD PUSH1 0x20 DUP2 DUP4 SUB SUB DUP2 MSTORE SWAP1 PUSH1 0x40 MSTORE JUMPDEST SWAP2 POP POP SWAP2 SWAP1 POP JUMP JUMPDEST PUSH1 0x0 PUSH1 0x7 PUSH1 0x0 DUP5 PUSH20 0xFFFFFFFFFFFFFFFFFFFFFFFFFFFFFFFFFFFFFFFF AND PUSH20 0xFFFFFFFFFFFFFFFFFFFFFFFFFFFFFFFFFFFFFFFF AND DUP2 MSTORE PUSH1 0x20 ADD SWAP1 DUP2 MSTORE PUSH1 0x20 ADD PUSH1 0x0 KECCAK256 PUSH1 0x0 DUP4 PUSH20 0xFFFFFFFFFFFFFFFFFFFFFFFFFFFFFFFFFFFFFFFF AND PUSH20 0xFFFFFFFFFFFFFFFFFFFFFFFFFFFFFFFFFFFFFFFF AND DUP2 MSTORE PUSH1 0x20 ADD SWAP1 DUP2 MSTORE PUSH1 0x20 ADD PUSH1 0x0 KECCAK256 PUSH1 0x0 SWAP1 SLOAD SWAP1 PUSH2 0x100 EXP SWAP1 DIV PUSH1 0xFF AND SWAP1 POP SWAP3 SWAP2 POP POP JUMP JUMPDEST PUSH1 0x0 DUP2 PUSH2 0xE8F PUSH2 0xEEB JUMP JUMPDEST GT ISZERO DUP1 ISZERO PUSH2 0xE9E JUMPI POP PUSH1 0x0 SLOAD DUP3 LT JUMPDEST DUP1 ISZERO PUSH2 0xEDC JUMPI POP PUSH1 0x0 PUSH29 0x100000000000000000000000000000000000000000000000000000000 PUSH1 0x4 PUSH1 0x0 DUP6 DUP2 MSTORE PUSH1 0x20 ADD SWAP1 DUP2 MSTORE PUSH1 0x20 ADD PUSH1 0x0 KECCAK256 SLOAD AND EQ JUMPDEST SWAP1 POP SWAP2 SWAP1 POP JUMP JUMPDEST PUSH1 0x0 CALLER SWAP1 POP SWAP1 JUMP JUMPDEST PUSH1 0x0 SWAP1 JUMP JUMPDEST PUSH1 0x0 DUP1 DUP3 SWAP1 POP DUP1 PUSH2 0xEFF PUSH2 0xEEB JUMP JUMPDEST GT PUSH2 0xF85 JUMPI PUSH1 0x0 SLOAD DUP2 LT ISZERO PUSH2 0xF84 JUMPI PUSH1 0x0 PUSH1 0x4 PUSH1 0x0 DUP4 DUP2 MSTORE PUSH1 0x20 ADD SWAP1 DUP2 MSTORE PUSH1 0x20 ADD PUSH1 0x0 KECCAK256 SLOAD SWAP1 POP PUSH1 0x0 PUSH29 0x100000000000000000000000000000000000000000000000000000000 DUP3 AND SUB PUSH2 0xF82 JUMPI JUMPDEST PUSH1 0x0 DUP2 SUB PUSH2 0xF78 JUMPI PUSH1 0x4 PUSH1 0x0 DUP4 PUSH1 0x1 SWAP1 SUB SWAP4 POP DUP4 DUP2 MSTORE PUSH1 0x20 ADD SWAP1 DUP2 MSTORE PUSH1 0x20 ADD PUSH1 0x0 KECCAK256 SLOAD SWAP1 POP PUSH2 0xF4E JUMP JUMPDEST DUP1 SWAP3 POP POP POP PUSH2 0xFB7 JUMP JUMPDEST POP JUMPDEST JUMPDEST PUSH1 0x40 MLOAD PUSH32 0xDF2D9B4200000000000000000000000000000000000000000000000000000000 DUP2 MSTORE PUSH1 0x4 ADD PUSH1 0x40 MLOAD DUP1 SWAP2 SUB SWAP1 REVERT JUMPDEST SWAP2 SWAP1 POP JUMP JUMPDEST PUSH1 0x0 DUP1 PUSH1 0x0 PUSH1 0x6 SWAP1 POP DUP4 PUSH1 0x0 MSTORE DUP1 PUSH1 0x20 MSTORE PUSH1 0x40 PUSH1 0x0 KECCAK256 SWAP3 POP DUP3 SLOAD SWAP2 POP POP SWAP2 POP SWAP2 JUMP JUMPDEST PUSH1 0x0 PUSH20 0xFFFFFFFFFFFFFFFFFFFFFFFFFFFFFFFFFFFFFFFF DUP4 AND SWAP3 POP PUSH20 0xFFFFFFFFFFFFFFFFFFFFFFFFFFFFFFFFFFFFFFFF DUP3 AND SWAP2 POP DUP4 DUP3 EQ DUP4 DUP4 EQ OR SWAP1 POP SWAP4 SWAP3 POP POP POP JUMP JUMPDEST POP POP POP POP JUMP JUMPDEST PUSH1 0x0 DUP1 PUSH1 0xE8 DUP4 SWAP1 SHR SWAP1 POP PUSH1 0xE8 PUSH2 0x103F DUP7 DUP7 DUP5 PUSH2 0x1260 JUMP JUMPDEST PUSH3 0xFFFFFF AND SWAP1 SHL SWAP2 POP POP SWAP4 SWAP3 POP POP POP JUMP JUMPDEST PUSH1 0x0 PUSH20 0xFFFFFFFFFFFFFFFFFFFFFFFFFFFFFFFFFFFFFFFF DUP4 AND SWAP3 POP DUP2 TIMESTAMP PUSH1 0xA0 SHL OR DUP4 OR SWAP1 POP SWAP3 SWAP2 POP POP JUMP JUMPDEST POP POP POP POP JUMP JUMPDEST PUSH2 0x109B DUP3 DUP3 PUSH1 0x40 MLOAD DUP1 PUSH1 0x20 ADD PUSH1 0x40 MSTORE DUP1 PUSH1 0x0 DUP2 MSTORE POP PUSH2 0x1269 JUMP JUMPDEST POP POP JUMP JUMPDEST PUSH1 0x0 DUP4 PUSH20 0xFFFFFFFFFFFFFFFFFFFFFFFFFFFFFFFFFFFFFFFF AND PUSH4 0x150B7A02 PUSH2 0x10C5 PUSH2 0xEE3 JUMP JUMPDEST DUP8 DUP7 DUP7 PUSH1 0x40 MLOAD DUP6 PUSH4 0xFFFFFFFF AND PUSH1 0xE0 SHL DUP2 MSTORE PUSH1 0x4 ADD PUSH2 0x10E7 SWAP5 SWAP4 SWAP3 SWAP2 SWAP1 PUSH2 0x1BC0 JUMP JUMPDEST PUSH1 0x20 PUSH1 0x40 MLOAD DUP1 DUP4 SUB DUP2 PUSH1 0x0 DUP8 GAS CALL SWAP3 POP POP POP DUP1 ISZERO PUSH2 0x1123 JUMPI POP PUSH1 0x40 MLOAD RETURNDATASIZE PUSH1 0x1F NOT PUSH1 0x1F DUP3 ADD AND DUP3 ADD DUP1 PUSH1 0x40 MSTORE POP DUP2 ADD SWAP1 PUSH2 0x1120 SWAP2 SWAP1 PUSH2 0x1C21 JUMP JUMPDEST PUSH1 0x1 JUMPDEST PUSH2 0x119C JUMPI RETURNDATASIZE DUP1 PUSH1 0x0 DUP2 EQ PUSH2 0x1153 JUMPI PUSH1 0x40 MLOAD SWAP2 POP PUSH1 0x1F NOT PUSH1 0x3F RETURNDATASIZE ADD AND DUP3 ADD PUSH1 0x40 MSTORE RETURNDATASIZE DUP3 MSTORE RETURNDATASIZE PUSH1 0x0 PUSH1 0x20 DUP5 ADD RETURNDATACOPY PUSH2 0x1158 JUMP JUMPDEST PUSH1 0x60 SWAP2 POP JUMPDEST POP PUSH1 0x0 DUP2 MLOAD SUB PUSH2 0x1194 JUMPI PUSH1 0x40 MLOAD PUSH32 0xD1A57ED600000000000000000000000000000000000000000000000000000000 DUP2 MSTORE PUSH1 0x4 ADD PUSH1 0x40 MLOAD DUP1 SWAP2 SUB SWAP1 REVERT JUMPDEST DUP1 MLOAD DUP2 PUSH1 0x20 ADD REVERT JUMPDEST PUSH4 0x150B7A02 PUSH1 0xE0 SHL PUSH28 0xFFFFFFFFFFFFFFFFFFFFFFFFFFFFFFFFFFFFFFFFFFFFFFFFFFFFFFFF NOT AND DUP2 PUSH28 0xFFFFFFFFFFFFFFFFFFFFFFFFFFFFFFFFFFFFFFFFFFFFFFFFFFFFFFFF NOT AND EQ SWAP2 POP POP SWAP5 SWAP4 POP POP POP POP JUMP JUMPDEST PUSH1 0x60 PUSH1 0x40 MLOAD DUP1 PUSH1 0x20 ADD PUSH1 0x40 MSTORE DUP1 PUSH1 0x0 DUP2 MSTORE POP SWAP1 POP SWAP1 JUMP JUMPDEST PUSH1 0x60 PUSH1 0x80 PUSH1 0x40 MLOAD ADD SWAP1 POP DUP1 PUSH1 0x40 MSTORE DUP1 DUP3 PUSH1 0x1 DUP4 SUB SWAP3 POP PUSH1 0xA DUP2 MOD PUSH1 0x30 ADD DUP4 MSTORE8 PUSH1 0xA DUP2 DIV SWAP1 POP JUMPDEST DUP1 ISZERO PUSH2 0x124C JUMPI PUSH1 0x1 DUP4 SUB SWAP3 POP PUSH1 0xA DUP2 MOD PUSH1 0x30 ADD DUP4 MSTORE8 PUSH1 0xA DUP2 DIV SWAP1 POP PUSH2 0x122C JUMP JUMPDEST POP DUP2 DUP2 SUB PUSH1 0x20 DUP4 SUB SWAP3 POP DUP1 DUP4 MSTORE POP POP SWAP2 SWAP1 POP JUMP JUMPDEST PUSH1 0x0 SWAP4 SWAP3 POP POP POP JUMP JUMPDEST PUSH2 0x1273 DUP4 DUP4 PUSH2 0x1306 JUMP JUMPDEST PUSH1 0x0 DUP4 PUSH20 0xFFFFFFFFFFFFFFFFFFFFFFFFFFFFFFFFFFFFFFFF AND EXTCODESIZE EQ PUSH2 0x1301 JUMPI PUSH1 0x0 DUP1 SLOAD SWAP1 POP PUSH1 0x0 DUP4 DUP3 SUB SWAP1 POP JUMPDEST PUSH2 0x12B3 PUSH1 0x0 DUP7 DUP4 DUP1 PUSH1 0x1 ADD SWAP5 POP DUP7 PUSH2 0x109F JUMP JUMPDEST PUSH2 0x12E9 JUMPI PUSH1 0x40 MLOAD PUSH32 0xD1A57ED600000000000000000000000000000000000000000000000000000000 DUP2 MSTORE PUSH1 0x4 ADD PUSH1 0x40 MLOAD DUP1 SWAP2 SUB SWAP1 REVERT JUMPDEST DUP2 DUP2 LT PUSH2 0x12A0 JUMPI DUP2 PUSH1 0x0 SLOAD EQ PUSH2 0x12FE JUMPI PUSH1 0x0 DUP1 REVERT JUMPDEST POP POP JUMPDEST POP POP POP JUMP JUMPDEST PUSH1 0x0 DUP1 SLOAD SWAP1 POP PUSH1 0x0 PUSH20 0xFFFFFFFFFFFFFFFFFFFFFFFFFFFFFFFFFFFFFFFF AND DUP4 PUSH20 0xFFFFFFFFFFFFFFFFFFFFFFFFFFFFFFFFFFFFFFFF AND SUB PUSH2 0x1372 JUMPI PUSH1 0x40 MLOAD PUSH32 0x2E07630000000000000000000000000000000000000000000000000000000000 DUP2 MSTORE PUSH1 0x4 ADD PUSH1 0x40 MLOAD DUP1 SWAP2 SUB SWAP1 REVERT JUMPDEST PUSH1 0x0 DUP3 SUB PUSH2 0x13AC JUMPI PUSH1 0x40 MLOAD PUSH32 0xB562E8DD00000000000000000000000000000000000000000000000000000000 DUP2 MSTORE PUSH1 0x4 ADD PUSH1 0x40 MLOAD DUP1 SWAP2 SUB SWAP1 REVERT JUMPDEST PUSH2 0x13B9 PUSH1 0x0 DUP5 DUP4 DUP6 PUSH2 0x1022 JUMP JUMPDEST PUSH1 0x1 PUSH1 0x40 PUSH1 0x1 SWAP1 SHL OR DUP3 MUL PUSH1 0x5 PUSH1 0x0 DUP6 PUSH20 0xFFFFFFFFFFFFFFFFFFFFFFFFFFFFFFFFFFFFFFFF AND PUSH20 0xFFFFFFFFFFFFFFFFFFFFFFFFFFFFFFFFFFFFFFFF AND DUP2 MSTORE PUSH1 0x20 ADD SWAP1 DUP2 MSTORE PUSH1 0x20 ADD PUSH1 0x0 KECCAK256 PUSH1 0x0 DUP3 DUP3 SLOAD ADD SWAP3 POP POP DUP2 SWAP1 SSTORE POP PUSH2 0x1430 DUP4 PUSH2 0x1421 PUSH1 0x0 DUP7 PUSH1 0x0 PUSH2 0x1028 JUMP JUMPDEST PUSH2 0x142A DUP6 PUSH2 0x14D8 JUMP JUMPDEST OR PUSH2 0x1050 JUMP JUMPDEST PUSH1 0x4 PUSH1 0x0 DUP4 DUP2 MSTORE PUSH1 0x20 ADD SWAP1 DUP2 MSTORE PUSH1 0x20 ADD PUSH1 0x0 KECCAK256 DUP2 SWAP1 SSTORE POP PUSH1 0x0 DUP2 SWAP1 POP PUSH1 0x0 DUP4 DUP4 ADD SWAP1 POP JUMPDEST DUP2 DUP1 PUSH1 0x1 ADD SWAP3 POP DUP6 PUSH20 0xFFFFFFFFFFFFFFFFFFFFFFFFFFFFFFFFFFFFFFFF AND PUSH1 0x0 PUSH20 0xFFFFFFFFFFFFFFFFFFFFFFFFFFFFFFFFFFFFFFFF AND PUSH32 0xDDF252AD1BE2C89B69C2B068FC378DAA952BA7F163C4A11628F55A4DF523B3EF PUSH1 0x40 MLOAD PUSH1 0x40 MLOAD DUP1 SWAP2 SUB SWAP1 LOG4 DUP1 DUP3 LT PUSH2 0x1454 JUMPI DUP1 PUSH1 0x0 DUP2 SWAP1 SSTORE POP POP POP PUSH2 0x14D3 PUSH1 0x0 DUP5 DUP4 DUP6 PUSH2 0x107B JUMP JUMPDEST POP POP POP JUMP JUMPDEST PUSH1 0x0 PUSH1 0x1 DUP3 EQ PUSH1 0xE1 SHL SWAP1 POP SWAP2 SWAP1 POP JUMP JUMPDEST PUSH1 0x0 PUSH1 0x40 MLOAD SWAP1 POP SWAP1 JUMP JUMPDEST PUSH1 0x0 DUP1 REVERT JUMPDEST PUSH1 0x0 DUP1 REVERT JUMPDEST PUSH1 0x0 PUSH32 0xFFFFFFFF00000000000000000000000000000000000000000000000000000000 DUP3 AND SWAP1 POP SWAP2 SWAP1 POP JUMP JUMPDEST PUSH2 0x1531 DUP2 PUSH2 0x14FC JUMP JUMPDEST DUP2 EQ PUSH2 0x153C JUMPI PUSH1 0x0 DUP1 REVERT JUMPDEST POP JUMP JUMPDEST PUSH1 0x0 DUP2 CALLDATALOAD SWAP1 POP PUSH2 0x154E DUP2 PUSH2 0x1528 JUMP JUMPDEST SWAP3 SWAP2 POP POP JUMP JUMPDEST PUSH1 0x0 PUSH1 0x20 DUP3 DUP5 SUB SLT ISZERO PUSH2 0x156A JUMPI PUSH2 0x1569 PUSH2 0x14F2 JUMP JUMPDEST JUMPDEST PUSH1 0x0 PUSH2 0x1578 DUP5 DUP3 DUP6 ADD PUSH2 0x153F JUMP JUMPDEST SWAP2 POP POP SWAP3 SWAP2 POP POP JUMP JUMPDEST PUSH1 0x0 DUP2 ISZERO ISZERO SWAP1 POP SWAP2 SWAP1 POP JUMP JUMPDEST PUSH2 0x1596 DUP2 PUSH2 0x1581 JUMP JUMPDEST DUP3 MSTORE POP POP JUMP JUMPDEST PUSH1 0x0 PUSH1 0x20 DUP3 ADD SWAP1 POP PUSH2 0x15B1 PUSH1 0x0 DUP4 ADD DUP5 PUSH2 0x158D JUMP JUMPDEST SWAP3 SWAP2 POP POP JUMP JUMPDEST PUSH1 0x0 DUP2 MLOAD SWAP1 POP SWAP2 SWAP1 POP JUMP JUMPDEST PUSH1 0x0 DUP3 DUP3 MSTORE PUSH1 0x20 DUP3 ADD SWAP1 POP SWAP3 SWAP2 POP POP JUMP JUMPDEST PUSH1 0x0 JUMPDEST DUP4 DUP2 LT ISZERO PUSH2 0x15F1 JUMPI DUP1 DUP3 ADD MLOAD DUP2 DUP5 ADD MSTORE PUSH1 0x20 DUP2 ADD SWAP1 POP PUSH2 0x15D6 JUMP JUMPDEST DUP4 DUP2 GT ISZERO PUSH2 0x1600 JUMPI PUSH1 0x0 DUP5 DUP5 ADD MSTORE JUMPDEST POP POP POP POP JUMP JUMPDEST PUSH1 0x0 PUSH1 0x1F NOT PUSH1 0x1F DUP4 ADD AND SWAP1 POP SWAP2 SWAP1 POP JUMP JUMPDEST PUSH1 0x0 PUSH2 0x1622 DUP3 PUSH2 0x15B7 JUMP JUMPDEST PUSH2 0x162C DUP2 DUP6 PUSH2 0x15C2 JUMP JUMPDEST SWAP4 POP PUSH2 0x163C DUP2 DUP6 PUSH1 0x20 DUP7 ADD PUSH2 0x15D3 JUMP JUMPDEST PUSH2 0x1645 DUP2 PUSH2 0x1606 JUMP JUMPDEST DUP5 ADD SWAP2 POP POP SWAP3 SWAP2 POP POP JUMP JUMPDEST PUSH1 0x0 PUSH1 0x20 DUP3 ADD SWAP1 POP DUP2 DUP2 SUB PUSH1 0x0 DUP4 ADD MSTORE PUSH2 0x166A DUP2 DUP5 PUSH2 0x1617 JUMP JUMPDEST SWAP1 POP SWAP3 SWAP2 POP POP JUMP JUMPDEST PUSH1 0x0 DUP2 SWAP1 POP SWAP2 SWAP1 POP JUMP JUMPDEST PUSH2 0x1685 DUP2 PUSH2 0x1672 JUMP JUMPDEST DUP2 EQ PUSH2 0x1690 JUMPI PUSH1 0x0 DUP1 REVERT JUMPDEST POP JUMP JUMPDEST PUSH1 0x0 DUP2 CALLDATALOAD SWAP1 POP PUSH2 0x16A2 DUP2 PUSH2 0x167C JUMP JUMPDEST SWAP3 SWAP2 POP POP JUMP JUMPDEST PUSH1 0x0 PUSH1 0x20 DUP3 DUP5 SUB SLT ISZERO PUSH2 0x16BE JUMPI PUSH2 0x16BD PUSH2 0x14F2 JUMP JUMPDEST JUMPDEST PUSH1 0x0 PUSH2 0x16CC DUP5 DUP3 DUP6 ADD PUSH2 0x1693 JUMP JUMPDEST SWAP2 POP POP SWAP3 SWAP2 POP POP JUMP JUMPDEST PUSH1 0x0 PUSH20 0xFFFFFFFFFFFFFFFFFFFFFFFFFFFFFFFFFFFFFFFF DUP3 AND SWAP1 POP SWAP2 SWAP1 POP JUMP JUMPDEST PUSH1 0x0 PUSH2 0x1700 DUP3 PUSH2 0x16D5 JUMP JUMPDEST SWAP1 POP SWAP2 SWAP1 POP JUMP JUMPDEST PUSH2 0x1710 DUP2 PUSH2 0x16F5 JUMP JUMPDEST DUP3 MSTORE POP POP JUMP JUMPDEST PUSH1 0x0 PUSH1 0x20 DUP3 ADD SWAP1 POP PUSH2 0x172B PUSH1 0x0 DUP4 ADD DUP5 PUSH2 0x1707 JUMP JUMPDEST SWAP3 SWAP2 POP POP JUMP JUMPDEST PUSH2 0x173A DUP2 PUSH2 0x16F5 JUMP JUMPDEST DUP2 EQ PUSH2 0x1745 JUMPI PUSH1 0x0 DUP1 REVERT JUMPDEST POP JUMP JUMPDEST PUSH1 0x0 DUP2 CALLDATALOAD SWAP1 POP PUSH2 0x1757 DUP2 PUSH2 0x1731 JUMP JUMPDEST SWAP3 SWAP2 POP POP JUMP JUMPDEST PUSH1 0x0 DUP1 PUSH1 0x40 DUP4 DUP6 SUB SLT ISZERO PUSH2 0x1774 JUMPI PUSH2 0x1773 PUSH2 0x14F2 JUMP JUMPDEST JUMPDEST PUSH1 0x0 PUSH2 0x1782 DUP6 DUP3 DUP7 ADD PUSH2 0x1748 JUMP JUMPDEST SWAP3 POP POP PUSH1 0x20 PUSH2 0x1793 DUP6 DUP3 DUP7 ADD PUSH2 0x1693 JUMP JUMPDEST SWAP2 POP POP SWAP3 POP SWAP3 SWAP1 POP JUMP JUMPDEST PUSH2 0x17A6 DUP2 PUSH2 0x1672 JUMP JUMPDEST DUP3 MSTORE POP POP JUMP JUMPDEST PUSH1 0x0 PUSH1 0x20 DUP3 ADD SWAP1 POP PUSH2 0x17C1 PUSH1 0x0 DUP4 ADD DUP5 PUSH2 0x179D JUMP JUMPDEST SWAP3 SWAP2 POP POP JUMP JUMPDEST PUSH1 0x0 DUP1 PUSH1 0x0 PUSH1 0x60 DUP5 DUP7 SUB SLT ISZERO PUSH2 0x17E0 JUMPI PUSH2 0x17DF PUSH2 0x14F2 JUMP JUMPDEST JUMPDEST PUSH1 0x0 PUSH2 0x17EE DUP7 DUP3 DUP8 ADD PUSH2 0x1748 JUMP JUMPDEST SWAP4 POP POP PUSH1 0x20 PUSH2 0x17FF DUP7 DUP3 DUP8 ADD PUSH2 0x1748 JUMP JUMPDEST SWAP3 POP POP PUSH1 0x40 PUSH2 0x1810 DUP7 DUP3 DUP8 ADD PUSH2 0x1693 JUMP JUMPDEST SWAP2 POP POP SWAP3 POP SWAP3 POP SWAP3 JUMP JUMPDEST PUSH1 0x0 PUSH1 0x20 DUP3 DUP5 SUB SLT ISZERO PUSH2 0x1830 JUMPI PUSH2 0x182F PUSH2 0x14F2 JUMP JUMPDEST JUMPDEST PUSH1 0x0 PUSH2 0x183E DUP5 DUP3 DUP6 ADD PUSH2 0x1748 JUMP JUMPDEST SWAP2 POP POP SWAP3 SWAP2 POP POP JUMP JUMPDEST PUSH2 0x1850 DUP2 PUSH2 0x1581 JUMP JUMPDEST DUP2 EQ PUSH2 0x185B JUMPI PUSH1 0x0 DUP1 REVERT JUMPDEST POP JUMP JUMPDEST PUSH1 0x0 DUP2 CALLDATALOAD SWAP1 POP PUSH2 0x186D DUP2 PUSH2 0x1847 JUMP JUMPDEST SWAP3 SWAP2 POP POP JUMP JUMPDEST PUSH1 0x0 DUP1 PUSH1 0x40 DUP4 DUP6 SUB SLT ISZERO PUSH2 0x188A JUMPI PUSH2 0x1889 PUSH2 0x14F2 JUMP JUMPDEST JUMPDEST PUSH1 0x0 PUSH2 0x1898 DUP6 DUP3 DUP7 ADD PUSH2 0x1748 JUMP JUMPDEST SWAP3 POP POP PUSH1 0x20 PUSH2 0x18A9 DUP6 DUP3 DUP7 ADD PUSH2 0x185E JUMP JUMPDEST SWAP2 POP POP SWAP3 POP SWAP3 SWAP1 POP JUMP JUMPDEST PUSH1 0x0 DUP1 REVERT JUMPDEST PUSH1 0x0 DUP1 REVERT JUMPDEST PUSH32 0x4E487B7100000000000000000000000000000000000000000000000000000000 PUSH1 0x0 MSTORE PUSH1 0x41 PUSH1 0x4 MSTORE PUSH1 0x24 PUSH1 0x0 REVERT JUMPDEST PUSH2 0x18F5 DUP3 PUSH2 0x1606 JUMP JUMPDEST DUP2 ADD DUP2 DUP2 LT PUSH8 0xFFFFFFFFFFFFFFFF DUP3 GT OR ISZERO PUSH2 0x1914 JUMPI PUSH2 0x1913 PUSH2 0x18BD JUMP JUMPDEST JUMPDEST DUP1 PUSH1 0x40 MSTORE POP POP POP JUMP JUMPDEST PUSH1 0x0 PUSH2 0x1927 PUSH2 0x14E8 JUMP JUMPDEST SWAP1 POP PUSH2 0x1933 DUP3 DUP3 PUSH2 0x18EC JUMP JUMPDEST SWAP2 SWAP1 POP JUMP JUMPDEST PUSH1 0x0 PUSH8 0xFFFFFFFFFFFFFFFF DUP3 GT ISZERO PUSH2 0x1953 JUMPI PUSH2 0x1952 PUSH2 0x18BD JUMP JUMPDEST JUMPDEST PUSH2 0x195C DUP3 PUSH2 0x1606 JUMP JUMPDEST SWAP1 POP PUSH1 0x20 DUP2 ADD SWAP1 POP SWAP2 SWAP1 POP JUMP JUMPDEST DUP3 DUP2 DUP4 CALLDATACOPY PUSH1 0x0 DUP4 DUP4 ADD MSTORE POP POP POP JUMP JUMPDEST PUSH1 0x0 PUSH2 0x198B PUSH2 0x1986 DUP5 PUSH2 0x1938 JUMP JUMPDEST PUSH2 0x191D JUMP JUMPDEST SWAP1 POP DUP3 DUP2 MSTORE PUSH1 0x20 DUP2 ADD DUP5 DUP5 DUP5 ADD GT ISZERO PUSH2 0x19A7 JUMPI PUSH2 0x19A6 PUSH2 0x18B8 JUMP JUMPDEST JUMPDEST PUSH2 0x19B2 DUP5 DUP3 DUP6 PUSH2 0x1969 JUMP JUMPDEST POP SWAP4 SWAP3 POP POP POP JUMP JUMPDEST PUSH1 0x0 DUP3 PUSH1 0x1F DUP4 ADD SLT PUSH2 0x19CF JUMPI PUSH2 0x19CE PUSH2 0x18B3 JUMP JUMPDEST JUMPDEST DUP2 CALLDATALOAD PUSH2 0x19DF DUP5 DUP3 PUSH1 0x20 DUP7 ADD PUSH2 0x1978 JUMP JUMPDEST SWAP2 POP POP SWAP3 SWAP2 POP POP JUMP JUMPDEST PUSH1 0x0 DUP1 PUSH1 0x0 DUP1 PUSH1 0x80 DUP6 DUP8 SUB SLT ISZERO PUSH2 0x1A02 JUMPI PUSH2 0x1A01 PUSH2 0x14F2 JUMP JUMPDEST JUMPDEST PUSH1 0x0 PUSH2 0x1A10 DUP8 DUP3 DUP9 ADD PUSH2 0x1748 JUMP JUMPDEST SWAP5 POP POP PUSH1 0x20 PUSH2 0x1A21 DUP8 DUP3 DUP9 ADD PUSH2 0x1748 JUMP JUMPDEST SWAP4 POP POP PUSH1 0x40 PUSH2 0x1A32 DUP8 DUP3 DUP9 ADD PUSH2 0x1693 JUMP JUMPDEST SWAP3 POP POP PUSH1 0x60 DUP6 ADD CALLDATALOAD PUSH8 0xFFFFFFFFFFFFFFFF DUP2 GT ISZERO PUSH2 0x1A53 JUMPI PUSH2 0x1A52 PUSH2 0x14F7 JUMP JUMPDEST JUMPDEST PUSH2 0x1A5F DUP8 DUP3 DUP9 ADD PUSH2 0x19BA JUMP JUMPDEST SWAP2 POP POP SWAP3 SWAP6 SWAP2 SWAP5 POP SWAP3 POP JUMP JUMPDEST PUSH1 0x0 DUP1 PUSH1 0x40 DUP4 DUP6 SUB SLT ISZERO PUSH2 0x1A82 JUMPI PUSH2 0x1A81 PUSH2 0x14F2 JUMP JUMPDEST JUMPDEST PUSH1 0x0 PUSH2 0x1A90 DUP6 DUP3 DUP7 ADD PUSH2 0x1748 JUMP JUMPDEST SWAP3 POP POP PUSH1 0x20 PUSH2 0x1AA1 DUP6 DUP3 DUP7 ADD PUSH2 0x1748 JUMP JUMPDEST SWAP2 POP POP SWAP3 POP SWAP3 SWAP1 POP JUMP JUMPDEST PUSH32 0x4E487B7100000000000000000000000000000000000000000000000000000000 PUSH1 0x0 MSTORE PUSH1 0x22 PUSH1 0x4 MSTORE PUSH1 0x24 PUSH1 0x0 REVERT JUMPDEST PUSH1 0x0 PUSH1 0x2 DUP3 DIV SWAP1 POP PUSH1 0x1 DUP3 AND DUP1 PUSH2 0x1AF2 JUMPI PUSH1 0x7F DUP3 AND SWAP2 POP JUMPDEST PUSH1 0x20 DUP3 LT DUP2 SUB PUSH2 0x1B05 JUMPI PUSH2 0x1B04 PUSH2 0x1AAB JUMP JUMPDEST JUMPDEST POP SWAP2 SWAP1 POP JUMP JUMPDEST PUSH1 0x0 DUP2 SWAP1 POP SWAP3 SWAP2 POP POP JUMP JUMPDEST PUSH1 0x0 PUSH2 0x1B21 DUP3 PUSH2 0x15B7 JUMP JUMPDEST PUSH2 0x1B2B DUP2 DUP6 PUSH2 0x1B0B JUMP JUMPDEST SWAP4 POP PUSH2 0x1B3B DUP2 DUP6 PUSH1 0x20 DUP7 ADD PUSH2 0x15D3 JUMP JUMPDEST DUP1 DUP5 ADD SWAP2 POP POP SWAP3 SWAP2 POP POP JUMP JUMPDEST PUSH1 0x0 PUSH2 0x1B53 DUP3 DUP6 PUSH2 0x1B16 JUMP JUMPDEST SWAP2 POP PUSH2 0x1B5F DUP3 DUP5 PUSH2 0x1B16 JUMP JUMPDEST SWAP2 POP DUP2 SWAP1 POP SWAP4 SWAP3 POP POP POP JUMP JUMPDEST PUSH1 0x0 DUP2 MLOAD SWAP1 POP SWAP2 SWAP1 POP JUMP JUMPDEST PUSH1 0x0 DUP3 DUP3 MSTORE PUSH1 0x20 DUP3 ADD SWAP1 POP SWAP3 SWAP2 POP POP JUMP JUMPDEST PUSH1 0x0 PUSH2 0x1B92 DUP3 PUSH2 0x1B6B JUMP JUMPDEST PUSH2 0x1B9C DUP2 DUP6 PUSH2 0x1B76 JUMP JUMPDEST SWAP4 POP PUSH2 0x1BAC DUP2 DUP6 PUSH1 0x20 DUP7 ADD PUSH2 0x15D3 JUMP JUMPDEST PUSH2 0x1BB5 DUP2 PUSH2 0x1606 JUMP JUMPDEST DUP5 ADD SWAP2 POP POP SWAP3 SWAP2 POP POP JUMP JUMPDEST PUSH1 0x0 PUSH1 0x80 DUP3 ADD SWAP1 POP PUSH2 0x1BD5 PUSH1 0x0 DUP4 ADD DUP8 PUSH2 0x1707 JUMP JUMPDEST PUSH2 0x1BE2 PUSH1 0x20 DUP4 ADD DUP7 PUSH2 0x1707 JUMP JUMPDEST PUSH2 0x1BEF PUSH1 0x40 DUP4 ADD DUP6 PUSH2 0x179D JUMP JUMPDEST DUP2 DUP2 SUB PUSH1 0x60 DUP4 ADD MSTORE PUSH2 0x1C01 DUP2 DUP5 PUSH2 0x1B87 JUMP JUMPDEST SWAP1 POP SWAP6 SWAP5 POP POP POP POP POP JUMP JUMPDEST PUSH1 0x0 DUP2 MLOAD SWAP1 POP PUSH2 0x1C1B DUP2 PUSH2 0x1528 JUMP JUMPDEST SWAP3 SWAP2 POP POP JUMP JUMPDEST PUSH1 0x0 PUSH1 0x20 DUP3 DUP5 SUB SLT ISZERO PUSH2 0x1C37 JUMPI PUSH2 0x1C36 PUSH2 0x14F2 JUMP JUMPDEST JUMPDEST PUSH1 0x0 PUSH2 0x1C45 DUP5 DUP3 DUP6 ADD PUSH2 0x1C0C JUMP JUMPDEST SWAP2 POP POP SWAP3 SWAP2 POP POP JUMP INVALID LOG2 PUSH5 0x6970667358 0x22 SLT KECCAK256 SELFDESTRUCT DUP16 0x21 SWAP5 SWAP1 CALLDATALOAD SWAP5 0xCB EXTCODESIZE 0x29 DUP15 DUP4 0xEA SELFDESTRUCT DUP2 0xE1 0xBA SLT 0xAD 0xB2 0xB9 0xAD ADD 0xFB PUSH24 0x8847ACC07F8CE064736F6C634300080F0033000000000000 "
				},
				"gasEstimates": {
					"creation": {
						"codeDepositCost": "1460000",
						"executionCost": "infinite",
						"totalCost": "infinite"
					},
					"external": {
						"approve(address,uint256)": "infinite",
						"balanceOf(address)": "2927",
						"getApproved(uint256)": "7375",
						"isApprovedForAll(address,address)": "infinite",
						"mint(uint256)": "infinite",
						"name()": "infinite",
						"ownerOf(uint256)": "infinite",
						"safeTransferFrom(address,address,uint256)": "infinite",
						"safeTransferFrom(address,address,uint256,bytes)": "infinite",
						"setApprovalForAll(address,bool)": "infinite",
						"supportsInterface(bytes4)": "745",
						"symbol()": "infinite",
						"tokenURI(uint256)": "5542",
						"totalSupply()": "4621",
						"transferFrom(address,address,uint256)": "infinite"
					}
				},
				"methodIdentifiers": {
					"approve(address,uint256)": "095ea7b3",
					"balanceOf(address)": "70a08231",
					"getApproved(uint256)": "081812fc",
					"isApprovedForAll(address,address)": "e985e9c5",
					"mint(uint256)": "a0712d68",
					"name()": "06fdde03",
					"ownerOf(uint256)": "6352211e",
					"safeTransferFrom(address,address,uint256)": "42842e0e",
					"safeTransferFrom(address,address,uint256,bytes)": "b88d4fde",
					"setApprovalForAll(address,bool)": "a22cb465",
					"supportsInterface(bytes4)": "01ffc9a7",
					"symbol()": "95d89b41",
					"tokenURI(uint256)": "c87b56dd",
					"totalSupply()": "18160ddd",
					"transferFrom(address,address,uint256)": "23b872dd"
				}
			},
			"storageLayout": {
				"storage": [
					{
						"astId": 111,
						"contract": "Day50_ERC721A.sol:Azuki",
						"label": "_currentIndex",
						"offset": 0,
						"slot": "0",
						"type": "t_uint256"
					},
					{
						"astId": 113,
						"contract": "Day50_ERC721A.sol:Azuki",
						"label": "_burnCounter",
						"offset": 0,
						"slot": "1",
						"type": "t_uint256"
					},
					{
						"astId": 115,
						"contract": "Day50_ERC721A.sol:Azuki",
						"label": "_name",
						"offset": 0,
						"slot": "2",
						"type": "t_string_storage"
					},
					{
						"astId": 117,
						"contract": "Day50_ERC721A.sol:Azuki",
						"label": "_symbol",
						"offset": 0,
						"slot": "3",
						"type": "t_string_storage"
					},
					{
						"astId": 121,
						"contract": "Day50_ERC721A.sol:Azuki",
						"label": "_packedOwnerships",
						"offset": 0,
						"slot": "4",
						"type": "t_mapping(t_uint256,t_uint256)"
					},
					{
						"astId": 125,
						"contract": "Day50_ERC721A.sol:Azuki",
						"label": "_packedAddressData",
						"offset": 0,
						"slot": "5",
						"type": "t_mapping(t_address,t_uint256)"
					},
					{
						"astId": 129,
						"contract": "Day50_ERC721A.sol:Azuki",
						"label": "_tokenApprovals",
						"offset": 0,
						"slot": "6",
						"type": "t_mapping(t_uint256,t_address)"
					},
					{
						"astId": 135,
						"contract": "Day50_ERC721A.sol:Azuki",
						"label": "_operatorApprovals",
						"offset": 0,
						"slot": "7",
						"type": "t_mapping(t_address,t_mapping(t_address,t_bool))"
					}
				],
				"types": {
					"t_address": {
						"encoding": "inplace",
						"label": "address",
						"numberOfBytes": "20"
					},
					"t_bool": {
						"encoding": "inplace",
						"label": "bool",
						"numberOfBytes": "1"
					},
					"t_mapping(t_address,t_bool)": {
						"encoding": "mapping",
						"key": "t_address",
						"label": "mapping(address => bool)",
						"numberOfBytes": "32",
						"value": "t_bool"
					},
					"t_mapping(t_address,t_mapping(t_address,t_bool))": {
						"encoding": "mapping",
						"key": "t_address",
						"label": "mapping(address => mapping(address => bool))",
						"numberOfBytes": "32",
						"value": "t_mapping(t_address,t_bool)"
					},
					"t_mapping(t_address,t_uint256)": {
						"encoding": "mapping",
						"key": "t_address",
						"label": "mapping(address => uint256)",
						"numberOfBytes": "32",
						"value": "t_uint256"
					},
					"t_mapping(t_uint256,t_address)": {
						"encoding": "mapping",
						"key": "t_uint256",
						"label": "mapping(uint256 => address)",
						"numberOfBytes": "32",
						"value": "t_address"
					},
					"t_mapping(t_uint256,t_uint256)": {
						"encoding": "mapping",
						"key": "t_uint256",
						"label": "mapping(uint256 => uint256)",
						"numberOfBytes": "32",
						"value": "t_uint256"
					},
					"t_string_storage": {
						"encoding": "bytes",
						"label": "string",
						"numberOfBytes": "32"
					},
					"t_uint256": {
						"encoding": "inplace",
						"label": "uint256",
						"numberOfBytes": "32"
					}
				}
			},
			"userdoc": {
				"errors": {
					"ApprovalCallerNotOwnerNorApproved()": [
						{
							"notice": "The caller must own the token or be an approved operator."
						}
					],
					"ApprovalQueryForNonexistentToken()": [
						{
							"notice": "The token does not exist."
						}
					],
					"ApproveToCaller()": [
						{
							"notice": "The caller cannot approve to their own address."
						}
					],
					"BalanceQueryForZeroAddress()": [
						{
							"notice": "Cannot query the balance for the zero address."
						}
					],
					"MintERC2309QuantityExceedsLimit()": [
						{
							"notice": "The `quantity` minted with ERC2309 exceeds the safety limit."
						}
					],
					"MintToZeroAddress()": [
						{
							"notice": "Cannot mint to the zero address."
						}
					],
					"MintZeroQuantity()": [
						{
							"notice": "The quantity of tokens minted must be more than zero."
						}
					],
					"OwnerQueryForNonexistentToken()": [
						{
							"notice": "The token does not exist."
						}
					],
					"OwnershipNotInitializedForExtraData()": [
						{
							"notice": "The `extraData` cannot be set on an unintialized ownership slot."
						}
					],
					"TransferCallerNotOwnerNorApproved()": [
						{
							"notice": "The caller must own the token or be an approved operator."
						}
					],
					"TransferFromIncorrectOwner()": [
						{
							"notice": "The token must be owned by `from`."
						}
					],
					"TransferToNonERC721ReceiverImplementer()": [
						{
							"notice": "Cannot safely transfer to a contract that does not implement the ERC721Receiver interface."
						}
					],
					"TransferToZeroAddress()": [
						{
							"notice": "Cannot transfer to the zero address."
						}
					],
					"URIQueryForNonexistentToken()": [
						{
							"notice": "The token does not exist."
						}
					]
				},
				"kind": "user",
				"methods": {},
				"version": 1
			}
		}
	}
}