{
	"Day20_Struct.sol": {
		"Struct": {
			"abi": [
				{
					"inputs": [],
					"name": "car",
					"outputs": [
						{
							"internalType": "string",
							"name": "model",
							"type": "string"
						},
						{
							"internalType": "uint256",
							"name": "year",
							"type": "uint256"
						},
						{
							"internalType": "address",
							"name": "owner",
							"type": "address"
						}
					],
					"stateMutability": "view",
					"type": "function"
				},
				{
					"inputs": [
						{
							"internalType": "uint256",
							"name": "",
							"type": "uint256"
						}
					],
					"name": "cars",
					"outputs": [
						{
							"internalType": "string",
							"name": "model",
							"type": "string"
						},
						{
							"internalType": "uint256",
							"name": "year",
							"type": "uint256"
						},
						{
							"internalType": "address",
							"name": "owner",
							"type": "address"
						}
					],
					"stateMutability": "view",
					"type": "function"
				},
				{
					"inputs": [
						{
							"internalType": "address",
							"name": "",
							"type": "address"
						},
						{
							"internalType": "uint256",
							"name": "",
							"type": "uint256"
						}
					],
					"name": "carsByOwner",
					"outputs": [
						{
							"internalType": "string",
							"name": "model",
							"type": "string"
						},
						{
							"internalType": "uint256",
							"name": "year",
							"type": "uint256"
						},
						{
							"internalType": "address",
							"name": "owner",
							"type": "address"
						}
					],
					"stateMutability": "view",
					"type": "function"
				},
				{
					"inputs": [],
					"name": "exapmles",
					"outputs": [],
					"stateMutability": "nonpayable",
					"type": "function"
				}
			],
			"devdoc": {
				"kind": "dev",
				"methods": {},
				"version": 1
			},
			"evm": {
				"assembly": "    /* \"Day20_Struct.sol\":58:768  contract Struct {... */\n  mstore(0x40, 0x80)\n  callvalue\n  dup1\n  iszero\n  tag_1\n  jumpi\n  0x00\n  dup1\n  revert\ntag_1:\n  pop\n  dataSize(sub_0)\n  dup1\n  dataOffset(sub_0)\n  0x00\n  codecopy\n  0x00\n  return\nstop\n\nsub_0: assembly {\n        /* \"Day20_Struct.sol\":58:768  contract Struct {... */\n      mstore(0x40, 0x80)\n      callvalue\n      dup1\n      iszero\n      tag_1\n      jumpi\n      0x00\n      dup1\n      revert\n    tag_1:\n      pop\n      jumpi(tag_2, lt(calldatasize, 0x04))\n      shr(0xe0, calldataload(0x00))\n      dup1\n      0x4d1c3e33\n      eq\n      tag_3\n      jumpi\n      dup1\n      0xaa9fb6c8\n      eq\n      tag_4\n      jumpi\n      dup1\n      0xee26fac3\n      eq\n      tag_5\n      jumpi\n      dup1\n      0xf7746e36\n      eq\n      tag_6\n      jumpi\n    tag_2:\n      0x00\n      dup1\n      revert\n        /* \"Day20_Struct.sol\":262:766  function exapmles () external {... */\n    tag_3:\n      tag_7\n      tag_8\n      jump\t// in\n    tag_7:\n      stop\n        /* \"Day20_Struct.sol\":211:255  mapping(address => Car[]) public carsByOwner */\n    tag_4:\n      tag_9\n      0x04\n      dup1\n      calldatasize\n      sub\n      dup2\n      add\n      swap1\n      tag_10\n      swap2\n      swap1\n      tag_11\n      jump\t// in\n    tag_10:\n      tag_12\n      jump\t// in\n    tag_9:\n      mload(0x40)\n      tag_13\n      swap4\n      swap3\n      swap2\n      swap1\n      tag_14\n      jump\t// in\n    tag_13:\n      mload(0x40)\n      dup1\n      swap2\n      sub\n      swap1\n      return\n        /* \"Day20_Struct.sol\":168:182  Car public car */\n    tag_5:\n      tag_15\n      tag_16\n      jump\t// in\n    tag_15:\n      mload(0x40)\n      tag_17\n      swap4\n      swap3\n      swap2\n      swap1\n      tag_14\n      jump\t// in\n    tag_17:\n      mload(0x40)\n      dup1\n      swap2\n      sub\n      swap1\n      return\n        /* \"Day20_Struct.sol\":188:205  Car[] public cars */\n    tag_6:\n      tag_18\n      0x04\n      dup1\n      calldatasize\n      sub\n      dup2\n      add\n      swap1\n      tag_19\n      swap2\n      swap1\n      tag_20\n      jump\t// in\n    tag_19:\n      tag_21\n      jump\t// in\n    tag_18:\n      mload(0x40)\n      tag_22\n      swap4\n      swap3\n      swap2\n      swap1\n      tag_14\n      jump\t// in\n    tag_22:\n      mload(0x40)\n      dup1\n      swap2\n      sub\n      swap1\n      return\n        /* \"Day20_Struct.sol\":262:766  function exapmles () external {... */\n    tag_8:\n        /* \"Day20_Struct.sol\":302:319  Car memory toyota */\n      0x00\n        /* \"Day20_Struct.sol\":322:354  Car(\"toyota\", 1990 , msg.sender) */\n      mload(0x40)\n      dup1\n      0x60\n      add\n      0x40\n      mstore\n      dup1\n      mload(0x40)\n      dup1\n      0x40\n      add\n      0x40\n      mstore\n      dup1\n      0x06\n      dup2\n      mstore\n      0x20\n      add\n      0x746f796f74610000000000000000000000000000000000000000000000000000\n      dup2\n      mstore\n      pop\n      dup2\n      mstore\n      0x20\n      add\n        /* \"Day20_Struct.sol\":336:340  1990 */\n      0x07c6\n        /* \"Day20_Struct.sol\":322:354  Car(\"toyota\", 1990 , msg.sender) */\n      dup2\n      mstore\n      0x20\n      add\n        /* \"Day20_Struct.sol\":343:353  msg.sender */\n      caller\n        /* \"Day20_Struct.sol\":322:354  Car(\"toyota\", 1990 , msg.sender) */\n      0xffffffffffffffffffffffffffffffffffffffff\n      and\n      dup2\n      mstore\n      pop\n        /* \"Day20_Struct.sol\":302:354  Car memory toyota = Car(\"toyota\", 1990 , msg.sender) */\n      swap1\n      pop\n        /* \"Day20_Struct.sol\":364:380  Car memory lambo */\n      0x00\n        /* \"Day20_Struct.sol\":383:435  Car({ year: 2000, model:\"lambo\", owner:msg.sender }) */\n      mload(0x40)\n      dup1\n      0x60\n      add\n      0x40\n      mstore\n      dup1\n      mload(0x40)\n      dup1\n      0x40\n      add\n      0x40\n      mstore\n      dup1\n      0x05\n      dup2\n      mstore\n      0x20\n      add\n      0x6c616d626f000000000000000000000000000000000000000000000000000000\n      dup2\n      mstore\n      pop\n      dup2\n      mstore\n      0x20\n      add\n        /* \"Day20_Struct.sol\":395:399  2000 */\n      0x07d0\n        /* \"Day20_Struct.sol\":383:435  Car({ year: 2000, model:\"lambo\", owner:msg.sender }) */\n      dup2\n      mstore\n      0x20\n      add\n        /* \"Day20_Struct.sol\":422:432  msg.sender */\n      caller\n        /* \"Day20_Struct.sol\":383:435  Car({ year: 2000, model:\"lambo\", owner:msg.sender }) */\n      0xffffffffffffffffffffffffffffffffffffffff\n      and\n      dup2\n      mstore\n      pop\n        /* \"Day20_Struct.sol\":364:435  Car memory lambo = Car({ year: 2000, model:\"lambo\", owner:msg.sender }) */\n      swap1\n      pop\n        /* \"Day20_Struct.sol\":445:461  Car memory tesla */\n      tag_24\n      tag_25\n      jump\t// in\n    tag_24:\n        /* \"Day20_Struct.sol\":471:492  tesla.model = \"tesla\" */\n      mload(0x40)\n      dup1\n      0x40\n      add\n      0x40\n      mstore\n      dup1\n      0x05\n      dup2\n      mstore\n      0x20\n      add\n      0x7465736c61000000000000000000000000000000000000000000000000000000\n      dup2\n      mstore\n      pop\n        /* \"Day20_Struct.sol\":471:476  tesla */\n      dup2\n        /* \"Day20_Struct.sol\":471:482  tesla.model */\n      0x00\n      add\n        /* \"Day20_Struct.sol\":471:492  tesla.model = \"tesla\" */\n      dup2\n      swap1\n      mstore\n      pop\n        /* \"Day20_Struct.sol\":515:519  2022 */\n      0x07e6\n        /* \"Day20_Struct.sol\":502:507  tesla */\n      dup2\n        /* \"Day20_Struct.sol\":502:512  tesla.year */\n      0x20\n      add\n        /* \"Day20_Struct.sol\":502:519  tesla.year = 2022 */\n      dup2\n      dup2\n      mstore\n      pop\n      pop\n        /* \"Day20_Struct.sol\":543:553  msg.sender */\n      caller\n        /* \"Day20_Struct.sol\":529:534  tesla */\n      dup2\n        /* \"Day20_Struct.sol\":529:540  tesla.owner */\n      0x40\n      add\n        /* \"Day20_Struct.sol\":529:553  tesla.owner = msg.sender */\n      swap1\n      0xffffffffffffffffffffffffffffffffffffffff\n      and\n      swap1\n      dup2\n      0xffffffffffffffffffffffffffffffffffffffff\n      and\n      dup2\n      mstore\n      pop\n      pop\n        /* \"Day20_Struct.sol\":564:568  cars */\n      0x03\n        /* \"Day20_Struct.sol\":574:580  toyota */\n      dup4\n        /* \"Day20_Struct.sol\":564:581  cars.push(toyota) */\n      swap1\n      dup1\n      0x01\n      dup2\n      sload\n      add\n      dup1\n      dup3\n      sstore\n      dup1\n      swap2\n      pop\n      pop\n      0x01\n      swap1\n      sub\n      swap1\n      0x00\n      mstore\n      keccak256(0x00, 0x20)\n      swap1\n      0x03\n      mul\n      add\n      0x00\n      swap1\n      swap2\n      swap1\n      swap2\n      swap1\n      swap2\n      pop\n      0x00\n      dup3\n      add\n      mload\n      dup2\n      0x00\n      add\n      swap1\n      dup1\n      mload\n      swap1\n      0x20\n      add\n      swap1\n      tag_27\n      swap3\n      swap2\n      swap1\n      tag_28\n      jump\t// in\n    tag_27:\n      pop\n      0x20\n      dup3\n      add\n      mload\n      dup2\n      0x01\n      add\n      sstore\n      0x40\n      dup3\n      add\n      mload\n      dup2\n      0x02\n      add\n      exp(0x0100, 0x00)\n      dup2\n      sload\n      dup2\n      0xffffffffffffffffffffffffffffffffffffffff\n      mul\n      not\n      and\n      swap1\n      dup4\n      0xffffffffffffffffffffffffffffffffffffffff\n      and\n      mul\n      or\n      swap1\n      sstore\n      pop\n      pop\n      pop\n        /* \"Day20_Struct.sol\":591:595  cars */\n      0x03\n        /* \"Day20_Struct.sol\":601:606  lambo */\n      dup3\n        /* \"Day20_Struct.sol\":591:607  cars.push(lambo) */\n      swap1\n      dup1\n      0x01\n      dup2\n      sload\n      add\n      dup1\n      dup3\n      sstore\n      dup1\n      swap2\n      pop\n      pop\n      0x01\n      swap1\n      sub\n      swap1\n      0x00\n      mstore\n      keccak256(0x00, 0x20)\n      swap1\n      0x03\n      mul\n      add\n      0x00\n      swap1\n      swap2\n      swap1\n      swap2\n      swap1\n      swap2\n      pop\n      0x00\n      dup3\n      add\n      mload\n      dup2\n      0x00\n      add\n      swap1\n      dup1\n      mload\n      swap1\n      0x20\n      add\n      swap1\n      tag_30\n      swap3\n      swap2\n      swap1\n      tag_28\n      jump\t// in\n    tag_30:\n      pop\n      0x20\n      dup3\n      add\n      mload\n      dup2\n      0x01\n      add\n      sstore\n      0x40\n      dup3\n      add\n      mload\n      dup2\n      0x02\n      add\n      exp(0x0100, 0x00)\n      dup2\n      sload\n      dup2\n      0xffffffffffffffffffffffffffffffffffffffff\n      mul\n      not\n      and\n      swap1\n      dup4\n      0xffffffffffffffffffffffffffffffffffffffff\n      and\n      mul\n      or\n      swap1\n      sstore\n      pop\n      pop\n      pop\n        /* \"Day20_Struct.sol\":617:621  cars */\n      0x03\n        /* \"Day20_Struct.sol\":627:632  tesla */\n      dup2\n        /* \"Day20_Struct.sol\":617:633  cars.push(tesla) */\n      swap1\n      dup1\n      0x01\n      dup2\n      sload\n      add\n      dup1\n      dup3\n      sstore\n      dup1\n      swap2\n      pop\n      pop\n      0x01\n      swap1\n      sub\n      swap1\n      0x00\n      mstore\n      keccak256(0x00, 0x20)\n      swap1\n      0x03\n      mul\n      add\n      0x00\n      swap1\n      swap2\n      swap1\n      swap2\n      swap1\n      swap2\n      pop\n      0x00\n      dup3\n      add\n      mload\n      dup2\n      0x00\n      add\n      swap1\n      dup1\n      mload\n      swap1\n      0x20\n      add\n      swap1\n      tag_32\n      swap3\n      swap2\n      swap1\n      tag_28\n      jump\t// in\n    tag_32:\n      pop\n      0x20\n      dup3\n      add\n      mload\n      dup2\n      0x01\n      add\n      sstore\n      0x40\n      dup3\n      add\n      mload\n      dup2\n      0x02\n      add\n      exp(0x0100, 0x00)\n      dup2\n      sload\n      dup2\n      0xffffffffffffffffffffffffffffffffffffffff\n      mul\n      not\n      and\n      swap1\n      dup4\n      0xffffffffffffffffffffffffffffffffffffffff\n      and\n      mul\n      or\n      swap1\n      sstore\n      pop\n      pop\n      pop\n        /* \"Day20_Struct.sol\":644:648  cars */\n      0x03\n        /* \"Day20_Struct.sol\":654:686  Car(\"Ferrari\", 2020, msg.sender) */\n      mload(0x40)\n      dup1\n      0x60\n      add\n      0x40\n      mstore\n      dup1\n      mload(0x40)\n      dup1\n      0x40\n      add\n      0x40\n      mstore\n      dup1\n      0x07\n      dup2\n      mstore\n      0x20\n      add\n      0x4665727261726900000000000000000000000000000000000000000000000000\n      dup2\n      mstore\n      pop\n      dup2\n      mstore\n      0x20\n      add\n        /* \"Day20_Struct.sol\":669:673  2020 */\n      0x07e4\n        /* \"Day20_Struct.sol\":654:686  Car(\"Ferrari\", 2020, msg.sender) */\n      dup2\n      mstore\n      0x20\n      add\n        /* \"Day20_Struct.sol\":675:685  msg.sender */\n      caller\n        /* \"Day20_Struct.sol\":654:686  Car(\"Ferrari\", 2020, msg.sender) */\n      0xffffffffffffffffffffffffffffffffffffffff\n      and\n      dup2\n      mstore\n      pop\n        /* \"Day20_Struct.sol\":644:687  cars.push(Car(\"Ferrari\", 2020, msg.sender)) */\n      swap1\n      dup1\n      0x01\n      dup2\n      sload\n      add\n      dup1\n      dup3\n      sstore\n      dup1\n      swap2\n      pop\n      pop\n      0x01\n      swap1\n      sub\n      swap1\n      0x00\n      mstore\n      keccak256(0x00, 0x20)\n      swap1\n      0x03\n      mul\n      add\n      0x00\n      swap1\n      swap2\n      swap1\n      swap2\n      swap1\n      swap2\n      pop\n      0x00\n      dup3\n      add\n      mload\n      dup2\n      0x00\n      add\n      swap1\n      dup1\n      mload\n      swap1\n      0x20\n      add\n      swap1\n      tag_34\n      swap3\n      swap2\n      swap1\n      tag_28\n      jump\t// in\n    tag_34:\n      pop\n      0x20\n      dup3\n      add\n      mload\n      dup2\n      0x01\n      add\n      sstore\n      0x40\n      dup3\n      add\n      mload\n      dup2\n      0x02\n      add\n      exp(0x0100, 0x00)\n      dup2\n      sload\n      dup2\n      0xffffffffffffffffffffffffffffffffffffffff\n      mul\n      not\n      and\n      swap1\n      dup4\n      0xffffffffffffffffffffffffffffffffffffffff\n      and\n      mul\n      or\n      swap1\n      sstore\n      pop\n      pop\n      pop\n        /* \"Day20_Struct.sol\":698:714  Car storage _car */\n      0x00\n        /* \"Day20_Struct.sol\":717:721  cars */\n      0x03\n        /* \"Day20_Struct.sol\":722:723  0 */\n      0x00\n        /* \"Day20_Struct.sol\":717:724  cars[0] */\n      dup2\n      sload\n      dup2\n      lt\n      tag_35\n      jumpi\n      tag_36\n      tag_37\n      jump\t// in\n    tag_36:\n    tag_35:\n      swap1\n      0x00\n      mstore\n      keccak256(0x00, 0x20)\n      swap1\n      0x03\n      mul\n      add\n        /* \"Day20_Struct.sol\":698:724  Car storage _car = cars[0] */\n      swap1\n      pop\n        /* \"Day20_Struct.sol\":746:750  1999 */\n      0x07cf\n        /* \"Day20_Struct.sol\":734:738  _car */\n      dup2\n        /* \"Day20_Struct.sol\":734:743  _car.year */\n      0x01\n      add\n        /* \"Day20_Struct.sol\":734:750  _car.year = 1999 */\n      dup2\n      swap1\n      sstore\n      pop\n        /* \"Day20_Struct.sol\":292:766  {... */\n      pop\n      pop\n      pop\n      pop\n        /* \"Day20_Struct.sol\":262:766  function exapmles () external {... */\n      jump\t// out\n        /* \"Day20_Struct.sol\":211:255  mapping(address => Car[]) public carsByOwner */\n    tag_12:\n      mstore(0x20, 0x04)\n      dup2\n      0x00\n      mstore\n      keccak256(0x00, 0x40)\n      dup2\n      dup2\n      sload\n      dup2\n      lt\n      tag_39\n      jumpi\n      0x00\n      dup1\n      revert\n    tag_39:\n      swap1\n      0x00\n      mstore\n      keccak256(0x00, 0x20)\n      swap1\n      0x03\n      mul\n      add\n      0x00\n      swap2\n      pop\n      swap2\n      pop\n      pop\n      dup1\n      0x00\n      add\n      dup1\n      sload\n      tag_41\n      swap1\n      tag_42\n      jump\t// in\n    tag_41:\n      dup1\n      0x1f\n      add\n      0x20\n      dup1\n      swap2\n      div\n      mul\n      0x20\n      add\n      mload(0x40)\n      swap1\n      dup2\n      add\n      0x40\n      mstore\n      dup1\n      swap3\n      swap2\n      swap1\n      dup2\n      dup2\n      mstore\n      0x20\n      add\n      dup3\n      dup1\n      sload\n      tag_43\n      swap1\n      tag_42\n      jump\t// in\n    tag_43:\n      dup1\n      iszero\n      tag_44\n      jumpi\n      dup1\n      0x1f\n      lt\n      tag_45\n      jumpi\n      0x0100\n      dup1\n      dup4\n      sload\n      div\n      mul\n      dup4\n      mstore\n      swap2\n      0x20\n      add\n      swap2\n      jump(tag_44)\n    tag_45:\n      dup3\n      add\n      swap2\n      swap1\n      0x00\n      mstore\n      keccak256(0x00, 0x20)\n      swap1\n    tag_46:\n      dup2\n      sload\n      dup2\n      mstore\n      swap1\n      0x01\n      add\n      swap1\n      0x20\n      add\n      dup1\n      dup4\n      gt\n      tag_46\n      jumpi\n      dup3\n      swap1\n      sub\n      0x1f\n      and\n      dup3\n      add\n      swap2\n    tag_44:\n      pop\n      pop\n      pop\n      pop\n      pop\n      swap1\n      dup1\n      0x01\n      add\n      sload\n      swap1\n      dup1\n      0x02\n      add\n      0x00\n      swap1\n      sload\n      swap1\n      0x0100\n      exp\n      swap1\n      div\n      0xffffffffffffffffffffffffffffffffffffffff\n      and\n      swap1\n      pop\n      dup4\n      jump\t// out\n        /* \"Day20_Struct.sol\":168:182  Car public car */\n    tag_16:\n      0x00\n      dup1\n      0x00\n      add\n      dup1\n      sload\n      tag_47\n      swap1\n      tag_42\n      jump\t// in\n    tag_47:\n      dup1\n      0x1f\n      add\n      0x20\n      dup1\n      swap2\n      div\n      mul\n      0x20\n      add\n      mload(0x40)\n      swap1\n      dup2\n      add\n      0x40\n      mstore\n      dup1\n      swap3\n      swap2\n      swap1\n      dup2\n      dup2\n      mstore\n      0x20\n      add\n      dup3\n      dup1\n      sload\n      tag_48\n      swap1\n      tag_42\n      jump\t// in\n    tag_48:\n      dup1\n      iszero\n      tag_49\n      jumpi\n      dup1\n      0x1f\n      lt\n      tag_50\n      jumpi\n      0x0100\n      dup1\n      dup4\n      sload\n      div\n      mul\n      dup4\n      mstore\n      swap2\n      0x20\n      add\n      swap2\n      jump(tag_49)\n    tag_50:\n      dup3\n      add\n      swap2\n      swap1\n      0x00\n      mstore\n      keccak256(0x00, 0x20)\n      swap1\n    tag_51:\n      dup2\n      sload\n      dup2\n      mstore\n      swap1\n      0x01\n      add\n      swap1\n      0x20\n      add\n      dup1\n      dup4\n      gt\n      tag_51\n      jumpi\n      dup3\n      swap1\n      sub\n      0x1f\n      and\n      dup3\n      add\n      swap2\n    tag_49:\n      pop\n      pop\n      pop\n      pop\n      pop\n      swap1\n      dup1\n      0x01\n      add\n      sload\n      swap1\n      dup1\n      0x02\n      add\n      0x00\n      swap1\n      sload\n      swap1\n      0x0100\n      exp\n      swap1\n      div\n      0xffffffffffffffffffffffffffffffffffffffff\n      and\n      swap1\n      pop\n      dup4\n      jump\t// out\n        /* \"Day20_Struct.sol\":188:205  Car[] public cars */\n    tag_21:\n      0x03\n      dup2\n      dup2\n      sload\n      dup2\n      lt\n      tag_52\n      jumpi\n      0x00\n      dup1\n      revert\n    tag_52:\n      swap1\n      0x00\n      mstore\n      keccak256(0x00, 0x20)\n      swap1\n      0x03\n      mul\n      add\n      0x00\n      swap2\n      pop\n      swap1\n      pop\n      dup1\n      0x00\n      add\n      dup1\n      sload\n      tag_54\n      swap1\n      tag_42\n      jump\t// in\n    tag_54:\n      dup1\n      0x1f\n      add\n      0x20\n      dup1\n      swap2\n      div\n      mul\n      0x20\n      add\n      mload(0x40)\n      swap1\n      dup2\n      add\n      0x40\n      mstore\n      dup1\n      swap3\n      swap2\n      swap1\n      dup2\n      dup2\n      mstore\n      0x20\n      add\n      dup3\n      dup1\n      sload\n      tag_55\n      swap1\n      tag_42\n      jump\t// in\n    tag_55:\n      dup1\n      iszero\n      tag_56\n      jumpi\n      dup1\n      0x1f\n      lt\n      tag_57\n      jumpi\n      0x0100\n      dup1\n      dup4\n      sload\n      div\n      mul\n      dup4\n      mstore\n      swap2\n      0x20\n      add\n      swap2\n      jump(tag_56)\n    tag_57:\n      dup3\n      add\n      swap2\n      swap1\n      0x00\n      mstore\n      keccak256(0x00, 0x20)\n      swap1\n    tag_58:\n      dup2\n      sload\n      dup2\n      mstore\n      swap1\n      0x01\n      add\n      swap1\n      0x20\n      add\n      dup1\n      dup4\n      gt\n      tag_58\n      jumpi\n      dup3\n      swap1\n      sub\n      0x1f\n      and\n      dup3\n      add\n      swap2\n    tag_56:\n      pop\n      pop\n      pop\n      pop\n      pop\n      swap1\n      dup1\n      0x01\n      add\n      sload\n      swap1\n      dup1\n      0x02\n      add\n      0x00\n      swap1\n      sload\n      swap1\n      0x0100\n      exp\n      swap1\n      div\n      0xffffffffffffffffffffffffffffffffffffffff\n      and\n      swap1\n      pop\n      dup4\n      jump\t// out\n    tag_25:\n      mload(0x40)\n      dup1\n      0x60\n      add\n      0x40\n      mstore\n      dup1\n      0x60\n      dup2\n      mstore\n      0x20\n      add\n      0x00\n      dup2\n      mstore\n      0x20\n      add\n      and(0xffffffffffffffffffffffffffffffffffffffff, 0x00)\n      dup2\n      mstore\n      pop\n      swap1\n      jump\t// out\n    tag_28:\n      dup3\n      dup1\n      sload\n      tag_59\n      swap1\n      tag_42\n      jump\t// in\n    tag_59:\n      swap1\n      0x00\n      mstore\n      keccak256(0x00, 0x20)\n      swap1\n      0x1f\n      add\n      0x20\n      swap1\n      div\n      dup2\n      add\n      swap3\n      dup3\n      tag_61\n      jumpi\n      0x00\n      dup6\n      sstore\n      jump(tag_60)\n    tag_61:\n      dup3\n      0x1f\n      lt\n      tag_62\n      jumpi\n      dup1\n      mload\n      not(0xff)\n      and\n      dup4\n      dup1\n      add\n      or\n      dup6\n      sstore\n      jump(tag_60)\n    tag_62:\n      dup3\n      dup1\n      add\n      0x01\n      add\n      dup6\n      sstore\n      dup3\n      iszero\n      tag_60\n      jumpi\n      swap2\n      dup3\n      add\n    tag_63:\n      dup3\n      dup2\n      gt\n      iszero\n      tag_64\n      jumpi\n      dup3\n      mload\n      dup3\n      sstore\n      swap2\n      0x20\n      add\n      swap2\n      swap1\n      0x01\n      add\n      swap1\n      jump(tag_63)\n    tag_64:\n    tag_60:\n      pop\n      swap1\n      pop\n      tag_65\n      swap2\n      swap1\n      tag_66\n      jump\t// in\n    tag_65:\n      pop\n      swap1\n      jump\t// out\n    tag_66:\n    tag_67:\n      dup1\n      dup3\n      gt\n      iszero\n      tag_68\n      jumpi\n      0x00\n      dup2\n      0x00\n      swap1\n      sstore\n      pop\n      0x01\n      add\n      jump(tag_67)\n    tag_68:\n      pop\n      swap1\n      jump\t// out\n        /* \"#utility.yul\":7:146   */\n    tag_70:\n        /* \"#utility.yul\":53:58   */\n      0x00\n        /* \"#utility.yul\":91:97   */\n      dup2\n        /* \"#utility.yul\":78:98   */\n      calldataload\n        /* \"#utility.yul\":69:98   */\n      swap1\n      pop\n        /* \"#utility.yul\":107:140   */\n      tag_72\n        /* \"#utility.yul\":134:139   */\n      dup2\n        /* \"#utility.yul\":107:140   */\n      tag_73\n      jump\t// in\n    tag_72:\n        /* \"#utility.yul\":7:146   */\n      swap3\n      swap2\n      pop\n      pop\n      jump\t// out\n        /* \"#utility.yul\":152:291   */\n    tag_74:\n        /* \"#utility.yul\":198:203   */\n      0x00\n        /* \"#utility.yul\":236:242   */\n      dup2\n        /* \"#utility.yul\":223:243   */\n      calldataload\n        /* \"#utility.yul\":214:243   */\n      swap1\n      pop\n        /* \"#utility.yul\":252:285   */\n      tag_76\n        /* \"#utility.yul\":279:284   */\n      dup2\n        /* \"#utility.yul\":252:285   */\n      tag_77\n      jump\t// in\n    tag_76:\n        /* \"#utility.yul\":152:291   */\n      swap3\n      swap2\n      pop\n      pop\n      jump\t// out\n        /* \"#utility.yul\":297:771   */\n    tag_11:\n        /* \"#utility.yul\":365:371   */\n      0x00\n        /* \"#utility.yul\":373:379   */\n      dup1\n        /* \"#utility.yul\":422:424   */\n      0x40\n        /* \"#utility.yul\":410:419   */\n      dup4\n        /* \"#utility.yul\":401:408   */\n      dup6\n        /* \"#utility.yul\":397:420   */\n      sub\n        /* \"#utility.yul\":393:425   */\n      slt\n        /* \"#utility.yul\":390:509   */\n      iszero\n      tag_79\n      jumpi\n        /* \"#utility.yul\":428:507   */\n      tag_80\n      tag_81\n      jump\t// in\n    tag_80:\n        /* \"#utility.yul\":390:509   */\n    tag_79:\n        /* \"#utility.yul\":548:549   */\n      0x00\n        /* \"#utility.yul\":573:626   */\n      tag_82\n        /* \"#utility.yul\":618:625   */\n      dup6\n        /* \"#utility.yul\":609:615   */\n      dup3\n        /* \"#utility.yul\":598:607   */\n      dup7\n        /* \"#utility.yul\":594:616   */\n      add\n        /* \"#utility.yul\":573:626   */\n      tag_70\n      jump\t// in\n    tag_82:\n        /* \"#utility.yul\":563:626   */\n      swap3\n      pop\n        /* \"#utility.yul\":519:636   */\n      pop\n        /* \"#utility.yul\":675:677   */\n      0x20\n        /* \"#utility.yul\":701:754   */\n      tag_83\n        /* \"#utility.yul\":746:753   */\n      dup6\n        /* \"#utility.yul\":737:743   */\n      dup3\n        /* \"#utility.yul\":726:735   */\n      dup7\n        /* \"#utility.yul\":722:744   */\n      add\n        /* \"#utility.yul\":701:754   */\n      tag_74\n      jump\t// in\n    tag_83:\n        /* \"#utility.yul\":691:754   */\n      swap2\n      pop\n        /* \"#utility.yul\":646:764   */\n      pop\n        /* \"#utility.yul\":297:771   */\n      swap3\n      pop\n      swap3\n      swap1\n      pop\n      jump\t// out\n        /* \"#utility.yul\":777:1106   */\n    tag_20:\n        /* \"#utility.yul\":836:842   */\n      0x00\n        /* \"#utility.yul\":885:887   */\n      0x20\n        /* \"#utility.yul\":873:882   */\n      dup3\n        /* \"#utility.yul\":864:871   */\n      dup5\n        /* \"#utility.yul\":860:883   */\n      sub\n        /* \"#utility.yul\":856:888   */\n      slt\n        /* \"#utility.yul\":853:972   */\n      iszero\n      tag_85\n      jumpi\n        /* \"#utility.yul\":891:970   */\n      tag_86\n      tag_81\n      jump\t// in\n    tag_86:\n        /* \"#utility.yul\":853:972   */\n    tag_85:\n        /* \"#utility.yul\":1011:1012   */\n      0x00\n        /* \"#utility.yul\":1036:1089   */\n      tag_87\n        /* \"#utility.yul\":1081:1088   */\n      dup5\n        /* \"#utility.yul\":1072:1078   */\n      dup3\n        /* \"#utility.yul\":1061:1070   */\n      dup6\n        /* \"#utility.yul\":1057:1079   */\n      add\n        /* \"#utility.yul\":1036:1089   */\n      tag_74\n      jump\t// in\n    tag_87:\n        /* \"#utility.yul\":1026:1089   */\n      swap2\n      pop\n        /* \"#utility.yul\":982:1099   */\n      pop\n        /* \"#utility.yul\":777:1106   */\n      swap3\n      swap2\n      pop\n      pop\n      jump\t// out\n        /* \"#utility.yul\":1112:1230   */\n    tag_88:\n        /* \"#utility.yul\":1199:1223   */\n      tag_90\n        /* \"#utility.yul\":1217:1222   */\n      dup2\n        /* \"#utility.yul\":1199:1223   */\n      tag_91\n      jump\t// in\n    tag_90:\n        /* \"#utility.yul\":1194:1197   */\n      dup3\n        /* \"#utility.yul\":1187:1224   */\n      mstore\n        /* \"#utility.yul\":1112:1230   */\n      pop\n      pop\n      jump\t// out\n        /* \"#utility.yul\":1236:1600   */\n    tag_92:\n        /* \"#utility.yul\":1324:1327   */\n      0x00\n        /* \"#utility.yul\":1352:1391   */\n      tag_94\n        /* \"#utility.yul\":1385:1390   */\n      dup3\n        /* \"#utility.yul\":1352:1391   */\n      tag_95\n      jump\t// in\n    tag_94:\n        /* \"#utility.yul\":1407:1478   */\n      tag_96\n        /* \"#utility.yul\":1471:1477   */\n      dup2\n        /* \"#utility.yul\":1466:1469   */\n      dup6\n        /* \"#utility.yul\":1407:1478   */\n      tag_97\n      jump\t// in\n    tag_96:\n        /* \"#utility.yul\":1400:1478   */\n      swap4\n      pop\n        /* \"#utility.yul\":1487:1539   */\n      tag_98\n        /* \"#utility.yul\":1532:1538   */\n      dup2\n        /* \"#utility.yul\":1527:1530   */\n      dup6\n        /* \"#utility.yul\":1520:1524   */\n      0x20\n        /* \"#utility.yul\":1513:1518   */\n      dup7\n        /* \"#utility.yul\":1509:1525   */\n      add\n        /* \"#utility.yul\":1487:1539   */\n      tag_99\n      jump\t// in\n    tag_98:\n        /* \"#utility.yul\":1564:1593   */\n      tag_100\n        /* \"#utility.yul\":1586:1592   */\n      dup2\n        /* \"#utility.yul\":1564:1593   */\n      tag_101\n      jump\t// in\n    tag_100:\n        /* \"#utility.yul\":1559:1562   */\n      dup5\n        /* \"#utility.yul\":1555:1594   */\n      add\n        /* \"#utility.yul\":1548:1594   */\n      swap2\n      pop\n        /* \"#utility.yul\":1328:1600   */\n      pop\n        /* \"#utility.yul\":1236:1600   */\n      swap3\n      swap2\n      pop\n      pop\n      jump\t// out\n        /* \"#utility.yul\":1606:1724   */\n    tag_102:\n        /* \"#utility.yul\":1693:1717   */\n      tag_104\n        /* \"#utility.yul\":1711:1716   */\n      dup2\n        /* \"#utility.yul\":1693:1717   */\n      tag_105\n      jump\t// in\n    tag_104:\n        /* \"#utility.yul\":1688:1691   */\n      dup3\n        /* \"#utility.yul\":1681:1718   */\n      mstore\n        /* \"#utility.yul\":1606:1724   */\n      pop\n      pop\n      jump\t// out\n        /* \"#utility.yul\":1730:2263   */\n    tag_14:\n        /* \"#utility.yul\":1899:1903   */\n      0x00\n        /* \"#utility.yul\":1937:1939   */\n      0x60\n        /* \"#utility.yul\":1926:1935   */\n      dup3\n        /* \"#utility.yul\":1922:1940   */\n      add\n        /* \"#utility.yul\":1914:1940   */\n      swap1\n      pop\n        /* \"#utility.yul\":1986:1995   */\n      dup2\n        /* \"#utility.yul\":1980:1984   */\n      dup2\n        /* \"#utility.yul\":1976:1996   */\n      sub\n        /* \"#utility.yul\":1972:1973   */\n      0x00\n        /* \"#utility.yul\":1961:1970   */\n      dup4\n        /* \"#utility.yul\":1957:1974   */\n      add\n        /* \"#utility.yul\":1950:1997   */\n      mstore\n        /* \"#utility.yul\":2014:2092   */\n      tag_107\n        /* \"#utility.yul\":2087:2091   */\n      dup2\n        /* \"#utility.yul\":2078:2084   */\n      dup7\n        /* \"#utility.yul\":2014:2092   */\n      tag_92\n      jump\t// in\n    tag_107:\n        /* \"#utility.yul\":2006:2092   */\n      swap1\n      pop\n        /* \"#utility.yul\":2102:2174   */\n      tag_108\n        /* \"#utility.yul\":2170:2172   */\n      0x20\n        /* \"#utility.yul\":2159:2168   */\n      dup4\n        /* \"#utility.yul\":2155:2173   */\n      add\n        /* \"#utility.yul\":2146:2152   */\n      dup6\n        /* \"#utility.yul\":2102:2174   */\n      tag_102\n      jump\t// in\n    tag_108:\n        /* \"#utility.yul\":2184:2256   */\n      tag_109\n        /* \"#utility.yul\":2252:2254   */\n      0x40\n        /* \"#utility.yul\":2241:2250   */\n      dup4\n        /* \"#utility.yul\":2237:2255   */\n      add\n        /* \"#utility.yul\":2228:2234   */\n      dup5\n        /* \"#utility.yul\":2184:2256   */\n      tag_88\n      jump\t// in\n    tag_109:\n        /* \"#utility.yul\":1730:2263   */\n      swap5\n      swap4\n      pop\n      pop\n      pop\n      pop\n      jump\t// out\n        /* \"#utility.yul\":2350:2449   */\n    tag_95:\n        /* \"#utility.yul\":2402:2408   */\n      0x00\n        /* \"#utility.yul\":2436:2441   */\n      dup2\n        /* \"#utility.yul\":2430:2442   */\n      mload\n        /* \"#utility.yul\":2420:2442   */\n      swap1\n      pop\n        /* \"#utility.yul\":2350:2449   */\n      swap2\n      swap1\n      pop\n      jump\t// out\n        /* \"#utility.yul\":2455:2624   */\n    tag_97:\n        /* \"#utility.yul\":2539:2550   */\n      0x00\n        /* \"#utility.yul\":2573:2579   */\n      dup3\n        /* \"#utility.yul\":2568:2571   */\n      dup3\n        /* \"#utility.yul\":2561:2580   */\n      mstore\n        /* \"#utility.yul\":2613:2617   */\n      0x20\n        /* \"#utility.yul\":2608:2611   */\n      dup3\n        /* \"#utility.yul\":2604:2618   */\n      add\n        /* \"#utility.yul\":2589:2618   */\n      swap1\n      pop\n        /* \"#utility.yul\":2455:2624   */\n      swap3\n      swap2\n      pop\n      pop\n      jump\t// out\n        /* \"#utility.yul\":2630:2726   */\n    tag_91:\n        /* \"#utility.yul\":2667:2674   */\n      0x00\n        /* \"#utility.yul\":2696:2720   */\n      tag_115\n        /* \"#utility.yul\":2714:2719   */\n      dup3\n        /* \"#utility.yul\":2696:2720   */\n      tag_116\n      jump\t// in\n    tag_115:\n        /* \"#utility.yul\":2685:2720   */\n      swap1\n      pop\n        /* \"#utility.yul\":2630:2726   */\n      swap2\n      swap1\n      pop\n      jump\t// out\n        /* \"#utility.yul\":2732:2858   */\n    tag_116:\n        /* \"#utility.yul\":2769:2776   */\n      0x00\n        /* \"#utility.yul\":2809:2851   */\n      0xffffffffffffffffffffffffffffffffffffffff\n        /* \"#utility.yul\":2802:2807   */\n      dup3\n        /* \"#utility.yul\":2798:2852   */\n      and\n        /* \"#utility.yul\":2787:2852   */\n      swap1\n      pop\n        /* \"#utility.yul\":2732:2858   */\n      swap2\n      swap1\n      pop\n      jump\t// out\n        /* \"#utility.yul\":2864:2941   */\n    tag_105:\n        /* \"#utility.yul\":2901:2908   */\n      0x00\n        /* \"#utility.yul\":2930:2935   */\n      dup2\n        /* \"#utility.yul\":2919:2935   */\n      swap1\n      pop\n        /* \"#utility.yul\":2864:2941   */\n      swap2\n      swap1\n      pop\n      jump\t// out\n        /* \"#utility.yul\":2947:3254   */\n    tag_99:\n        /* \"#utility.yul\":3015:3016   */\n      0x00\n        /* \"#utility.yul\":3025:3138   */\n    tag_120:\n        /* \"#utility.yul\":3039:3045   */\n      dup4\n        /* \"#utility.yul\":3036:3037   */\n      dup2\n        /* \"#utility.yul\":3033:3046   */\n      lt\n        /* \"#utility.yul\":3025:3138   */\n      iszero\n      tag_122\n      jumpi\n        /* \"#utility.yul\":3124:3125   */\n      dup1\n        /* \"#utility.yul\":3119:3122   */\n      dup3\n        /* \"#utility.yul\":3115:3126   */\n      add\n        /* \"#utility.yul\":3109:3127   */\n      mload\n        /* \"#utility.yul\":3105:3106   */\n      dup2\n        /* \"#utility.yul\":3100:3103   */\n      dup5\n        /* \"#utility.yul\":3096:3107   */\n      add\n        /* \"#utility.yul\":3089:3128   */\n      mstore\n        /* \"#utility.yul\":3061:3063   */\n      0x20\n        /* \"#utility.yul\":3058:3059   */\n      dup2\n        /* \"#utility.yul\":3054:3064   */\n      add\n        /* \"#utility.yul\":3049:3064   */\n      swap1\n      pop\n        /* \"#utility.yul\":3025:3138   */\n      jump(tag_120)\n    tag_122:\n        /* \"#utility.yul\":3156:3162   */\n      dup4\n        /* \"#utility.yul\":3153:3154   */\n      dup2\n        /* \"#utility.yul\":3150:3163   */\n      gt\n        /* \"#utility.yul\":3147:3248   */\n      iszero\n      tag_123\n      jumpi\n        /* \"#utility.yul\":3236:3237   */\n      0x00\n        /* \"#utility.yul\":3227:3233   */\n      dup5\n        /* \"#utility.yul\":3222:3225   */\n      dup5\n        /* \"#utility.yul\":3218:3234   */\n      add\n        /* \"#utility.yul\":3211:3238   */\n      mstore\n        /* \"#utility.yul\":3147:3248   */\n    tag_123:\n        /* \"#utility.yul\":2996:3254   */\n      pop\n        /* \"#utility.yul\":2947:3254   */\n      pop\n      pop\n      pop\n      jump\t// out\n        /* \"#utility.yul\":3260:3580   */\n    tag_42:\n        /* \"#utility.yul\":3304:3310   */\n      0x00\n        /* \"#utility.yul\":3341:3342   */\n      0x02\n        /* \"#utility.yul\":3335:3339   */\n      dup3\n        /* \"#utility.yul\":3331:3343   */\n      div\n        /* \"#utility.yul\":3321:3343   */\n      swap1\n      pop\n        /* \"#utility.yul\":3388:3389   */\n      0x01\n        /* \"#utility.yul\":3382:3386   */\n      dup3\n        /* \"#utility.yul\":3378:3390   */\n      and\n        /* \"#utility.yul\":3409:3427   */\n      dup1\n        /* \"#utility.yul\":3399:3480   */\n      tag_125\n      jumpi\n        /* \"#utility.yul\":3465:3469   */\n      0x7f\n        /* \"#utility.yul\":3457:3463   */\n      dup3\n        /* \"#utility.yul\":3453:3470   */\n      and\n        /* \"#utility.yul\":3443:3470   */\n      swap2\n      pop\n        /* \"#utility.yul\":3399:3480   */\n    tag_125:\n        /* \"#utility.yul\":3527:3529   */\n      0x20\n        /* \"#utility.yul\":3519:3525   */\n      dup3\n        /* \"#utility.yul\":3516:3530   */\n      lt\n        /* \"#utility.yul\":3496:3514   */\n      dup2\n        /* \"#utility.yul\":3493:3531   */\n      eq\n        /* \"#utility.yul\":3490:3574   */\n      iszero\n      tag_126\n      jumpi\n        /* \"#utility.yul\":3546:3564   */\n      tag_127\n      tag_128\n      jump\t// in\n    tag_127:\n        /* \"#utility.yul\":3490:3574   */\n    tag_126:\n        /* \"#utility.yul\":3311:3580   */\n      pop\n        /* \"#utility.yul\":3260:3580   */\n      swap2\n      swap1\n      pop\n      jump\t// out\n        /* \"#utility.yul\":3586:3766   */\n    tag_128:\n        /* \"#utility.yul\":3634:3711   */\n      0x4e487b7100000000000000000000000000000000000000000000000000000000\n        /* \"#utility.yul\":3631:3632   */\n      0x00\n        /* \"#utility.yul\":3624:3712   */\n      mstore\n        /* \"#utility.yul\":3731:3735   */\n      0x22\n        /* \"#utility.yul\":3728:3729   */\n      0x04\n        /* \"#utility.yul\":3721:3736   */\n      mstore\n        /* \"#utility.yul\":3755:3759   */\n      0x24\n        /* \"#utility.yul\":3752:3753   */\n      0x00\n        /* \"#utility.yul\":3745:3760   */\n      revert\n        /* \"#utility.yul\":3772:3952   */\n    tag_37:\n        /* \"#utility.yul\":3820:3897   */\n      0x4e487b7100000000000000000000000000000000000000000000000000000000\n        /* \"#utility.yul\":3817:3818   */\n      0x00\n        /* \"#utility.yul\":3810:3898   */\n      mstore\n        /* \"#utility.yul\":3917:3921   */\n      0x32\n        /* \"#utility.yul\":3914:3915   */\n      0x04\n        /* \"#utility.yul\":3907:3922   */\n      mstore\n        /* \"#utility.yul\":3941:3945   */\n      0x24\n        /* \"#utility.yul\":3938:3939   */\n      0x00\n        /* \"#utility.yul\":3931:3946   */\n      revert\n        /* \"#utility.yul\":4081:4198   */\n    tag_81:\n        /* \"#utility.yul\":4190:4191   */\n      0x00\n        /* \"#utility.yul\":4187:4188   */\n      dup1\n        /* \"#utility.yul\":4180:4192   */\n      revert\n        /* \"#utility.yul\":4204:4306   */\n    tag_101:\n        /* \"#utility.yul\":4245:4251   */\n      0x00\n        /* \"#utility.yul\":4296:4298   */\n      0x1f\n        /* \"#utility.yul\":4292:4299   */\n      not\n        /* \"#utility.yul\":4287:4289   */\n      0x1f\n        /* \"#utility.yul\":4280:4285   */\n      dup4\n        /* \"#utility.yul\":4276:4290   */\n      add\n        /* \"#utility.yul\":4272:4300   */\n      and\n        /* \"#utility.yul\":4262:4300   */\n      swap1\n      pop\n        /* \"#utility.yul\":4204:4306   */\n      swap2\n      swap1\n      pop\n      jump\t// out\n        /* \"#utility.yul\":4312:4434   */\n    tag_73:\n        /* \"#utility.yul\":4385:4409   */\n      tag_136\n        /* \"#utility.yul\":4403:4408   */\n      dup2\n        /* \"#utility.yul\":4385:4409   */\n      tag_91\n      jump\t// in\n    tag_136:\n        /* \"#utility.yul\":4378:4383   */\n      dup2\n        /* \"#utility.yul\":4375:4410   */\n      eq\n        /* \"#utility.yul\":4365:4428   */\n      tag_137\n      jumpi\n        /* \"#utility.yul\":4424:4425   */\n      0x00\n        /* \"#utility.yul\":4421:4422   */\n      dup1\n        /* \"#utility.yul\":4414:4426   */\n      revert\n        /* \"#utility.yul\":4365:4428   */\n    tag_137:\n        /* \"#utility.yul\":4312:4434   */\n      pop\n      jump\t// out\n        /* \"#utility.yul\":4440:4562   */\n    tag_77:\n        /* \"#utility.yul\":4513:4537   */\n      tag_139\n        /* \"#utility.yul\":4531:4536   */\n      dup2\n        /* \"#utility.yul\":4513:4537   */\n      tag_105\n      jump\t// in\n    tag_139:\n        /* \"#utility.yul\":4506:4511   */\n      dup2\n        /* \"#utility.yul\":4503:4538   */\n      eq\n        /* \"#utility.yul\":4493:4556   */\n      tag_140\n      jumpi\n        /* \"#utility.yul\":4552:4553   */\n      0x00\n        /* \"#utility.yul\":4549:4550   */\n      dup1\n        /* \"#utility.yul\":4542:4554   */\n      revert\n        /* \"#utility.yul\":4493:4556   */\n    tag_140:\n        /* \"#utility.yul\":4440:4562   */\n      pop\n      jump\t// out\n\n    auxdata: 0xa2646970667358221220d0290f311cb5ebad4df84669829ea2efcebd7ce1e930a0d0450b78c9fc66803464736f6c63430008070033\n}\n",
				"bytecode": {
					"linkReferences": {},
					"object": "608060405234801561001057600080fd5b50610b7c806100206000396000f3fe608060405234801561001057600080fd5b506004361061004c5760003560e01c80634d1c3e3314610051578063aa9fb6c81461005b578063ee26fac31461008d578063f7746e36146100ad575b600080fd5b6100596100df565b005b610075600480360381019061007091906108e5565b610550565b604051610084939291906109a9565b60405180910390f35b61009561063f565b6040516100a4939291906109a9565b60405180910390f35b6100c760048036038101906100c29190610925565b6106ff565b6040516100d6939291906109a9565b60405180910390f35b600060405180606001604052806040518060400160405280600681526020017f746f796f7461000000000000000000000000000000000000000000000000000081525081526020016107c681526020013373ffffffffffffffffffffffffffffffffffffffff168152509050600060405180606001604052806040518060400160405280600581526020017f6c616d626f00000000000000000000000000000000000000000000000000000081525081526020016107d081526020013373ffffffffffffffffffffffffffffffffffffffff1681525090506101bf6107e1565b6040518060400160405280600581526020017f7465736c6100000000000000000000000000000000000000000000000000000081525081600001819052506107e681602001818152505033816040019073ffffffffffffffffffffffffffffffffffffffff16908173ffffffffffffffffffffffffffffffffffffffff168152505060038390806001815401808255809150506001900390600052602060002090600302016000909190919091506000820151816000019080519060200190610289929190610818565b506020820151816001015560408201518160020160006101000a81548173ffffffffffffffffffffffffffffffffffffffff021916908373ffffffffffffffffffffffffffffffffffffffff160217905550505060038290806001815401808255809150506001900390600052602060002090600302016000909190919091506000820151816000019080519060200190610325929190610818565b506020820151816001015560408201518160020160006101000a81548173ffffffffffffffffffffffffffffffffffffffff021916908373ffffffffffffffffffffffffffffffffffffffff1602179055505050600381908060018154018082558091505060019003906000526020600020906003020160009091909190915060008201518160000190805190602001906103c1929190610818565b506020820151816001015560408201518160020160006101000a81548173ffffffffffffffffffffffffffffffffffffffff021916908373ffffffffffffffffffffffffffffffffffffffff1602179055505050600360405180606001604052806040518060400160405280600781526020017f466572726172690000000000000000000000000000000000000000000000000081525081526020016107e481526020013373ffffffffffffffffffffffffffffffffffffffff16815250908060018154018082558091505060019003906000526020600020906003020160009091909190915060008201518160000190805190602001906104c4929190610818565b506020820151816001015560408201518160020160006101000a81548173ffffffffffffffffffffffffffffffffffffffff021916908373ffffffffffffffffffffffffffffffffffffffff16021790555050506000600360008154811061052f5761052e610ad3565b5b906000526020600020906003020190506107cf816001018190555050505050565b6004602052816000526040600020818154811061056c57600080fd5b90600052602060002090600302016000915091505080600001805461059090610a72565b80601f01602080910402602001604051908101604052809291908181526020018280546105bc90610a72565b80156106095780601f106105de57610100808354040283529160200191610609565b820191906000526020600020905b8154815290600101906020018083116105ec57829003601f168201915b5050505050908060010154908060020160009054906101000a900473ffffffffffffffffffffffffffffffffffffffff16905083565b600080600001805461065090610a72565b80601f016020809104026020016040519081016040528092919081815260200182805461067c90610a72565b80156106c95780601f1061069e576101008083540402835291602001916106c9565b820191906000526020600020905b8154815290600101906020018083116106ac57829003601f168201915b5050505050908060010154908060020160009054906101000a900473ffffffffffffffffffffffffffffffffffffffff16905083565b6003818154811061070f57600080fd5b906000526020600020906003020160009150905080600001805461073290610a72565b80601f016020809104026020016040519081016040528092919081815260200182805461075e90610a72565b80156107ab5780601f10610780576101008083540402835291602001916107ab565b820191906000526020600020905b81548152906001019060200180831161078e57829003601f168201915b5050505050908060010154908060020160009054906101000a900473ffffffffffffffffffffffffffffffffffffffff16905083565b60405180606001604052806060815260200160008152602001600073ffffffffffffffffffffffffffffffffffffffff1681525090565b82805461082490610a72565b90600052602060002090601f016020900481019282610846576000855561088d565b82601f1061085f57805160ff191683800117855561088d565b8280016001018555821561088d579182015b8281111561088c578251825591602001919060010190610871565b5b50905061089a919061089e565b5090565b5b808211156108b757600081600090555060010161089f565b5090565b6000813590506108ca81610b18565b92915050565b6000813590506108df81610b2f565b92915050565b600080604083850312156108fc576108fb610b02565b5b600061090a858286016108bb565b925050602061091b858286016108d0565b9150509250929050565b60006020828403121561093b5761093a610b02565b5b6000610949848285016108d0565b91505092915050565b61095b81610a03565b82525050565b600061096c826109e7565b61097681856109f2565b9350610986818560208601610a3f565b61098f81610b07565b840191505092915050565b6109a381610a35565b82525050565b600060608201905081810360008301526109c38186610961565b90506109d2602083018561099a565b6109df6040830184610952565b949350505050565b600081519050919050565b600082825260208201905092915050565b6000610a0e82610a15565b9050919050565b600073ffffffffffffffffffffffffffffffffffffffff82169050919050565b6000819050919050565b60005b83811015610a5d578082015181840152602081019050610a42565b83811115610a6c576000848401525b50505050565b60006002820490506001821680610a8a57607f821691505b60208210811415610a9e57610a9d610aa4565b5b50919050565b7f4e487b7100000000000000000000000000000000000000000000000000000000600052602260045260246000fd5b7f4e487b7100000000000000000000000000000000000000000000000000000000600052603260045260246000fd5b600080fd5b6000601f19601f8301169050919050565b610b2181610a03565b8114610b2c57600080fd5b50565b610b3881610a35565b8114610b4357600080fd5b5056fea2646970667358221220d0290f311cb5ebad4df84669829ea2efcebd7ce1e930a0d0450b78c9fc66803464736f6c63430008070033",
					"opcodes": "PUSH1 0x80 PUSH1 0x40 MSTORE CALLVALUE DUP1 ISZERO PUSH2 0x10 JUMPI PUSH1 0x0 DUP1 REVERT JUMPDEST POP PUSH2 0xB7C DUP1 PUSH2 0x20 PUSH1 0x0 CODECOPY PUSH1 0x0 RETURN INVALID PUSH1 0x80 PUSH1 0x40 MSTORE CALLVALUE DUP1 ISZERO PUSH2 0x10 JUMPI PUSH1 0x0 DUP1 REVERT JUMPDEST POP PUSH1 0x4 CALLDATASIZE LT PUSH2 0x4C JUMPI PUSH1 0x0 CALLDATALOAD PUSH1 0xE0 SHR DUP1 PUSH4 0x4D1C3E33 EQ PUSH2 0x51 JUMPI DUP1 PUSH4 0xAA9FB6C8 EQ PUSH2 0x5B JUMPI DUP1 PUSH4 0xEE26FAC3 EQ PUSH2 0x8D JUMPI DUP1 PUSH4 0xF7746E36 EQ PUSH2 0xAD JUMPI JUMPDEST PUSH1 0x0 DUP1 REVERT JUMPDEST PUSH2 0x59 PUSH2 0xDF JUMP JUMPDEST STOP JUMPDEST PUSH2 0x75 PUSH1 0x4 DUP1 CALLDATASIZE SUB DUP2 ADD SWAP1 PUSH2 0x70 SWAP2 SWAP1 PUSH2 0x8E5 JUMP JUMPDEST PUSH2 0x550 JUMP JUMPDEST PUSH1 0x40 MLOAD PUSH2 0x84 SWAP4 SWAP3 SWAP2 SWAP1 PUSH2 0x9A9 JUMP JUMPDEST PUSH1 0x40 MLOAD DUP1 SWAP2 SUB SWAP1 RETURN JUMPDEST PUSH2 0x95 PUSH2 0x63F JUMP JUMPDEST PUSH1 0x40 MLOAD PUSH2 0xA4 SWAP4 SWAP3 SWAP2 SWAP1 PUSH2 0x9A9 JUMP JUMPDEST PUSH1 0x40 MLOAD DUP1 SWAP2 SUB SWAP1 RETURN JUMPDEST PUSH2 0xC7 PUSH1 0x4 DUP1 CALLDATASIZE SUB DUP2 ADD SWAP1 PUSH2 0xC2 SWAP2 SWAP1 PUSH2 0x925 JUMP JUMPDEST PUSH2 0x6FF JUMP JUMPDEST PUSH1 0x40 MLOAD PUSH2 0xD6 SWAP4 SWAP3 SWAP2 SWAP1 PUSH2 0x9A9 JUMP JUMPDEST PUSH1 0x40 MLOAD DUP1 SWAP2 SUB SWAP1 RETURN JUMPDEST PUSH1 0x0 PUSH1 0x40 MLOAD DUP1 PUSH1 0x60 ADD PUSH1 0x40 MSTORE DUP1 PUSH1 0x40 MLOAD DUP1 PUSH1 0x40 ADD PUSH1 0x40 MSTORE DUP1 PUSH1 0x6 DUP2 MSTORE PUSH1 0x20 ADD PUSH32 0x746F796F74610000000000000000000000000000000000000000000000000000 DUP2 MSTORE POP DUP2 MSTORE PUSH1 0x20 ADD PUSH2 0x7C6 DUP2 MSTORE PUSH1 0x20 ADD CALLER PUSH20 0xFFFFFFFFFFFFFFFFFFFFFFFFFFFFFFFFFFFFFFFF AND DUP2 MSTORE POP SWAP1 POP PUSH1 0x0 PUSH1 0x40 MLOAD DUP1 PUSH1 0x60 ADD PUSH1 0x40 MSTORE DUP1 PUSH1 0x40 MLOAD DUP1 PUSH1 0x40 ADD PUSH1 0x40 MSTORE DUP1 PUSH1 0x5 DUP2 MSTORE PUSH1 0x20 ADD PUSH32 0x6C616D626F000000000000000000000000000000000000000000000000000000 DUP2 MSTORE POP DUP2 MSTORE PUSH1 0x20 ADD PUSH2 0x7D0 DUP2 MSTORE PUSH1 0x20 ADD CALLER PUSH20 0xFFFFFFFFFFFFFFFFFFFFFFFFFFFFFFFFFFFFFFFF AND DUP2 MSTORE POP SWAP1 POP PUSH2 0x1BF PUSH2 0x7E1 JUMP JUMPDEST PUSH1 0x40 MLOAD DUP1 PUSH1 0x40 ADD PUSH1 0x40 MSTORE DUP1 PUSH1 0x5 DUP2 MSTORE PUSH1 0x20 ADD PUSH32 0x7465736C61000000000000000000000000000000000000000000000000000000 DUP2 MSTORE POP DUP2 PUSH1 0x0 ADD DUP2 SWAP1 MSTORE POP PUSH2 0x7E6 DUP2 PUSH1 0x20 ADD DUP2 DUP2 MSTORE POP POP CALLER DUP2 PUSH1 0x40 ADD SWAP1 PUSH20 0xFFFFFFFFFFFFFFFFFFFFFFFFFFFFFFFFFFFFFFFF AND SWAP1 DUP2 PUSH20 0xFFFFFFFFFFFFFFFFFFFFFFFFFFFFFFFFFFFFFFFF AND DUP2 MSTORE POP POP PUSH1 0x3 DUP4 SWAP1 DUP1 PUSH1 0x1 DUP2 SLOAD ADD DUP1 DUP3 SSTORE DUP1 SWAP2 POP POP PUSH1 0x1 SWAP1 SUB SWAP1 PUSH1 0x0 MSTORE PUSH1 0x20 PUSH1 0x0 KECCAK256 SWAP1 PUSH1 0x3 MUL ADD PUSH1 0x0 SWAP1 SWAP2 SWAP1 SWAP2 SWAP1 SWAP2 POP PUSH1 0x0 DUP3 ADD MLOAD DUP2 PUSH1 0x0 ADD SWAP1 DUP1 MLOAD SWAP1 PUSH1 0x20 ADD SWAP1 PUSH2 0x289 SWAP3 SWAP2 SWAP1 PUSH2 0x818 JUMP JUMPDEST POP PUSH1 0x20 DUP3 ADD MLOAD DUP2 PUSH1 0x1 ADD SSTORE PUSH1 0x40 DUP3 ADD MLOAD DUP2 PUSH1 0x2 ADD PUSH1 0x0 PUSH2 0x100 EXP DUP2 SLOAD DUP2 PUSH20 0xFFFFFFFFFFFFFFFFFFFFFFFFFFFFFFFFFFFFFFFF MUL NOT AND SWAP1 DUP4 PUSH20 0xFFFFFFFFFFFFFFFFFFFFFFFFFFFFFFFFFFFFFFFF AND MUL OR SWAP1 SSTORE POP POP POP PUSH1 0x3 DUP3 SWAP1 DUP1 PUSH1 0x1 DUP2 SLOAD ADD DUP1 DUP3 SSTORE DUP1 SWAP2 POP POP PUSH1 0x1 SWAP1 SUB SWAP1 PUSH1 0x0 MSTORE PUSH1 0x20 PUSH1 0x0 KECCAK256 SWAP1 PUSH1 0x3 MUL ADD PUSH1 0x0 SWAP1 SWAP2 SWAP1 SWAP2 SWAP1 SWAP2 POP PUSH1 0x0 DUP3 ADD MLOAD DUP2 PUSH1 0x0 ADD SWAP1 DUP1 MLOAD SWAP1 PUSH1 0x20 ADD SWAP1 PUSH2 0x325 SWAP3 SWAP2 SWAP1 PUSH2 0x818 JUMP JUMPDEST POP PUSH1 0x20 DUP3 ADD MLOAD DUP2 PUSH1 0x1 ADD SSTORE PUSH1 0x40 DUP3 ADD MLOAD DUP2 PUSH1 0x2 ADD PUSH1 0x0 PUSH2 0x100 EXP DUP2 SLOAD DUP2 PUSH20 0xFFFFFFFFFFFFFFFFFFFFFFFFFFFFFFFFFFFFFFFF MUL NOT AND SWAP1 DUP4 PUSH20 0xFFFFFFFFFFFFFFFFFFFFFFFFFFFFFFFFFFFFFFFF AND MUL OR SWAP1 SSTORE POP POP POP PUSH1 0x3 DUP2 SWAP1 DUP1 PUSH1 0x1 DUP2 SLOAD ADD DUP1 DUP3 SSTORE DUP1 SWAP2 POP POP PUSH1 0x1 SWAP1 SUB SWAP1 PUSH1 0x0 MSTORE PUSH1 0x20 PUSH1 0x0 KECCAK256 SWAP1 PUSH1 0x3 MUL ADD PUSH1 0x0 SWAP1 SWAP2 SWAP1 SWAP2 SWAP1 SWAP2 POP PUSH1 0x0 DUP3 ADD MLOAD DUP2 PUSH1 0x0 ADD SWAP1 DUP1 MLOAD SWAP1 PUSH1 0x20 ADD SWAP1 PUSH2 0x3C1 SWAP3 SWAP2 SWAP1 PUSH2 0x818 JUMP JUMPDEST POP PUSH1 0x20 DUP3 ADD MLOAD DUP2 PUSH1 0x1 ADD SSTORE PUSH1 0x40 DUP3 ADD MLOAD DUP2 PUSH1 0x2 ADD PUSH1 0x0 PUSH2 0x100 EXP DUP2 SLOAD DUP2 PUSH20 0xFFFFFFFFFFFFFFFFFFFFFFFFFFFFFFFFFFFFFFFF MUL NOT AND SWAP1 DUP4 PUSH20 0xFFFFFFFFFFFFFFFFFFFFFFFFFFFFFFFFFFFFFFFF AND MUL OR SWAP1 SSTORE POP POP POP PUSH1 0x3 PUSH1 0x40 MLOAD DUP1 PUSH1 0x60 ADD PUSH1 0x40 MSTORE DUP1 PUSH1 0x40 MLOAD DUP1 PUSH1 0x40 ADD PUSH1 0x40 MSTORE DUP1 PUSH1 0x7 DUP2 MSTORE PUSH1 0x20 ADD PUSH32 0x4665727261726900000000000000000000000000000000000000000000000000 DUP2 MSTORE POP DUP2 MSTORE PUSH1 0x20 ADD PUSH2 0x7E4 DUP2 MSTORE PUSH1 0x20 ADD CALLER PUSH20 0xFFFFFFFFFFFFFFFFFFFFFFFFFFFFFFFFFFFFFFFF AND DUP2 MSTORE POP SWAP1 DUP1 PUSH1 0x1 DUP2 SLOAD ADD DUP1 DUP3 SSTORE DUP1 SWAP2 POP POP PUSH1 0x1 SWAP1 SUB SWAP1 PUSH1 0x0 MSTORE PUSH1 0x20 PUSH1 0x0 KECCAK256 SWAP1 PUSH1 0x3 MUL ADD PUSH1 0x0 SWAP1 SWAP2 SWAP1 SWAP2 SWAP1 SWAP2 POP PUSH1 0x0 DUP3 ADD MLOAD DUP2 PUSH1 0x0 ADD SWAP1 DUP1 MLOAD SWAP1 PUSH1 0x20 ADD SWAP1 PUSH2 0x4C4 SWAP3 SWAP2 SWAP1 PUSH2 0x818 JUMP JUMPDEST POP PUSH1 0x20 DUP3 ADD MLOAD DUP2 PUSH1 0x1 ADD SSTORE PUSH1 0x40 DUP3 ADD MLOAD DUP2 PUSH1 0x2 ADD PUSH1 0x0 PUSH2 0x100 EXP DUP2 SLOAD DUP2 PUSH20 0xFFFFFFFFFFFFFFFFFFFFFFFFFFFFFFFFFFFFFFFF MUL NOT AND SWAP1 DUP4 PUSH20 0xFFFFFFFFFFFFFFFFFFFFFFFFFFFFFFFFFFFFFFFF AND MUL OR SWAP1 SSTORE POP POP POP PUSH1 0x0 PUSH1 0x3 PUSH1 0x0 DUP2 SLOAD DUP2 LT PUSH2 0x52F JUMPI PUSH2 0x52E PUSH2 0xAD3 JUMP JUMPDEST JUMPDEST SWAP1 PUSH1 0x0 MSTORE PUSH1 0x20 PUSH1 0x0 KECCAK256 SWAP1 PUSH1 0x3 MUL ADD SWAP1 POP PUSH2 0x7CF DUP2 PUSH1 0x1 ADD DUP2 SWAP1 SSTORE POP POP POP POP POP JUMP JUMPDEST PUSH1 0x4 PUSH1 0x20 MSTORE DUP2 PUSH1 0x0 MSTORE PUSH1 0x40 PUSH1 0x0 KECCAK256 DUP2 DUP2 SLOAD DUP2 LT PUSH2 0x56C JUMPI PUSH1 0x0 DUP1 REVERT JUMPDEST SWAP1 PUSH1 0x0 MSTORE PUSH1 0x20 PUSH1 0x0 KECCAK256 SWAP1 PUSH1 0x3 MUL ADD PUSH1 0x0 SWAP2 POP SWAP2 POP POP DUP1 PUSH1 0x0 ADD DUP1 SLOAD PUSH2 0x590 SWAP1 PUSH2 0xA72 JUMP JUMPDEST DUP1 PUSH1 0x1F ADD PUSH1 0x20 DUP1 SWAP2 DIV MUL PUSH1 0x20 ADD PUSH1 0x40 MLOAD SWAP1 DUP2 ADD PUSH1 0x40 MSTORE DUP1 SWAP3 SWAP2 SWAP1 DUP2 DUP2 MSTORE PUSH1 0x20 ADD DUP3 DUP1 SLOAD PUSH2 0x5BC SWAP1 PUSH2 0xA72 JUMP JUMPDEST DUP1 ISZERO PUSH2 0x609 JUMPI DUP1 PUSH1 0x1F LT PUSH2 0x5DE JUMPI PUSH2 0x100 DUP1 DUP4 SLOAD DIV MUL DUP4 MSTORE SWAP2 PUSH1 0x20 ADD SWAP2 PUSH2 0x609 JUMP JUMPDEST DUP3 ADD SWAP2 SWAP1 PUSH1 0x0 MSTORE PUSH1 0x20 PUSH1 0x0 KECCAK256 SWAP1 JUMPDEST DUP2 SLOAD DUP2 MSTORE SWAP1 PUSH1 0x1 ADD SWAP1 PUSH1 0x20 ADD DUP1 DUP4 GT PUSH2 0x5EC JUMPI DUP3 SWAP1 SUB PUSH1 0x1F AND DUP3 ADD SWAP2 JUMPDEST POP POP POP POP POP SWAP1 DUP1 PUSH1 0x1 ADD SLOAD SWAP1 DUP1 PUSH1 0x2 ADD PUSH1 0x0 SWAP1 SLOAD SWAP1 PUSH2 0x100 EXP SWAP1 DIV PUSH20 0xFFFFFFFFFFFFFFFFFFFFFFFFFFFFFFFFFFFFFFFF AND SWAP1 POP DUP4 JUMP JUMPDEST PUSH1 0x0 DUP1 PUSH1 0x0 ADD DUP1 SLOAD PUSH2 0x650 SWAP1 PUSH2 0xA72 JUMP JUMPDEST DUP1 PUSH1 0x1F ADD PUSH1 0x20 DUP1 SWAP2 DIV MUL PUSH1 0x20 ADD PUSH1 0x40 MLOAD SWAP1 DUP2 ADD PUSH1 0x40 MSTORE DUP1 SWAP3 SWAP2 SWAP1 DUP2 DUP2 MSTORE PUSH1 0x20 ADD DUP3 DUP1 SLOAD PUSH2 0x67C SWAP1 PUSH2 0xA72 JUMP JUMPDEST DUP1 ISZERO PUSH2 0x6C9 JUMPI DUP1 PUSH1 0x1F LT PUSH2 0x69E JUMPI PUSH2 0x100 DUP1 DUP4 SLOAD DIV MUL DUP4 MSTORE SWAP2 PUSH1 0x20 ADD SWAP2 PUSH2 0x6C9 JUMP JUMPDEST DUP3 ADD SWAP2 SWAP1 PUSH1 0x0 MSTORE PUSH1 0x20 PUSH1 0x0 KECCAK256 SWAP1 JUMPDEST DUP2 SLOAD DUP2 MSTORE SWAP1 PUSH1 0x1 ADD SWAP1 PUSH1 0x20 ADD DUP1 DUP4 GT PUSH2 0x6AC JUMPI DUP3 SWAP1 SUB PUSH1 0x1F AND DUP3 ADD SWAP2 JUMPDEST POP POP POP POP POP SWAP1 DUP1 PUSH1 0x1 ADD SLOAD SWAP1 DUP1 PUSH1 0x2 ADD PUSH1 0x0 SWAP1 SLOAD SWAP1 PUSH2 0x100 EXP SWAP1 DIV PUSH20 0xFFFFFFFFFFFFFFFFFFFFFFFFFFFFFFFFFFFFFFFF AND SWAP1 POP DUP4 JUMP JUMPDEST PUSH1 0x3 DUP2 DUP2 SLOAD DUP2 LT PUSH2 0x70F JUMPI PUSH1 0x0 DUP1 REVERT JUMPDEST SWAP1 PUSH1 0x0 MSTORE PUSH1 0x20 PUSH1 0x0 KECCAK256 SWAP1 PUSH1 0x3 MUL ADD PUSH1 0x0 SWAP2 POP SWAP1 POP DUP1 PUSH1 0x0 ADD DUP1 SLOAD PUSH2 0x732 SWAP1 PUSH2 0xA72 JUMP JUMPDEST DUP1 PUSH1 0x1F ADD PUSH1 0x20 DUP1 SWAP2 DIV MUL PUSH1 0x20 ADD PUSH1 0x40 MLOAD SWAP1 DUP2 ADD PUSH1 0x40 MSTORE DUP1 SWAP3 SWAP2 SWAP1 DUP2 DUP2 MSTORE PUSH1 0x20 ADD DUP3 DUP1 SLOAD PUSH2 0x75E SWAP1 PUSH2 0xA72 JUMP JUMPDEST DUP1 ISZERO PUSH2 0x7AB JUMPI DUP1 PUSH1 0x1F LT PUSH2 0x780 JUMPI PUSH2 0x100 DUP1 DUP4 SLOAD DIV MUL DUP4 MSTORE SWAP2 PUSH1 0x20 ADD SWAP2 PUSH2 0x7AB JUMP JUMPDEST DUP3 ADD SWAP2 SWAP1 PUSH1 0x0 MSTORE PUSH1 0x20 PUSH1 0x0 KECCAK256 SWAP1 JUMPDEST DUP2 SLOAD DUP2 MSTORE SWAP1 PUSH1 0x1 ADD SWAP1 PUSH1 0x20 ADD DUP1 DUP4 GT PUSH2 0x78E JUMPI DUP3 SWAP1 SUB PUSH1 0x1F AND DUP3 ADD SWAP2 JUMPDEST POP POP POP POP POP SWAP1 DUP1 PUSH1 0x1 ADD SLOAD SWAP1 DUP1 PUSH1 0x2 ADD PUSH1 0x0 SWAP1 SLOAD SWAP1 PUSH2 0x100 EXP SWAP1 DIV PUSH20 0xFFFFFFFFFFFFFFFFFFFFFFFFFFFFFFFFFFFFFFFF AND SWAP1 POP DUP4 JUMP JUMPDEST PUSH1 0x40 MLOAD DUP1 PUSH1 0x60 ADD PUSH1 0x40 MSTORE DUP1 PUSH1 0x60 DUP2 MSTORE PUSH1 0x20 ADD PUSH1 0x0 DUP2 MSTORE PUSH1 0x20 ADD PUSH1 0x0 PUSH20 0xFFFFFFFFFFFFFFFFFFFFFFFFFFFFFFFFFFFFFFFF AND DUP2 MSTORE POP SWAP1 JUMP JUMPDEST DUP3 DUP1 SLOAD PUSH2 0x824 SWAP1 PUSH2 0xA72 JUMP JUMPDEST SWAP1 PUSH1 0x0 MSTORE PUSH1 0x20 PUSH1 0x0 KECCAK256 SWAP1 PUSH1 0x1F ADD PUSH1 0x20 SWAP1 DIV DUP2 ADD SWAP3 DUP3 PUSH2 0x846 JUMPI PUSH1 0x0 DUP6 SSTORE PUSH2 0x88D JUMP JUMPDEST DUP3 PUSH1 0x1F LT PUSH2 0x85F JUMPI DUP1 MLOAD PUSH1 0xFF NOT AND DUP4 DUP1 ADD OR DUP6 SSTORE PUSH2 0x88D JUMP JUMPDEST DUP3 DUP1 ADD PUSH1 0x1 ADD DUP6 SSTORE DUP3 ISZERO PUSH2 0x88D JUMPI SWAP2 DUP3 ADD JUMPDEST DUP3 DUP2 GT ISZERO PUSH2 0x88C JUMPI DUP3 MLOAD DUP3 SSTORE SWAP2 PUSH1 0x20 ADD SWAP2 SWAP1 PUSH1 0x1 ADD SWAP1 PUSH2 0x871 JUMP JUMPDEST JUMPDEST POP SWAP1 POP PUSH2 0x89A SWAP2 SWAP1 PUSH2 0x89E JUMP JUMPDEST POP SWAP1 JUMP JUMPDEST JUMPDEST DUP1 DUP3 GT ISZERO PUSH2 0x8B7 JUMPI PUSH1 0x0 DUP2 PUSH1 0x0 SWAP1 SSTORE POP PUSH1 0x1 ADD PUSH2 0x89F JUMP JUMPDEST POP SWAP1 JUMP JUMPDEST PUSH1 0x0 DUP2 CALLDATALOAD SWAP1 POP PUSH2 0x8CA DUP2 PUSH2 0xB18 JUMP JUMPDEST SWAP3 SWAP2 POP POP JUMP JUMPDEST PUSH1 0x0 DUP2 CALLDATALOAD SWAP1 POP PUSH2 0x8DF DUP2 PUSH2 0xB2F JUMP JUMPDEST SWAP3 SWAP2 POP POP JUMP JUMPDEST PUSH1 0x0 DUP1 PUSH1 0x40 DUP4 DUP6 SUB SLT ISZERO PUSH2 0x8FC JUMPI PUSH2 0x8FB PUSH2 0xB02 JUMP JUMPDEST JUMPDEST PUSH1 0x0 PUSH2 0x90A DUP6 DUP3 DUP7 ADD PUSH2 0x8BB JUMP JUMPDEST SWAP3 POP POP PUSH1 0x20 PUSH2 0x91B DUP6 DUP3 DUP7 ADD PUSH2 0x8D0 JUMP JUMPDEST SWAP2 POP POP SWAP3 POP SWAP3 SWAP1 POP JUMP JUMPDEST PUSH1 0x0 PUSH1 0x20 DUP3 DUP5 SUB SLT ISZERO PUSH2 0x93B JUMPI PUSH2 0x93A PUSH2 0xB02 JUMP JUMPDEST JUMPDEST PUSH1 0x0 PUSH2 0x949 DUP5 DUP3 DUP6 ADD PUSH2 0x8D0 JUMP JUMPDEST SWAP2 POP POP SWAP3 SWAP2 POP POP JUMP JUMPDEST PUSH2 0x95B DUP2 PUSH2 0xA03 JUMP JUMPDEST DUP3 MSTORE POP POP JUMP JUMPDEST PUSH1 0x0 PUSH2 0x96C DUP3 PUSH2 0x9E7 JUMP JUMPDEST PUSH2 0x976 DUP2 DUP6 PUSH2 0x9F2 JUMP JUMPDEST SWAP4 POP PUSH2 0x986 DUP2 DUP6 PUSH1 0x20 DUP7 ADD PUSH2 0xA3F JUMP JUMPDEST PUSH2 0x98F DUP2 PUSH2 0xB07 JUMP JUMPDEST DUP5 ADD SWAP2 POP POP SWAP3 SWAP2 POP POP JUMP JUMPDEST PUSH2 0x9A3 DUP2 PUSH2 0xA35 JUMP JUMPDEST DUP3 MSTORE POP POP JUMP JUMPDEST PUSH1 0x0 PUSH1 0x60 DUP3 ADD SWAP1 POP DUP2 DUP2 SUB PUSH1 0x0 DUP4 ADD MSTORE PUSH2 0x9C3 DUP2 DUP7 PUSH2 0x961 JUMP JUMPDEST SWAP1 POP PUSH2 0x9D2 PUSH1 0x20 DUP4 ADD DUP6 PUSH2 0x99A JUMP JUMPDEST PUSH2 0x9DF PUSH1 0x40 DUP4 ADD DUP5 PUSH2 0x952 JUMP JUMPDEST SWAP5 SWAP4 POP POP POP POP JUMP JUMPDEST PUSH1 0x0 DUP2 MLOAD SWAP1 POP SWAP2 SWAP1 POP JUMP JUMPDEST PUSH1 0x0 DUP3 DUP3 MSTORE PUSH1 0x20 DUP3 ADD SWAP1 POP SWAP3 SWAP2 POP POP JUMP JUMPDEST PUSH1 0x0 PUSH2 0xA0E DUP3 PUSH2 0xA15 JUMP JUMPDEST SWAP1 POP SWAP2 SWAP1 POP JUMP JUMPDEST PUSH1 0x0 PUSH20 0xFFFFFFFFFFFFFFFFFFFFFFFFFFFFFFFFFFFFFFFF DUP3 AND SWAP1 POP SWAP2 SWAP1 POP JUMP JUMPDEST PUSH1 0x0 DUP2 SWAP1 POP SWAP2 SWAP1 POP JUMP JUMPDEST PUSH1 0x0 JUMPDEST DUP4 DUP2 LT ISZERO PUSH2 0xA5D JUMPI DUP1 DUP3 ADD MLOAD DUP2 DUP5 ADD MSTORE PUSH1 0x20 DUP2 ADD SWAP1 POP PUSH2 0xA42 JUMP JUMPDEST DUP4 DUP2 GT ISZERO PUSH2 0xA6C JUMPI PUSH1 0x0 DUP5 DUP5 ADD MSTORE JUMPDEST POP POP POP POP JUMP JUMPDEST PUSH1 0x0 PUSH1 0x2 DUP3 DIV SWAP1 POP PUSH1 0x1 DUP3 AND DUP1 PUSH2 0xA8A JUMPI PUSH1 0x7F DUP3 AND SWAP2 POP JUMPDEST PUSH1 0x20 DUP3 LT DUP2 EQ ISZERO PUSH2 0xA9E JUMPI PUSH2 0xA9D PUSH2 0xAA4 JUMP JUMPDEST JUMPDEST POP SWAP2 SWAP1 POP JUMP JUMPDEST PUSH32 0x4E487B7100000000000000000000000000000000000000000000000000000000 PUSH1 0x0 MSTORE PUSH1 0x22 PUSH1 0x4 MSTORE PUSH1 0x24 PUSH1 0x0 REVERT JUMPDEST PUSH32 0x4E487B7100000000000000000000000000000000000000000000000000000000 PUSH1 0x0 MSTORE PUSH1 0x32 PUSH1 0x4 MSTORE PUSH1 0x24 PUSH1 0x0 REVERT JUMPDEST PUSH1 0x0 DUP1 REVERT JUMPDEST PUSH1 0x0 PUSH1 0x1F NOT PUSH1 0x1F DUP4 ADD AND SWAP1 POP SWAP2 SWAP1 POP JUMP JUMPDEST PUSH2 0xB21 DUP2 PUSH2 0xA03 JUMP JUMPDEST DUP2 EQ PUSH2 0xB2C JUMPI PUSH1 0x0 DUP1 REVERT JUMPDEST POP JUMP JUMPDEST PUSH2 0xB38 DUP2 PUSH2 0xA35 JUMP JUMPDEST DUP2 EQ PUSH2 0xB43 JUMPI PUSH1 0x0 DUP1 REVERT JUMPDEST POP JUMP INVALID LOG2 PUSH5 0x6970667358 0x22 SLT KECCAK256 0xD0 0x29 0xF BALANCE SHR 0xB5 0xEB 0xAD 0x4D 0xF8 CHAINID PUSH10 0x829EA2EFCEBD7CE1E930 LOG0 0xD0 GASLIMIT SIGNEXTEND PUSH25 0xC9FC66803464736F6C63430008070033000000000000000000 "
				},
				"gasEstimates": {
					"creation": {
						"codeDepositCost": "588000",
						"executionCost": "619",
						"totalCost": "588619"
					},
					"external": {
						"car()": "infinite",
						"cars(uint256)": "infinite",
						"carsByOwner(address,uint256)": "infinite",
						"exapmles()": "infinite"
					}
				},
				"methodIdentifiers": {
					"car()": "ee26fac3",
					"cars(uint256)": "f7746e36",
					"carsByOwner(address,uint256)": "aa9fb6c8",
					"exapmles()": "4d1c3e33"
				}
			},
			"storageLayout": {
				"storage": [
					{
						"astId": 11,
						"contract": "Day20_Struct.sol:Struct",
						"label": "car",
						"offset": 0,
						"slot": "0",
						"type": "t_struct(Car)8_storage"
					},
					{
						"astId": 15,
						"contract": "Day20_Struct.sol:Struct",
						"label": "cars",
						"offset": 0,
						"slot": "3",
						"type": "t_array(t_struct(Car)8_storage)dyn_storage"
					},
					{
						"astId": 21,
						"contract": "Day20_Struct.sol:Struct",
						"label": "carsByOwner",
						"offset": 0,
						"slot": "4",
						"type": "t_mapping(t_address,t_array(t_struct(Car)8_storage)dyn_storage)"
					}
				],
				"types": {
					"t_address": {
						"encoding": "inplace",
						"label": "address",
						"numberOfBytes": "20"
					},
					"t_array(t_struct(Car)8_storage)dyn_storage": {
						"base": "t_struct(Car)8_storage",
						"encoding": "dynamic_array",
						"label": "struct Struct.Car[]",
						"numberOfBytes": "32"
					},
					"t_mapping(t_address,t_array(t_struct(Car)8_storage)dyn_storage)": {
						"encoding": "mapping",
						"key": "t_address",
						"label": "mapping(address => struct Struct.Car[])",
						"numberOfBytes": "32",
						"value": "t_array(t_struct(Car)8_storage)dyn_storage"
					},
					"t_string_storage": {
						"encoding": "bytes",
						"label": "string",
						"numberOfBytes": "32"
					},
					"t_struct(Car)8_storage": {
						"encoding": "inplace",
						"label": "struct Struct.Car",
						"members": [
							{
								"astId": 3,
								"contract": "Day20_Struct.sol:Struct",
								"label": "model",
								"offset": 0,
								"slot": "0",
								"type": "t_string_storage"
							},
							{
								"astId": 5,
								"contract": "Day20_Struct.sol:Struct",
								"label": "year",
								"offset": 0,
								"slot": "1",
								"type": "t_uint256"
							},
							{
								"astId": 7,
								"contract": "Day20_Struct.sol:Struct",
								"label": "owner",
								"offset": 0,
								"slot": "2",
								"type": "t_address"
							}
						],
						"numberOfBytes": "96"
					},
					"t_uint256": {
						"encoding": "inplace",
						"label": "uint256",
						"numberOfBytes": "32"
					}
				}
			},
			"userdoc": {
				"kind": "user",
				"methods": {},
				"version": 1
			}
		}
	}
}