{
	"Day21_Enum.sol": {
		"Enum": {
			"abi": [
				{
					"inputs": [],
					"name": "status",
					"outputs": [
						{
							"internalType": "enum Enum.Status",
							"name": "",
							"type": "uint8"
						}
					],
					"stateMutability": "view",
					"type": "function"
				}
			],
			"devdoc": {
				"kind": "dev",
				"methods": {},
				"version": 1
			},
			"evm": {
				"assembly": "    /* \"Day21_Enum.sol\":58:211  contract Enum {... */\n  mstore(0x40, 0x80)\n  callvalue\n  dup1\n  iszero\n  tag_1\n  jumpi\n  0x00\n  dup1\n  revert\ntag_1:\n  pop\n  dataSize(sub_0)\n  dup1\n  dataOffset(sub_0)\n  0x00\n  codecopy\n  0x00\n  return\nstop\n\nsub_0: assembly {\n        /* \"Day21_Enum.sol\":58:211  contract Enum {... */\n      mstore(0x40, 0x80)\n      callvalue\n      dup1\n      iszero\n      tag_1\n      jumpi\n      0x00\n      dup1\n      revert\n    tag_1:\n      pop\n      jumpi(tag_2, lt(calldatasize, 0x04))\n      shr(0xe0, calldataload(0x00))\n      dup1\n      0x200d2ed2\n      eq\n      tag_3\n      jumpi\n    tag_2:\n      0x00\n      dup1\n      revert\n        /* \"Day21_Enum.sol\":188:208  Status public status */\n    tag_3:\n      tag_4\n      tag_5\n      jump\t// in\n    tag_4:\n      mload(0x40)\n      tag_6\n      swap2\n      swap1\n      tag_7\n      jump\t// in\n    tag_6:\n      mload(0x40)\n      dup1\n      swap2\n      sub\n      swap1\n      return\n    tag_5:\n      0x00\n      dup1\n      sload\n      swap1\n      0x0100\n      exp\n      swap1\n      div\n      0xff\n      and\n      dup2\n      jump\t// out\n        /* \"#utility.yul\":7:150   */\n    tag_9:\n        /* \"#utility.yul\":100:143   */\n      tag_11\n        /* \"#utility.yul\":137:142   */\n      dup2\n        /* \"#utility.yul\":100:143   */\n      tag_12\n      jump\t// in\n    tag_11:\n        /* \"#utility.yul\":95:98   */\n      dup3\n        /* \"#utility.yul\":88:144   */\n      mstore\n        /* \"#utility.yul\":7:150   */\n      pop\n      pop\n      jump\t// out\n        /* \"#utility.yul\":156:390   */\n    tag_7:\n        /* \"#utility.yul\":255:259   */\n      0x00\n        /* \"#utility.yul\":293:295   */\n      0x20\n        /* \"#utility.yul\":282:291   */\n      dup3\n        /* \"#utility.yul\":278:296   */\n      add\n        /* \"#utility.yul\":270:296   */\n      swap1\n      pop\n        /* \"#utility.yul\":306:383   */\n      tag_14\n        /* \"#utility.yul\":380:381   */\n      0x00\n        /* \"#utility.yul\":369:378   */\n      dup4\n        /* \"#utility.yul\":365:382   */\n      add\n        /* \"#utility.yul\":356:362   */\n      dup5\n        /* \"#utility.yul\":306:383   */\n      tag_9\n      jump\t// in\n    tag_14:\n        /* \"#utility.yul\":156:390   */\n      swap3\n      swap2\n      pop\n      pop\n      jump\t// out\n        /* \"#utility.yul\":396:523   */\n    tag_15:\n        /* \"#utility.yul\":441:448   */\n      0x00\n        /* \"#utility.yul\":470:475   */\n      dup2\n        /* \"#utility.yul\":459:475   */\n      swap1\n      pop\n        /* \"#utility.yul\":476:517   */\n      tag_17\n        /* \"#utility.yul\":511:516   */\n      dup3\n        /* \"#utility.yul\":476:517   */\n      tag_18\n      jump\t// in\n    tag_17:\n        /* \"#utility.yul\":396:523   */\n      swap2\n      swap1\n      pop\n      jump\t// out\n        /* \"#utility.yul\":529:656   */\n    tag_12:\n        /* \"#utility.yul\":585:594   */\n      0x00\n        /* \"#utility.yul\":618:650   */\n      tag_20\n        /* \"#utility.yul\":644:649   */\n      dup3\n        /* \"#utility.yul\":618:650   */\n      tag_15\n      jump\t// in\n    tag_20:\n        /* \"#utility.yul\":605:650   */\n      swap1\n      pop\n        /* \"#utility.yul\":529:656   */\n      swap2\n      swap1\n      pop\n      jump\t// out\n        /* \"#utility.yul\":662:842   */\n    tag_21:\n        /* \"#utility.yul\":710:787   */\n      0x4e487b7100000000000000000000000000000000000000000000000000000000\n        /* \"#utility.yul\":707:708   */\n      0x00\n        /* \"#utility.yul\":700:788   */\n      mstore\n        /* \"#utility.yul\":807:811   */\n      0x21\n        /* \"#utility.yul\":804:805   */\n      0x04\n        /* \"#utility.yul\":797:812   */\n      mstore\n        /* \"#utility.yul\":831:835   */\n      0x24\n        /* \"#utility.yul\":828:829   */\n      0x00\n        /* \"#utility.yul\":821:836   */\n      revert\n        /* \"#utility.yul\":848:961   */\n    tag_18:\n        /* \"#utility.yul\":929:930   */\n      0x05\n        /* \"#utility.yul\":922:927   */\n      dup2\n        /* \"#utility.yul\":919:931   */\n      lt\n        /* \"#utility.yul\":909:955   */\n      tag_24\n      jumpi\n        /* \"#utility.yul\":935:953   */\n      tag_25\n      tag_21\n      jump\t// in\n    tag_25:\n        /* \"#utility.yul\":909:955   */\n    tag_24:\n        /* \"#utility.yul\":848:961   */\n      pop\n      jump\t// out\n\n    auxdata: 0xa26469706673582212206f8a71bb1c752021b6efe381d3e0a74e1c2eacea95f13b5ff78fe26c8f86e29464736f6c63430008070033\n}\n",
				"bytecode": {
					"linkReferences": {},
					"object": "608060405234801561001057600080fd5b50610115806100206000396000f3fe6080604052348015600f57600080fd5b506004361060285760003560e01c8063200d2ed214602d575b600080fd5b60336047565b604051603e91906065565b60405180910390f35b60008054906101000a900460ff1681565b605f81608f565b82525050565b6000602082019050607860008301846058565b92915050565b6000819050608a8260ce565b919050565b6000609882607e565b9050919050565b7f4e487b7100000000000000000000000000000000000000000000000000000000600052602160045260246000fd5b6005811060dc5760db609f565b5b5056fea26469706673582212206f8a71bb1c752021b6efe381d3e0a74e1c2eacea95f13b5ff78fe26c8f86e29464736f6c63430008070033",
					"opcodes": "PUSH1 0x80 PUSH1 0x40 MSTORE CALLVALUE DUP1 ISZERO PUSH2 0x10 JUMPI PUSH1 0x0 DUP1 REVERT JUMPDEST POP PUSH2 0x115 DUP1 PUSH2 0x20 PUSH1 0x0 CODECOPY PUSH1 0x0 RETURN INVALID PUSH1 0x80 PUSH1 0x40 MSTORE CALLVALUE DUP1 ISZERO PUSH1 0xF JUMPI PUSH1 0x0 DUP1 REVERT JUMPDEST POP PUSH1 0x4 CALLDATASIZE LT PUSH1 0x28 JUMPI PUSH1 0x0 CALLDATALOAD PUSH1 0xE0 SHR DUP1 PUSH4 0x200D2ED2 EQ PUSH1 0x2D JUMPI JUMPDEST PUSH1 0x0 DUP1 REVERT JUMPDEST PUSH1 0x33 PUSH1 0x47 JUMP JUMPDEST PUSH1 0x40 MLOAD PUSH1 0x3E SWAP2 SWAP1 PUSH1 0x65 JUMP JUMPDEST PUSH1 0x40 MLOAD DUP1 SWAP2 SUB SWAP1 RETURN JUMPDEST PUSH1 0x0 DUP1 SLOAD SWAP1 PUSH2 0x100 EXP SWAP1 DIV PUSH1 0xFF AND DUP2 JUMP JUMPDEST PUSH1 0x5F DUP2 PUSH1 0x8F JUMP JUMPDEST DUP3 MSTORE POP POP JUMP JUMPDEST PUSH1 0x0 PUSH1 0x20 DUP3 ADD SWAP1 POP PUSH1 0x78 PUSH1 0x0 DUP4 ADD DUP5 PUSH1 0x58 JUMP JUMPDEST SWAP3 SWAP2 POP POP JUMP JUMPDEST PUSH1 0x0 DUP2 SWAP1 POP PUSH1 0x8A DUP3 PUSH1 0xCE JUMP JUMPDEST SWAP2 SWAP1 POP JUMP JUMPDEST PUSH1 0x0 PUSH1 0x98 DUP3 PUSH1 0x7E JUMP JUMPDEST SWAP1 POP SWAP2 SWAP1 POP JUMP JUMPDEST PUSH32 0x4E487B7100000000000000000000000000000000000000000000000000000000 PUSH1 0x0 MSTORE PUSH1 0x21 PUSH1 0x4 MSTORE PUSH1 0x24 PUSH1 0x0 REVERT JUMPDEST PUSH1 0x5 DUP2 LT PUSH1 0xDC JUMPI PUSH1 0xDB PUSH1 0x9F JUMP JUMPDEST JUMPDEST POP JUMP INVALID LOG2 PUSH5 0x6970667358 0x22 SLT KECCAK256 PUSH16 0x8A71BB1C752021B6EFE381D3E0A74E1C 0x2E 0xAC 0xEA SWAP6 CALL EXTCODESIZE 0x5F 0xF7 DUP16 0xE2 PUSH13 0x8F86E29464736F6C6343000807 STOP CALLER "
				},
				"gasEstimates": {
					"creation": {
						"codeDepositCost": "55400",
						"executionCost": "105",
						"totalCost": "55505"
					},
					"external": {
						"status()": "2535"
					}
				},
				"methodIdentifiers": {
					"status()": "200d2ed2"
				}
			},
			"storageLayout": {
				"storage": [
					{
						"astId": 10,
						"contract": "Day21_Enum.sol:Enum",
						"label": "status",
						"offset": 0,
						"slot": "0",
						"type": "t_enum(Status)7"
					}
				],
				"types": {
					"t_enum(Status)7": {
						"encoding": "inplace",
						"label": "enum Enum.Status",
						"numberOfBytes": "1"
					}
				}
			},
			"userdoc": {
				"kind": "user",
				"methods": {},
				"version": 1
			}
		}
	}
}