{
	"Day2_ValueTypes.sol": {
		"ValueTypes": {
			"abi": [
				{
					"inputs": [],
					"name": "a",
					"outputs": [
						{
							"internalType": "bool",
							"name": "",
							"type": "bool"
						}
					],
					"stateMutability": "view",
					"type": "function"
				},
				{
					"inputs": [],
					"name": "addr",
					"outputs": [
						{
							"internalType": "address",
							"name": "",
							"type": "address"
						}
					],
					"stateMutability": "view",
					"type": "function"
				},
				{
					"inputs": [],
					"name": "b",
					"outputs": [
						{
							"internalType": "uint256",
							"name": "",
							"type": "uint256"
						}
					],
					"stateMutability": "view",
					"type": "function"
				},
				{
					"inputs": [],
					"name": "b32",
					"outputs": [
						{
							"internalType": "bytes32",
							"name": "",
							"type": "bytes32"
						}
					],
					"stateMutability": "view",
					"type": "function"
				},
				{
					"inputs": [],
					"name": "c",
					"outputs": [
						{
							"internalType": "int256",
							"name": "",
							"type": "int256"
						}
					],
					"stateMutability": "view",
					"type": "function"
				},
				{
					"inputs": [],
					"name": "maxInt",
					"outputs": [
						{
							"internalType": "int256",
							"name": "",
							"type": "int256"
						}
					],
					"stateMutability": "view",
					"type": "function"
				},
				{
					"inputs": [],
					"name": "minInt",
					"outputs": [
						{
							"internalType": "int256",
							"name": "",
							"type": "int256"
						}
					],
					"stateMutability": "view",
					"type": "function"
				}
			],
			"devdoc": {
				"kind": "dev",
				"methods": {},
				"version": 1
			},
			"evm": {
				"assembly": "    /* \"Day2_ValueTypes.sol\":95:610  contract ValueTypes {... */\n  mstore(0x40, 0x80)\n    /* \"Day2_ValueTypes.sol\":460:473  type(int).max */\n  0x7fffffffffffffffffffffffffffffffffffffffffffffffffffffffffffffff\n    /* \"Day2_ValueTypes.sol\":440:473  int public maxInt = type(int).max */\n  0x03\n  sstore\n    /* \"Day2_ValueTypes.sol\":521:534  type(int).min */\n  0x8000000000000000000000000000000000000000000000000000000000000000\n    /* \"Day2_ValueTypes.sol\":501:534  int public minInt = type(int).min */\n  0x04\n  sstore\n    /* \"Day2_ValueTypes.sol\":95:610  contract ValueTypes {... */\n  callvalue\n  dup1\n  iszero\n  tag_1\n  jumpi\n  0x00\n  dup1\n  revert\ntag_1:\n  pop\n  dataSize(sub_0)\n  dup1\n  dataOffset(sub_0)\n  0x00\n  codecopy\n  0x00\n  return\nstop\n\nsub_0: assembly {\n        /* \"Day2_ValueTypes.sol\":95:610  contract ValueTypes {... */\n      mstore(0x40, 0x80)\n      callvalue\n      dup1\n      iszero\n      tag_1\n      jumpi\n      0x00\n      dup1\n      revert\n    tag_1:\n      pop\n      jumpi(tag_2, lt(calldatasize, 0x04))\n      shr(0xe0, calldataload(0x00))\n      dup1\n      0x7a4c2571\n      gt\n      tag_10\n      jumpi\n      dup1\n      0x7a4c2571\n      eq\n      tag_6\n      jumpi\n      dup1\n      0x7e4e14cc\n      eq\n      tag_7\n      jumpi\n      dup1\n      0xc3da42b8\n      eq\n      tag_8\n      jumpi\n      dup1\n      0xf8aab238\n      eq\n      tag_9\n      jumpi\n      jump(tag_2)\n    tag_10:\n      dup1\n      0x0dbe671f\n      eq\n      tag_3\n      jumpi\n      dup1\n      0x4df7e3d0\n      eq\n      tag_4\n      jumpi\n      dup1\n      0x767800de\n      eq\n      tag_5\n      jumpi\n    tag_2:\n      0x00\n      dup1\n      revert\n        /* \"Day2_ValueTypes.sol\":121:134  bool public a */\n    tag_3:\n      tag_11\n      tag_12\n      jump\t// in\n    tag_11:\n      mload(0x40)\n      tag_13\n      swap2\n      swap1\n      tag_14\n      jump\t// in\n    tag_13:\n      mload(0x40)\n      dup1\n      swap2\n      sub\n      swap1\n      return\n        /* \"Day2_ValueTypes.sol\":164:177  uint public b */\n    tag_4:\n      tag_15\n      tag_16\n      jump\t// in\n    tag_15:\n      mload(0x40)\n      tag_17\n      swap2\n      swap1\n      tag_18\n      jump\t// in\n    tag_17:\n      mload(0x40)\n      dup1\n      swap2\n      sub\n      swap1\n      return\n        /* \"Day2_ValueTypes.sol\":563:582  address public addr */\n    tag_5:\n      tag_19\n      tag_20\n      jump\t// in\n    tag_19:\n      mload(0x40)\n      tag_21\n      swap2\n      swap1\n      tag_22\n      jump\t// in\n    tag_21:\n      mload(0x40)\n      dup1\n      swap2\n      sub\n      swap1\n      return\n        /* \"Day2_ValueTypes.sol\":440:473  int public maxInt = type(int).max */\n    tag_6:\n      tag_23\n      tag_24\n      jump\t// in\n    tag_23:\n      mload(0x40)\n      tag_25\n      swap2\n      swap1\n      tag_26\n      jump\t// in\n    tag_25:\n      mload(0x40)\n      dup1\n      swap2\n      sub\n      swap1\n      return\n        /* \"Day2_ValueTypes.sol\":501:534  int public minInt = type(int).min */\n    tag_7:\n      tag_27\n      tag_28\n      jump\t// in\n    tag_27:\n      mload(0x40)\n      tag_29\n      swap2\n      swap1\n      tag_26\n      jump\t// in\n    tag_29:\n      mload(0x40)\n      dup1\n      swap2\n      sub\n      swap1\n      return\n        /* \"Day2_ValueTypes.sol\":356:368  int public c */\n    tag_8:\n      tag_30\n      tag_31\n      jump\t// in\n    tag_30:\n      mload(0x40)\n      tag_32\n      swap2\n      swap1\n      tag_26\n      jump\t// in\n    tag_32:\n      mload(0x40)\n      dup1\n      swap2\n      sub\n      swap1\n      return\n        /* \"Day2_ValueTypes.sol\":588:606  bytes32 public b32 */\n    tag_9:\n      tag_33\n      tag_34\n      jump\t// in\n    tag_33:\n      mload(0x40)\n      tag_35\n      swap2\n      swap1\n      tag_36\n      jump\t// in\n    tag_35:\n      mload(0x40)\n      dup1\n      swap2\n      sub\n      swap1\n      return\n        /* \"Day2_ValueTypes.sol\":121:134  bool public a */\n    tag_12:\n      0x00\n      dup1\n      sload\n      swap1\n      0x0100\n      exp\n      swap1\n      div\n      0xff\n      and\n      dup2\n      jump\t// out\n        /* \"Day2_ValueTypes.sol\":164:177  uint public b */\n    tag_16:\n      sload(0x01)\n      dup2\n      jump\t// out\n        /* \"Day2_ValueTypes.sol\":563:582  address public addr */\n    tag_20:\n      0x05\n      0x00\n      swap1\n      sload\n      swap1\n      0x0100\n      exp\n      swap1\n      div\n      0xffffffffffffffffffffffffffffffffffffffff\n      and\n      dup2\n      jump\t// out\n        /* \"Day2_ValueTypes.sol\":440:473  int public maxInt = type(int).max */\n    tag_24:\n      sload(0x03)\n      dup2\n      jump\t// out\n        /* \"Day2_ValueTypes.sol\":501:534  int public minInt = type(int).min */\n    tag_28:\n      sload(0x04)\n      dup2\n      jump\t// out\n        /* \"Day2_ValueTypes.sol\":356:368  int public c */\n    tag_31:\n      sload(0x02)\n      dup2\n      jump\t// out\n        /* \"Day2_ValueTypes.sol\":588:606  bytes32 public b32 */\n    tag_34:\n      sload(0x06)\n      dup2\n      jump\t// out\n        /* \"#utility.yul\":7:125   */\n    tag_38:\n        /* \"#utility.yul\":94:118   */\n      tag_40\n        /* \"#utility.yul\":112:117   */\n      dup2\n        /* \"#utility.yul\":94:118   */\n      tag_41\n      jump\t// in\n    tag_40:\n        /* \"#utility.yul\":89:92   */\n      dup3\n        /* \"#utility.yul\":82:119   */\n      mstore\n        /* \"#utility.yul\":7:125   */\n      pop\n      pop\n      jump\t// out\n        /* \"#utility.yul\":131:240   */\n    tag_42:\n        /* \"#utility.yul\":212:233   */\n      tag_44\n        /* \"#utility.yul\":227:232   */\n      dup2\n        /* \"#utility.yul\":212:233   */\n      tag_45\n      jump\t// in\n    tag_44:\n        /* \"#utility.yul\":207:210   */\n      dup3\n        /* \"#utility.yul\":200:234   */\n      mstore\n        /* \"#utility.yul\":131:240   */\n      pop\n      pop\n      jump\t// out\n        /* \"#utility.yul\":246:364   */\n    tag_46:\n        /* \"#utility.yul\":333:357   */\n      tag_48\n        /* \"#utility.yul\":351:356   */\n      dup2\n        /* \"#utility.yul\":333:357   */\n      tag_49\n      jump\t// in\n    tag_48:\n        /* \"#utility.yul\":328:331   */\n      dup3\n        /* \"#utility.yul\":321:358   */\n      mstore\n        /* \"#utility.yul\":246:364   */\n      pop\n      pop\n      jump\t// out\n        /* \"#utility.yul\":370:485   */\n    tag_50:\n        /* \"#utility.yul\":455:478   */\n      tag_52\n        /* \"#utility.yul\":472:477   */\n      dup2\n        /* \"#utility.yul\":455:478   */\n      tag_53\n      jump\t// in\n    tag_52:\n        /* \"#utility.yul\":450:453   */\n      dup3\n        /* \"#utility.yul\":443:479   */\n      mstore\n        /* \"#utility.yul\":370:485   */\n      pop\n      pop\n      jump\t// out\n        /* \"#utility.yul\":491:609   */\n    tag_54:\n        /* \"#utility.yul\":578:602   */\n      tag_56\n        /* \"#utility.yul\":596:601   */\n      dup2\n        /* \"#utility.yul\":578:602   */\n      tag_57\n      jump\t// in\n    tag_56:\n        /* \"#utility.yul\":573:576   */\n      dup3\n        /* \"#utility.yul\":566:603   */\n      mstore\n        /* \"#utility.yul\":491:609   */\n      pop\n      pop\n      jump\t// out\n        /* \"#utility.yul\":615:837   */\n    tag_22:\n        /* \"#utility.yul\":708:712   */\n      0x00\n        /* \"#utility.yul\":746:748   */\n      0x20\n        /* \"#utility.yul\":735:744   */\n      dup3\n        /* \"#utility.yul\":731:749   */\n      add\n        /* \"#utility.yul\":723:749   */\n      swap1\n      pop\n        /* \"#utility.yul\":759:830   */\n      tag_59\n        /* \"#utility.yul\":827:828   */\n      0x00\n        /* \"#utility.yul\":816:825   */\n      dup4\n        /* \"#utility.yul\":812:829   */\n      add\n        /* \"#utility.yul\":803:809   */\n      dup5\n        /* \"#utility.yul\":759:830   */\n      tag_38\n      jump\t// in\n    tag_59:\n        /* \"#utility.yul\":615:837   */\n      swap3\n      swap2\n      pop\n      pop\n      jump\t// out\n        /* \"#utility.yul\":843:1053   */\n    tag_14:\n        /* \"#utility.yul\":930:934   */\n      0x00\n        /* \"#utility.yul\":968:970   */\n      0x20\n        /* \"#utility.yul\":957:966   */\n      dup3\n        /* \"#utility.yul\":953:971   */\n      add\n        /* \"#utility.yul\":945:971   */\n      swap1\n      pop\n        /* \"#utility.yul\":981:1046   */\n      tag_61\n        /* \"#utility.yul\":1043:1044   */\n      0x00\n        /* \"#utility.yul\":1032:1041   */\n      dup4\n        /* \"#utility.yul\":1028:1045   */\n      add\n        /* \"#utility.yul\":1019:1025   */\n      dup5\n        /* \"#utility.yul\":981:1046   */\n      tag_42\n      jump\t// in\n    tag_61:\n        /* \"#utility.yul\":843:1053   */\n      swap3\n      swap2\n      pop\n      pop\n      jump\t// out\n        /* \"#utility.yul\":1059:1281   */\n    tag_36:\n        /* \"#utility.yul\":1152:1156   */\n      0x00\n        /* \"#utility.yul\":1190:1192   */\n      0x20\n        /* \"#utility.yul\":1179:1188   */\n      dup3\n        /* \"#utility.yul\":1175:1193   */\n      add\n        /* \"#utility.yul\":1167:1193   */\n      swap1\n      pop\n        /* \"#utility.yul\":1203:1274   */\n      tag_63\n        /* \"#utility.yul\":1271:1272   */\n      0x00\n        /* \"#utility.yul\":1260:1269   */\n      dup4\n        /* \"#utility.yul\":1256:1273   */\n      add\n        /* \"#utility.yul\":1247:1253   */\n      dup5\n        /* \"#utility.yul\":1203:1274   */\n      tag_46\n      jump\t// in\n    tag_63:\n        /* \"#utility.yul\":1059:1281   */\n      swap3\n      swap2\n      pop\n      pop\n      jump\t// out\n        /* \"#utility.yul\":1287:1505   */\n    tag_26:\n        /* \"#utility.yul\":1378:1382   */\n      0x00\n        /* \"#utility.yul\":1416:1418   */\n      0x20\n        /* \"#utility.yul\":1405:1414   */\n      dup3\n        /* \"#utility.yul\":1401:1419   */\n      add\n        /* \"#utility.yul\":1393:1419   */\n      swap1\n      pop\n        /* \"#utility.yul\":1429:1498   */\n      tag_65\n        /* \"#utility.yul\":1495:1496   */\n      0x00\n        /* \"#utility.yul\":1484:1493   */\n      dup4\n        /* \"#utility.yul\":1480:1497   */\n      add\n        /* \"#utility.yul\":1471:1477   */\n      dup5\n        /* \"#utility.yul\":1429:1498   */\n      tag_50\n      jump\t// in\n    tag_65:\n        /* \"#utility.yul\":1287:1505   */\n      swap3\n      swap2\n      pop\n      pop\n      jump\t// out\n        /* \"#utility.yul\":1511:1733   */\n    tag_18:\n        /* \"#utility.yul\":1604:1608   */\n      0x00\n        /* \"#utility.yul\":1642:1644   */\n      0x20\n        /* \"#utility.yul\":1631:1640   */\n      dup3\n        /* \"#utility.yul\":1627:1645   */\n      add\n        /* \"#utility.yul\":1619:1645   */\n      swap1\n      pop\n        /* \"#utility.yul\":1655:1726   */\n      tag_67\n        /* \"#utility.yul\":1723:1724   */\n      0x00\n        /* \"#utility.yul\":1712:1721   */\n      dup4\n        /* \"#utility.yul\":1708:1725   */\n      add\n        /* \"#utility.yul\":1699:1705   */\n      dup5\n        /* \"#utility.yul\":1655:1726   */\n      tag_54\n      jump\t// in\n    tag_67:\n        /* \"#utility.yul\":1511:1733   */\n      swap3\n      swap2\n      pop\n      pop\n      jump\t// out\n        /* \"#utility.yul\":1739:1835   */\n    tag_41:\n        /* \"#utility.yul\":1776:1783   */\n      0x00\n        /* \"#utility.yul\":1805:1829   */\n      tag_69\n        /* \"#utility.yul\":1823:1828   */\n      dup3\n        /* \"#utility.yul\":1805:1829   */\n      tag_70\n      jump\t// in\n    tag_69:\n        /* \"#utility.yul\":1794:1829   */\n      swap1\n      pop\n        /* \"#utility.yul\":1739:1835   */\n      swap2\n      swap1\n      pop\n      jump\t// out\n        /* \"#utility.yul\":1841:1931   */\n    tag_45:\n        /* \"#utility.yul\":1875:1882   */\n      0x00\n        /* \"#utility.yul\":1918:1923   */\n      dup2\n        /* \"#utility.yul\":1911:1924   */\n      iszero\n        /* \"#utility.yul\":1904:1925   */\n      iszero\n        /* \"#utility.yul\":1893:1925   */\n      swap1\n      pop\n        /* \"#utility.yul\":1841:1931   */\n      swap2\n      swap1\n      pop\n      jump\t// out\n        /* \"#utility.yul\":1937:2014   */\n    tag_49:\n        /* \"#utility.yul\":1974:1981   */\n      0x00\n        /* \"#utility.yul\":2003:2008   */\n      dup2\n        /* \"#utility.yul\":1992:2008   */\n      swap1\n      pop\n        /* \"#utility.yul\":1937:2014   */\n      swap2\n      swap1\n      pop\n      jump\t// out\n        /* \"#utility.yul\":2020:2096   */\n    tag_53:\n        /* \"#utility.yul\":2056:2063   */\n      0x00\n        /* \"#utility.yul\":2085:2090   */\n      dup2\n        /* \"#utility.yul\":2074:2090   */\n      swap1\n      pop\n        /* \"#utility.yul\":2020:2096   */\n      swap2\n      swap1\n      pop\n      jump\t// out\n        /* \"#utility.yul\":2102:2228   */\n    tag_70:\n        /* \"#utility.yul\":2139:2146   */\n      0x00\n        /* \"#utility.yul\":2179:2221   */\n      0xffffffffffffffffffffffffffffffffffffffff\n        /* \"#utility.yul\":2172:2177   */\n      dup3\n        /* \"#utility.yul\":2168:2222   */\n      and\n        /* \"#utility.yul\":2157:2222   */\n      swap1\n      pop\n        /* \"#utility.yul\":2102:2228   */\n      swap2\n      swap1\n      pop\n      jump\t// out\n        /* \"#utility.yul\":2234:2311   */\n    tag_57:\n        /* \"#utility.yul\":2271:2278   */\n      0x00\n        /* \"#utility.yul\":2300:2305   */\n      dup2\n        /* \"#utility.yul\":2289:2305   */\n      swap1\n      pop\n        /* \"#utility.yul\":2234:2311   */\n      swap2\n      swap1\n      pop\n      jump\t// out\n\n    auxdata: 0xa264697066735822122070c40f1e19f1f5206fdf14b178635d7fafb489ae73f02bf61592ee0aa04b5de364736f6c63430008070033\n}\n",
				"bytecode": {
					"linkReferences": {},
					"object": "60806040527f7fffffffffffffffffffffffffffffffffffffffffffffffffffffffffffffff6003557f800000000000000000000000000000000000000000000000000000000000000060045534801561005857600080fd5b5061030d806100686000396000f3fe608060405234801561001057600080fd5b506004361061007d5760003560e01c80637a4c25711161005b5780637a4c2571146100dc5780637e4e14cc146100fa578063c3da42b814610118578063f8aab238146101365761007d565b80630dbe671f146100825780634df7e3d0146100a0578063767800de146100be575b600080fd5b61008a610154565b604051610097919061020f565b60405180910390f35b6100a8610165565b6040516100b59190610260565b60405180910390f35b6100c661016b565b6040516100d391906101f4565b60405180910390f35b6100e4610191565b6040516100f19190610245565b60405180910390f35b610102610197565b60405161010f9190610245565b60405180910390f35b61012061019d565b60405161012d9190610245565b60405180910390f35b61013e6101a3565b60405161014b919061022a565b60405180910390f35b60008054906101000a900460ff1681565b60015481565b600560009054906101000a900473ffffffffffffffffffffffffffffffffffffffff1681565b60035481565b60045481565b60025481565b60065481565b6101b28161027b565b82525050565b6101c18161028d565b82525050565b6101d081610299565b82525050565b6101df816102a3565b82525050565b6101ee816102cd565b82525050565b600060208201905061020960008301846101a9565b92915050565b600060208201905061022460008301846101b8565b92915050565b600060208201905061023f60008301846101c7565b92915050565b600060208201905061025a60008301846101d6565b92915050565b600060208201905061027560008301846101e5565b92915050565b6000610286826102ad565b9050919050565b60008115159050919050565b6000819050919050565b6000819050919050565b600073ffffffffffffffffffffffffffffffffffffffff82169050919050565b600081905091905056fea264697066735822122070c40f1e19f1f5206fdf14b178635d7fafb489ae73f02bf61592ee0aa04b5de364736f6c63430008070033",
					"opcodes": "PUSH1 0x80 PUSH1 0x40 MSTORE PUSH32 0x7FFFFFFFFFFFFFFFFFFFFFFFFFFFFFFFFFFFFFFFFFFFFFFFFFFFFFFFFFFFFFFF PUSH1 0x3 SSTORE PUSH32 0x8000000000000000000000000000000000000000000000000000000000000000 PUSH1 0x4 SSTORE CALLVALUE DUP1 ISZERO PUSH2 0x58 JUMPI PUSH1 0x0 DUP1 REVERT JUMPDEST POP PUSH2 0x30D DUP1 PUSH2 0x68 PUSH1 0x0 CODECOPY PUSH1 0x0 RETURN INVALID PUSH1 0x80 PUSH1 0x40 MSTORE CALLVALUE DUP1 ISZERO PUSH2 0x10 JUMPI PUSH1 0x0 DUP1 REVERT JUMPDEST POP PUSH1 0x4 CALLDATASIZE LT PUSH2 0x7D JUMPI PUSH1 0x0 CALLDATALOAD PUSH1 0xE0 SHR DUP1 PUSH4 0x7A4C2571 GT PUSH2 0x5B JUMPI DUP1 PUSH4 0x7A4C2571 EQ PUSH2 0xDC JUMPI DUP1 PUSH4 0x7E4E14CC EQ PUSH2 0xFA JUMPI DUP1 PUSH4 0xC3DA42B8 EQ PUSH2 0x118 JUMPI DUP1 PUSH4 0xF8AAB238 EQ PUSH2 0x136 JUMPI PUSH2 0x7D JUMP JUMPDEST DUP1 PUSH4 0xDBE671F EQ PUSH2 0x82 JUMPI DUP1 PUSH4 0x4DF7E3D0 EQ PUSH2 0xA0 JUMPI DUP1 PUSH4 0x767800DE EQ PUSH2 0xBE JUMPI JUMPDEST PUSH1 0x0 DUP1 REVERT JUMPDEST PUSH2 0x8A PUSH2 0x154 JUMP JUMPDEST PUSH1 0x40 MLOAD PUSH2 0x97 SWAP2 SWAP1 PUSH2 0x20F JUMP JUMPDEST PUSH1 0x40 MLOAD DUP1 SWAP2 SUB SWAP1 RETURN JUMPDEST PUSH2 0xA8 PUSH2 0x165 JUMP JUMPDEST PUSH1 0x40 MLOAD PUSH2 0xB5 SWAP2 SWAP1 PUSH2 0x260 JUMP JUMPDEST PUSH1 0x40 MLOAD DUP1 SWAP2 SUB SWAP1 RETURN JUMPDEST PUSH2 0xC6 PUSH2 0x16B JUMP JUMPDEST PUSH1 0x40 MLOAD PUSH2 0xD3 SWAP2 SWAP1 PUSH2 0x1F4 JUMP JUMPDEST PUSH1 0x40 MLOAD DUP1 SWAP2 SUB SWAP1 RETURN JUMPDEST PUSH2 0xE4 PUSH2 0x191 JUMP JUMPDEST PUSH1 0x40 MLOAD PUSH2 0xF1 SWAP2 SWAP1 PUSH2 0x245 JUMP JUMPDEST PUSH1 0x40 MLOAD DUP1 SWAP2 SUB SWAP1 RETURN JUMPDEST PUSH2 0x102 PUSH2 0x197 JUMP JUMPDEST PUSH1 0x40 MLOAD PUSH2 0x10F SWAP2 SWAP1 PUSH2 0x245 JUMP JUMPDEST PUSH1 0x40 MLOAD DUP1 SWAP2 SUB SWAP1 RETURN JUMPDEST PUSH2 0x120 PUSH2 0x19D JUMP JUMPDEST PUSH1 0x40 MLOAD PUSH2 0x12D SWAP2 SWAP1 PUSH2 0x245 JUMP JUMPDEST PUSH1 0x40 MLOAD DUP1 SWAP2 SUB SWAP1 RETURN JUMPDEST PUSH2 0x13E PUSH2 0x1A3 JUMP JUMPDEST PUSH1 0x40 MLOAD PUSH2 0x14B SWAP2 SWAP1 PUSH2 0x22A JUMP JUMPDEST PUSH1 0x40 MLOAD DUP1 SWAP2 SUB SWAP1 RETURN JUMPDEST PUSH1 0x0 DUP1 SLOAD SWAP1 PUSH2 0x100 EXP SWAP1 DIV PUSH1 0xFF AND DUP2 JUMP JUMPDEST PUSH1 0x1 SLOAD DUP2 JUMP JUMPDEST PUSH1 0x5 PUSH1 0x0 SWAP1 SLOAD SWAP1 PUSH2 0x100 EXP SWAP1 DIV PUSH20 0xFFFFFFFFFFFFFFFFFFFFFFFFFFFFFFFFFFFFFFFF AND DUP2 JUMP JUMPDEST PUSH1 0x3 SLOAD DUP2 JUMP JUMPDEST PUSH1 0x4 SLOAD DUP2 JUMP JUMPDEST PUSH1 0x2 SLOAD DUP2 JUMP JUMPDEST PUSH1 0x6 SLOAD DUP2 JUMP JUMPDEST PUSH2 0x1B2 DUP2 PUSH2 0x27B JUMP JUMPDEST DUP3 MSTORE POP POP JUMP JUMPDEST PUSH2 0x1C1 DUP2 PUSH2 0x28D JUMP JUMPDEST DUP3 MSTORE POP POP JUMP JUMPDEST PUSH2 0x1D0 DUP2 PUSH2 0x299 JUMP JUMPDEST DUP3 MSTORE POP POP JUMP JUMPDEST PUSH2 0x1DF DUP2 PUSH2 0x2A3 JUMP JUMPDEST DUP3 MSTORE POP POP JUMP JUMPDEST PUSH2 0x1EE DUP2 PUSH2 0x2CD JUMP JUMPDEST DUP3 MSTORE POP POP JUMP JUMPDEST PUSH1 0x0 PUSH1 0x20 DUP3 ADD SWAP1 POP PUSH2 0x209 PUSH1 0x0 DUP4 ADD DUP5 PUSH2 0x1A9 JUMP JUMPDEST SWAP3 SWAP2 POP POP JUMP JUMPDEST PUSH1 0x0 PUSH1 0x20 DUP3 ADD SWAP1 POP PUSH2 0x224 PUSH1 0x0 DUP4 ADD DUP5 PUSH2 0x1B8 JUMP JUMPDEST SWAP3 SWAP2 POP POP JUMP JUMPDEST PUSH1 0x0 PUSH1 0x20 DUP3 ADD SWAP1 POP PUSH2 0x23F PUSH1 0x0 DUP4 ADD DUP5 PUSH2 0x1C7 JUMP JUMPDEST SWAP3 SWAP2 POP POP JUMP JUMPDEST PUSH1 0x0 PUSH1 0x20 DUP3 ADD SWAP1 POP PUSH2 0x25A PUSH1 0x0 DUP4 ADD DUP5 PUSH2 0x1D6 JUMP JUMPDEST SWAP3 SWAP2 POP POP JUMP JUMPDEST PUSH1 0x0 PUSH1 0x20 DUP3 ADD SWAP1 POP PUSH2 0x275 PUSH1 0x0 DUP4 ADD DUP5 PUSH2 0x1E5 JUMP JUMPDEST SWAP3 SWAP2 POP POP JUMP JUMPDEST PUSH1 0x0 PUSH2 0x286 DUP3 PUSH2 0x2AD JUMP JUMPDEST SWAP1 POP SWAP2 SWAP1 POP JUMP JUMPDEST PUSH1 0x0 DUP2 ISZERO ISZERO SWAP1 POP SWAP2 SWAP1 POP JUMP JUMPDEST PUSH1 0x0 DUP2 SWAP1 POP SWAP2 SWAP1 POP JUMP JUMPDEST PUSH1 0x0 DUP2 SWAP1 POP SWAP2 SWAP1 POP JUMP JUMPDEST PUSH1 0x0 PUSH20 0xFFFFFFFFFFFFFFFFFFFFFFFFFFFFFFFFFFFFFFFF DUP3 AND SWAP1 POP SWAP2 SWAP1 POP JUMP JUMPDEST PUSH1 0x0 DUP2 SWAP1 POP SWAP2 SWAP1 POP JUMP INVALID LOG2 PUSH5 0x6970667358 0x22 SLT KECCAK256 PUSH17 0xC40F1E19F1F5206FDF14B178635D7FAFB4 DUP10 0xAE PUSH20 0xF02BF61592EE0AA04B5DE364736F6C6343000807 STOP CALLER "
				},
				"gasEstimates": {
					"creation": {
						"codeDepositCost": "156200",
						"executionCost": "44414",
						"totalCost": "200614"
					},
					"external": {
						"a()": "2469",
						"addr()": "2559",
						"b()": "2452",
						"b32()": "2495",
						"c()": "2473",
						"maxInt()": "2429",
						"minInt()": "2451"
					}
				},
				"methodIdentifiers": {
					"a()": "0dbe671f",
					"addr()": "767800de",
					"b()": "4df7e3d0",
					"b32()": "f8aab238",
					"c()": "c3da42b8",
					"maxInt()": "7a4c2571",
					"minInt()": "7e4e14cc"
				}
			},
			"storageLayout": {
				"storage": [
					{
						"astId": 3,
						"contract": "Day2_ValueTypes.sol:ValueTypes",
						"label": "a",
						"offset": 0,
						"slot": "0",
						"type": "t_bool"
					},
					{
						"astId": 5,
						"contract": "Day2_ValueTypes.sol:ValueTypes",
						"label": "b",
						"offset": 0,
						"slot": "1",
						"type": "t_uint256"
					},
					{
						"astId": 7,
						"contract": "Day2_ValueTypes.sol:ValueTypes",
						"label": "c",
						"offset": 0,
						"slot": "2",
						"type": "t_int256"
					},
					{
						"astId": 14,
						"contract": "Day2_ValueTypes.sol:ValueTypes",
						"label": "maxInt",
						"offset": 0,
						"slot": "3",
						"type": "t_int256"
					},
					{
						"astId": 21,
						"contract": "Day2_ValueTypes.sol:ValueTypes",
						"label": "minInt",
						"offset": 0,
						"slot": "4",
						"type": "t_int256"
					},
					{
						"astId": 23,
						"contract": "Day2_ValueTypes.sol:ValueTypes",
						"label": "addr",
						"offset": 0,
						"slot": "5",
						"type": "t_address"
					},
					{
						"astId": 25,
						"contract": "Day2_ValueTypes.sol:ValueTypes",
						"label": "b32",
						"offset": 0,
						"slot": "6",
						"type": "t_bytes32"
					}
				],
				"types": {
					"t_address": {
						"encoding": "inplace",
						"label": "address",
						"numberOfBytes": "20"
					},
					"t_bool": {
						"encoding": "inplace",
						"label": "bool",
						"numberOfBytes": "1"
					},
					"t_bytes32": {
						"encoding": "inplace",
						"label": "bytes32",
						"numberOfBytes": "32"
					},
					"t_int256": {
						"encoding": "inplace",
						"label": "int256",
						"numberOfBytes": "32"
					},
					"t_uint256": {
						"encoding": "inplace",
						"label": "uint256",
						"numberOfBytes": "32"
					}
				}
			},
			"userdoc": {
				"kind": "user",
				"methods": {},
				"version": 1
			}
		}
	}
}