{
	"Day14_Outputs.sol": {
		"FunctionOutput": {
			"abi": [
				{
					"inputs": [],
					"name": "assigned",
					"outputs": [
						{
							"internalType": "uint256",
							"name": "x",
							"type": "uint256"
						},
						{
							"internalType": "bool",
							"name": "y",
							"type": "bool"
						}
					],
					"stateMutability": "pure",
					"type": "function"
				},
				{
					"inputs": [],
					"name": "destructuringAssignments",
					"outputs": [
						{
							"internalType": "uint256",
							"name": "",
							"type": "uint256"
						}
					],
					"stateMutability": "pure",
					"type": "function"
				},
				{
					"inputs": [],
					"name": "named",
					"outputs": [
						{
							"internalType": "uint256",
							"name": "x",
							"type": "uint256"
						},
						{
							"internalType": "bool",
							"name": "y",
							"type": "bool"
						}
					],
					"stateMutability": "pure",
					"type": "function"
				},
				{
					"inputs": [],
					"name": "returnMany",
					"outputs": [
						{
							"internalType": "uint256",
							"name": "",
							"type": "uint256"
						},
						{
							"internalType": "bool",
							"name": "",
							"type": "bool"
						}
					],
					"stateMutability": "pure",
					"type": "function"
				}
			],
			"devdoc": {
				"kind": "dev",
				"methods": {},
				"version": 1
			},
			"evm": {
				"assembly": "    /* \"Day14_Outputs.sol\":129:607  contract FunctionOutput {... */\n  mstore(0x40, 0x80)\n  callvalue\n  dup1\n  iszero\n  tag_1\n  jumpi\n  0x00\n  dup1\n  revert\ntag_1:\n  pop\n  dataSize(sub_0)\n  dup1\n  dataOffset(sub_0)\n  0x00\n  codecopy\n  0x00\n  return\nstop\n\nsub_0: assembly {\n        /* \"Day14_Outputs.sol\":129:607  contract FunctionOutput {... */\n      mstore(0x40, 0x80)\n      callvalue\n      dup1\n      iszero\n      tag_1\n      jumpi\n      0x00\n      dup1\n      revert\n    tag_1:\n      pop\n      jumpi(tag_2, lt(calldatasize, 0x04))\n      shr(0xe0, calldataload(0x00))\n      dup1\n      0x45f907a8\n      eq\n      tag_3\n      jumpi\n      dup1\n      0x68873440\n      eq\n      tag_4\n      jumpi\n      dup1\n      0x86887544\n      eq\n      tag_5\n      jumpi\n      dup1\n      0xadb4d990\n      eq\n      tag_6\n      jumpi\n    tag_2:\n      0x00\n      dup1\n      revert\n        /* \"Day14_Outputs.sol\":254:342  function named () public pure returns (uint x , bool y) {... */\n    tag_3:\n      tag_7\n      tag_8\n      jump\t// in\n    tag_7:\n      mload(0x40)\n      tag_9\n      swap3\n      swap2\n      swap1\n      tag_10\n      jump\t// in\n    tag_9:\n      mload(0x40)\n      dup1\n      swap2\n      sub\n      swap1\n      return\n        /* \"Day14_Outputs.sol\":453:605  function destructuringAssignments () public pure returns (uint ) {... */\n    tag_4:\n      tag_11\n      tag_12\n      jump\t// in\n    tag_11:\n      mload(0x40)\n      tag_13\n      swap2\n      swap1\n      tag_14\n      jump\t// in\n    tag_13:\n      mload(0x40)\n      dup1\n      swap2\n      sub\n      swap1\n      return\n        /* \"Day14_Outputs.sol\":159:248  function returnMany () public pure returns (uint , bool) {... */\n    tag_5:\n      tag_15\n      tag_16\n      jump\t// in\n    tag_15:\n      mload(0x40)\n      tag_17\n      swap3\n      swap2\n      swap1\n      tag_10\n      jump\t// in\n    tag_17:\n      mload(0x40)\n      dup1\n      swap2\n      sub\n      swap1\n      return\n        /* \"Day14_Outputs.sol\":348:447  function assigned () public pure returns (uint x , bool y) {... */\n    tag_6:\n      tag_18\n      tag_19\n      jump\t// in\n    tag_18:\n      mload(0x40)\n      tag_20\n      swap3\n      swap2\n      swap1\n      tag_10\n      jump\t// in\n    tag_20:\n      mload(0x40)\n      dup1\n      swap2\n      sub\n      swap1\n      return\n        /* \"Day14_Outputs.sol\":254:342  function named () public pure returns (uint x , bool y) {... */\n    tag_8:\n        /* \"Day14_Outputs.sol\":293:299  uint x */\n      0x00\n        /* \"Day14_Outputs.sol\":302:308  bool y */\n      dup1\n        /* \"Day14_Outputs.sol\":328:329  1 */\n      0x01\n        /* \"Day14_Outputs.sol\":330:334  true */\n      dup1\n        /* \"Day14_Outputs.sol\":320:335  return (1,true) */\n      swap2\n      pop\n      swap2\n      pop\n        /* \"Day14_Outputs.sol\":254:342  function named () public pure returns (uint x , bool y) {... */\n      swap1\n      swap2\n      jump\t// out\n        /* \"Day14_Outputs.sol\":453:605  function destructuringAssignments () public pure returns (uint ) {... */\n    tag_12:\n        /* \"Day14_Outputs.sol\":511:515  uint */\n      0x00\n        /* \"Day14_Outputs.sol\":529:535  uint x */\n      dup1\n        /* \"Day14_Outputs.sol\":537:543  bool y */\n      0x00\n        /* \"Day14_Outputs.sol\":547:559  returnMany() */\n      tag_23\n        /* \"Day14_Outputs.sol\":547:557  returnMany */\n      tag_16\n        /* \"Day14_Outputs.sol\":547:559  returnMany() */\n      jump\t// in\n    tag_23:\n        /* \"Day14_Outputs.sol\":528:559  (uint x, bool y) = returnMany() */\n      swap2\n      pop\n      swap2\n      pop\n        /* \"Day14_Outputs.sol\":518:605  {... */\n      pop\n      pop\n        /* \"Day14_Outputs.sol\":453:605  function destructuringAssignments () public pure returns (uint ) {... */\n      swap1\n      jump\t// out\n        /* \"Day14_Outputs.sol\":159:248  function returnMany () public pure returns (uint , bool) {... */\n    tag_16:\n        /* \"Day14_Outputs.sol\":203:207  uint */\n      0x00\n        /* \"Day14_Outputs.sol\":210:214  bool */\n      dup1\n        /* \"Day14_Outputs.sol\":234:235  1 */\n      0x01\n        /* \"Day14_Outputs.sol\":236:240  true */\n      dup1\n        /* \"Day14_Outputs.sol\":226:241  return (1,true) */\n      swap2\n      pop\n      swap2\n      pop\n        /* \"Day14_Outputs.sol\":159:248  function returnMany () public pure returns (uint , bool) {... */\n      swap1\n      swap2\n      jump\t// out\n        /* \"Day14_Outputs.sol\":348:447  function assigned () public pure returns (uint x , bool y) {... */\n    tag_19:\n        /* \"Day14_Outputs.sol\":390:396  uint x */\n      0x00\n        /* \"Day14_Outputs.sol\":399:405  bool y */\n      dup1\n        /* \"Day14_Outputs.sol\":421:422  1 */\n      0x01\n        /* \"Day14_Outputs.sol\":417:422  x = 1 */\n      swap2\n      pop\n        /* \"Day14_Outputs.sol\":436:440  true */\n      0x01\n        /* \"Day14_Outputs.sol\":432:440  y = true */\n      swap1\n      pop\n        /* \"Day14_Outputs.sol\":348:447  function assigned () public pure returns (uint x , bool y) {... */\n      swap1\n      swap2\n      jump\t// out\n        /* \"#utility.yul\":7:116   */\n    tag_27:\n        /* \"#utility.yul\":88:109   */\n      tag_29\n        /* \"#utility.yul\":103:108   */\n      dup2\n        /* \"#utility.yul\":88:109   */\n      tag_30\n      jump\t// in\n    tag_29:\n        /* \"#utility.yul\":83:86   */\n      dup3\n        /* \"#utility.yul\":76:110   */\n      mstore\n        /* \"#utility.yul\":7:116   */\n      pop\n      pop\n      jump\t// out\n        /* \"#utility.yul\":122:240   */\n    tag_31:\n        /* \"#utility.yul\":209:233   */\n      tag_33\n        /* \"#utility.yul\":227:232   */\n      dup2\n        /* \"#utility.yul\":209:233   */\n      tag_34\n      jump\t// in\n    tag_33:\n        /* \"#utility.yul\":204:207   */\n      dup3\n        /* \"#utility.yul\":197:234   */\n      mstore\n        /* \"#utility.yul\":122:240   */\n      pop\n      pop\n      jump\t// out\n        /* \"#utility.yul\":246:468   */\n    tag_14:\n        /* \"#utility.yul\":339:343   */\n      0x00\n        /* \"#utility.yul\":377:379   */\n      0x20\n        /* \"#utility.yul\":366:375   */\n      dup3\n        /* \"#utility.yul\":362:380   */\n      add\n        /* \"#utility.yul\":354:380   */\n      swap1\n      pop\n        /* \"#utility.yul\":390:461   */\n      tag_36\n        /* \"#utility.yul\":458:459   */\n      0x00\n        /* \"#utility.yul\":447:456   */\n      dup4\n        /* \"#utility.yul\":443:460   */\n      add\n        /* \"#utility.yul\":434:440   */\n      dup5\n        /* \"#utility.yul\":390:461   */\n      tag_31\n      jump\t// in\n    tag_36:\n        /* \"#utility.yul\":246:468   */\n      swap3\n      swap2\n      pop\n      pop\n      jump\t// out\n        /* \"#utility.yul\":474:794   */\n    tag_10:\n        /* \"#utility.yul\":589:593   */\n      0x00\n        /* \"#utility.yul\":627:629   */\n      0x40\n        /* \"#utility.yul\":616:625   */\n      dup3\n        /* \"#utility.yul\":612:630   */\n      add\n        /* \"#utility.yul\":604:630   */\n      swap1\n      pop\n        /* \"#utility.yul\":640:711   */\n      tag_38\n        /* \"#utility.yul\":708:709   */\n      0x00\n        /* \"#utility.yul\":697:706   */\n      dup4\n        /* \"#utility.yul\":693:710   */\n      add\n        /* \"#utility.yul\":684:690   */\n      dup6\n        /* \"#utility.yul\":640:711   */\n      tag_31\n      jump\t// in\n    tag_38:\n        /* \"#utility.yul\":721:787   */\n      tag_39\n        /* \"#utility.yul\":783:785   */\n      0x20\n        /* \"#utility.yul\":772:781   */\n      dup4\n        /* \"#utility.yul\":768:786   */\n      add\n        /* \"#utility.yul\":759:765   */\n      dup5\n        /* \"#utility.yul\":721:787   */\n      tag_27\n      jump\t// in\n    tag_39:\n        /* \"#utility.yul\":474:794   */\n      swap4\n      swap3\n      pop\n      pop\n      pop\n      jump\t// out\n        /* \"#utility.yul\":800:890   */\n    tag_30:\n        /* \"#utility.yul\":834:841   */\n      0x00\n        /* \"#utility.yul\":877:882   */\n      dup2\n        /* \"#utility.yul\":870:883   */\n      iszero\n        /* \"#utility.yul\":863:884   */\n      iszero\n        /* \"#utility.yul\":852:884   */\n      swap1\n      pop\n        /* \"#utility.yul\":800:890   */\n      swap2\n      swap1\n      pop\n      jump\t// out\n        /* \"#utility.yul\":896:973   */\n    tag_34:\n        /* \"#utility.yul\":933:940   */\n      0x00\n        /* \"#utility.yul\":962:967   */\n      dup2\n        /* \"#utility.yul\":951:967   */\n      swap1\n      pop\n        /* \"#utility.yul\":896:973   */\n      swap2\n      swap1\n      pop\n      jump\t// out\n\n    auxdata: 0xa2646970667358221220fddb665a09f02d1b108dfe32d739621a9de4a20206fbcb48836ba09fcc523eb964736f6c63430008070033\n}\n",
				"bytecode": {
					"linkReferences": {},
					"object": "608060405234801561001057600080fd5b506101bb806100206000396000f3fe608060405234801561001057600080fd5b506004361061004c5760003560e01c806345f907a8146100515780636887344014610070578063868875441461008e578063adb4d990146100ad575b600080fd5b6100596100cc565b604051610067929190610146565b60405180910390f35b6100786100da565b604051610085919061012b565b60405180910390f35b6100966100f0565b6040516100a4929190610146565b60405180910390f35b6100b56100fe565b6040516100c3929190610146565b60405180910390f35b600080600180915091509091565b60008060006100e76100f0565b91509150505090565b600080600180915091509091565b60008060019150600190509091565b6101168161016f565b82525050565b6101258161017b565b82525050565b6000602082019050610140600083018461011c565b92915050565b600060408201905061015b600083018561011c565b610168602083018461010d565b9392505050565b60008115159050919050565b600081905091905056fea2646970667358221220fddb665a09f02d1b108dfe32d739621a9de4a20206fbcb48836ba09fcc523eb964736f6c63430008070033",
					"opcodes": "PUSH1 0x80 PUSH1 0x40 MSTORE CALLVALUE DUP1 ISZERO PUSH2 0x10 JUMPI PUSH1 0x0 DUP1 REVERT JUMPDEST POP PUSH2 0x1BB DUP1 PUSH2 0x20 PUSH1 0x0 CODECOPY PUSH1 0x0 RETURN INVALID PUSH1 0x80 PUSH1 0x40 MSTORE CALLVALUE DUP1 ISZERO PUSH2 0x10 JUMPI PUSH1 0x0 DUP1 REVERT JUMPDEST POP PUSH1 0x4 CALLDATASIZE LT PUSH2 0x4C JUMPI PUSH1 0x0 CALLDATALOAD PUSH1 0xE0 SHR DUP1 PUSH4 0x45F907A8 EQ PUSH2 0x51 JUMPI DUP1 PUSH4 0x68873440 EQ PUSH2 0x70 JUMPI DUP1 PUSH4 0x86887544 EQ PUSH2 0x8E JUMPI DUP1 PUSH4 0xADB4D990 EQ PUSH2 0xAD JUMPI JUMPDEST PUSH1 0x0 DUP1 REVERT JUMPDEST PUSH2 0x59 PUSH2 0xCC JUMP JUMPDEST PUSH1 0x40 MLOAD PUSH2 0x67 SWAP3 SWAP2 SWAP1 PUSH2 0x146 JUMP JUMPDEST PUSH1 0x40 MLOAD DUP1 SWAP2 SUB SWAP1 RETURN JUMPDEST PUSH2 0x78 PUSH2 0xDA JUMP JUMPDEST PUSH1 0x40 MLOAD PUSH2 0x85 SWAP2 SWAP1 PUSH2 0x12B JUMP JUMPDEST PUSH1 0x40 MLOAD DUP1 SWAP2 SUB SWAP1 RETURN JUMPDEST PUSH2 0x96 PUSH2 0xF0 JUMP JUMPDEST PUSH1 0x40 MLOAD PUSH2 0xA4 SWAP3 SWAP2 SWAP1 PUSH2 0x146 JUMP JUMPDEST PUSH1 0x40 MLOAD DUP1 SWAP2 SUB SWAP1 RETURN JUMPDEST PUSH2 0xB5 PUSH2 0xFE JUMP JUMPDEST PUSH1 0x40 MLOAD PUSH2 0xC3 SWAP3 SWAP2 SWAP1 PUSH2 0x146 JUMP JUMPDEST PUSH1 0x40 MLOAD DUP1 SWAP2 SUB SWAP1 RETURN JUMPDEST PUSH1 0x0 DUP1 PUSH1 0x1 DUP1 SWAP2 POP SWAP2 POP SWAP1 SWAP2 JUMP JUMPDEST PUSH1 0x0 DUP1 PUSH1 0x0 PUSH2 0xE7 PUSH2 0xF0 JUMP JUMPDEST SWAP2 POP SWAP2 POP POP POP SWAP1 JUMP JUMPDEST PUSH1 0x0 DUP1 PUSH1 0x1 DUP1 SWAP2 POP SWAP2 POP SWAP1 SWAP2 JUMP JUMPDEST PUSH1 0x0 DUP1 PUSH1 0x1 SWAP2 POP PUSH1 0x1 SWAP1 POP SWAP1 SWAP2 JUMP JUMPDEST PUSH2 0x116 DUP2 PUSH2 0x16F JUMP JUMPDEST DUP3 MSTORE POP POP JUMP JUMPDEST PUSH2 0x125 DUP2 PUSH2 0x17B JUMP JUMPDEST DUP3 MSTORE POP POP JUMP JUMPDEST PUSH1 0x0 PUSH1 0x20 DUP3 ADD SWAP1 POP PUSH2 0x140 PUSH1 0x0 DUP4 ADD DUP5 PUSH2 0x11C JUMP JUMPDEST SWAP3 SWAP2 POP POP JUMP JUMPDEST PUSH1 0x0 PUSH1 0x40 DUP3 ADD SWAP1 POP PUSH2 0x15B PUSH1 0x0 DUP4 ADD DUP6 PUSH2 0x11C JUMP JUMPDEST PUSH2 0x168 PUSH1 0x20 DUP4 ADD DUP5 PUSH2 0x10D JUMP JUMPDEST SWAP4 SWAP3 POP POP POP JUMP JUMPDEST PUSH1 0x0 DUP2 ISZERO ISZERO SWAP1 POP SWAP2 SWAP1 POP JUMP JUMPDEST PUSH1 0x0 DUP2 SWAP1 POP SWAP2 SWAP1 POP JUMP INVALID LOG2 PUSH5 0x6970667358 0x22 SLT KECCAK256 REVERT 0xDB PUSH7 0x5A09F02D1B108D INVALID ORIGIN 0xD7 CODECOPY PUSH3 0x1A9DE4 LOG2 MUL MOD 0xFB 0xCB BASEFEE DUP4 PUSH12 0xA09FCC523EB964736F6C6343 STOP ADDMOD SMOD STOP CALLER "
				},
				"gasEstimates": {
					"creation": {
						"codeDepositCost": "88600",
						"executionCost": "135",
						"totalCost": "88735"
					},
					"external": {
						"assigned()": "501",
						"destructuringAssignments()": "401",
						"named()": "435",
						"returnMany()": "479"
					}
				},
				"methodIdentifiers": {
					"assigned()": "adb4d990",
					"destructuringAssignments()": "68873440",
					"named()": "45f907a8",
					"returnMany()": "86887544"
				}
			},
			"storageLayout": {
				"storage": [],
				"types": null
			},
			"userdoc": {
				"kind": "user",
				"methods": {},
				"version": 1
			}
		}
	}
}