{
	"Day10_Error.sol": {
		"Errors": {
			"abi": [
				{
					"inputs": [
						{
							"internalType": "uint256",
							"name": "x",
							"type": "uint256"
						}
					],
					"name": "testRequire",
					"outputs": [],
					"stateMutability": "pure",
					"type": "function"
				}
			],
			"devdoc": {
				"kind": "dev",
				"methods": {},
				"version": 1
			},
			"evm": {
				"assembly": "    /* \"Day10_Error.sol\":308:414  contract Errors {... */\n  mstore(0x40, 0x80)\n  callvalue\n  dup1\n  iszero\n  tag_1\n  jumpi\n  0x00\n  dup1\n  revert\ntag_1:\n  pop\n  dataSize(sub_0)\n  dup1\n  dataOffset(sub_0)\n  0x00\n  codecopy\n  0x00\n  return\nstop\n\nsub_0: assembly {\n        /* \"Day10_Error.sol\":308:414  contract Errors {... */\n      mstore(0x40, 0x80)\n      callvalue\n      dup1\n      iszero\n      tag_1\n      jumpi\n      0x00\n      dup1\n      revert\n    tag_1:\n      pop\n      jumpi(tag_2, lt(calldatasize, 0x04))\n      shr(0xe0, calldataload(0x00))\n      dup1\n      0xb8bd717f\n      eq\n      tag_3\n      jumpi\n    tag_2:\n      0x00\n      dup1\n      revert\n        /* \"Day10_Error.sol\":330:412  function testRequire (uint x) external pure {... */\n    tag_3:\n      tag_4\n      0x04\n      dup1\n      calldatasize\n      sub\n      dup2\n      add\n      swap1\n      tag_5\n      swap2\n      swap1\n      tag_6\n      jump\t// in\n    tag_5:\n      tag_7\n      jump\t// in\n    tag_4:\n      stop\n    tag_7:\n        /* \"Day10_Error.sol\":398:400  10 */\n      0x0a\n        /* \"Day10_Error.sol\":393:394  x */\n      dup2\n        /* \"Day10_Error.sol\":393:400  x <= 10 */\n      gt\n      iszero\n        /* \"Day10_Error.sol\":384:405  require (x <= 10, \"\") */\n      tag_9\n      jumpi\n      mload(0x40)\n      0x08c379a000000000000000000000000000000000000000000000000000000000\n      dup2\n      mstore\n      0x04\n      add\n      tag_10\n      swap1\n      tag_11\n      jump\t// in\n    tag_10:\n      mload(0x40)\n      dup1\n      swap2\n      sub\n      swap1\n      revert\n    tag_9:\n        /* \"Day10_Error.sol\":330:412  function testRequire (uint x) external pure {... */\n      pop\n      jump\t// out\n        /* \"#utility.yul\":7:146   */\n    tag_13:\n        /* \"#utility.yul\":53:58   */\n      0x00\n        /* \"#utility.yul\":91:97   */\n      dup2\n        /* \"#utility.yul\":78:98   */\n      calldataload\n        /* \"#utility.yul\":69:98   */\n      swap1\n      pop\n        /* \"#utility.yul\":107:140   */\n      tag_15\n        /* \"#utility.yul\":134:139   */\n      dup2\n        /* \"#utility.yul\":107:140   */\n      tag_16\n      jump\t// in\n    tag_15:\n        /* \"#utility.yul\":7:146   */\n      swap3\n      swap2\n      pop\n      pop\n      jump\t// out\n        /* \"#utility.yul\":152:481   */\n    tag_6:\n        /* \"#utility.yul\":211:217   */\n      0x00\n        /* \"#utility.yul\":260:262   */\n      0x20\n        /* \"#utility.yul\":248:257   */\n      dup3\n        /* \"#utility.yul\":239:246   */\n      dup5\n        /* \"#utility.yul\":235:258   */\n      sub\n        /* \"#utility.yul\":231:263   */\n      slt\n        /* \"#utility.yul\":228:347   */\n      iszero\n      tag_18\n      jumpi\n        /* \"#utility.yul\":266:345   */\n      tag_19\n      tag_20\n      jump\t// in\n    tag_19:\n        /* \"#utility.yul\":228:347   */\n    tag_18:\n        /* \"#utility.yul\":386:387   */\n      0x00\n        /* \"#utility.yul\":411:464   */\n      tag_21\n        /* \"#utility.yul\":456:463   */\n      dup5\n        /* \"#utility.yul\":447:453   */\n      dup3\n        /* \"#utility.yul\":436:445   */\n      dup6\n        /* \"#utility.yul\":432:454   */\n      add\n        /* \"#utility.yul\":411:464   */\n      tag_13\n      jump\t// in\n    tag_21:\n        /* \"#utility.yul\":401:464   */\n      swap2\n      pop\n        /* \"#utility.yul\":357:474   */\n      pop\n        /* \"#utility.yul\":152:481   */\n      swap3\n      swap2\n      pop\n      pop\n      jump\t// out\n        /* \"#utility.yul\":487:851   */\n    tag_22:\n        /* \"#utility.yul\":629:632   */\n      0x00\n        /* \"#utility.yul\":650:716   */\n      tag_24\n        /* \"#utility.yul\":714:715   */\n      0x00\n        /* \"#utility.yul\":709:712   */\n      dup4\n        /* \"#utility.yul\":650:716   */\n      tag_25\n      jump\t// in\n    tag_24:\n        /* \"#utility.yul\":643:716   */\n      swap2\n      pop\n        /* \"#utility.yul\":725:818   */\n      tag_26\n        /* \"#utility.yul\":814:817   */\n      dup3\n        /* \"#utility.yul\":725:818   */\n      tag_27\n      jump\t// in\n    tag_26:\n        /* \"#utility.yul\":843:844   */\n      0x00\n        /* \"#utility.yul\":838:841   */\n      dup3\n        /* \"#utility.yul\":834:845   */\n      add\n        /* \"#utility.yul\":827:845   */\n      swap1\n      pop\n        /* \"#utility.yul\":487:851   */\n      swap2\n      swap1\n      pop\n      jump\t// out\n        /* \"#utility.yul\":857:1276   */\n    tag_11:\n        /* \"#utility.yul\":1023:1027   */\n      0x00\n        /* \"#utility.yul\":1061:1063   */\n      0x20\n        /* \"#utility.yul\":1050:1059   */\n      dup3\n        /* \"#utility.yul\":1046:1064   */\n      add\n        /* \"#utility.yul\":1038:1064   */\n      swap1\n      pop\n        /* \"#utility.yul\":1110:1119   */\n      dup2\n        /* \"#utility.yul\":1104:1108   */\n      dup2\n        /* \"#utility.yul\":1100:1120   */\n      sub\n        /* \"#utility.yul\":1096:1097   */\n      0x00\n        /* \"#utility.yul\":1085:1094   */\n      dup4\n        /* \"#utility.yul\":1081:1098   */\n      add\n        /* \"#utility.yul\":1074:1121   */\n      mstore\n        /* \"#utility.yul\":1138:1269   */\n      tag_29\n        /* \"#utility.yul\":1264:1268   */\n      dup2\n        /* \"#utility.yul\":1138:1269   */\n      tag_22\n      jump\t// in\n    tag_29:\n        /* \"#utility.yul\":1130:1269   */\n      swap1\n      pop\n        /* \"#utility.yul\":857:1276   */\n      swap2\n      swap1\n      pop\n      jump\t// out\n        /* \"#utility.yul\":1363:1532   */\n    tag_25:\n        /* \"#utility.yul\":1447:1458   */\n      0x00\n        /* \"#utility.yul\":1481:1487   */\n      dup3\n        /* \"#utility.yul\":1476:1479   */\n      dup3\n        /* \"#utility.yul\":1469:1488   */\n      mstore\n        /* \"#utility.yul\":1521:1525   */\n      0x20\n        /* \"#utility.yul\":1516:1519   */\n      dup3\n        /* \"#utility.yul\":1512:1526   */\n      add\n        /* \"#utility.yul\":1497:1526   */\n      swap1\n      pop\n        /* \"#utility.yul\":1363:1532   */\n      swap3\n      swap2\n      pop\n      pop\n      jump\t// out\n        /* \"#utility.yul\":1538:1615   */\n    tag_33:\n        /* \"#utility.yul\":1575:1582   */\n      0x00\n        /* \"#utility.yul\":1604:1609   */\n      dup2\n        /* \"#utility.yul\":1593:1609   */\n      swap1\n      pop\n        /* \"#utility.yul\":1538:1615   */\n      swap2\n      swap1\n      pop\n      jump\t// out\n        /* \"#utility.yul\":1744:1861   */\n    tag_20:\n        /* \"#utility.yul\":1853:1854   */\n      0x00\n        /* \"#utility.yul\":1850:1851   */\n      dup1\n        /* \"#utility.yul\":1843:1855   */\n      revert\n        /* \"#utility.yul\":1867:1981   */\n    tag_27:\n      pop\n      jump\t// out\n        /* \"#utility.yul\":1987:2109   */\n    tag_16:\n        /* \"#utility.yul\":2060:2084   */\n      tag_40\n        /* \"#utility.yul\":2078:2083   */\n      dup2\n        /* \"#utility.yul\":2060:2084   */\n      tag_33\n      jump\t// in\n    tag_40:\n        /* \"#utility.yul\":2053:2058   */\n      dup2\n        /* \"#utility.yul\":2050:2085   */\n      eq\n        /* \"#utility.yul\":2040:2103   */\n      tag_41\n      jumpi\n        /* \"#utility.yul\":2099:2100   */\n      0x00\n        /* \"#utility.yul\":2096:2097   */\n      dup1\n        /* \"#utility.yul\":2089:2101   */\n      revert\n        /* \"#utility.yul\":2040:2103   */\n    tag_41:\n        /* \"#utility.yul\":1987:2109   */\n      pop\n      jump\t// out\n\n    auxdata: 0xa26469706673582212208403bfb393c3eaaa7344cd94b72185f11143de936fbe6aea4627ba7a49bf283a64736f6c63430008070033\n}\n",
				"bytecode": {
					"linkReferences": {},
					"object": "608060405234801561001057600080fd5b50610188806100206000396000f3fe608060405234801561001057600080fd5b506004361061002b5760003560e01c8063b8bd717f14610030575b600080fd5b61004a600480360381019061004591906100a8565b61004c565b005b600a811115610090576040517f08c379a0000000000000000000000000000000000000000000000000000000008152600401610087906100f8565b60405180910390fd5b50565b6000813590506100a28161013b565b92915050565b6000602082840312156100be576100bd610133565b5b60006100cc84828501610093565b91505092915050565b60006100e2600083610118565b91506100ed82610138565b600082019050919050565b60006020820190508181036000830152610111816100d5565b9050919050565b600082825260208201905092915050565b6000819050919050565b600080fd5b50565b61014481610129565b811461014f57600080fd5b5056fea26469706673582212208403bfb393c3eaaa7344cd94b72185f11143de936fbe6aea4627ba7a49bf283a64736f6c63430008070033",
					"opcodes": "PUSH1 0x80 PUSH1 0x40 MSTORE CALLVALUE DUP1 ISZERO PUSH2 0x10 JUMPI PUSH1 0x0 DUP1 REVERT JUMPDEST POP PUSH2 0x188 DUP1 PUSH2 0x20 PUSH1 0x0 CODECOPY PUSH1 0x0 RETURN INVALID PUSH1 0x80 PUSH1 0x40 MSTORE CALLVALUE DUP1 ISZERO PUSH2 0x10 JUMPI PUSH1 0x0 DUP1 REVERT JUMPDEST POP PUSH1 0x4 CALLDATASIZE LT PUSH2 0x2B JUMPI PUSH1 0x0 CALLDATALOAD PUSH1 0xE0 SHR DUP1 PUSH4 0xB8BD717F EQ PUSH2 0x30 JUMPI JUMPDEST PUSH1 0x0 DUP1 REVERT JUMPDEST PUSH2 0x4A PUSH1 0x4 DUP1 CALLDATASIZE SUB DUP2 ADD SWAP1 PUSH2 0x45 SWAP2 SWAP1 PUSH2 0xA8 JUMP JUMPDEST PUSH2 0x4C JUMP JUMPDEST STOP JUMPDEST PUSH1 0xA DUP2 GT ISZERO PUSH2 0x90 JUMPI PUSH1 0x40 MLOAD PUSH32 0x8C379A000000000000000000000000000000000000000000000000000000000 DUP2 MSTORE PUSH1 0x4 ADD PUSH2 0x87 SWAP1 PUSH2 0xF8 JUMP JUMPDEST PUSH1 0x40 MLOAD DUP1 SWAP2 SUB SWAP1 REVERT JUMPDEST POP JUMP JUMPDEST PUSH1 0x0 DUP2 CALLDATALOAD SWAP1 POP PUSH2 0xA2 DUP2 PUSH2 0x13B JUMP JUMPDEST SWAP3 SWAP2 POP POP JUMP JUMPDEST PUSH1 0x0 PUSH1 0x20 DUP3 DUP5 SUB SLT ISZERO PUSH2 0xBE JUMPI PUSH2 0xBD PUSH2 0x133 JUMP JUMPDEST JUMPDEST PUSH1 0x0 PUSH2 0xCC DUP5 DUP3 DUP6 ADD PUSH2 0x93 JUMP JUMPDEST SWAP2 POP POP SWAP3 SWAP2 POP POP JUMP JUMPDEST PUSH1 0x0 PUSH2 0xE2 PUSH1 0x0 DUP4 PUSH2 0x118 JUMP JUMPDEST SWAP2 POP PUSH2 0xED DUP3 PUSH2 0x138 JUMP JUMPDEST PUSH1 0x0 DUP3 ADD SWAP1 POP SWAP2 SWAP1 POP JUMP JUMPDEST PUSH1 0x0 PUSH1 0x20 DUP3 ADD SWAP1 POP DUP2 DUP2 SUB PUSH1 0x0 DUP4 ADD MSTORE PUSH2 0x111 DUP2 PUSH2 0xD5 JUMP JUMPDEST SWAP1 POP SWAP2 SWAP1 POP JUMP JUMPDEST PUSH1 0x0 DUP3 DUP3 MSTORE PUSH1 0x20 DUP3 ADD SWAP1 POP SWAP3 SWAP2 POP POP JUMP JUMPDEST PUSH1 0x0 DUP2 SWAP1 POP SWAP2 SWAP1 POP JUMP JUMPDEST PUSH1 0x0 DUP1 REVERT JUMPDEST POP JUMP JUMPDEST PUSH2 0x144 DUP2 PUSH2 0x129 JUMP JUMPDEST DUP2 EQ PUSH2 0x14F JUMPI PUSH1 0x0 DUP1 REVERT JUMPDEST POP JUMP INVALID LOG2 PUSH5 0x6970667358 0x22 SLT KECCAK256 DUP5 SUB 0xBF 0xB3 SWAP4 0xC3 0xEA 0xAA PUSH20 0x44CD94B72185F11143DE936FBE6AEA4627BA7A49 0xBF 0x28 GASPRICE PUSH5 0x736F6C6343 STOP ADDMOD SMOD STOP CALLER "
				},
				"gasEstimates": {
					"creation": {
						"codeDepositCost": "78400",
						"executionCost": "129",
						"totalCost": "78529"
					},
					"external": {
						"testRequire(uint256)": "679"
					}
				},
				"methodIdentifiers": {
					"testRequire(uint256)": "b8bd717f"
				}
			},
			"storageLayout": {
				"storage": [],
				"types": null
			},
			"userdoc": {
				"kind": "user",
				"methods": {},
				"version": 1
			}
		}
	}
}