{
	"Day26_Inheritance.sol": {
		"C": {
			"abi": [
				{
					"inputs": [],
					"name": "a",
					"outputs": [
						{
							"internalType": "string",
							"name": "",
							"type": "string"
						}
					],
					"stateMutability": "pure",
					"type": "function"
				},
				{
					"inputs": [],
					"name": "b",
					"outputs": [
						{
							"internalType": "string",
							"name": "",
							"type": "string"
						}
					],
					"stateMutability": "pure",
					"type": "function"
				},
				{
					"inputs": [],
					"name": "bar",
					"outputs": [
						{
							"internalType": "string",
							"name": "",
							"type": "string"
						}
					],
					"stateMutability": "pure",
					"type": "function"
				},
				{
					"inputs": [],
					"name": "foo",
					"outputs": [
						{
							"internalType": "string",
							"name": "",
							"type": "string"
						}
					],
					"stateMutability": "pure",
					"type": "function"
				}
			],
			"devdoc": {
				"kind": "dev",
				"methods": {},
				"version": 1
			},
			"evm": {
				"assembly": "    /* \"Day26_Inheritance.sol\":649:865  contract C is A,B {... */\n  mstore(0x40, 0x80)\n  callvalue\n  dup1\n  iszero\n  tag_1\n  jumpi\n  0x00\n  dup1\n  revert\ntag_1:\n  pop\n  dataSize(sub_0)\n  dup1\n  dataOffset(sub_0)\n  0x00\n  codecopy\n  0x00\n  return\nstop\n\nsub_0: assembly {\n        /* \"Day26_Inheritance.sol\":649:865  contract C is A,B {... */\n      mstore(0x40, 0x80)\n      callvalue\n      dup1\n      iszero\n      tag_1\n      jumpi\n      0x00\n      dup1\n      revert\n    tag_1:\n      pop\n      jumpi(tag_2, lt(calldatasize, 0x04))\n      shr(0xe0, calldataload(0x00))\n      dup1\n      0x0dbe671f\n      eq\n      tag_3\n      jumpi\n      dup1\n      0x4df7e3d0\n      eq\n      tag_4\n      jumpi\n      dup1\n      0xc2985578\n      eq\n      tag_5\n      jumpi\n      dup1\n      0xfebb0f7e\n      eq\n      tag_6\n      jumpi\n    tag_2:\n      0x00\n      dup1\n      revert\n        /* \"Day26_Inheritance.sol\":260:336  function a() public pure returns (string memory) {... */\n    tag_3:\n      tag_7\n      tag_8\n      jump\t// in\n    tag_7:\n      mload(0x40)\n      tag_9\n      swap2\n      swap1\n      tag_10\n      jump\t// in\n    tag_9:\n      mload(0x40)\n      dup1\n      swap2\n      sub\n      swap1\n      return\n        /* \"Day26_Inheritance.sol\":565:645  function b() public pure returns (string memory) {... */\n    tag_4:\n      tag_11\n      tag_12\n      jump\t// in\n    tag_11:\n      mload(0x40)\n      tag_13\n      swap2\n      swap1\n      tag_10\n      jump\t// in\n    tag_13:\n      mload(0x40)\n      dup1\n      swap2\n      sub\n      swap1\n      return\n        /* \"Day26_Inheritance.sol\":673:765  function foo() public pure override(B,A) returns (string memory) {... */\n    tag_5:\n      tag_14\n      tag_15\n      jump\t// in\n    tag_14:\n      mload(0x40)\n      tag_16\n      swap2\n      swap1\n      tag_10\n      jump\t// in\n    tag_16:\n      mload(0x40)\n      dup1\n      swap2\n      sub\n      swap1\n      return\n        /* \"Day26_Inheritance.sol\":771:863  function bar() public pure override(A,B) returns (string memory) {... */\n    tag_6:\n      tag_17\n      tag_18\n      jump\t// in\n    tag_17:\n      mload(0x40)\n      tag_19\n      swap2\n      swap1\n      tag_10\n      jump\t// in\n    tag_19:\n      mload(0x40)\n      dup1\n      swap2\n      sub\n      swap1\n      return\n        /* \"Day26_Inheritance.sol\":260:336  function a() public pure returns (string memory) {... */\n    tag_8:\n        /* \"Day26_Inheritance.sol\":294:307  string memory */\n      0x60\n        /* \"Day26_Inheritance.sol\":319:329  return \"A\" */\n      mload(0x40)\n      dup1\n      0x40\n      add\n      0x40\n      mstore\n      dup1\n      0x01\n      dup2\n      mstore\n      0x20\n      add\n      0x4100000000000000000000000000000000000000000000000000000000000000\n      dup2\n      mstore\n      pop\n      swap1\n      pop\n        /* \"Day26_Inheritance.sol\":260:336  function a() public pure returns (string memory) {... */\n      swap1\n      jump\t// out\n        /* \"Day26_Inheritance.sol\":565:645  function b() public pure returns (string memory) {... */\n    tag_12:\n        /* \"Day26_Inheritance.sol\":599:612  string memory */\n      0x60\n        /* \"Day26_Inheritance.sol\":628:638  return \"B\" */\n      mload(0x40)\n      dup1\n      0x40\n      add\n      0x40\n      mstore\n      dup1\n      0x01\n      dup2\n      mstore\n      0x20\n      add\n      0x4200000000000000000000000000000000000000000000000000000000000000\n      dup2\n      mstore\n      pop\n      swap1\n      pop\n        /* \"Day26_Inheritance.sol\":565:645  function b() public pure returns (string memory) {... */\n      swap1\n      jump\t// out\n        /* \"Day26_Inheritance.sol\":673:765  function foo() public pure override(B,A) returns (string memory) {... */\n    tag_15:\n        /* \"Day26_Inheritance.sol\":723:736  string memory */\n      0x60\n        /* \"Day26_Inheritance.sol\":748:758  return \"C\" */\n      mload(0x40)\n      dup1\n      0x40\n      add\n      0x40\n      mstore\n      dup1\n      0x01\n      dup2\n      mstore\n      0x20\n      add\n      0x4300000000000000000000000000000000000000000000000000000000000000\n      dup2\n      mstore\n      pop\n      swap1\n      pop\n        /* \"Day26_Inheritance.sol\":673:765  function foo() public pure override(B,A) returns (string memory) {... */\n      swap1\n      jump\t// out\n        /* \"Day26_Inheritance.sol\":771:863  function bar() public pure override(A,B) returns (string memory) {... */\n    tag_18:\n        /* \"Day26_Inheritance.sol\":821:834  string memory */\n      0x60\n        /* \"Day26_Inheritance.sol\":846:856  return \"C\" */\n      mload(0x40)\n      dup1\n      0x40\n      add\n      0x40\n      mstore\n      dup1\n      0x01\n      dup2\n      mstore\n      0x20\n      add\n      0x4300000000000000000000000000000000000000000000000000000000000000\n      dup2\n      mstore\n      pop\n      swap1\n      pop\n        /* \"Day26_Inheritance.sol\":771:863  function bar() public pure override(A,B) returns (string memory) {... */\n      swap1\n      jump\t// out\n        /* \"#utility.yul\":7:371   */\n    tag_25:\n        /* \"#utility.yul\":95:98   */\n      0x00\n        /* \"#utility.yul\":123:162   */\n      tag_27\n        /* \"#utility.yul\":156:161   */\n      dup3\n        /* \"#utility.yul\":123:162   */\n      tag_28\n      jump\t// in\n    tag_27:\n        /* \"#utility.yul\":178:249   */\n      tag_29\n        /* \"#utility.yul\":242:248   */\n      dup2\n        /* \"#utility.yul\":237:240   */\n      dup6\n        /* \"#utility.yul\":178:249   */\n      tag_30\n      jump\t// in\n    tag_29:\n        /* \"#utility.yul\":171:249   */\n      swap4\n      pop\n        /* \"#utility.yul\":258:310   */\n      tag_31\n        /* \"#utility.yul\":303:309   */\n      dup2\n        /* \"#utility.yul\":298:301   */\n      dup6\n        /* \"#utility.yul\":291:295   */\n      0x20\n        /* \"#utility.yul\":284:289   */\n      dup7\n        /* \"#utility.yul\":280:296   */\n      add\n        /* \"#utility.yul\":258:310   */\n      tag_32\n      jump\t// in\n    tag_31:\n        /* \"#utility.yul\":335:364   */\n      tag_33\n        /* \"#utility.yul\":357:363   */\n      dup2\n        /* \"#utility.yul\":335:364   */\n      tag_34\n      jump\t// in\n    tag_33:\n        /* \"#utility.yul\":330:333   */\n      dup5\n        /* \"#utility.yul\":326:365   */\n      add\n        /* \"#utility.yul\":319:365   */\n      swap2\n      pop\n        /* \"#utility.yul\":99:371   */\n      pop\n        /* \"#utility.yul\":7:371   */\n      swap3\n      swap2\n      pop\n      pop\n      jump\t// out\n        /* \"#utility.yul\":377:690   */\n    tag_10:\n        /* \"#utility.yul\":490:494   */\n      0x00\n        /* \"#utility.yul\":528:530   */\n      0x20\n        /* \"#utility.yul\":517:526   */\n      dup3\n        /* \"#utility.yul\":513:531   */\n      add\n        /* \"#utility.yul\":505:531   */\n      swap1\n      pop\n        /* \"#utility.yul\":577:586   */\n      dup2\n        /* \"#utility.yul\":571:575   */\n      dup2\n        /* \"#utility.yul\":567:587   */\n      sub\n        /* \"#utility.yul\":563:564   */\n      0x00\n        /* \"#utility.yul\":552:561   */\n      dup4\n        /* \"#utility.yul\":548:565   */\n      add\n        /* \"#utility.yul\":541:588   */\n      mstore\n        /* \"#utility.yul\":605:683   */\n      tag_36\n        /* \"#utility.yul\":678:682   */\n      dup2\n        /* \"#utility.yul\":669:675   */\n      dup5\n        /* \"#utility.yul\":605:683   */\n      tag_25\n      jump\t// in\n    tag_36:\n        /* \"#utility.yul\":597:683   */\n      swap1\n      pop\n        /* \"#utility.yul\":377:690   */\n      swap3\n      swap2\n      pop\n      pop\n      jump\t// out\n        /* \"#utility.yul\":696:795   */\n    tag_28:\n        /* \"#utility.yul\":748:754   */\n      0x00\n        /* \"#utility.yul\":782:787   */\n      dup2\n        /* \"#utility.yul\":776:788   */\n      mload\n        /* \"#utility.yul\":766:788   */\n      swap1\n      pop\n        /* \"#utility.yul\":696:795   */\n      swap2\n      swap1\n      pop\n      jump\t// out\n        /* \"#utility.yul\":801:970   */\n    tag_30:\n        /* \"#utility.yul\":885:896   */\n      0x00\n        /* \"#utility.yul\":919:925   */\n      dup3\n        /* \"#utility.yul\":914:917   */\n      dup3\n        /* \"#utility.yul\":907:926   */\n      mstore\n        /* \"#utility.yul\":959:963   */\n      0x20\n        /* \"#utility.yul\":954:957   */\n      dup3\n        /* \"#utility.yul\":950:964   */\n      add\n        /* \"#utility.yul\":935:964   */\n      swap1\n      pop\n        /* \"#utility.yul\":801:970   */\n      swap3\n      swap2\n      pop\n      pop\n      jump\t// out\n        /* \"#utility.yul\":976:1283   */\n    tag_32:\n        /* \"#utility.yul\":1044:1045   */\n      0x00\n        /* \"#utility.yul\":1054:1167   */\n    tag_40:\n        /* \"#utility.yul\":1068:1074   */\n      dup4\n        /* \"#utility.yul\":1065:1066   */\n      dup2\n        /* \"#utility.yul\":1062:1075   */\n      lt\n        /* \"#utility.yul\":1054:1167   */\n      iszero\n      tag_42\n      jumpi\n        /* \"#utility.yul\":1153:1154   */\n      dup1\n        /* \"#utility.yul\":1148:1151   */\n      dup3\n        /* \"#utility.yul\":1144:1155   */\n      add\n        /* \"#utility.yul\":1138:1156   */\n      mload\n        /* \"#utility.yul\":1134:1135   */\n      dup2\n        /* \"#utility.yul\":1129:1132   */\n      dup5\n        /* \"#utility.yul\":1125:1136   */\n      add\n        /* \"#utility.yul\":1118:1157   */\n      mstore\n        /* \"#utility.yul\":1090:1092   */\n      0x20\n        /* \"#utility.yul\":1087:1088   */\n      dup2\n        /* \"#utility.yul\":1083:1093   */\n      add\n        /* \"#utility.yul\":1078:1093   */\n      swap1\n      pop\n        /* \"#utility.yul\":1054:1167   */\n      jump(tag_40)\n    tag_42:\n        /* \"#utility.yul\":1185:1191   */\n      dup4\n        /* \"#utility.yul\":1182:1183   */\n      dup2\n        /* \"#utility.yul\":1179:1192   */\n      gt\n        /* \"#utility.yul\":1176:1277   */\n      iszero\n      tag_43\n      jumpi\n        /* \"#utility.yul\":1265:1266   */\n      0x00\n        /* \"#utility.yul\":1256:1262   */\n      dup5\n        /* \"#utility.yul\":1251:1254   */\n      dup5\n        /* \"#utility.yul\":1247:1263   */\n      add\n        /* \"#utility.yul\":1240:1267   */\n      mstore\n        /* \"#utility.yul\":1176:1277   */\n    tag_43:\n        /* \"#utility.yul\":1025:1283   */\n      pop\n        /* \"#utility.yul\":976:1283   */\n      pop\n      pop\n      pop\n      jump\t// out\n        /* \"#utility.yul\":1289:1391   */\n    tag_34:\n        /* \"#utility.yul\":1330:1336   */\n      0x00\n        /* \"#utility.yul\":1381:1383   */\n      0x1f\n        /* \"#utility.yul\":1377:1384   */\n      not\n        /* \"#utility.yul\":1372:1374   */\n      0x1f\n        /* \"#utility.yul\":1365:1370   */\n      dup4\n        /* \"#utility.yul\":1361:1375   */\n      add\n        /* \"#utility.yul\":1357:1385   */\n      and\n        /* \"#utility.yul\":1347:1385   */\n      swap1\n      pop\n        /* \"#utility.yul\":1289:1391   */\n      swap2\n      swap1\n      pop\n      jump\t// out\n\n    auxdata: 0xa26469706673582212201012e1bb92df3a2ea9de12b8acb83a71f7bffc537371a13e800889224e3f208d64736f6c63430008070033\n}\n",
				"bytecode": {
					"linkReferences": {},
					"object": "608060405234801561001057600080fd5b506102ae806100206000396000f3fe608060405234801561001057600080fd5b506004361061004c5760003560e01c80630dbe671f146100515780634df7e3d01461006f578063c29855781461008d578063febb0f7e146100ab575b600080fd5b6100596100c9565b60405161006691906101f6565b60405180910390f35b610077610106565b60405161008491906101f6565b60405180910390f35b610095610143565b6040516100a291906101f6565b60405180910390f35b6100b3610180565b6040516100c091906101f6565b60405180910390f35b60606040518060400160405280600181526020017f4100000000000000000000000000000000000000000000000000000000000000815250905090565b60606040518060400160405280600181526020017f4200000000000000000000000000000000000000000000000000000000000000815250905090565b60606040518060400160405280600181526020017f4300000000000000000000000000000000000000000000000000000000000000815250905090565b60606040518060400160405280600181526020017f4300000000000000000000000000000000000000000000000000000000000000815250905090565b60006101c882610218565b6101d28185610223565b93506101e2818560208601610234565b6101eb81610267565b840191505092915050565b6000602082019050818103600083015261021081846101bd565b905092915050565b600081519050919050565b600082825260208201905092915050565b60005b83811015610252578082015181840152602081019050610237565b83811115610261576000848401525b50505050565b6000601f19601f830116905091905056fea26469706673582212201012e1bb92df3a2ea9de12b8acb83a71f7bffc537371a13e800889224e3f208d64736f6c63430008070033",
					"opcodes": "PUSH1 0x80 PUSH1 0x40 MSTORE CALLVALUE DUP1 ISZERO PUSH2 0x10 JUMPI PUSH1 0x0 DUP1 REVERT JUMPDEST POP PUSH2 0x2AE DUP1 PUSH2 0x20 PUSH1 0x0 CODECOPY PUSH1 0x0 RETURN INVALID PUSH1 0x80 PUSH1 0x40 MSTORE CALLVALUE DUP1 ISZERO PUSH2 0x10 JUMPI PUSH1 0x0 DUP1 REVERT JUMPDEST POP PUSH1 0x4 CALLDATASIZE LT PUSH2 0x4C JUMPI PUSH1 0x0 CALLDATALOAD PUSH1 0xE0 SHR DUP1 PUSH4 0xDBE671F EQ PUSH2 0x51 JUMPI DUP1 PUSH4 0x4DF7E3D0 EQ PUSH2 0x6F JUMPI DUP1 PUSH4 0xC2985578 EQ PUSH2 0x8D JUMPI DUP1 PUSH4 0xFEBB0F7E EQ PUSH2 0xAB JUMPI JUMPDEST PUSH1 0x0 DUP1 REVERT JUMPDEST PUSH2 0x59 PUSH2 0xC9 JUMP JUMPDEST PUSH1 0x40 MLOAD PUSH2 0x66 SWAP2 SWAP1 PUSH2 0x1F6 JUMP JUMPDEST PUSH1 0x40 MLOAD DUP1 SWAP2 SUB SWAP1 RETURN JUMPDEST PUSH2 0x77 PUSH2 0x106 JUMP JUMPDEST PUSH1 0x40 MLOAD PUSH2 0x84 SWAP2 SWAP1 PUSH2 0x1F6 JUMP JUMPDEST PUSH1 0x40 MLOAD DUP1 SWAP2 SUB SWAP1 RETURN JUMPDEST PUSH2 0x95 PUSH2 0x143 JUMP JUMPDEST PUSH1 0x40 MLOAD PUSH2 0xA2 SWAP2 SWAP1 PUSH2 0x1F6 JUMP JUMPDEST PUSH1 0x40 MLOAD DUP1 SWAP2 SUB SWAP1 RETURN JUMPDEST PUSH2 0xB3 PUSH2 0x180 JUMP JUMPDEST PUSH1 0x40 MLOAD PUSH2 0xC0 SWAP2 SWAP1 PUSH2 0x1F6 JUMP JUMPDEST PUSH1 0x40 MLOAD DUP1 SWAP2 SUB SWAP1 RETURN JUMPDEST PUSH1 0x60 PUSH1 0x40 MLOAD DUP1 PUSH1 0x40 ADD PUSH1 0x40 MSTORE DUP1 PUSH1 0x1 DUP2 MSTORE PUSH1 0x20 ADD PUSH32 0x4100000000000000000000000000000000000000000000000000000000000000 DUP2 MSTORE POP SWAP1 POP SWAP1 JUMP JUMPDEST PUSH1 0x60 PUSH1 0x40 MLOAD DUP1 PUSH1 0x40 ADD PUSH1 0x40 MSTORE DUP1 PUSH1 0x1 DUP2 MSTORE PUSH1 0x20 ADD PUSH32 0x4200000000000000000000000000000000000000000000000000000000000000 DUP2 MSTORE POP SWAP1 POP SWAP1 JUMP JUMPDEST PUSH1 0x60 PUSH1 0x40 MLOAD DUP1 PUSH1 0x40 ADD PUSH1 0x40 MSTORE DUP1 PUSH1 0x1 DUP2 MSTORE PUSH1 0x20 ADD PUSH32 0x4300000000000000000000000000000000000000000000000000000000000000 DUP2 MSTORE POP SWAP1 POP SWAP1 JUMP JUMPDEST PUSH1 0x60 PUSH1 0x40 MLOAD DUP1 PUSH1 0x40 ADD PUSH1 0x40 MSTORE DUP1 PUSH1 0x1 DUP2 MSTORE PUSH1 0x20 ADD PUSH32 0x4300000000000000000000000000000000000000000000000000000000000000 DUP2 MSTORE POP SWAP1 POP SWAP1 JUMP JUMPDEST PUSH1 0x0 PUSH2 0x1C8 DUP3 PUSH2 0x218 JUMP JUMPDEST PUSH2 0x1D2 DUP2 DUP6 PUSH2 0x223 JUMP JUMPDEST SWAP4 POP PUSH2 0x1E2 DUP2 DUP6 PUSH1 0x20 DUP7 ADD PUSH2 0x234 JUMP JUMPDEST PUSH2 0x1EB DUP2 PUSH2 0x267 JUMP JUMPDEST DUP5 ADD SWAP2 POP POP SWAP3 SWAP2 POP POP JUMP JUMPDEST PUSH1 0x0 PUSH1 0x20 DUP3 ADD SWAP1 POP DUP2 DUP2 SUB PUSH1 0x0 DUP4 ADD MSTORE PUSH2 0x210 DUP2 DUP5 PUSH2 0x1BD JUMP JUMPDEST SWAP1 POP SWAP3 SWAP2 POP POP JUMP JUMPDEST PUSH1 0x0 DUP2 MLOAD SWAP1 POP SWAP2 SWAP1 POP JUMP JUMPDEST PUSH1 0x0 DUP3 DUP3 MSTORE PUSH1 0x20 DUP3 ADD SWAP1 POP SWAP3 SWAP2 POP POP JUMP JUMPDEST PUSH1 0x0 JUMPDEST DUP4 DUP2 LT ISZERO PUSH2 0x252 JUMPI DUP1 DUP3 ADD MLOAD DUP2 DUP5 ADD MSTORE PUSH1 0x20 DUP2 ADD SWAP1 POP PUSH2 0x237 JUMP JUMPDEST DUP4 DUP2 GT ISZERO PUSH2 0x261 JUMPI PUSH1 0x0 DUP5 DUP5 ADD MSTORE JUMPDEST POP POP POP POP JUMP JUMPDEST PUSH1 0x0 PUSH1 0x1F NOT PUSH1 0x1F DUP4 ADD AND SWAP1 POP SWAP2 SWAP1 POP JUMP INVALID LOG2 PUSH5 0x6970667358 0x22 SLT KECCAK256 LT SLT 0xE1 0xBB SWAP3 0xDF GASPRICE 0x2E 0xA9 0xDE SLT 0xB8 0xAC 0xB8 GASPRICE PUSH18 0xF7BFFC537371A13E800889224E3F208D6473 PUSH16 0x6C634300080700330000000000000000 "
				},
				"gasEstimates": {
					"creation": {
						"codeDepositCost": "137200",
						"executionCost": "183",
						"totalCost": "137383"
					},
					"external": {
						"a()": "infinite",
						"b()": "infinite",
						"bar()": "infinite",
						"foo()": "infinite"
					}
				},
				"methodIdentifiers": {
					"a()": "0dbe671f",
					"b()": "4df7e3d0",
					"bar()": "febb0f7e",
					"foo()": "c2985578"
				}
			},
			"storageLayout": {
				"storage": [],
				"types": null
			},
			"userdoc": {
				"kind": "user",
				"methods": {},
				"version": 1
			}
		}
	}
}