{
	"Day22_DeployAnyContract.sol": {
		"Proxy": {
			"abi": [
				{
					"anonymous": false,
					"inputs": [
						{
							"indexed": false,
							"internalType": "address",
							"name": "",
							"type": "address"
						}
					],
					"name": "Deploy",
					"type": "event"
				},
				{
					"stateMutability": "payable",
					"type": "fallback"
				},
				{
					"inputs": [
						{
							"internalType": "bytes",
							"name": "_code",
							"type": "bytes"
						}
					],
					"name": "deploy",
					"outputs": [
						{
							"internalType": "address",
							"name": "addr",
							"type": "address"
						}
					],
					"stateMutability": "payable",
					"type": "function"
				}
			],
			"devdoc": {
				"kind": "dev",
				"methods": {},
				"version": 1
			},
			"evm": {
				"assembly": "    /* \"Day22_DeployAnyContract.sol\":480:817  contract Proxy {... */\n  mstore(0x40, 0x80)\n  callvalue\n  dup1\n  iszero\n  tag_1\n  jumpi\n  0x00\n  dup1\n  revert\ntag_1:\n  pop\n  dataSize(sub_0)\n  dup1\n  dataOffset(sub_0)\n  0x00\n  codecopy\n  0x00\n  return\nstop\n\nsub_0: assembly {\n        /* \"Day22_DeployAnyContract.sol\":480:817  contract Proxy {... */\n      mstore(0x40, 0x80)\n      jumpi(tag_1, lt(calldatasize, 0x04))\n      shr(0xe0, calldataload(0x00))\n      dup1\n      0x774360\n      eq\n      tag_3\n      jumpi\n      jump(tag_2)\n    tag_1:\n    tag_2:\n      stop\n        /* \"Day22_DeployAnyContract.sol\":566:815  function deploy (bytes memory _code) external payable returns (address addr) {... */\n    tag_3:\n      tag_6\n      0x04\n      dup1\n      calldatasize\n      sub\n      dup2\n      add\n      swap1\n      tag_7\n      swap2\n      swap1\n      tag_8\n      jump\t// in\n    tag_7:\n      tag_9\n      jump\t// in\n    tag_6:\n      mload(0x40)\n      tag_10\n      swap2\n      swap1\n      tag_11\n      jump\t// in\n    tag_10:\n      mload(0x40)\n      dup1\n      swap2\n      sub\n      swap1\n      return\n    tag_9:\n        /* \"Day22_DeployAnyContract.sol\":629:641  address addr */\n      0x00\n        /* \"Day22_DeployAnyContract.sol\":728:733  _code */\n      dup2\n        /* \"Day22_DeployAnyContract.sol\":722:734  mload(_code) */\n      mload\n        /* \"Day22_DeployAnyContract.sol\":715:719  0x20 */\n      0x20\n        /* \"Day22_DeployAnyContract.sol\":708:713  _code */\n      dup4\n        /* \"Day22_DeployAnyContract.sol\":704:720  add(_code, 0x20) */\n      add\n        /* \"Day22_DeployAnyContract.sol\":691:702  callvalue() */\n      callvalue\n        /* \"Day22_DeployAnyContract.sol\":684:735  create(callvalue(), add(_code, 0x20), mload(_code)) */\n      create\n        /* \"Day22_DeployAnyContract.sol\":676:735  addr := create(callvalue(), add(_code, 0x20), mload(_code)) */\n      swap1\n      pop\n        /* \"Day22_DeployAnyContract.sol\":779:780  0 */\n      0x00\n        /* \"Day22_DeployAnyContract.sol\":763:781  addr != address(0) */\n      0xffffffffffffffffffffffffffffffffffffffff\n      and\n        /* \"Day22_DeployAnyContract.sol\":763:767  addr */\n      dup2\n        /* \"Day22_DeployAnyContract.sol\":763:781  addr != address(0) */\n      0xffffffffffffffffffffffffffffffffffffffff\n      and\n      eq\n      iszero\n        /* \"Day22_DeployAnyContract.sol\":754:799  require (addr != address(0), \"deploy failed\") */\n      tag_13\n      jumpi\n      mload(0x40)\n      0x08c379a000000000000000000000000000000000000000000000000000000000\n      dup2\n      mstore\n      0x04\n      add\n      tag_14\n      swap1\n      tag_15\n      jump\t// in\n    tag_14:\n      mload(0x40)\n      dup1\n      swap2\n      sub\n      swap1\n      revert\n    tag_13:\n        /* \"Day22_DeployAnyContract.sol\":566:815  function deploy (bytes memory _code) external payable returns (address addr) {... */\n      swap2\n      swap1\n      pop\n      jump\t// out\n        /* \"#utility.yul\":7:417   */\n    tag_17:\n        /* \"#utility.yul\":84:89   */\n      0x00\n        /* \"#utility.yul\":109:174   */\n      tag_19\n        /* \"#utility.yul\":125:173   */\n      tag_20\n        /* \"#utility.yul\":166:172   */\n      dup5\n        /* \"#utility.yul\":125:173   */\n      tag_21\n      jump\t// in\n    tag_20:\n        /* \"#utility.yul\":109:174   */\n      tag_22\n      jump\t// in\n    tag_19:\n        /* \"#utility.yul\":100:174   */\n      swap1\n      pop\n        /* \"#utility.yul\":197:203   */\n      dup3\n        /* \"#utility.yul\":190:195   */\n      dup2\n        /* \"#utility.yul\":183:204   */\n      mstore\n        /* \"#utility.yul\":235:239   */\n      0x20\n        /* \"#utility.yul\":228:233   */\n      dup2\n        /* \"#utility.yul\":224:240   */\n      add\n        /* \"#utility.yul\":273:276   */\n      dup5\n        /* \"#utility.yul\":264:270   */\n      dup5\n        /* \"#utility.yul\":259:262   */\n      dup5\n        /* \"#utility.yul\":255:271   */\n      add\n        /* \"#utility.yul\":252:277   */\n      gt\n        /* \"#utility.yul\":249:361   */\n      iszero\n      tag_23\n      jumpi\n        /* \"#utility.yul\":280:359   */\n      tag_24\n      tag_25\n      jump\t// in\n    tag_24:\n        /* \"#utility.yul\":249:361   */\n    tag_23:\n        /* \"#utility.yul\":370:411   */\n      tag_26\n        /* \"#utility.yul\":404:410   */\n      dup5\n        /* \"#utility.yul\":399:402   */\n      dup3\n        /* \"#utility.yul\":394:397   */\n      dup6\n        /* \"#utility.yul\":370:411   */\n      tag_27\n      jump\t// in\n    tag_26:\n        /* \"#utility.yul\":90:417   */\n      pop\n        /* \"#utility.yul\":7:417   */\n      swap4\n      swap3\n      pop\n      pop\n      pop\n      jump\t// out\n        /* \"#utility.yul\":436:774   */\n    tag_28:\n        /* \"#utility.yul\":491:496   */\n      0x00\n        /* \"#utility.yul\":540:543   */\n      dup3\n        /* \"#utility.yul\":533:537   */\n      0x1f\n        /* \"#utility.yul\":525:531   */\n      dup4\n        /* \"#utility.yul\":521:538   */\n      add\n        /* \"#utility.yul\":517:544   */\n      slt\n        /* \"#utility.yul\":507:629   */\n      tag_30\n      jumpi\n        /* \"#utility.yul\":548:627   */\n      tag_31\n      tag_32\n      jump\t// in\n    tag_31:\n        /* \"#utility.yul\":507:629   */\n    tag_30:\n        /* \"#utility.yul\":665:671   */\n      dup2\n        /* \"#utility.yul\":652:672   */\n      calldataload\n        /* \"#utility.yul\":690:768   */\n      tag_33\n        /* \"#utility.yul\":764:767   */\n      dup5\n        /* \"#utility.yul\":756:762   */\n      dup3\n        /* \"#utility.yul\":749:753   */\n      0x20\n        /* \"#utility.yul\":741:747   */\n      dup7\n        /* \"#utility.yul\":737:754   */\n      add\n        /* \"#utility.yul\":690:768   */\n      tag_17\n      jump\t// in\n    tag_33:\n        /* \"#utility.yul\":681:768   */\n      swap2\n      pop\n        /* \"#utility.yul\":497:774   */\n      pop\n        /* \"#utility.yul\":436:774   */\n      swap3\n      swap2\n      pop\n      pop\n      jump\t// out\n        /* \"#utility.yul\":780:1287   */\n    tag_8:\n        /* \"#utility.yul\":848:854   */\n      0x00\n        /* \"#utility.yul\":897:899   */\n      0x20\n        /* \"#utility.yul\":885:894   */\n      dup3\n        /* \"#utility.yul\":876:883   */\n      dup5\n        /* \"#utility.yul\":872:895   */\n      sub\n        /* \"#utility.yul\":868:900   */\n      slt\n        /* \"#utility.yul\":865:984   */\n      iszero\n      tag_35\n      jumpi\n        /* \"#utility.yul\":903:982   */\n      tag_36\n      tag_37\n      jump\t// in\n    tag_36:\n        /* \"#utility.yul\":865:984   */\n    tag_35:\n        /* \"#utility.yul\":1051:1052   */\n      0x00\n        /* \"#utility.yul\":1040:1049   */\n      dup3\n        /* \"#utility.yul\":1036:1053   */\n      add\n        /* \"#utility.yul\":1023:1054   */\n      calldataload\n        /* \"#utility.yul\":1081:1099   */\n      0xffffffffffffffff\n        /* \"#utility.yul\":1073:1079   */\n      dup2\n        /* \"#utility.yul\":1070:1100   */\n      gt\n        /* \"#utility.yul\":1067:1184   */\n      iszero\n      tag_38\n      jumpi\n        /* \"#utility.yul\":1103:1182   */\n      tag_39\n      tag_40\n      jump\t// in\n    tag_39:\n        /* \"#utility.yul\":1067:1184   */\n    tag_38:\n        /* \"#utility.yul\":1208:1270   */\n      tag_41\n        /* \"#utility.yul\":1262:1269   */\n      dup5\n        /* \"#utility.yul\":1253:1259   */\n      dup3\n        /* \"#utility.yul\":1242:1251   */\n      dup6\n        /* \"#utility.yul\":1238:1260   */\n      add\n        /* \"#utility.yul\":1208:1270   */\n      tag_28\n      jump\t// in\n    tag_41:\n        /* \"#utility.yul\":1198:1270   */\n      swap2\n      pop\n        /* \"#utility.yul\":994:1280   */\n      pop\n        /* \"#utility.yul\":780:1287   */\n      swap3\n      swap2\n      pop\n      pop\n      jump\t// out\n        /* \"#utility.yul\":1293:1411   */\n    tag_42:\n        /* \"#utility.yul\":1380:1404   */\n      tag_44\n        /* \"#utility.yul\":1398:1403   */\n      dup2\n        /* \"#utility.yul\":1380:1404   */\n      tag_45\n      jump\t// in\n    tag_44:\n        /* \"#utility.yul\":1375:1378   */\n      dup3\n        /* \"#utility.yul\":1368:1405   */\n      mstore\n        /* \"#utility.yul\":1293:1411   */\n      pop\n      pop\n      jump\t// out\n        /* \"#utility.yul\":1417:1783   */\n    tag_46:\n        /* \"#utility.yul\":1559:1562   */\n      0x00\n        /* \"#utility.yul\":1580:1647   */\n      tag_48\n        /* \"#utility.yul\":1644:1646   */\n      0x0d\n        /* \"#utility.yul\":1639:1642   */\n      dup4\n        /* \"#utility.yul\":1580:1647   */\n      tag_49\n      jump\t// in\n    tag_48:\n        /* \"#utility.yul\":1573:1647   */\n      swap2\n      pop\n        /* \"#utility.yul\":1656:1749   */\n      tag_50\n        /* \"#utility.yul\":1745:1748   */\n      dup3\n        /* \"#utility.yul\":1656:1749   */\n      tag_51\n      jump\t// in\n    tag_50:\n        /* \"#utility.yul\":1774:1776   */\n      0x20\n        /* \"#utility.yul\":1769:1772   */\n      dup3\n        /* \"#utility.yul\":1765:1777   */\n      add\n        /* \"#utility.yul\":1758:1777   */\n      swap1\n      pop\n        /* \"#utility.yul\":1417:1783   */\n      swap2\n      swap1\n      pop\n      jump\t// out\n        /* \"#utility.yul\":1789:2011   */\n    tag_11:\n        /* \"#utility.yul\":1882:1886   */\n      0x00\n        /* \"#utility.yul\":1920:1922   */\n      0x20\n        /* \"#utility.yul\":1909:1918   */\n      dup3\n        /* \"#utility.yul\":1905:1923   */\n      add\n        /* \"#utility.yul\":1897:1923   */\n      swap1\n      pop\n        /* \"#utility.yul\":1933:2004   */\n      tag_53\n        /* \"#utility.yul\":2001:2002   */\n      0x00\n        /* \"#utility.yul\":1990:1999   */\n      dup4\n        /* \"#utility.yul\":1986:2003   */\n      add\n        /* \"#utility.yul\":1977:1983   */\n      dup5\n        /* \"#utility.yul\":1933:2004   */\n      tag_42\n      jump\t// in\n    tag_53:\n        /* \"#utility.yul\":1789:2011   */\n      swap3\n      swap2\n      pop\n      pop\n      jump\t// out\n        /* \"#utility.yul\":2017:2436   */\n    tag_15:\n        /* \"#utility.yul\":2183:2187   */\n      0x00\n        /* \"#utility.yul\":2221:2223   */\n      0x20\n        /* \"#utility.yul\":2210:2219   */\n      dup3\n        /* \"#utility.yul\":2206:2224   */\n      add\n        /* \"#utility.yul\":2198:2224   */\n      swap1\n      pop\n        /* \"#utility.yul\":2270:2279   */\n      dup2\n        /* \"#utility.yul\":2264:2268   */\n      dup2\n        /* \"#utility.yul\":2260:2280   */\n      sub\n        /* \"#utility.yul\":2256:2257   */\n      0x00\n        /* \"#utility.yul\":2245:2254   */\n      dup4\n        /* \"#utility.yul\":2241:2258   */\n      add\n        /* \"#utility.yul\":2234:2281   */\n      mstore\n        /* \"#utility.yul\":2298:2429   */\n      tag_55\n        /* \"#utility.yul\":2424:2428   */\n      dup2\n        /* \"#utility.yul\":2298:2429   */\n      tag_46\n      jump\t// in\n    tag_55:\n        /* \"#utility.yul\":2290:2429   */\n      swap1\n      pop\n        /* \"#utility.yul\":2017:2436   */\n      swap2\n      swap1\n      pop\n      jump\t// out\n        /* \"#utility.yul\":2442:2571   */\n    tag_22:\n        /* \"#utility.yul\":2476:2482   */\n      0x00\n        /* \"#utility.yul\":2503:2523   */\n      tag_57\n      tag_58\n      jump\t// in\n    tag_57:\n        /* \"#utility.yul\":2493:2523   */\n      swap1\n      pop\n        /* \"#utility.yul\":2532:2565   */\n      tag_59\n        /* \"#utility.yul\":2560:2564   */\n      dup3\n        /* \"#utility.yul\":2552:2558   */\n      dup3\n        /* \"#utility.yul\":2532:2565   */\n      tag_60\n      jump\t// in\n    tag_59:\n        /* \"#utility.yul\":2442:2571   */\n      swap2\n      swap1\n      pop\n      jump\t// out\n        /* \"#utility.yul\":2577:2652   */\n    tag_58:\n        /* \"#utility.yul\":2610:2616   */\n      0x00\n        /* \"#utility.yul\":2643:2645   */\n      0x40\n        /* \"#utility.yul\":2637:2646   */\n      mload\n        /* \"#utility.yul\":2627:2646   */\n      swap1\n      pop\n        /* \"#utility.yul\":2577:2652   */\n      swap1\n      jump\t// out\n        /* \"#utility.yul\":2658:2965   */\n    tag_21:\n        /* \"#utility.yul\":2719:2723   */\n      0x00\n        /* \"#utility.yul\":2809:2827   */\n      0xffffffffffffffff\n        /* \"#utility.yul\":2801:2807   */\n      dup3\n        /* \"#utility.yul\":2798:2828   */\n      gt\n        /* \"#utility.yul\":2795:2851   */\n      iszero\n      tag_63\n      jumpi\n        /* \"#utility.yul\":2831:2849   */\n      tag_64\n      tag_65\n      jump\t// in\n    tag_64:\n        /* \"#utility.yul\":2795:2851   */\n    tag_63:\n        /* \"#utility.yul\":2869:2898   */\n      tag_66\n        /* \"#utility.yul\":2891:2897   */\n      dup3\n        /* \"#utility.yul\":2869:2898   */\n      tag_67\n      jump\t// in\n    tag_66:\n        /* \"#utility.yul\":2861:2898   */\n      swap1\n      pop\n        /* \"#utility.yul\":2953:2957   */\n      0x20\n        /* \"#utility.yul\":2947:2951   */\n      dup2\n        /* \"#utility.yul\":2943:2958   */\n      add\n        /* \"#utility.yul\":2935:2958   */\n      swap1\n      pop\n        /* \"#utility.yul\":2658:2965   */\n      swap2\n      swap1\n      pop\n      jump\t// out\n        /* \"#utility.yul\":2971:3140   */\n    tag_49:\n        /* \"#utility.yul\":3055:3066   */\n      0x00\n        /* \"#utility.yul\":3089:3095   */\n      dup3\n        /* \"#utility.yul\":3084:3087   */\n      dup3\n        /* \"#utility.yul\":3077:3096   */\n      mstore\n        /* \"#utility.yul\":3129:3133   */\n      0x20\n        /* \"#utility.yul\":3124:3127   */\n      dup3\n        /* \"#utility.yul\":3120:3134   */\n      add\n        /* \"#utility.yul\":3105:3134   */\n      swap1\n      pop\n        /* \"#utility.yul\":2971:3140   */\n      swap3\n      swap2\n      pop\n      pop\n      jump\t// out\n        /* \"#utility.yul\":3146:3242   */\n    tag_45:\n        /* \"#utility.yul\":3183:3190   */\n      0x00\n        /* \"#utility.yul\":3212:3236   */\n      tag_70\n        /* \"#utility.yul\":3230:3235   */\n      dup3\n        /* \"#utility.yul\":3212:3236   */\n      tag_71\n      jump\t// in\n    tag_70:\n        /* \"#utility.yul\":3201:3236   */\n      swap1\n      pop\n        /* \"#utility.yul\":3146:3242   */\n      swap2\n      swap1\n      pop\n      jump\t// out\n        /* \"#utility.yul\":3248:3374   */\n    tag_71:\n        /* \"#utility.yul\":3285:3292   */\n      0x00\n        /* \"#utility.yul\":3325:3367   */\n      0xffffffffffffffffffffffffffffffffffffffff\n        /* \"#utility.yul\":3318:3323   */\n      dup3\n        /* \"#utility.yul\":3314:3368   */\n      and\n        /* \"#utility.yul\":3303:3368   */\n      swap1\n      pop\n        /* \"#utility.yul\":3248:3374   */\n      swap2\n      swap1\n      pop\n      jump\t// out\n        /* \"#utility.yul\":3380:3534   */\n    tag_27:\n        /* \"#utility.yul\":3464:3470   */\n      dup3\n        /* \"#utility.yul\":3459:3462   */\n      dup2\n        /* \"#utility.yul\":3454:3457   */\n      dup4\n        /* \"#utility.yul\":3441:3471   */\n      calldatacopy\n        /* \"#utility.yul\":3526:3527   */\n      0x00\n        /* \"#utility.yul\":3517:3523   */\n      dup4\n        /* \"#utility.yul\":3512:3515   */\n      dup4\n        /* \"#utility.yul\":3508:3524   */\n      add\n        /* \"#utility.yul\":3501:3528   */\n      mstore\n        /* \"#utility.yul\":3380:3534   */\n      pop\n      pop\n      pop\n      jump\t// out\n        /* \"#utility.yul\":3540:3821   */\n    tag_60:\n        /* \"#utility.yul\":3623:3650   */\n      tag_75\n        /* \"#utility.yul\":3645:3649   */\n      dup3\n        /* \"#utility.yul\":3623:3650   */\n      tag_67\n      jump\t// in\n    tag_75:\n        /* \"#utility.yul\":3615:3621   */\n      dup2\n        /* \"#utility.yul\":3611:3651   */\n      add\n        /* \"#utility.yul\":3753:3759   */\n      dup2\n        /* \"#utility.yul\":3741:3751   */\n      dup2\n        /* \"#utility.yul\":3738:3760   */\n      lt\n        /* \"#utility.yul\":3717:3735   */\n      0xffffffffffffffff\n        /* \"#utility.yul\":3705:3715   */\n      dup3\n        /* \"#utility.yul\":3702:3736   */\n      gt\n        /* \"#utility.yul\":3699:3761   */\n      or\n        /* \"#utility.yul\":3696:3784   */\n      iszero\n      tag_76\n      jumpi\n        /* \"#utility.yul\":3764:3782   */\n      tag_77\n      tag_65\n      jump\t// in\n    tag_77:\n        /* \"#utility.yul\":3696:3784   */\n    tag_76:\n        /* \"#utility.yul\":3804:3814   */\n      dup1\n        /* \"#utility.yul\":3800:3802   */\n      0x40\n        /* \"#utility.yul\":3793:3815   */\n      mstore\n        /* \"#utility.yul\":3583:3821   */\n      pop\n        /* \"#utility.yul\":3540:3821   */\n      pop\n      pop\n      jump\t// out\n        /* \"#utility.yul\":3827:4007   */\n    tag_65:\n        /* \"#utility.yul\":3875:3952   */\n      0x4e487b7100000000000000000000000000000000000000000000000000000000\n        /* \"#utility.yul\":3872:3873   */\n      0x00\n        /* \"#utility.yul\":3865:3953   */\n      mstore\n        /* \"#utility.yul\":3972:3976   */\n      0x41\n        /* \"#utility.yul\":3969:3970   */\n      0x04\n        /* \"#utility.yul\":3962:3977   */\n      mstore\n        /* \"#utility.yul\":3996:4000   */\n      0x24\n        /* \"#utility.yul\":3993:3994   */\n      0x00\n        /* \"#utility.yul\":3986:4001   */\n      revert\n        /* \"#utility.yul\":4013:4130   */\n    tag_32:\n        /* \"#utility.yul\":4122:4123   */\n      0x00\n        /* \"#utility.yul\":4119:4120   */\n      dup1\n        /* \"#utility.yul\":4112:4124   */\n      revert\n        /* \"#utility.yul\":4136:4253   */\n    tag_25:\n        /* \"#utility.yul\":4245:4246   */\n      0x00\n        /* \"#utility.yul\":4242:4243   */\n      dup1\n        /* \"#utility.yul\":4235:4247   */\n      revert\n        /* \"#utility.yul\":4259:4376   */\n    tag_40:\n        /* \"#utility.yul\":4368:4369   */\n      0x00\n        /* \"#utility.yul\":4365:4366   */\n      dup1\n        /* \"#utility.yul\":4358:4370   */\n      revert\n        /* \"#utility.yul\":4382:4499   */\n    tag_37:\n        /* \"#utility.yul\":4491:4492   */\n      0x00\n        /* \"#utility.yul\":4488:4489   */\n      dup1\n        /* \"#utility.yul\":4481:4493   */\n      revert\n        /* \"#utility.yul\":4505:4607   */\n    tag_67:\n        /* \"#utility.yul\":4546:4552   */\n      0x00\n        /* \"#utility.yul\":4597:4599   */\n      0x1f\n        /* \"#utility.yul\":4593:4600   */\n      not\n        /* \"#utility.yul\":4588:4590   */\n      0x1f\n        /* \"#utility.yul\":4581:4586   */\n      dup4\n        /* \"#utility.yul\":4577:4591   */\n      add\n        /* \"#utility.yul\":4573:4601   */\n      and\n        /* \"#utility.yul\":4563:4601   */\n      swap1\n      pop\n        /* \"#utility.yul\":4505:4607   */\n      swap2\n      swap1\n      pop\n      jump\t// out\n        /* \"#utility.yul\":4613:4776   */\n    tag_51:\n        /* \"#utility.yul\":4753:4768   */\n      0x6465706c6f79206661696c656400000000000000000000000000000000000000\n        /* \"#utility.yul\":4749:4750   */\n      0x00\n        /* \"#utility.yul\":4741:4747   */\n      dup3\n        /* \"#utility.yul\":4737:4751   */\n      add\n        /* \"#utility.yul\":4730:4769   */\n      mstore\n        /* \"#utility.yul\":4613:4776   */\n      pop\n      jump\t// out\n\n    auxdata: 0xa26469706673582212206652bb2f991bd9ed92cbd9420dda413d20bb35fce7386748ff417be913a22a0264736f6c63430008070033\n}\n",
				"bytecode": {
					"linkReferences": {},
					"object": "608060405234801561001057600080fd5b50610387806100206000396000f3fe6080604052600436106100215760003560e01c80627743601461002457610022565b5b005b61003e60048036038101906100399190610145565b610054565b60405161004b91906101c0565b60405180910390f35b600081516020830134f09050600073ffffffffffffffffffffffffffffffffffffffff168173ffffffffffffffffffffffffffffffffffffffff1614156100d0576040517f08c379a00000000000000000000000000000000000000000000000000000000081526004016100c7906101db565b60405180910390fd5b919050565b60006100e86100e384610220565b6101fb565b90508281526020810184848401111561010457610103610308565b5b61010f848285610294565b509392505050565b600082601f83011261012c5761012b610303565b5b813561013c8482602086016100d5565b91505092915050565b60006020828403121561015b5761015a610312565b5b600082013567ffffffffffffffff8111156101795761017861030d565b5b61018584828501610117565b91505092915050565b61019781610262565b82525050565b60006101aa600d83610251565b91506101b582610328565b602082019050919050565b60006020820190506101d5600083018461018e565b92915050565b600060208201905081810360008301526101f48161019d565b9050919050565b6000610205610216565b905061021182826102a3565b919050565b6000604051905090565b600067ffffffffffffffff82111561023b5761023a6102d4565b5b61024482610317565b9050602081019050919050565b600082825260208201905092915050565b600061026d82610274565b9050919050565b600073ffffffffffffffffffffffffffffffffffffffff82169050919050565b82818337600083830152505050565b6102ac82610317565b810181811067ffffffffffffffff821117156102cb576102ca6102d4565b5b80604052505050565b7f4e487b7100000000000000000000000000000000000000000000000000000000600052604160045260246000fd5b600080fd5b600080fd5b600080fd5b600080fd5b6000601f19601f8301169050919050565b7f6465706c6f79206661696c65640000000000000000000000000000000000000060008201525056fea26469706673582212206652bb2f991bd9ed92cbd9420dda413d20bb35fce7386748ff417be913a22a0264736f6c63430008070033",
					"opcodes": "PUSH1 0x80 PUSH1 0x40 MSTORE CALLVALUE DUP1 ISZERO PUSH2 0x10 JUMPI PUSH1 0x0 DUP1 REVERT JUMPDEST POP PUSH2 0x387 DUP1 PUSH2 0x20 PUSH1 0x0 CODECOPY PUSH1 0x0 RETURN INVALID PUSH1 0x80 PUSH1 0x40 MSTORE PUSH1 0x4 CALLDATASIZE LT PUSH2 0x21 JUMPI PUSH1 0x0 CALLDATALOAD PUSH1 0xE0 SHR DUP1 PUSH3 0x774360 EQ PUSH2 0x24 JUMPI PUSH2 0x22 JUMP JUMPDEST JUMPDEST STOP JUMPDEST PUSH2 0x3E PUSH1 0x4 DUP1 CALLDATASIZE SUB DUP2 ADD SWAP1 PUSH2 0x39 SWAP2 SWAP1 PUSH2 0x145 JUMP JUMPDEST PUSH2 0x54 JUMP JUMPDEST PUSH1 0x40 MLOAD PUSH2 0x4B SWAP2 SWAP1 PUSH2 0x1C0 JUMP JUMPDEST PUSH1 0x40 MLOAD DUP1 SWAP2 SUB SWAP1 RETURN JUMPDEST PUSH1 0x0 DUP2 MLOAD PUSH1 0x20 DUP4 ADD CALLVALUE CREATE SWAP1 POP PUSH1 0x0 PUSH20 0xFFFFFFFFFFFFFFFFFFFFFFFFFFFFFFFFFFFFFFFF AND DUP2 PUSH20 0xFFFFFFFFFFFFFFFFFFFFFFFFFFFFFFFFFFFFFFFF AND EQ ISZERO PUSH2 0xD0 JUMPI PUSH1 0x40 MLOAD PUSH32 0x8C379A000000000000000000000000000000000000000000000000000000000 DUP2 MSTORE PUSH1 0x4 ADD PUSH2 0xC7 SWAP1 PUSH2 0x1DB JUMP JUMPDEST PUSH1 0x40 MLOAD DUP1 SWAP2 SUB SWAP1 REVERT JUMPDEST SWAP2 SWAP1 POP JUMP JUMPDEST PUSH1 0x0 PUSH2 0xE8 PUSH2 0xE3 DUP5 PUSH2 0x220 JUMP JUMPDEST PUSH2 0x1FB JUMP JUMPDEST SWAP1 POP DUP3 DUP2 MSTORE PUSH1 0x20 DUP2 ADD DUP5 DUP5 DUP5 ADD GT ISZERO PUSH2 0x104 JUMPI PUSH2 0x103 PUSH2 0x308 JUMP JUMPDEST JUMPDEST PUSH2 0x10F DUP5 DUP3 DUP6 PUSH2 0x294 JUMP JUMPDEST POP SWAP4 SWAP3 POP POP POP JUMP JUMPDEST PUSH1 0x0 DUP3 PUSH1 0x1F DUP4 ADD SLT PUSH2 0x12C JUMPI PUSH2 0x12B PUSH2 0x303 JUMP JUMPDEST JUMPDEST DUP2 CALLDATALOAD PUSH2 0x13C DUP5 DUP3 PUSH1 0x20 DUP7 ADD PUSH2 0xD5 JUMP JUMPDEST SWAP2 POP POP SWAP3 SWAP2 POP POP JUMP JUMPDEST PUSH1 0x0 PUSH1 0x20 DUP3 DUP5 SUB SLT ISZERO PUSH2 0x15B JUMPI PUSH2 0x15A PUSH2 0x312 JUMP JUMPDEST JUMPDEST PUSH1 0x0 DUP3 ADD CALLDATALOAD PUSH8 0xFFFFFFFFFFFFFFFF DUP2 GT ISZERO PUSH2 0x179 JUMPI PUSH2 0x178 PUSH2 0x30D JUMP JUMPDEST JUMPDEST PUSH2 0x185 DUP5 DUP3 DUP6 ADD PUSH2 0x117 JUMP JUMPDEST SWAP2 POP POP SWAP3 SWAP2 POP POP JUMP JUMPDEST PUSH2 0x197 DUP2 PUSH2 0x262 JUMP JUMPDEST DUP3 MSTORE POP POP JUMP JUMPDEST PUSH1 0x0 PUSH2 0x1AA PUSH1 0xD DUP4 PUSH2 0x251 JUMP JUMPDEST SWAP2 POP PUSH2 0x1B5 DUP3 PUSH2 0x328 JUMP JUMPDEST PUSH1 0x20 DUP3 ADD SWAP1 POP SWAP2 SWAP1 POP JUMP JUMPDEST PUSH1 0x0 PUSH1 0x20 DUP3 ADD SWAP1 POP PUSH2 0x1D5 PUSH1 0x0 DUP4 ADD DUP5 PUSH2 0x18E JUMP JUMPDEST SWAP3 SWAP2 POP POP JUMP JUMPDEST PUSH1 0x0 PUSH1 0x20 DUP3 ADD SWAP1 POP DUP2 DUP2 SUB PUSH1 0x0 DUP4 ADD MSTORE PUSH2 0x1F4 DUP2 PUSH2 0x19D JUMP JUMPDEST SWAP1 POP SWAP2 SWAP1 POP JUMP JUMPDEST PUSH1 0x0 PUSH2 0x205 PUSH2 0x216 JUMP JUMPDEST SWAP1 POP PUSH2 0x211 DUP3 DUP3 PUSH2 0x2A3 JUMP JUMPDEST SWAP2 SWAP1 POP JUMP JUMPDEST PUSH1 0x0 PUSH1 0x40 MLOAD SWAP1 POP SWAP1 JUMP JUMPDEST PUSH1 0x0 PUSH8 0xFFFFFFFFFFFFFFFF DUP3 GT ISZERO PUSH2 0x23B JUMPI PUSH2 0x23A PUSH2 0x2D4 JUMP JUMPDEST JUMPDEST PUSH2 0x244 DUP3 PUSH2 0x317 JUMP JUMPDEST SWAP1 POP PUSH1 0x20 DUP2 ADD SWAP1 POP SWAP2 SWAP1 POP JUMP JUMPDEST PUSH1 0x0 DUP3 DUP3 MSTORE PUSH1 0x20 DUP3 ADD SWAP1 POP SWAP3 SWAP2 POP POP JUMP JUMPDEST PUSH1 0x0 PUSH2 0x26D DUP3 PUSH2 0x274 JUMP JUMPDEST SWAP1 POP SWAP2 SWAP1 POP JUMP JUMPDEST PUSH1 0x0 PUSH20 0xFFFFFFFFFFFFFFFFFFFFFFFFFFFFFFFFFFFFFFFF DUP3 AND SWAP1 POP SWAP2 SWAP1 POP JUMP JUMPDEST DUP3 DUP2 DUP4 CALLDATACOPY PUSH1 0x0 DUP4 DUP4 ADD MSTORE POP POP POP JUMP JUMPDEST PUSH2 0x2AC DUP3 PUSH2 0x317 JUMP JUMPDEST DUP2 ADD DUP2 DUP2 LT PUSH8 0xFFFFFFFFFFFFFFFF DUP3 GT OR ISZERO PUSH2 0x2CB JUMPI PUSH2 0x2CA PUSH2 0x2D4 JUMP JUMPDEST JUMPDEST DUP1 PUSH1 0x40 MSTORE POP POP POP JUMP JUMPDEST PUSH32 0x4E487B7100000000000000000000000000000000000000000000000000000000 PUSH1 0x0 MSTORE PUSH1 0x41 PUSH1 0x4 MSTORE PUSH1 0x24 PUSH1 0x0 REVERT JUMPDEST PUSH1 0x0 DUP1 REVERT JUMPDEST PUSH1 0x0 DUP1 REVERT JUMPDEST PUSH1 0x0 DUP1 REVERT JUMPDEST PUSH1 0x0 DUP1 REVERT JUMPDEST PUSH1 0x0 PUSH1 0x1F NOT PUSH1 0x1F DUP4 ADD AND SWAP1 POP SWAP2 SWAP1 POP JUMP JUMPDEST PUSH32 0x6465706C6F79206661696C656400000000000000000000000000000000000000 PUSH1 0x0 DUP3 ADD MSTORE POP JUMP INVALID LOG2 PUSH5 0x6970667358 0x22 SLT KECCAK256 PUSH7 0x52BB2F991BD9ED SWAP3 0xCB 0xD9 TIMESTAMP 0xD 0xDA COINBASE RETURNDATASIZE KECCAK256 0xBB CALLDATALOAD 0xFC 0xE7 CODESIZE PUSH8 0x48FF417BE913A22A MUL PUSH5 0x736F6C6343 STOP ADDMOD SMOD STOP CALLER "
				},
				"gasEstimates": {
					"creation": {
						"codeDepositCost": "180600",
						"executionCost": "226",
						"totalCost": "180826"
					},
					"external": {
						"": "85",
						"deploy(bytes)": "infinite"
					}
				},
				"methodIdentifiers": {
					"deploy(bytes)": "00774360"
				}
			},
			"storageLayout": {
				"storage": [],
				"types": null
			},
			"userdoc": {
				"kind": "user",
				"methods": {},
				"version": 1
			}
		}
	}
}