{
	"Day39_NewAccount.sol": {
		"AccountFactory": {
			"abi": [
				{
					"inputs": [
						{
							"internalType": "address",
							"name": "_owner",
							"type": "address"
						}
					],
					"name": "createAccount",
					"outputs": [],
					"stateMutability": "payable",
					"type": "function"
				}
			],
			"devdoc": {
				"kind": "dev",
				"methods": {},
				"version": 1
			},
			"evm": {
				"assembly": "    /* \"Day39_NewAccount.sol\":241:472  contract AccountFactory{... */\n  mstore(0x40, 0x80)\n  callvalue\n  dup1\n  iszero\n  tag_1\n  jumpi\n  0x00\n  dup1\n  revert\ntag_1:\n  pop\n  dataSize(sub_0)\n  dup1\n  dataOffset(sub_0)\n  0x00\n  codecopy\n  0x00\n  return\nstop\n\nsub_0: assembly {\n        /* \"Day39_NewAccount.sol\":241:472  contract AccountFactory{... */\n      mstore(0x40, 0x80)\n      jumpi(tag_1, lt(calldatasize, 0x04))\n      shr(0xe0, calldataload(0x00))\n      dup1\n      0x9859387b\n      eq\n      tag_2\n      jumpi\n    tag_1:\n      0x00\n      dup1\n      revert\n        /* \"Day39_NewAccount.sol\":307:469  function createAccount(address _owner) external payable {... */\n    tag_2:\n      tag_3\n      0x04\n      dup1\n      calldatasize\n      sub\n      dup2\n      add\n      swap1\n      tag_4\n      swap2\n      swap1\n      tag_5\n      jump\t// in\n    tag_4:\n      tag_6\n      jump\t// in\n    tag_3:\n      stop\n    tag_6:\n      pop\n      jump\t// out\n        /* \"#utility.yul\":7:146   */\n    tag_9:\n        /* \"#utility.yul\":53:58   */\n      0x00\n        /* \"#utility.yul\":91:97   */\n      dup2\n        /* \"#utility.yul\":78:98   */\n      calldataload\n        /* \"#utility.yul\":69:98   */\n      swap1\n      pop\n        /* \"#utility.yul\":107:140   */\n      tag_11\n        /* \"#utility.yul\":134:139   */\n      dup2\n        /* \"#utility.yul\":107:140   */\n      tag_12\n      jump\t// in\n    tag_11:\n        /* \"#utility.yul\":7:146   */\n      swap3\n      swap2\n      pop\n      pop\n      jump\t// out\n        /* \"#utility.yul\":152:481   */\n    tag_5:\n        /* \"#utility.yul\":211:217   */\n      0x00\n        /* \"#utility.yul\":260:262   */\n      0x20\n        /* \"#utility.yul\":248:257   */\n      dup3\n        /* \"#utility.yul\":239:246   */\n      dup5\n        /* \"#utility.yul\":235:258   */\n      sub\n        /* \"#utility.yul\":231:263   */\n      slt\n        /* \"#utility.yul\":228:347   */\n      iszero\n      tag_14\n      jumpi\n        /* \"#utility.yul\":266:345   */\n      tag_15\n      tag_16\n      jump\t// in\n    tag_15:\n        /* \"#utility.yul\":228:347   */\n    tag_14:\n        /* \"#utility.yul\":386:387   */\n      0x00\n        /* \"#utility.yul\":411:464   */\n      tag_17\n        /* \"#utility.yul\":456:463   */\n      dup5\n        /* \"#utility.yul\":447:453   */\n      dup3\n        /* \"#utility.yul\":436:445   */\n      dup6\n        /* \"#utility.yul\":432:454   */\n      add\n        /* \"#utility.yul\":411:464   */\n      tag_9\n      jump\t// in\n    tag_17:\n        /* \"#utility.yul\":401:464   */\n      swap2\n      pop\n        /* \"#utility.yul\":357:474   */\n      pop\n        /* \"#utility.yul\":152:481   */\n      swap3\n      swap2\n      pop\n      pop\n      jump\t// out\n        /* \"#utility.yul\":568:664   */\n    tag_20:\n        /* \"#utility.yul\":605:612   */\n      0x00\n        /* \"#utility.yul\":634:658   */\n      tag_22\n        /* \"#utility.yul\":652:657   */\n      dup3\n        /* \"#utility.yul\":634:658   */\n      tag_23\n      jump\t// in\n    tag_22:\n        /* \"#utility.yul\":623:658   */\n      swap1\n      pop\n        /* \"#utility.yul\":568:664   */\n      swap2\n      swap1\n      pop\n      jump\t// out\n        /* \"#utility.yul\":670:796   */\n    tag_23:\n        /* \"#utility.yul\":707:714   */\n      0x00\n        /* \"#utility.yul\":747:789   */\n      0xffffffffffffffffffffffffffffffffffffffff\n        /* \"#utility.yul\":740:745   */\n      dup3\n        /* \"#utility.yul\":736:790   */\n      and\n        /* \"#utility.yul\":725:790   */\n      swap1\n      pop\n        /* \"#utility.yul\":670:796   */\n      swap2\n      swap1\n      pop\n      jump\t// out\n        /* \"#utility.yul\":925:1042   */\n    tag_16:\n        /* \"#utility.yul\":1034:1035   */\n      0x00\n        /* \"#utility.yul\":1031:1032   */\n      dup1\n        /* \"#utility.yul\":1024:1036   */\n      revert\n        /* \"#utility.yul\":1048:1170   */\n    tag_12:\n        /* \"#utility.yul\":1121:1145   */\n      tag_29\n        /* \"#utility.yul\":1139:1144   */\n      dup2\n        /* \"#utility.yul\":1121:1145   */\n      tag_20\n      jump\t// in\n    tag_29:\n        /* \"#utility.yul\":1114:1119   */\n      dup2\n        /* \"#utility.yul\":1111:1146   */\n      eq\n        /* \"#utility.yul\":1101:1164   */\n      tag_30\n      jumpi\n        /* \"#utility.yul\":1160:1161   */\n      0x00\n        /* \"#utility.yul\":1157:1158   */\n      dup1\n        /* \"#utility.yul\":1150:1162   */\n      revert\n        /* \"#utility.yul\":1101:1164   */\n    tag_30:\n        /* \"#utility.yul\":1048:1170   */\n      pop\n      jump\t// out\n\n    auxdata: 0xa26469706673582212200c15e2f6f4a889865c40ce8e144a9595b34c0ff39f3d0fb4f360f42534be31fe64736f6c63430008070033\n}\n",
				"bytecode": {
					"linkReferences": {},
					"object": "608060405234801561001057600080fd5b5060f68061001f6000396000f3fe608060405260043610601c5760003560e01c80639859387b146021575b600080fd5b6037600480360381019060339190604f565b6039565b005b50565b60008135905060498160ac565b92915050565b600060208284031215606257606160a7565b5b6000606e84828501603c565b91505092915050565b60006080826087565b9050919050565b600073ffffffffffffffffffffffffffffffffffffffff82169050919050565b600080fd5b60b3816077565b811460bd57600080fd5b5056fea26469706673582212200c15e2f6f4a889865c40ce8e144a9595b34c0ff39f3d0fb4f360f42534be31fe64736f6c63430008070033",
					"opcodes": "PUSH1 0x80 PUSH1 0x40 MSTORE CALLVALUE DUP1 ISZERO PUSH2 0x10 JUMPI PUSH1 0x0 DUP1 REVERT JUMPDEST POP PUSH1 0xF6 DUP1 PUSH2 0x1F PUSH1 0x0 CODECOPY PUSH1 0x0 RETURN INVALID PUSH1 0x80 PUSH1 0x40 MSTORE PUSH1 0x4 CALLDATASIZE LT PUSH1 0x1C JUMPI PUSH1 0x0 CALLDATALOAD PUSH1 0xE0 SHR DUP1 PUSH4 0x9859387B EQ PUSH1 0x21 JUMPI JUMPDEST PUSH1 0x0 DUP1 REVERT JUMPDEST PUSH1 0x37 PUSH1 0x4 DUP1 CALLDATASIZE SUB DUP2 ADD SWAP1 PUSH1 0x33 SWAP2 SWAP1 PUSH1 0x4F JUMP JUMPDEST PUSH1 0x39 JUMP JUMPDEST STOP JUMPDEST POP JUMP JUMPDEST PUSH1 0x0 DUP2 CALLDATALOAD SWAP1 POP PUSH1 0x49 DUP2 PUSH1 0xAC JUMP JUMPDEST SWAP3 SWAP2 POP POP JUMP JUMPDEST PUSH1 0x0 PUSH1 0x20 DUP3 DUP5 SUB SLT ISZERO PUSH1 0x62 JUMPI PUSH1 0x61 PUSH1 0xA7 JUMP JUMPDEST JUMPDEST PUSH1 0x0 PUSH1 0x6E DUP5 DUP3 DUP6 ADD PUSH1 0x3C JUMP JUMPDEST SWAP2 POP POP SWAP3 SWAP2 POP POP JUMP JUMPDEST PUSH1 0x0 PUSH1 0x80 DUP3 PUSH1 0x87 JUMP JUMPDEST SWAP1 POP SWAP2 SWAP1 POP JUMP JUMPDEST PUSH1 0x0 PUSH20 0xFFFFFFFFFFFFFFFFFFFFFFFFFFFFFFFFFFFFFFFF DUP3 AND SWAP1 POP SWAP2 SWAP1 POP JUMP JUMPDEST PUSH1 0x0 DUP1 REVERT JUMPDEST PUSH1 0xB3 DUP2 PUSH1 0x77 JUMP JUMPDEST DUP2 EQ PUSH1 0xBD JUMPI PUSH1 0x0 DUP1 REVERT JUMPDEST POP JUMP INVALID LOG2 PUSH5 0x6970667358 0x22 SLT KECCAK256 0xC ISZERO 0xE2 0xF6 DELEGATECALL 0xA8 DUP10 DUP7 0x5C BLOCKHASH 0xCE DUP15 EQ 0x4A SWAP6 SWAP6 0xB3 0x4C 0xF RETURN SWAP16 RETURNDATASIZE 0xF 0xB4 RETURN PUSH1 0xF4 0x25 CALLVALUE 0xBE BALANCE INVALID PUSH5 0x736F6C6343 STOP ADDMOD SMOD STOP CALLER "
				},
				"gasEstimates": {
					"creation": {
						"codeDepositCost": "49200",
						"executionCost": "99",
						"totalCost": "49299"
					},
					"external": {
						"createAccount(address)": "409"
					}
				},
				"methodIdentifiers": {
					"createAccount(address)": "9859387b"
				}
			},
			"storageLayout": {
				"storage": [],
				"types": null
			},
			"userdoc": {
				"kind": "user",
				"methods": {},
				"version": 1
			}
		}
	}
}