{
	"Day39_NewAccount.sol": {
		"Account": {
			"abi": [
				{
					"inputs": [
						{
							"internalType": "address",
							"name": "_owner",
							"type": "address"
						}
					],
					"stateMutability": "payable",
					"type": "constructor"
				},
				{
					"inputs": [],
					"name": "bank",
					"outputs": [
						{
							"internalType": "address",
							"name": "",
							"type": "address"
						}
					],
					"stateMutability": "view",
					"type": "function"
				},
				{
					"inputs": [],
					"name": "owner",
					"outputs": [
						{
							"internalType": "address",
							"name": "",
							"type": "address"
						}
					],
					"stateMutability": "view",
					"type": "function"
				}
			],
			"devdoc": {
				"kind": "dev",
				"methods": {},
				"version": 1
			},
			"evm": {
				"assembly": "    /* \"Day39_NewAccount.sol\":59:238  contract Account {... */\n  mstore(0x40, 0x80)\n    /* \"Day39_NewAccount.sol\":137:235  constructor (address _owner) payable {... */\n  mload(0x40)\n  sub(codesize, bytecodeSize)\n  dup1\n  bytecodeSize\n  dup4\n  codecopy\n  dup2\n  dup2\n  add\n  0x40\n  mstore\n  dup2\n  add\n  swap1\n  tag_1\n  swap2\n  swap1\n  tag_2\n  jump\t// in\ntag_1:\n    /* \"Day39_NewAccount.sol\":192:202  msg.sender */\n  caller\n    /* \"Day39_NewAccount.sol\":185:189  bank */\n  0x00\n  dup1\n    /* \"Day39_NewAccount.sol\":185:202  bank = msg.sender */\n  0x0100\n  exp\n  dup2\n  sload\n  dup2\n  0xffffffffffffffffffffffffffffffffffffffff\n  mul\n  not\n  and\n  swap1\n  dup4\n  0xffffffffffffffffffffffffffffffffffffffff\n  and\n  mul\n  or\n  swap1\n  sstore\n  pop\n    /* \"Day39_NewAccount.sol\":221:227  _owner */\n  dup1\n    /* \"Day39_NewAccount.sol\":213:218  owner */\n  0x01\n  0x00\n    /* \"Day39_NewAccount.sol\":213:227  owner = _owner */\n  0x0100\n  exp\n  dup2\n  sload\n  dup2\n  0xffffffffffffffffffffffffffffffffffffffff\n  mul\n  not\n  and\n  swap1\n  dup4\n  0xffffffffffffffffffffffffffffffffffffffff\n  and\n  mul\n  or\n  swap1\n  sstore\n  pop\n    /* \"Day39_NewAccount.sol\":137:235  constructor (address _owner) payable {... */\n  pop\n    /* \"Day39_NewAccount.sol\":59:238  contract Account {... */\n  jump(tag_5)\n    /* \"#utility.yul\":7:150   */\ntag_7:\n    /* \"#utility.yul\":64:69   */\n  0x00\n    /* \"#utility.yul\":95:101   */\n  dup2\n    /* \"#utility.yul\":89:102   */\n  mload\n    /* \"#utility.yul\":80:102   */\n  swap1\n  pop\n    /* \"#utility.yul\":111:144   */\n  tag_9\n    /* \"#utility.yul\":138:143   */\n  dup2\n    /* \"#utility.yul\":111:144   */\n  tag_10\n  jump\t// in\ntag_9:\n    /* \"#utility.yul\":7:150   */\n  swap3\n  swap2\n  pop\n  pop\n  jump\t// out\n    /* \"#utility.yul\":156:507   */\ntag_2:\n    /* \"#utility.yul\":226:232   */\n  0x00\n    /* \"#utility.yul\":275:277   */\n  0x20\n    /* \"#utility.yul\":263:272   */\n  dup3\n    /* \"#utility.yul\":254:261   */\n  dup5\n    /* \"#utility.yul\":250:273   */\n  sub\n    /* \"#utility.yul\":246:278   */\n  slt\n    /* \"#utility.yul\":243:362   */\n  iszero\n  tag_12\n  jumpi\n    /* \"#utility.yul\":281:360   */\n  tag_13\n  tag_14\n  jump\t// in\ntag_13:\n    /* \"#utility.yul\":243:362   */\ntag_12:\n    /* \"#utility.yul\":401:402   */\n  0x00\n    /* \"#utility.yul\":426:490   */\n  tag_15\n    /* \"#utility.yul\":482:489   */\n  dup5\n    /* \"#utility.yul\":473:479   */\n  dup3\n    /* \"#utility.yul\":462:471   */\n  dup6\n    /* \"#utility.yul\":458:480   */\n  add\n    /* \"#utility.yul\":426:490   */\n  tag_7\n  jump\t// in\ntag_15:\n    /* \"#utility.yul\":416:490   */\n  swap2\n  pop\n    /* \"#utility.yul\":372:500   */\n  pop\n    /* \"#utility.yul\":156:507   */\n  swap3\n  swap2\n  pop\n  pop\n  jump\t// out\n    /* \"#utility.yul\":594:690   */\ntag_18:\n    /* \"#utility.yul\":631:638   */\n  0x00\n    /* \"#utility.yul\":660:684   */\n  tag_20\n    /* \"#utility.yul\":678:683   */\n  dup3\n    /* \"#utility.yul\":660:684   */\n  tag_21\n  jump\t// in\ntag_20:\n    /* \"#utility.yul\":649:684   */\n  swap1\n  pop\n    /* \"#utility.yul\":594:690   */\n  swap2\n  swap1\n  pop\n  jump\t// out\n    /* \"#utility.yul\":696:822   */\ntag_21:\n    /* \"#utility.yul\":733:740   */\n  0x00\n    /* \"#utility.yul\":773:815   */\n  0xffffffffffffffffffffffffffffffffffffffff\n    /* \"#utility.yul\":766:771   */\n  dup3\n    /* \"#utility.yul\":762:816   */\n  and\n    /* \"#utility.yul\":751:816   */\n  swap1\n  pop\n    /* \"#utility.yul\":696:822   */\n  swap2\n  swap1\n  pop\n  jump\t// out\n    /* \"#utility.yul\":951:1068   */\ntag_14:\n    /* \"#utility.yul\":1060:1061   */\n  0x00\n    /* \"#utility.yul\":1057:1058   */\n  dup1\n    /* \"#utility.yul\":1050:1062   */\n  revert\n    /* \"#utility.yul\":1074:1196   */\ntag_10:\n    /* \"#utility.yul\":1147:1171   */\n  tag_27\n    /* \"#utility.yul\":1165:1170   */\n  dup2\n    /* \"#utility.yul\":1147:1171   */\n  tag_18\n  jump\t// in\ntag_27:\n    /* \"#utility.yul\":1140:1145   */\n  dup2\n    /* \"#utility.yul\":1137:1172   */\n  eq\n    /* \"#utility.yul\":1127:1190   */\n  tag_28\n  jumpi\n    /* \"#utility.yul\":1186:1187   */\n  0x00\n    /* \"#utility.yul\":1183:1184   */\n  dup1\n    /* \"#utility.yul\":1176:1188   */\n  revert\n    /* \"#utility.yul\":1127:1190   */\ntag_28:\n    /* \"#utility.yul\":1074:1196   */\n  pop\n  jump\t// out\n    /* \"Day39_NewAccount.sol\":59:238  contract Account {... */\ntag_5:\n  dataSize(sub_0)\n  dup1\n  dataOffset(sub_0)\n  0x00\n  codecopy\n  0x00\n  return\nstop\n\nsub_0: assembly {\n        /* \"Day39_NewAccount.sol\":59:238  contract Account {... */\n      mstore(0x40, 0x80)\n      callvalue\n      dup1\n      iszero\n      tag_1\n      jumpi\n      0x00\n      dup1\n      revert\n    tag_1:\n      pop\n      jumpi(tag_2, lt(calldatasize, 0x04))\n      shr(0xe0, calldataload(0x00))\n      dup1\n      0x76cdb03b\n      eq\n      tag_3\n      jumpi\n      dup1\n      0x8da5cb5b\n      eq\n      tag_4\n      jumpi\n    tag_2:\n      0x00\n      dup1\n      revert\n        /* \"Day39_NewAccount.sol\":83:102  address public bank */\n    tag_3:\n      tag_5\n      tag_6\n      jump\t// in\n    tag_5:\n      mload(0x40)\n      tag_7\n      swap2\n      swap1\n      tag_8\n      jump\t// in\n    tag_7:\n      mload(0x40)\n      dup1\n      swap2\n      sub\n      swap1\n      return\n        /* \"Day39_NewAccount.sol\":109:129  address public owner */\n    tag_4:\n      tag_9\n      tag_10\n      jump\t// in\n    tag_9:\n      mload(0x40)\n      tag_11\n      swap2\n      swap1\n      tag_8\n      jump\t// in\n    tag_11:\n      mload(0x40)\n      dup1\n      swap2\n      sub\n      swap1\n      return\n        /* \"Day39_NewAccount.sol\":83:102  address public bank */\n    tag_6:\n      0x00\n      dup1\n      sload\n      swap1\n      0x0100\n      exp\n      swap1\n      div\n      0xffffffffffffffffffffffffffffffffffffffff\n      and\n      dup2\n      jump\t// out\n        /* \"Day39_NewAccount.sol\":109:129  address public owner */\n    tag_10:\n      0x01\n      0x00\n      swap1\n      sload\n      swap1\n      0x0100\n      exp\n      swap1\n      div\n      0xffffffffffffffffffffffffffffffffffffffff\n      and\n      dup2\n      jump\t// out\n        /* \"#utility.yul\":7:125   */\n    tag_13:\n        /* \"#utility.yul\":94:118   */\n      tag_15\n        /* \"#utility.yul\":112:117   */\n      dup2\n        /* \"#utility.yul\":94:118   */\n      tag_16\n      jump\t// in\n    tag_15:\n        /* \"#utility.yul\":89:92   */\n      dup3\n        /* \"#utility.yul\":82:119   */\n      mstore\n        /* \"#utility.yul\":7:125   */\n      pop\n      pop\n      jump\t// out\n        /* \"#utility.yul\":131:353   */\n    tag_8:\n        /* \"#utility.yul\":224:228   */\n      0x00\n        /* \"#utility.yul\":262:264   */\n      0x20\n        /* \"#utility.yul\":251:260   */\n      dup3\n        /* \"#utility.yul\":247:265   */\n      add\n        /* \"#utility.yul\":239:265   */\n      swap1\n      pop\n        /* \"#utility.yul\":275:346   */\n      tag_18\n        /* \"#utility.yul\":343:344   */\n      0x00\n        /* \"#utility.yul\":332:341   */\n      dup4\n        /* \"#utility.yul\":328:345   */\n      add\n        /* \"#utility.yul\":319:325   */\n      dup5\n        /* \"#utility.yul\":275:346   */\n      tag_13\n      jump\t// in\n    tag_18:\n        /* \"#utility.yul\":131:353   */\n      swap3\n      swap2\n      pop\n      pop\n      jump\t// out\n        /* \"#utility.yul\":359:455   */\n    tag_16:\n        /* \"#utility.yul\":396:403   */\n      0x00\n        /* \"#utility.yul\":425:449   */\n      tag_20\n        /* \"#utility.yul\":443:448   */\n      dup3\n        /* \"#utility.yul\":425:449   */\n      tag_21\n      jump\t// in\n    tag_20:\n        /* \"#utility.yul\":414:449   */\n      swap1\n      pop\n        /* \"#utility.yul\":359:455   */\n      swap2\n      swap1\n      pop\n      jump\t// out\n        /* \"#utility.yul\":461:587   */\n    tag_21:\n        /* \"#utility.yul\":498:505   */\n      0x00\n        /* \"#utility.yul\":538:580   */\n      0xffffffffffffffffffffffffffffffffffffffff\n        /* \"#utility.yul\":531:536   */\n      dup3\n        /* \"#utility.yul\":527:581   */\n      and\n        /* \"#utility.yul\":516:581   */\n      swap1\n      pop\n        /* \"#utility.yul\":461:587   */\n      swap2\n      swap1\n      pop\n      jump\t// out\n\n    auxdata: 0xa26469706673582212202e53d1be8b27cc5af460e9efcace5ff1d7c591b664882500322c40d20d04602664736f6c63430008070033\n}\n",
				"bytecode": {
					"linkReferences": {},
					"object": "608060405260405161029e38038061029e833981810160405281019061002591906100c1565b336000806101000a81548173ffffffffffffffffffffffffffffffffffffffff021916908373ffffffffffffffffffffffffffffffffffffffff16021790555080600160006101000a81548173ffffffffffffffffffffffffffffffffffffffff021916908373ffffffffffffffffffffffffffffffffffffffff1602179055505061013c565b6000815190506100bb81610125565b92915050565b6000602082840312156100d7576100d6610120565b5b60006100e5848285016100ac565b91505092915050565b60006100f982610100565b9050919050565b600073ffffffffffffffffffffffffffffffffffffffff82169050919050565b600080fd5b61012e816100ee565b811461013957600080fd5b50565b6101538061014b6000396000f3fe608060405234801561001057600080fd5b50600436106100365760003560e01c806376cdb03b1461003b5780638da5cb5b14610059575b600080fd5b610043610077565b60405161005091906100d0565b60405180910390f35b61006161009b565b60405161006e91906100d0565b60405180910390f35b60008054906101000a900473ffffffffffffffffffffffffffffffffffffffff1681565b600160009054906101000a900473ffffffffffffffffffffffffffffffffffffffff1681565b6100ca816100eb565b82525050565b60006020820190506100e560008301846100c1565b92915050565b60006100f6826100fd565b9050919050565b600073ffffffffffffffffffffffffffffffffffffffff8216905091905056fea26469706673582212202e53d1be8b27cc5af460e9efcace5ff1d7c591b664882500322c40d20d04602664736f6c63430008070033",
					"opcodes": "PUSH1 0x80 PUSH1 0x40 MSTORE PUSH1 0x40 MLOAD PUSH2 0x29E CODESIZE SUB DUP1 PUSH2 0x29E DUP4 CODECOPY DUP2 DUP2 ADD PUSH1 0x40 MSTORE DUP2 ADD SWAP1 PUSH2 0x25 SWAP2 SWAP1 PUSH2 0xC1 JUMP JUMPDEST CALLER PUSH1 0x0 DUP1 PUSH2 0x100 EXP DUP2 SLOAD DUP2 PUSH20 0xFFFFFFFFFFFFFFFFFFFFFFFFFFFFFFFFFFFFFFFF MUL NOT AND SWAP1 DUP4 PUSH20 0xFFFFFFFFFFFFFFFFFFFFFFFFFFFFFFFFFFFFFFFF AND MUL OR SWAP1 SSTORE POP DUP1 PUSH1 0x1 PUSH1 0x0 PUSH2 0x100 EXP DUP2 SLOAD DUP2 PUSH20 0xFFFFFFFFFFFFFFFFFFFFFFFFFFFFFFFFFFFFFFFF MUL NOT AND SWAP1 DUP4 PUSH20 0xFFFFFFFFFFFFFFFFFFFFFFFFFFFFFFFFFFFFFFFF AND MUL OR SWAP1 SSTORE POP POP PUSH2 0x13C JUMP JUMPDEST PUSH1 0x0 DUP2 MLOAD SWAP1 POP PUSH2 0xBB DUP2 PUSH2 0x125 JUMP JUMPDEST SWAP3 SWAP2 POP POP JUMP JUMPDEST PUSH1 0x0 PUSH1 0x20 DUP3 DUP5 SUB SLT ISZERO PUSH2 0xD7 JUMPI PUSH2 0xD6 PUSH2 0x120 JUMP JUMPDEST JUMPDEST PUSH1 0x0 PUSH2 0xE5 DUP5 DUP3 DUP6 ADD PUSH2 0xAC JUMP JUMPDEST SWAP2 POP POP SWAP3 SWAP2 POP POP JUMP JUMPDEST PUSH1 0x0 PUSH2 0xF9 DUP3 PUSH2 0x100 JUMP JUMPDEST SWAP1 POP SWAP2 SWAP1 POP JUMP JUMPDEST PUSH1 0x0 PUSH20 0xFFFFFFFFFFFFFFFFFFFFFFFFFFFFFFFFFFFFFFFF DUP3 AND SWAP1 POP SWAP2 SWAP1 POP JUMP JUMPDEST PUSH1 0x0 DUP1 REVERT JUMPDEST PUSH2 0x12E DUP2 PUSH2 0xEE JUMP JUMPDEST DUP2 EQ PUSH2 0x139 JUMPI PUSH1 0x0 DUP1 REVERT JUMPDEST POP JUMP JUMPDEST PUSH2 0x153 DUP1 PUSH2 0x14B PUSH1 0x0 CODECOPY PUSH1 0x0 RETURN INVALID PUSH1 0x80 PUSH1 0x40 MSTORE CALLVALUE DUP1 ISZERO PUSH2 0x10 JUMPI PUSH1 0x0 DUP1 REVERT JUMPDEST POP PUSH1 0x4 CALLDATASIZE LT PUSH2 0x36 JUMPI PUSH1 0x0 CALLDATALOAD PUSH1 0xE0 SHR DUP1 PUSH4 0x76CDB03B EQ PUSH2 0x3B JUMPI DUP1 PUSH4 0x8DA5CB5B EQ PUSH2 0x59 JUMPI JUMPDEST PUSH1 0x0 DUP1 REVERT JUMPDEST PUSH2 0x43 PUSH2 0x77 JUMP JUMPDEST PUSH1 0x40 MLOAD PUSH2 0x50 SWAP2 SWAP1 PUSH2 0xD0 JUMP JUMPDEST PUSH1 0x40 MLOAD DUP1 SWAP2 SUB SWAP1 RETURN JUMPDEST PUSH2 0x61 PUSH2 0x9B JUMP JUMPDEST PUSH1 0x40 MLOAD PUSH2 0x6E SWAP2 SWAP1 PUSH2 0xD0 JUMP JUMPDEST PUSH1 0x40 MLOAD DUP1 SWAP2 SUB SWAP1 RETURN JUMPDEST PUSH1 0x0 DUP1 SLOAD SWAP1 PUSH2 0x100 EXP SWAP1 DIV PUSH20 0xFFFFFFFFFFFFFFFFFFFFFFFFFFFFFFFFFFFFFFFF AND DUP2 JUMP JUMPDEST PUSH1 0x1 PUSH1 0x0 SWAP1 SLOAD SWAP1 PUSH2 0x100 EXP SWAP1 DIV PUSH20 0xFFFFFFFFFFFFFFFFFFFFFFFFFFFFFFFFFFFFFFFF AND DUP2 JUMP JUMPDEST PUSH2 0xCA DUP2 PUSH2 0xEB JUMP JUMPDEST DUP3 MSTORE POP POP JUMP JUMPDEST PUSH1 0x0 PUSH1 0x20 DUP3 ADD SWAP1 POP PUSH2 0xE5 PUSH1 0x0 DUP4 ADD DUP5 PUSH2 0xC1 JUMP JUMPDEST SWAP3 SWAP2 POP POP JUMP JUMPDEST PUSH1 0x0 PUSH2 0xF6 DUP3 PUSH2 0xFD JUMP JUMPDEST SWAP1 POP SWAP2 SWAP1 POP JUMP JUMPDEST PUSH1 0x0 PUSH20 0xFFFFFFFFFFFFFFFFFFFFFFFFFFFFFFFFFFFFFFFF DUP3 AND SWAP1 POP SWAP2 SWAP1 POP JUMP INVALID LOG2 PUSH5 0x6970667358 0x22 SLT KECCAK256 0x2E MSTORE8 0xD1 0xBE DUP12 0x27 0xCC GAS DELEGATECALL PUSH1 0xE9 0xEF 0xCA 0xCE 0x5F CALL 0xD7 0xC5 SWAP2 0xB6 PUSH5 0x882500322C BLOCKHASH 0xD2 0xD DIV PUSH1 0x26 PUSH5 0x736F6C6343 STOP ADDMOD SMOD STOP CALLER "
				},
				"gasEstimates": {
					"creation": {
						"codeDepositCost": "67800",
						"executionCost": "infinite",
						"totalCost": "infinite"
					},
					"external": {
						"bank()": "2489",
						"owner()": "2514"
					}
				},
				"methodIdentifiers": {
					"bank()": "76cdb03b",
					"owner()": "8da5cb5b"
				}
			},
			"storageLayout": {
				"storage": [
					{
						"astId": 3,
						"contract": "Day39_NewAccount.sol:Account",
						"label": "bank",
						"offset": 0,
						"slot": "0",
						"type": "t_address"
					},
					{
						"astId": 5,
						"contract": "Day39_NewAccount.sol:Account",
						"label": "owner",
						"offset": 0,
						"slot": "1",
						"type": "t_address"
					}
				],
				"types": {
					"t_address": {
						"encoding": "inplace",
						"label": "address",
						"numberOfBytes": "20"
					}
				}
			},
			"userdoc": {
				"kind": "user",
				"methods": {},
				"version": 1
			}
		}
	}
}