{
	"Day14_Outputs.sol": {
		"FunctionOutput": {
			"abi": [
				{
					"inputs": [],
					"name": "a",
					"outputs": [
						{
							"internalType": "uint256",
							"name": "",
							"type": "uint256"
						}
					],
					"stateMutability": "view",
					"type": "function"
				},
				{
					"inputs": [],
					"name": "assigned",
					"outputs": [
						{
							"internalType": "uint256",
							"name": "x",
							"type": "uint256"
						},
						{
							"internalType": "bool",
							"name": "b",
							"type": "bool"
						}
					],
					"stateMutability": "pure",
					"type": "function"
				},
				{
					"inputs": [],
					"name": "c",
					"outputs": [
						{
							"internalType": "bool",
							"name": "",
							"type": "bool"
						}
					],
					"stateMutability": "view",
					"type": "function"
				},
				{
					"inputs": [],
					"name": "destructuringAssignments",
					"outputs": [
						{
							"internalType": "uint256",
							"name": "",
							"type": "uint256"
						},
						{
							"internalType": "bool",
							"name": "",
							"type": "bool"
						}
					],
					"stateMutability": "pure",
					"type": "function"
				},
				{
					"inputs": [],
					"name": "named",
					"outputs": [
						{
							"internalType": "uint256",
							"name": "x",
							"type": "uint256"
						},
						{
							"internalType": "bool",
							"name": "b",
							"type": "bool"
						}
					],
					"stateMutability": "pure",
					"type": "function"
				},
				{
					"inputs": [],
					"name": "returnMany",
					"outputs": [
						{
							"internalType": "uint256",
							"name": "",
							"type": "uint256"
						},
						{
							"internalType": "bool",
							"name": "",
							"type": "bool"
						}
					],
					"stateMutability": "pure",
					"type": "function"
				}
			],
			"devdoc": {
				"kind": "dev",
				"methods": {},
				"version": 1
			},
			"evm": {
				"assembly": "    /* \"Day14_Outputs.sol\":129:655  contract FunctionOutput {... */\n  mstore(0x40, 0x80)\n  callvalue\n  dup1\n  iszero\n  tag_1\n  jumpi\n  0x00\n  dup1\n  revert\ntag_1:\n  pop\n  dataSize(sub_0)\n  dup1\n  dataOffset(sub_0)\n  0x00\n  codecopy\n  0x00\n  return\nstop\n\nsub_0: assembly {\n        /* \"Day14_Outputs.sol\":129:655  contract FunctionOutput {... */\n      mstore(0x40, 0x80)\n      callvalue\n      dup1\n      iszero\n      tag_1\n      jumpi\n      0x00\n      dup1\n      revert\n    tag_1:\n      pop\n      jumpi(tag_2, lt(calldatasize, 0x04))\n      shr(0xe0, calldataload(0x00))\n      dup1\n      0x0dbe671f\n      eq\n      tag_3\n      jumpi\n      dup1\n      0x45f907a8\n      eq\n      tag_4\n      jumpi\n      dup1\n      0x68873440\n      eq\n      tag_5\n      jumpi\n      dup1\n      0x86887544\n      eq\n      tag_6\n      jumpi\n      dup1\n      0xadb4d990\n      eq\n      tag_7\n      jumpi\n      dup1\n      0xc3da42b8\n      eq\n      tag_8\n      jumpi\n    tag_2:\n      0x00\n      dup1\n      revert\n        /* \"Day14_Outputs.sol\":160:173  uint public a */\n    tag_3:\n      tag_9\n      tag_10\n      jump\t// in\n    tag_9:\n      mload(0x40)\n      tag_11\n      swap2\n      swap1\n      tag_12\n      jump\t// in\n    tag_11:\n      mload(0x40)\n      dup1\n      swap2\n      sub\n      swap1\n      return\n        /* \"Day14_Outputs.sol\":296:384  function named () public pure returns (uint x , bool b) {... */\n    tag_4:\n      tag_13\n      tag_14\n      jump\t// in\n    tag_13:\n      mload(0x40)\n      tag_15\n      swap3\n      swap2\n      swap1\n      tag_16\n      jump\t// in\n    tag_15:\n      mload(0x40)\n      dup1\n      swap2\n      sub\n      swap1\n      return\n        /* \"Day14_Outputs.sol\":495:653  function destructuringAssignments () public pure returns (uint , bool) {... */\n    tag_5:\n      tag_17\n      tag_18\n      jump\t// in\n    tag_17:\n      mload(0x40)\n      tag_19\n      swap3\n      swap2\n      swap1\n      tag_16\n      jump\t// in\n    tag_19:\n      mload(0x40)\n      dup1\n      swap2\n      sub\n      swap1\n      return\n        /* \"Day14_Outputs.sol\":201:290  function returnMany () public pure returns (uint , bool) {... */\n    tag_6:\n      tag_20\n      tag_21\n      jump\t// in\n    tag_20:\n      mload(0x40)\n      tag_22\n      swap3\n      swap2\n      swap1\n      tag_16\n      jump\t// in\n    tag_22:\n      mload(0x40)\n      dup1\n      swap2\n      sub\n      swap1\n      return\n        /* \"Day14_Outputs.sol\":390:489  function assigned () public pure returns (uint x , bool b) {... */\n    tag_7:\n      tag_23\n      tag_24\n      jump\t// in\n    tag_23:\n      mload(0x40)\n      tag_25\n      swap3\n      swap2\n      swap1\n      tag_16\n      jump\t// in\n    tag_25:\n      mload(0x40)\n      dup1\n      swap2\n      sub\n      swap1\n      return\n        /* \"Day14_Outputs.sol\":180:193  bool public c */\n    tag_8:\n      tag_26\n      tag_27\n      jump\t// in\n    tag_26:\n      mload(0x40)\n      tag_28\n      swap2\n      swap1\n      tag_29\n      jump\t// in\n    tag_28:\n      mload(0x40)\n      dup1\n      swap2\n      sub\n      swap1\n      return\n        /* \"Day14_Outputs.sol\":160:173  uint public a */\n    tag_10:\n      sload(0x00)\n      dup2\n      jump\t// out\n        /* \"Day14_Outputs.sol\":296:384  function named () public pure returns (uint x , bool b) {... */\n    tag_14:\n        /* \"Day14_Outputs.sol\":335:341  uint x */\n      0x00\n        /* \"Day14_Outputs.sol\":344:350  bool b */\n      dup1\n        /* \"Day14_Outputs.sol\":370:371  1 */\n      0x01\n        /* \"Day14_Outputs.sol\":372:376  true */\n      dup1\n        /* \"Day14_Outputs.sol\":362:377  return (1,true) */\n      swap2\n      pop\n      swap2\n      pop\n        /* \"Day14_Outputs.sol\":296:384  function named () public pure returns (uint x , bool b) {... */\n      swap1\n      swap2\n      jump\t// out\n        /* \"Day14_Outputs.sol\":495:653  function destructuringAssignments () public pure returns (uint , bool) {... */\n    tag_18:\n        /* \"Day14_Outputs.sol\":553:557  uint */\n      0x00\n        /* \"Day14_Outputs.sol\":560:564  bool */\n      dup1\n        /* \"Day14_Outputs.sol\":623:630  bool _c */\n      0x00\n        /* \"Day14_Outputs.sol\":634:646  returnMany() */\n      tag_32\n        /* \"Day14_Outputs.sol\":634:644  returnMany */\n      tag_21\n        /* \"Day14_Outputs.sol\":634:646  returnMany() */\n      jump\t// in\n    tag_32:\n        /* \"Day14_Outputs.sol\":620:646  (, bool _c) = returnMany() */\n      swap2\n      pop\n      pop\n        /* \"Day14_Outputs.sol\":566:653  {... */\n      pop\n        /* \"Day14_Outputs.sol\":495:653  function destructuringAssignments () public pure returns (uint , bool) {... */\n      swap1\n      swap2\n      jump\t// out\n        /* \"Day14_Outputs.sol\":201:290  function returnMany () public pure returns (uint , bool) {... */\n    tag_21:\n        /* \"Day14_Outputs.sol\":245:249  uint */\n      0x00\n        /* \"Day14_Outputs.sol\":252:256  bool */\n      dup1\n        /* \"Day14_Outputs.sol\":276:277  1 */\n      0x01\n        /* \"Day14_Outputs.sol\":278:282  true */\n      dup1\n        /* \"Day14_Outputs.sol\":268:283  return (1,true) */\n      swap2\n      pop\n      swap2\n      pop\n        /* \"Day14_Outputs.sol\":201:290  function returnMany () public pure returns (uint , bool) {... */\n      swap1\n      swap2\n      jump\t// out\n        /* \"Day14_Outputs.sol\":390:489  function assigned () public pure returns (uint x , bool b) {... */\n    tag_24:\n        /* \"Day14_Outputs.sol\":432:438  uint x */\n      0x00\n        /* \"Day14_Outputs.sol\":441:447  bool b */\n      dup1\n        /* \"Day14_Outputs.sol\":463:464  1 */\n      0x01\n        /* \"Day14_Outputs.sol\":459:464  x = 1 */\n      swap2\n      pop\n        /* \"Day14_Outputs.sol\":478:482  true */\n      0x01\n        /* \"Day14_Outputs.sol\":474:482  b = true */\n      swap1\n      pop\n        /* \"Day14_Outputs.sol\":390:489  function assigned () public pure returns (uint x , bool b) {... */\n      swap1\n      swap2\n      jump\t// out\n        /* \"Day14_Outputs.sol\":180:193  bool public c */\n    tag_27:\n      0x01\n      0x00\n      swap1\n      sload\n      swap1\n      0x0100\n      exp\n      swap1\n      div\n      0xff\n      and\n      dup2\n      jump\t// out\n        /* \"#utility.yul\":7:116   */\n    tag_36:\n        /* \"#utility.yul\":88:109   */\n      tag_38\n        /* \"#utility.yul\":103:108   */\n      dup2\n        /* \"#utility.yul\":88:109   */\n      tag_39\n      jump\t// in\n    tag_38:\n        /* \"#utility.yul\":83:86   */\n      dup3\n        /* \"#utility.yul\":76:110   */\n      mstore\n        /* \"#utility.yul\":7:116   */\n      pop\n      pop\n      jump\t// out\n        /* \"#utility.yul\":122:240   */\n    tag_40:\n        /* \"#utility.yul\":209:233   */\n      tag_42\n        /* \"#utility.yul\":227:232   */\n      dup2\n        /* \"#utility.yul\":209:233   */\n      tag_43\n      jump\t// in\n    tag_42:\n        /* \"#utility.yul\":204:207   */\n      dup3\n        /* \"#utility.yul\":197:234   */\n      mstore\n        /* \"#utility.yul\":122:240   */\n      pop\n      pop\n      jump\t// out\n        /* \"#utility.yul\":246:456   */\n    tag_29:\n        /* \"#utility.yul\":333:337   */\n      0x00\n        /* \"#utility.yul\":371:373   */\n      0x20\n        /* \"#utility.yul\":360:369   */\n      dup3\n        /* \"#utility.yul\":356:374   */\n      add\n        /* \"#utility.yul\":348:374   */\n      swap1\n      pop\n        /* \"#utility.yul\":384:449   */\n      tag_45\n        /* \"#utility.yul\":446:447   */\n      0x00\n        /* \"#utility.yul\":435:444   */\n      dup4\n        /* \"#utility.yul\":431:448   */\n      add\n        /* \"#utility.yul\":422:428   */\n      dup5\n        /* \"#utility.yul\":384:449   */\n      tag_36\n      jump\t// in\n    tag_45:\n        /* \"#utility.yul\":246:456   */\n      swap3\n      swap2\n      pop\n      pop\n      jump\t// out\n        /* \"#utility.yul\":462:684   */\n    tag_12:\n        /* \"#utility.yul\":555:559   */\n      0x00\n        /* \"#utility.yul\":593:595   */\n      0x20\n        /* \"#utility.yul\":582:591   */\n      dup3\n        /* \"#utility.yul\":578:596   */\n      add\n        /* \"#utility.yul\":570:596   */\n      swap1\n      pop\n        /* \"#utility.yul\":606:677   */\n      tag_47\n        /* \"#utility.yul\":674:675   */\n      0x00\n        /* \"#utility.yul\":663:672   */\n      dup4\n        /* \"#utility.yul\":659:676   */\n      add\n        /* \"#utility.yul\":650:656   */\n      dup5\n        /* \"#utility.yul\":606:677   */\n      tag_40\n      jump\t// in\n    tag_47:\n        /* \"#utility.yul\":462:684   */\n      swap3\n      swap2\n      pop\n      pop\n      jump\t// out\n        /* \"#utility.yul\":690:1010   */\n    tag_16:\n        /* \"#utility.yul\":805:809   */\n      0x00\n        /* \"#utility.yul\":843:845   */\n      0x40\n        /* \"#utility.yul\":832:841   */\n      dup3\n        /* \"#utility.yul\":828:846   */\n      add\n        /* \"#utility.yul\":820:846   */\n      swap1\n      pop\n        /* \"#utility.yul\":856:927   */\n      tag_49\n        /* \"#utility.yul\":924:925   */\n      0x00\n        /* \"#utility.yul\":913:922   */\n      dup4\n        /* \"#utility.yul\":909:926   */\n      add\n        /* \"#utility.yul\":900:906   */\n      dup6\n        /* \"#utility.yul\":856:927   */\n      tag_40\n      jump\t// in\n    tag_49:\n        /* \"#utility.yul\":937:1003   */\n      tag_50\n        /* \"#utility.yul\":999:1001   */\n      0x20\n        /* \"#utility.yul\":988:997   */\n      dup4\n        /* \"#utility.yul\":984:1002   */\n      add\n        /* \"#utility.yul\":975:981   */\n      dup5\n        /* \"#utility.yul\":937:1003   */\n      tag_36\n      jump\t// in\n    tag_50:\n        /* \"#utility.yul\":690:1010   */\n      swap4\n      swap3\n      pop\n      pop\n      pop\n      jump\t// out\n        /* \"#utility.yul\":1016:1106   */\n    tag_39:\n        /* \"#utility.yul\":1050:1057   */\n      0x00\n        /* \"#utility.yul\":1093:1098   */\n      dup2\n        /* \"#utility.yul\":1086:1099   */\n      iszero\n        /* \"#utility.yul\":1079:1100   */\n      iszero\n        /* \"#utility.yul\":1068:1100   */\n      swap1\n      pop\n        /* \"#utility.yul\":1016:1106   */\n      swap2\n      swap1\n      pop\n      jump\t// out\n        /* \"#utility.yul\":1112:1189   */\n    tag_43:\n        /* \"#utility.yul\":1149:1156   */\n      0x00\n        /* \"#utility.yul\":1178:1183   */\n      dup2\n        /* \"#utility.yul\":1167:1183   */\n      swap1\n      pop\n        /* \"#utility.yul\":1112:1189   */\n      swap2\n      swap1\n      pop\n      jump\t// out\n\n    auxdata: 0xa2646970667358221220862d5792a8d25fafa6e514b4e013d58ae939d900548cc1db797528b99c8f562664736f6c63430008070033\n}\n",
				"bytecode": {
					"linkReferences": {},
					"object": "608060405234801561001057600080fd5b50610241806100206000396000f3fe608060405234801561001057600080fd5b50600436106100625760003560e01c80630dbe671f1461006757806345f907a81461008557806368873440146100a457806386887544146100c3578063adb4d990146100e2578063c3da42b814610101575b600080fd5b61006f61011f565b60405161007c91906101b1565b60405180910390f35b61008d610125565b60405161009b9291906101cc565b60405180910390f35b6100ac610133565b6040516100ba9291906101cc565b60405180910390f35b6100cb610148565b6040516100d99291906101cc565b60405180910390f35b6100ea610156565b6040516100f89291906101cc565b60405180910390f35b610109610165565b6040516101169190610196565b60405180910390f35b60005481565b600080600180915091509091565b6000806000610140610148565b915050509091565b600080600180915091509091565b60008060019150600190509091565b600160009054906101000a900460ff1681565b610181816101f5565b82525050565b61019081610201565b82525050565b60006020820190506101ab6000830184610178565b92915050565b60006020820190506101c66000830184610187565b92915050565b60006040820190506101e16000830185610187565b6101ee6020830184610178565b9392505050565b60008115159050919050565b600081905091905056fea2646970667358221220862d5792a8d25fafa6e514b4e013d58ae939d900548cc1db797528b99c8f562664736f6c63430008070033",
					"opcodes": "PUSH1 0x80 PUSH1 0x40 MSTORE CALLVALUE DUP1 ISZERO PUSH2 0x10 JUMPI PUSH1 0x0 DUP1 REVERT JUMPDEST POP PUSH2 0x241 DUP1 PUSH2 0x20 PUSH1 0x0 CODECOPY PUSH1 0x0 RETURN INVALID PUSH1 0x80 PUSH1 0x40 MSTORE CALLVALUE DUP1 ISZERO PUSH2 0x10 JUMPI PUSH1 0x0 DUP1 REVERT JUMPDEST POP PUSH1 0x4 CALLDATASIZE LT PUSH2 0x62 JUMPI PUSH1 0x0 CALLDATALOAD PUSH1 0xE0 SHR DUP1 PUSH4 0xDBE671F EQ PUSH2 0x67 JUMPI DUP1 PUSH4 0x45F907A8 EQ PUSH2 0x85 JUMPI DUP1 PUSH4 0x68873440 EQ PUSH2 0xA4 JUMPI DUP1 PUSH4 0x86887544 EQ PUSH2 0xC3 JUMPI DUP1 PUSH4 0xADB4D990 EQ PUSH2 0xE2 JUMPI DUP1 PUSH4 0xC3DA42B8 EQ PUSH2 0x101 JUMPI JUMPDEST PUSH1 0x0 DUP1 REVERT JUMPDEST PUSH2 0x6F PUSH2 0x11F JUMP JUMPDEST PUSH1 0x40 MLOAD PUSH2 0x7C SWAP2 SWAP1 PUSH2 0x1B1 JUMP JUMPDEST PUSH1 0x40 MLOAD DUP1 SWAP2 SUB SWAP1 RETURN JUMPDEST PUSH2 0x8D PUSH2 0x125 JUMP JUMPDEST PUSH1 0x40 MLOAD PUSH2 0x9B SWAP3 SWAP2 SWAP1 PUSH2 0x1CC JUMP JUMPDEST PUSH1 0x40 MLOAD DUP1 SWAP2 SUB SWAP1 RETURN JUMPDEST PUSH2 0xAC PUSH2 0x133 JUMP JUMPDEST PUSH1 0x40 MLOAD PUSH2 0xBA SWAP3 SWAP2 SWAP1 PUSH2 0x1CC JUMP JUMPDEST PUSH1 0x40 MLOAD DUP1 SWAP2 SUB SWAP1 RETURN JUMPDEST PUSH2 0xCB PUSH2 0x148 JUMP JUMPDEST PUSH1 0x40 MLOAD PUSH2 0xD9 SWAP3 SWAP2 SWAP1 PUSH2 0x1CC JUMP JUMPDEST PUSH1 0x40 MLOAD DUP1 SWAP2 SUB SWAP1 RETURN JUMPDEST PUSH2 0xEA PUSH2 0x156 JUMP JUMPDEST PUSH1 0x40 MLOAD PUSH2 0xF8 SWAP3 SWAP2 SWAP1 PUSH2 0x1CC JUMP JUMPDEST PUSH1 0x40 MLOAD DUP1 SWAP2 SUB SWAP1 RETURN JUMPDEST PUSH2 0x109 PUSH2 0x165 JUMP JUMPDEST PUSH1 0x40 MLOAD PUSH2 0x116 SWAP2 SWAP1 PUSH2 0x196 JUMP JUMPDEST PUSH1 0x40 MLOAD DUP1 SWAP2 SUB SWAP1 RETURN JUMPDEST PUSH1 0x0 SLOAD DUP2 JUMP JUMPDEST PUSH1 0x0 DUP1 PUSH1 0x1 DUP1 SWAP2 POP SWAP2 POP SWAP1 SWAP2 JUMP JUMPDEST PUSH1 0x0 DUP1 PUSH1 0x0 PUSH2 0x140 PUSH2 0x148 JUMP JUMPDEST SWAP2 POP POP POP SWAP1 SWAP2 JUMP JUMPDEST PUSH1 0x0 DUP1 PUSH1 0x1 DUP1 SWAP2 POP SWAP2 POP SWAP1 SWAP2 JUMP JUMPDEST PUSH1 0x0 DUP1 PUSH1 0x1 SWAP2 POP PUSH1 0x1 SWAP1 POP SWAP1 SWAP2 JUMP JUMPDEST PUSH1 0x1 PUSH1 0x0 SWAP1 SLOAD SWAP1 PUSH2 0x100 EXP SWAP1 DIV PUSH1 0xFF AND DUP2 JUMP JUMPDEST PUSH2 0x181 DUP2 PUSH2 0x1F5 JUMP JUMPDEST DUP3 MSTORE POP POP JUMP JUMPDEST PUSH2 0x190 DUP2 PUSH2 0x201 JUMP JUMPDEST DUP3 MSTORE POP POP JUMP JUMPDEST PUSH1 0x0 PUSH1 0x20 DUP3 ADD SWAP1 POP PUSH2 0x1AB PUSH1 0x0 DUP4 ADD DUP5 PUSH2 0x178 JUMP JUMPDEST SWAP3 SWAP2 POP POP JUMP JUMPDEST PUSH1 0x0 PUSH1 0x20 DUP3 ADD SWAP1 POP PUSH2 0x1C6 PUSH1 0x0 DUP4 ADD DUP5 PUSH2 0x187 JUMP JUMPDEST SWAP3 SWAP2 POP POP JUMP JUMPDEST PUSH1 0x0 PUSH1 0x40 DUP3 ADD SWAP1 POP PUSH2 0x1E1 PUSH1 0x0 DUP4 ADD DUP6 PUSH2 0x187 JUMP JUMPDEST PUSH2 0x1EE PUSH1 0x20 DUP4 ADD DUP5 PUSH2 0x178 JUMP JUMPDEST SWAP4 SWAP3 POP POP POP JUMP JUMPDEST PUSH1 0x0 DUP2 ISZERO ISZERO SWAP1 POP SWAP2 SWAP1 POP JUMP JUMPDEST PUSH1 0x0 DUP2 SWAP1 POP SWAP2 SWAP1 POP JUMP INVALID LOG2 PUSH5 0x6970667358 0x22 SLT KECCAK256 DUP7 0x2D JUMPI SWAP3 0xA8 0xD2 0x5F 0xAF 0xA6 0xE5 EQ 0xB4 0xE0 SGT 0xD5 DUP11 0xE9 CODECOPY 0xD9 STOP SLOAD DUP13 0xC1 0xDB PUSH26 0x7528B99C8F562664736F6C634300080700330000000000000000 "
				},
				"gasEstimates": {
					"creation": {
						"codeDepositCost": "115400",
						"executionCost": "165",
						"totalCost": "115565"
					},
					"external": {
						"a()": "2407",
						"assigned()": "523",
						"c()": "2559",
						"destructuringAssignments()": "527",
						"named()": "457",
						"returnMany()": "501"
					}
				},
				"methodIdentifiers": {
					"a()": "0dbe671f",
					"assigned()": "adb4d990",
					"c()": "c3da42b8",
					"destructuringAssignments()": "68873440",
					"named()": "45f907a8",
					"returnMany()": "86887544"
				}
			},
			"storageLayout": {
				"storage": [
					{
						"astId": 3,
						"contract": "Day14_Outputs.sol:FunctionOutput",
						"label": "a",
						"offset": 0,
						"slot": "0",
						"type": "t_uint256"
					},
					{
						"astId": 5,
						"contract": "Day14_Outputs.sol:FunctionOutput",
						"label": "c",
						"offset": 0,
						"slot": "1",
						"type": "t_bool"
					}
				],
				"types": {
					"t_bool": {
						"encoding": "inplace",
						"label": "bool",
						"numberOfBytes": "1"
					},
					"t_uint256": {
						"encoding": "inplace",
						"label": "uint256",
						"numberOfBytes": "32"
					}
				}
			},
			"userdoc": {
				"kind": "user",
				"methods": {},
				"version": 1
			}
		}
	}
}