{
	"Day10_Error.sol": {
		"Errors": {
			"abi": [
				{
					"inputs": [
						{
							"internalType": "uint256",
							"name": "x",
							"type": "uint256"
						}
					],
					"name": "testRequire",
					"outputs": [],
					"stateMutability": "pure",
					"type": "function"
				},
				{
					"inputs": [
						{
							"internalType": "uint256",
							"name": "x",
							"type": "uint256"
						}
					],
					"name": "testRevert",
					"outputs": [],
					"stateMutability": "pure",
					"type": "function"
				}
			],
			"devdoc": {
				"kind": "dev",
				"methods": {},
				"version": 1
			},
			"evm": {
				"assembly": "    /* \"Day10_Error.sol\":308:522  contract Errors {... */\n  mstore(0x40, 0x80)\n  callvalue\n  dup1\n  iszero\n  tag_1\n  jumpi\n  0x00\n  dup1\n  revert\ntag_1:\n  pop\n  dataSize(sub_0)\n  dup1\n  dataOffset(sub_0)\n  0x00\n  codecopy\n  0x00\n  return\nstop\n\nsub_0: assembly {\n        /* \"Day10_Error.sol\":308:522  contract Errors {... */\n      mstore(0x40, 0x80)\n      callvalue\n      dup1\n      iszero\n      tag_1\n      jumpi\n      0x00\n      dup1\n      revert\n    tag_1:\n      pop\n      jumpi(tag_2, lt(calldatasize, 0x04))\n      shr(0xe0, calldataload(0x00))\n      dup1\n      0x20987767\n      eq\n      tag_3\n      jumpi\n      dup1\n      0xb8bd717f\n      eq\n      tag_4\n      jumpi\n    tag_2:\n      0x00\n      dup1\n      revert\n        /* \"Day10_Error.sol\":424:520  function testRevert (uint x) external pure {... */\n    tag_3:\n      tag_5\n      0x04\n      dup1\n      calldatasize\n      sub\n      dup2\n      add\n      swap1\n      tag_6\n      swap2\n      swap1\n      tag_7\n      jump\t// in\n    tag_6:\n      tag_8\n      jump\t// in\n    tag_5:\n      stop\n        /* \"Day10_Error.sol\":330:418  function testRequire (uint x) external pure {... */\n    tag_4:\n      tag_9\n      0x04\n      dup1\n      calldatasize\n      sub\n      dup2\n      add\n      swap1\n      tag_10\n      swap2\n      swap1\n      tag_7\n      jump\t// in\n    tag_10:\n      tag_11\n      jump\t// in\n    tag_9:\n      stop\n        /* \"Day10_Error.sol\":424:520  function testRevert (uint x) external pure {... */\n    tag_8:\n      pop\n      jump\t// out\n        /* \"Day10_Error.sol\":330:418  function testRequire (uint x) external pure {... */\n    tag_11:\n        /* \"Day10_Error.sol\":398:400  10 */\n      0x0a\n        /* \"Day10_Error.sol\":393:394  x */\n      dup2\n        /* \"Day10_Error.sol\":393:400  x <= 10 */\n      gt\n      iszero\n        /* \"Day10_Error.sol\":384:411  require (x <= 10, \"x > 10\") */\n      tag_15\n      jumpi\n      mload(0x40)\n      0x08c379a000000000000000000000000000000000000000000000000000000000\n      dup2\n      mstore\n      0x04\n      add\n      tag_16\n      swap1\n      tag_17\n      jump\t// in\n    tag_16:\n      mload(0x40)\n      dup1\n      swap2\n      sub\n      swap1\n      revert\n    tag_15:\n        /* \"Day10_Error.sol\":330:418  function testRequire (uint x) external pure {... */\n      pop\n      jump\t// out\n        /* \"#utility.yul\":7:146   */\n    tag_19:\n        /* \"#utility.yul\":53:58   */\n      0x00\n        /* \"#utility.yul\":91:97   */\n      dup2\n        /* \"#utility.yul\":78:98   */\n      calldataload\n        /* \"#utility.yul\":69:98   */\n      swap1\n      pop\n        /* \"#utility.yul\":107:140   */\n      tag_21\n        /* \"#utility.yul\":134:139   */\n      dup2\n        /* \"#utility.yul\":107:140   */\n      tag_22\n      jump\t// in\n    tag_21:\n        /* \"#utility.yul\":7:146   */\n      swap3\n      swap2\n      pop\n      pop\n      jump\t// out\n        /* \"#utility.yul\":152:481   */\n    tag_7:\n        /* \"#utility.yul\":211:217   */\n      0x00\n        /* \"#utility.yul\":260:262   */\n      0x20\n        /* \"#utility.yul\":248:257   */\n      dup3\n        /* \"#utility.yul\":239:246   */\n      dup5\n        /* \"#utility.yul\":235:258   */\n      sub\n        /* \"#utility.yul\":231:263   */\n      slt\n        /* \"#utility.yul\":228:347   */\n      iszero\n      tag_24\n      jumpi\n        /* \"#utility.yul\":266:345   */\n      tag_25\n      tag_26\n      jump\t// in\n    tag_25:\n        /* \"#utility.yul\":228:347   */\n    tag_24:\n        /* \"#utility.yul\":386:387   */\n      0x00\n        /* \"#utility.yul\":411:464   */\n      tag_27\n        /* \"#utility.yul\":456:463   */\n      dup5\n        /* \"#utility.yul\":447:453   */\n      dup3\n        /* \"#utility.yul\":436:445   */\n      dup6\n        /* \"#utility.yul\":432:454   */\n      add\n        /* \"#utility.yul\":411:464   */\n      tag_19\n      jump\t// in\n    tag_27:\n        /* \"#utility.yul\":401:464   */\n      swap2\n      pop\n        /* \"#utility.yul\":357:474   */\n      pop\n        /* \"#utility.yul\":152:481   */\n      swap3\n      swap2\n      pop\n      pop\n      jump\t// out\n        /* \"#utility.yul\":487:852   */\n    tag_28:\n        /* \"#utility.yul\":629:632   */\n      0x00\n        /* \"#utility.yul\":650:716   */\n      tag_30\n        /* \"#utility.yul\":714:715   */\n      0x06\n        /* \"#utility.yul\":709:712   */\n      dup4\n        /* \"#utility.yul\":650:716   */\n      tag_31\n      jump\t// in\n    tag_30:\n        /* \"#utility.yul\":643:716   */\n      swap2\n      pop\n        /* \"#utility.yul\":725:818   */\n      tag_32\n        /* \"#utility.yul\":814:817   */\n      dup3\n        /* \"#utility.yul\":725:818   */\n      tag_33\n      jump\t// in\n    tag_32:\n        /* \"#utility.yul\":843:845   */\n      0x20\n        /* \"#utility.yul\":838:841   */\n      dup3\n        /* \"#utility.yul\":834:846   */\n      add\n        /* \"#utility.yul\":827:846   */\n      swap1\n      pop\n        /* \"#utility.yul\":487:852   */\n      swap2\n      swap1\n      pop\n      jump\t// out\n        /* \"#utility.yul\":858:1277   */\n    tag_17:\n        /* \"#utility.yul\":1024:1028   */\n      0x00\n        /* \"#utility.yul\":1062:1064   */\n      0x20\n        /* \"#utility.yul\":1051:1060   */\n      dup3\n        /* \"#utility.yul\":1047:1065   */\n      add\n        /* \"#utility.yul\":1039:1065   */\n      swap1\n      pop\n        /* \"#utility.yul\":1111:1120   */\n      dup2\n        /* \"#utility.yul\":1105:1109   */\n      dup2\n        /* \"#utility.yul\":1101:1121   */\n      sub\n        /* \"#utility.yul\":1097:1098   */\n      0x00\n        /* \"#utility.yul\":1086:1095   */\n      dup4\n        /* \"#utility.yul\":1082:1099   */\n      add\n        /* \"#utility.yul\":1075:1122   */\n      mstore\n        /* \"#utility.yul\":1139:1270   */\n      tag_35\n        /* \"#utility.yul\":1265:1269   */\n      dup2\n        /* \"#utility.yul\":1139:1270   */\n      tag_28\n      jump\t// in\n    tag_35:\n        /* \"#utility.yul\":1131:1270   */\n      swap1\n      pop\n        /* \"#utility.yul\":858:1277   */\n      swap2\n      swap1\n      pop\n      jump\t// out\n        /* \"#utility.yul\":1364:1533   */\n    tag_31:\n        /* \"#utility.yul\":1448:1459   */\n      0x00\n        /* \"#utility.yul\":1482:1488   */\n      dup3\n        /* \"#utility.yul\":1477:1480   */\n      dup3\n        /* \"#utility.yul\":1470:1489   */\n      mstore\n        /* \"#utility.yul\":1522:1526   */\n      0x20\n        /* \"#utility.yul\":1517:1520   */\n      dup3\n        /* \"#utility.yul\":1513:1527   */\n      add\n        /* \"#utility.yul\":1498:1527   */\n      swap1\n      pop\n        /* \"#utility.yul\":1364:1533   */\n      swap3\n      swap2\n      pop\n      pop\n      jump\t// out\n        /* \"#utility.yul\":1539:1616   */\n    tag_39:\n        /* \"#utility.yul\":1576:1583   */\n      0x00\n        /* \"#utility.yul\":1605:1610   */\n      dup2\n        /* \"#utility.yul\":1594:1610   */\n      swap1\n      pop\n        /* \"#utility.yul\":1539:1616   */\n      swap2\n      swap1\n      pop\n      jump\t// out\n        /* \"#utility.yul\":1745:1862   */\n    tag_26:\n        /* \"#utility.yul\":1854:1855   */\n      0x00\n        /* \"#utility.yul\":1851:1852   */\n      dup1\n        /* \"#utility.yul\":1844:1856   */\n      revert\n        /* \"#utility.yul\":1868:2024   */\n    tag_33:\n        /* \"#utility.yul\":2008:2016   */\n      0x78203e2031300000000000000000000000000000000000000000000000000000\n        /* \"#utility.yul\":2004:2005   */\n      0x00\n        /* \"#utility.yul\":1996:2002   */\n      dup3\n        /* \"#utility.yul\":1992:2006   */\n      add\n        /* \"#utility.yul\":1985:2017   */\n      mstore\n        /* \"#utility.yul\":1868:2024   */\n      pop\n      jump\t// out\n        /* \"#utility.yul\":2030:2152   */\n    tag_22:\n        /* \"#utility.yul\":2103:2127   */\n      tag_46\n        /* \"#utility.yul\":2121:2126   */\n      dup2\n        /* \"#utility.yul\":2103:2127   */\n      tag_39\n      jump\t// in\n    tag_46:\n        /* \"#utility.yul\":2096:2101   */\n      dup2\n        /* \"#utility.yul\":2093:2128   */\n      eq\n        /* \"#utility.yul\":2083:2146   */\n      tag_47\n      jumpi\n        /* \"#utility.yul\":2142:2143   */\n      0x00\n        /* \"#utility.yul\":2139:2140   */\n      dup1\n        /* \"#utility.yul\":2132:2144   */\n      revert\n        /* \"#utility.yul\":2083:2146   */\n    tag_47:\n        /* \"#utility.yul\":2030:2152   */\n      pop\n      jump\t// out\n\n    auxdata: 0xa2646970667358221220c23f5b3e4b2510e4d61adc6e3cafe02124cb7668a23e6f9e01c565f2c0af8f5764736f6c63430008070033\n}\n",
				"bytecode": {
					"linkReferences": {},
					"object": "608060405234801561001057600080fd5b506101d8806100206000396000f3fe608060405234801561001057600080fd5b50600436106100365760003560e01c8063209877671461003b578063b8bd717f14610057575b600080fd5b610055600480360381019061005091906100d2565b610073565b005b610071600480360381019061006c91906100d2565b610076565b005b50565b600a8111156100ba576040517f08c379a00000000000000000000000000000000000000000000000000000000081526004016100b190610122565b60405180910390fd5b50565b6000813590506100cc8161018b565b92915050565b6000602082840312156100e8576100e761015d565b5b60006100f6848285016100bd565b91505092915050565b600061010c600683610142565b915061011782610162565b602082019050919050565b6000602082019050818103600083015261013b816100ff565b9050919050565b600082825260208201905092915050565b6000819050919050565b600080fd5b7f78203e2031300000000000000000000000000000000000000000000000000000600082015250565b61019481610153565b811461019f57600080fd5b5056fea2646970667358221220c23f5b3e4b2510e4d61adc6e3cafe02124cb7668a23e6f9e01c565f2c0af8f5764736f6c63430008070033",
					"opcodes": "PUSH1 0x80 PUSH1 0x40 MSTORE CALLVALUE DUP1 ISZERO PUSH2 0x10 JUMPI PUSH1 0x0 DUP1 REVERT JUMPDEST POP PUSH2 0x1D8 DUP1 PUSH2 0x20 PUSH1 0x0 CODECOPY PUSH1 0x0 RETURN INVALID PUSH1 0x80 PUSH1 0x40 MSTORE CALLVALUE DUP1 ISZERO PUSH2 0x10 JUMPI PUSH1 0x0 DUP1 REVERT JUMPDEST POP PUSH1 0x4 CALLDATASIZE LT PUSH2 0x36 JUMPI PUSH1 0x0 CALLDATALOAD PUSH1 0xE0 SHR DUP1 PUSH4 0x20987767 EQ PUSH2 0x3B JUMPI DUP1 PUSH4 0xB8BD717F EQ PUSH2 0x57 JUMPI JUMPDEST PUSH1 0x0 DUP1 REVERT JUMPDEST PUSH2 0x55 PUSH1 0x4 DUP1 CALLDATASIZE SUB DUP2 ADD SWAP1 PUSH2 0x50 SWAP2 SWAP1 PUSH2 0xD2 JUMP JUMPDEST PUSH2 0x73 JUMP JUMPDEST STOP JUMPDEST PUSH2 0x71 PUSH1 0x4 DUP1 CALLDATASIZE SUB DUP2 ADD SWAP1 PUSH2 0x6C SWAP2 SWAP1 PUSH2 0xD2 JUMP JUMPDEST PUSH2 0x76 JUMP JUMPDEST STOP JUMPDEST POP JUMP JUMPDEST PUSH1 0xA DUP2 GT ISZERO PUSH2 0xBA JUMPI PUSH1 0x40 MLOAD PUSH32 0x8C379A000000000000000000000000000000000000000000000000000000000 DUP2 MSTORE PUSH1 0x4 ADD PUSH2 0xB1 SWAP1 PUSH2 0x122 JUMP JUMPDEST PUSH1 0x40 MLOAD DUP1 SWAP2 SUB SWAP1 REVERT JUMPDEST POP JUMP JUMPDEST PUSH1 0x0 DUP2 CALLDATALOAD SWAP1 POP PUSH2 0xCC DUP2 PUSH2 0x18B JUMP JUMPDEST SWAP3 SWAP2 POP POP JUMP JUMPDEST PUSH1 0x0 PUSH1 0x20 DUP3 DUP5 SUB SLT ISZERO PUSH2 0xE8 JUMPI PUSH2 0xE7 PUSH2 0x15D JUMP JUMPDEST JUMPDEST PUSH1 0x0 PUSH2 0xF6 DUP5 DUP3 DUP6 ADD PUSH2 0xBD JUMP JUMPDEST SWAP2 POP POP SWAP3 SWAP2 POP POP JUMP JUMPDEST PUSH1 0x0 PUSH2 0x10C PUSH1 0x6 DUP4 PUSH2 0x142 JUMP JUMPDEST SWAP2 POP PUSH2 0x117 DUP3 PUSH2 0x162 JUMP JUMPDEST PUSH1 0x20 DUP3 ADD SWAP1 POP SWAP2 SWAP1 POP JUMP JUMPDEST PUSH1 0x0 PUSH1 0x20 DUP3 ADD SWAP1 POP DUP2 DUP2 SUB PUSH1 0x0 DUP4 ADD MSTORE PUSH2 0x13B DUP2 PUSH2 0xFF JUMP JUMPDEST SWAP1 POP SWAP2 SWAP1 POP JUMP JUMPDEST PUSH1 0x0 DUP3 DUP3 MSTORE PUSH1 0x20 DUP3 ADD SWAP1 POP SWAP3 SWAP2 POP POP JUMP JUMPDEST PUSH1 0x0 DUP2 SWAP1 POP SWAP2 SWAP1 POP JUMP JUMPDEST PUSH1 0x0 DUP1 REVERT JUMPDEST PUSH32 0x78203E2031300000000000000000000000000000000000000000000000000000 PUSH1 0x0 DUP3 ADD MSTORE POP JUMP JUMPDEST PUSH2 0x194 DUP2 PUSH2 0x153 JUMP JUMPDEST DUP2 EQ PUSH2 0x19F JUMPI PUSH1 0x0 DUP1 REVERT JUMPDEST POP JUMP INVALID LOG2 PUSH5 0x6970667358 0x22 SLT KECCAK256 0xC2 EXTCODEHASH JUMPDEST RETURNDATACOPY 0x4B 0x25 LT 0xE4 0xD6 BYTE 0xDC PUSH15 0x3CAFE02124CB7668A23E6F9E01C565 CALLCODE 0xC0 0xAF DUP16 JUMPI PUSH5 0x736F6C6343 STOP ADDMOD SMOD STOP CALLER "
				},
				"gasEstimates": {
					"creation": {
						"codeDepositCost": "94400",
						"executionCost": "141",
						"totalCost": "94541"
					},
					"external": {
						"testRequire(uint256)": "719",
						"testRevert(uint256)": "384"
					}
				},
				"methodIdentifiers": {
					"testRequire(uint256)": "b8bd717f",
					"testRevert(uint256)": "20987767"
				}
			},
			"storageLayout": {
				"storage": [],
				"types": null
			},
			"userdoc": {
				"kind": "user",
				"methods": {},
				"version": 1
			}
		}
	}
}