{
	"Day37_Call.sol": {
		"TestCall": {
			"abi": [
				{
					"anonymous": false,
					"inputs": [
						{
							"indexed": false,
							"internalType": "string",
							"name": "message",
							"type": "string"
						}
					],
					"name": "Log",
					"type": "event"
				},
				{
					"inputs": [
						{
							"internalType": "string",
							"name": "_message",
							"type": "string"
						},
						{
							"internalType": "uint256",
							"name": "_x",
							"type": "uint256"
						}
					],
					"name": "foo",
					"outputs": [
						{
							"internalType": "bool",
							"name": "",
							"type": "bool"
						},
						{
							"internalType": "uint256",
							"name": "",
							"type": "uint256"
						}
					],
					"stateMutability": "payable",
					"type": "function"
				},
				{
					"inputs": [],
					"name": "message",
					"outputs": [
						{
							"internalType": "string",
							"name": "",
							"type": "string"
						}
					],
					"stateMutability": "view",
					"type": "function"
				},
				{
					"inputs": [],
					"name": "x",
					"outputs": [
						{
							"internalType": "uint256",
							"name": "",
							"type": "uint256"
						}
					],
					"stateMutability": "view",
					"type": "function"
				}
			],
			"devdoc": {
				"kind": "dev",
				"methods": {},
				"version": 1
			},
			"evm": {
				"assembly": "    /* \"Day37_Call.sol\":58:326  contract TestCall {... */\n  mstore(0x40, 0x80)\n  callvalue\n  dup1\n  iszero\n  tag_1\n  jumpi\n  0x00\n  dup1\n  revert\ntag_1:\n  pop\n  dataSize(sub_0)\n  dup1\n  dataOffset(sub_0)\n  0x00\n  codecopy\n  0x00\n  return\nstop\n\nsub_0: assembly {\n        /* \"Day37_Call.sol\":58:326  contract TestCall {... */\n      mstore(0x40, 0x80)\n      jumpi(tag_1, lt(calldatasize, 0x04))\n      shr(0xe0, calldataload(0x00))\n      dup1\n      0x0c55699c\n      eq\n      tag_2\n      jumpi\n      dup1\n      0x24ccab8f\n      eq\n      tag_3\n      jumpi\n      dup1\n      0xe21f37ce\n      eq\n      tag_4\n      jumpi\n    tag_1:\n      0x00\n      dup1\n      revert\n        /* \"Day37_Call.sol\":109:122  uint public x */\n    tag_2:\n      callvalue\n      dup1\n      iszero\n      tag_5\n      jumpi\n      0x00\n      dup1\n      revert\n    tag_5:\n      pop\n      tag_6\n      tag_7\n      jump\t// in\n    tag_6:\n      mload(0x40)\n      tag_8\n      swap2\n      swap1\n      tag_9\n      jump\t// in\n    tag_8:\n      mload(0x40)\n      dup1\n      swap2\n      sub\n      swap1\n      return\n        /* \"Day37_Call.sol\":161:324  function foo (string memory _message, uint _x) external payable returns (bool, uint) {... */\n    tag_3:\n      tag_10\n      0x04\n      dup1\n      calldatasize\n      sub\n      dup2\n      add\n      swap1\n      tag_11\n      swap2\n      swap1\n      tag_12\n      jump\t// in\n    tag_11:\n      tag_13\n      jump\t// in\n    tag_10:\n      mload(0x40)\n      tag_14\n      swap3\n      swap2\n      swap1\n      tag_15\n      jump\t// in\n    tag_14:\n      mload(0x40)\n      dup1\n      swap2\n      sub\n      swap1\n      return\n        /* \"Day37_Call.sol\":82:103  string public message */\n    tag_4:\n      callvalue\n      dup1\n      iszero\n      tag_16\n      jumpi\n      0x00\n      dup1\n      revert\n    tag_16:\n      pop\n      tag_17\n      tag_18\n      jump\t// in\n    tag_17:\n      mload(0x40)\n      tag_19\n      swap2\n      swap1\n      tag_20\n      jump\t// in\n    tag_19:\n      mload(0x40)\n      dup1\n      swap2\n      sub\n      swap1\n      return\n        /* \"Day37_Call.sol\":109:122  uint public x */\n    tag_7:\n      sload(0x01)\n      dup2\n      jump\t// out\n        /* \"Day37_Call.sol\":161:324  function foo (string memory _message, uint _x) external payable returns (bool, uint) {... */\n    tag_13:\n        /* \"Day37_Call.sol\":234:238  bool */\n      0x00\n        /* \"Day37_Call.sol\":240:244  uint */\n      dup1\n        /* \"Day37_Call.sol\":266:274  _message */\n      dup4\n        /* \"Day37_Call.sol\":256:263  message */\n      0x00\n        /* \"Day37_Call.sol\":256:274  message = _message */\n      swap1\n      dup1\n      mload\n      swap1\n      0x20\n      add\n      swap1\n      tag_22\n      swap3\n      swap2\n      swap1\n      tag_23\n      jump\t// in\n    tag_22:\n      pop\n        /* \"Day37_Call.sol\":288:290  _x */\n      dup3\n        /* \"Day37_Call.sol\":284:285  x */\n      0x01\n        /* \"Day37_Call.sol\":284:290  x = _x */\n      dup2\n      swap1\n      sstore\n      pop\n        /* \"Day37_Call.sol\":308:312  true */\n      0x01\n        /* \"Day37_Call.sol\":313:316  999 */\n      0x03e7\n        /* \"Day37_Call.sol\":300:317  return (true,999) */\n      swap2\n      pop\n      swap2\n      pop\n        /* \"Day37_Call.sol\":161:324  function foo (string memory _message, uint _x) external payable returns (bool, uint) {... */\n      swap3\n      pop\n      swap3\n      swap1\n      pop\n      jump\t// out\n        /* \"Day37_Call.sol\":82:103  string public message */\n    tag_18:\n      0x00\n      dup1\n      sload\n      tag_24\n      swap1\n      tag_25\n      jump\t// in\n    tag_24:\n      dup1\n      0x1f\n      add\n      0x20\n      dup1\n      swap2\n      div\n      mul\n      0x20\n      add\n      mload(0x40)\n      swap1\n      dup2\n      add\n      0x40\n      mstore\n      dup1\n      swap3\n      swap2\n      swap1\n      dup2\n      dup2\n      mstore\n      0x20\n      add\n      dup3\n      dup1\n      sload\n      tag_26\n      swap1\n      tag_25\n      jump\t// in\n    tag_26:\n      dup1\n      iszero\n      tag_27\n      jumpi\n      dup1\n      0x1f\n      lt\n      tag_28\n      jumpi\n      0x0100\n      dup1\n      dup4\n      sload\n      div\n      mul\n      dup4\n      mstore\n      swap2\n      0x20\n      add\n      swap2\n      jump(tag_27)\n    tag_28:\n      dup3\n      add\n      swap2\n      swap1\n      0x00\n      mstore\n      keccak256(0x00, 0x20)\n      swap1\n    tag_29:\n      dup2\n      sload\n      dup2\n      mstore\n      swap1\n      0x01\n      add\n      swap1\n      0x20\n      add\n      dup1\n      dup4\n      gt\n      tag_29\n      jumpi\n      dup3\n      swap1\n      sub\n      0x1f\n      and\n      dup3\n      add\n      swap2\n    tag_27:\n      pop\n      pop\n      pop\n      pop\n      pop\n      dup2\n      jump\t// out\n    tag_23:\n      dup3\n      dup1\n      sload\n      tag_30\n      swap1\n      tag_25\n      jump\t// in\n    tag_30:\n      swap1\n      0x00\n      mstore\n      keccak256(0x00, 0x20)\n      swap1\n      0x1f\n      add\n      0x20\n      swap1\n      div\n      dup2\n      add\n      swap3\n      dup3\n      tag_32\n      jumpi\n      0x00\n      dup6\n      sstore\n      jump(tag_31)\n    tag_32:\n      dup3\n      0x1f\n      lt\n      tag_33\n      jumpi\n      dup1\n      mload\n      not(0xff)\n      and\n      dup4\n      dup1\n      add\n      or\n      dup6\n      sstore\n      jump(tag_31)\n    tag_33:\n      dup3\n      dup1\n      add\n      0x01\n      add\n      dup6\n      sstore\n      dup3\n      iszero\n      tag_31\n      jumpi\n      swap2\n      dup3\n      add\n    tag_34:\n      dup3\n      dup2\n      gt\n      iszero\n      tag_35\n      jumpi\n      dup3\n      mload\n      dup3\n      sstore\n      swap2\n      0x20\n      add\n      swap2\n      swap1\n      0x01\n      add\n      swap1\n      jump(tag_34)\n    tag_35:\n    tag_31:\n      pop\n      swap1\n      pop\n      tag_36\n      swap2\n      swap1\n      tag_37\n      jump\t// in\n    tag_36:\n      pop\n      swap1\n      jump\t// out\n    tag_37:\n    tag_38:\n      dup1\n      dup3\n      gt\n      iszero\n      tag_39\n      jumpi\n      0x00\n      dup2\n      0x00\n      swap1\n      sstore\n      pop\n      0x01\n      add\n      jump(tag_38)\n    tag_39:\n      pop\n      swap1\n      jump\t// out\n        /* \"#utility.yul\":7:419   */\n    tag_41:\n        /* \"#utility.yul\":85:90   */\n      0x00\n        /* \"#utility.yul\":110:176   */\n      tag_43\n        /* \"#utility.yul\":126:175   */\n      tag_44\n        /* \"#utility.yul\":168:174   */\n      dup5\n        /* \"#utility.yul\":126:175   */\n      tag_45\n      jump\t// in\n    tag_44:\n        /* \"#utility.yul\":110:176   */\n      tag_46\n      jump\t// in\n    tag_43:\n        /* \"#utility.yul\":101:176   */\n      swap1\n      pop\n        /* \"#utility.yul\":199:205   */\n      dup3\n        /* \"#utility.yul\":192:197   */\n      dup2\n        /* \"#utility.yul\":185:206   */\n      mstore\n        /* \"#utility.yul\":237:241   */\n      0x20\n        /* \"#utility.yul\":230:235   */\n      dup2\n        /* \"#utility.yul\":226:242   */\n      add\n        /* \"#utility.yul\":275:278   */\n      dup5\n        /* \"#utility.yul\":266:272   */\n      dup5\n        /* \"#utility.yul\":261:264   */\n      dup5\n        /* \"#utility.yul\":257:273   */\n      add\n        /* \"#utility.yul\":254:279   */\n      gt\n        /* \"#utility.yul\":251:363   */\n      iszero\n      tag_47\n      jumpi\n        /* \"#utility.yul\":282:361   */\n      tag_48\n      tag_49\n      jump\t// in\n    tag_48:\n        /* \"#utility.yul\":251:363   */\n    tag_47:\n        /* \"#utility.yul\":372:413   */\n      tag_50\n        /* \"#utility.yul\":406:412   */\n      dup5\n        /* \"#utility.yul\":401:404   */\n      dup3\n        /* \"#utility.yul\":396:399   */\n      dup6\n        /* \"#utility.yul\":372:413   */\n      tag_51\n      jump\t// in\n    tag_50:\n        /* \"#utility.yul\":91:419   */\n      pop\n        /* \"#utility.yul\":7:419   */\n      swap4\n      swap3\n      pop\n      pop\n      pop\n      jump\t// out\n        /* \"#utility.yul\":439:779   */\n    tag_52:\n        /* \"#utility.yul\":495:500   */\n      0x00\n        /* \"#utility.yul\":544:547   */\n      dup3\n        /* \"#utility.yul\":537:541   */\n      0x1f\n        /* \"#utility.yul\":529:535   */\n      dup4\n        /* \"#utility.yul\":525:542   */\n      add\n        /* \"#utility.yul\":521:548   */\n      slt\n        /* \"#utility.yul\":511:633   */\n      tag_54\n      jumpi\n        /* \"#utility.yul\":552:631   */\n      tag_55\n      tag_56\n      jump\t// in\n    tag_55:\n        /* \"#utility.yul\":511:633   */\n    tag_54:\n        /* \"#utility.yul\":669:675   */\n      dup2\n        /* \"#utility.yul\":656:676   */\n      calldataload\n        /* \"#utility.yul\":694:773   */\n      tag_57\n        /* \"#utility.yul\":769:772   */\n      dup5\n        /* \"#utility.yul\":761:767   */\n      dup3\n        /* \"#utility.yul\":754:758   */\n      0x20\n        /* \"#utility.yul\":746:752   */\n      dup7\n        /* \"#utility.yul\":742:759   */\n      add\n        /* \"#utility.yul\":694:773   */\n      tag_41\n      jump\t// in\n    tag_57:\n        /* \"#utility.yul\":685:773   */\n      swap2\n      pop\n        /* \"#utility.yul\":501:779   */\n      pop\n        /* \"#utility.yul\":439:779   */\n      swap3\n      swap2\n      pop\n      pop\n      jump\t// out\n        /* \"#utility.yul\":785:924   */\n    tag_58:\n        /* \"#utility.yul\":831:836   */\n      0x00\n        /* \"#utility.yul\":869:875   */\n      dup2\n        /* \"#utility.yul\":856:876   */\n      calldataload\n        /* \"#utility.yul\":847:876   */\n      swap1\n      pop\n        /* \"#utility.yul\":885:918   */\n      tag_60\n        /* \"#utility.yul\":912:917   */\n      dup2\n        /* \"#utility.yul\":885:918   */\n      tag_61\n      jump\t// in\n    tag_60:\n        /* \"#utility.yul\":785:924   */\n      swap3\n      swap2\n      pop\n      pop\n      jump\t// out\n        /* \"#utility.yul\":930:1584   */\n    tag_12:\n        /* \"#utility.yul\":1008:1014   */\n      0x00\n        /* \"#utility.yul\":1016:1022   */\n      dup1\n        /* \"#utility.yul\":1065:1067   */\n      0x40\n        /* \"#utility.yul\":1053:1062   */\n      dup4\n        /* \"#utility.yul\":1044:1051   */\n      dup6\n        /* \"#utility.yul\":1040:1063   */\n      sub\n        /* \"#utility.yul\":1036:1068   */\n      slt\n        /* \"#utility.yul\":1033:1152   */\n      iszero\n      tag_63\n      jumpi\n        /* \"#utility.yul\":1071:1150   */\n      tag_64\n      tag_65\n      jump\t// in\n    tag_64:\n        /* \"#utility.yul\":1033:1152   */\n    tag_63:\n        /* \"#utility.yul\":1219:1220   */\n      0x00\n        /* \"#utility.yul\":1208:1217   */\n      dup4\n        /* \"#utility.yul\":1204:1221   */\n      add\n        /* \"#utility.yul\":1191:1222   */\n      calldataload\n        /* \"#utility.yul\":1249:1267   */\n      0xffffffffffffffff\n        /* \"#utility.yul\":1241:1247   */\n      dup2\n        /* \"#utility.yul\":1238:1268   */\n      gt\n        /* \"#utility.yul\":1235:1352   */\n      iszero\n      tag_66\n      jumpi\n        /* \"#utility.yul\":1271:1350   */\n      tag_67\n      tag_68\n      jump\t// in\n    tag_67:\n        /* \"#utility.yul\":1235:1352   */\n    tag_66:\n        /* \"#utility.yul\":1376:1439   */\n      tag_69\n        /* \"#utility.yul\":1431:1438   */\n      dup6\n        /* \"#utility.yul\":1422:1428   */\n      dup3\n        /* \"#utility.yul\":1411:1420   */\n      dup7\n        /* \"#utility.yul\":1407:1429   */\n      add\n        /* \"#utility.yul\":1376:1439   */\n      tag_52\n      jump\t// in\n    tag_69:\n        /* \"#utility.yul\":1366:1439   */\n      swap3\n      pop\n        /* \"#utility.yul\":1162:1449   */\n      pop\n        /* \"#utility.yul\":1488:1490   */\n      0x20\n        /* \"#utility.yul\":1514:1567   */\n      tag_70\n        /* \"#utility.yul\":1559:1566   */\n      dup6\n        /* \"#utility.yul\":1550:1556   */\n      dup3\n        /* \"#utility.yul\":1539:1548   */\n      dup7\n        /* \"#utility.yul\":1535:1557   */\n      add\n        /* \"#utility.yul\":1514:1567   */\n      tag_58\n      jump\t// in\n    tag_70:\n        /* \"#utility.yul\":1504:1567   */\n      swap2\n      pop\n        /* \"#utility.yul\":1459:1577   */\n      pop\n        /* \"#utility.yul\":930:1584   */\n      swap3\n      pop\n      swap3\n      swap1\n      pop\n      jump\t// out\n        /* \"#utility.yul\":1590:1699   */\n    tag_71:\n        /* \"#utility.yul\":1671:1692   */\n      tag_73\n        /* \"#utility.yul\":1686:1691   */\n      dup2\n        /* \"#utility.yul\":1671:1692   */\n      tag_74\n      jump\t// in\n    tag_73:\n        /* \"#utility.yul\":1666:1669   */\n      dup3\n        /* \"#utility.yul\":1659:1693   */\n      mstore\n        /* \"#utility.yul\":1590:1699   */\n      pop\n      pop\n      jump\t// out\n        /* \"#utility.yul\":1705:2069   */\n    tag_75:\n        /* \"#utility.yul\":1793:1796   */\n      0x00\n        /* \"#utility.yul\":1821:1860   */\n      tag_77\n        /* \"#utility.yul\":1854:1859   */\n      dup3\n        /* \"#utility.yul\":1821:1860   */\n      tag_78\n      jump\t// in\n    tag_77:\n        /* \"#utility.yul\":1876:1947   */\n      tag_79\n        /* \"#utility.yul\":1940:1946   */\n      dup2\n        /* \"#utility.yul\":1935:1938   */\n      dup6\n        /* \"#utility.yul\":1876:1947   */\n      tag_80\n      jump\t// in\n    tag_79:\n        /* \"#utility.yul\":1869:1947   */\n      swap4\n      pop\n        /* \"#utility.yul\":1956:2008   */\n      tag_81\n        /* \"#utility.yul\":2001:2007   */\n      dup2\n        /* \"#utility.yul\":1996:1999   */\n      dup6\n        /* \"#utility.yul\":1989:1993   */\n      0x20\n        /* \"#utility.yul\":1982:1987   */\n      dup7\n        /* \"#utility.yul\":1978:1994   */\n      add\n        /* \"#utility.yul\":1956:2008   */\n      tag_82\n      jump\t// in\n    tag_81:\n        /* \"#utility.yul\":2033:2062   */\n      tag_83\n        /* \"#utility.yul\":2055:2061   */\n      dup2\n        /* \"#utility.yul\":2033:2062   */\n      tag_84\n      jump\t// in\n    tag_83:\n        /* \"#utility.yul\":2028:2031   */\n      dup5\n        /* \"#utility.yul\":2024:2063   */\n      add\n        /* \"#utility.yul\":2017:2063   */\n      swap2\n      pop\n        /* \"#utility.yul\":1797:2069   */\n      pop\n        /* \"#utility.yul\":1705:2069   */\n      swap3\n      swap2\n      pop\n      pop\n      jump\t// out\n        /* \"#utility.yul\":2075:2193   */\n    tag_85:\n        /* \"#utility.yul\":2162:2186   */\n      tag_87\n        /* \"#utility.yul\":2180:2185   */\n      dup2\n        /* \"#utility.yul\":2162:2186   */\n      tag_88\n      jump\t// in\n    tag_87:\n        /* \"#utility.yul\":2157:2160   */\n      dup3\n        /* \"#utility.yul\":2150:2187   */\n      mstore\n        /* \"#utility.yul\":2075:2193   */\n      pop\n      pop\n      jump\t// out\n        /* \"#utility.yul\":2199:2519   */\n    tag_15:\n        /* \"#utility.yul\":2314:2318   */\n      0x00\n        /* \"#utility.yul\":2352:2354   */\n      0x40\n        /* \"#utility.yul\":2341:2350   */\n      dup3\n        /* \"#utility.yul\":2337:2355   */\n      add\n        /* \"#utility.yul\":2329:2355   */\n      swap1\n      pop\n        /* \"#utility.yul\":2365:2430   */\n      tag_90\n        /* \"#utility.yul\":2427:2428   */\n      0x00\n        /* \"#utility.yul\":2416:2425   */\n      dup4\n        /* \"#utility.yul\":2412:2429   */\n      add\n        /* \"#utility.yul\":2403:2409   */\n      dup6\n        /* \"#utility.yul\":2365:2430   */\n      tag_71\n      jump\t// in\n    tag_90:\n        /* \"#utility.yul\":2440:2512   */\n      tag_91\n        /* \"#utility.yul\":2508:2510   */\n      0x20\n        /* \"#utility.yul\":2497:2506   */\n      dup4\n        /* \"#utility.yul\":2493:2511   */\n      add\n        /* \"#utility.yul\":2484:2490   */\n      dup5\n        /* \"#utility.yul\":2440:2512   */\n      tag_85\n      jump\t// in\n    tag_91:\n        /* \"#utility.yul\":2199:2519   */\n      swap4\n      swap3\n      pop\n      pop\n      pop\n      jump\t// out\n        /* \"#utility.yul\":2525:2838   */\n    tag_20:\n        /* \"#utility.yul\":2638:2642   */\n      0x00\n        /* \"#utility.yul\":2676:2678   */\n      0x20\n        /* \"#utility.yul\":2665:2674   */\n      dup3\n        /* \"#utility.yul\":2661:2679   */\n      add\n        /* \"#utility.yul\":2653:2679   */\n      swap1\n      pop\n        /* \"#utility.yul\":2725:2734   */\n      dup2\n        /* \"#utility.yul\":2719:2723   */\n      dup2\n        /* \"#utility.yul\":2715:2735   */\n      sub\n        /* \"#utility.yul\":2711:2712   */\n      0x00\n        /* \"#utility.yul\":2700:2709   */\n      dup4\n        /* \"#utility.yul\":2696:2713   */\n      add\n        /* \"#utility.yul\":2689:2736   */\n      mstore\n        /* \"#utility.yul\":2753:2831   */\n      tag_93\n        /* \"#utility.yul\":2826:2830   */\n      dup2\n        /* \"#utility.yul\":2817:2823   */\n      dup5\n        /* \"#utility.yul\":2753:2831   */\n      tag_75\n      jump\t// in\n    tag_93:\n        /* \"#utility.yul\":2745:2831   */\n      swap1\n      pop\n        /* \"#utility.yul\":2525:2838   */\n      swap3\n      swap2\n      pop\n      pop\n      jump\t// out\n        /* \"#utility.yul\":2844:3066   */\n    tag_9:\n        /* \"#utility.yul\":2937:2941   */\n      0x00\n        /* \"#utility.yul\":2975:2977   */\n      0x20\n        /* \"#utility.yul\":2964:2973   */\n      dup3\n        /* \"#utility.yul\":2960:2978   */\n      add\n        /* \"#utility.yul\":2952:2978   */\n      swap1\n      pop\n        /* \"#utility.yul\":2988:3059   */\n      tag_95\n        /* \"#utility.yul\":3056:3057   */\n      0x00\n        /* \"#utility.yul\":3045:3054   */\n      dup4\n        /* \"#utility.yul\":3041:3058   */\n      add\n        /* \"#utility.yul\":3032:3038   */\n      dup5\n        /* \"#utility.yul\":2988:3059   */\n      tag_85\n      jump\t// in\n    tag_95:\n        /* \"#utility.yul\":2844:3066   */\n      swap3\n      swap2\n      pop\n      pop\n      jump\t// out\n        /* \"#utility.yul\":3072:3201   */\n    tag_46:\n        /* \"#utility.yul\":3106:3112   */\n      0x00\n        /* \"#utility.yul\":3133:3153   */\n      tag_97\n      tag_98\n      jump\t// in\n    tag_97:\n        /* \"#utility.yul\":3123:3153   */\n      swap1\n      pop\n        /* \"#utility.yul\":3162:3195   */\n      tag_99\n        /* \"#utility.yul\":3190:3194   */\n      dup3\n        /* \"#utility.yul\":3182:3188   */\n      dup3\n        /* \"#utility.yul\":3162:3195   */\n      tag_100\n      jump\t// in\n    tag_99:\n        /* \"#utility.yul\":3072:3201   */\n      swap2\n      swap1\n      pop\n      jump\t// out\n        /* \"#utility.yul\":3207:3282   */\n    tag_98:\n        /* \"#utility.yul\":3240:3246   */\n      0x00\n        /* \"#utility.yul\":3273:3275   */\n      0x40\n        /* \"#utility.yul\":3267:3276   */\n      mload\n        /* \"#utility.yul\":3257:3276   */\n      swap1\n      pop\n        /* \"#utility.yul\":3207:3282   */\n      swap1\n      jump\t// out\n        /* \"#utility.yul\":3288:3596   */\n    tag_45:\n        /* \"#utility.yul\":3350:3354   */\n      0x00\n        /* \"#utility.yul\":3440:3458   */\n      0xffffffffffffffff\n        /* \"#utility.yul\":3432:3438   */\n      dup3\n        /* \"#utility.yul\":3429:3459   */\n      gt\n        /* \"#utility.yul\":3426:3482   */\n      iszero\n      tag_103\n      jumpi\n        /* \"#utility.yul\":3462:3480   */\n      tag_104\n      tag_105\n      jump\t// in\n    tag_104:\n        /* \"#utility.yul\":3426:3482   */\n    tag_103:\n        /* \"#utility.yul\":3500:3529   */\n      tag_106\n        /* \"#utility.yul\":3522:3528   */\n      dup3\n        /* \"#utility.yul\":3500:3529   */\n      tag_84\n      jump\t// in\n    tag_106:\n        /* \"#utility.yul\":3492:3529   */\n      swap1\n      pop\n        /* \"#utility.yul\":3584:3588   */\n      0x20\n        /* \"#utility.yul\":3578:3582   */\n      dup2\n        /* \"#utility.yul\":3574:3589   */\n      add\n        /* \"#utility.yul\":3566:3589   */\n      swap1\n      pop\n        /* \"#utility.yul\":3288:3596   */\n      swap2\n      swap1\n      pop\n      jump\t// out\n        /* \"#utility.yul\":3602:3701   */\n    tag_78:\n        /* \"#utility.yul\":3654:3660   */\n      0x00\n        /* \"#utility.yul\":3688:3693   */\n      dup2\n        /* \"#utility.yul\":3682:3694   */\n      mload\n        /* \"#utility.yul\":3672:3694   */\n      swap1\n      pop\n        /* \"#utility.yul\":3602:3701   */\n      swap2\n      swap1\n      pop\n      jump\t// out\n        /* \"#utility.yul\":3707:3876   */\n    tag_80:\n        /* \"#utility.yul\":3791:3802   */\n      0x00\n        /* \"#utility.yul\":3825:3831   */\n      dup3\n        /* \"#utility.yul\":3820:3823   */\n      dup3\n        /* \"#utility.yul\":3813:3832   */\n      mstore\n        /* \"#utility.yul\":3865:3869   */\n      0x20\n        /* \"#utility.yul\":3860:3863   */\n      dup3\n        /* \"#utility.yul\":3856:3870   */\n      add\n        /* \"#utility.yul\":3841:3870   */\n      swap1\n      pop\n        /* \"#utility.yul\":3707:3876   */\n      swap3\n      swap2\n      pop\n      pop\n      jump\t// out\n        /* \"#utility.yul\":3882:3972   */\n    tag_74:\n        /* \"#utility.yul\":3916:3923   */\n      0x00\n        /* \"#utility.yul\":3959:3964   */\n      dup2\n        /* \"#utility.yul\":3952:3965   */\n      iszero\n        /* \"#utility.yul\":3945:3966   */\n      iszero\n        /* \"#utility.yul\":3934:3966   */\n      swap1\n      pop\n        /* \"#utility.yul\":3882:3972   */\n      swap2\n      swap1\n      pop\n      jump\t// out\n        /* \"#utility.yul\":3978:4055   */\n    tag_88:\n        /* \"#utility.yul\":4015:4022   */\n      0x00\n        /* \"#utility.yul\":4044:4049   */\n      dup2\n        /* \"#utility.yul\":4033:4049   */\n      swap1\n      pop\n        /* \"#utility.yul\":3978:4055   */\n      swap2\n      swap1\n      pop\n      jump\t// out\n        /* \"#utility.yul\":4061:4215   */\n    tag_51:\n        /* \"#utility.yul\":4145:4151   */\n      dup3\n        /* \"#utility.yul\":4140:4143   */\n      dup2\n        /* \"#utility.yul\":4135:4138   */\n      dup4\n        /* \"#utility.yul\":4122:4152   */\n      calldatacopy\n        /* \"#utility.yul\":4207:4208   */\n      0x00\n        /* \"#utility.yul\":4198:4204   */\n      dup4\n        /* \"#utility.yul\":4193:4196   */\n      dup4\n        /* \"#utility.yul\":4189:4205   */\n      add\n        /* \"#utility.yul\":4182:4209   */\n      mstore\n        /* \"#utility.yul\":4061:4215   */\n      pop\n      pop\n      pop\n      jump\t// out\n        /* \"#utility.yul\":4221:4528   */\n    tag_82:\n        /* \"#utility.yul\":4289:4290   */\n      0x00\n        /* \"#utility.yul\":4299:4412   */\n    tag_113:\n        /* \"#utility.yul\":4313:4319   */\n      dup4\n        /* \"#utility.yul\":4310:4311   */\n      dup2\n        /* \"#utility.yul\":4307:4320   */\n      lt\n        /* \"#utility.yul\":4299:4412   */\n      iszero\n      tag_115\n      jumpi\n        /* \"#utility.yul\":4398:4399   */\n      dup1\n        /* \"#utility.yul\":4393:4396   */\n      dup3\n        /* \"#utility.yul\":4389:4400   */\n      add\n        /* \"#utility.yul\":4383:4401   */\n      mload\n        /* \"#utility.yul\":4379:4380   */\n      dup2\n        /* \"#utility.yul\":4374:4377   */\n      dup5\n        /* \"#utility.yul\":4370:4381   */\n      add\n        /* \"#utility.yul\":4363:4402   */\n      mstore\n        /* \"#utility.yul\":4335:4337   */\n      0x20\n        /* \"#utility.yul\":4332:4333   */\n      dup2\n        /* \"#utility.yul\":4328:4338   */\n      add\n        /* \"#utility.yul\":4323:4338   */\n      swap1\n      pop\n        /* \"#utility.yul\":4299:4412   */\n      jump(tag_113)\n    tag_115:\n        /* \"#utility.yul\":4430:4436   */\n      dup4\n        /* \"#utility.yul\":4427:4428   */\n      dup2\n        /* \"#utility.yul\":4424:4437   */\n      gt\n        /* \"#utility.yul\":4421:4522   */\n      iszero\n      tag_116\n      jumpi\n        /* \"#utility.yul\":4510:4511   */\n      0x00\n        /* \"#utility.yul\":4501:4507   */\n      dup5\n        /* \"#utility.yul\":4496:4499   */\n      dup5\n        /* \"#utility.yul\":4492:4508   */\n      add\n        /* \"#utility.yul\":4485:4512   */\n      mstore\n        /* \"#utility.yul\":4421:4522   */\n    tag_116:\n        /* \"#utility.yul\":4270:4528   */\n      pop\n        /* \"#utility.yul\":4221:4528   */\n      pop\n      pop\n      pop\n      jump\t// out\n        /* \"#utility.yul\":4534:4854   */\n    tag_25:\n        /* \"#utility.yul\":4578:4584   */\n      0x00\n        /* \"#utility.yul\":4615:4616   */\n      0x02\n        /* \"#utility.yul\":4609:4613   */\n      dup3\n        /* \"#utility.yul\":4605:4617   */\n      div\n        /* \"#utility.yul\":4595:4617   */\n      swap1\n      pop\n        /* \"#utility.yul\":4662:4663   */\n      0x01\n        /* \"#utility.yul\":4656:4660   */\n      dup3\n        /* \"#utility.yul\":4652:4664   */\n      and\n        /* \"#utility.yul\":4683:4701   */\n      dup1\n        /* \"#utility.yul\":4673:4754   */\n      tag_118\n      jumpi\n        /* \"#utility.yul\":4739:4743   */\n      0x7f\n        /* \"#utility.yul\":4731:4737   */\n      dup3\n        /* \"#utility.yul\":4727:4744   */\n      and\n        /* \"#utility.yul\":4717:4744   */\n      swap2\n      pop\n        /* \"#utility.yul\":4673:4754   */\n    tag_118:\n        /* \"#utility.yul\":4801:4803   */\n      0x20\n        /* \"#utility.yul\":4793:4799   */\n      dup3\n        /* \"#utility.yul\":4790:4804   */\n      lt\n        /* \"#utility.yul\":4770:4788   */\n      dup2\n        /* \"#utility.yul\":4767:4805   */\n      eq\n        /* \"#utility.yul\":4764:4848   */\n      iszero\n      tag_119\n      jumpi\n        /* \"#utility.yul\":4820:4838   */\n      tag_120\n      tag_121\n      jump\t// in\n    tag_120:\n        /* \"#utility.yul\":4764:4848   */\n    tag_119:\n        /* \"#utility.yul\":4585:4854   */\n      pop\n        /* \"#utility.yul\":4534:4854   */\n      swap2\n      swap1\n      pop\n      jump\t// out\n        /* \"#utility.yul\":4860:5141   */\n    tag_100:\n        /* \"#utility.yul\":4943:4970   */\n      tag_123\n        /* \"#utility.yul\":4965:4969   */\n      dup3\n        /* \"#utility.yul\":4943:4970   */\n      tag_84\n      jump\t// in\n    tag_123:\n        /* \"#utility.yul\":4935:4941   */\n      dup2\n        /* \"#utility.yul\":4931:4971   */\n      add\n        /* \"#utility.yul\":5073:5079   */\n      dup2\n        /* \"#utility.yul\":5061:5071   */\n      dup2\n        /* \"#utility.yul\":5058:5080   */\n      lt\n        /* \"#utility.yul\":5037:5055   */\n      0xffffffffffffffff\n        /* \"#utility.yul\":5025:5035   */\n      dup3\n        /* \"#utility.yul\":5022:5056   */\n      gt\n        /* \"#utility.yul\":5019:5081   */\n      or\n        /* \"#utility.yul\":5016:5104   */\n      iszero\n      tag_124\n      jumpi\n        /* \"#utility.yul\":5084:5102   */\n      tag_125\n      tag_105\n      jump\t// in\n    tag_125:\n        /* \"#utility.yul\":5016:5104   */\n    tag_124:\n        /* \"#utility.yul\":5124:5134   */\n      dup1\n        /* \"#utility.yul\":5120:5122   */\n      0x40\n        /* \"#utility.yul\":5113:5135   */\n      mstore\n        /* \"#utility.yul\":4903:5141   */\n      pop\n        /* \"#utility.yul\":4860:5141   */\n      pop\n      pop\n      jump\t// out\n        /* \"#utility.yul\":5147:5327   */\n    tag_121:\n        /* \"#utility.yul\":5195:5272   */\n      0x4e487b7100000000000000000000000000000000000000000000000000000000\n        /* \"#utility.yul\":5192:5193   */\n      0x00\n        /* \"#utility.yul\":5185:5273   */\n      mstore\n        /* \"#utility.yul\":5292:5296   */\n      0x22\n        /* \"#utility.yul\":5289:5290   */\n      0x04\n        /* \"#utility.yul\":5282:5297   */\n      mstore\n        /* \"#utility.yul\":5316:5320   */\n      0x24\n        /* \"#utility.yul\":5313:5314   */\n      0x00\n        /* \"#utility.yul\":5306:5321   */\n      revert\n        /* \"#utility.yul\":5333:5513   */\n    tag_105:\n        /* \"#utility.yul\":5381:5458   */\n      0x4e487b7100000000000000000000000000000000000000000000000000000000\n        /* \"#utility.yul\":5378:5379   */\n      0x00\n        /* \"#utility.yul\":5371:5459   */\n      mstore\n        /* \"#utility.yul\":5478:5482   */\n      0x41\n        /* \"#utility.yul\":5475:5476   */\n      0x04\n        /* \"#utility.yul\":5468:5483   */\n      mstore\n        /* \"#utility.yul\":5502:5506   */\n      0x24\n        /* \"#utility.yul\":5499:5500   */\n      0x00\n        /* \"#utility.yul\":5492:5507   */\n      revert\n        /* \"#utility.yul\":5519:5636   */\n    tag_56:\n        /* \"#utility.yul\":5628:5629   */\n      0x00\n        /* \"#utility.yul\":5625:5626   */\n      dup1\n        /* \"#utility.yul\":5618:5630   */\n      revert\n        /* \"#utility.yul\":5642:5759   */\n    tag_49:\n        /* \"#utility.yul\":5751:5752   */\n      0x00\n        /* \"#utility.yul\":5748:5749   */\n      dup1\n        /* \"#utility.yul\":5741:5753   */\n      revert\n        /* \"#utility.yul\":5765:5882   */\n    tag_68:\n        /* \"#utility.yul\":5874:5875   */\n      0x00\n        /* \"#utility.yul\":5871:5872   */\n      dup1\n        /* \"#utility.yul\":5864:5876   */\n      revert\n        /* \"#utility.yul\":5888:6005   */\n    tag_65:\n        /* \"#utility.yul\":5997:5998   */\n      0x00\n        /* \"#utility.yul\":5994:5995   */\n      dup1\n        /* \"#utility.yul\":5987:5999   */\n      revert\n        /* \"#utility.yul\":6011:6113   */\n    tag_84:\n        /* \"#utility.yul\":6052:6058   */\n      0x00\n        /* \"#utility.yul\":6103:6105   */\n      0x1f\n        /* \"#utility.yul\":6099:6106   */\n      not\n        /* \"#utility.yul\":6094:6096   */\n      0x1f\n        /* \"#utility.yul\":6087:6092   */\n      dup4\n        /* \"#utility.yul\":6083:6097   */\n      add\n        /* \"#utility.yul\":6079:6107   */\n      and\n        /* \"#utility.yul\":6069:6107   */\n      swap1\n      pop\n        /* \"#utility.yul\":6011:6113   */\n      swap2\n      swap1\n      pop\n      jump\t// out\n        /* \"#utility.yul\":6119:6241   */\n    tag_61:\n        /* \"#utility.yul\":6192:6216   */\n      tag_134\n        /* \"#utility.yul\":6210:6215   */\n      dup2\n        /* \"#utility.yul\":6192:6216   */\n      tag_88\n      jump\t// in\n    tag_134:\n        /* \"#utility.yul\":6185:6190   */\n      dup2\n        /* \"#utility.yul\":6182:6217   */\n      eq\n        /* \"#utility.yul\":6172:6235   */\n      tag_135\n      jumpi\n        /* \"#utility.yul\":6231:6232   */\n      0x00\n        /* \"#utility.yul\":6228:6229   */\n      dup1\n        /* \"#utility.yul\":6221:6233   */\n      revert\n        /* \"#utility.yul\":6172:6235   */\n    tag_135:\n        /* \"#utility.yul\":6119:6241   */\n      pop\n      jump\t// out\n\n    auxdata: 0xa2646970667358221220094590f5a0ce520ca3a668caf9b71d0d299d8ce442d6331c808d67871f5575a264736f6c63430008070033\n}\n",
				"bytecode": {
					"linkReferences": {},
					"object": "608060405234801561001057600080fd5b506105c3806100206000396000f3fe6080604052600436106100345760003560e01c80630c55699c1461003957806324ccab8f14610064578063e21f37ce14610095575b600080fd5b34801561004557600080fd5b5061004e6100c0565b60405161005b91906103ab565b60405180910390f35b61007e600480360381019061007991906102ad565b6100c6565b60405161008c929190610360565b60405180910390f35b3480156100a157600080fd5b506100aa6100f7565b6040516100b79190610389565b60405180910390f35b60015481565b60008083600090805190602001906100df929190610185565b508260018190555060016103e7915091509250929050565b6000805461010490610490565b80601f016020809104026020016040519081016040528092919081815260200182805461013090610490565b801561017d5780601f106101525761010080835404028352916020019161017d565b820191906000526020600020905b81548152906001019060200180831161016057829003601f168201915b505050505081565b82805461019190610490565b90600052602060002090601f0160209004810192826101b357600085556101fa565b82601f106101cc57805160ff19168380011785556101fa565b828001600101855582156101fa579182015b828111156101f95782518255916020019190600101906101de565b5b509050610207919061020b565b5090565b5b8082111561022457600081600090555060010161020c565b5090565b600061023b610236846103eb565b6103c6565b90508281526020810184848401111561025757610256610556565b5b61026284828561044e565b509392505050565b600082601f83011261027f5761027e610551565b5b813561028f848260208601610228565b91505092915050565b6000813590506102a781610576565b92915050565b600080604083850312156102c4576102c3610560565b5b600083013567ffffffffffffffff8111156102e2576102e161055b565b5b6102ee8582860161026a565b92505060206102ff85828601610298565b9150509250929050565b61031281610438565b82525050565b60006103238261041c565b61032d8185610427565b935061033d81856020860161045d565b61034681610565565b840191505092915050565b61035a81610444565b82525050565b60006040820190506103756000830185610309565b6103826020830184610351565b9392505050565b600060208201905081810360008301526103a38184610318565b905092915050565b60006020820190506103c06000830184610351565b92915050565b60006103d06103e1565b90506103dc82826104c2565b919050565b6000604051905090565b600067ffffffffffffffff82111561040657610405610522565b5b61040f82610565565b9050602081019050919050565b600081519050919050565b600082825260208201905092915050565b60008115159050919050565b6000819050919050565b82818337600083830152505050565b60005b8381101561047b578082015181840152602081019050610460565b8381111561048a576000848401525b50505050565b600060028204905060018216806104a857607f821691505b602082108114156104bc576104bb6104f3565b5b50919050565b6104cb82610565565b810181811067ffffffffffffffff821117156104ea576104e9610522565b5b80604052505050565b7f4e487b7100000000000000000000000000000000000000000000000000000000600052602260045260246000fd5b7f4e487b7100000000000000000000000000000000000000000000000000000000600052604160045260246000fd5b600080fd5b600080fd5b600080fd5b600080fd5b6000601f19601f8301169050919050565b61057f81610444565b811461058a57600080fd5b5056fea2646970667358221220094590f5a0ce520ca3a668caf9b71d0d299d8ce442d6331c808d67871f5575a264736f6c63430008070033",
					"opcodes": "PUSH1 0x80 PUSH1 0x40 MSTORE CALLVALUE DUP1 ISZERO PUSH2 0x10 JUMPI PUSH1 0x0 DUP1 REVERT JUMPDEST POP PUSH2 0x5C3 DUP1 PUSH2 0x20 PUSH1 0x0 CODECOPY PUSH1 0x0 RETURN INVALID PUSH1 0x80 PUSH1 0x40 MSTORE PUSH1 0x4 CALLDATASIZE LT PUSH2 0x34 JUMPI PUSH1 0x0 CALLDATALOAD PUSH1 0xE0 SHR DUP1 PUSH4 0xC55699C EQ PUSH2 0x39 JUMPI DUP1 PUSH4 0x24CCAB8F EQ PUSH2 0x64 JUMPI DUP1 PUSH4 0xE21F37CE EQ PUSH2 0x95 JUMPI JUMPDEST PUSH1 0x0 DUP1 REVERT JUMPDEST CALLVALUE DUP1 ISZERO PUSH2 0x45 JUMPI PUSH1 0x0 DUP1 REVERT JUMPDEST POP PUSH2 0x4E PUSH2 0xC0 JUMP JUMPDEST PUSH1 0x40 MLOAD PUSH2 0x5B SWAP2 SWAP1 PUSH2 0x3AB JUMP JUMPDEST PUSH1 0x40 MLOAD DUP1 SWAP2 SUB SWAP1 RETURN JUMPDEST PUSH2 0x7E PUSH1 0x4 DUP1 CALLDATASIZE SUB DUP2 ADD SWAP1 PUSH2 0x79 SWAP2 SWAP1 PUSH2 0x2AD JUMP JUMPDEST PUSH2 0xC6 JUMP JUMPDEST PUSH1 0x40 MLOAD PUSH2 0x8C SWAP3 SWAP2 SWAP1 PUSH2 0x360 JUMP JUMPDEST PUSH1 0x40 MLOAD DUP1 SWAP2 SUB SWAP1 RETURN JUMPDEST CALLVALUE DUP1 ISZERO PUSH2 0xA1 JUMPI PUSH1 0x0 DUP1 REVERT JUMPDEST POP PUSH2 0xAA PUSH2 0xF7 JUMP JUMPDEST PUSH1 0x40 MLOAD PUSH2 0xB7 SWAP2 SWAP1 PUSH2 0x389 JUMP JUMPDEST PUSH1 0x40 MLOAD DUP1 SWAP2 SUB SWAP1 RETURN JUMPDEST PUSH1 0x1 SLOAD DUP2 JUMP JUMPDEST PUSH1 0x0 DUP1 DUP4 PUSH1 0x0 SWAP1 DUP1 MLOAD SWAP1 PUSH1 0x20 ADD SWAP1 PUSH2 0xDF SWAP3 SWAP2 SWAP1 PUSH2 0x185 JUMP JUMPDEST POP DUP3 PUSH1 0x1 DUP2 SWAP1 SSTORE POP PUSH1 0x1 PUSH2 0x3E7 SWAP2 POP SWAP2 POP SWAP3 POP SWAP3 SWAP1 POP JUMP JUMPDEST PUSH1 0x0 DUP1 SLOAD PUSH2 0x104 SWAP1 PUSH2 0x490 JUMP JUMPDEST DUP1 PUSH1 0x1F ADD PUSH1 0x20 DUP1 SWAP2 DIV MUL PUSH1 0x20 ADD PUSH1 0x40 MLOAD SWAP1 DUP2 ADD PUSH1 0x40 MSTORE DUP1 SWAP3 SWAP2 SWAP1 DUP2 DUP2 MSTORE PUSH1 0x20 ADD DUP3 DUP1 SLOAD PUSH2 0x130 SWAP1 PUSH2 0x490 JUMP JUMPDEST DUP1 ISZERO PUSH2 0x17D JUMPI DUP1 PUSH1 0x1F LT PUSH2 0x152 JUMPI PUSH2 0x100 DUP1 DUP4 SLOAD DIV MUL DUP4 MSTORE SWAP2 PUSH1 0x20 ADD SWAP2 PUSH2 0x17D JUMP JUMPDEST DUP3 ADD SWAP2 SWAP1 PUSH1 0x0 MSTORE PUSH1 0x20 PUSH1 0x0 KECCAK256 SWAP1 JUMPDEST DUP2 SLOAD DUP2 MSTORE SWAP1 PUSH1 0x1 ADD SWAP1 PUSH1 0x20 ADD DUP1 DUP4 GT PUSH2 0x160 JUMPI DUP3 SWAP1 SUB PUSH1 0x1F AND DUP3 ADD SWAP2 JUMPDEST POP POP POP POP POP DUP2 JUMP JUMPDEST DUP3 DUP1 SLOAD PUSH2 0x191 SWAP1 PUSH2 0x490 JUMP JUMPDEST SWAP1 PUSH1 0x0 MSTORE PUSH1 0x20 PUSH1 0x0 KECCAK256 SWAP1 PUSH1 0x1F ADD PUSH1 0x20 SWAP1 DIV DUP2 ADD SWAP3 DUP3 PUSH2 0x1B3 JUMPI PUSH1 0x0 DUP6 SSTORE PUSH2 0x1FA JUMP JUMPDEST DUP3 PUSH1 0x1F LT PUSH2 0x1CC JUMPI DUP1 MLOAD PUSH1 0xFF NOT AND DUP4 DUP1 ADD OR DUP6 SSTORE PUSH2 0x1FA JUMP JUMPDEST DUP3 DUP1 ADD PUSH1 0x1 ADD DUP6 SSTORE DUP3 ISZERO PUSH2 0x1FA JUMPI SWAP2 DUP3 ADD JUMPDEST DUP3 DUP2 GT ISZERO PUSH2 0x1F9 JUMPI DUP3 MLOAD DUP3 SSTORE SWAP2 PUSH1 0x20 ADD SWAP2 SWAP1 PUSH1 0x1 ADD SWAP1 PUSH2 0x1DE JUMP JUMPDEST JUMPDEST POP SWAP1 POP PUSH2 0x207 SWAP2 SWAP1 PUSH2 0x20B JUMP JUMPDEST POP SWAP1 JUMP JUMPDEST JUMPDEST DUP1 DUP3 GT ISZERO PUSH2 0x224 JUMPI PUSH1 0x0 DUP2 PUSH1 0x0 SWAP1 SSTORE POP PUSH1 0x1 ADD PUSH2 0x20C JUMP JUMPDEST POP SWAP1 JUMP JUMPDEST PUSH1 0x0 PUSH2 0x23B PUSH2 0x236 DUP5 PUSH2 0x3EB JUMP JUMPDEST PUSH2 0x3C6 JUMP JUMPDEST SWAP1 POP DUP3 DUP2 MSTORE PUSH1 0x20 DUP2 ADD DUP5 DUP5 DUP5 ADD GT ISZERO PUSH2 0x257 JUMPI PUSH2 0x256 PUSH2 0x556 JUMP JUMPDEST JUMPDEST PUSH2 0x262 DUP5 DUP3 DUP6 PUSH2 0x44E JUMP JUMPDEST POP SWAP4 SWAP3 POP POP POP JUMP JUMPDEST PUSH1 0x0 DUP3 PUSH1 0x1F DUP4 ADD SLT PUSH2 0x27F JUMPI PUSH2 0x27E PUSH2 0x551 JUMP JUMPDEST JUMPDEST DUP2 CALLDATALOAD PUSH2 0x28F DUP5 DUP3 PUSH1 0x20 DUP7 ADD PUSH2 0x228 JUMP JUMPDEST SWAP2 POP POP SWAP3 SWAP2 POP POP JUMP JUMPDEST PUSH1 0x0 DUP2 CALLDATALOAD SWAP1 POP PUSH2 0x2A7 DUP2 PUSH2 0x576 JUMP JUMPDEST SWAP3 SWAP2 POP POP JUMP JUMPDEST PUSH1 0x0 DUP1 PUSH1 0x40 DUP4 DUP6 SUB SLT ISZERO PUSH2 0x2C4 JUMPI PUSH2 0x2C3 PUSH2 0x560 JUMP JUMPDEST JUMPDEST PUSH1 0x0 DUP4 ADD CALLDATALOAD PUSH8 0xFFFFFFFFFFFFFFFF DUP2 GT ISZERO PUSH2 0x2E2 JUMPI PUSH2 0x2E1 PUSH2 0x55B JUMP JUMPDEST JUMPDEST PUSH2 0x2EE DUP6 DUP3 DUP7 ADD PUSH2 0x26A JUMP JUMPDEST SWAP3 POP POP PUSH1 0x20 PUSH2 0x2FF DUP6 DUP3 DUP7 ADD PUSH2 0x298 JUMP JUMPDEST SWAP2 POP POP SWAP3 POP SWAP3 SWAP1 POP JUMP JUMPDEST PUSH2 0x312 DUP2 PUSH2 0x438 JUMP JUMPDEST DUP3 MSTORE POP POP JUMP JUMPDEST PUSH1 0x0 PUSH2 0x323 DUP3 PUSH2 0x41C JUMP JUMPDEST PUSH2 0x32D DUP2 DUP6 PUSH2 0x427 JUMP JUMPDEST SWAP4 POP PUSH2 0x33D DUP2 DUP6 PUSH1 0x20 DUP7 ADD PUSH2 0x45D JUMP JUMPDEST PUSH2 0x346 DUP2 PUSH2 0x565 JUMP JUMPDEST DUP5 ADD SWAP2 POP POP SWAP3 SWAP2 POP POP JUMP JUMPDEST PUSH2 0x35A DUP2 PUSH2 0x444 JUMP JUMPDEST DUP3 MSTORE POP POP JUMP JUMPDEST PUSH1 0x0 PUSH1 0x40 DUP3 ADD SWAP1 POP PUSH2 0x375 PUSH1 0x0 DUP4 ADD DUP6 PUSH2 0x309 JUMP JUMPDEST PUSH2 0x382 PUSH1 0x20 DUP4 ADD DUP5 PUSH2 0x351 JUMP JUMPDEST SWAP4 SWAP3 POP POP POP JUMP JUMPDEST PUSH1 0x0 PUSH1 0x20 DUP3 ADD SWAP1 POP DUP2 DUP2 SUB PUSH1 0x0 DUP4 ADD MSTORE PUSH2 0x3A3 DUP2 DUP5 PUSH2 0x318 JUMP JUMPDEST SWAP1 POP SWAP3 SWAP2 POP POP JUMP JUMPDEST PUSH1 0x0 PUSH1 0x20 DUP3 ADD SWAP1 POP PUSH2 0x3C0 PUSH1 0x0 DUP4 ADD DUP5 PUSH2 0x351 JUMP JUMPDEST SWAP3 SWAP2 POP POP JUMP JUMPDEST PUSH1 0x0 PUSH2 0x3D0 PUSH2 0x3E1 JUMP JUMPDEST SWAP1 POP PUSH2 0x3DC DUP3 DUP3 PUSH2 0x4C2 JUMP JUMPDEST SWAP2 SWAP1 POP JUMP JUMPDEST PUSH1 0x0 PUSH1 0x40 MLOAD SWAP1 POP SWAP1 JUMP JUMPDEST PUSH1 0x0 PUSH8 0xFFFFFFFFFFFFFFFF DUP3 GT ISZERO PUSH2 0x406 JUMPI PUSH2 0x405 PUSH2 0x522 JUMP JUMPDEST JUMPDEST PUSH2 0x40F DUP3 PUSH2 0x565 JUMP JUMPDEST SWAP1 POP PUSH1 0x20 DUP2 ADD SWAP1 POP SWAP2 SWAP1 POP JUMP JUMPDEST PUSH1 0x0 DUP2 MLOAD SWAP1 POP SWAP2 SWAP1 POP JUMP JUMPDEST PUSH1 0x0 DUP3 DUP3 MSTORE PUSH1 0x20 DUP3 ADD SWAP1 POP SWAP3 SWAP2 POP POP JUMP JUMPDEST PUSH1 0x0 DUP2 ISZERO ISZERO SWAP1 POP SWAP2 SWAP1 POP JUMP JUMPDEST PUSH1 0x0 DUP2 SWAP1 POP SWAP2 SWAP1 POP JUMP JUMPDEST DUP3 DUP2 DUP4 CALLDATACOPY PUSH1 0x0 DUP4 DUP4 ADD MSTORE POP POP POP JUMP JUMPDEST PUSH1 0x0 JUMPDEST DUP4 DUP2 LT ISZERO PUSH2 0x47B JUMPI DUP1 DUP3 ADD MLOAD DUP2 DUP5 ADD MSTORE PUSH1 0x20 DUP2 ADD SWAP1 POP PUSH2 0x460 JUMP JUMPDEST DUP4 DUP2 GT ISZERO PUSH2 0x48A JUMPI PUSH1 0x0 DUP5 DUP5 ADD MSTORE JUMPDEST POP POP POP POP JUMP JUMPDEST PUSH1 0x0 PUSH1 0x2 DUP3 DIV SWAP1 POP PUSH1 0x1 DUP3 AND DUP1 PUSH2 0x4A8 JUMPI PUSH1 0x7F DUP3 AND SWAP2 POP JUMPDEST PUSH1 0x20 DUP3 LT DUP2 EQ ISZERO PUSH2 0x4BC JUMPI PUSH2 0x4BB PUSH2 0x4F3 JUMP JUMPDEST JUMPDEST POP SWAP2 SWAP1 POP JUMP JUMPDEST PUSH2 0x4CB DUP3 PUSH2 0x565 JUMP JUMPDEST DUP2 ADD DUP2 DUP2 LT PUSH8 0xFFFFFFFFFFFFFFFF DUP3 GT OR ISZERO PUSH2 0x4EA JUMPI PUSH2 0x4E9 PUSH2 0x522 JUMP JUMPDEST JUMPDEST DUP1 PUSH1 0x40 MSTORE POP POP POP JUMP JUMPDEST PUSH32 0x4E487B7100000000000000000000000000000000000000000000000000000000 PUSH1 0x0 MSTORE PUSH1 0x22 PUSH1 0x4 MSTORE PUSH1 0x24 PUSH1 0x0 REVERT JUMPDEST PUSH32 0x4E487B7100000000000000000000000000000000000000000000000000000000 PUSH1 0x0 MSTORE PUSH1 0x41 PUSH1 0x4 MSTORE PUSH1 0x24 PUSH1 0x0 REVERT JUMPDEST PUSH1 0x0 DUP1 REVERT JUMPDEST PUSH1 0x0 DUP1 REVERT JUMPDEST PUSH1 0x0 DUP1 REVERT JUMPDEST PUSH1 0x0 DUP1 REVERT JUMPDEST PUSH1 0x0 PUSH1 0x1F NOT PUSH1 0x1F DUP4 ADD AND SWAP1 POP SWAP2 SWAP1 POP JUMP JUMPDEST PUSH2 0x57F DUP2 PUSH2 0x444 JUMP JUMPDEST DUP2 EQ PUSH2 0x58A JUMPI PUSH1 0x0 DUP1 REVERT JUMPDEST POP JUMP INVALID LOG2 PUSH5 0x6970667358 0x22 SLT KECCAK256 MULMOD GASLIMIT SWAP1 CREATE2 LOG0 0xCE MSTORE 0xC LOG3 0xA6 PUSH9 0xCAF9B71D0D299D8CE4 TIMESTAMP 0xD6 CALLER SHR DUP1 DUP14 PUSH8 0x871F5575A264736F PUSH13 0x63430008070033000000000000 "
				},
				"gasEstimates": {
					"creation": {
						"codeDepositCost": "295000",
						"executionCost": "337",
						"totalCost": "295337"
					},
					"external": {
						"foo(string,uint256)": "infinite",
						"message()": "infinite",
						"x()": "2407"
					}
				},
				"methodIdentifiers": {
					"foo(string,uint256)": "24ccab8f",
					"message()": "e21f37ce",
					"x()": "0c55699c"
				}
			},
			"storageLayout": {
				"storage": [
					{
						"astId": 3,
						"contract": "Day37_Call.sol:TestCall",
						"label": "message",
						"offset": 0,
						"slot": "0",
						"type": "t_string_storage"
					},
					{
						"astId": 5,
						"contract": "Day37_Call.sol:TestCall",
						"label": "x",
						"offset": 0,
						"slot": "1",
						"type": "t_uint256"
					}
				],
				"types": {
					"t_string_storage": {
						"encoding": "bytes",
						"label": "string",
						"numberOfBytes": "32"
					},
					"t_uint256": {
						"encoding": "inplace",
						"label": "uint256",
						"numberOfBytes": "32"
					}
				}
			},
			"userdoc": {
				"kind": "user",
				"methods": {},
				"version": 1
			}
		}
	}
}