{
	"Day39_NewAccount.sol": {
		"AccountFactory": {
			"abi": [
				{
					"inputs": [
						{
							"internalType": "uint256",
							"name": "",
							"type": "uint256"
						}
					],
					"name": "accounts",
					"outputs": [
						{
							"internalType": "contract Account",
							"name": "",
							"type": "address"
						}
					],
					"stateMutability": "view",
					"type": "function"
				},
				{
					"inputs": [
						{
							"internalType": "address",
							"name": "_owner",
							"type": "address"
						}
					],
					"name": "createAccount",
					"outputs": [],
					"stateMutability": "nonpayable",
					"type": "function"
				}
			],
			"devdoc": {
				"kind": "dev",
				"methods": {},
				"version": 1
			},
			"evm": {
				"assembly": "    /* \"Day39_NewAccount.sol\":241:373  contract AccountFactory{... */\n  mstore(0x40, 0x80)\n  callvalue\n  dup1\n  iszero\n  tag_1\n  jumpi\n  0x00\n  dup1\n  revert\ntag_1:\n  pop\n  dataSize(sub_0)\n  dup1\n  dataOffset(sub_0)\n  0x00\n  codecopy\n  0x00\n  return\nstop\n\nsub_0: assembly {\n        /* \"Day39_NewAccount.sol\":241:373  contract AccountFactory{... */\n      mstore(0x40, 0x80)\n      callvalue\n      dup1\n      iszero\n      tag_1\n      jumpi\n      0x00\n      dup1\n      revert\n    tag_1:\n      pop\n      jumpi(tag_2, lt(calldatasize, 0x04))\n      shr(0xe0, calldataload(0x00))\n      dup1\n      0x9859387b\n      eq\n      tag_3\n      jumpi\n      dup1\n      0xf2a40db8\n      eq\n      tag_4\n      jumpi\n    tag_2:\n      0x00\n      dup1\n      revert\n        /* \"Day39_NewAccount.sol\":304:370  function createAccount(address _owner) external {... */\n    tag_3:\n      tag_5\n      0x04\n      dup1\n      calldatasize\n      sub\n      dup2\n      add\n      swap1\n      tag_6\n      swap2\n      swap1\n      tag_7\n      jump\t// in\n    tag_6:\n      tag_8\n      jump\t// in\n    tag_5:\n      stop\n        /* \"Day39_NewAccount.sol\":271:296  Account[] public accounts */\n    tag_4:\n      tag_9\n      0x04\n      dup1\n      calldatasize\n      sub\n      dup2\n      add\n      swap1\n      tag_10\n      swap2\n      swap1\n      tag_11\n      jump\t// in\n    tag_10:\n      tag_12\n      jump\t// in\n    tag_9:\n      mload(0x40)\n      tag_13\n      swap2\n      swap1\n      tag_14\n      jump\t// in\n    tag_13:\n      mload(0x40)\n      dup1\n      swap2\n      sub\n      swap1\n      return\n        /* \"Day39_NewAccount.sol\":304:370  function createAccount(address _owner) external {... */\n    tag_8:\n      pop\n      jump\t// out\n        /* \"Day39_NewAccount.sol\":271:296  Account[] public accounts */\n    tag_12:\n      0x00\n      dup2\n      dup2\n      sload\n      dup2\n      lt\n      tag_16\n      jumpi\n      0x00\n      dup1\n      revert\n    tag_16:\n      swap1\n      0x00\n      mstore\n      keccak256(0x00, 0x20)\n      add\n      0x00\n      swap2\n      pop\n      sload\n      swap1\n      0x0100\n      exp\n      swap1\n      div\n      0xffffffffffffffffffffffffffffffffffffffff\n      and\n      dup2\n      jump\t// out\n        /* \"#utility.yul\":7:146   */\n    tag_19:\n        /* \"#utility.yul\":53:58   */\n      0x00\n        /* \"#utility.yul\":91:97   */\n      dup2\n        /* \"#utility.yul\":78:98   */\n      calldataload\n        /* \"#utility.yul\":69:98   */\n      swap1\n      pop\n        /* \"#utility.yul\":107:140   */\n      tag_21\n        /* \"#utility.yul\":134:139   */\n      dup2\n        /* \"#utility.yul\":107:140   */\n      tag_22\n      jump\t// in\n    tag_21:\n        /* \"#utility.yul\":7:146   */\n      swap3\n      swap2\n      pop\n      pop\n      jump\t// out\n        /* \"#utility.yul\":152:291   */\n    tag_23:\n        /* \"#utility.yul\":198:203   */\n      0x00\n        /* \"#utility.yul\":236:242   */\n      dup2\n        /* \"#utility.yul\":223:243   */\n      calldataload\n        /* \"#utility.yul\":214:243   */\n      swap1\n      pop\n        /* \"#utility.yul\":252:285   */\n      tag_25\n        /* \"#utility.yul\":279:284   */\n      dup2\n        /* \"#utility.yul\":252:285   */\n      tag_26\n      jump\t// in\n    tag_25:\n        /* \"#utility.yul\":152:291   */\n      swap3\n      swap2\n      pop\n      pop\n      jump\t// out\n        /* \"#utility.yul\":297:626   */\n    tag_7:\n        /* \"#utility.yul\":356:362   */\n      0x00\n        /* \"#utility.yul\":405:407   */\n      0x20\n        /* \"#utility.yul\":393:402   */\n      dup3\n        /* \"#utility.yul\":384:391   */\n      dup5\n        /* \"#utility.yul\":380:403   */\n      sub\n        /* \"#utility.yul\":376:408   */\n      slt\n        /* \"#utility.yul\":373:492   */\n      iszero\n      tag_28\n      jumpi\n        /* \"#utility.yul\":411:490   */\n      tag_29\n      tag_30\n      jump\t// in\n    tag_29:\n        /* \"#utility.yul\":373:492   */\n    tag_28:\n        /* \"#utility.yul\":531:532   */\n      0x00\n        /* \"#utility.yul\":556:609   */\n      tag_31\n        /* \"#utility.yul\":601:608   */\n      dup5\n        /* \"#utility.yul\":592:598   */\n      dup3\n        /* \"#utility.yul\":581:590   */\n      dup6\n        /* \"#utility.yul\":577:599   */\n      add\n        /* \"#utility.yul\":556:609   */\n      tag_19\n      jump\t// in\n    tag_31:\n        /* \"#utility.yul\":546:609   */\n      swap2\n      pop\n        /* \"#utility.yul\":502:619   */\n      pop\n        /* \"#utility.yul\":297:626   */\n      swap3\n      swap2\n      pop\n      pop\n      jump\t// out\n        /* \"#utility.yul\":632:961   */\n    tag_11:\n        /* \"#utility.yul\":691:697   */\n      0x00\n        /* \"#utility.yul\":740:742   */\n      0x20\n        /* \"#utility.yul\":728:737   */\n      dup3\n        /* \"#utility.yul\":719:726   */\n      dup5\n        /* \"#utility.yul\":715:738   */\n      sub\n        /* \"#utility.yul\":711:743   */\n      slt\n        /* \"#utility.yul\":708:827   */\n      iszero\n      tag_33\n      jumpi\n        /* \"#utility.yul\":746:825   */\n      tag_34\n      tag_30\n      jump\t// in\n    tag_34:\n        /* \"#utility.yul\":708:827   */\n    tag_33:\n        /* \"#utility.yul\":866:867   */\n      0x00\n        /* \"#utility.yul\":891:944   */\n      tag_35\n        /* \"#utility.yul\":936:943   */\n      dup5\n        /* \"#utility.yul\":927:933   */\n      dup3\n        /* \"#utility.yul\":916:925   */\n      dup6\n        /* \"#utility.yul\":912:934   */\n      add\n        /* \"#utility.yul\":891:944   */\n      tag_23\n      jump\t// in\n    tag_35:\n        /* \"#utility.yul\":881:944   */\n      swap2\n      pop\n        /* \"#utility.yul\":837:954   */\n      pop\n        /* \"#utility.yul\":632:961   */\n      swap3\n      swap2\n      pop\n      pop\n      jump\t// out\n        /* \"#utility.yul\":967:1126   */\n    tag_36:\n        /* \"#utility.yul\":1068:1119   */\n      tag_38\n        /* \"#utility.yul\":1113:1118   */\n      dup2\n        /* \"#utility.yul\":1068:1119   */\n      tag_39\n      jump\t// in\n    tag_38:\n        /* \"#utility.yul\":1063:1066   */\n      dup3\n        /* \"#utility.yul\":1056:1120   */\n      mstore\n        /* \"#utility.yul\":967:1126   */\n      pop\n      pop\n      jump\t// out\n        /* \"#utility.yul\":1132:1382   */\n    tag_14:\n        /* \"#utility.yul\":1239:1243   */\n      0x00\n        /* \"#utility.yul\":1277:1279   */\n      0x20\n        /* \"#utility.yul\":1266:1275   */\n      dup3\n        /* \"#utility.yul\":1262:1280   */\n      add\n        /* \"#utility.yul\":1254:1280   */\n      swap1\n      pop\n        /* \"#utility.yul\":1290:1375   */\n      tag_41\n        /* \"#utility.yul\":1372:1373   */\n      0x00\n        /* \"#utility.yul\":1361:1370   */\n      dup4\n        /* \"#utility.yul\":1357:1374   */\n      add\n        /* \"#utility.yul\":1348:1354   */\n      dup5\n        /* \"#utility.yul\":1290:1375   */\n      tag_36\n      jump\t// in\n    tag_41:\n        /* \"#utility.yul\":1132:1382   */\n      swap3\n      swap2\n      pop\n      pop\n      jump\t// out\n        /* \"#utility.yul\":1469:1565   */\n    tag_44:\n        /* \"#utility.yul\":1506:1513   */\n      0x00\n        /* \"#utility.yul\":1535:1559   */\n      tag_46\n        /* \"#utility.yul\":1553:1558   */\n      dup3\n        /* \"#utility.yul\":1535:1559   */\n      tag_47\n      jump\t// in\n    tag_46:\n        /* \"#utility.yul\":1524:1559   */\n      swap1\n      pop\n        /* \"#utility.yul\":1469:1565   */\n      swap2\n      swap1\n      pop\n      jump\t// out\n        /* \"#utility.yul\":1571:1697   */\n    tag_47:\n        /* \"#utility.yul\":1608:1615   */\n      0x00\n        /* \"#utility.yul\":1648:1690   */\n      0xffffffffffffffffffffffffffffffffffffffff\n        /* \"#utility.yul\":1641:1646   */\n      dup3\n        /* \"#utility.yul\":1637:1691   */\n      and\n        /* \"#utility.yul\":1626:1691   */\n      swap1\n      pop\n        /* \"#utility.yul\":1571:1697   */\n      swap2\n      swap1\n      pop\n      jump\t// out\n        /* \"#utility.yul\":1703:1780   */\n    tag_49:\n        /* \"#utility.yul\":1740:1747   */\n      0x00\n        /* \"#utility.yul\":1769:1774   */\n      dup2\n        /* \"#utility.yul\":1758:1774   */\n      swap1\n      pop\n        /* \"#utility.yul\":1703:1780   */\n      swap2\n      swap1\n      pop\n      jump\t// out\n        /* \"#utility.yul\":1786:1926   */\n    tag_39:\n        /* \"#utility.yul\":1850:1859   */\n      0x00\n        /* \"#utility.yul\":1883:1920   */\n      tag_52\n        /* \"#utility.yul\":1914:1919   */\n      dup3\n        /* \"#utility.yul\":1883:1920   */\n      tag_53\n      jump\t// in\n    tag_52:\n        /* \"#utility.yul\":1870:1920   */\n      swap1\n      pop\n        /* \"#utility.yul\":1786:1926   */\n      swap2\n      swap1\n      pop\n      jump\t// out\n        /* \"#utility.yul\":1932:2058   */\n    tag_53:\n        /* \"#utility.yul\":1982:1991   */\n      0x00\n        /* \"#utility.yul\":2015:2052   */\n      tag_55\n        /* \"#utility.yul\":2046:2051   */\n      dup3\n        /* \"#utility.yul\":2015:2052   */\n      tag_56\n      jump\t// in\n    tag_55:\n        /* \"#utility.yul\":2002:2052   */\n      swap1\n      pop\n        /* \"#utility.yul\":1932:2058   */\n      swap2\n      swap1\n      pop\n      jump\t// out\n        /* \"#utility.yul\":2064:2177   */\n    tag_56:\n        /* \"#utility.yul\":2114:2123   */\n      0x00\n        /* \"#utility.yul\":2147:2171   */\n      tag_58\n        /* \"#utility.yul\":2165:2170   */\n      dup3\n        /* \"#utility.yul\":2147:2171   */\n      tag_47\n      jump\t// in\n    tag_58:\n        /* \"#utility.yul\":2134:2171   */\n      swap1\n      pop\n        /* \"#utility.yul\":2064:2177   */\n      swap2\n      swap1\n      pop\n      jump\t// out\n        /* \"#utility.yul\":2306:2423   */\n    tag_30:\n        /* \"#utility.yul\":2415:2416   */\n      0x00\n        /* \"#utility.yul\":2412:2413   */\n      dup1\n        /* \"#utility.yul\":2405:2417   */\n      revert\n        /* \"#utility.yul\":2429:2551   */\n    tag_22:\n        /* \"#utility.yul\":2502:2526   */\n      tag_63\n        /* \"#utility.yul\":2520:2525   */\n      dup2\n        /* \"#utility.yul\":2502:2526   */\n      tag_44\n      jump\t// in\n    tag_63:\n        /* \"#utility.yul\":2495:2500   */\n      dup2\n        /* \"#utility.yul\":2492:2527   */\n      eq\n        /* \"#utility.yul\":2482:2545   */\n      tag_64\n      jumpi\n        /* \"#utility.yul\":2541:2542   */\n      0x00\n        /* \"#utility.yul\":2538:2539   */\n      dup1\n        /* \"#utility.yul\":2531:2543   */\n      revert\n        /* \"#utility.yul\":2482:2545   */\n    tag_64:\n        /* \"#utility.yul\":2429:2551   */\n      pop\n      jump\t// out\n        /* \"#utility.yul\":2557:2679   */\n    tag_26:\n        /* \"#utility.yul\":2630:2654   */\n      tag_66\n        /* \"#utility.yul\":2648:2653   */\n      dup2\n        /* \"#utility.yul\":2630:2654   */\n      tag_49\n      jump\t// in\n    tag_66:\n        /* \"#utility.yul\":2623:2628   */\n      dup2\n        /* \"#utility.yul\":2620:2655   */\n      eq\n        /* \"#utility.yul\":2610:2673   */\n      tag_67\n      jumpi\n        /* \"#utility.yul\":2669:2670   */\n      0x00\n        /* \"#utility.yul\":2666:2667   */\n      dup1\n        /* \"#utility.yul\":2659:2671   */\n      revert\n        /* \"#utility.yul\":2610:2673   */\n    tag_67:\n        /* \"#utility.yul\":2557:2679   */\n      pop\n      jump\t// out\n\n    auxdata: 0xa264697066735822122042413b2f690199dfdf22ab43186a0c9f92ee267a603544e6d6847b48d4612b3c64736f6c63430008070033\n}\n",
				"bytecode": {
					"linkReferences": {},
					"object": "608060405234801561001057600080fd5b50610252806100206000396000f3fe608060405234801561001057600080fd5b50600436106100365760003560e01c80639859387b1461003b578063f2a40db814610057575b600080fd5b610055600480360381019061005091906100f3565b610087565b005b610071600480360381019061006c9190610120565b61008a565b60405161007e919061015c565b60405180910390f35b50565b6000818154811061009a57600080fd5b906000526020600020016000915054906101000a900473ffffffffffffffffffffffffffffffffffffffff1681565b6000813590506100d8816101ee565b92915050565b6000813590506100ed81610205565b92915050565b600060208284031215610109576101086101e9565b5b6000610117848285016100c9565b91505092915050565b600060208284031215610136576101356101e9565b5b6000610144848285016100de565b91505092915050565b610156816101b3565b82525050565b6000602082019050610171600083018461014d565b92915050565b600061018282610189565b9050919050565b600073ffffffffffffffffffffffffffffffffffffffff82169050919050565b6000819050919050565b60006101be826101c5565b9050919050565b60006101d0826101d7565b9050919050565b60006101e282610189565b9050919050565b600080fd5b6101f781610177565b811461020257600080fd5b50565b61020e816101a9565b811461021957600080fd5b5056fea264697066735822122042413b2f690199dfdf22ab43186a0c9f92ee267a603544e6d6847b48d4612b3c64736f6c63430008070033",
					"opcodes": "PUSH1 0x80 PUSH1 0x40 MSTORE CALLVALUE DUP1 ISZERO PUSH2 0x10 JUMPI PUSH1 0x0 DUP1 REVERT JUMPDEST POP PUSH2 0x252 DUP1 PUSH2 0x20 PUSH1 0x0 CODECOPY PUSH1 0x0 RETURN INVALID PUSH1 0x80 PUSH1 0x40 MSTORE CALLVALUE DUP1 ISZERO PUSH2 0x10 JUMPI PUSH1 0x0 DUP1 REVERT JUMPDEST POP PUSH1 0x4 CALLDATASIZE LT PUSH2 0x36 JUMPI PUSH1 0x0 CALLDATALOAD PUSH1 0xE0 SHR DUP1 PUSH4 0x9859387B EQ PUSH2 0x3B JUMPI DUP1 PUSH4 0xF2A40DB8 EQ PUSH2 0x57 JUMPI JUMPDEST PUSH1 0x0 DUP1 REVERT JUMPDEST PUSH2 0x55 PUSH1 0x4 DUP1 CALLDATASIZE SUB DUP2 ADD SWAP1 PUSH2 0x50 SWAP2 SWAP1 PUSH2 0xF3 JUMP JUMPDEST PUSH2 0x87 JUMP JUMPDEST STOP JUMPDEST PUSH2 0x71 PUSH1 0x4 DUP1 CALLDATASIZE SUB DUP2 ADD SWAP1 PUSH2 0x6C SWAP2 SWAP1 PUSH2 0x120 JUMP JUMPDEST PUSH2 0x8A JUMP JUMPDEST PUSH1 0x40 MLOAD PUSH2 0x7E SWAP2 SWAP1 PUSH2 0x15C JUMP JUMPDEST PUSH1 0x40 MLOAD DUP1 SWAP2 SUB SWAP1 RETURN JUMPDEST POP JUMP JUMPDEST PUSH1 0x0 DUP2 DUP2 SLOAD DUP2 LT PUSH2 0x9A JUMPI PUSH1 0x0 DUP1 REVERT JUMPDEST SWAP1 PUSH1 0x0 MSTORE PUSH1 0x20 PUSH1 0x0 KECCAK256 ADD PUSH1 0x0 SWAP2 POP SLOAD SWAP1 PUSH2 0x100 EXP SWAP1 DIV PUSH20 0xFFFFFFFFFFFFFFFFFFFFFFFFFFFFFFFFFFFFFFFF AND DUP2 JUMP JUMPDEST PUSH1 0x0 DUP2 CALLDATALOAD SWAP1 POP PUSH2 0xD8 DUP2 PUSH2 0x1EE JUMP JUMPDEST SWAP3 SWAP2 POP POP JUMP JUMPDEST PUSH1 0x0 DUP2 CALLDATALOAD SWAP1 POP PUSH2 0xED DUP2 PUSH2 0x205 JUMP JUMPDEST SWAP3 SWAP2 POP POP JUMP JUMPDEST PUSH1 0x0 PUSH1 0x20 DUP3 DUP5 SUB SLT ISZERO PUSH2 0x109 JUMPI PUSH2 0x108 PUSH2 0x1E9 JUMP JUMPDEST JUMPDEST PUSH1 0x0 PUSH2 0x117 DUP5 DUP3 DUP6 ADD PUSH2 0xC9 JUMP JUMPDEST SWAP2 POP POP SWAP3 SWAP2 POP POP JUMP JUMPDEST PUSH1 0x0 PUSH1 0x20 DUP3 DUP5 SUB SLT ISZERO PUSH2 0x136 JUMPI PUSH2 0x135 PUSH2 0x1E9 JUMP JUMPDEST JUMPDEST PUSH1 0x0 PUSH2 0x144 DUP5 DUP3 DUP6 ADD PUSH2 0xDE JUMP JUMPDEST SWAP2 POP POP SWAP3 SWAP2 POP POP JUMP JUMPDEST PUSH2 0x156 DUP2 PUSH2 0x1B3 JUMP JUMPDEST DUP3 MSTORE POP POP JUMP JUMPDEST PUSH1 0x0 PUSH1 0x20 DUP3 ADD SWAP1 POP PUSH2 0x171 PUSH1 0x0 DUP4 ADD DUP5 PUSH2 0x14D JUMP JUMPDEST SWAP3 SWAP2 POP POP JUMP JUMPDEST PUSH1 0x0 PUSH2 0x182 DUP3 PUSH2 0x189 JUMP JUMPDEST SWAP1 POP SWAP2 SWAP1 POP JUMP JUMPDEST PUSH1 0x0 PUSH20 0xFFFFFFFFFFFFFFFFFFFFFFFFFFFFFFFFFFFFFFFF DUP3 AND SWAP1 POP SWAP2 SWAP1 POP JUMP JUMPDEST PUSH1 0x0 DUP2 SWAP1 POP SWAP2 SWAP1 POP JUMP JUMPDEST PUSH1 0x0 PUSH2 0x1BE DUP3 PUSH2 0x1C5 JUMP JUMPDEST SWAP1 POP SWAP2 SWAP1 POP JUMP JUMPDEST PUSH1 0x0 PUSH2 0x1D0 DUP3 PUSH2 0x1D7 JUMP JUMPDEST SWAP1 POP SWAP2 SWAP1 POP JUMP JUMPDEST PUSH1 0x0 PUSH2 0x1E2 DUP3 PUSH2 0x189 JUMP JUMPDEST SWAP1 POP SWAP2 SWAP1 POP JUMP JUMPDEST PUSH1 0x0 DUP1 REVERT JUMPDEST PUSH2 0x1F7 DUP2 PUSH2 0x177 JUMP JUMPDEST DUP2 EQ PUSH2 0x202 JUMPI PUSH1 0x0 DUP1 REVERT JUMPDEST POP JUMP JUMPDEST PUSH2 0x20E DUP2 PUSH2 0x1A9 JUMP JUMPDEST DUP2 EQ PUSH2 0x219 JUMPI PUSH1 0x0 DUP1 REVERT JUMPDEST POP JUMP INVALID LOG2 PUSH5 0x6970667358 0x22 SLT KECCAK256 TIMESTAMP COINBASE EXTCODESIZE 0x2F PUSH10 0x199DFDF22AB43186A0C SWAP16 SWAP3 0xEE 0x26 PUSH27 0x603544E6D6847B48D4612B3C64736F6C6343000807003300000000 "
				},
				"gasEstimates": {
					"creation": {
						"codeDepositCost": "118800",
						"executionCost": "165",
						"totalCost": "118965"
					},
					"external": {
						"accounts(uint256)": "5042",
						"createAccount(address)": "433"
					}
				},
				"methodIdentifiers": {
					"accounts(uint256)": "f2a40db8",
					"createAccount(address)": "9859387b"
				}
			},
			"storageLayout": {
				"storage": [
					{
						"astId": 25,
						"contract": "Day39_NewAccount.sol:AccountFactory",
						"label": "accounts",
						"offset": 0,
						"slot": "0",
						"type": "t_array(t_contract(Account)21)dyn_storage"
					}
				],
				"types": {
					"t_array(t_contract(Account)21)dyn_storage": {
						"base": "t_contract(Account)21",
						"encoding": "dynamic_array",
						"label": "contract Account[]",
						"numberOfBytes": "32"
					},
					"t_contract(Account)21": {
						"encoding": "inplace",
						"label": "contract Account",
						"numberOfBytes": "20"
					}
				}
			},
			"userdoc": {
				"kind": "user",
				"methods": {},
				"version": 1
			}
		}
	}
}