{
	"Day35_CallOtherContract.sol": {
		"CallTestContract": {
			"abi": [
				{
					"inputs": [
						{
							"internalType": "address",
							"name": "_test",
							"type": "address"
						}
					],
					"name": "getX",
					"outputs": [
						{
							"internalType": "uint256",
							"name": "x",
							"type": "uint256"
						}
					],
					"stateMutability": "view",
					"type": "function"
				},
				{
					"inputs": [
						{
							"internalType": "contract TestContract",
							"name": "_test",
							"type": "address"
						},
						{
							"internalType": "uint256",
							"name": "_x",
							"type": "uint256"
						}
					],
					"name": "setX",
					"outputs": [],
					"stateMutability": "nonpayable",
					"type": "function"
				},
				{
					"inputs": [
						{
							"internalType": "address",
							"name": "_test",
							"type": "address"
						},
						{
							"internalType": "uint256",
							"name": "_x",
							"type": "uint256"
						}
					],
					"name": "setXandSendEther",
					"outputs": [],
					"stateMutability": "payable",
					"type": "function"
				}
			],
			"devdoc": {
				"kind": "dev",
				"methods": {},
				"version": 1
			},
			"evm": {
				"assembly": "    /* \"Day35_CallOtherContract.sol\":58:377  contract CallTestContract {... */\n  mstore(0x40, 0x80)\n  callvalue\n  dup1\n  iszero\n  tag_1\n  jumpi\n  0x00\n  dup1\n  revert\ntag_1:\n  pop\n  dataSize(sub_0)\n  dup1\n  dataOffset(sub_0)\n  0x00\n  codecopy\n  0x00\n  return\nstop\n\nsub_0: assembly {\n        /* \"Day35_CallOtherContract.sol\":58:377  contract CallTestContract {... */\n      mstore(0x40, 0x80)\n      jumpi(tag_1, lt(calldatasize, 0x04))\n      shr(0xe0, calldataload(0x00))\n      dup1\n      0x4a2ad99f\n      eq\n      tag_2\n      jumpi\n      dup1\n      0x7c94c8ca\n      eq\n      tag_3\n      jumpi\n      dup1\n      0xd44abc42\n      eq\n      tag_4\n      jumpi\n    tag_1:\n      0x00\n      dup1\n      revert\n        /* \"Day35_CallOtherContract.sol\":90:173  function setX(TestContract _test, uint _x) external {... */\n    tag_2:\n      callvalue\n      dup1\n      iszero\n      tag_5\n      jumpi\n      0x00\n      dup1\n      revert\n    tag_5:\n      pop\n      tag_6\n      0x04\n      dup1\n      calldatasize\n      sub\n      dup2\n      add\n      swap1\n      tag_7\n      swap2\n      swap1\n      tag_8\n      jump\t// in\n    tag_7:\n      tag_9\n      jump\t// in\n    tag_6:\n      stop\n        /* \"Day35_CallOtherContract.sol\":179:285  function getX(address _test) external view returns(uint x) {... */\n    tag_3:\n      callvalue\n      dup1\n      iszero\n      tag_10\n      jumpi\n      0x00\n      dup1\n      revert\n    tag_10:\n      pop\n      tag_11\n      0x04\n      dup1\n      calldatasize\n      sub\n      dup2\n      add\n      swap1\n      tag_12\n      swap2\n      swap1\n      tag_13\n      jump\t// in\n    tag_12:\n      tag_14\n      jump\t// in\n    tag_11:\n      mload(0x40)\n      tag_15\n      swap2\n      swap1\n      tag_16\n      jump\t// in\n    tag_15:\n      mload(0x40)\n      dup1\n      swap2\n      sub\n      swap1\n      return\n        /* \"Day35_CallOtherContract.sol\":291:374  function setXandSendEther(address _test, uint _x) external payable {... */\n    tag_4:\n      tag_17\n      0x04\n      dup1\n      calldatasize\n      sub\n      dup2\n      add\n      swap1\n      tag_18\n      swap2\n      swap1\n      tag_19\n      jump\t// in\n    tag_18:\n      tag_20\n      jump\t// in\n    tag_17:\n      stop\n        /* \"Day35_CallOtherContract.sol\":90:173  function setX(TestContract _test, uint _x) external {... */\n    tag_9:\n        /* \"Day35_CallOtherContract.sol\":152:157  _test */\n      dup2\n        /* \"Day35_CallOtherContract.sol\":152:162  _test.setX */\n      0xffffffffffffffffffffffffffffffffffffffff\n      and\n      0x4018d9aa\n        /* \"Day35_CallOtherContract.sol\":163:165  _x */\n      dup3\n        /* \"Day35_CallOtherContract.sol\":152:166  _test.setX(_x) */\n      mload(0x40)\n      dup3\n      0xffffffff\n      and\n      0xe0\n      shl\n      dup2\n      mstore\n      0x04\n      add\n      tag_22\n      swap2\n      swap1\n      tag_16\n      jump\t// in\n    tag_22:\n      0x00\n      mload(0x40)\n      dup1\n      dup4\n      sub\n      dup2\n      0x00\n      dup8\n      dup1\n      extcodesize\n      iszero\n      dup1\n      iszero\n      tag_23\n      jumpi\n      0x00\n      dup1\n      revert\n    tag_23:\n      pop\n      gas\n      call\n      iszero\n      dup1\n      iszero\n      tag_25\n      jumpi\n      returndatasize\n      0x00\n      dup1\n      returndatacopy\n      revert(0x00, returndatasize)\n    tag_25:\n      pop\n      pop\n      pop\n      pop\n        /* \"Day35_CallOtherContract.sol\":90:173  function setX(TestContract _test, uint _x) external {... */\n      pop\n      pop\n      jump\t// out\n        /* \"Day35_CallOtherContract.sol\":179:285  function getX(address _test) external view returns(uint x) {... */\n    tag_14:\n        /* \"Day35_CallOtherContract.sol\":230:236  uint x */\n      0x00\n        /* \"Day35_CallOtherContract.sol\":265:270  _test */\n      dup2\n        /* \"Day35_CallOtherContract.sol\":252:276  TestContract(_test).getX */\n      0xffffffffffffffffffffffffffffffffffffffff\n      and\n      0x5197c7aa\n        /* \"Day35_CallOtherContract.sol\":252:278  TestContract(_test).getX() */\n      mload(0x40)\n      dup2\n      0xffffffff\n      and\n      0xe0\n      shl\n      dup2\n      mstore\n      0x04\n      add\n      0x20\n      mload(0x40)\n      dup1\n      dup4\n      sub\n      dup2\n      dup7\n      dup1\n      extcodesize\n      iszero\n      dup1\n      iszero\n      tag_27\n      jumpi\n      0x00\n      dup1\n      revert\n    tag_27:\n      pop\n      gas\n      staticcall\n      iszero\n      dup1\n      iszero\n      tag_29\n      jumpi\n      returndatasize\n      0x00\n      dup1\n      returndatacopy\n      revert(0x00, returndatasize)\n    tag_29:\n      pop\n      pop\n      pop\n      pop\n      mload(0x40)\n      returndatasize\n      not(0x1f)\n      0x1f\n      dup3\n      add\n      and\n      dup3\n      add\n      dup1\n      0x40\n      mstore\n      pop\n      dup2\n      add\n      swap1\n      tag_30\n      swap2\n      swap1\n      tag_31\n      jump\t// in\n    tag_30:\n        /* \"Day35_CallOtherContract.sol\":248:278  x = TestContract(_test).getX() */\n      swap1\n      pop\n        /* \"Day35_CallOtherContract.sol\":179:285  function getX(address _test) external view returns(uint x) {... */\n      swap2\n      swap1\n      pop\n      jump\t// out\n        /* \"Day35_CallOtherContract.sol\":291:374  function setXandSendEther(address _test, uint _x) external payable {... */\n    tag_20:\n      pop\n      pop\n      jump\t// out\n        /* \"#utility.yul\":7:146   */\n    tag_34:\n        /* \"#utility.yul\":53:58   */\n      0x00\n        /* \"#utility.yul\":91:97   */\n      dup2\n        /* \"#utility.yul\":78:98   */\n      calldataload\n        /* \"#utility.yul\":69:98   */\n      swap1\n      pop\n        /* \"#utility.yul\":107:140   */\n      tag_36\n        /* \"#utility.yul\":134:139   */\n      dup2\n        /* \"#utility.yul\":107:140   */\n      tag_37\n      jump\t// in\n    tag_36:\n        /* \"#utility.yul\":7:146   */\n      swap3\n      swap2\n      pop\n      pop\n      jump\t// out\n        /* \"#utility.yul\":152:329   */\n    tag_38:\n        /* \"#utility.yul\":217:222   */\n      0x00\n        /* \"#utility.yul\":255:261   */\n      dup2\n        /* \"#utility.yul\":242:262   */\n      calldataload\n        /* \"#utility.yul\":233:262   */\n      swap1\n      pop\n        /* \"#utility.yul\":271:323   */\n      tag_40\n        /* \"#utility.yul\":317:322   */\n      dup2\n        /* \"#utility.yul\":271:323   */\n      tag_41\n      jump\t// in\n    tag_40:\n        /* \"#utility.yul\":152:329   */\n      swap3\n      swap2\n      pop\n      pop\n      jump\t// out\n        /* \"#utility.yul\":335:474   */\n    tag_42:\n        /* \"#utility.yul\":381:386   */\n      0x00\n        /* \"#utility.yul\":419:425   */\n      dup2\n        /* \"#utility.yul\":406:426   */\n      calldataload\n        /* \"#utility.yul\":397:426   */\n      swap1\n      pop\n        /* \"#utility.yul\":435:468   */\n      tag_44\n        /* \"#utility.yul\":462:467   */\n      dup2\n        /* \"#utility.yul\":435:468   */\n      tag_45\n      jump\t// in\n    tag_44:\n        /* \"#utility.yul\":335:474   */\n      swap3\n      swap2\n      pop\n      pop\n      jump\t// out\n        /* \"#utility.yul\":480:623   */\n    tag_46:\n        /* \"#utility.yul\":537:542   */\n      0x00\n        /* \"#utility.yul\":568:574   */\n      dup2\n        /* \"#utility.yul\":562:575   */\n      mload\n        /* \"#utility.yul\":553:575   */\n      swap1\n      pop\n        /* \"#utility.yul\":584:617   */\n      tag_48\n        /* \"#utility.yul\":611:616   */\n      dup2\n        /* \"#utility.yul\":584:617   */\n      tag_45\n      jump\t// in\n    tag_48:\n        /* \"#utility.yul\":480:623   */\n      swap3\n      swap2\n      pop\n      pop\n      jump\t// out\n        /* \"#utility.yul\":629:958   */\n    tag_13:\n        /* \"#utility.yul\":688:694   */\n      0x00\n        /* \"#utility.yul\":737:739   */\n      0x20\n        /* \"#utility.yul\":725:734   */\n      dup3\n        /* \"#utility.yul\":716:723   */\n      dup5\n        /* \"#utility.yul\":712:735   */\n      sub\n        /* \"#utility.yul\":708:740   */\n      slt\n        /* \"#utility.yul\":705:824   */\n      iszero\n      tag_50\n      jumpi\n        /* \"#utility.yul\":743:822   */\n      tag_51\n      tag_52\n      jump\t// in\n    tag_51:\n        /* \"#utility.yul\":705:824   */\n    tag_50:\n        /* \"#utility.yul\":863:864   */\n      0x00\n        /* \"#utility.yul\":888:941   */\n      tag_53\n        /* \"#utility.yul\":933:940   */\n      dup5\n        /* \"#utility.yul\":924:930   */\n      dup3\n        /* \"#utility.yul\":913:922   */\n      dup6\n        /* \"#utility.yul\":909:931   */\n      add\n        /* \"#utility.yul\":888:941   */\n      tag_34\n      jump\t// in\n    tag_53:\n        /* \"#utility.yul\":878:941   */\n      swap2\n      pop\n        /* \"#utility.yul\":834:951   */\n      pop\n        /* \"#utility.yul\":629:958   */\n      swap3\n      swap2\n      pop\n      pop\n      jump\t// out\n        /* \"#utility.yul\":964:1438   */\n    tag_19:\n        /* \"#utility.yul\":1032:1038   */\n      0x00\n        /* \"#utility.yul\":1040:1046   */\n      dup1\n        /* \"#utility.yul\":1089:1091   */\n      0x40\n        /* \"#utility.yul\":1077:1086   */\n      dup4\n        /* \"#utility.yul\":1068:1075   */\n      dup6\n        /* \"#utility.yul\":1064:1087   */\n      sub\n        /* \"#utility.yul\":1060:1092   */\n      slt\n        /* \"#utility.yul\":1057:1176   */\n      iszero\n      tag_55\n      jumpi\n        /* \"#utility.yul\":1095:1174   */\n      tag_56\n      tag_52\n      jump\t// in\n    tag_56:\n        /* \"#utility.yul\":1057:1176   */\n    tag_55:\n        /* \"#utility.yul\":1215:1216   */\n      0x00\n        /* \"#utility.yul\":1240:1293   */\n      tag_57\n        /* \"#utility.yul\":1285:1292   */\n      dup6\n        /* \"#utility.yul\":1276:1282   */\n      dup3\n        /* \"#utility.yul\":1265:1274   */\n      dup7\n        /* \"#utility.yul\":1261:1283   */\n      add\n        /* \"#utility.yul\":1240:1293   */\n      tag_34\n      jump\t// in\n    tag_57:\n        /* \"#utility.yul\":1230:1293   */\n      swap3\n      pop\n        /* \"#utility.yul\":1186:1303   */\n      pop\n        /* \"#utility.yul\":1342:1344   */\n      0x20\n        /* \"#utility.yul\":1368:1421   */\n      tag_58\n        /* \"#utility.yul\":1413:1420   */\n      dup6\n        /* \"#utility.yul\":1404:1410   */\n      dup3\n        /* \"#utility.yul\":1393:1402   */\n      dup7\n        /* \"#utility.yul\":1389:1411   */\n      add\n        /* \"#utility.yul\":1368:1421   */\n      tag_42\n      jump\t// in\n    tag_58:\n        /* \"#utility.yul\":1358:1421   */\n      swap2\n      pop\n        /* \"#utility.yul\":1313:1431   */\n      pop\n        /* \"#utility.yul\":964:1438   */\n      swap3\n      pop\n      swap3\n      swap1\n      pop\n      jump\t// out\n        /* \"#utility.yul\":1444:1956   */\n    tag_8:\n        /* \"#utility.yul\":1531:1537   */\n      0x00\n        /* \"#utility.yul\":1539:1545   */\n      dup1\n        /* \"#utility.yul\":1588:1590   */\n      0x40\n        /* \"#utility.yul\":1576:1585   */\n      dup4\n        /* \"#utility.yul\":1567:1574   */\n      dup6\n        /* \"#utility.yul\":1563:1586   */\n      sub\n        /* \"#utility.yul\":1559:1591   */\n      slt\n        /* \"#utility.yul\":1556:1675   */\n      iszero\n      tag_60\n      jumpi\n        /* \"#utility.yul\":1594:1673   */\n      tag_61\n      tag_52\n      jump\t// in\n    tag_61:\n        /* \"#utility.yul\":1556:1675   */\n    tag_60:\n        /* \"#utility.yul\":1714:1715   */\n      0x00\n        /* \"#utility.yul\":1739:1811   */\n      tag_62\n        /* \"#utility.yul\":1803:1810   */\n      dup6\n        /* \"#utility.yul\":1794:1800   */\n      dup3\n        /* \"#utility.yul\":1783:1792   */\n      dup7\n        /* \"#utility.yul\":1779:1801   */\n      add\n        /* \"#utility.yul\":1739:1811   */\n      tag_38\n      jump\t// in\n    tag_62:\n        /* \"#utility.yul\":1729:1811   */\n      swap3\n      pop\n        /* \"#utility.yul\":1685:1821   */\n      pop\n        /* \"#utility.yul\":1860:1862   */\n      0x20\n        /* \"#utility.yul\":1886:1939   */\n      tag_63\n        /* \"#utility.yul\":1931:1938   */\n      dup6\n        /* \"#utility.yul\":1922:1928   */\n      dup3\n        /* \"#utility.yul\":1911:1920   */\n      dup7\n        /* \"#utility.yul\":1907:1929   */\n      add\n        /* \"#utility.yul\":1886:1939   */\n      tag_42\n      jump\t// in\n    tag_63:\n        /* \"#utility.yul\":1876:1939   */\n      swap2\n      pop\n        /* \"#utility.yul\":1831:1949   */\n      pop\n        /* \"#utility.yul\":1444:1956   */\n      swap3\n      pop\n      swap3\n      swap1\n      pop\n      jump\t// out\n        /* \"#utility.yul\":1962:2313   */\n    tag_31:\n        /* \"#utility.yul\":2032:2038   */\n      0x00\n        /* \"#utility.yul\":2081:2083   */\n      0x20\n        /* \"#utility.yul\":2069:2078   */\n      dup3\n        /* \"#utility.yul\":2060:2067   */\n      dup5\n        /* \"#utility.yul\":2056:2079   */\n      sub\n        /* \"#utility.yul\":2052:2084   */\n      slt\n        /* \"#utility.yul\":2049:2168   */\n      iszero\n      tag_65\n      jumpi\n        /* \"#utility.yul\":2087:2166   */\n      tag_66\n      tag_52\n      jump\t// in\n    tag_66:\n        /* \"#utility.yul\":2049:2168   */\n    tag_65:\n        /* \"#utility.yul\":2207:2208   */\n      0x00\n        /* \"#utility.yul\":2232:2296   */\n      tag_67\n        /* \"#utility.yul\":2288:2295   */\n      dup5\n        /* \"#utility.yul\":2279:2285   */\n      dup3\n        /* \"#utility.yul\":2268:2277   */\n      dup6\n        /* \"#utility.yul\":2264:2286   */\n      add\n        /* \"#utility.yul\":2232:2296   */\n      tag_46\n      jump\t// in\n    tag_67:\n        /* \"#utility.yul\":2222:2296   */\n      swap2\n      pop\n        /* \"#utility.yul\":2178:2306   */\n      pop\n        /* \"#utility.yul\":1962:2313   */\n      swap3\n      swap2\n      pop\n      pop\n      jump\t// out\n        /* \"#utility.yul\":2319:2437   */\n    tag_68:\n        /* \"#utility.yul\":2406:2430   */\n      tag_70\n        /* \"#utility.yul\":2424:2429   */\n      dup2\n        /* \"#utility.yul\":2406:2430   */\n      tag_71\n      jump\t// in\n    tag_70:\n        /* \"#utility.yul\":2401:2404   */\n      dup3\n        /* \"#utility.yul\":2394:2431   */\n      mstore\n        /* \"#utility.yul\":2319:2437   */\n      pop\n      pop\n      jump\t// out\n        /* \"#utility.yul\":2443:2665   */\n    tag_16:\n        /* \"#utility.yul\":2536:2540   */\n      0x00\n        /* \"#utility.yul\":2574:2576   */\n      0x20\n        /* \"#utility.yul\":2563:2572   */\n      dup3\n        /* \"#utility.yul\":2559:2577   */\n      add\n        /* \"#utility.yul\":2551:2577   */\n      swap1\n      pop\n        /* \"#utility.yul\":2587:2658   */\n      tag_73\n        /* \"#utility.yul\":2655:2656   */\n      0x00\n        /* \"#utility.yul\":2644:2653   */\n      dup4\n        /* \"#utility.yul\":2640:2657   */\n      add\n        /* \"#utility.yul\":2631:2637   */\n      dup5\n        /* \"#utility.yul\":2587:2658   */\n      tag_68\n      jump\t// in\n    tag_73:\n        /* \"#utility.yul\":2443:2665   */\n      swap3\n      swap2\n      pop\n      pop\n      jump\t// out\n        /* \"#utility.yul\":2752:2848   */\n    tag_76:\n        /* \"#utility.yul\":2789:2796   */\n      0x00\n        /* \"#utility.yul\":2818:2842   */\n      tag_78\n        /* \"#utility.yul\":2836:2841   */\n      dup3\n        /* \"#utility.yul\":2818:2842   */\n      tag_79\n      jump\t// in\n    tag_78:\n        /* \"#utility.yul\":2807:2842   */\n      swap1\n      pop\n        /* \"#utility.yul\":2752:2848   */\n      swap2\n      swap1\n      pop\n      jump\t// out\n        /* \"#utility.yul\":2854:2969   */\n    tag_80:\n        /* \"#utility.yul\":2910:2917   */\n      0x00\n        /* \"#utility.yul\":2939:2963   */\n      tag_82\n        /* \"#utility.yul\":2957:2962   */\n      dup3\n        /* \"#utility.yul\":2939:2963   */\n      tag_76\n      jump\t// in\n    tag_82:\n        /* \"#utility.yul\":2928:2963   */\n      swap1\n      pop\n        /* \"#utility.yul\":2854:2969   */\n      swap2\n      swap1\n      pop\n      jump\t// out\n        /* \"#utility.yul\":2975:3101   */\n    tag_79:\n        /* \"#utility.yul\":3012:3019   */\n      0x00\n        /* \"#utility.yul\":3052:3094   */\n      0xffffffffffffffffffffffffffffffffffffffff\n        /* \"#utility.yul\":3045:3050   */\n      dup3\n        /* \"#utility.yul\":3041:3095   */\n      and\n        /* \"#utility.yul\":3030:3095   */\n      swap1\n      pop\n        /* \"#utility.yul\":2975:3101   */\n      swap2\n      swap1\n      pop\n      jump\t// out\n        /* \"#utility.yul\":3107:3184   */\n    tag_71:\n        /* \"#utility.yul\":3144:3151   */\n      0x00\n        /* \"#utility.yul\":3173:3178   */\n      dup2\n        /* \"#utility.yul\":3162:3178   */\n      swap1\n      pop\n        /* \"#utility.yul\":3107:3184   */\n      swap2\n      swap1\n      pop\n      jump\t// out\n        /* \"#utility.yul\":3313:3430   */\n    tag_52:\n        /* \"#utility.yul\":3422:3423   */\n      0x00\n        /* \"#utility.yul\":3419:3420   */\n      dup1\n        /* \"#utility.yul\":3412:3424   */\n      revert\n        /* \"#utility.yul\":3436:3558   */\n    tag_37:\n        /* \"#utility.yul\":3509:3533   */\n      tag_89\n        /* \"#utility.yul\":3527:3532   */\n      dup2\n        /* \"#utility.yul\":3509:3533   */\n      tag_76\n      jump\t// in\n    tag_89:\n        /* \"#utility.yul\":3502:3507   */\n      dup2\n        /* \"#utility.yul\":3499:3534   */\n      eq\n        /* \"#utility.yul\":3489:3552   */\n      tag_90\n      jumpi\n        /* \"#utility.yul\":3548:3549   */\n      0x00\n        /* \"#utility.yul\":3545:3546   */\n      dup1\n        /* \"#utility.yul\":3538:3550   */\n      revert\n        /* \"#utility.yul\":3489:3552   */\n    tag_90:\n        /* \"#utility.yul\":3436:3558   */\n      pop\n      jump\t// out\n        /* \"#utility.yul\":3564:3724   */\n    tag_41:\n        /* \"#utility.yul\":3656:3699   */\n      tag_92\n        /* \"#utility.yul\":3693:3698   */\n      dup2\n        /* \"#utility.yul\":3656:3699   */\n      tag_80\n      jump\t// in\n    tag_92:\n        /* \"#utility.yul\":3649:3654   */\n      dup2\n        /* \"#utility.yul\":3646:3700   */\n      eq\n        /* \"#utility.yul\":3636:3718   */\n      tag_93\n      jumpi\n        /* \"#utility.yul\":3714:3715   */\n      0x00\n        /* \"#utility.yul\":3711:3712   */\n      dup1\n        /* \"#utility.yul\":3704:3716   */\n      revert\n        /* \"#utility.yul\":3636:3718   */\n    tag_93:\n        /* \"#utility.yul\":3564:3724   */\n      pop\n      jump\t// out\n        /* \"#utility.yul\":3730:3852   */\n    tag_45:\n        /* \"#utility.yul\":3803:3827   */\n      tag_95\n        /* \"#utility.yul\":3821:3826   */\n      dup2\n        /* \"#utility.yul\":3803:3827   */\n      tag_71\n      jump\t// in\n    tag_95:\n        /* \"#utility.yul\":3796:3801   */\n      dup2\n        /* \"#utility.yul\":3793:3828   */\n      eq\n        /* \"#utility.yul\":3783:3846   */\n      tag_96\n      jumpi\n        /* \"#utility.yul\":3842:3843   */\n      0x00\n        /* \"#utility.yul\":3839:3840   */\n      dup1\n        /* \"#utility.yul\":3832:3844   */\n      revert\n        /* \"#utility.yul\":3783:3846   */\n    tag_96:\n        /* \"#utility.yul\":3730:3852   */\n      pop\n      jump\t// out\n\n    auxdata: 0xa26469706673582212207568f721b2b5071065ef870cb64ef0100d0d93b82bd08685cdfcfdc867092aba64736f6c63430008070033\n}\n",
				"bytecode": {
					"linkReferences": {},
					"object": "608060405234801561001057600080fd5b506103db806100206000396000f3fe6080604052600436106100345760003560e01c80634a2ad99f146100395780637c94c8ca14610062578063d44abc421461009f575b600080fd5b34801561004557600080fd5b50610060600480360381019061005b9190610276565b6100bb565b005b34801561006e57600080fd5b5061008960048036038101906100849190610209565b61012a565b60405161009691906102f2565b60405180910390f35b6100b960048036038101906100b49190610236565b6101b1565b005b8173ffffffffffffffffffffffffffffffffffffffff16634018d9aa826040518263ffffffff1660e01b81526004016100f491906102f2565b600060405180830381600087803b15801561010e57600080fd5b505af1158015610122573d6000803e3d6000fd5b505050505050565b60008173ffffffffffffffffffffffffffffffffffffffff16635197c7aa6040518163ffffffff1660e01b815260040160206040518083038186803b15801561017257600080fd5b505afa158015610186573d6000803e3d6000fd5b505050506040513d601f19601f820116820180604052508101906101aa91906102b6565b9050919050565b5050565b6000813590506101c481610360565b92915050565b6000813590506101d981610377565b92915050565b6000813590506101ee8161038e565b92915050565b6000815190506102038161038e565b92915050565b60006020828403121561021f5761021e61035b565b5b600061022d848285016101b5565b91505092915050565b6000806040838503121561024d5761024c61035b565b5b600061025b858286016101b5565b925050602061026c858286016101df565b9150509250929050565b6000806040838503121561028d5761028c61035b565b5b600061029b858286016101ca565b92505060206102ac858286016101df565b9150509250929050565b6000602082840312156102cc576102cb61035b565b5b60006102da848285016101f4565b91505092915050565b6102ec81610351565b82525050565b600060208201905061030760008301846102e3565b92915050565b600061031882610331565b9050919050565b600061032a8261030d565b9050919050565b600073ffffffffffffffffffffffffffffffffffffffff82169050919050565b6000819050919050565b600080fd5b6103698161030d565b811461037457600080fd5b50565b6103808161031f565b811461038b57600080fd5b50565b61039781610351565b81146103a257600080fd5b5056fea26469706673582212207568f721b2b5071065ef870cb64ef0100d0d93b82bd08685cdfcfdc867092aba64736f6c63430008070033",
					"opcodes": "PUSH1 0x80 PUSH1 0x40 MSTORE CALLVALUE DUP1 ISZERO PUSH2 0x10 JUMPI PUSH1 0x0 DUP1 REVERT JUMPDEST POP PUSH2 0x3DB DUP1 PUSH2 0x20 PUSH1 0x0 CODECOPY PUSH1 0x0 RETURN INVALID PUSH1 0x80 PUSH1 0x40 MSTORE PUSH1 0x4 CALLDATASIZE LT PUSH2 0x34 JUMPI PUSH1 0x0 CALLDATALOAD PUSH1 0xE0 SHR DUP1 PUSH4 0x4A2AD99F EQ PUSH2 0x39 JUMPI DUP1 PUSH4 0x7C94C8CA EQ PUSH2 0x62 JUMPI DUP1 PUSH4 0xD44ABC42 EQ PUSH2 0x9F JUMPI JUMPDEST PUSH1 0x0 DUP1 REVERT JUMPDEST CALLVALUE DUP1 ISZERO PUSH2 0x45 JUMPI PUSH1 0x0 DUP1 REVERT JUMPDEST POP PUSH2 0x60 PUSH1 0x4 DUP1 CALLDATASIZE SUB DUP2 ADD SWAP1 PUSH2 0x5B SWAP2 SWAP1 PUSH2 0x276 JUMP JUMPDEST PUSH2 0xBB JUMP JUMPDEST STOP JUMPDEST CALLVALUE DUP1 ISZERO PUSH2 0x6E JUMPI PUSH1 0x0 DUP1 REVERT JUMPDEST POP PUSH2 0x89 PUSH1 0x4 DUP1 CALLDATASIZE SUB DUP2 ADD SWAP1 PUSH2 0x84 SWAP2 SWAP1 PUSH2 0x209 JUMP JUMPDEST PUSH2 0x12A JUMP JUMPDEST PUSH1 0x40 MLOAD PUSH2 0x96 SWAP2 SWAP1 PUSH2 0x2F2 JUMP JUMPDEST PUSH1 0x40 MLOAD DUP1 SWAP2 SUB SWAP1 RETURN JUMPDEST PUSH2 0xB9 PUSH1 0x4 DUP1 CALLDATASIZE SUB DUP2 ADD SWAP1 PUSH2 0xB4 SWAP2 SWAP1 PUSH2 0x236 JUMP JUMPDEST PUSH2 0x1B1 JUMP JUMPDEST STOP JUMPDEST DUP2 PUSH20 0xFFFFFFFFFFFFFFFFFFFFFFFFFFFFFFFFFFFFFFFF AND PUSH4 0x4018D9AA DUP3 PUSH1 0x40 MLOAD DUP3 PUSH4 0xFFFFFFFF AND PUSH1 0xE0 SHL DUP2 MSTORE PUSH1 0x4 ADD PUSH2 0xF4 SWAP2 SWAP1 PUSH2 0x2F2 JUMP JUMPDEST PUSH1 0x0 PUSH1 0x40 MLOAD DUP1 DUP4 SUB DUP2 PUSH1 0x0 DUP8 DUP1 EXTCODESIZE ISZERO DUP1 ISZERO PUSH2 0x10E JUMPI PUSH1 0x0 DUP1 REVERT JUMPDEST POP GAS CALL ISZERO DUP1 ISZERO PUSH2 0x122 JUMPI RETURNDATASIZE PUSH1 0x0 DUP1 RETURNDATACOPY RETURNDATASIZE PUSH1 0x0 REVERT JUMPDEST POP POP POP POP POP POP JUMP JUMPDEST PUSH1 0x0 DUP2 PUSH20 0xFFFFFFFFFFFFFFFFFFFFFFFFFFFFFFFFFFFFFFFF AND PUSH4 0x5197C7AA PUSH1 0x40 MLOAD DUP2 PUSH4 0xFFFFFFFF AND PUSH1 0xE0 SHL DUP2 MSTORE PUSH1 0x4 ADD PUSH1 0x20 PUSH1 0x40 MLOAD DUP1 DUP4 SUB DUP2 DUP7 DUP1 EXTCODESIZE ISZERO DUP1 ISZERO PUSH2 0x172 JUMPI PUSH1 0x0 DUP1 REVERT JUMPDEST POP GAS STATICCALL ISZERO DUP1 ISZERO PUSH2 0x186 JUMPI RETURNDATASIZE PUSH1 0x0 DUP1 RETURNDATACOPY RETURNDATASIZE PUSH1 0x0 REVERT JUMPDEST POP POP POP POP PUSH1 0x40 MLOAD RETURNDATASIZE PUSH1 0x1F NOT PUSH1 0x1F DUP3 ADD AND DUP3 ADD DUP1 PUSH1 0x40 MSTORE POP DUP2 ADD SWAP1 PUSH2 0x1AA SWAP2 SWAP1 PUSH2 0x2B6 JUMP JUMPDEST SWAP1 POP SWAP2 SWAP1 POP JUMP JUMPDEST POP POP JUMP JUMPDEST PUSH1 0x0 DUP2 CALLDATALOAD SWAP1 POP PUSH2 0x1C4 DUP2 PUSH2 0x360 JUMP JUMPDEST SWAP3 SWAP2 POP POP JUMP JUMPDEST PUSH1 0x0 DUP2 CALLDATALOAD SWAP1 POP PUSH2 0x1D9 DUP2 PUSH2 0x377 JUMP JUMPDEST SWAP3 SWAP2 POP POP JUMP JUMPDEST PUSH1 0x0 DUP2 CALLDATALOAD SWAP1 POP PUSH2 0x1EE DUP2 PUSH2 0x38E JUMP JUMPDEST SWAP3 SWAP2 POP POP JUMP JUMPDEST PUSH1 0x0 DUP2 MLOAD SWAP1 POP PUSH2 0x203 DUP2 PUSH2 0x38E JUMP JUMPDEST SWAP3 SWAP2 POP POP JUMP JUMPDEST PUSH1 0x0 PUSH1 0x20 DUP3 DUP5 SUB SLT ISZERO PUSH2 0x21F JUMPI PUSH2 0x21E PUSH2 0x35B JUMP JUMPDEST JUMPDEST PUSH1 0x0 PUSH2 0x22D DUP5 DUP3 DUP6 ADD PUSH2 0x1B5 JUMP JUMPDEST SWAP2 POP POP SWAP3 SWAP2 POP POP JUMP JUMPDEST PUSH1 0x0 DUP1 PUSH1 0x40 DUP4 DUP6 SUB SLT ISZERO PUSH2 0x24D JUMPI PUSH2 0x24C PUSH2 0x35B JUMP JUMPDEST JUMPDEST PUSH1 0x0 PUSH2 0x25B DUP6 DUP3 DUP7 ADD PUSH2 0x1B5 JUMP JUMPDEST SWAP3 POP POP PUSH1 0x20 PUSH2 0x26C DUP6 DUP3 DUP7 ADD PUSH2 0x1DF JUMP JUMPDEST SWAP2 POP POP SWAP3 POP SWAP3 SWAP1 POP JUMP JUMPDEST PUSH1 0x0 DUP1 PUSH1 0x40 DUP4 DUP6 SUB SLT ISZERO PUSH2 0x28D JUMPI PUSH2 0x28C PUSH2 0x35B JUMP JUMPDEST JUMPDEST PUSH1 0x0 PUSH2 0x29B DUP6 DUP3 DUP7 ADD PUSH2 0x1CA JUMP JUMPDEST SWAP3 POP POP PUSH1 0x20 PUSH2 0x2AC DUP6 DUP3 DUP7 ADD PUSH2 0x1DF JUMP JUMPDEST SWAP2 POP POP SWAP3 POP SWAP3 SWAP1 POP JUMP JUMPDEST PUSH1 0x0 PUSH1 0x20 DUP3 DUP5 SUB SLT ISZERO PUSH2 0x2CC JUMPI PUSH2 0x2CB PUSH2 0x35B JUMP JUMPDEST JUMPDEST PUSH1 0x0 PUSH2 0x2DA DUP5 DUP3 DUP6 ADD PUSH2 0x1F4 JUMP JUMPDEST SWAP2 POP POP SWAP3 SWAP2 POP POP JUMP JUMPDEST PUSH2 0x2EC DUP2 PUSH2 0x351 JUMP JUMPDEST DUP3 MSTORE POP POP JUMP JUMPDEST PUSH1 0x0 PUSH1 0x20 DUP3 ADD SWAP1 POP PUSH2 0x307 PUSH1 0x0 DUP4 ADD DUP5 PUSH2 0x2E3 JUMP JUMPDEST SWAP3 SWAP2 POP POP JUMP JUMPDEST PUSH1 0x0 PUSH2 0x318 DUP3 PUSH2 0x331 JUMP JUMPDEST SWAP1 POP SWAP2 SWAP1 POP JUMP JUMPDEST PUSH1 0x0 PUSH2 0x32A DUP3 PUSH2 0x30D JUMP JUMPDEST SWAP1 POP SWAP2 SWAP1 POP JUMP JUMPDEST PUSH1 0x0 PUSH20 0xFFFFFFFFFFFFFFFFFFFFFFFFFFFFFFFFFFFFFFFF DUP3 AND SWAP1 POP SWAP2 SWAP1 POP JUMP JUMPDEST PUSH1 0x0 DUP2 SWAP1 POP SWAP2 SWAP1 POP JUMP JUMPDEST PUSH1 0x0 DUP1 REVERT JUMPDEST PUSH2 0x369 DUP2 PUSH2 0x30D JUMP JUMPDEST DUP2 EQ PUSH2 0x374 JUMPI PUSH1 0x0 DUP1 REVERT JUMPDEST POP JUMP JUMPDEST PUSH2 0x380 DUP2 PUSH2 0x31F JUMP JUMPDEST DUP2 EQ PUSH2 0x38B JUMPI PUSH1 0x0 DUP1 REVERT JUMPDEST POP JUMP JUMPDEST PUSH2 0x397 DUP2 PUSH2 0x351 JUMP JUMPDEST DUP2 EQ PUSH2 0x3A2 JUMPI PUSH1 0x0 DUP1 REVERT JUMPDEST POP JUMP INVALID LOG2 PUSH5 0x6970667358 0x22 SLT KECCAK256 PUSH22 0x68F721B2B5071065EF870CB64EF0100D0D93B82BD086 DUP6 0xCD 0xFC REVERT 0xC8 PUSH8 0x92ABA64736F6C63 NUMBER STOP ADDMOD SMOD STOP CALLER "
				},
				"gasEstimates": {
					"creation": {
						"codeDepositCost": "197400",
						"executionCost": "238",
						"totalCost": "197638"
					},
					"external": {
						"getX(address)": "infinite",
						"setX(address,uint256)": "infinite",
						"setXandSendEther(address,uint256)": "626"
					}
				},
				"methodIdentifiers": {
					"getX(address)": "7c94c8ca",
					"setX(address,uint256)": "4a2ad99f",
					"setXandSendEther(address,uint256)": "d44abc42"
				}
			},
			"storageLayout": {
				"storage": [],
				"types": null
			},
			"userdoc": {
				"kind": "user",
				"methods": {},
				"version": 1
			}
		}
	}
}