{
	"Day35_CallOtherContract.sol": {
		"TestContract": {
			"abi": [
				{
					"inputs": [],
					"name": "getX",
					"outputs": [
						{
							"internalType": "uint256",
							"name": "",
							"type": "uint256"
						}
					],
					"stateMutability": "view",
					"type": "function"
				},
				{
					"inputs": [],
					"name": "getXandValue",
					"outputs": [
						{
							"internalType": "uint256",
							"name": "",
							"type": "uint256"
						},
						{
							"internalType": "uint256",
							"name": "",
							"type": "uint256"
						}
					],
					"stateMutability": "view",
					"type": "function"
				},
				{
					"inputs": [
						{
							"internalType": "uint256",
							"name": "_x",
							"type": "uint256"
						}
					],
					"name": "setX",
					"outputs": [],
					"stateMutability": "nonpayable",
					"type": "function"
				},
				{
					"inputs": [
						{
							"internalType": "uint256",
							"name": "_x",
							"type": "uint256"
						}
					],
					"name": "setXandReceiveEther",
					"outputs": [],
					"stateMutability": "payable",
					"type": "function"
				},
				{
					"inputs": [],
					"name": "value",
					"outputs": [
						{
							"internalType": "uint256",
							"name": "",
							"type": "uint256"
						}
					],
					"stateMutability": "view",
					"type": "function"
				},
				{
					"inputs": [],
					"name": "x",
					"outputs": [
						{
							"internalType": "uint256",
							"name": "",
							"type": "uint256"
						}
					],
					"stateMutability": "view",
					"type": "function"
				}
			],
			"devdoc": {
				"kind": "dev",
				"methods": {},
				"version": 1
			},
			"evm": {
				"assembly": "    /* \"Day35_CallOtherContract.sol\":379:801  contract TestContract {... */\n  mstore(0x40, 0x80)\n    /* \"Day35_CallOtherContract.sol\":446:449  123 */\n  0x7b\n    /* \"Day35_CallOtherContract.sol\":426:449  uint public value = 123 */\n  0x01\n  sstore\n    /* \"Day35_CallOtherContract.sol\":379:801  contract TestContract {... */\n  callvalue\n  dup1\n  iszero\n  tag_1\n  jumpi\n  0x00\n  dup1\n  revert\ntag_1:\n  pop\n  dataSize(sub_0)\n  dup1\n  dataOffset(sub_0)\n  0x00\n  codecopy\n  0x00\n  return\nstop\n\nsub_0: assembly {\n        /* \"Day35_CallOtherContract.sol\":379:801  contract TestContract {... */\n      mstore(0x40, 0x80)\n      jumpi(tag_1, lt(calldatasize, 0x04))\n      shr(0xe0, calldataload(0x00))\n      dup1\n      0x02f42be9\n      eq\n      tag_2\n      jumpi\n      dup1\n      0x0c55699c\n      eq\n      tag_3\n      jumpi\n      dup1\n      0x3fa4f245\n      eq\n      tag_4\n      jumpi\n      dup1\n      0x4018d9aa\n      eq\n      tag_5\n      jumpi\n      dup1\n      0x5197c7aa\n      eq\n      tag_6\n      jumpi\n      dup1\n      0xd6c7a3be\n      eq\n      tag_7\n      jumpi\n    tag_1:\n      0x00\n      dup1\n      revert\n        /* \"Day35_CallOtherContract.sol\":593:698  function setXandReceiveEther(uint _x) external payable {... */\n    tag_2:\n      tag_8\n      0x04\n      dup1\n      calldatasize\n      sub\n      dup2\n      add\n      swap1\n      tag_9\n      swap2\n      swap1\n      tag_10\n      jump\t// in\n    tag_9:\n      tag_11\n      jump\t// in\n    tag_8:\n      stop\n        /* \"Day35_CallOtherContract.sol\":407:420  uint public x */\n    tag_3:\n      callvalue\n      dup1\n      iszero\n      tag_12\n      jumpi\n      0x00\n      dup1\n      revert\n    tag_12:\n      pop\n      tag_13\n      tag_14\n      jump\t// in\n    tag_13:\n      mload(0x40)\n      tag_15\n      swap2\n      swap1\n      tag_16\n      jump\t// in\n    tag_15:\n      mload(0x40)\n      dup1\n      swap2\n      sub\n      swap1\n      return\n        /* \"Day35_CallOtherContract.sol\":426:449  uint public value = 123 */\n    tag_4:\n      callvalue\n      dup1\n      iszero\n      tag_17\n      jumpi\n      0x00\n      dup1\n      revert\n    tag_17:\n      pop\n      tag_18\n      tag_19\n      jump\t// in\n    tag_18:\n      mload(0x40)\n      tag_20\n      swap2\n      swap1\n      tag_16\n      jump\t// in\n    tag_20:\n      mload(0x40)\n      dup1\n      swap2\n      sub\n      swap1\n      return\n        /* \"Day35_CallOtherContract.sol\":456:511  function setX(uint _x) external {... */\n    tag_5:\n      callvalue\n      dup1\n      iszero\n      tag_21\n      jumpi\n      0x00\n      dup1\n      revert\n    tag_21:\n      pop\n      tag_22\n      0x04\n      dup1\n      calldatasize\n      sub\n      dup2\n      add\n      swap1\n      tag_23\n      swap2\n      swap1\n      tag_10\n      jump\t// in\n    tag_23:\n      tag_24\n      jump\t// in\n    tag_22:\n      stop\n        /* \"Day35_CallOtherContract.sol\":517:587  function getX() external view returns (uint) {... */\n    tag_6:\n      callvalue\n      dup1\n      iszero\n      tag_25\n      jumpi\n      0x00\n      dup1\n      revert\n    tag_25:\n      pop\n      tag_26\n      tag_27\n      jump\t// in\n    tag_26:\n      mload(0x40)\n      tag_28\n      swap2\n      swap1\n      tag_16\n      jump\t// in\n    tag_28:\n      mload(0x40)\n      dup1\n      swap2\n      sub\n      swap1\n      return\n        /* \"Day35_CallOtherContract.sol\":704:797  function getXandValue() external view returns (uint ,uint) {... */\n    tag_7:\n      callvalue\n      dup1\n      iszero\n      tag_29\n      jumpi\n      0x00\n      dup1\n      revert\n    tag_29:\n      pop\n      tag_30\n      tag_31\n      jump\t// in\n    tag_30:\n      mload(0x40)\n      tag_32\n      swap3\n      swap2\n      swap1\n      tag_33\n      jump\t// in\n    tag_32:\n      mload(0x40)\n      dup1\n      swap2\n      sub\n      swap1\n      return\n        /* \"Day35_CallOtherContract.sol\":593:698  function setXandReceiveEther(uint _x) external payable {... */\n    tag_11:\n        /* \"Day35_CallOtherContract.sol\":662:664  _x */\n      dup1\n        /* \"Day35_CallOtherContract.sol\":658:659  x */\n      0x00\n        /* \"Day35_CallOtherContract.sol\":658:664  x = _x */\n      dup2\n      swap1\n      sstore\n      pop\n        /* \"Day35_CallOtherContract.sol\":682:691  msg.value */\n      callvalue\n        /* \"Day35_CallOtherContract.sol\":674:679  value */\n      0x01\n        /* \"Day35_CallOtherContract.sol\":674:691  value = msg.value */\n      dup2\n      swap1\n      sstore\n      pop\n        /* \"Day35_CallOtherContract.sol\":593:698  function setXandReceiveEther(uint _x) external payable {... */\n      pop\n      jump\t// out\n        /* \"Day35_CallOtherContract.sol\":407:420  uint public x */\n    tag_14:\n      sload(0x00)\n      dup2\n      jump\t// out\n        /* \"Day35_CallOtherContract.sol\":426:449  uint public value = 123 */\n    tag_19:\n      sload(0x01)\n      dup2\n      jump\t// out\n        /* \"Day35_CallOtherContract.sol\":456:511  function setX(uint _x) external {... */\n    tag_24:\n        /* \"Day35_CallOtherContract.sol\":502:504  _x */\n      dup1\n        /* \"Day35_CallOtherContract.sol\":498:499  x */\n      0x00\n        /* \"Day35_CallOtherContract.sol\":498:504  x = _x */\n      dup2\n      swap1\n      sstore\n      pop\n        /* \"Day35_CallOtherContract.sol\":456:511  function setX(uint _x) external {... */\n      pop\n      jump\t// out\n        /* \"Day35_CallOtherContract.sol\":517:587  function getX() external view returns (uint) {... */\n    tag_27:\n        /* \"Day35_CallOtherContract.sol\":556:560  uint */\n      0x00\n        /* \"Day35_CallOtherContract.sol\":579:580  x */\n      dup1\n      sload\n        /* \"Day35_CallOtherContract.sol\":572:580  return x */\n      swap1\n      pop\n        /* \"Day35_CallOtherContract.sol\":517:587  function getX() external view returns (uint) {... */\n      swap1\n      jump\t// out\n        /* \"Day35_CallOtherContract.sol\":704:797  function getXandValue() external view returns (uint ,uint) {... */\n    tag_31:\n        /* \"Day35_CallOtherContract.sol\":751:755  uint */\n      0x00\n        /* \"Day35_CallOtherContract.sol\":757:761  uint */\n      dup1\n        /* \"Day35_CallOtherContract.sol\":781:782  x */\n      sload(0x00)\n        /* \"Day35_CallOtherContract.sol\":784:789  value */\n      sload(0x01)\n        /* \"Day35_CallOtherContract.sol\":773:790  return (x, value) */\n      swap2\n      pop\n      swap2\n      pop\n        /* \"Day35_CallOtherContract.sol\":704:797  function getXandValue() external view returns (uint ,uint) {... */\n      swap1\n      swap2\n      jump\t// out\n        /* \"#utility.yul\":7:146   */\n    tag_39:\n        /* \"#utility.yul\":53:58   */\n      0x00\n        /* \"#utility.yul\":91:97   */\n      dup2\n        /* \"#utility.yul\":78:98   */\n      calldataload\n        /* \"#utility.yul\":69:98   */\n      swap1\n      pop\n        /* \"#utility.yul\":107:140   */\n      tag_41\n        /* \"#utility.yul\":134:139   */\n      dup2\n        /* \"#utility.yul\":107:140   */\n      tag_42\n      jump\t// in\n    tag_41:\n        /* \"#utility.yul\":7:146   */\n      swap3\n      swap2\n      pop\n      pop\n      jump\t// out\n        /* \"#utility.yul\":152:481   */\n    tag_10:\n        /* \"#utility.yul\":211:217   */\n      0x00\n        /* \"#utility.yul\":260:262   */\n      0x20\n        /* \"#utility.yul\":248:257   */\n      dup3\n        /* \"#utility.yul\":239:246   */\n      dup5\n        /* \"#utility.yul\":235:258   */\n      sub\n        /* \"#utility.yul\":231:263   */\n      slt\n        /* \"#utility.yul\":228:347   */\n      iszero\n      tag_44\n      jumpi\n        /* \"#utility.yul\":266:345   */\n      tag_45\n      tag_46\n      jump\t// in\n    tag_45:\n        /* \"#utility.yul\":228:347   */\n    tag_44:\n        /* \"#utility.yul\":386:387   */\n      0x00\n        /* \"#utility.yul\":411:464   */\n      tag_47\n        /* \"#utility.yul\":456:463   */\n      dup5\n        /* \"#utility.yul\":447:453   */\n      dup3\n        /* \"#utility.yul\":436:445   */\n      dup6\n        /* \"#utility.yul\":432:454   */\n      add\n        /* \"#utility.yul\":411:464   */\n      tag_39\n      jump\t// in\n    tag_47:\n        /* \"#utility.yul\":401:464   */\n      swap2\n      pop\n        /* \"#utility.yul\":357:474   */\n      pop\n        /* \"#utility.yul\":152:481   */\n      swap3\n      swap2\n      pop\n      pop\n      jump\t// out\n        /* \"#utility.yul\":487:605   */\n    tag_48:\n        /* \"#utility.yul\":574:598   */\n      tag_50\n        /* \"#utility.yul\":592:597   */\n      dup2\n        /* \"#utility.yul\":574:598   */\n      tag_51\n      jump\t// in\n    tag_50:\n        /* \"#utility.yul\":569:572   */\n      dup3\n        /* \"#utility.yul\":562:599   */\n      mstore\n        /* \"#utility.yul\":487:605   */\n      pop\n      pop\n      jump\t// out\n        /* \"#utility.yul\":611:833   */\n    tag_16:\n        /* \"#utility.yul\":704:708   */\n      0x00\n        /* \"#utility.yul\":742:744   */\n      0x20\n        /* \"#utility.yul\":731:740   */\n      dup3\n        /* \"#utility.yul\":727:745   */\n      add\n        /* \"#utility.yul\":719:745   */\n      swap1\n      pop\n        /* \"#utility.yul\":755:826   */\n      tag_53\n        /* \"#utility.yul\":823:824   */\n      0x00\n        /* \"#utility.yul\":812:821   */\n      dup4\n        /* \"#utility.yul\":808:825   */\n      add\n        /* \"#utility.yul\":799:805   */\n      dup5\n        /* \"#utility.yul\":755:826   */\n      tag_48\n      jump\t// in\n    tag_53:\n        /* \"#utility.yul\":611:833   */\n      swap3\n      swap2\n      pop\n      pop\n      jump\t// out\n        /* \"#utility.yul\":839:1171   */\n    tag_33:\n        /* \"#utility.yul\":960:964   */\n      0x00\n        /* \"#utility.yul\":998:1000   */\n      0x40\n        /* \"#utility.yul\":987:996   */\n      dup3\n        /* \"#utility.yul\":983:1001   */\n      add\n        /* \"#utility.yul\":975:1001   */\n      swap1\n      pop\n        /* \"#utility.yul\":1011:1082   */\n      tag_55\n        /* \"#utility.yul\":1079:1080   */\n      0x00\n        /* \"#utility.yul\":1068:1077   */\n      dup4\n        /* \"#utility.yul\":1064:1081   */\n      add\n        /* \"#utility.yul\":1055:1061   */\n      dup6\n        /* \"#utility.yul\":1011:1082   */\n      tag_48\n      jump\t// in\n    tag_55:\n        /* \"#utility.yul\":1092:1164   */\n      tag_56\n        /* \"#utility.yul\":1160:1162   */\n      0x20\n        /* \"#utility.yul\":1149:1158   */\n      dup4\n        /* \"#utility.yul\":1145:1163   */\n      add\n        /* \"#utility.yul\":1136:1142   */\n      dup5\n        /* \"#utility.yul\":1092:1164   */\n      tag_48\n      jump\t// in\n    tag_56:\n        /* \"#utility.yul\":839:1171   */\n      swap4\n      swap3\n      pop\n      pop\n      pop\n      jump\t// out\n        /* \"#utility.yul\":1258:1335   */\n    tag_51:\n        /* \"#utility.yul\":1295:1302   */\n      0x00\n        /* \"#utility.yul\":1324:1329   */\n      dup2\n        /* \"#utility.yul\":1313:1329   */\n      swap1\n      pop\n        /* \"#utility.yul\":1258:1335   */\n      swap2\n      swap1\n      pop\n      jump\t// out\n        /* \"#utility.yul\":1464:1581   */\n    tag_46:\n        /* \"#utility.yul\":1573:1574   */\n      0x00\n        /* \"#utility.yul\":1570:1571   */\n      dup1\n        /* \"#utility.yul\":1563:1575   */\n      revert\n        /* \"#utility.yul\":1587:1709   */\n    tag_42:\n        /* \"#utility.yul\":1660:1684   */\n      tag_64\n        /* \"#utility.yul\":1678:1683   */\n      dup2\n        /* \"#utility.yul\":1660:1684   */\n      tag_51\n      jump\t// in\n    tag_64:\n        /* \"#utility.yul\":1653:1658   */\n      dup2\n        /* \"#utility.yul\":1650:1685   */\n      eq\n        /* \"#utility.yul\":1640:1703   */\n      tag_65\n      jumpi\n        /* \"#utility.yul\":1699:1700   */\n      0x00\n        /* \"#utility.yul\":1696:1697   */\n      dup1\n        /* \"#utility.yul\":1689:1701   */\n      revert\n        /* \"#utility.yul\":1640:1703   */\n    tag_65:\n        /* \"#utility.yul\":1587:1709   */\n      pop\n      jump\t// out\n\n    auxdata: 0xa26469706673582212207022e09ee9f6e3b8eebd5157aacb27b850a58ee8c3d4d8b8a1034e8d6dcef6f964736f6c63430008070033\n}\n",
				"bytecode": {
					"linkReferences": {},
					"object": "6080604052607b60015534801561001557600080fd5b5061027e806100256000396000f3fe6080604052600436106100555760003560e01c806302f42be91461005a5780630c55699c146100765780633fa4f245146100a15780634018d9aa146100cc5780635197c7aa146100f5578063d6c7a3be14610120575b600080fd5b610074600480360381019061006f91906101a2565b61014c565b005b34801561008257600080fd5b5061008b61015d565b60405161009891906101de565b60405180910390f35b3480156100ad57600080fd5b506100b6610163565b6040516100c391906101de565b60405180910390f35b3480156100d857600080fd5b506100f360048036038101906100ee91906101a2565b610169565b005b34801561010157600080fd5b5061010a610173565b60405161011791906101de565b60405180910390f35b34801561012c57600080fd5b5061013561017c565b6040516101439291906101f9565b60405180910390f35b806000819055503460018190555050565b60005481565b60015481565b8060008190555050565b60008054905090565b600080600054600154915091509091565b60008135905061019c81610231565b92915050565b6000602082840312156101b8576101b761022c565b5b60006101c68482850161018d565b91505092915050565b6101d881610222565b82525050565b60006020820190506101f360008301846101cf565b92915050565b600060408201905061020e60008301856101cf565b61021b60208301846101cf565b9392505050565b6000819050919050565b600080fd5b61023a81610222565b811461024557600080fd5b5056fea26469706673582212207022e09ee9f6e3b8eebd5157aacb27b850a58ee8c3d4d8b8a1034e8d6dcef6f964736f6c63430008070033",
					"opcodes": "PUSH1 0x80 PUSH1 0x40 MSTORE PUSH1 0x7B PUSH1 0x1 SSTORE CALLVALUE DUP1 ISZERO PUSH2 0x15 JUMPI PUSH1 0x0 DUP1 REVERT JUMPDEST POP PUSH2 0x27E DUP1 PUSH2 0x25 PUSH1 0x0 CODECOPY PUSH1 0x0 RETURN INVALID PUSH1 0x80 PUSH1 0x40 MSTORE PUSH1 0x4 CALLDATASIZE LT PUSH2 0x55 JUMPI PUSH1 0x0 CALLDATALOAD PUSH1 0xE0 SHR DUP1 PUSH4 0x2F42BE9 EQ PUSH2 0x5A JUMPI DUP1 PUSH4 0xC55699C EQ PUSH2 0x76 JUMPI DUP1 PUSH4 0x3FA4F245 EQ PUSH2 0xA1 JUMPI DUP1 PUSH4 0x4018D9AA EQ PUSH2 0xCC JUMPI DUP1 PUSH4 0x5197C7AA EQ PUSH2 0xF5 JUMPI DUP1 PUSH4 0xD6C7A3BE EQ PUSH2 0x120 JUMPI JUMPDEST PUSH1 0x0 DUP1 REVERT JUMPDEST PUSH2 0x74 PUSH1 0x4 DUP1 CALLDATASIZE SUB DUP2 ADD SWAP1 PUSH2 0x6F SWAP2 SWAP1 PUSH2 0x1A2 JUMP JUMPDEST PUSH2 0x14C JUMP JUMPDEST STOP JUMPDEST CALLVALUE DUP1 ISZERO PUSH2 0x82 JUMPI PUSH1 0x0 DUP1 REVERT JUMPDEST POP PUSH2 0x8B PUSH2 0x15D JUMP JUMPDEST PUSH1 0x40 MLOAD PUSH2 0x98 SWAP2 SWAP1 PUSH2 0x1DE JUMP JUMPDEST PUSH1 0x40 MLOAD DUP1 SWAP2 SUB SWAP1 RETURN JUMPDEST CALLVALUE DUP1 ISZERO PUSH2 0xAD JUMPI PUSH1 0x0 DUP1 REVERT JUMPDEST POP PUSH2 0xB6 PUSH2 0x163 JUMP JUMPDEST PUSH1 0x40 MLOAD PUSH2 0xC3 SWAP2 SWAP1 PUSH2 0x1DE JUMP JUMPDEST PUSH1 0x40 MLOAD DUP1 SWAP2 SUB SWAP1 RETURN JUMPDEST CALLVALUE DUP1 ISZERO PUSH2 0xD8 JUMPI PUSH1 0x0 DUP1 REVERT JUMPDEST POP PUSH2 0xF3 PUSH1 0x4 DUP1 CALLDATASIZE SUB DUP2 ADD SWAP1 PUSH2 0xEE SWAP2 SWAP1 PUSH2 0x1A2 JUMP JUMPDEST PUSH2 0x169 JUMP JUMPDEST STOP JUMPDEST CALLVALUE DUP1 ISZERO PUSH2 0x101 JUMPI PUSH1 0x0 DUP1 REVERT JUMPDEST POP PUSH2 0x10A PUSH2 0x173 JUMP JUMPDEST PUSH1 0x40 MLOAD PUSH2 0x117 SWAP2 SWAP1 PUSH2 0x1DE JUMP JUMPDEST PUSH1 0x40 MLOAD DUP1 SWAP2 SUB SWAP1 RETURN JUMPDEST CALLVALUE DUP1 ISZERO PUSH2 0x12C JUMPI PUSH1 0x0 DUP1 REVERT JUMPDEST POP PUSH2 0x135 PUSH2 0x17C JUMP JUMPDEST PUSH1 0x40 MLOAD PUSH2 0x143 SWAP3 SWAP2 SWAP1 PUSH2 0x1F9 JUMP JUMPDEST PUSH1 0x40 MLOAD DUP1 SWAP2 SUB SWAP1 RETURN JUMPDEST DUP1 PUSH1 0x0 DUP2 SWAP1 SSTORE POP CALLVALUE PUSH1 0x1 DUP2 SWAP1 SSTORE POP POP JUMP JUMPDEST PUSH1 0x0 SLOAD DUP2 JUMP JUMPDEST PUSH1 0x1 SLOAD DUP2 JUMP JUMPDEST DUP1 PUSH1 0x0 DUP2 SWAP1 SSTORE POP POP JUMP JUMPDEST PUSH1 0x0 DUP1 SLOAD SWAP1 POP SWAP1 JUMP JUMPDEST PUSH1 0x0 DUP1 PUSH1 0x0 SLOAD PUSH1 0x1 SLOAD SWAP2 POP SWAP2 POP SWAP1 SWAP2 JUMP JUMPDEST PUSH1 0x0 DUP2 CALLDATALOAD SWAP1 POP PUSH2 0x19C DUP2 PUSH2 0x231 JUMP JUMPDEST SWAP3 SWAP2 POP POP JUMP JUMPDEST PUSH1 0x0 PUSH1 0x20 DUP3 DUP5 SUB SLT ISZERO PUSH2 0x1B8 JUMPI PUSH2 0x1B7 PUSH2 0x22C JUMP JUMPDEST JUMPDEST PUSH1 0x0 PUSH2 0x1C6 DUP5 DUP3 DUP6 ADD PUSH2 0x18D JUMP JUMPDEST SWAP2 POP POP SWAP3 SWAP2 POP POP JUMP JUMPDEST PUSH2 0x1D8 DUP2 PUSH2 0x222 JUMP JUMPDEST DUP3 MSTORE POP POP JUMP JUMPDEST PUSH1 0x0 PUSH1 0x20 DUP3 ADD SWAP1 POP PUSH2 0x1F3 PUSH1 0x0 DUP4 ADD DUP5 PUSH2 0x1CF JUMP JUMPDEST SWAP3 SWAP2 POP POP JUMP JUMPDEST PUSH1 0x0 PUSH1 0x40 DUP3 ADD SWAP1 POP PUSH2 0x20E PUSH1 0x0 DUP4 ADD DUP6 PUSH2 0x1CF JUMP JUMPDEST PUSH2 0x21B PUSH1 0x20 DUP4 ADD DUP5 PUSH2 0x1CF JUMP JUMPDEST SWAP4 SWAP3 POP POP POP JUMP JUMPDEST PUSH1 0x0 DUP2 SWAP1 POP SWAP2 SWAP1 POP JUMP JUMPDEST PUSH1 0x0 DUP1 REVERT JUMPDEST PUSH2 0x23A DUP2 PUSH2 0x222 JUMP JUMPDEST DUP2 EQ PUSH2 0x245 JUMPI PUSH1 0x0 DUP1 REVERT JUMPDEST POP JUMP INVALID LOG2 PUSH5 0x6970667358 0x22 SLT KECCAK256 PUSH17 0x22E09EE9F6E3B8EEBD5157AACB27B850A5 DUP15 0xE8 0xC3 0xD4 0xD8 0xB8 LOG1 SUB 0x4E DUP14 PUSH14 0xCEF6F964736F6C63430008070033 "
				},
				"gasEstimates": {
					"creation": {
						"codeDepositCost": "127600",
						"executionCost": "22277",
						"totalCost": "149877"
					},
					"external": {
						"getX()": "2503",
						"getXandValue()": "infinite",
						"setX(uint256)": "22564",
						"setXandReceiveEther(uint256)": "44587",
						"value()": "2451",
						"x()": "2429"
					}
				},
				"methodIdentifiers": {
					"getX()": "5197c7aa",
					"getXandValue()": "d6c7a3be",
					"setX(uint256)": "4018d9aa",
					"setXandReceiveEther(uint256)": "02f42be9",
					"value()": "3fa4f245",
					"x()": "0c55699c"
				}
			},
			"storageLayout": {
				"storage": [
					{
						"astId": 43,
						"contract": "Day35_CallOtherContract.sol:TestContract",
						"label": "x",
						"offset": 0,
						"slot": "0",
						"type": "t_uint256"
					},
					{
						"astId": 46,
						"contract": "Day35_CallOtherContract.sol:TestContract",
						"label": "value",
						"offset": 0,
						"slot": "1",
						"type": "t_uint256"
					}
				],
				"types": {
					"t_uint256": {
						"encoding": "inplace",
						"label": "uint256",
						"numberOfBytes": "32"
					}
				}
			},
			"userdoc": {
				"kind": "user",
				"methods": {},
				"version": 1
			}
		}
	}
}