{
	"Day14_Outputs.sol": {
		"FunctionOutput": {
			"abi": [
				{
					"inputs": [],
					"name": "assigned",
					"outputs": [
						{
							"internalType": "uint256",
							"name": "x",
							"type": "uint256"
						},
						{
							"internalType": "bool",
							"name": "b",
							"type": "bool"
						}
					],
					"stateMutability": "pure",
					"type": "function"
				},
				{
					"inputs": [],
					"name": "destructuringAssignments",
					"outputs": [],
					"stateMutability": "pure",
					"type": "function"
				},
				{
					"inputs": [],
					"name": "named",
					"outputs": [
						{
							"internalType": "uint256",
							"name": "x",
							"type": "uint256"
						},
						{
							"internalType": "bool",
							"name": "b",
							"type": "bool"
						}
					],
					"stateMutability": "pure",
					"type": "function"
				},
				{
					"inputs": [],
					"name": "returnMany",
					"outputs": [
						{
							"internalType": "uint256",
							"name": "",
							"type": "uint256"
						},
						{
							"internalType": "bool",
							"name": "",
							"type": "bool"
						}
					],
					"stateMutability": "pure",
					"type": "function"
				}
			],
			"devdoc": {
				"kind": "dev",
				"methods": {},
				"version": 1
			},
			"evm": {
				"assembly": "    /* \"Day14_Outputs.sol\":129:601  contract FunctionOutput {... */\n  mstore(0x40, 0x80)\n  callvalue\n  dup1\n  iszero\n  tag_1\n  jumpi\n  0x00\n  dup1\n  revert\ntag_1:\n  pop\n  dataSize(sub_0)\n  dup1\n  dataOffset(sub_0)\n  0x00\n  codecopy\n  0x00\n  return\nstop\n\nsub_0: assembly {\n        /* \"Day14_Outputs.sol\":129:601  contract FunctionOutput {... */\n      mstore(0x40, 0x80)\n      callvalue\n      dup1\n      iszero\n      tag_1\n      jumpi\n      0x00\n      dup1\n      revert\n    tag_1:\n      pop\n      jumpi(tag_2, lt(calldatasize, 0x04))\n      shr(0xe0, calldataload(0x00))\n      dup1\n      0x45f907a8\n      eq\n      tag_3\n      jumpi\n      dup1\n      0x68873440\n      eq\n      tag_4\n      jumpi\n      dup1\n      0x86887544\n      eq\n      tag_5\n      jumpi\n      dup1\n      0xadb4d990\n      eq\n      tag_6\n      jumpi\n    tag_2:\n      0x00\n      dup1\n      revert\n        /* \"Day14_Outputs.sol\":254:342  function named () public pure returns (uint x , bool b) {... */\n    tag_3:\n      tag_7\n      tag_8\n      jump\t// in\n    tag_7:\n      mload(0x40)\n      tag_9\n      swap3\n      swap2\n      swap1\n      tag_10\n      jump\t// in\n    tag_9:\n      mload(0x40)\n      dup1\n      swap2\n      sub\n      swap1\n      return\n        /* \"Day14_Outputs.sol\":453:599  function destructuringAssignments () public pure {... */\n    tag_4:\n      tag_11\n      tag_12\n      jump\t// in\n    tag_11:\n      stop\n        /* \"Day14_Outputs.sol\":159:248  function returnMany () public pure returns (uint , bool) {... */\n    tag_5:\n      tag_13\n      tag_14\n      jump\t// in\n    tag_13:\n      mload(0x40)\n      tag_15\n      swap3\n      swap2\n      swap1\n      tag_10\n      jump\t// in\n    tag_15:\n      mload(0x40)\n      dup1\n      swap2\n      sub\n      swap1\n      return\n        /* \"Day14_Outputs.sol\":348:447  function assigned () public pure returns (uint x , bool b) {... */\n    tag_6:\n      tag_16\n      tag_17\n      jump\t// in\n    tag_16:\n      mload(0x40)\n      tag_18\n      swap3\n      swap2\n      swap1\n      tag_10\n      jump\t// in\n    tag_18:\n      mload(0x40)\n      dup1\n      swap2\n      sub\n      swap1\n      return\n        /* \"Day14_Outputs.sol\":254:342  function named () public pure returns (uint x , bool b) {... */\n    tag_8:\n        /* \"Day14_Outputs.sol\":293:299  uint x */\n      0x00\n        /* \"Day14_Outputs.sol\":302:308  bool b */\n      dup1\n        /* \"Day14_Outputs.sol\":328:329  1 */\n      0x01\n        /* \"Day14_Outputs.sol\":330:334  true */\n      dup1\n        /* \"Day14_Outputs.sol\":320:335  return (1,true) */\n      swap2\n      pop\n      swap2\n      pop\n        /* \"Day14_Outputs.sol\":254:342  function named () public pure returns (uint x , bool b) {... */\n      swap1\n      swap2\n      jump\t// out\n        /* \"Day14_Outputs.sol\":453:599  function destructuringAssignments () public pure {... */\n    tag_12:\n        /* \"Day14_Outputs.sol\":521:528  uint _x */\n      0x00\n        /* \"Day14_Outputs.sol\":530:537  bool _b */\n      dup1\n        /* \"Day14_Outputs.sol\":541:553  returnMany() */\n      tag_21\n        /* \"Day14_Outputs.sol\":541:551  returnMany */\n      tag_14\n        /* \"Day14_Outputs.sol\":541:553  returnMany() */\n      jump\t// in\n    tag_21:\n        /* \"Day14_Outputs.sol\":520:553  (uint _x, bool _b) = returnMany() */\n      swap2\n      pop\n      swap2\n      pop\n        /* \"Day14_Outputs.sol\":502:599  {... */\n      pop\n      pop\n        /* \"Day14_Outputs.sol\":453:599  function destructuringAssignments () public pure {... */\n      jump\t// out\n        /* \"Day14_Outputs.sol\":159:248  function returnMany () public pure returns (uint , bool) {... */\n    tag_14:\n        /* \"Day14_Outputs.sol\":203:207  uint */\n      0x00\n        /* \"Day14_Outputs.sol\":210:214  bool */\n      dup1\n        /* \"Day14_Outputs.sol\":234:235  1 */\n      0x01\n        /* \"Day14_Outputs.sol\":236:240  true */\n      dup1\n        /* \"Day14_Outputs.sol\":226:241  return (1,true) */\n      swap2\n      pop\n      swap2\n      pop\n        /* \"Day14_Outputs.sol\":159:248  function returnMany () public pure returns (uint , bool) {... */\n      swap1\n      swap2\n      jump\t// out\n        /* \"Day14_Outputs.sol\":348:447  function assigned () public pure returns (uint x , bool b) {... */\n    tag_17:\n        /* \"Day14_Outputs.sol\":390:396  uint x */\n      0x00\n        /* \"Day14_Outputs.sol\":399:405  bool b */\n      dup1\n        /* \"Day14_Outputs.sol\":421:422  1 */\n      0x01\n        /* \"Day14_Outputs.sol\":417:422  x = 1 */\n      swap2\n      pop\n        /* \"Day14_Outputs.sol\":436:440  true */\n      0x01\n        /* \"Day14_Outputs.sol\":432:440  b = true */\n      swap1\n      pop\n        /* \"Day14_Outputs.sol\":348:447  function assigned () public pure returns (uint x , bool b) {... */\n      swap1\n      swap2\n      jump\t// out\n        /* \"#utility.yul\":7:116   */\n    tag_25:\n        /* \"#utility.yul\":88:109   */\n      tag_27\n        /* \"#utility.yul\":103:108   */\n      dup2\n        /* \"#utility.yul\":88:109   */\n      tag_28\n      jump\t// in\n    tag_27:\n        /* \"#utility.yul\":83:86   */\n      dup3\n        /* \"#utility.yul\":76:110   */\n      mstore\n        /* \"#utility.yul\":7:116   */\n      pop\n      pop\n      jump\t// out\n        /* \"#utility.yul\":122:240   */\n    tag_29:\n        /* \"#utility.yul\":209:233   */\n      tag_31\n        /* \"#utility.yul\":227:232   */\n      dup2\n        /* \"#utility.yul\":209:233   */\n      tag_32\n      jump\t// in\n    tag_31:\n        /* \"#utility.yul\":204:207   */\n      dup3\n        /* \"#utility.yul\":197:234   */\n      mstore\n        /* \"#utility.yul\":122:240   */\n      pop\n      pop\n      jump\t// out\n        /* \"#utility.yul\":246:566   */\n    tag_10:\n        /* \"#utility.yul\":361:365   */\n      0x00\n        /* \"#utility.yul\":399:401   */\n      0x40\n        /* \"#utility.yul\":388:397   */\n      dup3\n        /* \"#utility.yul\":384:402   */\n      add\n        /* \"#utility.yul\":376:402   */\n      swap1\n      pop\n        /* \"#utility.yul\":412:483   */\n      tag_34\n        /* \"#utility.yul\":480:481   */\n      0x00\n        /* \"#utility.yul\":469:478   */\n      dup4\n        /* \"#utility.yul\":465:482   */\n      add\n        /* \"#utility.yul\":456:462   */\n      dup6\n        /* \"#utility.yul\":412:483   */\n      tag_29\n      jump\t// in\n    tag_34:\n        /* \"#utility.yul\":493:559   */\n      tag_35\n        /* \"#utility.yul\":555:557   */\n      0x20\n        /* \"#utility.yul\":544:553   */\n      dup4\n        /* \"#utility.yul\":540:558   */\n      add\n        /* \"#utility.yul\":531:537   */\n      dup5\n        /* \"#utility.yul\":493:559   */\n      tag_25\n      jump\t// in\n    tag_35:\n        /* \"#utility.yul\":246:566   */\n      swap4\n      swap3\n      pop\n      pop\n      pop\n      jump\t// out\n        /* \"#utility.yul\":572:662   */\n    tag_28:\n        /* \"#utility.yul\":606:613   */\n      0x00\n        /* \"#utility.yul\":649:654   */\n      dup2\n        /* \"#utility.yul\":642:655   */\n      iszero\n        /* \"#utility.yul\":635:656   */\n      iszero\n        /* \"#utility.yul\":624:656   */\n      swap1\n      pop\n        /* \"#utility.yul\":572:662   */\n      swap2\n      swap1\n      pop\n      jump\t// out\n        /* \"#utility.yul\":668:745   */\n    tag_32:\n        /* \"#utility.yul\":705:712   */\n      0x00\n        /* \"#utility.yul\":734:739   */\n      dup2\n        /* \"#utility.yul\":723:739   */\n      swap1\n      pop\n        /* \"#utility.yul\":668:745   */\n      swap2\n      swap1\n      pop\n      jump\t// out\n\n    auxdata: 0xa2646970667358221220c72ca9f0558907ee4613b9cfb1c2412db179203f8a246c235185fa2c89ea175f64736f6c63430008070033\n}\n",
				"bytecode": {
					"linkReferences": {},
					"object": "608060405234801561001057600080fd5b50610189806100206000396000f3fe608060405234801561001057600080fd5b506004361061004c5760003560e01c806345f907a8146100515780636887344014610070578063868875441461007a578063adb4d99014610099575b600080fd5b6100596100b8565b604051610067929190610114565b60405180910390f35b6100786100c6565b005b6100826100d9565b604051610090929190610114565b60405180910390f35b6100a16100e7565b6040516100af929190610114565b60405180910390f35b600080600180915091509091565b6000806100d16100d9565b915091505050565b600080600180915091509091565b60008060019150600190509091565b6100ff8161013d565b82525050565b61010e81610149565b82525050565b60006040820190506101296000830185610105565b61013660208301846100f6565b9392505050565b60008115159050919050565b600081905091905056fea2646970667358221220c72ca9f0558907ee4613b9cfb1c2412db179203f8a246c235185fa2c89ea175f64736f6c63430008070033",
					"opcodes": "PUSH1 0x80 PUSH1 0x40 MSTORE CALLVALUE DUP1 ISZERO PUSH2 0x10 JUMPI PUSH1 0x0 DUP1 REVERT JUMPDEST POP PUSH2 0x189 DUP1 PUSH2 0x20 PUSH1 0x0 CODECOPY PUSH1 0x0 RETURN INVALID PUSH1 0x80 PUSH1 0x40 MSTORE CALLVALUE DUP1 ISZERO PUSH2 0x10 JUMPI PUSH1 0x0 DUP1 REVERT JUMPDEST POP PUSH1 0x4 CALLDATASIZE LT PUSH2 0x4C JUMPI PUSH1 0x0 CALLDATALOAD PUSH1 0xE0 SHR DUP1 PUSH4 0x45F907A8 EQ PUSH2 0x51 JUMPI DUP1 PUSH4 0x68873440 EQ PUSH2 0x70 JUMPI DUP1 PUSH4 0x86887544 EQ PUSH2 0x7A JUMPI DUP1 PUSH4 0xADB4D990 EQ PUSH2 0x99 JUMPI JUMPDEST PUSH1 0x0 DUP1 REVERT JUMPDEST PUSH2 0x59 PUSH2 0xB8 JUMP JUMPDEST PUSH1 0x40 MLOAD PUSH2 0x67 SWAP3 SWAP2 SWAP1 PUSH2 0x114 JUMP JUMPDEST PUSH1 0x40 MLOAD DUP1 SWAP2 SUB SWAP1 RETURN JUMPDEST PUSH2 0x78 PUSH2 0xC6 JUMP JUMPDEST STOP JUMPDEST PUSH2 0x82 PUSH2 0xD9 JUMP JUMPDEST PUSH1 0x40 MLOAD PUSH2 0x90 SWAP3 SWAP2 SWAP1 PUSH2 0x114 JUMP JUMPDEST PUSH1 0x40 MLOAD DUP1 SWAP2 SUB SWAP1 RETURN JUMPDEST PUSH2 0xA1 PUSH2 0xE7 JUMP JUMPDEST PUSH1 0x40 MLOAD PUSH2 0xAF SWAP3 SWAP2 SWAP1 PUSH2 0x114 JUMP JUMPDEST PUSH1 0x40 MLOAD DUP1 SWAP2 SUB SWAP1 RETURN JUMPDEST PUSH1 0x0 DUP1 PUSH1 0x1 DUP1 SWAP2 POP SWAP2 POP SWAP1 SWAP2 JUMP JUMPDEST PUSH1 0x0 DUP1 PUSH2 0xD1 PUSH2 0xD9 JUMP JUMPDEST SWAP2 POP SWAP2 POP POP POP JUMP JUMPDEST PUSH1 0x0 DUP1 PUSH1 0x1 DUP1 SWAP2 POP SWAP2 POP SWAP1 SWAP2 JUMP JUMPDEST PUSH1 0x0 DUP1 PUSH1 0x1 SWAP2 POP PUSH1 0x1 SWAP1 POP SWAP1 SWAP2 JUMP JUMPDEST PUSH2 0xFF DUP2 PUSH2 0x13D JUMP JUMPDEST DUP3 MSTORE POP POP JUMP JUMPDEST PUSH2 0x10E DUP2 PUSH2 0x149 JUMP JUMPDEST DUP3 MSTORE POP POP JUMP JUMPDEST PUSH1 0x0 PUSH1 0x40 DUP3 ADD SWAP1 POP PUSH2 0x129 PUSH1 0x0 DUP4 ADD DUP6 PUSH2 0x105 JUMP JUMPDEST PUSH2 0x136 PUSH1 0x20 DUP4 ADD DUP5 PUSH2 0xF6 JUMP JUMPDEST SWAP4 SWAP3 POP POP POP JUMP JUMPDEST PUSH1 0x0 DUP2 ISZERO ISZERO SWAP1 POP SWAP2 SWAP1 POP JUMP JUMPDEST PUSH1 0x0 DUP2 SWAP1 POP SWAP2 SWAP1 POP JUMP INVALID LOG2 PUSH5 0x6970667358 0x22 SLT KECCAK256 0xC7 0x2C 0xA9 CREATE SSTORE DUP10 SMOD 0xEE CHAINID SGT 0xB9 0xCF 0xB1 0xC2 COINBASE 0x2D 0xB1 PUSH26 0x203F8A246C235185FA2C89EA175F64736F6C6343000807003300 "
				},
				"gasEstimates": {
					"creation": {
						"codeDepositCost": "78600",
						"executionCost": "129",
						"totalCost": "78729"
					},
					"external": {
						"assigned()": "501",
						"destructuringAssignments()": "216",
						"named()": "435",
						"returnMany()": "479"
					}
				},
				"methodIdentifiers": {
					"assigned()": "adb4d990",
					"destructuringAssignments()": "68873440",
					"named()": "45f907a8",
					"returnMany()": "86887544"
				}
			},
			"storageLayout": {
				"storage": [],
				"types": null
			},
			"userdoc": {
				"kind": "user",
				"methods": {},
				"version": 1
			}
		}
	}
}