{
	"Day30_Immutable.sol": {
		"Immutable": {
			"abi": [
				{
					"inputs": [],
					"name": "example",
					"outputs": [],
					"stateMutability": "nonpayable",
					"type": "function"
				},
				{
					"inputs": [],
					"name": "owner",
					"outputs": [
						{
							"internalType": "address",
							"name": "",
							"type": "address"
						}
					],
					"stateMutability": "view",
					"type": "function"
				},
				{
					"inputs": [],
					"name": "x",
					"outputs": [
						{
							"internalType": "uint256",
							"name": "",
							"type": "uint256"
						}
					],
					"stateMutability": "view",
					"type": "function"
				}
			],
			"devdoc": {
				"kind": "dev",
				"methods": {},
				"version": 1
			},
			"evm": {
				"assembly": "    /* \"Day30_Immutable.sol\":58:233  contract Immutable {... */\n  mstore(0x40, 0x80)\n    /* \"Day30_Immutable.sol\":106:116  msg.sender */\n  caller\n    /* \"Day30_Immutable.sol\":83:116  address public owner = msg.sender */\n  0x00\n  dup1\n  0x0100\n  exp\n  dup2\n  sload\n  dup2\n  0xffffffffffffffffffffffffffffffffffffffff\n  mul\n  not\n  and\n  swap1\n  dup4\n  0xffffffffffffffffffffffffffffffffffffffff\n  and\n  mul\n  or\n  swap1\n  sstore\n  pop\n    /* \"Day30_Immutable.sol\":58:233  contract Immutable {... */\n  callvalue\n  dup1\n  iszero\n  tag_1\n  jumpi\n  0x00\n  dup1\n  revert\ntag_1:\n  pop\n  dataSize(sub_0)\n  dup1\n  dataOffset(sub_0)\n  0x00\n  codecopy\n  0x00\n  return\nstop\n\nsub_0: assembly {\n        /* \"Day30_Immutable.sol\":58:233  contract Immutable {... */\n      mstore(0x40, 0x80)\n      callvalue\n      dup1\n      iszero\n      tag_1\n      jumpi\n      0x00\n      dup1\n      revert\n    tag_1:\n      pop\n      jumpi(tag_2, lt(calldatasize, 0x04))\n      shr(0xe0, calldataload(0x00))\n      dup1\n      0x0c55699c\n      eq\n      tag_3\n      jumpi\n      dup1\n      0x54353f2f\n      eq\n      tag_4\n      jumpi\n      dup1\n      0x8da5cb5b\n      eq\n      tag_5\n      jumpi\n    tag_2:\n      0x00\n      dup1\n      revert\n        /* \"Day30_Immutable.sol\":122:135  uint public x */\n    tag_3:\n      tag_6\n      tag_7\n      jump\t// in\n    tag_6:\n      mload(0x40)\n      tag_8\n      swap2\n      swap1\n      tag_9\n      jump\t// in\n    tag_8:\n      mload(0x40)\n      dup1\n      swap2\n      sub\n      swap1\n      return\n        /* \"Day30_Immutable.sol\":142:231  function example () external {... */\n    tag_4:\n      tag_10\n      tag_11\n      jump\t// in\n    tag_10:\n      stop\n        /* \"Day30_Immutable.sol\":83:116  address public owner = msg.sender */\n    tag_5:\n      tag_12\n      tag_13\n      jump\t// in\n    tag_12:\n      mload(0x40)\n      tag_14\n      swap2\n      swap1\n      tag_15\n      jump\t// in\n    tag_14:\n      mload(0x40)\n      dup1\n      swap2\n      sub\n      swap1\n      return\n        /* \"Day30_Immutable.sol\":122:135  uint public x */\n    tag_7:\n      sload(0x01)\n      dup2\n      jump\t// out\n        /* \"Day30_Immutable.sol\":142:231  function example () external {... */\n    tag_11:\n        /* \"Day30_Immutable.sol\":199:209  msg.sender */\n      caller\n        /* \"Day30_Immutable.sol\":190:209  owner == msg.sender */\n      0xffffffffffffffffffffffffffffffffffffffff\n      and\n        /* \"Day30_Immutable.sol\":190:195  owner */\n      0x00\n      dup1\n      sload\n      swap1\n      0x0100\n      exp\n      swap1\n      div\n      0xffffffffffffffffffffffffffffffffffffffff\n      and\n        /* \"Day30_Immutable.sol\":190:209  owner == msg.sender */\n      0xffffffffffffffffffffffffffffffffffffffff\n      and\n      eq\n        /* \"Day30_Immutable.sol\":181:223  require (owner == msg.sender, \"not owner\") */\n      tag_17\n      jumpi\n      mload(0x40)\n      0x08c379a000000000000000000000000000000000000000000000000000000000\n      dup2\n      mstore\n      0x04\n      add\n      tag_18\n      swap1\n      tag_19\n      jump\t// in\n    tag_18:\n      mload(0x40)\n      dup1\n      swap2\n      sub\n      swap1\n      revert\n    tag_17:\n        /* \"Day30_Immutable.sol\":142:231  function example () external {... */\n      jump\t// out\n        /* \"Day30_Immutable.sol\":83:116  address public owner = msg.sender */\n    tag_13:\n      0x00\n      dup1\n      sload\n      swap1\n      0x0100\n      exp\n      swap1\n      div\n      0xffffffffffffffffffffffffffffffffffffffff\n      and\n      dup2\n      jump\t// out\n        /* \"#utility.yul\":7:125   */\n    tag_21:\n        /* \"#utility.yul\":94:118   */\n      tag_23\n        /* \"#utility.yul\":112:117   */\n      dup2\n        /* \"#utility.yul\":94:118   */\n      tag_24\n      jump\t// in\n    tag_23:\n        /* \"#utility.yul\":89:92   */\n      dup3\n        /* \"#utility.yul\":82:119   */\n      mstore\n        /* \"#utility.yul\":7:125   */\n      pop\n      pop\n      jump\t// out\n        /* \"#utility.yul\":131:496   */\n    tag_25:\n        /* \"#utility.yul\":273:276   */\n      0x00\n        /* \"#utility.yul\":294:360   */\n      tag_27\n        /* \"#utility.yul\":358:359   */\n      0x09\n        /* \"#utility.yul\":353:356   */\n      dup4\n        /* \"#utility.yul\":294:360   */\n      tag_28\n      jump\t// in\n    tag_27:\n        /* \"#utility.yul\":287:360   */\n      swap2\n      pop\n        /* \"#utility.yul\":369:462   */\n      tag_29\n        /* \"#utility.yul\":458:461   */\n      dup3\n        /* \"#utility.yul\":369:462   */\n      tag_30\n      jump\t// in\n    tag_29:\n        /* \"#utility.yul\":487:489   */\n      0x20\n        /* \"#utility.yul\":482:485   */\n      dup3\n        /* \"#utility.yul\":478:490   */\n      add\n        /* \"#utility.yul\":471:490   */\n      swap1\n      pop\n        /* \"#utility.yul\":131:496   */\n      swap2\n      swap1\n      pop\n      jump\t// out\n        /* \"#utility.yul\":502:620   */\n    tag_31:\n        /* \"#utility.yul\":589:613   */\n      tag_33\n        /* \"#utility.yul\":607:612   */\n      dup2\n        /* \"#utility.yul\":589:613   */\n      tag_34\n      jump\t// in\n    tag_33:\n        /* \"#utility.yul\":584:587   */\n      dup3\n        /* \"#utility.yul\":577:614   */\n      mstore\n        /* \"#utility.yul\":502:620   */\n      pop\n      pop\n      jump\t// out\n        /* \"#utility.yul\":626:848   */\n    tag_15:\n        /* \"#utility.yul\":719:723   */\n      0x00\n        /* \"#utility.yul\":757:759   */\n      0x20\n        /* \"#utility.yul\":746:755   */\n      dup3\n        /* \"#utility.yul\":742:760   */\n      add\n        /* \"#utility.yul\":734:760   */\n      swap1\n      pop\n        /* \"#utility.yul\":770:841   */\n      tag_36\n        /* \"#utility.yul\":838:839   */\n      0x00\n        /* \"#utility.yul\":827:836   */\n      dup4\n        /* \"#utility.yul\":823:840   */\n      add\n        /* \"#utility.yul\":814:820   */\n      dup5\n        /* \"#utility.yul\":770:841   */\n      tag_21\n      jump\t// in\n    tag_36:\n        /* \"#utility.yul\":626:848   */\n      swap3\n      swap2\n      pop\n      pop\n      jump\t// out\n        /* \"#utility.yul\":854:1273   */\n    tag_19:\n        /* \"#utility.yul\":1020:1024   */\n      0x00\n        /* \"#utility.yul\":1058:1060   */\n      0x20\n        /* \"#utility.yul\":1047:1056   */\n      dup3\n        /* \"#utility.yul\":1043:1061   */\n      add\n        /* \"#utility.yul\":1035:1061   */\n      swap1\n      pop\n        /* \"#utility.yul\":1107:1116   */\n      dup2\n        /* \"#utility.yul\":1101:1105   */\n      dup2\n        /* \"#utility.yul\":1097:1117   */\n      sub\n        /* \"#utility.yul\":1093:1094   */\n      0x00\n        /* \"#utility.yul\":1082:1091   */\n      dup4\n        /* \"#utility.yul\":1078:1095   */\n      add\n        /* \"#utility.yul\":1071:1118   */\n      mstore\n        /* \"#utility.yul\":1135:1266   */\n      tag_38\n        /* \"#utility.yul\":1261:1265   */\n      dup2\n        /* \"#utility.yul\":1135:1266   */\n      tag_25\n      jump\t// in\n    tag_38:\n        /* \"#utility.yul\":1127:1266   */\n      swap1\n      pop\n        /* \"#utility.yul\":854:1273   */\n      swap2\n      swap1\n      pop\n      jump\t// out\n        /* \"#utility.yul\":1279:1501   */\n    tag_9:\n        /* \"#utility.yul\":1372:1376   */\n      0x00\n        /* \"#utility.yul\":1410:1412   */\n      0x20\n        /* \"#utility.yul\":1399:1408   */\n      dup3\n        /* \"#utility.yul\":1395:1413   */\n      add\n        /* \"#utility.yul\":1387:1413   */\n      swap1\n      pop\n        /* \"#utility.yul\":1423:1494   */\n      tag_40\n        /* \"#utility.yul\":1491:1492   */\n      0x00\n        /* \"#utility.yul\":1480:1489   */\n      dup4\n        /* \"#utility.yul\":1476:1493   */\n      add\n        /* \"#utility.yul\":1467:1473   */\n      dup5\n        /* \"#utility.yul\":1423:1494   */\n      tag_31\n      jump\t// in\n    tag_40:\n        /* \"#utility.yul\":1279:1501   */\n      swap3\n      swap2\n      pop\n      pop\n      jump\t// out\n        /* \"#utility.yul\":1507:1676   */\n    tag_28:\n        /* \"#utility.yul\":1591:1602   */\n      0x00\n        /* \"#utility.yul\":1625:1631   */\n      dup3\n        /* \"#utility.yul\":1620:1623   */\n      dup3\n        /* \"#utility.yul\":1613:1632   */\n      mstore\n        /* \"#utility.yul\":1665:1669   */\n      0x20\n        /* \"#utility.yul\":1660:1663   */\n      dup3\n        /* \"#utility.yul\":1656:1670   */\n      add\n        /* \"#utility.yul\":1641:1670   */\n      swap1\n      pop\n        /* \"#utility.yul\":1507:1676   */\n      swap3\n      swap2\n      pop\n      pop\n      jump\t// out\n        /* \"#utility.yul\":1682:1778   */\n    tag_24:\n        /* \"#utility.yul\":1719:1726   */\n      0x00\n        /* \"#utility.yul\":1748:1772   */\n      tag_43\n        /* \"#utility.yul\":1766:1771   */\n      dup3\n        /* \"#utility.yul\":1748:1772   */\n      tag_44\n      jump\t// in\n    tag_43:\n        /* \"#utility.yul\":1737:1772   */\n      swap1\n      pop\n        /* \"#utility.yul\":1682:1778   */\n      swap2\n      swap1\n      pop\n      jump\t// out\n        /* \"#utility.yul\":1784:1910   */\n    tag_44:\n        /* \"#utility.yul\":1821:1828   */\n      0x00\n        /* \"#utility.yul\":1861:1903   */\n      0xffffffffffffffffffffffffffffffffffffffff\n        /* \"#utility.yul\":1854:1859   */\n      dup3\n        /* \"#utility.yul\":1850:1904   */\n      and\n        /* \"#utility.yul\":1839:1904   */\n      swap1\n      pop\n        /* \"#utility.yul\":1784:1910   */\n      swap2\n      swap1\n      pop\n      jump\t// out\n        /* \"#utility.yul\":1916:1993   */\n    tag_34:\n        /* \"#utility.yul\":1953:1960   */\n      0x00\n        /* \"#utility.yul\":1982:1987   */\n      dup2\n        /* \"#utility.yul\":1971:1987   */\n      swap1\n      pop\n        /* \"#utility.yul\":1916:1993   */\n      swap2\n      swap1\n      pop\n      jump\t// out\n        /* \"#utility.yul\":1999:2158   */\n    tag_30:\n        /* \"#utility.yul\":2139:2150   */\n      0x6e6f74206f776e65720000000000000000000000000000000000000000000000\n        /* \"#utility.yul\":2135:2136   */\n      0x00\n        /* \"#utility.yul\":2127:2133   */\n      dup3\n        /* \"#utility.yul\":2123:2137   */\n      add\n        /* \"#utility.yul\":2116:2151   */\n      mstore\n        /* \"#utility.yul\":1999:2158   */\n      pop\n      jump\t// out\n\n    auxdata: 0xa2646970667358221220d66bc3233ee7ece580c957beffc78da2c7029e9ea08bc9d18e6525d7c962f57664736f6c63430008070033\n}\n",
				"bytecode": {
					"linkReferences": {},
					"object": "6080604052336000806101000a81548173ffffffffffffffffffffffffffffffffffffffff021916908373ffffffffffffffffffffffffffffffffffffffff16021790555034801561005057600080fd5b50610289806100606000396000f3fe608060405234801561001057600080fd5b50600436106100415760003560e01c80630c55699c1461004657806354353f2f146100645780638da5cb5b1461006e575b600080fd5b61004e61008c565b60405161005b91906101c2565b60405180910390f35b61006c610092565b005b610076610122565b6040516100839190610187565b60405180910390f35b60015481565b3373ffffffffffffffffffffffffffffffffffffffff1660008054906101000a900473ffffffffffffffffffffffffffffffffffffffff1673ffffffffffffffffffffffffffffffffffffffff1614610120576040517f08c379a0000000000000000000000000000000000000000000000000000000008152600401610117906101a2565b60405180910390fd5b565b60008054906101000a900473ffffffffffffffffffffffffffffffffffffffff1681565b61014f816101ee565b82525050565b60006101626009836101dd565b915061016d8261022a565b602082019050919050565b61018181610220565b82525050565b600060208201905061019c6000830184610146565b92915050565b600060208201905081810360008301526101bb81610155565b9050919050565b60006020820190506101d76000830184610178565b92915050565b600082825260208201905092915050565b60006101f982610200565b9050919050565b600073ffffffffffffffffffffffffffffffffffffffff82169050919050565b6000819050919050565b7f6e6f74206f776e6572000000000000000000000000000000000000000000000060008201525056fea2646970667358221220d66bc3233ee7ece580c957beffc78da2c7029e9ea08bc9d18e6525d7c962f57664736f6c63430008070033",
					"opcodes": "PUSH1 0x80 PUSH1 0x40 MSTORE CALLER PUSH1 0x0 DUP1 PUSH2 0x100 EXP DUP2 SLOAD DUP2 PUSH20 0xFFFFFFFFFFFFFFFFFFFFFFFFFFFFFFFFFFFFFFFF MUL NOT AND SWAP1 DUP4 PUSH20 0xFFFFFFFFFFFFFFFFFFFFFFFFFFFFFFFFFFFFFFFF AND MUL OR SWAP1 SSTORE POP CALLVALUE DUP1 ISZERO PUSH2 0x50 JUMPI PUSH1 0x0 DUP1 REVERT JUMPDEST POP PUSH2 0x289 DUP1 PUSH2 0x60 PUSH1 0x0 CODECOPY PUSH1 0x0 RETURN INVALID PUSH1 0x80 PUSH1 0x40 MSTORE CALLVALUE DUP1 ISZERO PUSH2 0x10 JUMPI PUSH1 0x0 DUP1 REVERT JUMPDEST POP PUSH1 0x4 CALLDATASIZE LT PUSH2 0x41 JUMPI PUSH1 0x0 CALLDATALOAD PUSH1 0xE0 SHR DUP1 PUSH4 0xC55699C EQ PUSH2 0x46 JUMPI DUP1 PUSH4 0x54353F2F EQ PUSH2 0x64 JUMPI DUP1 PUSH4 0x8DA5CB5B EQ PUSH2 0x6E JUMPI JUMPDEST PUSH1 0x0 DUP1 REVERT JUMPDEST PUSH2 0x4E PUSH2 0x8C JUMP JUMPDEST PUSH1 0x40 MLOAD PUSH2 0x5B SWAP2 SWAP1 PUSH2 0x1C2 JUMP JUMPDEST PUSH1 0x40 MLOAD DUP1 SWAP2 SUB SWAP1 RETURN JUMPDEST PUSH2 0x6C PUSH2 0x92 JUMP JUMPDEST STOP JUMPDEST PUSH2 0x76 PUSH2 0x122 JUMP JUMPDEST PUSH1 0x40 MLOAD PUSH2 0x83 SWAP2 SWAP1 PUSH2 0x187 JUMP JUMPDEST PUSH1 0x40 MLOAD DUP1 SWAP2 SUB SWAP1 RETURN JUMPDEST PUSH1 0x1 SLOAD DUP2 JUMP JUMPDEST CALLER PUSH20 0xFFFFFFFFFFFFFFFFFFFFFFFFFFFFFFFFFFFFFFFF AND PUSH1 0x0 DUP1 SLOAD SWAP1 PUSH2 0x100 EXP SWAP1 DIV PUSH20 0xFFFFFFFFFFFFFFFFFFFFFFFFFFFFFFFFFFFFFFFF AND PUSH20 0xFFFFFFFFFFFFFFFFFFFFFFFFFFFFFFFFFFFFFFFF AND EQ PUSH2 0x120 JUMPI PUSH1 0x40 MLOAD PUSH32 0x8C379A000000000000000000000000000000000000000000000000000000000 DUP2 MSTORE PUSH1 0x4 ADD PUSH2 0x117 SWAP1 PUSH2 0x1A2 JUMP JUMPDEST PUSH1 0x40 MLOAD DUP1 SWAP2 SUB SWAP1 REVERT JUMPDEST JUMP JUMPDEST PUSH1 0x0 DUP1 SLOAD SWAP1 PUSH2 0x100 EXP SWAP1 DIV PUSH20 0xFFFFFFFFFFFFFFFFFFFFFFFFFFFFFFFFFFFFFFFF AND DUP2 JUMP JUMPDEST PUSH2 0x14F DUP2 PUSH2 0x1EE JUMP JUMPDEST DUP3 MSTORE POP POP JUMP JUMPDEST PUSH1 0x0 PUSH2 0x162 PUSH1 0x9 DUP4 PUSH2 0x1DD JUMP JUMPDEST SWAP2 POP PUSH2 0x16D DUP3 PUSH2 0x22A JUMP JUMPDEST PUSH1 0x20 DUP3 ADD SWAP1 POP SWAP2 SWAP1 POP JUMP JUMPDEST PUSH2 0x181 DUP2 PUSH2 0x220 JUMP JUMPDEST DUP3 MSTORE POP POP JUMP JUMPDEST PUSH1 0x0 PUSH1 0x20 DUP3 ADD SWAP1 POP PUSH2 0x19C PUSH1 0x0 DUP4 ADD DUP5 PUSH2 0x146 JUMP JUMPDEST SWAP3 SWAP2 POP POP JUMP JUMPDEST PUSH1 0x0 PUSH1 0x20 DUP3 ADD SWAP1 POP DUP2 DUP2 SUB PUSH1 0x0 DUP4 ADD MSTORE PUSH2 0x1BB DUP2 PUSH2 0x155 JUMP JUMPDEST SWAP1 POP SWAP2 SWAP1 POP JUMP JUMPDEST PUSH1 0x0 PUSH1 0x20 DUP3 ADD SWAP1 POP PUSH2 0x1D7 PUSH1 0x0 DUP4 ADD DUP5 PUSH2 0x178 JUMP JUMPDEST SWAP3 SWAP2 POP POP JUMP JUMPDEST PUSH1 0x0 DUP3 DUP3 MSTORE PUSH1 0x20 DUP3 ADD SWAP1 POP SWAP3 SWAP2 POP POP JUMP JUMPDEST PUSH1 0x0 PUSH2 0x1F9 DUP3 PUSH2 0x200 JUMP JUMPDEST SWAP1 POP SWAP2 SWAP1 POP JUMP JUMPDEST PUSH1 0x0 PUSH20 0xFFFFFFFFFFFFFFFFFFFFFFFFFFFFFFFFFFFFFFFF DUP3 AND SWAP1 POP SWAP2 SWAP1 POP JUMP JUMPDEST PUSH1 0x0 DUP2 SWAP1 POP SWAP2 SWAP1 POP JUMP JUMPDEST PUSH32 0x6E6F74206F776E65720000000000000000000000000000000000000000000000 PUSH1 0x0 DUP3 ADD MSTORE POP JUMP INVALID LOG2 PUSH5 0x6970667358 0x22 SLT KECCAK256 0xD6 PUSH12 0xC3233EE7ECE580C957BEFFC7 DUP14 LOG2 0xC7 MUL SWAP15 SWAP15 LOG0 DUP12 0xC9 0xD1 DUP15 PUSH6 0x25D7C962F576 PUSH5 0x736F6C6343 STOP ADDMOD SMOD STOP CALLER "
				},
				"gasEstimates": {
					"creation": {
						"codeDepositCost": "129800",
						"executionCost": "24443",
						"totalCost": "154243"
					},
					"external": {
						"example()": "2600",
						"owner()": "2533",
						"x()": "2407"
					}
				},
				"methodIdentifiers": {
					"example()": "54353f2f",
					"owner()": "8da5cb5b",
					"x()": "0c55699c"
				}
			},
			"storageLayout": {
				"storage": [
					{
						"astId": 5,
						"contract": "Day30_Immutable.sol:Immutable",
						"label": "owner",
						"offset": 0,
						"slot": "0",
						"type": "t_address"
					},
					{
						"astId": 7,
						"contract": "Day30_Immutable.sol:Immutable",
						"label": "x",
						"offset": 0,
						"slot": "1",
						"type": "t_uint256"
					}
				],
				"types": {
					"t_address": {
						"encoding": "inplace",
						"label": "address",
						"numberOfBytes": "20"
					},
					"t_uint256": {
						"encoding": "inplace",
						"label": "uint256",
						"numberOfBytes": "32"
					}
				}
			},
			"userdoc": {
				"kind": "user",
				"methods": {},
				"version": 1
			}
		}
	}
}