{
	"Day2_ValueTypes.sol": {
		"ValueTypes": {
			"abi": [
				{
					"inputs": [],
					"name": "a",
					"outputs": [
						{
							"internalType": "bool",
							"name": "",
							"type": "bool"
						}
					],
					"stateMutability": "view",
					"type": "function"
				},
				{
					"inputs": [],
					"name": "b",
					"outputs": [
						{
							"internalType": "uint256",
							"name": "",
							"type": "uint256"
						}
					],
					"stateMutability": "view",
					"type": "function"
				},
				{
					"inputs": [],
					"name": "c",
					"outputs": [
						{
							"internalType": "int256",
							"name": "",
							"type": "int256"
						}
					],
					"stateMutability": "view",
					"type": "function"
				},
				{
					"inputs": [],
					"name": "maxInt",
					"outputs": [
						{
							"internalType": "int256",
							"name": "",
							"type": "int256"
						}
					],
					"stateMutability": "view",
					"type": "function"
				}
			],
			"devdoc": {
				"kind": "dev",
				"methods": {},
				"version": 1
			},
			"evm": {
				"assembly": "    /* \"Day2_ValueTypes.sol\":95:219  contract ValueTypes {... */\n  mstore(0x40, 0x80)\n    /* \"Day2_ValueTypes.sol\":198:211  type(int).max */\n  0x7fffffffffffffffffffffffffffffffffffffffffffffffffffffffffffffff\n    /* \"Day2_ValueTypes.sol\":178:211  int public maxInt = type(int).max */\n  0x03\n  sstore\n    /* \"Day2_ValueTypes.sol\":95:219  contract ValueTypes {... */\n  callvalue\n  dup1\n  iszero\n  tag_1\n  jumpi\n  0x00\n  dup1\n  revert\ntag_1:\n  pop\n  dataSize(sub_0)\n  dup1\n  dataOffset(sub_0)\n  0x00\n  codecopy\n  0x00\n  return\nstop\n\nsub_0: assembly {\n        /* \"Day2_ValueTypes.sol\":95:219  contract ValueTypes {... */\n      mstore(0x40, 0x80)\n      callvalue\n      dup1\n      iszero\n      tag_1\n      jumpi\n      0x00\n      dup1\n      revert\n    tag_1:\n      pop\n      jumpi(tag_2, lt(calldatasize, 0x04))\n      shr(0xe0, calldataload(0x00))\n      dup1\n      0x0dbe671f\n      eq\n      tag_3\n      jumpi\n      dup1\n      0x4df7e3d0\n      eq\n      tag_4\n      jumpi\n      dup1\n      0x7a4c2571\n      eq\n      tag_5\n      jumpi\n      dup1\n      0xc3da42b8\n      eq\n      tag_6\n      jumpi\n    tag_2:\n      0x00\n      dup1\n      revert\n        /* \"Day2_ValueTypes.sol\":121:134  bool public a */\n    tag_3:\n      tag_7\n      tag_8\n      jump\t// in\n    tag_7:\n      mload(0x40)\n      tag_9\n      swap2\n      swap1\n      tag_10\n      jump\t// in\n    tag_9:\n      mload(0x40)\n      dup1\n      swap2\n      sub\n      swap1\n      return\n        /* \"Day2_ValueTypes.sol\":140:153  uint public b */\n    tag_4:\n      tag_11\n      tag_12\n      jump\t// in\n    tag_11:\n      mload(0x40)\n      tag_13\n      swap2\n      swap1\n      tag_14\n      jump\t// in\n    tag_13:\n      mload(0x40)\n      dup1\n      swap2\n      sub\n      swap1\n      return\n        /* \"Day2_ValueTypes.sol\":178:211  int public maxInt = type(int).max */\n    tag_5:\n      tag_15\n      tag_16\n      jump\t// in\n    tag_15:\n      mload(0x40)\n      tag_17\n      swap2\n      swap1\n      tag_18\n      jump\t// in\n    tag_17:\n      mload(0x40)\n      dup1\n      swap2\n      sub\n      swap1\n      return\n        /* \"Day2_ValueTypes.sol\":159:171  int public c */\n    tag_6:\n      tag_19\n      tag_20\n      jump\t// in\n    tag_19:\n      mload(0x40)\n      tag_21\n      swap2\n      swap1\n      tag_18\n      jump\t// in\n    tag_21:\n      mload(0x40)\n      dup1\n      swap2\n      sub\n      swap1\n      return\n        /* \"Day2_ValueTypes.sol\":121:134  bool public a */\n    tag_8:\n      0x00\n      dup1\n      sload\n      swap1\n      0x0100\n      exp\n      swap1\n      div\n      0xff\n      and\n      dup2\n      jump\t// out\n        /* \"Day2_ValueTypes.sol\":140:153  uint public b */\n    tag_12:\n      sload(0x01)\n      dup2\n      jump\t// out\n        /* \"Day2_ValueTypes.sol\":178:211  int public maxInt = type(int).max */\n    tag_16:\n      sload(0x03)\n      dup2\n      jump\t// out\n        /* \"Day2_ValueTypes.sol\":159:171  int public c */\n    tag_20:\n      sload(0x02)\n      dup2\n      jump\t// out\n        /* \"#utility.yul\":7:116   */\n    tag_23:\n        /* \"#utility.yul\":88:109   */\n      tag_25\n        /* \"#utility.yul\":103:108   */\n      dup2\n        /* \"#utility.yul\":88:109   */\n      tag_26\n      jump\t// in\n    tag_25:\n        /* \"#utility.yul\":83:86   */\n      dup3\n        /* \"#utility.yul\":76:110   */\n      mstore\n        /* \"#utility.yul\":7:116   */\n      pop\n      pop\n      jump\t// out\n        /* \"#utility.yul\":122:237   */\n    tag_27:\n        /* \"#utility.yul\":207:230   */\n      tag_29\n        /* \"#utility.yul\":224:229   */\n      dup2\n        /* \"#utility.yul\":207:230   */\n      tag_30\n      jump\t// in\n    tag_29:\n        /* \"#utility.yul\":202:205   */\n      dup3\n        /* \"#utility.yul\":195:231   */\n      mstore\n        /* \"#utility.yul\":122:237   */\n      pop\n      pop\n      jump\t// out\n        /* \"#utility.yul\":243:361   */\n    tag_31:\n        /* \"#utility.yul\":330:354   */\n      tag_33\n        /* \"#utility.yul\":348:353   */\n      dup2\n        /* \"#utility.yul\":330:354   */\n      tag_34\n      jump\t// in\n    tag_33:\n        /* \"#utility.yul\":325:328   */\n      dup3\n        /* \"#utility.yul\":318:355   */\n      mstore\n        /* \"#utility.yul\":243:361   */\n      pop\n      pop\n      jump\t// out\n        /* \"#utility.yul\":367:577   */\n    tag_10:\n        /* \"#utility.yul\":454:458   */\n      0x00\n        /* \"#utility.yul\":492:494   */\n      0x20\n        /* \"#utility.yul\":481:490   */\n      dup3\n        /* \"#utility.yul\":477:495   */\n      add\n        /* \"#utility.yul\":469:495   */\n      swap1\n      pop\n        /* \"#utility.yul\":505:570   */\n      tag_36\n        /* \"#utility.yul\":567:568   */\n      0x00\n        /* \"#utility.yul\":556:565   */\n      dup4\n        /* \"#utility.yul\":552:569   */\n      add\n        /* \"#utility.yul\":543:549   */\n      dup5\n        /* \"#utility.yul\":505:570   */\n      tag_23\n      jump\t// in\n    tag_36:\n        /* \"#utility.yul\":367:577   */\n      swap3\n      swap2\n      pop\n      pop\n      jump\t// out\n        /* \"#utility.yul\":583:801   */\n    tag_18:\n        /* \"#utility.yul\":674:678   */\n      0x00\n        /* \"#utility.yul\":712:714   */\n      0x20\n        /* \"#utility.yul\":701:710   */\n      dup3\n        /* \"#utility.yul\":697:715   */\n      add\n        /* \"#utility.yul\":689:715   */\n      swap1\n      pop\n        /* \"#utility.yul\":725:794   */\n      tag_38\n        /* \"#utility.yul\":791:792   */\n      0x00\n        /* \"#utility.yul\":780:789   */\n      dup4\n        /* \"#utility.yul\":776:793   */\n      add\n        /* \"#utility.yul\":767:773   */\n      dup5\n        /* \"#utility.yul\":725:794   */\n      tag_27\n      jump\t// in\n    tag_38:\n        /* \"#utility.yul\":583:801   */\n      swap3\n      swap2\n      pop\n      pop\n      jump\t// out\n        /* \"#utility.yul\":807:1029   */\n    tag_14:\n        /* \"#utility.yul\":900:904   */\n      0x00\n        /* \"#utility.yul\":938:940   */\n      0x20\n        /* \"#utility.yul\":927:936   */\n      dup3\n        /* \"#utility.yul\":923:941   */\n      add\n        /* \"#utility.yul\":915:941   */\n      swap1\n      pop\n        /* \"#utility.yul\":951:1022   */\n      tag_40\n        /* \"#utility.yul\":1019:1020   */\n      0x00\n        /* \"#utility.yul\":1008:1017   */\n      dup4\n        /* \"#utility.yul\":1004:1021   */\n      add\n        /* \"#utility.yul\":995:1001   */\n      dup5\n        /* \"#utility.yul\":951:1022   */\n      tag_31\n      jump\t// in\n    tag_40:\n        /* \"#utility.yul\":807:1029   */\n      swap3\n      swap2\n      pop\n      pop\n      jump\t// out\n        /* \"#utility.yul\":1035:1125   */\n    tag_26:\n        /* \"#utility.yul\":1069:1076   */\n      0x00\n        /* \"#utility.yul\":1112:1117   */\n      dup2\n        /* \"#utility.yul\":1105:1118   */\n      iszero\n        /* \"#utility.yul\":1098:1119   */\n      iszero\n        /* \"#utility.yul\":1087:1119   */\n      swap1\n      pop\n        /* \"#utility.yul\":1035:1125   */\n      swap2\n      swap1\n      pop\n      jump\t// out\n        /* \"#utility.yul\":1131:1207   */\n    tag_30:\n        /* \"#utility.yul\":1167:1174   */\n      0x00\n        /* \"#utility.yul\":1196:1201   */\n      dup2\n        /* \"#utility.yul\":1185:1201   */\n      swap1\n      pop\n        /* \"#utility.yul\":1131:1207   */\n      swap2\n      swap1\n      pop\n      jump\t// out\n        /* \"#utility.yul\":1213:1290   */\n    tag_34:\n        /* \"#utility.yul\":1250:1257   */\n      0x00\n        /* \"#utility.yul\":1279:1284   */\n      dup2\n        /* \"#utility.yul\":1268:1284   */\n      swap1\n      pop\n        /* \"#utility.yul\":1213:1290   */\n      swap2\n      swap1\n      pop\n      jump\t// out\n\n    auxdata: 0xa2646970667358221220784a542e98f38892c93e537cd3c61ccb764ab5e31da2d2dd66a59464b00804d264736f6c63430008070033\n}\n",
				"bytecode": {
					"linkReferences": {},
					"object": "60806040527f7fffffffffffffffffffffffffffffffffffffffffffffffffffffffffffffff60035534801561003457600080fd5b506101c0806100446000396000f3fe608060405234801561001057600080fd5b506004361061004c5760003560e01c80630dbe671f146100515780634df7e3d01461006f5780637a4c25711461008d578063c3da42b8146100ab575b600080fd5b6100596100c9565b6040516100669190610119565b60405180910390f35b6100776100da565b604051610084919061014f565b60405180910390f35b6100956100e0565b6040516100a29190610134565b60405180910390f35b6100b36100e6565b6040516100c09190610134565b60405180910390f35b60008054906101000a900460ff1681565b60015481565b60035481565b60025481565b6100f58161016a565b82525050565b61010481610176565b82525050565b61011381610180565b82525050565b600060208201905061012e60008301846100ec565b92915050565b600060208201905061014960008301846100fb565b92915050565b6000602082019050610164600083018461010a565b92915050565b60008115159050919050565b6000819050919050565b600081905091905056fea2646970667358221220784a542e98f38892c93e537cd3c61ccb764ab5e31da2d2dd66a59464b00804d264736f6c63430008070033",
					"opcodes": "PUSH1 0x80 PUSH1 0x40 MSTORE PUSH32 0x7FFFFFFFFFFFFFFFFFFFFFFFFFFFFFFFFFFFFFFFFFFFFFFFFFFFFFFFFFFFFFFF PUSH1 0x3 SSTORE CALLVALUE DUP1 ISZERO PUSH2 0x34 JUMPI PUSH1 0x0 DUP1 REVERT JUMPDEST POP PUSH2 0x1C0 DUP1 PUSH2 0x44 PUSH1 0x0 CODECOPY PUSH1 0x0 RETURN INVALID PUSH1 0x80 PUSH1 0x40 MSTORE CALLVALUE DUP1 ISZERO PUSH2 0x10 JUMPI PUSH1 0x0 DUP1 REVERT JUMPDEST POP PUSH1 0x4 CALLDATASIZE LT PUSH2 0x4C JUMPI PUSH1 0x0 CALLDATALOAD PUSH1 0xE0 SHR DUP1 PUSH4 0xDBE671F EQ PUSH2 0x51 JUMPI DUP1 PUSH4 0x4DF7E3D0 EQ PUSH2 0x6F JUMPI DUP1 PUSH4 0x7A4C2571 EQ PUSH2 0x8D JUMPI DUP1 PUSH4 0xC3DA42B8 EQ PUSH2 0xAB JUMPI JUMPDEST PUSH1 0x0 DUP1 REVERT JUMPDEST PUSH2 0x59 PUSH2 0xC9 JUMP JUMPDEST PUSH1 0x40 MLOAD PUSH2 0x66 SWAP2 SWAP1 PUSH2 0x119 JUMP JUMPDEST PUSH1 0x40 MLOAD DUP1 SWAP2 SUB SWAP1 RETURN JUMPDEST PUSH2 0x77 PUSH2 0xDA JUMP JUMPDEST PUSH1 0x40 MLOAD PUSH2 0x84 SWAP2 SWAP1 PUSH2 0x14F JUMP JUMPDEST PUSH1 0x40 MLOAD DUP1 SWAP2 SUB SWAP1 RETURN JUMPDEST PUSH2 0x95 PUSH2 0xE0 JUMP JUMPDEST PUSH1 0x40 MLOAD PUSH2 0xA2 SWAP2 SWAP1 PUSH2 0x134 JUMP JUMPDEST PUSH1 0x40 MLOAD DUP1 SWAP2 SUB SWAP1 RETURN JUMPDEST PUSH2 0xB3 PUSH2 0xE6 JUMP JUMPDEST PUSH1 0x40 MLOAD PUSH2 0xC0 SWAP2 SWAP1 PUSH2 0x134 JUMP JUMPDEST PUSH1 0x40 MLOAD DUP1 SWAP2 SUB SWAP1 RETURN JUMPDEST PUSH1 0x0 DUP1 SLOAD SWAP1 PUSH2 0x100 EXP SWAP1 DIV PUSH1 0xFF AND DUP2 JUMP JUMPDEST PUSH1 0x1 SLOAD DUP2 JUMP JUMPDEST PUSH1 0x3 SLOAD DUP2 JUMP JUMPDEST PUSH1 0x2 SLOAD DUP2 JUMP JUMPDEST PUSH2 0xF5 DUP2 PUSH2 0x16A JUMP JUMPDEST DUP3 MSTORE POP POP JUMP JUMPDEST PUSH2 0x104 DUP2 PUSH2 0x176 JUMP JUMPDEST DUP3 MSTORE POP POP JUMP JUMPDEST PUSH2 0x113 DUP2 PUSH2 0x180 JUMP JUMPDEST DUP3 MSTORE POP POP JUMP JUMPDEST PUSH1 0x0 PUSH1 0x20 DUP3 ADD SWAP1 POP PUSH2 0x12E PUSH1 0x0 DUP4 ADD DUP5 PUSH2 0xEC JUMP JUMPDEST SWAP3 SWAP2 POP POP JUMP JUMPDEST PUSH1 0x0 PUSH1 0x20 DUP3 ADD SWAP1 POP PUSH2 0x149 PUSH1 0x0 DUP4 ADD DUP5 PUSH2 0xFB JUMP JUMPDEST SWAP3 SWAP2 POP POP JUMP JUMPDEST PUSH1 0x0 PUSH1 0x20 DUP3 ADD SWAP1 POP PUSH2 0x164 PUSH1 0x0 DUP4 ADD DUP5 PUSH2 0x10A JUMP JUMPDEST SWAP3 SWAP2 POP POP JUMP JUMPDEST PUSH1 0x0 DUP2 ISZERO ISZERO SWAP1 POP SWAP2 SWAP1 POP JUMP JUMPDEST PUSH1 0x0 DUP2 SWAP1 POP SWAP2 SWAP1 POP JUMP JUMPDEST PUSH1 0x0 DUP2 SWAP1 POP SWAP2 SWAP1 POP JUMP INVALID LOG2 PUSH5 0x6970667358 0x22 SLT KECCAK256 PUSH25 0x4A542E98F38892C93E537CD3C61CCB764AB5E31DA2D2DD66A5 SWAP5 PUSH5 0xB00804D264 PUSH20 0x6F6C634300080700330000000000000000000000 "
				},
				"gasEstimates": {
					"creation": {
						"codeDepositCost": "89600",
						"executionCost": "22241",
						"totalCost": "111841"
					},
					"external": {
						"a()": "2446",
						"b()": "2429",
						"c()": "2473",
						"maxInt()": "2451"
					}
				},
				"methodIdentifiers": {
					"a()": "0dbe671f",
					"b()": "4df7e3d0",
					"c()": "c3da42b8",
					"maxInt()": "7a4c2571"
				}
			},
			"storageLayout": {
				"storage": [
					{
						"astId": 3,
						"contract": "Day2_ValueTypes.sol:ValueTypes",
						"label": "a",
						"offset": 0,
						"slot": "0",
						"type": "t_bool"
					},
					{
						"astId": 5,
						"contract": "Day2_ValueTypes.sol:ValueTypes",
						"label": "b",
						"offset": 0,
						"slot": "1",
						"type": "t_uint256"
					},
					{
						"astId": 7,
						"contract": "Day2_ValueTypes.sol:ValueTypes",
						"label": "c",
						"offset": 0,
						"slot": "2",
						"type": "t_int256"
					},
					{
						"astId": 14,
						"contract": "Day2_ValueTypes.sol:ValueTypes",
						"label": "maxInt",
						"offset": 0,
						"slot": "3",
						"type": "t_int256"
					}
				],
				"types": {
					"t_bool": {
						"encoding": "inplace",
						"label": "bool",
						"numberOfBytes": "1"
					},
					"t_int256": {
						"encoding": "inplace",
						"label": "int256",
						"numberOfBytes": "32"
					},
					"t_uint256": {
						"encoding": "inplace",
						"label": "uint256",
						"numberOfBytes": "32"
					}
				}
			},
			"userdoc": {
				"kind": "user",
				"methods": {},
				"version": 1
			}
		}
	}
}