{
	"Day37_Call.sol": {
		"Call": {
			"abi": [
				{
					"inputs": [
						{
							"internalType": "address",
							"name": "_test",
							"type": "address"
						}
					],
					"name": "callFoo",
					"outputs": [],
					"stateMutability": "payable",
					"type": "function"
				},
				{
					"inputs": [],
					"name": "data",
					"outputs": [
						{
							"internalType": "bytes",
							"name": "",
							"type": "bytes"
						}
					],
					"stateMutability": "view",
					"type": "function"
				}
			],
			"devdoc": {
				"kind": "dev",
				"methods": {},
				"version": 1
			},
			"evm": {
				"assembly": "    /* \"Day37_Call.sol\":328:625  contract Call {... */\n  mstore(0x40, 0x80)\n  callvalue\n  dup1\n  iszero\n  tag_1\n  jumpi\n  0x00\n  dup1\n  revert\ntag_1:\n  pop\n  dataSize(sub_0)\n  dup1\n  dataOffset(sub_0)\n  0x00\n  codecopy\n  0x00\n  return\nstop\n\nsub_0: assembly {\n        /* \"Day37_Call.sol\":328:625  contract Call {... */\n      mstore(0x40, 0x80)\n      jumpi(tag_1, lt(calldatasize, 0x04))\n      shr(0xe0, calldataload(0x00))\n      dup1\n      0x73d4a13a\n      eq\n      tag_2\n      jumpi\n      dup1\n      0xedcbe76c\n      eq\n      tag_3\n      jumpi\n    tag_1:\n      0x00\n      dup1\n      revert\n        /* \"Day37_Call.sol\":348:365  bytes public data */\n    tag_2:\n      callvalue\n      dup1\n      iszero\n      tag_4\n      jumpi\n      0x00\n      dup1\n      revert\n    tag_4:\n      pop\n      tag_5\n      tag_6\n      jump\t// in\n    tag_5:\n      mload(0x40)\n      tag_7\n      swap2\n      swap1\n      tag_8\n      jump\t// in\n    tag_7:\n      mload(0x40)\n      dup1\n      swap2\n      sub\n      swap1\n      return\n        /* \"Day37_Call.sol\":372:623  function callFoo(address _test) external payable {... */\n    tag_3:\n      tag_9\n      0x04\n      dup1\n      calldatasize\n      sub\n      dup2\n      add\n      swap1\n      tag_10\n      swap2\n      swap1\n      tag_11\n      jump\t// in\n    tag_10:\n      tag_12\n      jump\t// in\n    tag_9:\n      stop\n        /* \"Day37_Call.sol\":348:365  bytes public data */\n    tag_6:\n      0x00\n      dup1\n      sload\n      tag_13\n      swap1\n      tag_14\n      jump\t// in\n    tag_13:\n      dup1\n      0x1f\n      add\n      0x20\n      dup1\n      swap2\n      div\n      mul\n      0x20\n      add\n      mload(0x40)\n      swap1\n      dup2\n      add\n      0x40\n      mstore\n      dup1\n      swap3\n      swap2\n      swap1\n      dup2\n      dup2\n      mstore\n      0x20\n      add\n      dup3\n      dup1\n      sload\n      tag_15\n      swap1\n      tag_14\n      jump\t// in\n    tag_15:\n      dup1\n      iszero\n      tag_16\n      jumpi\n      dup1\n      0x1f\n      lt\n      tag_17\n      jumpi\n      0x0100\n      dup1\n      dup4\n      sload\n      div\n      mul\n      dup4\n      mstore\n      swap2\n      0x20\n      add\n      swap2\n      jump(tag_16)\n    tag_17:\n      dup3\n      add\n      swap2\n      swap1\n      0x00\n      mstore\n      keccak256(0x00, 0x20)\n      swap1\n    tag_18:\n      dup2\n      sload\n      dup2\n      mstore\n      swap1\n      0x01\n      add\n      swap1\n      0x20\n      add\n      dup1\n      dup4\n      gt\n      tag_18\n      jumpi\n      dup3\n      swap1\n      sub\n      0x1f\n      and\n      dup3\n      add\n      swap2\n    tag_16:\n      pop\n      pop\n      pop\n      pop\n      pop\n      dup2\n      jump\t// out\n        /* \"Day37_Call.sol\":372:623  function callFoo(address _test) external payable {... */\n    tag_12:\n        /* \"Day37_Call.sol\":432:444  bool success */\n      0x00\n        /* \"Day37_Call.sol\":446:464  bytes memory _data */\n      dup1\n        /* \"Day37_Call.sol\":468:473  _test */\n      dup3\n        /* \"Day37_Call.sol\":468:478  _test.call */\n      0xffffffffffffffffffffffffffffffffffffffff\n      and\n        /* \"Day37_Call.sol\":485:488  333 */\n      0x014d\n        /* \"Day37_Call.sol\":494:498  5000 */\n      0x1388\n        /* \"Day37_Call.sol\":468:562  _test.call{value:333, gas:5000}(abi.encodeWithSignature(\"foo(string,uint256)\",\"foo call\",123)) */\n      swap1\n        /* \"Day37_Call.sol\":557:560  123 */\n      0x7b\n        /* \"Day37_Call.sol\":500:561  abi.encodeWithSignature(\"foo(string,uint256)\",\"foo call\",123) */\n      add(0x24, mload(0x40))\n      tag_20\n      swap2\n      swap1\n      tag_21\n      jump\t// in\n    tag_20:\n      mload(0x40)\n      0x20\n      dup2\n      dup4\n      sub\n      sub\n      dup2\n      mstore\n      swap1\n      0x40\n      mstore\n      and(not(0xffffffffffffffffffffffffffffffffffffffffffffffffffffffff), 0x24ccab8f00000000000000000000000000000000000000000000000000000000)\n      0x20\n      dup3\n      add\n      dup1\n      mload\n      0xffffffffffffffffffffffffffffffffffffffffffffffffffffffff\n      dup4\n      dup2\n      dup4\n      and\n      or\n      dup4\n      mstore\n      pop\n      pop\n      pop\n      pop\n        /* \"Day37_Call.sol\":468:562  _test.call{value:333, gas:5000}(abi.encodeWithSignature(\"foo(string,uint256)\",\"foo call\",123)) */\n      mload(0x40)\n      tag_22\n      swap2\n      swap1\n      tag_23\n      jump\t// in\n    tag_22:\n      0x00\n      mload(0x40)\n      dup1\n      dup4\n      sub\n      dup2\n      dup6\n      dup9\n      dup9\n      call\n      swap4\n      pop\n      pop\n      pop\n      pop\n      returndatasize\n      dup1\n      0x00\n      dup2\n      eq\n      tag_26\n      jumpi\n      mload(0x40)\n      swap2\n      pop\n      and(add(returndatasize, 0x3f), not(0x1f))\n      dup3\n      add\n      0x40\n      mstore\n      returndatasize\n      dup3\n      mstore\n      returndatasize\n      0x00\n      0x20\n      dup5\n      add\n      returndatacopy\n      jump(tag_25)\n    tag_26:\n      0x60\n      swap2\n      pop\n    tag_25:\n      pop\n        /* \"Day37_Call.sol\":431:562  (bool success, bytes memory _data) = _test.call{value:333, gas:5000}(abi.encodeWithSignature(\"foo(string,uint256)\",\"foo call\",123)) */\n      swap2\n      pop\n      swap2\n      pop\n        /* \"Day37_Call.sol\":580:587  success */\n      dup2\n        /* \"Day37_Call.sol\":572:607  require(success, \"call foo failed\") */\n      tag_27\n      jumpi\n      mload(0x40)\n      0x08c379a000000000000000000000000000000000000000000000000000000000\n      dup2\n      mstore\n      0x04\n      add\n      tag_28\n      swap1\n      tag_29\n      jump\t// in\n    tag_28:\n      mload(0x40)\n      dup1\n      swap2\n      sub\n      swap1\n      revert\n    tag_27:\n        /* \"Day37_Call.sol\":421:623  {... */\n      pop\n      pop\n        /* \"Day37_Call.sol\":372:623  function callFoo(address _test) external payable {... */\n      pop\n      jump\t// out\n        /* \"#utility.yul\":7:146   */\n    tag_31:\n        /* \"#utility.yul\":53:58   */\n      0x00\n        /* \"#utility.yul\":91:97   */\n      dup2\n        /* \"#utility.yul\":78:98   */\n      calldataload\n        /* \"#utility.yul\":69:98   */\n      swap1\n      pop\n        /* \"#utility.yul\":107:140   */\n      tag_33\n        /* \"#utility.yul\":134:139   */\n      dup2\n        /* \"#utility.yul\":107:140   */\n      tag_34\n      jump\t// in\n    tag_33:\n        /* \"#utility.yul\":7:146   */\n      swap3\n      swap2\n      pop\n      pop\n      jump\t// out\n        /* \"#utility.yul\":152:481   */\n    tag_11:\n        /* \"#utility.yul\":211:217   */\n      0x00\n        /* \"#utility.yul\":260:262   */\n      0x20\n        /* \"#utility.yul\":248:257   */\n      dup3\n        /* \"#utility.yul\":239:246   */\n      dup5\n        /* \"#utility.yul\":235:258   */\n      sub\n        /* \"#utility.yul\":231:263   */\n      slt\n        /* \"#utility.yul\":228:347   */\n      iszero\n      tag_36\n      jumpi\n        /* \"#utility.yul\":266:345   */\n      tag_37\n      tag_38\n      jump\t// in\n    tag_37:\n        /* \"#utility.yul\":228:347   */\n    tag_36:\n        /* \"#utility.yul\":386:387   */\n      0x00\n        /* \"#utility.yul\":411:464   */\n      tag_39\n        /* \"#utility.yul\":456:463   */\n      dup5\n        /* \"#utility.yul\":447:453   */\n      dup3\n        /* \"#utility.yul\":436:445   */\n      dup6\n        /* \"#utility.yul\":432:454   */\n      add\n        /* \"#utility.yul\":411:464   */\n      tag_31\n      jump\t// in\n    tag_39:\n        /* \"#utility.yul\":401:464   */\n      swap2\n      pop\n        /* \"#utility.yul\":357:474   */\n      pop\n        /* \"#utility.yul\":152:481   */\n      swap3\n      swap2\n      pop\n      pop\n      jump\t// out\n        /* \"#utility.yul\":487:847   */\n    tag_40:\n        /* \"#utility.yul\":573:576   */\n      0x00\n        /* \"#utility.yul\":601:639   */\n      tag_42\n        /* \"#utility.yul\":633:638   */\n      dup3\n        /* \"#utility.yul\":601:639   */\n      tag_43\n      jump\t// in\n    tag_42:\n        /* \"#utility.yul\":655:725   */\n      tag_44\n        /* \"#utility.yul\":718:724   */\n      dup2\n        /* \"#utility.yul\":713:716   */\n      dup6\n        /* \"#utility.yul\":655:725   */\n      tag_45\n      jump\t// in\n    tag_44:\n        /* \"#utility.yul\":648:725   */\n      swap4\n      pop\n        /* \"#utility.yul\":734:786   */\n      tag_46\n        /* \"#utility.yul\":779:785   */\n      dup2\n        /* \"#utility.yul\":774:777   */\n      dup6\n        /* \"#utility.yul\":767:771   */\n      0x20\n        /* \"#utility.yul\":760:765   */\n      dup7\n        /* \"#utility.yul\":756:772   */\n      add\n        /* \"#utility.yul\":734:786   */\n      tag_47\n      jump\t// in\n    tag_46:\n        /* \"#utility.yul\":811:840   */\n      tag_48\n        /* \"#utility.yul\":833:839   */\n      dup2\n        /* \"#utility.yul\":811:840   */\n      tag_49\n      jump\t// in\n    tag_48:\n        /* \"#utility.yul\":806:809   */\n      dup5\n        /* \"#utility.yul\":802:841   */\n      add\n        /* \"#utility.yul\":795:841   */\n      swap2\n      pop\n        /* \"#utility.yul\":577:847   */\n      pop\n        /* \"#utility.yul\":487:847   */\n      swap3\n      swap2\n      pop\n      pop\n      jump\t// out\n        /* \"#utility.yul\":853:1226   */\n    tag_50:\n        /* \"#utility.yul\":957:960   */\n      0x00\n        /* \"#utility.yul\":985:1023   */\n      tag_52\n        /* \"#utility.yul\":1017:1022   */\n      dup3\n        /* \"#utility.yul\":985:1023   */\n      tag_43\n      jump\t// in\n    tag_52:\n        /* \"#utility.yul\":1039:1127   */\n      tag_53\n        /* \"#utility.yul\":1120:1126   */\n      dup2\n        /* \"#utility.yul\":1115:1118   */\n      dup6\n        /* \"#utility.yul\":1039:1127   */\n      tag_54\n      jump\t// in\n    tag_53:\n        /* \"#utility.yul\":1032:1127   */\n      swap4\n      pop\n        /* \"#utility.yul\":1136:1188   */\n      tag_55\n        /* \"#utility.yul\":1181:1187   */\n      dup2\n        /* \"#utility.yul\":1176:1179   */\n      dup6\n        /* \"#utility.yul\":1169:1173   */\n      0x20\n        /* \"#utility.yul\":1162:1167   */\n      dup7\n        /* \"#utility.yul\":1158:1174   */\n      add\n        /* \"#utility.yul\":1136:1188   */\n      tag_47\n      jump\t// in\n    tag_55:\n        /* \"#utility.yul\":1213:1219   */\n      dup1\n        /* \"#utility.yul\":1208:1211   */\n      dup5\n        /* \"#utility.yul\":1204:1220   */\n      add\n        /* \"#utility.yul\":1197:1220   */\n      swap2\n      pop\n        /* \"#utility.yul\":961:1226   */\n      pop\n        /* \"#utility.yul\":853:1226   */\n      swap3\n      swap2\n      pop\n      pop\n      jump\t// out\n        /* \"#utility.yul\":1232:1379   */\n    tag_56:\n        /* \"#utility.yul\":1327:1372   */\n      tag_58\n        /* \"#utility.yul\":1366:1371   */\n      dup2\n        /* \"#utility.yul\":1327:1372   */\n      tag_59\n      jump\t// in\n    tag_58:\n        /* \"#utility.yul\":1322:1325   */\n      dup3\n        /* \"#utility.yul\":1315:1373   */\n      mstore\n        /* \"#utility.yul\":1232:1379   */\n      pop\n      pop\n      jump\t// out\n        /* \"#utility.yul\":1385:1751   */\n    tag_60:\n        /* \"#utility.yul\":1527:1530   */\n      0x00\n        /* \"#utility.yul\":1548:1615   */\n      tag_62\n        /* \"#utility.yul\":1612:1614   */\n      0x0f\n        /* \"#utility.yul\":1607:1610   */\n      dup4\n        /* \"#utility.yul\":1548:1615   */\n      tag_63\n      jump\t// in\n    tag_62:\n        /* \"#utility.yul\":1541:1615   */\n      swap2\n      pop\n        /* \"#utility.yul\":1624:1717   */\n      tag_64\n        /* \"#utility.yul\":1713:1716   */\n      dup3\n        /* \"#utility.yul\":1624:1717   */\n      tag_65\n      jump\t// in\n    tag_64:\n        /* \"#utility.yul\":1742:1744   */\n      0x20\n        /* \"#utility.yul\":1737:1740   */\n      dup3\n        /* \"#utility.yul\":1733:1745   */\n      add\n        /* \"#utility.yul\":1726:1745   */\n      swap1\n      pop\n        /* \"#utility.yul\":1385:1751   */\n      swap2\n      swap1\n      pop\n      jump\t// out\n        /* \"#utility.yul\":1757:2122   */\n    tag_66:\n        /* \"#utility.yul\":1899:1902   */\n      0x00\n        /* \"#utility.yul\":1920:1986   */\n      tag_68\n        /* \"#utility.yul\":1984:1985   */\n      0x08\n        /* \"#utility.yul\":1979:1982   */\n      dup4\n        /* \"#utility.yul\":1920:1986   */\n      tag_63\n      jump\t// in\n    tag_68:\n        /* \"#utility.yul\":1913:1986   */\n      swap2\n      pop\n        /* \"#utility.yul\":1995:2088   */\n      tag_69\n        /* \"#utility.yul\":2084:2087   */\n      dup3\n        /* \"#utility.yul\":1995:2088   */\n      tag_70\n      jump\t// in\n    tag_69:\n        /* \"#utility.yul\":2113:2115   */\n      0x20\n        /* \"#utility.yul\":2108:2111   */\n      dup3\n        /* \"#utility.yul\":2104:2116   */\n      add\n        /* \"#utility.yul\":2097:2116   */\n      swap1\n      pop\n        /* \"#utility.yul\":1757:2122   */\n      swap2\n      swap1\n      pop\n      jump\t// out\n        /* \"#utility.yul\":2128:2399   */\n    tag_23:\n        /* \"#utility.yul\":2258:2261   */\n      0x00\n        /* \"#utility.yul\":2280:2373   */\n      tag_72\n        /* \"#utility.yul\":2369:2372   */\n      dup3\n        /* \"#utility.yul\":2360:2366   */\n      dup5\n        /* \"#utility.yul\":2280:2373   */\n      tag_50\n      jump\t// in\n    tag_72:\n        /* \"#utility.yul\":2273:2373   */\n      swap2\n      pop\n        /* \"#utility.yul\":2390:2393   */\n      dup2\n        /* \"#utility.yul\":2383:2393   */\n      swap1\n      pop\n        /* \"#utility.yul\":2128:2399   */\n      swap3\n      swap2\n      pop\n      pop\n      jump\t// out\n        /* \"#utility.yul\":2405:2714   */\n    tag_8:\n        /* \"#utility.yul\":2516:2520   */\n      0x00\n        /* \"#utility.yul\":2554:2556   */\n      0x20\n        /* \"#utility.yul\":2543:2552   */\n      dup3\n        /* \"#utility.yul\":2539:2557   */\n      add\n        /* \"#utility.yul\":2531:2557   */\n      swap1\n      pop\n        /* \"#utility.yul\":2603:2612   */\n      dup2\n        /* \"#utility.yul\":2597:2601   */\n      dup2\n        /* \"#utility.yul\":2593:2613   */\n      sub\n        /* \"#utility.yul\":2589:2590   */\n      0x00\n        /* \"#utility.yul\":2578:2587   */\n      dup4\n        /* \"#utility.yul\":2574:2591   */\n      add\n        /* \"#utility.yul\":2567:2614   */\n      mstore\n        /* \"#utility.yul\":2631:2707   */\n      tag_74\n        /* \"#utility.yul\":2702:2706   */\n      dup2\n        /* \"#utility.yul\":2693:2699   */\n      dup5\n        /* \"#utility.yul\":2631:2707   */\n      tag_40\n      jump\t// in\n    tag_74:\n        /* \"#utility.yul\":2623:2707   */\n      swap1\n      pop\n        /* \"#utility.yul\":2405:2714   */\n      swap3\n      swap2\n      pop\n      pop\n      jump\t// out\n        /* \"#utility.yul\":2720:3139   */\n    tag_29:\n        /* \"#utility.yul\":2886:2890   */\n      0x00\n        /* \"#utility.yul\":2924:2926   */\n      0x20\n        /* \"#utility.yul\":2913:2922   */\n      dup3\n        /* \"#utility.yul\":2909:2927   */\n      add\n        /* \"#utility.yul\":2901:2927   */\n      swap1\n      pop\n        /* \"#utility.yul\":2973:2982   */\n      dup2\n        /* \"#utility.yul\":2967:2971   */\n      dup2\n        /* \"#utility.yul\":2963:2983   */\n      sub\n        /* \"#utility.yul\":2959:2960   */\n      0x00\n        /* \"#utility.yul\":2948:2957   */\n      dup4\n        /* \"#utility.yul\":2944:2961   */\n      add\n        /* \"#utility.yul\":2937:2984   */\n      mstore\n        /* \"#utility.yul\":3001:3132   */\n      tag_76\n        /* \"#utility.yul\":3127:3131   */\n      dup2\n        /* \"#utility.yul\":3001:3132   */\n      tag_60\n      jump\t// in\n    tag_76:\n        /* \"#utility.yul\":2993:3132   */\n      swap1\n      pop\n        /* \"#utility.yul\":2720:3139   */\n      swap2\n      swap1\n      pop\n      jump\t// out\n        /* \"#utility.yul\":3145:3690   */\n    tag_21:\n        /* \"#utility.yul\":3347:3351   */\n      0x00\n        /* \"#utility.yul\":3385:3387   */\n      0x40\n        /* \"#utility.yul\":3374:3383   */\n      dup3\n        /* \"#utility.yul\":3370:3388   */\n      add\n        /* \"#utility.yul\":3362:3388   */\n      swap1\n      pop\n        /* \"#utility.yul\":3434:3443   */\n      dup2\n        /* \"#utility.yul\":3428:3432   */\n      dup2\n        /* \"#utility.yul\":3424:3444   */\n      sub\n        /* \"#utility.yul\":3420:3421   */\n      0x00\n        /* \"#utility.yul\":3409:3418   */\n      dup4\n        /* \"#utility.yul\":3405:3422   */\n      add\n        /* \"#utility.yul\":3398:3445   */\n      mstore\n        /* \"#utility.yul\":3462:3593   */\n      tag_78\n        /* \"#utility.yul\":3588:3592   */\n      dup2\n        /* \"#utility.yul\":3462:3593   */\n      tag_66\n      jump\t// in\n    tag_78:\n        /* \"#utility.yul\":3454:3593   */\n      swap1\n      pop\n        /* \"#utility.yul\":3603:3683   */\n      tag_79\n        /* \"#utility.yul\":3679:3681   */\n      0x20\n        /* \"#utility.yul\":3668:3677   */\n      dup4\n        /* \"#utility.yul\":3664:3682   */\n      add\n        /* \"#utility.yul\":3655:3661   */\n      dup5\n        /* \"#utility.yul\":3603:3683   */\n      tag_56\n      jump\t// in\n    tag_79:\n        /* \"#utility.yul\":3145:3690   */\n      swap3\n      swap2\n      pop\n      pop\n      jump\t// out\n        /* \"#utility.yul\":3777:3875   */\n    tag_43:\n        /* \"#utility.yul\":3828:3834   */\n      0x00\n        /* \"#utility.yul\":3862:3867   */\n      dup2\n        /* \"#utility.yul\":3856:3868   */\n      mload\n        /* \"#utility.yul\":3846:3868   */\n      swap1\n      pop\n        /* \"#utility.yul\":3777:3875   */\n      swap2\n      swap1\n      pop\n      jump\t// out\n        /* \"#utility.yul\":3881:4049   */\n    tag_45:\n        /* \"#utility.yul\":3964:3975   */\n      0x00\n        /* \"#utility.yul\":3998:4004   */\n      dup3\n        /* \"#utility.yul\":3993:3996   */\n      dup3\n        /* \"#utility.yul\":3986:4005   */\n      mstore\n        /* \"#utility.yul\":4038:4042   */\n      0x20\n        /* \"#utility.yul\":4033:4036   */\n      dup3\n        /* \"#utility.yul\":4029:4043   */\n      add\n        /* \"#utility.yul\":4014:4043   */\n      swap1\n      pop\n        /* \"#utility.yul\":3881:4049   */\n      swap3\n      swap2\n      pop\n      pop\n      jump\t// out\n        /* \"#utility.yul\":4055:4202   */\n    tag_54:\n        /* \"#utility.yul\":4156:4167   */\n      0x00\n        /* \"#utility.yul\":4193:4196   */\n      dup2\n        /* \"#utility.yul\":4178:4196   */\n      swap1\n      pop\n        /* \"#utility.yul\":4055:4202   */\n      swap3\n      swap2\n      pop\n      pop\n      jump\t// out\n        /* \"#utility.yul\":4208:4377   */\n    tag_63:\n        /* \"#utility.yul\":4292:4303   */\n      0x00\n        /* \"#utility.yul\":4326:4332   */\n      dup3\n        /* \"#utility.yul\":4321:4324   */\n      dup3\n        /* \"#utility.yul\":4314:4333   */\n      mstore\n        /* \"#utility.yul\":4366:4370   */\n      0x20\n        /* \"#utility.yul\":4361:4364   */\n      dup3\n        /* \"#utility.yul\":4357:4371   */\n      add\n        /* \"#utility.yul\":4342:4371   */\n      swap1\n      pop\n        /* \"#utility.yul\":4208:4377   */\n      swap3\n      swap2\n      pop\n      pop\n      jump\t// out\n        /* \"#utility.yul\":4383:4479   */\n    tag_86:\n        /* \"#utility.yul\":4420:4427   */\n      0x00\n        /* \"#utility.yul\":4449:4473   */\n      tag_88\n        /* \"#utility.yul\":4467:4472   */\n      dup3\n        /* \"#utility.yul\":4449:4473   */\n      tag_89\n      jump\t// in\n    tag_88:\n        /* \"#utility.yul\":4438:4473   */\n      swap1\n      pop\n        /* \"#utility.yul\":4383:4479   */\n      swap2\n      swap1\n      pop\n      jump\t// out\n        /* \"#utility.yul\":4485:4611   */\n    tag_89:\n        /* \"#utility.yul\":4522:4529   */\n      0x00\n        /* \"#utility.yul\":4562:4604   */\n      0xffffffffffffffffffffffffffffffffffffffff\n        /* \"#utility.yul\":4555:4560   */\n      dup3\n        /* \"#utility.yul\":4551:4605   */\n      and\n        /* \"#utility.yul\":4540:4605   */\n      swap1\n      pop\n        /* \"#utility.yul\":4485:4611   */\n      swap2\n      swap1\n      pop\n      jump\t// out\n        /* \"#utility.yul\":4617:4703   */\n    tag_91:\n        /* \"#utility.yul\":4652:4659   */\n      0x00\n        /* \"#utility.yul\":4692:4696   */\n      0xff\n        /* \"#utility.yul\":4685:4690   */\n      dup3\n        /* \"#utility.yul\":4681:4697   */\n      and\n        /* \"#utility.yul\":4670:4697   */\n      swap1\n      pop\n        /* \"#utility.yul\":4617:4703   */\n      swap2\n      swap1\n      pop\n      jump\t// out\n        /* \"#utility.yul\":4709:4828   */\n    tag_59:\n        /* \"#utility.yul\":4767:4776   */\n      0x00\n        /* \"#utility.yul\":4800:4822   */\n      tag_94\n        /* \"#utility.yul\":4816:4821   */\n      dup3\n        /* \"#utility.yul\":4800:4822   */\n      tag_91\n      jump\t// in\n    tag_94:\n        /* \"#utility.yul\":4787:4822   */\n      swap1\n      pop\n        /* \"#utility.yul\":4709:4828   */\n      swap2\n      swap1\n      pop\n      jump\t// out\n        /* \"#utility.yul\":4834:5141   */\n    tag_47:\n        /* \"#utility.yul\":4902:4903   */\n      0x00\n        /* \"#utility.yul\":4912:5025   */\n    tag_96:\n        /* \"#utility.yul\":4926:4932   */\n      dup4\n        /* \"#utility.yul\":4923:4924   */\n      dup2\n        /* \"#utility.yul\":4920:4933   */\n      lt\n        /* \"#utility.yul\":4912:5025   */\n      iszero\n      tag_98\n      jumpi\n        /* \"#utility.yul\":5011:5012   */\n      dup1\n        /* \"#utility.yul\":5006:5009   */\n      dup3\n        /* \"#utility.yul\":5002:5013   */\n      add\n        /* \"#utility.yul\":4996:5014   */\n      mload\n        /* \"#utility.yul\":4992:4993   */\n      dup2\n        /* \"#utility.yul\":4987:4990   */\n      dup5\n        /* \"#utility.yul\":4983:4994   */\n      add\n        /* \"#utility.yul\":4976:5015   */\n      mstore\n        /* \"#utility.yul\":4948:4950   */\n      0x20\n        /* \"#utility.yul\":4945:4946   */\n      dup2\n        /* \"#utility.yul\":4941:4951   */\n      add\n        /* \"#utility.yul\":4936:4951   */\n      swap1\n      pop\n        /* \"#utility.yul\":4912:5025   */\n      jump(tag_96)\n    tag_98:\n        /* \"#utility.yul\":5043:5049   */\n      dup4\n        /* \"#utility.yul\":5040:5041   */\n      dup2\n        /* \"#utility.yul\":5037:5050   */\n      gt\n        /* \"#utility.yul\":5034:5135   */\n      iszero\n      tag_99\n      jumpi\n        /* \"#utility.yul\":5123:5124   */\n      0x00\n        /* \"#utility.yul\":5114:5120   */\n      dup5\n        /* \"#utility.yul\":5109:5112   */\n      dup5\n        /* \"#utility.yul\":5105:5121   */\n      add\n        /* \"#utility.yul\":5098:5125   */\n      mstore\n        /* \"#utility.yul\":5034:5135   */\n    tag_99:\n        /* \"#utility.yul\":4883:5141   */\n      pop\n        /* \"#utility.yul\":4834:5141   */\n      pop\n      pop\n      pop\n      jump\t// out\n        /* \"#utility.yul\":5147:5467   */\n    tag_14:\n        /* \"#utility.yul\":5191:5197   */\n      0x00\n        /* \"#utility.yul\":5228:5229   */\n      0x02\n        /* \"#utility.yul\":5222:5226   */\n      dup3\n        /* \"#utility.yul\":5218:5230   */\n      div\n        /* \"#utility.yul\":5208:5230   */\n      swap1\n      pop\n        /* \"#utility.yul\":5275:5276   */\n      0x01\n        /* \"#utility.yul\":5269:5273   */\n      dup3\n        /* \"#utility.yul\":5265:5277   */\n      and\n        /* \"#utility.yul\":5296:5314   */\n      dup1\n        /* \"#utility.yul\":5286:5367   */\n      tag_101\n      jumpi\n        /* \"#utility.yul\":5352:5356   */\n      0x7f\n        /* \"#utility.yul\":5344:5350   */\n      dup3\n        /* \"#utility.yul\":5340:5357   */\n      and\n        /* \"#utility.yul\":5330:5357   */\n      swap2\n      pop\n        /* \"#utility.yul\":5286:5367   */\n    tag_101:\n        /* \"#utility.yul\":5414:5416   */\n      0x20\n        /* \"#utility.yul\":5406:5412   */\n      dup3\n        /* \"#utility.yul\":5403:5417   */\n      lt\n        /* \"#utility.yul\":5383:5401   */\n      dup2\n        /* \"#utility.yul\":5380:5418   */\n      eq\n        /* \"#utility.yul\":5377:5461   */\n      iszero\n      tag_102\n      jumpi\n        /* \"#utility.yul\":5433:5451   */\n      tag_103\n      tag_104\n      jump\t// in\n    tag_103:\n        /* \"#utility.yul\":5377:5461   */\n    tag_102:\n        /* \"#utility.yul\":5198:5467   */\n      pop\n        /* \"#utility.yul\":5147:5467   */\n      swap2\n      swap1\n      pop\n      jump\t// out\n        /* \"#utility.yul\":5473:5653   */\n    tag_104:\n        /* \"#utility.yul\":5521:5598   */\n      0x4e487b7100000000000000000000000000000000000000000000000000000000\n        /* \"#utility.yul\":5518:5519   */\n      0x00\n        /* \"#utility.yul\":5511:5599   */\n      mstore\n        /* \"#utility.yul\":5618:5622   */\n      0x22\n        /* \"#utility.yul\":5615:5616   */\n      0x04\n        /* \"#utility.yul\":5608:5623   */\n      mstore\n        /* \"#utility.yul\":5642:5646   */\n      0x24\n        /* \"#utility.yul\":5639:5640   */\n      0x00\n        /* \"#utility.yul\":5632:5647   */\n      revert\n        /* \"#utility.yul\":5782:5899   */\n    tag_38:\n        /* \"#utility.yul\":5891:5892   */\n      0x00\n        /* \"#utility.yul\":5888:5889   */\n      dup1\n        /* \"#utility.yul\":5881:5893   */\n      revert\n        /* \"#utility.yul\":5905:6007   */\n    tag_49:\n        /* \"#utility.yul\":5946:5952   */\n      0x00\n        /* \"#utility.yul\":5997:5999   */\n      0x1f\n        /* \"#utility.yul\":5993:6000   */\n      not\n        /* \"#utility.yul\":5988:5990   */\n      0x1f\n        /* \"#utility.yul\":5981:5986   */\n      dup4\n        /* \"#utility.yul\":5977:5991   */\n      add\n        /* \"#utility.yul\":5973:6001   */\n      and\n        /* \"#utility.yul\":5963:6001   */\n      swap1\n      pop\n        /* \"#utility.yul\":5905:6007   */\n      swap2\n      swap1\n      pop\n      jump\t// out\n        /* \"#utility.yul\":6013:6178   */\n    tag_65:\n        /* \"#utility.yul\":6153:6170   */\n      0x63616c6c20666f6f206661696c65640000000000000000000000000000000000\n        /* \"#utility.yul\":6149:6150   */\n      0x00\n        /* \"#utility.yul\":6141:6147   */\n      dup3\n        /* \"#utility.yul\":6137:6151   */\n      add\n        /* \"#utility.yul\":6130:6171   */\n      mstore\n        /* \"#utility.yul\":6013:6178   */\n      pop\n      jump\t// out\n        /* \"#utility.yul\":6184:6342   */\n    tag_70:\n        /* \"#utility.yul\":6324:6334   */\n      0x666f6f2063616c6c000000000000000000000000000000000000000000000000\n        /* \"#utility.yul\":6320:6321   */\n      0x00\n        /* \"#utility.yul\":6312:6318   */\n      dup3\n        /* \"#utility.yul\":6308:6322   */\n      add\n        /* \"#utility.yul\":6301:6335   */\n      mstore\n        /* \"#utility.yul\":6184:6342   */\n      pop\n      jump\t// out\n        /* \"#utility.yul\":6348:6470   */\n    tag_34:\n        /* \"#utility.yul\":6421:6445   */\n      tag_113\n        /* \"#utility.yul\":6439:6444   */\n      dup2\n        /* \"#utility.yul\":6421:6445   */\n      tag_86\n      jump\t// in\n    tag_113:\n        /* \"#utility.yul\":6414:6419   */\n      dup2\n        /* \"#utility.yul\":6411:6446   */\n      eq\n        /* \"#utility.yul\":6401:6464   */\n      tag_114\n      jumpi\n        /* \"#utility.yul\":6460:6461   */\n      0x00\n        /* \"#utility.yul\":6457:6458   */\n      dup1\n        /* \"#utility.yul\":6450:6462   */\n      revert\n        /* \"#utility.yul\":6401:6464   */\n    tag_114:\n        /* \"#utility.yul\":6348:6470   */\n      pop\n      jump\t// out\n\n    auxdata: 0xa2646970667358221220b4835789e4210e730b4d1c29efc6e03f737319caf46120391d600261dbe4b2c764736f6c63430008070033\n}\n",
				"bytecode": {
					"linkReferences": {},
					"object": "608060405234801561001057600080fd5b506105a7806100206000396000f3fe6080604052600436106100295760003560e01c806373d4a13a1461002e578063edcbe76c14610059575b600080fd5b34801561003a57600080fd5b50610043610075565b6040516100509190610365565b60405180910390f35b610073600480360381019061006e9190610262565b610103565b005b6000805461008290610491565b80601f01602080910402602001604051908101604052809291908181526020018280546100ae90610491565b80156100fb5780601f106100d0576101008083540402835291602001916100fb565b820191906000526020600020905b8154815290600101906020018083116100de57829003601f168201915b505050505081565b6000808273ffffffffffffffffffffffffffffffffffffffff1661014d61138890607b60405160240161013691906103a7565b6040516020818303038152906040527f24ccab8f000000000000000000000000000000000000000000000000000000007bffffffffffffffffffffffffffffffffffffffffffffffffffffffff19166020820180517bffffffffffffffffffffffffffffffffffffffffffffffffffffffff83818316178352505050506040516101c0919061034e565b600060405180830381858888f193505050503d80600081146101fe576040519150601f19603f3d011682016040523d82523d6000602084013e610203565b606091505b509150915081610248576040517f08c379a000000000000000000000000000000000000000000000000000000000815260040161023f90610387565b60405180910390fd5b505050565b60008135905061025c8161055a565b92915050565b600060208284031215610278576102776104f2565b5b60006102868482850161024d565b91505092915050565b600061029a826103d5565b6102a481856103e0565b93506102b481856020860161045e565b6102bd816104f7565b840191505092915050565b60006102d3826103d5565b6102dd81856103f1565b93506102ed81856020860161045e565b80840191505092915050565b6103028161044c565b82525050565b6000610315600f836103fc565b915061032082610508565b602082019050919050565b60006103386008836103fc565b915061034382610531565b602082019050919050565b600061035a82846102c8565b915081905092915050565b6000602082019050818103600083015261037f818461028f565b905092915050565b600060208201905081810360008301526103a081610308565b9050919050565b600060408201905081810360008301526103c08161032b565b90506103cf60208301846102f9565b92915050565b600081519050919050565b600082825260208201905092915050565b600081905092915050565b600082825260208201905092915050565b60006104188261041f565b9050919050565b600073ffffffffffffffffffffffffffffffffffffffff82169050919050565b600060ff82169050919050565b60006104578261043f565b9050919050565b60005b8381101561047c578082015181840152602081019050610461565b8381111561048b576000848401525b50505050565b600060028204905060018216806104a957607f821691505b602082108114156104bd576104bc6104c3565b5b50919050565b7f4e487b7100000000000000000000000000000000000000000000000000000000600052602260045260246000fd5b600080fd5b6000601f19601f8301169050919050565b7f63616c6c20666f6f206661696c65640000000000000000000000000000000000600082015250565b7f666f6f2063616c6c000000000000000000000000000000000000000000000000600082015250565b6105638161040d565b811461056e57600080fd5b5056fea2646970667358221220b4835789e4210e730b4d1c29efc6e03f737319caf46120391d600261dbe4b2c764736f6c63430008070033",
					"opcodes": "PUSH1 0x80 PUSH1 0x40 MSTORE CALLVALUE DUP1 ISZERO PUSH2 0x10 JUMPI PUSH1 0x0 DUP1 REVERT JUMPDEST POP PUSH2 0x5A7 DUP1 PUSH2 0x20 PUSH1 0x0 CODECOPY PUSH1 0x0 RETURN INVALID PUSH1 0x80 PUSH1 0x40 MSTORE PUSH1 0x4 CALLDATASIZE LT PUSH2 0x29 JUMPI PUSH1 0x0 CALLDATALOAD PUSH1 0xE0 SHR DUP1 PUSH4 0x73D4A13A EQ PUSH2 0x2E JUMPI DUP1 PUSH4 0xEDCBE76C EQ PUSH2 0x59 JUMPI JUMPDEST PUSH1 0x0 DUP1 REVERT JUMPDEST CALLVALUE DUP1 ISZERO PUSH2 0x3A JUMPI PUSH1 0x0 DUP1 REVERT JUMPDEST POP PUSH2 0x43 PUSH2 0x75 JUMP JUMPDEST PUSH1 0x40 MLOAD PUSH2 0x50 SWAP2 SWAP1 PUSH2 0x365 JUMP JUMPDEST PUSH1 0x40 MLOAD DUP1 SWAP2 SUB SWAP1 RETURN JUMPDEST PUSH2 0x73 PUSH1 0x4 DUP1 CALLDATASIZE SUB DUP2 ADD SWAP1 PUSH2 0x6E SWAP2 SWAP1 PUSH2 0x262 JUMP JUMPDEST PUSH2 0x103 JUMP JUMPDEST STOP JUMPDEST PUSH1 0x0 DUP1 SLOAD PUSH2 0x82 SWAP1 PUSH2 0x491 JUMP JUMPDEST DUP1 PUSH1 0x1F ADD PUSH1 0x20 DUP1 SWAP2 DIV MUL PUSH1 0x20 ADD PUSH1 0x40 MLOAD SWAP1 DUP2 ADD PUSH1 0x40 MSTORE DUP1 SWAP3 SWAP2 SWAP1 DUP2 DUP2 MSTORE PUSH1 0x20 ADD DUP3 DUP1 SLOAD PUSH2 0xAE SWAP1 PUSH2 0x491 JUMP JUMPDEST DUP1 ISZERO PUSH2 0xFB JUMPI DUP1 PUSH1 0x1F LT PUSH2 0xD0 JUMPI PUSH2 0x100 DUP1 DUP4 SLOAD DIV MUL DUP4 MSTORE SWAP2 PUSH1 0x20 ADD SWAP2 PUSH2 0xFB JUMP JUMPDEST DUP3 ADD SWAP2 SWAP1 PUSH1 0x0 MSTORE PUSH1 0x20 PUSH1 0x0 KECCAK256 SWAP1 JUMPDEST DUP2 SLOAD DUP2 MSTORE SWAP1 PUSH1 0x1 ADD SWAP1 PUSH1 0x20 ADD DUP1 DUP4 GT PUSH2 0xDE JUMPI DUP3 SWAP1 SUB PUSH1 0x1F AND DUP3 ADD SWAP2 JUMPDEST POP POP POP POP POP DUP2 JUMP JUMPDEST PUSH1 0x0 DUP1 DUP3 PUSH20 0xFFFFFFFFFFFFFFFFFFFFFFFFFFFFFFFFFFFFFFFF AND PUSH2 0x14D PUSH2 0x1388 SWAP1 PUSH1 0x7B PUSH1 0x40 MLOAD PUSH1 0x24 ADD PUSH2 0x136 SWAP2 SWAP1 PUSH2 0x3A7 JUMP JUMPDEST PUSH1 0x40 MLOAD PUSH1 0x20 DUP2 DUP4 SUB SUB DUP2 MSTORE SWAP1 PUSH1 0x40 MSTORE PUSH32 0x24CCAB8F00000000000000000000000000000000000000000000000000000000 PUSH28 0xFFFFFFFFFFFFFFFFFFFFFFFFFFFFFFFFFFFFFFFFFFFFFFFFFFFFFFFF NOT AND PUSH1 0x20 DUP3 ADD DUP1 MLOAD PUSH28 0xFFFFFFFFFFFFFFFFFFFFFFFFFFFFFFFFFFFFFFFFFFFFFFFFFFFFFFFF DUP4 DUP2 DUP4 AND OR DUP4 MSTORE POP POP POP POP PUSH1 0x40 MLOAD PUSH2 0x1C0 SWAP2 SWAP1 PUSH2 0x34E JUMP JUMPDEST PUSH1 0x0 PUSH1 0x40 MLOAD DUP1 DUP4 SUB DUP2 DUP6 DUP9 DUP9 CALL SWAP4 POP POP POP POP RETURNDATASIZE DUP1 PUSH1 0x0 DUP2 EQ PUSH2 0x1FE JUMPI PUSH1 0x40 MLOAD SWAP2 POP PUSH1 0x1F NOT PUSH1 0x3F RETURNDATASIZE ADD AND DUP3 ADD PUSH1 0x40 MSTORE RETURNDATASIZE DUP3 MSTORE RETURNDATASIZE PUSH1 0x0 PUSH1 0x20 DUP5 ADD RETURNDATACOPY PUSH2 0x203 JUMP JUMPDEST PUSH1 0x60 SWAP2 POP JUMPDEST POP SWAP2 POP SWAP2 POP DUP2 PUSH2 0x248 JUMPI PUSH1 0x40 MLOAD PUSH32 0x8C379A000000000000000000000000000000000000000000000000000000000 DUP2 MSTORE PUSH1 0x4 ADD PUSH2 0x23F SWAP1 PUSH2 0x387 JUMP JUMPDEST PUSH1 0x40 MLOAD DUP1 SWAP2 SUB SWAP1 REVERT JUMPDEST POP POP POP JUMP JUMPDEST PUSH1 0x0 DUP2 CALLDATALOAD SWAP1 POP PUSH2 0x25C DUP2 PUSH2 0x55A JUMP JUMPDEST SWAP3 SWAP2 POP POP JUMP JUMPDEST PUSH1 0x0 PUSH1 0x20 DUP3 DUP5 SUB SLT ISZERO PUSH2 0x278 JUMPI PUSH2 0x277 PUSH2 0x4F2 JUMP JUMPDEST JUMPDEST PUSH1 0x0 PUSH2 0x286 DUP5 DUP3 DUP6 ADD PUSH2 0x24D JUMP JUMPDEST SWAP2 POP POP SWAP3 SWAP2 POP POP JUMP JUMPDEST PUSH1 0x0 PUSH2 0x29A DUP3 PUSH2 0x3D5 JUMP JUMPDEST PUSH2 0x2A4 DUP2 DUP6 PUSH2 0x3E0 JUMP JUMPDEST SWAP4 POP PUSH2 0x2B4 DUP2 DUP6 PUSH1 0x20 DUP7 ADD PUSH2 0x45E JUMP JUMPDEST PUSH2 0x2BD DUP2 PUSH2 0x4F7 JUMP JUMPDEST DUP5 ADD SWAP2 POP POP SWAP3 SWAP2 POP POP JUMP JUMPDEST PUSH1 0x0 PUSH2 0x2D3 DUP3 PUSH2 0x3D5 JUMP JUMPDEST PUSH2 0x2DD DUP2 DUP6 PUSH2 0x3F1 JUMP JUMPDEST SWAP4 POP PUSH2 0x2ED DUP2 DUP6 PUSH1 0x20 DUP7 ADD PUSH2 0x45E JUMP JUMPDEST DUP1 DUP5 ADD SWAP2 POP POP SWAP3 SWAP2 POP POP JUMP JUMPDEST PUSH2 0x302 DUP2 PUSH2 0x44C JUMP JUMPDEST DUP3 MSTORE POP POP JUMP JUMPDEST PUSH1 0x0 PUSH2 0x315 PUSH1 0xF DUP4 PUSH2 0x3FC JUMP JUMPDEST SWAP2 POP PUSH2 0x320 DUP3 PUSH2 0x508 JUMP JUMPDEST PUSH1 0x20 DUP3 ADD SWAP1 POP SWAP2 SWAP1 POP JUMP JUMPDEST PUSH1 0x0 PUSH2 0x338 PUSH1 0x8 DUP4 PUSH2 0x3FC JUMP JUMPDEST SWAP2 POP PUSH2 0x343 DUP3 PUSH2 0x531 JUMP JUMPDEST PUSH1 0x20 DUP3 ADD SWAP1 POP SWAP2 SWAP1 POP JUMP JUMPDEST PUSH1 0x0 PUSH2 0x35A DUP3 DUP5 PUSH2 0x2C8 JUMP JUMPDEST SWAP2 POP DUP2 SWAP1 POP SWAP3 SWAP2 POP POP JUMP JUMPDEST PUSH1 0x0 PUSH1 0x20 DUP3 ADD SWAP1 POP DUP2 DUP2 SUB PUSH1 0x0 DUP4 ADD MSTORE PUSH2 0x37F DUP2 DUP5 PUSH2 0x28F JUMP JUMPDEST SWAP1 POP SWAP3 SWAP2 POP POP JUMP JUMPDEST PUSH1 0x0 PUSH1 0x20 DUP3 ADD SWAP1 POP DUP2 DUP2 SUB PUSH1 0x0 DUP4 ADD MSTORE PUSH2 0x3A0 DUP2 PUSH2 0x308 JUMP JUMPDEST SWAP1 POP SWAP2 SWAP1 POP JUMP JUMPDEST PUSH1 0x0 PUSH1 0x40 DUP3 ADD SWAP1 POP DUP2 DUP2 SUB PUSH1 0x0 DUP4 ADD MSTORE PUSH2 0x3C0 DUP2 PUSH2 0x32B JUMP JUMPDEST SWAP1 POP PUSH2 0x3CF PUSH1 0x20 DUP4 ADD DUP5 PUSH2 0x2F9 JUMP JUMPDEST SWAP3 SWAP2 POP POP JUMP JUMPDEST PUSH1 0x0 DUP2 MLOAD SWAP1 POP SWAP2 SWAP1 POP JUMP JUMPDEST PUSH1 0x0 DUP3 DUP3 MSTORE PUSH1 0x20 DUP3 ADD SWAP1 POP SWAP3 SWAP2 POP POP JUMP JUMPDEST PUSH1 0x0 DUP2 SWAP1 POP SWAP3 SWAP2 POP POP JUMP JUMPDEST PUSH1 0x0 DUP3 DUP3 MSTORE PUSH1 0x20 DUP3 ADD SWAP1 POP SWAP3 SWAP2 POP POP JUMP JUMPDEST PUSH1 0x0 PUSH2 0x418 DUP3 PUSH2 0x41F JUMP JUMPDEST SWAP1 POP SWAP2 SWAP1 POP JUMP JUMPDEST PUSH1 0x0 PUSH20 0xFFFFFFFFFFFFFFFFFFFFFFFFFFFFFFFFFFFFFFFF DUP3 AND SWAP1 POP SWAP2 SWAP1 POP JUMP JUMPDEST PUSH1 0x0 PUSH1 0xFF DUP3 AND SWAP1 POP SWAP2 SWAP1 POP JUMP JUMPDEST PUSH1 0x0 PUSH2 0x457 DUP3 PUSH2 0x43F JUMP JUMPDEST SWAP1 POP SWAP2 SWAP1 POP JUMP JUMPDEST PUSH1 0x0 JUMPDEST DUP4 DUP2 LT ISZERO PUSH2 0x47C JUMPI DUP1 DUP3 ADD MLOAD DUP2 DUP5 ADD MSTORE PUSH1 0x20 DUP2 ADD SWAP1 POP PUSH2 0x461 JUMP JUMPDEST DUP4 DUP2 GT ISZERO PUSH2 0x48B JUMPI PUSH1 0x0 DUP5 DUP5 ADD MSTORE JUMPDEST POP POP POP POP JUMP JUMPDEST PUSH1 0x0 PUSH1 0x2 DUP3 DIV SWAP1 POP PUSH1 0x1 DUP3 AND DUP1 PUSH2 0x4A9 JUMPI PUSH1 0x7F DUP3 AND SWAP2 POP JUMPDEST PUSH1 0x20 DUP3 LT DUP2 EQ ISZERO PUSH2 0x4BD JUMPI PUSH2 0x4BC PUSH2 0x4C3 JUMP JUMPDEST JUMPDEST POP SWAP2 SWAP1 POP JUMP JUMPDEST PUSH32 0x4E487B7100000000000000000000000000000000000000000000000000000000 PUSH1 0x0 MSTORE PUSH1 0x22 PUSH1 0x4 MSTORE PUSH1 0x24 PUSH1 0x0 REVERT JUMPDEST PUSH1 0x0 DUP1 REVERT JUMPDEST PUSH1 0x0 PUSH1 0x1F NOT PUSH1 0x1F DUP4 ADD AND SWAP1 POP SWAP2 SWAP1 POP JUMP JUMPDEST PUSH32 0x63616C6C20666F6F206661696C65640000000000000000000000000000000000 PUSH1 0x0 DUP3 ADD MSTORE POP JUMP JUMPDEST PUSH32 0x666F6F2063616C6C000000000000000000000000000000000000000000000000 PUSH1 0x0 DUP3 ADD MSTORE POP JUMP JUMPDEST PUSH2 0x563 DUP2 PUSH2 0x40D JUMP JUMPDEST DUP2 EQ PUSH2 0x56E JUMPI PUSH1 0x0 DUP1 REVERT JUMPDEST POP JUMP INVALID LOG2 PUSH5 0x6970667358 0x22 SLT KECCAK256 0xB4 DUP4 JUMPI DUP10 0xE4 0x21 0xE PUSH20 0xB4D1C29EFC6E03F737319CAF46120391D600261 0xDB 0xE4 0xB2 0xC7 PUSH5 0x736F6C6343 STOP ADDMOD SMOD STOP CALLER "
				},
				"gasEstimates": {
					"creation": {
						"codeDepositCost": "289400",
						"executionCost": "331",
						"totalCost": "289731"
					},
					"external": {
						"callFoo(address)": "infinite",
						"data()": "infinite"
					}
				},
				"methodIdentifiers": {
					"callFoo(address)": "edcbe76c",
					"data()": "73d4a13a"
				}
			},
			"storageLayout": {
				"storage": [
					{
						"astId": 36,
						"contract": "Day37_Call.sol:Call",
						"label": "data",
						"offset": 0,
						"slot": "0",
						"type": "t_bytes_storage"
					}
				],
				"types": {
					"t_bytes_storage": {
						"encoding": "bytes",
						"label": "bytes",
						"numberOfBytes": "32"
					}
				}
			},
			"userdoc": {
				"kind": "user",
				"methods": {},
				"version": 1
			}
		}
	}
}