{
	"Day5_Mutability_.sol": {
		"Mutability": {
			"abi": [
				{
					"inputs": [
						{
							"internalType": "uint256",
							"name": "x",
							"type": "uint256"
						}
					],
					"name": "addPureFunc",
					"outputs": [
						{
							"internalType": "uint256",
							"name": "",
							"type": "uint256"
						}
					],
					"stateMutability": "pure",
					"type": "function"
				},
				{
					"inputs": [],
					"name": "num",
					"outputs": [
						{
							"internalType": "uint256",
							"name": "",
							"type": "uint256"
						}
					],
					"stateMutability": "view",
					"type": "function"
				},
				{
					"inputs": [],
					"name": "pureFunc",
					"outputs": [
						{
							"internalType": "uint256",
							"name": "",
							"type": "uint256"
						}
					],
					"stateMutability": "pure",
					"type": "function"
				}
			],
			"devdoc": {
				"kind": "dev",
				"methods": {},
				"version": 1
			},
			"evm": {
				"assembly": "    /* \"Day5_Mutability_.sol\":169:387  contract Mutability {... */\n  mstore(0x40, 0x80)\n  callvalue\n  dup1\n  iszero\n  tag_1\n  jumpi\n  0x00\n  dup1\n  revert\ntag_1:\n  pop\n  dataSize(sub_0)\n  dup1\n  dataOffset(sub_0)\n  0x00\n  codecopy\n  0x00\n  return\nstop\n\nsub_0: assembly {\n        /* \"Day5_Mutability_.sol\":169:387  contract Mutability {... */\n      mstore(0x40, 0x80)\n      callvalue\n      dup1\n      iszero\n      tag_1\n      jumpi\n      0x00\n      dup1\n      revert\n    tag_1:\n      pop\n      jumpi(tag_2, lt(calldatasize, 0x04))\n      shr(0xe0, calldataload(0x00))\n      dup1\n      0x231e18a9\n      eq\n      tag_3\n      jumpi\n      dup1\n      0x4e70b1dc\n      eq\n      tag_4\n      jumpi\n      dup1\n      0x66089dd6\n      eq\n      tag_5\n      jumpi\n    tag_2:\n      0x00\n      dup1\n      revert\n        /* \"Day5_Mutability_.sol\":218:292  function pureFunc() external pure returns (uint) {... */\n    tag_3:\n      tag_6\n      tag_7\n      jump\t// in\n    tag_6:\n      mload(0x40)\n      tag_8\n      swap2\n      swap1\n      tag_9\n      jump\t// in\n    tag_8:\n      mload(0x40)\n      dup1\n      swap2\n      sub\n      swap1\n      return\n        /* \"Day5_Mutability_.sol\":195:210  uint public num */\n    tag_4:\n      tag_10\n      tag_11\n      jump\t// in\n    tag_10:\n      mload(0x40)\n      tag_12\n      swap2\n      swap1\n      tag_9\n      jump\t// in\n    tag_12:\n      mload(0x40)\n      dup1\n      swap2\n      sub\n      swap1\n      return\n        /* \"Day5_Mutability_.sol\":298:385  function addPureFunc(uint x) external pure returns (uint) {... */\n    tag_5:\n      tag_13\n      0x04\n      dup1\n      calldatasize\n      sub\n      dup2\n      add\n      swap1\n      tag_14\n      swap2\n      swap1\n      tag_15\n      jump\t// in\n    tag_14:\n      tag_16\n      jump\t// in\n    tag_13:\n      mload(0x40)\n      tag_17\n      swap2\n      swap1\n      tag_9\n      jump\t// in\n    tag_17:\n      mload(0x40)\n      dup1\n      swap2\n      sub\n      swap1\n      return\n        /* \"Day5_Mutability_.sol\":218:292  function pureFunc() external pure returns (uint) {... */\n    tag_7:\n        /* \"Day5_Mutability_.sol\":261:265  uint */\n      0x00\n        /* \"Day5_Mutability_.sol\":284:285  1 */\n      0x01\n        /* \"Day5_Mutability_.sol\":277:285  return 1 */\n      swap1\n      pop\n        /* \"Day5_Mutability_.sol\":218:292  function pureFunc() external pure returns (uint) {... */\n      swap1\n      jump\t// out\n        /* \"Day5_Mutability_.sol\":195:210  uint public num */\n    tag_11:\n      sload(0x00)\n      dup2\n      jump\t// out\n        /* \"Day5_Mutability_.sol\":298:385  function addPureFunc(uint x) external pure returns (uint) {... */\n    tag_16:\n        /* \"Day5_Mutability_.sol\":350:354  uint */\n      0x00\n        /* \"Day5_Mutability_.sol\":377:378  1 */\n      0x01\n        /* \"Day5_Mutability_.sol\":373:374  x */\n      dup3\n        /* \"Day5_Mutability_.sol\":373:378  x + 1 */\n      tag_20\n      swap2\n      swap1\n      tag_21\n      jump\t// in\n    tag_20:\n        /* \"Day5_Mutability_.sol\":366:378  return x + 1 */\n      swap1\n      pop\n        /* \"Day5_Mutability_.sol\":298:385  function addPureFunc(uint x) external pure returns (uint) {... */\n      swap2\n      swap1\n      pop\n      jump\t// out\n        /* \"#utility.yul\":7:146   */\n    tag_23:\n        /* \"#utility.yul\":53:58   */\n      0x00\n        /* \"#utility.yul\":91:97   */\n      dup2\n        /* \"#utility.yul\":78:98   */\n      calldataload\n        /* \"#utility.yul\":69:98   */\n      swap1\n      pop\n        /* \"#utility.yul\":107:140   */\n      tag_25\n        /* \"#utility.yul\":134:139   */\n      dup2\n        /* \"#utility.yul\":107:140   */\n      tag_26\n      jump\t// in\n    tag_25:\n        /* \"#utility.yul\":7:146   */\n      swap3\n      swap2\n      pop\n      pop\n      jump\t// out\n        /* \"#utility.yul\":152:481   */\n    tag_15:\n        /* \"#utility.yul\":211:217   */\n      0x00\n        /* \"#utility.yul\":260:262   */\n      0x20\n        /* \"#utility.yul\":248:257   */\n      dup3\n        /* \"#utility.yul\":239:246   */\n      dup5\n        /* \"#utility.yul\":235:258   */\n      sub\n        /* \"#utility.yul\":231:263   */\n      slt\n        /* \"#utility.yul\":228:347   */\n      iszero\n      tag_28\n      jumpi\n        /* \"#utility.yul\":266:345   */\n      tag_29\n      tag_30\n      jump\t// in\n    tag_29:\n        /* \"#utility.yul\":228:347   */\n    tag_28:\n        /* \"#utility.yul\":386:387   */\n      0x00\n        /* \"#utility.yul\":411:464   */\n      tag_31\n        /* \"#utility.yul\":456:463   */\n      dup5\n        /* \"#utility.yul\":447:453   */\n      dup3\n        /* \"#utility.yul\":436:445   */\n      dup6\n        /* \"#utility.yul\":432:454   */\n      add\n        /* \"#utility.yul\":411:464   */\n      tag_23\n      jump\t// in\n    tag_31:\n        /* \"#utility.yul\":401:464   */\n      swap2\n      pop\n        /* \"#utility.yul\":357:474   */\n      pop\n        /* \"#utility.yul\":152:481   */\n      swap3\n      swap2\n      pop\n      pop\n      jump\t// out\n        /* \"#utility.yul\":487:605   */\n    tag_32:\n        /* \"#utility.yul\":574:598   */\n      tag_34\n        /* \"#utility.yul\":592:597   */\n      dup2\n        /* \"#utility.yul\":574:598   */\n      tag_35\n      jump\t// in\n    tag_34:\n        /* \"#utility.yul\":569:572   */\n      dup3\n        /* \"#utility.yul\":562:599   */\n      mstore\n        /* \"#utility.yul\":487:605   */\n      pop\n      pop\n      jump\t// out\n        /* \"#utility.yul\":611:833   */\n    tag_9:\n        /* \"#utility.yul\":704:708   */\n      0x00\n        /* \"#utility.yul\":742:744   */\n      0x20\n        /* \"#utility.yul\":731:740   */\n      dup3\n        /* \"#utility.yul\":727:745   */\n      add\n        /* \"#utility.yul\":719:745   */\n      swap1\n      pop\n        /* \"#utility.yul\":755:826   */\n      tag_37\n        /* \"#utility.yul\":823:824   */\n      0x00\n        /* \"#utility.yul\":812:821   */\n      dup4\n        /* \"#utility.yul\":808:825   */\n      add\n        /* \"#utility.yul\":799:805   */\n      dup5\n        /* \"#utility.yul\":755:826   */\n      tag_32\n      jump\t// in\n    tag_37:\n        /* \"#utility.yul\":611:833   */\n      swap3\n      swap2\n      pop\n      pop\n      jump\t// out\n        /* \"#utility.yul\":920:1225   */\n    tag_21:\n        /* \"#utility.yul\":960:963   */\n      0x00\n        /* \"#utility.yul\":979:999   */\n      tag_41\n        /* \"#utility.yul\":997:998   */\n      dup3\n        /* \"#utility.yul\":979:999   */\n      tag_35\n      jump\t// in\n    tag_41:\n        /* \"#utility.yul\":974:999   */\n      swap2\n      pop\n        /* \"#utility.yul\":1013:1033   */\n      tag_42\n        /* \"#utility.yul\":1031:1032   */\n      dup4\n        /* \"#utility.yul\":1013:1033   */\n      tag_35\n      jump\t// in\n    tag_42:\n        /* \"#utility.yul\":1008:1033   */\n      swap3\n      pop\n        /* \"#utility.yul\":1167:1168   */\n      dup3\n        /* \"#utility.yul\":1099:1165   */\n      0xffffffffffffffffffffffffffffffffffffffffffffffffffffffffffffffff\n        /* \"#utility.yul\":1095:1169   */\n      sub\n        /* \"#utility.yul\":1092:1093   */\n      dup3\n        /* \"#utility.yul\":1089:1170   */\n      gt\n        /* \"#utility.yul\":1086:1193   */\n      iszero\n      tag_43\n      jumpi\n        /* \"#utility.yul\":1173:1191   */\n      tag_44\n      tag_45\n      jump\t// in\n    tag_44:\n        /* \"#utility.yul\":1086:1193   */\n    tag_43:\n        /* \"#utility.yul\":1217:1218   */\n      dup3\n        /* \"#utility.yul\":1214:1215   */\n      dup3\n        /* \"#utility.yul\":1210:1219   */\n      add\n        /* \"#utility.yul\":1203:1219   */\n      swap1\n      pop\n        /* \"#utility.yul\":920:1225   */\n      swap3\n      swap2\n      pop\n      pop\n      jump\t// out\n        /* \"#utility.yul\":1231:1308   */\n    tag_35:\n        /* \"#utility.yul\":1268:1275   */\n      0x00\n        /* \"#utility.yul\":1297:1302   */\n      dup2\n        /* \"#utility.yul\":1286:1302   */\n      swap1\n      pop\n        /* \"#utility.yul\":1231:1308   */\n      swap2\n      swap1\n      pop\n      jump\t// out\n        /* \"#utility.yul\":1314:1494   */\n    tag_45:\n        /* \"#utility.yul\":1362:1439   */\n      0x4e487b7100000000000000000000000000000000000000000000000000000000\n        /* \"#utility.yul\":1359:1360   */\n      0x00\n        /* \"#utility.yul\":1352:1440   */\n      mstore\n        /* \"#utility.yul\":1459:1463   */\n      0x11\n        /* \"#utility.yul\":1456:1457   */\n      0x04\n        /* \"#utility.yul\":1449:1464   */\n      mstore\n        /* \"#utility.yul\":1483:1487   */\n      0x24\n        /* \"#utility.yul\":1480:1481   */\n      0x00\n        /* \"#utility.yul\":1473:1488   */\n      revert\n        /* \"#utility.yul\":1623:1740   */\n    tag_30:\n        /* \"#utility.yul\":1732:1733   */\n      0x00\n        /* \"#utility.yul\":1729:1730   */\n      dup1\n        /* \"#utility.yul\":1722:1734   */\n      revert\n        /* \"#utility.yul\":1746:1868   */\n    tag_26:\n        /* \"#utility.yul\":1819:1843   */\n      tag_52\n        /* \"#utility.yul\":1837:1842   */\n      dup2\n        /* \"#utility.yul\":1819:1843   */\n      tag_35\n      jump\t// in\n    tag_52:\n        /* \"#utility.yul\":1812:1817   */\n      dup2\n        /* \"#utility.yul\":1809:1844   */\n      eq\n        /* \"#utility.yul\":1799:1862   */\n      tag_53\n      jumpi\n        /* \"#utility.yul\":1858:1859   */\n      0x00\n        /* \"#utility.yul\":1855:1856   */\n      dup1\n        /* \"#utility.yul\":1848:1860   */\n      revert\n        /* \"#utility.yul\":1799:1862   */\n    tag_53:\n        /* \"#utility.yul\":1746:1868   */\n      pop\n      jump\t// out\n\n    auxdata: 0xa2646970667358221220401599cd2bae2ced53f39462c1780caa403ae4fae04ab637c46fbbdb1ed86b1264736f6c63430008070033\n}\n",
				"bytecode": {
					"linkReferences": {},
					"object": "608060405234801561001057600080fd5b50610224806100206000396000f3fe608060405234801561001057600080fd5b50600436106100415760003560e01c8063231e18a9146100465780634e70b1dc1461006457806366089dd614610082575b600080fd5b61004e6100b2565b60405161005b9190610128565b60405180910390f35b61006c6100bb565b6040516100799190610128565b60405180910390f35b61009c600480360381019061009791906100ec565b6100c1565b6040516100a99190610128565b60405180910390f35b60006001905090565b60005481565b60006001826100d09190610143565b9050919050565b6000813590506100e6816101d7565b92915050565b600060208284031215610102576101016101d2565b5b6000610110848285016100d7565b91505092915050565b61012281610199565b82525050565b600060208201905061013d6000830184610119565b92915050565b600061014e82610199565b915061015983610199565b9250827fffffffffffffffffffffffffffffffffffffffffffffffffffffffffffffffff0382111561018e5761018d6101a3565b5b828201905092915050565b6000819050919050565b7f4e487b7100000000000000000000000000000000000000000000000000000000600052601160045260246000fd5b600080fd5b6101e081610199565b81146101eb57600080fd5b5056fea2646970667358221220401599cd2bae2ced53f39462c1780caa403ae4fae04ab637c46fbbdb1ed86b1264736f6c63430008070033",
					"opcodes": "PUSH1 0x80 PUSH1 0x40 MSTORE CALLVALUE DUP1 ISZERO PUSH2 0x10 JUMPI PUSH1 0x0 DUP1 REVERT JUMPDEST POP PUSH2 0x224 DUP1 PUSH2 0x20 PUSH1 0x0 CODECOPY PUSH1 0x0 RETURN INVALID PUSH1 0x80 PUSH1 0x40 MSTORE CALLVALUE DUP1 ISZERO PUSH2 0x10 JUMPI PUSH1 0x0 DUP1 REVERT JUMPDEST POP PUSH1 0x4 CALLDATASIZE LT PUSH2 0x41 JUMPI PUSH1 0x0 CALLDATALOAD PUSH1 0xE0 SHR DUP1 PUSH4 0x231E18A9 EQ PUSH2 0x46 JUMPI DUP1 PUSH4 0x4E70B1DC EQ PUSH2 0x64 JUMPI DUP1 PUSH4 0x66089DD6 EQ PUSH2 0x82 JUMPI JUMPDEST PUSH1 0x0 DUP1 REVERT JUMPDEST PUSH2 0x4E PUSH2 0xB2 JUMP JUMPDEST PUSH1 0x40 MLOAD PUSH2 0x5B SWAP2 SWAP1 PUSH2 0x128 JUMP JUMPDEST PUSH1 0x40 MLOAD DUP1 SWAP2 SUB SWAP1 RETURN JUMPDEST PUSH2 0x6C PUSH2 0xBB JUMP JUMPDEST PUSH1 0x40 MLOAD PUSH2 0x79 SWAP2 SWAP1 PUSH2 0x128 JUMP JUMPDEST PUSH1 0x40 MLOAD DUP1 SWAP2 SUB SWAP1 RETURN JUMPDEST PUSH2 0x9C PUSH1 0x4 DUP1 CALLDATASIZE SUB DUP2 ADD SWAP1 PUSH2 0x97 SWAP2 SWAP1 PUSH2 0xEC JUMP JUMPDEST PUSH2 0xC1 JUMP JUMPDEST PUSH1 0x40 MLOAD PUSH2 0xA9 SWAP2 SWAP1 PUSH2 0x128 JUMP JUMPDEST PUSH1 0x40 MLOAD DUP1 SWAP2 SUB SWAP1 RETURN JUMPDEST PUSH1 0x0 PUSH1 0x1 SWAP1 POP SWAP1 JUMP JUMPDEST PUSH1 0x0 SLOAD DUP2 JUMP JUMPDEST PUSH1 0x0 PUSH1 0x1 DUP3 PUSH2 0xD0 SWAP2 SWAP1 PUSH2 0x143 JUMP JUMPDEST SWAP1 POP SWAP2 SWAP1 POP JUMP JUMPDEST PUSH1 0x0 DUP2 CALLDATALOAD SWAP1 POP PUSH2 0xE6 DUP2 PUSH2 0x1D7 JUMP JUMPDEST SWAP3 SWAP2 POP POP JUMP JUMPDEST PUSH1 0x0 PUSH1 0x20 DUP3 DUP5 SUB SLT ISZERO PUSH2 0x102 JUMPI PUSH2 0x101 PUSH2 0x1D2 JUMP JUMPDEST JUMPDEST PUSH1 0x0 PUSH2 0x110 DUP5 DUP3 DUP6 ADD PUSH2 0xD7 JUMP JUMPDEST SWAP2 POP POP SWAP3 SWAP2 POP POP JUMP JUMPDEST PUSH2 0x122 DUP2 PUSH2 0x199 JUMP JUMPDEST DUP3 MSTORE POP POP JUMP JUMPDEST PUSH1 0x0 PUSH1 0x20 DUP3 ADD SWAP1 POP PUSH2 0x13D PUSH1 0x0 DUP4 ADD DUP5 PUSH2 0x119 JUMP JUMPDEST SWAP3 SWAP2 POP POP JUMP JUMPDEST PUSH1 0x0 PUSH2 0x14E DUP3 PUSH2 0x199 JUMP JUMPDEST SWAP2 POP PUSH2 0x159 DUP4 PUSH2 0x199 JUMP JUMPDEST SWAP3 POP DUP3 PUSH32 0xFFFFFFFFFFFFFFFFFFFFFFFFFFFFFFFFFFFFFFFFFFFFFFFFFFFFFFFFFFFFFFFF SUB DUP3 GT ISZERO PUSH2 0x18E JUMPI PUSH2 0x18D PUSH2 0x1A3 JUMP JUMPDEST JUMPDEST DUP3 DUP3 ADD SWAP1 POP SWAP3 SWAP2 POP POP JUMP JUMPDEST PUSH1 0x0 DUP2 SWAP1 POP SWAP2 SWAP1 POP JUMP JUMPDEST PUSH32 0x4E487B7100000000000000000000000000000000000000000000000000000000 PUSH1 0x0 MSTORE PUSH1 0x11 PUSH1 0x4 MSTORE PUSH1 0x24 PUSH1 0x0 REVERT JUMPDEST PUSH1 0x0 DUP1 REVERT JUMPDEST PUSH2 0x1E0 DUP2 PUSH2 0x199 JUMP JUMPDEST DUP2 EQ PUSH2 0x1EB JUMPI PUSH1 0x0 DUP1 REVERT JUMPDEST POP JUMP INVALID LOG2 PUSH5 0x6970667358 0x22 SLT KECCAK256 BLOCKHASH ISZERO SWAP10 0xCD 0x2B 0xAE 0x2C 0xED MSTORE8 RETURN SWAP5 PUSH3 0xC1780C 0xAA BLOCKHASH GASPRICE 0xE4 STATICCALL 0xE0 0x4A 0xB6 CALLDATACOPY 0xC4 PUSH16 0xBBDB1ED86B1264736F6C634300080700 CALLER "
				},
				"gasEstimates": {
					"creation": {
						"codeDepositCost": "109600",
						"executionCost": "159",
						"totalCost": "109759"
					},
					"external": {
						"addPureFunc(uint256)": "infinite",
						"num()": "2429",
						"pureFunc()": "315"
					}
				},
				"methodIdentifiers": {
					"addPureFunc(uint256)": "66089dd6",
					"num()": "4e70b1dc",
					"pureFunc()": "231e18a9"
				}
			},
			"storageLayout": {
				"storage": [
					{
						"astId": 3,
						"contract": "Day5_Mutability_.sol:Mutability",
						"label": "num",
						"offset": 0,
						"slot": "0",
						"type": "t_uint256"
					}
				],
				"types": {
					"t_uint256": {
						"encoding": "inplace",
						"label": "uint256",
						"numberOfBytes": "32"
					}
				}
			},
			"userdoc": {
				"kind": "user",
				"methods": {},
				"version": 1
			}
		}
	}
}