{
	"Day35_CallOtherContract.sol": {
		"CallTestContract": {
			"abi": [
				{
					"inputs": [
						{
							"internalType": "address",
							"name": "_test",
							"type": "address"
						}
					],
					"name": "getX",
					"outputs": [
						{
							"internalType": "uint256",
							"name": "x",
							"type": "uint256"
						}
					],
					"stateMutability": "view",
					"type": "function"
				},
				{
					"inputs": [
						{
							"internalType": "address",
							"name": "_test",
							"type": "address"
						}
					],
					"name": "getXandValue",
					"outputs": [
						{
							"internalType": "uint256",
							"name": "",
							"type": "uint256"
						},
						{
							"internalType": "uint256",
							"name": "",
							"type": "uint256"
						}
					],
					"stateMutability": "payable",
					"type": "function"
				},
				{
					"inputs": [
						{
							"internalType": "contract TestContract",
							"name": "_test",
							"type": "address"
						},
						{
							"internalType": "uint256",
							"name": "_x",
							"type": "uint256"
						}
					],
					"name": "setX",
					"outputs": [],
					"stateMutability": "nonpayable",
					"type": "function"
				},
				{
					"inputs": [
						{
							"internalType": "address",
							"name": "_test",
							"type": "address"
						},
						{
							"internalType": "uint256",
							"name": "_x",
							"type": "uint256"
						}
					],
					"name": "setXandSendEther",
					"outputs": [],
					"stateMutability": "payable",
					"type": "function"
				}
			],
			"devdoc": {
				"kind": "dev",
				"methods": {},
				"version": 1
			},
			"evm": {
				"assembly": "    /* \"Day35_CallOtherContract.sol\":58:592  contract CallTestContract {... */\n  mstore(0x40, 0x80)\n  callvalue\n  dup1\n  iszero\n  tag_1\n  jumpi\n  0x00\n  dup1\n  revert\ntag_1:\n  pop\n  dataSize(sub_0)\n  dup1\n  dataOffset(sub_0)\n  0x00\n  codecopy\n  0x00\n  return\nstop\n\nsub_0: assembly {\n        /* \"Day35_CallOtherContract.sol\":58:592  contract CallTestContract {... */\n      mstore(0x40, 0x80)\n      jumpi(tag_1, lt(calldatasize, 0x04))\n      shr(0xe0, calldataload(0x00))\n      dup1\n      0x37e2621b\n      eq\n      tag_2\n      jumpi\n      dup1\n      0x4a2ad99f\n      eq\n      tag_3\n      jumpi\n      dup1\n      0x7c94c8ca\n      eq\n      tag_4\n      jumpi\n      dup1\n      0xd44abc42\n      eq\n      tag_5\n      jumpi\n    tag_1:\n      0x00\n      dup1\n      revert\n        /* \"Day35_CallOtherContract.sol\":441:589  function getXandValue(address _test) external payable returns(uint ,uint) {... */\n    tag_2:\n      tag_6\n      0x04\n      dup1\n      calldatasize\n      sub\n      dup2\n      add\n      swap1\n      tag_7\n      swap2\n      swap1\n      tag_8\n      jump\t// in\n    tag_7:\n      tag_9\n      jump\t// in\n    tag_6:\n      mload(0x40)\n      tag_10\n      swap3\n      swap2\n      swap1\n      tag_11\n      jump\t// in\n    tag_10:\n      mload(0x40)\n      dup1\n      swap2\n      sub\n      swap1\n      return\n        /* \"Day35_CallOtherContract.sol\":90:173  function setX(TestContract _test, uint _x) external {... */\n    tag_3:\n      callvalue\n      dup1\n      iszero\n      tag_12\n      jumpi\n      0x00\n      dup1\n      revert\n    tag_12:\n      pop\n      tag_13\n      0x04\n      dup1\n      calldatasize\n      sub\n      dup2\n      add\n      swap1\n      tag_14\n      swap2\n      swap1\n      tag_15\n      jump\t// in\n    tag_14:\n      tag_16\n      jump\t// in\n    tag_13:\n      stop\n        /* \"Day35_CallOtherContract.sol\":179:285  function getX(address _test) external view returns(uint x) {... */\n    tag_4:\n      callvalue\n      dup1\n      iszero\n      tag_17\n      jumpi\n      0x00\n      dup1\n      revert\n    tag_17:\n      pop\n      tag_18\n      0x04\n      dup1\n      calldatasize\n      sub\n      dup2\n      add\n      swap1\n      tag_19\n      swap2\n      swap1\n      tag_8\n      jump\t// in\n    tag_19:\n      tag_20\n      jump\t// in\n    tag_18:\n      mload(0x40)\n      tag_21\n      swap2\n      swap1\n      tag_22\n      jump\t// in\n    tag_21:\n      mload(0x40)\n      dup1\n      swap2\n      sub\n      swap1\n      return\n        /* \"Day35_CallOtherContract.sol\":291:435  function setXandSendEther(address _test, uint _x) external payable {... */\n    tag_5:\n      tag_23\n      0x04\n      dup1\n      calldatasize\n      sub\n      dup2\n      add\n      swap1\n      tag_24\n      swap2\n      swap1\n      tag_25\n      jump\t// in\n    tag_24:\n      tag_26\n      jump\t// in\n    tag_23:\n      stop\n        /* \"Day35_CallOtherContract.sol\":441:589  function getXandValue(address _test) external payable returns(uint ,uint) {... */\n    tag_9:\n        /* \"Day35_CallOtherContract.sol\":503:507  uint */\n      0x00\n        /* \"Day35_CallOtherContract.sol\":509:513  uint */\n      dup1\n        /* \"Day35_CallOtherContract.sol\":526:532  uint x */\n      0x00\n        /* \"Day35_CallOtherContract.sol\":534:544  uint value */\n      dup1\n        /* \"Day35_CallOtherContract.sol\":561:566  _test */\n      dup5\n        /* \"Day35_CallOtherContract.sol\":548:580  TestContract(_test).getXandValue */\n      0xffffffffffffffffffffffffffffffffffffffff\n      and\n      0xd6c7a3be\n        /* \"Day35_CallOtherContract.sol\":548:582  TestContract(_test).getXandValue() */\n      mload(0x40)\n      dup2\n      0xffffffff\n      and\n      0xe0\n      shl\n      dup2\n      mstore\n      0x04\n      add\n      0x40\n      dup1\n      mload\n      dup1\n      dup4\n      sub\n      dup2\n      dup7\n      dup1\n      extcodesize\n      iszero\n      dup1\n      iszero\n      tag_28\n      jumpi\n      0x00\n      dup1\n      revert\n    tag_28:\n      pop\n      gas\n      staticcall\n      iszero\n      dup1\n      iszero\n      tag_30\n      jumpi\n      returndatasize\n      0x00\n      dup1\n      returndatacopy\n      revert(0x00, returndatasize)\n    tag_30:\n      pop\n      pop\n      pop\n      pop\n      mload(0x40)\n      returndatasize\n      not(0x1f)\n      0x1f\n      dup3\n      add\n      and\n      dup3\n      add\n      dup1\n      0x40\n      mstore\n      pop\n      dup2\n      add\n      swap1\n      tag_31\n      swap2\n      swap1\n      tag_32\n      jump\t// in\n    tag_31:\n        /* \"Day35_CallOtherContract.sol\":525:582  (uint x, uint value) = TestContract(_test).getXandValue() */\n      swap2\n      pop\n      swap2\n      pop\n        /* \"Day35_CallOtherContract.sol\":515:589  {... */\n      pop\n      pop\n        /* \"Day35_CallOtherContract.sol\":441:589  function getXandValue(address _test) external payable returns(uint ,uint) {... */\n      swap2\n      pop\n      swap2\n      jump\t// out\n        /* \"Day35_CallOtherContract.sol\":90:173  function setX(TestContract _test, uint _x) external {... */\n    tag_16:\n        /* \"Day35_CallOtherContract.sol\":152:157  _test */\n      dup2\n        /* \"Day35_CallOtherContract.sol\":152:162  _test.setX */\n      0xffffffffffffffffffffffffffffffffffffffff\n      and\n      0x4018d9aa\n        /* \"Day35_CallOtherContract.sol\":163:165  _x */\n      dup3\n        /* \"Day35_CallOtherContract.sol\":152:166  _test.setX(_x) */\n      mload(0x40)\n      dup3\n      0xffffffff\n      and\n      0xe0\n      shl\n      dup2\n      mstore\n      0x04\n      add\n      tag_34\n      swap2\n      swap1\n      tag_22\n      jump\t// in\n    tag_34:\n      0x00\n      mload(0x40)\n      dup1\n      dup4\n      sub\n      dup2\n      0x00\n      dup8\n      dup1\n      extcodesize\n      iszero\n      dup1\n      iszero\n      tag_35\n      jumpi\n      0x00\n      dup1\n      revert\n    tag_35:\n      pop\n      gas\n      call\n      iszero\n      dup1\n      iszero\n      tag_37\n      jumpi\n      returndatasize\n      0x00\n      dup1\n      returndatacopy\n      revert(0x00, returndatasize)\n    tag_37:\n      pop\n      pop\n      pop\n      pop\n        /* \"Day35_CallOtherContract.sol\":90:173  function setX(TestContract _test, uint _x) external {... */\n      pop\n      pop\n      jump\t// out\n        /* \"Day35_CallOtherContract.sol\":179:285  function getX(address _test) external view returns(uint x) {... */\n    tag_20:\n        /* \"Day35_CallOtherContract.sol\":230:236  uint x */\n      0x00\n        /* \"Day35_CallOtherContract.sol\":265:270  _test */\n      dup2\n        /* \"Day35_CallOtherContract.sol\":252:276  TestContract(_test).getX */\n      0xffffffffffffffffffffffffffffffffffffffff\n      and\n      0x5197c7aa\n        /* \"Day35_CallOtherContract.sol\":252:278  TestContract(_test).getX() */\n      mload(0x40)\n      dup2\n      0xffffffff\n      and\n      0xe0\n      shl\n      dup2\n      mstore\n      0x04\n      add\n      0x20\n      mload(0x40)\n      dup1\n      dup4\n      sub\n      dup2\n      dup7\n      dup1\n      extcodesize\n      iszero\n      dup1\n      iszero\n      tag_39\n      jumpi\n      0x00\n      dup1\n      revert\n    tag_39:\n      pop\n      gas\n      staticcall\n      iszero\n      dup1\n      iszero\n      tag_41\n      jumpi\n      returndatasize\n      0x00\n      dup1\n      returndatacopy\n      revert(0x00, returndatasize)\n    tag_41:\n      pop\n      pop\n      pop\n      pop\n      mload(0x40)\n      returndatasize\n      not(0x1f)\n      0x1f\n      dup3\n      add\n      and\n      dup3\n      add\n      dup1\n      0x40\n      mstore\n      pop\n      dup2\n      add\n      swap1\n      tag_42\n      swap2\n      swap1\n      tag_43\n      jump\t// in\n    tag_42:\n        /* \"Day35_CallOtherContract.sol\":248:278  x = TestContract(_test).getX() */\n      swap1\n      pop\n        /* \"Day35_CallOtherContract.sol\":179:285  function getX(address _test) external view returns(uint x) {... */\n      swap2\n      swap1\n      pop\n      jump\t// out\n        /* \"Day35_CallOtherContract.sol\":291:435  function setXandSendEther(address _test, uint _x) external payable {... */\n    tag_26:\n        /* \"Day35_CallOtherContract.sol\":381:386  _test */\n      dup2\n        /* \"Day35_CallOtherContract.sol\":368:407  TestContract(_test).setXandReceiveEther */\n      0xffffffffffffffffffffffffffffffffffffffff\n      and\n      0x02f42be9\n        /* \"Day35_CallOtherContract.sol\":414:423  msg.value */\n      callvalue\n        /* \"Day35_CallOtherContract.sol\":425:427  _x */\n      dup4\n        /* \"Day35_CallOtherContract.sol\":368:428  TestContract(_test).setXandReceiveEther{value:msg.value}(_x) */\n      mload(0x40)\n      dup4\n      0xffffffff\n      and\n      0xe0\n      shl\n      dup2\n      mstore\n      0x04\n      add\n      tag_45\n      swap2\n      swap1\n      tag_22\n      jump\t// in\n    tag_45:\n      0x00\n      mload(0x40)\n      dup1\n      dup4\n      sub\n      dup2\n      dup6\n      dup9\n      dup1\n      extcodesize\n      iszero\n      dup1\n      iszero\n      tag_46\n      jumpi\n      0x00\n      dup1\n      revert\n    tag_46:\n      pop\n      gas\n      call\n      iszero\n      dup1\n      iszero\n      tag_48\n      jumpi\n      returndatasize\n      0x00\n      dup1\n      returndatacopy\n      revert(0x00, returndatasize)\n    tag_48:\n      pop\n      pop\n      pop\n      pop\n      pop\n        /* \"Day35_CallOtherContract.sol\":291:435  function setXandSendEther(address _test, uint _x) external payable {... */\n      pop\n      pop\n      jump\t// out\n        /* \"#utility.yul\":7:146   */\n    tag_50:\n        /* \"#utility.yul\":53:58   */\n      0x00\n        /* \"#utility.yul\":91:97   */\n      dup2\n        /* \"#utility.yul\":78:98   */\n      calldataload\n        /* \"#utility.yul\":69:98   */\n      swap1\n      pop\n        /* \"#utility.yul\":107:140   */\n      tag_52\n        /* \"#utility.yul\":134:139   */\n      dup2\n        /* \"#utility.yul\":107:140   */\n      tag_53\n      jump\t// in\n    tag_52:\n        /* \"#utility.yul\":7:146   */\n      swap3\n      swap2\n      pop\n      pop\n      jump\t// out\n        /* \"#utility.yul\":152:331   */\n    tag_54:\n        /* \"#utility.yul\":218:223   */\n      0x00\n        /* \"#utility.yul\":256:262   */\n      dup2\n        /* \"#utility.yul\":243:263   */\n      calldataload\n        /* \"#utility.yul\":234:263   */\n      swap1\n      pop\n        /* \"#utility.yul\":272:325   */\n      tag_56\n        /* \"#utility.yul\":319:324   */\n      dup2\n        /* \"#utility.yul\":272:325   */\n      tag_57\n      jump\t// in\n    tag_56:\n        /* \"#utility.yul\":152:331   */\n      swap3\n      swap2\n      pop\n      pop\n      jump\t// out\n        /* \"#utility.yul\":337:476   */\n    tag_58:\n        /* \"#utility.yul\":383:388   */\n      0x00\n        /* \"#utility.yul\":421:427   */\n      dup2\n        /* \"#utility.yul\":408:428   */\n      calldataload\n        /* \"#utility.yul\":399:428   */\n      swap1\n      pop\n        /* \"#utility.yul\":437:470   */\n      tag_60\n        /* \"#utility.yul\":464:469   */\n      dup2\n        /* \"#utility.yul\":437:470   */\n      tag_61\n      jump\t// in\n    tag_60:\n        /* \"#utility.yul\":337:476   */\n      swap3\n      swap2\n      pop\n      pop\n      jump\t// out\n        /* \"#utility.yul\":482:625   */\n    tag_62:\n        /* \"#utility.yul\":539:544   */\n      0x00\n        /* \"#utility.yul\":570:576   */\n      dup2\n        /* \"#utility.yul\":564:577   */\n      mload\n        /* \"#utility.yul\":555:577   */\n      swap1\n      pop\n        /* \"#utility.yul\":586:619   */\n      tag_64\n        /* \"#utility.yul\":613:618   */\n      dup2\n        /* \"#utility.yul\":586:619   */\n      tag_61\n      jump\t// in\n    tag_64:\n        /* \"#utility.yul\":482:625   */\n      swap3\n      swap2\n      pop\n      pop\n      jump\t// out\n        /* \"#utility.yul\":631:960   */\n    tag_8:\n        /* \"#utility.yul\":690:696   */\n      0x00\n        /* \"#utility.yul\":739:741   */\n      0x20\n        /* \"#utility.yul\":727:736   */\n      dup3\n        /* \"#utility.yul\":718:725   */\n      dup5\n        /* \"#utility.yul\":714:737   */\n      sub\n        /* \"#utility.yul\":710:742   */\n      slt\n        /* \"#utility.yul\":707:826   */\n      iszero\n      tag_66\n      jumpi\n        /* \"#utility.yul\":745:824   */\n      tag_67\n      tag_68\n      jump\t// in\n    tag_67:\n        /* \"#utility.yul\":707:826   */\n    tag_66:\n        /* \"#utility.yul\":865:866   */\n      0x00\n        /* \"#utility.yul\":890:943   */\n      tag_69\n        /* \"#utility.yul\":935:942   */\n      dup5\n        /* \"#utility.yul\":926:932   */\n      dup3\n        /* \"#utility.yul\":915:924   */\n      dup6\n        /* \"#utility.yul\":911:933   */\n      add\n        /* \"#utility.yul\":890:943   */\n      tag_50\n      jump\t// in\n    tag_69:\n        /* \"#utility.yul\":880:943   */\n      swap2\n      pop\n        /* \"#utility.yul\":836:953   */\n      pop\n        /* \"#utility.yul\":631:960   */\n      swap3\n      swap2\n      pop\n      pop\n      jump\t// out\n        /* \"#utility.yul\":966:1440   */\n    tag_25:\n        /* \"#utility.yul\":1034:1040   */\n      0x00\n        /* \"#utility.yul\":1042:1048   */\n      dup1\n        /* \"#utility.yul\":1091:1093   */\n      0x40\n        /* \"#utility.yul\":1079:1088   */\n      dup4\n        /* \"#utility.yul\":1070:1077   */\n      dup6\n        /* \"#utility.yul\":1066:1089   */\n      sub\n        /* \"#utility.yul\":1062:1094   */\n      slt\n        /* \"#utility.yul\":1059:1178   */\n      iszero\n      tag_71\n      jumpi\n        /* \"#utility.yul\":1097:1176   */\n      tag_72\n      tag_68\n      jump\t// in\n    tag_72:\n        /* \"#utility.yul\":1059:1178   */\n    tag_71:\n        /* \"#utility.yul\":1217:1218   */\n      0x00\n        /* \"#utility.yul\":1242:1295   */\n      tag_73\n        /* \"#utility.yul\":1287:1294   */\n      dup6\n        /* \"#utility.yul\":1278:1284   */\n      dup3\n        /* \"#utility.yul\":1267:1276   */\n      dup7\n        /* \"#utility.yul\":1263:1285   */\n      add\n        /* \"#utility.yul\":1242:1295   */\n      tag_50\n      jump\t// in\n    tag_73:\n        /* \"#utility.yul\":1232:1295   */\n      swap3\n      pop\n        /* \"#utility.yul\":1188:1305   */\n      pop\n        /* \"#utility.yul\":1344:1346   */\n      0x20\n        /* \"#utility.yul\":1370:1423   */\n      tag_74\n        /* \"#utility.yul\":1415:1422   */\n      dup6\n        /* \"#utility.yul\":1406:1412   */\n      dup3\n        /* \"#utility.yul\":1395:1404   */\n      dup7\n        /* \"#utility.yul\":1391:1413   */\n      add\n        /* \"#utility.yul\":1370:1423   */\n      tag_58\n      jump\t// in\n    tag_74:\n        /* \"#utility.yul\":1360:1423   */\n      swap2\n      pop\n        /* \"#utility.yul\":1315:1433   */\n      pop\n        /* \"#utility.yul\":966:1440   */\n      swap3\n      pop\n      swap3\n      swap1\n      pop\n      jump\t// out\n        /* \"#utility.yul\":1446:1960   */\n    tag_15:\n        /* \"#utility.yul\":1534:1540   */\n      0x00\n        /* \"#utility.yul\":1542:1548   */\n      dup1\n        /* \"#utility.yul\":1591:1593   */\n      0x40\n        /* \"#utility.yul\":1579:1588   */\n      dup4\n        /* \"#utility.yul\":1570:1577   */\n      dup6\n        /* \"#utility.yul\":1566:1589   */\n      sub\n        /* \"#utility.yul\":1562:1594   */\n      slt\n        /* \"#utility.yul\":1559:1678   */\n      iszero\n      tag_76\n      jumpi\n        /* \"#utility.yul\":1597:1676   */\n      tag_77\n      tag_68\n      jump\t// in\n    tag_77:\n        /* \"#utility.yul\":1559:1678   */\n    tag_76:\n        /* \"#utility.yul\":1717:1718   */\n      0x00\n        /* \"#utility.yul\":1742:1815   */\n      tag_78\n        /* \"#utility.yul\":1807:1814   */\n      dup6\n        /* \"#utility.yul\":1798:1804   */\n      dup3\n        /* \"#utility.yul\":1787:1796   */\n      dup7\n        /* \"#utility.yul\":1783:1805   */\n      add\n        /* \"#utility.yul\":1742:1815   */\n      tag_54\n      jump\t// in\n    tag_78:\n        /* \"#utility.yul\":1732:1815   */\n      swap3\n      pop\n        /* \"#utility.yul\":1688:1825   */\n      pop\n        /* \"#utility.yul\":1864:1866   */\n      0x20\n        /* \"#utility.yul\":1890:1943   */\n      tag_79\n        /* \"#utility.yul\":1935:1942   */\n      dup6\n        /* \"#utility.yul\":1926:1932   */\n      dup3\n        /* \"#utility.yul\":1915:1924   */\n      dup7\n        /* \"#utility.yul\":1911:1933   */\n      add\n        /* \"#utility.yul\":1890:1943   */\n      tag_58\n      jump\t// in\n    tag_79:\n        /* \"#utility.yul\":1880:1943   */\n      swap2\n      pop\n        /* \"#utility.yul\":1835:1953   */\n      pop\n        /* \"#utility.yul\":1446:1960   */\n      swap3\n      pop\n      swap3\n      swap1\n      pop\n      jump\t// out\n        /* \"#utility.yul\":1966:2317   */\n    tag_43:\n        /* \"#utility.yul\":2036:2042   */\n      0x00\n        /* \"#utility.yul\":2085:2087   */\n      0x20\n        /* \"#utility.yul\":2073:2082   */\n      dup3\n        /* \"#utility.yul\":2064:2071   */\n      dup5\n        /* \"#utility.yul\":2060:2083   */\n      sub\n        /* \"#utility.yul\":2056:2088   */\n      slt\n        /* \"#utility.yul\":2053:2172   */\n      iszero\n      tag_81\n      jumpi\n        /* \"#utility.yul\":2091:2170   */\n      tag_82\n      tag_68\n      jump\t// in\n    tag_82:\n        /* \"#utility.yul\":2053:2172   */\n    tag_81:\n        /* \"#utility.yul\":2211:2212   */\n      0x00\n        /* \"#utility.yul\":2236:2300   */\n      tag_83\n        /* \"#utility.yul\":2292:2299   */\n      dup5\n        /* \"#utility.yul\":2283:2289   */\n      dup3\n        /* \"#utility.yul\":2272:2281   */\n      dup6\n        /* \"#utility.yul\":2268:2290   */\n      add\n        /* \"#utility.yul\":2236:2300   */\n      tag_62\n      jump\t// in\n    tag_83:\n        /* \"#utility.yul\":2226:2300   */\n      swap2\n      pop\n        /* \"#utility.yul\":2182:2310   */\n      pop\n        /* \"#utility.yul\":1966:2317   */\n      swap3\n      swap2\n      pop\n      pop\n      jump\t// out\n        /* \"#utility.yul\":2323:2830   */\n    tag_32:\n        /* \"#utility.yul\":2402:2408   */\n      0x00\n        /* \"#utility.yul\":2410:2416   */\n      dup1\n        /* \"#utility.yul\":2459:2461   */\n      0x40\n        /* \"#utility.yul\":2447:2456   */\n      dup4\n        /* \"#utility.yul\":2438:2445   */\n      dup6\n        /* \"#utility.yul\":2434:2457   */\n      sub\n        /* \"#utility.yul\":2430:2462   */\n      slt\n        /* \"#utility.yul\":2427:2546   */\n      iszero\n      tag_85\n      jumpi\n        /* \"#utility.yul\":2465:2544   */\n      tag_86\n      tag_68\n      jump\t// in\n    tag_86:\n        /* \"#utility.yul\":2427:2546   */\n    tag_85:\n        /* \"#utility.yul\":2585:2586   */\n      0x00\n        /* \"#utility.yul\":2610:2674   */\n      tag_87\n        /* \"#utility.yul\":2666:2673   */\n      dup6\n        /* \"#utility.yul\":2657:2663   */\n      dup3\n        /* \"#utility.yul\":2646:2655   */\n      dup7\n        /* \"#utility.yul\":2642:2664   */\n      add\n        /* \"#utility.yul\":2610:2674   */\n      tag_62\n      jump\t// in\n    tag_87:\n        /* \"#utility.yul\":2600:2674   */\n      swap3\n      pop\n        /* \"#utility.yul\":2556:2684   */\n      pop\n        /* \"#utility.yul\":2723:2725   */\n      0x20\n        /* \"#utility.yul\":2749:2813   */\n      tag_88\n        /* \"#utility.yul\":2805:2812   */\n      dup6\n        /* \"#utility.yul\":2796:2802   */\n      dup3\n        /* \"#utility.yul\":2785:2794   */\n      dup7\n        /* \"#utility.yul\":2781:2803   */\n      add\n        /* \"#utility.yul\":2749:2813   */\n      tag_62\n      jump\t// in\n    tag_88:\n        /* \"#utility.yul\":2739:2813   */\n      swap2\n      pop\n        /* \"#utility.yul\":2694:2823   */\n      pop\n        /* \"#utility.yul\":2323:2830   */\n      swap3\n      pop\n      swap3\n      swap1\n      pop\n      jump\t// out\n        /* \"#utility.yul\":2836:2954   */\n    tag_89:\n        /* \"#utility.yul\":2923:2947   */\n      tag_91\n        /* \"#utility.yul\":2941:2946   */\n      dup2\n        /* \"#utility.yul\":2923:2947   */\n      tag_92\n      jump\t// in\n    tag_91:\n        /* \"#utility.yul\":2918:2921   */\n      dup3\n        /* \"#utility.yul\":2911:2948   */\n      mstore\n        /* \"#utility.yul\":2836:2954   */\n      pop\n      pop\n      jump\t// out\n        /* \"#utility.yul\":2960:3182   */\n    tag_22:\n        /* \"#utility.yul\":3053:3057   */\n      0x00\n        /* \"#utility.yul\":3091:3093   */\n      0x20\n        /* \"#utility.yul\":3080:3089   */\n      dup3\n        /* \"#utility.yul\":3076:3094   */\n      add\n        /* \"#utility.yul\":3068:3094   */\n      swap1\n      pop\n        /* \"#utility.yul\":3104:3175   */\n      tag_94\n        /* \"#utility.yul\":3172:3173   */\n      0x00\n        /* \"#utility.yul\":3161:3170   */\n      dup4\n        /* \"#utility.yul\":3157:3174   */\n      add\n        /* \"#utility.yul\":3148:3154   */\n      dup5\n        /* \"#utility.yul\":3104:3175   */\n      tag_89\n      jump\t// in\n    tag_94:\n        /* \"#utility.yul\":2960:3182   */\n      swap3\n      swap2\n      pop\n      pop\n      jump\t// out\n        /* \"#utility.yul\":3188:3520   */\n    tag_11:\n        /* \"#utility.yul\":3309:3313   */\n      0x00\n        /* \"#utility.yul\":3347:3349   */\n      0x40\n        /* \"#utility.yul\":3336:3345   */\n      dup3\n        /* \"#utility.yul\":3332:3350   */\n      add\n        /* \"#utility.yul\":3324:3350   */\n      swap1\n      pop\n        /* \"#utility.yul\":3360:3431   */\n      tag_96\n        /* \"#utility.yul\":3428:3429   */\n      0x00\n        /* \"#utility.yul\":3417:3426   */\n      dup4\n        /* \"#utility.yul\":3413:3430   */\n      add\n        /* \"#utility.yul\":3404:3410   */\n      dup6\n        /* \"#utility.yul\":3360:3431   */\n      tag_89\n      jump\t// in\n    tag_96:\n        /* \"#utility.yul\":3441:3513   */\n      tag_97\n        /* \"#utility.yul\":3509:3511   */\n      0x20\n        /* \"#utility.yul\":3498:3507   */\n      dup4\n        /* \"#utility.yul\":3494:3512   */\n      add\n        /* \"#utility.yul\":3485:3491   */\n      dup5\n        /* \"#utility.yul\":3441:3513   */\n      tag_89\n      jump\t// in\n    tag_97:\n        /* \"#utility.yul\":3188:3520   */\n      swap4\n      swap3\n      pop\n      pop\n      pop\n      jump\t// out\n        /* \"#utility.yul\":3607:3703   */\n    tag_100:\n        /* \"#utility.yul\":3644:3651   */\n      0x00\n        /* \"#utility.yul\":3673:3697   */\n      tag_102\n        /* \"#utility.yul\":3691:3696   */\n      dup3\n        /* \"#utility.yul\":3673:3697   */\n      tag_103\n      jump\t// in\n    tag_102:\n        /* \"#utility.yul\":3662:3697   */\n      swap1\n      pop\n        /* \"#utility.yul\":3607:3703   */\n      swap2\n      swap1\n      pop\n      jump\t// out\n        /* \"#utility.yul\":3709:3825   */\n    tag_104:\n        /* \"#utility.yul\":3766:3773   */\n      0x00\n        /* \"#utility.yul\":3795:3819   */\n      tag_106\n        /* \"#utility.yul\":3813:3818   */\n      dup3\n        /* \"#utility.yul\":3795:3819   */\n      tag_100\n      jump\t// in\n    tag_106:\n        /* \"#utility.yul\":3784:3819   */\n      swap1\n      pop\n        /* \"#utility.yul\":3709:3825   */\n      swap2\n      swap1\n      pop\n      jump\t// out\n        /* \"#utility.yul\":3831:3957   */\n    tag_103:\n        /* \"#utility.yul\":3868:3875   */\n      0x00\n        /* \"#utility.yul\":3908:3950   */\n      0xffffffffffffffffffffffffffffffffffffffff\n        /* \"#utility.yul\":3901:3906   */\n      dup3\n        /* \"#utility.yul\":3897:3951   */\n      and\n        /* \"#utility.yul\":3886:3951   */\n      swap1\n      pop\n        /* \"#utility.yul\":3831:3957   */\n      swap2\n      swap1\n      pop\n      jump\t// out\n        /* \"#utility.yul\":3963:4040   */\n    tag_92:\n        /* \"#utility.yul\":4000:4007   */\n      0x00\n        /* \"#utility.yul\":4029:4034   */\n      dup2\n        /* \"#utility.yul\":4018:4034   */\n      swap1\n      pop\n        /* \"#utility.yul\":3963:4040   */\n      swap2\n      swap1\n      pop\n      jump\t// out\n        /* \"#utility.yul\":4169:4286   */\n    tag_68:\n        /* \"#utility.yul\":4278:4279   */\n      0x00\n        /* \"#utility.yul\":4275:4276   */\n      dup1\n        /* \"#utility.yul\":4268:4280   */\n      revert\n        /* \"#utility.yul\":4292:4414   */\n    tag_53:\n        /* \"#utility.yul\":4365:4389   */\n      tag_113\n        /* \"#utility.yul\":4383:4388   */\n      dup2\n        /* \"#utility.yul\":4365:4389   */\n      tag_100\n      jump\t// in\n    tag_113:\n        /* \"#utility.yul\":4358:4363   */\n      dup2\n        /* \"#utility.yul\":4355:4390   */\n      eq\n        /* \"#utility.yul\":4345:4408   */\n      tag_114\n      jumpi\n        /* \"#utility.yul\":4404:4405   */\n      0x00\n        /* \"#utility.yul\":4401:4402   */\n      dup1\n        /* \"#utility.yul\":4394:4406   */\n      revert\n        /* \"#utility.yul\":4345:4408   */\n    tag_114:\n        /* \"#utility.yul\":4292:4414   */\n      pop\n      jump\t// out\n        /* \"#utility.yul\":4420:4582   */\n    tag_57:\n        /* \"#utility.yul\":4513:4557   */\n      tag_116\n        /* \"#utility.yul\":4551:4556   */\n      dup2\n        /* \"#utility.yul\":4513:4557   */\n      tag_104\n      jump\t// in\n    tag_116:\n        /* \"#utility.yul\":4506:4511   */\n      dup2\n        /* \"#utility.yul\":4503:4558   */\n      eq\n        /* \"#utility.yul\":4493:4576   */\n      tag_117\n      jumpi\n        /* \"#utility.yul\":4572:4573   */\n      0x00\n        /* \"#utility.yul\":4569:4570   */\n      dup1\n        /* \"#utility.yul\":4562:4574   */\n      revert\n        /* \"#utility.yul\":4493:4576   */\n    tag_117:\n        /* \"#utility.yul\":4420:4582   */\n      pop\n      jump\t// out\n        /* \"#utility.yul\":4588:4710   */\n    tag_61:\n        /* \"#utility.yul\":4661:4685   */\n      tag_119\n        /* \"#utility.yul\":4679:4684   */\n      dup2\n        /* \"#utility.yul\":4661:4685   */\n      tag_92\n      jump\t// in\n    tag_119:\n        /* \"#utility.yul\":4654:4659   */\n      dup2\n        /* \"#utility.yul\":4651:4686   */\n      eq\n        /* \"#utility.yul\":4641:4704   */\n      tag_120\n      jumpi\n        /* \"#utility.yul\":4700:4701   */\n      0x00\n        /* \"#utility.yul\":4697:4698   */\n      dup1\n        /* \"#utility.yul\":4690:4702   */\n      revert\n        /* \"#utility.yul\":4641:4704   */\n    tag_120:\n        /* \"#utility.yul\":4588:4710   */\n      pop\n      jump\t// out\n\n    auxdata: 0xa2646970667358221220cb5f3220c801b2fca5161108d8c578f1f894e972df43fa8cdae5041ae23efbb464736f6c63430008070033\n}\n",
				"bytecode": {
					"linkReferences": {},
					"object": "608060405234801561001057600080fd5b5061057a806100206000396000f3fe60806040526004361061003f5760003560e01c806337e2621b146100445780634a2ad99f146100755780637c94c8ca1461009e578063d44abc42146100db575b600080fd5b61005e6004803603810190610059919061033f565b6100f7565b60405161006c929190610483565b60405180910390f35b34801561008157600080fd5b5061009c600480360381019061009791906103ac565b610185565b005b3480156100aa57600080fd5b506100c560048036038101906100c0919061033f565b6101f4565b6040516100d29190610468565b60405180910390f35b6100f560048036038101906100f0919061036c565b61027b565b005b6000806000808473ffffffffffffffffffffffffffffffffffffffff1663d6c7a3be6040518163ffffffff1660e01b8152600401604080518083038186803b15801561014257600080fd5b505afa158015610156573d6000803e3d6000fd5b505050506040513d601f19601f8201168201806040525081019061017a9190610419565b915091505050915091565b8173ffffffffffffffffffffffffffffffffffffffff16634018d9aa826040518263ffffffff1660e01b81526004016101be9190610468565b600060405180830381600087803b1580156101d857600080fd5b505af11580156101ec573d6000803e3d6000fd5b505050505050565b60008173ffffffffffffffffffffffffffffffffffffffff16635197c7aa6040518163ffffffff1660e01b815260040160206040518083038186803b15801561023c57600080fd5b505afa158015610250573d6000803e3d6000fd5b505050506040513d601f19601f8201168201806040525081019061027491906103ec565b9050919050565b8173ffffffffffffffffffffffffffffffffffffffff166302f42be934836040518363ffffffff1660e01b81526004016102b59190610468565b6000604051808303818588803b1580156102ce57600080fd5b505af11580156102e2573d6000803e3d6000fd5b50505050505050565b6000813590506102fa816104ff565b92915050565b60008135905061030f81610516565b92915050565b6000813590506103248161052d565b92915050565b6000815190506103398161052d565b92915050565b600060208284031215610355576103546104fa565b5b6000610363848285016102eb565b91505092915050565b60008060408385031215610383576103826104fa565b5b6000610391858286016102eb565b92505060206103a285828601610315565b9150509250929050565b600080604083850312156103c3576103c26104fa565b5b60006103d185828601610300565b92505060206103e285828601610315565b9150509250929050565b600060208284031215610402576104016104fa565b5b60006104108482850161032a565b91505092915050565b600080604083850312156104305761042f6104fa565b5b600061043e8582860161032a565b925050602061044f8582860161032a565b9150509250929050565b610462816104f0565b82525050565b600060208201905061047d6000830184610459565b92915050565b60006040820190506104986000830185610459565b6104a56020830184610459565b9392505050565b60006104b7826104d0565b9050919050565b60006104c9826104ac565b9050919050565b600073ffffffffffffffffffffffffffffffffffffffff82169050919050565b6000819050919050565b600080fd5b610508816104ac565b811461051357600080fd5b50565b61051f816104be565b811461052a57600080fd5b50565b610536816104f0565b811461054157600080fd5b5056fea2646970667358221220cb5f3220c801b2fca5161108d8c578f1f894e972df43fa8cdae5041ae23efbb464736f6c63430008070033",
					"opcodes": "PUSH1 0x80 PUSH1 0x40 MSTORE CALLVALUE DUP1 ISZERO PUSH2 0x10 JUMPI PUSH1 0x0 DUP1 REVERT JUMPDEST POP PUSH2 0x57A DUP1 PUSH2 0x20 PUSH1 0x0 CODECOPY PUSH1 0x0 RETURN INVALID PUSH1 0x80 PUSH1 0x40 MSTORE PUSH1 0x4 CALLDATASIZE LT PUSH2 0x3F JUMPI PUSH1 0x0 CALLDATALOAD PUSH1 0xE0 SHR DUP1 PUSH4 0x37E2621B EQ PUSH2 0x44 JUMPI DUP1 PUSH4 0x4A2AD99F EQ PUSH2 0x75 JUMPI DUP1 PUSH4 0x7C94C8CA EQ PUSH2 0x9E JUMPI DUP1 PUSH4 0xD44ABC42 EQ PUSH2 0xDB JUMPI JUMPDEST PUSH1 0x0 DUP1 REVERT JUMPDEST PUSH2 0x5E PUSH1 0x4 DUP1 CALLDATASIZE SUB DUP2 ADD SWAP1 PUSH2 0x59 SWAP2 SWAP1 PUSH2 0x33F JUMP JUMPDEST PUSH2 0xF7 JUMP JUMPDEST PUSH1 0x40 MLOAD PUSH2 0x6C SWAP3 SWAP2 SWAP1 PUSH2 0x483 JUMP JUMPDEST PUSH1 0x40 MLOAD DUP1 SWAP2 SUB SWAP1 RETURN JUMPDEST CALLVALUE DUP1 ISZERO PUSH2 0x81 JUMPI PUSH1 0x0 DUP1 REVERT JUMPDEST POP PUSH2 0x9C PUSH1 0x4 DUP1 CALLDATASIZE SUB DUP2 ADD SWAP1 PUSH2 0x97 SWAP2 SWAP1 PUSH2 0x3AC JUMP JUMPDEST PUSH2 0x185 JUMP JUMPDEST STOP JUMPDEST CALLVALUE DUP1 ISZERO PUSH2 0xAA JUMPI PUSH1 0x0 DUP1 REVERT JUMPDEST POP PUSH2 0xC5 PUSH1 0x4 DUP1 CALLDATASIZE SUB DUP2 ADD SWAP1 PUSH2 0xC0 SWAP2 SWAP1 PUSH2 0x33F JUMP JUMPDEST PUSH2 0x1F4 JUMP JUMPDEST PUSH1 0x40 MLOAD PUSH2 0xD2 SWAP2 SWAP1 PUSH2 0x468 JUMP JUMPDEST PUSH1 0x40 MLOAD DUP1 SWAP2 SUB SWAP1 RETURN JUMPDEST PUSH2 0xF5 PUSH1 0x4 DUP1 CALLDATASIZE SUB DUP2 ADD SWAP1 PUSH2 0xF0 SWAP2 SWAP1 PUSH2 0x36C JUMP JUMPDEST PUSH2 0x27B JUMP JUMPDEST STOP JUMPDEST PUSH1 0x0 DUP1 PUSH1 0x0 DUP1 DUP5 PUSH20 0xFFFFFFFFFFFFFFFFFFFFFFFFFFFFFFFFFFFFFFFF AND PUSH4 0xD6C7A3BE PUSH1 0x40 MLOAD DUP2 PUSH4 0xFFFFFFFF AND PUSH1 0xE0 SHL DUP2 MSTORE PUSH1 0x4 ADD PUSH1 0x40 DUP1 MLOAD DUP1 DUP4 SUB DUP2 DUP7 DUP1 EXTCODESIZE ISZERO DUP1 ISZERO PUSH2 0x142 JUMPI PUSH1 0x0 DUP1 REVERT JUMPDEST POP GAS STATICCALL ISZERO DUP1 ISZERO PUSH2 0x156 JUMPI RETURNDATASIZE PUSH1 0x0 DUP1 RETURNDATACOPY RETURNDATASIZE PUSH1 0x0 REVERT JUMPDEST POP POP POP POP PUSH1 0x40 MLOAD RETURNDATASIZE PUSH1 0x1F NOT PUSH1 0x1F DUP3 ADD AND DUP3 ADD DUP1 PUSH1 0x40 MSTORE POP DUP2 ADD SWAP1 PUSH2 0x17A SWAP2 SWAP1 PUSH2 0x419 JUMP JUMPDEST SWAP2 POP SWAP2 POP POP POP SWAP2 POP SWAP2 JUMP JUMPDEST DUP2 PUSH20 0xFFFFFFFFFFFFFFFFFFFFFFFFFFFFFFFFFFFFFFFF AND PUSH4 0x4018D9AA DUP3 PUSH1 0x40 MLOAD DUP3 PUSH4 0xFFFFFFFF AND PUSH1 0xE0 SHL DUP2 MSTORE PUSH1 0x4 ADD PUSH2 0x1BE SWAP2 SWAP1 PUSH2 0x468 JUMP JUMPDEST PUSH1 0x0 PUSH1 0x40 MLOAD DUP1 DUP4 SUB DUP2 PUSH1 0x0 DUP8 DUP1 EXTCODESIZE ISZERO DUP1 ISZERO PUSH2 0x1D8 JUMPI PUSH1 0x0 DUP1 REVERT JUMPDEST POP GAS CALL ISZERO DUP1 ISZERO PUSH2 0x1EC JUMPI RETURNDATASIZE PUSH1 0x0 DUP1 RETURNDATACOPY RETURNDATASIZE PUSH1 0x0 REVERT JUMPDEST POP POP POP POP POP POP JUMP JUMPDEST PUSH1 0x0 DUP2 PUSH20 0xFFFFFFFFFFFFFFFFFFFFFFFFFFFFFFFFFFFFFFFF AND PUSH4 0x5197C7AA PUSH1 0x40 MLOAD DUP2 PUSH4 0xFFFFFFFF AND PUSH1 0xE0 SHL DUP2 MSTORE PUSH1 0x4 ADD PUSH1 0x20 PUSH1 0x40 MLOAD DUP1 DUP4 SUB DUP2 DUP7 DUP1 EXTCODESIZE ISZERO DUP1 ISZERO PUSH2 0x23C JUMPI PUSH1 0x0 DUP1 REVERT JUMPDEST POP GAS STATICCALL ISZERO DUP1 ISZERO PUSH2 0x250 JUMPI RETURNDATASIZE PUSH1 0x0 DUP1 RETURNDATACOPY RETURNDATASIZE PUSH1 0x0 REVERT JUMPDEST POP POP POP POP PUSH1 0x40 MLOAD RETURNDATASIZE PUSH1 0x1F NOT PUSH1 0x1F DUP3 ADD AND DUP3 ADD DUP1 PUSH1 0x40 MSTORE POP DUP2 ADD SWAP1 PUSH2 0x274 SWAP2 SWAP1 PUSH2 0x3EC JUMP JUMPDEST SWAP1 POP SWAP2 SWAP1 POP JUMP JUMPDEST DUP2 PUSH20 0xFFFFFFFFFFFFFFFFFFFFFFFFFFFFFFFFFFFFFFFF AND PUSH4 0x2F42BE9 CALLVALUE DUP4 PUSH1 0x40 MLOAD DUP4 PUSH4 0xFFFFFFFF AND PUSH1 0xE0 SHL DUP2 MSTORE PUSH1 0x4 ADD PUSH2 0x2B5 SWAP2 SWAP1 PUSH2 0x468 JUMP JUMPDEST PUSH1 0x0 PUSH1 0x40 MLOAD DUP1 DUP4 SUB DUP2 DUP6 DUP9 DUP1 EXTCODESIZE ISZERO DUP1 ISZERO PUSH2 0x2CE JUMPI PUSH1 0x0 DUP1 REVERT JUMPDEST POP GAS CALL ISZERO DUP1 ISZERO PUSH2 0x2E2 JUMPI RETURNDATASIZE PUSH1 0x0 DUP1 RETURNDATACOPY RETURNDATASIZE PUSH1 0x0 REVERT JUMPDEST POP POP POP POP POP POP POP JUMP JUMPDEST PUSH1 0x0 DUP2 CALLDATALOAD SWAP1 POP PUSH2 0x2FA DUP2 PUSH2 0x4FF JUMP JUMPDEST SWAP3 SWAP2 POP POP JUMP JUMPDEST PUSH1 0x0 DUP2 CALLDATALOAD SWAP1 POP PUSH2 0x30F DUP2 PUSH2 0x516 JUMP JUMPDEST SWAP3 SWAP2 POP POP JUMP JUMPDEST PUSH1 0x0 DUP2 CALLDATALOAD SWAP1 POP PUSH2 0x324 DUP2 PUSH2 0x52D JUMP JUMPDEST SWAP3 SWAP2 POP POP JUMP JUMPDEST PUSH1 0x0 DUP2 MLOAD SWAP1 POP PUSH2 0x339 DUP2 PUSH2 0x52D JUMP JUMPDEST SWAP3 SWAP2 POP POP JUMP JUMPDEST PUSH1 0x0 PUSH1 0x20 DUP3 DUP5 SUB SLT ISZERO PUSH2 0x355 JUMPI PUSH2 0x354 PUSH2 0x4FA JUMP JUMPDEST JUMPDEST PUSH1 0x0 PUSH2 0x363 DUP5 DUP3 DUP6 ADD PUSH2 0x2EB JUMP JUMPDEST SWAP2 POP POP SWAP3 SWAP2 POP POP JUMP JUMPDEST PUSH1 0x0 DUP1 PUSH1 0x40 DUP4 DUP6 SUB SLT ISZERO PUSH2 0x383 JUMPI PUSH2 0x382 PUSH2 0x4FA JUMP JUMPDEST JUMPDEST PUSH1 0x0 PUSH2 0x391 DUP6 DUP3 DUP7 ADD PUSH2 0x2EB JUMP JUMPDEST SWAP3 POP POP PUSH1 0x20 PUSH2 0x3A2 DUP6 DUP3 DUP7 ADD PUSH2 0x315 JUMP JUMPDEST SWAP2 POP POP SWAP3 POP SWAP3 SWAP1 POP JUMP JUMPDEST PUSH1 0x0 DUP1 PUSH1 0x40 DUP4 DUP6 SUB SLT ISZERO PUSH2 0x3C3 JUMPI PUSH2 0x3C2 PUSH2 0x4FA JUMP JUMPDEST JUMPDEST PUSH1 0x0 PUSH2 0x3D1 DUP6 DUP3 DUP7 ADD PUSH2 0x300 JUMP JUMPDEST SWAP3 POP POP PUSH1 0x20 PUSH2 0x3E2 DUP6 DUP3 DUP7 ADD PUSH2 0x315 JUMP JUMPDEST SWAP2 POP POP SWAP3 POP SWAP3 SWAP1 POP JUMP JUMPDEST PUSH1 0x0 PUSH1 0x20 DUP3 DUP5 SUB SLT ISZERO PUSH2 0x402 JUMPI PUSH2 0x401 PUSH2 0x4FA JUMP JUMPDEST JUMPDEST PUSH1 0x0 PUSH2 0x410 DUP5 DUP3 DUP6 ADD PUSH2 0x32A JUMP JUMPDEST SWAP2 POP POP SWAP3 SWAP2 POP POP JUMP JUMPDEST PUSH1 0x0 DUP1 PUSH1 0x40 DUP4 DUP6 SUB SLT ISZERO PUSH2 0x430 JUMPI PUSH2 0x42F PUSH2 0x4FA JUMP JUMPDEST JUMPDEST PUSH1 0x0 PUSH2 0x43E DUP6 DUP3 DUP7 ADD PUSH2 0x32A JUMP JUMPDEST SWAP3 POP POP PUSH1 0x20 PUSH2 0x44F DUP6 DUP3 DUP7 ADD PUSH2 0x32A JUMP JUMPDEST SWAP2 POP POP SWAP3 POP SWAP3 SWAP1 POP JUMP JUMPDEST PUSH2 0x462 DUP2 PUSH2 0x4F0 JUMP JUMPDEST DUP3 MSTORE POP POP JUMP JUMPDEST PUSH1 0x0 PUSH1 0x20 DUP3 ADD SWAP1 POP PUSH2 0x47D PUSH1 0x0 DUP4 ADD DUP5 PUSH2 0x459 JUMP JUMPDEST SWAP3 SWAP2 POP POP JUMP JUMPDEST PUSH1 0x0 PUSH1 0x40 DUP3 ADD SWAP1 POP PUSH2 0x498 PUSH1 0x0 DUP4 ADD DUP6 PUSH2 0x459 JUMP JUMPDEST PUSH2 0x4A5 PUSH1 0x20 DUP4 ADD DUP5 PUSH2 0x459 JUMP JUMPDEST SWAP4 SWAP3 POP POP POP JUMP JUMPDEST PUSH1 0x0 PUSH2 0x4B7 DUP3 PUSH2 0x4D0 JUMP JUMPDEST SWAP1 POP SWAP2 SWAP1 POP JUMP JUMPDEST PUSH1 0x0 PUSH2 0x4C9 DUP3 PUSH2 0x4AC JUMP JUMPDEST SWAP1 POP SWAP2 SWAP1 POP JUMP JUMPDEST PUSH1 0x0 PUSH20 0xFFFFFFFFFFFFFFFFFFFFFFFFFFFFFFFFFFFFFFFF DUP3 AND SWAP1 POP SWAP2 SWAP1 POP JUMP JUMPDEST PUSH1 0x0 DUP2 SWAP1 POP SWAP2 SWAP1 POP JUMP JUMPDEST PUSH1 0x0 DUP1 REVERT JUMPDEST PUSH2 0x508 DUP2 PUSH2 0x4AC JUMP JUMPDEST DUP2 EQ PUSH2 0x513 JUMPI PUSH1 0x0 DUP1 REVERT JUMPDEST POP JUMP JUMPDEST PUSH2 0x51F DUP2 PUSH2 0x4BE JUMP JUMPDEST DUP2 EQ PUSH2 0x52A JUMPI PUSH1 0x0 DUP1 REVERT JUMPDEST POP JUMP JUMPDEST PUSH2 0x536 DUP2 PUSH2 0x4F0 JUMP JUMPDEST DUP2 EQ PUSH2 0x541 JUMPI PUSH1 0x0 DUP1 REVERT JUMPDEST POP JUMP INVALID LOG2 PUSH5 0x6970667358 0x22 SLT KECCAK256 0xCB 0x5F ORIGIN KECCAK256 0xC8 ADD 0xB2 0xFC 0xA5 AND GT ADDMOD 0xD8 0xC5 PUSH25 0xF1F894E972DF43FA8CDAE5041AE23EFBB464736F6C63430008 SMOD STOP CALLER "
				},
				"gasEstimates": {
					"creation": {
						"codeDepositCost": "280400",
						"executionCost": "318",
						"totalCost": "280718"
					},
					"external": {
						"getX(address)": "infinite",
						"getXandValue(address)": "infinite",
						"setX(address,uint256)": "infinite",
						"setXandSendEther(address,uint256)": "infinite"
					}
				},
				"methodIdentifiers": {
					"getX(address)": "7c94c8ca",
					"getXandValue(address)": "37e2621b",
					"setX(address,uint256)": "4a2ad99f",
					"setXandSendEther(address,uint256)": "d44abc42"
				}
			},
			"storageLayout": {
				"storage": [],
				"types": null
			},
			"userdoc": {
				"kind": "user",
				"methods": {},
				"version": 1
			}
		}
	}
}