{
	"Day17_ArrayReplace.sol": {
		"ArrayReplace": {
			"abi": [
				{
					"inputs": [
						{
							"internalType": "uint256",
							"name": "",
							"type": "uint256"
						}
					],
					"name": "arr",
					"outputs": [
						{
							"internalType": "uint256",
							"name": "",
							"type": "uint256"
						}
					],
					"stateMutability": "view",
					"type": "function"
				},
				{
					"inputs": [
						{
							"internalType": "uint256",
							"name": "index",
							"type": "uint256"
						}
					],
					"name": "remove",
					"outputs": [],
					"stateMutability": "nonpayable",
					"type": "function"
				}
			],
			"devdoc": {
				"kind": "dev",
				"methods": {},
				"version": 1
			},
			"evm": {
				"assembly": "    /* \"Day17_ArrayReplace.sol\":58:208  contract ArrayReplace {... */\n  mstore(0x40, 0x80)\n  callvalue\n  dup1\n  iszero\n  tag_1\n  jumpi\n  0x00\n  dup1\n  revert\ntag_1:\n  pop\n  dataSize(sub_0)\n  dup1\n  dataOffset(sub_0)\n  0x00\n  codecopy\n  0x00\n  return\nstop\n\nsub_0: assembly {\n        /* \"Day17_ArrayReplace.sol\":58:208  contract ArrayReplace {... */\n      mstore(0x40, 0x80)\n      callvalue\n      dup1\n      iszero\n      tag_1\n      jumpi\n      0x00\n      dup1\n      revert\n    tag_1:\n      pop\n      jumpi(tag_2, lt(calldatasize, 0x04))\n      shr(0xe0, calldataload(0x00))\n      dup1\n      0x4cc82215\n      eq\n      tag_3\n      jumpi\n      dup1\n      0x71e5ee5f\n      eq\n      tag_4\n      jumpi\n    tag_2:\n      0x00\n      dup1\n      revert\n        /* \"Day17_ArrayReplace.sol\":110:206  function remove (uint index) external {... */\n    tag_3:\n      tag_5\n      0x04\n      dup1\n      calldatasize\n      sub\n      dup2\n      add\n      swap1\n      tag_6\n      swap2\n      swap1\n      tag_7\n      jump\t// in\n    tag_6:\n      tag_8\n      jump\t// in\n    tag_5:\n      stop\n        /* \"Day17_ArrayReplace.sol\":86:103  uint[] public arr */\n    tag_4:\n      tag_9\n      0x04\n      dup1\n      calldatasize\n      sub\n      dup2\n      add\n      swap1\n      tag_10\n      swap2\n      swap1\n      tag_7\n      jump\t// in\n    tag_10:\n      tag_11\n      jump\t// in\n    tag_9:\n      mload(0x40)\n      tag_12\n      swap2\n      swap1\n      tag_13\n      jump\t// in\n    tag_12:\n      mload(0x40)\n      dup1\n      swap2\n      sub\n      swap1\n      return\n        /* \"Day17_ArrayReplace.sol\":110:206  function remove (uint index) external {... */\n    tag_8:\n        /* \"Day17_ArrayReplace.sol\":171:174  arr */\n      0x00\n        /* \"Day17_ArrayReplace.sol\":187:188  1 */\n      0x01\n        /* \"Day17_ArrayReplace.sol\":175:178  arr */\n      0x00\n        /* \"Day17_ArrayReplace.sol\":175:185  arr.length */\n      dup1\n      sload\n      swap1\n      pop\n        /* \"Day17_ArrayReplace.sol\":175:188  arr.length -1 */\n      tag_15\n      swap2\n      swap1\n      tag_16\n      jump\t// in\n    tag_15:\n        /* \"Day17_ArrayReplace.sol\":171:190  arr[arr.length -1 ] */\n      dup2\n      sload\n      dup2\n      lt\n      tag_17\n      jumpi\n      tag_18\n      tag_19\n      jump\t// in\n    tag_18:\n    tag_17:\n      swap1\n      0x00\n      mstore\n      keccak256(0x00, 0x20)\n      add\n      sload\n        /* \"Day17_ArrayReplace.sol\":158:161  arr */\n      0x00\n        /* \"Day17_ArrayReplace.sol\":162:167  index */\n      dup3\n        /* \"Day17_ArrayReplace.sol\":158:168  arr[index] */\n      dup2\n      sload\n      dup2\n      lt\n      tag_21\n      jumpi\n      tag_22\n      tag_19\n      jump\t// in\n    tag_22:\n    tag_21:\n      swap1\n      0x00\n      mstore\n      keccak256(0x00, 0x20)\n      add\n        /* \"Day17_ArrayReplace.sol\":158:190  arr[index] = arr[arr.length -1 ] */\n      dup2\n      swap1\n      sstore\n      pop\n        /* \"Day17_ArrayReplace.sol\":110:206  function remove (uint index) external {... */\n      pop\n      jump\t// out\n        /* \"Day17_ArrayReplace.sol\":86:103  uint[] public arr */\n    tag_11:\n      0x00\n      dup2\n      dup2\n      sload\n      dup2\n      lt\n      tag_24\n      jumpi\n      0x00\n      dup1\n      revert\n    tag_24:\n      swap1\n      0x00\n      mstore\n      keccak256(0x00, 0x20)\n      add\n      0x00\n      swap2\n      pop\n      swap1\n      pop\n      sload\n      dup2\n      jump\t// out\n        /* \"#utility.yul\":7:146   */\n    tag_27:\n        /* \"#utility.yul\":53:58   */\n      0x00\n        /* \"#utility.yul\":91:97   */\n      dup2\n        /* \"#utility.yul\":78:98   */\n      calldataload\n        /* \"#utility.yul\":69:98   */\n      swap1\n      pop\n        /* \"#utility.yul\":107:140   */\n      tag_29\n        /* \"#utility.yul\":134:139   */\n      dup2\n        /* \"#utility.yul\":107:140   */\n      tag_30\n      jump\t// in\n    tag_29:\n        /* \"#utility.yul\":7:146   */\n      swap3\n      swap2\n      pop\n      pop\n      jump\t// out\n        /* \"#utility.yul\":152:481   */\n    tag_7:\n        /* \"#utility.yul\":211:217   */\n      0x00\n        /* \"#utility.yul\":260:262   */\n      0x20\n        /* \"#utility.yul\":248:257   */\n      dup3\n        /* \"#utility.yul\":239:246   */\n      dup5\n        /* \"#utility.yul\":235:258   */\n      sub\n        /* \"#utility.yul\":231:263   */\n      slt\n        /* \"#utility.yul\":228:347   */\n      iszero\n      tag_32\n      jumpi\n        /* \"#utility.yul\":266:345   */\n      tag_33\n      tag_34\n      jump\t// in\n    tag_33:\n        /* \"#utility.yul\":228:347   */\n    tag_32:\n        /* \"#utility.yul\":386:387   */\n      0x00\n        /* \"#utility.yul\":411:464   */\n      tag_35\n        /* \"#utility.yul\":456:463   */\n      dup5\n        /* \"#utility.yul\":447:453   */\n      dup3\n        /* \"#utility.yul\":436:445   */\n      dup6\n        /* \"#utility.yul\":432:454   */\n      add\n        /* \"#utility.yul\":411:464   */\n      tag_27\n      jump\t// in\n    tag_35:\n        /* \"#utility.yul\":401:464   */\n      swap2\n      pop\n        /* \"#utility.yul\":357:474   */\n      pop\n        /* \"#utility.yul\":152:481   */\n      swap3\n      swap2\n      pop\n      pop\n      jump\t// out\n        /* \"#utility.yul\":487:605   */\n    tag_36:\n        /* \"#utility.yul\":574:598   */\n      tag_38\n        /* \"#utility.yul\":592:597   */\n      dup2\n        /* \"#utility.yul\":574:598   */\n      tag_39\n      jump\t// in\n    tag_38:\n        /* \"#utility.yul\":569:572   */\n      dup3\n        /* \"#utility.yul\":562:599   */\n      mstore\n        /* \"#utility.yul\":487:605   */\n      pop\n      pop\n      jump\t// out\n        /* \"#utility.yul\":611:833   */\n    tag_13:\n        /* \"#utility.yul\":704:708   */\n      0x00\n        /* \"#utility.yul\":742:744   */\n      0x20\n        /* \"#utility.yul\":731:740   */\n      dup3\n        /* \"#utility.yul\":727:745   */\n      add\n        /* \"#utility.yul\":719:745   */\n      swap1\n      pop\n        /* \"#utility.yul\":755:826   */\n      tag_41\n        /* \"#utility.yul\":823:824   */\n      0x00\n        /* \"#utility.yul\":812:821   */\n      dup4\n        /* \"#utility.yul\":808:825   */\n      add\n        /* \"#utility.yul\":799:805   */\n      dup5\n        /* \"#utility.yul\":755:826   */\n      tag_36\n      jump\t// in\n    tag_41:\n        /* \"#utility.yul\":611:833   */\n      swap3\n      swap2\n      pop\n      pop\n      jump\t// out\n        /* \"#utility.yul\":920:1111   */\n    tag_16:\n        /* \"#utility.yul\":960:964   */\n      0x00\n        /* \"#utility.yul\":980:1000   */\n      tag_45\n        /* \"#utility.yul\":998:999   */\n      dup3\n        /* \"#utility.yul\":980:1000   */\n      tag_39\n      jump\t// in\n    tag_45:\n        /* \"#utility.yul\":975:1000   */\n      swap2\n      pop\n        /* \"#utility.yul\":1014:1034   */\n      tag_46\n        /* \"#utility.yul\":1032:1033   */\n      dup4\n        /* \"#utility.yul\":1014:1034   */\n      tag_39\n      jump\t// in\n    tag_46:\n        /* \"#utility.yul\":1009:1034   */\n      swap3\n      pop\n        /* \"#utility.yul\":1053:1054   */\n      dup3\n        /* \"#utility.yul\":1050:1051   */\n      dup3\n        /* \"#utility.yul\":1047:1055   */\n      lt\n        /* \"#utility.yul\":1044:1078   */\n      iszero\n      tag_47\n      jumpi\n        /* \"#utility.yul\":1058:1076   */\n      tag_48\n      tag_49\n      jump\t// in\n    tag_48:\n        /* \"#utility.yul\":1044:1078   */\n    tag_47:\n        /* \"#utility.yul\":1103:1104   */\n      dup3\n        /* \"#utility.yul\":1100:1101   */\n      dup3\n        /* \"#utility.yul\":1096:1105   */\n      sub\n        /* \"#utility.yul\":1088:1105   */\n      swap1\n      pop\n        /* \"#utility.yul\":920:1111   */\n      swap3\n      swap2\n      pop\n      pop\n      jump\t// out\n        /* \"#utility.yul\":1117:1194   */\n    tag_39:\n        /* \"#utility.yul\":1154:1161   */\n      0x00\n        /* \"#utility.yul\":1183:1188   */\n      dup2\n        /* \"#utility.yul\":1172:1188   */\n      swap1\n      pop\n        /* \"#utility.yul\":1117:1194   */\n      swap2\n      swap1\n      pop\n      jump\t// out\n        /* \"#utility.yul\":1200:1380   */\n    tag_49:\n        /* \"#utility.yul\":1248:1325   */\n      0x4e487b7100000000000000000000000000000000000000000000000000000000\n        /* \"#utility.yul\":1245:1246   */\n      0x00\n        /* \"#utility.yul\":1238:1326   */\n      mstore\n        /* \"#utility.yul\":1345:1349   */\n      0x11\n        /* \"#utility.yul\":1342:1343   */\n      0x04\n        /* \"#utility.yul\":1335:1350   */\n      mstore\n        /* \"#utility.yul\":1369:1373   */\n      0x24\n        /* \"#utility.yul\":1366:1367   */\n      0x00\n        /* \"#utility.yul\":1359:1374   */\n      revert\n        /* \"#utility.yul\":1386:1566   */\n    tag_19:\n        /* \"#utility.yul\":1434:1511   */\n      0x4e487b7100000000000000000000000000000000000000000000000000000000\n        /* \"#utility.yul\":1431:1432   */\n      0x00\n        /* \"#utility.yul\":1424:1512   */\n      mstore\n        /* \"#utility.yul\":1531:1535   */\n      0x32\n        /* \"#utility.yul\":1528:1529   */\n      0x04\n        /* \"#utility.yul\":1521:1536   */\n      mstore\n        /* \"#utility.yul\":1555:1559   */\n      0x24\n        /* \"#utility.yul\":1552:1553   */\n      0x00\n        /* \"#utility.yul\":1545:1560   */\n      revert\n        /* \"#utility.yul\":1695:1812   */\n    tag_34:\n        /* \"#utility.yul\":1804:1805   */\n      0x00\n        /* \"#utility.yul\":1801:1802   */\n      dup1\n        /* \"#utility.yul\":1794:1806   */\n      revert\n        /* \"#utility.yul\":1818:1940   */\n    tag_30:\n        /* \"#utility.yul\":1891:1915   */\n      tag_57\n        /* \"#utility.yul\":1909:1914   */\n      dup2\n        /* \"#utility.yul\":1891:1915   */\n      tag_39\n      jump\t// in\n    tag_57:\n        /* \"#utility.yul\":1884:1889   */\n      dup2\n        /* \"#utility.yul\":1881:1916   */\n      eq\n        /* \"#utility.yul\":1871:1934   */\n      tag_58\n      jumpi\n        /* \"#utility.yul\":1930:1931   */\n      0x00\n        /* \"#utility.yul\":1927:1928   */\n      dup1\n        /* \"#utility.yul\":1920:1932   */\n      revert\n        /* \"#utility.yul\":1871:1934   */\n    tag_58:\n        /* \"#utility.yul\":1818:1940   */\n      pop\n      jump\t// out\n\n    auxdata: 0xa26469706673582212202fab9598c885001ded91f61cc91f8cbf9813f7b0eec59fd5100efca561181b4a64736f6c63430008070033\n}\n",
				"bytecode": {
					"linkReferences": {},
					"object": "608060405234801561001057600080fd5b5061025a806100206000396000f3fe608060405234801561001057600080fd5b50600436106100365760003560e01c80634cc822151461003b57806371e5ee5f14610057575b600080fd5b61005560048036038101906100509190610115565b610087565b005b610071600480360381019061006c9190610115565b6100dc565b60405161007e9190610151565b60405180910390f35b6000600160008054905061009b919061016c565b815481106100ac576100ab6101d9565b5b9060005260206000200154600082815481106100cb576100ca6101d9565b5b906000526020600020018190555050565b600081815481106100ec57600080fd5b906000526020600020016000915090505481565b60008135905061010f8161020d565b92915050565b60006020828403121561012b5761012a610208565b5b600061013984828501610100565b91505092915050565b61014b816101a0565b82525050565b60006020820190506101666000830184610142565b92915050565b6000610177826101a0565b9150610182836101a0565b925082821015610195576101946101aa565b5b828203905092915050565b6000819050919050565b7f4e487b7100000000000000000000000000000000000000000000000000000000600052601160045260246000fd5b7f4e487b7100000000000000000000000000000000000000000000000000000000600052603260045260246000fd5b600080fd5b610216816101a0565b811461022157600080fd5b5056fea26469706673582212202fab9598c885001ded91f61cc91f8cbf9813f7b0eec59fd5100efca561181b4a64736f6c63430008070033",
					"opcodes": "PUSH1 0x80 PUSH1 0x40 MSTORE CALLVALUE DUP1 ISZERO PUSH2 0x10 JUMPI PUSH1 0x0 DUP1 REVERT JUMPDEST POP PUSH2 0x25A DUP1 PUSH2 0x20 PUSH1 0x0 CODECOPY PUSH1 0x0 RETURN INVALID PUSH1 0x80 PUSH1 0x40 MSTORE CALLVALUE DUP1 ISZERO PUSH2 0x10 JUMPI PUSH1 0x0 DUP1 REVERT JUMPDEST POP PUSH1 0x4 CALLDATASIZE LT PUSH2 0x36 JUMPI PUSH1 0x0 CALLDATALOAD PUSH1 0xE0 SHR DUP1 PUSH4 0x4CC82215 EQ PUSH2 0x3B JUMPI DUP1 PUSH4 0x71E5EE5F EQ PUSH2 0x57 JUMPI JUMPDEST PUSH1 0x0 DUP1 REVERT JUMPDEST PUSH2 0x55 PUSH1 0x4 DUP1 CALLDATASIZE SUB DUP2 ADD SWAP1 PUSH2 0x50 SWAP2 SWAP1 PUSH2 0x115 JUMP JUMPDEST PUSH2 0x87 JUMP JUMPDEST STOP JUMPDEST PUSH2 0x71 PUSH1 0x4 DUP1 CALLDATASIZE SUB DUP2 ADD SWAP1 PUSH2 0x6C SWAP2 SWAP1 PUSH2 0x115 JUMP JUMPDEST PUSH2 0xDC JUMP JUMPDEST PUSH1 0x40 MLOAD PUSH2 0x7E SWAP2 SWAP1 PUSH2 0x151 JUMP JUMPDEST PUSH1 0x40 MLOAD DUP1 SWAP2 SUB SWAP1 RETURN JUMPDEST PUSH1 0x0 PUSH1 0x1 PUSH1 0x0 DUP1 SLOAD SWAP1 POP PUSH2 0x9B SWAP2 SWAP1 PUSH2 0x16C JUMP JUMPDEST DUP2 SLOAD DUP2 LT PUSH2 0xAC JUMPI PUSH2 0xAB PUSH2 0x1D9 JUMP JUMPDEST JUMPDEST SWAP1 PUSH1 0x0 MSTORE PUSH1 0x20 PUSH1 0x0 KECCAK256 ADD SLOAD PUSH1 0x0 DUP3 DUP2 SLOAD DUP2 LT PUSH2 0xCB JUMPI PUSH2 0xCA PUSH2 0x1D9 JUMP JUMPDEST JUMPDEST SWAP1 PUSH1 0x0 MSTORE PUSH1 0x20 PUSH1 0x0 KECCAK256 ADD DUP2 SWAP1 SSTORE POP POP JUMP JUMPDEST PUSH1 0x0 DUP2 DUP2 SLOAD DUP2 LT PUSH2 0xEC JUMPI PUSH1 0x0 DUP1 REVERT JUMPDEST SWAP1 PUSH1 0x0 MSTORE PUSH1 0x20 PUSH1 0x0 KECCAK256 ADD PUSH1 0x0 SWAP2 POP SWAP1 POP SLOAD DUP2 JUMP JUMPDEST PUSH1 0x0 DUP2 CALLDATALOAD SWAP1 POP PUSH2 0x10F DUP2 PUSH2 0x20D JUMP JUMPDEST SWAP3 SWAP2 POP POP JUMP JUMPDEST PUSH1 0x0 PUSH1 0x20 DUP3 DUP5 SUB SLT ISZERO PUSH2 0x12B JUMPI PUSH2 0x12A PUSH2 0x208 JUMP JUMPDEST JUMPDEST PUSH1 0x0 PUSH2 0x139 DUP5 DUP3 DUP6 ADD PUSH2 0x100 JUMP JUMPDEST SWAP2 POP POP SWAP3 SWAP2 POP POP JUMP JUMPDEST PUSH2 0x14B DUP2 PUSH2 0x1A0 JUMP JUMPDEST DUP3 MSTORE POP POP JUMP JUMPDEST PUSH1 0x0 PUSH1 0x20 DUP3 ADD SWAP1 POP PUSH2 0x166 PUSH1 0x0 DUP4 ADD DUP5 PUSH2 0x142 JUMP JUMPDEST SWAP3 SWAP2 POP POP JUMP JUMPDEST PUSH1 0x0 PUSH2 0x177 DUP3 PUSH2 0x1A0 JUMP JUMPDEST SWAP2 POP PUSH2 0x182 DUP4 PUSH2 0x1A0 JUMP JUMPDEST SWAP3 POP DUP3 DUP3 LT ISZERO PUSH2 0x195 JUMPI PUSH2 0x194 PUSH2 0x1AA JUMP JUMPDEST JUMPDEST DUP3 DUP3 SUB SWAP1 POP SWAP3 SWAP2 POP POP JUMP JUMPDEST PUSH1 0x0 DUP2 SWAP1 POP SWAP2 SWAP1 POP JUMP JUMPDEST PUSH32 0x4E487B7100000000000000000000000000000000000000000000000000000000 PUSH1 0x0 MSTORE PUSH1 0x11 PUSH1 0x4 MSTORE PUSH1 0x24 PUSH1 0x0 REVERT JUMPDEST PUSH32 0x4E487B7100000000000000000000000000000000000000000000000000000000 PUSH1 0x0 MSTORE PUSH1 0x32 PUSH1 0x4 MSTORE PUSH1 0x24 PUSH1 0x0 REVERT JUMPDEST PUSH1 0x0 DUP1 REVERT JUMPDEST PUSH2 0x216 DUP2 PUSH2 0x1A0 JUMP JUMPDEST DUP2 EQ PUSH2 0x221 JUMPI PUSH1 0x0 DUP1 REVERT JUMPDEST POP JUMP INVALID LOG2 PUSH5 0x6970667358 0x22 SLT KECCAK256 0x2F 0xAB SWAP6 SWAP9 0xC8 DUP6 STOP SAR 0xED SWAP2 0xF6 SHR 0xC9 0x1F DUP13 0xBF SWAP9 SGT 0xF7 0xB0 0xEE 0xC5 SWAP16 0xD5 LT 0xE 0xFC 0xA5 PUSH2 0x181B 0x4A PUSH5 0x736F6C6343 STOP ADDMOD SMOD STOP CALLER "
				},
				"gasEstimates": {
					"creation": {
						"codeDepositCost": "120400",
						"executionCost": "165",
						"totalCost": "120565"
					},
					"external": {
						"arr(uint256)": "infinite",
						"remove(uint256)": "infinite"
					}
				},
				"methodIdentifiers": {
					"arr(uint256)": "71e5ee5f",
					"remove(uint256)": "4cc82215"
				}
			},
			"storageLayout": {
				"storage": [
					{
						"astId": 4,
						"contract": "Day17_ArrayReplace.sol:ArrayReplace",
						"label": "arr",
						"offset": 0,
						"slot": "0",
						"type": "t_array(t_uint256)dyn_storage"
					}
				],
				"types": {
					"t_array(t_uint256)dyn_storage": {
						"base": "t_uint256",
						"encoding": "dynamic_array",
						"label": "uint256[]",
						"numberOfBytes": "32"
					},
					"t_uint256": {
						"encoding": "inplace",
						"label": "uint256",
						"numberOfBytes": "32"
					}
				}
			},
			"userdoc": {
				"kind": "user",
				"methods": {},
				"version": 1
			}
		}
	}
}