{
	"Day48_Create2.sol": {
		"Create2Factory": {
			"abi": [
				{
					"anonymous": false,
					"inputs": [
						{
							"indexed": false,
							"internalType": "address",
							"name": "addr",
							"type": "address"
						}
					],
					"name": "Deploy",
					"type": "event"
				},
				{
					"inputs": [
						{
							"internalType": "uint256",
							"name": "_salt",
							"type": "uint256"
						}
					],
					"name": "deploy",
					"outputs": [],
					"stateMutability": "nonpayable",
					"type": "function"
				},
				{
					"inputs": [
						{
							"internalType": "bytes",
							"name": "bytecode",
							"type": "bytes"
						},
						{
							"internalType": "uint256",
							"name": "_salt",
							"type": "uint256"
						}
					],
					"name": "getAddress",
					"outputs": [
						{
							"internalType": "address",
							"name": "",
							"type": "address"
						}
					],
					"stateMutability": "view",
					"type": "function"
				}
			],
			"devdoc": {
				"kind": "dev",
				"methods": {},
				"version": 1
			},
			"evm": {
				"assembly": "    /* \"Day48_Create2.sol\":182:547  contract Create2Factory {... */\n  mstore(0x40, 0x80)\n  callvalue\n  dup1\n  iszero\n  tag_1\n  jumpi\n  0x00\n  dup1\n  revert\ntag_1:\n  pop\n  dataSize(sub_0)\n  dup1\n  dataOffset(sub_0)\n  0x00\n  codecopy\n  0x00\n  return\nstop\n\nsub_0: assembly {\n        /* \"Day48_Create2.sol\":182:547  contract Create2Factory {... */\n      mstore(0x40, 0x80)\n      callvalue\n      dup1\n      iszero\n      tag_1\n      jumpi\n      0x00\n      dup1\n      revert\n    tag_1:\n      pop\n      jumpi(tag_2, lt(calldatasize, 0x04))\n      shr(0xe0, calldataload(0x00))\n      dup1\n      0x94ca2cb5\n      eq\n      tag_3\n      jumpi\n      dup1\n      0xa5e38751\n      eq\n      tag_4\n      jumpi\n    tag_2:\n      0x00\n      dup1\n      revert\n        /* \"Day48_Create2.sol\":452:545  function getAddress(bytes memory bytecode, uint _salt) public view returns (address) {... */\n    tag_3:\n      tag_5\n      0x04\n      dup1\n      calldatasize\n      sub\n      dup2\n      add\n      swap1\n      tag_6\n      swap2\n      swap1\n      tag_7\n      jump\t// in\n    tag_6:\n      tag_8\n      jump\t// in\n    tag_5:\n      mload(0x40)\n      tag_9\n      swap2\n      swap1\n      tag_10\n      jump\t// in\n    tag_9:\n      mload(0x40)\n      dup1\n      swap2\n      sub\n      swap1\n      return\n        /* \"Day48_Create2.sol\":245:446  function deploy(uint _salt) external {... */\n    tag_4:\n      tag_11\n      0x04\n      dup1\n      calldatasize\n      sub\n      dup2\n      add\n      swap1\n      tag_12\n      swap2\n      swap1\n      tag_13\n      jump\t// in\n    tag_12:\n      tag_14\n      jump\t// in\n    tag_11:\n      stop\n        /* \"Day48_Create2.sol\":452:545  function getAddress(bytes memory bytecode, uint _salt) public view returns (address) {... */\n    tag_8:\n        /* \"Day48_Create2.sol\":528:535  address */\n      0x00\n        /* \"Day48_Create2.sol\":452:545  function getAddress(bytes memory bytecode, uint _salt) public view returns (address) {... */\n      swap3\n      swap2\n      pop\n      pop\n      jump\t// out\n        /* \"Day48_Create2.sol\":245:446  function deploy(uint _salt) external {... */\n    tag_14:\n        /* \"Day48_Create2.sol\":292:319  DeployWithCreate2 _contract */\n      0x00\n        /* \"Day48_Create2.sol\":370:375  _salt */\n      dup2\n        /* \"Day48_Create2.sol\":362:376  bytes32(_salt) */\n      0x00\n      shl\n        /* \"Day48_Create2.sol\":387:397  msg.sender */\n      caller\n        /* \"Day48_Create2.sol\":322:398  new DeployWithCreate2{... */\n      mload(0x40)\n      tag_17\n      swap1\n      tag_18\n      jump\t// in\n    tag_17:\n      tag_19\n      swap2\n      swap1\n      tag_10\n      jump\t// in\n    tag_19:\n      dup2\n      swap1\n      mload(0x40)\n      dup1\n      swap2\n      sub\n      swap1\n      0x00\n      create2\n      swap1\n      pop\n      dup1\n      iszero\n      dup1\n      iszero\n      tag_20\n      jumpi\n      returndatasize\n      0x00\n      dup1\n      returndatacopy\n      revert(0x00, returndatasize)\n    tag_20:\n      pop\n        /* \"Day48_Create2.sol\":292:398  DeployWithCreate2 _contract = new DeployWithCreate2{... */\n      swap1\n      pop\n        /* \"Day48_Create2.sol\":413:439  Deploy(address(_contract)) */\n      0x55ea6c6b31543d8e2ec6a72f71a79c0f4b72ed0d4757172b043d8f4f4cd84848\n        /* \"Day48_Create2.sol\":428:437  _contract */\n      dup2\n        /* \"Day48_Create2.sol\":413:439  Deploy(address(_contract)) */\n      mload(0x40)\n      tag_21\n      swap2\n      swap1\n      tag_10\n      jump\t// in\n    tag_21:\n      mload(0x40)\n      dup1\n      swap2\n      sub\n      swap1\n      log1\n        /* \"Day48_Create2.sol\":282:446  {... */\n      pop\n        /* \"Day48_Create2.sol\":245:446  function deploy(uint _salt) external {... */\n      pop\n      jump\t// out\n    tag_18:\n      dataSize(sub_0)\n      dup1\n      dataOffset(sub_0)\n      dup4\n      codecopy\n      add\n      swap1\n      jump\t// out\n        /* \"#utility.yul\":7:82   */\n    tag_22:\n        /* \"#utility.yul\":40:46   */\n      0x00\n        /* \"#utility.yul\":73:75   */\n      0x40\n        /* \"#utility.yul\":67:76   */\n      mload\n        /* \"#utility.yul\":57:76   */\n      swap1\n      pop\n        /* \"#utility.yul\":7:82   */\n      swap1\n      jump\t// out\n        /* \"#utility.yul\":88:205   */\n    tag_23:\n        /* \"#utility.yul\":197:198   */\n      0x00\n        /* \"#utility.yul\":194:195   */\n      dup1\n        /* \"#utility.yul\":187:199   */\n      revert\n        /* \"#utility.yul\":211:328   */\n    tag_24:\n        /* \"#utility.yul\":320:321   */\n      0x00\n        /* \"#utility.yul\":317:318   */\n      dup1\n        /* \"#utility.yul\":310:322   */\n      revert\n        /* \"#utility.yul\":334:451   */\n    tag_25:\n        /* \"#utility.yul\":443:444   */\n      0x00\n        /* \"#utility.yul\":440:441   */\n      dup1\n        /* \"#utility.yul\":433:445   */\n      revert\n        /* \"#utility.yul\":457:574   */\n    tag_26:\n        /* \"#utility.yul\":566:567   */\n      0x00\n        /* \"#utility.yul\":563:564   */\n      dup1\n        /* \"#utility.yul\":556:568   */\n      revert\n        /* \"#utility.yul\":580:682   */\n    tag_27:\n        /* \"#utility.yul\":621:627   */\n      0x00\n        /* \"#utility.yul\":672:674   */\n      0x1f\n        /* \"#utility.yul\":668:675   */\n      not\n        /* \"#utility.yul\":663:665   */\n      0x1f\n        /* \"#utility.yul\":656:661   */\n      dup4\n        /* \"#utility.yul\":652:666   */\n      add\n        /* \"#utility.yul\":648:676   */\n      and\n        /* \"#utility.yul\":638:676   */\n      swap1\n      pop\n        /* \"#utility.yul\":580:682   */\n      swap2\n      swap1\n      pop\n      jump\t// out\n        /* \"#utility.yul\":688:868   */\n    tag_28:\n        /* \"#utility.yul\":736:813   */\n      0x4e487b7100000000000000000000000000000000000000000000000000000000\n        /* \"#utility.yul\":733:734   */\n      0x00\n        /* \"#utility.yul\":726:814   */\n      mstore\n        /* \"#utility.yul\":833:837   */\n      0x41\n        /* \"#utility.yul\":830:831   */\n      0x04\n        /* \"#utility.yul\":823:838   */\n      mstore\n        /* \"#utility.yul\":857:861   */\n      0x24\n        /* \"#utility.yul\":854:855   */\n      0x00\n        /* \"#utility.yul\":847:862   */\n      revert\n        /* \"#utility.yul\":874:1155   */\n    tag_29:\n        /* \"#utility.yul\":957:984   */\n      tag_50\n        /* \"#utility.yul\":979:983   */\n      dup3\n        /* \"#utility.yul\":957:984   */\n      tag_27\n      jump\t// in\n    tag_50:\n        /* \"#utility.yul\":949:955   */\n      dup2\n        /* \"#utility.yul\":945:985   */\n      add\n        /* \"#utility.yul\":1087:1093   */\n      dup2\n        /* \"#utility.yul\":1075:1085   */\n      dup2\n        /* \"#utility.yul\":1072:1094   */\n      lt\n        /* \"#utility.yul\":1051:1069   */\n      0xffffffffffffffff\n        /* \"#utility.yul\":1039:1049   */\n      dup3\n        /* \"#utility.yul\":1036:1070   */\n      gt\n        /* \"#utility.yul\":1033:1095   */\n      or\n        /* \"#utility.yul\":1030:1118   */\n      iszero\n      tag_51\n      jumpi\n        /* \"#utility.yul\":1098:1116   */\n      tag_52\n      tag_28\n      jump\t// in\n    tag_52:\n        /* \"#utility.yul\":1030:1118   */\n    tag_51:\n        /* \"#utility.yul\":1138:1148   */\n      dup1\n        /* \"#utility.yul\":1134:1136   */\n      0x40\n        /* \"#utility.yul\":1127:1149   */\n      mstore\n        /* \"#utility.yul\":917:1155   */\n      pop\n        /* \"#utility.yul\":874:1155   */\n      pop\n      pop\n      jump\t// out\n        /* \"#utility.yul\":1161:1290   */\n    tag_30:\n        /* \"#utility.yul\":1195:1201   */\n      0x00\n        /* \"#utility.yul\":1222:1242   */\n      tag_54\n      tag_22\n      jump\t// in\n    tag_54:\n        /* \"#utility.yul\":1212:1242   */\n      swap1\n      pop\n        /* \"#utility.yul\":1251:1284   */\n      tag_55\n        /* \"#utility.yul\":1279:1283   */\n      dup3\n        /* \"#utility.yul\":1271:1277   */\n      dup3\n        /* \"#utility.yul\":1251:1284   */\n      tag_29\n      jump\t// in\n    tag_55:\n        /* \"#utility.yul\":1161:1290   */\n      swap2\n      swap1\n      pop\n      jump\t// out\n        /* \"#utility.yul\":1296:1603   */\n    tag_31:\n        /* \"#utility.yul\":1357:1361   */\n      0x00\n        /* \"#utility.yul\":1447:1465   */\n      0xffffffffffffffff\n        /* \"#utility.yul\":1439:1445   */\n      dup3\n        /* \"#utility.yul\":1436:1466   */\n      gt\n        /* \"#utility.yul\":1433:1489   */\n      iszero\n      tag_57\n      jumpi\n        /* \"#utility.yul\":1469:1487   */\n      tag_58\n      tag_28\n      jump\t// in\n    tag_58:\n        /* \"#utility.yul\":1433:1489   */\n    tag_57:\n        /* \"#utility.yul\":1507:1536   */\n      tag_59\n        /* \"#utility.yul\":1529:1535   */\n      dup3\n        /* \"#utility.yul\":1507:1536   */\n      tag_27\n      jump\t// in\n    tag_59:\n        /* \"#utility.yul\":1499:1536   */\n      swap1\n      pop\n        /* \"#utility.yul\":1591:1595   */\n      0x20\n        /* \"#utility.yul\":1585:1589   */\n      dup2\n        /* \"#utility.yul\":1581:1596   */\n      add\n        /* \"#utility.yul\":1573:1596   */\n      swap1\n      pop\n        /* \"#utility.yul\":1296:1603   */\n      swap2\n      swap1\n      pop\n      jump\t// out\n        /* \"#utility.yul\":1609:1763   */\n    tag_32:\n        /* \"#utility.yul\":1693:1699   */\n      dup3\n        /* \"#utility.yul\":1688:1691   */\n      dup2\n        /* \"#utility.yul\":1683:1686   */\n      dup4\n        /* \"#utility.yul\":1670:1700   */\n      calldatacopy\n        /* \"#utility.yul\":1755:1756   */\n      0x00\n        /* \"#utility.yul\":1746:1752   */\n      dup4\n        /* \"#utility.yul\":1741:1744   */\n      dup4\n        /* \"#utility.yul\":1737:1753   */\n      add\n        /* \"#utility.yul\":1730:1757   */\n      mstore\n        /* \"#utility.yul\":1609:1763   */\n      pop\n      pop\n      pop\n      jump\t// out\n        /* \"#utility.yul\":1769:2179   */\n    tag_33:\n        /* \"#utility.yul\":1846:1851   */\n      0x00\n        /* \"#utility.yul\":1871:1936   */\n      tag_62\n        /* \"#utility.yul\":1887:1935   */\n      tag_63\n        /* \"#utility.yul\":1928:1934   */\n      dup5\n        /* \"#utility.yul\":1887:1935   */\n      tag_31\n      jump\t// in\n    tag_63:\n        /* \"#utility.yul\":1871:1936   */\n      tag_30\n      jump\t// in\n    tag_62:\n        /* \"#utility.yul\":1862:1936   */\n      swap1\n      pop\n        /* \"#utility.yul\":1959:1965   */\n      dup3\n        /* \"#utility.yul\":1952:1957   */\n      dup2\n        /* \"#utility.yul\":1945:1966   */\n      mstore\n        /* \"#utility.yul\":1997:2001   */\n      0x20\n        /* \"#utility.yul\":1990:1995   */\n      dup2\n        /* \"#utility.yul\":1986:2002   */\n      add\n        /* \"#utility.yul\":2035:2038   */\n      dup5\n        /* \"#utility.yul\":2026:2032   */\n      dup5\n        /* \"#utility.yul\":2021:2024   */\n      dup5\n        /* \"#utility.yul\":2017:2033   */\n      add\n        /* \"#utility.yul\":2014:2039   */\n      gt\n        /* \"#utility.yul\":2011:2123   */\n      iszero\n      tag_64\n      jumpi\n        /* \"#utility.yul\":2042:2121   */\n      tag_65\n      tag_26\n      jump\t// in\n    tag_65:\n        /* \"#utility.yul\":2011:2123   */\n    tag_64:\n        /* \"#utility.yul\":2132:2173   */\n      tag_66\n        /* \"#utility.yul\":2166:2172   */\n      dup5\n        /* \"#utility.yul\":2161:2164   */\n      dup3\n        /* \"#utility.yul\":2156:2159   */\n      dup6\n        /* \"#utility.yul\":2132:2173   */\n      tag_32\n      jump\t// in\n    tag_66:\n        /* \"#utility.yul\":1852:2179   */\n      pop\n        /* \"#utility.yul\":1769:2179   */\n      swap4\n      swap3\n      pop\n      pop\n      pop\n      jump\t// out\n        /* \"#utility.yul\":2198:2536   */\n    tag_34:\n        /* \"#utility.yul\":2253:2258   */\n      0x00\n        /* \"#utility.yul\":2302:2305   */\n      dup3\n        /* \"#utility.yul\":2295:2299   */\n      0x1f\n        /* \"#utility.yul\":2287:2293   */\n      dup4\n        /* \"#utility.yul\":2283:2300   */\n      add\n        /* \"#utility.yul\":2279:2306   */\n      slt\n        /* \"#utility.yul\":2269:2391   */\n      tag_68\n      jumpi\n        /* \"#utility.yul\":2310:2389   */\n      tag_69\n      tag_25\n      jump\t// in\n    tag_69:\n        /* \"#utility.yul\":2269:2391   */\n    tag_68:\n        /* \"#utility.yul\":2427:2433   */\n      dup2\n        /* \"#utility.yul\":2414:2434   */\n      calldataload\n        /* \"#utility.yul\":2452:2530   */\n      tag_70\n        /* \"#utility.yul\":2526:2529   */\n      dup5\n        /* \"#utility.yul\":2518:2524   */\n      dup3\n        /* \"#utility.yul\":2511:2515   */\n      0x20\n        /* \"#utility.yul\":2503:2509   */\n      dup7\n        /* \"#utility.yul\":2499:2516   */\n      add\n        /* \"#utility.yul\":2452:2530   */\n      tag_33\n      jump\t// in\n    tag_70:\n        /* \"#utility.yul\":2443:2530   */\n      swap2\n      pop\n        /* \"#utility.yul\":2259:2536   */\n      pop\n        /* \"#utility.yul\":2198:2536   */\n      swap3\n      swap2\n      pop\n      pop\n      jump\t// out\n        /* \"#utility.yul\":2542:2619   */\n    tag_35:\n        /* \"#utility.yul\":2579:2586   */\n      0x00\n        /* \"#utility.yul\":2608:2613   */\n      dup2\n        /* \"#utility.yul\":2597:2613   */\n      swap1\n      pop\n        /* \"#utility.yul\":2542:2619   */\n      swap2\n      swap1\n      pop\n      jump\t// out\n        /* \"#utility.yul\":2625:2747   */\n    tag_36:\n        /* \"#utility.yul\":2698:2722   */\n      tag_73\n        /* \"#utility.yul\":2716:2721   */\n      dup2\n        /* \"#utility.yul\":2698:2722   */\n      tag_35\n      jump\t// in\n    tag_73:\n        /* \"#utility.yul\":2691:2696   */\n      dup2\n        /* \"#utility.yul\":2688:2723   */\n      eq\n        /* \"#utility.yul\":2678:2741   */\n      tag_74\n      jumpi\n        /* \"#utility.yul\":2737:2738   */\n      0x00\n        /* \"#utility.yul\":2734:2735   */\n      dup1\n        /* \"#utility.yul\":2727:2739   */\n      revert\n        /* \"#utility.yul\":2678:2741   */\n    tag_74:\n        /* \"#utility.yul\":2625:2747   */\n      pop\n      jump\t// out\n        /* \"#utility.yul\":2753:2892   */\n    tag_37:\n        /* \"#utility.yul\":2799:2804   */\n      0x00\n        /* \"#utility.yul\":2837:2843   */\n      dup2\n        /* \"#utility.yul\":2824:2844   */\n      calldataload\n        /* \"#utility.yul\":2815:2844   */\n      swap1\n      pop\n        /* \"#utility.yul\":2853:2886   */\n      tag_76\n        /* \"#utility.yul\":2880:2885   */\n      dup2\n        /* \"#utility.yul\":2853:2886   */\n      tag_36\n      jump\t// in\n    tag_76:\n        /* \"#utility.yul\":2753:2892   */\n      swap3\n      swap2\n      pop\n      pop\n      jump\t// out\n        /* \"#utility.yul\":2898:3550   */\n    tag_7:\n        /* \"#utility.yul\":2975:2981   */\n      0x00\n        /* \"#utility.yul\":2983:2989   */\n      dup1\n        /* \"#utility.yul\":3032:3034   */\n      0x40\n        /* \"#utility.yul\":3020:3029   */\n      dup4\n        /* \"#utility.yul\":3011:3018   */\n      dup6\n        /* \"#utility.yul\":3007:3030   */\n      sub\n        /* \"#utility.yul\":3003:3035   */\n      slt\n        /* \"#utility.yul\":3000:3119   */\n      iszero\n      tag_78\n      jumpi\n        /* \"#utility.yul\":3038:3117   */\n      tag_79\n      tag_23\n      jump\t// in\n    tag_79:\n        /* \"#utility.yul\":3000:3119   */\n    tag_78:\n        /* \"#utility.yul\":3186:3187   */\n      0x00\n        /* \"#utility.yul\":3175:3184   */\n      dup4\n        /* \"#utility.yul\":3171:3188   */\n      add\n        /* \"#utility.yul\":3158:3189   */\n      calldataload\n        /* \"#utility.yul\":3216:3234   */\n      0xffffffffffffffff\n        /* \"#utility.yul\":3208:3214   */\n      dup2\n        /* \"#utility.yul\":3205:3235   */\n      gt\n        /* \"#utility.yul\":3202:3319   */\n      iszero\n      tag_80\n      jumpi\n        /* \"#utility.yul\":3238:3317   */\n      tag_81\n      tag_24\n      jump\t// in\n    tag_81:\n        /* \"#utility.yul\":3202:3319   */\n    tag_80:\n        /* \"#utility.yul\":3343:3405   */\n      tag_82\n        /* \"#utility.yul\":3397:3404   */\n      dup6\n        /* \"#utility.yul\":3388:3394   */\n      dup3\n        /* \"#utility.yul\":3377:3386   */\n      dup7\n        /* \"#utility.yul\":3373:3395   */\n      add\n        /* \"#utility.yul\":3343:3405   */\n      tag_34\n      jump\t// in\n    tag_82:\n        /* \"#utility.yul\":3333:3405   */\n      swap3\n      pop\n        /* \"#utility.yul\":3129:3415   */\n      pop\n        /* \"#utility.yul\":3454:3456   */\n      0x20\n        /* \"#utility.yul\":3480:3533   */\n      tag_83\n        /* \"#utility.yul\":3525:3532   */\n      dup6\n        /* \"#utility.yul\":3516:3522   */\n      dup3\n        /* \"#utility.yul\":3505:3514   */\n      dup7\n        /* \"#utility.yul\":3501:3523   */\n      add\n        /* \"#utility.yul\":3480:3533   */\n      tag_37\n      jump\t// in\n    tag_83:\n        /* \"#utility.yul\":3470:3533   */\n      swap2\n      pop\n        /* \"#utility.yul\":3425:3543   */\n      pop\n        /* \"#utility.yul\":2898:3550   */\n      swap3\n      pop\n      swap3\n      swap1\n      pop\n      jump\t// out\n        /* \"#utility.yul\":3556:3682   */\n    tag_38:\n        /* \"#utility.yul\":3593:3600   */\n      0x00\n        /* \"#utility.yul\":3633:3675   */\n      0xffffffffffffffffffffffffffffffffffffffff\n        /* \"#utility.yul\":3626:3631   */\n      dup3\n        /* \"#utility.yul\":3622:3676   */\n      and\n        /* \"#utility.yul\":3611:3676   */\n      swap1\n      pop\n        /* \"#utility.yul\":3556:3682   */\n      swap2\n      swap1\n      pop\n      jump\t// out\n        /* \"#utility.yul\":3688:3784   */\n    tag_39:\n        /* \"#utility.yul\":3725:3732   */\n      0x00\n        /* \"#utility.yul\":3754:3778   */\n      tag_86\n        /* \"#utility.yul\":3772:3777   */\n      dup3\n        /* \"#utility.yul\":3754:3778   */\n      tag_38\n      jump\t// in\n    tag_86:\n        /* \"#utility.yul\":3743:3778   */\n      swap1\n      pop\n        /* \"#utility.yul\":3688:3784   */\n      swap2\n      swap1\n      pop\n      jump\t// out\n        /* \"#utility.yul\":3790:3908   */\n    tag_40:\n        /* \"#utility.yul\":3877:3901   */\n      tag_88\n        /* \"#utility.yul\":3895:3900   */\n      dup2\n        /* \"#utility.yul\":3877:3901   */\n      tag_39\n      jump\t// in\n    tag_88:\n        /* \"#utility.yul\":3872:3875   */\n      dup3\n        /* \"#utility.yul\":3865:3902   */\n      mstore\n        /* \"#utility.yul\":3790:3908   */\n      pop\n      pop\n      jump\t// out\n        /* \"#utility.yul\":3914:4136   */\n    tag_10:\n        /* \"#utility.yul\":4007:4011   */\n      0x00\n        /* \"#utility.yul\":4045:4047   */\n      0x20\n        /* \"#utility.yul\":4034:4043   */\n      dup3\n        /* \"#utility.yul\":4030:4048   */\n      add\n        /* \"#utility.yul\":4022:4048   */\n      swap1\n      pop\n        /* \"#utility.yul\":4058:4129   */\n      tag_90\n        /* \"#utility.yul\":4126:4127   */\n      0x00\n        /* \"#utility.yul\":4115:4124   */\n      dup4\n        /* \"#utility.yul\":4111:4128   */\n      add\n        /* \"#utility.yul\":4102:4108   */\n      dup5\n        /* \"#utility.yul\":4058:4129   */\n      tag_40\n      jump\t// in\n    tag_90:\n        /* \"#utility.yul\":3914:4136   */\n      swap3\n      swap2\n      pop\n      pop\n      jump\t// out\n        /* \"#utility.yul\":4142:4471   */\n    tag_13:\n        /* \"#utility.yul\":4201:4207   */\n      0x00\n        /* \"#utility.yul\":4250:4252   */\n      0x20\n        /* \"#utility.yul\":4238:4247   */\n      dup3\n        /* \"#utility.yul\":4229:4236   */\n      dup5\n        /* \"#utility.yul\":4225:4248   */\n      sub\n        /* \"#utility.yul\":4221:4253   */\n      slt\n        /* \"#utility.yul\":4218:4337   */\n      iszero\n      tag_92\n      jumpi\n        /* \"#utility.yul\":4256:4335   */\n      tag_93\n      tag_23\n      jump\t// in\n    tag_93:\n        /* \"#utility.yul\":4218:4337   */\n    tag_92:\n        /* \"#utility.yul\":4376:4377   */\n      0x00\n        /* \"#utility.yul\":4401:4454   */\n      tag_94\n        /* \"#utility.yul\":4446:4453   */\n      dup5\n        /* \"#utility.yul\":4437:4443   */\n      dup3\n        /* \"#utility.yul\":4426:4435   */\n      dup6\n        /* \"#utility.yul\":4422:4444   */\n      add\n        /* \"#utility.yul\":4401:4454   */\n      tag_37\n      jump\t// in\n    tag_94:\n        /* \"#utility.yul\":4391:4454   */\n      swap2\n      pop\n        /* \"#utility.yul\":4347:4464   */\n      pop\n        /* \"#utility.yul\":4142:4471   */\n      swap3\n      swap2\n      pop\n      pop\n      jump\t// out\n    stop\n\n    sub_0: assembly {\n            /* \"Day48_Create2.sol\":59:180  contract DeployWithCreate2 {... */\n          mstore(0x40, 0x80)\n            /* \"Day48_Create2.sol\":119:178  constructor(address _owner) {... */\n          callvalue\n          dup1\n          iszero\n          tag_1\n          jumpi\n          0x00\n          dup1\n          revert\n        tag_1:\n          pop\n          mload(0x40)\n          sub(codesize, bytecodeSize)\n          dup1\n          bytecodeSize\n          dup4\n          codecopy\n          dup2\n          dup2\n          add\n          0x40\n          mstore\n          dup2\n          add\n          swap1\n          tag_2\n          swap2\n          swap1\n          tag_3\n          jump\t// in\n        tag_2:\n            /* \"Day48_Create2.sol\":165:171  _owner */\n          dup1\n            /* \"Day48_Create2.sol\":157:162  owner */\n          0x00\n          dup1\n            /* \"Day48_Create2.sol\":157:171  owner = _owner */\n          0x0100\n          exp\n          dup2\n          sload\n          dup2\n          0xffffffffffffffffffffffffffffffffffffffff\n          mul\n          not\n          and\n          swap1\n          dup4\n          0xffffffffffffffffffffffffffffffffffffffff\n          and\n          mul\n          or\n          swap1\n          sstore\n          pop\n            /* \"Day48_Create2.sol\":119:178  constructor(address _owner) {... */\n          pop\n            /* \"Day48_Create2.sol\":59:180  contract DeployWithCreate2 {... */\n          jump(tag_6)\n            /* \"#utility.yul\":88:205   */\n        tag_8:\n            /* \"#utility.yul\":197:198   */\n          0x00\n            /* \"#utility.yul\":194:195   */\n          dup1\n            /* \"#utility.yul\":187:199   */\n          revert\n            /* \"#utility.yul\":334:460   */\n        tag_10:\n            /* \"#utility.yul\":371:378   */\n          0x00\n            /* \"#utility.yul\":411:453   */\n          0xffffffffffffffffffffffffffffffffffffffff\n            /* \"#utility.yul\":404:409   */\n          dup3\n            /* \"#utility.yul\":400:454   */\n          and\n            /* \"#utility.yul\":389:454   */\n          swap1\n          pop\n            /* \"#utility.yul\":334:460   */\n          swap2\n          swap1\n          pop\n          jump\t// out\n            /* \"#utility.yul\":466:562   */\n        tag_11:\n            /* \"#utility.yul\":503:510   */\n          0x00\n            /* \"#utility.yul\":532:556   */\n          tag_20\n            /* \"#utility.yul\":550:555   */\n          dup3\n            /* \"#utility.yul\":532:556   */\n          tag_10\n          jump\t// in\n        tag_20:\n            /* \"#utility.yul\":521:556   */\n          swap1\n          pop\n            /* \"#utility.yul\":466:562   */\n          swap2\n          swap1\n          pop\n          jump\t// out\n            /* \"#utility.yul\":568:690   */\n        tag_12:\n            /* \"#utility.yul\":641:665   */\n          tag_22\n            /* \"#utility.yul\":659:664   */\n          dup2\n            /* \"#utility.yul\":641:665   */\n          tag_11\n          jump\t// in\n        tag_22:\n            /* \"#utility.yul\":634:639   */\n          dup2\n            /* \"#utility.yul\":631:666   */\n          eq\n            /* \"#utility.yul\":621:684   */\n          tag_23\n          jumpi\n            /* \"#utility.yul\":680:681   */\n          0x00\n            /* \"#utility.yul\":677:678   */\n          dup1\n            /* \"#utility.yul\":670:682   */\n          revert\n            /* \"#utility.yul\":621:684   */\n        tag_23:\n            /* \"#utility.yul\":568:690   */\n          pop\n          jump\t// out\n            /* \"#utility.yul\":696:839   */\n        tag_13:\n            /* \"#utility.yul\":753:758   */\n          0x00\n            /* \"#utility.yul\":784:790   */\n          dup2\n            /* \"#utility.yul\":778:791   */\n          mload\n            /* \"#utility.yul\":769:791   */\n          swap1\n          pop\n            /* \"#utility.yul\":800:833   */\n          tag_25\n            /* \"#utility.yul\":827:832   */\n          dup2\n            /* \"#utility.yul\":800:833   */\n          tag_12\n          jump\t// in\n        tag_25:\n            /* \"#utility.yul\":696:839   */\n          swap3\n          swap2\n          pop\n          pop\n          jump\t// out\n            /* \"#utility.yul\":845:1196   */\n        tag_3:\n            /* \"#utility.yul\":915:921   */\n          0x00\n            /* \"#utility.yul\":964:966   */\n          0x20\n            /* \"#utility.yul\":952:961   */\n          dup3\n            /* \"#utility.yul\":943:950   */\n          dup5\n            /* \"#utility.yul\":939:962   */\n          sub\n            /* \"#utility.yul\":935:967   */\n          slt\n            /* \"#utility.yul\":932:1051   */\n          iszero\n          tag_27\n          jumpi\n            /* \"#utility.yul\":970:1049   */\n          tag_28\n          tag_8\n          jump\t// in\n        tag_28:\n            /* \"#utility.yul\":932:1051   */\n        tag_27:\n            /* \"#utility.yul\":1090:1091   */\n          0x00\n            /* \"#utility.yul\":1115:1179   */\n          tag_29\n            /* \"#utility.yul\":1171:1178   */\n          dup5\n            /* \"#utility.yul\":1162:1168   */\n          dup3\n            /* \"#utility.yul\":1151:1160   */\n          dup6\n            /* \"#utility.yul\":1147:1169   */\n          add\n            /* \"#utility.yul\":1115:1179   */\n          tag_13\n          jump\t// in\n        tag_29:\n            /* \"#utility.yul\":1105:1179   */\n          swap2\n          pop\n            /* \"#utility.yul\":1061:1189   */\n          pop\n            /* \"#utility.yul\":845:1196   */\n          swap3\n          swap2\n          pop\n          pop\n          jump\t// out\n            /* \"Day48_Create2.sol\":59:180  contract DeployWithCreate2 {... */\n        tag_6:\n          dataSize(sub_0)\n          dup1\n          dataOffset(sub_0)\n          0x00\n          codecopy\n          0x00\n          return\n        stop\n\n        sub_0: assembly {\n                /* \"Day48_Create2.sol\":59:180  contract DeployWithCreate2 {... */\n              mstore(0x40, 0x80)\n              callvalue\n              dup1\n              iszero\n              tag_1\n              jumpi\n              0x00\n              dup1\n              revert\n            tag_1:\n              pop\n              jumpi(tag_2, lt(calldatasize, 0x04))\n              shr(0xe0, calldataload(0x00))\n              dup1\n              0x8da5cb5b\n              eq\n              tag_3\n              jumpi\n            tag_2:\n              0x00\n              dup1\n              revert\n                /* \"Day48_Create2.sol\":92:112  address public owner */\n            tag_3:\n              tag_4\n              tag_5\n              jump\t// in\n            tag_4:\n              mload(0x40)\n              tag_6\n              swap2\n              swap1\n              tag_7\n              jump\t// in\n            tag_6:\n              mload(0x40)\n              dup1\n              swap2\n              sub\n              swap1\n              return\n            tag_5:\n              0x00\n              dup1\n              sload\n              swap1\n              0x0100\n              exp\n              swap1\n              div\n              0xffffffffffffffffffffffffffffffffffffffff\n              and\n              dup2\n              jump\t// out\n                /* \"#utility.yul\":7:133   */\n            tag_8:\n                /* \"#utility.yul\":44:51   */\n              0x00\n                /* \"#utility.yul\":84:126   */\n              0xffffffffffffffffffffffffffffffffffffffff\n                /* \"#utility.yul\":77:82   */\n              dup3\n                /* \"#utility.yul\":73:127   */\n              and\n                /* \"#utility.yul\":62:127   */\n              swap1\n              pop\n                /* \"#utility.yul\":7:133   */\n              swap2\n              swap1\n              pop\n              jump\t// out\n                /* \"#utility.yul\":139:235   */\n            tag_9:\n                /* \"#utility.yul\":176:183   */\n              0x00\n                /* \"#utility.yul\":205:229   */\n              tag_14\n                /* \"#utility.yul\":223:228   */\n              dup3\n                /* \"#utility.yul\":205:229   */\n              tag_8\n              jump\t// in\n            tag_14:\n                /* \"#utility.yul\":194:229   */\n              swap1\n              pop\n                /* \"#utility.yul\":139:235   */\n              swap2\n              swap1\n              pop\n              jump\t// out\n                /* \"#utility.yul\":241:359   */\n            tag_10:\n                /* \"#utility.yul\":328:352   */\n              tag_16\n                /* \"#utility.yul\":346:351   */\n              dup2\n                /* \"#utility.yul\":328:352   */\n              tag_9\n              jump\t// in\n            tag_16:\n                /* \"#utility.yul\":323:326   */\n              dup3\n                /* \"#utility.yul\":316:353   */\n              mstore\n                /* \"#utility.yul\":241:359   */\n              pop\n              pop\n              jump\t// out\n                /* \"#utility.yul\":365:587   */\n            tag_7:\n                /* \"#utility.yul\":458:462   */\n              0x00\n                /* \"#utility.yul\":496:498   */\n              0x20\n                /* \"#utility.yul\":485:494   */\n              dup3\n                /* \"#utility.yul\":481:499   */\n              add\n                /* \"#utility.yul\":473:499   */\n              swap1\n              pop\n                /* \"#utility.yul\":509:580   */\n              tag_18\n                /* \"#utility.yul\":577:578   */\n              0x00\n                /* \"#utility.yul\":566:575   */\n              dup4\n                /* \"#utility.yul\":562:579   */\n              add\n                /* \"#utility.yul\":553:559   */\n              dup5\n                /* \"#utility.yul\":509:580   */\n              tag_10\n              jump\t// in\n            tag_18:\n                /* \"#utility.yul\":365:587   */\n              swap3\n              swap2\n              pop\n              pop\n              jump\t// out\n\n            auxdata: 0xa2646970667358221220359529938acfea34cdd24c3ede0af9c2a7a59d914f2072139293de9b2dcc849264736f6c634300080f0033\n        }\n    }\n\n    auxdata: 0xa264697066735822122076142e5e4efcdc6612bdddac6a79811011c0c618ba4e5edf889700709a58bd9264736f6c634300080f0033\n}\n",
				"bytecode": {
					"linkReferences": {},
					"object": "608060405234801561001057600080fd5b506105cf806100206000396000f3fe608060405234801561001057600080fd5b50600436106100365760003560e01c806394ca2cb51461003b578063a5e387511461006b575b600080fd5b610055600480360381019061005091906102a7565b610087565b6040516100629190610344565b60405180910390f35b6100856004803603810190610080919061035f565b61008f565b005b600092915050565b60008160001b336040516100a29061010a565b6100ac9190610344565b8190604051809103906000f59050801580156100cc573d6000803e3d6000fd5b5090507f55ea6c6b31543d8e2ec6a72f71a79c0f4b72ed0d4757172b043d8f4f4cd84848816040516100fe9190610344565b60405180910390a15050565b61020d8061038d83390190565b6000604051905090565b600080fd5b600080fd5b600080fd5b600080fd5b6000601f19601f8301169050919050565b7f4e487b7100000000000000000000000000000000000000000000000000000000600052604160045260246000fd5b61017e82610135565b810181811067ffffffffffffffff8211171561019d5761019c610146565b5b80604052505050565b60006101b0610117565b90506101bc8282610175565b919050565b600067ffffffffffffffff8211156101dc576101db610146565b5b6101e582610135565b9050602081019050919050565b82818337600083830152505050565b600061021461020f846101c1565b6101a6565b9050828152602081018484840111156102305761022f610130565b5b61023b8482856101f2565b509392505050565b600082601f8301126102585761025761012b565b5b8135610268848260208601610201565b91505092915050565b6000819050919050565b61028481610271565b811461028f57600080fd5b50565b6000813590506102a18161027b565b92915050565b600080604083850312156102be576102bd610121565b5b600083013567ffffffffffffffff8111156102dc576102db610126565b5b6102e885828601610243565b92505060206102f985828601610292565b9150509250929050565b600073ffffffffffffffffffffffffffffffffffffffff82169050919050565b600061032e82610303565b9050919050565b61033e81610323565b82525050565b60006020820190506103596000830184610335565b92915050565b60006020828403121561037557610374610121565b5b600061038384828501610292565b9150509291505056fe608060405234801561001057600080fd5b5060405161020d38038061020d833981810160405281019061003291906100db565b806000806101000a81548173ffffffffffffffffffffffffffffffffffffffff021916908373ffffffffffffffffffffffffffffffffffffffff16021790555050610108565b600080fd5b600073ffffffffffffffffffffffffffffffffffffffff82169050919050565b60006100a88261007d565b9050919050565b6100b88161009d565b81146100c357600080fd5b50565b6000815190506100d5816100af565b92915050565b6000602082840312156100f1576100f0610078565b5b60006100ff848285016100c6565b91505092915050565b60f7806101166000396000f3fe6080604052348015600f57600080fd5b506004361060285760003560e01c80638da5cb5b14602d575b600080fd5b60336047565b604051603e919060a8565b60405180910390f35b60008054906101000a900473ffffffffffffffffffffffffffffffffffffffff1681565b600073ffffffffffffffffffffffffffffffffffffffff82169050919050565b6000609482606b565b9050919050565b60a281608b565b82525050565b600060208201905060bb6000830184609b565b9291505056fea2646970667358221220359529938acfea34cdd24c3ede0af9c2a7a59d914f2072139293de9b2dcc849264736f6c634300080f0033a264697066735822122076142e5e4efcdc6612bdddac6a79811011c0c618ba4e5edf889700709a58bd9264736f6c634300080f0033",
					"opcodes": "PUSH1 0x80 PUSH1 0x40 MSTORE CALLVALUE DUP1 ISZERO PUSH2 0x10 JUMPI PUSH1 0x0 DUP1 REVERT JUMPDEST POP PUSH2 0x5CF DUP1 PUSH2 0x20 PUSH1 0x0 CODECOPY PUSH1 0x0 RETURN INVALID PUSH1 0x80 PUSH1 0x40 MSTORE CALLVALUE DUP1 ISZERO PUSH2 0x10 JUMPI PUSH1 0x0 DUP1 REVERT JUMPDEST POP PUSH1 0x4 CALLDATASIZE LT PUSH2 0x36 JUMPI PUSH1 0x0 CALLDATALOAD PUSH1 0xE0 SHR DUP1 PUSH4 0x94CA2CB5 EQ PUSH2 0x3B JUMPI DUP1 PUSH4 0xA5E38751 EQ PUSH2 0x6B JUMPI JUMPDEST PUSH1 0x0 DUP1 REVERT JUMPDEST PUSH2 0x55 PUSH1 0x4 DUP1 CALLDATASIZE SUB DUP2 ADD SWAP1 PUSH2 0x50 SWAP2 SWAP1 PUSH2 0x2A7 JUMP JUMPDEST PUSH2 0x87 JUMP JUMPDEST PUSH1 0x40 MLOAD PUSH2 0x62 SWAP2 SWAP1 PUSH2 0x344 JUMP JUMPDEST PUSH1 0x40 MLOAD DUP1 SWAP2 SUB SWAP1 RETURN JUMPDEST PUSH2 0x85 PUSH1 0x4 DUP1 CALLDATASIZE SUB DUP2 ADD SWAP1 PUSH2 0x80 SWAP2 SWAP1 PUSH2 0x35F JUMP JUMPDEST PUSH2 0x8F JUMP JUMPDEST STOP JUMPDEST PUSH1 0x0 SWAP3 SWAP2 POP POP JUMP JUMPDEST PUSH1 0x0 DUP2 PUSH1 0x0 SHL CALLER PUSH1 0x40 MLOAD PUSH2 0xA2 SWAP1 PUSH2 0x10A JUMP JUMPDEST PUSH2 0xAC SWAP2 SWAP1 PUSH2 0x344 JUMP JUMPDEST DUP2 SWAP1 PUSH1 0x40 MLOAD DUP1 SWAP2 SUB SWAP1 PUSH1 0x0 CREATE2 SWAP1 POP DUP1 ISZERO DUP1 ISZERO PUSH2 0xCC JUMPI RETURNDATASIZE PUSH1 0x0 DUP1 RETURNDATACOPY RETURNDATASIZE PUSH1 0x0 REVERT JUMPDEST POP SWAP1 POP PUSH32 0x55EA6C6B31543D8E2EC6A72F71A79C0F4B72ED0D4757172B043D8F4F4CD84848 DUP2 PUSH1 0x40 MLOAD PUSH2 0xFE SWAP2 SWAP1 PUSH2 0x344 JUMP JUMPDEST PUSH1 0x40 MLOAD DUP1 SWAP2 SUB SWAP1 LOG1 POP POP JUMP JUMPDEST PUSH2 0x20D DUP1 PUSH2 0x38D DUP4 CODECOPY ADD SWAP1 JUMP JUMPDEST PUSH1 0x0 PUSH1 0x40 MLOAD SWAP1 POP SWAP1 JUMP JUMPDEST PUSH1 0x0 DUP1 REVERT JUMPDEST PUSH1 0x0 DUP1 REVERT JUMPDEST PUSH1 0x0 DUP1 REVERT JUMPDEST PUSH1 0x0 DUP1 REVERT JUMPDEST PUSH1 0x0 PUSH1 0x1F NOT PUSH1 0x1F DUP4 ADD AND SWAP1 POP SWAP2 SWAP1 POP JUMP JUMPDEST PUSH32 0x4E487B7100000000000000000000000000000000000000000000000000000000 PUSH1 0x0 MSTORE PUSH1 0x41 PUSH1 0x4 MSTORE PUSH1 0x24 PUSH1 0x0 REVERT JUMPDEST PUSH2 0x17E DUP3 PUSH2 0x135 JUMP JUMPDEST DUP2 ADD DUP2 DUP2 LT PUSH8 0xFFFFFFFFFFFFFFFF DUP3 GT OR ISZERO PUSH2 0x19D JUMPI PUSH2 0x19C PUSH2 0x146 JUMP JUMPDEST JUMPDEST DUP1 PUSH1 0x40 MSTORE POP POP POP JUMP JUMPDEST PUSH1 0x0 PUSH2 0x1B0 PUSH2 0x117 JUMP JUMPDEST SWAP1 POP PUSH2 0x1BC DUP3 DUP3 PUSH2 0x175 JUMP JUMPDEST SWAP2 SWAP1 POP JUMP JUMPDEST PUSH1 0x0 PUSH8 0xFFFFFFFFFFFFFFFF DUP3 GT ISZERO PUSH2 0x1DC JUMPI PUSH2 0x1DB PUSH2 0x146 JUMP JUMPDEST JUMPDEST PUSH2 0x1E5 DUP3 PUSH2 0x135 JUMP JUMPDEST SWAP1 POP PUSH1 0x20 DUP2 ADD SWAP1 POP SWAP2 SWAP1 POP JUMP JUMPDEST DUP3 DUP2 DUP4 CALLDATACOPY PUSH1 0x0 DUP4 DUP4 ADD MSTORE POP POP POP JUMP JUMPDEST PUSH1 0x0 PUSH2 0x214 PUSH2 0x20F DUP5 PUSH2 0x1C1 JUMP JUMPDEST PUSH2 0x1A6 JUMP JUMPDEST SWAP1 POP DUP3 DUP2 MSTORE PUSH1 0x20 DUP2 ADD DUP5 DUP5 DUP5 ADD GT ISZERO PUSH2 0x230 JUMPI PUSH2 0x22F PUSH2 0x130 JUMP JUMPDEST JUMPDEST PUSH2 0x23B DUP5 DUP3 DUP6 PUSH2 0x1F2 JUMP JUMPDEST POP SWAP4 SWAP3 POP POP POP JUMP JUMPDEST PUSH1 0x0 DUP3 PUSH1 0x1F DUP4 ADD SLT PUSH2 0x258 JUMPI PUSH2 0x257 PUSH2 0x12B JUMP JUMPDEST JUMPDEST DUP2 CALLDATALOAD PUSH2 0x268 DUP5 DUP3 PUSH1 0x20 DUP7 ADD PUSH2 0x201 JUMP JUMPDEST SWAP2 POP POP SWAP3 SWAP2 POP POP JUMP JUMPDEST PUSH1 0x0 DUP2 SWAP1 POP SWAP2 SWAP1 POP JUMP JUMPDEST PUSH2 0x284 DUP2 PUSH2 0x271 JUMP JUMPDEST DUP2 EQ PUSH2 0x28F JUMPI PUSH1 0x0 DUP1 REVERT JUMPDEST POP JUMP JUMPDEST PUSH1 0x0 DUP2 CALLDATALOAD SWAP1 POP PUSH2 0x2A1 DUP2 PUSH2 0x27B JUMP JUMPDEST SWAP3 SWAP2 POP POP JUMP JUMPDEST PUSH1 0x0 DUP1 PUSH1 0x40 DUP4 DUP6 SUB SLT ISZERO PUSH2 0x2BE JUMPI PUSH2 0x2BD PUSH2 0x121 JUMP JUMPDEST JUMPDEST PUSH1 0x0 DUP4 ADD CALLDATALOAD PUSH8 0xFFFFFFFFFFFFFFFF DUP2 GT ISZERO PUSH2 0x2DC JUMPI PUSH2 0x2DB PUSH2 0x126 JUMP JUMPDEST JUMPDEST PUSH2 0x2E8 DUP6 DUP3 DUP7 ADD PUSH2 0x243 JUMP JUMPDEST SWAP3 POP POP PUSH1 0x20 PUSH2 0x2F9 DUP6 DUP3 DUP7 ADD PUSH2 0x292 JUMP JUMPDEST SWAP2 POP POP SWAP3 POP SWAP3 SWAP1 POP JUMP JUMPDEST PUSH1 0x0 PUSH20 0xFFFFFFFFFFFFFFFFFFFFFFFFFFFFFFFFFFFFFFFF DUP3 AND SWAP1 POP SWAP2 SWAP1 POP JUMP JUMPDEST PUSH1 0x0 PUSH2 0x32E DUP3 PUSH2 0x303 JUMP JUMPDEST SWAP1 POP SWAP2 SWAP1 POP JUMP JUMPDEST PUSH2 0x33E DUP2 PUSH2 0x323 JUMP JUMPDEST DUP3 MSTORE POP POP JUMP JUMPDEST PUSH1 0x0 PUSH1 0x20 DUP3 ADD SWAP1 POP PUSH2 0x359 PUSH1 0x0 DUP4 ADD DUP5 PUSH2 0x335 JUMP JUMPDEST SWAP3 SWAP2 POP POP JUMP JUMPDEST PUSH1 0x0 PUSH1 0x20 DUP3 DUP5 SUB SLT ISZERO PUSH2 0x375 JUMPI PUSH2 0x374 PUSH2 0x121 JUMP JUMPDEST JUMPDEST PUSH1 0x0 PUSH2 0x383 DUP5 DUP3 DUP6 ADD PUSH2 0x292 JUMP JUMPDEST SWAP2 POP POP SWAP3 SWAP2 POP POP JUMP INVALID PUSH1 0x80 PUSH1 0x40 MSTORE CALLVALUE DUP1 ISZERO PUSH2 0x10 JUMPI PUSH1 0x0 DUP1 REVERT JUMPDEST POP PUSH1 0x40 MLOAD PUSH2 0x20D CODESIZE SUB DUP1 PUSH2 0x20D DUP4 CODECOPY DUP2 DUP2 ADD PUSH1 0x40 MSTORE DUP2 ADD SWAP1 PUSH2 0x32 SWAP2 SWAP1 PUSH2 0xDB JUMP JUMPDEST DUP1 PUSH1 0x0 DUP1 PUSH2 0x100 EXP DUP2 SLOAD DUP2 PUSH20 0xFFFFFFFFFFFFFFFFFFFFFFFFFFFFFFFFFFFFFFFF MUL NOT AND SWAP1 DUP4 PUSH20 0xFFFFFFFFFFFFFFFFFFFFFFFFFFFFFFFFFFFFFFFF AND MUL OR SWAP1 SSTORE POP POP PUSH2 0x108 JUMP JUMPDEST PUSH1 0x0 DUP1 REVERT JUMPDEST PUSH1 0x0 PUSH20 0xFFFFFFFFFFFFFFFFFFFFFFFFFFFFFFFFFFFFFFFF DUP3 AND SWAP1 POP SWAP2 SWAP1 POP JUMP JUMPDEST PUSH1 0x0 PUSH2 0xA8 DUP3 PUSH2 0x7D JUMP JUMPDEST SWAP1 POP SWAP2 SWAP1 POP JUMP JUMPDEST PUSH2 0xB8 DUP2 PUSH2 0x9D JUMP JUMPDEST DUP2 EQ PUSH2 0xC3 JUMPI PUSH1 0x0 DUP1 REVERT JUMPDEST POP JUMP JUMPDEST PUSH1 0x0 DUP2 MLOAD SWAP1 POP PUSH2 0xD5 DUP2 PUSH2 0xAF JUMP JUMPDEST SWAP3 SWAP2 POP POP JUMP JUMPDEST PUSH1 0x0 PUSH1 0x20 DUP3 DUP5 SUB SLT ISZERO PUSH2 0xF1 JUMPI PUSH2 0xF0 PUSH2 0x78 JUMP JUMPDEST JUMPDEST PUSH1 0x0 PUSH2 0xFF DUP5 DUP3 DUP6 ADD PUSH2 0xC6 JUMP JUMPDEST SWAP2 POP POP SWAP3 SWAP2 POP POP JUMP JUMPDEST PUSH1 0xF7 DUP1 PUSH2 0x116 PUSH1 0x0 CODECOPY PUSH1 0x0 RETURN INVALID PUSH1 0x80 PUSH1 0x40 MSTORE CALLVALUE DUP1 ISZERO PUSH1 0xF JUMPI PUSH1 0x0 DUP1 REVERT JUMPDEST POP PUSH1 0x4 CALLDATASIZE LT PUSH1 0x28 JUMPI PUSH1 0x0 CALLDATALOAD PUSH1 0xE0 SHR DUP1 PUSH4 0x8DA5CB5B EQ PUSH1 0x2D JUMPI JUMPDEST PUSH1 0x0 DUP1 REVERT JUMPDEST PUSH1 0x33 PUSH1 0x47 JUMP JUMPDEST PUSH1 0x40 MLOAD PUSH1 0x3E SWAP2 SWAP1 PUSH1 0xA8 JUMP JUMPDEST PUSH1 0x40 MLOAD DUP1 SWAP2 SUB SWAP1 RETURN JUMPDEST PUSH1 0x0 DUP1 SLOAD SWAP1 PUSH2 0x100 EXP SWAP1 DIV PUSH20 0xFFFFFFFFFFFFFFFFFFFFFFFFFFFFFFFFFFFFFFFF AND DUP2 JUMP JUMPDEST PUSH1 0x0 PUSH20 0xFFFFFFFFFFFFFFFFFFFFFFFFFFFFFFFFFFFFFFFF DUP3 AND SWAP1 POP SWAP2 SWAP1 POP JUMP JUMPDEST PUSH1 0x0 PUSH1 0x94 DUP3 PUSH1 0x6B JUMP JUMPDEST SWAP1 POP SWAP2 SWAP1 POP JUMP JUMPDEST PUSH1 0xA2 DUP2 PUSH1 0x8B JUMP JUMPDEST DUP3 MSTORE POP POP JUMP JUMPDEST PUSH1 0x0 PUSH1 0x20 DUP3 ADD SWAP1 POP PUSH1 0xBB PUSH1 0x0 DUP4 ADD DUP5 PUSH1 0x9B JUMP JUMPDEST SWAP3 SWAP2 POP POP JUMP INVALID LOG2 PUSH5 0x6970667358 0x22 SLT KECCAK256 CALLDATALOAD SWAP6 0x29 SWAP4 DUP11 0xCF 0xEA CALLVALUE 0xCD 0xD2 0x4C RETURNDATACOPY 0xDE EXP 0xF9 0xC2 0xA7 0xA5 SWAP14 SWAP2 0x4F KECCAK256 PUSH19 0x139293DE9B2DCC849264736F6C634300080F00 CALLER LOG2 PUSH5 0x6970667358 0x22 SLT KECCAK256 PUSH23 0x142E5E4EFCDC6612BDDDAC6A79811011C0C618BA4E5EDF DUP9 SWAP8 STOP PUSH17 0x9A58BD9264736F6C634300080F00330000 "
				},
				"gasEstimates": {
					"creation": {
						"codeDepositCost": "297400",
						"executionCost": "337",
						"totalCost": "297737"
					},
					"external": {
						"deploy(uint256)": "infinite",
						"getAddress(bytes,uint256)": "infinite"
					}
				},
				"methodIdentifiers": {
					"deploy(uint256)": "a5e38751",
					"getAddress(bytes,uint256)": "94ca2cb5"
				}
			},
			"storageLayout": {
				"storage": [],
				"types": null
			},
			"userdoc": {
				"kind": "user",
				"methods": {},
				"version": 1
			}
		}
	}
}