{
	"Day55_Reentracy.sol": {
		"EtherStore": {
			"abi": [
				{
					"inputs": [
						{
							"internalType": "address",
							"name": "",
							"type": "address"
						}
					],
					"name": "balances",
					"outputs": [
						{
							"internalType": "uint256",
							"name": "",
							"type": "uint256"
						}
					],
					"stateMutability": "view",
					"type": "function"
				},
				{
					"inputs": [
						{
							"internalType": "uint256",
							"name": "_amount",
							"type": "uint256"
						}
					],
					"name": "deposit",
					"outputs": [],
					"stateMutability": "payable",
					"type": "function"
				},
				{
					"inputs": [
						{
							"internalType": "uint256",
							"name": "_amount",
							"type": "uint256"
						}
					],
					"name": "withdraw",
					"outputs": [],
					"stateMutability": "nonpayable",
					"type": "function"
				}
			],
			"devdoc": {
				"kind": "dev",
				"methods": {},
				"version": 1
			},
			"evm": {
				"assembly": "    /* \"Day55_Reentracy.sol\":58:444  contract EtherStore {... */\n  mstore(0x40, 0x80)\n  callvalue\n  dup1\n  iszero\n  tag_1\n  jumpi\n  0x00\n  dup1\n  revert\ntag_1:\n  pop\n  dataSize(sub_0)\n  dup1\n  dataOffset(sub_0)\n  0x00\n  codecopy\n  0x00\n  return\nstop\n\nsub_0: assembly {\n        /* \"Day55_Reentracy.sol\":58:444  contract EtherStore {... */\n      mstore(0x40, 0x80)\n      jumpi(tag_1, lt(calldatasize, 0x04))\n      shr(0xe0, calldataload(0x00))\n      dup1\n      0x27e235e3\n      eq\n      tag_2\n      jumpi\n      dup1\n      0x2e1a7d4d\n      eq\n      tag_3\n      jumpi\n      dup1\n      0xb6b55f25\n      eq\n      tag_4\n      jumpi\n    tag_1:\n      0x00\n      dup1\n      revert\n        /* \"Day55_Reentracy.sol\":84:124  mapping(address => uint) public balances */\n    tag_2:\n      callvalue\n      dup1\n      iszero\n      tag_5\n      jumpi\n      0x00\n      dup1\n      revert\n    tag_5:\n      pop\n      tag_6\n      0x04\n      dup1\n      calldatasize\n      sub\n      dup2\n      add\n      swap1\n      tag_7\n      swap2\n      swap1\n      tag_8\n      jump\t// in\n    tag_7:\n      tag_9\n      jump\t// in\n    tag_6:\n      mload(0x40)\n      tag_10\n      swap2\n      swap1\n      tag_11\n      jump\t// in\n    tag_10:\n      mload(0x40)\n      dup1\n      swap2\n      sub\n      swap1\n      return\n        /* \"Day55_Reentracy.sol\":232:442  function withdraw(uint _amount) public {... */\n    tag_3:\n      callvalue\n      dup1\n      iszero\n      tag_12\n      jumpi\n      0x00\n      dup1\n      revert\n    tag_12:\n      pop\n      tag_13\n      0x04\n      dup1\n      calldatasize\n      sub\n      dup2\n      add\n      swap1\n      tag_14\n      swap2\n      swap1\n      tag_15\n      jump\t// in\n    tag_14:\n      tag_16\n      jump\t// in\n    tag_13:\n      stop\n        /* \"Day55_Reentracy.sol\":131:226  function deposit(uint _amount) public payable {... */\n    tag_4:\n      tag_17\n      0x04\n      dup1\n      calldatasize\n      sub\n      dup2\n      add\n      swap1\n      tag_18\n      swap2\n      swap1\n      tag_15\n      jump\t// in\n    tag_18:\n      tag_19\n      jump\t// in\n    tag_17:\n      stop\n        /* \"Day55_Reentracy.sol\":84:124  mapping(address => uint) public balances */\n    tag_9:\n      mstore(0x20, 0x00)\n      dup1\n      0x00\n      mstore\n      keccak256(0x00, 0x40)\n      0x00\n      swap2\n      pop\n      swap1\n      pop\n      sload\n      dup2\n      jump\t// out\n        /* \"Day55_Reentracy.sol\":232:442  function withdraw(uint _amount) public {... */\n    tag_16:\n        /* \"Day55_Reentracy.sol\":313:320  _amount */\n      dup1\n        /* \"Day55_Reentracy.sol\":289:297  balances */\n      0x00\n        /* \"Day55_Reentracy.sol\":289:309  balances[msg.sender] */\n      dup1\n        /* \"Day55_Reentracy.sol\":298:308  msg.sender */\n      caller\n        /* \"Day55_Reentracy.sol\":289:309  balances[msg.sender] */\n      0xffffffffffffffffffffffffffffffffffffffff\n      and\n      0xffffffffffffffffffffffffffffffffffffffff\n      and\n      dup2\n      mstore\n      0x20\n      add\n      swap1\n      dup2\n      mstore\n      0x20\n      add\n      0x00\n      keccak256\n      sload\n        /* \"Day55_Reentracy.sol\":289:320  balances[msg.sender] >= _amount */\n      lt\n      iszero\n        /* \"Day55_Reentracy.sol\":281:321  require(balances[msg.sender] >= _amount) */\n      tag_21\n      jumpi\n      0x00\n      dup1\n      revert\n    tag_21:\n        /* \"Day55_Reentracy.sol\":332:341  bool sent */\n      0x00\n        /* \"Day55_Reentracy.sol\":355:365  msg.sender */\n      caller\n        /* \"Day55_Reentracy.sol\":347:371  payable(msg.sender).call */\n      0xffffffffffffffffffffffffffffffffffffffff\n      and\n        /* \"Day55_Reentracy.sol\":378:385  _amount */\n      dup3\n        /* \"Day55_Reentracy.sol\":347:390  payable(msg.sender).call{value:_amount}(\"\") */\n      mload(0x40)\n      tag_22\n      swap1\n      tag_23\n      jump\t// in\n    tag_22:\n      0x00\n      mload(0x40)\n      dup1\n      dup4\n      sub\n      dup2\n      dup6\n      dup8\n      gas\n      call\n      swap3\n      pop\n      pop\n      pop\n      returndatasize\n      dup1\n      0x00\n      dup2\n      eq\n      tag_26\n      jumpi\n      mload(0x40)\n      swap2\n      pop\n      and(add(returndatasize, 0x3f), not(0x1f))\n      dup3\n      add\n      0x40\n      mstore\n      returndatasize\n      dup3\n      mstore\n      returndatasize\n      0x00\n      0x20\n      dup5\n      add\n      returndatacopy\n      jump(tag_25)\n    tag_26:\n      0x60\n      swap2\n      pop\n    tag_25:\n      pop\n        /* \"Day55_Reentracy.sol\":331:390  (bool sent, ) = payable(msg.sender).call{value:_amount}(\"\") */\n      pop\n      swap1\n      pop\n        /* \"Day55_Reentracy.sol\":408:412  sent */\n      dup1\n        /* \"Day55_Reentracy.sol\":400:435  require(sent, \"fail to send ether\") */\n      tag_27\n      jumpi\n      mload(0x40)\n      0x08c379a000000000000000000000000000000000000000000000000000000000\n      dup2\n      mstore\n      0x04\n      add\n      tag_28\n      swap1\n      tag_29\n      jump\t// in\n    tag_28:\n      mload(0x40)\n      dup1\n      swap2\n      sub\n      swap1\n      revert\n    tag_27:\n        /* \"Day55_Reentracy.sol\":271:442  {... */\n      pop\n        /* \"Day55_Reentracy.sol\":232:442  function withdraw(uint _amount) public {... */\n      pop\n      jump\t// out\n        /* \"Day55_Reentracy.sol\":131:226  function deposit(uint _amount) public payable {... */\n    tag_19:\n        /* \"Day55_Reentracy.sol\":210:219  msg.value */\n      callvalue\n        /* \"Day55_Reentracy.sol\":187:195  balances */\n      0x00\n        /* \"Day55_Reentracy.sol\":187:207  balances[msg.sender] */\n      dup1\n        /* \"Day55_Reentracy.sol\":196:206  msg.sender */\n      caller\n        /* \"Day55_Reentracy.sol\":187:207  balances[msg.sender] */\n      0xffffffffffffffffffffffffffffffffffffffff\n      and\n      0xffffffffffffffffffffffffffffffffffffffff\n      and\n      dup2\n      mstore\n      0x20\n      add\n      swap1\n      dup2\n      mstore\n      0x20\n      add\n      0x00\n      keccak256\n        /* \"Day55_Reentracy.sol\":187:219  balances[msg.sender] = msg.value */\n      dup2\n      swap1\n      sstore\n      pop\n        /* \"Day55_Reentracy.sol\":131:226  function deposit(uint _amount) public payable {... */\n      pop\n      jump\t// out\n        /* \"#utility.yul\":7:146   */\n    tag_32:\n        /* \"#utility.yul\":53:58   */\n      0x00\n        /* \"#utility.yul\":91:97   */\n      dup2\n        /* \"#utility.yul\":78:98   */\n      calldataload\n        /* \"#utility.yul\":69:98   */\n      swap1\n      pop\n        /* \"#utility.yul\":107:140   */\n      tag_34\n        /* \"#utility.yul\":134:139   */\n      dup2\n        /* \"#utility.yul\":107:140   */\n      tag_35\n      jump\t// in\n    tag_34:\n        /* \"#utility.yul\":7:146   */\n      swap3\n      swap2\n      pop\n      pop\n      jump\t// out\n        /* \"#utility.yul\":152:291   */\n    tag_36:\n        /* \"#utility.yul\":198:203   */\n      0x00\n        /* \"#utility.yul\":236:242   */\n      dup2\n        /* \"#utility.yul\":223:243   */\n      calldataload\n        /* \"#utility.yul\":214:243   */\n      swap1\n      pop\n        /* \"#utility.yul\":252:285   */\n      tag_38\n        /* \"#utility.yul\":279:284   */\n      dup2\n        /* \"#utility.yul\":252:285   */\n      tag_39\n      jump\t// in\n    tag_38:\n        /* \"#utility.yul\":152:291   */\n      swap3\n      swap2\n      pop\n      pop\n      jump\t// out\n        /* \"#utility.yul\":297:626   */\n    tag_8:\n        /* \"#utility.yul\":356:362   */\n      0x00\n        /* \"#utility.yul\":405:407   */\n      0x20\n        /* \"#utility.yul\":393:402   */\n      dup3\n        /* \"#utility.yul\":384:391   */\n      dup5\n        /* \"#utility.yul\":380:403   */\n      sub\n        /* \"#utility.yul\":376:408   */\n      slt\n        /* \"#utility.yul\":373:492   */\n      iszero\n      tag_41\n      jumpi\n        /* \"#utility.yul\":411:490   */\n      tag_42\n      tag_43\n      jump\t// in\n    tag_42:\n        /* \"#utility.yul\":373:492   */\n    tag_41:\n        /* \"#utility.yul\":531:532   */\n      0x00\n        /* \"#utility.yul\":556:609   */\n      tag_44\n        /* \"#utility.yul\":601:608   */\n      dup5\n        /* \"#utility.yul\":592:598   */\n      dup3\n        /* \"#utility.yul\":581:590   */\n      dup6\n        /* \"#utility.yul\":577:599   */\n      add\n        /* \"#utility.yul\":556:609   */\n      tag_32\n      jump\t// in\n    tag_44:\n        /* \"#utility.yul\":546:609   */\n      swap2\n      pop\n        /* \"#utility.yul\":502:619   */\n      pop\n        /* \"#utility.yul\":297:626   */\n      swap3\n      swap2\n      pop\n      pop\n      jump\t// out\n        /* \"#utility.yul\":632:961   */\n    tag_15:\n        /* \"#utility.yul\":691:697   */\n      0x00\n        /* \"#utility.yul\":740:742   */\n      0x20\n        /* \"#utility.yul\":728:737   */\n      dup3\n        /* \"#utility.yul\":719:726   */\n      dup5\n        /* \"#utility.yul\":715:738   */\n      sub\n        /* \"#utility.yul\":711:743   */\n      slt\n        /* \"#utility.yul\":708:827   */\n      iszero\n      tag_46\n      jumpi\n        /* \"#utility.yul\":746:825   */\n      tag_47\n      tag_43\n      jump\t// in\n    tag_47:\n        /* \"#utility.yul\":708:827   */\n    tag_46:\n        /* \"#utility.yul\":866:867   */\n      0x00\n        /* \"#utility.yul\":891:944   */\n      tag_48\n        /* \"#utility.yul\":936:943   */\n      dup5\n        /* \"#utility.yul\":927:933   */\n      dup3\n        /* \"#utility.yul\":916:925   */\n      dup6\n        /* \"#utility.yul\":912:934   */\n      add\n        /* \"#utility.yul\":891:944   */\n      tag_36\n      jump\t// in\n    tag_48:\n        /* \"#utility.yul\":881:944   */\n      swap2\n      pop\n        /* \"#utility.yul\":837:954   */\n      pop\n        /* \"#utility.yul\":632:961   */\n      swap3\n      swap2\n      pop\n      pop\n      jump\t// out\n        /* \"#utility.yul\":967:1333   */\n    tag_49:\n        /* \"#utility.yul\":1109:1112   */\n      0x00\n        /* \"#utility.yul\":1130:1197   */\n      tag_51\n        /* \"#utility.yul\":1194:1196   */\n      0x12\n        /* \"#utility.yul\":1189:1192   */\n      dup4\n        /* \"#utility.yul\":1130:1197   */\n      tag_52\n      jump\t// in\n    tag_51:\n        /* \"#utility.yul\":1123:1197   */\n      swap2\n      pop\n        /* \"#utility.yul\":1206:1299   */\n      tag_53\n        /* \"#utility.yul\":1295:1298   */\n      dup3\n        /* \"#utility.yul\":1206:1299   */\n      tag_54\n      jump\t// in\n    tag_53:\n        /* \"#utility.yul\":1324:1326   */\n      0x20\n        /* \"#utility.yul\":1319:1322   */\n      dup3\n        /* \"#utility.yul\":1315:1327   */\n      add\n        /* \"#utility.yul\":1308:1327   */\n      swap1\n      pop\n        /* \"#utility.yul\":967:1333   */\n      swap2\n      swap1\n      pop\n      jump\t// out\n        /* \"#utility.yul\":1339:1737   */\n    tag_55:\n        /* \"#utility.yul\":1498:1501   */\n      0x00\n        /* \"#utility.yul\":1519:1602   */\n      tag_57\n        /* \"#utility.yul\":1600:1601   */\n      0x00\n        /* \"#utility.yul\":1595:1598   */\n      dup4\n        /* \"#utility.yul\":1519:1602   */\n      tag_58\n      jump\t// in\n    tag_57:\n        /* \"#utility.yul\":1512:1602   */\n      swap2\n      pop\n        /* \"#utility.yul\":1611:1704   */\n      tag_59\n        /* \"#utility.yul\":1700:1703   */\n      dup3\n        /* \"#utility.yul\":1611:1704   */\n      tag_60\n      jump\t// in\n    tag_59:\n        /* \"#utility.yul\":1729:1730   */\n      0x00\n        /* \"#utility.yul\":1724:1727   */\n      dup3\n        /* \"#utility.yul\":1720:1731   */\n      add\n        /* \"#utility.yul\":1713:1731   */\n      swap1\n      pop\n        /* \"#utility.yul\":1339:1737   */\n      swap2\n      swap1\n      pop\n      jump\t// out\n        /* \"#utility.yul\":1743:1861   */\n    tag_61:\n        /* \"#utility.yul\":1830:1854   */\n      tag_63\n        /* \"#utility.yul\":1848:1853   */\n      dup2\n        /* \"#utility.yul\":1830:1854   */\n      tag_64\n      jump\t// in\n    tag_63:\n        /* \"#utility.yul\":1825:1828   */\n      dup3\n        /* \"#utility.yul\":1818:1855   */\n      mstore\n        /* \"#utility.yul\":1743:1861   */\n      pop\n      pop\n      jump\t// out\n        /* \"#utility.yul\":1867:2246   */\n    tag_23:\n        /* \"#utility.yul\":2051:2054   */\n      0x00\n        /* \"#utility.yul\":2073:2220   */\n      tag_66\n        /* \"#utility.yul\":2216:2219   */\n      dup3\n        /* \"#utility.yul\":2073:2220   */\n      tag_55\n      jump\t// in\n    tag_66:\n        /* \"#utility.yul\":2066:2220   */\n      swap2\n      pop\n        /* \"#utility.yul\":2237:2240   */\n      dup2\n        /* \"#utility.yul\":2230:2240   */\n      swap1\n      pop\n        /* \"#utility.yul\":1867:2246   */\n      swap2\n      swap1\n      pop\n      jump\t// out\n        /* \"#utility.yul\":2252:2671   */\n    tag_29:\n        /* \"#utility.yul\":2418:2422   */\n      0x00\n        /* \"#utility.yul\":2456:2458   */\n      0x20\n        /* \"#utility.yul\":2445:2454   */\n      dup3\n        /* \"#utility.yul\":2441:2459   */\n      add\n        /* \"#utility.yul\":2433:2459   */\n      swap1\n      pop\n        /* \"#utility.yul\":2505:2514   */\n      dup2\n        /* \"#utility.yul\":2499:2503   */\n      dup2\n        /* \"#utility.yul\":2495:2515   */\n      sub\n        /* \"#utility.yul\":2491:2492   */\n      0x00\n        /* \"#utility.yul\":2480:2489   */\n      dup4\n        /* \"#utility.yul\":2476:2493   */\n      add\n        /* \"#utility.yul\":2469:2516   */\n      mstore\n        /* \"#utility.yul\":2533:2664   */\n      tag_68\n        /* \"#utility.yul\":2659:2663   */\n      dup2\n        /* \"#utility.yul\":2533:2664   */\n      tag_49\n      jump\t// in\n    tag_68:\n        /* \"#utility.yul\":2525:2664   */\n      swap1\n      pop\n        /* \"#utility.yul\":2252:2671   */\n      swap2\n      swap1\n      pop\n      jump\t// out\n        /* \"#utility.yul\":2677:2899   */\n    tag_11:\n        /* \"#utility.yul\":2770:2774   */\n      0x00\n        /* \"#utility.yul\":2808:2810   */\n      0x20\n        /* \"#utility.yul\":2797:2806   */\n      dup3\n        /* \"#utility.yul\":2793:2811   */\n      add\n        /* \"#utility.yul\":2785:2811   */\n      swap1\n      pop\n        /* \"#utility.yul\":2821:2892   */\n      tag_70\n        /* \"#utility.yul\":2889:2890   */\n      0x00\n        /* \"#utility.yul\":2878:2887   */\n      dup4\n        /* \"#utility.yul\":2874:2891   */\n      add\n        /* \"#utility.yul\":2865:2871   */\n      dup5\n        /* \"#utility.yul\":2821:2892   */\n      tag_61\n      jump\t// in\n    tag_70:\n        /* \"#utility.yul\":2677:2899   */\n      swap3\n      swap2\n      pop\n      pop\n      jump\t// out\n        /* \"#utility.yul\":2986:3133   */\n    tag_58:\n        /* \"#utility.yul\":3087:3098   */\n      0x00\n        /* \"#utility.yul\":3124:3127   */\n      dup2\n        /* \"#utility.yul\":3109:3127   */\n      swap1\n      pop\n        /* \"#utility.yul\":2986:3133   */\n      swap3\n      swap2\n      pop\n      pop\n      jump\t// out\n        /* \"#utility.yul\":3139:3308   */\n    tag_52:\n        /* \"#utility.yul\":3223:3234   */\n      0x00\n        /* \"#utility.yul\":3257:3263   */\n      dup3\n        /* \"#utility.yul\":3252:3255   */\n      dup3\n        /* \"#utility.yul\":3245:3264   */\n      mstore\n        /* \"#utility.yul\":3297:3301   */\n      0x20\n        /* \"#utility.yul\":3292:3295   */\n      dup3\n        /* \"#utility.yul\":3288:3302   */\n      add\n        /* \"#utility.yul\":3273:3302   */\n      swap1\n      pop\n        /* \"#utility.yul\":3139:3308   */\n      swap3\n      swap2\n      pop\n      pop\n      jump\t// out\n        /* \"#utility.yul\":3314:3410   */\n    tag_75:\n        /* \"#utility.yul\":3351:3358   */\n      0x00\n        /* \"#utility.yul\":3380:3404   */\n      tag_77\n        /* \"#utility.yul\":3398:3403   */\n      dup3\n        /* \"#utility.yul\":3380:3404   */\n      tag_78\n      jump\t// in\n    tag_77:\n        /* \"#utility.yul\":3369:3404   */\n      swap1\n      pop\n        /* \"#utility.yul\":3314:3410   */\n      swap2\n      swap1\n      pop\n      jump\t// out\n        /* \"#utility.yul\":3416:3542   */\n    tag_78:\n        /* \"#utility.yul\":3453:3460   */\n      0x00\n        /* \"#utility.yul\":3493:3535   */\n      0xffffffffffffffffffffffffffffffffffffffff\n        /* \"#utility.yul\":3486:3491   */\n      dup3\n        /* \"#utility.yul\":3482:3536   */\n      and\n        /* \"#utility.yul\":3471:3536   */\n      swap1\n      pop\n        /* \"#utility.yul\":3416:3542   */\n      swap2\n      swap1\n      pop\n      jump\t// out\n        /* \"#utility.yul\":3548:3625   */\n    tag_64:\n        /* \"#utility.yul\":3585:3592   */\n      0x00\n        /* \"#utility.yul\":3614:3619   */\n      dup2\n        /* \"#utility.yul\":3603:3619   */\n      swap1\n      pop\n        /* \"#utility.yul\":3548:3625   */\n      swap2\n      swap1\n      pop\n      jump\t// out\n        /* \"#utility.yul\":3754:3871   */\n    tag_43:\n        /* \"#utility.yul\":3863:3864   */\n      0x00\n        /* \"#utility.yul\":3860:3861   */\n      dup1\n        /* \"#utility.yul\":3853:3865   */\n      revert\n        /* \"#utility.yul\":3877:4045   */\n    tag_54:\n        /* \"#utility.yul\":4017:4037   */\n      0x6661696c20746f2073656e642065746865720000000000000000000000000000\n        /* \"#utility.yul\":4013:4014   */\n      0x00\n        /* \"#utility.yul\":4005:4011   */\n      dup3\n        /* \"#utility.yul\":4001:4015   */\n      add\n        /* \"#utility.yul\":3994:4038   */\n      mstore\n        /* \"#utility.yul\":3877:4045   */\n      pop\n      jump\t// out\n        /* \"#utility.yul\":4051:4165   */\n    tag_60:\n      pop\n      jump\t// out\n        /* \"#utility.yul\":4171:4293   */\n    tag_35:\n        /* \"#utility.yul\":4244:4268   */\n      tag_87\n        /* \"#utility.yul\":4262:4267   */\n      dup2\n        /* \"#utility.yul\":4244:4268   */\n      tag_75\n      jump\t// in\n    tag_87:\n        /* \"#utility.yul\":4237:4242   */\n      dup2\n        /* \"#utility.yul\":4234:4269   */\n      eq\n        /* \"#utility.yul\":4224:4287   */\n      tag_88\n      jumpi\n        /* \"#utility.yul\":4283:4284   */\n      0x00\n        /* \"#utility.yul\":4280:4281   */\n      dup1\n        /* \"#utility.yul\":4273:4285   */\n      revert\n        /* \"#utility.yul\":4224:4287   */\n    tag_88:\n        /* \"#utility.yul\":4171:4293   */\n      pop\n      jump\t// out\n        /* \"#utility.yul\":4299:4421   */\n    tag_39:\n        /* \"#utility.yul\":4372:4396   */\n      tag_90\n        /* \"#utility.yul\":4390:4395   */\n      dup2\n        /* \"#utility.yul\":4372:4396   */\n      tag_64\n      jump\t// in\n    tag_90:\n        /* \"#utility.yul\":4365:4370   */\n      dup2\n        /* \"#utility.yul\":4362:4397   */\n      eq\n        /* \"#utility.yul\":4352:4415   */\n      tag_91\n      jumpi\n        /* \"#utility.yul\":4411:4412   */\n      0x00\n        /* \"#utility.yul\":4408:4409   */\n      dup1\n        /* \"#utility.yul\":4401:4413   */\n      revert\n        /* \"#utility.yul\":4352:4415   */\n    tag_91:\n        /* \"#utility.yul\":4299:4421   */\n      pop\n      jump\t// out\n\n    auxdata: 0xa2646970667358221220812bdda22a0f51c5b7fa67e97448814dfd1c71d36e792639bef5e8fc850ebb0d64736f6c63430008070033\n}\n",
				"bytecode": {
					"linkReferences": {},
					"object": "608060405234801561001057600080fd5b5061042a806100206000396000f3fe6080604052600436106100345760003560e01c806327e235e3146100395780632e1a7d4d14610076578063b6b55f251461009f575b600080fd5b34801561004557600080fd5b50610060600480360381019061005b919061023e565b6100bb565b60405161006d9190610322565b60405180910390f35b34801561008257600080fd5b5061009d6004803603810190610098919061026b565b6100d3565b005b6100b960048036038101906100b4919061026b565b6101ce565b005b60006020528060005260406000206000915090505481565b806000803373ffffffffffffffffffffffffffffffffffffffff1673ffffffffffffffffffffffffffffffffffffffff16815260200190815260200160002054101561011e57600080fd5b60003373ffffffffffffffffffffffffffffffffffffffff1682604051610144906102ed565b60006040518083038185875af1925050503d8060008114610181576040519150601f19603f3d011682016040523d82523d6000602084013e610186565b606091505b50509050806101ca576040517f08c379a00000000000000000000000000000000000000000000000000000000081526004016101c190610302565b60405180910390fd5b5050565b346000803373ffffffffffffffffffffffffffffffffffffffff1673ffffffffffffffffffffffffffffffffffffffff1681526020019081526020016000208190555050565b600081359050610223816103c6565b92915050565b600081359050610238816103dd565b92915050565b60006020828403121561025457610253610395565b5b600061026284828501610214565b91505092915050565b60006020828403121561028157610280610395565b5b600061028f84828501610229565b91505092915050565b60006102a5601283610348565b91506102b08261039a565b602082019050919050565b60006102c860008361033d565b91506102d3826103c3565b600082019050919050565b6102e78161038b565b82525050565b60006102f8826102bb565b9150819050919050565b6000602082019050818103600083015261031b81610298565b9050919050565b600060208201905061033760008301846102de565b92915050565b600081905092915050565b600082825260208201905092915050565b60006103648261036b565b9050919050565b600073ffffffffffffffffffffffffffffffffffffffff82169050919050565b6000819050919050565b600080fd5b7f6661696c20746f2073656e642065746865720000000000000000000000000000600082015250565b50565b6103cf81610359565b81146103da57600080fd5b50565b6103e68161038b565b81146103f157600080fd5b5056fea2646970667358221220812bdda22a0f51c5b7fa67e97448814dfd1c71d36e792639bef5e8fc850ebb0d64736f6c63430008070033",
					"opcodes": "PUSH1 0x80 PUSH1 0x40 MSTORE CALLVALUE DUP1 ISZERO PUSH2 0x10 JUMPI PUSH1 0x0 DUP1 REVERT JUMPDEST POP PUSH2 0x42A DUP1 PUSH2 0x20 PUSH1 0x0 CODECOPY PUSH1 0x0 RETURN INVALID PUSH1 0x80 PUSH1 0x40 MSTORE PUSH1 0x4 CALLDATASIZE LT PUSH2 0x34 JUMPI PUSH1 0x0 CALLDATALOAD PUSH1 0xE0 SHR DUP1 PUSH4 0x27E235E3 EQ PUSH2 0x39 JUMPI DUP1 PUSH4 0x2E1A7D4D EQ PUSH2 0x76 JUMPI DUP1 PUSH4 0xB6B55F25 EQ PUSH2 0x9F JUMPI JUMPDEST PUSH1 0x0 DUP1 REVERT JUMPDEST CALLVALUE DUP1 ISZERO PUSH2 0x45 JUMPI PUSH1 0x0 DUP1 REVERT JUMPDEST POP PUSH2 0x60 PUSH1 0x4 DUP1 CALLDATASIZE SUB DUP2 ADD SWAP1 PUSH2 0x5B SWAP2 SWAP1 PUSH2 0x23E JUMP JUMPDEST PUSH2 0xBB JUMP JUMPDEST PUSH1 0x40 MLOAD PUSH2 0x6D SWAP2 SWAP1 PUSH2 0x322 JUMP JUMPDEST PUSH1 0x40 MLOAD DUP1 SWAP2 SUB SWAP1 RETURN JUMPDEST CALLVALUE DUP1 ISZERO PUSH2 0x82 JUMPI PUSH1 0x0 DUP1 REVERT JUMPDEST POP PUSH2 0x9D PUSH1 0x4 DUP1 CALLDATASIZE SUB DUP2 ADD SWAP1 PUSH2 0x98 SWAP2 SWAP1 PUSH2 0x26B JUMP JUMPDEST PUSH2 0xD3 JUMP JUMPDEST STOP JUMPDEST PUSH2 0xB9 PUSH1 0x4 DUP1 CALLDATASIZE SUB DUP2 ADD SWAP1 PUSH2 0xB4 SWAP2 SWAP1 PUSH2 0x26B JUMP JUMPDEST PUSH2 0x1CE JUMP JUMPDEST STOP JUMPDEST PUSH1 0x0 PUSH1 0x20 MSTORE DUP1 PUSH1 0x0 MSTORE PUSH1 0x40 PUSH1 0x0 KECCAK256 PUSH1 0x0 SWAP2 POP SWAP1 POP SLOAD DUP2 JUMP JUMPDEST DUP1 PUSH1 0x0 DUP1 CALLER PUSH20 0xFFFFFFFFFFFFFFFFFFFFFFFFFFFFFFFFFFFFFFFF AND PUSH20 0xFFFFFFFFFFFFFFFFFFFFFFFFFFFFFFFFFFFFFFFF AND DUP2 MSTORE PUSH1 0x20 ADD SWAP1 DUP2 MSTORE PUSH1 0x20 ADD PUSH1 0x0 KECCAK256 SLOAD LT ISZERO PUSH2 0x11E JUMPI PUSH1 0x0 DUP1 REVERT JUMPDEST PUSH1 0x0 CALLER PUSH20 0xFFFFFFFFFFFFFFFFFFFFFFFFFFFFFFFFFFFFFFFF AND DUP3 PUSH1 0x40 MLOAD PUSH2 0x144 SWAP1 PUSH2 0x2ED JUMP JUMPDEST PUSH1 0x0 PUSH1 0x40 MLOAD DUP1 DUP4 SUB DUP2 DUP6 DUP8 GAS CALL SWAP3 POP POP POP RETURNDATASIZE DUP1 PUSH1 0x0 DUP2 EQ PUSH2 0x181 JUMPI PUSH1 0x40 MLOAD SWAP2 POP PUSH1 0x1F NOT PUSH1 0x3F RETURNDATASIZE ADD AND DUP3 ADD PUSH1 0x40 MSTORE RETURNDATASIZE DUP3 MSTORE RETURNDATASIZE PUSH1 0x0 PUSH1 0x20 DUP5 ADD RETURNDATACOPY PUSH2 0x186 JUMP JUMPDEST PUSH1 0x60 SWAP2 POP JUMPDEST POP POP SWAP1 POP DUP1 PUSH2 0x1CA JUMPI PUSH1 0x40 MLOAD PUSH32 0x8C379A000000000000000000000000000000000000000000000000000000000 DUP2 MSTORE PUSH1 0x4 ADD PUSH2 0x1C1 SWAP1 PUSH2 0x302 JUMP JUMPDEST PUSH1 0x40 MLOAD DUP1 SWAP2 SUB SWAP1 REVERT JUMPDEST POP POP JUMP JUMPDEST CALLVALUE PUSH1 0x0 DUP1 CALLER PUSH20 0xFFFFFFFFFFFFFFFFFFFFFFFFFFFFFFFFFFFFFFFF AND PUSH20 0xFFFFFFFFFFFFFFFFFFFFFFFFFFFFFFFFFFFFFFFF AND DUP2 MSTORE PUSH1 0x20 ADD SWAP1 DUP2 MSTORE PUSH1 0x20 ADD PUSH1 0x0 KECCAK256 DUP2 SWAP1 SSTORE POP POP JUMP JUMPDEST PUSH1 0x0 DUP2 CALLDATALOAD SWAP1 POP PUSH2 0x223 DUP2 PUSH2 0x3C6 JUMP JUMPDEST SWAP3 SWAP2 POP POP JUMP JUMPDEST PUSH1 0x0 DUP2 CALLDATALOAD SWAP1 POP PUSH2 0x238 DUP2 PUSH2 0x3DD JUMP JUMPDEST SWAP3 SWAP2 POP POP JUMP JUMPDEST PUSH1 0x0 PUSH1 0x20 DUP3 DUP5 SUB SLT ISZERO PUSH2 0x254 JUMPI PUSH2 0x253 PUSH2 0x395 JUMP JUMPDEST JUMPDEST PUSH1 0x0 PUSH2 0x262 DUP5 DUP3 DUP6 ADD PUSH2 0x214 JUMP JUMPDEST SWAP2 POP POP SWAP3 SWAP2 POP POP JUMP JUMPDEST PUSH1 0x0 PUSH1 0x20 DUP3 DUP5 SUB SLT ISZERO PUSH2 0x281 JUMPI PUSH2 0x280 PUSH2 0x395 JUMP JUMPDEST JUMPDEST PUSH1 0x0 PUSH2 0x28F DUP5 DUP3 DUP6 ADD PUSH2 0x229 JUMP JUMPDEST SWAP2 POP POP SWAP3 SWAP2 POP POP JUMP JUMPDEST PUSH1 0x0 PUSH2 0x2A5 PUSH1 0x12 DUP4 PUSH2 0x348 JUMP JUMPDEST SWAP2 POP PUSH2 0x2B0 DUP3 PUSH2 0x39A JUMP JUMPDEST PUSH1 0x20 DUP3 ADD SWAP1 POP SWAP2 SWAP1 POP JUMP JUMPDEST PUSH1 0x0 PUSH2 0x2C8 PUSH1 0x0 DUP4 PUSH2 0x33D JUMP JUMPDEST SWAP2 POP PUSH2 0x2D3 DUP3 PUSH2 0x3C3 JUMP JUMPDEST PUSH1 0x0 DUP3 ADD SWAP1 POP SWAP2 SWAP1 POP JUMP JUMPDEST PUSH2 0x2E7 DUP2 PUSH2 0x38B JUMP JUMPDEST DUP3 MSTORE POP POP JUMP JUMPDEST PUSH1 0x0 PUSH2 0x2F8 DUP3 PUSH2 0x2BB JUMP JUMPDEST SWAP2 POP DUP2 SWAP1 POP SWAP2 SWAP1 POP JUMP JUMPDEST PUSH1 0x0 PUSH1 0x20 DUP3 ADD SWAP1 POP DUP2 DUP2 SUB PUSH1 0x0 DUP4 ADD MSTORE PUSH2 0x31B DUP2 PUSH2 0x298 JUMP JUMPDEST SWAP1 POP SWAP2 SWAP1 POP JUMP JUMPDEST PUSH1 0x0 PUSH1 0x20 DUP3 ADD SWAP1 POP PUSH2 0x337 PUSH1 0x0 DUP4 ADD DUP5 PUSH2 0x2DE JUMP JUMPDEST SWAP3 SWAP2 POP POP JUMP JUMPDEST PUSH1 0x0 DUP2 SWAP1 POP SWAP3 SWAP2 POP POP JUMP JUMPDEST PUSH1 0x0 DUP3 DUP3 MSTORE PUSH1 0x20 DUP3 ADD SWAP1 POP SWAP3 SWAP2 POP POP JUMP JUMPDEST PUSH1 0x0 PUSH2 0x364 DUP3 PUSH2 0x36B JUMP JUMPDEST SWAP1 POP SWAP2 SWAP1 POP JUMP JUMPDEST PUSH1 0x0 PUSH20 0xFFFFFFFFFFFFFFFFFFFFFFFFFFFFFFFFFFFFFFFF DUP3 AND SWAP1 POP SWAP2 SWAP1 POP JUMP JUMPDEST PUSH1 0x0 DUP2 SWAP1 POP SWAP2 SWAP1 POP JUMP JUMPDEST PUSH1 0x0 DUP1 REVERT JUMPDEST PUSH32 0x6661696C20746F2073656E642065746865720000000000000000000000000000 PUSH1 0x0 DUP3 ADD MSTORE POP JUMP JUMPDEST POP JUMP JUMPDEST PUSH2 0x3CF DUP2 PUSH2 0x359 JUMP JUMPDEST DUP2 EQ PUSH2 0x3DA JUMPI PUSH1 0x0 DUP1 REVERT JUMPDEST POP JUMP JUMPDEST PUSH2 0x3E6 DUP2 PUSH2 0x38B JUMP JUMPDEST DUP2 EQ PUSH2 0x3F1 JUMPI PUSH1 0x0 DUP1 REVERT JUMPDEST POP JUMP INVALID LOG2 PUSH5 0x6970667358 0x22 SLT KECCAK256 DUP2 0x2B 0xDD LOG2 0x2A 0xF MLOAD 0xC5 0xB7 STATICCALL PUSH8 0xE97448814DFD1C71 0xD3 PUSH15 0x792639BEF5E8FC850EBB0D64736F6C PUSH4 0x43000807 STOP CALLER "
				},
				"gasEstimates": {
					"creation": {
						"codeDepositCost": "213200",
						"executionCost": "257",
						"totalCost": "213457"
					},
					"external": {
						"balances(address)": "2792",
						"deposit(uint256)": "22606",
						"withdraw(uint256)": "infinite"
					}
				},
				"methodIdentifiers": {
					"balances(address)": "27e235e3",
					"deposit(uint256)": "b6b55f25",
					"withdraw(uint256)": "2e1a7d4d"
				}
			},
			"storageLayout": {
				"storage": [
					{
						"astId": 5,
						"contract": "Day55_Reentracy.sol:EtherStore",
						"label": "balances",
						"offset": 0,
						"slot": "0",
						"type": "t_mapping(t_address,t_uint256)"
					}
				],
				"types": {
					"t_address": {
						"encoding": "inplace",
						"label": "address",
						"numberOfBytes": "20"
					},
					"t_mapping(t_address,t_uint256)": {
						"encoding": "mapping",
						"key": "t_address",
						"label": "mapping(address => uint256)",
						"numberOfBytes": "32",
						"value": "t_uint256"
					},
					"t_uint256": {
						"encoding": "inplace",
						"label": "uint256",
						"numberOfBytes": "32"
					}
				}
			},
			"userdoc": {
				"kind": "user",
				"methods": {},
				"version": 1
			}
		}
	}
}