{
	"data": {
		"bytecode": {
			"linkReferences": {},
			"object": "608060405234801561001057600080fd5b50610951806100206000396000f3fe608060405234801561001057600080fd5b50600436106100415760003560e01c80630c6008af1461004657806394ca2cb514610076578063a5e38751146100a6575b600080fd5b610060600480360381019061005b9190610279565b6100c2565b60405161006d919061033f565b60405180910390f35b610090600480360381019061008b91906104cc565b610135565b60405161009d9190610537565b60405180910390f35b6100c060048036038101906100bb9190610552565b61017f565b005b60606000604051806020016100d6906101fa565b6020820181038252601f19601f82011660405250905080836040516020016100fe9190610537565b60405160208183030381529060405260405160200161011e9291906105bb565b604051602081830303815290604052915050919050565b60008060ff60f81b3084868051906020012060405160200161015a94939291906106c0565b6040516020818303038152906040528051906020012090508060001c91505092915050565b60008160001b33604051610192906101fa565b61019c9190610537565b8190604051809103906000f59050801580156101bc573d6000803e3d6000fd5b5090507f55ea6c6b31543d8e2ec6a72f71a79c0f4b72ed0d4757172b043d8f4f4cd84848816040516101ee9190610537565b60405180910390a15050565b61020d8061070f83390190565b6000604051905090565b600080fd5b600080fd5b600073ffffffffffffffffffffffffffffffffffffffff82169050919050565b60006102468261021b565b9050919050565b6102568161023b565b811461026157600080fd5b50565b6000813590506102738161024d565b92915050565b60006020828403121561028f5761028e610211565b5b600061029d84828501610264565b91505092915050565b600081519050919050565b600082825260208201905092915050565b60005b838110156102e05780820151818401526020810190506102c5565b838111156102ef576000848401525b50505050565b6000601f19601f8301169050919050565b6000610311826102a6565b61031b81856102b1565b935061032b8185602086016102c2565b610334816102f5565b840191505092915050565b600060208201905081810360008301526103598184610306565b905092915050565b600080fd5b600080fd5b7f4e487b7100000000000000000000000000000000000000000000000000000000600052604160045260246000fd5b6103a3826102f5565b810181811067ffffffffffffffff821117156103c2576103c161036b565b5b80604052505050565b60006103d5610207565b90506103e1828261039a565b919050565b600067ffffffffffffffff8211156104015761040061036b565b5b61040a826102f5565b9050602081019050919050565b82818337600083830152505050565b6000610439610434846103e6565b6103cb565b90508281526020810184848401111561045557610454610366565b5b610460848285610417565b509392505050565b600082601f83011261047d5761047c610361565b5b813561048d848260208601610426565b91505092915050565b6000819050919050565b6104a981610496565b81146104b457600080fd5b50565b6000813590506104c6816104a0565b92915050565b600080604083850312156104e3576104e2610211565b5b600083013567ffffffffffffffff81111561050157610500610216565b5b61050d85828601610468565b925050602061051e858286016104b7565b9150509250929050565b6105318161023b565b82525050565b600060208201905061054c6000830184610528565b92915050565b60006020828403121561056857610567610211565b5b6000610576848285016104b7565b91505092915050565b600081905092915050565b6000610595826102a6565b61059f818561057f565b93506105af8185602086016102c2565b80840191505092915050565b60006105c7828561058a565b91506105d3828461058a565b91508190509392505050565b60007fff0000000000000000000000000000000000000000000000000000000000000082169050919050565b6000819050919050565b610626610621826105df565b61060b565b82525050565b60008160601b9050919050565b60006106448261062c565b9050919050565b600061065682610639565b9050919050565b61066e6106698261023b565b61064b565b82525050565b6000819050919050565b61068f61068a82610496565b610674565b82525050565b6000819050919050565b6000819050919050565b6106ba6106b582610695565b61069f565b82525050565b60006106cc8287610615565b6001820191506106dc828661065d565b6014820191506106ec828561067e565b6020820191506106fc82846106a9565b6020820191508190509594505050505056fe608060405234801561001057600080fd5b5060405161020d38038061020d833981810160405281019061003291906100db565b806000806101000a81548173ffffffffffffffffffffffffffffffffffffffff021916908373ffffffffffffffffffffffffffffffffffffffff16021790555050610108565b600080fd5b600073ffffffffffffffffffffffffffffffffffffffff82169050919050565b60006100a88261007d565b9050919050565b6100b88161009d565b81146100c357600080fd5b50565b6000815190506100d5816100af565b92915050565b6000602082840312156100f1576100f0610078565b5b60006100ff848285016100c6565b91505092915050565b60f7806101166000396000f3fe6080604052348015600f57600080fd5b506004361060285760003560e01c80638da5cb5b14602d575b600080fd5b60336047565b604051603e919060a8565b60405180910390f35b60008054906101000a900473ffffffffffffffffffffffffffffffffffffffff1681565b600073ffffffffffffffffffffffffffffffffffffffff82169050919050565b6000609482606b565b9050919050565b60a281608b565b82525050565b600060208201905060bb6000830184609b565b9291505056fea26469706673582212202abafe923a8411fec0907c5f5c4da7596b7b1651e403a285251055c58cd16a6d64736f6c634300080f0033a2646970667358221220c15004eaefe89e4c36e42640981cbb6cc23a0a066788c85670b4231cdb1e299b64736f6c634300080f0033",
			"opcodes": "PUSH1 0x80 PUSH1 0x40 MSTORE CALLVALUE DUP1 ISZERO PUSH2 0x10 JUMPI PUSH1 0x0 DUP1 REVERT JUMPDEST POP PUSH2 0x951 DUP1 PUSH2 0x20 PUSH1 0x0 CODECOPY PUSH1 0x0 RETURN INVALID PUSH1 0x80 PUSH1 0x40 MSTORE CALLVALUE DUP1 ISZERO PUSH2 0x10 JUMPI PUSH1 0x0 DUP1 REVERT JUMPDEST POP PUSH1 0x4 CALLDATASIZE LT PUSH2 0x41 JUMPI PUSH1 0x0 CALLDATALOAD PUSH1 0xE0 SHR DUP1 PUSH4 0xC6008AF EQ PUSH2 0x46 JUMPI DUP1 PUSH4 0x94CA2CB5 EQ PUSH2 0x76 JUMPI DUP1 PUSH4 0xA5E38751 EQ PUSH2 0xA6 JUMPI JUMPDEST PUSH1 0x0 DUP1 REVERT JUMPDEST PUSH2 0x60 PUSH1 0x4 DUP1 CALLDATASIZE SUB DUP2 ADD SWAP1 PUSH2 0x5B SWAP2 SWAP1 PUSH2 0x279 JUMP JUMPDEST PUSH2 0xC2 JUMP JUMPDEST PUSH1 0x40 MLOAD PUSH2 0x6D SWAP2 SWAP1 PUSH2 0x33F JUMP JUMPDEST PUSH1 0x40 MLOAD DUP1 SWAP2 SUB SWAP1 RETURN JUMPDEST PUSH2 0x90 PUSH1 0x4 DUP1 CALLDATASIZE SUB DUP2 ADD SWAP1 PUSH2 0x8B SWAP2 SWAP1 PUSH2 0x4CC JUMP JUMPDEST PUSH2 0x135 JUMP JUMPDEST PUSH1 0x40 MLOAD PUSH2 0x9D SWAP2 SWAP1 PUSH2 0x537 JUMP JUMPDEST PUSH1 0x40 MLOAD DUP1 SWAP2 SUB SWAP1 RETURN JUMPDEST PUSH2 0xC0 PUSH1 0x4 DUP1 CALLDATASIZE SUB DUP2 ADD SWAP1 PUSH2 0xBB SWAP2 SWAP1 PUSH2 0x552 JUMP JUMPDEST PUSH2 0x17F JUMP JUMPDEST STOP JUMPDEST PUSH1 0x60 PUSH1 0x0 PUSH1 0x40 MLOAD DUP1 PUSH1 0x20 ADD PUSH2 0xD6 SWAP1 PUSH2 0x1FA JUMP JUMPDEST PUSH1 0x20 DUP3 ADD DUP2 SUB DUP3 MSTORE PUSH1 0x1F NOT PUSH1 0x1F DUP3 ADD AND PUSH1 0x40 MSTORE POP SWAP1 POP DUP1 DUP4 PUSH1 0x40 MLOAD PUSH1 0x20 ADD PUSH2 0xFE SWAP2 SWAP1 PUSH2 0x537 JUMP JUMPDEST PUSH1 0x40 MLOAD PUSH1 0x20 DUP2 DUP4 SUB SUB DUP2 MSTORE SWAP1 PUSH1 0x40 MSTORE PUSH1 0x40 MLOAD PUSH1 0x20 ADD PUSH2 0x11E SWAP3 SWAP2 SWAP1 PUSH2 0x5BB JUMP JUMPDEST PUSH1 0x40 MLOAD PUSH1 0x20 DUP2 DUP4 SUB SUB DUP2 MSTORE SWAP1 PUSH1 0x40 MSTORE SWAP2 POP POP SWAP2 SWAP1 POP JUMP JUMPDEST PUSH1 0x0 DUP1 PUSH1 0xFF PUSH1 0xF8 SHL ADDRESS DUP5 DUP7 DUP1 MLOAD SWAP1 PUSH1 0x20 ADD KECCAK256 PUSH1 0x40 MLOAD PUSH1 0x20 ADD PUSH2 0x15A SWAP5 SWAP4 SWAP3 SWAP2 SWAP1 PUSH2 0x6C0 JUMP JUMPDEST PUSH1 0x40 MLOAD PUSH1 0x20 DUP2 DUP4 SUB SUB DUP2 MSTORE SWAP1 PUSH1 0x40 MSTORE DUP1 MLOAD SWAP1 PUSH1 0x20 ADD KECCAK256 SWAP1 POP DUP1 PUSH1 0x0 SHR SWAP2 POP POP SWAP3 SWAP2 POP POP JUMP JUMPDEST PUSH1 0x0 DUP2 PUSH1 0x0 SHL CALLER PUSH1 0x40 MLOAD PUSH2 0x192 SWAP1 PUSH2 0x1FA JUMP JUMPDEST PUSH2 0x19C SWAP2 SWAP1 PUSH2 0x537 JUMP JUMPDEST DUP2 SWAP1 PUSH1 0x40 MLOAD DUP1 SWAP2 SUB SWAP1 PUSH1 0x0 CREATE2 SWAP1 POP DUP1 ISZERO DUP1 ISZERO PUSH2 0x1BC JUMPI RETURNDATASIZE PUSH1 0x0 DUP1 RETURNDATACOPY RETURNDATASIZE PUSH1 0x0 REVERT JUMPDEST POP SWAP1 POP PUSH32 0x55EA6C6B31543D8E2EC6A72F71A79C0F4B72ED0D4757172B043D8F4F4CD84848 DUP2 PUSH1 0x40 MLOAD PUSH2 0x1EE SWAP2 SWAP1 PUSH2 0x537 JUMP JUMPDEST PUSH1 0x40 MLOAD DUP1 SWAP2 SUB SWAP1 LOG1 POP POP JUMP JUMPDEST PUSH2 0x20D DUP1 PUSH2 0x70F DUP4 CODECOPY ADD SWAP1 JUMP JUMPDEST PUSH1 0x0 PUSH1 0x40 MLOAD SWAP1 POP SWAP1 JUMP JUMPDEST PUSH1 0x0 DUP1 REVERT JUMPDEST PUSH1 0x0 DUP1 REVERT JUMPDEST PUSH1 0x0 PUSH20 0xFFFFFFFFFFFFFFFFFFFFFFFFFFFFFFFFFFFFFFFF DUP3 AND SWAP1 POP SWAP2 SWAP1 POP JUMP JUMPDEST PUSH1 0x0 PUSH2 0x246 DUP3 PUSH2 0x21B JUMP JUMPDEST SWAP1 POP SWAP2 SWAP1 POP JUMP JUMPDEST PUSH2 0x256 DUP2 PUSH2 0x23B JUMP JUMPDEST DUP2 EQ PUSH2 0x261 JUMPI PUSH1 0x0 DUP1 REVERT JUMPDEST POP JUMP JUMPDEST PUSH1 0x0 DUP2 CALLDATALOAD SWAP1 POP PUSH2 0x273 DUP2 PUSH2 0x24D JUMP JUMPDEST SWAP3 SWAP2 POP POP JUMP JUMPDEST PUSH1 0x0 PUSH1 0x20 DUP3 DUP5 SUB SLT ISZERO PUSH2 0x28F JUMPI PUSH2 0x28E PUSH2 0x211 JUMP JUMPDEST JUMPDEST PUSH1 0x0 PUSH2 0x29D DUP5 DUP3 DUP6 ADD PUSH2 0x264 JUMP JUMPDEST SWAP2 POP POP SWAP3 SWAP2 POP POP JUMP JUMPDEST PUSH1 0x0 DUP2 MLOAD SWAP1 POP SWAP2 SWAP1 POP JUMP JUMPDEST PUSH1 0x0 DUP3 DUP3 MSTORE PUSH1 0x20 DUP3 ADD SWAP1 POP SWAP3 SWAP2 POP POP JUMP JUMPDEST PUSH1 0x0 JUMPDEST DUP4 DUP2 LT ISZERO PUSH2 0x2E0 JUMPI DUP1 DUP3 ADD MLOAD DUP2 DUP5 ADD MSTORE PUSH1 0x20 DUP2 ADD SWAP1 POP PUSH2 0x2C5 JUMP JUMPDEST DUP4 DUP2 GT ISZERO PUSH2 0x2EF JUMPI PUSH1 0x0 DUP5 DUP5 ADD MSTORE JUMPDEST POP POP POP POP JUMP JUMPDEST PUSH1 0x0 PUSH1 0x1F NOT PUSH1 0x1F DUP4 ADD AND SWAP1 POP SWAP2 SWAP1 POP JUMP JUMPDEST PUSH1 0x0 PUSH2 0x311 DUP3 PUSH2 0x2A6 JUMP JUMPDEST PUSH2 0x31B DUP2 DUP6 PUSH2 0x2B1 JUMP JUMPDEST SWAP4 POP PUSH2 0x32B DUP2 DUP6 PUSH1 0x20 DUP7 ADD PUSH2 0x2C2 JUMP JUMPDEST PUSH2 0x334 DUP2 PUSH2 0x2F5 JUMP JUMPDEST DUP5 ADD SWAP2 POP POP SWAP3 SWAP2 POP POP JUMP JUMPDEST PUSH1 0x0 PUSH1 0x20 DUP3 ADD SWAP1 POP DUP2 DUP2 SUB PUSH1 0x0 DUP4 ADD MSTORE PUSH2 0x359 DUP2 DUP5 PUSH2 0x306 JUMP JUMPDEST SWAP1 POP SWAP3 SWAP2 POP POP JUMP JUMPDEST PUSH1 0x0 DUP1 REVERT JUMPDEST PUSH1 0x0 DUP1 REVERT JUMPDEST PUSH32 0x4E487B7100000000000000000000000000000000000000000000000000000000 PUSH1 0x0 MSTORE PUSH1 0x41 PUSH1 0x4 MSTORE PUSH1 0x24 PUSH1 0x0 REVERT JUMPDEST PUSH2 0x3A3 DUP3 PUSH2 0x2F5 JUMP JUMPDEST DUP2 ADD DUP2 DUP2 LT PUSH8 0xFFFFFFFFFFFFFFFF DUP3 GT OR ISZERO PUSH2 0x3C2 JUMPI PUSH2 0x3C1 PUSH2 0x36B JUMP JUMPDEST JUMPDEST DUP1 PUSH1 0x40 MSTORE POP POP POP JUMP JUMPDEST PUSH1 0x0 PUSH2 0x3D5 PUSH2 0x207 JUMP JUMPDEST SWAP1 POP PUSH2 0x3E1 DUP3 DUP3 PUSH2 0x39A JUMP JUMPDEST SWAP2 SWAP1 POP JUMP JUMPDEST PUSH1 0x0 PUSH8 0xFFFFFFFFFFFFFFFF DUP3 GT ISZERO PUSH2 0x401 JUMPI PUSH2 0x400 PUSH2 0x36B JUMP JUMPDEST JUMPDEST PUSH2 0x40A DUP3 PUSH2 0x2F5 JUMP JUMPDEST SWAP1 POP PUSH1 0x20 DUP2 ADD SWAP1 POP SWAP2 SWAP1 POP JUMP JUMPDEST DUP3 DUP2 DUP4 CALLDATACOPY PUSH1 0x0 DUP4 DUP4 ADD MSTORE POP POP POP JUMP JUMPDEST PUSH1 0x0 PUSH2 0x439 PUSH2 0x434 DUP5 PUSH2 0x3E6 JUMP JUMPDEST PUSH2 0x3CB JUMP JUMPDEST SWAP1 POP DUP3 DUP2 MSTORE PUSH1 0x20 DUP2 ADD DUP5 DUP5 DUP5 ADD GT ISZERO PUSH2 0x455 JUMPI PUSH2 0x454 PUSH2 0x366 JUMP JUMPDEST JUMPDEST PUSH2 0x460 DUP5 DUP3 DUP6 PUSH2 0x417 JUMP JUMPDEST POP SWAP4 SWAP3 POP POP POP JUMP JUMPDEST PUSH1 0x0 DUP3 PUSH1 0x1F DUP4 ADD SLT PUSH2 0x47D JUMPI PUSH2 0x47C PUSH2 0x361 JUMP JUMPDEST JUMPDEST DUP2 CALLDATALOAD PUSH2 0x48D DUP5 DUP3 PUSH1 0x20 DUP7 ADD PUSH2 0x426 JUMP JUMPDEST SWAP2 POP POP SWAP3 SWAP2 POP POP JUMP JUMPDEST PUSH1 0x0 DUP2 SWAP1 POP SWAP2 SWAP1 POP JUMP JUMPDEST PUSH2 0x4A9 DUP2 PUSH2 0x496 JUMP JUMPDEST DUP2 EQ PUSH2 0x4B4 JUMPI PUSH1 0x0 DUP1 REVERT JUMPDEST POP JUMP JUMPDEST PUSH1 0x0 DUP2 CALLDATALOAD SWAP1 POP PUSH2 0x4C6 DUP2 PUSH2 0x4A0 JUMP JUMPDEST SWAP3 SWAP2 POP POP JUMP JUMPDEST PUSH1 0x0 DUP1 PUSH1 0x40 DUP4 DUP6 SUB SLT ISZERO PUSH2 0x4E3 JUMPI PUSH2 0x4E2 PUSH2 0x211 JUMP JUMPDEST JUMPDEST PUSH1 0x0 DUP4 ADD CALLDATALOAD PUSH8 0xFFFFFFFFFFFFFFFF DUP2 GT ISZERO PUSH2 0x501 JUMPI PUSH2 0x500 PUSH2 0x216 JUMP JUMPDEST JUMPDEST PUSH2 0x50D DUP6 DUP3 DUP7 ADD PUSH2 0x468 JUMP JUMPDEST SWAP3 POP POP PUSH1 0x20 PUSH2 0x51E DUP6 DUP3 DUP7 ADD PUSH2 0x4B7 JUMP JUMPDEST SWAP2 POP POP SWAP3 POP SWAP3 SWAP1 POP JUMP JUMPDEST PUSH2 0x531 DUP2 PUSH2 0x23B JUMP JUMPDEST DUP3 MSTORE POP POP JUMP JUMPDEST PUSH1 0x0 PUSH1 0x20 DUP3 ADD SWAP1 POP PUSH2 0x54C PUSH1 0x0 DUP4 ADD DUP5 PUSH2 0x528 JUMP JUMPDEST SWAP3 SWAP2 POP POP JUMP JUMPDEST PUSH1 0x0 PUSH1 0x20 DUP3 DUP5 SUB SLT ISZERO PUSH2 0x568 JUMPI PUSH2 0x567 PUSH2 0x211 JUMP JUMPDEST JUMPDEST PUSH1 0x0 PUSH2 0x576 DUP5 DUP3 DUP6 ADD PUSH2 0x4B7 JUMP JUMPDEST SWAP2 POP POP SWAP3 SWAP2 POP POP JUMP JUMPDEST PUSH1 0x0 DUP2 SWAP1 POP SWAP3 SWAP2 POP POP JUMP JUMPDEST PUSH1 0x0 PUSH2 0x595 DUP3 PUSH2 0x2A6 JUMP JUMPDEST PUSH2 0x59F DUP2 DUP6 PUSH2 0x57F JUMP JUMPDEST SWAP4 POP PUSH2 0x5AF DUP2 DUP6 PUSH1 0x20 DUP7 ADD PUSH2 0x2C2 JUMP JUMPDEST DUP1 DUP5 ADD SWAP2 POP POP SWAP3 SWAP2 POP POP JUMP JUMPDEST PUSH1 0x0 PUSH2 0x5C7 DUP3 DUP6 PUSH2 0x58A JUMP JUMPDEST SWAP2 POP PUSH2 0x5D3 DUP3 DUP5 PUSH2 0x58A JUMP JUMPDEST SWAP2 POP DUP2 SWAP1 POP SWAP4 SWAP3 POP POP POP JUMP JUMPDEST PUSH1 0x0 PUSH32 0xFF00000000000000000000000000000000000000000000000000000000000000 DUP3 AND SWAP1 POP SWAP2 SWAP1 POP JUMP JUMPDEST PUSH1 0x0 DUP2 SWAP1 POP SWAP2 SWAP1 POP JUMP JUMPDEST PUSH2 0x626 PUSH2 0x621 DUP3 PUSH2 0x5DF JUMP JUMPDEST PUSH2 0x60B JUMP JUMPDEST DUP3 MSTORE POP POP JUMP JUMPDEST PUSH1 0x0 DUP2 PUSH1 0x60 SHL SWAP1 POP SWAP2 SWAP1 POP JUMP JUMPDEST PUSH1 0x0 PUSH2 0x644 DUP3 PUSH2 0x62C JUMP JUMPDEST SWAP1 POP SWAP2 SWAP1 POP JUMP JUMPDEST PUSH1 0x0 PUSH2 0x656 DUP3 PUSH2 0x639 JUMP JUMPDEST SWAP1 POP SWAP2 SWAP1 POP JUMP JUMPDEST PUSH2 0x66E PUSH2 0x669 DUP3 PUSH2 0x23B JUMP JUMPDEST PUSH2 0x64B JUMP JUMPDEST DUP3 MSTORE POP POP JUMP JUMPDEST PUSH1 0x0 DUP2 SWAP1 POP SWAP2 SWAP1 POP JUMP JUMPDEST PUSH2 0x68F PUSH2 0x68A DUP3 PUSH2 0x496 JUMP JUMPDEST PUSH2 0x674 JUMP JUMPDEST DUP3 MSTORE POP POP JUMP JUMPDEST PUSH1 0x0 DUP2 SWAP1 POP SWAP2 SWAP1 POP JUMP JUMPDEST PUSH1 0x0 DUP2 SWAP1 POP SWAP2 SWAP1 POP JUMP JUMPDEST PUSH2 0x6BA PUSH2 0x6B5 DUP3 PUSH2 0x695 JUMP JUMPDEST PUSH2 0x69F JUMP JUMPDEST DUP3 MSTORE POP POP JUMP JUMPDEST PUSH1 0x0 PUSH2 0x6CC DUP3 DUP8 PUSH2 0x615 JUMP JUMPDEST PUSH1 0x1 DUP3 ADD SWAP2 POP PUSH2 0x6DC DUP3 DUP7 PUSH2 0x65D JUMP JUMPDEST PUSH1 0x14 DUP3 ADD SWAP2 POP PUSH2 0x6EC DUP3 DUP6 PUSH2 0x67E JUMP JUMPDEST PUSH1 0x20 DUP3 ADD SWAP2 POP PUSH2 0x6FC DUP3 DUP5 PUSH2 0x6A9 JUMP JUMPDEST PUSH1 0x20 DUP3 ADD SWAP2 POP DUP2 SWAP1 POP SWAP6 SWAP5 POP POP POP POP POP JUMP INVALID PUSH1 0x80 PUSH1 0x40 MSTORE CALLVALUE DUP1 ISZERO PUSH2 0x10 JUMPI PUSH1 0x0 DUP1 REVERT JUMPDEST POP PUSH1 0x40 MLOAD PUSH2 0x20D CODESIZE SUB DUP1 PUSH2 0x20D DUP4 CODECOPY DUP2 DUP2 ADD PUSH1 0x40 MSTORE DUP2 ADD SWAP1 PUSH2 0x32 SWAP2 SWAP1 PUSH2 0xDB JUMP JUMPDEST DUP1 PUSH1 0x0 DUP1 PUSH2 0x100 EXP DUP2 SLOAD DUP2 PUSH20 0xFFFFFFFFFFFFFFFFFFFFFFFFFFFFFFFFFFFFFFFF MUL NOT AND SWAP1 DUP4 PUSH20 0xFFFFFFFFFFFFFFFFFFFFFFFFFFFFFFFFFFFFFFFF AND MUL OR SWAP1 SSTORE POP POP PUSH2 0x108 JUMP JUMPDEST PUSH1 0x0 DUP1 REVERT JUMPDEST PUSH1 0x0 PUSH20 0xFFFFFFFFFFFFFFFFFFFFFFFFFFFFFFFFFFFFFFFF DUP3 AND SWAP1 POP SWAP2 SWAP1 POP JUMP JUMPDEST PUSH1 0x0 PUSH2 0xA8 DUP3 PUSH2 0x7D JUMP JUMPDEST SWAP1 POP SWAP2 SWAP1 POP JUMP JUMPDEST PUSH2 0xB8 DUP2 PUSH2 0x9D JUMP JUMPDEST DUP2 EQ PUSH2 0xC3 JUMPI PUSH1 0x0 DUP1 REVERT JUMPDEST POP JUMP JUMPDEST PUSH1 0x0 DUP2 MLOAD SWAP1 POP PUSH2 0xD5 DUP2 PUSH2 0xAF JUMP JUMPDEST SWAP3 SWAP2 POP POP JUMP JUMPDEST PUSH1 0x0 PUSH1 0x20 DUP3 DUP5 SUB SLT ISZERO PUSH2 0xF1 JUMPI PUSH2 0xF0 PUSH2 0x78 JUMP JUMPDEST JUMPDEST PUSH1 0x0 PUSH2 0xFF DUP5 DUP3 DUP6 ADD PUSH2 0xC6 JUMP JUMPDEST SWAP2 POP POP SWAP3 SWAP2 POP POP JUMP JUMPDEST PUSH1 0xF7 DUP1 PUSH2 0x116 PUSH1 0x0 CODECOPY PUSH1 0x0 RETURN INVALID PUSH1 0x80 PUSH1 0x40 MSTORE CALLVALUE DUP1 ISZERO PUSH1 0xF JUMPI PUSH1 0x0 DUP1 REVERT JUMPDEST POP PUSH1 0x4 CALLDATASIZE LT PUSH1 0x28 JUMPI PUSH1 0x0 CALLDATALOAD PUSH1 0xE0 SHR DUP1 PUSH4 0x8DA5CB5B EQ PUSH1 0x2D JUMPI JUMPDEST PUSH1 0x0 DUP1 REVERT JUMPDEST PUSH1 0x33 PUSH1 0x47 JUMP JUMPDEST PUSH1 0x40 MLOAD PUSH1 0x3E SWAP2 SWAP1 PUSH1 0xA8 JUMP JUMPDEST PUSH1 0x40 MLOAD DUP1 SWAP2 SUB SWAP1 RETURN JUMPDEST PUSH1 0x0 DUP1 SLOAD SWAP1 PUSH2 0x100 EXP SWAP1 DIV PUSH20 0xFFFFFFFFFFFFFFFFFFFFFFFFFFFFFFFFFFFFFFFF AND DUP2 JUMP JUMPDEST PUSH1 0x0 PUSH20 0xFFFFFFFFFFFFFFFFFFFFFFFFFFFFFFFFFFFFFFFF DUP3 AND SWAP1 POP SWAP2 SWAP1 POP JUMP JUMPDEST PUSH1 0x0 PUSH1 0x94 DUP3 PUSH1 0x6B JUMP JUMPDEST SWAP1 POP SWAP2 SWAP1 POP JUMP JUMPDEST PUSH1 0xA2 DUP2 PUSH1 0x8B JUMP JUMPDEST DUP3 MSTORE POP POP JUMP JUMPDEST PUSH1 0x0 PUSH1 0x20 DUP3 ADD SWAP1 POP PUSH1 0xBB PUSH1 0x0 DUP4 ADD DUP5 PUSH1 0x9B JUMP JUMPDEST SWAP3 SWAP2 POP POP JUMP INVALID LOG2 PUSH5 0x6970667358 0x22 SLT KECCAK256 0x2A 0xBA INVALID SWAP3 GASPRICE DUP5 GT INVALID 0xC0 SWAP1 PUSH29 0x5F5C4DA7596B7B1651E403A285251055C58CD16A6D64736F6C63430008 0xF STOP CALLER LOG2 PUSH5 0x6970667358 0x22 SLT KECCAK256 0xC1 POP DIV 0xEA 0xEF 0xE8 SWAP15 0x4C CALLDATASIZE 0xE4 0x26 BLOCKHASH SWAP9 SHR 0xBB PUSH13 0xC23A0A066788C85670B4231CDB 0x1E 0x29 SWAP12 PUSH5 0x736F6C6343 STOP ADDMOD 0xF STOP CALLER "
		},
		"gasEstimates": {
			"creation": {
				"codeDepositCost": "477000",
				"executionCost": "511",
				"totalCost": "477511"
			},
			"external": {
				"deploy(uint256)": "infinite",
				"getAddress(bytes,uint256)": "infinite",
				"getBytecode(address)": "infinite"
			}
		},
		"methodIdentifiers": {
			"deploy(uint256)": "a5e38751",
			"getAddress(bytes,uint256)": "94ca2cb5",
			"getBytecode(address)": "0c6008af"
		}
	},
	"abi": [
		{
			"anonymous": false,
			"inputs": [
				{
					"indexed": false,
					"internalType": "address",
					"name": "addr",
					"type": "address"
				}
			],
			"name": "Deploy",
			"type": "event"
		},
		{
			"inputs": [
				{
					"internalType": "uint256",
					"name": "_salt",
					"type": "uint256"
				}
			],
			"name": "deploy",
			"outputs": [],
			"stateMutability": "nonpayable",
			"type": "function"
		},
		{
			"inputs": [
				{
					"internalType": "bytes",
					"name": "bytecode",
					"type": "bytes"
				},
				{
					"internalType": "uint256",
					"name": "_salt",
					"type": "uint256"
				}
			],
			"name": "getAddress",
			"outputs": [
				{
					"internalType": "address",
					"name": "",
					"type": "address"
				}
			],
			"stateMutability": "view",
			"type": "function"
		},
		{
			"inputs": [
				{
					"internalType": "address",
					"name": "_owner",
					"type": "address"
				}
			],
			"name": "getBytecode",
			"outputs": [
				{
					"internalType": "bytes",
					"name": "",
					"type": "bytes"
				}
			],
			"stateMutability": "pure",
			"type": "function"
		}
	]
}