{
	"data": {
		"bytecode": {
			"linkReferences": {},
			"object": "608060405234801561001057600080fd5b50610749806100206000396000f3fe608060405234801561001057600080fd5b506004361061004c5760003560e01c80630573e5361461005157806317fe2da2146100815780637b7fb982146100b1578063892e5d01146100e1575b600080fd5b61006b600480360381019061006691906102e4565b610111565b6040516100789190610490565b60405180910390f35b61009b6004803603810190610096919061026c565b610147565b6040516100a891906104ab565b60405180910390f35b6100cb60048036038101906100c6919061026c565b610173565b6040516100d89190610490565b60405180910390f35b6100fb60048036038101906100f6919061026c565b6101a6565b60405161010891906104ab565b60405180910390f35b600083838360405160200161012893929190610457565b6040516020818303038152906040528051906020012090509392505050565b6060828260405160200161015c9291906104cd565b604051602081830303815290604052905092915050565b60008282604051602001610188929190610433565b60405160208183030381529060405280519060200120905092915050565b606082826040516020016101bb929190610433565b604051602081830303815290604052905092915050565b60006101e56101e084610529565b610504565b905082815260208101848484011115610201576102006106b8565b5b61020c8482856105e3565b509392505050565b600081359050610223816106e5565b92915050565b600082601f83011261023e5761023d6106b3565b5b813561024e8482602086016101d2565b91505092915050565b600081359050610266816106fc565b92915050565b60008060408385031215610283576102826106c2565b5b600083013567ffffffffffffffff8111156102a1576102a06106bd565b5b6102ad85828601610229565b925050602083013567ffffffffffffffff8111156102ce576102cd6106bd565b5b6102da85828601610229565b9150509250929050565b6000806000606084860312156102fd576102fc6106c2565b5b600084013567ffffffffffffffff81111561031b5761031a6106bd565b5b61032786828701610229565b935050602061033886828701610257565b925050604061034986828701610214565b9150509250925092565b61036461035f8261059d565b610656565b82525050565b610373816105af565b82525050565b60006103848261055a565b61038e8185610570565b935061039e8185602086016105f2565b6103a7816106c7565b840191505092915050565b60006103bd82610565565b6103c78185610581565b93506103d78185602086016105f2565b6103e0816106c7565b840191505092915050565b60006103f682610565565b6104008185610592565b93506104108185602086016105f2565b80840191505092915050565b61042d610428826105d9565b61067a565b82525050565b600061043f82856103eb565b915061044b82846103eb565b91508190509392505050565b600061046382866103eb565b915061046f828561041c565b60208201915061047f8284610353565b601482019150819050949350505050565b60006020820190506104a5600083018461036a565b92915050565b600060208201905081810360008301526104c58184610379565b905092915050565b600060408201905081810360008301526104e781856103b2565b905081810360208301526104fb81846103b2565b90509392505050565b600061050e61051f565b905061051a8282610625565b919050565b6000604051905090565b600067ffffffffffffffff82111561054457610543610684565b5b61054d826106c7565b9050602081019050919050565b600081519050919050565b600081519050919050565b600082825260208201905092915050565b600082825260208201905092915050565b600081905092915050565b60006105a8826105b9565b9050919050565b6000819050919050565b600073ffffffffffffffffffffffffffffffffffffffff82169050919050565b6000819050919050565b82818337600083830152505050565b60005b838110156106105780820151818401526020810190506105f5565b8381111561061f576000848401525b50505050565b61062e826106c7565b810181811067ffffffffffffffff8211171561064d5761064c610684565b5b80604052505050565b600061066182610668565b9050919050565b6000610673826106d8565b9050919050565b6000819050919050565b7f4e487b7100000000000000000000000000000000000000000000000000000000600052604160045260246000fd5b600080fd5b600080fd5b600080fd5b600080fd5b6000601f19601f8301169050919050565b60008160601b9050919050565b6106ee8161059d565b81146106f957600080fd5b50565b610705816105d9565b811461071057600080fd5b5056fea26469706673582212207a65e9fe8f3dc4aaa2a4de778c5c4f00d76f1944cb6dd3ac7bf16a1bf987af8064736f6c63430008070033",
			"opcodes": "PUSH1 0x80 PUSH1 0x40 MSTORE CALLVALUE DUP1 ISZERO PUSH2 0x10 JUMPI PUSH1 0x0 DUP1 REVERT JUMPDEST POP PUSH2 0x749 DUP1 PUSH2 0x20 PUSH1 0x0 CODECOPY PUSH1 0x0 RETURN INVALID PUSH1 0x80 PUSH1 0x40 MSTORE CALLVALUE DUP1 ISZERO PUSH2 0x10 JUMPI PUSH1 0x0 DUP1 REVERT JUMPDEST POP PUSH1 0x4 CALLDATASIZE LT PUSH2 0x4C JUMPI PUSH1 0x0 CALLDATALOAD PUSH1 0xE0 SHR DUP1 PUSH4 0x573E536 EQ PUSH2 0x51 JUMPI DUP1 PUSH4 0x17FE2DA2 EQ PUSH2 0x81 JUMPI DUP1 PUSH4 0x7B7FB982 EQ PUSH2 0xB1 JUMPI DUP1 PUSH4 0x892E5D01 EQ PUSH2 0xE1 JUMPI JUMPDEST PUSH1 0x0 DUP1 REVERT JUMPDEST PUSH2 0x6B PUSH1 0x4 DUP1 CALLDATASIZE SUB DUP2 ADD SWAP1 PUSH2 0x66 SWAP2 SWAP1 PUSH2 0x2E4 JUMP JUMPDEST PUSH2 0x111 JUMP JUMPDEST PUSH1 0x40 MLOAD PUSH2 0x78 SWAP2 SWAP1 PUSH2 0x490 JUMP JUMPDEST PUSH1 0x40 MLOAD DUP1 SWAP2 SUB SWAP1 RETURN JUMPDEST PUSH2 0x9B PUSH1 0x4 DUP1 CALLDATASIZE SUB DUP2 ADD SWAP1 PUSH2 0x96 SWAP2 SWAP1 PUSH2 0x26C JUMP JUMPDEST PUSH2 0x147 JUMP JUMPDEST PUSH1 0x40 MLOAD PUSH2 0xA8 SWAP2 SWAP1 PUSH2 0x4AB JUMP JUMPDEST PUSH1 0x40 MLOAD DUP1 SWAP2 SUB SWAP1 RETURN JUMPDEST PUSH2 0xCB PUSH1 0x4 DUP1 CALLDATASIZE SUB DUP2 ADD SWAP1 PUSH2 0xC6 SWAP2 SWAP1 PUSH2 0x26C JUMP JUMPDEST PUSH2 0x173 JUMP JUMPDEST PUSH1 0x40 MLOAD PUSH2 0xD8 SWAP2 SWAP1 PUSH2 0x490 JUMP JUMPDEST PUSH1 0x40 MLOAD DUP1 SWAP2 SUB SWAP1 RETURN JUMPDEST PUSH2 0xFB PUSH1 0x4 DUP1 CALLDATASIZE SUB DUP2 ADD SWAP1 PUSH2 0xF6 SWAP2 SWAP1 PUSH2 0x26C JUMP JUMPDEST PUSH2 0x1A6 JUMP JUMPDEST PUSH1 0x40 MLOAD PUSH2 0x108 SWAP2 SWAP1 PUSH2 0x4AB JUMP JUMPDEST PUSH1 0x40 MLOAD DUP1 SWAP2 SUB SWAP1 RETURN JUMPDEST PUSH1 0x0 DUP4 DUP4 DUP4 PUSH1 0x40 MLOAD PUSH1 0x20 ADD PUSH2 0x128 SWAP4 SWAP3 SWAP2 SWAP1 PUSH2 0x457 JUMP JUMPDEST PUSH1 0x40 MLOAD PUSH1 0x20 DUP2 DUP4 SUB SUB DUP2 MSTORE SWAP1 PUSH1 0x40 MSTORE DUP1 MLOAD SWAP1 PUSH1 0x20 ADD KECCAK256 SWAP1 POP SWAP4 SWAP3 POP POP POP JUMP JUMPDEST PUSH1 0x60 DUP3 DUP3 PUSH1 0x40 MLOAD PUSH1 0x20 ADD PUSH2 0x15C SWAP3 SWAP2 SWAP1 PUSH2 0x4CD JUMP JUMPDEST PUSH1 0x40 MLOAD PUSH1 0x20 DUP2 DUP4 SUB SUB DUP2 MSTORE SWAP1 PUSH1 0x40 MSTORE SWAP1 POP SWAP3 SWAP2 POP POP JUMP JUMPDEST PUSH1 0x0 DUP3 DUP3 PUSH1 0x40 MLOAD PUSH1 0x20 ADD PUSH2 0x188 SWAP3 SWAP2 SWAP1 PUSH2 0x433 JUMP JUMPDEST PUSH1 0x40 MLOAD PUSH1 0x20 DUP2 DUP4 SUB SUB DUP2 MSTORE SWAP1 PUSH1 0x40 MSTORE DUP1 MLOAD SWAP1 PUSH1 0x20 ADD KECCAK256 SWAP1 POP SWAP3 SWAP2 POP POP JUMP JUMPDEST PUSH1 0x60 DUP3 DUP3 PUSH1 0x40 MLOAD PUSH1 0x20 ADD PUSH2 0x1BB SWAP3 SWAP2 SWAP1 PUSH2 0x433 JUMP JUMPDEST PUSH1 0x40 MLOAD PUSH1 0x20 DUP2 DUP4 SUB SUB DUP2 MSTORE SWAP1 PUSH1 0x40 MSTORE SWAP1 POP SWAP3 SWAP2 POP POP JUMP JUMPDEST PUSH1 0x0 PUSH2 0x1E5 PUSH2 0x1E0 DUP5 PUSH2 0x529 JUMP JUMPDEST PUSH2 0x504 JUMP JUMPDEST SWAP1 POP DUP3 DUP2 MSTORE PUSH1 0x20 DUP2 ADD DUP5 DUP5 DUP5 ADD GT ISZERO PUSH2 0x201 JUMPI PUSH2 0x200 PUSH2 0x6B8 JUMP JUMPDEST JUMPDEST PUSH2 0x20C DUP5 DUP3 DUP6 PUSH2 0x5E3 JUMP JUMPDEST POP SWAP4 SWAP3 POP POP POP JUMP JUMPDEST PUSH1 0x0 DUP2 CALLDATALOAD SWAP1 POP PUSH2 0x223 DUP2 PUSH2 0x6E5 JUMP JUMPDEST SWAP3 SWAP2 POP POP JUMP JUMPDEST PUSH1 0x0 DUP3 PUSH1 0x1F DUP4 ADD SLT PUSH2 0x23E JUMPI PUSH2 0x23D PUSH2 0x6B3 JUMP JUMPDEST JUMPDEST DUP2 CALLDATALOAD PUSH2 0x24E DUP5 DUP3 PUSH1 0x20 DUP7 ADD PUSH2 0x1D2 JUMP JUMPDEST SWAP2 POP POP SWAP3 SWAP2 POP POP JUMP JUMPDEST PUSH1 0x0 DUP2 CALLDATALOAD SWAP1 POP PUSH2 0x266 DUP2 PUSH2 0x6FC JUMP JUMPDEST SWAP3 SWAP2 POP POP JUMP JUMPDEST PUSH1 0x0 DUP1 PUSH1 0x40 DUP4 DUP6 SUB SLT ISZERO PUSH2 0x283 JUMPI PUSH2 0x282 PUSH2 0x6C2 JUMP JUMPDEST JUMPDEST PUSH1 0x0 DUP4 ADD CALLDATALOAD PUSH8 0xFFFFFFFFFFFFFFFF DUP2 GT ISZERO PUSH2 0x2A1 JUMPI PUSH2 0x2A0 PUSH2 0x6BD JUMP JUMPDEST JUMPDEST PUSH2 0x2AD DUP6 DUP3 DUP7 ADD PUSH2 0x229 JUMP JUMPDEST SWAP3 POP POP PUSH1 0x20 DUP4 ADD CALLDATALOAD PUSH8 0xFFFFFFFFFFFFFFFF DUP2 GT ISZERO PUSH2 0x2CE JUMPI PUSH2 0x2CD PUSH2 0x6BD JUMP JUMPDEST JUMPDEST PUSH2 0x2DA DUP6 DUP3 DUP7 ADD PUSH2 0x229 JUMP JUMPDEST SWAP2 POP POP SWAP3 POP SWAP3 SWAP1 POP JUMP JUMPDEST PUSH1 0x0 DUP1 PUSH1 0x0 PUSH1 0x60 DUP5 DUP7 SUB SLT ISZERO PUSH2 0x2FD JUMPI PUSH2 0x2FC PUSH2 0x6C2 JUMP JUMPDEST JUMPDEST PUSH1 0x0 DUP5 ADD CALLDATALOAD PUSH8 0xFFFFFFFFFFFFFFFF DUP2 GT ISZERO PUSH2 0x31B JUMPI PUSH2 0x31A PUSH2 0x6BD JUMP JUMPDEST JUMPDEST PUSH2 0x327 DUP7 DUP3 DUP8 ADD PUSH2 0x229 JUMP JUMPDEST SWAP4 POP POP PUSH1 0x20 PUSH2 0x338 DUP7 DUP3 DUP8 ADD PUSH2 0x257 JUMP JUMPDEST SWAP3 POP POP PUSH1 0x40 PUSH2 0x349 DUP7 DUP3 DUP8 ADD PUSH2 0x214 JUMP JUMPDEST SWAP2 POP POP SWAP3 POP SWAP3 POP SWAP3 JUMP JUMPDEST PUSH2 0x364 PUSH2 0x35F DUP3 PUSH2 0x59D JUMP JUMPDEST PUSH2 0x656 JUMP JUMPDEST DUP3 MSTORE POP POP JUMP JUMPDEST PUSH2 0x373 DUP2 PUSH2 0x5AF JUMP JUMPDEST DUP3 MSTORE POP POP JUMP JUMPDEST PUSH1 0x0 PUSH2 0x384 DUP3 PUSH2 0x55A JUMP JUMPDEST PUSH2 0x38E DUP2 DUP6 PUSH2 0x570 JUMP JUMPDEST SWAP4 POP PUSH2 0x39E DUP2 DUP6 PUSH1 0x20 DUP7 ADD PUSH2 0x5F2 JUMP JUMPDEST PUSH2 0x3A7 DUP2 PUSH2 0x6C7 JUMP JUMPDEST DUP5 ADD SWAP2 POP POP SWAP3 SWAP2 POP POP JUMP JUMPDEST PUSH1 0x0 PUSH2 0x3BD DUP3 PUSH2 0x565 JUMP JUMPDEST PUSH2 0x3C7 DUP2 DUP6 PUSH2 0x581 JUMP JUMPDEST SWAP4 POP PUSH2 0x3D7 DUP2 DUP6 PUSH1 0x20 DUP7 ADD PUSH2 0x5F2 JUMP JUMPDEST PUSH2 0x3E0 DUP2 PUSH2 0x6C7 JUMP JUMPDEST DUP5 ADD SWAP2 POP POP SWAP3 SWAP2 POP POP JUMP JUMPDEST PUSH1 0x0 PUSH2 0x3F6 DUP3 PUSH2 0x565 JUMP JUMPDEST PUSH2 0x400 DUP2 DUP6 PUSH2 0x592 JUMP JUMPDEST SWAP4 POP PUSH2 0x410 DUP2 DUP6 PUSH1 0x20 DUP7 ADD PUSH2 0x5F2 JUMP JUMPDEST DUP1 DUP5 ADD SWAP2 POP POP SWAP3 SWAP2 POP POP JUMP JUMPDEST PUSH2 0x42D PUSH2 0x428 DUP3 PUSH2 0x5D9 JUMP JUMPDEST PUSH2 0x67A JUMP JUMPDEST DUP3 MSTORE POP POP JUMP JUMPDEST PUSH1 0x0 PUSH2 0x43F DUP3 DUP6 PUSH2 0x3EB JUMP JUMPDEST SWAP2 POP PUSH2 0x44B DUP3 DUP5 PUSH2 0x3EB JUMP JUMPDEST SWAP2 POP DUP2 SWAP1 POP SWAP4 SWAP3 POP POP POP JUMP JUMPDEST PUSH1 0x0 PUSH2 0x463 DUP3 DUP7 PUSH2 0x3EB JUMP JUMPDEST SWAP2 POP PUSH2 0x46F DUP3 DUP6 PUSH2 0x41C JUMP JUMPDEST PUSH1 0x20 DUP3 ADD SWAP2 POP PUSH2 0x47F DUP3 DUP5 PUSH2 0x353 JUMP JUMPDEST PUSH1 0x14 DUP3 ADD SWAP2 POP DUP2 SWAP1 POP SWAP5 SWAP4 POP POP POP POP JUMP JUMPDEST PUSH1 0x0 PUSH1 0x20 DUP3 ADD SWAP1 POP PUSH2 0x4A5 PUSH1 0x0 DUP4 ADD DUP5 PUSH2 0x36A JUMP JUMPDEST SWAP3 SWAP2 POP POP JUMP JUMPDEST PUSH1 0x0 PUSH1 0x20 DUP3 ADD SWAP1 POP DUP2 DUP2 SUB PUSH1 0x0 DUP4 ADD MSTORE PUSH2 0x4C5 DUP2 DUP5 PUSH2 0x379 JUMP JUMPDEST SWAP1 POP SWAP3 SWAP2 POP POP JUMP JUMPDEST PUSH1 0x0 PUSH1 0x40 DUP3 ADD SWAP1 POP DUP2 DUP2 SUB PUSH1 0x0 DUP4 ADD MSTORE PUSH2 0x4E7 DUP2 DUP6 PUSH2 0x3B2 JUMP JUMPDEST SWAP1 POP DUP2 DUP2 SUB PUSH1 0x20 DUP4 ADD MSTORE PUSH2 0x4FB DUP2 DUP5 PUSH2 0x3B2 JUMP JUMPDEST SWAP1 POP SWAP4 SWAP3 POP POP POP JUMP JUMPDEST PUSH1 0x0 PUSH2 0x50E PUSH2 0x51F JUMP JUMPDEST SWAP1 POP PUSH2 0x51A DUP3 DUP3 PUSH2 0x625 JUMP JUMPDEST SWAP2 SWAP1 POP JUMP JUMPDEST PUSH1 0x0 PUSH1 0x40 MLOAD SWAP1 POP SWAP1 JUMP JUMPDEST PUSH1 0x0 PUSH8 0xFFFFFFFFFFFFFFFF DUP3 GT ISZERO PUSH2 0x544 JUMPI PUSH2 0x543 PUSH2 0x684 JUMP JUMPDEST JUMPDEST PUSH2 0x54D DUP3 PUSH2 0x6C7 JUMP JUMPDEST SWAP1 POP PUSH1 0x20 DUP2 ADD SWAP1 POP SWAP2 SWAP1 POP JUMP JUMPDEST PUSH1 0x0 DUP2 MLOAD SWAP1 POP SWAP2 SWAP1 POP JUMP JUMPDEST PUSH1 0x0 DUP2 MLOAD SWAP1 POP SWAP2 SWAP1 POP JUMP JUMPDEST PUSH1 0x0 DUP3 DUP3 MSTORE PUSH1 0x20 DUP3 ADD SWAP1 POP SWAP3 SWAP2 POP POP JUMP JUMPDEST PUSH1 0x0 DUP3 DUP3 MSTORE PUSH1 0x20 DUP3 ADD SWAP1 POP SWAP3 SWAP2 POP POP JUMP JUMPDEST PUSH1 0x0 DUP2 SWAP1 POP SWAP3 SWAP2 POP POP JUMP JUMPDEST PUSH1 0x0 PUSH2 0x5A8 DUP3 PUSH2 0x5B9 JUMP JUMPDEST SWAP1 POP SWAP2 SWAP1 POP JUMP JUMPDEST PUSH1 0x0 DUP2 SWAP1 POP SWAP2 SWAP1 POP JUMP JUMPDEST PUSH1 0x0 PUSH20 0xFFFFFFFFFFFFFFFFFFFFFFFFFFFFFFFFFFFFFFFF DUP3 AND SWAP1 POP SWAP2 SWAP1 POP JUMP JUMPDEST PUSH1 0x0 DUP2 SWAP1 POP SWAP2 SWAP1 POP JUMP JUMPDEST DUP3 DUP2 DUP4 CALLDATACOPY PUSH1 0x0 DUP4 DUP4 ADD MSTORE POP POP POP JUMP JUMPDEST PUSH1 0x0 JUMPDEST DUP4 DUP2 LT ISZERO PUSH2 0x610 JUMPI DUP1 DUP3 ADD MLOAD DUP2 DUP5 ADD MSTORE PUSH1 0x20 DUP2 ADD SWAP1 POP PUSH2 0x5F5 JUMP JUMPDEST DUP4 DUP2 GT ISZERO PUSH2 0x61F JUMPI PUSH1 0x0 DUP5 DUP5 ADD MSTORE JUMPDEST POP POP POP POP JUMP JUMPDEST PUSH2 0x62E DUP3 PUSH2 0x6C7 JUMP JUMPDEST DUP2 ADD DUP2 DUP2 LT PUSH8 0xFFFFFFFFFFFFFFFF DUP3 GT OR ISZERO PUSH2 0x64D JUMPI PUSH2 0x64C PUSH2 0x684 JUMP JUMPDEST JUMPDEST DUP1 PUSH1 0x40 MSTORE POP POP POP JUMP JUMPDEST PUSH1 0x0 PUSH2 0x661 DUP3 PUSH2 0x668 JUMP JUMPDEST SWAP1 POP SWAP2 SWAP1 POP JUMP JUMPDEST PUSH1 0x0 PUSH2 0x673 DUP3 PUSH2 0x6D8 JUMP JUMPDEST SWAP1 POP SWAP2 SWAP1 POP JUMP JUMPDEST PUSH1 0x0 DUP2 SWAP1 POP SWAP2 SWAP1 POP JUMP JUMPDEST PUSH32 0x4E487B7100000000000000000000000000000000000000000000000000000000 PUSH1 0x0 MSTORE PUSH1 0x41 PUSH1 0x4 MSTORE PUSH1 0x24 PUSH1 0x0 REVERT JUMPDEST PUSH1 0x0 DUP1 REVERT JUMPDEST PUSH1 0x0 DUP1 REVERT JUMPDEST PUSH1 0x0 DUP1 REVERT JUMPDEST PUSH1 0x0 DUP1 REVERT JUMPDEST PUSH1 0x0 PUSH1 0x1F NOT PUSH1 0x1F DUP4 ADD AND SWAP1 POP SWAP2 SWAP1 POP JUMP JUMPDEST PUSH1 0x0 DUP2 PUSH1 0x60 SHL SWAP1 POP SWAP2 SWAP1 POP JUMP JUMPDEST PUSH2 0x6EE DUP2 PUSH2 0x59D JUMP JUMPDEST DUP2 EQ PUSH2 0x6F9 JUMPI PUSH1 0x0 DUP1 REVERT JUMPDEST POP JUMP JUMPDEST PUSH2 0x705 DUP2 PUSH2 0x5D9 JUMP JUMPDEST DUP2 EQ PUSH2 0x710 JUMPI PUSH1 0x0 DUP1 REVERT JUMPDEST POP JUMP INVALID LOG2 PUSH5 0x6970667358 0x22 SLT KECCAK256 PUSH27 0x65E9FE8F3DC4AAA2A4DE778C5C4F00D76F1944CB6DD3AC7BF16A1B 0xF9 DUP8 0xAF DUP1 PUSH5 0x736F6C6343 STOP ADDMOD SMOD STOP CALLER "
		},
		"gasEstimates": {
			"creation": {
				"codeDepositCost": "373000",
				"executionCost": "411",
				"totalCost": "373411"
			},
			"external": {
				"collision(string,string)": "infinite",
				"encode(string,string)": "infinite",
				"encodePacked(string,string)": "infinite",
				"hsah(string,uint256,address)": "infinite"
			}
		},
		"methodIdentifiers": {
			"collision(string,string)": "7b7fb982",
			"encode(string,string)": "17fe2da2",
			"encodePacked(string,string)": "892e5d01",
			"hsah(string,uint256,address)": "0573e536"
		}
	},
	"abi": [
		{
			"inputs": [
				{
					"internalType": "string",
					"name": "text0",
					"type": "string"
				},
				{
					"internalType": "string",
					"name": "text1",
					"type": "string"
				}
			],
			"name": "collision",
			"outputs": [
				{
					"internalType": "bytes32",
					"name": "",
					"type": "bytes32"
				}
			],
			"stateMutability": "pure",
			"type": "function"
		},
		{
			"inputs": [
				{
					"internalType": "string",
					"name": "text0",
					"type": "string"
				},
				{
					"internalType": "string",
					"name": "text1",
					"type": "string"
				}
			],
			"name": "encode",
			"outputs": [
				{
					"internalType": "bytes",
					"name": "",
					"type": "bytes"
				}
			],
			"stateMutability": "pure",
			"type": "function"
		},
		{
			"inputs": [
				{
					"internalType": "string",
					"name": "text0",
					"type": "string"
				},
				{
					"internalType": "string",
					"name": "text1",
					"type": "string"
				}
			],
			"name": "encodePacked",
			"outputs": [
				{
					"internalType": "bytes",
					"name": "",
					"type": "bytes"
				}
			],
			"stateMutability": "pure",
			"type": "function"
		},
		{
			"inputs": [
				{
					"internalType": "string",
					"name": "text",
					"type": "string"
				},
				{
					"internalType": "uint256",
					"name": "num",
					"type": "uint256"
				},
				{
					"internalType": "address",
					"name": "addr",
					"type": "address"
				}
			],
			"name": "hsah",
			"outputs": [
				{
					"internalType": "bytes32",
					"name": "",
					"type": "bytes32"
				}
			],
			"stateMutability": "pure",
			"type": "function"
		}
	]
}