{
	"data": {
		"bytecode": {
			"linkReferences": {},
			"object": "60806040523480156200001157600080fd5b50604051806020016040528060008152506200003381620000f660201b60201c565b5062000054620000486200011260201b60201c565b6200011a60201b60201c565b6040518060400160405280600381526020017f4c454f000000000000000000000000000000000000000000000000000000000081525060049080519060200190620000a1929190620001e0565b506040518060400160405280600381526020017f454c4f000000000000000000000000000000000000000000000000000000000081525060059080519060200190620000ef929190620001e0565b50620002f5565b80600290805190602001906200010e929190620001e0565b5050565b600033905090565b6000600360009054906101000a900473ffffffffffffffffffffffffffffffffffffffff16905081600360006101000a81548173ffffffffffffffffffffffffffffffffffffffff021916908373ffffffffffffffffffffffffffffffffffffffff1602179055508173ffffffffffffffffffffffffffffffffffffffff168173ffffffffffffffffffffffffffffffffffffffff167f8be0079c531659141344cd1fd0a4f28419497f9722a3daafe3b4186f6b6457e060405160405180910390a35050565b828054620001ee9062000290565b90600052602060002090601f0160209004810192826200021257600085556200025e565b82601f106200022d57805160ff19168380011785556200025e565b828001600101855582156200025e579182015b828111156200025d57825182559160200191906001019062000240565b5b5090506200026d919062000271565b5090565b5b808211156200028c57600081600090555060010162000272565b5090565b60006002820490506001821680620002a957607f821691505b60208210811415620002c057620002bf620002c6565b5b50919050565b7f4e487b7100000000000000000000000000000000000000000000000000000000600052602260045260246000fd5b613c4b80620003056000396000f3fe608060405234801561001057600080fd5b506004361061012b5760003560e01c8063862440e2116100ad578063c87b56dd11610071578063c87b56dd14610318578063d81d0a1514610348578063e985e9c514610364578063f242432a14610394578063f2fde38b146103b05761012b565b8063862440e2146102885780638da5cb5b146102a457806395d89b41146102c2578063a22cb465146102e0578063b390c0ab146102fc5761012b565b80632eb2c2d6116100f45780632eb2c2d6146101fa5780634e1273f414610216578063510f410414610246578063715018a61461026257806383ca4b6f1461026c5761012b565b8062fdd58e1461013057806301ffc9a71461016057806306fdde03146101905780630e89341c146101ae578063156e29f6146101de575b600080fd5b61014a600480360381019061014591906129af565b6103cc565b6040516101579190613296565b60405180910390f35b61017a60048036038101906101759190612b32565b610495565b6040516101879190613099565b60405180910390f35b610198610577565b6040516101a591906130b4565b60405180910390f35b6101c860048036038101906101c39190612b8c565b610605565b6040516101d591906130b4565b60405180910390f35b6101f860048036038101906101f391906129ef565b6106aa565b005b610214600480360381019061020f9190612693565b6106d2565b005b610230600480360381019061022b9190612a42565b610773565b60405161023d9190613040565b60405180910390f35b610260600480360381019061025b9190612884565b61088c565b005b61026a6108c1565b005b61028660048036038101906102819190612aba565b6108d5565b005b6102a2600480360381019061029d9190612bb9565b6108e4565b005b6102ac610950565b6040516102b99190612f63565b60405180910390f35b6102ca61097a565b6040516102d791906130b4565b60405180910390f35b6102fa60048036038101906102f5919061296f565b610a08565b005b61031660048036038101906103119190612c15565b610a1e565b005b610332600480360381019061032d9190612b8c565b610a2d565b60405161033f91906130b4565b60405180910390f35b610362600480360381019061035d91906127f9565b610acd565b005b61037e60048036038101906103799190612653565b610af5565b60405161038b9190613099565b60405180910390f35b6103ae60048036038101906103a99190612762565b610b89565b005b6103ca60048036038101906103c59190612626565b610c2a565b005b60008073ffffffffffffffffffffffffffffffffffffffff168373ffffffffffffffffffffffffffffffffffffffff16141561043d576040517f08c379a000000000000000000000000000000000000000000000000000000000815260040161043490613176565b60405180910390fd5b60008083815260200190815260200160002060008473ffffffffffffffffffffffffffffffffffffffff1673ffffffffffffffffffffffffffffffffffffffff16815260200190815260200160002054905092915050565b60007fd9b67a26000000000000000000000000000000000000000000000000000000007bffffffffffffffffffffffffffffffffffffffffffffffffffffffff1916827bffffffffffffffffffffffffffffffffffffffffffffffffffffffff1916148061056057507f0e89341c000000000000000000000000000000000000000000000000000000007bffffffffffffffffffffffffffffffffffffffffffffffffffffffff1916827bffffffffffffffffffffffffffffffffffffffffffffffffffffffff1916145b80610570575061056f82610cae565b5b9050919050565b6004805461058490613536565b80601f01602080910402602001604051908101604052809291908181526020018280546105b090613536565b80156105fd5780601f106105d2576101008083540402835291602001916105fd565b820191906000526020600020905b8154815290600101906020018083116105e057829003601f168201915b505050505081565b606060066000838152602001908152602001600020805461062590613536565b80601f016020809104026020016040519081016040528092919081815260200182805461065190613536565b801561069e5780601f106106735761010080835404028352916020019161069e565b820191906000526020600020905b81548152906001019060200180831161068157829003601f168201915b50505050509050919050565b6106b2610d18565b6106cd83838360405180602001604052806000815250610d96565b505050565b6106da610f47565b73ffffffffffffffffffffffffffffffffffffffff168573ffffffffffffffffffffffffffffffffffffffff161480610720575061071f8561071a610f47565b610af5565b5b61075f576040517f08c379a0000000000000000000000000000000000000000000000000000000008152600401610756906130f6565b60405180910390fd5b61076c8585858585610f4f565b5050505050565b606081518351146107b9576040517f08c379a00000000000000000000000000000000000000000000000000000000081526004016107b090613236565b60405180910390fd5b6000835167ffffffffffffffff8111156107d6576107d561366f565b5b6040519080825280602002602001820160405280156108045781602001602082028036833780820191505090505b50905060005b84518110156108815761085185828151811061082957610828613640565b5b602002602001015185838151811061084457610843613640565b5b60200260200101516103cc565b82828151811061086457610863613640565b5b6020026020010181815250508061087a90613599565b905061080a565b508091505092915050565b610894610d18565b61089f858585611271565b6108ba85838360405180602001604052806000815250611540565b5050505050565b6108c9610d18565b6108d3600061176d565b565b6108e0338383611271565b5050565b6108ec610d18565b806006600084815260200190815260200160002090805190602001906109139291906122fe565b50817f6bb7ff708619ba0610cba295a58592e0451dee2622938c8755667688daf3529b8260405161094491906130b4565b60405180910390a25050565b6000600360009054906101000a900473ffffffffffffffffffffffffffffffffffffffff16905090565b6005805461098790613536565b80601f01602080910402602001604051908101604052809291908181526020018280546109b390613536565b8015610a005780601f106109d557610100808354040283529160200191610a00565b820191906000526020600020905b8154815290600101906020018083116109e357829003601f168201915b505050505081565b610a1a610a13610f47565b8383611833565b5050565b610a293383836119a0565b5050565b60066020528060005260406000206000915090508054610a4c90613536565b80601f0160208091040260200160405190810160405280929190818152602001828054610a7890613536565b8015610ac55780601f10610a9a57610100808354040283529160200191610ac5565b820191906000526020600020905b815481529060010190602001808311610aa857829003601f168201915b505050505081565b610ad5610d18565b610af083838360405180602001604052806000815250611540565b505050565b6000600160008473ffffffffffffffffffffffffffffffffffffffff1673ffffffffffffffffffffffffffffffffffffffff16815260200190815260200160002060008373ffffffffffffffffffffffffffffffffffffffff1673ffffffffffffffffffffffffffffffffffffffff16815260200190815260200160002060009054906101000a900460ff16905092915050565b610b91610f47565b73ffffffffffffffffffffffffffffffffffffffff168573ffffffffffffffffffffffffffffffffffffffff161480610bd75750610bd685610bd1610f47565b610af5565b5b610c16576040517f08c379a0000000000000000000000000000000000000000000000000000000008152600401610c0d906130f6565b60405180910390fd5b610c238585858585611be7565b5050505050565b610c32610d18565b600073ffffffffffffffffffffffffffffffffffffffff168173ffffffffffffffffffffffffffffffffffffffff161415610ca2576040517f08c379a0000000000000000000000000000000000000000000000000000000008152600401610c9990613136565b60405180910390fd5b610cab8161176d565b50565b60007f01ffc9a7000000000000000000000000000000000000000000000000000000007bffffffffffffffffffffffffffffffffffffffffffffffffffffffff1916827bffffffffffffffffffffffffffffffffffffffffffffffffffffffff1916149050919050565b610d20610f47565b73ffffffffffffffffffffffffffffffffffffffff16610d3e610950565b73ffffffffffffffffffffffffffffffffffffffff1614610d94576040517f08c379a0000000000000000000000000000000000000000000000000000000008152600401610d8b906131f6565b60405180910390fd5b565b600073ffffffffffffffffffffffffffffffffffffffff168473ffffffffffffffffffffffffffffffffffffffff161415610e06576040517f08c379a0000000000000000000000000000000000000000000000000000000008152600401610dfd90613276565b60405180910390fd5b6000610e10610f47565b90506000610e1d85611e83565b90506000610e2a85611e83565b9050610e3b83600089858589611efd565b8460008088815260200190815260200160002060008973ffffffffffffffffffffffffffffffffffffffff1673ffffffffffffffffffffffffffffffffffffffff1681526020019081526020016000206000828254610e9a919061342a565b925050819055508673ffffffffffffffffffffffffffffffffffffffff16600073ffffffffffffffffffffffffffffffffffffffff168473ffffffffffffffffffffffffffffffffffffffff167fc3d58168c5ae7397731d063d5bbf3d657854427343f4c083240f7aacaa2d0f628989604051610f189291906132b1565b60405180910390a4610f2f83600089858589611f05565b610f3e83600089898989611f0d565b50505050505050565b600033905090565b8151835114610f93576040517f08c379a0000000000000000000000000000000000000000000000000000000008152600401610f8a90613256565b60405180910390fd5b600073ffffffffffffffffffffffffffffffffffffffff168473ffffffffffffffffffffffffffffffffffffffff161415611003576040517f08c379a0000000000000000000000000000000000000000000000000000000008152600401610ffa90613196565b60405180910390fd5b600061100d610f47565b905061101d818787878787611efd565b60005b84518110156111ce57600085828151811061103e5761103d613640565b5b60200260200101519050600085838151811061105d5761105c613640565b5b60200260200101519050600080600084815260200190815260200160002060008b73ffffffffffffffffffffffffffffffffffffffff1673ffffffffffffffffffffffffffffffffffffffff168152602001908152602001600020549050818110156110fe576040517f08c379a00000000000000000000000000000000000000000000000000000000081526004016110f5906131d6565b60405180910390fd5b81810360008085815260200190815260200160002060008c73ffffffffffffffffffffffffffffffffffffffff1673ffffffffffffffffffffffffffffffffffffffff168152602001908152602001600020819055508160008085815260200190815260200160002060008b73ffffffffffffffffffffffffffffffffffffffff1673ffffffffffffffffffffffffffffffffffffffff16815260200190815260200160002060008282546111b3919061342a565b92505081905550505050806111c790613599565b9050611020565b508473ffffffffffffffffffffffffffffffffffffffff168673ffffffffffffffffffffffffffffffffffffffff168273ffffffffffffffffffffffffffffffffffffffff167f4a39dc06d4c0dbc64b70af90fd698a233a518aa5d07e595d983b8c0526c8f7fb8787604051611245929190613062565b60405180910390a461125b818787878787611f05565b6112698187878787876120f4565b505050505050565b600073ffffffffffffffffffffffffffffffffffffffff168373ffffffffffffffffffffffffffffffffffffffff1614156112e1576040517f08c379a00000000000000000000000000000000000000000000000000000000081526004016112d8906131b6565b60405180910390fd5b8051825114611325576040517f08c379a000000000000000000000000000000000000000000000000000000000815260040161131c90613256565b60405180910390fd5b600061132f610f47565b905061134f81856000868660405180602001604052806000815250611efd565b60005b835181101561149c5760008482815181106113705761136f613640565b5b60200260200101519050600084838151811061138f5761138e613640565b5b60200260200101519050600080600084815260200190815260200160002060008973ffffffffffffffffffffffffffffffffffffffff1673ffffffffffffffffffffffffffffffffffffffff16815260200190815260200160002054905081811015611430576040517f08c379a000000000000000000000000000000000000000000000000000000000815260040161142790613156565b60405180910390fd5b81810360008085815260200190815260200160002060008a73ffffffffffffffffffffffffffffffffffffffff1673ffffffffffffffffffffffffffffffffffffffff16815260200190815260200160002081905550505050808061149490613599565b915050611352565b50600073ffffffffffffffffffffffffffffffffffffffff168473ffffffffffffffffffffffffffffffffffffffff168273ffffffffffffffffffffffffffffffffffffffff167f4a39dc06d4c0dbc64b70af90fd698a233a518aa5d07e595d983b8c0526c8f7fb8686604051611514929190613062565b60405180910390a461153a81856000868660405180602001604052806000815250611f05565b50505050565b600073ffffffffffffffffffffffffffffffffffffffff168473ffffffffffffffffffffffffffffffffffffffff1614156115b0576040517f08c379a00000000000000000000000000000000000000000000000000000000081526004016115a790613276565b60405180910390fd5b81518351146115f4576040517f08c379a00000000000000000000000000000000000000000000000000000000081526004016115eb90613256565b60405180910390fd5b60006115fe610f47565b905061160f81600087878787611efd565b60005b84518110156116c85783818151811061162e5761162d613640565b5b602002602001015160008087848151811061164c5761164b613640565b5b6020026020010151815260200190815260200160002060008873ffffffffffffffffffffffffffffffffffffffff1673ffffffffffffffffffffffffffffffffffffffff16815260200190815260200160002060008282546116ae919061342a565b9250508190555080806116c090613599565b915050611612565b508473ffffffffffffffffffffffffffffffffffffffff16600073ffffffffffffffffffffffffffffffffffffffff168273ffffffffffffffffffffffffffffffffffffffff167f4a39dc06d4c0dbc64b70af90fd698a233a518aa5d07e595d983b8c0526c8f7fb8787604051611740929190613062565b60405180910390a461175781600087878787611f05565b611766816000878787876120f4565b5050505050565b6000600360009054906101000a900473ffffffffffffffffffffffffffffffffffffffff16905081600360006101000a81548173ffffffffffffffffffffffffffffffffffffffff021916908373ffffffffffffffffffffffffffffffffffffffff1602179055508173ffffffffffffffffffffffffffffffffffffffff168173ffffffffffffffffffffffffffffffffffffffff167f8be0079c531659141344cd1fd0a4f28419497f9722a3daafe3b4186f6b6457e060405160405180910390a35050565b8173ffffffffffffffffffffffffffffffffffffffff168373ffffffffffffffffffffffffffffffffffffffff1614156118a2576040517f08c379a000000000000000000000000000000000000000000000000000000000815260040161189990613216565b60405180910390fd5b80600160008573ffffffffffffffffffffffffffffffffffffffff1673ffffffffffffffffffffffffffffffffffffffff16815260200190815260200160002060008473ffffffffffffffffffffffffffffffffffffffff1673ffffffffffffffffffffffffffffffffffffffff16815260200190815260200160002060006101000a81548160ff0219169083151502179055508173ffffffffffffffffffffffffffffffffffffffff168373ffffffffffffffffffffffffffffffffffffffff167f17307eab39ab6107e8899845ad3d59bd9653f200f220920489ca2b5937696c31836040516119939190613099565b60405180910390a3505050565b600073ffffffffffffffffffffffffffffffffffffffff168373ffffffffffffffffffffffffffffffffffffffff161415611a10576040517f08c379a0000000000000000000000000000000000000000000000000000000008152600401611a07906131b6565b60405180910390fd5b6000611a1a610f47565b90506000611a2784611e83565b90506000611a3484611e83565b9050611a5483876000858560405180602001604052806000815250611efd565b600080600087815260200190815260200160002060008873ffffffffffffffffffffffffffffffffffffffff1673ffffffffffffffffffffffffffffffffffffffff16815260200190815260200160002054905084811015611aeb576040517f08c379a0000000000000000000000000000000000000000000000000000000008152600401611ae290613156565b60405180910390fd5b84810360008088815260200190815260200160002060008973ffffffffffffffffffffffffffffffffffffffff1673ffffffffffffffffffffffffffffffffffffffff16815260200190815260200160002081905550600073ffffffffffffffffffffffffffffffffffffffff168773ffffffffffffffffffffffffffffffffffffffff168573ffffffffffffffffffffffffffffffffffffffff167fc3d58168c5ae7397731d063d5bbf3d657854427343f4c083240f7aacaa2d0f628989604051611bb89291906132b1565b60405180910390a4611bde84886000868660405180602001604052806000815250611f05565b50505050505050565b600073ffffffffffffffffffffffffffffffffffffffff168473ffffffffffffffffffffffffffffffffffffffff161415611c57576040517f08c379a0000000000000000000000000000000000000000000000000000000008152600401611c4e90613196565b60405180910390fd5b6000611c61610f47565b90506000611c6e85611e83565b90506000611c7b85611e83565b9050611c8b838989858589611efd565b600080600088815260200190815260200160002060008a73ffffffffffffffffffffffffffffffffffffffff1673ffffffffffffffffffffffffffffffffffffffff16815260200190815260200160002054905085811015611d22576040517f08c379a0000000000000000000000000000000000000000000000000000000008152600401611d19906131d6565b60405180910390fd5b85810360008089815260200190815260200160002060008b73ffffffffffffffffffffffffffffffffffffffff1673ffffffffffffffffffffffffffffffffffffffff168152602001908152602001600020819055508560008089815260200190815260200160002060008a73ffffffffffffffffffffffffffffffffffffffff1673ffffffffffffffffffffffffffffffffffffffff1681526020019081526020016000206000828254611dd7919061342a565b925050819055508773ffffffffffffffffffffffffffffffffffffffff168973ffffffffffffffffffffffffffffffffffffffff168573ffffffffffffffffffffffffffffffffffffffff167fc3d58168c5ae7397731d063d5bbf3d657854427343f4c083240f7aacaa2d0f628a8a604051611e549291906132b1565b60405180910390a4611e6a848a8a86868a611f05565b611e78848a8a8a8a8a611f0d565b505050505050505050565b60606000600167ffffffffffffffff811115611ea257611ea161366f565b5b604051908082528060200260200182016040528015611ed05781602001602082028036833780820191505090505b5090508281600081518110611ee857611ee7613640565b5b60200260200101818152505080915050919050565b505050505050565b505050505050565b611f2c8473ffffffffffffffffffffffffffffffffffffffff166122db565b156120ec578373ffffffffffffffffffffffffffffffffffffffff1663f23a6e6187878686866040518663ffffffff1660e01b8152600401611f72959493929190612fe6565b602060405180830381600087803b158015611f8c57600080fd5b505af1925050508015611fbd57506040513d601f19601f82011682018060405250810190611fba9190612b5f565b60015b61206357611fc961369e565b806308c379a014156120265750611fde613b23565b80611fe95750612028565b806040517f08c379a000000000000000000000000000000000000000000000000000000000815260040161201d91906130b4565b60405180910390fd5b505b6040517f08c379a000000000000000000000000000000000000000000000000000000000815260040161205a906130d6565b60405180910390fd5b63f23a6e6160e01b7bffffffffffffffffffffffffffffffffffffffffffffffffffffffff1916817bffffffffffffffffffffffffffffffffffffffffffffffffffffffff1916146120ea576040517f08c379a00000000000000000000000000000000000000000000000000000000081526004016120e190613116565b60405180910390fd5b505b505050505050565b6121138473ffffffffffffffffffffffffffffffffffffffff166122db565b156122d3578373ffffffffffffffffffffffffffffffffffffffff1663bc197c8187878686866040518663ffffffff1660e01b8152600401612159959493929190612f7e565b602060405180830381600087803b15801561217357600080fd5b505af19250505080156121a457506040513d601f19601f820116820180604052508101906121a19190612b5f565b60015b61224a576121b061369e565b806308c379a0141561220d57506121c5613b23565b806121d0575061220f565b806040517f08c379a000000000000000000000000000000000000000000000000000000000815260040161220491906130b4565b60405180910390fd5b505b6040517f08c379a0000000000000000000000000000000000000000000000000000000008152600401612241906130d6565b60405180910390fd5b63bc197c8160e01b7bffffffffffffffffffffffffffffffffffffffffffffffffffffffff1916817bffffffffffffffffffffffffffffffffffffffffffffffffffffffff1916146122d1576040517f08c379a00000000000000000000000000000000000000000000000000000000081526004016122c890613116565b60405180910390fd5b505b505050505050565b6000808273ffffffffffffffffffffffffffffffffffffffff163b119050919050565b82805461230a90613536565b90600052602060002090601f01602090048101928261232c5760008555612373565b82601f1061234557805160ff1916838001178555612373565b82800160010185558215612373579182015b82811115612372578251825591602001919060010190612357565b5b5090506123809190612384565b5090565b5b8082111561239d576000816000905550600101612385565b5090565b60006123b46123af846132ff565b6132da565b905080838252602082019050828560208602820111156123d7576123d66136c5565b5b60005b8581101561240757816123ed8882612505565b8452602084019350602083019250506001810190506123da565b5050509392505050565b600061242461241f8461332b565b6132da565b90508083825260208201905082856020860282011115612447576124466136c5565b5b60005b85811015612477578161245d8882612611565b84526020840193506020830192505060018101905061244a565b5050509392505050565b600061249461248f84613357565b6132da565b9050828152602081018484840111156124b0576124af6136ca565b5b6124bb8482856134f4565b509392505050565b60006124d66124d184613388565b6132da565b9050828152602081018484840111156124f2576124f16136ca565b5b6124fd8482856134f4565b509392505050565b60008135905061251481613bb9565b92915050565b600082601f83011261252f5761252e6136c0565b5b813561253f8482602086016123a1565b91505092915050565b600082601f83011261255d5761255c6136c0565b5b813561256d848260208601612411565b91505092915050565b60008135905061258581613bd0565b92915050565b60008135905061259a81613be7565b92915050565b6000815190506125af81613be7565b92915050565b600082601f8301126125ca576125c96136c0565b5b81356125da848260208601612481565b91505092915050565b600082601f8301126125f8576125f76136c0565b5b81356126088482602086016124c3565b91505092915050565b60008135905061262081613bfe565b92915050565b60006020828403121561263c5761263b6136d4565b5b600061264a84828501612505565b91505092915050565b6000806040838503121561266a576126696136d4565b5b600061267885828601612505565b925050602061268985828601612505565b9150509250929050565b600080600080600060a086880312156126af576126ae6136d4565b5b60006126bd88828901612505565b95505060206126ce88828901612505565b945050604086013567ffffffffffffffff8111156126ef576126ee6136cf565b5b6126fb88828901612548565b935050606086013567ffffffffffffffff81111561271c5761271b6136cf565b5b61272888828901612548565b925050608086013567ffffffffffffffff811115612749576127486136cf565b5b612755888289016125b5565b9150509295509295909350565b600080600080600060a0868803121561277e5761277d6136d4565b5b600061278c88828901612505565b955050602061279d88828901612505565b94505060406127ae88828901612611565b93505060606127bf88828901612611565b925050608086013567ffffffffffffffff8111156127e0576127df6136cf565b5b6127ec888289016125b5565b9150509295509295909350565b600080600060608486031215612812576128116136d4565b5b600061282086828701612505565b935050602084013567ffffffffffffffff811115612841576128406136cf565b5b61284d86828701612548565b925050604084013567ffffffffffffffff81111561286e5761286d6136cf565b5b61287a86828701612548565b9150509250925092565b600080600080600060a086880312156128a05761289f6136d4565b5b60006128ae88828901612505565b955050602086013567ffffffffffffffff8111156128cf576128ce6136cf565b5b6128db88828901612548565b945050604086013567ffffffffffffffff8111156128fc576128fb6136cf565b5b61290888828901612548565b935050606086013567ffffffffffffffff811115612929576129286136cf565b5b61293588828901612548565b925050608086013567ffffffffffffffff811115612956576129556136cf565b5b61296288828901612548565b9150509295509295909350565b60008060408385031215612986576129856136d4565b5b600061299485828601612505565b92505060206129a585828601612576565b9150509250929050565b600080604083850312156129c6576129c56136d4565b5b60006129d485828601612505565b92505060206129e585828601612611565b9150509250929050565b600080600060608486031215612a0857612a076136d4565b5b6000612a1686828701612505565b9350506020612a2786828701612611565b9250506040612a3886828701612611565b9150509250925092565b60008060408385031215612a5957612a586136d4565b5b600083013567ffffffffffffffff811115612a7757612a766136cf565b5b612a838582860161251a565b925050602083013567ffffffffffffffff811115612aa457612aa36136cf565b5b612ab085828601612548565b9150509250929050565b60008060408385031215612ad157612ad06136d4565b5b600083013567ffffffffffffffff811115612aef57612aee6136cf565b5b612afb85828601612548565b925050602083013567ffffffffffffffff811115612b1c57612b1b6136cf565b5b612b2885828601612548565b9150509250929050565b600060208284031215612b4857612b476136d4565b5b6000612b568482850161258b565b91505092915050565b600060208284031215612b7557612b746136d4565b5b6000612b83848285016125a0565b91505092915050565b600060208284031215612ba257612ba16136d4565b5b6000612bb084828501612611565b91505092915050565b60008060408385031215612bd057612bcf6136d4565b5b6000612bde85828601612611565b925050602083013567ffffffffffffffff811115612bff57612bfe6136cf565b5b612c0b858286016125e3565b9150509250929050565b60008060408385031215612c2c57612c2b6136d4565b5b6000612c3a85828601612611565b9250506020612c4b85828601612611565b9150509250929050565b6000612c618383612f45565b60208301905092915050565b612c7681613480565b82525050565b6000612c87826133c9565b612c9181856133f7565b9350612c9c836133b9565b8060005b83811015612ccd578151612cb48882612c55565b9750612cbf836133ea565b925050600181019050612ca0565b5085935050505092915050565b612ce381613492565b82525050565b6000612cf4826133d4565b612cfe8185613408565b9350612d0e818560208601613503565b612d17816136d9565b840191505092915050565b6000612d2d826133df565b612d378185613419565b9350612d47818560208601613503565b612d50816136d9565b840191505092915050565b6000612d68603483613419565b9150612d73826136f7565b604082019050919050565b6000612d8b602f83613419565b9150612d9682613746565b604082019050919050565b6000612dae602883613419565b9150612db982613795565b604082019050919050565b6000612dd1602683613419565b9150612ddc826137e4565b604082019050919050565b6000612df4602483613419565b9150612dff82613833565b604082019050919050565b6000612e17602a83613419565b9150612e2282613882565b604082019050919050565b6000612e3a602583613419565b9150612e45826138d1565b604082019050919050565b6000612e5d602383613419565b9150612e6882613920565b604082019050919050565b6000612e80602a83613419565b9150612e8b8261396f565b604082019050919050565b6000612ea3602083613419565b9150612eae826139be565b602082019050919050565b6000612ec6602983613419565b9150612ed1826139e7565b604082019050919050565b6000612ee9602983613419565b9150612ef482613a36565b604082019050919050565b6000612f0c602883613419565b9150612f1782613a85565b604082019050919050565b6000612f2f602183613419565b9150612f3a82613ad4565b604082019050919050565b612f4e816134ea565b82525050565b612f5d816134ea565b82525050565b6000602082019050612f786000830184612c6d565b92915050565b600060a082019050612f936000830188612c6d565b612fa06020830187612c6d565b8181036040830152612fb28186612c7c565b90508181036060830152612fc68185612c7c565b90508181036080830152612fda8184612ce9565b90509695505050505050565b600060a082019050612ffb6000830188612c6d565b6130086020830187612c6d565b6130156040830186612f54565b6130226060830185612f54565b81810360808301526130348184612ce9565b90509695505050505050565b6000602082019050818103600083015261305a8184612c7c565b905092915050565b6000604082019050818103600083015261307c8185612c7c565b905081810360208301526130908184612c7c565b90509392505050565b60006020820190506130ae6000830184612cda565b92915050565b600060208201905081810360008301526130ce8184612d22565b905092915050565b600060208201905081810360008301526130ef81612d5b565b9050919050565b6000602082019050818103600083015261310f81612d7e565b9050919050565b6000602082019050818103600083015261312f81612da1565b9050919050565b6000602082019050818103600083015261314f81612dc4565b9050919050565b6000602082019050818103600083015261316f81612de7565b9050919050565b6000602082019050818103600083015261318f81612e0a565b9050919050565b600060208201905081810360008301526131af81612e2d565b9050919050565b600060208201905081810360008301526131cf81612e50565b9050919050565b600060208201905081810360008301526131ef81612e73565b9050919050565b6000602082019050818103600083015261320f81612e96565b9050919050565b6000602082019050818103600083015261322f81612eb9565b9050919050565b6000602082019050818103600083015261324f81612edc565b9050919050565b6000602082019050818103600083015261326f81612eff565b9050919050565b6000602082019050818103600083015261328f81612f22565b9050919050565b60006020820190506132ab6000830184612f54565b92915050565b60006040820190506132c66000830185612f54565b6132d36020830184612f54565b9392505050565b60006132e46132f5565b90506132f08282613568565b919050565b6000604051905090565b600067ffffffffffffffff82111561331a5761331961366f565b5b602082029050602081019050919050565b600067ffffffffffffffff8211156133465761334561366f565b5b602082029050602081019050919050565b600067ffffffffffffffff8211156133725761337161366f565b5b61337b826136d9565b9050602081019050919050565b600067ffffffffffffffff8211156133a3576133a261366f565b5b6133ac826136d9565b9050602081019050919050565b6000819050602082019050919050565b600081519050919050565b600081519050919050565b600081519050919050565b6000602082019050919050565b600082825260208201905092915050565b600082825260208201905092915050565b600082825260208201905092915050565b6000613435826134ea565b9150613440836134ea565b9250827fffffffffffffffffffffffffffffffffffffffffffffffffffffffffffffffff03821115613475576134746135e2565b5b828201905092915050565b600061348b826134ca565b9050919050565b60008115159050919050565b60007fffffffff0000000000000000000000000000000000000000000000000000000082169050919050565b600073ffffffffffffffffffffffffffffffffffffffff82169050919050565b6000819050919050565b82818337600083830152505050565b60005b83811015613521578082015181840152602081019050613506565b83811115613530576000848401525b50505050565b6000600282049050600182168061354e57607f821691505b6020821081141561356257613561613611565b5b50919050565b613571826136d9565b810181811067ffffffffffffffff821117156135905761358f61366f565b5b80604052505050565b60006135a4826134ea565b91507fffffffffffffffffffffffffffffffffffffffffffffffffffffffffffffffff8214156135d7576135d66135e2565b5b600182019050919050565b7f4e487b7100000000000000000000000000000000000000000000000000000000600052601160045260246000fd5b7f4e487b7100000000000000000000000000000000000000000000000000000000600052602260045260246000fd5b7f4e487b7100000000000000000000000000000000000000000000000000000000600052603260045260246000fd5b7f4e487b7100000000000000000000000000000000000000000000000000000000600052604160045260246000fd5b600060033d11156136bd5760046000803e6136ba6000516136ea565b90505b90565b600080fd5b600080fd5b600080fd5b600080fd5b600080fd5b6000601f19601f8301169050919050565b60008160e01c9050919050565b7f455243313135353a207472616e7366657220746f206e6f6e204552433131353560008201527f526563656976657220696d706c656d656e746572000000000000000000000000602082015250565b7f455243313135353a2063616c6c6572206973206e6f7420746f6b656e206f776e60008201527f6572206e6f7220617070726f7665640000000000000000000000000000000000602082015250565b7f455243313135353a204552433131353552656365697665722072656a6563746560008201527f6420746f6b656e73000000000000000000000000000000000000000000000000602082015250565b7f4f776e61626c653a206e6577206f776e657220697320746865207a65726f206160008201527f6464726573730000000000000000000000000000000000000000000000000000602082015250565b7f455243313135353a206275726e20616d6f756e7420657863656564732062616c60008201527f616e636500000000000000000000000000000000000000000000000000000000602082015250565b7f455243313135353a2061646472657373207a65726f206973206e6f742061207660008201527f616c6964206f776e657200000000000000000000000000000000000000000000602082015250565b7f455243313135353a207472616e7366657220746f20746865207a65726f20616460008201527f6472657373000000000000000000000000000000000000000000000000000000602082015250565b7f455243313135353a206275726e2066726f6d20746865207a65726f206164647260008201527f6573730000000000000000000000000000000000000000000000000000000000602082015250565b7f455243313135353a20696e73756666696369656e742062616c616e636520666f60008201527f72207472616e7366657200000000000000000000000000000000000000000000602082015250565b7f4f776e61626c653a2063616c6c6572206973206e6f7420746865206f776e6572600082015250565b7f455243313135353a2073657474696e6720617070726f76616c2073746174757360008201527f20666f722073656c660000000000000000000000000000000000000000000000602082015250565b7f455243313135353a206163636f756e747320616e6420696473206c656e67746860008201527f206d69736d617463680000000000000000000000000000000000000000000000602082015250565b7f455243313135353a2069647320616e6420616d6f756e7473206c656e6774682060008201527f6d69736d61746368000000000000000000000000000000000000000000000000602082015250565b7f455243313135353a206d696e7420746f20746865207a65726f2061646472657360008201527f7300000000000000000000000000000000000000000000000000000000000000602082015250565b600060443d1015613b3357613bb6565b613b3b6132f5565b60043d036004823e80513d602482011167ffffffffffffffff82111715613b63575050613bb6565b808201805167ffffffffffffffff811115613b815750505050613bb6565b80602083010160043d038501811115613b9e575050505050613bb6565b613bad82602001850186613568565b82955050505050505b90565b613bc281613480565b8114613bcd57600080fd5b50565b613bd981613492565b8114613be457600080fd5b50565b613bf08161349e565b8114613bfb57600080fd5b50565b613c07816134ea565b8114613c1257600080fd5b5056fea2646970667358221220f9d0919a98bde1bc531c9cc623b958fe8090f03cdad6e7a7d23fe806f6ceac8364736f6c63430008070033",
			"opcodes": "PUSH1 0x80 PUSH1 0x40 MSTORE CALLVALUE DUP1 ISZERO PUSH3 0x11 JUMPI PUSH1 0x0 DUP1 REVERT JUMPDEST POP PUSH1 0x40 MLOAD DUP1 PUSH1 0x20 ADD PUSH1 0x40 MSTORE DUP1 PUSH1 0x0 DUP2 MSTORE POP PUSH3 0x33 DUP2 PUSH3 0xF6 PUSH1 0x20 SHL PUSH1 0x20 SHR JUMP JUMPDEST POP PUSH3 0x54 PUSH3 0x48 PUSH3 0x112 PUSH1 0x20 SHL PUSH1 0x20 SHR JUMP JUMPDEST PUSH3 0x11A PUSH1 0x20 SHL PUSH1 0x20 SHR JUMP JUMPDEST PUSH1 0x40 MLOAD DUP1 PUSH1 0x40 ADD PUSH1 0x40 MSTORE DUP1 PUSH1 0x3 DUP2 MSTORE PUSH1 0x20 ADD PUSH32 0x4C454F0000000000000000000000000000000000000000000000000000000000 DUP2 MSTORE POP PUSH1 0x4 SWAP1 DUP1 MLOAD SWAP1 PUSH1 0x20 ADD SWAP1 PUSH3 0xA1 SWAP3 SWAP2 SWAP1 PUSH3 0x1E0 JUMP JUMPDEST POP PUSH1 0x40 MLOAD DUP1 PUSH1 0x40 ADD PUSH1 0x40 MSTORE DUP1 PUSH1 0x3 DUP2 MSTORE PUSH1 0x20 ADD PUSH32 0x454C4F0000000000000000000000000000000000000000000000000000000000 DUP2 MSTORE POP PUSH1 0x5 SWAP1 DUP1 MLOAD SWAP1 PUSH1 0x20 ADD SWAP1 PUSH3 0xEF SWAP3 SWAP2 SWAP1 PUSH3 0x1E0 JUMP JUMPDEST POP PUSH3 0x2F5 JUMP JUMPDEST DUP1 PUSH1 0x2 SWAP1 DUP1 MLOAD SWAP1 PUSH1 0x20 ADD SWAP1 PUSH3 0x10E SWAP3 SWAP2 SWAP1 PUSH3 0x1E0 JUMP JUMPDEST POP POP JUMP JUMPDEST PUSH1 0x0 CALLER SWAP1 POP SWAP1 JUMP JUMPDEST PUSH1 0x0 PUSH1 0x3 PUSH1 0x0 SWAP1 SLOAD SWAP1 PUSH2 0x100 EXP SWAP1 DIV PUSH20 0xFFFFFFFFFFFFFFFFFFFFFFFFFFFFFFFFFFFFFFFF AND SWAP1 POP DUP2 PUSH1 0x3 PUSH1 0x0 PUSH2 0x100 EXP DUP2 SLOAD DUP2 PUSH20 0xFFFFFFFFFFFFFFFFFFFFFFFFFFFFFFFFFFFFFFFF MUL NOT AND SWAP1 DUP4 PUSH20 0xFFFFFFFFFFFFFFFFFFFFFFFFFFFFFFFFFFFFFFFF AND MUL OR SWAP1 SSTORE POP DUP2 PUSH20 0xFFFFFFFFFFFFFFFFFFFFFFFFFFFFFFFFFFFFFFFF AND DUP2 PUSH20 0xFFFFFFFFFFFFFFFFFFFFFFFFFFFFFFFFFFFFFFFF AND PUSH32 0x8BE0079C531659141344CD1FD0A4F28419497F9722A3DAAFE3B4186F6B6457E0 PUSH1 0x40 MLOAD PUSH1 0x40 MLOAD DUP1 SWAP2 SUB SWAP1 LOG3 POP POP JUMP JUMPDEST DUP3 DUP1 SLOAD PUSH3 0x1EE SWAP1 PUSH3 0x290 JUMP JUMPDEST SWAP1 PUSH1 0x0 MSTORE PUSH1 0x20 PUSH1 0x0 KECCAK256 SWAP1 PUSH1 0x1F ADD PUSH1 0x20 SWAP1 DIV DUP2 ADD SWAP3 DUP3 PUSH3 0x212 JUMPI PUSH1 0x0 DUP6 SSTORE PUSH3 0x25E JUMP JUMPDEST DUP3 PUSH1 0x1F LT PUSH3 0x22D JUMPI DUP1 MLOAD PUSH1 0xFF NOT AND DUP4 DUP1 ADD OR DUP6 SSTORE PUSH3 0x25E JUMP JUMPDEST DUP3 DUP1 ADD PUSH1 0x1 ADD DUP6 SSTORE DUP3 ISZERO PUSH3 0x25E JUMPI SWAP2 DUP3 ADD JUMPDEST DUP3 DUP2 GT ISZERO PUSH3 0x25D JUMPI DUP3 MLOAD DUP3 SSTORE SWAP2 PUSH1 0x20 ADD SWAP2 SWAP1 PUSH1 0x1 ADD SWAP1 PUSH3 0x240 JUMP JUMPDEST JUMPDEST POP SWAP1 POP PUSH3 0x26D SWAP2 SWAP1 PUSH3 0x271 JUMP JUMPDEST POP SWAP1 JUMP JUMPDEST JUMPDEST DUP1 DUP3 GT ISZERO PUSH3 0x28C JUMPI PUSH1 0x0 DUP2 PUSH1 0x0 SWAP1 SSTORE POP PUSH1 0x1 ADD PUSH3 0x272 JUMP JUMPDEST POP SWAP1 JUMP JUMPDEST PUSH1 0x0 PUSH1 0x2 DUP3 DIV SWAP1 POP PUSH1 0x1 DUP3 AND DUP1 PUSH3 0x2A9 JUMPI PUSH1 0x7F DUP3 AND SWAP2 POP JUMPDEST PUSH1 0x20 DUP3 LT DUP2 EQ ISZERO PUSH3 0x2C0 JUMPI PUSH3 0x2BF PUSH3 0x2C6 JUMP JUMPDEST JUMPDEST POP SWAP2 SWAP1 POP JUMP JUMPDEST PUSH32 0x4E487B7100000000000000000000000000000000000000000000000000000000 PUSH1 0x0 MSTORE PUSH1 0x22 PUSH1 0x4 MSTORE PUSH1 0x24 PUSH1 0x0 REVERT JUMPDEST PUSH2 0x3C4B DUP1 PUSH3 0x305 PUSH1 0x0 CODECOPY PUSH1 0x0 RETURN INVALID PUSH1 0x80 PUSH1 0x40 MSTORE CALLVALUE DUP1 ISZERO PUSH2 0x10 JUMPI PUSH1 0x0 DUP1 REVERT JUMPDEST POP PUSH1 0x4 CALLDATASIZE LT PUSH2 0x12B JUMPI PUSH1 0x0 CALLDATALOAD PUSH1 0xE0 SHR DUP1 PUSH4 0x862440E2 GT PUSH2 0xAD JUMPI DUP1 PUSH4 0xC87B56DD GT PUSH2 0x71 JUMPI DUP1 PUSH4 0xC87B56DD EQ PUSH2 0x318 JUMPI DUP1 PUSH4 0xD81D0A15 EQ PUSH2 0x348 JUMPI DUP1 PUSH4 0xE985E9C5 EQ PUSH2 0x364 JUMPI DUP1 PUSH4 0xF242432A EQ PUSH2 0x394 JUMPI DUP1 PUSH4 0xF2FDE38B EQ PUSH2 0x3B0 JUMPI PUSH2 0x12B JUMP JUMPDEST DUP1 PUSH4 0x862440E2 EQ PUSH2 0x288 JUMPI DUP1 PUSH4 0x8DA5CB5B EQ PUSH2 0x2A4 JUMPI DUP1 PUSH4 0x95D89B41 EQ PUSH2 0x2C2 JUMPI DUP1 PUSH4 0xA22CB465 EQ PUSH2 0x2E0 JUMPI DUP1 PUSH4 0xB390C0AB EQ PUSH2 0x2FC JUMPI PUSH2 0x12B JUMP JUMPDEST DUP1 PUSH4 0x2EB2C2D6 GT PUSH2 0xF4 JUMPI DUP1 PUSH4 0x2EB2C2D6 EQ PUSH2 0x1FA JUMPI DUP1 PUSH4 0x4E1273F4 EQ PUSH2 0x216 JUMPI DUP1 PUSH4 0x510F4104 EQ PUSH2 0x246 JUMPI DUP1 PUSH4 0x715018A6 EQ PUSH2 0x262 JUMPI DUP1 PUSH4 0x83CA4B6F EQ PUSH2 0x26C JUMPI PUSH2 0x12B JUMP JUMPDEST DUP1 PUSH3 0xFDD58E EQ PUSH2 0x130 JUMPI DUP1 PUSH4 0x1FFC9A7 EQ PUSH2 0x160 JUMPI DUP1 PUSH4 0x6FDDE03 EQ PUSH2 0x190 JUMPI DUP1 PUSH4 0xE89341C EQ PUSH2 0x1AE JUMPI DUP1 PUSH4 0x156E29F6 EQ PUSH2 0x1DE JUMPI JUMPDEST PUSH1 0x0 DUP1 REVERT JUMPDEST PUSH2 0x14A PUSH1 0x4 DUP1 CALLDATASIZE SUB DUP2 ADD SWAP1 PUSH2 0x145 SWAP2 SWAP1 PUSH2 0x29AF JUMP JUMPDEST PUSH2 0x3CC JUMP JUMPDEST PUSH1 0x40 MLOAD PUSH2 0x157 SWAP2 SWAP1 PUSH2 0x3296 JUMP JUMPDEST PUSH1 0x40 MLOAD DUP1 SWAP2 SUB SWAP1 RETURN JUMPDEST PUSH2 0x17A PUSH1 0x4 DUP1 CALLDATASIZE SUB DUP2 ADD SWAP1 PUSH2 0x175 SWAP2 SWAP1 PUSH2 0x2B32 JUMP JUMPDEST PUSH2 0x495 JUMP JUMPDEST PUSH1 0x40 MLOAD PUSH2 0x187 SWAP2 SWAP1 PUSH2 0x3099 JUMP JUMPDEST PUSH1 0x40 MLOAD DUP1 SWAP2 SUB SWAP1 RETURN JUMPDEST PUSH2 0x198 PUSH2 0x577 JUMP JUMPDEST PUSH1 0x40 MLOAD PUSH2 0x1A5 SWAP2 SWAP1 PUSH2 0x30B4 JUMP JUMPDEST PUSH1 0x40 MLOAD DUP1 SWAP2 SUB SWAP1 RETURN JUMPDEST PUSH2 0x1C8 PUSH1 0x4 DUP1 CALLDATASIZE SUB DUP2 ADD SWAP1 PUSH2 0x1C3 SWAP2 SWAP1 PUSH2 0x2B8C JUMP JUMPDEST PUSH2 0x605 JUMP JUMPDEST PUSH1 0x40 MLOAD PUSH2 0x1D5 SWAP2 SWAP1 PUSH2 0x30B4 JUMP JUMPDEST PUSH1 0x40 MLOAD DUP1 SWAP2 SUB SWAP1 RETURN JUMPDEST PUSH2 0x1F8 PUSH1 0x4 DUP1 CALLDATASIZE SUB DUP2 ADD SWAP1 PUSH2 0x1F3 SWAP2 SWAP1 PUSH2 0x29EF JUMP JUMPDEST PUSH2 0x6AA JUMP JUMPDEST STOP JUMPDEST PUSH2 0x214 PUSH1 0x4 DUP1 CALLDATASIZE SUB DUP2 ADD SWAP1 PUSH2 0x20F SWAP2 SWAP1 PUSH2 0x2693 JUMP JUMPDEST PUSH2 0x6D2 JUMP JUMPDEST STOP JUMPDEST PUSH2 0x230 PUSH1 0x4 DUP1 CALLDATASIZE SUB DUP2 ADD SWAP1 PUSH2 0x22B SWAP2 SWAP1 PUSH2 0x2A42 JUMP JUMPDEST PUSH2 0x773 JUMP JUMPDEST PUSH1 0x40 MLOAD PUSH2 0x23D SWAP2 SWAP1 PUSH2 0x3040 JUMP JUMPDEST PUSH1 0x40 MLOAD DUP1 SWAP2 SUB SWAP1 RETURN JUMPDEST PUSH2 0x260 PUSH1 0x4 DUP1 CALLDATASIZE SUB DUP2 ADD SWAP1 PUSH2 0x25B SWAP2 SWAP1 PUSH2 0x2884 JUMP JUMPDEST PUSH2 0x88C JUMP JUMPDEST STOP JUMPDEST PUSH2 0x26A PUSH2 0x8C1 JUMP JUMPDEST STOP JUMPDEST PUSH2 0x286 PUSH1 0x4 DUP1 CALLDATASIZE SUB DUP2 ADD SWAP1 PUSH2 0x281 SWAP2 SWAP1 PUSH2 0x2ABA JUMP JUMPDEST PUSH2 0x8D5 JUMP JUMPDEST STOP JUMPDEST PUSH2 0x2A2 PUSH1 0x4 DUP1 CALLDATASIZE SUB DUP2 ADD SWAP1 PUSH2 0x29D SWAP2 SWAP1 PUSH2 0x2BB9 JUMP JUMPDEST PUSH2 0x8E4 JUMP JUMPDEST STOP JUMPDEST PUSH2 0x2AC PUSH2 0x950 JUMP JUMPDEST PUSH1 0x40 MLOAD PUSH2 0x2B9 SWAP2 SWAP1 PUSH2 0x2F63 JUMP JUMPDEST PUSH1 0x40 MLOAD DUP1 SWAP2 SUB SWAP1 RETURN JUMPDEST PUSH2 0x2CA PUSH2 0x97A JUMP JUMPDEST PUSH1 0x40 MLOAD PUSH2 0x2D7 SWAP2 SWAP1 PUSH2 0x30B4 JUMP JUMPDEST PUSH1 0x40 MLOAD DUP1 SWAP2 SUB SWAP1 RETURN JUMPDEST PUSH2 0x2FA PUSH1 0x4 DUP1 CALLDATASIZE SUB DUP2 ADD SWAP1 PUSH2 0x2F5 SWAP2 SWAP1 PUSH2 0x296F JUMP JUMPDEST PUSH2 0xA08 JUMP JUMPDEST STOP JUMPDEST PUSH2 0x316 PUSH1 0x4 DUP1 CALLDATASIZE SUB DUP2 ADD SWAP1 PUSH2 0x311 SWAP2 SWAP1 PUSH2 0x2C15 JUMP JUMPDEST PUSH2 0xA1E JUMP JUMPDEST STOP JUMPDEST PUSH2 0x332 PUSH1 0x4 DUP1 CALLDATASIZE SUB DUP2 ADD SWAP1 PUSH2 0x32D SWAP2 SWAP1 PUSH2 0x2B8C JUMP JUMPDEST PUSH2 0xA2D JUMP JUMPDEST PUSH1 0x40 MLOAD PUSH2 0x33F SWAP2 SWAP1 PUSH2 0x30B4 JUMP JUMPDEST PUSH1 0x40 MLOAD DUP1 SWAP2 SUB SWAP1 RETURN JUMPDEST PUSH2 0x362 PUSH1 0x4 DUP1 CALLDATASIZE SUB DUP2 ADD SWAP1 PUSH2 0x35D SWAP2 SWAP1 PUSH2 0x27F9 JUMP JUMPDEST PUSH2 0xACD JUMP JUMPDEST STOP JUMPDEST PUSH2 0x37E PUSH1 0x4 DUP1 CALLDATASIZE SUB DUP2 ADD SWAP1 PUSH2 0x379 SWAP2 SWAP1 PUSH2 0x2653 JUMP JUMPDEST PUSH2 0xAF5 JUMP JUMPDEST PUSH1 0x40 MLOAD PUSH2 0x38B SWAP2 SWAP1 PUSH2 0x3099 JUMP JUMPDEST PUSH1 0x40 MLOAD DUP1 SWAP2 SUB SWAP1 RETURN JUMPDEST PUSH2 0x3AE PUSH1 0x4 DUP1 CALLDATASIZE SUB DUP2 ADD SWAP1 PUSH2 0x3A9 SWAP2 SWAP1 PUSH2 0x2762 JUMP JUMPDEST PUSH2 0xB89 JUMP JUMPDEST STOP JUMPDEST PUSH2 0x3CA PUSH1 0x4 DUP1 CALLDATASIZE SUB DUP2 ADD SWAP1 PUSH2 0x3C5 SWAP2 SWAP1 PUSH2 0x2626 JUMP JUMPDEST PUSH2 0xC2A JUMP JUMPDEST STOP JUMPDEST PUSH1 0x0 DUP1 PUSH20 0xFFFFFFFFFFFFFFFFFFFFFFFFFFFFFFFFFFFFFFFF AND DUP4 PUSH20 0xFFFFFFFFFFFFFFFFFFFFFFFFFFFFFFFFFFFFFFFF AND EQ ISZERO PUSH2 0x43D JUMPI PUSH1 0x40 MLOAD PUSH32 0x8C379A000000000000000000000000000000000000000000000000000000000 DUP2 MSTORE PUSH1 0x4 ADD PUSH2 0x434 SWAP1 PUSH2 0x3176 JUMP JUMPDEST PUSH1 0x40 MLOAD DUP1 SWAP2 SUB SWAP1 REVERT JUMPDEST PUSH1 0x0 DUP1 DUP4 DUP2 MSTORE PUSH1 0x20 ADD SWAP1 DUP2 MSTORE PUSH1 0x20 ADD PUSH1 0x0 KECCAK256 PUSH1 0x0 DUP5 PUSH20 0xFFFFFFFFFFFFFFFFFFFFFFFFFFFFFFFFFFFFFFFF AND PUSH20 0xFFFFFFFFFFFFFFFFFFFFFFFFFFFFFFFFFFFFFFFF AND DUP2 MSTORE PUSH1 0x20 ADD SWAP1 DUP2 MSTORE PUSH1 0x20 ADD PUSH1 0x0 KECCAK256 SLOAD SWAP1 POP SWAP3 SWAP2 POP POP JUMP JUMPDEST PUSH1 0x0 PUSH32 0xD9B67A2600000000000000000000000000000000000000000000000000000000 PUSH28 0xFFFFFFFFFFFFFFFFFFFFFFFFFFFFFFFFFFFFFFFFFFFFFFFFFFFFFFFF NOT AND DUP3 PUSH28 0xFFFFFFFFFFFFFFFFFFFFFFFFFFFFFFFFFFFFFFFFFFFFFFFFFFFFFFFF NOT AND EQ DUP1 PUSH2 0x560 JUMPI POP PUSH32 0xE89341C00000000000000000000000000000000000000000000000000000000 PUSH28 0xFFFFFFFFFFFFFFFFFFFFFFFFFFFFFFFFFFFFFFFFFFFFFFFFFFFFFFFF NOT AND DUP3 PUSH28 0xFFFFFFFFFFFFFFFFFFFFFFFFFFFFFFFFFFFFFFFFFFFFFFFFFFFFFFFF NOT AND EQ JUMPDEST DUP1 PUSH2 0x570 JUMPI POP PUSH2 0x56F DUP3 PUSH2 0xCAE JUMP JUMPDEST JUMPDEST SWAP1 POP SWAP2 SWAP1 POP JUMP JUMPDEST PUSH1 0x4 DUP1 SLOAD PUSH2 0x584 SWAP1 PUSH2 0x3536 JUMP JUMPDEST DUP1 PUSH1 0x1F ADD PUSH1 0x20 DUP1 SWAP2 DIV MUL PUSH1 0x20 ADD PUSH1 0x40 MLOAD SWAP1 DUP2 ADD PUSH1 0x40 MSTORE DUP1 SWAP3 SWAP2 SWAP1 DUP2 DUP2 MSTORE PUSH1 0x20 ADD DUP3 DUP1 SLOAD PUSH2 0x5B0 SWAP1 PUSH2 0x3536 JUMP JUMPDEST DUP1 ISZERO PUSH2 0x5FD JUMPI DUP1 PUSH1 0x1F LT PUSH2 0x5D2 JUMPI PUSH2 0x100 DUP1 DUP4 SLOAD DIV MUL DUP4 MSTORE SWAP2 PUSH1 0x20 ADD SWAP2 PUSH2 0x5FD JUMP JUMPDEST DUP3 ADD SWAP2 SWAP1 PUSH1 0x0 MSTORE PUSH1 0x20 PUSH1 0x0 KECCAK256 SWAP1 JUMPDEST DUP2 SLOAD DUP2 MSTORE SWAP1 PUSH1 0x1 ADD SWAP1 PUSH1 0x20 ADD DUP1 DUP4 GT PUSH2 0x5E0 JUMPI DUP3 SWAP1 SUB PUSH1 0x1F AND DUP3 ADD SWAP2 JUMPDEST POP POP POP POP POP DUP2 JUMP JUMPDEST PUSH1 0x60 PUSH1 0x6 PUSH1 0x0 DUP4 DUP2 MSTORE PUSH1 0x20 ADD SWAP1 DUP2 MSTORE PUSH1 0x20 ADD PUSH1 0x0 KECCAK256 DUP1 SLOAD PUSH2 0x625 SWAP1 PUSH2 0x3536 JUMP JUMPDEST DUP1 PUSH1 0x1F ADD PUSH1 0x20 DUP1 SWAP2 DIV MUL PUSH1 0x20 ADD PUSH1 0x40 MLOAD SWAP1 DUP2 ADD PUSH1 0x40 MSTORE DUP1 SWAP3 SWAP2 SWAP1 DUP2 DUP2 MSTORE PUSH1 0x20 ADD DUP3 DUP1 SLOAD PUSH2 0x651 SWAP1 PUSH2 0x3536 JUMP JUMPDEST DUP1 ISZERO PUSH2 0x69E JUMPI DUP1 PUSH1 0x1F LT PUSH2 0x673 JUMPI PUSH2 0x100 DUP1 DUP4 SLOAD DIV MUL DUP4 MSTORE SWAP2 PUSH1 0x20 ADD SWAP2 PUSH2 0x69E JUMP JUMPDEST DUP3 ADD SWAP2 SWAP1 PUSH1 0x0 MSTORE PUSH1 0x20 PUSH1 0x0 KECCAK256 SWAP1 JUMPDEST DUP2 SLOAD DUP2 MSTORE SWAP1 PUSH1 0x1 ADD SWAP1 PUSH1 0x20 ADD DUP1 DUP4 GT PUSH2 0x681 JUMPI DUP3 SWAP1 SUB PUSH1 0x1F AND DUP3 ADD SWAP2 JUMPDEST POP POP POP POP POP SWAP1 POP SWAP2 SWAP1 POP JUMP JUMPDEST PUSH2 0x6B2 PUSH2 0xD18 JUMP JUMPDEST PUSH2 0x6CD DUP4 DUP4 DUP4 PUSH1 0x40 MLOAD DUP1 PUSH1 0x20 ADD PUSH1 0x40 MSTORE DUP1 PUSH1 0x0 DUP2 MSTORE POP PUSH2 0xD96 JUMP JUMPDEST POP POP POP JUMP JUMPDEST PUSH2 0x6DA PUSH2 0xF47 JUMP JUMPDEST PUSH20 0xFFFFFFFFFFFFFFFFFFFFFFFFFFFFFFFFFFFFFFFF AND DUP6 PUSH20 0xFFFFFFFFFFFFFFFFFFFFFFFFFFFFFFFFFFFFFFFF AND EQ DUP1 PUSH2 0x720 JUMPI POP PUSH2 0x71F DUP6 PUSH2 0x71A PUSH2 0xF47 JUMP JUMPDEST PUSH2 0xAF5 JUMP JUMPDEST JUMPDEST PUSH2 0x75F JUMPI PUSH1 0x40 MLOAD PUSH32 0x8C379A000000000000000000000000000000000000000000000000000000000 DUP2 MSTORE PUSH1 0x4 ADD PUSH2 0x756 SWAP1 PUSH2 0x30F6 JUMP JUMPDEST PUSH1 0x40 MLOAD DUP1 SWAP2 SUB SWAP1 REVERT JUMPDEST PUSH2 0x76C DUP6 DUP6 DUP6 DUP6 DUP6 PUSH2 0xF4F JUMP JUMPDEST POP POP POP POP POP JUMP JUMPDEST PUSH1 0x60 DUP2 MLOAD DUP4 MLOAD EQ PUSH2 0x7B9 JUMPI PUSH1 0x40 MLOAD PUSH32 0x8C379A000000000000000000000000000000000000000000000000000000000 DUP2 MSTORE PUSH1 0x4 ADD PUSH2 0x7B0 SWAP1 PUSH2 0x3236 JUMP JUMPDEST PUSH1 0x40 MLOAD DUP1 SWAP2 SUB SWAP1 REVERT JUMPDEST PUSH1 0x0 DUP4 MLOAD PUSH8 0xFFFFFFFFFFFFFFFF DUP2 GT ISZERO PUSH2 0x7D6 JUMPI PUSH2 0x7D5 PUSH2 0x366F JUMP JUMPDEST JUMPDEST PUSH1 0x40 MLOAD SWAP1 DUP1 DUP3 MSTORE DUP1 PUSH1 0x20 MUL PUSH1 0x20 ADD DUP3 ADD PUSH1 0x40 MSTORE DUP1 ISZERO PUSH2 0x804 JUMPI DUP2 PUSH1 0x20 ADD PUSH1 0x20 DUP3 MUL DUP1 CALLDATASIZE DUP4 CALLDATACOPY DUP1 DUP3 ADD SWAP2 POP POP SWAP1 POP JUMPDEST POP SWAP1 POP PUSH1 0x0 JUMPDEST DUP5 MLOAD DUP2 LT ISZERO PUSH2 0x881 JUMPI PUSH2 0x851 DUP6 DUP3 DUP2 MLOAD DUP2 LT PUSH2 0x829 JUMPI PUSH2 0x828 PUSH2 0x3640 JUMP JUMPDEST JUMPDEST PUSH1 0x20 MUL PUSH1 0x20 ADD ADD MLOAD DUP6 DUP4 DUP2 MLOAD DUP2 LT PUSH2 0x844 JUMPI PUSH2 0x843 PUSH2 0x3640 JUMP JUMPDEST JUMPDEST PUSH1 0x20 MUL PUSH1 0x20 ADD ADD MLOAD PUSH2 0x3CC JUMP JUMPDEST DUP3 DUP3 DUP2 MLOAD DUP2 LT PUSH2 0x864 JUMPI PUSH2 0x863 PUSH2 0x3640 JUMP JUMPDEST JUMPDEST PUSH1 0x20 MUL PUSH1 0x20 ADD ADD DUP2 DUP2 MSTORE POP POP DUP1 PUSH2 0x87A SWAP1 PUSH2 0x3599 JUMP JUMPDEST SWAP1 POP PUSH2 0x80A JUMP JUMPDEST POP DUP1 SWAP2 POP POP SWAP3 SWAP2 POP POP JUMP JUMPDEST PUSH2 0x894 PUSH2 0xD18 JUMP JUMPDEST PUSH2 0x89F DUP6 DUP6 DUP6 PUSH2 0x1271 JUMP JUMPDEST PUSH2 0x8BA DUP6 DUP4 DUP4 PUSH1 0x40 MLOAD DUP1 PUSH1 0x20 ADD PUSH1 0x40 MSTORE DUP1 PUSH1 0x0 DUP2 MSTORE POP PUSH2 0x1540 JUMP JUMPDEST POP POP POP POP POP JUMP JUMPDEST PUSH2 0x8C9 PUSH2 0xD18 JUMP JUMPDEST PUSH2 0x8D3 PUSH1 0x0 PUSH2 0x176D JUMP JUMPDEST JUMP JUMPDEST PUSH2 0x8E0 CALLER DUP4 DUP4 PUSH2 0x1271 JUMP JUMPDEST POP POP JUMP JUMPDEST PUSH2 0x8EC PUSH2 0xD18 JUMP JUMPDEST DUP1 PUSH1 0x6 PUSH1 0x0 DUP5 DUP2 MSTORE PUSH1 0x20 ADD SWAP1 DUP2 MSTORE PUSH1 0x20 ADD PUSH1 0x0 KECCAK256 SWAP1 DUP1 MLOAD SWAP1 PUSH1 0x20 ADD SWAP1 PUSH2 0x913 SWAP3 SWAP2 SWAP1 PUSH2 0x22FE JUMP JUMPDEST POP DUP2 PUSH32 0x6BB7FF708619BA0610CBA295A58592E0451DEE2622938C8755667688DAF3529B DUP3 PUSH1 0x40 MLOAD PUSH2 0x944 SWAP2 SWAP1 PUSH2 0x30B4 JUMP JUMPDEST PUSH1 0x40 MLOAD DUP1 SWAP2 SUB SWAP1 LOG2 POP POP JUMP JUMPDEST PUSH1 0x0 PUSH1 0x3 PUSH1 0x0 SWAP1 SLOAD SWAP1 PUSH2 0x100 EXP SWAP1 DIV PUSH20 0xFFFFFFFFFFFFFFFFFFFFFFFFFFFFFFFFFFFFFFFF AND SWAP1 POP SWAP1 JUMP JUMPDEST PUSH1 0x5 DUP1 SLOAD PUSH2 0x987 SWAP1 PUSH2 0x3536 JUMP JUMPDEST DUP1 PUSH1 0x1F ADD PUSH1 0x20 DUP1 SWAP2 DIV MUL PUSH1 0x20 ADD PUSH1 0x40 MLOAD SWAP1 DUP2 ADD PUSH1 0x40 MSTORE DUP1 SWAP3 SWAP2 SWAP1 DUP2 DUP2 MSTORE PUSH1 0x20 ADD DUP3 DUP1 SLOAD PUSH2 0x9B3 SWAP1 PUSH2 0x3536 JUMP JUMPDEST DUP1 ISZERO PUSH2 0xA00 JUMPI DUP1 PUSH1 0x1F LT PUSH2 0x9D5 JUMPI PUSH2 0x100 DUP1 DUP4 SLOAD DIV MUL DUP4 MSTORE SWAP2 PUSH1 0x20 ADD SWAP2 PUSH2 0xA00 JUMP JUMPDEST DUP3 ADD SWAP2 SWAP1 PUSH1 0x0 MSTORE PUSH1 0x20 PUSH1 0x0 KECCAK256 SWAP1 JUMPDEST DUP2 SLOAD DUP2 MSTORE SWAP1 PUSH1 0x1 ADD SWAP1 PUSH1 0x20 ADD DUP1 DUP4 GT PUSH2 0x9E3 JUMPI DUP3 SWAP1 SUB PUSH1 0x1F AND DUP3 ADD SWAP2 JUMPDEST POP POP POP POP POP DUP2 JUMP JUMPDEST PUSH2 0xA1A PUSH2 0xA13 PUSH2 0xF47 JUMP JUMPDEST DUP4 DUP4 PUSH2 0x1833 JUMP JUMPDEST POP POP JUMP JUMPDEST PUSH2 0xA29 CALLER DUP4 DUP4 PUSH2 0x19A0 JUMP JUMPDEST POP POP JUMP JUMPDEST PUSH1 0x6 PUSH1 0x20 MSTORE DUP1 PUSH1 0x0 MSTORE PUSH1 0x40 PUSH1 0x0 KECCAK256 PUSH1 0x0 SWAP2 POP SWAP1 POP DUP1 SLOAD PUSH2 0xA4C SWAP1 PUSH2 0x3536 JUMP JUMPDEST DUP1 PUSH1 0x1F ADD PUSH1 0x20 DUP1 SWAP2 DIV MUL PUSH1 0x20 ADD PUSH1 0x40 MLOAD SWAP1 DUP2 ADD PUSH1 0x40 MSTORE DUP1 SWAP3 SWAP2 SWAP1 DUP2 DUP2 MSTORE PUSH1 0x20 ADD DUP3 DUP1 SLOAD PUSH2 0xA78 SWAP1 PUSH2 0x3536 JUMP JUMPDEST DUP1 ISZERO PUSH2 0xAC5 JUMPI DUP1 PUSH1 0x1F LT PUSH2 0xA9A JUMPI PUSH2 0x100 DUP1 DUP4 SLOAD DIV MUL DUP4 MSTORE SWAP2 PUSH1 0x20 ADD SWAP2 PUSH2 0xAC5 JUMP JUMPDEST DUP3 ADD SWAP2 SWAP1 PUSH1 0x0 MSTORE PUSH1 0x20 PUSH1 0x0 KECCAK256 SWAP1 JUMPDEST DUP2 SLOAD DUP2 MSTORE SWAP1 PUSH1 0x1 ADD SWAP1 PUSH1 0x20 ADD DUP1 DUP4 GT PUSH2 0xAA8 JUMPI DUP3 SWAP1 SUB PUSH1 0x1F AND DUP3 ADD SWAP2 JUMPDEST POP POP POP POP POP DUP2 JUMP JUMPDEST PUSH2 0xAD5 PUSH2 0xD18 JUMP JUMPDEST PUSH2 0xAF0 DUP4 DUP4 DUP4 PUSH1 0x40 MLOAD DUP1 PUSH1 0x20 ADD PUSH1 0x40 MSTORE DUP1 PUSH1 0x0 DUP2 MSTORE POP PUSH2 0x1540 JUMP JUMPDEST POP POP POP JUMP JUMPDEST PUSH1 0x0 PUSH1 0x1 PUSH1 0x0 DUP5 PUSH20 0xFFFFFFFFFFFFFFFFFFFFFFFFFFFFFFFFFFFFFFFF AND PUSH20 0xFFFFFFFFFFFFFFFFFFFFFFFFFFFFFFFFFFFFFFFF AND DUP2 MSTORE PUSH1 0x20 ADD SWAP1 DUP2 MSTORE PUSH1 0x20 ADD PUSH1 0x0 KECCAK256 PUSH1 0x0 DUP4 PUSH20 0xFFFFFFFFFFFFFFFFFFFFFFFFFFFFFFFFFFFFFFFF AND PUSH20 0xFFFFFFFFFFFFFFFFFFFFFFFFFFFFFFFFFFFFFFFF AND DUP2 MSTORE PUSH1 0x20 ADD SWAP1 DUP2 MSTORE PUSH1 0x20 ADD PUSH1 0x0 KECCAK256 PUSH1 0x0 SWAP1 SLOAD SWAP1 PUSH2 0x100 EXP SWAP1 DIV PUSH1 0xFF AND SWAP1 POP SWAP3 SWAP2 POP POP JUMP JUMPDEST PUSH2 0xB91 PUSH2 0xF47 JUMP JUMPDEST PUSH20 0xFFFFFFFFFFFFFFFFFFFFFFFFFFFFFFFFFFFFFFFF AND DUP6 PUSH20 0xFFFFFFFFFFFFFFFFFFFFFFFFFFFFFFFFFFFFFFFF AND EQ DUP1 PUSH2 0xBD7 JUMPI POP PUSH2 0xBD6 DUP6 PUSH2 0xBD1 PUSH2 0xF47 JUMP JUMPDEST PUSH2 0xAF5 JUMP JUMPDEST JUMPDEST PUSH2 0xC16 JUMPI PUSH1 0x40 MLOAD PUSH32 0x8C379A000000000000000000000000000000000000000000000000000000000 DUP2 MSTORE PUSH1 0x4 ADD PUSH2 0xC0D SWAP1 PUSH2 0x30F6 JUMP JUMPDEST PUSH1 0x40 MLOAD DUP1 SWAP2 SUB SWAP1 REVERT JUMPDEST PUSH2 0xC23 DUP6 DUP6 DUP6 DUP6 DUP6 PUSH2 0x1BE7 JUMP JUMPDEST POP POP POP POP POP JUMP JUMPDEST PUSH2 0xC32 PUSH2 0xD18 JUMP JUMPDEST PUSH1 0x0 PUSH20 0xFFFFFFFFFFFFFFFFFFFFFFFFFFFFFFFFFFFFFFFF AND DUP2 PUSH20 0xFFFFFFFFFFFFFFFFFFFFFFFFFFFFFFFFFFFFFFFF AND EQ ISZERO PUSH2 0xCA2 JUMPI PUSH1 0x40 MLOAD PUSH32 0x8C379A000000000000000000000000000000000000000000000000000000000 DUP2 MSTORE PUSH1 0x4 ADD PUSH2 0xC99 SWAP1 PUSH2 0x3136 JUMP JUMPDEST PUSH1 0x40 MLOAD DUP1 SWAP2 SUB SWAP1 REVERT JUMPDEST PUSH2 0xCAB DUP2 PUSH2 0x176D JUMP JUMPDEST POP JUMP JUMPDEST PUSH1 0x0 PUSH32 0x1FFC9A700000000000000000000000000000000000000000000000000000000 PUSH28 0xFFFFFFFFFFFFFFFFFFFFFFFFFFFFFFFFFFFFFFFFFFFFFFFFFFFFFFFF NOT AND DUP3 PUSH28 0xFFFFFFFFFFFFFFFFFFFFFFFFFFFFFFFFFFFFFFFFFFFFFFFFFFFFFFFF NOT AND EQ SWAP1 POP SWAP2 SWAP1 POP JUMP JUMPDEST PUSH2 0xD20 PUSH2 0xF47 JUMP JUMPDEST PUSH20 0xFFFFFFFFFFFFFFFFFFFFFFFFFFFFFFFFFFFFFFFF AND PUSH2 0xD3E PUSH2 0x950 JUMP JUMPDEST PUSH20 0xFFFFFFFFFFFFFFFFFFFFFFFFFFFFFFFFFFFFFFFF AND EQ PUSH2 0xD94 JUMPI PUSH1 0x40 MLOAD PUSH32 0x8C379A000000000000000000000000000000000000000000000000000000000 DUP2 MSTORE PUSH1 0x4 ADD PUSH2 0xD8B SWAP1 PUSH2 0x31F6 JUMP JUMPDEST PUSH1 0x40 MLOAD DUP1 SWAP2 SUB SWAP1 REVERT JUMPDEST JUMP JUMPDEST PUSH1 0x0 PUSH20 0xFFFFFFFFFFFFFFFFFFFFFFFFFFFFFFFFFFFFFFFF AND DUP5 PUSH20 0xFFFFFFFFFFFFFFFFFFFFFFFFFFFFFFFFFFFFFFFF AND EQ ISZERO PUSH2 0xE06 JUMPI PUSH1 0x40 MLOAD PUSH32 0x8C379A000000000000000000000000000000000000000000000000000000000 DUP2 MSTORE PUSH1 0x4 ADD PUSH2 0xDFD SWAP1 PUSH2 0x3276 JUMP JUMPDEST PUSH1 0x40 MLOAD DUP1 SWAP2 SUB SWAP1 REVERT JUMPDEST PUSH1 0x0 PUSH2 0xE10 PUSH2 0xF47 JUMP JUMPDEST SWAP1 POP PUSH1 0x0 PUSH2 0xE1D DUP6 PUSH2 0x1E83 JUMP JUMPDEST SWAP1 POP PUSH1 0x0 PUSH2 0xE2A DUP6 PUSH2 0x1E83 JUMP JUMPDEST SWAP1 POP PUSH2 0xE3B DUP4 PUSH1 0x0 DUP10 DUP6 DUP6 DUP10 PUSH2 0x1EFD JUMP JUMPDEST DUP5 PUSH1 0x0 DUP1 DUP9 DUP2 MSTORE PUSH1 0x20 ADD SWAP1 DUP2 MSTORE PUSH1 0x20 ADD PUSH1 0x0 KECCAK256 PUSH1 0x0 DUP10 PUSH20 0xFFFFFFFFFFFFFFFFFFFFFFFFFFFFFFFFFFFFFFFF AND PUSH20 0xFFFFFFFFFFFFFFFFFFFFFFFFFFFFFFFFFFFFFFFF AND DUP2 MSTORE PUSH1 0x20 ADD SWAP1 DUP2 MSTORE PUSH1 0x20 ADD PUSH1 0x0 KECCAK256 PUSH1 0x0 DUP3 DUP3 SLOAD PUSH2 0xE9A SWAP2 SWAP1 PUSH2 0x342A JUMP JUMPDEST SWAP3 POP POP DUP2 SWAP1 SSTORE POP DUP7 PUSH20 0xFFFFFFFFFFFFFFFFFFFFFFFFFFFFFFFFFFFFFFFF AND PUSH1 0x0 PUSH20 0xFFFFFFFFFFFFFFFFFFFFFFFFFFFFFFFFFFFFFFFF AND DUP5 PUSH20 0xFFFFFFFFFFFFFFFFFFFFFFFFFFFFFFFFFFFFFFFF AND PUSH32 0xC3D58168C5AE7397731D063D5BBF3D657854427343F4C083240F7AACAA2D0F62 DUP10 DUP10 PUSH1 0x40 MLOAD PUSH2 0xF18 SWAP3 SWAP2 SWAP1 PUSH2 0x32B1 JUMP JUMPDEST PUSH1 0x40 MLOAD DUP1 SWAP2 SUB SWAP1 LOG4 PUSH2 0xF2F DUP4 PUSH1 0x0 DUP10 DUP6 DUP6 DUP10 PUSH2 0x1F05 JUMP JUMPDEST PUSH2 0xF3E DUP4 PUSH1 0x0 DUP10 DUP10 DUP10 DUP10 PUSH2 0x1F0D JUMP JUMPDEST POP POP POP POP POP POP POP JUMP JUMPDEST PUSH1 0x0 CALLER SWAP1 POP SWAP1 JUMP JUMPDEST DUP2 MLOAD DUP4 MLOAD EQ PUSH2 0xF93 JUMPI PUSH1 0x40 MLOAD PUSH32 0x8C379A000000000000000000000000000000000000000000000000000000000 DUP2 MSTORE PUSH1 0x4 ADD PUSH2 0xF8A SWAP1 PUSH2 0x3256 JUMP JUMPDEST PUSH1 0x40 MLOAD DUP1 SWAP2 SUB SWAP1 REVERT JUMPDEST PUSH1 0x0 PUSH20 0xFFFFFFFFFFFFFFFFFFFFFFFFFFFFFFFFFFFFFFFF AND DUP5 PUSH20 0xFFFFFFFFFFFFFFFFFFFFFFFFFFFFFFFFFFFFFFFF AND EQ ISZERO PUSH2 0x1003 JUMPI PUSH1 0x40 MLOAD PUSH32 0x8C379A000000000000000000000000000000000000000000000000000000000 DUP2 MSTORE PUSH1 0x4 ADD PUSH2 0xFFA SWAP1 PUSH2 0x3196 JUMP JUMPDEST PUSH1 0x40 MLOAD DUP1 SWAP2 SUB SWAP1 REVERT JUMPDEST PUSH1 0x0 PUSH2 0x100D PUSH2 0xF47 JUMP JUMPDEST SWAP1 POP PUSH2 0x101D DUP2 DUP8 DUP8 DUP8 DUP8 DUP8 PUSH2 0x1EFD JUMP JUMPDEST PUSH1 0x0 JUMPDEST DUP5 MLOAD DUP2 LT ISZERO PUSH2 0x11CE JUMPI PUSH1 0x0 DUP6 DUP3 DUP2 MLOAD DUP2 LT PUSH2 0x103E JUMPI PUSH2 0x103D PUSH2 0x3640 JUMP JUMPDEST JUMPDEST PUSH1 0x20 MUL PUSH1 0x20 ADD ADD MLOAD SWAP1 POP PUSH1 0x0 DUP6 DUP4 DUP2 MLOAD DUP2 LT PUSH2 0x105D JUMPI PUSH2 0x105C PUSH2 0x3640 JUMP JUMPDEST JUMPDEST PUSH1 0x20 MUL PUSH1 0x20 ADD ADD MLOAD SWAP1 POP PUSH1 0x0 DUP1 PUSH1 0x0 DUP5 DUP2 MSTORE PUSH1 0x20 ADD SWAP1 DUP2 MSTORE PUSH1 0x20 ADD PUSH1 0x0 KECCAK256 PUSH1 0x0 DUP12 PUSH20 0xFFFFFFFFFFFFFFFFFFFFFFFFFFFFFFFFFFFFFFFF AND PUSH20 0xFFFFFFFFFFFFFFFFFFFFFFFFFFFFFFFFFFFFFFFF AND DUP2 MSTORE PUSH1 0x20 ADD SWAP1 DUP2 MSTORE PUSH1 0x20 ADD PUSH1 0x0 KECCAK256 SLOAD SWAP1 POP DUP2 DUP2 LT ISZERO PUSH2 0x10FE JUMPI PUSH1 0x40 MLOAD PUSH32 0x8C379A000000000000000000000000000000000000000000000000000000000 DUP2 MSTORE PUSH1 0x4 ADD PUSH2 0x10F5 SWAP1 PUSH2 0x31D6 JUMP JUMPDEST PUSH1 0x40 MLOAD DUP1 SWAP2 SUB SWAP1 REVERT JUMPDEST DUP2 DUP2 SUB PUSH1 0x0 DUP1 DUP6 DUP2 MSTORE PUSH1 0x20 ADD SWAP1 DUP2 MSTORE PUSH1 0x20 ADD PUSH1 0x0 KECCAK256 PUSH1 0x0 DUP13 PUSH20 0xFFFFFFFFFFFFFFFFFFFFFFFFFFFFFFFFFFFFFFFF AND PUSH20 0xFFFFFFFFFFFFFFFFFFFFFFFFFFFFFFFFFFFFFFFF AND DUP2 MSTORE PUSH1 0x20 ADD SWAP1 DUP2 MSTORE PUSH1 0x20 ADD PUSH1 0x0 KECCAK256 DUP2 SWAP1 SSTORE POP DUP2 PUSH1 0x0 DUP1 DUP6 DUP2 MSTORE PUSH1 0x20 ADD SWAP1 DUP2 MSTORE PUSH1 0x20 ADD PUSH1 0x0 KECCAK256 PUSH1 0x0 DUP12 PUSH20 0xFFFFFFFFFFFFFFFFFFFFFFFFFFFFFFFFFFFFFFFF AND PUSH20 0xFFFFFFFFFFFFFFFFFFFFFFFFFFFFFFFFFFFFFFFF AND DUP2 MSTORE PUSH1 0x20 ADD SWAP1 DUP2 MSTORE PUSH1 0x20 ADD PUSH1 0x0 KECCAK256 PUSH1 0x0 DUP3 DUP3 SLOAD PUSH2 0x11B3 SWAP2 SWAP1 PUSH2 0x342A JUMP JUMPDEST SWAP3 POP POP DUP2 SWAP1 SSTORE POP POP POP POP DUP1 PUSH2 0x11C7 SWAP1 PUSH2 0x3599 JUMP JUMPDEST SWAP1 POP PUSH2 0x1020 JUMP JUMPDEST POP DUP5 PUSH20 0xFFFFFFFFFFFFFFFFFFFFFFFFFFFFFFFFFFFFFFFF AND DUP7 PUSH20 0xFFFFFFFFFFFFFFFFFFFFFFFFFFFFFFFFFFFFFFFF AND DUP3 PUSH20 0xFFFFFFFFFFFFFFFFFFFFFFFFFFFFFFFFFFFFFFFF AND PUSH32 0x4A39DC06D4C0DBC64B70AF90FD698A233A518AA5D07E595D983B8C0526C8F7FB DUP8 DUP8 PUSH1 0x40 MLOAD PUSH2 0x1245 SWAP3 SWAP2 SWAP1 PUSH2 0x3062 JUMP JUMPDEST PUSH1 0x40 MLOAD DUP1 SWAP2 SUB SWAP1 LOG4 PUSH2 0x125B DUP2 DUP8 DUP8 DUP8 DUP8 DUP8 PUSH2 0x1F05 JUMP JUMPDEST PUSH2 0x1269 DUP2 DUP8 DUP8 DUP8 DUP8 DUP8 PUSH2 0x20F4 JUMP JUMPDEST POP POP POP POP POP POP JUMP JUMPDEST PUSH1 0x0 PUSH20 0xFFFFFFFFFFFFFFFFFFFFFFFFFFFFFFFFFFFFFFFF AND DUP4 PUSH20 0xFFFFFFFFFFFFFFFFFFFFFFFFFFFFFFFFFFFFFFFF AND EQ ISZERO PUSH2 0x12E1 JUMPI PUSH1 0x40 MLOAD PUSH32 0x8C379A000000000000000000000000000000000000000000000000000000000 DUP2 MSTORE PUSH1 0x4 ADD PUSH2 0x12D8 SWAP1 PUSH2 0x31B6 JUMP JUMPDEST PUSH1 0x40 MLOAD DUP1 SWAP2 SUB SWAP1 REVERT JUMPDEST DUP1 MLOAD DUP3 MLOAD EQ PUSH2 0x1325 JUMPI PUSH1 0x40 MLOAD PUSH32 0x8C379A000000000000000000000000000000000000000000000000000000000 DUP2 MSTORE PUSH1 0x4 ADD PUSH2 0x131C SWAP1 PUSH2 0x3256 JUMP JUMPDEST PUSH1 0x40 MLOAD DUP1 SWAP2 SUB SWAP1 REVERT JUMPDEST PUSH1 0x0 PUSH2 0x132F PUSH2 0xF47 JUMP JUMPDEST SWAP1 POP PUSH2 0x134F DUP2 DUP6 PUSH1 0x0 DUP7 DUP7 PUSH1 0x40 MLOAD DUP1 PUSH1 0x20 ADD PUSH1 0x40 MSTORE DUP1 PUSH1 0x0 DUP2 MSTORE POP PUSH2 0x1EFD JUMP JUMPDEST PUSH1 0x0 JUMPDEST DUP4 MLOAD DUP2 LT ISZERO PUSH2 0x149C JUMPI PUSH1 0x0 DUP5 DUP3 DUP2 MLOAD DUP2 LT PUSH2 0x1370 JUMPI PUSH2 0x136F PUSH2 0x3640 JUMP JUMPDEST JUMPDEST PUSH1 0x20 MUL PUSH1 0x20 ADD ADD MLOAD SWAP1 POP PUSH1 0x0 DUP5 DUP4 DUP2 MLOAD DUP2 LT PUSH2 0x138F JUMPI PUSH2 0x138E PUSH2 0x3640 JUMP JUMPDEST JUMPDEST PUSH1 0x20 MUL PUSH1 0x20 ADD ADD MLOAD SWAP1 POP PUSH1 0x0 DUP1 PUSH1 0x0 DUP5 DUP2 MSTORE PUSH1 0x20 ADD SWAP1 DUP2 MSTORE PUSH1 0x20 ADD PUSH1 0x0 KECCAK256 PUSH1 0x0 DUP10 PUSH20 0xFFFFFFFFFFFFFFFFFFFFFFFFFFFFFFFFFFFFFFFF AND PUSH20 0xFFFFFFFFFFFFFFFFFFFFFFFFFFFFFFFFFFFFFFFF AND DUP2 MSTORE PUSH1 0x20 ADD SWAP1 DUP2 MSTORE PUSH1 0x20 ADD PUSH1 0x0 KECCAK256 SLOAD SWAP1 POP DUP2 DUP2 LT ISZERO PUSH2 0x1430 JUMPI PUSH1 0x40 MLOAD PUSH32 0x8C379A000000000000000000000000000000000000000000000000000000000 DUP2 MSTORE PUSH1 0x4 ADD PUSH2 0x1427 SWAP1 PUSH2 0x3156 JUMP JUMPDEST PUSH1 0x40 MLOAD DUP1 SWAP2 SUB SWAP1 REVERT JUMPDEST DUP2 DUP2 SUB PUSH1 0x0 DUP1 DUP6 DUP2 MSTORE PUSH1 0x20 ADD SWAP1 DUP2 MSTORE PUSH1 0x20 ADD PUSH1 0x0 KECCAK256 PUSH1 0x0 DUP11 PUSH20 0xFFFFFFFFFFFFFFFFFFFFFFFFFFFFFFFFFFFFFFFF AND PUSH20 0xFFFFFFFFFFFFFFFFFFFFFFFFFFFFFFFFFFFFFFFF AND DUP2 MSTORE PUSH1 0x20 ADD SWAP1 DUP2 MSTORE PUSH1 0x20 ADD PUSH1 0x0 KECCAK256 DUP2 SWAP1 SSTORE POP POP POP POP DUP1 DUP1 PUSH2 0x1494 SWAP1 PUSH2 0x3599 JUMP JUMPDEST SWAP2 POP POP PUSH2 0x1352 JUMP JUMPDEST POP PUSH1 0x0 PUSH20 0xFFFFFFFFFFFFFFFFFFFFFFFFFFFFFFFFFFFFFFFF AND DUP5 PUSH20 0xFFFFFFFFFFFFFFFFFFFFFFFFFFFFFFFFFFFFFFFF AND DUP3 PUSH20 0xFFFFFFFFFFFFFFFFFFFFFFFFFFFFFFFFFFFFFFFF AND PUSH32 0x4A39DC06D4C0DBC64B70AF90FD698A233A518AA5D07E595D983B8C0526C8F7FB DUP7 DUP7 PUSH1 0x40 MLOAD PUSH2 0x1514 SWAP3 SWAP2 SWAP1 PUSH2 0x3062 JUMP JUMPDEST PUSH1 0x40 MLOAD DUP1 SWAP2 SUB SWAP1 LOG4 PUSH2 0x153A DUP2 DUP6 PUSH1 0x0 DUP7 DUP7 PUSH1 0x40 MLOAD DUP1 PUSH1 0x20 ADD PUSH1 0x40 MSTORE DUP1 PUSH1 0x0 DUP2 MSTORE POP PUSH2 0x1F05 JUMP JUMPDEST POP POP POP POP JUMP JUMPDEST PUSH1 0x0 PUSH20 0xFFFFFFFFFFFFFFFFFFFFFFFFFFFFFFFFFFFFFFFF AND DUP5 PUSH20 0xFFFFFFFFFFFFFFFFFFFFFFFFFFFFFFFFFFFFFFFF AND EQ ISZERO PUSH2 0x15B0 JUMPI PUSH1 0x40 MLOAD PUSH32 0x8C379A000000000000000000000000000000000000000000000000000000000 DUP2 MSTORE PUSH1 0x4 ADD PUSH2 0x15A7 SWAP1 PUSH2 0x3276 JUMP JUMPDEST PUSH1 0x40 MLOAD DUP1 SWAP2 SUB SWAP1 REVERT JUMPDEST DUP2 MLOAD DUP4 MLOAD EQ PUSH2 0x15F4 JUMPI PUSH1 0x40 MLOAD PUSH32 0x8C379A000000000000000000000000000000000000000000000000000000000 DUP2 MSTORE PUSH1 0x4 ADD PUSH2 0x15EB SWAP1 PUSH2 0x3256 JUMP JUMPDEST PUSH1 0x40 MLOAD DUP1 SWAP2 SUB SWAP1 REVERT JUMPDEST PUSH1 0x0 PUSH2 0x15FE PUSH2 0xF47 JUMP JUMPDEST SWAP1 POP PUSH2 0x160F DUP2 PUSH1 0x0 DUP8 DUP8 DUP8 DUP8 PUSH2 0x1EFD JUMP JUMPDEST PUSH1 0x0 JUMPDEST DUP5 MLOAD DUP2 LT ISZERO PUSH2 0x16C8 JUMPI DUP4 DUP2 DUP2 MLOAD DUP2 LT PUSH2 0x162E JUMPI PUSH2 0x162D PUSH2 0x3640 JUMP JUMPDEST JUMPDEST PUSH1 0x20 MUL PUSH1 0x20 ADD ADD MLOAD PUSH1 0x0 DUP1 DUP8 DUP5 DUP2 MLOAD DUP2 LT PUSH2 0x164C JUMPI PUSH2 0x164B PUSH2 0x3640 JUMP JUMPDEST JUMPDEST PUSH1 0x20 MUL PUSH1 0x20 ADD ADD MLOAD DUP2 MSTORE PUSH1 0x20 ADD SWAP1 DUP2 MSTORE PUSH1 0x20 ADD PUSH1 0x0 KECCAK256 PUSH1 0x0 DUP9 PUSH20 0xFFFFFFFFFFFFFFFFFFFFFFFFFFFFFFFFFFFFFFFF AND PUSH20 0xFFFFFFFFFFFFFFFFFFFFFFFFFFFFFFFFFFFFFFFF AND DUP2 MSTORE PUSH1 0x20 ADD SWAP1 DUP2 MSTORE PUSH1 0x20 ADD PUSH1 0x0 KECCAK256 PUSH1 0x0 DUP3 DUP3 SLOAD PUSH2 0x16AE SWAP2 SWAP1 PUSH2 0x342A JUMP JUMPDEST SWAP3 POP POP DUP2 SWAP1 SSTORE POP DUP1 DUP1 PUSH2 0x16C0 SWAP1 PUSH2 0x3599 JUMP JUMPDEST SWAP2 POP POP PUSH2 0x1612 JUMP JUMPDEST POP DUP5 PUSH20 0xFFFFFFFFFFFFFFFFFFFFFFFFFFFFFFFFFFFFFFFF AND PUSH1 0x0 PUSH20 0xFFFFFFFFFFFFFFFFFFFFFFFFFFFFFFFFFFFFFFFF AND DUP3 PUSH20 0xFFFFFFFFFFFFFFFFFFFFFFFFFFFFFFFFFFFFFFFF AND PUSH32 0x4A39DC06D4C0DBC64B70AF90FD698A233A518AA5D07E595D983B8C0526C8F7FB DUP8 DUP8 PUSH1 0x40 MLOAD PUSH2 0x1740 SWAP3 SWAP2 SWAP1 PUSH2 0x3062 JUMP JUMPDEST PUSH1 0x40 MLOAD DUP1 SWAP2 SUB SWAP1 LOG4 PUSH2 0x1757 DUP2 PUSH1 0x0 DUP8 DUP8 DUP8 DUP8 PUSH2 0x1F05 JUMP JUMPDEST PUSH2 0x1766 DUP2 PUSH1 0x0 DUP8 DUP8 DUP8 DUP8 PUSH2 0x20F4 JUMP JUMPDEST POP POP POP POP POP JUMP JUMPDEST PUSH1 0x0 PUSH1 0x3 PUSH1 0x0 SWAP1 SLOAD SWAP1 PUSH2 0x100 EXP SWAP1 DIV PUSH20 0xFFFFFFFFFFFFFFFFFFFFFFFFFFFFFFFFFFFFFFFF AND SWAP1 POP DUP2 PUSH1 0x3 PUSH1 0x0 PUSH2 0x100 EXP DUP2 SLOAD DUP2 PUSH20 0xFFFFFFFFFFFFFFFFFFFFFFFFFFFFFFFFFFFFFFFF MUL NOT AND SWAP1 DUP4 PUSH20 0xFFFFFFFFFFFFFFFFFFFFFFFFFFFFFFFFFFFFFFFF AND MUL OR SWAP1 SSTORE POP DUP2 PUSH20 0xFFFFFFFFFFFFFFFFFFFFFFFFFFFFFFFFFFFFFFFF AND DUP2 PUSH20 0xFFFFFFFFFFFFFFFFFFFFFFFFFFFFFFFFFFFFFFFF AND PUSH32 0x8BE0079C531659141344CD1FD0A4F28419497F9722A3DAAFE3B4186F6B6457E0 PUSH1 0x40 MLOAD PUSH1 0x40 MLOAD DUP1 SWAP2 SUB SWAP1 LOG3 POP POP JUMP JUMPDEST DUP2 PUSH20 0xFFFFFFFFFFFFFFFFFFFFFFFFFFFFFFFFFFFFFFFF AND DUP4 PUSH20 0xFFFFFFFFFFFFFFFFFFFFFFFFFFFFFFFFFFFFFFFF AND EQ ISZERO PUSH2 0x18A2 JUMPI PUSH1 0x40 MLOAD PUSH32 0x8C379A000000000000000000000000000000000000000000000000000000000 DUP2 MSTORE PUSH1 0x4 ADD PUSH2 0x1899 SWAP1 PUSH2 0x3216 JUMP JUMPDEST PUSH1 0x40 MLOAD DUP1 SWAP2 SUB SWAP1 REVERT JUMPDEST DUP1 PUSH1 0x1 PUSH1 0x0 DUP6 PUSH20 0xFFFFFFFFFFFFFFFFFFFFFFFFFFFFFFFFFFFFFFFF AND PUSH20 0xFFFFFFFFFFFFFFFFFFFFFFFFFFFFFFFFFFFFFFFF AND DUP2 MSTORE PUSH1 0x20 ADD SWAP1 DUP2 MSTORE PUSH1 0x20 ADD PUSH1 0x0 KECCAK256 PUSH1 0x0 DUP5 PUSH20 0xFFFFFFFFFFFFFFFFFFFFFFFFFFFFFFFFFFFFFFFF AND PUSH20 0xFFFFFFFFFFFFFFFFFFFFFFFFFFFFFFFFFFFFFFFF AND DUP2 MSTORE PUSH1 0x20 ADD SWAP1 DUP2 MSTORE PUSH1 0x20 ADD PUSH1 0x0 KECCAK256 PUSH1 0x0 PUSH2 0x100 EXP DUP2 SLOAD DUP2 PUSH1 0xFF MUL NOT AND SWAP1 DUP4 ISZERO ISZERO MUL OR SWAP1 SSTORE POP DUP2 PUSH20 0xFFFFFFFFFFFFFFFFFFFFFFFFFFFFFFFFFFFFFFFF AND DUP4 PUSH20 0xFFFFFFFFFFFFFFFFFFFFFFFFFFFFFFFFFFFFFFFF AND PUSH32 0x17307EAB39AB6107E8899845AD3D59BD9653F200F220920489CA2B5937696C31 DUP4 PUSH1 0x40 MLOAD PUSH2 0x1993 SWAP2 SWAP1 PUSH2 0x3099 JUMP JUMPDEST PUSH1 0x40 MLOAD DUP1 SWAP2 SUB SWAP1 LOG3 POP POP POP JUMP JUMPDEST PUSH1 0x0 PUSH20 0xFFFFFFFFFFFFFFFFFFFFFFFFFFFFFFFFFFFFFFFF AND DUP4 PUSH20 0xFFFFFFFFFFFFFFFFFFFFFFFFFFFFFFFFFFFFFFFF AND EQ ISZERO PUSH2 0x1A10 JUMPI PUSH1 0x40 MLOAD PUSH32 0x8C379A000000000000000000000000000000000000000000000000000000000 DUP2 MSTORE PUSH1 0x4 ADD PUSH2 0x1A07 SWAP1 PUSH2 0x31B6 JUMP JUMPDEST PUSH1 0x40 MLOAD DUP1 SWAP2 SUB SWAP1 REVERT JUMPDEST PUSH1 0x0 PUSH2 0x1A1A PUSH2 0xF47 JUMP JUMPDEST SWAP1 POP PUSH1 0x0 PUSH2 0x1A27 DUP5 PUSH2 0x1E83 JUMP JUMPDEST SWAP1 POP PUSH1 0x0 PUSH2 0x1A34 DUP5 PUSH2 0x1E83 JUMP JUMPDEST SWAP1 POP PUSH2 0x1A54 DUP4 DUP8 PUSH1 0x0 DUP6 DUP6 PUSH1 0x40 MLOAD DUP1 PUSH1 0x20 ADD PUSH1 0x40 MSTORE DUP1 PUSH1 0x0 DUP2 MSTORE POP PUSH2 0x1EFD JUMP JUMPDEST PUSH1 0x0 DUP1 PUSH1 0x0 DUP8 DUP2 MSTORE PUSH1 0x20 ADD SWAP1 DUP2 MSTORE PUSH1 0x20 ADD PUSH1 0x0 KECCAK256 PUSH1 0x0 DUP9 PUSH20 0xFFFFFFFFFFFFFFFFFFFFFFFFFFFFFFFFFFFFFFFF AND PUSH20 0xFFFFFFFFFFFFFFFFFFFFFFFFFFFFFFFFFFFFFFFF AND DUP2 MSTORE PUSH1 0x20 ADD SWAP1 DUP2 MSTORE PUSH1 0x20 ADD PUSH1 0x0 KECCAK256 SLOAD SWAP1 POP DUP5 DUP2 LT ISZERO PUSH2 0x1AEB JUMPI PUSH1 0x40 MLOAD PUSH32 0x8C379A000000000000000000000000000000000000000000000000000000000 DUP2 MSTORE PUSH1 0x4 ADD PUSH2 0x1AE2 SWAP1 PUSH2 0x3156 JUMP JUMPDEST PUSH1 0x40 MLOAD DUP1 SWAP2 SUB SWAP1 REVERT JUMPDEST DUP5 DUP2 SUB PUSH1 0x0 DUP1 DUP9 DUP2 MSTORE PUSH1 0x20 ADD SWAP1 DUP2 MSTORE PUSH1 0x20 ADD PUSH1 0x0 KECCAK256 PUSH1 0x0 DUP10 PUSH20 0xFFFFFFFFFFFFFFFFFFFFFFFFFFFFFFFFFFFFFFFF AND PUSH20 0xFFFFFFFFFFFFFFFFFFFFFFFFFFFFFFFFFFFFFFFF AND DUP2 MSTORE PUSH1 0x20 ADD SWAP1 DUP2 MSTORE PUSH1 0x20 ADD PUSH1 0x0 KECCAK256 DUP2 SWAP1 SSTORE POP PUSH1 0x0 PUSH20 0xFFFFFFFFFFFFFFFFFFFFFFFFFFFFFFFFFFFFFFFF AND DUP8 PUSH20 0xFFFFFFFFFFFFFFFFFFFFFFFFFFFFFFFFFFFFFFFF AND DUP6 PUSH20 0xFFFFFFFFFFFFFFFFFFFFFFFFFFFFFFFFFFFFFFFF AND PUSH32 0xC3D58168C5AE7397731D063D5BBF3D657854427343F4C083240F7AACAA2D0F62 DUP10 DUP10 PUSH1 0x40 MLOAD PUSH2 0x1BB8 SWAP3 SWAP2 SWAP1 PUSH2 0x32B1 JUMP JUMPDEST PUSH1 0x40 MLOAD DUP1 SWAP2 SUB SWAP1 LOG4 PUSH2 0x1BDE DUP5 DUP9 PUSH1 0x0 DUP7 DUP7 PUSH1 0x40 MLOAD DUP1 PUSH1 0x20 ADD PUSH1 0x40 MSTORE DUP1 PUSH1 0x0 DUP2 MSTORE POP PUSH2 0x1F05 JUMP JUMPDEST POP POP POP POP POP POP POP JUMP JUMPDEST PUSH1 0x0 PUSH20 0xFFFFFFFFFFFFFFFFFFFFFFFFFFFFFFFFFFFFFFFF AND DUP5 PUSH20 0xFFFFFFFFFFFFFFFFFFFFFFFFFFFFFFFFFFFFFFFF AND EQ ISZERO PUSH2 0x1C57 JUMPI PUSH1 0x40 MLOAD PUSH32 0x8C379A000000000000000000000000000000000000000000000000000000000 DUP2 MSTORE PUSH1 0x4 ADD PUSH2 0x1C4E SWAP1 PUSH2 0x3196 JUMP JUMPDEST PUSH1 0x40 MLOAD DUP1 SWAP2 SUB SWAP1 REVERT JUMPDEST PUSH1 0x0 PUSH2 0x1C61 PUSH2 0xF47 JUMP JUMPDEST SWAP1 POP PUSH1 0x0 PUSH2 0x1C6E DUP6 PUSH2 0x1E83 JUMP JUMPDEST SWAP1 POP PUSH1 0x0 PUSH2 0x1C7B DUP6 PUSH2 0x1E83 JUMP JUMPDEST SWAP1 POP PUSH2 0x1C8B DUP4 DUP10 DUP10 DUP6 DUP6 DUP10 PUSH2 0x1EFD JUMP JUMPDEST PUSH1 0x0 DUP1 PUSH1 0x0 DUP9 DUP2 MSTORE PUSH1 0x20 ADD SWAP1 DUP2 MSTORE PUSH1 0x20 ADD PUSH1 0x0 KECCAK256 PUSH1 0x0 DUP11 PUSH20 0xFFFFFFFFFFFFFFFFFFFFFFFFFFFFFFFFFFFFFFFF AND PUSH20 0xFFFFFFFFFFFFFFFFFFFFFFFFFFFFFFFFFFFFFFFF AND DUP2 MSTORE PUSH1 0x20 ADD SWAP1 DUP2 MSTORE PUSH1 0x20 ADD PUSH1 0x0 KECCAK256 SLOAD SWAP1 POP DUP6 DUP2 LT ISZERO PUSH2 0x1D22 JUMPI PUSH1 0x40 MLOAD PUSH32 0x8C379A000000000000000000000000000000000000000000000000000000000 DUP2 MSTORE PUSH1 0x4 ADD PUSH2 0x1D19 SWAP1 PUSH2 0x31D6 JUMP JUMPDEST PUSH1 0x40 MLOAD DUP1 SWAP2 SUB SWAP1 REVERT JUMPDEST DUP6 DUP2 SUB PUSH1 0x0 DUP1 DUP10 DUP2 MSTORE PUSH1 0x20 ADD SWAP1 DUP2 MSTORE PUSH1 0x20 ADD PUSH1 0x0 KECCAK256 PUSH1 0x0 DUP12 PUSH20 0xFFFFFFFFFFFFFFFFFFFFFFFFFFFFFFFFFFFFFFFF AND PUSH20 0xFFFFFFFFFFFFFFFFFFFFFFFFFFFFFFFFFFFFFFFF AND DUP2 MSTORE PUSH1 0x20 ADD SWAP1 DUP2 MSTORE PUSH1 0x20 ADD PUSH1 0x0 KECCAK256 DUP2 SWAP1 SSTORE POP DUP6 PUSH1 0x0 DUP1 DUP10 DUP2 MSTORE PUSH1 0x20 ADD SWAP1 DUP2 MSTORE PUSH1 0x20 ADD PUSH1 0x0 KECCAK256 PUSH1 0x0 DUP11 PUSH20 0xFFFFFFFFFFFFFFFFFFFFFFFFFFFFFFFFFFFFFFFF AND PUSH20 0xFFFFFFFFFFFFFFFFFFFFFFFFFFFFFFFFFFFFFFFF AND DUP2 MSTORE PUSH1 0x20 ADD SWAP1 DUP2 MSTORE PUSH1 0x20 ADD PUSH1 0x0 KECCAK256 PUSH1 0x0 DUP3 DUP3 SLOAD PUSH2 0x1DD7 SWAP2 SWAP1 PUSH2 0x342A JUMP JUMPDEST SWAP3 POP POP DUP2 SWAP1 SSTORE POP DUP8 PUSH20 0xFFFFFFFFFFFFFFFFFFFFFFFFFFFFFFFFFFFFFFFF AND DUP10 PUSH20 0xFFFFFFFFFFFFFFFFFFFFFFFFFFFFFFFFFFFFFFFF AND DUP6 PUSH20 0xFFFFFFFFFFFFFFFFFFFFFFFFFFFFFFFFFFFFFFFF AND PUSH32 0xC3D58168C5AE7397731D063D5BBF3D657854427343F4C083240F7AACAA2D0F62 DUP11 DUP11 PUSH1 0x40 MLOAD PUSH2 0x1E54 SWAP3 SWAP2 SWAP1 PUSH2 0x32B1 JUMP JUMPDEST PUSH1 0x40 MLOAD DUP1 SWAP2 SUB SWAP1 LOG4 PUSH2 0x1E6A DUP5 DUP11 DUP11 DUP7 DUP7 DUP11 PUSH2 0x1F05 JUMP JUMPDEST PUSH2 0x1E78 DUP5 DUP11 DUP11 DUP11 DUP11 DUP11 PUSH2 0x1F0D JUMP JUMPDEST POP POP POP POP POP POP POP POP POP JUMP JUMPDEST PUSH1 0x60 PUSH1 0x0 PUSH1 0x1 PUSH8 0xFFFFFFFFFFFFFFFF DUP2 GT ISZERO PUSH2 0x1EA2 JUMPI PUSH2 0x1EA1 PUSH2 0x366F JUMP JUMPDEST JUMPDEST PUSH1 0x40 MLOAD SWAP1 DUP1 DUP3 MSTORE DUP1 PUSH1 0x20 MUL PUSH1 0x20 ADD DUP3 ADD PUSH1 0x40 MSTORE DUP1 ISZERO PUSH2 0x1ED0 JUMPI DUP2 PUSH1 0x20 ADD PUSH1 0x20 DUP3 MUL DUP1 CALLDATASIZE DUP4 CALLDATACOPY DUP1 DUP3 ADD SWAP2 POP POP SWAP1 POP JUMPDEST POP SWAP1 POP DUP3 DUP2 PUSH1 0x0 DUP2 MLOAD DUP2 LT PUSH2 0x1EE8 JUMPI PUSH2 0x1EE7 PUSH2 0x3640 JUMP JUMPDEST JUMPDEST PUSH1 0x20 MUL PUSH1 0x20 ADD ADD DUP2 DUP2 MSTORE POP POP DUP1 SWAP2 POP POP SWAP2 SWAP1 POP JUMP JUMPDEST POP POP POP POP POP POP JUMP JUMPDEST POP POP POP POP POP POP JUMP JUMPDEST PUSH2 0x1F2C DUP5 PUSH20 0xFFFFFFFFFFFFFFFFFFFFFFFFFFFFFFFFFFFFFFFF AND PUSH2 0x22DB JUMP JUMPDEST ISZERO PUSH2 0x20EC JUMPI DUP4 PUSH20 0xFFFFFFFFFFFFFFFFFFFFFFFFFFFFFFFFFFFFFFFF AND PUSH4 0xF23A6E61 DUP8 DUP8 DUP7 DUP7 DUP7 PUSH1 0x40 MLOAD DUP7 PUSH4 0xFFFFFFFF AND PUSH1 0xE0 SHL DUP2 MSTORE PUSH1 0x4 ADD PUSH2 0x1F72 SWAP6 SWAP5 SWAP4 SWAP3 SWAP2 SWAP1 PUSH2 0x2FE6 JUMP JUMPDEST PUSH1 0x20 PUSH1 0x40 MLOAD DUP1 DUP4 SUB DUP2 PUSH1 0x0 DUP8 DUP1 EXTCODESIZE ISZERO DUP1 ISZERO PUSH2 0x1F8C JUMPI PUSH1 0x0 DUP1 REVERT JUMPDEST POP GAS CALL SWAP3 POP POP POP DUP1 ISZERO PUSH2 0x1FBD JUMPI POP PUSH1 0x40 MLOAD RETURNDATASIZE PUSH1 0x1F NOT PUSH1 0x1F DUP3 ADD AND DUP3 ADD DUP1 PUSH1 0x40 MSTORE POP DUP2 ADD SWAP1 PUSH2 0x1FBA SWAP2 SWAP1 PUSH2 0x2B5F JUMP JUMPDEST PUSH1 0x1 JUMPDEST PUSH2 0x2063 JUMPI PUSH2 0x1FC9 PUSH2 0x369E JUMP JUMPDEST DUP1 PUSH4 0x8C379A0 EQ ISZERO PUSH2 0x2026 JUMPI POP PUSH2 0x1FDE PUSH2 0x3B23 JUMP JUMPDEST DUP1 PUSH2 0x1FE9 JUMPI POP PUSH2 0x2028 JUMP JUMPDEST DUP1 PUSH1 0x40 MLOAD PUSH32 0x8C379A000000000000000000000000000000000000000000000000000000000 DUP2 MSTORE PUSH1 0x4 ADD PUSH2 0x201D SWAP2 SWAP1 PUSH2 0x30B4 JUMP JUMPDEST PUSH1 0x40 MLOAD DUP1 SWAP2 SUB SWAP1 REVERT JUMPDEST POP JUMPDEST PUSH1 0x40 MLOAD PUSH32 0x8C379A000000000000000000000000000000000000000000000000000000000 DUP2 MSTORE PUSH1 0x4 ADD PUSH2 0x205A SWAP1 PUSH2 0x30D6 JUMP JUMPDEST PUSH1 0x40 MLOAD DUP1 SWAP2 SUB SWAP1 REVERT JUMPDEST PUSH4 0xF23A6E61 PUSH1 0xE0 SHL PUSH28 0xFFFFFFFFFFFFFFFFFFFFFFFFFFFFFFFFFFFFFFFFFFFFFFFFFFFFFFFF NOT AND DUP2 PUSH28 0xFFFFFFFFFFFFFFFFFFFFFFFFFFFFFFFFFFFFFFFFFFFFFFFFFFFFFFFF NOT AND EQ PUSH2 0x20EA JUMPI PUSH1 0x40 MLOAD PUSH32 0x8C379A000000000000000000000000000000000000000000000000000000000 DUP2 MSTORE PUSH1 0x4 ADD PUSH2 0x20E1 SWAP1 PUSH2 0x3116 JUMP JUMPDEST PUSH1 0x40 MLOAD DUP1 SWAP2 SUB SWAP1 REVERT JUMPDEST POP JUMPDEST POP POP POP POP POP POP JUMP JUMPDEST PUSH2 0x2113 DUP5 PUSH20 0xFFFFFFFFFFFFFFFFFFFFFFFFFFFFFFFFFFFFFFFF AND PUSH2 0x22DB JUMP JUMPDEST ISZERO PUSH2 0x22D3 JUMPI DUP4 PUSH20 0xFFFFFFFFFFFFFFFFFFFFFFFFFFFFFFFFFFFFFFFF AND PUSH4 0xBC197C81 DUP8 DUP8 DUP7 DUP7 DUP7 PUSH1 0x40 MLOAD DUP7 PUSH4 0xFFFFFFFF AND PUSH1 0xE0 SHL DUP2 MSTORE PUSH1 0x4 ADD PUSH2 0x2159 SWAP6 SWAP5 SWAP4 SWAP3 SWAP2 SWAP1 PUSH2 0x2F7E JUMP JUMPDEST PUSH1 0x20 PUSH1 0x40 MLOAD DUP1 DUP4 SUB DUP2 PUSH1 0x0 DUP8 DUP1 EXTCODESIZE ISZERO DUP1 ISZERO PUSH2 0x2173 JUMPI PUSH1 0x0 DUP1 REVERT JUMPDEST POP GAS CALL SWAP3 POP POP POP DUP1 ISZERO PUSH2 0x21A4 JUMPI POP PUSH1 0x40 MLOAD RETURNDATASIZE PUSH1 0x1F NOT PUSH1 0x1F DUP3 ADD AND DUP3 ADD DUP1 PUSH1 0x40 MSTORE POP DUP2 ADD SWAP1 PUSH2 0x21A1 SWAP2 SWAP1 PUSH2 0x2B5F JUMP JUMPDEST PUSH1 0x1 JUMPDEST PUSH2 0x224A JUMPI PUSH2 0x21B0 PUSH2 0x369E JUMP JUMPDEST DUP1 PUSH4 0x8C379A0 EQ ISZERO PUSH2 0x220D JUMPI POP PUSH2 0x21C5 PUSH2 0x3B23 JUMP JUMPDEST DUP1 PUSH2 0x21D0 JUMPI POP PUSH2 0x220F JUMP JUMPDEST DUP1 PUSH1 0x40 MLOAD PUSH32 0x8C379A000000000000000000000000000000000000000000000000000000000 DUP2 MSTORE PUSH1 0x4 ADD PUSH2 0x2204 SWAP2 SWAP1 PUSH2 0x30B4 JUMP JUMPDEST PUSH1 0x40 MLOAD DUP1 SWAP2 SUB SWAP1 REVERT JUMPDEST POP JUMPDEST PUSH1 0x40 MLOAD PUSH32 0x8C379A000000000000000000000000000000000000000000000000000000000 DUP2 MSTORE PUSH1 0x4 ADD PUSH2 0x2241 SWAP1 PUSH2 0x30D6 JUMP JUMPDEST PUSH1 0x40 MLOAD DUP1 SWAP2 SUB SWAP1 REVERT JUMPDEST PUSH4 0xBC197C81 PUSH1 0xE0 SHL PUSH28 0xFFFFFFFFFFFFFFFFFFFFFFFFFFFFFFFFFFFFFFFFFFFFFFFFFFFFFFFF NOT AND DUP2 PUSH28 0xFFFFFFFFFFFFFFFFFFFFFFFFFFFFFFFFFFFFFFFFFFFFFFFFFFFFFFFF NOT AND EQ PUSH2 0x22D1 JUMPI PUSH1 0x40 MLOAD PUSH32 0x8C379A000000000000000000000000000000000000000000000000000000000 DUP2 MSTORE PUSH1 0x4 ADD PUSH2 0x22C8 SWAP1 PUSH2 0x3116 JUMP JUMPDEST PUSH1 0x40 MLOAD DUP1 SWAP2 SUB SWAP1 REVERT JUMPDEST POP JUMPDEST POP POP POP POP POP POP JUMP JUMPDEST PUSH1 0x0 DUP1 DUP3 PUSH20 0xFFFFFFFFFFFFFFFFFFFFFFFFFFFFFFFFFFFFFFFF AND EXTCODESIZE GT SWAP1 POP SWAP2 SWAP1 POP JUMP JUMPDEST DUP3 DUP1 SLOAD PUSH2 0x230A SWAP1 PUSH2 0x3536 JUMP JUMPDEST SWAP1 PUSH1 0x0 MSTORE PUSH1 0x20 PUSH1 0x0 KECCAK256 SWAP1 PUSH1 0x1F ADD PUSH1 0x20 SWAP1 DIV DUP2 ADD SWAP3 DUP3 PUSH2 0x232C JUMPI PUSH1 0x0 DUP6 SSTORE PUSH2 0x2373 JUMP JUMPDEST DUP3 PUSH1 0x1F LT PUSH2 0x2345 JUMPI DUP1 MLOAD PUSH1 0xFF NOT AND DUP4 DUP1 ADD OR DUP6 SSTORE PUSH2 0x2373 JUMP JUMPDEST DUP3 DUP1 ADD PUSH1 0x1 ADD DUP6 SSTORE DUP3 ISZERO PUSH2 0x2373 JUMPI SWAP2 DUP3 ADD JUMPDEST DUP3 DUP2 GT ISZERO PUSH2 0x2372 JUMPI DUP3 MLOAD DUP3 SSTORE SWAP2 PUSH1 0x20 ADD SWAP2 SWAP1 PUSH1 0x1 ADD SWAP1 PUSH2 0x2357 JUMP JUMPDEST JUMPDEST POP SWAP1 POP PUSH2 0x2380 SWAP2 SWAP1 PUSH2 0x2384 JUMP JUMPDEST POP SWAP1 JUMP JUMPDEST JUMPDEST DUP1 DUP3 GT ISZERO PUSH2 0x239D JUMPI PUSH1 0x0 DUP2 PUSH1 0x0 SWAP1 SSTORE POP PUSH1 0x1 ADD PUSH2 0x2385 JUMP JUMPDEST POP SWAP1 JUMP JUMPDEST PUSH1 0x0 PUSH2 0x23B4 PUSH2 0x23AF DUP5 PUSH2 0x32FF JUMP JUMPDEST PUSH2 0x32DA JUMP JUMPDEST SWAP1 POP DUP1 DUP4 DUP3 MSTORE PUSH1 0x20 DUP3 ADD SWAP1 POP DUP3 DUP6 PUSH1 0x20 DUP7 MUL DUP3 ADD GT ISZERO PUSH2 0x23D7 JUMPI PUSH2 0x23D6 PUSH2 0x36C5 JUMP JUMPDEST JUMPDEST PUSH1 0x0 JUMPDEST DUP6 DUP2 LT ISZERO PUSH2 0x2407 JUMPI DUP2 PUSH2 0x23ED DUP9 DUP3 PUSH2 0x2505 JUMP JUMPDEST DUP5 MSTORE PUSH1 0x20 DUP5 ADD SWAP4 POP PUSH1 0x20 DUP4 ADD SWAP3 POP POP PUSH1 0x1 DUP2 ADD SWAP1 POP PUSH2 0x23DA JUMP JUMPDEST POP POP POP SWAP4 SWAP3 POP POP POP JUMP JUMPDEST PUSH1 0x0 PUSH2 0x2424 PUSH2 0x241F DUP5 PUSH2 0x332B JUMP JUMPDEST PUSH2 0x32DA JUMP JUMPDEST SWAP1 POP DUP1 DUP4 DUP3 MSTORE PUSH1 0x20 DUP3 ADD SWAP1 POP DUP3 DUP6 PUSH1 0x20 DUP7 MUL DUP3 ADD GT ISZERO PUSH2 0x2447 JUMPI PUSH2 0x2446 PUSH2 0x36C5 JUMP JUMPDEST JUMPDEST PUSH1 0x0 JUMPDEST DUP6 DUP2 LT ISZERO PUSH2 0x2477 JUMPI DUP2 PUSH2 0x245D DUP9 DUP3 PUSH2 0x2611 JUMP JUMPDEST DUP5 MSTORE PUSH1 0x20 DUP5 ADD SWAP4 POP PUSH1 0x20 DUP4 ADD SWAP3 POP POP PUSH1 0x1 DUP2 ADD SWAP1 POP PUSH2 0x244A JUMP JUMPDEST POP POP POP SWAP4 SWAP3 POP POP POP JUMP JUMPDEST PUSH1 0x0 PUSH2 0x2494 PUSH2 0x248F DUP5 PUSH2 0x3357 JUMP JUMPDEST PUSH2 0x32DA JUMP JUMPDEST SWAP1 POP DUP3 DUP2 MSTORE PUSH1 0x20 DUP2 ADD DUP5 DUP5 DUP5 ADD GT ISZERO PUSH2 0x24B0 JUMPI PUSH2 0x24AF PUSH2 0x36CA JUMP JUMPDEST JUMPDEST PUSH2 0x24BB DUP5 DUP3 DUP6 PUSH2 0x34F4 JUMP JUMPDEST POP SWAP4 SWAP3 POP POP POP JUMP JUMPDEST PUSH1 0x0 PUSH2 0x24D6 PUSH2 0x24D1 DUP5 PUSH2 0x3388 JUMP JUMPDEST PUSH2 0x32DA JUMP JUMPDEST SWAP1 POP DUP3 DUP2 MSTORE PUSH1 0x20 DUP2 ADD DUP5 DUP5 DUP5 ADD GT ISZERO PUSH2 0x24F2 JUMPI PUSH2 0x24F1 PUSH2 0x36CA JUMP JUMPDEST JUMPDEST PUSH2 0x24FD DUP5 DUP3 DUP6 PUSH2 0x34F4 JUMP JUMPDEST POP SWAP4 SWAP3 POP POP POP JUMP JUMPDEST PUSH1 0x0 DUP2 CALLDATALOAD SWAP1 POP PUSH2 0x2514 DUP2 PUSH2 0x3BB9 JUMP JUMPDEST SWAP3 SWAP2 POP POP JUMP JUMPDEST PUSH1 0x0 DUP3 PUSH1 0x1F DUP4 ADD SLT PUSH2 0x252F JUMPI PUSH2 0x252E PUSH2 0x36C0 JUMP JUMPDEST JUMPDEST DUP2 CALLDATALOAD PUSH2 0x253F DUP5 DUP3 PUSH1 0x20 DUP7 ADD PUSH2 0x23A1 JUMP JUMPDEST SWAP2 POP POP SWAP3 SWAP2 POP POP JUMP JUMPDEST PUSH1 0x0 DUP3 PUSH1 0x1F DUP4 ADD SLT PUSH2 0x255D JUMPI PUSH2 0x255C PUSH2 0x36C0 JUMP JUMPDEST JUMPDEST DUP2 CALLDATALOAD PUSH2 0x256D DUP5 DUP3 PUSH1 0x20 DUP7 ADD PUSH2 0x2411 JUMP JUMPDEST SWAP2 POP POP SWAP3 SWAP2 POP POP JUMP JUMPDEST PUSH1 0x0 DUP2 CALLDATALOAD SWAP1 POP PUSH2 0x2585 DUP2 PUSH2 0x3BD0 JUMP JUMPDEST SWAP3 SWAP2 POP POP JUMP JUMPDEST PUSH1 0x0 DUP2 CALLDATALOAD SWAP1 POP PUSH2 0x259A DUP2 PUSH2 0x3BE7 JUMP JUMPDEST SWAP3 SWAP2 POP POP JUMP JUMPDEST PUSH1 0x0 DUP2 MLOAD SWAP1 POP PUSH2 0x25AF DUP2 PUSH2 0x3BE7 JUMP JUMPDEST SWAP3 SWAP2 POP POP JUMP JUMPDEST PUSH1 0x0 DUP3 PUSH1 0x1F DUP4 ADD SLT PUSH2 0x25CA JUMPI PUSH2 0x25C9 PUSH2 0x36C0 JUMP JUMPDEST JUMPDEST DUP2 CALLDATALOAD PUSH2 0x25DA DUP5 DUP3 PUSH1 0x20 DUP7 ADD PUSH2 0x2481 JUMP JUMPDEST SWAP2 POP POP SWAP3 SWAP2 POP POP JUMP JUMPDEST PUSH1 0x0 DUP3 PUSH1 0x1F DUP4 ADD SLT PUSH2 0x25F8 JUMPI PUSH2 0x25F7 PUSH2 0x36C0 JUMP JUMPDEST JUMPDEST DUP2 CALLDATALOAD PUSH2 0x2608 DUP5 DUP3 PUSH1 0x20 DUP7 ADD PUSH2 0x24C3 JUMP JUMPDEST SWAP2 POP POP SWAP3 SWAP2 POP POP JUMP JUMPDEST PUSH1 0x0 DUP2 CALLDATALOAD SWAP1 POP PUSH2 0x2620 DUP2 PUSH2 0x3BFE JUMP JUMPDEST SWAP3 SWAP2 POP POP JUMP JUMPDEST PUSH1 0x0 PUSH1 0x20 DUP3 DUP5 SUB SLT ISZERO PUSH2 0x263C JUMPI PUSH2 0x263B PUSH2 0x36D4 JUMP JUMPDEST JUMPDEST PUSH1 0x0 PUSH2 0x264A DUP5 DUP3 DUP6 ADD PUSH2 0x2505 JUMP JUMPDEST SWAP2 POP POP SWAP3 SWAP2 POP POP JUMP JUMPDEST PUSH1 0x0 DUP1 PUSH1 0x40 DUP4 DUP6 SUB SLT ISZERO PUSH2 0x266A JUMPI PUSH2 0x2669 PUSH2 0x36D4 JUMP JUMPDEST JUMPDEST PUSH1 0x0 PUSH2 0x2678 DUP6 DUP3 DUP7 ADD PUSH2 0x2505 JUMP JUMPDEST SWAP3 POP POP PUSH1 0x20 PUSH2 0x2689 DUP6 DUP3 DUP7 ADD PUSH2 0x2505 JUMP JUMPDEST SWAP2 POP POP SWAP3 POP SWAP3 SWAP1 POP JUMP JUMPDEST PUSH1 0x0 DUP1 PUSH1 0x0 DUP1 PUSH1 0x0 PUSH1 0xA0 DUP7 DUP9 SUB SLT ISZERO PUSH2 0x26AF JUMPI PUSH2 0x26AE PUSH2 0x36D4 JUMP JUMPDEST JUMPDEST PUSH1 0x0 PUSH2 0x26BD DUP9 DUP3 DUP10 ADD PUSH2 0x2505 JUMP JUMPDEST SWAP6 POP POP PUSH1 0x20 PUSH2 0x26CE DUP9 DUP3 DUP10 ADD PUSH2 0x2505 JUMP JUMPDEST SWAP5 POP POP PUSH1 0x40 DUP7 ADD CALLDATALOAD PUSH8 0xFFFFFFFFFFFFFFFF DUP2 GT ISZERO PUSH2 0x26EF JUMPI PUSH2 0x26EE PUSH2 0x36CF JUMP JUMPDEST JUMPDEST PUSH2 0x26FB DUP9 DUP3 DUP10 ADD PUSH2 0x2548 JUMP JUMPDEST SWAP4 POP POP PUSH1 0x60 DUP7 ADD CALLDATALOAD PUSH8 0xFFFFFFFFFFFFFFFF DUP2 GT ISZERO PUSH2 0x271C JUMPI PUSH2 0x271B PUSH2 0x36CF JUMP JUMPDEST JUMPDEST PUSH2 0x2728 DUP9 DUP3 DUP10 ADD PUSH2 0x2548 JUMP JUMPDEST SWAP3 POP POP PUSH1 0x80 DUP7 ADD CALLDATALOAD PUSH8 0xFFFFFFFFFFFFFFFF DUP2 GT ISZERO PUSH2 0x2749 JUMPI PUSH2 0x2748 PUSH2 0x36CF JUMP JUMPDEST JUMPDEST PUSH2 0x2755 DUP9 DUP3 DUP10 ADD PUSH2 0x25B5 JUMP JUMPDEST SWAP2 POP POP SWAP3 SWAP6 POP SWAP3 SWAP6 SWAP1 SWAP4 POP JUMP JUMPDEST PUSH1 0x0 DUP1 PUSH1 0x0 DUP1 PUSH1 0x0 PUSH1 0xA0 DUP7 DUP9 SUB SLT ISZERO PUSH2 0x277E JUMPI PUSH2 0x277D PUSH2 0x36D4 JUMP JUMPDEST JUMPDEST PUSH1 0x0 PUSH2 0x278C DUP9 DUP3 DUP10 ADD PUSH2 0x2505 JUMP JUMPDEST SWAP6 POP POP PUSH1 0x20 PUSH2 0x279D DUP9 DUP3 DUP10 ADD PUSH2 0x2505 JUMP JUMPDEST SWAP5 POP POP PUSH1 0x40 PUSH2 0x27AE DUP9 DUP3 DUP10 ADD PUSH2 0x2611 JUMP JUMPDEST SWAP4 POP POP PUSH1 0x60 PUSH2 0x27BF DUP9 DUP3 DUP10 ADD PUSH2 0x2611 JUMP JUMPDEST SWAP3 POP POP PUSH1 0x80 DUP7 ADD CALLDATALOAD PUSH8 0xFFFFFFFFFFFFFFFF DUP2 GT ISZERO PUSH2 0x27E0 JUMPI PUSH2 0x27DF PUSH2 0x36CF JUMP JUMPDEST JUMPDEST PUSH2 0x27EC DUP9 DUP3 DUP10 ADD PUSH2 0x25B5 JUMP JUMPDEST SWAP2 POP POP SWAP3 SWAP6 POP SWAP3 SWAP6 SWAP1 SWAP4 POP JUMP JUMPDEST PUSH1 0x0 DUP1 PUSH1 0x0 PUSH1 0x60 DUP5 DUP7 SUB SLT ISZERO PUSH2 0x2812 JUMPI PUSH2 0x2811 PUSH2 0x36D4 JUMP JUMPDEST JUMPDEST PUSH1 0x0 PUSH2 0x2820 DUP7 DUP3 DUP8 ADD PUSH2 0x2505 JUMP JUMPDEST SWAP4 POP POP PUSH1 0x20 DUP5 ADD CALLDATALOAD PUSH8 0xFFFFFFFFFFFFFFFF DUP2 GT ISZERO PUSH2 0x2841 JUMPI PUSH2 0x2840 PUSH2 0x36CF JUMP JUMPDEST JUMPDEST PUSH2 0x284D DUP7 DUP3 DUP8 ADD PUSH2 0x2548 JUMP JUMPDEST SWAP3 POP POP PUSH1 0x40 DUP5 ADD CALLDATALOAD PUSH8 0xFFFFFFFFFFFFFFFF DUP2 GT ISZERO PUSH2 0x286E JUMPI PUSH2 0x286D PUSH2 0x36CF JUMP JUMPDEST JUMPDEST PUSH2 0x287A DUP7 DUP3 DUP8 ADD PUSH2 0x2548 JUMP JUMPDEST SWAP2 POP POP SWAP3 POP SWAP3 POP SWAP3 JUMP JUMPDEST PUSH1 0x0 DUP1 PUSH1 0x0 DUP1 PUSH1 0x0 PUSH1 0xA0 DUP7 DUP9 SUB SLT ISZERO PUSH2 0x28A0 JUMPI PUSH2 0x289F PUSH2 0x36D4 JUMP JUMPDEST JUMPDEST PUSH1 0x0 PUSH2 0x28AE DUP9 DUP3 DUP10 ADD PUSH2 0x2505 JUMP JUMPDEST SWAP6 POP POP PUSH1 0x20 DUP7 ADD CALLDATALOAD PUSH8 0xFFFFFFFFFFFFFFFF DUP2 GT ISZERO PUSH2 0x28CF JUMPI PUSH2 0x28CE PUSH2 0x36CF JUMP JUMPDEST JUMPDEST PUSH2 0x28DB DUP9 DUP3 DUP10 ADD PUSH2 0x2548 JUMP JUMPDEST SWAP5 POP POP PUSH1 0x40 DUP7 ADD CALLDATALOAD PUSH8 0xFFFFFFFFFFFFFFFF DUP2 GT ISZERO PUSH2 0x28FC JUMPI PUSH2 0x28FB PUSH2 0x36CF JUMP JUMPDEST JUMPDEST PUSH2 0x2908 DUP9 DUP3 DUP10 ADD PUSH2 0x2548 JUMP JUMPDEST SWAP4 POP POP PUSH1 0x60 DUP7 ADD CALLDATALOAD PUSH8 0xFFFFFFFFFFFFFFFF DUP2 GT ISZERO PUSH2 0x2929 JUMPI PUSH2 0x2928 PUSH2 0x36CF JUMP JUMPDEST JUMPDEST PUSH2 0x2935 DUP9 DUP3 DUP10 ADD PUSH2 0x2548 JUMP JUMPDEST SWAP3 POP POP PUSH1 0x80 DUP7 ADD CALLDATALOAD PUSH8 0xFFFFFFFFFFFFFFFF DUP2 GT ISZERO PUSH2 0x2956 JUMPI PUSH2 0x2955 PUSH2 0x36CF JUMP JUMPDEST JUMPDEST PUSH2 0x2962 DUP9 DUP3 DUP10 ADD PUSH2 0x2548 JUMP JUMPDEST SWAP2 POP POP SWAP3 SWAP6 POP SWAP3 SWAP6 SWAP1 SWAP4 POP JUMP JUMPDEST PUSH1 0x0 DUP1 PUSH1 0x40 DUP4 DUP6 SUB SLT ISZERO PUSH2 0x2986 JUMPI PUSH2 0x2985 PUSH2 0x36D4 JUMP JUMPDEST JUMPDEST PUSH1 0x0 PUSH2 0x2994 DUP6 DUP3 DUP7 ADD PUSH2 0x2505 JUMP JUMPDEST SWAP3 POP POP PUSH1 0x20 PUSH2 0x29A5 DUP6 DUP3 DUP7 ADD PUSH2 0x2576 JUMP JUMPDEST SWAP2 POP POP SWAP3 POP SWAP3 SWAP1 POP JUMP JUMPDEST PUSH1 0x0 DUP1 PUSH1 0x40 DUP4 DUP6 SUB SLT ISZERO PUSH2 0x29C6 JUMPI PUSH2 0x29C5 PUSH2 0x36D4 JUMP JUMPDEST JUMPDEST PUSH1 0x0 PUSH2 0x29D4 DUP6 DUP3 DUP7 ADD PUSH2 0x2505 JUMP JUMPDEST SWAP3 POP POP PUSH1 0x20 PUSH2 0x29E5 DUP6 DUP3 DUP7 ADD PUSH2 0x2611 JUMP JUMPDEST SWAP2 POP POP SWAP3 POP SWAP3 SWAP1 POP JUMP JUMPDEST PUSH1 0x0 DUP1 PUSH1 0x0 PUSH1 0x60 DUP5 DUP7 SUB SLT ISZERO PUSH2 0x2A08 JUMPI PUSH2 0x2A07 PUSH2 0x36D4 JUMP JUMPDEST JUMPDEST PUSH1 0x0 PUSH2 0x2A16 DUP7 DUP3 DUP8 ADD PUSH2 0x2505 JUMP JUMPDEST SWAP4 POP POP PUSH1 0x20 PUSH2 0x2A27 DUP7 DUP3 DUP8 ADD PUSH2 0x2611 JUMP JUMPDEST SWAP3 POP POP PUSH1 0x40 PUSH2 0x2A38 DUP7 DUP3 DUP8 ADD PUSH2 0x2611 JUMP JUMPDEST SWAP2 POP POP SWAP3 POP SWAP3 POP SWAP3 JUMP JUMPDEST PUSH1 0x0 DUP1 PUSH1 0x40 DUP4 DUP6 SUB SLT ISZERO PUSH2 0x2A59 JUMPI PUSH2 0x2A58 PUSH2 0x36D4 JUMP JUMPDEST JUMPDEST PUSH1 0x0 DUP4 ADD CALLDATALOAD PUSH8 0xFFFFFFFFFFFFFFFF DUP2 GT ISZERO PUSH2 0x2A77 JUMPI PUSH2 0x2A76 PUSH2 0x36CF JUMP JUMPDEST JUMPDEST PUSH2 0x2A83 DUP6 DUP3 DUP7 ADD PUSH2 0x251A JUMP JUMPDEST SWAP3 POP POP PUSH1 0x20 DUP4 ADD CALLDATALOAD PUSH8 0xFFFFFFFFFFFFFFFF DUP2 GT ISZERO PUSH2 0x2AA4 JUMPI PUSH2 0x2AA3 PUSH2 0x36CF JUMP JUMPDEST JUMPDEST PUSH2 0x2AB0 DUP6 DUP3 DUP7 ADD PUSH2 0x2548 JUMP JUMPDEST SWAP2 POP POP SWAP3 POP SWAP3 SWAP1 POP JUMP JUMPDEST PUSH1 0x0 DUP1 PUSH1 0x40 DUP4 DUP6 SUB SLT ISZERO PUSH2 0x2AD1 JUMPI PUSH2 0x2AD0 PUSH2 0x36D4 JUMP JUMPDEST JUMPDEST PUSH1 0x0 DUP4 ADD CALLDATALOAD PUSH8 0xFFFFFFFFFFFFFFFF DUP2 GT ISZERO PUSH2 0x2AEF JUMPI PUSH2 0x2AEE PUSH2 0x36CF JUMP JUMPDEST JUMPDEST PUSH2 0x2AFB DUP6 DUP3 DUP7 ADD PUSH2 0x2548 JUMP JUMPDEST SWAP3 POP POP PUSH1 0x20 DUP4 ADD CALLDATALOAD PUSH8 0xFFFFFFFFFFFFFFFF DUP2 GT ISZERO PUSH2 0x2B1C JUMPI PUSH2 0x2B1B PUSH2 0x36CF JUMP JUMPDEST JUMPDEST PUSH2 0x2B28 DUP6 DUP3 DUP7 ADD PUSH2 0x2548 JUMP JUMPDEST SWAP2 POP POP SWAP3 POP SWAP3 SWAP1 POP JUMP JUMPDEST PUSH1 0x0 PUSH1 0x20 DUP3 DUP5 SUB SLT ISZERO PUSH2 0x2B48 JUMPI PUSH2 0x2B47 PUSH2 0x36D4 JUMP JUMPDEST JUMPDEST PUSH1 0x0 PUSH2 0x2B56 DUP5 DUP3 DUP6 ADD PUSH2 0x258B JUMP JUMPDEST SWAP2 POP POP SWAP3 SWAP2 POP POP JUMP JUMPDEST PUSH1 0x0 PUSH1 0x20 DUP3 DUP5 SUB SLT ISZERO PUSH2 0x2B75 JUMPI PUSH2 0x2B74 PUSH2 0x36D4 JUMP JUMPDEST JUMPDEST PUSH1 0x0 PUSH2 0x2B83 DUP5 DUP3 DUP6 ADD PUSH2 0x25A0 JUMP JUMPDEST SWAP2 POP POP SWAP3 SWAP2 POP POP JUMP JUMPDEST PUSH1 0x0 PUSH1 0x20 DUP3 DUP5 SUB SLT ISZERO PUSH2 0x2BA2 JUMPI PUSH2 0x2BA1 PUSH2 0x36D4 JUMP JUMPDEST JUMPDEST PUSH1 0x0 PUSH2 0x2BB0 DUP5 DUP3 DUP6 ADD PUSH2 0x2611 JUMP JUMPDEST SWAP2 POP POP SWAP3 SWAP2 POP POP JUMP JUMPDEST PUSH1 0x0 DUP1 PUSH1 0x40 DUP4 DUP6 SUB SLT ISZERO PUSH2 0x2BD0 JUMPI PUSH2 0x2BCF PUSH2 0x36D4 JUMP JUMPDEST JUMPDEST PUSH1 0x0 PUSH2 0x2BDE DUP6 DUP3 DUP7 ADD PUSH2 0x2611 JUMP JUMPDEST SWAP3 POP POP PUSH1 0x20 DUP4 ADD CALLDATALOAD PUSH8 0xFFFFFFFFFFFFFFFF DUP2 GT ISZERO PUSH2 0x2BFF JUMPI PUSH2 0x2BFE PUSH2 0x36CF JUMP JUMPDEST JUMPDEST PUSH2 0x2C0B DUP6 DUP3 DUP7 ADD PUSH2 0x25E3 JUMP JUMPDEST SWAP2 POP POP SWAP3 POP SWAP3 SWAP1 POP JUMP JUMPDEST PUSH1 0x0 DUP1 PUSH1 0x40 DUP4 DUP6 SUB SLT ISZERO PUSH2 0x2C2C JUMPI PUSH2 0x2C2B PUSH2 0x36D4 JUMP JUMPDEST JUMPDEST PUSH1 0x0 PUSH2 0x2C3A DUP6 DUP3 DUP7 ADD PUSH2 0x2611 JUMP JUMPDEST SWAP3 POP POP PUSH1 0x20 PUSH2 0x2C4B DUP6 DUP3 DUP7 ADD PUSH2 0x2611 JUMP JUMPDEST SWAP2 POP POP SWAP3 POP SWAP3 SWAP1 POP JUMP JUMPDEST PUSH1 0x0 PUSH2 0x2C61 DUP4 DUP4 PUSH2 0x2F45 JUMP JUMPDEST PUSH1 0x20 DUP4 ADD SWAP1 POP SWAP3 SWAP2 POP POP JUMP JUMPDEST PUSH2 0x2C76 DUP2 PUSH2 0x3480 JUMP JUMPDEST DUP3 MSTORE POP POP JUMP JUMPDEST PUSH1 0x0 PUSH2 0x2C87 DUP3 PUSH2 0x33C9 JUMP JUMPDEST PUSH2 0x2C91 DUP2 DUP6 PUSH2 0x33F7 JUMP JUMPDEST SWAP4 POP PUSH2 0x2C9C DUP4 PUSH2 0x33B9 JUMP JUMPDEST DUP1 PUSH1 0x0 JUMPDEST DUP4 DUP2 LT ISZERO PUSH2 0x2CCD JUMPI DUP2 MLOAD PUSH2 0x2CB4 DUP9 DUP3 PUSH2 0x2C55 JUMP JUMPDEST SWAP8 POP PUSH2 0x2CBF DUP4 PUSH2 0x33EA JUMP JUMPDEST SWAP3 POP POP PUSH1 0x1 DUP2 ADD SWAP1 POP PUSH2 0x2CA0 JUMP JUMPDEST POP DUP6 SWAP4 POP POP POP POP SWAP3 SWAP2 POP POP JUMP JUMPDEST PUSH2 0x2CE3 DUP2 PUSH2 0x3492 JUMP JUMPDEST DUP3 MSTORE POP POP JUMP JUMPDEST PUSH1 0x0 PUSH2 0x2CF4 DUP3 PUSH2 0x33D4 JUMP JUMPDEST PUSH2 0x2CFE DUP2 DUP6 PUSH2 0x3408 JUMP JUMPDEST SWAP4 POP PUSH2 0x2D0E DUP2 DUP6 PUSH1 0x20 DUP7 ADD PUSH2 0x3503 JUMP JUMPDEST PUSH2 0x2D17 DUP2 PUSH2 0x36D9 JUMP JUMPDEST DUP5 ADD SWAP2 POP POP SWAP3 SWAP2 POP POP JUMP JUMPDEST PUSH1 0x0 PUSH2 0x2D2D DUP3 PUSH2 0x33DF JUMP JUMPDEST PUSH2 0x2D37 DUP2 DUP6 PUSH2 0x3419 JUMP JUMPDEST SWAP4 POP PUSH2 0x2D47 DUP2 DUP6 PUSH1 0x20 DUP7 ADD PUSH2 0x3503 JUMP JUMPDEST PUSH2 0x2D50 DUP2 PUSH2 0x36D9 JUMP JUMPDEST DUP5 ADD SWAP2 POP POP SWAP3 SWAP2 POP POP JUMP JUMPDEST PUSH1 0x0 PUSH2 0x2D68 PUSH1 0x34 DUP4 PUSH2 0x3419 JUMP JUMPDEST SWAP2 POP PUSH2 0x2D73 DUP3 PUSH2 0x36F7 JUMP JUMPDEST PUSH1 0x40 DUP3 ADD SWAP1 POP SWAP2 SWAP1 POP JUMP JUMPDEST PUSH1 0x0 PUSH2 0x2D8B PUSH1 0x2F DUP4 PUSH2 0x3419 JUMP JUMPDEST SWAP2 POP PUSH2 0x2D96 DUP3 PUSH2 0x3746 JUMP JUMPDEST PUSH1 0x40 DUP3 ADD SWAP1 POP SWAP2 SWAP1 POP JUMP JUMPDEST PUSH1 0x0 PUSH2 0x2DAE PUSH1 0x28 DUP4 PUSH2 0x3419 JUMP JUMPDEST SWAP2 POP PUSH2 0x2DB9 DUP3 PUSH2 0x3795 JUMP JUMPDEST PUSH1 0x40 DUP3 ADD SWAP1 POP SWAP2 SWAP1 POP JUMP JUMPDEST PUSH1 0x0 PUSH2 0x2DD1 PUSH1 0x26 DUP4 PUSH2 0x3419 JUMP JUMPDEST SWAP2 POP PUSH2 0x2DDC DUP3 PUSH2 0x37E4 JUMP JUMPDEST PUSH1 0x40 DUP3 ADD SWAP1 POP SWAP2 SWAP1 POP JUMP JUMPDEST PUSH1 0x0 PUSH2 0x2DF4 PUSH1 0x24 DUP4 PUSH2 0x3419 JUMP JUMPDEST SWAP2 POP PUSH2 0x2DFF DUP3 PUSH2 0x3833 JUMP JUMPDEST PUSH1 0x40 DUP3 ADD SWAP1 POP SWAP2 SWAP1 POP JUMP JUMPDEST PUSH1 0x0 PUSH2 0x2E17 PUSH1 0x2A DUP4 PUSH2 0x3419 JUMP JUMPDEST SWAP2 POP PUSH2 0x2E22 DUP3 PUSH2 0x3882 JUMP JUMPDEST PUSH1 0x40 DUP3 ADD SWAP1 POP SWAP2 SWAP1 POP JUMP JUMPDEST PUSH1 0x0 PUSH2 0x2E3A PUSH1 0x25 DUP4 PUSH2 0x3419 JUMP JUMPDEST SWAP2 POP PUSH2 0x2E45 DUP3 PUSH2 0x38D1 JUMP JUMPDEST PUSH1 0x40 DUP3 ADD SWAP1 POP SWAP2 SWAP1 POP JUMP JUMPDEST PUSH1 0x0 PUSH2 0x2E5D PUSH1 0x23 DUP4 PUSH2 0x3419 JUMP JUMPDEST SWAP2 POP PUSH2 0x2E68 DUP3 PUSH2 0x3920 JUMP JUMPDEST PUSH1 0x40 DUP3 ADD SWAP1 POP SWAP2 SWAP1 POP JUMP JUMPDEST PUSH1 0x0 PUSH2 0x2E80 PUSH1 0x2A DUP4 PUSH2 0x3419 JUMP JUMPDEST SWAP2 POP PUSH2 0x2E8B DUP3 PUSH2 0x396F JUMP JUMPDEST PUSH1 0x40 DUP3 ADD SWAP1 POP SWAP2 SWAP1 POP JUMP JUMPDEST PUSH1 0x0 PUSH2 0x2EA3 PUSH1 0x20 DUP4 PUSH2 0x3419 JUMP JUMPDEST SWAP2 POP PUSH2 0x2EAE DUP3 PUSH2 0x39BE JUMP JUMPDEST PUSH1 0x20 DUP3 ADD SWAP1 POP SWAP2 SWAP1 POP JUMP JUMPDEST PUSH1 0x0 PUSH2 0x2EC6 PUSH1 0x29 DUP4 PUSH2 0x3419 JUMP JUMPDEST SWAP2 POP PUSH2 0x2ED1 DUP3 PUSH2 0x39E7 JUMP JUMPDEST PUSH1 0x40 DUP3 ADD SWAP1 POP SWAP2 SWAP1 POP JUMP JUMPDEST PUSH1 0x0 PUSH2 0x2EE9 PUSH1 0x29 DUP4 PUSH2 0x3419 JUMP JUMPDEST SWAP2 POP PUSH2 0x2EF4 DUP3 PUSH2 0x3A36 JUMP JUMPDEST PUSH1 0x40 DUP3 ADD SWAP1 POP SWAP2 SWAP1 POP JUMP JUMPDEST PUSH1 0x0 PUSH2 0x2F0C PUSH1 0x28 DUP4 PUSH2 0x3419 JUMP JUMPDEST SWAP2 POP PUSH2 0x2F17 DUP3 PUSH2 0x3A85 JUMP JUMPDEST PUSH1 0x40 DUP3 ADD SWAP1 POP SWAP2 SWAP1 POP JUMP JUMPDEST PUSH1 0x0 PUSH2 0x2F2F PUSH1 0x21 DUP4 PUSH2 0x3419 JUMP JUMPDEST SWAP2 POP PUSH2 0x2F3A DUP3 PUSH2 0x3AD4 JUMP JUMPDEST PUSH1 0x40 DUP3 ADD SWAP1 POP SWAP2 SWAP1 POP JUMP JUMPDEST PUSH2 0x2F4E DUP2 PUSH2 0x34EA JUMP JUMPDEST DUP3 MSTORE POP POP JUMP JUMPDEST PUSH2 0x2F5D DUP2 PUSH2 0x34EA JUMP JUMPDEST DUP3 MSTORE POP POP JUMP JUMPDEST PUSH1 0x0 PUSH1 0x20 DUP3 ADD SWAP1 POP PUSH2 0x2F78 PUSH1 0x0 DUP4 ADD DUP5 PUSH2 0x2C6D JUMP JUMPDEST SWAP3 SWAP2 POP POP JUMP JUMPDEST PUSH1 0x0 PUSH1 0xA0 DUP3 ADD SWAP1 POP PUSH2 0x2F93 PUSH1 0x0 DUP4 ADD DUP9 PUSH2 0x2C6D JUMP JUMPDEST PUSH2 0x2FA0 PUSH1 0x20 DUP4 ADD DUP8 PUSH2 0x2C6D JUMP JUMPDEST DUP2 DUP2 SUB PUSH1 0x40 DUP4 ADD MSTORE PUSH2 0x2FB2 DUP2 DUP7 PUSH2 0x2C7C JUMP JUMPDEST SWAP1 POP DUP2 DUP2 SUB PUSH1 0x60 DUP4 ADD MSTORE PUSH2 0x2FC6 DUP2 DUP6 PUSH2 0x2C7C JUMP JUMPDEST SWAP1 POP DUP2 DUP2 SUB PUSH1 0x80 DUP4 ADD MSTORE PUSH2 0x2FDA DUP2 DUP5 PUSH2 0x2CE9 JUMP JUMPDEST SWAP1 POP SWAP7 SWAP6 POP POP POP POP POP POP JUMP JUMPDEST PUSH1 0x0 PUSH1 0xA0 DUP3 ADD SWAP1 POP PUSH2 0x2FFB PUSH1 0x0 DUP4 ADD DUP9 PUSH2 0x2C6D JUMP JUMPDEST PUSH2 0x3008 PUSH1 0x20 DUP4 ADD DUP8 PUSH2 0x2C6D JUMP JUMPDEST PUSH2 0x3015 PUSH1 0x40 DUP4 ADD DUP7 PUSH2 0x2F54 JUMP JUMPDEST PUSH2 0x3022 PUSH1 0x60 DUP4 ADD DUP6 PUSH2 0x2F54 JUMP JUMPDEST DUP2 DUP2 SUB PUSH1 0x80 DUP4 ADD MSTORE PUSH2 0x3034 DUP2 DUP5 PUSH2 0x2CE9 JUMP JUMPDEST SWAP1 POP SWAP7 SWAP6 POP POP POP POP POP POP JUMP JUMPDEST PUSH1 0x0 PUSH1 0x20 DUP3 ADD SWAP1 POP DUP2 DUP2 SUB PUSH1 0x0 DUP4 ADD MSTORE PUSH2 0x305A DUP2 DUP5 PUSH2 0x2C7C JUMP JUMPDEST SWAP1 POP SWAP3 SWAP2 POP POP JUMP JUMPDEST PUSH1 0x0 PUSH1 0x40 DUP3 ADD SWAP1 POP DUP2 DUP2 SUB PUSH1 0x0 DUP4 ADD MSTORE PUSH2 0x307C DUP2 DUP6 PUSH2 0x2C7C JUMP JUMPDEST SWAP1 POP DUP2 DUP2 SUB PUSH1 0x20 DUP4 ADD MSTORE PUSH2 0x3090 DUP2 DUP5 PUSH2 0x2C7C JUMP JUMPDEST SWAP1 POP SWAP4 SWAP3 POP POP POP JUMP JUMPDEST PUSH1 0x0 PUSH1 0x20 DUP3 ADD SWAP1 POP PUSH2 0x30AE PUSH1 0x0 DUP4 ADD DUP5 PUSH2 0x2CDA JUMP JUMPDEST SWAP3 SWAP2 POP POP JUMP JUMPDEST PUSH1 0x0 PUSH1 0x20 DUP3 ADD SWAP1 POP DUP2 DUP2 SUB PUSH1 0x0 DUP4 ADD MSTORE PUSH2 0x30CE DUP2 DUP5 PUSH2 0x2D22 JUMP JUMPDEST SWAP1 POP SWAP3 SWAP2 POP POP JUMP JUMPDEST PUSH1 0x0 PUSH1 0x20 DUP3 ADD SWAP1 POP DUP2 DUP2 SUB PUSH1 0x0 DUP4 ADD MSTORE PUSH2 0x30EF DUP2 PUSH2 0x2D5B JUMP JUMPDEST SWAP1 POP SWAP2 SWAP1 POP JUMP JUMPDEST PUSH1 0x0 PUSH1 0x20 DUP3 ADD SWAP1 POP DUP2 DUP2 SUB PUSH1 0x0 DUP4 ADD MSTORE PUSH2 0x310F DUP2 PUSH2 0x2D7E JUMP JUMPDEST SWAP1 POP SWAP2 SWAP1 POP JUMP JUMPDEST PUSH1 0x0 PUSH1 0x20 DUP3 ADD SWAP1 POP DUP2 DUP2 SUB PUSH1 0x0 DUP4 ADD MSTORE PUSH2 0x312F DUP2 PUSH2 0x2DA1 JUMP JUMPDEST SWAP1 POP SWAP2 SWAP1 POP JUMP JUMPDEST PUSH1 0x0 PUSH1 0x20 DUP3 ADD SWAP1 POP DUP2 DUP2 SUB PUSH1 0x0 DUP4 ADD MSTORE PUSH2 0x314F DUP2 PUSH2 0x2DC4 JUMP JUMPDEST SWAP1 POP SWAP2 SWAP1 POP JUMP JUMPDEST PUSH1 0x0 PUSH1 0x20 DUP3 ADD SWAP1 POP DUP2 DUP2 SUB PUSH1 0x0 DUP4 ADD MSTORE PUSH2 0x316F DUP2 PUSH2 0x2DE7 JUMP JUMPDEST SWAP1 POP SWAP2 SWAP1 POP JUMP JUMPDEST PUSH1 0x0 PUSH1 0x20 DUP3 ADD SWAP1 POP DUP2 DUP2 SUB PUSH1 0x0 DUP4 ADD MSTORE PUSH2 0x318F DUP2 PUSH2 0x2E0A JUMP JUMPDEST SWAP1 POP SWAP2 SWAP1 POP JUMP JUMPDEST PUSH1 0x0 PUSH1 0x20 DUP3 ADD SWAP1 POP DUP2 DUP2 SUB PUSH1 0x0 DUP4 ADD MSTORE PUSH2 0x31AF DUP2 PUSH2 0x2E2D JUMP JUMPDEST SWAP1 POP SWAP2 SWAP1 POP JUMP JUMPDEST PUSH1 0x0 PUSH1 0x20 DUP3 ADD SWAP1 POP DUP2 DUP2 SUB PUSH1 0x0 DUP4 ADD MSTORE PUSH2 0x31CF DUP2 PUSH2 0x2E50 JUMP JUMPDEST SWAP1 POP SWAP2 SWAP1 POP JUMP JUMPDEST PUSH1 0x0 PUSH1 0x20 DUP3 ADD SWAP1 POP DUP2 DUP2 SUB PUSH1 0x0 DUP4 ADD MSTORE PUSH2 0x31EF DUP2 PUSH2 0x2E73 JUMP JUMPDEST SWAP1 POP SWAP2 SWAP1 POP JUMP JUMPDEST PUSH1 0x0 PUSH1 0x20 DUP3 ADD SWAP1 POP DUP2 DUP2 SUB PUSH1 0x0 DUP4 ADD MSTORE PUSH2 0x320F DUP2 PUSH2 0x2E96 JUMP JUMPDEST SWAP1 POP SWAP2 SWAP1 POP JUMP JUMPDEST PUSH1 0x0 PUSH1 0x20 DUP3 ADD SWAP1 POP DUP2 DUP2 SUB PUSH1 0x0 DUP4 ADD MSTORE PUSH2 0x322F DUP2 PUSH2 0x2EB9 JUMP JUMPDEST SWAP1 POP SWAP2 SWAP1 POP JUMP JUMPDEST PUSH1 0x0 PUSH1 0x20 DUP3 ADD SWAP1 POP DUP2 DUP2 SUB PUSH1 0x0 DUP4 ADD MSTORE PUSH2 0x324F DUP2 PUSH2 0x2EDC JUMP JUMPDEST SWAP1 POP SWAP2 SWAP1 POP JUMP JUMPDEST PUSH1 0x0 PUSH1 0x20 DUP3 ADD SWAP1 POP DUP2 DUP2 SUB PUSH1 0x0 DUP4 ADD MSTORE PUSH2 0x326F DUP2 PUSH2 0x2EFF JUMP JUMPDEST SWAP1 POP SWAP2 SWAP1 POP JUMP JUMPDEST PUSH1 0x0 PUSH1 0x20 DUP3 ADD SWAP1 POP DUP2 DUP2 SUB PUSH1 0x0 DUP4 ADD MSTORE PUSH2 0x328F DUP2 PUSH2 0x2F22 JUMP JUMPDEST SWAP1 POP SWAP2 SWAP1 POP JUMP JUMPDEST PUSH1 0x0 PUSH1 0x20 DUP3 ADD SWAP1 POP PUSH2 0x32AB PUSH1 0x0 DUP4 ADD DUP5 PUSH2 0x2F54 JUMP JUMPDEST SWAP3 SWAP2 POP POP JUMP JUMPDEST PUSH1 0x0 PUSH1 0x40 DUP3 ADD SWAP1 POP PUSH2 0x32C6 PUSH1 0x0 DUP4 ADD DUP6 PUSH2 0x2F54 JUMP JUMPDEST PUSH2 0x32D3 PUSH1 0x20 DUP4 ADD DUP5 PUSH2 0x2F54 JUMP JUMPDEST SWAP4 SWAP3 POP POP POP JUMP JUMPDEST PUSH1 0x0 PUSH2 0x32E4 PUSH2 0x32F5 JUMP JUMPDEST SWAP1 POP PUSH2 0x32F0 DUP3 DUP3 PUSH2 0x3568 JUMP JUMPDEST SWAP2 SWAP1 POP JUMP JUMPDEST PUSH1 0x0 PUSH1 0x40 MLOAD SWAP1 POP SWAP1 JUMP JUMPDEST PUSH1 0x0 PUSH8 0xFFFFFFFFFFFFFFFF DUP3 GT ISZERO PUSH2 0x331A JUMPI PUSH2 0x3319 PUSH2 0x366F JUMP JUMPDEST JUMPDEST PUSH1 0x20 DUP3 MUL SWAP1 POP PUSH1 0x20 DUP2 ADD SWAP1 POP SWAP2 SWAP1 POP JUMP JUMPDEST PUSH1 0x0 PUSH8 0xFFFFFFFFFFFFFFFF DUP3 GT ISZERO PUSH2 0x3346 JUMPI PUSH2 0x3345 PUSH2 0x366F JUMP JUMPDEST JUMPDEST PUSH1 0x20 DUP3 MUL SWAP1 POP PUSH1 0x20 DUP2 ADD SWAP1 POP SWAP2 SWAP1 POP JUMP JUMPDEST PUSH1 0x0 PUSH8 0xFFFFFFFFFFFFFFFF DUP3 GT ISZERO PUSH2 0x3372 JUMPI PUSH2 0x3371 PUSH2 0x366F JUMP JUMPDEST JUMPDEST PUSH2 0x337B DUP3 PUSH2 0x36D9 JUMP JUMPDEST SWAP1 POP PUSH1 0x20 DUP2 ADD SWAP1 POP SWAP2 SWAP1 POP JUMP JUMPDEST PUSH1 0x0 PUSH8 0xFFFFFFFFFFFFFFFF DUP3 GT ISZERO PUSH2 0x33A3 JUMPI PUSH2 0x33A2 PUSH2 0x366F JUMP JUMPDEST JUMPDEST PUSH2 0x33AC DUP3 PUSH2 0x36D9 JUMP JUMPDEST SWAP1 POP PUSH1 0x20 DUP2 ADD SWAP1 POP SWAP2 SWAP1 POP JUMP JUMPDEST PUSH1 0x0 DUP2 SWAP1 POP PUSH1 0x20 DUP3 ADD SWAP1 POP SWAP2 SWAP1 POP JUMP JUMPDEST PUSH1 0x0 DUP2 MLOAD SWAP1 POP SWAP2 SWAP1 POP JUMP JUMPDEST PUSH1 0x0 DUP2 MLOAD SWAP1 POP SWAP2 SWAP1 POP JUMP JUMPDEST PUSH1 0x0 DUP2 MLOAD SWAP1 POP SWAP2 SWAP1 POP JUMP JUMPDEST PUSH1 0x0 PUSH1 0x20 DUP3 ADD SWAP1 POP SWAP2 SWAP1 POP JUMP JUMPDEST PUSH1 0x0 DUP3 DUP3 MSTORE PUSH1 0x20 DUP3 ADD SWAP1 POP SWAP3 SWAP2 POP POP JUMP JUMPDEST PUSH1 0x0 DUP3 DUP3 MSTORE PUSH1 0x20 DUP3 ADD SWAP1 POP SWAP3 SWAP2 POP POP JUMP JUMPDEST PUSH1 0x0 DUP3 DUP3 MSTORE PUSH1 0x20 DUP3 ADD SWAP1 POP SWAP3 SWAP2 POP POP JUMP JUMPDEST PUSH1 0x0 PUSH2 0x3435 DUP3 PUSH2 0x34EA JUMP JUMPDEST SWAP2 POP PUSH2 0x3440 DUP4 PUSH2 0x34EA JUMP JUMPDEST SWAP3 POP DUP3 PUSH32 0xFFFFFFFFFFFFFFFFFFFFFFFFFFFFFFFFFFFFFFFFFFFFFFFFFFFFFFFFFFFFFFFF SUB DUP3 GT ISZERO PUSH2 0x3475 JUMPI PUSH2 0x3474 PUSH2 0x35E2 JUMP JUMPDEST JUMPDEST DUP3 DUP3 ADD SWAP1 POP SWAP3 SWAP2 POP POP JUMP JUMPDEST PUSH1 0x0 PUSH2 0x348B DUP3 PUSH2 0x34CA JUMP JUMPDEST SWAP1 POP SWAP2 SWAP1 POP JUMP JUMPDEST PUSH1 0x0 DUP2 ISZERO ISZERO SWAP1 POP SWAP2 SWAP1 POP JUMP JUMPDEST PUSH1 0x0 PUSH32 0xFFFFFFFF00000000000000000000000000000000000000000000000000000000 DUP3 AND SWAP1 POP SWAP2 SWAP1 POP JUMP JUMPDEST PUSH1 0x0 PUSH20 0xFFFFFFFFFFFFFFFFFFFFFFFFFFFFFFFFFFFFFFFF DUP3 AND SWAP1 POP SWAP2 SWAP1 POP JUMP JUMPDEST PUSH1 0x0 DUP2 SWAP1 POP SWAP2 SWAP1 POP JUMP JUMPDEST DUP3 DUP2 DUP4 CALLDATACOPY PUSH1 0x0 DUP4 DUP4 ADD MSTORE POP POP POP JUMP JUMPDEST PUSH1 0x0 JUMPDEST DUP4 DUP2 LT ISZERO PUSH2 0x3521 JUMPI DUP1 DUP3 ADD MLOAD DUP2 DUP5 ADD MSTORE PUSH1 0x20 DUP2 ADD SWAP1 POP PUSH2 0x3506 JUMP JUMPDEST DUP4 DUP2 GT ISZERO PUSH2 0x3530 JUMPI PUSH1 0x0 DUP5 DUP5 ADD MSTORE JUMPDEST POP POP POP POP JUMP JUMPDEST PUSH1 0x0 PUSH1 0x2 DUP3 DIV SWAP1 POP PUSH1 0x1 DUP3 AND DUP1 PUSH2 0x354E JUMPI PUSH1 0x7F DUP3 AND SWAP2 POP JUMPDEST PUSH1 0x20 DUP3 LT DUP2 EQ ISZERO PUSH2 0x3562 JUMPI PUSH2 0x3561 PUSH2 0x3611 JUMP JUMPDEST JUMPDEST POP SWAP2 SWAP1 POP JUMP JUMPDEST PUSH2 0x3571 DUP3 PUSH2 0x36D9 JUMP JUMPDEST DUP2 ADD DUP2 DUP2 LT PUSH8 0xFFFFFFFFFFFFFFFF DUP3 GT OR ISZERO PUSH2 0x3590 JUMPI PUSH2 0x358F PUSH2 0x366F JUMP JUMPDEST JUMPDEST DUP1 PUSH1 0x40 MSTORE POP POP POP JUMP JUMPDEST PUSH1 0x0 PUSH2 0x35A4 DUP3 PUSH2 0x34EA JUMP JUMPDEST SWAP2 POP PUSH32 0xFFFFFFFFFFFFFFFFFFFFFFFFFFFFFFFFFFFFFFFFFFFFFFFFFFFFFFFFFFFFFFFF DUP3 EQ ISZERO PUSH2 0x35D7 JUMPI PUSH2 0x35D6 PUSH2 0x35E2 JUMP JUMPDEST JUMPDEST PUSH1 0x1 DUP3 ADD SWAP1 POP SWAP2 SWAP1 POP JUMP JUMPDEST PUSH32 0x4E487B7100000000000000000000000000000000000000000000000000000000 PUSH1 0x0 MSTORE PUSH1 0x11 PUSH1 0x4 MSTORE PUSH1 0x24 PUSH1 0x0 REVERT JUMPDEST PUSH32 0x4E487B7100000000000000000000000000000000000000000000000000000000 PUSH1 0x0 MSTORE PUSH1 0x22 PUSH1 0x4 MSTORE PUSH1 0x24 PUSH1 0x0 REVERT JUMPDEST PUSH32 0x4E487B7100000000000000000000000000000000000000000000000000000000 PUSH1 0x0 MSTORE PUSH1 0x32 PUSH1 0x4 MSTORE PUSH1 0x24 PUSH1 0x0 REVERT JUMPDEST PUSH32 0x4E487B7100000000000000000000000000000000000000000000000000000000 PUSH1 0x0 MSTORE PUSH1 0x41 PUSH1 0x4 MSTORE PUSH1 0x24 PUSH1 0x0 REVERT JUMPDEST PUSH1 0x0 PUSH1 0x3 RETURNDATASIZE GT ISZERO PUSH2 0x36BD JUMPI PUSH1 0x4 PUSH1 0x0 DUP1 RETURNDATACOPY PUSH2 0x36BA PUSH1 0x0 MLOAD PUSH2 0x36EA JUMP JUMPDEST SWAP1 POP JUMPDEST SWAP1 JUMP JUMPDEST PUSH1 0x0 DUP1 REVERT JUMPDEST PUSH1 0x0 DUP1 REVERT JUMPDEST PUSH1 0x0 DUP1 REVERT JUMPDEST PUSH1 0x0 DUP1 REVERT JUMPDEST PUSH1 0x0 DUP1 REVERT JUMPDEST PUSH1 0x0 PUSH1 0x1F NOT PUSH1 0x1F DUP4 ADD AND SWAP1 POP SWAP2 SWAP1 POP JUMP JUMPDEST PUSH1 0x0 DUP2 PUSH1 0xE0 SHR SWAP1 POP SWAP2 SWAP1 POP JUMP JUMPDEST PUSH32 0x455243313135353A207472616E7366657220746F206E6F6E2045524331313535 PUSH1 0x0 DUP3 ADD MSTORE PUSH32 0x526563656976657220696D706C656D656E746572000000000000000000000000 PUSH1 0x20 DUP3 ADD MSTORE POP JUMP JUMPDEST PUSH32 0x455243313135353A2063616C6C6572206973206E6F7420746F6B656E206F776E PUSH1 0x0 DUP3 ADD MSTORE PUSH32 0x6572206E6F7220617070726F7665640000000000000000000000000000000000 PUSH1 0x20 DUP3 ADD MSTORE POP JUMP JUMPDEST PUSH32 0x455243313135353A204552433131353552656365697665722072656A65637465 PUSH1 0x0 DUP3 ADD MSTORE PUSH32 0x6420746F6B656E73000000000000000000000000000000000000000000000000 PUSH1 0x20 DUP3 ADD MSTORE POP JUMP JUMPDEST PUSH32 0x4F776E61626C653A206E6577206F776E657220697320746865207A65726F2061 PUSH1 0x0 DUP3 ADD MSTORE PUSH32 0x6464726573730000000000000000000000000000000000000000000000000000 PUSH1 0x20 DUP3 ADD MSTORE POP JUMP JUMPDEST PUSH32 0x455243313135353A206275726E20616D6F756E7420657863656564732062616C PUSH1 0x0 DUP3 ADD MSTORE PUSH32 0x616E636500000000000000000000000000000000000000000000000000000000 PUSH1 0x20 DUP3 ADD MSTORE POP JUMP JUMPDEST PUSH32 0x455243313135353A2061646472657373207A65726F206973206E6F7420612076 PUSH1 0x0 DUP3 ADD MSTORE PUSH32 0x616C6964206F776E657200000000000000000000000000000000000000000000 PUSH1 0x20 DUP3 ADD MSTORE POP JUMP JUMPDEST PUSH32 0x455243313135353A207472616E7366657220746F20746865207A65726F206164 PUSH1 0x0 DUP3 ADD MSTORE PUSH32 0x6472657373000000000000000000000000000000000000000000000000000000 PUSH1 0x20 DUP3 ADD MSTORE POP JUMP JUMPDEST PUSH32 0x455243313135353A206275726E2066726F6D20746865207A65726F2061646472 PUSH1 0x0 DUP3 ADD MSTORE PUSH32 0x6573730000000000000000000000000000000000000000000000000000000000 PUSH1 0x20 DUP3 ADD MSTORE POP JUMP JUMPDEST PUSH32 0x455243313135353A20696E73756666696369656E742062616C616E636520666F PUSH1 0x0 DUP3 ADD MSTORE PUSH32 0x72207472616E7366657200000000000000000000000000000000000000000000 PUSH1 0x20 DUP3 ADD MSTORE POP JUMP JUMPDEST PUSH32 0x4F776E61626C653A2063616C6C6572206973206E6F7420746865206F776E6572 PUSH1 0x0 DUP3 ADD MSTORE POP JUMP JUMPDEST PUSH32 0x455243313135353A2073657474696E6720617070726F76616C20737461747573 PUSH1 0x0 DUP3 ADD MSTORE PUSH32 0x20666F722073656C660000000000000000000000000000000000000000000000 PUSH1 0x20 DUP3 ADD MSTORE POP JUMP JUMPDEST PUSH32 0x455243313135353A206163636F756E747320616E6420696473206C656E677468 PUSH1 0x0 DUP3 ADD MSTORE PUSH32 0x206D69736D617463680000000000000000000000000000000000000000000000 PUSH1 0x20 DUP3 ADD MSTORE POP JUMP JUMPDEST PUSH32 0x455243313135353A2069647320616E6420616D6F756E7473206C656E67746820 PUSH1 0x0 DUP3 ADD MSTORE PUSH32 0x6D69736D61746368000000000000000000000000000000000000000000000000 PUSH1 0x20 DUP3 ADD MSTORE POP JUMP JUMPDEST PUSH32 0x455243313135353A206D696E7420746F20746865207A65726F20616464726573 PUSH1 0x0 DUP3 ADD MSTORE PUSH32 0x7300000000000000000000000000000000000000000000000000000000000000 PUSH1 0x20 DUP3 ADD MSTORE POP JUMP JUMPDEST PUSH1 0x0 PUSH1 0x44 RETURNDATASIZE LT ISZERO PUSH2 0x3B33 JUMPI PUSH2 0x3BB6 JUMP JUMPDEST PUSH2 0x3B3B PUSH2 0x32F5 JUMP JUMPDEST PUSH1 0x4 RETURNDATASIZE SUB PUSH1 0x4 DUP3 RETURNDATACOPY DUP1 MLOAD RETURNDATASIZE PUSH1 0x24 DUP3 ADD GT PUSH8 0xFFFFFFFFFFFFFFFF DUP3 GT OR ISZERO PUSH2 0x3B63 JUMPI POP POP PUSH2 0x3BB6 JUMP JUMPDEST DUP1 DUP3 ADD DUP1 MLOAD PUSH8 0xFFFFFFFFFFFFFFFF DUP2 GT ISZERO PUSH2 0x3B81 JUMPI POP POP POP POP PUSH2 0x3BB6 JUMP JUMPDEST DUP1 PUSH1 0x20 DUP4 ADD ADD PUSH1 0x4 RETURNDATASIZE SUB DUP6 ADD DUP2 GT ISZERO PUSH2 0x3B9E JUMPI POP POP POP POP POP PUSH2 0x3BB6 JUMP JUMPDEST PUSH2 0x3BAD DUP3 PUSH1 0x20 ADD DUP6 ADD DUP7 PUSH2 0x3568 JUMP JUMPDEST DUP3 SWAP6 POP POP POP POP POP POP JUMPDEST SWAP1 JUMP JUMPDEST PUSH2 0x3BC2 DUP2 PUSH2 0x3480 JUMP JUMPDEST DUP2 EQ PUSH2 0x3BCD JUMPI PUSH1 0x0 DUP1 REVERT JUMPDEST POP JUMP JUMPDEST PUSH2 0x3BD9 DUP2 PUSH2 0x3492 JUMP JUMPDEST DUP2 EQ PUSH2 0x3BE4 JUMPI PUSH1 0x0 DUP1 REVERT JUMPDEST POP JUMP JUMPDEST PUSH2 0x3BF0 DUP2 PUSH2 0x349E JUMP JUMPDEST DUP2 EQ PUSH2 0x3BFB JUMPI PUSH1 0x0 DUP1 REVERT JUMPDEST POP JUMP JUMPDEST PUSH2 0x3C07 DUP2 PUSH2 0x34EA JUMP JUMPDEST DUP2 EQ PUSH2 0x3C12 JUMPI PUSH1 0x0 DUP1 REVERT JUMPDEST POP JUMP INVALID LOG2 PUSH5 0x6970667358 0x22 SLT KECCAK256 0xF9 0xD0 SWAP2 SWAP11 SWAP9 0xBD 0xE1 0xBC MSTORE8 SHR SWAP13 0xC6 0x23 0xB9 PC INVALID DUP1 SWAP1 CREATE EXTCODECOPY 0xDA 0xD6 0xE7 0xA7 0xD2 EXTCODEHASH 0xE8 MOD 0xF6 0xCE 0xAC DUP4 PUSH5 0x736F6C6343 STOP ADDMOD SMOD STOP CALLER "
		},
		"gasEstimates": {
			"creation": {
				"codeDepositCost": "3087000",
				"executionCost": "infinite",
				"totalCost": "infinite"
			},
			"external": {
				"balanceOf(address,uint256)": "infinite",
				"balanceOfBatch(address[],uint256[])": "infinite",
				"burn(uint256,uint256)": "infinite",
				"burnBatch(uint256[],uint256[])": "infinite",
				"burnForMint(address,uint256[],uint256[],uint256[],uint256[])": "infinite",
				"isApprovedForAll(address,address)": "infinite",
				"mint(address,uint256,uint256)": "infinite",
				"mintBatch(address,uint256[],uint256[])": "infinite",
				"name()": "infinite",
				"owner()": "2567",
				"renounceOwnership()": "30487",
				"safeBatchTransferFrom(address,address,uint256[],uint256[],bytes)": "infinite",
				"safeTransferFrom(address,address,uint256,uint256,bytes)": "infinite",
				"setApprovalForAll(address,bool)": "infinite",
				"setURI(uint256,string)": "infinite",
				"supportsInterface(bytes4)": "819",
				"symbol()": "infinite",
				"tokenURI(uint256)": "infinite",
				"transferOwnership(address)": "30857",
				"uri(uint256)": "infinite"
			}
		},
		"methodIdentifiers": {
			"balanceOf(address,uint256)": "00fdd58e",
			"balanceOfBatch(address[],uint256[])": "4e1273f4",
			"burn(uint256,uint256)": "b390c0ab",
			"burnBatch(uint256[],uint256[])": "83ca4b6f",
			"burnForMint(address,uint256[],uint256[],uint256[],uint256[])": "510f4104",
			"isApprovedForAll(address,address)": "e985e9c5",
			"mint(address,uint256,uint256)": "156e29f6",
			"mintBatch(address,uint256[],uint256[])": "d81d0a15",
			"name()": "06fdde03",
			"owner()": "8da5cb5b",
			"renounceOwnership()": "715018a6",
			"safeBatchTransferFrom(address,address,uint256[],uint256[],bytes)": "2eb2c2d6",
			"safeTransferFrom(address,address,uint256,uint256,bytes)": "f242432a",
			"setApprovalForAll(address,bool)": "a22cb465",
			"setURI(uint256,string)": "862440e2",
			"supportsInterface(bytes4)": "01ffc9a7",
			"symbol()": "95d89b41",
			"tokenURI(uint256)": "c87b56dd",
			"transferOwnership(address)": "f2fde38b",
			"uri(uint256)": "0e89341c"
		}
	},
	"abi": [
		{
			"inputs": [],
			"stateMutability": "nonpayable",
			"type": "constructor"
		},
		{
			"anonymous": false,
			"inputs": [
				{
					"indexed": true,
					"internalType": "address",
					"name": "account",
					"type": "address"
				},
				{
					"indexed": true,
					"internalType": "address",
					"name": "operator",
					"type": "address"
				},
				{
					"indexed": false,
					"internalType": "bool",
					"name": "approved",
					"type": "bool"
				}
			],
			"name": "ApprovalForAll",
			"type": "event"
		},
		{
			"anonymous": false,
			"inputs": [
				{
					"indexed": true,
					"internalType": "address",
					"name": "previousOwner",
					"type": "address"
				},
				{
					"indexed": true,
					"internalType": "address",
					"name": "newOwner",
					"type": "address"
				}
			],
			"name": "OwnershipTransferred",
			"type": "event"
		},
		{
			"anonymous": false,
			"inputs": [
				{
					"indexed": true,
					"internalType": "address",
					"name": "operator",
					"type": "address"
				},
				{
					"indexed": true,
					"internalType": "address",
					"name": "from",
					"type": "address"
				},
				{
					"indexed": true,
					"internalType": "address",
					"name": "to",
					"type": "address"
				},
				{
					"indexed": false,
					"internalType": "uint256[]",
					"name": "ids",
					"type": "uint256[]"
				},
				{
					"indexed": false,
					"internalType": "uint256[]",
					"name": "values",
					"type": "uint256[]"
				}
			],
			"name": "TransferBatch",
			"type": "event"
		},
		{
			"anonymous": false,
			"inputs": [
				{
					"indexed": true,
					"internalType": "address",
					"name": "operator",
					"type": "address"
				},
				{
					"indexed": true,
					"internalType": "address",
					"name": "from",
					"type": "address"
				},
				{
					"indexed": true,
					"internalType": "address",
					"name": "to",
					"type": "address"
				},
				{
					"indexed": false,
					"internalType": "uint256",
					"name": "id",
					"type": "uint256"
				},
				{
					"indexed": false,
					"internalType": "uint256",
					"name": "value",
					"type": "uint256"
				}
			],
			"name": "TransferSingle",
			"type": "event"
		},
		{
			"anonymous": false,
			"inputs": [
				{
					"indexed": false,
					"internalType": "string",
					"name": "value",
					"type": "string"
				},
				{
					"indexed": true,
					"internalType": "uint256",
					"name": "id",
					"type": "uint256"
				}
			],
			"name": "URI",
			"type": "event"
		},
		{
			"inputs": [
				{
					"internalType": "address",
					"name": "account",
					"type": "address"
				},
				{
					"internalType": "uint256",
					"name": "id",
					"type": "uint256"
				}
			],
			"name": "balanceOf",
			"outputs": [
				{
					"internalType": "uint256",
					"name": "",
					"type": "uint256"
				}
			],
			"stateMutability": "view",
			"type": "function"
		},
		{
			"inputs": [
				{
					"internalType": "address[]",
					"name": "accounts",
					"type": "address[]"
				},
				{
					"internalType": "uint256[]",
					"name": "ids",
					"type": "uint256[]"
				}
			],
			"name": "balanceOfBatch",
			"outputs": [
				{
					"internalType": "uint256[]",
					"name": "",
					"type": "uint256[]"
				}
			],
			"stateMutability": "view",
			"type": "function"
		},
		{
			"inputs": [
				{
					"internalType": "uint256",
					"name": "_id",
					"type": "uint256"
				},
				{
					"internalType": "uint256",
					"name": "_amount",
					"type": "uint256"
				}
			],
			"name": "burn",
			"outputs": [],
			"stateMutability": "nonpayable",
			"type": "function"
		},
		{
			"inputs": [
				{
					"internalType": "uint256[]",
					"name": "_ids",
					"type": "uint256[]"
				},
				{
					"internalType": "uint256[]",
					"name": "_amounts",
					"type": "uint256[]"
				}
			],
			"name": "burnBatch",
			"outputs": [],
			"stateMutability": "nonpayable",
			"type": "function"
		},
		{
			"inputs": [
				{
					"internalType": "address",
					"name": "_from",
					"type": "address"
				},
				{
					"internalType": "uint256[]",
					"name": "_burnIds",
					"type": "uint256[]"
				},
				{
					"internalType": "uint256[]",
					"name": "_burnAmounts",
					"type": "uint256[]"
				},
				{
					"internalType": "uint256[]",
					"name": "_mintIds",
					"type": "uint256[]"
				},
				{
					"internalType": "uint256[]",
					"name": "_mintAmounts",
					"type": "uint256[]"
				}
			],
			"name": "burnForMint",
			"outputs": [],
			"stateMutability": "nonpayable",
			"type": "function"
		},
		{
			"inputs": [
				{
					"internalType": "address",
					"name": "account",
					"type": "address"
				},
				{
					"internalType": "address",
					"name": "operator",
					"type": "address"
				}
			],
			"name": "isApprovedForAll",
			"outputs": [
				{
					"internalType": "bool",
					"name": "",
					"type": "bool"
				}
			],
			"stateMutability": "view",
			"type": "function"
		},
		{
			"inputs": [
				{
					"internalType": "address",
					"name": "_to",
					"type": "address"
				},
				{
					"internalType": "uint256",
					"name": "_id",
					"type": "uint256"
				},
				{
					"internalType": "uint256",
					"name": "_amount",
					"type": "uint256"
				}
			],
			"name": "mint",
			"outputs": [],
			"stateMutability": "nonpayable",
			"type": "function"
		},
		{
			"inputs": [
				{
					"internalType": "address",
					"name": "_to",
					"type": "address"
				},
				{
					"internalType": "uint256[]",
					"name": "_ids",
					"type": "uint256[]"
				},
				{
					"internalType": "uint256[]",
					"name": "_amounts",
					"type": "uint256[]"
				}
			],
			"name": "mintBatch",
			"outputs": [],
			"stateMutability": "nonpayable",
			"type": "function"
		},
		{
			"inputs": [],
			"name": "name",
			"outputs": [
				{
					"internalType": "string",
					"name": "",
					"type": "string"
				}
			],
			"stateMutability": "view",
			"type": "function"
		},
		{
			"inputs": [],
			"name": "owner",
			"outputs": [
				{
					"internalType": "address",
					"name": "",
					"type": "address"
				}
			],
			"stateMutability": "view",
			"type": "function"
		},
		{
			"inputs": [],
			"name": "renounceOwnership",
			"outputs": [],
			"stateMutability": "nonpayable",
			"type": "function"
		},
		{
			"inputs": [
				{
					"internalType": "address",
					"name": "from",
					"type": "address"
				},
				{
					"internalType": "address",
					"name": "to",
					"type": "address"
				},
				{
					"internalType": "uint256[]",
					"name": "ids",
					"type": "uint256[]"
				},
				{
					"internalType": "uint256[]",
					"name": "amounts",
					"type": "uint256[]"
				},
				{
					"internalType": "bytes",
					"name": "data",
					"type": "bytes"
				}
			],
			"name": "safeBatchTransferFrom",
			"outputs": [],
			"stateMutability": "nonpayable",
			"type": "function"
		},
		{
			"inputs": [
				{
					"internalType": "address",
					"name": "from",
					"type": "address"
				},
				{
					"internalType": "address",
					"name": "to",
					"type": "address"
				},
				{
					"internalType": "uint256",
					"name": "id",
					"type": "uint256"
				},
				{
					"internalType": "uint256",
					"name": "amount",
					"type": "uint256"
				},
				{
					"internalType": "bytes",
					"name": "data",
					"type": "bytes"
				}
			],
			"name": "safeTransferFrom",
			"outputs": [],
			"stateMutability": "nonpayable",
			"type": "function"
		},
		{
			"inputs": [
				{
					"internalType": "address",
					"name": "operator",
					"type": "address"
				},
				{
					"internalType": "bool",
					"name": "approved",
					"type": "bool"
				}
			],
			"name": "setApprovalForAll",
			"outputs": [],
			"stateMutability": "nonpayable",
			"type": "function"
		},
		{
			"inputs": [
				{
					"internalType": "uint256",
					"name": "_id",
					"type": "uint256"
				},
				{
					"internalType": "string",
					"name": "_uri",
					"type": "string"
				}
			],
			"name": "setURI",
			"outputs": [],
			"stateMutability": "nonpayable",
			"type": "function"
		},
		{
			"inputs": [
				{
					"internalType": "bytes4",
					"name": "interfaceId",
					"type": "bytes4"
				}
			],
			"name": "supportsInterface",
			"outputs": [
				{
					"internalType": "bool",
					"name": "",
					"type": "bool"
				}
			],
			"stateMutability": "view",
			"type": "function"
		},
		{
			"inputs": [],
			"name": "symbol",
			"outputs": [
				{
					"internalType": "string",
					"name": "",
					"type": "string"
				}
			],
			"stateMutability": "view",
			"type": "function"
		},
		{
			"inputs": [
				{
					"internalType": "uint256",
					"name": "",
					"type": "uint256"
				}
			],
			"name": "tokenURI",
			"outputs": [
				{
					"internalType": "string",
					"name": "",
					"type": "string"
				}
			],
			"stateMutability": "view",
			"type": "function"
		},
		{
			"inputs": [
				{
					"internalType": "address",
					"name": "newOwner",
					"type": "address"
				}
			],
			"name": "transferOwnership",
			"outputs": [],
			"stateMutability": "nonpayable",
			"type": "function"
		},
		{
			"inputs": [
				{
					"internalType": "uint256",
					"name": "_id",
					"type": "uint256"
				}
			],
			"name": "uri",
			"outputs": [
				{
					"internalType": "string",
					"name": "",
					"type": "string"
				}
			],
			"stateMutability": "view",
			"type": "function"
		}
	]
}