{
	"data": {
		"bytecode": {
			"linkReferences": {},
			"object": "60806040523480156200001157600080fd5b506040516200543f3803806200543f833981810160405281019062000037919062000533565b848481600090816200004a919062000882565b5080600190816200005c919062000882565b5050506000600b60006101000a81548160ff0219169083151502179055506200008f6000801b82620001b660201b60201c565b620000c17f65d7a28e3265b37a6474929f336521b332c1681b933f6cb9f3376673440d862a82620001b660201b60201c565b620000f37f9f2df0fed2c77648de5860a4cc508cd0818c85b8b8a1ab4ceeef8d981c8956a682620001b660201b60201c565b620001257faf9a8bb3cbd6b84fbccefa71ff73e26e798553c6914585a84886212a46a9027982620001b660201b60201c565b82600e908162000136919062000882565b5081600f908162000148919062000882565b506040518060400160405280601581526020017f68747470733a2f2f697066732e696f2f697066732f0000000000000000000000815250601090816200018f919062000882565b506001601160006101000a81548160ff021916908315150217905550505050505062000969565b620001c88282620001cc60201b60201c565b5050565b620001de8282620002be60201b60201c565b620002ba576001600c600084815260200190815260200160002060000160008373ffffffffffffffffffffffffffffffffffffffff1673ffffffffffffffffffffffffffffffffffffffff16815260200190815260200160002060006101000a81548160ff0219169083151502179055506200025f6200032960201b60201c565b73ffffffffffffffffffffffffffffffffffffffff168173ffffffffffffffffffffffffffffffffffffffff16837f2f8788117e7eff1d82e926ec794901d17c78024a50270940304540a733656f0d60405160405180910390a45b5050565b6000600c600084815260200190815260200160002060000160008373ffffffffffffffffffffffffffffffffffffffff1673ffffffffffffffffffffffffffffffffffffffff16815260200190815260200160002060009054906101000a900460ff16905092915050565b600033905090565b6000604051905090565b600080fd5b600080fd5b600080fd5b600080fd5b6000601f19601f8301169050919050565b7f4e487b7100000000000000000000000000000000000000000000000000000000600052604160045260246000fd5b6200039a826200034f565b810181811067ffffffffffffffff82111715620003bc57620003bb62000360565b5b80604052505050565b6000620003d162000331565b9050620003df82826200038f565b919050565b600067ffffffffffffffff82111562000402576200040162000360565b5b6200040d826200034f565b9050602081019050919050565b60005b838110156200043a5780820151818401526020810190506200041d565b838111156200044a576000848401525b50505050565b6000620004676200046184620003e4565b620003c5565b9050828152602081018484840111156200048657620004856200034a565b5b620004938482856200041a565b509392505050565b600082601f830112620004b357620004b262000345565b5b8151620004c584826020860162000450565b91505092915050565b600073ffffffffffffffffffffffffffffffffffffffff82169050919050565b6000620004fb82620004ce565b9050919050565b6200050d81620004ee565b81146200051957600080fd5b50565b6000815190506200052d8162000502565b92915050565b600080600080600060a086880312156200055257620005516200033b565b5b600086015167ffffffffffffffff81111562000573576200057262000340565b5b62000581888289016200049b565b955050602086015167ffffffffffffffff811115620005a557620005a462000340565b5b620005b3888289016200049b565b945050604086015167ffffffffffffffff811115620005d757620005d662000340565b5b620005e5888289016200049b565b935050606086015167ffffffffffffffff81111562000609576200060862000340565b5b62000617888289016200049b565b92505060806200062a888289016200051c565b9150509295509295909350565b600081519050919050565b7f4e487b7100000000000000000000000000000000000000000000000000000000600052602260045260246000fd5b600060028204905060018216806200068a57607f821691505b602082108103620006a0576200069f62000642565b5b50919050565b60008190508160005260206000209050919050565b60006020601f8301049050919050565b600082821b905092915050565b6000600883026200070a7fffffffffffffffffffffffffffffffffffffffffffffffffffffffffffffffff82620006cb565b620007168683620006cb565b95508019841693508086168417925050509392505050565b6000819050919050565b6000819050919050565b6000620007636200075d62000757846200072e565b62000738565b6200072e565b9050919050565b6000819050919050565b6200077f8362000742565b620007976200078e826200076a565b848454620006d8565b825550505050565b600090565b620007ae6200079f565b620007bb81848462000774565b505050565b5b81811015620007e357620007d7600082620007a4565b600181019050620007c1565b5050565b601f8211156200083257620007fc81620006a6565b6200080784620006bb565b8101602085101562000817578190505b6200082f6200082685620006bb565b830182620007c0565b50505b505050565b600082821c905092915050565b6000620008576000198460080262000837565b1980831691505092915050565b600062000872838362000844565b9150826002028217905092915050565b6200088d8262000637565b67ffffffffffffffff811115620008a957620008a862000360565b5b620008b5825462000671565b620008c2828285620007e7565b600060209050601f831160018114620008fa5760008415620008e5578287015190505b620008f1858262000864565b86555062000961565b601f1984166200090a86620006a6565b60005b8281101562000934578489015182556001820191506020850194506020810190506200090d565b8683101562000954578489015162000950601f89168262000844565b8355505b6001600288020188555050505b505050505050565b614ac680620009796000396000f3fe608060405234801561001057600080fd5b50600436106101fb5760003560e01c80636352211e1161011a578063c87b56dd116100ad578063e0b6bb671161007c578063e0b6bb67146105ac578063e63ab1e9146105b6578063e8a3d485146105d4578063e985e9c5146105f2578063f362136714610622576101fb565b8063c87b56dd14610526578063d204c45e14610556578063d539139314610572578063d547741f14610590576101fb565b806395d89b41116100e957806395d89b41146104b2578063a217fddf146104d0578063a22cb465146104ee578063b88d4fde1461050a576101fb565b80636352211e1461041857806370a08231146104485780638456cb591461047857806391d1485414610482576101fb565b80632f2ff15d1161019257806342842e0e1161016157806342842e0e1461039257806342966c68146103ae5780634f6ccce7146103ca5780635c975abb146103fa576101fb565b80632f2ff15d146103205780632f745c591461033c57806336568abe1461036c5780633f4ba83a14610388576101fb565b80630cd3a538116101ce5780630cd3a5381461029a57806318160ddd146102b657806323b872dd146102d4578063248a9ca3146102f0576101fb565b806301ffc9a71461020057806306fdde0314610230578063081812fc1461024e578063095ea7b31461027e575b600080fd5b61021a60048036038101906102159190612edf565b610640565b6040516102279190612f27565b60405180910390f35b610238610652565b6040516102459190612fdb565b60405180910390f35b61026860048036038101906102639190613033565b6106e4565b60405161027591906130a1565b60405180910390f35b610298600480360381019061029391906130e8565b610769565b005b6102b460048036038101906102af919061325d565b610880565b005b6102be6108a9565b6040516102cb91906132b5565b60405180910390f35b6102ee60048036038101906102e991906132d0565b6108b6565b005b61030a60048036038101906103059190613359565b610916565b6040516103179190613395565b60405180910390f35b61033a600480360381019061033591906133b0565b610936565b005b610356600480360381019061035191906130e8565b610957565b60405161036391906132b5565b60405180910390f35b610386600480360381019061038191906133b0565b6109fc565b005b610390610a7f565b005b6103ac60048036038101906103a791906132d0565b610abc565b005b6103c860048036038101906103c39190613033565b610adc565b005b6103e460048036038101906103df9190613033565b610b38565b6040516103f191906132b5565b60405180910390f35b610402610ba9565b60405161040f9190612f27565b60405180910390f35b610432600480360381019061042d9190613033565b610bc0565b60405161043f91906130a1565b60405180910390f35b610462600480360381019061045d91906133f0565b610c71565b60405161046f91906132b5565b60405180910390f35b610480610d28565b005b61049c600480360381019061049791906133b0565b610d65565b6040516104a99190612f27565b60405180910390f35b6104ba610dd0565b6040516104c79190612fdb565b60405180910390f35b6104d8610e62565b6040516104e59190613395565b60405180910390f35b61050860048036038101906105039190613449565b610e69565b005b610524600480360381019061051f919061352a565b610e7f565b005b610540600480360381019061053b9190613033565b610ee1565b60405161054d9190612fdb565b60405180910390f35b610570600480360381019061056b91906135ad565b610ef3565b005b61057a610f73565b6040516105879190613395565b60405180910390f35b6105aa60048036038101906105a591906133b0565b610f97565b005b6105b4610fb8565b005b6105be611008565b6040516105cb9190613395565b60405180910390f35b6105dc61102c565b6040516105e99190612fdb565b60405180910390f35b61060c60048036038101906106079190613609565b611083565b6040516106199190612f27565b60405180910390f35b61062a611117565b6040516106379190613395565b60405180910390f35b600061064b8261113b565b9050919050565b60606000805461066190613678565b80601f016020809104026020016040519081016040528092919081815260200182805461068d90613678565b80156106da5780601f106106af576101008083540402835291602001916106da565b820191906000526020600020905b8154815290600101906020018083116106bd57829003601f168201915b5050505050905090565b60006106ef826111b5565b61072e576040517f08c379a00000000000000000000000000000000000000000000000000000000081526004016107259061371b565b60405180910390fd5b6004600083815260200190815260200160002060009054906101000a900473ffffffffffffffffffffffffffffffffffffffff169050919050565b600061077482610bc0565b90508073ffffffffffffffffffffffffffffffffffffffff168373ffffffffffffffffffffffffffffffffffffffff16036107e4576040517f08c379a00000000000000000000000000000000000000000000000000000000081526004016107db906137ad565b60405180910390fd5b8073ffffffffffffffffffffffffffffffffffffffff16610803611221565b73ffffffffffffffffffffffffffffffffffffffff16148061083257506108318161082c611221565b611083565b5b610871576040517f08c379a00000000000000000000000000000000000000000000000000000000081526004016108689061383f565b60405180910390fd5b61087b8383611229565b505050565b61088d6000801b33610d65565b61089657600080fd5b80601090816108a59190613a0b565b5050565b6000600880549050905090565b6108c76108c1611221565b826112e2565b610906576040517f08c379a00000000000000000000000000000000000000000000000000000000081526004016108fd90613b4f565b60405180910390fd5b6109118383836113c0565b505050565b6000600c6000838152602001908152602001600020600101549050919050565b61093f82610916565b61094881611626565b610952838361163a565b505050565b600061096283610c71565b82106109a3576040517f08c379a000000000000000000000000000000000000000000000000000000000815260040161099a90613be1565b60405180910390fd5b600660008473ffffffffffffffffffffffffffffffffffffffff1673ffffffffffffffffffffffffffffffffffffffff168152602001908152602001600020600083815260200190815260200160002054905092915050565b610a04611221565b73ffffffffffffffffffffffffffffffffffffffff168173ffffffffffffffffffffffffffffffffffffffff1614610a71576040517f08c379a0000000000000000000000000000000000000000000000000000000008152600401610a6890613c73565b60405180910390fd5b610a7b828261171b565b5050565b610aa97f65d7a28e3265b37a6474929f336521b332c1681b933f6cb9f3376673440d862a33610d65565b610ab257600080fd5b610aba6117fd565b565b610ad783838360405180602001604052806000815250610e7f565b505050565b610aed610ae7611221565b826112e2565b610b2c576040517f08c379a0000000000000000000000000000000000000000000000000000000008152600401610b2390613d05565b60405180910390fd5b610b358161189f565b50565b6000610b426108a9565b8210610b83576040517f08c379a0000000000000000000000000000000000000000000000000000000008152600401610b7a90613d97565b60405180910390fd5b60088281548110610b9757610b96613db7565b5b90600052602060002001549050919050565b6000600b60009054906101000a900460ff16905090565b6000806002600084815260200190815260200160002060009054906101000a900473ffffffffffffffffffffffffffffffffffffffff169050600073ffffffffffffffffffffffffffffffffffffffff168173ffffffffffffffffffffffffffffffffffffffff1603610c68576040517f08c379a0000000000000000000000000000000000000000000000000000000008152600401610c5f90613e58565b60405180910390fd5b80915050919050565b60008073ffffffffffffffffffffffffffffffffffffffff168273ffffffffffffffffffffffffffffffffffffffff1603610ce1576040517f08c379a0000000000000000000000000000000000000000000000000000000008152600401610cd890613eea565b60405180910390fd5b600360008373ffffffffffffffffffffffffffffffffffffffff1673ffffffffffffffffffffffffffffffffffffffff168152602001908152602001600020549050919050565b610d527f65d7a28e3265b37a6474929f336521b332c1681b933f6cb9f3376673440d862a33610d65565b610d5b57600080fd5b610d636118ab565b565b6000600c600084815260200190815260200160002060000160008373ffffffffffffffffffffffffffffffffffffffff1673ffffffffffffffffffffffffffffffffffffffff16815260200190815260200160002060009054906101000a900460ff16905092915050565b606060018054610ddf90613678565b80601f0160208091040260200160405190810160405280929190818152602001828054610e0b90613678565b8015610e585780601f10610e2d57610100808354040283529160200191610e58565b820191906000526020600020905b815481529060010190602001808311610e3b57829003601f168201915b5050505050905090565b6000801b81565b610e7b610e74611221565b838361194e565b5050565b610e90610e8a611221565b836112e2565b610ecf576040517f08c379a0000000000000000000000000000000000000000000000000000000008152600401610ec690613b4f565b60405180910390fd5b610edb84848484611aba565b50505050565b6060610eec82611b16565b9050919050565b610f1d7f9f2df0fed2c77648de5860a4cc508cd0818c85b8b8a1ab4ceeef8d981c8956a633610d65565b610f2657600080fd5b601160009054906101000a900460ff16610f3f57600080fd5b610f5282610f4d600d611c67565b611c75565b610f65610f5f600d611c67565b82611c93565b610f6f600d611d00565b5050565b7f9f2df0fed2c77648de5860a4cc508cd0818c85b8b8a1ab4ceeef8d981c8956a681565b610fa082610916565b610fa981611626565b610fb3838361171b565b505050565b610fe27faf9a8bb3cbd6b84fbccefa71ff73e26e798553c6914585a84886212a46a9027933610d65565b610feb57600080fd5b6000601160006101000a81548160ff021916908315150217905550565b7f65d7a28e3265b37a6474929f336521b332c1681b933f6cb9f3376673440d862a81565b606060006010805461103d90613678565b905011611059576040518060200160405280600081525061107e565b6010600f60405160200161106e929190613f98565b6040516020818303038152906040525b905090565b6000600560008473ffffffffffffffffffffffffffffffffffffffff1673ffffffffffffffffffffffffffffffffffffffff16815260200190815260200160002060008373ffffffffffffffffffffffffffffffffffffffff1673ffffffffffffffffffffffffffffffffffffffff16815260200190815260200160002060009054906101000a900460ff16905092915050565b7faf9a8bb3cbd6b84fbccefa71ff73e26e798553c6914585a84886212a46a9027981565b60007f7965db0b000000000000000000000000000000000000000000000000000000007bffffffffffffffffffffffffffffffffffffffffffffffffffffffff1916827bffffffffffffffffffffffffffffffffffffffffffffffffffffffff191614806111ae57506111ad82611d16565b5b9050919050565b60008073ffffffffffffffffffffffffffffffffffffffff166002600084815260200190815260200160002060009054906101000a900473ffffffffffffffffffffffffffffffffffffffff1673ffffffffffffffffffffffffffffffffffffffff1614159050919050565b600033905090565b816004600083815260200190815260200160002060006101000a81548173ffffffffffffffffffffffffffffffffffffffff021916908373ffffffffffffffffffffffffffffffffffffffff160217905550808273ffffffffffffffffffffffffffffffffffffffff1661129c83610bc0565b73ffffffffffffffffffffffffffffffffffffffff167f8c5be1e5ebec7d5bd14f71427d1e84f3dd0314c0f7b2291e5b200ac8c7c3b92560405160405180910390a45050565b60006112ed826111b5565b61132c576040517f08c379a00000000000000000000000000000000000000000000000000000000081526004016113239061402e565b60405180910390fd5b600061133783610bc0565b90508073ffffffffffffffffffffffffffffffffffffffff168473ffffffffffffffffffffffffffffffffffffffff16148061137957506113788185611083565b5b806113b757508373ffffffffffffffffffffffffffffffffffffffff1661139f846106e4565b73ffffffffffffffffffffffffffffffffffffffff16145b91505092915050565b8273ffffffffffffffffffffffffffffffffffffffff166113e082610bc0565b73ffffffffffffffffffffffffffffffffffffffff1614611436576040517f08c379a000000000000000000000000000000000000000000000000000000000815260040161142d906140c0565b60405180910390fd5b600073ffffffffffffffffffffffffffffffffffffffff168273ffffffffffffffffffffffffffffffffffffffff16036114a5576040517f08c379a000000000000000000000000000000000000000000000000000000000815260040161149c90614152565b60405180910390fd5b6114b0838383611d90565b6114bb600082611229565b6001600360008573ffffffffffffffffffffffffffffffffffffffff1673ffffffffffffffffffffffffffffffffffffffff168152602001908152602001600020600082825461150b91906141a1565b925050819055506001600360008473ffffffffffffffffffffffffffffffffffffffff1673ffffffffffffffffffffffffffffffffffffffff168152602001908152602001600020600082825461156291906141d5565b92505081905550816002600083815260200190815260200160002060006101000a81548173ffffffffffffffffffffffffffffffffffffffff021916908373ffffffffffffffffffffffffffffffffffffffff160217905550808273ffffffffffffffffffffffffffffffffffffffff168473ffffffffffffffffffffffffffffffffffffffff167fddf252ad1be2c89b69c2b068fc378daa952ba7f163c4a11628f55a4df523b3ef60405160405180910390a4611621838383611de8565b505050565b61163781611632611221565b611ded565b50565b6116448282610d65565b611717576001600c600084815260200190815260200160002060000160008373ffffffffffffffffffffffffffffffffffffffff1673ffffffffffffffffffffffffffffffffffffffff16815260200190815260200160002060006101000a81548160ff0219169083151502179055506116bc611221565b73ffffffffffffffffffffffffffffffffffffffff168173ffffffffffffffffffffffffffffffffffffffff16837f2f8788117e7eff1d82e926ec794901d17c78024a50270940304540a733656f0d60405160405180910390a45b5050565b6117258282610d65565b156117f9576000600c600084815260200190815260200160002060000160008373ffffffffffffffffffffffffffffffffffffffff1673ffffffffffffffffffffffffffffffffffffffff16815260200190815260200160002060006101000a81548160ff02191690831515021790555061179e611221565b73ffffffffffffffffffffffffffffffffffffffff168173ffffffffffffffffffffffffffffffffffffffff16837ff6391f5c32d9c69d2a47ea670b442974b53935d1edc7fd64eb21e047a839171b60405160405180910390a45b5050565b611805610ba9565b611844576040517f08c379a000000000000000000000000000000000000000000000000000000000815260040161183b90614277565b60405180910390fd5b6000600b60006101000a81548160ff0219169083151502179055507f5db9ee0a495bf2e6ff9c91a7834c1ba4fdd244a5e8aa4e537bd38aeae4b073aa611888611221565b60405161189591906130a1565b60405180910390a1565b6118a881611e8a565b50565b6118b3610ba9565b156118f3576040517f08c379a00000000000000000000000000000000000000000000000000000000081526004016118ea906142e3565b60405180910390fd5b6001600b60006101000a81548160ff0219169083151502179055507f62e78cea01bee320cd4e420270b5ea74000d11b0c9f74754ebdbfc544b05a258611937611221565b60405161194491906130a1565b60405180910390a1565b8173ffffffffffffffffffffffffffffffffffffffff168373ffffffffffffffffffffffffffffffffffffffff16036119bc576040517f08c379a00000000000000000000000000000000000000000000000000000000081526004016119b39061434f565b60405180910390fd5b80600560008573ffffffffffffffffffffffffffffffffffffffff1673ffffffffffffffffffffffffffffffffffffffff16815260200190815260200160002060008473ffffffffffffffffffffffffffffffffffffffff1673ffffffffffffffffffffffffffffffffffffffff16815260200190815260200160002060006101000a81548160ff0219169083151502179055508173ffffffffffffffffffffffffffffffffffffffff168373ffffffffffffffffffffffffffffffffffffffff167f17307eab39ab6107e8899845ad3d59bd9653f200f220920489ca2b5937696c3183604051611aad9190612f27565b60405180910390a3505050565b611ac58484846113c0565b611ad184848484611edd565b611b10576040517f08c379a0000000000000000000000000000000000000000000000000000000008152600401611b07906143e1565b60405180910390fd5b50505050565b6060611b21826111b5565b611b60576040517f08c379a0000000000000000000000000000000000000000000000000000000008152600401611b5790614473565b60405180910390fd5b6000600a60008481526020019081526020016000208054611b8090613678565b80601f0160208091040260200160405190810160405280929190818152602001828054611bac90613678565b8015611bf95780601f10611bce57610100808354040283529160200191611bf9565b820191906000526020600020905b815481529060010190602001808311611bdc57829003601f168201915b505050505090506000611c0a612064565b90506000815103611c1f578192505050611c62565b600082511115611c54578082604051602001611c3c9291906144c4565b60405160208183030381529060405292505050611c62565b611c5d846120f6565b925050505b919050565b600081600001549050919050565b611c8f82826040518060200160405280600081525061219d565b5050565b611c9c826111b5565b611cdb576040517f08c379a0000000000000000000000000000000000000000000000000000000008152600401611cd29061455a565b60405180910390fd5b80600a60008481526020019081526020016000209081611cfb9190613a0b565b505050565b6001816000016000828254019250508190555050565b60007f780e9d63000000000000000000000000000000000000000000000000000000007bffffffffffffffffffffffffffffffffffffffffffffffffffffffff1916827bffffffffffffffffffffffffffffffffffffffffffffffffffffffff19161480611d895750611d88826121f8565b5b9050919050565b611d98610ba9565b15611dd8576040517f08c379a0000000000000000000000000000000000000000000000000000000008152600401611dcf906142e3565b60405180910390fd5b611de38383836122da565b505050565b505050565b611df78282610d65565b611e8657611e1c8173ffffffffffffffffffffffffffffffffffffffff1660146123ec565b611e2a8360001c60206123ec565b604051602001611e3b929190614612565b6040516020818303038152906040526040517f08c379a0000000000000000000000000000000000000000000000000000000008152600401611e7d9190612fdb565b60405180910390fd5b5050565b611e9381612628565b6000600a60008381526020019081526020016000208054611eb390613678565b905014611eda57600a60008281526020019081526020016000206000611ed99190612e16565b5b50565b6000611efe8473ffffffffffffffffffffffffffffffffffffffff16612745565b15612057578373ffffffffffffffffffffffffffffffffffffffff1663150b7a02611f27611221565b8786866040518563ffffffff1660e01b8152600401611f4994939291906146a1565b6020604051808303816000875af1925050508015611f8557506040513d601f19601f82011682018060405250810190611f829190614702565b60015b612007573d8060008114611fb5576040519150601f19603f3d011682016040523d82523d6000602084013e611fba565b606091505b506000815103611fff576040517f08c379a0000000000000000000000000000000000000000000000000000000008152600401611ff6906143e1565b60405180910390fd5b805181602001fd5b63150b7a0260e01b7bffffffffffffffffffffffffffffffffffffffffffffffffffffffff1916817bffffffffffffffffffffffffffffffffffffffffffffffffffffffff19161491505061205c565b600190505b949350505050565b6060600e805461207390613678565b80601f016020809104026020016040519081016040528092919081815260200182805461209f90613678565b80156120ec5780601f106120c1576101008083540402835291602001916120ec565b820191906000526020600020905b8154815290600101906020018083116120cf57829003601f168201915b5050505050905090565b6060612101826111b5565b612140576040517f08c379a0000000000000000000000000000000000000000000000000000000008152600401612137906147a1565b60405180910390fd5b600061214a612064565b9050600081511161216a5760405180602001604052806000815250612195565b8061217484612768565b6040516020016121859291906144c4565b6040516020818303038152906040525b915050919050565b6121a783836128c8565b6121b46000848484611edd565b6121f3576040517f08c379a00000000000000000000000000000000000000000000000000000000081526004016121ea906143e1565b60405180910390fd5b505050565b60007f80ac58cd000000000000000000000000000000000000000000000000000000007bffffffffffffffffffffffffffffffffffffffffffffffffffffffff1916827bffffffffffffffffffffffffffffffffffffffffffffffffffffffff191614806122c357507f5b5e139f000000000000000000000000000000000000000000000000000000007bffffffffffffffffffffffffffffffffffffffffffffffffffffffff1916827bffffffffffffffffffffffffffffffffffffffffffffffffffffffff1916145b806122d357506122d282612aa1565b5b9050919050565b6122e5838383612b0b565b600073ffffffffffffffffffffffffffffffffffffffff168373ffffffffffffffffffffffffffffffffffffffff16036123275761232281612b10565b612366565b8173ffffffffffffffffffffffffffffffffffffffff168373ffffffffffffffffffffffffffffffffffffffff1614612365576123648382612b59565b5b5b600073ffffffffffffffffffffffffffffffffffffffff168273ffffffffffffffffffffffffffffffffffffffff16036123a8576123a381612cc6565b6123e7565b8273ffffffffffffffffffffffffffffffffffffffff168273ffffffffffffffffffffffffffffffffffffffff16146123e6576123e58282612d97565b5b5b505050565b6060600060028360026123ff91906147c1565b61240991906141d5565b67ffffffffffffffff81111561242257612421613132565b5b6040519080825280601f01601f1916602001820160405280156124545781602001600182028036833780820191505090505b5090507f30000000000000000000000000000000000000000000000000000000000000008160008151811061248c5761248b613db7565b5b60200101907effffffffffffffffffffffffffffffffffffffffffffffffffffffffffffff1916908160001a9053507f7800000000000000000000000000000000000000000000000000000000000000816001815181106124f0576124ef613db7565b5b60200101907effffffffffffffffffffffffffffffffffffffffffffffffffffffffffffff1916908160001a9053506000600184600261253091906147c1565b61253a91906141d5565b90505b60018111156125da577f3031323334353637383961626364656600000000000000000000000000000000600f86166010811061257c5761257b613db7565b5b1a60f81b82828151811061259357612592613db7565b5b60200101907effffffffffffffffffffffffffffffffffffffffffffffffffffffffffffff1916908160001a905350600485901c9450806125d39061481b565b905061253d565b506000841461261e576040517f08c379a000000000000000000000000000000000000000000000000000000000815260040161261590614890565b60405180910390fd5b8091505092915050565b600061263382610bc0565b905061264181600084611d90565b61264c600083611229565b6001600360008373ffffffffffffffffffffffffffffffffffffffff1673ffffffffffffffffffffffffffffffffffffffff168152602001908152602001600020600082825461269c91906141a1565b925050819055506002600083815260200190815260200160002060006101000a81549073ffffffffffffffffffffffffffffffffffffffff021916905581600073ffffffffffffffffffffffffffffffffffffffff168273ffffffffffffffffffffffffffffffffffffffff167fddf252ad1be2c89b69c2b068fc378daa952ba7f163c4a11628f55a4df523b3ef60405160405180910390a461274181600084611de8565b5050565b6000808273ffffffffffffffffffffffffffffffffffffffff163b119050919050565b6060600082036127af576040518060400160405280600181526020017f300000000000000000000000000000000000000000000000000000000000000081525090506128c3565b600082905060005b600082146127e15780806127ca906148b0565b915050600a826127da9190614927565b91506127b7565b60008167ffffffffffffffff8111156127fd576127fc613132565b5b6040519080825280601f01601f19166020018201604052801561282f5781602001600182028036833780820191505090505b5090505b600085146128bc5760018261284891906141a1565b9150600a856128579190614958565b603061286391906141d5565b60f81b81838151811061287957612878613db7565b5b60200101907effffffffffffffffffffffffffffffffffffffffffffffffffffffffffffff1916908160001a905350600a856128b59190614927565b9450612833565b8093505050505b919050565b600073ffffffffffffffffffffffffffffffffffffffff168273ffffffffffffffffffffffffffffffffffffffff1603612937576040517f08c379a000000000000000000000000000000000000000000000000000000000815260040161292e906149d5565b60405180910390fd5b612940816111b5565b15612980576040517f08c379a000000000000000000000000000000000000000000000000000000000815260040161297790614a41565b60405180910390fd5b61298c60008383611d90565b6001600360008473ffffffffffffffffffffffffffffffffffffffff1673ffffffffffffffffffffffffffffffffffffffff16815260200190815260200160002060008282546129dc91906141d5565b92505081905550816002600083815260200190815260200160002060006101000a81548173ffffffffffffffffffffffffffffffffffffffff021916908373ffffffffffffffffffffffffffffffffffffffff160217905550808273ffffffffffffffffffffffffffffffffffffffff16600073ffffffffffffffffffffffffffffffffffffffff167fddf252ad1be2c89b69c2b068fc378daa952ba7f163c4a11628f55a4df523b3ef60405160405180910390a4612a9d60008383611de8565b5050565b60007f01ffc9a7000000000000000000000000000000000000000000000000000000007bffffffffffffffffffffffffffffffffffffffffffffffffffffffff1916827bffffffffffffffffffffffffffffffffffffffffffffffffffffffff1916149050919050565b505050565b6008805490506009600083815260200190815260200160002081905550600881908060018154018082558091505060019003906000526020600020016000909190919091505550565b60006001612b6684610c71565b612b7091906141a1565b9050600060076000848152602001908152602001600020549050818114612c55576000600660008673ffffffffffffffffffffffffffffffffffffffff1673ffffffffffffffffffffffffffffffffffffffff168152602001908152602001600020600084815260200190815260200160002054905080600660008773ffffffffffffffffffffffffffffffffffffffff1673ffffffffffffffffffffffffffffffffffffffff168152602001908152602001600020600084815260200190815260200160002081905550816007600083815260200190815260200160002081905550505b6007600084815260200190815260200160002060009055600660008573ffffffffffffffffffffffffffffffffffffffff1673ffffffffffffffffffffffffffffffffffffffff16815260200190815260200160002060008381526020019081526020016000206000905550505050565b60006001600880549050612cda91906141a1565b9050600060096000848152602001908152602001600020549050600060088381548110612d0a57612d09613db7565b5b906000526020600020015490508060088381548110612d2c57612d2b613db7565b5b906000526020600020018190555081600960008381526020019081526020016000208190555060096000858152602001908152602001600020600090556008805480612d7b57612d7a614a61565b5b6001900381819060005260206000200160009055905550505050565b6000612da283610c71565b905081600660008573ffffffffffffffffffffffffffffffffffffffff1673ffffffffffffffffffffffffffffffffffffffff168152602001908152602001600020600083815260200190815260200160002081905550806007600084815260200190815260200160002081905550505050565b508054612e2290613678565b6000825580601f10612e345750612e53565b601f016020900490600052602060002090810190612e529190612e56565b5b50565b5b80821115612e6f576000816000905550600101612e57565b5090565b6000604051905090565b600080fd5b600080fd5b60007fffffffff0000000000000000000000000000000000000000000000000000000082169050919050565b612ebc81612e87565b8114612ec757600080fd5b50565b600081359050612ed981612eb3565b92915050565b600060208284031215612ef557612ef4612e7d565b5b6000612f0384828501612eca565b91505092915050565b60008115159050919050565b612f2181612f0c565b82525050565b6000602082019050612f3c6000830184612f18565b92915050565b600081519050919050565b600082825260208201905092915050565b60005b83811015612f7c578082015181840152602081019050612f61565b83811115612f8b576000848401525b50505050565b6000601f19601f8301169050919050565b6000612fad82612f42565b612fb78185612f4d565b9350612fc7818560208601612f5e565b612fd081612f91565b840191505092915050565b60006020820190508181036000830152612ff58184612fa2565b905092915050565b6000819050919050565b61301081612ffd565b811461301b57600080fd5b50565b60008135905061302d81613007565b92915050565b60006020828403121561304957613048612e7d565b5b60006130578482850161301e565b91505092915050565b600073ffffffffffffffffffffffffffffffffffffffff82169050919050565b600061308b82613060565b9050919050565b61309b81613080565b82525050565b60006020820190506130b66000830184613092565b92915050565b6130c581613080565b81146130d057600080fd5b50565b6000813590506130e2816130bc565b92915050565b600080604083850312156130ff576130fe612e7d565b5b600061310d858286016130d3565b925050602061311e8582860161301e565b9150509250929050565b600080fd5b600080fd5b7f4e487b7100000000000000000000000000000000000000000000000000000000600052604160045260246000fd5b61316a82612f91565b810181811067ffffffffffffffff8211171561318957613188613132565b5b80604052505050565b600061319c612e73565b90506131a88282613161565b919050565b600067ffffffffffffffff8211156131c8576131c7613132565b5b6131d182612f91565b9050602081019050919050565b82818337600083830152505050565b60006132006131fb846131ad565b613192565b90508281526020810184848401111561321c5761321b61312d565b5b6132278482856131de565b509392505050565b600082601f83011261324457613243613128565b5b81356132548482602086016131ed565b91505092915050565b60006020828403121561327357613272612e7d565b5b600082013567ffffffffffffffff81111561329157613290612e82565b5b61329d8482850161322f565b91505092915050565b6132af81612ffd565b82525050565b60006020820190506132ca60008301846132a6565b92915050565b6000806000606084860312156132e9576132e8612e7d565b5b60006132f7868287016130d3565b9350506020613308868287016130d3565b92505060406133198682870161301e565b9150509250925092565b6000819050919050565b61333681613323565b811461334157600080fd5b50565b6000813590506133538161332d565b92915050565b60006020828403121561336f5761336e612e7d565b5b600061337d84828501613344565b91505092915050565b61338f81613323565b82525050565b60006020820190506133aa6000830184613386565b92915050565b600080604083850312156133c7576133c6612e7d565b5b60006133d585828601613344565b92505060206133e6858286016130d3565b9150509250929050565b60006020828403121561340657613405612e7d565b5b6000613414848285016130d3565b91505092915050565b61342681612f0c565b811461343157600080fd5b50565b6000813590506134438161341d565b92915050565b600080604083850312156134605761345f612e7d565b5b600061346e858286016130d3565b925050602061347f85828601613434565b9150509250929050565b600067ffffffffffffffff8211156134a4576134a3613132565b5b6134ad82612f91565b9050602081019050919050565b60006134cd6134c884613489565b613192565b9050828152602081018484840111156134e9576134e861312d565b5b6134f48482856131de565b509392505050565b600082601f83011261351157613510613128565b5b81356135218482602086016134ba565b91505092915050565b6000806000806080858703121561354457613543612e7d565b5b6000613552878288016130d3565b9450506020613563878288016130d3565b93505060406135748782880161301e565b925050606085013567ffffffffffffffff81111561359557613594612e82565b5b6135a1878288016134fc565b91505092959194509250565b600080604083850312156135c4576135c3612e7d565b5b60006135d2858286016130d3565b925050602083013567ffffffffffffffff8111156135f3576135f2612e82565b5b6135ff8582860161322f565b9150509250929050565b600080604083850312156136205761361f612e7d565b5b600061362e858286016130d3565b925050602061363f858286016130d3565b9150509250929050565b7f4e487b7100000000000000000000000000000000000000000000000000000000600052602260045260246000fd5b6000600282049050600182168061369057607f821691505b6020821081036136a3576136a2613649565b5b50919050565b7f4552433732313a20617070726f76656420717565727920666f72206e6f6e657860008201527f697374656e7420746f6b656e0000000000000000000000000000000000000000602082015250565b6000613705602c83612f4d565b9150613710826136a9565b604082019050919050565b60006020820190508181036000830152613734816136f8565b9050919050565b7f4552433732313a20617070726f76616c20746f2063757272656e74206f776e6560008201527f7200000000000000000000000000000000000000000000000000000000000000602082015250565b6000613797602183612f4d565b91506137a28261373b565b604082019050919050565b600060208201905081810360008301526137c68161378a565b9050919050565b7f4552433732313a20617070726f76652063616c6c6572206973206e6f74206f7760008201527f6e6572206e6f7220617070726f76656420666f7220616c6c0000000000000000602082015250565b6000613829603883612f4d565b9150613834826137cd565b604082019050919050565b600060208201905081810360008301526138588161381c565b9050919050565b60008190508160005260206000209050919050565b60006020601f8301049050919050565b600082821b905092915050565b6000600883026138c17fffffffffffffffffffffffffffffffffffffffffffffffffffffffffffffffff82613884565b6138cb8683613884565b95508019841693508086168417925050509392505050565b6000819050919050565b60006139086139036138fe84612ffd565b6138e3565b612ffd565b9050919050565b6000819050919050565b613922836138ed565b61393661392e8261390f565b848454613891565b825550505050565b600090565b61394b61393e565b613956818484613919565b505050565b5b8181101561397a5761396f600082613943565b60018101905061395c565b5050565b601f8211156139bf576139908161385f565b61399984613874565b810160208510156139a8578190505b6139bc6139b485613874565b83018261395b565b50505b505050565b600082821c905092915050565b60006139e2600019846008026139c4565b1980831691505092915050565b60006139fb83836139d1565b9150826002028217905092915050565b613a1482612f42565b67ffffffffffffffff811115613a2d57613a2c613132565b5b613a378254613678565b613a4282828561397e565b600060209050601f831160018114613a755760008415613a63578287015190505b613a6d85826139ef565b865550613ad5565b601f198416613a838661385f565b60005b82811015613aab57848901518255600182019150602085019450602081019050613a86565b86831015613ac85784890151613ac4601f8916826139d1565b8355505b6001600288020188555050505b505050505050565b7f4552433732313a207472616e736665722063616c6c6572206973206e6f74206f60008201527f776e6572206e6f7220617070726f766564000000000000000000000000000000602082015250565b6000613b39603183612f4d565b9150613b4482613add565b604082019050919050565b60006020820190508181036000830152613b6881613b2c565b9050919050565b7f455243373231456e756d657261626c653a206f776e657220696e646578206f7560008201527f74206f6620626f756e6473000000000000000000000000000000000000000000602082015250565b6000613bcb602b83612f4d565b9150613bd682613b6f565b604082019050919050565b60006020820190508181036000830152613bfa81613bbe565b9050919050565b7f416363657373436f6e74726f6c3a2063616e206f6e6c792072656e6f756e636560008201527f20726f6c657320666f722073656c660000000000000000000000000000000000602082015250565b6000613c5d602f83612f4d565b9150613c6882613c01565b604082019050919050565b60006020820190508181036000830152613c8c81613c50565b9050919050565b7f4552433732314275726e61626c653a2063616c6c6572206973206e6f74206f7760008201527f6e6572206e6f7220617070726f76656400000000000000000000000000000000602082015250565b6000613cef603083612f4d565b9150613cfa82613c93565b604082019050919050565b60006020820190508181036000830152613d1e81613ce2565b9050919050565b7f455243373231456e756d657261626c653a20676c6f62616c20696e646578206f60008201527f7574206f6620626f756e64730000000000000000000000000000000000000000602082015250565b6000613d81602c83612f4d565b9150613d8c82613d25565b604082019050919050565b60006020820190508181036000830152613db081613d74565b9050919050565b7f4e487b7100000000000000000000000000000000000000000000000000000000600052603260045260246000fd5b7f4552433732313a206f776e657220717565727920666f72206e6f6e657869737460008201527f656e7420746f6b656e0000000000000000000000000000000000000000000000602082015250565b6000613e42602983612f4d565b9150613e4d82613de6565b604082019050919050565b60006020820190508181036000830152613e7181613e35565b9050919050565b7f4552433732313a2062616c616e636520717565727920666f7220746865207a6560008201527f726f206164647265737300000000000000000000000000000000000000000000602082015250565b6000613ed4602a83612f4d565b9150613edf82613e78565b604082019050919050565b60006020820190508181036000830152613f0381613ec7565b9050919050565b600081905092915050565b60008154613f2281613678565b613f2c8186613f0a565b94506001821660008114613f475760018114613f5c57613f8f565b60ff1983168652811515820286019350613f8f565b613f658561385f565b60005b83811015613f8757815481890152600182019150602081019050613f68565b838801955050505b50505092915050565b6000613fa48285613f15565b9150613fb08284613f15565b91508190509392505050565b7f4552433732313a206f70657261746f7220717565727920666f72206e6f6e657860008201527f697374656e7420746f6b656e0000000000000000000000000000000000000000602082015250565b6000614018602c83612f4d565b915061402382613fbc565b604082019050919050565b600060208201905081810360008301526140478161400b565b9050919050565b7f4552433732313a207472616e736665722066726f6d20696e636f72726563742060008201527f6f776e6572000000000000000000000000000000000000000000000000000000602082015250565b60006140aa602583612f4d565b91506140b58261404e565b604082019050919050565b600060208201905081810360008301526140d98161409d565b9050919050565b7f4552433732313a207472616e7366657220746f20746865207a65726f2061646460008201527f7265737300000000000000000000000000000000000000000000000000000000602082015250565b600061413c602483612f4d565b9150614147826140e0565b604082019050919050565b6000602082019050818103600083015261416b8161412f565b9050919050565b7f4e487b7100000000000000000000000000000000000000000000000000000000600052601160045260246000fd5b60006141ac82612ffd565b91506141b783612ffd565b9250828210156141ca576141c9614172565b5b828203905092915050565b60006141e082612ffd565b91506141eb83612ffd565b9250827fffffffffffffffffffffffffffffffffffffffffffffffffffffffffffffffff038211156142205761421f614172565b5b828201905092915050565b7f5061757361626c653a206e6f7420706175736564000000000000000000000000600082015250565b6000614261601483612f4d565b915061426c8261422b565b602082019050919050565b6000602082019050818103600083015261429081614254565b9050919050565b7f5061757361626c653a2070617573656400000000000000000000000000000000600082015250565b60006142cd601083612f4d565b91506142d882614297565b602082019050919050565b600060208201905081810360008301526142fc816142c0565b9050919050565b7f4552433732313a20617070726f766520746f2063616c6c657200000000000000600082015250565b6000614339601983612f4d565b915061434482614303565b602082019050919050565b600060208201905081810360008301526143688161432c565b9050919050565b7f4552433732313a207472616e7366657220746f206e6f6e20455243373231526560008201527f63656976657220696d706c656d656e7465720000000000000000000000000000602082015250565b60006143cb603283612f4d565b91506143d68261436f565b604082019050919050565b600060208201905081810360008301526143fa816143be565b9050919050565b7f45524337323155524953746f726167653a2055524920717565727920666f722060008201527f6e6f6e6578697374656e7420746f6b656e000000000000000000000000000000602082015250565b600061445d603183612f4d565b915061446882614401565b604082019050919050565b6000602082019050818103600083015261448c81614450565b9050919050565b600061449e82612f42565b6144a88185613f0a565b93506144b8818560208601612f5e565b80840191505092915050565b60006144d08285614493565b91506144dc8284614493565b91508190509392505050565b7f45524337323155524953746f726167653a2055524920736574206f66206e6f6e60008201527f6578697374656e7420746f6b656e000000000000000000000000000000000000602082015250565b6000614544602e83612f4d565b915061454f826144e8565b604082019050919050565b6000602082019050818103600083015261457381614537565b9050919050565b7f416363657373436f6e74726f6c3a206163636f756e7420000000000000000000600082015250565b60006145b0601783613f0a565b91506145bb8261457a565b601782019050919050565b7f206973206d697373696e6720726f6c6520000000000000000000000000000000600082015250565b60006145fc601183613f0a565b9150614607826145c6565b601182019050919050565b600061461d826145a3565b91506146298285614493565b9150614634826145ef565b91506146408284614493565b91508190509392505050565b600081519050919050565b600082825260208201905092915050565b60006146738261464c565b61467d8185614657565b935061468d818560208601612f5e565b61469681612f91565b840191505092915050565b60006080820190506146b66000830187613092565b6146c36020830186613092565b6146d060408301856132a6565b81810360608301526146e28184614668565b905095945050505050565b6000815190506146fc81612eb3565b92915050565b60006020828403121561471857614717612e7d565b5b6000614726848285016146ed565b91505092915050565b7f4552433732314d657461646174613a2055524920717565727920666f72206e6f60008201527f6e6578697374656e7420746f6b656e0000000000000000000000000000000000602082015250565b600061478b602f83612f4d565b91506147968261472f565b604082019050919050565b600060208201905081810360008301526147ba8161477e565b9050919050565b60006147cc82612ffd565b91506147d783612ffd565b9250817fffffffffffffffffffffffffffffffffffffffffffffffffffffffffffffffff04831182151516156148105761480f614172565b5b828202905092915050565b600061482682612ffd565b91506000820361483957614838614172565b5b600182039050919050565b7f537472696e67733a20686578206c656e67746820696e73756666696369656e74600082015250565b600061487a602083612f4d565b915061488582614844565b602082019050919050565b600060208201905081810360008301526148a98161486d565b9050919050565b60006148bb82612ffd565b91507fffffffffffffffffffffffffffffffffffffffffffffffffffffffffffffffff82036148ed576148ec614172565b5b600182019050919050565b7f4e487b7100000000000000000000000000000000000000000000000000000000600052601260045260246000fd5b600061493282612ffd565b915061493d83612ffd565b92508261494d5761494c6148f8565b5b828204905092915050565b600061496382612ffd565b915061496e83612ffd565b92508261497e5761497d6148f8565b5b828206905092915050565b7f4552433732313a206d696e7420746f20746865207a65726f2061646472657373600082015250565b60006149bf602083612f4d565b91506149ca82614989565b602082019050919050565b600060208201905081810360008301526149ee816149b2565b9050919050565b7f4552433732313a20746f6b656e20616c7265616479206d696e74656400000000600082015250565b6000614a2b601c83612f4d565b9150614a36826149f5565b602082019050919050565b60006020820190508181036000830152614a5a81614a1e565b9050919050565b7f4e487b7100000000000000000000000000000000000000000000000000000000600052603160045260246000fdfea2646970667358221220a9dc335ffae3d612d8ee256f10a73948c6c87cecdc6007a7a7cc6781a96fa99164736f6c634300080f0033",
			"opcodes": "PUSH1 0x80 PUSH1 0x40 MSTORE CALLVALUE DUP1 ISZERO PUSH3 0x11 JUMPI PUSH1 0x0 DUP1 REVERT JUMPDEST POP PUSH1 0x40 MLOAD PUSH3 0x543F CODESIZE SUB DUP1 PUSH3 0x543F DUP4 CODECOPY DUP2 DUP2 ADD PUSH1 0x40 MSTORE DUP2 ADD SWAP1 PUSH3 0x37 SWAP2 SWAP1 PUSH3 0x533 JUMP JUMPDEST DUP5 DUP5 DUP2 PUSH1 0x0 SWAP1 DUP2 PUSH3 0x4A SWAP2 SWAP1 PUSH3 0x882 JUMP JUMPDEST POP DUP1 PUSH1 0x1 SWAP1 DUP2 PUSH3 0x5C SWAP2 SWAP1 PUSH3 0x882 JUMP JUMPDEST POP POP POP PUSH1 0x0 PUSH1 0xB PUSH1 0x0 PUSH2 0x100 EXP DUP2 SLOAD DUP2 PUSH1 0xFF MUL NOT AND SWAP1 DUP4 ISZERO ISZERO MUL OR SWAP1 SSTORE POP PUSH3 0x8F PUSH1 0x0 DUP1 SHL DUP3 PUSH3 0x1B6 PUSH1 0x20 SHL PUSH1 0x20 SHR JUMP JUMPDEST PUSH3 0xC1 PUSH32 0x65D7A28E3265B37A6474929F336521B332C1681B933F6CB9F3376673440D862A DUP3 PUSH3 0x1B6 PUSH1 0x20 SHL PUSH1 0x20 SHR JUMP JUMPDEST PUSH3 0xF3 PUSH32 0x9F2DF0FED2C77648DE5860A4CC508CD0818C85B8B8A1AB4CEEEF8D981C8956A6 DUP3 PUSH3 0x1B6 PUSH1 0x20 SHL PUSH1 0x20 SHR JUMP JUMPDEST PUSH3 0x125 PUSH32 0xAF9A8BB3CBD6B84FBCCEFA71FF73E26E798553C6914585A84886212A46A90279 DUP3 PUSH3 0x1B6 PUSH1 0x20 SHL PUSH1 0x20 SHR JUMP JUMPDEST DUP3 PUSH1 0xE SWAP1 DUP2 PUSH3 0x136 SWAP2 SWAP1 PUSH3 0x882 JUMP JUMPDEST POP DUP2 PUSH1 0xF SWAP1 DUP2 PUSH3 0x148 SWAP2 SWAP1 PUSH3 0x882 JUMP JUMPDEST POP PUSH1 0x40 MLOAD DUP1 PUSH1 0x40 ADD PUSH1 0x40 MSTORE DUP1 PUSH1 0x15 DUP2 MSTORE PUSH1 0x20 ADD PUSH32 0x68747470733A2F2F697066732E696F2F697066732F0000000000000000000000 DUP2 MSTORE POP PUSH1 0x10 SWAP1 DUP2 PUSH3 0x18F SWAP2 SWAP1 PUSH3 0x882 JUMP JUMPDEST POP PUSH1 0x1 PUSH1 0x11 PUSH1 0x0 PUSH2 0x100 EXP DUP2 SLOAD DUP2 PUSH1 0xFF MUL NOT AND SWAP1 DUP4 ISZERO ISZERO MUL OR SWAP1 SSTORE POP POP POP POP POP POP PUSH3 0x969 JUMP JUMPDEST PUSH3 0x1C8 DUP3 DUP3 PUSH3 0x1CC PUSH1 0x20 SHL PUSH1 0x20 SHR JUMP JUMPDEST POP POP JUMP JUMPDEST PUSH3 0x1DE DUP3 DUP3 PUSH3 0x2BE PUSH1 0x20 SHL PUSH1 0x20 SHR JUMP JUMPDEST PUSH3 0x2BA JUMPI PUSH1 0x1 PUSH1 0xC PUSH1 0x0 DUP5 DUP2 MSTORE PUSH1 0x20 ADD SWAP1 DUP2 MSTORE PUSH1 0x20 ADD PUSH1 0x0 KECCAK256 PUSH1 0x0 ADD PUSH1 0x0 DUP4 PUSH20 0xFFFFFFFFFFFFFFFFFFFFFFFFFFFFFFFFFFFFFFFF AND PUSH20 0xFFFFFFFFFFFFFFFFFFFFFFFFFFFFFFFFFFFFFFFF AND DUP2 MSTORE PUSH1 0x20 ADD SWAP1 DUP2 MSTORE PUSH1 0x20 ADD PUSH1 0x0 KECCAK256 PUSH1 0x0 PUSH2 0x100 EXP DUP2 SLOAD DUP2 PUSH1 0xFF MUL NOT AND SWAP1 DUP4 ISZERO ISZERO MUL OR SWAP1 SSTORE POP PUSH3 0x25F PUSH3 0x329 PUSH1 0x20 SHL PUSH1 0x20 SHR JUMP JUMPDEST PUSH20 0xFFFFFFFFFFFFFFFFFFFFFFFFFFFFFFFFFFFFFFFF AND DUP2 PUSH20 0xFFFFFFFFFFFFFFFFFFFFFFFFFFFFFFFFFFFFFFFF AND DUP4 PUSH32 0x2F8788117E7EFF1D82E926EC794901D17C78024A50270940304540A733656F0D PUSH1 0x40 MLOAD PUSH1 0x40 MLOAD DUP1 SWAP2 SUB SWAP1 LOG4 JUMPDEST POP POP JUMP JUMPDEST PUSH1 0x0 PUSH1 0xC PUSH1 0x0 DUP5 DUP2 MSTORE PUSH1 0x20 ADD SWAP1 DUP2 MSTORE PUSH1 0x20 ADD PUSH1 0x0 KECCAK256 PUSH1 0x0 ADD PUSH1 0x0 DUP4 PUSH20 0xFFFFFFFFFFFFFFFFFFFFFFFFFFFFFFFFFFFFFFFF AND PUSH20 0xFFFFFFFFFFFFFFFFFFFFFFFFFFFFFFFFFFFFFFFF AND DUP2 MSTORE PUSH1 0x20 ADD SWAP1 DUP2 MSTORE PUSH1 0x20 ADD PUSH1 0x0 KECCAK256 PUSH1 0x0 SWAP1 SLOAD SWAP1 PUSH2 0x100 EXP SWAP1 DIV PUSH1 0xFF AND SWAP1 POP SWAP3 SWAP2 POP POP JUMP JUMPDEST PUSH1 0x0 CALLER SWAP1 POP SWAP1 JUMP JUMPDEST PUSH1 0x0 PUSH1 0x40 MLOAD SWAP1 POP SWAP1 JUMP JUMPDEST PUSH1 0x0 DUP1 REVERT JUMPDEST PUSH1 0x0 DUP1 REVERT JUMPDEST PUSH1 0x0 DUP1 REVERT JUMPDEST PUSH1 0x0 DUP1 REVERT JUMPDEST PUSH1 0x0 PUSH1 0x1F NOT PUSH1 0x1F DUP4 ADD AND SWAP1 POP SWAP2 SWAP1 POP JUMP JUMPDEST PUSH32 0x4E487B7100000000000000000000000000000000000000000000000000000000 PUSH1 0x0 MSTORE PUSH1 0x41 PUSH1 0x4 MSTORE PUSH1 0x24 PUSH1 0x0 REVERT JUMPDEST PUSH3 0x39A DUP3 PUSH3 0x34F JUMP JUMPDEST DUP2 ADD DUP2 DUP2 LT PUSH8 0xFFFFFFFFFFFFFFFF DUP3 GT OR ISZERO PUSH3 0x3BC JUMPI PUSH3 0x3BB PUSH3 0x360 JUMP JUMPDEST JUMPDEST DUP1 PUSH1 0x40 MSTORE POP POP POP JUMP JUMPDEST PUSH1 0x0 PUSH3 0x3D1 PUSH3 0x331 JUMP JUMPDEST SWAP1 POP PUSH3 0x3DF DUP3 DUP3 PUSH3 0x38F JUMP JUMPDEST SWAP2 SWAP1 POP JUMP JUMPDEST PUSH1 0x0 PUSH8 0xFFFFFFFFFFFFFFFF DUP3 GT ISZERO PUSH3 0x402 JUMPI PUSH3 0x401 PUSH3 0x360 JUMP JUMPDEST JUMPDEST PUSH3 0x40D DUP3 PUSH3 0x34F JUMP JUMPDEST SWAP1 POP PUSH1 0x20 DUP2 ADD SWAP1 POP SWAP2 SWAP1 POP JUMP JUMPDEST PUSH1 0x0 JUMPDEST DUP4 DUP2 LT ISZERO PUSH3 0x43A JUMPI DUP1 DUP3 ADD MLOAD DUP2 DUP5 ADD MSTORE PUSH1 0x20 DUP2 ADD SWAP1 POP PUSH3 0x41D JUMP JUMPDEST DUP4 DUP2 GT ISZERO PUSH3 0x44A JUMPI PUSH1 0x0 DUP5 DUP5 ADD MSTORE JUMPDEST POP POP POP POP JUMP JUMPDEST PUSH1 0x0 PUSH3 0x467 PUSH3 0x461 DUP5 PUSH3 0x3E4 JUMP JUMPDEST PUSH3 0x3C5 JUMP JUMPDEST SWAP1 POP DUP3 DUP2 MSTORE PUSH1 0x20 DUP2 ADD DUP5 DUP5 DUP5 ADD GT ISZERO PUSH3 0x486 JUMPI PUSH3 0x485 PUSH3 0x34A JUMP JUMPDEST JUMPDEST PUSH3 0x493 DUP5 DUP3 DUP6 PUSH3 0x41A JUMP JUMPDEST POP SWAP4 SWAP3 POP POP POP JUMP JUMPDEST PUSH1 0x0 DUP3 PUSH1 0x1F DUP4 ADD SLT PUSH3 0x4B3 JUMPI PUSH3 0x4B2 PUSH3 0x345 JUMP JUMPDEST JUMPDEST DUP2 MLOAD PUSH3 0x4C5 DUP5 DUP3 PUSH1 0x20 DUP7 ADD PUSH3 0x450 JUMP JUMPDEST SWAP2 POP POP SWAP3 SWAP2 POP POP JUMP JUMPDEST PUSH1 0x0 PUSH20 0xFFFFFFFFFFFFFFFFFFFFFFFFFFFFFFFFFFFFFFFF DUP3 AND SWAP1 POP SWAP2 SWAP1 POP JUMP JUMPDEST PUSH1 0x0 PUSH3 0x4FB DUP3 PUSH3 0x4CE JUMP JUMPDEST SWAP1 POP SWAP2 SWAP1 POP JUMP JUMPDEST PUSH3 0x50D DUP2 PUSH3 0x4EE JUMP JUMPDEST DUP2 EQ PUSH3 0x519 JUMPI PUSH1 0x0 DUP1 REVERT JUMPDEST POP JUMP JUMPDEST PUSH1 0x0 DUP2 MLOAD SWAP1 POP PUSH3 0x52D DUP2 PUSH3 0x502 JUMP JUMPDEST SWAP3 SWAP2 POP POP JUMP JUMPDEST PUSH1 0x0 DUP1 PUSH1 0x0 DUP1 PUSH1 0x0 PUSH1 0xA0 DUP7 DUP9 SUB SLT ISZERO PUSH3 0x552 JUMPI PUSH3 0x551 PUSH3 0x33B JUMP JUMPDEST JUMPDEST PUSH1 0x0 DUP7 ADD MLOAD PUSH8 0xFFFFFFFFFFFFFFFF DUP2 GT ISZERO PUSH3 0x573 JUMPI PUSH3 0x572 PUSH3 0x340 JUMP JUMPDEST JUMPDEST PUSH3 0x581 DUP9 DUP3 DUP10 ADD PUSH3 0x49B JUMP JUMPDEST SWAP6 POP POP PUSH1 0x20 DUP7 ADD MLOAD PUSH8 0xFFFFFFFFFFFFFFFF DUP2 GT ISZERO PUSH3 0x5A5 JUMPI PUSH3 0x5A4 PUSH3 0x340 JUMP JUMPDEST JUMPDEST PUSH3 0x5B3 DUP9 DUP3 DUP10 ADD PUSH3 0x49B JUMP JUMPDEST SWAP5 POP POP PUSH1 0x40 DUP7 ADD MLOAD PUSH8 0xFFFFFFFFFFFFFFFF DUP2 GT ISZERO PUSH3 0x5D7 JUMPI PUSH3 0x5D6 PUSH3 0x340 JUMP JUMPDEST JUMPDEST PUSH3 0x5E5 DUP9 DUP3 DUP10 ADD PUSH3 0x49B JUMP JUMPDEST SWAP4 POP POP PUSH1 0x60 DUP7 ADD MLOAD PUSH8 0xFFFFFFFFFFFFFFFF DUP2 GT ISZERO PUSH3 0x609 JUMPI PUSH3 0x608 PUSH3 0x340 JUMP JUMPDEST JUMPDEST PUSH3 0x617 DUP9 DUP3 DUP10 ADD PUSH3 0x49B JUMP JUMPDEST SWAP3 POP POP PUSH1 0x80 PUSH3 0x62A DUP9 DUP3 DUP10 ADD PUSH3 0x51C JUMP JUMPDEST SWAP2 POP POP SWAP3 SWAP6 POP SWAP3 SWAP6 SWAP1 SWAP4 POP JUMP JUMPDEST PUSH1 0x0 DUP2 MLOAD SWAP1 POP SWAP2 SWAP1 POP JUMP JUMPDEST PUSH32 0x4E487B7100000000000000000000000000000000000000000000000000000000 PUSH1 0x0 MSTORE PUSH1 0x22 PUSH1 0x4 MSTORE PUSH1 0x24 PUSH1 0x0 REVERT JUMPDEST PUSH1 0x0 PUSH1 0x2 DUP3 DIV SWAP1 POP PUSH1 0x1 DUP3 AND DUP1 PUSH3 0x68A JUMPI PUSH1 0x7F DUP3 AND SWAP2 POP JUMPDEST PUSH1 0x20 DUP3 LT DUP2 SUB PUSH3 0x6A0 JUMPI PUSH3 0x69F PUSH3 0x642 JUMP JUMPDEST JUMPDEST POP SWAP2 SWAP1 POP JUMP JUMPDEST PUSH1 0x0 DUP2 SWAP1 POP DUP2 PUSH1 0x0 MSTORE PUSH1 0x20 PUSH1 0x0 KECCAK256 SWAP1 POP SWAP2 SWAP1 POP JUMP JUMPDEST PUSH1 0x0 PUSH1 0x20 PUSH1 0x1F DUP4 ADD DIV SWAP1 POP SWAP2 SWAP1 POP JUMP JUMPDEST PUSH1 0x0 DUP3 DUP3 SHL SWAP1 POP SWAP3 SWAP2 POP POP JUMP JUMPDEST PUSH1 0x0 PUSH1 0x8 DUP4 MUL PUSH3 0x70A PUSH32 0xFFFFFFFFFFFFFFFFFFFFFFFFFFFFFFFFFFFFFFFFFFFFFFFFFFFFFFFFFFFFFFFF DUP3 PUSH3 0x6CB JUMP JUMPDEST PUSH3 0x716 DUP7 DUP4 PUSH3 0x6CB JUMP JUMPDEST SWAP6 POP DUP1 NOT DUP5 AND SWAP4 POP DUP1 DUP7 AND DUP5 OR SWAP3 POP POP POP SWAP4 SWAP3 POP POP POP JUMP JUMPDEST PUSH1 0x0 DUP2 SWAP1 POP SWAP2 SWAP1 POP JUMP JUMPDEST PUSH1 0x0 DUP2 SWAP1 POP SWAP2 SWAP1 POP JUMP JUMPDEST PUSH1 0x0 PUSH3 0x763 PUSH3 0x75D PUSH3 0x757 DUP5 PUSH3 0x72E JUMP JUMPDEST PUSH3 0x738 JUMP JUMPDEST PUSH3 0x72E JUMP JUMPDEST SWAP1 POP SWAP2 SWAP1 POP JUMP JUMPDEST PUSH1 0x0 DUP2 SWAP1 POP SWAP2 SWAP1 POP JUMP JUMPDEST PUSH3 0x77F DUP4 PUSH3 0x742 JUMP JUMPDEST PUSH3 0x797 PUSH3 0x78E DUP3 PUSH3 0x76A JUMP JUMPDEST DUP5 DUP5 SLOAD PUSH3 0x6D8 JUMP JUMPDEST DUP3 SSTORE POP POP POP POP JUMP JUMPDEST PUSH1 0x0 SWAP1 JUMP JUMPDEST PUSH3 0x7AE PUSH3 0x79F JUMP JUMPDEST PUSH3 0x7BB DUP2 DUP5 DUP5 PUSH3 0x774 JUMP JUMPDEST POP POP POP JUMP JUMPDEST JUMPDEST DUP2 DUP2 LT ISZERO PUSH3 0x7E3 JUMPI PUSH3 0x7D7 PUSH1 0x0 DUP3 PUSH3 0x7A4 JUMP JUMPDEST PUSH1 0x1 DUP2 ADD SWAP1 POP PUSH3 0x7C1 JUMP JUMPDEST POP POP JUMP JUMPDEST PUSH1 0x1F DUP3 GT ISZERO PUSH3 0x832 JUMPI PUSH3 0x7FC DUP2 PUSH3 0x6A6 JUMP JUMPDEST PUSH3 0x807 DUP5 PUSH3 0x6BB JUMP JUMPDEST DUP2 ADD PUSH1 0x20 DUP6 LT ISZERO PUSH3 0x817 JUMPI DUP2 SWAP1 POP JUMPDEST PUSH3 0x82F PUSH3 0x826 DUP6 PUSH3 0x6BB JUMP JUMPDEST DUP4 ADD DUP3 PUSH3 0x7C0 JUMP JUMPDEST POP POP JUMPDEST POP POP POP JUMP JUMPDEST PUSH1 0x0 DUP3 DUP3 SHR SWAP1 POP SWAP3 SWAP2 POP POP JUMP JUMPDEST PUSH1 0x0 PUSH3 0x857 PUSH1 0x0 NOT DUP5 PUSH1 0x8 MUL PUSH3 0x837 JUMP JUMPDEST NOT DUP1 DUP4 AND SWAP2 POP POP SWAP3 SWAP2 POP POP JUMP JUMPDEST PUSH1 0x0 PUSH3 0x872 DUP4 DUP4 PUSH3 0x844 JUMP JUMPDEST SWAP2 POP DUP3 PUSH1 0x2 MUL DUP3 OR SWAP1 POP SWAP3 SWAP2 POP POP JUMP JUMPDEST PUSH3 0x88D DUP3 PUSH3 0x637 JUMP JUMPDEST PUSH8 0xFFFFFFFFFFFFFFFF DUP2 GT ISZERO PUSH3 0x8A9 JUMPI PUSH3 0x8A8 PUSH3 0x360 JUMP JUMPDEST JUMPDEST PUSH3 0x8B5 DUP3 SLOAD PUSH3 0x671 JUMP JUMPDEST PUSH3 0x8C2 DUP3 DUP3 DUP6 PUSH3 0x7E7 JUMP JUMPDEST PUSH1 0x0 PUSH1 0x20 SWAP1 POP PUSH1 0x1F DUP4 GT PUSH1 0x1 DUP2 EQ PUSH3 0x8FA JUMPI PUSH1 0x0 DUP5 ISZERO PUSH3 0x8E5 JUMPI DUP3 DUP8 ADD MLOAD SWAP1 POP JUMPDEST PUSH3 0x8F1 DUP6 DUP3 PUSH3 0x864 JUMP JUMPDEST DUP7 SSTORE POP PUSH3 0x961 JUMP JUMPDEST PUSH1 0x1F NOT DUP5 AND PUSH3 0x90A DUP7 PUSH3 0x6A6 JUMP JUMPDEST PUSH1 0x0 JUMPDEST DUP3 DUP2 LT ISZERO PUSH3 0x934 JUMPI DUP5 DUP10 ADD MLOAD DUP3 SSTORE PUSH1 0x1 DUP3 ADD SWAP2 POP PUSH1 0x20 DUP6 ADD SWAP5 POP PUSH1 0x20 DUP2 ADD SWAP1 POP PUSH3 0x90D JUMP JUMPDEST DUP7 DUP4 LT ISZERO PUSH3 0x954 JUMPI DUP5 DUP10 ADD MLOAD PUSH3 0x950 PUSH1 0x1F DUP10 AND DUP3 PUSH3 0x844 JUMP JUMPDEST DUP4 SSTORE POP JUMPDEST PUSH1 0x1 PUSH1 0x2 DUP9 MUL ADD DUP9 SSTORE POP POP POP JUMPDEST POP POP POP POP POP POP JUMP JUMPDEST PUSH2 0x4AC6 DUP1 PUSH3 0x979 PUSH1 0x0 CODECOPY PUSH1 0x0 RETURN INVALID PUSH1 0x80 PUSH1 0x40 MSTORE CALLVALUE DUP1 ISZERO PUSH2 0x10 JUMPI PUSH1 0x0 DUP1 REVERT JUMPDEST POP PUSH1 0x4 CALLDATASIZE LT PUSH2 0x1FB JUMPI PUSH1 0x0 CALLDATALOAD PUSH1 0xE0 SHR DUP1 PUSH4 0x6352211E GT PUSH2 0x11A JUMPI DUP1 PUSH4 0xC87B56DD GT PUSH2 0xAD JUMPI DUP1 PUSH4 0xE0B6BB67 GT PUSH2 0x7C JUMPI DUP1 PUSH4 0xE0B6BB67 EQ PUSH2 0x5AC JUMPI DUP1 PUSH4 0xE63AB1E9 EQ PUSH2 0x5B6 JUMPI DUP1 PUSH4 0xE8A3D485 EQ PUSH2 0x5D4 JUMPI DUP1 PUSH4 0xE985E9C5 EQ PUSH2 0x5F2 JUMPI DUP1 PUSH4 0xF3621367 EQ PUSH2 0x622 JUMPI PUSH2 0x1FB JUMP JUMPDEST DUP1 PUSH4 0xC87B56DD EQ PUSH2 0x526 JUMPI DUP1 PUSH4 0xD204C45E EQ PUSH2 0x556 JUMPI DUP1 PUSH4 0xD5391393 EQ PUSH2 0x572 JUMPI DUP1 PUSH4 0xD547741F EQ PUSH2 0x590 JUMPI PUSH2 0x1FB JUMP JUMPDEST DUP1 PUSH4 0x95D89B41 GT PUSH2 0xE9 JUMPI DUP1 PUSH4 0x95D89B41 EQ PUSH2 0x4B2 JUMPI DUP1 PUSH4 0xA217FDDF EQ PUSH2 0x4D0 JUMPI DUP1 PUSH4 0xA22CB465 EQ PUSH2 0x4EE JUMPI DUP1 PUSH4 0xB88D4FDE EQ PUSH2 0x50A JUMPI PUSH2 0x1FB JUMP JUMPDEST DUP1 PUSH4 0x6352211E EQ PUSH2 0x418 JUMPI DUP1 PUSH4 0x70A08231 EQ PUSH2 0x448 JUMPI DUP1 PUSH4 0x8456CB59 EQ PUSH2 0x478 JUMPI DUP1 PUSH4 0x91D14854 EQ PUSH2 0x482 JUMPI PUSH2 0x1FB JUMP JUMPDEST DUP1 PUSH4 0x2F2FF15D GT PUSH2 0x192 JUMPI DUP1 PUSH4 0x42842E0E GT PUSH2 0x161 JUMPI DUP1 PUSH4 0x42842E0E EQ PUSH2 0x392 JUMPI DUP1 PUSH4 0x42966C68 EQ PUSH2 0x3AE JUMPI DUP1 PUSH4 0x4F6CCCE7 EQ PUSH2 0x3CA JUMPI DUP1 PUSH4 0x5C975ABB EQ PUSH2 0x3FA JUMPI PUSH2 0x1FB JUMP JUMPDEST DUP1 PUSH4 0x2F2FF15D EQ PUSH2 0x320 JUMPI DUP1 PUSH4 0x2F745C59 EQ PUSH2 0x33C JUMPI DUP1 PUSH4 0x36568ABE EQ PUSH2 0x36C JUMPI DUP1 PUSH4 0x3F4BA83A EQ PUSH2 0x388 JUMPI PUSH2 0x1FB JUMP JUMPDEST DUP1 PUSH4 0xCD3A538 GT PUSH2 0x1CE JUMPI DUP1 PUSH4 0xCD3A538 EQ PUSH2 0x29A JUMPI DUP1 PUSH4 0x18160DDD EQ PUSH2 0x2B6 JUMPI DUP1 PUSH4 0x23B872DD EQ PUSH2 0x2D4 JUMPI DUP1 PUSH4 0x248A9CA3 EQ PUSH2 0x2F0 JUMPI PUSH2 0x1FB JUMP JUMPDEST DUP1 PUSH4 0x1FFC9A7 EQ PUSH2 0x200 JUMPI DUP1 PUSH4 0x6FDDE03 EQ PUSH2 0x230 JUMPI DUP1 PUSH4 0x81812FC EQ PUSH2 0x24E JUMPI DUP1 PUSH4 0x95EA7B3 EQ PUSH2 0x27E JUMPI JUMPDEST PUSH1 0x0 DUP1 REVERT JUMPDEST PUSH2 0x21A PUSH1 0x4 DUP1 CALLDATASIZE SUB DUP2 ADD SWAP1 PUSH2 0x215 SWAP2 SWAP1 PUSH2 0x2EDF JUMP JUMPDEST PUSH2 0x640 JUMP JUMPDEST PUSH1 0x40 MLOAD PUSH2 0x227 SWAP2 SWAP1 PUSH2 0x2F27 JUMP JUMPDEST PUSH1 0x40 MLOAD DUP1 SWAP2 SUB SWAP1 RETURN JUMPDEST PUSH2 0x238 PUSH2 0x652 JUMP JUMPDEST PUSH1 0x40 MLOAD PUSH2 0x245 SWAP2 SWAP1 PUSH2 0x2FDB JUMP JUMPDEST PUSH1 0x40 MLOAD DUP1 SWAP2 SUB SWAP1 RETURN JUMPDEST PUSH2 0x268 PUSH1 0x4 DUP1 CALLDATASIZE SUB DUP2 ADD SWAP1 PUSH2 0x263 SWAP2 SWAP1 PUSH2 0x3033 JUMP JUMPDEST PUSH2 0x6E4 JUMP JUMPDEST PUSH1 0x40 MLOAD PUSH2 0x275 SWAP2 SWAP1 PUSH2 0x30A1 JUMP JUMPDEST PUSH1 0x40 MLOAD DUP1 SWAP2 SUB SWAP1 RETURN JUMPDEST PUSH2 0x298 PUSH1 0x4 DUP1 CALLDATASIZE SUB DUP2 ADD SWAP1 PUSH2 0x293 SWAP2 SWAP1 PUSH2 0x30E8 JUMP JUMPDEST PUSH2 0x769 JUMP JUMPDEST STOP JUMPDEST PUSH2 0x2B4 PUSH1 0x4 DUP1 CALLDATASIZE SUB DUP2 ADD SWAP1 PUSH2 0x2AF SWAP2 SWAP1 PUSH2 0x325D JUMP JUMPDEST PUSH2 0x880 JUMP JUMPDEST STOP JUMPDEST PUSH2 0x2BE PUSH2 0x8A9 JUMP JUMPDEST PUSH1 0x40 MLOAD PUSH2 0x2CB SWAP2 SWAP1 PUSH2 0x32B5 JUMP JUMPDEST PUSH1 0x40 MLOAD DUP1 SWAP2 SUB SWAP1 RETURN JUMPDEST PUSH2 0x2EE PUSH1 0x4 DUP1 CALLDATASIZE SUB DUP2 ADD SWAP1 PUSH2 0x2E9 SWAP2 SWAP1 PUSH2 0x32D0 JUMP JUMPDEST PUSH2 0x8B6 JUMP JUMPDEST STOP JUMPDEST PUSH2 0x30A PUSH1 0x4 DUP1 CALLDATASIZE SUB DUP2 ADD SWAP1 PUSH2 0x305 SWAP2 SWAP1 PUSH2 0x3359 JUMP JUMPDEST PUSH2 0x916 JUMP JUMPDEST PUSH1 0x40 MLOAD PUSH2 0x317 SWAP2 SWAP1 PUSH2 0x3395 JUMP JUMPDEST PUSH1 0x40 MLOAD DUP1 SWAP2 SUB SWAP1 RETURN JUMPDEST PUSH2 0x33A PUSH1 0x4 DUP1 CALLDATASIZE SUB DUP2 ADD SWAP1 PUSH2 0x335 SWAP2 SWAP1 PUSH2 0x33B0 JUMP JUMPDEST PUSH2 0x936 JUMP JUMPDEST STOP JUMPDEST PUSH2 0x356 PUSH1 0x4 DUP1 CALLDATASIZE SUB DUP2 ADD SWAP1 PUSH2 0x351 SWAP2 SWAP1 PUSH2 0x30E8 JUMP JUMPDEST PUSH2 0x957 JUMP JUMPDEST PUSH1 0x40 MLOAD PUSH2 0x363 SWAP2 SWAP1 PUSH2 0x32B5 JUMP JUMPDEST PUSH1 0x40 MLOAD DUP1 SWAP2 SUB SWAP1 RETURN JUMPDEST PUSH2 0x386 PUSH1 0x4 DUP1 CALLDATASIZE SUB DUP2 ADD SWAP1 PUSH2 0x381 SWAP2 SWAP1 PUSH2 0x33B0 JUMP JUMPDEST PUSH2 0x9FC JUMP JUMPDEST STOP JUMPDEST PUSH2 0x390 PUSH2 0xA7F JUMP JUMPDEST STOP JUMPDEST PUSH2 0x3AC PUSH1 0x4 DUP1 CALLDATASIZE SUB DUP2 ADD SWAP1 PUSH2 0x3A7 SWAP2 SWAP1 PUSH2 0x32D0 JUMP JUMPDEST PUSH2 0xABC JUMP JUMPDEST STOP JUMPDEST PUSH2 0x3C8 PUSH1 0x4 DUP1 CALLDATASIZE SUB DUP2 ADD SWAP1 PUSH2 0x3C3 SWAP2 SWAP1 PUSH2 0x3033 JUMP JUMPDEST PUSH2 0xADC JUMP JUMPDEST STOP JUMPDEST PUSH2 0x3E4 PUSH1 0x4 DUP1 CALLDATASIZE SUB DUP2 ADD SWAP1 PUSH2 0x3DF SWAP2 SWAP1 PUSH2 0x3033 JUMP JUMPDEST PUSH2 0xB38 JUMP JUMPDEST PUSH1 0x40 MLOAD PUSH2 0x3F1 SWAP2 SWAP1 PUSH2 0x32B5 JUMP JUMPDEST PUSH1 0x40 MLOAD DUP1 SWAP2 SUB SWAP1 RETURN JUMPDEST PUSH2 0x402 PUSH2 0xBA9 JUMP JUMPDEST PUSH1 0x40 MLOAD PUSH2 0x40F SWAP2 SWAP1 PUSH2 0x2F27 JUMP JUMPDEST PUSH1 0x40 MLOAD DUP1 SWAP2 SUB SWAP1 RETURN JUMPDEST PUSH2 0x432 PUSH1 0x4 DUP1 CALLDATASIZE SUB DUP2 ADD SWAP1 PUSH2 0x42D SWAP2 SWAP1 PUSH2 0x3033 JUMP JUMPDEST PUSH2 0xBC0 JUMP JUMPDEST PUSH1 0x40 MLOAD PUSH2 0x43F SWAP2 SWAP1 PUSH2 0x30A1 JUMP JUMPDEST PUSH1 0x40 MLOAD DUP1 SWAP2 SUB SWAP1 RETURN JUMPDEST PUSH2 0x462 PUSH1 0x4 DUP1 CALLDATASIZE SUB DUP2 ADD SWAP1 PUSH2 0x45D SWAP2 SWAP1 PUSH2 0x33F0 JUMP JUMPDEST PUSH2 0xC71 JUMP JUMPDEST PUSH1 0x40 MLOAD PUSH2 0x46F SWAP2 SWAP1 PUSH2 0x32B5 JUMP JUMPDEST PUSH1 0x40 MLOAD DUP1 SWAP2 SUB SWAP1 RETURN JUMPDEST PUSH2 0x480 PUSH2 0xD28 JUMP JUMPDEST STOP JUMPDEST PUSH2 0x49C PUSH1 0x4 DUP1 CALLDATASIZE SUB DUP2 ADD SWAP1 PUSH2 0x497 SWAP2 SWAP1 PUSH2 0x33B0 JUMP JUMPDEST PUSH2 0xD65 JUMP JUMPDEST PUSH1 0x40 MLOAD PUSH2 0x4A9 SWAP2 SWAP1 PUSH2 0x2F27 JUMP JUMPDEST PUSH1 0x40 MLOAD DUP1 SWAP2 SUB SWAP1 RETURN JUMPDEST PUSH2 0x4BA PUSH2 0xDD0 JUMP JUMPDEST PUSH1 0x40 MLOAD PUSH2 0x4C7 SWAP2 SWAP1 PUSH2 0x2FDB JUMP JUMPDEST PUSH1 0x40 MLOAD DUP1 SWAP2 SUB SWAP1 RETURN JUMPDEST PUSH2 0x4D8 PUSH2 0xE62 JUMP JUMPDEST PUSH1 0x40 MLOAD PUSH2 0x4E5 SWAP2 SWAP1 PUSH2 0x3395 JUMP JUMPDEST PUSH1 0x40 MLOAD DUP1 SWAP2 SUB SWAP1 RETURN JUMPDEST PUSH2 0x508 PUSH1 0x4 DUP1 CALLDATASIZE SUB DUP2 ADD SWAP1 PUSH2 0x503 SWAP2 SWAP1 PUSH2 0x3449 JUMP JUMPDEST PUSH2 0xE69 JUMP JUMPDEST STOP JUMPDEST PUSH2 0x524 PUSH1 0x4 DUP1 CALLDATASIZE SUB DUP2 ADD SWAP1 PUSH2 0x51F SWAP2 SWAP1 PUSH2 0x352A JUMP JUMPDEST PUSH2 0xE7F JUMP JUMPDEST STOP JUMPDEST PUSH2 0x540 PUSH1 0x4 DUP1 CALLDATASIZE SUB DUP2 ADD SWAP1 PUSH2 0x53B SWAP2 SWAP1 PUSH2 0x3033 JUMP JUMPDEST PUSH2 0xEE1 JUMP JUMPDEST PUSH1 0x40 MLOAD PUSH2 0x54D SWAP2 SWAP1 PUSH2 0x2FDB JUMP JUMPDEST PUSH1 0x40 MLOAD DUP1 SWAP2 SUB SWAP1 RETURN JUMPDEST PUSH2 0x570 PUSH1 0x4 DUP1 CALLDATASIZE SUB DUP2 ADD SWAP1 PUSH2 0x56B SWAP2 SWAP1 PUSH2 0x35AD JUMP JUMPDEST PUSH2 0xEF3 JUMP JUMPDEST STOP JUMPDEST PUSH2 0x57A PUSH2 0xF73 JUMP JUMPDEST PUSH1 0x40 MLOAD PUSH2 0x587 SWAP2 SWAP1 PUSH2 0x3395 JUMP JUMPDEST PUSH1 0x40 MLOAD DUP1 SWAP2 SUB SWAP1 RETURN JUMPDEST PUSH2 0x5AA PUSH1 0x4 DUP1 CALLDATASIZE SUB DUP2 ADD SWAP1 PUSH2 0x5A5 SWAP2 SWAP1 PUSH2 0x33B0 JUMP JUMPDEST PUSH2 0xF97 JUMP JUMPDEST STOP JUMPDEST PUSH2 0x5B4 PUSH2 0xFB8 JUMP JUMPDEST STOP JUMPDEST PUSH2 0x5BE PUSH2 0x1008 JUMP JUMPDEST PUSH1 0x40 MLOAD PUSH2 0x5CB SWAP2 SWAP1 PUSH2 0x3395 JUMP JUMPDEST PUSH1 0x40 MLOAD DUP1 SWAP2 SUB SWAP1 RETURN JUMPDEST PUSH2 0x5DC PUSH2 0x102C JUMP JUMPDEST PUSH1 0x40 MLOAD PUSH2 0x5E9 SWAP2 SWAP1 PUSH2 0x2FDB JUMP JUMPDEST PUSH1 0x40 MLOAD DUP1 SWAP2 SUB SWAP1 RETURN JUMPDEST PUSH2 0x60C PUSH1 0x4 DUP1 CALLDATASIZE SUB DUP2 ADD SWAP1 PUSH2 0x607 SWAP2 SWAP1 PUSH2 0x3609 JUMP JUMPDEST PUSH2 0x1083 JUMP JUMPDEST PUSH1 0x40 MLOAD PUSH2 0x619 SWAP2 SWAP1 PUSH2 0x2F27 JUMP JUMPDEST PUSH1 0x40 MLOAD DUP1 SWAP2 SUB SWAP1 RETURN JUMPDEST PUSH2 0x62A PUSH2 0x1117 JUMP JUMPDEST PUSH1 0x40 MLOAD PUSH2 0x637 SWAP2 SWAP1 PUSH2 0x3395 JUMP JUMPDEST PUSH1 0x40 MLOAD DUP1 SWAP2 SUB SWAP1 RETURN JUMPDEST PUSH1 0x0 PUSH2 0x64B DUP3 PUSH2 0x113B JUMP JUMPDEST SWAP1 POP SWAP2 SWAP1 POP JUMP JUMPDEST PUSH1 0x60 PUSH1 0x0 DUP1 SLOAD PUSH2 0x661 SWAP1 PUSH2 0x3678 JUMP JUMPDEST DUP1 PUSH1 0x1F ADD PUSH1 0x20 DUP1 SWAP2 DIV MUL PUSH1 0x20 ADD PUSH1 0x40 MLOAD SWAP1 DUP2 ADD PUSH1 0x40 MSTORE DUP1 SWAP3 SWAP2 SWAP1 DUP2 DUP2 MSTORE PUSH1 0x20 ADD DUP3 DUP1 SLOAD PUSH2 0x68D SWAP1 PUSH2 0x3678 JUMP JUMPDEST DUP1 ISZERO PUSH2 0x6DA JUMPI DUP1 PUSH1 0x1F LT PUSH2 0x6AF JUMPI PUSH2 0x100 DUP1 DUP4 SLOAD DIV MUL DUP4 MSTORE SWAP2 PUSH1 0x20 ADD SWAP2 PUSH2 0x6DA JUMP JUMPDEST DUP3 ADD SWAP2 SWAP1 PUSH1 0x0 MSTORE PUSH1 0x20 PUSH1 0x0 KECCAK256 SWAP1 JUMPDEST DUP2 SLOAD DUP2 MSTORE SWAP1 PUSH1 0x1 ADD SWAP1 PUSH1 0x20 ADD DUP1 DUP4 GT PUSH2 0x6BD JUMPI DUP3 SWAP1 SUB PUSH1 0x1F AND DUP3 ADD SWAP2 JUMPDEST POP POP POP POP POP SWAP1 POP SWAP1 JUMP JUMPDEST PUSH1 0x0 PUSH2 0x6EF DUP3 PUSH2 0x11B5 JUMP JUMPDEST PUSH2 0x72E JUMPI PUSH1 0x40 MLOAD PUSH32 0x8C379A000000000000000000000000000000000000000000000000000000000 DUP2 MSTORE PUSH1 0x4 ADD PUSH2 0x725 SWAP1 PUSH2 0x371B JUMP JUMPDEST PUSH1 0x40 MLOAD DUP1 SWAP2 SUB SWAP1 REVERT JUMPDEST PUSH1 0x4 PUSH1 0x0 DUP4 DUP2 MSTORE PUSH1 0x20 ADD SWAP1 DUP2 MSTORE PUSH1 0x20 ADD PUSH1 0x0 KECCAK256 PUSH1 0x0 SWAP1 SLOAD SWAP1 PUSH2 0x100 EXP SWAP1 DIV PUSH20 0xFFFFFFFFFFFFFFFFFFFFFFFFFFFFFFFFFFFFFFFF AND SWAP1 POP SWAP2 SWAP1 POP JUMP JUMPDEST PUSH1 0x0 PUSH2 0x774 DUP3 PUSH2 0xBC0 JUMP JUMPDEST SWAP1 POP DUP1 PUSH20 0xFFFFFFFFFFFFFFFFFFFFFFFFFFFFFFFFFFFFFFFF AND DUP4 PUSH20 0xFFFFFFFFFFFFFFFFFFFFFFFFFFFFFFFFFFFFFFFF AND SUB PUSH2 0x7E4 JUMPI PUSH1 0x40 MLOAD PUSH32 0x8C379A000000000000000000000000000000000000000000000000000000000 DUP2 MSTORE PUSH1 0x4 ADD PUSH2 0x7DB SWAP1 PUSH2 0x37AD JUMP JUMPDEST PUSH1 0x40 MLOAD DUP1 SWAP2 SUB SWAP1 REVERT JUMPDEST DUP1 PUSH20 0xFFFFFFFFFFFFFFFFFFFFFFFFFFFFFFFFFFFFFFFF AND PUSH2 0x803 PUSH2 0x1221 JUMP JUMPDEST PUSH20 0xFFFFFFFFFFFFFFFFFFFFFFFFFFFFFFFFFFFFFFFF AND EQ DUP1 PUSH2 0x832 JUMPI POP PUSH2 0x831 DUP2 PUSH2 0x82C PUSH2 0x1221 JUMP JUMPDEST PUSH2 0x1083 JUMP JUMPDEST JUMPDEST PUSH2 0x871 JUMPI PUSH1 0x40 MLOAD PUSH32 0x8C379A000000000000000000000000000000000000000000000000000000000 DUP2 MSTORE PUSH1 0x4 ADD PUSH2 0x868 SWAP1 PUSH2 0x383F JUMP JUMPDEST PUSH1 0x40 MLOAD DUP1 SWAP2 SUB SWAP1 REVERT JUMPDEST PUSH2 0x87B DUP4 DUP4 PUSH2 0x1229 JUMP JUMPDEST POP POP POP JUMP JUMPDEST PUSH2 0x88D PUSH1 0x0 DUP1 SHL CALLER PUSH2 0xD65 JUMP JUMPDEST PUSH2 0x896 JUMPI PUSH1 0x0 DUP1 REVERT JUMPDEST DUP1 PUSH1 0x10 SWAP1 DUP2 PUSH2 0x8A5 SWAP2 SWAP1 PUSH2 0x3A0B JUMP JUMPDEST POP POP JUMP JUMPDEST PUSH1 0x0 PUSH1 0x8 DUP1 SLOAD SWAP1 POP SWAP1 POP SWAP1 JUMP JUMPDEST PUSH2 0x8C7 PUSH2 0x8C1 PUSH2 0x1221 JUMP JUMPDEST DUP3 PUSH2 0x12E2 JUMP JUMPDEST PUSH2 0x906 JUMPI PUSH1 0x40 MLOAD PUSH32 0x8C379A000000000000000000000000000000000000000000000000000000000 DUP2 MSTORE PUSH1 0x4 ADD PUSH2 0x8FD SWAP1 PUSH2 0x3B4F JUMP JUMPDEST PUSH1 0x40 MLOAD DUP1 SWAP2 SUB SWAP1 REVERT JUMPDEST PUSH2 0x911 DUP4 DUP4 DUP4 PUSH2 0x13C0 JUMP JUMPDEST POP POP POP JUMP JUMPDEST PUSH1 0x0 PUSH1 0xC PUSH1 0x0 DUP4 DUP2 MSTORE PUSH1 0x20 ADD SWAP1 DUP2 MSTORE PUSH1 0x20 ADD PUSH1 0x0 KECCAK256 PUSH1 0x1 ADD SLOAD SWAP1 POP SWAP2 SWAP1 POP JUMP JUMPDEST PUSH2 0x93F DUP3 PUSH2 0x916 JUMP JUMPDEST PUSH2 0x948 DUP2 PUSH2 0x1626 JUMP JUMPDEST PUSH2 0x952 DUP4 DUP4 PUSH2 0x163A JUMP JUMPDEST POP POP POP JUMP JUMPDEST PUSH1 0x0 PUSH2 0x962 DUP4 PUSH2 0xC71 JUMP JUMPDEST DUP3 LT PUSH2 0x9A3 JUMPI PUSH1 0x40 MLOAD PUSH32 0x8C379A000000000000000000000000000000000000000000000000000000000 DUP2 MSTORE PUSH1 0x4 ADD PUSH2 0x99A SWAP1 PUSH2 0x3BE1 JUMP JUMPDEST PUSH1 0x40 MLOAD DUP1 SWAP2 SUB SWAP1 REVERT JUMPDEST PUSH1 0x6 PUSH1 0x0 DUP5 PUSH20 0xFFFFFFFFFFFFFFFFFFFFFFFFFFFFFFFFFFFFFFFF AND PUSH20 0xFFFFFFFFFFFFFFFFFFFFFFFFFFFFFFFFFFFFFFFF AND DUP2 MSTORE PUSH1 0x20 ADD SWAP1 DUP2 MSTORE PUSH1 0x20 ADD PUSH1 0x0 KECCAK256 PUSH1 0x0 DUP4 DUP2 MSTORE PUSH1 0x20 ADD SWAP1 DUP2 MSTORE PUSH1 0x20 ADD PUSH1 0x0 KECCAK256 SLOAD SWAP1 POP SWAP3 SWAP2 POP POP JUMP JUMPDEST PUSH2 0xA04 PUSH2 0x1221 JUMP JUMPDEST PUSH20 0xFFFFFFFFFFFFFFFFFFFFFFFFFFFFFFFFFFFFFFFF AND DUP2 PUSH20 0xFFFFFFFFFFFFFFFFFFFFFFFFFFFFFFFFFFFFFFFF AND EQ PUSH2 0xA71 JUMPI PUSH1 0x40 MLOAD PUSH32 0x8C379A000000000000000000000000000000000000000000000000000000000 DUP2 MSTORE PUSH1 0x4 ADD PUSH2 0xA68 SWAP1 PUSH2 0x3C73 JUMP JUMPDEST PUSH1 0x40 MLOAD DUP1 SWAP2 SUB SWAP1 REVERT JUMPDEST PUSH2 0xA7B DUP3 DUP3 PUSH2 0x171B JUMP JUMPDEST POP POP JUMP JUMPDEST PUSH2 0xAA9 PUSH32 0x65D7A28E3265B37A6474929F336521B332C1681B933F6CB9F3376673440D862A CALLER PUSH2 0xD65 JUMP JUMPDEST PUSH2 0xAB2 JUMPI PUSH1 0x0 DUP1 REVERT JUMPDEST PUSH2 0xABA PUSH2 0x17FD JUMP JUMPDEST JUMP JUMPDEST PUSH2 0xAD7 DUP4 DUP4 DUP4 PUSH1 0x40 MLOAD DUP1 PUSH1 0x20 ADD PUSH1 0x40 MSTORE DUP1 PUSH1 0x0 DUP2 MSTORE POP PUSH2 0xE7F JUMP JUMPDEST POP POP POP JUMP JUMPDEST PUSH2 0xAED PUSH2 0xAE7 PUSH2 0x1221 JUMP JUMPDEST DUP3 PUSH2 0x12E2 JUMP JUMPDEST PUSH2 0xB2C JUMPI PUSH1 0x40 MLOAD PUSH32 0x8C379A000000000000000000000000000000000000000000000000000000000 DUP2 MSTORE PUSH1 0x4 ADD PUSH2 0xB23 SWAP1 PUSH2 0x3D05 JUMP JUMPDEST PUSH1 0x40 MLOAD DUP1 SWAP2 SUB SWAP1 REVERT JUMPDEST PUSH2 0xB35 DUP2 PUSH2 0x189F JUMP JUMPDEST POP JUMP JUMPDEST PUSH1 0x0 PUSH2 0xB42 PUSH2 0x8A9 JUMP JUMPDEST DUP3 LT PUSH2 0xB83 JUMPI PUSH1 0x40 MLOAD PUSH32 0x8C379A000000000000000000000000000000000000000000000000000000000 DUP2 MSTORE PUSH1 0x4 ADD PUSH2 0xB7A SWAP1 PUSH2 0x3D97 JUMP JUMPDEST PUSH1 0x40 MLOAD DUP1 SWAP2 SUB SWAP1 REVERT JUMPDEST PUSH1 0x8 DUP3 DUP2 SLOAD DUP2 LT PUSH2 0xB97 JUMPI PUSH2 0xB96 PUSH2 0x3DB7 JUMP JUMPDEST JUMPDEST SWAP1 PUSH1 0x0 MSTORE PUSH1 0x20 PUSH1 0x0 KECCAK256 ADD SLOAD SWAP1 POP SWAP2 SWAP1 POP JUMP JUMPDEST PUSH1 0x0 PUSH1 0xB PUSH1 0x0 SWAP1 SLOAD SWAP1 PUSH2 0x100 EXP SWAP1 DIV PUSH1 0xFF AND SWAP1 POP SWAP1 JUMP JUMPDEST PUSH1 0x0 DUP1 PUSH1 0x2 PUSH1 0x0 DUP5 DUP2 MSTORE PUSH1 0x20 ADD SWAP1 DUP2 MSTORE PUSH1 0x20 ADD PUSH1 0x0 KECCAK256 PUSH1 0x0 SWAP1 SLOAD SWAP1 PUSH2 0x100 EXP SWAP1 DIV PUSH20 0xFFFFFFFFFFFFFFFFFFFFFFFFFFFFFFFFFFFFFFFF AND SWAP1 POP PUSH1 0x0 PUSH20 0xFFFFFFFFFFFFFFFFFFFFFFFFFFFFFFFFFFFFFFFF AND DUP2 PUSH20 0xFFFFFFFFFFFFFFFFFFFFFFFFFFFFFFFFFFFFFFFF AND SUB PUSH2 0xC68 JUMPI PUSH1 0x40 MLOAD PUSH32 0x8C379A000000000000000000000000000000000000000000000000000000000 DUP2 MSTORE PUSH1 0x4 ADD PUSH2 0xC5F SWAP1 PUSH2 0x3E58 JUMP JUMPDEST PUSH1 0x40 MLOAD DUP1 SWAP2 SUB SWAP1 REVERT JUMPDEST DUP1 SWAP2 POP POP SWAP2 SWAP1 POP JUMP JUMPDEST PUSH1 0x0 DUP1 PUSH20 0xFFFFFFFFFFFFFFFFFFFFFFFFFFFFFFFFFFFFFFFF AND DUP3 PUSH20 0xFFFFFFFFFFFFFFFFFFFFFFFFFFFFFFFFFFFFFFFF AND SUB PUSH2 0xCE1 JUMPI PUSH1 0x40 MLOAD PUSH32 0x8C379A000000000000000000000000000000000000000000000000000000000 DUP2 MSTORE PUSH1 0x4 ADD PUSH2 0xCD8 SWAP1 PUSH2 0x3EEA JUMP JUMPDEST PUSH1 0x40 MLOAD DUP1 SWAP2 SUB SWAP1 REVERT JUMPDEST PUSH1 0x3 PUSH1 0x0 DUP4 PUSH20 0xFFFFFFFFFFFFFFFFFFFFFFFFFFFFFFFFFFFFFFFF AND PUSH20 0xFFFFFFFFFFFFFFFFFFFFFFFFFFFFFFFFFFFFFFFF AND DUP2 MSTORE PUSH1 0x20 ADD SWAP1 DUP2 MSTORE PUSH1 0x20 ADD PUSH1 0x0 KECCAK256 SLOAD SWAP1 POP SWAP2 SWAP1 POP JUMP JUMPDEST PUSH2 0xD52 PUSH32 0x65D7A28E3265B37A6474929F336521B332C1681B933F6CB9F3376673440D862A CALLER PUSH2 0xD65 JUMP JUMPDEST PUSH2 0xD5B JUMPI PUSH1 0x0 DUP1 REVERT JUMPDEST PUSH2 0xD63 PUSH2 0x18AB JUMP JUMPDEST JUMP JUMPDEST PUSH1 0x0 PUSH1 0xC PUSH1 0x0 DUP5 DUP2 MSTORE PUSH1 0x20 ADD SWAP1 DUP2 MSTORE PUSH1 0x20 ADD PUSH1 0x0 KECCAK256 PUSH1 0x0 ADD PUSH1 0x0 DUP4 PUSH20 0xFFFFFFFFFFFFFFFFFFFFFFFFFFFFFFFFFFFFFFFF AND PUSH20 0xFFFFFFFFFFFFFFFFFFFFFFFFFFFFFFFFFFFFFFFF AND DUP2 MSTORE PUSH1 0x20 ADD SWAP1 DUP2 MSTORE PUSH1 0x20 ADD PUSH1 0x0 KECCAK256 PUSH1 0x0 SWAP1 SLOAD SWAP1 PUSH2 0x100 EXP SWAP1 DIV PUSH1 0xFF AND SWAP1 POP SWAP3 SWAP2 POP POP JUMP JUMPDEST PUSH1 0x60 PUSH1 0x1 DUP1 SLOAD PUSH2 0xDDF SWAP1 PUSH2 0x3678 JUMP JUMPDEST DUP1 PUSH1 0x1F ADD PUSH1 0x20 DUP1 SWAP2 DIV MUL PUSH1 0x20 ADD PUSH1 0x40 MLOAD SWAP1 DUP2 ADD PUSH1 0x40 MSTORE DUP1 SWAP3 SWAP2 SWAP1 DUP2 DUP2 MSTORE PUSH1 0x20 ADD DUP3 DUP1 SLOAD PUSH2 0xE0B SWAP1 PUSH2 0x3678 JUMP JUMPDEST DUP1 ISZERO PUSH2 0xE58 JUMPI DUP1 PUSH1 0x1F LT PUSH2 0xE2D JUMPI PUSH2 0x100 DUP1 DUP4 SLOAD DIV MUL DUP4 MSTORE SWAP2 PUSH1 0x20 ADD SWAP2 PUSH2 0xE58 JUMP JUMPDEST DUP3 ADD SWAP2 SWAP1 PUSH1 0x0 MSTORE PUSH1 0x20 PUSH1 0x0 KECCAK256 SWAP1 JUMPDEST DUP2 SLOAD DUP2 MSTORE SWAP1 PUSH1 0x1 ADD SWAP1 PUSH1 0x20 ADD DUP1 DUP4 GT PUSH2 0xE3B JUMPI DUP3 SWAP1 SUB PUSH1 0x1F AND DUP3 ADD SWAP2 JUMPDEST POP POP POP POP POP SWAP1 POP SWAP1 JUMP JUMPDEST PUSH1 0x0 DUP1 SHL DUP2 JUMP JUMPDEST PUSH2 0xE7B PUSH2 0xE74 PUSH2 0x1221 JUMP JUMPDEST DUP4 DUP4 PUSH2 0x194E JUMP JUMPDEST POP POP JUMP JUMPDEST PUSH2 0xE90 PUSH2 0xE8A PUSH2 0x1221 JUMP JUMPDEST DUP4 PUSH2 0x12E2 JUMP JUMPDEST PUSH2 0xECF JUMPI PUSH1 0x40 MLOAD PUSH32 0x8C379A000000000000000000000000000000000000000000000000000000000 DUP2 MSTORE PUSH1 0x4 ADD PUSH2 0xEC6 SWAP1 PUSH2 0x3B4F JUMP JUMPDEST PUSH1 0x40 MLOAD DUP1 SWAP2 SUB SWAP1 REVERT JUMPDEST PUSH2 0xEDB DUP5 DUP5 DUP5 DUP5 PUSH2 0x1ABA JUMP JUMPDEST POP POP POP POP JUMP JUMPDEST PUSH1 0x60 PUSH2 0xEEC DUP3 PUSH2 0x1B16 JUMP JUMPDEST SWAP1 POP SWAP2 SWAP1 POP JUMP JUMPDEST PUSH2 0xF1D PUSH32 0x9F2DF0FED2C77648DE5860A4CC508CD0818C85B8B8A1AB4CEEEF8D981C8956A6 CALLER PUSH2 0xD65 JUMP JUMPDEST PUSH2 0xF26 JUMPI PUSH1 0x0 DUP1 REVERT JUMPDEST PUSH1 0x11 PUSH1 0x0 SWAP1 SLOAD SWAP1 PUSH2 0x100 EXP SWAP1 DIV PUSH1 0xFF AND PUSH2 0xF3F JUMPI PUSH1 0x0 DUP1 REVERT JUMPDEST PUSH2 0xF52 DUP3 PUSH2 0xF4D PUSH1 0xD PUSH2 0x1C67 JUMP JUMPDEST PUSH2 0x1C75 JUMP JUMPDEST PUSH2 0xF65 PUSH2 0xF5F PUSH1 0xD PUSH2 0x1C67 JUMP JUMPDEST DUP3 PUSH2 0x1C93 JUMP JUMPDEST PUSH2 0xF6F PUSH1 0xD PUSH2 0x1D00 JUMP JUMPDEST POP POP JUMP JUMPDEST PUSH32 0x9F2DF0FED2C77648DE5860A4CC508CD0818C85B8B8A1AB4CEEEF8D981C8956A6 DUP2 JUMP JUMPDEST PUSH2 0xFA0 DUP3 PUSH2 0x916 JUMP JUMPDEST PUSH2 0xFA9 DUP2 PUSH2 0x1626 JUMP JUMPDEST PUSH2 0xFB3 DUP4 DUP4 PUSH2 0x171B JUMP JUMPDEST POP POP POP JUMP JUMPDEST PUSH2 0xFE2 PUSH32 0xAF9A8BB3CBD6B84FBCCEFA71FF73E26E798553C6914585A84886212A46A90279 CALLER PUSH2 0xD65 JUMP JUMPDEST PUSH2 0xFEB JUMPI PUSH1 0x0 DUP1 REVERT JUMPDEST PUSH1 0x0 PUSH1 0x11 PUSH1 0x0 PUSH2 0x100 EXP DUP2 SLOAD DUP2 PUSH1 0xFF MUL NOT AND SWAP1 DUP4 ISZERO ISZERO MUL OR SWAP1 SSTORE POP JUMP JUMPDEST PUSH32 0x65D7A28E3265B37A6474929F336521B332C1681B933F6CB9F3376673440D862A DUP2 JUMP JUMPDEST PUSH1 0x60 PUSH1 0x0 PUSH1 0x10 DUP1 SLOAD PUSH2 0x103D SWAP1 PUSH2 0x3678 JUMP JUMPDEST SWAP1 POP GT PUSH2 0x1059 JUMPI PUSH1 0x40 MLOAD DUP1 PUSH1 0x20 ADD PUSH1 0x40 MSTORE DUP1 PUSH1 0x0 DUP2 MSTORE POP PUSH2 0x107E JUMP JUMPDEST PUSH1 0x10 PUSH1 0xF PUSH1 0x40 MLOAD PUSH1 0x20 ADD PUSH2 0x106E SWAP3 SWAP2 SWAP1 PUSH2 0x3F98 JUMP JUMPDEST PUSH1 0x40 MLOAD PUSH1 0x20 DUP2 DUP4 SUB SUB DUP2 MSTORE SWAP1 PUSH1 0x40 MSTORE JUMPDEST SWAP1 POP SWAP1 JUMP JUMPDEST PUSH1 0x0 PUSH1 0x5 PUSH1 0x0 DUP5 PUSH20 0xFFFFFFFFFFFFFFFFFFFFFFFFFFFFFFFFFFFFFFFF AND PUSH20 0xFFFFFFFFFFFFFFFFFFFFFFFFFFFFFFFFFFFFFFFF AND DUP2 MSTORE PUSH1 0x20 ADD SWAP1 DUP2 MSTORE PUSH1 0x20 ADD PUSH1 0x0 KECCAK256 PUSH1 0x0 DUP4 PUSH20 0xFFFFFFFFFFFFFFFFFFFFFFFFFFFFFFFFFFFFFFFF AND PUSH20 0xFFFFFFFFFFFFFFFFFFFFFFFFFFFFFFFFFFFFFFFF AND DUP2 MSTORE PUSH1 0x20 ADD SWAP1 DUP2 MSTORE PUSH1 0x20 ADD PUSH1 0x0 KECCAK256 PUSH1 0x0 SWAP1 SLOAD SWAP1 PUSH2 0x100 EXP SWAP1 DIV PUSH1 0xFF AND SWAP1 POP SWAP3 SWAP2 POP POP JUMP JUMPDEST PUSH32 0xAF9A8BB3CBD6B84FBCCEFA71FF73E26E798553C6914585A84886212A46A90279 DUP2 JUMP JUMPDEST PUSH1 0x0 PUSH32 0x7965DB0B00000000000000000000000000000000000000000000000000000000 PUSH28 0xFFFFFFFFFFFFFFFFFFFFFFFFFFFFFFFFFFFFFFFFFFFFFFFFFFFFFFFF NOT AND DUP3 PUSH28 0xFFFFFFFFFFFFFFFFFFFFFFFFFFFFFFFFFFFFFFFFFFFFFFFFFFFFFFFF NOT AND EQ DUP1 PUSH2 0x11AE JUMPI POP PUSH2 0x11AD DUP3 PUSH2 0x1D16 JUMP JUMPDEST JUMPDEST SWAP1 POP SWAP2 SWAP1 POP JUMP JUMPDEST PUSH1 0x0 DUP1 PUSH20 0xFFFFFFFFFFFFFFFFFFFFFFFFFFFFFFFFFFFFFFFF AND PUSH1 0x2 PUSH1 0x0 DUP5 DUP2 MSTORE PUSH1 0x20 ADD SWAP1 DUP2 MSTORE PUSH1 0x20 ADD PUSH1 0x0 KECCAK256 PUSH1 0x0 SWAP1 SLOAD SWAP1 PUSH2 0x100 EXP SWAP1 DIV PUSH20 0xFFFFFFFFFFFFFFFFFFFFFFFFFFFFFFFFFFFFFFFF AND PUSH20 0xFFFFFFFFFFFFFFFFFFFFFFFFFFFFFFFFFFFFFFFF AND EQ ISZERO SWAP1 POP SWAP2 SWAP1 POP JUMP JUMPDEST PUSH1 0x0 CALLER SWAP1 POP SWAP1 JUMP JUMPDEST DUP2 PUSH1 0x4 PUSH1 0x0 DUP4 DUP2 MSTORE PUSH1 0x20 ADD SWAP1 DUP2 MSTORE PUSH1 0x20 ADD PUSH1 0x0 KECCAK256 PUSH1 0x0 PUSH2 0x100 EXP DUP2 SLOAD DUP2 PUSH20 0xFFFFFFFFFFFFFFFFFFFFFFFFFFFFFFFFFFFFFFFF MUL NOT AND SWAP1 DUP4 PUSH20 0xFFFFFFFFFFFFFFFFFFFFFFFFFFFFFFFFFFFFFFFF AND MUL OR SWAP1 SSTORE POP DUP1 DUP3 PUSH20 0xFFFFFFFFFFFFFFFFFFFFFFFFFFFFFFFFFFFFFFFF AND PUSH2 0x129C DUP4 PUSH2 0xBC0 JUMP JUMPDEST PUSH20 0xFFFFFFFFFFFFFFFFFFFFFFFFFFFFFFFFFFFFFFFF AND PUSH32 0x8C5BE1E5EBEC7D5BD14F71427D1E84F3DD0314C0F7B2291E5B200AC8C7C3B925 PUSH1 0x40 MLOAD PUSH1 0x40 MLOAD DUP1 SWAP2 SUB SWAP1 LOG4 POP POP JUMP JUMPDEST PUSH1 0x0 PUSH2 0x12ED DUP3 PUSH2 0x11B5 JUMP JUMPDEST PUSH2 0x132C JUMPI PUSH1 0x40 MLOAD PUSH32 0x8C379A000000000000000000000000000000000000000000000000000000000 DUP2 MSTORE PUSH1 0x4 ADD PUSH2 0x1323 SWAP1 PUSH2 0x402E JUMP JUMPDEST PUSH1 0x40 MLOAD DUP1 SWAP2 SUB SWAP1 REVERT JUMPDEST PUSH1 0x0 PUSH2 0x1337 DUP4 PUSH2 0xBC0 JUMP JUMPDEST SWAP1 POP DUP1 PUSH20 0xFFFFFFFFFFFFFFFFFFFFFFFFFFFFFFFFFFFFFFFF AND DUP5 PUSH20 0xFFFFFFFFFFFFFFFFFFFFFFFFFFFFFFFFFFFFFFFF AND EQ DUP1 PUSH2 0x1379 JUMPI POP PUSH2 0x1378 DUP2 DUP6 PUSH2 0x1083 JUMP JUMPDEST JUMPDEST DUP1 PUSH2 0x13B7 JUMPI POP DUP4 PUSH20 0xFFFFFFFFFFFFFFFFFFFFFFFFFFFFFFFFFFFFFFFF AND PUSH2 0x139F DUP5 PUSH2 0x6E4 JUMP JUMPDEST PUSH20 0xFFFFFFFFFFFFFFFFFFFFFFFFFFFFFFFFFFFFFFFF AND EQ JUMPDEST SWAP2 POP POP SWAP3 SWAP2 POP POP JUMP JUMPDEST DUP3 PUSH20 0xFFFFFFFFFFFFFFFFFFFFFFFFFFFFFFFFFFFFFFFF AND PUSH2 0x13E0 DUP3 PUSH2 0xBC0 JUMP JUMPDEST PUSH20 0xFFFFFFFFFFFFFFFFFFFFFFFFFFFFFFFFFFFFFFFF AND EQ PUSH2 0x1436 JUMPI PUSH1 0x40 MLOAD PUSH32 0x8C379A000000000000000000000000000000000000000000000000000000000 DUP2 MSTORE PUSH1 0x4 ADD PUSH2 0x142D SWAP1 PUSH2 0x40C0 JUMP JUMPDEST PUSH1 0x40 MLOAD DUP1 SWAP2 SUB SWAP1 REVERT JUMPDEST PUSH1 0x0 PUSH20 0xFFFFFFFFFFFFFFFFFFFFFFFFFFFFFFFFFFFFFFFF AND DUP3 PUSH20 0xFFFFFFFFFFFFFFFFFFFFFFFFFFFFFFFFFFFFFFFF AND SUB PUSH2 0x14A5 JUMPI PUSH1 0x40 MLOAD PUSH32 0x8C379A000000000000000000000000000000000000000000000000000000000 DUP2 MSTORE PUSH1 0x4 ADD PUSH2 0x149C SWAP1 PUSH2 0x4152 JUMP JUMPDEST PUSH1 0x40 MLOAD DUP1 SWAP2 SUB SWAP1 REVERT JUMPDEST PUSH2 0x14B0 DUP4 DUP4 DUP4 PUSH2 0x1D90 JUMP JUMPDEST PUSH2 0x14BB PUSH1 0x0 DUP3 PUSH2 0x1229 JUMP JUMPDEST PUSH1 0x1 PUSH1 0x3 PUSH1 0x0 DUP6 PUSH20 0xFFFFFFFFFFFFFFFFFFFFFFFFFFFFFFFFFFFFFFFF AND PUSH20 0xFFFFFFFFFFFFFFFFFFFFFFFFFFFFFFFFFFFFFFFF AND DUP2 MSTORE PUSH1 0x20 ADD SWAP1 DUP2 MSTORE PUSH1 0x20 ADD PUSH1 0x0 KECCAK256 PUSH1 0x0 DUP3 DUP3 SLOAD PUSH2 0x150B SWAP2 SWAP1 PUSH2 0x41A1 JUMP JUMPDEST SWAP3 POP POP DUP2 SWAP1 SSTORE POP PUSH1 0x1 PUSH1 0x3 PUSH1 0x0 DUP5 PUSH20 0xFFFFFFFFFFFFFFFFFFFFFFFFFFFFFFFFFFFFFFFF AND PUSH20 0xFFFFFFFFFFFFFFFFFFFFFFFFFFFFFFFFFFFFFFFF AND DUP2 MSTORE PUSH1 0x20 ADD SWAP1 DUP2 MSTORE PUSH1 0x20 ADD PUSH1 0x0 KECCAK256 PUSH1 0x0 DUP3 DUP3 SLOAD PUSH2 0x1562 SWAP2 SWAP1 PUSH2 0x41D5 JUMP JUMPDEST SWAP3 POP POP DUP2 SWAP1 SSTORE POP DUP2 PUSH1 0x2 PUSH1 0x0 DUP4 DUP2 MSTORE PUSH1 0x20 ADD SWAP1 DUP2 MSTORE PUSH1 0x20 ADD PUSH1 0x0 KECCAK256 PUSH1 0x0 PUSH2 0x100 EXP DUP2 SLOAD DUP2 PUSH20 0xFFFFFFFFFFFFFFFFFFFFFFFFFFFFFFFFFFFFFFFF MUL NOT AND SWAP1 DUP4 PUSH20 0xFFFFFFFFFFFFFFFFFFFFFFFFFFFFFFFFFFFFFFFF AND MUL OR SWAP1 SSTORE POP DUP1 DUP3 PUSH20 0xFFFFFFFFFFFFFFFFFFFFFFFFFFFFFFFFFFFFFFFF AND DUP5 PUSH20 0xFFFFFFFFFFFFFFFFFFFFFFFFFFFFFFFFFFFFFFFF AND PUSH32 0xDDF252AD1BE2C89B69C2B068FC378DAA952BA7F163C4A11628F55A4DF523B3EF PUSH1 0x40 MLOAD PUSH1 0x40 MLOAD DUP1 SWAP2 SUB SWAP1 LOG4 PUSH2 0x1621 DUP4 DUP4 DUP4 PUSH2 0x1DE8 JUMP JUMPDEST POP POP POP JUMP JUMPDEST PUSH2 0x1637 DUP2 PUSH2 0x1632 PUSH2 0x1221 JUMP JUMPDEST PUSH2 0x1DED JUMP JUMPDEST POP JUMP JUMPDEST PUSH2 0x1644 DUP3 DUP3 PUSH2 0xD65 JUMP JUMPDEST PUSH2 0x1717 JUMPI PUSH1 0x1 PUSH1 0xC PUSH1 0x0 DUP5 DUP2 MSTORE PUSH1 0x20 ADD SWAP1 DUP2 MSTORE PUSH1 0x20 ADD PUSH1 0x0 KECCAK256 PUSH1 0x0 ADD PUSH1 0x0 DUP4 PUSH20 0xFFFFFFFFFFFFFFFFFFFFFFFFFFFFFFFFFFFFFFFF AND PUSH20 0xFFFFFFFFFFFFFFFFFFFFFFFFFFFFFFFFFFFFFFFF AND DUP2 MSTORE PUSH1 0x20 ADD SWAP1 DUP2 MSTORE PUSH1 0x20 ADD PUSH1 0x0 KECCAK256 PUSH1 0x0 PUSH2 0x100 EXP DUP2 SLOAD DUP2 PUSH1 0xFF MUL NOT AND SWAP1 DUP4 ISZERO ISZERO MUL OR SWAP1 SSTORE POP PUSH2 0x16BC PUSH2 0x1221 JUMP JUMPDEST PUSH20 0xFFFFFFFFFFFFFFFFFFFFFFFFFFFFFFFFFFFFFFFF AND DUP2 PUSH20 0xFFFFFFFFFFFFFFFFFFFFFFFFFFFFFFFFFFFFFFFF AND DUP4 PUSH32 0x2F8788117E7EFF1D82E926EC794901D17C78024A50270940304540A733656F0D PUSH1 0x40 MLOAD PUSH1 0x40 MLOAD DUP1 SWAP2 SUB SWAP1 LOG4 JUMPDEST POP POP JUMP JUMPDEST PUSH2 0x1725 DUP3 DUP3 PUSH2 0xD65 JUMP JUMPDEST ISZERO PUSH2 0x17F9 JUMPI PUSH1 0x0 PUSH1 0xC PUSH1 0x0 DUP5 DUP2 MSTORE PUSH1 0x20 ADD SWAP1 DUP2 MSTORE PUSH1 0x20 ADD PUSH1 0x0 KECCAK256 PUSH1 0x0 ADD PUSH1 0x0 DUP4 PUSH20 0xFFFFFFFFFFFFFFFFFFFFFFFFFFFFFFFFFFFFFFFF AND PUSH20 0xFFFFFFFFFFFFFFFFFFFFFFFFFFFFFFFFFFFFFFFF AND DUP2 MSTORE PUSH1 0x20 ADD SWAP1 DUP2 MSTORE PUSH1 0x20 ADD PUSH1 0x0 KECCAK256 PUSH1 0x0 PUSH2 0x100 EXP DUP2 SLOAD DUP2 PUSH1 0xFF MUL NOT AND SWAP1 DUP4 ISZERO ISZERO MUL OR SWAP1 SSTORE POP PUSH2 0x179E PUSH2 0x1221 JUMP JUMPDEST PUSH20 0xFFFFFFFFFFFFFFFFFFFFFFFFFFFFFFFFFFFFFFFF AND DUP2 PUSH20 0xFFFFFFFFFFFFFFFFFFFFFFFFFFFFFFFFFFFFFFFF AND DUP4 PUSH32 0xF6391F5C32D9C69D2A47EA670B442974B53935D1EDC7FD64EB21E047A839171B PUSH1 0x40 MLOAD PUSH1 0x40 MLOAD DUP1 SWAP2 SUB SWAP1 LOG4 JUMPDEST POP POP JUMP JUMPDEST PUSH2 0x1805 PUSH2 0xBA9 JUMP JUMPDEST PUSH2 0x1844 JUMPI PUSH1 0x40 MLOAD PUSH32 0x8C379A000000000000000000000000000000000000000000000000000000000 DUP2 MSTORE PUSH1 0x4 ADD PUSH2 0x183B SWAP1 PUSH2 0x4277 JUMP JUMPDEST PUSH1 0x40 MLOAD DUP1 SWAP2 SUB SWAP1 REVERT JUMPDEST PUSH1 0x0 PUSH1 0xB PUSH1 0x0 PUSH2 0x100 EXP DUP2 SLOAD DUP2 PUSH1 0xFF MUL NOT AND SWAP1 DUP4 ISZERO ISZERO MUL OR SWAP1 SSTORE POP PUSH32 0x5DB9EE0A495BF2E6FF9C91A7834C1BA4FDD244A5E8AA4E537BD38AEAE4B073AA PUSH2 0x1888 PUSH2 0x1221 JUMP JUMPDEST PUSH1 0x40 MLOAD PUSH2 0x1895 SWAP2 SWAP1 PUSH2 0x30A1 JUMP JUMPDEST PUSH1 0x40 MLOAD DUP1 SWAP2 SUB SWAP1 LOG1 JUMP JUMPDEST PUSH2 0x18A8 DUP2 PUSH2 0x1E8A JUMP JUMPDEST POP JUMP JUMPDEST PUSH2 0x18B3 PUSH2 0xBA9 JUMP JUMPDEST ISZERO PUSH2 0x18F3 JUMPI PUSH1 0x40 MLOAD PUSH32 0x8C379A000000000000000000000000000000000000000000000000000000000 DUP2 MSTORE PUSH1 0x4 ADD PUSH2 0x18EA SWAP1 PUSH2 0x42E3 JUMP JUMPDEST PUSH1 0x40 MLOAD DUP1 SWAP2 SUB SWAP1 REVERT JUMPDEST PUSH1 0x1 PUSH1 0xB PUSH1 0x0 PUSH2 0x100 EXP DUP2 SLOAD DUP2 PUSH1 0xFF MUL NOT AND SWAP1 DUP4 ISZERO ISZERO MUL OR SWAP1 SSTORE POP PUSH32 0x62E78CEA01BEE320CD4E420270B5EA74000D11B0C9F74754EBDBFC544B05A258 PUSH2 0x1937 PUSH2 0x1221 JUMP JUMPDEST PUSH1 0x40 MLOAD PUSH2 0x1944 SWAP2 SWAP1 PUSH2 0x30A1 JUMP JUMPDEST PUSH1 0x40 MLOAD DUP1 SWAP2 SUB SWAP1 LOG1 JUMP JUMPDEST DUP2 PUSH20 0xFFFFFFFFFFFFFFFFFFFFFFFFFFFFFFFFFFFFFFFF AND DUP4 PUSH20 0xFFFFFFFFFFFFFFFFFFFFFFFFFFFFFFFFFFFFFFFF AND SUB PUSH2 0x19BC JUMPI PUSH1 0x40 MLOAD PUSH32 0x8C379A000000000000000000000000000000000000000000000000000000000 DUP2 MSTORE PUSH1 0x4 ADD PUSH2 0x19B3 SWAP1 PUSH2 0x434F JUMP JUMPDEST PUSH1 0x40 MLOAD DUP1 SWAP2 SUB SWAP1 REVERT JUMPDEST DUP1 PUSH1 0x5 PUSH1 0x0 DUP6 PUSH20 0xFFFFFFFFFFFFFFFFFFFFFFFFFFFFFFFFFFFFFFFF AND PUSH20 0xFFFFFFFFFFFFFFFFFFFFFFFFFFFFFFFFFFFFFFFF AND DUP2 MSTORE PUSH1 0x20 ADD SWAP1 DUP2 MSTORE PUSH1 0x20 ADD PUSH1 0x0 KECCAK256 PUSH1 0x0 DUP5 PUSH20 0xFFFFFFFFFFFFFFFFFFFFFFFFFFFFFFFFFFFFFFFF AND PUSH20 0xFFFFFFFFFFFFFFFFFFFFFFFFFFFFFFFFFFFFFFFF AND DUP2 MSTORE PUSH1 0x20 ADD SWAP1 DUP2 MSTORE PUSH1 0x20 ADD PUSH1 0x0 KECCAK256 PUSH1 0x0 PUSH2 0x100 EXP DUP2 SLOAD DUP2 PUSH1 0xFF MUL NOT AND SWAP1 DUP4 ISZERO ISZERO MUL OR SWAP1 SSTORE POP DUP2 PUSH20 0xFFFFFFFFFFFFFFFFFFFFFFFFFFFFFFFFFFFFFFFF AND DUP4 PUSH20 0xFFFFFFFFFFFFFFFFFFFFFFFFFFFFFFFFFFFFFFFF AND PUSH32 0x17307EAB39AB6107E8899845AD3D59BD9653F200F220920489CA2B5937696C31 DUP4 PUSH1 0x40 MLOAD PUSH2 0x1AAD SWAP2 SWAP1 PUSH2 0x2F27 JUMP JUMPDEST PUSH1 0x40 MLOAD DUP1 SWAP2 SUB SWAP1 LOG3 POP POP POP JUMP JUMPDEST PUSH2 0x1AC5 DUP5 DUP5 DUP5 PUSH2 0x13C0 JUMP JUMPDEST PUSH2 0x1AD1 DUP5 DUP5 DUP5 DUP5 PUSH2 0x1EDD JUMP JUMPDEST PUSH2 0x1B10 JUMPI PUSH1 0x40 MLOAD PUSH32 0x8C379A000000000000000000000000000000000000000000000000000000000 DUP2 MSTORE PUSH1 0x4 ADD PUSH2 0x1B07 SWAP1 PUSH2 0x43E1 JUMP JUMPDEST PUSH1 0x40 MLOAD DUP1 SWAP2 SUB SWAP1 REVERT JUMPDEST POP POP POP POP JUMP JUMPDEST PUSH1 0x60 PUSH2 0x1B21 DUP3 PUSH2 0x11B5 JUMP JUMPDEST PUSH2 0x1B60 JUMPI PUSH1 0x40 MLOAD PUSH32 0x8C379A000000000000000000000000000000000000000000000000000000000 DUP2 MSTORE PUSH1 0x4 ADD PUSH2 0x1B57 SWAP1 PUSH2 0x4473 JUMP JUMPDEST PUSH1 0x40 MLOAD DUP1 SWAP2 SUB SWAP1 REVERT JUMPDEST PUSH1 0x0 PUSH1 0xA PUSH1 0x0 DUP5 DUP2 MSTORE PUSH1 0x20 ADD SWAP1 DUP2 MSTORE PUSH1 0x20 ADD PUSH1 0x0 KECCAK256 DUP1 SLOAD PUSH2 0x1B80 SWAP1 PUSH2 0x3678 JUMP JUMPDEST DUP1 PUSH1 0x1F ADD PUSH1 0x20 DUP1 SWAP2 DIV MUL PUSH1 0x20 ADD PUSH1 0x40 MLOAD SWAP1 DUP2 ADD PUSH1 0x40 MSTORE DUP1 SWAP3 SWAP2 SWAP1 DUP2 DUP2 MSTORE PUSH1 0x20 ADD DUP3 DUP1 SLOAD PUSH2 0x1BAC SWAP1 PUSH2 0x3678 JUMP JUMPDEST DUP1 ISZERO PUSH2 0x1BF9 JUMPI DUP1 PUSH1 0x1F LT PUSH2 0x1BCE JUMPI PUSH2 0x100 DUP1 DUP4 SLOAD DIV MUL DUP4 MSTORE SWAP2 PUSH1 0x20 ADD SWAP2 PUSH2 0x1BF9 JUMP JUMPDEST DUP3 ADD SWAP2 SWAP1 PUSH1 0x0 MSTORE PUSH1 0x20 PUSH1 0x0 KECCAK256 SWAP1 JUMPDEST DUP2 SLOAD DUP2 MSTORE SWAP1 PUSH1 0x1 ADD SWAP1 PUSH1 0x20 ADD DUP1 DUP4 GT PUSH2 0x1BDC JUMPI DUP3 SWAP1 SUB PUSH1 0x1F AND DUP3 ADD SWAP2 JUMPDEST POP POP POP POP POP SWAP1 POP PUSH1 0x0 PUSH2 0x1C0A PUSH2 0x2064 JUMP JUMPDEST SWAP1 POP PUSH1 0x0 DUP2 MLOAD SUB PUSH2 0x1C1F JUMPI DUP2 SWAP3 POP POP POP PUSH2 0x1C62 JUMP JUMPDEST PUSH1 0x0 DUP3 MLOAD GT ISZERO PUSH2 0x1C54 JUMPI DUP1 DUP3 PUSH1 0x40 MLOAD PUSH1 0x20 ADD PUSH2 0x1C3C SWAP3 SWAP2 SWAP1 PUSH2 0x44C4 JUMP JUMPDEST PUSH1 0x40 MLOAD PUSH1 0x20 DUP2 DUP4 SUB SUB DUP2 MSTORE SWAP1 PUSH1 0x40 MSTORE SWAP3 POP POP POP PUSH2 0x1C62 JUMP JUMPDEST PUSH2 0x1C5D DUP5 PUSH2 0x20F6 JUMP JUMPDEST SWAP3 POP POP POP JUMPDEST SWAP2 SWAP1 POP JUMP JUMPDEST PUSH1 0x0 DUP2 PUSH1 0x0 ADD SLOAD SWAP1 POP SWAP2 SWAP1 POP JUMP JUMPDEST PUSH2 0x1C8F DUP3 DUP3 PUSH1 0x40 MLOAD DUP1 PUSH1 0x20 ADD PUSH1 0x40 MSTORE DUP1 PUSH1 0x0 DUP2 MSTORE POP PUSH2 0x219D JUMP JUMPDEST POP POP JUMP JUMPDEST PUSH2 0x1C9C DUP3 PUSH2 0x11B5 JUMP JUMPDEST PUSH2 0x1CDB JUMPI PUSH1 0x40 MLOAD PUSH32 0x8C379A000000000000000000000000000000000000000000000000000000000 DUP2 MSTORE PUSH1 0x4 ADD PUSH2 0x1CD2 SWAP1 PUSH2 0x455A JUMP JUMPDEST PUSH1 0x40 MLOAD DUP1 SWAP2 SUB SWAP1 REVERT JUMPDEST DUP1 PUSH1 0xA PUSH1 0x0 DUP5 DUP2 MSTORE PUSH1 0x20 ADD SWAP1 DUP2 MSTORE PUSH1 0x20 ADD PUSH1 0x0 KECCAK256 SWAP1 DUP2 PUSH2 0x1CFB SWAP2 SWAP1 PUSH2 0x3A0B JUMP JUMPDEST POP POP POP JUMP JUMPDEST PUSH1 0x1 DUP2 PUSH1 0x0 ADD PUSH1 0x0 DUP3 DUP3 SLOAD ADD SWAP3 POP POP DUP2 SWAP1 SSTORE POP POP JUMP JUMPDEST PUSH1 0x0 PUSH32 0x780E9D6300000000000000000000000000000000000000000000000000000000 PUSH28 0xFFFFFFFFFFFFFFFFFFFFFFFFFFFFFFFFFFFFFFFFFFFFFFFFFFFFFFFF NOT AND DUP3 PUSH28 0xFFFFFFFFFFFFFFFFFFFFFFFFFFFFFFFFFFFFFFFFFFFFFFFFFFFFFFFF NOT AND EQ DUP1 PUSH2 0x1D89 JUMPI POP PUSH2 0x1D88 DUP3 PUSH2 0x21F8 JUMP JUMPDEST JUMPDEST SWAP1 POP SWAP2 SWAP1 POP JUMP JUMPDEST PUSH2 0x1D98 PUSH2 0xBA9 JUMP JUMPDEST ISZERO PUSH2 0x1DD8 JUMPI PUSH1 0x40 MLOAD PUSH32 0x8C379A000000000000000000000000000000000000000000000000000000000 DUP2 MSTORE PUSH1 0x4 ADD PUSH2 0x1DCF SWAP1 PUSH2 0x42E3 JUMP JUMPDEST PUSH1 0x40 MLOAD DUP1 SWAP2 SUB SWAP1 REVERT JUMPDEST PUSH2 0x1DE3 DUP4 DUP4 DUP4 PUSH2 0x22DA JUMP JUMPDEST POP POP POP JUMP JUMPDEST POP POP POP JUMP JUMPDEST PUSH2 0x1DF7 DUP3 DUP3 PUSH2 0xD65 JUMP JUMPDEST PUSH2 0x1E86 JUMPI PUSH2 0x1E1C DUP2 PUSH20 0xFFFFFFFFFFFFFFFFFFFFFFFFFFFFFFFFFFFFFFFF AND PUSH1 0x14 PUSH2 0x23EC JUMP JUMPDEST PUSH2 0x1E2A DUP4 PUSH1 0x0 SHR PUSH1 0x20 PUSH2 0x23EC JUMP JUMPDEST PUSH1 0x40 MLOAD PUSH1 0x20 ADD PUSH2 0x1E3B SWAP3 SWAP2 SWAP1 PUSH2 0x4612 JUMP JUMPDEST PUSH1 0x40 MLOAD PUSH1 0x20 DUP2 DUP4 SUB SUB DUP2 MSTORE SWAP1 PUSH1 0x40 MSTORE PUSH1 0x40 MLOAD PUSH32 0x8C379A000000000000000000000000000000000000000000000000000000000 DUP2 MSTORE PUSH1 0x4 ADD PUSH2 0x1E7D SWAP2 SWAP1 PUSH2 0x2FDB JUMP JUMPDEST PUSH1 0x40 MLOAD DUP1 SWAP2 SUB SWAP1 REVERT JUMPDEST POP POP JUMP JUMPDEST PUSH2 0x1E93 DUP2 PUSH2 0x2628 JUMP JUMPDEST PUSH1 0x0 PUSH1 0xA PUSH1 0x0 DUP4 DUP2 MSTORE PUSH1 0x20 ADD SWAP1 DUP2 MSTORE PUSH1 0x20 ADD PUSH1 0x0 KECCAK256 DUP1 SLOAD PUSH2 0x1EB3 SWAP1 PUSH2 0x3678 JUMP JUMPDEST SWAP1 POP EQ PUSH2 0x1EDA JUMPI PUSH1 0xA PUSH1 0x0 DUP3 DUP2 MSTORE PUSH1 0x20 ADD SWAP1 DUP2 MSTORE PUSH1 0x20 ADD PUSH1 0x0 KECCAK256 PUSH1 0x0 PUSH2 0x1ED9 SWAP2 SWAP1 PUSH2 0x2E16 JUMP JUMPDEST JUMPDEST POP JUMP JUMPDEST PUSH1 0x0 PUSH2 0x1EFE DUP5 PUSH20 0xFFFFFFFFFFFFFFFFFFFFFFFFFFFFFFFFFFFFFFFF AND PUSH2 0x2745 JUMP JUMPDEST ISZERO PUSH2 0x2057 JUMPI DUP4 PUSH20 0xFFFFFFFFFFFFFFFFFFFFFFFFFFFFFFFFFFFFFFFF AND PUSH4 0x150B7A02 PUSH2 0x1F27 PUSH2 0x1221 JUMP JUMPDEST DUP8 DUP7 DUP7 PUSH1 0x40 MLOAD DUP6 PUSH4 0xFFFFFFFF AND PUSH1 0xE0 SHL DUP2 MSTORE PUSH1 0x4 ADD PUSH2 0x1F49 SWAP5 SWAP4 SWAP3 SWAP2 SWAP1 PUSH2 0x46A1 JUMP JUMPDEST PUSH1 0x20 PUSH1 0x40 MLOAD DUP1 DUP4 SUB DUP2 PUSH1 0x0 DUP8 GAS CALL SWAP3 POP POP POP DUP1 ISZERO PUSH2 0x1F85 JUMPI POP PUSH1 0x40 MLOAD RETURNDATASIZE PUSH1 0x1F NOT PUSH1 0x1F DUP3 ADD AND DUP3 ADD DUP1 PUSH1 0x40 MSTORE POP DUP2 ADD SWAP1 PUSH2 0x1F82 SWAP2 SWAP1 PUSH2 0x4702 JUMP JUMPDEST PUSH1 0x1 JUMPDEST PUSH2 0x2007 JUMPI RETURNDATASIZE DUP1 PUSH1 0x0 DUP2 EQ PUSH2 0x1FB5 JUMPI PUSH1 0x40 MLOAD SWAP2 POP PUSH1 0x1F NOT PUSH1 0x3F RETURNDATASIZE ADD AND DUP3 ADD PUSH1 0x40 MSTORE RETURNDATASIZE DUP3 MSTORE RETURNDATASIZE PUSH1 0x0 PUSH1 0x20 DUP5 ADD RETURNDATACOPY PUSH2 0x1FBA JUMP JUMPDEST PUSH1 0x60 SWAP2 POP JUMPDEST POP PUSH1 0x0 DUP2 MLOAD SUB PUSH2 0x1FFF JUMPI PUSH1 0x40 MLOAD PUSH32 0x8C379A000000000000000000000000000000000000000000000000000000000 DUP2 MSTORE PUSH1 0x4 ADD PUSH2 0x1FF6 SWAP1 PUSH2 0x43E1 JUMP JUMPDEST PUSH1 0x40 MLOAD DUP1 SWAP2 SUB SWAP1 REVERT JUMPDEST DUP1 MLOAD DUP2 PUSH1 0x20 ADD REVERT JUMPDEST PUSH4 0x150B7A02 PUSH1 0xE0 SHL PUSH28 0xFFFFFFFFFFFFFFFFFFFFFFFFFFFFFFFFFFFFFFFFFFFFFFFFFFFFFFFF NOT AND DUP2 PUSH28 0xFFFFFFFFFFFFFFFFFFFFFFFFFFFFFFFFFFFFFFFFFFFFFFFFFFFFFFFF NOT AND EQ SWAP2 POP POP PUSH2 0x205C JUMP JUMPDEST PUSH1 0x1 SWAP1 POP JUMPDEST SWAP5 SWAP4 POP POP POP POP JUMP JUMPDEST PUSH1 0x60 PUSH1 0xE DUP1 SLOAD PUSH2 0x2073 SWAP1 PUSH2 0x3678 JUMP JUMPDEST DUP1 PUSH1 0x1F ADD PUSH1 0x20 DUP1 SWAP2 DIV MUL PUSH1 0x20 ADD PUSH1 0x40 MLOAD SWAP1 DUP2 ADD PUSH1 0x40 MSTORE DUP1 SWAP3 SWAP2 SWAP1 DUP2 DUP2 MSTORE PUSH1 0x20 ADD DUP3 DUP1 SLOAD PUSH2 0x209F SWAP1 PUSH2 0x3678 JUMP JUMPDEST DUP1 ISZERO PUSH2 0x20EC JUMPI DUP1 PUSH1 0x1F LT PUSH2 0x20C1 JUMPI PUSH2 0x100 DUP1 DUP4 SLOAD DIV MUL DUP4 MSTORE SWAP2 PUSH1 0x20 ADD SWAP2 PUSH2 0x20EC JUMP JUMPDEST DUP3 ADD SWAP2 SWAP1 PUSH1 0x0 MSTORE PUSH1 0x20 PUSH1 0x0 KECCAK256 SWAP1 JUMPDEST DUP2 SLOAD DUP2 MSTORE SWAP1 PUSH1 0x1 ADD SWAP1 PUSH1 0x20 ADD DUP1 DUP4 GT PUSH2 0x20CF JUMPI DUP3 SWAP1 SUB PUSH1 0x1F AND DUP3 ADD SWAP2 JUMPDEST POP POP POP POP POP SWAP1 POP SWAP1 JUMP JUMPDEST PUSH1 0x60 PUSH2 0x2101 DUP3 PUSH2 0x11B5 JUMP JUMPDEST PUSH2 0x2140 JUMPI PUSH1 0x40 MLOAD PUSH32 0x8C379A000000000000000000000000000000000000000000000000000000000 DUP2 MSTORE PUSH1 0x4 ADD PUSH2 0x2137 SWAP1 PUSH2 0x47A1 JUMP JUMPDEST PUSH1 0x40 MLOAD DUP1 SWAP2 SUB SWAP1 REVERT JUMPDEST PUSH1 0x0 PUSH2 0x214A PUSH2 0x2064 JUMP JUMPDEST SWAP1 POP PUSH1 0x0 DUP2 MLOAD GT PUSH2 0x216A JUMPI PUSH1 0x40 MLOAD DUP1 PUSH1 0x20 ADD PUSH1 0x40 MSTORE DUP1 PUSH1 0x0 DUP2 MSTORE POP PUSH2 0x2195 JUMP JUMPDEST DUP1 PUSH2 0x2174 DUP5 PUSH2 0x2768 JUMP JUMPDEST PUSH1 0x40 MLOAD PUSH1 0x20 ADD PUSH2 0x2185 SWAP3 SWAP2 SWAP1 PUSH2 0x44C4 JUMP JUMPDEST PUSH1 0x40 MLOAD PUSH1 0x20 DUP2 DUP4 SUB SUB DUP2 MSTORE SWAP1 PUSH1 0x40 MSTORE JUMPDEST SWAP2 POP POP SWAP2 SWAP1 POP JUMP JUMPDEST PUSH2 0x21A7 DUP4 DUP4 PUSH2 0x28C8 JUMP JUMPDEST PUSH2 0x21B4 PUSH1 0x0 DUP5 DUP5 DUP5 PUSH2 0x1EDD JUMP JUMPDEST PUSH2 0x21F3 JUMPI PUSH1 0x40 MLOAD PUSH32 0x8C379A000000000000000000000000000000000000000000000000000000000 DUP2 MSTORE PUSH1 0x4 ADD PUSH2 0x21EA SWAP1 PUSH2 0x43E1 JUMP JUMPDEST PUSH1 0x40 MLOAD DUP1 SWAP2 SUB SWAP1 REVERT JUMPDEST POP POP POP JUMP JUMPDEST PUSH1 0x0 PUSH32 0x80AC58CD00000000000000000000000000000000000000000000000000000000 PUSH28 0xFFFFFFFFFFFFFFFFFFFFFFFFFFFFFFFFFFFFFFFFFFFFFFFFFFFFFFFF NOT AND DUP3 PUSH28 0xFFFFFFFFFFFFFFFFFFFFFFFFFFFFFFFFFFFFFFFFFFFFFFFFFFFFFFFF NOT AND EQ DUP1 PUSH2 0x22C3 JUMPI POP PUSH32 0x5B5E139F00000000000000000000000000000000000000000000000000000000 PUSH28 0xFFFFFFFFFFFFFFFFFFFFFFFFFFFFFFFFFFFFFFFFFFFFFFFFFFFFFFFF NOT AND DUP3 PUSH28 0xFFFFFFFFFFFFFFFFFFFFFFFFFFFFFFFFFFFFFFFFFFFFFFFFFFFFFFFF NOT AND EQ JUMPDEST DUP1 PUSH2 0x22D3 JUMPI POP PUSH2 0x22D2 DUP3 PUSH2 0x2AA1 JUMP JUMPDEST JUMPDEST SWAP1 POP SWAP2 SWAP1 POP JUMP JUMPDEST PUSH2 0x22E5 DUP4 DUP4 DUP4 PUSH2 0x2B0B JUMP JUMPDEST PUSH1 0x0 PUSH20 0xFFFFFFFFFFFFFFFFFFFFFFFFFFFFFFFFFFFFFFFF AND DUP4 PUSH20 0xFFFFFFFFFFFFFFFFFFFFFFFFFFFFFFFFFFFFFFFF AND SUB PUSH2 0x2327 JUMPI PUSH2 0x2322 DUP2 PUSH2 0x2B10 JUMP JUMPDEST PUSH2 0x2366 JUMP JUMPDEST DUP2 PUSH20 0xFFFFFFFFFFFFFFFFFFFFFFFFFFFFFFFFFFFFFFFF AND DUP4 PUSH20 0xFFFFFFFFFFFFFFFFFFFFFFFFFFFFFFFFFFFFFFFF AND EQ PUSH2 0x2365 JUMPI PUSH2 0x2364 DUP4 DUP3 PUSH2 0x2B59 JUMP JUMPDEST JUMPDEST JUMPDEST PUSH1 0x0 PUSH20 0xFFFFFFFFFFFFFFFFFFFFFFFFFFFFFFFFFFFFFFFF AND DUP3 PUSH20 0xFFFFFFFFFFFFFFFFFFFFFFFFFFFFFFFFFFFFFFFF AND SUB PUSH2 0x23A8 JUMPI PUSH2 0x23A3 DUP2 PUSH2 0x2CC6 JUMP JUMPDEST PUSH2 0x23E7 JUMP JUMPDEST DUP3 PUSH20 0xFFFFFFFFFFFFFFFFFFFFFFFFFFFFFFFFFFFFFFFF AND DUP3 PUSH20 0xFFFFFFFFFFFFFFFFFFFFFFFFFFFFFFFFFFFFFFFF AND EQ PUSH2 0x23E6 JUMPI PUSH2 0x23E5 DUP3 DUP3 PUSH2 0x2D97 JUMP JUMPDEST JUMPDEST JUMPDEST POP POP POP JUMP JUMPDEST PUSH1 0x60 PUSH1 0x0 PUSH1 0x2 DUP4 PUSH1 0x2 PUSH2 0x23FF SWAP2 SWAP1 PUSH2 0x47C1 JUMP JUMPDEST PUSH2 0x2409 SWAP2 SWAP1 PUSH2 0x41D5 JUMP JUMPDEST PUSH8 0xFFFFFFFFFFFFFFFF DUP2 GT ISZERO PUSH2 0x2422 JUMPI PUSH2 0x2421 PUSH2 0x3132 JUMP JUMPDEST JUMPDEST PUSH1 0x40 MLOAD SWAP1 DUP1 DUP3 MSTORE DUP1 PUSH1 0x1F ADD PUSH1 0x1F NOT AND PUSH1 0x20 ADD DUP3 ADD PUSH1 0x40 MSTORE DUP1 ISZERO PUSH2 0x2454 JUMPI DUP2 PUSH1 0x20 ADD PUSH1 0x1 DUP3 MUL DUP1 CALLDATASIZE DUP4 CALLDATACOPY DUP1 DUP3 ADD SWAP2 POP POP SWAP1 POP JUMPDEST POP SWAP1 POP PUSH32 0x3000000000000000000000000000000000000000000000000000000000000000 DUP2 PUSH1 0x0 DUP2 MLOAD DUP2 LT PUSH2 0x248C JUMPI PUSH2 0x248B PUSH2 0x3DB7 JUMP JUMPDEST JUMPDEST PUSH1 0x20 ADD ADD SWAP1 PUSH31 0xFFFFFFFFFFFFFFFFFFFFFFFFFFFFFFFFFFFFFFFFFFFFFFFFFFFFFFFFFFFFFF NOT AND SWAP1 DUP2 PUSH1 0x0 BYTE SWAP1 MSTORE8 POP PUSH32 0x7800000000000000000000000000000000000000000000000000000000000000 DUP2 PUSH1 0x1 DUP2 MLOAD DUP2 LT PUSH2 0x24F0 JUMPI PUSH2 0x24EF PUSH2 0x3DB7 JUMP JUMPDEST JUMPDEST PUSH1 0x20 ADD ADD SWAP1 PUSH31 0xFFFFFFFFFFFFFFFFFFFFFFFFFFFFFFFFFFFFFFFFFFFFFFFFFFFFFFFFFFFFFF NOT AND SWAP1 DUP2 PUSH1 0x0 BYTE SWAP1 MSTORE8 POP PUSH1 0x0 PUSH1 0x1 DUP5 PUSH1 0x2 PUSH2 0x2530 SWAP2 SWAP1 PUSH2 0x47C1 JUMP JUMPDEST PUSH2 0x253A SWAP2 SWAP1 PUSH2 0x41D5 JUMP JUMPDEST SWAP1 POP JUMPDEST PUSH1 0x1 DUP2 GT ISZERO PUSH2 0x25DA JUMPI PUSH32 0x3031323334353637383961626364656600000000000000000000000000000000 PUSH1 0xF DUP7 AND PUSH1 0x10 DUP2 LT PUSH2 0x257C JUMPI PUSH2 0x257B PUSH2 0x3DB7 JUMP JUMPDEST JUMPDEST BYTE PUSH1 0xF8 SHL DUP3 DUP3 DUP2 MLOAD DUP2 LT PUSH2 0x2593 JUMPI PUSH2 0x2592 PUSH2 0x3DB7 JUMP JUMPDEST JUMPDEST PUSH1 0x20 ADD ADD SWAP1 PUSH31 0xFFFFFFFFFFFFFFFFFFFFFFFFFFFFFFFFFFFFFFFFFFFFFFFFFFFFFFFFFFFFFF NOT AND SWAP1 DUP2 PUSH1 0x0 BYTE SWAP1 MSTORE8 POP PUSH1 0x4 DUP6 SWAP1 SHR SWAP5 POP DUP1 PUSH2 0x25D3 SWAP1 PUSH2 0x481B JUMP JUMPDEST SWAP1 POP PUSH2 0x253D JUMP JUMPDEST POP PUSH1 0x0 DUP5 EQ PUSH2 0x261E JUMPI PUSH1 0x40 MLOAD PUSH32 0x8C379A000000000000000000000000000000000000000000000000000000000 DUP2 MSTORE PUSH1 0x4 ADD PUSH2 0x2615 SWAP1 PUSH2 0x4890 JUMP JUMPDEST PUSH1 0x40 MLOAD DUP1 SWAP2 SUB SWAP1 REVERT JUMPDEST DUP1 SWAP2 POP POP SWAP3 SWAP2 POP POP JUMP JUMPDEST PUSH1 0x0 PUSH2 0x2633 DUP3 PUSH2 0xBC0 JUMP JUMPDEST SWAP1 POP PUSH2 0x2641 DUP2 PUSH1 0x0 DUP5 PUSH2 0x1D90 JUMP JUMPDEST PUSH2 0x264C PUSH1 0x0 DUP4 PUSH2 0x1229 JUMP JUMPDEST PUSH1 0x1 PUSH1 0x3 PUSH1 0x0 DUP4 PUSH20 0xFFFFFFFFFFFFFFFFFFFFFFFFFFFFFFFFFFFFFFFF AND PUSH20 0xFFFFFFFFFFFFFFFFFFFFFFFFFFFFFFFFFFFFFFFF AND DUP2 MSTORE PUSH1 0x20 ADD SWAP1 DUP2 MSTORE PUSH1 0x20 ADD PUSH1 0x0 KECCAK256 PUSH1 0x0 DUP3 DUP3 SLOAD PUSH2 0x269C SWAP2 SWAP1 PUSH2 0x41A1 JUMP JUMPDEST SWAP3 POP POP DUP2 SWAP1 SSTORE POP PUSH1 0x2 PUSH1 0x0 DUP4 DUP2 MSTORE PUSH1 0x20 ADD SWAP1 DUP2 MSTORE PUSH1 0x20 ADD PUSH1 0x0 KECCAK256 PUSH1 0x0 PUSH2 0x100 EXP DUP2 SLOAD SWAP1 PUSH20 0xFFFFFFFFFFFFFFFFFFFFFFFFFFFFFFFFFFFFFFFF MUL NOT AND SWAP1 SSTORE DUP2 PUSH1 0x0 PUSH20 0xFFFFFFFFFFFFFFFFFFFFFFFFFFFFFFFFFFFFFFFF AND DUP3 PUSH20 0xFFFFFFFFFFFFFFFFFFFFFFFFFFFFFFFFFFFFFFFF AND PUSH32 0xDDF252AD1BE2C89B69C2B068FC378DAA952BA7F163C4A11628F55A4DF523B3EF PUSH1 0x40 MLOAD PUSH1 0x40 MLOAD DUP1 SWAP2 SUB SWAP1 LOG4 PUSH2 0x2741 DUP2 PUSH1 0x0 DUP5 PUSH2 0x1DE8 JUMP JUMPDEST POP POP JUMP JUMPDEST PUSH1 0x0 DUP1 DUP3 PUSH20 0xFFFFFFFFFFFFFFFFFFFFFFFFFFFFFFFFFFFFFFFF AND EXTCODESIZE GT SWAP1 POP SWAP2 SWAP1 POP JUMP JUMPDEST PUSH1 0x60 PUSH1 0x0 DUP3 SUB PUSH2 0x27AF JUMPI PUSH1 0x40 MLOAD DUP1 PUSH1 0x40 ADD PUSH1 0x40 MSTORE DUP1 PUSH1 0x1 DUP2 MSTORE PUSH1 0x20 ADD PUSH32 0x3000000000000000000000000000000000000000000000000000000000000000 DUP2 MSTORE POP SWAP1 POP PUSH2 0x28C3 JUMP JUMPDEST PUSH1 0x0 DUP3 SWAP1 POP PUSH1 0x0 JUMPDEST PUSH1 0x0 DUP3 EQ PUSH2 0x27E1 JUMPI DUP1 DUP1 PUSH2 0x27CA SWAP1 PUSH2 0x48B0 JUMP JUMPDEST SWAP2 POP POP PUSH1 0xA DUP3 PUSH2 0x27DA SWAP2 SWAP1 PUSH2 0x4927 JUMP JUMPDEST SWAP2 POP PUSH2 0x27B7 JUMP JUMPDEST PUSH1 0x0 DUP2 PUSH8 0xFFFFFFFFFFFFFFFF DUP2 GT ISZERO PUSH2 0x27FD JUMPI PUSH2 0x27FC PUSH2 0x3132 JUMP JUMPDEST JUMPDEST PUSH1 0x40 MLOAD SWAP1 DUP1 DUP3 MSTORE DUP1 PUSH1 0x1F ADD PUSH1 0x1F NOT AND PUSH1 0x20 ADD DUP3 ADD PUSH1 0x40 MSTORE DUP1 ISZERO PUSH2 0x282F JUMPI DUP2 PUSH1 0x20 ADD PUSH1 0x1 DUP3 MUL DUP1 CALLDATASIZE DUP4 CALLDATACOPY DUP1 DUP3 ADD SWAP2 POP POP SWAP1 POP JUMPDEST POP SWAP1 POP JUMPDEST PUSH1 0x0 DUP6 EQ PUSH2 0x28BC JUMPI PUSH1 0x1 DUP3 PUSH2 0x2848 SWAP2 SWAP1 PUSH2 0x41A1 JUMP JUMPDEST SWAP2 POP PUSH1 0xA DUP6 PUSH2 0x2857 SWAP2 SWAP1 PUSH2 0x4958 JUMP JUMPDEST PUSH1 0x30 PUSH2 0x2863 SWAP2 SWAP1 PUSH2 0x41D5 JUMP JUMPDEST PUSH1 0xF8 SHL DUP2 DUP4 DUP2 MLOAD DUP2 LT PUSH2 0x2879 JUMPI PUSH2 0x2878 PUSH2 0x3DB7 JUMP JUMPDEST JUMPDEST PUSH1 0x20 ADD ADD SWAP1 PUSH31 0xFFFFFFFFFFFFFFFFFFFFFFFFFFFFFFFFFFFFFFFFFFFFFFFFFFFFFFFFFFFFFF NOT AND SWAP1 DUP2 PUSH1 0x0 BYTE SWAP1 MSTORE8 POP PUSH1 0xA DUP6 PUSH2 0x28B5 SWAP2 SWAP1 PUSH2 0x4927 JUMP JUMPDEST SWAP5 POP PUSH2 0x2833 JUMP JUMPDEST DUP1 SWAP4 POP POP POP POP JUMPDEST SWAP2 SWAP1 POP JUMP JUMPDEST PUSH1 0x0 PUSH20 0xFFFFFFFFFFFFFFFFFFFFFFFFFFFFFFFFFFFFFFFF AND DUP3 PUSH20 0xFFFFFFFFFFFFFFFFFFFFFFFFFFFFFFFFFFFFFFFF AND SUB PUSH2 0x2937 JUMPI PUSH1 0x40 MLOAD PUSH32 0x8C379A000000000000000000000000000000000000000000000000000000000 DUP2 MSTORE PUSH1 0x4 ADD PUSH2 0x292E SWAP1 PUSH2 0x49D5 JUMP JUMPDEST PUSH1 0x40 MLOAD DUP1 SWAP2 SUB SWAP1 REVERT JUMPDEST PUSH2 0x2940 DUP2 PUSH2 0x11B5 JUMP JUMPDEST ISZERO PUSH2 0x2980 JUMPI PUSH1 0x40 MLOAD PUSH32 0x8C379A000000000000000000000000000000000000000000000000000000000 DUP2 MSTORE PUSH1 0x4 ADD PUSH2 0x2977 SWAP1 PUSH2 0x4A41 JUMP JUMPDEST PUSH1 0x40 MLOAD DUP1 SWAP2 SUB SWAP1 REVERT JUMPDEST PUSH2 0x298C PUSH1 0x0 DUP4 DUP4 PUSH2 0x1D90 JUMP JUMPDEST PUSH1 0x1 PUSH1 0x3 PUSH1 0x0 DUP5 PUSH20 0xFFFFFFFFFFFFFFFFFFFFFFFFFFFFFFFFFFFFFFFF AND PUSH20 0xFFFFFFFFFFFFFFFFFFFFFFFFFFFFFFFFFFFFFFFF AND DUP2 MSTORE PUSH1 0x20 ADD SWAP1 DUP2 MSTORE PUSH1 0x20 ADD PUSH1 0x0 KECCAK256 PUSH1 0x0 DUP3 DUP3 SLOAD PUSH2 0x29DC SWAP2 SWAP1 PUSH2 0x41D5 JUMP JUMPDEST SWAP3 POP POP DUP2 SWAP1 SSTORE POP DUP2 PUSH1 0x2 PUSH1 0x0 DUP4 DUP2 MSTORE PUSH1 0x20 ADD SWAP1 DUP2 MSTORE PUSH1 0x20 ADD PUSH1 0x0 KECCAK256 PUSH1 0x0 PUSH2 0x100 EXP DUP2 SLOAD DUP2 PUSH20 0xFFFFFFFFFFFFFFFFFFFFFFFFFFFFFFFFFFFFFFFF MUL NOT AND SWAP1 DUP4 PUSH20 0xFFFFFFFFFFFFFFFFFFFFFFFFFFFFFFFFFFFFFFFF AND MUL OR SWAP1 SSTORE POP DUP1 DUP3 PUSH20 0xFFFFFFFFFFFFFFFFFFFFFFFFFFFFFFFFFFFFFFFF AND PUSH1 0x0 PUSH20 0xFFFFFFFFFFFFFFFFFFFFFFFFFFFFFFFFFFFFFFFF AND PUSH32 0xDDF252AD1BE2C89B69C2B068FC378DAA952BA7F163C4A11628F55A4DF523B3EF PUSH1 0x40 MLOAD PUSH1 0x40 MLOAD DUP1 SWAP2 SUB SWAP1 LOG4 PUSH2 0x2A9D PUSH1 0x0 DUP4 DUP4 PUSH2 0x1DE8 JUMP JUMPDEST POP POP JUMP JUMPDEST PUSH1 0x0 PUSH32 0x1FFC9A700000000000000000000000000000000000000000000000000000000 PUSH28 0xFFFFFFFFFFFFFFFFFFFFFFFFFFFFFFFFFFFFFFFFFFFFFFFFFFFFFFFF NOT AND DUP3 PUSH28 0xFFFFFFFFFFFFFFFFFFFFFFFFFFFFFFFFFFFFFFFFFFFFFFFFFFFFFFFF NOT AND EQ SWAP1 POP SWAP2 SWAP1 POP JUMP JUMPDEST POP POP POP JUMP JUMPDEST PUSH1 0x8 DUP1 SLOAD SWAP1 POP PUSH1 0x9 PUSH1 0x0 DUP4 DUP2 MSTORE PUSH1 0x20 ADD SWAP1 DUP2 MSTORE PUSH1 0x20 ADD PUSH1 0x0 KECCAK256 DUP2 SWAP1 SSTORE POP PUSH1 0x8 DUP2 SWAP1 DUP1 PUSH1 0x1 DUP2 SLOAD ADD DUP1 DUP3 SSTORE DUP1 SWAP2 POP POP PUSH1 0x1 SWAP1 SUB SWAP1 PUSH1 0x0 MSTORE PUSH1 0x20 PUSH1 0x0 KECCAK256 ADD PUSH1 0x0 SWAP1 SWAP2 SWAP1 SWAP2 SWAP1 SWAP2 POP SSTORE POP JUMP JUMPDEST PUSH1 0x0 PUSH1 0x1 PUSH2 0x2B66 DUP5 PUSH2 0xC71 JUMP JUMPDEST PUSH2 0x2B70 SWAP2 SWAP1 PUSH2 0x41A1 JUMP JUMPDEST SWAP1 POP PUSH1 0x0 PUSH1 0x7 PUSH1 0x0 DUP5 DUP2 MSTORE PUSH1 0x20 ADD SWAP1 DUP2 MSTORE PUSH1 0x20 ADD PUSH1 0x0 KECCAK256 SLOAD SWAP1 POP DUP2 DUP2 EQ PUSH2 0x2C55 JUMPI PUSH1 0x0 PUSH1 0x6 PUSH1 0x0 DUP7 PUSH20 0xFFFFFFFFFFFFFFFFFFFFFFFFFFFFFFFFFFFFFFFF AND PUSH20 0xFFFFFFFFFFFFFFFFFFFFFFFFFFFFFFFFFFFFFFFF AND DUP2 MSTORE PUSH1 0x20 ADD SWAP1 DUP2 MSTORE PUSH1 0x20 ADD PUSH1 0x0 KECCAK256 PUSH1 0x0 DUP5 DUP2 MSTORE PUSH1 0x20 ADD SWAP1 DUP2 MSTORE PUSH1 0x20 ADD PUSH1 0x0 KECCAK256 SLOAD SWAP1 POP DUP1 PUSH1 0x6 PUSH1 0x0 DUP8 PUSH20 0xFFFFFFFFFFFFFFFFFFFFFFFFFFFFFFFFFFFFFFFF AND PUSH20 0xFFFFFFFFFFFFFFFFFFFFFFFFFFFFFFFFFFFFFFFF AND DUP2 MSTORE PUSH1 0x20 ADD SWAP1 DUP2 MSTORE PUSH1 0x20 ADD PUSH1 0x0 KECCAK256 PUSH1 0x0 DUP5 DUP2 MSTORE PUSH1 0x20 ADD SWAP1 DUP2 MSTORE PUSH1 0x20 ADD PUSH1 0x0 KECCAK256 DUP2 SWAP1 SSTORE POP DUP2 PUSH1 0x7 PUSH1 0x0 DUP4 DUP2 MSTORE PUSH1 0x20 ADD SWAP1 DUP2 MSTORE PUSH1 0x20 ADD PUSH1 0x0 KECCAK256 DUP2 SWAP1 SSTORE POP POP JUMPDEST PUSH1 0x7 PUSH1 0x0 DUP5 DUP2 MSTORE PUSH1 0x20 ADD SWAP1 DUP2 MSTORE PUSH1 0x20 ADD PUSH1 0x0 KECCAK256 PUSH1 0x0 SWAP1 SSTORE PUSH1 0x6 PUSH1 0x0 DUP6 PUSH20 0xFFFFFFFFFFFFFFFFFFFFFFFFFFFFFFFFFFFFFFFF AND PUSH20 0xFFFFFFFFFFFFFFFFFFFFFFFFFFFFFFFFFFFFFFFF AND DUP2 MSTORE PUSH1 0x20 ADD SWAP1 DUP2 MSTORE PUSH1 0x20 ADD PUSH1 0x0 KECCAK256 PUSH1 0x0 DUP4 DUP2 MSTORE PUSH1 0x20 ADD SWAP1 DUP2 MSTORE PUSH1 0x20 ADD PUSH1 0x0 KECCAK256 PUSH1 0x0 SWAP1 SSTORE POP POP POP POP JUMP JUMPDEST PUSH1 0x0 PUSH1 0x1 PUSH1 0x8 DUP1 SLOAD SWAP1 POP PUSH2 0x2CDA SWAP2 SWAP1 PUSH2 0x41A1 JUMP JUMPDEST SWAP1 POP PUSH1 0x0 PUSH1 0x9 PUSH1 0x0 DUP5 DUP2 MSTORE PUSH1 0x20 ADD SWAP1 DUP2 MSTORE PUSH1 0x20 ADD PUSH1 0x0 KECCAK256 SLOAD SWAP1 POP PUSH1 0x0 PUSH1 0x8 DUP4 DUP2 SLOAD DUP2 LT PUSH2 0x2D0A JUMPI PUSH2 0x2D09 PUSH2 0x3DB7 JUMP JUMPDEST JUMPDEST SWAP1 PUSH1 0x0 MSTORE PUSH1 0x20 PUSH1 0x0 KECCAK256 ADD SLOAD SWAP1 POP DUP1 PUSH1 0x8 DUP4 DUP2 SLOAD DUP2 LT PUSH2 0x2D2C JUMPI PUSH2 0x2D2B PUSH2 0x3DB7 JUMP JUMPDEST JUMPDEST SWAP1 PUSH1 0x0 MSTORE PUSH1 0x20 PUSH1 0x0 KECCAK256 ADD DUP2 SWAP1 SSTORE POP DUP2 PUSH1 0x9 PUSH1 0x0 DUP4 DUP2 MSTORE PUSH1 0x20 ADD SWAP1 DUP2 MSTORE PUSH1 0x20 ADD PUSH1 0x0 KECCAK256 DUP2 SWAP1 SSTORE POP PUSH1 0x9 PUSH1 0x0 DUP6 DUP2 MSTORE PUSH1 0x20 ADD SWAP1 DUP2 MSTORE PUSH1 0x20 ADD PUSH1 0x0 KECCAK256 PUSH1 0x0 SWAP1 SSTORE PUSH1 0x8 DUP1 SLOAD DUP1 PUSH2 0x2D7B JUMPI PUSH2 0x2D7A PUSH2 0x4A61 JUMP JUMPDEST JUMPDEST PUSH1 0x1 SWAP1 SUB DUP2 DUP2 SWAP1 PUSH1 0x0 MSTORE PUSH1 0x20 PUSH1 0x0 KECCAK256 ADD PUSH1 0x0 SWAP1 SSTORE SWAP1 SSTORE POP POP POP POP JUMP JUMPDEST PUSH1 0x0 PUSH2 0x2DA2 DUP4 PUSH2 0xC71 JUMP JUMPDEST SWAP1 POP DUP2 PUSH1 0x6 PUSH1 0x0 DUP6 PUSH20 0xFFFFFFFFFFFFFFFFFFFFFFFFFFFFFFFFFFFFFFFF AND PUSH20 0xFFFFFFFFFFFFFFFFFFFFFFFFFFFFFFFFFFFFFFFF AND DUP2 MSTORE PUSH1 0x20 ADD SWAP1 DUP2 MSTORE PUSH1 0x20 ADD PUSH1 0x0 KECCAK256 PUSH1 0x0 DUP4 DUP2 MSTORE PUSH1 0x20 ADD SWAP1 DUP2 MSTORE PUSH1 0x20 ADD PUSH1 0x0 KECCAK256 DUP2 SWAP1 SSTORE POP DUP1 PUSH1 0x7 PUSH1 0x0 DUP5 DUP2 MSTORE PUSH1 0x20 ADD SWAP1 DUP2 MSTORE PUSH1 0x20 ADD PUSH1 0x0 KECCAK256 DUP2 SWAP1 SSTORE POP POP POP POP JUMP JUMPDEST POP DUP1 SLOAD PUSH2 0x2E22 SWAP1 PUSH2 0x3678 JUMP JUMPDEST PUSH1 0x0 DUP3 SSTORE DUP1 PUSH1 0x1F LT PUSH2 0x2E34 JUMPI POP PUSH2 0x2E53 JUMP JUMPDEST PUSH1 0x1F ADD PUSH1 0x20 SWAP1 DIV SWAP1 PUSH1 0x0 MSTORE PUSH1 0x20 PUSH1 0x0 KECCAK256 SWAP1 DUP2 ADD SWAP1 PUSH2 0x2E52 SWAP2 SWAP1 PUSH2 0x2E56 JUMP JUMPDEST JUMPDEST POP JUMP JUMPDEST JUMPDEST DUP1 DUP3 GT ISZERO PUSH2 0x2E6F JUMPI PUSH1 0x0 DUP2 PUSH1 0x0 SWAP1 SSTORE POP PUSH1 0x1 ADD PUSH2 0x2E57 JUMP JUMPDEST POP SWAP1 JUMP JUMPDEST PUSH1 0x0 PUSH1 0x40 MLOAD SWAP1 POP SWAP1 JUMP JUMPDEST PUSH1 0x0 DUP1 REVERT JUMPDEST PUSH1 0x0 DUP1 REVERT JUMPDEST PUSH1 0x0 PUSH32 0xFFFFFFFF00000000000000000000000000000000000000000000000000000000 DUP3 AND SWAP1 POP SWAP2 SWAP1 POP JUMP JUMPDEST PUSH2 0x2EBC DUP2 PUSH2 0x2E87 JUMP JUMPDEST DUP2 EQ PUSH2 0x2EC7 JUMPI PUSH1 0x0 DUP1 REVERT JUMPDEST POP JUMP JUMPDEST PUSH1 0x0 DUP2 CALLDATALOAD SWAP1 POP PUSH2 0x2ED9 DUP2 PUSH2 0x2EB3 JUMP JUMPDEST SWAP3 SWAP2 POP POP JUMP JUMPDEST PUSH1 0x0 PUSH1 0x20 DUP3 DUP5 SUB SLT ISZERO PUSH2 0x2EF5 JUMPI PUSH2 0x2EF4 PUSH2 0x2E7D JUMP JUMPDEST JUMPDEST PUSH1 0x0 PUSH2 0x2F03 DUP5 DUP3 DUP6 ADD PUSH2 0x2ECA JUMP JUMPDEST SWAP2 POP POP SWAP3 SWAP2 POP POP JUMP JUMPDEST PUSH1 0x0 DUP2 ISZERO ISZERO SWAP1 POP SWAP2 SWAP1 POP JUMP JUMPDEST PUSH2 0x2F21 DUP2 PUSH2 0x2F0C JUMP JUMPDEST DUP3 MSTORE POP POP JUMP JUMPDEST PUSH1 0x0 PUSH1 0x20 DUP3 ADD SWAP1 POP PUSH2 0x2F3C PUSH1 0x0 DUP4 ADD DUP5 PUSH2 0x2F18 JUMP JUMPDEST SWAP3 SWAP2 POP POP JUMP JUMPDEST PUSH1 0x0 DUP2 MLOAD SWAP1 POP SWAP2 SWAP1 POP JUMP JUMPDEST PUSH1 0x0 DUP3 DUP3 MSTORE PUSH1 0x20 DUP3 ADD SWAP1 POP SWAP3 SWAP2 POP POP JUMP JUMPDEST PUSH1 0x0 JUMPDEST DUP4 DUP2 LT ISZERO PUSH2 0x2F7C JUMPI DUP1 DUP3 ADD MLOAD DUP2 DUP5 ADD MSTORE PUSH1 0x20 DUP2 ADD SWAP1 POP PUSH2 0x2F61 JUMP JUMPDEST DUP4 DUP2 GT ISZERO PUSH2 0x2F8B JUMPI PUSH1 0x0 DUP5 DUP5 ADD MSTORE JUMPDEST POP POP POP POP JUMP JUMPDEST PUSH1 0x0 PUSH1 0x1F NOT PUSH1 0x1F DUP4 ADD AND SWAP1 POP SWAP2 SWAP1 POP JUMP JUMPDEST PUSH1 0x0 PUSH2 0x2FAD DUP3 PUSH2 0x2F42 JUMP JUMPDEST PUSH2 0x2FB7 DUP2 DUP6 PUSH2 0x2F4D JUMP JUMPDEST SWAP4 POP PUSH2 0x2FC7 DUP2 DUP6 PUSH1 0x20 DUP7 ADD PUSH2 0x2F5E JUMP JUMPDEST PUSH2 0x2FD0 DUP2 PUSH2 0x2F91 JUMP JUMPDEST DUP5 ADD SWAP2 POP POP SWAP3 SWAP2 POP POP JUMP JUMPDEST PUSH1 0x0 PUSH1 0x20 DUP3 ADD SWAP1 POP DUP2 DUP2 SUB PUSH1 0x0 DUP4 ADD MSTORE PUSH2 0x2FF5 DUP2 DUP5 PUSH2 0x2FA2 JUMP JUMPDEST SWAP1 POP SWAP3 SWAP2 POP POP JUMP JUMPDEST PUSH1 0x0 DUP2 SWAP1 POP SWAP2 SWAP1 POP JUMP JUMPDEST PUSH2 0x3010 DUP2 PUSH2 0x2FFD JUMP JUMPDEST DUP2 EQ PUSH2 0x301B JUMPI PUSH1 0x0 DUP1 REVERT JUMPDEST POP JUMP JUMPDEST PUSH1 0x0 DUP2 CALLDATALOAD SWAP1 POP PUSH2 0x302D DUP2 PUSH2 0x3007 JUMP JUMPDEST SWAP3 SWAP2 POP POP JUMP JUMPDEST PUSH1 0x0 PUSH1 0x20 DUP3 DUP5 SUB SLT ISZERO PUSH2 0x3049 JUMPI PUSH2 0x3048 PUSH2 0x2E7D JUMP JUMPDEST JUMPDEST PUSH1 0x0 PUSH2 0x3057 DUP5 DUP3 DUP6 ADD PUSH2 0x301E JUMP JUMPDEST SWAP2 POP POP SWAP3 SWAP2 POP POP JUMP JUMPDEST PUSH1 0x0 PUSH20 0xFFFFFFFFFFFFFFFFFFFFFFFFFFFFFFFFFFFFFFFF DUP3 AND SWAP1 POP SWAP2 SWAP1 POP JUMP JUMPDEST PUSH1 0x0 PUSH2 0x308B DUP3 PUSH2 0x3060 JUMP JUMPDEST SWAP1 POP SWAP2 SWAP1 POP JUMP JUMPDEST PUSH2 0x309B DUP2 PUSH2 0x3080 JUMP JUMPDEST DUP3 MSTORE POP POP JUMP JUMPDEST PUSH1 0x0 PUSH1 0x20 DUP3 ADD SWAP1 POP PUSH2 0x30B6 PUSH1 0x0 DUP4 ADD DUP5 PUSH2 0x3092 JUMP JUMPDEST SWAP3 SWAP2 POP POP JUMP JUMPDEST PUSH2 0x30C5 DUP2 PUSH2 0x3080 JUMP JUMPDEST DUP2 EQ PUSH2 0x30D0 JUMPI PUSH1 0x0 DUP1 REVERT JUMPDEST POP JUMP JUMPDEST PUSH1 0x0 DUP2 CALLDATALOAD SWAP1 POP PUSH2 0x30E2 DUP2 PUSH2 0x30BC JUMP JUMPDEST SWAP3 SWAP2 POP POP JUMP JUMPDEST PUSH1 0x0 DUP1 PUSH1 0x40 DUP4 DUP6 SUB SLT ISZERO PUSH2 0x30FF JUMPI PUSH2 0x30FE PUSH2 0x2E7D JUMP JUMPDEST JUMPDEST PUSH1 0x0 PUSH2 0x310D DUP6 DUP3 DUP7 ADD PUSH2 0x30D3 JUMP JUMPDEST SWAP3 POP POP PUSH1 0x20 PUSH2 0x311E DUP6 DUP3 DUP7 ADD PUSH2 0x301E JUMP JUMPDEST SWAP2 POP POP SWAP3 POP SWAP3 SWAP1 POP JUMP JUMPDEST PUSH1 0x0 DUP1 REVERT JUMPDEST PUSH1 0x0 DUP1 REVERT JUMPDEST PUSH32 0x4E487B7100000000000000000000000000000000000000000000000000000000 PUSH1 0x0 MSTORE PUSH1 0x41 PUSH1 0x4 MSTORE PUSH1 0x24 PUSH1 0x0 REVERT JUMPDEST PUSH2 0x316A DUP3 PUSH2 0x2F91 JUMP JUMPDEST DUP2 ADD DUP2 DUP2 LT PUSH8 0xFFFFFFFFFFFFFFFF DUP3 GT OR ISZERO PUSH2 0x3189 JUMPI PUSH2 0x3188 PUSH2 0x3132 JUMP JUMPDEST JUMPDEST DUP1 PUSH1 0x40 MSTORE POP POP POP JUMP JUMPDEST PUSH1 0x0 PUSH2 0x319C PUSH2 0x2E73 JUMP JUMPDEST SWAP1 POP PUSH2 0x31A8 DUP3 DUP3 PUSH2 0x3161 JUMP JUMPDEST SWAP2 SWAP1 POP JUMP JUMPDEST PUSH1 0x0 PUSH8 0xFFFFFFFFFFFFFFFF DUP3 GT ISZERO PUSH2 0x31C8 JUMPI PUSH2 0x31C7 PUSH2 0x3132 JUMP JUMPDEST JUMPDEST PUSH2 0x31D1 DUP3 PUSH2 0x2F91 JUMP JUMPDEST SWAP1 POP PUSH1 0x20 DUP2 ADD SWAP1 POP SWAP2 SWAP1 POP JUMP JUMPDEST DUP3 DUP2 DUP4 CALLDATACOPY PUSH1 0x0 DUP4 DUP4 ADD MSTORE POP POP POP JUMP JUMPDEST PUSH1 0x0 PUSH2 0x3200 PUSH2 0x31FB DUP5 PUSH2 0x31AD JUMP JUMPDEST PUSH2 0x3192 JUMP JUMPDEST SWAP1 POP DUP3 DUP2 MSTORE PUSH1 0x20 DUP2 ADD DUP5 DUP5 DUP5 ADD GT ISZERO PUSH2 0x321C JUMPI PUSH2 0x321B PUSH2 0x312D JUMP JUMPDEST JUMPDEST PUSH2 0x3227 DUP5 DUP3 DUP6 PUSH2 0x31DE JUMP JUMPDEST POP SWAP4 SWAP3 POP POP POP JUMP JUMPDEST PUSH1 0x0 DUP3 PUSH1 0x1F DUP4 ADD SLT PUSH2 0x3244 JUMPI PUSH2 0x3243 PUSH2 0x3128 JUMP JUMPDEST JUMPDEST DUP2 CALLDATALOAD PUSH2 0x3254 DUP5 DUP3 PUSH1 0x20 DUP7 ADD PUSH2 0x31ED JUMP JUMPDEST SWAP2 POP POP SWAP3 SWAP2 POP POP JUMP JUMPDEST PUSH1 0x0 PUSH1 0x20 DUP3 DUP5 SUB SLT ISZERO PUSH2 0x3273 JUMPI PUSH2 0x3272 PUSH2 0x2E7D JUMP JUMPDEST JUMPDEST PUSH1 0x0 DUP3 ADD CALLDATALOAD PUSH8 0xFFFFFFFFFFFFFFFF DUP2 GT ISZERO PUSH2 0x3291 JUMPI PUSH2 0x3290 PUSH2 0x2E82 JUMP JUMPDEST JUMPDEST PUSH2 0x329D DUP5 DUP3 DUP6 ADD PUSH2 0x322F JUMP JUMPDEST SWAP2 POP POP SWAP3 SWAP2 POP POP JUMP JUMPDEST PUSH2 0x32AF DUP2 PUSH2 0x2FFD JUMP JUMPDEST DUP3 MSTORE POP POP JUMP JUMPDEST PUSH1 0x0 PUSH1 0x20 DUP3 ADD SWAP1 POP PUSH2 0x32CA PUSH1 0x0 DUP4 ADD DUP5 PUSH2 0x32A6 JUMP JUMPDEST SWAP3 SWAP2 POP POP JUMP JUMPDEST PUSH1 0x0 DUP1 PUSH1 0x0 PUSH1 0x60 DUP5 DUP7 SUB SLT ISZERO PUSH2 0x32E9 JUMPI PUSH2 0x32E8 PUSH2 0x2E7D JUMP JUMPDEST JUMPDEST PUSH1 0x0 PUSH2 0x32F7 DUP7 DUP3 DUP8 ADD PUSH2 0x30D3 JUMP JUMPDEST SWAP4 POP POP PUSH1 0x20 PUSH2 0x3308 DUP7 DUP3 DUP8 ADD PUSH2 0x30D3 JUMP JUMPDEST SWAP3 POP POP PUSH1 0x40 PUSH2 0x3319 DUP7 DUP3 DUP8 ADD PUSH2 0x301E JUMP JUMPDEST SWAP2 POP POP SWAP3 POP SWAP3 POP SWAP3 JUMP JUMPDEST PUSH1 0x0 DUP2 SWAP1 POP SWAP2 SWAP1 POP JUMP JUMPDEST PUSH2 0x3336 DUP2 PUSH2 0x3323 JUMP JUMPDEST DUP2 EQ PUSH2 0x3341 JUMPI PUSH1 0x0 DUP1 REVERT JUMPDEST POP JUMP JUMPDEST PUSH1 0x0 DUP2 CALLDATALOAD SWAP1 POP PUSH2 0x3353 DUP2 PUSH2 0x332D JUMP JUMPDEST SWAP3 SWAP2 POP POP JUMP JUMPDEST PUSH1 0x0 PUSH1 0x20 DUP3 DUP5 SUB SLT ISZERO PUSH2 0x336F JUMPI PUSH2 0x336E PUSH2 0x2E7D JUMP JUMPDEST JUMPDEST PUSH1 0x0 PUSH2 0x337D DUP5 DUP3 DUP6 ADD PUSH2 0x3344 JUMP JUMPDEST SWAP2 POP POP SWAP3 SWAP2 POP POP JUMP JUMPDEST PUSH2 0x338F DUP2 PUSH2 0x3323 JUMP JUMPDEST DUP3 MSTORE POP POP JUMP JUMPDEST PUSH1 0x0 PUSH1 0x20 DUP3 ADD SWAP1 POP PUSH2 0x33AA PUSH1 0x0 DUP4 ADD DUP5 PUSH2 0x3386 JUMP JUMPDEST SWAP3 SWAP2 POP POP JUMP JUMPDEST PUSH1 0x0 DUP1 PUSH1 0x40 DUP4 DUP6 SUB SLT ISZERO PUSH2 0x33C7 JUMPI PUSH2 0x33C6 PUSH2 0x2E7D JUMP JUMPDEST JUMPDEST PUSH1 0x0 PUSH2 0x33D5 DUP6 DUP3 DUP7 ADD PUSH2 0x3344 JUMP JUMPDEST SWAP3 POP POP PUSH1 0x20 PUSH2 0x33E6 DUP6 DUP3 DUP7 ADD PUSH2 0x30D3 JUMP JUMPDEST SWAP2 POP POP SWAP3 POP SWAP3 SWAP1 POP JUMP JUMPDEST PUSH1 0x0 PUSH1 0x20 DUP3 DUP5 SUB SLT ISZERO PUSH2 0x3406 JUMPI PUSH2 0x3405 PUSH2 0x2E7D JUMP JUMPDEST JUMPDEST PUSH1 0x0 PUSH2 0x3414 DUP5 DUP3 DUP6 ADD PUSH2 0x30D3 JUMP JUMPDEST SWAP2 POP POP SWAP3 SWAP2 POP POP JUMP JUMPDEST PUSH2 0x3426 DUP2 PUSH2 0x2F0C JUMP JUMPDEST DUP2 EQ PUSH2 0x3431 JUMPI PUSH1 0x0 DUP1 REVERT JUMPDEST POP JUMP JUMPDEST PUSH1 0x0 DUP2 CALLDATALOAD SWAP1 POP PUSH2 0x3443 DUP2 PUSH2 0x341D JUMP JUMPDEST SWAP3 SWAP2 POP POP JUMP JUMPDEST PUSH1 0x0 DUP1 PUSH1 0x40 DUP4 DUP6 SUB SLT ISZERO PUSH2 0x3460 JUMPI PUSH2 0x345F PUSH2 0x2E7D JUMP JUMPDEST JUMPDEST PUSH1 0x0 PUSH2 0x346E DUP6 DUP3 DUP7 ADD PUSH2 0x30D3 JUMP JUMPDEST SWAP3 POP POP PUSH1 0x20 PUSH2 0x347F DUP6 DUP3 DUP7 ADD PUSH2 0x3434 JUMP JUMPDEST SWAP2 POP POP SWAP3 POP SWAP3 SWAP1 POP JUMP JUMPDEST PUSH1 0x0 PUSH8 0xFFFFFFFFFFFFFFFF DUP3 GT ISZERO PUSH2 0x34A4 JUMPI PUSH2 0x34A3 PUSH2 0x3132 JUMP JUMPDEST JUMPDEST PUSH2 0x34AD DUP3 PUSH2 0x2F91 JUMP JUMPDEST SWAP1 POP PUSH1 0x20 DUP2 ADD SWAP1 POP SWAP2 SWAP1 POP JUMP JUMPDEST PUSH1 0x0 PUSH2 0x34CD PUSH2 0x34C8 DUP5 PUSH2 0x3489 JUMP JUMPDEST PUSH2 0x3192 JUMP JUMPDEST SWAP1 POP DUP3 DUP2 MSTORE PUSH1 0x20 DUP2 ADD DUP5 DUP5 DUP5 ADD GT ISZERO PUSH2 0x34E9 JUMPI PUSH2 0x34E8 PUSH2 0x312D JUMP JUMPDEST JUMPDEST PUSH2 0x34F4 DUP5 DUP3 DUP6 PUSH2 0x31DE JUMP JUMPDEST POP SWAP4 SWAP3 POP POP POP JUMP JUMPDEST PUSH1 0x0 DUP3 PUSH1 0x1F DUP4 ADD SLT PUSH2 0x3511 JUMPI PUSH2 0x3510 PUSH2 0x3128 JUMP JUMPDEST JUMPDEST DUP2 CALLDATALOAD PUSH2 0x3521 DUP5 DUP3 PUSH1 0x20 DUP7 ADD PUSH2 0x34BA JUMP JUMPDEST SWAP2 POP POP SWAP3 SWAP2 POP POP JUMP JUMPDEST PUSH1 0x0 DUP1 PUSH1 0x0 DUP1 PUSH1 0x80 DUP6 DUP8 SUB SLT ISZERO PUSH2 0x3544 JUMPI PUSH2 0x3543 PUSH2 0x2E7D JUMP JUMPDEST JUMPDEST PUSH1 0x0 PUSH2 0x3552 DUP8 DUP3 DUP9 ADD PUSH2 0x30D3 JUMP JUMPDEST SWAP5 POP POP PUSH1 0x20 PUSH2 0x3563 DUP8 DUP3 DUP9 ADD PUSH2 0x30D3 JUMP JUMPDEST SWAP4 POP POP PUSH1 0x40 PUSH2 0x3574 DUP8 DUP3 DUP9 ADD PUSH2 0x301E JUMP JUMPDEST SWAP3 POP POP PUSH1 0x60 DUP6 ADD CALLDATALOAD PUSH8 0xFFFFFFFFFFFFFFFF DUP2 GT ISZERO PUSH2 0x3595 JUMPI PUSH2 0x3594 PUSH2 0x2E82 JUMP JUMPDEST JUMPDEST PUSH2 0x35A1 DUP8 DUP3 DUP9 ADD PUSH2 0x34FC JUMP JUMPDEST SWAP2 POP POP SWAP3 SWAP6 SWAP2 SWAP5 POP SWAP3 POP JUMP JUMPDEST PUSH1 0x0 DUP1 PUSH1 0x40 DUP4 DUP6 SUB SLT ISZERO PUSH2 0x35C4 JUMPI PUSH2 0x35C3 PUSH2 0x2E7D JUMP JUMPDEST JUMPDEST PUSH1 0x0 PUSH2 0x35D2 DUP6 DUP3 DUP7 ADD PUSH2 0x30D3 JUMP JUMPDEST SWAP3 POP POP PUSH1 0x20 DUP4 ADD CALLDATALOAD PUSH8 0xFFFFFFFFFFFFFFFF DUP2 GT ISZERO PUSH2 0x35F3 JUMPI PUSH2 0x35F2 PUSH2 0x2E82 JUMP JUMPDEST JUMPDEST PUSH2 0x35FF DUP6 DUP3 DUP7 ADD PUSH2 0x322F JUMP JUMPDEST SWAP2 POP POP SWAP3 POP SWAP3 SWAP1 POP JUMP JUMPDEST PUSH1 0x0 DUP1 PUSH1 0x40 DUP4 DUP6 SUB SLT ISZERO PUSH2 0x3620 JUMPI PUSH2 0x361F PUSH2 0x2E7D JUMP JUMPDEST JUMPDEST PUSH1 0x0 PUSH2 0x362E DUP6 DUP3 DUP7 ADD PUSH2 0x30D3 JUMP JUMPDEST SWAP3 POP POP PUSH1 0x20 PUSH2 0x363F DUP6 DUP3 DUP7 ADD PUSH2 0x30D3 JUMP JUMPDEST SWAP2 POP POP SWAP3 POP SWAP3 SWAP1 POP JUMP JUMPDEST PUSH32 0x4E487B7100000000000000000000000000000000000000000000000000000000 PUSH1 0x0 MSTORE PUSH1 0x22 PUSH1 0x4 MSTORE PUSH1 0x24 PUSH1 0x0 REVERT JUMPDEST PUSH1 0x0 PUSH1 0x2 DUP3 DIV SWAP1 POP PUSH1 0x1 DUP3 AND DUP1 PUSH2 0x3690 JUMPI PUSH1 0x7F DUP3 AND SWAP2 POP JUMPDEST PUSH1 0x20 DUP3 LT DUP2 SUB PUSH2 0x36A3 JUMPI PUSH2 0x36A2 PUSH2 0x3649 JUMP JUMPDEST JUMPDEST POP SWAP2 SWAP1 POP JUMP JUMPDEST PUSH32 0x4552433732313A20617070726F76656420717565727920666F72206E6F6E6578 PUSH1 0x0 DUP3 ADD MSTORE PUSH32 0x697374656E7420746F6B656E0000000000000000000000000000000000000000 PUSH1 0x20 DUP3 ADD MSTORE POP JUMP JUMPDEST PUSH1 0x0 PUSH2 0x3705 PUSH1 0x2C DUP4 PUSH2 0x2F4D JUMP JUMPDEST SWAP2 POP PUSH2 0x3710 DUP3 PUSH2 0x36A9 JUMP JUMPDEST PUSH1 0x40 DUP3 ADD SWAP1 POP SWAP2 SWAP1 POP JUMP JUMPDEST PUSH1 0x0 PUSH1 0x20 DUP3 ADD SWAP1 POP DUP2 DUP2 SUB PUSH1 0x0 DUP4 ADD MSTORE PUSH2 0x3734 DUP2 PUSH2 0x36F8 JUMP JUMPDEST SWAP1 POP SWAP2 SWAP1 POP JUMP JUMPDEST PUSH32 0x4552433732313A20617070726F76616C20746F2063757272656E74206F776E65 PUSH1 0x0 DUP3 ADD MSTORE PUSH32 0x7200000000000000000000000000000000000000000000000000000000000000 PUSH1 0x20 DUP3 ADD MSTORE POP JUMP JUMPDEST PUSH1 0x0 PUSH2 0x3797 PUSH1 0x21 DUP4 PUSH2 0x2F4D JUMP JUMPDEST SWAP2 POP PUSH2 0x37A2 DUP3 PUSH2 0x373B JUMP JUMPDEST PUSH1 0x40 DUP3 ADD SWAP1 POP SWAP2 SWAP1 POP JUMP JUMPDEST PUSH1 0x0 PUSH1 0x20 DUP3 ADD SWAP1 POP DUP2 DUP2 SUB PUSH1 0x0 DUP4 ADD MSTORE PUSH2 0x37C6 DUP2 PUSH2 0x378A JUMP JUMPDEST SWAP1 POP SWAP2 SWAP1 POP JUMP JUMPDEST PUSH32 0x4552433732313A20617070726F76652063616C6C6572206973206E6F74206F77 PUSH1 0x0 DUP3 ADD MSTORE PUSH32 0x6E6572206E6F7220617070726F76656420666F7220616C6C0000000000000000 PUSH1 0x20 DUP3 ADD MSTORE POP JUMP JUMPDEST PUSH1 0x0 PUSH2 0x3829 PUSH1 0x38 DUP4 PUSH2 0x2F4D JUMP JUMPDEST SWAP2 POP PUSH2 0x3834 DUP3 PUSH2 0x37CD JUMP JUMPDEST PUSH1 0x40 DUP3 ADD SWAP1 POP SWAP2 SWAP1 POP JUMP JUMPDEST PUSH1 0x0 PUSH1 0x20 DUP3 ADD SWAP1 POP DUP2 DUP2 SUB PUSH1 0x0 DUP4 ADD MSTORE PUSH2 0x3858 DUP2 PUSH2 0x381C JUMP JUMPDEST SWAP1 POP SWAP2 SWAP1 POP JUMP JUMPDEST PUSH1 0x0 DUP2 SWAP1 POP DUP2 PUSH1 0x0 MSTORE PUSH1 0x20 PUSH1 0x0 KECCAK256 SWAP1 POP SWAP2 SWAP1 POP JUMP JUMPDEST PUSH1 0x0 PUSH1 0x20 PUSH1 0x1F DUP4 ADD DIV SWAP1 POP SWAP2 SWAP1 POP JUMP JUMPDEST PUSH1 0x0 DUP3 DUP3 SHL SWAP1 POP SWAP3 SWAP2 POP POP JUMP JUMPDEST PUSH1 0x0 PUSH1 0x8 DUP4 MUL PUSH2 0x38C1 PUSH32 0xFFFFFFFFFFFFFFFFFFFFFFFFFFFFFFFFFFFFFFFFFFFFFFFFFFFFFFFFFFFFFFFF DUP3 PUSH2 0x3884 JUMP JUMPDEST PUSH2 0x38CB DUP7 DUP4 PUSH2 0x3884 JUMP JUMPDEST SWAP6 POP DUP1 NOT DUP5 AND SWAP4 POP DUP1 DUP7 AND DUP5 OR SWAP3 POP POP POP SWAP4 SWAP3 POP POP POP JUMP JUMPDEST PUSH1 0x0 DUP2 SWAP1 POP SWAP2 SWAP1 POP JUMP JUMPDEST PUSH1 0x0 PUSH2 0x3908 PUSH2 0x3903 PUSH2 0x38FE DUP5 PUSH2 0x2FFD JUMP JUMPDEST PUSH2 0x38E3 JUMP JUMPDEST PUSH2 0x2FFD JUMP JUMPDEST SWAP1 POP SWAP2 SWAP1 POP JUMP JUMPDEST PUSH1 0x0 DUP2 SWAP1 POP SWAP2 SWAP1 POP JUMP JUMPDEST PUSH2 0x3922 DUP4 PUSH2 0x38ED JUMP JUMPDEST PUSH2 0x3936 PUSH2 0x392E DUP3 PUSH2 0x390F JUMP JUMPDEST DUP5 DUP5 SLOAD PUSH2 0x3891 JUMP JUMPDEST DUP3 SSTORE POP POP POP POP JUMP JUMPDEST PUSH1 0x0 SWAP1 JUMP JUMPDEST PUSH2 0x394B PUSH2 0x393E JUMP JUMPDEST PUSH2 0x3956 DUP2 DUP5 DUP5 PUSH2 0x3919 JUMP JUMPDEST POP POP POP JUMP JUMPDEST JUMPDEST DUP2 DUP2 LT ISZERO PUSH2 0x397A JUMPI PUSH2 0x396F PUSH1 0x0 DUP3 PUSH2 0x3943 JUMP JUMPDEST PUSH1 0x1 DUP2 ADD SWAP1 POP PUSH2 0x395C JUMP JUMPDEST POP POP JUMP JUMPDEST PUSH1 0x1F DUP3 GT ISZERO PUSH2 0x39BF JUMPI PUSH2 0x3990 DUP2 PUSH2 0x385F JUMP JUMPDEST PUSH2 0x3999 DUP5 PUSH2 0x3874 JUMP JUMPDEST DUP2 ADD PUSH1 0x20 DUP6 LT ISZERO PUSH2 0x39A8 JUMPI DUP2 SWAP1 POP JUMPDEST PUSH2 0x39BC PUSH2 0x39B4 DUP6 PUSH2 0x3874 JUMP JUMPDEST DUP4 ADD DUP3 PUSH2 0x395B JUMP JUMPDEST POP POP JUMPDEST POP POP POP JUMP JUMPDEST PUSH1 0x0 DUP3 DUP3 SHR SWAP1 POP SWAP3 SWAP2 POP POP JUMP JUMPDEST PUSH1 0x0 PUSH2 0x39E2 PUSH1 0x0 NOT DUP5 PUSH1 0x8 MUL PUSH2 0x39C4 JUMP JUMPDEST NOT DUP1 DUP4 AND SWAP2 POP POP SWAP3 SWAP2 POP POP JUMP JUMPDEST PUSH1 0x0 PUSH2 0x39FB DUP4 DUP4 PUSH2 0x39D1 JUMP JUMPDEST SWAP2 POP DUP3 PUSH1 0x2 MUL DUP3 OR SWAP1 POP SWAP3 SWAP2 POP POP JUMP JUMPDEST PUSH2 0x3A14 DUP3 PUSH2 0x2F42 JUMP JUMPDEST PUSH8 0xFFFFFFFFFFFFFFFF DUP2 GT ISZERO PUSH2 0x3A2D JUMPI PUSH2 0x3A2C PUSH2 0x3132 JUMP JUMPDEST JUMPDEST PUSH2 0x3A37 DUP3 SLOAD PUSH2 0x3678 JUMP JUMPDEST PUSH2 0x3A42 DUP3 DUP3 DUP6 PUSH2 0x397E JUMP JUMPDEST PUSH1 0x0 PUSH1 0x20 SWAP1 POP PUSH1 0x1F DUP4 GT PUSH1 0x1 DUP2 EQ PUSH2 0x3A75 JUMPI PUSH1 0x0 DUP5 ISZERO PUSH2 0x3A63 JUMPI DUP3 DUP8 ADD MLOAD SWAP1 POP JUMPDEST PUSH2 0x3A6D DUP6 DUP3 PUSH2 0x39EF JUMP JUMPDEST DUP7 SSTORE POP PUSH2 0x3AD5 JUMP JUMPDEST PUSH1 0x1F NOT DUP5 AND PUSH2 0x3A83 DUP7 PUSH2 0x385F JUMP JUMPDEST PUSH1 0x0 JUMPDEST DUP3 DUP2 LT ISZERO PUSH2 0x3AAB JUMPI DUP5 DUP10 ADD MLOAD DUP3 SSTORE PUSH1 0x1 DUP3 ADD SWAP2 POP PUSH1 0x20 DUP6 ADD SWAP5 POP PUSH1 0x20 DUP2 ADD SWAP1 POP PUSH2 0x3A86 JUMP JUMPDEST DUP7 DUP4 LT ISZERO PUSH2 0x3AC8 JUMPI DUP5 DUP10 ADD MLOAD PUSH2 0x3AC4 PUSH1 0x1F DUP10 AND DUP3 PUSH2 0x39D1 JUMP JUMPDEST DUP4 SSTORE POP JUMPDEST PUSH1 0x1 PUSH1 0x2 DUP9 MUL ADD DUP9 SSTORE POP POP POP JUMPDEST POP POP POP POP POP POP JUMP JUMPDEST PUSH32 0x4552433732313A207472616E736665722063616C6C6572206973206E6F74206F PUSH1 0x0 DUP3 ADD MSTORE PUSH32 0x776E6572206E6F7220617070726F766564000000000000000000000000000000 PUSH1 0x20 DUP3 ADD MSTORE POP JUMP JUMPDEST PUSH1 0x0 PUSH2 0x3B39 PUSH1 0x31 DUP4 PUSH2 0x2F4D JUMP JUMPDEST SWAP2 POP PUSH2 0x3B44 DUP3 PUSH2 0x3ADD JUMP JUMPDEST PUSH1 0x40 DUP3 ADD SWAP1 POP SWAP2 SWAP1 POP JUMP JUMPDEST PUSH1 0x0 PUSH1 0x20 DUP3 ADD SWAP1 POP DUP2 DUP2 SUB PUSH1 0x0 DUP4 ADD MSTORE PUSH2 0x3B68 DUP2 PUSH2 0x3B2C JUMP JUMPDEST SWAP1 POP SWAP2 SWAP1 POP JUMP JUMPDEST PUSH32 0x455243373231456E756D657261626C653A206F776E657220696E646578206F75 PUSH1 0x0 DUP3 ADD MSTORE PUSH32 0x74206F6620626F756E6473000000000000000000000000000000000000000000 PUSH1 0x20 DUP3 ADD MSTORE POP JUMP JUMPDEST PUSH1 0x0 PUSH2 0x3BCB PUSH1 0x2B DUP4 PUSH2 0x2F4D JUMP JUMPDEST SWAP2 POP PUSH2 0x3BD6 DUP3 PUSH2 0x3B6F JUMP JUMPDEST PUSH1 0x40 DUP3 ADD SWAP1 POP SWAP2 SWAP1 POP JUMP JUMPDEST PUSH1 0x0 PUSH1 0x20 DUP3 ADD SWAP1 POP DUP2 DUP2 SUB PUSH1 0x0 DUP4 ADD MSTORE PUSH2 0x3BFA DUP2 PUSH2 0x3BBE JUMP JUMPDEST SWAP1 POP SWAP2 SWAP1 POP JUMP JUMPDEST PUSH32 0x416363657373436F6E74726F6C3A2063616E206F6E6C792072656E6F756E6365 PUSH1 0x0 DUP3 ADD MSTORE PUSH32 0x20726F6C657320666F722073656C660000000000000000000000000000000000 PUSH1 0x20 DUP3 ADD MSTORE POP JUMP JUMPDEST PUSH1 0x0 PUSH2 0x3C5D PUSH1 0x2F DUP4 PUSH2 0x2F4D JUMP JUMPDEST SWAP2 POP PUSH2 0x3C68 DUP3 PUSH2 0x3C01 JUMP JUMPDEST PUSH1 0x40 DUP3 ADD SWAP1 POP SWAP2 SWAP1 POP JUMP JUMPDEST PUSH1 0x0 PUSH1 0x20 DUP3 ADD SWAP1 POP DUP2 DUP2 SUB PUSH1 0x0 DUP4 ADD MSTORE PUSH2 0x3C8C DUP2 PUSH2 0x3C50 JUMP JUMPDEST SWAP1 POP SWAP2 SWAP1 POP JUMP JUMPDEST PUSH32 0x4552433732314275726E61626C653A2063616C6C6572206973206E6F74206F77 PUSH1 0x0 DUP3 ADD MSTORE PUSH32 0x6E6572206E6F7220617070726F76656400000000000000000000000000000000 PUSH1 0x20 DUP3 ADD MSTORE POP JUMP JUMPDEST PUSH1 0x0 PUSH2 0x3CEF PUSH1 0x30 DUP4 PUSH2 0x2F4D JUMP JUMPDEST SWAP2 POP PUSH2 0x3CFA DUP3 PUSH2 0x3C93 JUMP JUMPDEST PUSH1 0x40 DUP3 ADD SWAP1 POP SWAP2 SWAP1 POP JUMP JUMPDEST PUSH1 0x0 PUSH1 0x20 DUP3 ADD SWAP1 POP DUP2 DUP2 SUB PUSH1 0x0 DUP4 ADD MSTORE PUSH2 0x3D1E DUP2 PUSH2 0x3CE2 JUMP JUMPDEST SWAP1 POP SWAP2 SWAP1 POP JUMP JUMPDEST PUSH32 0x455243373231456E756D657261626C653A20676C6F62616C20696E646578206F PUSH1 0x0 DUP3 ADD MSTORE PUSH32 0x7574206F6620626F756E64730000000000000000000000000000000000000000 PUSH1 0x20 DUP3 ADD MSTORE POP JUMP JUMPDEST PUSH1 0x0 PUSH2 0x3D81 PUSH1 0x2C DUP4 PUSH2 0x2F4D JUMP JUMPDEST SWAP2 POP PUSH2 0x3D8C DUP3 PUSH2 0x3D25 JUMP JUMPDEST PUSH1 0x40 DUP3 ADD SWAP1 POP SWAP2 SWAP1 POP JUMP JUMPDEST PUSH1 0x0 PUSH1 0x20 DUP3 ADD SWAP1 POP DUP2 DUP2 SUB PUSH1 0x0 DUP4 ADD MSTORE PUSH2 0x3DB0 DUP2 PUSH2 0x3D74 JUMP JUMPDEST SWAP1 POP SWAP2 SWAP1 POP JUMP JUMPDEST PUSH32 0x4E487B7100000000000000000000000000000000000000000000000000000000 PUSH1 0x0 MSTORE PUSH1 0x32 PUSH1 0x4 MSTORE PUSH1 0x24 PUSH1 0x0 REVERT JUMPDEST PUSH32 0x4552433732313A206F776E657220717565727920666F72206E6F6E6578697374 PUSH1 0x0 DUP3 ADD MSTORE PUSH32 0x656E7420746F6B656E0000000000000000000000000000000000000000000000 PUSH1 0x20 DUP3 ADD MSTORE POP JUMP JUMPDEST PUSH1 0x0 PUSH2 0x3E42 PUSH1 0x29 DUP4 PUSH2 0x2F4D JUMP JUMPDEST SWAP2 POP PUSH2 0x3E4D DUP3 PUSH2 0x3DE6 JUMP JUMPDEST PUSH1 0x40 DUP3 ADD SWAP1 POP SWAP2 SWAP1 POP JUMP JUMPDEST PUSH1 0x0 PUSH1 0x20 DUP3 ADD SWAP1 POP DUP2 DUP2 SUB PUSH1 0x0 DUP4 ADD MSTORE PUSH2 0x3E71 DUP2 PUSH2 0x3E35 JUMP JUMPDEST SWAP1 POP SWAP2 SWAP1 POP JUMP JUMPDEST PUSH32 0x4552433732313A2062616C616E636520717565727920666F7220746865207A65 PUSH1 0x0 DUP3 ADD MSTORE PUSH32 0x726F206164647265737300000000000000000000000000000000000000000000 PUSH1 0x20 DUP3 ADD MSTORE POP JUMP JUMPDEST PUSH1 0x0 PUSH2 0x3ED4 PUSH1 0x2A DUP4 PUSH2 0x2F4D JUMP JUMPDEST SWAP2 POP PUSH2 0x3EDF DUP3 PUSH2 0x3E78 JUMP JUMPDEST PUSH1 0x40 DUP3 ADD SWAP1 POP SWAP2 SWAP1 POP JUMP JUMPDEST PUSH1 0x0 PUSH1 0x20 DUP3 ADD SWAP1 POP DUP2 DUP2 SUB PUSH1 0x0 DUP4 ADD MSTORE PUSH2 0x3F03 DUP2 PUSH2 0x3EC7 JUMP JUMPDEST SWAP1 POP SWAP2 SWAP1 POP JUMP JUMPDEST PUSH1 0x0 DUP2 SWAP1 POP SWAP3 SWAP2 POP POP JUMP JUMPDEST PUSH1 0x0 DUP2 SLOAD PUSH2 0x3F22 DUP2 PUSH2 0x3678 JUMP JUMPDEST PUSH2 0x3F2C DUP2 DUP7 PUSH2 0x3F0A JUMP JUMPDEST SWAP5 POP PUSH1 0x1 DUP3 AND PUSH1 0x0 DUP2 EQ PUSH2 0x3F47 JUMPI PUSH1 0x1 DUP2 EQ PUSH2 0x3F5C JUMPI PUSH2 0x3F8F JUMP JUMPDEST PUSH1 0xFF NOT DUP4 AND DUP7 MSTORE DUP2 ISZERO ISZERO DUP3 MUL DUP7 ADD SWAP4 POP PUSH2 0x3F8F JUMP JUMPDEST PUSH2 0x3F65 DUP6 PUSH2 0x385F JUMP JUMPDEST PUSH1 0x0 JUMPDEST DUP4 DUP2 LT ISZERO PUSH2 0x3F87 JUMPI DUP2 SLOAD DUP2 DUP10 ADD MSTORE PUSH1 0x1 DUP3 ADD SWAP2 POP PUSH1 0x20 DUP2 ADD SWAP1 POP PUSH2 0x3F68 JUMP JUMPDEST DUP4 DUP9 ADD SWAP6 POP POP POP JUMPDEST POP POP POP SWAP3 SWAP2 POP POP JUMP JUMPDEST PUSH1 0x0 PUSH2 0x3FA4 DUP3 DUP6 PUSH2 0x3F15 JUMP JUMPDEST SWAP2 POP PUSH2 0x3FB0 DUP3 DUP5 PUSH2 0x3F15 JUMP JUMPDEST SWAP2 POP DUP2 SWAP1 POP SWAP4 SWAP3 POP POP POP JUMP JUMPDEST PUSH32 0x4552433732313A206F70657261746F7220717565727920666F72206E6F6E6578 PUSH1 0x0 DUP3 ADD MSTORE PUSH32 0x697374656E7420746F6B656E0000000000000000000000000000000000000000 PUSH1 0x20 DUP3 ADD MSTORE POP JUMP JUMPDEST PUSH1 0x0 PUSH2 0x4018 PUSH1 0x2C DUP4 PUSH2 0x2F4D JUMP JUMPDEST SWAP2 POP PUSH2 0x4023 DUP3 PUSH2 0x3FBC JUMP JUMPDEST PUSH1 0x40 DUP3 ADD SWAP1 POP SWAP2 SWAP1 POP JUMP JUMPDEST PUSH1 0x0 PUSH1 0x20 DUP3 ADD SWAP1 POP DUP2 DUP2 SUB PUSH1 0x0 DUP4 ADD MSTORE PUSH2 0x4047 DUP2 PUSH2 0x400B JUMP JUMPDEST SWAP1 POP SWAP2 SWAP1 POP JUMP JUMPDEST PUSH32 0x4552433732313A207472616E736665722066726F6D20696E636F727265637420 PUSH1 0x0 DUP3 ADD MSTORE PUSH32 0x6F776E6572000000000000000000000000000000000000000000000000000000 PUSH1 0x20 DUP3 ADD MSTORE POP JUMP JUMPDEST PUSH1 0x0 PUSH2 0x40AA PUSH1 0x25 DUP4 PUSH2 0x2F4D JUMP JUMPDEST SWAP2 POP PUSH2 0x40B5 DUP3 PUSH2 0x404E JUMP JUMPDEST PUSH1 0x40 DUP3 ADD SWAP1 POP SWAP2 SWAP1 POP JUMP JUMPDEST PUSH1 0x0 PUSH1 0x20 DUP3 ADD SWAP1 POP DUP2 DUP2 SUB PUSH1 0x0 DUP4 ADD MSTORE PUSH2 0x40D9 DUP2 PUSH2 0x409D JUMP JUMPDEST SWAP1 POP SWAP2 SWAP1 POP JUMP JUMPDEST PUSH32 0x4552433732313A207472616E7366657220746F20746865207A65726F20616464 PUSH1 0x0 DUP3 ADD MSTORE PUSH32 0x7265737300000000000000000000000000000000000000000000000000000000 PUSH1 0x20 DUP3 ADD MSTORE POP JUMP JUMPDEST PUSH1 0x0 PUSH2 0x413C PUSH1 0x24 DUP4 PUSH2 0x2F4D JUMP JUMPDEST SWAP2 POP PUSH2 0x4147 DUP3 PUSH2 0x40E0 JUMP JUMPDEST PUSH1 0x40 DUP3 ADD SWAP1 POP SWAP2 SWAP1 POP JUMP JUMPDEST PUSH1 0x0 PUSH1 0x20 DUP3 ADD SWAP1 POP DUP2 DUP2 SUB PUSH1 0x0 DUP4 ADD MSTORE PUSH2 0x416B DUP2 PUSH2 0x412F JUMP JUMPDEST SWAP1 POP SWAP2 SWAP1 POP JUMP JUMPDEST PUSH32 0x4E487B7100000000000000000000000000000000000000000000000000000000 PUSH1 0x0 MSTORE PUSH1 0x11 PUSH1 0x4 MSTORE PUSH1 0x24 PUSH1 0x0 REVERT JUMPDEST PUSH1 0x0 PUSH2 0x41AC DUP3 PUSH2 0x2FFD JUMP JUMPDEST SWAP2 POP PUSH2 0x41B7 DUP4 PUSH2 0x2FFD JUMP JUMPDEST SWAP3 POP DUP3 DUP3 LT ISZERO PUSH2 0x41CA JUMPI PUSH2 0x41C9 PUSH2 0x4172 JUMP JUMPDEST JUMPDEST DUP3 DUP3 SUB SWAP1 POP SWAP3 SWAP2 POP POP JUMP JUMPDEST PUSH1 0x0 PUSH2 0x41E0 DUP3 PUSH2 0x2FFD JUMP JUMPDEST SWAP2 POP PUSH2 0x41EB DUP4 PUSH2 0x2FFD JUMP JUMPDEST SWAP3 POP DUP3 PUSH32 0xFFFFFFFFFFFFFFFFFFFFFFFFFFFFFFFFFFFFFFFFFFFFFFFFFFFFFFFFFFFFFFFF SUB DUP3 GT ISZERO PUSH2 0x4220 JUMPI PUSH2 0x421F PUSH2 0x4172 JUMP JUMPDEST JUMPDEST DUP3 DUP3 ADD SWAP1 POP SWAP3 SWAP2 POP POP JUMP JUMPDEST PUSH32 0x5061757361626C653A206E6F7420706175736564000000000000000000000000 PUSH1 0x0 DUP3 ADD MSTORE POP JUMP JUMPDEST PUSH1 0x0 PUSH2 0x4261 PUSH1 0x14 DUP4 PUSH2 0x2F4D JUMP JUMPDEST SWAP2 POP PUSH2 0x426C DUP3 PUSH2 0x422B JUMP JUMPDEST PUSH1 0x20 DUP3 ADD SWAP1 POP SWAP2 SWAP1 POP JUMP JUMPDEST PUSH1 0x0 PUSH1 0x20 DUP3 ADD SWAP1 POP DUP2 DUP2 SUB PUSH1 0x0 DUP4 ADD MSTORE PUSH2 0x4290 DUP2 PUSH2 0x4254 JUMP JUMPDEST SWAP1 POP SWAP2 SWAP1 POP JUMP JUMPDEST PUSH32 0x5061757361626C653A2070617573656400000000000000000000000000000000 PUSH1 0x0 DUP3 ADD MSTORE POP JUMP JUMPDEST PUSH1 0x0 PUSH2 0x42CD PUSH1 0x10 DUP4 PUSH2 0x2F4D JUMP JUMPDEST SWAP2 POP PUSH2 0x42D8 DUP3 PUSH2 0x4297 JUMP JUMPDEST PUSH1 0x20 DUP3 ADD SWAP1 POP SWAP2 SWAP1 POP JUMP JUMPDEST PUSH1 0x0 PUSH1 0x20 DUP3 ADD SWAP1 POP DUP2 DUP2 SUB PUSH1 0x0 DUP4 ADD MSTORE PUSH2 0x42FC DUP2 PUSH2 0x42C0 JUMP JUMPDEST SWAP1 POP SWAP2 SWAP1 POP JUMP JUMPDEST PUSH32 0x4552433732313A20617070726F766520746F2063616C6C657200000000000000 PUSH1 0x0 DUP3 ADD MSTORE POP JUMP JUMPDEST PUSH1 0x0 PUSH2 0x4339 PUSH1 0x19 DUP4 PUSH2 0x2F4D JUMP JUMPDEST SWAP2 POP PUSH2 0x4344 DUP3 PUSH2 0x4303 JUMP JUMPDEST PUSH1 0x20 DUP3 ADD SWAP1 POP SWAP2 SWAP1 POP JUMP JUMPDEST PUSH1 0x0 PUSH1 0x20 DUP3 ADD SWAP1 POP DUP2 DUP2 SUB PUSH1 0x0 DUP4 ADD MSTORE PUSH2 0x4368 DUP2 PUSH2 0x432C JUMP JUMPDEST SWAP1 POP SWAP2 SWAP1 POP JUMP JUMPDEST PUSH32 0x4552433732313A207472616E7366657220746F206E6F6E204552433732315265 PUSH1 0x0 DUP3 ADD MSTORE PUSH32 0x63656976657220696D706C656D656E7465720000000000000000000000000000 PUSH1 0x20 DUP3 ADD MSTORE POP JUMP JUMPDEST PUSH1 0x0 PUSH2 0x43CB PUSH1 0x32 DUP4 PUSH2 0x2F4D JUMP JUMPDEST SWAP2 POP PUSH2 0x43D6 DUP3 PUSH2 0x436F JUMP JUMPDEST PUSH1 0x40 DUP3 ADD SWAP1 POP SWAP2 SWAP1 POP JUMP JUMPDEST PUSH1 0x0 PUSH1 0x20 DUP3 ADD SWAP1 POP DUP2 DUP2 SUB PUSH1 0x0 DUP4 ADD MSTORE PUSH2 0x43FA DUP2 PUSH2 0x43BE JUMP JUMPDEST SWAP1 POP SWAP2 SWAP1 POP JUMP JUMPDEST PUSH32 0x45524337323155524953746F726167653A2055524920717565727920666F7220 PUSH1 0x0 DUP3 ADD MSTORE PUSH32 0x6E6F6E6578697374656E7420746F6B656E000000000000000000000000000000 PUSH1 0x20 DUP3 ADD MSTORE POP JUMP JUMPDEST PUSH1 0x0 PUSH2 0x445D PUSH1 0x31 DUP4 PUSH2 0x2F4D JUMP JUMPDEST SWAP2 POP PUSH2 0x4468 DUP3 PUSH2 0x4401 JUMP JUMPDEST PUSH1 0x40 DUP3 ADD SWAP1 POP SWAP2 SWAP1 POP JUMP JUMPDEST PUSH1 0x0 PUSH1 0x20 DUP3 ADD SWAP1 POP DUP2 DUP2 SUB PUSH1 0x0 DUP4 ADD MSTORE PUSH2 0x448C DUP2 PUSH2 0x4450 JUMP JUMPDEST SWAP1 POP SWAP2 SWAP1 POP JUMP JUMPDEST PUSH1 0x0 PUSH2 0x449E DUP3 PUSH2 0x2F42 JUMP JUMPDEST PUSH2 0x44A8 DUP2 DUP6 PUSH2 0x3F0A JUMP JUMPDEST SWAP4 POP PUSH2 0x44B8 DUP2 DUP6 PUSH1 0x20 DUP7 ADD PUSH2 0x2F5E JUMP JUMPDEST DUP1 DUP5 ADD SWAP2 POP POP SWAP3 SWAP2 POP POP JUMP JUMPDEST PUSH1 0x0 PUSH2 0x44D0 DUP3 DUP6 PUSH2 0x4493 JUMP JUMPDEST SWAP2 POP PUSH2 0x44DC DUP3 DUP5 PUSH2 0x4493 JUMP JUMPDEST SWAP2 POP DUP2 SWAP1 POP SWAP4 SWAP3 POP POP POP JUMP JUMPDEST PUSH32 0x45524337323155524953746F726167653A2055524920736574206F66206E6F6E PUSH1 0x0 DUP3 ADD MSTORE PUSH32 0x6578697374656E7420746F6B656E000000000000000000000000000000000000 PUSH1 0x20 DUP3 ADD MSTORE POP JUMP JUMPDEST PUSH1 0x0 PUSH2 0x4544 PUSH1 0x2E DUP4 PUSH2 0x2F4D JUMP JUMPDEST SWAP2 POP PUSH2 0x454F DUP3 PUSH2 0x44E8 JUMP JUMPDEST PUSH1 0x40 DUP3 ADD SWAP1 POP SWAP2 SWAP1 POP JUMP JUMPDEST PUSH1 0x0 PUSH1 0x20 DUP3 ADD SWAP1 POP DUP2 DUP2 SUB PUSH1 0x0 DUP4 ADD MSTORE PUSH2 0x4573 DUP2 PUSH2 0x4537 JUMP JUMPDEST SWAP1 POP SWAP2 SWAP1 POP JUMP JUMPDEST PUSH32 0x416363657373436F6E74726F6C3A206163636F756E7420000000000000000000 PUSH1 0x0 DUP3 ADD MSTORE POP JUMP JUMPDEST PUSH1 0x0 PUSH2 0x45B0 PUSH1 0x17 DUP4 PUSH2 0x3F0A JUMP JUMPDEST SWAP2 POP PUSH2 0x45BB DUP3 PUSH2 0x457A JUMP JUMPDEST PUSH1 0x17 DUP3 ADD SWAP1 POP SWAP2 SWAP1 POP JUMP JUMPDEST PUSH32 0x206973206D697373696E6720726F6C6520000000000000000000000000000000 PUSH1 0x0 DUP3 ADD MSTORE POP JUMP JUMPDEST PUSH1 0x0 PUSH2 0x45FC PUSH1 0x11 DUP4 PUSH2 0x3F0A JUMP JUMPDEST SWAP2 POP PUSH2 0x4607 DUP3 PUSH2 0x45C6 JUMP JUMPDEST PUSH1 0x11 DUP3 ADD SWAP1 POP SWAP2 SWAP1 POP JUMP JUMPDEST PUSH1 0x0 PUSH2 0x461D DUP3 PUSH2 0x45A3 JUMP JUMPDEST SWAP2 POP PUSH2 0x4629 DUP3 DUP6 PUSH2 0x4493 JUMP JUMPDEST SWAP2 POP PUSH2 0x4634 DUP3 PUSH2 0x45EF JUMP JUMPDEST SWAP2 POP PUSH2 0x4640 DUP3 DUP5 PUSH2 0x4493 JUMP JUMPDEST SWAP2 POP DUP2 SWAP1 POP SWAP4 SWAP3 POP POP POP JUMP JUMPDEST PUSH1 0x0 DUP2 MLOAD SWAP1 POP SWAP2 SWAP1 POP JUMP JUMPDEST PUSH1 0x0 DUP3 DUP3 MSTORE PUSH1 0x20 DUP3 ADD SWAP1 POP SWAP3 SWAP2 POP POP JUMP JUMPDEST PUSH1 0x0 PUSH2 0x4673 DUP3 PUSH2 0x464C JUMP JUMPDEST PUSH2 0x467D DUP2 DUP6 PUSH2 0x4657 JUMP JUMPDEST SWAP4 POP PUSH2 0x468D DUP2 DUP6 PUSH1 0x20 DUP7 ADD PUSH2 0x2F5E JUMP JUMPDEST PUSH2 0x4696 DUP2 PUSH2 0x2F91 JUMP JUMPDEST DUP5 ADD SWAP2 POP POP SWAP3 SWAP2 POP POP JUMP JUMPDEST PUSH1 0x0 PUSH1 0x80 DUP3 ADD SWAP1 POP PUSH2 0x46B6 PUSH1 0x0 DUP4 ADD DUP8 PUSH2 0x3092 JUMP JUMPDEST PUSH2 0x46C3 PUSH1 0x20 DUP4 ADD DUP7 PUSH2 0x3092 JUMP JUMPDEST PUSH2 0x46D0 PUSH1 0x40 DUP4 ADD DUP6 PUSH2 0x32A6 JUMP JUMPDEST DUP2 DUP2 SUB PUSH1 0x60 DUP4 ADD MSTORE PUSH2 0x46E2 DUP2 DUP5 PUSH2 0x4668 JUMP JUMPDEST SWAP1 POP SWAP6 SWAP5 POP POP POP POP POP JUMP JUMPDEST PUSH1 0x0 DUP2 MLOAD SWAP1 POP PUSH2 0x46FC DUP2 PUSH2 0x2EB3 JUMP JUMPDEST SWAP3 SWAP2 POP POP JUMP JUMPDEST PUSH1 0x0 PUSH1 0x20 DUP3 DUP5 SUB SLT ISZERO PUSH2 0x4718 JUMPI PUSH2 0x4717 PUSH2 0x2E7D JUMP JUMPDEST JUMPDEST PUSH1 0x0 PUSH2 0x4726 DUP5 DUP3 DUP6 ADD PUSH2 0x46ED JUMP JUMPDEST SWAP2 POP POP SWAP3 SWAP2 POP POP JUMP JUMPDEST PUSH32 0x4552433732314D657461646174613A2055524920717565727920666F72206E6F PUSH1 0x0 DUP3 ADD MSTORE PUSH32 0x6E6578697374656E7420746F6B656E0000000000000000000000000000000000 PUSH1 0x20 DUP3 ADD MSTORE POP JUMP JUMPDEST PUSH1 0x0 PUSH2 0x478B PUSH1 0x2F DUP4 PUSH2 0x2F4D JUMP JUMPDEST SWAP2 POP PUSH2 0x4796 DUP3 PUSH2 0x472F JUMP JUMPDEST PUSH1 0x40 DUP3 ADD SWAP1 POP SWAP2 SWAP1 POP JUMP JUMPDEST PUSH1 0x0 PUSH1 0x20 DUP3 ADD SWAP1 POP DUP2 DUP2 SUB PUSH1 0x0 DUP4 ADD MSTORE PUSH2 0x47BA DUP2 PUSH2 0x477E JUMP JUMPDEST SWAP1 POP SWAP2 SWAP1 POP JUMP JUMPDEST PUSH1 0x0 PUSH2 0x47CC DUP3 PUSH2 0x2FFD JUMP JUMPDEST SWAP2 POP PUSH2 0x47D7 DUP4 PUSH2 0x2FFD JUMP JUMPDEST SWAP3 POP DUP2 PUSH32 0xFFFFFFFFFFFFFFFFFFFFFFFFFFFFFFFFFFFFFFFFFFFFFFFFFFFFFFFFFFFFFFFF DIV DUP4 GT DUP3 ISZERO ISZERO AND ISZERO PUSH2 0x4810 JUMPI PUSH2 0x480F PUSH2 0x4172 JUMP JUMPDEST JUMPDEST DUP3 DUP3 MUL SWAP1 POP SWAP3 SWAP2 POP POP JUMP JUMPDEST PUSH1 0x0 PUSH2 0x4826 DUP3 PUSH2 0x2FFD JUMP JUMPDEST SWAP2 POP PUSH1 0x0 DUP3 SUB PUSH2 0x4839 JUMPI PUSH2 0x4838 PUSH2 0x4172 JUMP JUMPDEST JUMPDEST PUSH1 0x1 DUP3 SUB SWAP1 POP SWAP2 SWAP1 POP JUMP JUMPDEST PUSH32 0x537472696E67733A20686578206C656E67746820696E73756666696369656E74 PUSH1 0x0 DUP3 ADD MSTORE POP JUMP JUMPDEST PUSH1 0x0 PUSH2 0x487A PUSH1 0x20 DUP4 PUSH2 0x2F4D JUMP JUMPDEST SWAP2 POP PUSH2 0x4885 DUP3 PUSH2 0x4844 JUMP JUMPDEST PUSH1 0x20 DUP3 ADD SWAP1 POP SWAP2 SWAP1 POP JUMP JUMPDEST PUSH1 0x0 PUSH1 0x20 DUP3 ADD SWAP1 POP DUP2 DUP2 SUB PUSH1 0x0 DUP4 ADD MSTORE PUSH2 0x48A9 DUP2 PUSH2 0x486D JUMP JUMPDEST SWAP1 POP SWAP2 SWAP1 POP JUMP JUMPDEST PUSH1 0x0 PUSH2 0x48BB DUP3 PUSH2 0x2FFD JUMP JUMPDEST SWAP2 POP PUSH32 0xFFFFFFFFFFFFFFFFFFFFFFFFFFFFFFFFFFFFFFFFFFFFFFFFFFFFFFFFFFFFFFFF DUP3 SUB PUSH2 0x48ED JUMPI PUSH2 0x48EC PUSH2 0x4172 JUMP JUMPDEST JUMPDEST PUSH1 0x1 DUP3 ADD SWAP1 POP SWAP2 SWAP1 POP JUMP JUMPDEST PUSH32 0x4E487B7100000000000000000000000000000000000000000000000000000000 PUSH1 0x0 MSTORE PUSH1 0x12 PUSH1 0x4 MSTORE PUSH1 0x24 PUSH1 0x0 REVERT JUMPDEST PUSH1 0x0 PUSH2 0x4932 DUP3 PUSH2 0x2FFD JUMP JUMPDEST SWAP2 POP PUSH2 0x493D DUP4 PUSH2 0x2FFD JUMP JUMPDEST SWAP3 POP DUP3 PUSH2 0x494D JUMPI PUSH2 0x494C PUSH2 0x48F8 JUMP JUMPDEST JUMPDEST DUP3 DUP3 DIV SWAP1 POP SWAP3 SWAP2 POP POP JUMP JUMPDEST PUSH1 0x0 PUSH2 0x4963 DUP3 PUSH2 0x2FFD JUMP JUMPDEST SWAP2 POP PUSH2 0x496E DUP4 PUSH2 0x2FFD JUMP JUMPDEST SWAP3 POP DUP3 PUSH2 0x497E JUMPI PUSH2 0x497D PUSH2 0x48F8 JUMP JUMPDEST JUMPDEST DUP3 DUP3 MOD SWAP1 POP SWAP3 SWAP2 POP POP JUMP JUMPDEST PUSH32 0x4552433732313A206D696E7420746F20746865207A65726F2061646472657373 PUSH1 0x0 DUP3 ADD MSTORE POP JUMP JUMPDEST PUSH1 0x0 PUSH2 0x49BF PUSH1 0x20 DUP4 PUSH2 0x2F4D JUMP JUMPDEST SWAP2 POP PUSH2 0x49CA DUP3 PUSH2 0x4989 JUMP JUMPDEST PUSH1 0x20 DUP3 ADD SWAP1 POP SWAP2 SWAP1 POP JUMP JUMPDEST PUSH1 0x0 PUSH1 0x20 DUP3 ADD SWAP1 POP DUP2 DUP2 SUB PUSH1 0x0 DUP4 ADD MSTORE PUSH2 0x49EE DUP2 PUSH2 0x49B2 JUMP JUMPDEST SWAP1 POP SWAP2 SWAP1 POP JUMP JUMPDEST PUSH32 0x4552433732313A20746F6B656E20616C7265616479206D696E74656400000000 PUSH1 0x0 DUP3 ADD MSTORE POP JUMP JUMPDEST PUSH1 0x0 PUSH2 0x4A2B PUSH1 0x1C DUP4 PUSH2 0x2F4D JUMP JUMPDEST SWAP2 POP PUSH2 0x4A36 DUP3 PUSH2 0x49F5 JUMP JUMPDEST PUSH1 0x20 DUP3 ADD SWAP1 POP SWAP2 SWAP1 POP JUMP JUMPDEST PUSH1 0x0 PUSH1 0x20 DUP3 ADD SWAP1 POP DUP2 DUP2 SUB PUSH1 0x0 DUP4 ADD MSTORE PUSH2 0x4A5A DUP2 PUSH2 0x4A1E JUMP JUMPDEST SWAP1 POP SWAP2 SWAP1 POP JUMP JUMPDEST PUSH32 0x4E487B7100000000000000000000000000000000000000000000000000000000 PUSH1 0x0 MSTORE PUSH1 0x31 PUSH1 0x4 MSTORE PUSH1 0x24 PUSH1 0x0 REVERT INVALID LOG2 PUSH5 0x6970667358 0x22 SLT KECCAK256 0xA9 0xDC CALLER 0x5F STATICCALL 0xE3 0xD6 SLT 0xD8 0xEE 0x25 PUSH16 0x10A73948C6C87CECDC6007A7A7CC6781 0xA9 PUSH16 0xA99164736F6C634300080F0033000000 "
		},
		"gasEstimates": {
			"creation": {
				"codeDepositCost": "3828400",
				"executionCost": "infinite",
				"totalCost": "infinite"
			},
			"external": {
				"DEFAULT_ADMIN_ROLE()": "402",
				"LOCKER_ROLE()": "461",
				"MINTER_ROLE()": "418",
				"PAUSER_ROLE()": "395",
				"approve(address,uint256)": "infinite",
				"balanceOf(address)": "2944",
				"burn(uint256)": "infinite",
				"contractURI()": "infinite",
				"getApproved(uint256)": "5251",
				"getRoleAdmin(bytes32)": "infinite",
				"grantRole(bytes32,address)": "infinite",
				"hasRole(bytes32,address)": "3252",
				"isApprovedForAll(address,address)": "infinite",
				"lockMint()": "26829",
				"name()": "infinite",
				"ownerOf(uint256)": "3020",
				"pause()": "30364",
				"paused()": "2590",
				"renounceRole(bytes32,address)": "infinite",
				"revokeRole(bytes32,address)": "infinite",
				"safeMint(address,string)": "infinite",
				"safeTransferFrom(address,address,uint256)": "infinite",
				"safeTransferFrom(address,address,uint256,bytes)": "infinite",
				"setApprovalForAll(address,bool)": "infinite",
				"setBaseContractURI(string)": "infinite",
				"supportsInterface(bytes4)": "1041",
				"symbol()": "infinite",
				"tokenByIndex(uint256)": "infinite",
				"tokenOfOwnerByIndex(address,uint256)": "infinite",
				"tokenURI(uint256)": "infinite",
				"totalSupply()": "2513",
				"transferFrom(address,address,uint256)": "infinite",
				"unpause()": "30383"
			},
			"internal": {
				"_baseURI()": "infinite",
				"_beforeTokenTransfer(address,address,uint256)": "infinite",
				"_burn(uint256)": "infinite"
			}
		},
		"methodIdentifiers": {
			"DEFAULT_ADMIN_ROLE()": "a217fddf",
			"LOCKER_ROLE()": "f3621367",
			"MINTER_ROLE()": "d5391393",
			"PAUSER_ROLE()": "e63ab1e9",
			"approve(address,uint256)": "095ea7b3",
			"balanceOf(address)": "70a08231",
			"burn(uint256)": "42966c68",
			"contractURI()": "e8a3d485",
			"getApproved(uint256)": "081812fc",
			"getRoleAdmin(bytes32)": "248a9ca3",
			"grantRole(bytes32,address)": "2f2ff15d",
			"hasRole(bytes32,address)": "91d14854",
			"isApprovedForAll(address,address)": "e985e9c5",
			"lockMint()": "e0b6bb67",
			"name()": "06fdde03",
			"ownerOf(uint256)": "6352211e",
			"pause()": "8456cb59",
			"paused()": "5c975abb",
			"renounceRole(bytes32,address)": "36568abe",
			"revokeRole(bytes32,address)": "d547741f",
			"safeMint(address,string)": "d204c45e",
			"safeTransferFrom(address,address,uint256)": "42842e0e",
			"safeTransferFrom(address,address,uint256,bytes)": "b88d4fde",
			"setApprovalForAll(address,bool)": "a22cb465",
			"setBaseContractURI(string)": "0cd3a538",
			"supportsInterface(bytes4)": "01ffc9a7",
			"symbol()": "95d89b41",
			"tokenByIndex(uint256)": "4f6ccce7",
			"tokenOfOwnerByIndex(address,uint256)": "2f745c59",
			"tokenURI(uint256)": "c87b56dd",
			"totalSupply()": "18160ddd",
			"transferFrom(address,address,uint256)": "23b872dd",
			"unpause()": "3f4ba83a"
		}
	},
	"abi": [
		{
			"inputs": [
				{
					"internalType": "string",
					"name": "name",
					"type": "string"
				},
				{
					"internalType": "string",
					"name": "symbol",
					"type": "string"
				},
				{
					"internalType": "string",
					"name": "baseUri",
					"type": "string"
				},
				{
					"internalType": "string",
					"name": "contractUriSuffix",
					"type": "string"
				},
				{
					"internalType": "address",
					"name": "ownerOrMultiSigContract",
					"type": "address"
				}
			],
			"stateMutability": "nonpayable",
			"type": "constructor"
		},
		{
			"anonymous": false,
			"inputs": [
				{
					"indexed": true,
					"internalType": "address",
					"name": "owner",
					"type": "address"
				},
				{
					"indexed": true,
					"internalType": "address",
					"name": "approved",
					"type": "address"
				},
				{
					"indexed": true,
					"internalType": "uint256",
					"name": "tokenId",
					"type": "uint256"
				}
			],
			"name": "Approval",
			"type": "event"
		},
		{
			"anonymous": false,
			"inputs": [
				{
					"indexed": true,
					"internalType": "address",
					"name": "owner",
					"type": "address"
				},
				{
					"indexed": true,
					"internalType": "address",
					"name": "operator",
					"type": "address"
				},
				{
					"indexed": false,
					"internalType": "bool",
					"name": "approved",
					"type": "bool"
				}
			],
			"name": "ApprovalForAll",
			"type": "event"
		},
		{
			"anonymous": false,
			"inputs": [
				{
					"indexed": false,
					"internalType": "address",
					"name": "account",
					"type": "address"
				}
			],
			"name": "Paused",
			"type": "event"
		},
		{
			"anonymous": false,
			"inputs": [
				{
					"indexed": true,
					"internalType": "bytes32",
					"name": "role",
					"type": "bytes32"
				},
				{
					"indexed": true,
					"internalType": "bytes32",
					"name": "previousAdminRole",
					"type": "bytes32"
				},
				{
					"indexed": true,
					"internalType": "bytes32",
					"name": "newAdminRole",
					"type": "bytes32"
				}
			],
			"name": "RoleAdminChanged",
			"type": "event"
		},
		{
			"anonymous": false,
			"inputs": [
				{
					"indexed": true,
					"internalType": "bytes32",
					"name": "role",
					"type": "bytes32"
				},
				{
					"indexed": true,
					"internalType": "address",
					"name": "account",
					"type": "address"
				},
				{
					"indexed": true,
					"internalType": "address",
					"name": "sender",
					"type": "address"
				}
			],
			"name": "RoleGranted",
			"type": "event"
		},
		{
			"anonymous": false,
			"inputs": [
				{
					"indexed": true,
					"internalType": "bytes32",
					"name": "role",
					"type": "bytes32"
				},
				{
					"indexed": true,
					"internalType": "address",
					"name": "account",
					"type": "address"
				},
				{
					"indexed": true,
					"internalType": "address",
					"name": "sender",
					"type": "address"
				}
			],
			"name": "RoleRevoked",
			"type": "event"
		},
		{
			"anonymous": false,
			"inputs": [
				{
					"indexed": true,
					"internalType": "address",
					"name": "from",
					"type": "address"
				},
				{
					"indexed": true,
					"internalType": "address",
					"name": "to",
					"type": "address"
				},
				{
					"indexed": true,
					"internalType": "uint256",
					"name": "tokenId",
					"type": "uint256"
				}
			],
			"name": "Transfer",
			"type": "event"
		},
		{
			"anonymous": false,
			"inputs": [
				{
					"indexed": false,
					"internalType": "address",
					"name": "account",
					"type": "address"
				}
			],
			"name": "Unpaused",
			"type": "event"
		},
		{
			"inputs": [],
			"name": "DEFAULT_ADMIN_ROLE",
			"outputs": [
				{
					"internalType": "bytes32",
					"name": "",
					"type": "bytes32"
				}
			],
			"stateMutability": "view",
			"type": "function"
		},
		{
			"inputs": [],
			"name": "LOCKER_ROLE",
			"outputs": [
				{
					"internalType": "bytes32",
					"name": "",
					"type": "bytes32"
				}
			],
			"stateMutability": "view",
			"type": "function"
		},
		{
			"inputs": [],
			"name": "MINTER_ROLE",
			"outputs": [
				{
					"internalType": "bytes32",
					"name": "",
					"type": "bytes32"
				}
			],
			"stateMutability": "view",
			"type": "function"
		},
		{
			"inputs": [],
			"name": "PAUSER_ROLE",
			"outputs": [
				{
					"internalType": "bytes32",
					"name": "",
					"type": "bytes32"
				}
			],
			"stateMutability": "view",
			"type": "function"
		},
		{
			"inputs": [
				{
					"internalType": "address",
					"name": "to",
					"type": "address"
				},
				{
					"internalType": "uint256",
					"name": "tokenId",
					"type": "uint256"
				}
			],
			"name": "approve",
			"outputs": [],
			"stateMutability": "nonpayable",
			"type": "function"
		},
		{
			"inputs": [
				{
					"internalType": "address",
					"name": "owner",
					"type": "address"
				}
			],
			"name": "balanceOf",
			"outputs": [
				{
					"internalType": "uint256",
					"name": "",
					"type": "uint256"
				}
			],
			"stateMutability": "view",
			"type": "function"
		},
		{
			"inputs": [
				{
					"internalType": "uint256",
					"name": "tokenId",
					"type": "uint256"
				}
			],
			"name": "burn",
			"outputs": [],
			"stateMutability": "nonpayable",
			"type": "function"
		},
		{
			"inputs": [],
			"name": "contractURI",
			"outputs": [
				{
					"internalType": "string",
					"name": "",
					"type": "string"
				}
			],
			"stateMutability": "view",
			"type": "function"
		},
		{
			"inputs": [
				{
					"internalType": "uint256",
					"name": "tokenId",
					"type": "uint256"
				}
			],
			"name": "getApproved",
			"outputs": [
				{
					"internalType": "address",
					"name": "",
					"type": "address"
				}
			],
			"stateMutability": "view",
			"type": "function"
		},
		{
			"inputs": [
				{
					"internalType": "bytes32",
					"name": "role",
					"type": "bytes32"
				}
			],
			"name": "getRoleAdmin",
			"outputs": [
				{
					"internalType": "bytes32",
					"name": "",
					"type": "bytes32"
				}
			],
			"stateMutability": "view",
			"type": "function"
		},
		{
			"inputs": [
				{
					"internalType": "bytes32",
					"name": "role",
					"type": "bytes32"
				},
				{
					"internalType": "address",
					"name": "account",
					"type": "address"
				}
			],
			"name": "grantRole",
			"outputs": [],
			"stateMutability": "nonpayable",
			"type": "function"
		},
		{
			"inputs": [
				{
					"internalType": "bytes32",
					"name": "role",
					"type": "bytes32"
				},
				{
					"internalType": "address",
					"name": "account",
					"type": "address"
				}
			],
			"name": "hasRole",
			"outputs": [
				{
					"internalType": "bool",
					"name": "",
					"type": "bool"
				}
			],
			"stateMutability": "view",
			"type": "function"
		},
		{
			"inputs": [
				{
					"internalType": "address",
					"name": "owner",
					"type": "address"
				},
				{
					"internalType": "address",
					"name": "operator",
					"type": "address"
				}
			],
			"name": "isApprovedForAll",
			"outputs": [
				{
					"internalType": "bool",
					"name": "",
					"type": "bool"
				}
			],
			"stateMutability": "view",
			"type": "function"
		},
		{
			"inputs": [],
			"name": "lockMint",
			"outputs": [],
			"stateMutability": "nonpayable",
			"type": "function"
		},
		{
			"inputs": [],
			"name": "name",
			"outputs": [
				{
					"internalType": "string",
					"name": "",
					"type": "string"
				}
			],
			"stateMutability": "view",
			"type": "function"
		},
		{
			"inputs": [
				{
					"internalType": "uint256",
					"name": "tokenId",
					"type": "uint256"
				}
			],
			"name": "ownerOf",
			"outputs": [
				{
					"internalType": "address",
					"name": "",
					"type": "address"
				}
			],
			"stateMutability": "view",
			"type": "function"
		},
		{
			"inputs": [],
			"name": "pause",
			"outputs": [],
			"stateMutability": "nonpayable",
			"type": "function"
		},
		{
			"inputs": [],
			"name": "paused",
			"outputs": [
				{
					"internalType": "bool",
					"name": "",
					"type": "bool"
				}
			],
			"stateMutability": "view",
			"type": "function"
		},
		{
			"inputs": [
				{
					"internalType": "bytes32",
					"name": "role",
					"type": "bytes32"
				},
				{
					"internalType": "address",
					"name": "account",
					"type": "address"
				}
			],
			"name": "renounceRole",
			"outputs": [],
			"stateMutability": "nonpayable",
			"type": "function"
		},
		{
			"inputs": [
				{
					"internalType": "bytes32",
					"name": "role",
					"type": "bytes32"
				},
				{
					"internalType": "address",
					"name": "account",
					"type": "address"
				}
			],
			"name": "revokeRole",
			"outputs": [],
			"stateMutability": "nonpayable",
			"type": "function"
		},
		{
			"inputs": [
				{
					"internalType": "address",
					"name": "to",
					"type": "address"
				},
				{
					"internalType": "string",
					"name": "metadataURI",
					"type": "string"
				}
			],
			"name": "safeMint",
			"outputs": [],
			"stateMutability": "nonpayable",
			"type": "function"
		},
		{
			"inputs": [
				{
					"internalType": "address",
					"name": "from",
					"type": "address"
				},
				{
					"internalType": "address",
					"name": "to",
					"type": "address"
				},
				{
					"internalType": "uint256",
					"name": "tokenId",
					"type": "uint256"
				}
			],
			"name": "safeTransferFrom",
			"outputs": [],
			"stateMutability": "nonpayable",
			"type": "function"
		},
		{
			"inputs": [
				{
					"internalType": "address",
					"name": "from",
					"type": "address"
				},
				{
					"internalType": "address",
					"name": "to",
					"type": "address"
				},
				{
					"internalType": "uint256",
					"name": "tokenId",
					"type": "uint256"
				},
				{
					"internalType": "bytes",
					"name": "_data",
					"type": "bytes"
				}
			],
			"name": "safeTransferFrom",
			"outputs": [],
			"stateMutability": "nonpayable",
			"type": "function"
		},
		{
			"inputs": [
				{
					"internalType": "address",
					"name": "operator",
					"type": "address"
				},
				{
					"internalType": "bool",
					"name": "approved",
					"type": "bool"
				}
			],
			"name": "setApprovalForAll",
			"outputs": [],
			"stateMutability": "nonpayable",
			"type": "function"
		},
		{
			"inputs": [
				{
					"internalType": "string",
					"name": "newBaseContractUri",
					"type": "string"
				}
			],
			"name": "setBaseContractURI",
			"outputs": [],
			"stateMutability": "nonpayable",
			"type": "function"
		},
		{
			"inputs": [
				{
					"internalType": "bytes4",
					"name": "interfaceId",
					"type": "bytes4"
				}
			],
			"name": "supportsInterface",
			"outputs": [
				{
					"internalType": "bool",
					"name": "",
					"type": "bool"
				}
			],
			"stateMutability": "view",
			"type": "function"
		},
		{
			"inputs": [],
			"name": "symbol",
			"outputs": [
				{
					"internalType": "string",
					"name": "",
					"type": "string"
				}
			],
			"stateMutability": "view",
			"type": "function"
		},
		{
			"inputs": [
				{
					"internalType": "uint256",
					"name": "index",
					"type": "uint256"
				}
			],
			"name": "tokenByIndex",
			"outputs": [
				{
					"internalType": "uint256",
					"name": "",
					"type": "uint256"
				}
			],
			"stateMutability": "view",
			"type": "function"
		},
		{
			"inputs": [
				{
					"internalType": "address",
					"name": "owner",
					"type": "address"
				},
				{
					"internalType": "uint256",
					"name": "index",
					"type": "uint256"
				}
			],
			"name": "tokenOfOwnerByIndex",
			"outputs": [
				{
					"internalType": "uint256",
					"name": "",
					"type": "uint256"
				}
			],
			"stateMutability": "view",
			"type": "function"
		},
		{
			"inputs": [
				{
					"internalType": "uint256",
					"name": "tokenId",
					"type": "uint256"
				}
			],
			"name": "tokenURI",
			"outputs": [
				{
					"internalType": "string",
					"name": "",
					"type": "string"
				}
			],
			"stateMutability": "view",
			"type": "function"
		},
		{
			"inputs": [],
			"name": "totalSupply",
			"outputs": [
				{
					"internalType": "uint256",
					"name": "",
					"type": "uint256"
				}
			],
			"stateMutability": "view",
			"type": "function"
		},
		{
			"inputs": [
				{
					"internalType": "address",
					"name": "from",
					"type": "address"
				},
				{
					"internalType": "address",
					"name": "to",
					"type": "address"
				},
				{
					"internalType": "uint256",
					"name": "tokenId",
					"type": "uint256"
				}
			],
			"name": "transferFrom",
			"outputs": [],
			"stateMutability": "nonpayable",
			"type": "function"
		},
		{
			"inputs": [],
			"name": "unpause",
			"outputs": [],
			"stateMutability": "nonpayable",
			"type": "function"
		}
	]
}