{
	"data": {
		"bytecode": {
			"linkReferences": {},
			"object": "608060405260008055600180556002805534801561001c57600080fd5b506102408061002c6000396000f3fe608060405234801561001057600080fd5b50600436106100575760003560e01c8063335d00c21461005c5780633a32b549146100665780637b5d520b14610084578063c3be8e2c146100a2578063c5d7802e146100ac575b600080fd5b6100646100ca565b005b61006e610105565b60405161007b9190610160565b60405180910390f35b61008c61010f565b6040516100999190610160565b60405180910390f35b6100aa610118565b005b6100b461013d565b6040516100c19190610160565b60405180910390f35b6002546001546000546100dd919061017b565b6100e7919061017b565b506100f0610143565b506100f9610148565b5061010261010f565b50565b600061012c905090565b600060c8905090565b600254600154610128919061017b565b50610131610148565b5061013a61010f565b50565b60025481565b600090565b60006064905090565b61015a816101d1565b82525050565b60006020820190506101756000830184610151565b92915050565b6000610186826101d1565b9150610191836101d1565b9250827fffffffffffffffffffffffffffffffffffffffffffffffffffffffffffffffff038211156101c6576101c56101db565b5b828201905092915050565b6000819050919050565b7f4e487b7100000000000000000000000000000000000000000000000000000000600052601160045260246000fdfea2646970667358221220f662405b82f7703f02d7886abf14b1c12ef84a33dcbb19a14a4d173dadd5f11264736f6c63430008070033",
			"opcodes": "PUSH1 0x80 PUSH1 0x40 MSTORE PUSH1 0x0 DUP1 SSTORE PUSH1 0x1 DUP1 SSTORE PUSH1 0x2 DUP1 SSTORE CALLVALUE DUP1 ISZERO PUSH2 0x1C JUMPI PUSH1 0x0 DUP1 REVERT JUMPDEST POP PUSH2 0x240 DUP1 PUSH2 0x2C PUSH1 0x0 CODECOPY PUSH1 0x0 RETURN INVALID PUSH1 0x80 PUSH1 0x40 MSTORE CALLVALUE DUP1 ISZERO PUSH2 0x10 JUMPI PUSH1 0x0 DUP1 REVERT JUMPDEST POP PUSH1 0x4 CALLDATASIZE LT PUSH2 0x57 JUMPI PUSH1 0x0 CALLDATALOAD PUSH1 0xE0 SHR DUP1 PUSH4 0x335D00C2 EQ PUSH2 0x5C JUMPI DUP1 PUSH4 0x3A32B549 EQ PUSH2 0x66 JUMPI DUP1 PUSH4 0x7B5D520B EQ PUSH2 0x84 JUMPI DUP1 PUSH4 0xC3BE8E2C EQ PUSH2 0xA2 JUMPI DUP1 PUSH4 0xC5D7802E EQ PUSH2 0xAC JUMPI JUMPDEST PUSH1 0x0 DUP1 REVERT JUMPDEST PUSH2 0x64 PUSH2 0xCA JUMP JUMPDEST STOP JUMPDEST PUSH2 0x6E PUSH2 0x105 JUMP JUMPDEST PUSH1 0x40 MLOAD PUSH2 0x7B SWAP2 SWAP1 PUSH2 0x160 JUMP JUMPDEST PUSH1 0x40 MLOAD DUP1 SWAP2 SUB SWAP1 RETURN JUMPDEST PUSH2 0x8C PUSH2 0x10F JUMP JUMPDEST PUSH1 0x40 MLOAD PUSH2 0x99 SWAP2 SWAP1 PUSH2 0x160 JUMP JUMPDEST PUSH1 0x40 MLOAD DUP1 SWAP2 SUB SWAP1 RETURN JUMPDEST PUSH2 0xAA PUSH2 0x118 JUMP JUMPDEST STOP JUMPDEST PUSH2 0xB4 PUSH2 0x13D JUMP JUMPDEST PUSH1 0x40 MLOAD PUSH2 0xC1 SWAP2 SWAP1 PUSH2 0x160 JUMP JUMPDEST PUSH1 0x40 MLOAD DUP1 SWAP2 SUB SWAP1 RETURN JUMPDEST PUSH1 0x2 SLOAD PUSH1 0x1 SLOAD PUSH1 0x0 SLOAD PUSH2 0xDD SWAP2 SWAP1 PUSH2 0x17B JUMP JUMPDEST PUSH2 0xE7 SWAP2 SWAP1 PUSH2 0x17B JUMP JUMPDEST POP PUSH2 0xF0 PUSH2 0x143 JUMP JUMPDEST POP PUSH2 0xF9 PUSH2 0x148 JUMP JUMPDEST POP PUSH2 0x102 PUSH2 0x10F JUMP JUMPDEST POP JUMP JUMPDEST PUSH1 0x0 PUSH2 0x12C SWAP1 POP SWAP1 JUMP JUMPDEST PUSH1 0x0 PUSH1 0xC8 SWAP1 POP SWAP1 JUMP JUMPDEST PUSH1 0x2 SLOAD PUSH1 0x1 SLOAD PUSH2 0x128 SWAP2 SWAP1 PUSH2 0x17B JUMP JUMPDEST POP PUSH2 0x131 PUSH2 0x148 JUMP JUMPDEST POP PUSH2 0x13A PUSH2 0x10F JUMP JUMPDEST POP JUMP JUMPDEST PUSH1 0x2 SLOAD DUP2 JUMP JUMPDEST PUSH1 0x0 SWAP1 JUMP JUMPDEST PUSH1 0x0 PUSH1 0x64 SWAP1 POP SWAP1 JUMP JUMPDEST PUSH2 0x15A DUP2 PUSH2 0x1D1 JUMP JUMPDEST DUP3 MSTORE POP POP JUMP JUMPDEST PUSH1 0x0 PUSH1 0x20 DUP3 ADD SWAP1 POP PUSH2 0x175 PUSH1 0x0 DUP4 ADD DUP5 PUSH2 0x151 JUMP JUMPDEST SWAP3 SWAP2 POP POP JUMP JUMPDEST PUSH1 0x0 PUSH2 0x186 DUP3 PUSH2 0x1D1 JUMP JUMPDEST SWAP2 POP PUSH2 0x191 DUP4 PUSH2 0x1D1 JUMP JUMPDEST SWAP3 POP DUP3 PUSH32 0xFFFFFFFFFFFFFFFFFFFFFFFFFFFFFFFFFFFFFFFFFFFFFFFFFFFFFFFFFFFFFFFF SUB DUP3 GT ISZERO PUSH2 0x1C6 JUMPI PUSH2 0x1C5 PUSH2 0x1DB JUMP JUMPDEST JUMPDEST DUP3 DUP3 ADD SWAP1 POP SWAP3 SWAP2 POP POP JUMP JUMPDEST PUSH1 0x0 DUP2 SWAP1 POP SWAP2 SWAP1 POP JUMP JUMPDEST PUSH32 0x4E487B7100000000000000000000000000000000000000000000000000000000 PUSH1 0x0 MSTORE PUSH1 0x11 PUSH1 0x4 MSTORE PUSH1 0x24 PUSH1 0x0 REVERT INVALID LOG2 PUSH5 0x6970667358 0x22 SLT KECCAK256 0xF6 PUSH3 0x405B82 0xF7 PUSH17 0x3F02D7886ABF14B1C12EF84A33DCBB19A1 0x4A 0x4D OR RETURNDATASIZE 0xAD 0xD5 CALL SLT PUSH5 0x736F6C6343 STOP ADDMOD SMOD STOP CALLER "
		},
		"gasEstimates": {
			"creation": {
				"codeDepositCost": "115200",
				"executionCost": "49377",
				"totalCost": "164577"
			},
			"external": {
				"examples()": "infinite",
				"examples2()": "infinite",
				"externalFunction()": "337",
				"publicFunction()": "359",
				"z()": "2495"
			}
		},
		"methodIdentifiers": {
			"examples()": "335d00c2",
			"examples2()": "c3be8e2c",
			"externalFunction()": "3a32b549",
			"publicFunction()": "7b5d520b",
			"z()": "c5d7802e"
		}
	},
	"abi": [
		{
			"inputs": [],
			"name": "examples",
			"outputs": [],
			"stateMutability": "view",
			"type": "function"
		},
		{
			"inputs": [],
			"name": "examples2",
			"outputs": [],
			"stateMutability": "view",
			"type": "function"
		},
		{
			"inputs": [],
			"name": "externalFunction",
			"outputs": [
				{
					"internalType": "uint256",
					"name": "",
					"type": "uint256"
				}
			],
			"stateMutability": "pure",
			"type": "function"
		},
		{
			"inputs": [],
			"name": "publicFunction",
			"outputs": [
				{
					"internalType": "uint256",
					"name": "",
					"type": "uint256"
				}
			],
			"stateMutability": "pure",
			"type": "function"
		},
		{
			"inputs": [],
			"name": "z",
			"outputs": [
				{
					"internalType": "uint256",
					"name": "",
					"type": "uint256"
				}
			],
			"stateMutability": "view",
			"type": "function"
		}
	]
}